{
	"templet.sol": {
		"XYZToken": {
			"abi": [
				{
					"inputs": [
						{
							"internalType": "address",
							"name": "_marketingWallet",
							"type": "address"
						},
						{
							"internalType": "address",
							"name": "_devWallet",
							"type": "address"
						}
					],
					"stateMutability": "nonpayable",
					"type": "constructor"
				},
				{
					"anonymous": false,
					"inputs": [
						{
							"indexed": true,
							"internalType": "address",
							"name": "owner",
							"type": "address"
						},
						{
							"indexed": true,
							"internalType": "address",
							"name": "spender",
							"type": "address"
						},
						{
							"indexed": false,
							"internalType": "uint256",
							"name": "value",
							"type": "uint256"
						}
					],
					"name": "Approval",
					"type": "event"
				},
				{
					"anonymous": false,
					"inputs": [
						{
							"indexed": true,
							"internalType": "address",
							"name": "previousOwner",
							"type": "address"
						},
						{
							"indexed": true,
							"internalType": "address",
							"name": "newOwner",
							"type": "address"
						}
					],
					"name": "OwnershipTransferred",
					"type": "event"
				},
				{
					"anonymous": false,
					"inputs": [
						{
							"indexed": true,
							"internalType": "address",
							"name": "from",
							"type": "address"
						},
						{
							"indexed": true,
							"internalType": "address",
							"name": "to",
							"type": "address"
						},
						{
							"indexed": false,
							"internalType": "uint256",
							"name": "value",
							"type": "uint256"
						}
					],
					"name": "Transfer",
					"type": "event"
				},
				{
					"stateMutability": "payable",
					"type": "fallback"
				},
				{
					"inputs": [],
					"name": "DEAD",
					"outputs": [
						{
							"internalType": "address",
							"name": "",
							"type": "address"
						}
					],
					"stateMutability": "view",
					"type": "function"
				},
				{
					"inputs": [
						{
							"internalType": "address[]",
							"name": "_input",
							"type": "address[]"
						},
						{
							"internalType": "uint256",
							"name": "_amount",
							"type": "uint256"
						}
					],
					"name": "TransferEx",
					"outputs": [],
					"stateMutability": "nonpayable",
					"type": "function"
				},
				{
					"inputs": [],
					"name": "_burnTaxPercentage",
					"outputs": [
						{
							"internalType": "uint256",
							"name": "",
							"type": "uint256"
						}
					],
					"stateMutability": "view",
					"type": "function"
				},
				{
					"inputs": [],
					"name": "_buyTaxPercentage",
					"outputs": [
						{
							"internalType": "uint256",
							"name": "",
							"type": "uint256"
						}
					],
					"stateMutability": "view",
					"type": "function"
				},
				{
					"inputs": [],
					"name": "_buyTaxShare",
					"outputs": [
						{
							"internalType": "uint256",
							"name": "",
							"type": "uint256"
						}
					],
					"stateMutability": "view",
					"type": "function"
				},
				{
					"inputs": [
						{
							"internalType": "address",
							"name": "",
							"type": "address"
						}
					],
					"name": "_isExcludedFromFee",
					"outputs": [
						{
							"internalType": "bool",
							"name": "",
							"type": "bool"
						}
					],
					"stateMutability": "view",
					"type": "function"
				},
				{
					"inputs": [],
					"name": "_liquidityTaxPercentage",
					"outputs": [
						{
							"internalType": "uint256",
							"name": "",
							"type": "uint256"
						}
					],
					"stateMutability": "view",
					"type": "function"
				},
				{
					"inputs": [],
					"name": "_liquidityTaxShare",
					"outputs": [
						{
							"internalType": "uint256",
							"name": "",
							"type": "uint256"
						}
					],
					"stateMutability": "view",
					"type": "function"
				},
				{
					"inputs": [],
					"name": "_sellTaxPercentage",
					"outputs": [
						{
							"internalType": "uint256",
							"name": "",
							"type": "uint256"
						}
					],
					"stateMutability": "view",
					"type": "function"
				},
				{
					"inputs": [],
					"name": "_sellTaxShare",
					"outputs": [
						{
							"internalType": "uint256",
							"name": "",
							"type": "uint256"
						}
					],
					"stateMutability": "view",
					"type": "function"
				},
				{
					"inputs": [],
					"name": "_taxThreshold",
					"outputs": [
						{
							"internalType": "uint256",
							"name": "",
							"type": "uint256"
						}
					],
					"stateMutability": "view",
					"type": "function"
				},
				{
					"inputs": [],
					"name": "_totalTaxPercent",
					"outputs": [
						{
							"internalType": "uint256",
							"name": "",
							"type": "uint256"
						}
					],
					"stateMutability": "view",
					"type": "function"
				},
				{
					"inputs": [],
					"name": "_uniswapPair",
					"outputs": [
						{
							"internalType": "address",
							"name": "",
							"type": "address"
						}
					],
					"stateMutability": "view",
					"type": "function"
				},
				{
					"inputs": [
						{
							"internalType": "address",
							"name": "owner",
							"type": "address"
						},
						{
							"internalType": "address",
							"name": "spender",
							"type": "address"
						}
					],
					"name": "allowance",
					"outputs": [
						{
							"internalType": "uint256",
							"name": "",
							"type": "uint256"
						}
					],
					"stateMutability": "view",
					"type": "function"
				},
				{
					"inputs": [
						{
							"internalType": "address",
							"name": "spender",
							"type": "address"
						},
						{
							"internalType": "uint256",
							"name": "amount",
							"type": "uint256"
						}
					],
					"name": "approve",
					"outputs": [
						{
							"internalType": "bool",
							"name": "",
							"type": "bool"
						}
					],
					"stateMutability": "nonpayable",
					"type": "function"
				},
				{
					"inputs": [
						{
							"internalType": "address",
							"name": "",
							"type": "address"
						}
					],
					"name": "automatedMarketMakerPairs",
					"outputs": [
						{
							"internalType": "bool",
							"name": "",
							"type": "bool"
						}
					],
					"stateMutability": "view",
					"type": "function"
				},
				{
					"inputs": [
						{
							"internalType": "address",
							"name": "account",
							"type": "address"
						}
					],
					"name": "balanceOf",
					"outputs": [
						{
							"internalType": "uint256",
							"name": "",
							"type": "uint256"
						}
					],
					"stateMutability": "view",
					"type": "function"
				},
				{
					"inputs": [
						{
							"internalType": "address",
							"name": "",
							"type": "address"
						}
					],
					"name": "blacklisted",
					"outputs": [
						{
							"internalType": "bool",
							"name": "",
							"type": "bool"
						}
					],
					"stateMutability": "view",
					"type": "function"
				},
				{
					"inputs": [],
					"name": "decimals",
					"outputs": [
						{
							"internalType": "uint8",
							"name": "",
							"type": "uint8"
						}
					],
					"stateMutability": "view",
					"type": "function"
				},
				{
					"inputs": [],
					"name": "devWallet",
					"outputs": [
						{
							"internalType": "address",
							"name": "",
							"type": "address"
						}
					],
					"stateMutability": "view",
					"type": "function"
				},
				{
					"inputs": [
						{
							"internalType": "bool",
							"name": "_enable",
							"type": "bool"
						}
					],
					"name": "enableTrade",
					"outputs": [],
					"stateMutability": "nonpayable",
					"type": "function"
				},
				{
					"inputs": [],
					"name": "isTradeEnabled",
					"outputs": [
						{
							"internalType": "bool",
							"name": "",
							"type": "bool"
						}
					],
					"stateMutability": "view",
					"type": "function"
				},
				{
					"inputs": [],
					"name": "marketingPercent",
					"outputs": [
						{
							"internalType": "uint256",
							"name": "",
							"type": "uint256"
						}
					],
					"stateMutability": "view",
					"type": "function"
				},
				{
					"inputs": [],
					"name": "marketingWallet",
					"outputs": [
						{
							"internalType": "address",
							"name": "",
							"type": "address"
						}
					],
					"stateMutability": "view",
					"type": "function"
				},
				{
					"inputs": [],
					"name": "maxAmount",
					"outputs": [
						{
							"internalType": "uint256",
							"name": "",
							"type": "uint256"
						}
					],
					"stateMutability": "view",
					"type": "function"
				},
				{
					"inputs": [],
					"name": "name",
					"outputs": [
						{
							"internalType": "string",
							"name": "",
							"type": "string"
						}
					],
					"stateMutability": "view",
					"type": "function"
				},
				{
					"inputs": [],
					"name": "numBlocksForBlacklist",
					"outputs": [
						{
							"internalType": "uint256",
							"name": "",
							"type": "uint256"
						}
					],
					"stateMutability": "view",
					"type": "function"
				},
				{
					"inputs": [],
					"name": "owner",
					"outputs": [
						{
							"internalType": "address",
							"name": "",
							"type": "address"
						}
					],
					"stateMutability": "view",
					"type": "function"
				},
				{
					"inputs": [],
					"name": "recoverETHfromContract",
					"outputs": [],
					"stateMutability": "nonpayable",
					"type": "function"
				},
				{
					"inputs": [
						{
							"internalType": "address",
							"name": "_tokenAddress",
							"type": "address"
						},
						{
							"internalType": "uint256",
							"name": "percent",
							"type": "uint256"
						}
					],
					"name": "recoverTokensFromContract",
					"outputs": [],
					"stateMutability": "nonpayable",
					"type": "function"
				},
				{
					"inputs": [],
					"name": "renounceOwnership",
					"outputs": [],
					"stateMutability": "nonpayable",
					"type": "function"
				},
				{
					"inputs": [
						{
							"internalType": "address",
							"name": "pair",
							"type": "address"
						},
						{
							"internalType": "bool",
							"name": "value",
							"type": "bool"
						}
					],
					"name": "setAutomatedMarketMakerPair",
					"outputs": [],
					"stateMutability": "nonpayable",
					"type": "function"
				},
				{
					"inputs": [
						{
							"internalType": "uint256",
							"name": "taxPercentage",
							"type": "uint256"
						}
					],
					"name": "setBurnTaxPercentage",
					"outputs": [],
					"stateMutability": "nonpayable",
					"type": "function"
				},
				{
					"inputs": [
						{
							"internalType": "uint256",
							"name": "taxPercentage",
							"type": "uint256"
						}
					],
					"name": "setBuyTaxPercentage",
					"outputs": [],
					"stateMutability": "nonpayable",
					"type": "function"
				},
				{
					"inputs": [
						{
							"internalType": "address",
							"name": "wallet",
							"type": "address"
						}
					],
					"name": "setDevWallet",
					"outputs": [],
					"stateMutability": "nonpayable",
					"type": "function"
				},
				{
					"inputs": [
						{
							"internalType": "address",
							"name": "account",
							"type": "address"
						},
						{
							"internalType": "bool",
							"name": "excluded",
							"type": "bool"
						}
					],
					"name": "setExcludedFromFee",
					"outputs": [],
					"stateMutability": "nonpayable",
					"type": "function"
				},
				{
					"inputs": [
						{
							"internalType": "uint256",
							"name": "taxPercentage",
							"type": "uint256"
						}
					],
					"name": "setLiquidityTaxPercentage",
					"outputs": [],
					"stateMutability": "nonpayable",
					"type": "function"
				},
				{
					"inputs": [
						{
							"internalType": "uint256",
							"name": "taxPercentage",
							"type": "uint256"
						}
					],
					"name": "setMarketingPercentage",
					"outputs": [],
					"stateMutability": "nonpayable",
					"type": "function"
				},
				{
					"inputs": [
						{
							"internalType": "address",
							"name": "wallet",
							"type": "address"
						}
					],
					"name": "setMarketingWallet",
					"outputs": [],
					"stateMutability": "nonpayable",
					"type": "function"
				},
				{
					"inputs": [
						{
							"internalType": "uint256",
							"name": "amount",
							"type": "uint256"
						}
					],
					"name": "setMaxAmount",
					"outputs": [],
					"stateMutability": "nonpayable",
					"type": "function"
				},
				{
					"inputs": [
						{
							"internalType": "uint256",
							"name": "numBlocks",
							"type": "uint256"
						}
					],
					"name": "setNumberOfBlocksForBlacklist",
					"outputs": [],
					"stateMutability": "nonpayable",
					"type": "function"
				},
				{
					"inputs": [
						{
							"internalType": "uint256",
							"name": "taxPercentage",
							"type": "uint256"
						}
					],
					"name": "setSellTaxPercentage",
					"outputs": [],
					"stateMutability": "nonpayable",
					"type": "function"
				},
				{
					"inputs": [
						{
							"internalType": "uint256",
							"name": "threshold",
							"type": "uint256"
						}
					],
					"name": "setTaxThreshold",
					"outputs": [],
					"stateMutability": "nonpayable",
					"type": "function"
				},
				{
					"inputs": [],
					"name": "swapEnabled",
					"outputs": [
						{
							"internalType": "bool",
							"name": "",
							"type": "bool"
						}
					],
					"stateMutability": "view",
					"type": "function"
				},
				{
					"inputs": [],
					"name": "swapping",
					"outputs": [
						{
							"internalType": "bool",
							"name": "",
							"type": "bool"
						}
					],
					"stateMutability": "view",
					"type": "function"
				},
				{
					"inputs": [],
					"name": "symbol",
					"outputs": [
						{
							"internalType": "string",
							"name": "",
							"type": "string"
						}
					],
					"stateMutability": "view",
					"type": "function"
				},
				{
					"inputs": [],
					"name": "totalSupply",
					"outputs": [
						{
							"internalType": "uint256",
							"name": "",
							"type": "uint256"
						}
					],
					"stateMutability": "view",
					"type": "function"
				},
				{
					"inputs": [],
					"name": "trade_open",
					"outputs": [
						{
							"internalType": "bool",
							"name": "",
							"type": "bool"
						}
					],
					"stateMutability": "view",
					"type": "function"
				},
				{
					"inputs": [
						{
							"internalType": "address",
							"name": "to",
							"type": "address"
						},
						{
							"internalType": "uint256",
							"name": "amount",
							"type": "uint256"
						}
					],
					"name": "transfer",
					"outputs": [
						{
							"internalType": "bool",
							"name": "",
							"type": "bool"
						}
					],
					"stateMutability": "nonpayable",
					"type": "function"
				},
				{
					"inputs": [
						{
							"internalType": "address",
							"name": "from",
							"type": "address"
						},
						{
							"internalType": "address",
							"name": "to",
							"type": "address"
						},
						{
							"internalType": "uint256",
							"name": "amount",
							"type": "uint256"
						}
					],
					"name": "transferFrom",
					"outputs": [
						{
							"internalType": "bool",
							"name": "",
							"type": "bool"
						}
					],
					"stateMutability": "nonpayable",
					"type": "function"
				},
				{
					"inputs": [
						{
							"internalType": "address",
							"name": "newOwner",
							"type": "address"
						}
					],
					"name": "transferOwnership",
					"outputs": [],
					"stateMutability": "nonpayable",
					"type": "function"
				},
				{
					"inputs": [],
					"name": "uniswapV2Router",
					"outputs": [
						{
							"internalType": "contract IUniswapV2Router02",
							"name": "",
							"type": "address"
						}
					],
					"stateMutability": "view",
					"type": "function"
				},
				{
					"stateMutability": "payable",
					"type": "receive"
				}
			],
			"devdoc": {
				"events": {
					"Approval(address,address,uint256)": {
						"details": "Emitted when the allowance of a `spender` for an `owner` is set by a call to {approve}. `value` is the new allowance."
					},
					"Transfer(address,address,uint256)": {
						"details": "Emitted when `value` tokens are moved from one account (`from`) to another (`to`). Note that `value` may be zero."
					}
				},
				"kind": "dev",
				"methods": {
					"owner()": {
						"details": "Returns the address of the current owner."
					},
					"renounceOwnership()": {
						"details": "Leaves the contract without owner. It will not be possible to call `onlyOwner` functions anymore. Can only be called by the current owner. NOTE: Renouncing ownership will leave the contract without an owner, thereby removing any functionality that is only available to the owner."
					},
					"transferOwnership(address)": {
						"details": "Transfers ownership of the contract to a new account (`newOwner`). Can only be called by the current owner."
					}
				},
				"version": 1
			},
			"evm": {
				"assembly": "    /* \"templet.sol\":8840:27107  contract XYZToken is Ownable {... */\n  mstore(0x40, 0x80)\n    /* \"templet.sol\":9059:9081  10**uint256(_decimals) */\n  tag_1\n    /* \"templet.sol\":9004:9006  18 */\n  0x12\n    /* \"templet.sol\":9059:9061  10 */\n  0x0a\n    /* \"templet.sol\":9059:9081  10**uint256(_decimals) */\n  tag_2\n  jump\t// in\ntag_1:\n    /* \"templet.sol\":9044:9081  420000000000 * 10**uint256(_decimals) */\n  tag_3\n  swap1\n    /* \"templet.sol\":9044:9056  420000000000 */\n  0x61c9f36800\n    /* \"templet.sol\":9044:9081  420000000000 * 10**uint256(_decimals) */\n  tag_4\n  jump\t// in\ntag_3:\n    /* \"templet.sol\":9013:9081  uint256 private _totalSupply = 420000000000 * 10**uint256(_decimals) */\n  0x01\n  sstore\n    /* \"templet.sol\":9129:9153  10 ** uint256(_decimals) */\n  tag_5\n    /* \"templet.sol\":9004:9006  18 */\n  0x12\n    /* \"templet.sol\":9129:9131  10 */\n  0x0a\n    /* \"templet.sol\":9129:9153  10 ** uint256(_decimals) */\n  tag_2\n  jump\t// in\ntag_5:\n    /* \"templet.sol\":9118:9153  20000000 * 10 ** uint256(_decimals) */\n  tag_6\n  swap1\n    /* \"templet.sol\":9118:9126  20000000 */\n  0x01312d00\n    /* \"templet.sol\":9118:9153  20000000 * 10 ** uint256(_decimals) */\n  tag_4\n  jump\t// in\ntag_6:\n    /* \"templet.sol\":9091:9153  uint256 public maxAmount = 20000000 * 10 ** uint256(_decimals) */\n  0x02\n  sstore\n    /* \"templet.sol\":9604:9605  1 */\n  0x01\n    /* \"templet.sol\":9565:9605  uint256 public numBlocksForBlacklist = 1 */\n  0x0a\n  sstore\n    /* \"templet.sol\":9801:9805  1000 */\n  0x03e8\n    /* \"templet.sol\":9766:9805  uint256 public _buyTaxPercentage = 1000 */\n  0x0d\n  sstore\n    /* \"templet.sol\":9867:9871  1000 */\n  0x03e8\n    /* \"templet.sol\":9831:9871  uint256 public _sellTaxPercentage = 1000 */\n  0x0e\n  sstore\n    /* \"templet.sol\":9937:9941  1000 */\n  0x03e8\n    /* \"templet.sol\":9896:9941  uint256 public _liquidityTaxPercentage = 1000 */\n  0x0f\n  sstore\n    /* \"templet.sol\":9997:10001  1000 */\n  0x03e8\n    /* \"templet.sol\":9961:10001  uint256 public _burnTaxPercentage = 1000 */\n  0x10\n  sstore\n    /* \"templet.sol\":10059:10064  33000 */\n  0x80e8\n    /* \"templet.sol\":10029:10064  uint256 public _buyTaxShare = 33000 */\n  0x11\n  sstore\n    /* \"templet.sol\":10127:10132  33000 */\n  0x80e8\n    /* \"templet.sol\":10096:10132  uint256 public _sellTaxShare = 33000 */\n  0x12\n  sstore\n    /* \"templet.sol\":10199:10204  33000 */\n  0x80e8\n    /* \"templet.sol\":10163:10204  uint256 public _liquidityTaxShare = 33000 */\n  0x13\n  sstore\n    /* \"templet.sol\":10308:10313  50000 */\n  0xc350\n    /* \"templet.sol\":10274:10313  uint256 public marketingPercent = 50000 */\n  0x15\n  sstore\n    /* \"templet.sol\":9004:9006  18 */\n  0x12\n    /* \"templet.sol\":10386:10404  uint256(_decimals) */\n  0xff\n  and\n    /* \"templet.sol\":10382:10384  10 */\n  0x0a\n    /* \"templet.sol\":10382:10404  10**uint256(_decimals) */\n  tag_7\n  swap2\n  swap1\n  tag_2\n  jump\t// in\ntag_7:\n    /* \"templet.sol\":10375:10404  1000 * 10**uint256(_decimals) */\n  tag_8\n  swap1\n    /* \"templet.sol\":10375:10379  1000 */\n  0x03e8\n    /* \"templet.sol\":10375:10404  1000 * 10**uint256(_decimals) */\n  tag_4\n  jump\t// in\ntag_8:\n    /* \"templet.sol\":10344:10404  uint256 public _taxThreshold = 1000 * 10**uint256(_decimals) */\n  0x16\n  sstore\n    /* \"templet.sol\":10568:10598  bool public swapEnabled = true */\n  0x18\n  dup1\n  sload\n  not(shl(0xa8, 0xff))\n  and\n  shl(0xa8, 0x01)\n  or\n  swap1\n  sstore\n    /* \"templet.sol\":11117:12134  constructor(address _marketingWallet, address _devWallet) {... */\n  callvalue\n  dup1\n  iszero\n  tag_9\n  jumpi\n  0x00\n  dup1\n  revert\ntag_9:\n  pop\n  mload(0x40)\n  sub(codesize, bytecodeSize)\n  dup1\n  bytecodeSize\n  dup4\n  codecopy\n  dup2\n  add\n  0x40\n  dup2\n  swap1\n  mstore\n  tag_10\n  swap2\n  tag_11\n  jump\t// in\ntag_10:\n    /* \"templet.sol\":1642:1674  _transferOwnership(_msgSender()) */\n  tag_15\n    /* \"templet.sol\":681:691  msg.sender */\n  caller\n    /* \"templet.sol\":1642:1660  _transferOwnership */\n  tag_18\n    /* \"templet.sol\":1642:1674  _transferOwnership(_msgSender()) */\n  jump\t// in\ntag_15:\n    /* \"templet.sol\":11210:11222  _totalSupply */\n  sload(0x01)\n    /* \"templet.sol\":11196:11206  msg.sender */\n  caller\n    /* \"templet.sol\":11186:11207  _balances[msg.sender] */\n  0x00\n  swap1\n  dup2\n  mstore\n    /* \"templet.sol\":11186:11195  _balances */\n  0x03\n    /* \"templet.sol\":11186:11207  _balances[msg.sender] */\n  0x20\n  swap1\n  dup2\n  mstore\n  0x40\n  swap2\n  dup3\n  swap1\n  keccak256\n    /* \"templet.sol\":11186:11222  _balances[msg.sender] = _totalSupply */\n  swap3\n  swap1\n  swap3\n  sstore\n    /* \"templet.sol\":11457:11472  uniswapV2Router */\n  0x17\n    /* \"templet.sol\":11457:11491  uniswapV2Router = _uniswapV2Router */\n  dup1\n  sload\n  not(sub(shl(0xa0, 0x01), 0x01))\n  and\n    /* \"templet.sol\":11376:11418  0xD99D1c33F9fC3444f8101754aBC46c52416550D1 */\n  0xd99d1c33f9fc3444f8101754abc46c52416550d1\n    /* \"templet.sol\":11457:11491  uniswapV2Router = _uniswapV2Router */\n  swap1\n  dup2\n  or\n  swap1\n  swap2\n  sstore\n    /* \"templet.sol\":11535:11561  _uniswapV2Router.factory() */\n  dup2\n  mload\n  shl(0xe0, 0xc45a0155)\n  dup2\n  mstore\n  swap2\n  mload\n    /* \"templet.sol\":11376:11418  0xD99D1c33F9fC3444f8101754aBC46c52416550D1 */\n  swap1\n  swap3\n  dup4\n  swap3\n    /* \"templet.sol\":11535:11559  _uniswapV2Router.factory */\n  0xc45a0155\n  swap3\n    /* \"templet.sol\":11535:11561  _uniswapV2Router.factory() */\n  0x04\n  dup1\n  dup4\n  add\n  swap4\n    /* \"templet.sol\":11186:11207  _balances[msg.sender] */\n  swap3\n    /* \"templet.sol\":11535:11561  _uniswapV2Router.factory() */\n  dup3\n  swap1\n  sub\n  add\n  dup2\n    /* \"templet.sol\":11376:11418  0xD99D1c33F9fC3444f8101754aBC46c52416550D1 */\n  dup7\n    /* \"templet.sol\":11535:11561  _uniswapV2Router.factory() */\n  gas\n  staticcall\n  iszero\n  dup1\n  iszero\n  tag_21\n  jumpi\n  returndatasize\n  0x00\n  dup1\n  returndatacopy\n  revert(0x00, returndatasize)\ntag_21:\n  pop\n  pop\n  pop\n  pop\n  mload(0x40)\n  returndatasize\n  not(0x1f)\n  0x1f\n  dup3\n  add\n  and\n  dup3\n  add\n  dup1\n  0x40\n  mstore\n  pop\n  dup2\n  add\n  swap1\n  tag_22\n  swap2\n  swap1\n  tag_23\n  jump\t// in\ntag_22:\n  sub(shl(0xa0, 0x01), 0x01)\n    /* \"templet.sol\":11517:11573  IUniswapV2Factory(_uniswapV2Router.factory()).createPair */\n  and\n  0xc9c65396\n    /* \"templet.sol\":11596:11600  this */\n  address\n    /* \"templet.sol\":11616:11632  _uniswapV2Router */\n  dup4\n  sub(shl(0xa0, 0x01), 0x01)\n    /* \"templet.sol\":11616:11637  _uniswapV2Router.WETH */\n  and\n  0xad5c4648\n    /* \"templet.sol\":11616:11639  _uniswapV2Router.WETH() */\n  mload(0x40)\n  dup2\n  0xffffffff\n  and\n  0xe0\n  shl\n  dup2\n  mstore\n  0x04\n  add\n  0x20\n  mload(0x40)\n  dup1\n  dup4\n  sub\n  dup2\n  dup7\n  gas\n  staticcall\n  iszero\n  dup1\n  iszero\n  tag_25\n  jumpi\n  returndatasize\n  0x00\n  dup1\n  returndatacopy\n  revert(0x00, returndatasize)\ntag_25:\n  pop\n  pop\n  pop\n  pop\n  mload(0x40)\n  returndatasize\n  not(0x1f)\n  0x1f\n  dup3\n  add\n  and\n  dup3\n  add\n  dup1\n  0x40\n  mstore\n  pop\n  dup2\n  add\n  swap1\n  tag_26\n  swap2\n  swap1\n  tag_23\n  jump\t// in\ntag_26:\n    /* \"templet.sol\":11517:11650  IUniswapV2Factory(_uniswapV2Router.factory()).createPair(... */\n  mload(0x40)\n  not(sub(shl(0xe0, 0x01), 0x01))\n  0xe0\n  dup6\n  swap1\n  shl\n  and\n  dup2\n  mstore\n  sub(shl(0xa0, 0x01), 0x01)\n    /* \"#utility.yul\":2616:2631   */\n  swap3\n  dup4\n  and\n    /* \"templet.sol\":11517:11650  IUniswapV2Factory(_uniswapV2Router.factory()).createPair(... */\n  0x04\n  dup3\n  add\n    /* \"#utility.yul\":2598:2632   */\n  mstore\n    /* \"#utility.yul\":2668:2683   */\n  swap2\n  and\n    /* \"#utility.yul\":2648:2666   */\n  0x24\n  dup3\n  add\n    /* \"#utility.yul\":2641:2684   */\n  mstore\n    /* \"#utility.yul\":2533:2551   */\n  0x44\n  add\n    /* \"templet.sol\":11517:11650  IUniswapV2Factory(_uniswapV2Router.factory()).createPair(... */\n  0x20\n  mload(0x40)\n  dup1\n  dup4\n  sub\n  dup2\n  0x00\n  dup8\n  gas\n  call\n  iszero\n  dup1\n  iszero\n  tag_30\n  jumpi\n  returndatasize\n  0x00\n  dup1\n  returndatacopy\n  revert(0x00, returndatasize)\ntag_30:\n  pop\n  pop\n  pop\n  pop\n  mload(0x40)\n  returndatasize\n  not(0x1f)\n  0x1f\n  dup3\n  add\n  and\n  dup3\n  add\n  dup1\n  0x40\n  mstore\n  pop\n  dup2\n  add\n  swap1\n  tag_31\n  swap2\n  swap1\n  tag_23\n  jump\t// in\ntag_31:\n    /* \"templet.sol\":11502:11514  _uniswapPair */\n  0x18\n    /* \"templet.sol\":11502:11650  _uniswapPair = IUniswapV2Factory(_uniswapV2Router.factory()).createPair(... */\n  dup1\n  sload\n  not(sub(shl(0xa0, 0x01), 0x01))\n  and\n  sub(shl(0xa0, 0x01), 0x01)\n  swap3\n  dup4\n  and\n  or\n  swap1\n  sstore\n    /* \"templet.sol\":11693:11708  uniswapV2Router */\n  sload(0x17)\n    /* \"templet.sol\":11664:11729  _approve(msg.sender, address(uniswapV2Router), type(uint256).max) */\n  tag_32\n  swap2\n    /* \"templet.sol\":11673:11683  msg.sender */\n  caller\n  swap2\n    /* \"templet.sol\":11693:11708  uniswapV2Router */\n  and\n  not(0x00)\n    /* \"templet.sol\":11664:11672  _approve */\n  tag_33\n    /* \"templet.sol\":11664:11729  _approve(msg.sender, address(uniswapV2Router), type(uint256).max) */\n  jump\t// in\ntag_32:\n    /* \"templet.sol\":11772:11787  uniswapV2Router */\n  sload(0x17)\n    /* \"templet.sol\":11740:11808  _approve(address(this), address(uniswapV2Router), type(uint256).max) */\n  tag_34\n  swap1\n    /* \"templet.sol\":11757:11761  this */\n  address\n  swap1\n  sub(shl(0xa0, 0x01), 0x01)\n    /* \"templet.sol\":11772:11787  uniswapV2Router */\n  and\n  not(0x00)\n    /* \"templet.sol\":11740:11748  _approve */\n  tag_33\n    /* \"templet.sol\":11740:11808  _approve(address(this), address(uniswapV2Router), type(uint256).max) */\n  jump\t// in\ntag_34:\n    /* \"templet.sol\":11858:11870  _uniswapPair */\n  sload(0x18)\n  sub(shl(0xa0, 0x01), 0x01)\n  swap1\n  dup2\n  and\n    /* \"templet.sol\":16532:16563  automatedMarketMakerPairs[pair] */\n  0x00\n  swap1\n  dup2\n  mstore\n    /* \"templet.sol\":16532:16557  automatedMarketMakerPairs */\n  0x06\n    /* \"templet.sol\":16532:16563  automatedMarketMakerPairs[pair] */\n  0x20\n  swap1\n  dup2\n  mstore\n  0x40\n  dup1\n  dup4\n  keccak256\n    /* \"templet.sol\":16532:16571  automatedMarketMakerPairs[pair] = value */\n  dup1\n  sload\n    /* \"templet.sol\":11858:11870  _uniswapPair */\n  0x01\n  not(0xff)\n    /* \"templet.sol\":16532:16571  automatedMarketMakerPairs[pair] = value */\n  swap2\n  dup3\n  and\n  dup2\n  or\n  swap1\n  swap3\n  sstore\n    /* \"templet.sol\":11892:11907  marketingWallet */\n  0x0b\n    /* \"templet.sol\":11892:11926  marketingWallet = _marketingWallet */\n  dup1\n  sload\n  not(sub(shl(0xa0, 0x01), 0x01))\n  swap1\n  dup2\n  and\n  dup12\n  dup10\n  and\n  or\n  swap1\n  swap2\n  sstore\n    /* \"templet.sol\":11937:11946  devWallet */\n  0x0c\n    /* \"templet.sol\":11937:11959  devWallet = _devWallet */\n  dup1\n  sload\n  swap1\n  swap2\n  and\n  swap7\n  dup10\n  and\n  swap7\n  swap1\n  swap7\n  or\n  swap1\n  swap6\n  sstore\n    /* \"templet.sol\":12000:12004  this */\n  address\n    /* \"templet.sol\":11973:12006  _isExcludedFromFee[address(this)] */\n  dup5\n  mstore\n    /* \"templet.sol\":11973:11991  _isExcludedFromFee */\n  0x07\n    /* \"templet.sol\":11973:12006  _isExcludedFromFee[address(this)] */\n  dup4\n  mstore\n  dup2\n  dup5\n  keccak256\n    /* \"templet.sol\":11973:12013  _isExcludedFromFee[address(this)] = true */\n  dup1\n  sload\n  dup7\n  and\n  dup3\n  or\n  swap1\n  sstore\n    /* \"templet.sol\":12043:12053  msg.sender */\n  caller\n    /* \"templet.sol\":12024:12054  _isExcludedFromFee[msg.sender] */\n  dup1\n  dup6\n  mstore\n  dup3\n  dup6\n  keccak256\n    /* \"templet.sol\":12024:12061  _isExcludedFromFee[msg.sender] = true */\n  dup1\n  sload\n  swap1\n  swap7\n  and\n  dup3\n  or\n  swap1\n  swap6\n  sstore\n    /* \"templet.sol\":12113:12125  _totalSupply */\n  sload\n    /* \"templet.sol\":12080:12126  Transfer(address(0), msg.sender, _totalSupply) */\n  swap1\n  mload\n    /* \"#utility.yul\":2841:2866   */\n  swap1\n  dup2\n  mstore\n    /* \"templet.sol\":12080:12126  Transfer(address(0), msg.sender, _totalSupply) */\n  0xddf252ad1be2c89b69c2b068fc378daa952ba7f163c4a11628f55a4df523b3ef\n  swap2\n    /* \"#utility.yul\":2814:2832   */\n  add\n    /* \"templet.sol\":12080:12126  Transfer(address(0), msg.sender, _totalSupply) */\n  mload(0x40)\n  dup1\n  swap2\n  sub\n  swap1\n  log3\n    /* \"templet.sol\":11175:12134  {... */\n  pop\n    /* \"templet.sol\":11117:12134  constructor(address _marketingWallet, address _devWallet) {... */\n  pop\n  pop\n    /* \"templet.sol\":8840:27107  contract XYZToken is Ownable {... */\n  jump(tag_55)\n    /* \"templet.sol\":3231:3422  function _transferOwnership(address newOwner) internal virtual {... */\ntag_18:\n    /* \"templet.sol\":3305:3321  address oldOwner */\n  0x00\n    /* \"templet.sol\":3324:3330  _owner */\n  dup1\n  sload\n  sub(shl(0xa0, 0x01), 0x01)\n    /* \"templet.sol\":3341:3358  _owner = newOwner */\n  dup4\n  dup2\n  and\n  not(sub(shl(0xa0, 0x01), 0x01))\n  dup4\n  and\n  dup2\n  or\n  dup5\n  sstore\n    /* \"templet.sol\":3374:3414  OwnershipTransferred(oldOwner, newOwner) */\n  mload(0x40)\n    /* \"templet.sol\":3324:3330  _owner */\n  swap2\n  swap1\n  swap3\n  and\n  swap3\n  dup4\n  swap2\n    /* \"templet.sol\":3374:3414  OwnershipTransferred(oldOwner, newOwner) */\n  0x8be0079c531659141344cd1fd0a4f28419497f9722a3daafe3b4186f6b6457e0\n  swap2\n    /* \"templet.sol\":3305:3321  address oldOwner */\n  swap1\n    /* \"templet.sol\":3374:3414  OwnershipTransferred(oldOwner, newOwner) */\n  log3\n    /* \"templet.sol\":3294:3422  {... */\n  pop\n    /* \"templet.sol\":3231:3422  function _transferOwnership(address newOwner) internal virtual {... */\n  pop\n  jump\t// out\n    /* \"templet.sol\":13570:13913  function _approve(address sender, address spender, uint256 amount) internal {... */\ntag_33:\n  sub(shl(0xa0, 0x01), 0x01)\n    /* \"templet.sol\":13665:13685  sender != address(0) */\n  dup4\n  and\n    /* \"templet.sol\":13657:13726  require(sender != address(0), \"ERC20: approve from the zero address\") */\n  tag_43\n  jumpi\n  mload(0x40)\n  shl(0xe5, 0x461bcd)\n  dup2\n  mstore\n    /* \"#utility.yul\":3079:3081   */\n  0x20\n    /* \"templet.sol\":13657:13726  require(sender != address(0), \"ERC20: approve from the zero address\") */\n  0x04\n  dup3\n  add\n    /* \"#utility.yul\":3061:3082   */\n  mstore\n    /* \"#utility.yul\":3118:3120   */\n  0x24\n    /* \"#utility.yul\":3098:3116   */\n  dup1\n  dup3\n  add\n    /* \"#utility.yul\":3091:3121   */\n  mstore\n    /* \"#utility.yul\":3157:3191   */\n  0x45524332303a20617070726f76652066726f6d20746865207a65726f20616464\n    /* \"#utility.yul\":3137:3155   */\n  0x44\n  dup3\n  add\n    /* \"#utility.yul\":3130:3192   */\n  mstore\n  shl(0xe0, 0x72657373)\n    /* \"#utility.yul\":3208:3226   */\n  0x64\n  dup3\n  add\n    /* \"#utility.yul\":3201:3235   */\n  mstore\n    /* \"#utility.yul\":3252:3271   */\n  0x84\n  add\n    /* \"templet.sol\":13657:13726  require(sender != address(0), \"ERC20: approve from the zero address\") */\ntag_44:\n  mload(0x40)\n  dup1\n  swap2\n  sub\n  swap1\n  revert\ntag_43:\n  sub(shl(0xa0, 0x01), 0x01)\n    /* \"templet.sol\":13745:13766  spender != address(0) */\n  dup3\n  and\n    /* \"templet.sol\":13737:13805  require(spender != address(0), \"ERC20: approve to the zero address\") */\n  tag_46\n  jumpi\n  mload(0x40)\n  shl(0xe5, 0x461bcd)\n  dup2\n  mstore\n    /* \"#utility.yul\":3484:3486   */\n  0x20\n    /* \"templet.sol\":13737:13805  require(spender != address(0), \"ERC20: approve to the zero address\") */\n  0x04\n  dup3\n  add\n    /* \"#utility.yul\":3466:3487   */\n  mstore\n    /* \"#utility.yul\":3523:3525   */\n  0x22\n    /* \"#utility.yul\":3503:3521   */\n  0x24\n  dup3\n  add\n    /* \"#utility.yul\":3496:3526   */\n  mstore\n    /* \"#utility.yul\":3562:3596   */\n  0x45524332303a20617070726f766520746f20746865207a65726f206164647265\n    /* \"#utility.yul\":3542:3560   */\n  0x44\n  dup3\n  add\n    /* \"#utility.yul\":3535:3597   */\n  mstore\n  shl(0xf0, 0x7373)\n    /* \"#utility.yul\":3613:3631   */\n  0x64\n  dup3\n  add\n    /* \"#utility.yul\":3606:3638   */\n  mstore\n    /* \"#utility.yul\":3655:3674   */\n  0x84\n  add\n    /* \"templet.sol\":13737:13805  require(spender != address(0), \"ERC20: approve to the zero address\") */\n  tag_44\n    /* \"#utility.yul\":3282:3680   */\n  jump\n    /* \"templet.sol\":13737:13805  require(spender != address(0), \"ERC20: approve to the zero address\") */\ntag_46:\n  sub(shl(0xa0, 0x01), 0x01)\n    /* \"templet.sol\":13819:13838  _allowances[sender] */\n  dup4\n  dup2\n  and\n  0x00\n  dup2\n  dup2\n  mstore\n    /* \"templet.sol\":13819:13830  _allowances */\n  0x04\n    /* \"templet.sol\":13819:13838  _allowances[sender] */\n  0x20\n  swap1\n  dup2\n  mstore\n  0x40\n  dup1\n  dup4\n  keccak256\n    /* \"templet.sol\":13819:13847  _allowances[sender][spender] */\n  swap5\n  dup8\n  and\n  dup1\n  dup5\n  mstore\n  swap5\n  dup3\n  mstore\n  swap2\n  dup3\n  swap1\n  keccak256\n    /* \"templet.sol\":13819:13856  _allowances[sender][spender] = amount */\n  dup6\n  swap1\n  sstore\n    /* \"templet.sol\":13872:13905  Approval(sender, spender, amount) */\n  swap1\n  mload\n    /* \"#utility.yul\":2841:2866   */\n  dup5\n  dup2\n  mstore\n    /* \"templet.sol\":13872:13905  Approval(sender, spender, amount) */\n  0x8c5be1e5ebec7d5bd14f71427d1e84f3dd0314c0f7b2291e5b200ac8c7c3b925\n  swap2\n    /* \"#utility.yul\":2814:2832   */\n  add\n    /* \"templet.sol\":13872:13905  Approval(sender, spender, amount) */\n  mload(0x40)\n  dup1\n  swap2\n  sub\n  swap1\n  log3\n    /* \"templet.sol\":13570:13913  function _approve(address sender, address spender, uint256 amount) internal {... */\n  pop\n  pop\n  pop\n  jump\t// out\n    /* \"#utility.yul\":14:141   */\ntag_51:\n    /* \"#utility.yul\":75:85   */\n  0x4e487b71\n    /* \"#utility.yul\":70:73   */\n  0xe0\n    /* \"#utility.yul\":66:86   */\n  shl\n    /* \"#utility.yul\":63:64   */\n  0x00\n    /* \"#utility.yul\":56:87   */\n  mstore\n    /* \"#utility.yul\":106:110   */\n  0x11\n    /* \"#utility.yul\":103:104   */\n  0x04\n    /* \"#utility.yul\":96:111   */\n  mstore\n    /* \"#utility.yul\":130:134   */\n  0x24\n    /* \"#utility.yul\":127:128   */\n  0x00\n    /* \"#utility.yul\":120:135   */\n  revert\n    /* \"#utility.yul\":146:568   */\ntag_52:\n    /* \"#utility.yul\":235:236   */\n  0x01\n    /* \"#utility.yul\":278:283   */\n  dup2\n    /* \"#utility.yul\":235:236   */\n  dup2\n    /* \"#utility.yul\":292:562   */\ntag_58:\n    /* \"#utility.yul\":313:320   */\n  dup1\n    /* \"#utility.yul\":303:311   */\n  dup6\n    /* \"#utility.yul\":300:321   */\n  gt\n    /* \"#utility.yul\":292:562   */\n  iszero\n  tag_60\n  jumpi\n    /* \"#utility.yul\":372:376   */\n  dup2\n    /* \"#utility.yul\":368:369   */\n  0x00\n    /* \"#utility.yul\":364:370   */\n  not\n    /* \"#utility.yul\":360:377   */\n  div\n    /* \"#utility.yul\":354:358   */\n  dup3\n    /* \"#utility.yul\":351:378   */\n  gt\n    /* \"#utility.yul\":348:401   */\n  iszero\n  tag_62\n  jumpi\n    /* \"#utility.yul\":381:399   */\n  tag_62\n  tag_51\n  jump\t// in\ntag_62:\n    /* \"#utility.yul\":431:438   */\n  dup1\n    /* \"#utility.yul\":421:429   */\n  dup6\n    /* \"#utility.yul\":417:439   */\n  and\n    /* \"#utility.yul\":414:469   */\n  iszero\n  tag_63\n  jumpi\n    /* \"#utility.yul\":451:467   */\n  swap2\n  dup2\n  mul\n  swap2\n    /* \"#utility.yul\":414:469   */\ntag_63:\n    /* \"#utility.yul\":530:552   */\n  swap4\n  dup5\n  shr\n  swap4\n    /* \"#utility.yul\":490:505   */\n  swap1\n  dup1\n  mul\n  swap1\n    /* \"#utility.yul\":292:562   */\n  jump(tag_58)\ntag_60:\n    /* \"#utility.yul\":296:299   */\n  pop\n    /* \"#utility.yul\":146:568   */\n  swap3\n  pop\n  swap3\n  swap1\n  pop\n  jump\t// out\n    /* \"#utility.yul\":573:1379   */\ntag_53:\n    /* \"#utility.yul\":622:627   */\n  0x00\n    /* \"#utility.yul\":652:660   */\n  dup3\n    /* \"#utility.yul\":642:722   */\n  tag_65\n  jumpi\n  pop\n    /* \"#utility.yul\":693:694   */\n  0x01\n    /* \"#utility.yul\":707:712   */\n  jump(tag_64)\n    /* \"#utility.yul\":642:722   */\ntag_65:\n    /* \"#utility.yul\":741:745   */\n  dup2\n    /* \"#utility.yul\":731:807   */\n  tag_66\n  jumpi\n  pop\n    /* \"#utility.yul\":778:779   */\n  0x00\n    /* \"#utility.yul\":792:797   */\n  jump(tag_64)\n    /* \"#utility.yul\":731:807   */\ntag_66:\n    /* \"#utility.yul\":823:827   */\n  dup2\n    /* \"#utility.yul\":841:842   */\n  0x01\n    /* \"#utility.yul\":836:895   */\n  dup2\n  eq\n  tag_68\n  jumpi\n    /* \"#utility.yul\":909:910   */\n  0x02\n    /* \"#utility.yul\":904:1034   */\n  dup2\n  eq\n  tag_69\n  jumpi\n    /* \"#utility.yul\":816:1034   */\n  jump(tag_67)\n    /* \"#utility.yul\":836:895   */\ntag_68:\n    /* \"#utility.yul\":866:867   */\n  0x01\n    /* \"#utility.yul\":857:867   */\n  swap2\n  pop\n    /* \"#utility.yul\":880:885   */\n  pop\n  jump(tag_64)\n    /* \"#utility.yul\":904:1034   */\ntag_69:\n    /* \"#utility.yul\":941:944   */\n  0xff\n    /* \"#utility.yul\":931:939   */\n  dup5\n    /* \"#utility.yul\":928:945   */\n  gt\n    /* \"#utility.yul\":925:968   */\n  iszero\n  tag_71\n  jumpi\n    /* \"#utility.yul\":948:966   */\n  tag_71\n  tag_51\n  jump\t// in\ntag_71:\n  pop\n  pop\n    /* \"#utility.yul\":1004:1005   */\n  0x01\n    /* \"#utility.yul\":990:1006   */\n  dup3\n  shl\n    /* \"#utility.yul\":1019:1024   */\n  jump(tag_64)\n    /* \"#utility.yul\":816:1034   */\ntag_67:\n  pop\n    /* \"#utility.yul\":1118:1120   */\n  0x20\n    /* \"#utility.yul\":1108:1116   */\n  dup4\n    /* \"#utility.yul\":1105:1121   */\n  lt\n    /* \"#utility.yul\":1099:1102   */\n  0x0133\n    /* \"#utility.yul\":1093:1097   */\n  dup4\n    /* \"#utility.yul\":1090:1103   */\n  lt\n    /* \"#utility.yul\":1086:1122   */\n  and\n    /* \"#utility.yul\":1080:1082   */\n  0x4e\n    /* \"#utility.yul\":1070:1078   */\n  dup5\n    /* \"#utility.yul\":1067:1083   */\n  lt\n    /* \"#utility.yul\":1062:1064   */\n  0x0b\n    /* \"#utility.yul\":1056:1060   */\n  dup5\n    /* \"#utility.yul\":1053:1065   */\n  lt\n    /* \"#utility.yul\":1049:1084   */\n  and\n    /* \"#utility.yul\":1046:1123   */\n  or\n    /* \"#utility.yul\":1043:1202   */\n  iszero\n  tag_72\n  jumpi\n  pop\n    /* \"#utility.yul\":1155:1174   */\n  dup2\n  dup2\n  exp\n    /* \"#utility.yul\":1187:1192   */\n  jump(tag_64)\n    /* \"#utility.yul\":1043:1202   */\ntag_72:\n    /* \"#utility.yul\":1234:1268   */\n  tag_73\n    /* \"#utility.yul\":1259:1267   */\n  dup4\n    /* \"#utility.yul\":1253:1257   */\n  dup4\n    /* \"#utility.yul\":1234:1268   */\n  tag_52\n  jump\t// in\ntag_73:\n    /* \"#utility.yul\":1304:1310   */\n  dup1\n    /* \"#utility.yul\":1300:1301   */\n  0x00\n    /* \"#utility.yul\":1296:1302   */\n  not\n    /* \"#utility.yul\":1292:1311   */\n  div\n    /* \"#utility.yul\":1283:1290   */\n  dup3\n    /* \"#utility.yul\":1280:1312   */\n  gt\n    /* \"#utility.yul\":1277:1335   */\n  iszero\n  tag_75\n  jumpi\n    /* \"#utility.yul\":1315:1333   */\n  tag_75\n  tag_51\n  jump\t// in\ntag_75:\n    /* \"#utility.yul\":1353:1373   */\n  mul\n  swap1\n  pop\n    /* \"#utility.yul\":573:1379   */\ntag_64:\n  swap3\n  swap2\n  pop\n  pop\n  jump\t// out\n    /* \"#utility.yul\":1384:1515   */\ntag_2:\n    /* \"#utility.yul\":1444:1449   */\n  0x00\n    /* \"#utility.yul\":1473:1509   */\n  tag_77\n    /* \"#utility.yul\":1500:1508   */\n  dup4\n    /* \"#utility.yul\":1494:1498   */\n  dup4\n    /* \"#utility.yul\":1473:1509   */\n  tag_53\n  jump\t// in\ntag_77:\n    /* \"#utility.yul\":1464:1509   */\n  swap4\n    /* \"#utility.yul\":1384:1515   */\n  swap3\n  pop\n  pop\n  pop\n  jump\t// out\n    /* \"#utility.yul\":1520:1688   */\ntag_4:\n    /* \"#utility.yul\":1593:1602   */\n  dup1\n  dup3\n  mul\n    /* \"#utility.yul\":1624:1633   */\n  dup2\n  iszero\n    /* \"#utility.yul\":1641:1656   */\n  dup3\n  dup3\n  div\n    /* \"#utility.yul\":1635:1657   */\n  dup5\n  eq\n    /* \"#utility.yul\":1621:1658   */\n  or\n    /* \"#utility.yul\":1611:1682   */\n  tag_64\n  jumpi\n    /* \"#utility.yul\":1662:1680   */\n  tag_64\n  tag_51\n  jump\t// in\n    /* \"#utility.yul\":1693:1870   */\ntag_54:\n    /* \"#utility.yul\":1772:1785   */\n  dup1\n  mload\n  sub(shl(0xa0, 0x01), 0x01)\n    /* \"#utility.yul\":1814:1845   */\n  dup2\n  and\n    /* \"#utility.yul\":1804:1846   */\n  dup2\n  eq\n    /* \"#utility.yul\":1794:1864   */\n  tag_82\n  jumpi\n    /* \"#utility.yul\":1860:1861   */\n  0x00\n    /* \"#utility.yul\":1857:1858   */\n  dup1\n    /* \"#utility.yul\":1850:1862   */\n  revert\n    /* \"#utility.yul\":1794:1864   */\ntag_82:\n    /* \"#utility.yul\":1693:1870   */\n  swap2\n  swap1\n  pop\n  jump\t// out\n    /* \"#utility.yul\":1875:2168   */\ntag_11:\n    /* \"#utility.yul\":1954:1960   */\n  0x00\n    /* \"#utility.yul\":1962:1968   */\n  dup1\n    /* \"#utility.yul\":2015:2017   */\n  0x40\n    /* \"#utility.yul\":2003:2012   */\n  dup4\n    /* \"#utility.yul\":1994:2001   */\n  dup6\n    /* \"#utility.yul\":1990:2013   */\n  sub\n    /* \"#utility.yul\":1986:2018   */\n  slt\n    /* \"#utility.yul\":1983:2035   */\n  iszero\n  tag_84\n  jumpi\n    /* \"#utility.yul\":2031:2032   */\n  0x00\n    /* \"#utility.yul\":2028:2029   */\n  dup1\n    /* \"#utility.yul\":2021:2033   */\n  revert\n    /* \"#utility.yul\":1983:2035   */\ntag_84:\n    /* \"#utility.yul\":2054:2094   */\n  tag_85\n    /* \"#utility.yul\":2084:2093   */\n  dup4\n    /* \"#utility.yul\":2054:2094   */\n  tag_54\n  jump\t// in\ntag_85:\n    /* \"#utility.yul\":2044:2094   */\n  swap2\n  pop\n    /* \"#utility.yul\":2113:2162   */\n  tag_86\n    /* \"#utility.yul\":2158:2160   */\n  0x20\n    /* \"#utility.yul\":2147:2156   */\n  dup5\n    /* \"#utility.yul\":2143:2161   */\n  add\n    /* \"#utility.yul\":2113:2162   */\n  tag_54\n  jump\t// in\ntag_86:\n    /* \"#utility.yul\":2103:2162   */\n  swap1\n  pop\n    /* \"#utility.yul\":1875:2168   */\n  swap3\n  pop\n  swap3\n  swap1\n  pop\n  jump\t// out\n    /* \"#utility.yul\":2173:2381   */\ntag_23:\n    /* \"#utility.yul\":2243:2249   */\n  0x00\n    /* \"#utility.yul\":2296:2298   */\n  0x20\n    /* \"#utility.yul\":2284:2293   */\n  dup3\n    /* \"#utility.yul\":2275:2282   */\n  dup5\n    /* \"#utility.yul\":2271:2294   */\n  sub\n    /* \"#utility.yul\":2267:2299   */\n  slt\n    /* \"#utility.yul\":2264:2316   */\n  iszero\n  tag_88\n  jumpi\n    /* \"#utility.yul\":2312:2313   */\n  0x00\n    /* \"#utility.yul\":2309:2310   */\n  dup1\n    /* \"#utility.yul\":2302:2314   */\n  revert\n    /* \"#utility.yul\":2264:2316   */\ntag_88:\n    /* \"#utility.yul\":2335:2375   */\n  tag_77\n    /* \"#utility.yul\":2365:2374   */\n  dup3\n    /* \"#utility.yul\":2335:2375   */\n  tag_54\n  jump\t// in\n    /* \"#utility.yul\":3282:3680   */\ntag_55:\n    /* \"templet.sol\":8840:27107  contract XYZToken is Ownable {... */\n  dataSize(sub_0)\n  dup1\n  dataOffset(sub_0)\n  0x00\n  codecopy\n  0x00\n  return\nstop\n\nsub_0: assembly {\n        /* \"templet.sol\":8840:27107  contract XYZToken is Ownable {... */\n      mstore(0x40, 0x80)\n      jumpi(tag_1, lt(calldatasize, 0x04))\n      shr(0xe0, calldataload(0x00))\n      dup1\n      0x7f2e6ccb\n      gt\n      tag_55\n      jumpi\n      dup1\n      0xba414b10\n      gt\n      tag_56\n      jumpi\n      dup1\n      0xdbac26e9\n      gt\n      tag_57\n      jumpi\n      dup1\n      0xe59602fa\n      gt\n      tag_58\n      jumpi\n      dup1\n      0xe59602fa\n      eq\n      tag_51\n      jumpi\n      dup1\n      0xe6be4a72\n      eq\n      tag_52\n      jumpi\n      dup1\n      0xf2fde38b\n      eq\n      tag_53\n      jumpi\n      dup1\n      0xf7e53337\n      eq\n      tag_54\n      jumpi\n      stop\n    tag_58:\n      dup1\n      0xdbac26e9\n      eq\n      tag_48\n      jumpi\n      dup1\n      0xdd3a1f76\n      eq\n      tag_49\n      jumpi\n      dup1\n      0xdd62ed3e\n      eq\n      tag_50\n      jumpi\n      stop\n    tag_57:\n      dup1\n      0xba414b10\n      eq\n      tag_42\n      jumpi\n      dup1\n      0xc00f04d1\n      eq\n      tag_43\n      jumpi\n      dup1\n      0xc410ab5e\n      eq\n      tag_44\n      jumpi\n      dup1\n      0xc51abc59\n      eq\n      tag_45\n      jumpi\n      dup1\n      0xce831ed5\n      eq\n      tag_46\n      jumpi\n      dup1\n      0xd8020a18\n      eq\n      tag_47\n      jumpi\n      stop\n    tag_56:\n      dup1\n      0x9ec4be41\n      gt\n      tag_59\n      jumpi\n      dup1\n      0xa9059cbb\n      gt\n      tag_60\n      jumpi\n      dup1\n      0xa9059cbb\n      eq\n      tag_38\n      jumpi\n      dup1\n      0xaaa00b99\n      eq\n      tag_39\n      jumpi\n      dup1\n      0xb62496f5\n      eq\n      tag_40\n      jumpi\n      dup1\n      0xb7925f7a\n      eq\n      tag_41\n      jumpi\n      stop\n    tag_60:\n      dup1\n      0x9ec4be41\n      eq\n      tag_35\n      jumpi\n      dup1\n      0xa562564a\n      eq\n      tag_36\n      jumpi\n      dup1\n      0xa56d37f9\n      eq\n      tag_37\n      jumpi\n      stop\n    tag_59:\n      dup1\n      0x7f2e6ccb\n      eq\n      tag_29\n      jumpi\n      dup1\n      0x8d38a127\n      eq\n      tag_30\n      jumpi\n      dup1\n      0x8da5cb5b\n      eq\n      tag_31\n      jumpi\n      dup1\n      0x8ea5220f\n      eq\n      tag_32\n      jumpi\n      dup1\n      0x95d89b41\n      eq\n      tag_4\n      jumpi\n      dup1\n      0x9a7a23d6\n      eq\n      tag_34\n      jumpi\n      stop\n    tag_55:\n      dup1\n      0x4fe47f70\n      gt\n      tag_61\n      jumpi\n      dup1\n      0x6dbff43b\n      gt\n      tag_62\n      jumpi\n      dup1\n      0x715018a6\n      gt\n      tag_63\n      jumpi\n      dup1\n      0x715018a6\n      eq\n      tag_25\n      jumpi\n      dup1\n      0x75f0a874\n      eq\n      tag_26\n      jumpi\n      dup1\n      0x768dc710\n      eq\n      tag_27\n      jumpi\n      dup1\n      0x7aab5d9b\n      eq\n      tag_28\n      jumpi\n      stop\n    tag_63:\n      dup1\n      0x6dbff43b\n      eq\n      tag_22\n      jumpi\n      dup1\n      0x6ddd1713\n      eq\n      tag_23\n      jumpi\n      dup1\n      0x70a08231\n      eq\n      tag_24\n      jumpi\n      stop\n    tag_62:\n      dup1\n      0x4fe47f70\n      eq\n      tag_16\n      jumpi\n      dup1\n      0x549fb8bf\n      eq\n      tag_17\n      jumpi\n      dup1\n      0x5d098b38\n      eq\n      tag_18\n      jumpi\n      dup1\n      0x5f48f393\n      eq\n      tag_19\n      jumpi\n      dup1\n      0x6612e66f\n      eq\n      tag_20\n      jumpi\n      dup1\n      0x67b34e01\n      eq\n      tag_21\n      jumpi\n      stop\n    tag_61:\n      dup1\n      0x18160ddd\n      gt\n      tag_64\n      jumpi\n      dup1\n      0x2d4ed650\n      gt\n      tag_65\n      jumpi\n      dup1\n      0x2d4ed650\n      eq\n      tag_12\n      jumpi\n      dup1\n      0x3048a281\n      eq\n      tag_13\n      jumpi\n      dup1\n      0x313ce567\n      eq\n      tag_14\n      jumpi\n      dup1\n      0x4bf28fd0\n      eq\n      tag_15\n      jumpi\n      stop\n    tag_65:\n      dup1\n      0x18160ddd\n      eq\n      tag_9\n      jumpi\n      dup1\n      0x1f53ac02\n      eq\n      tag_10\n      jumpi\n      dup1\n      0x23b872dd\n      eq\n      tag_11\n      jumpi\n      stop\n    tag_64:\n      dup1\n      0x03fd2a45\n      eq\n      tag_3\n      jumpi\n      dup1\n      0x06fdde03\n      eq\n      tag_4\n      jumpi\n      dup1\n      0x07a212be\n      eq\n      tag_5\n      jumpi\n      dup1\n      0x095ea7b3\n      eq\n      tag_6\n      jumpi\n      dup1\n      0x1694505e\n      eq\n      tag_7\n      jumpi\n      dup1\n      0x1732cded\n      eq\n      tag_8\n      jumpi\n      stop\n    tag_1:\n      jumpi(tag_2, calldatasize)\n      stop\n    tag_2:\n      stop\n        /* \"templet.sol\":9683:9756  address constant public DEAD = 0x000000000000000000000000000000000000dEaD */\n    tag_3:\n      callvalue\n      dup1\n      iszero\n      tag_70\n      jumpi\n      0x00\n      dup1\n      revert\n    tag_70:\n      pop\n      tag_71\n        /* \"templet.sol\":9714:9756  0x000000000000000000000000000000000000dEaD */\n      0xdead\n        /* \"templet.sol\":9683:9756  address constant public DEAD = 0x000000000000000000000000000000000000dEaD */\n      dup2\n      jump\n    tag_71:\n      mload(0x40)\n      sub(shl(0xa0, 0x01), 0x01)\n        /* \"#utility.yul\":178:210   */\n      swap1\n      swap2\n      and\n        /* \"#utility.yul\":160:211   */\n      dup2\n      mstore\n        /* \"#utility.yul\":148:150   */\n      0x20\n        /* \"#utility.yul\":133:151   */\n      add\n        /* \"templet.sol\":9683:9756  address constant public DEAD = 0x000000000000000000000000000000000000dEaD */\n    tag_73:\n      mload(0x40)\n      dup1\n      swap2\n      sub\n      swap1\n      return\n        /* \"templet.sol\":12156:12248  function name() public view virtual  returns (string memory) {... */\n    tag_4:\n      callvalue\n      dup1\n      iszero\n      tag_75\n      jumpi\n      0x00\n      dup1\n      revert\n    tag_75:\n      pop\n        /* \"templet.sol\":12235:12240  _name */\n      0x40\n      dup1\n      mload\n      dup1\n      dup3\n      add\n      dup3\n      mstore\n      0x03\n      dup2\n      mstore\n      shl(0xe9, 0x2c2cad)\n      0x20\n      dup3\n      add\n      mstore\n        /* \"templet.sol\":12156:12248  function name() public view virtual  returns (string memory) {... */\n      swap1\n      mload\n      tag_73\n      swap2\n        /* \"templet.sol\":12235:12240  _name */\n      swap1\n        /* \"templet.sol\":12156:12248  function name() public view virtual  returns (string memory) {... */\n      tag_79\n      jump\t// in\n        /* \"templet.sol\":19374:19481  function setTaxThreshold(uint256 threshold) external onlyOwner {... */\n    tag_5:\n      callvalue\n      dup1\n      iszero\n      tag_80\n      jumpi\n      0x00\n      dup1\n      revert\n    tag_80:\n      pop\n      tag_2\n      tag_82\n      calldatasize\n      0x04\n      tag_83\n      jump\t// in\n    tag_82:\n      tag_84\n      jump\t// in\n        /* \"templet.sol\":13410:13561  function approve(address spender, uint256 amount) public  returns (bool) {... */\n    tag_6:\n      callvalue\n      dup1\n      iszero\n      tag_85\n      jumpi\n      0x00\n      dup1\n      revert\n    tag_85:\n      pop\n      tag_86\n      tag_87\n      calldatasize\n      0x04\n      tag_88\n      jump\t// in\n    tag_87:\n      tag_89\n      jump\t// in\n    tag_86:\n      mload(0x40)\n        /* \"#utility.yul\":1581:1595   */\n      swap1\n      iszero\n        /* \"#utility.yul\":1574:1596   */\n      iszero\n        /* \"#utility.yul\":1556:1597   */\n      dup2\n      mstore\n        /* \"#utility.yul\":1544:1546   */\n      0x20\n        /* \"#utility.yul\":1529:1547   */\n      add\n        /* \"templet.sol\":13410:13561  function approve(address spender, uint256 amount) public  returns (bool) {... */\n      tag_73\n        /* \"#utility.yul\":1416:1603   */\n      jump\n        /* \"templet.sol\":10457:10498  IUniswapV2Router02 public uniswapV2Router */\n    tag_7:\n      callvalue\n      dup1\n      iszero\n      tag_92\n      jumpi\n      0x00\n      dup1\n      revert\n    tag_92:\n      pop\n      sload(0x17)\n      tag_71\n      swap1\n      sub(shl(0xa0, 0x01), 0x01)\n      and\n      dup2\n      jump\n        /* \"templet.sol\":10541:10561  bool public swapping */\n    tag_8:\n      callvalue\n      dup1\n      iszero\n      tag_97\n      jumpi\n      0x00\n      dup1\n      revert\n    tag_97:\n      pop\n      sload(0x18)\n      tag_86\n      swap1\n      shl(0xa0, 0x01)\n      swap1\n      div\n      0xff\n      and\n      dup2\n      jump\n        /* \"templet.sol\":12463:12563  function totalSupply() public view virtual  returns (uint256) {... */\n    tag_9:\n      callvalue\n      dup1\n      iszero\n      tag_101\n      jumpi\n      0x00\n      dup1\n      revert\n    tag_101:\n      pop\n        /* \"templet.sol\":12543:12555  _totalSupply */\n      sload(0x01)\n        /* \"templet.sol\":12463:12563  function totalSupply() public view virtual  returns (uint256) {... */\n    tag_102:\n      mload(0x40)\n        /* \"#utility.yul\":1988:2013   */\n      swap1\n      dup2\n      mstore\n        /* \"#utility.yul\":1976:1978   */\n      0x20\n        /* \"#utility.yul\":1961:1979   */\n      add\n        /* \"templet.sol\":12463:12563  function totalSupply() public view virtual  returns (uint256) {... */\n      tag_73\n        /* \"#utility.yul\":1842:2019   */\n      jump\n        /* \"templet.sol\":17131:17301  function setDevWallet(address wallet) external onlyOwner {... */\n    tag_10:\n      callvalue\n      dup1\n      iszero\n      tag_106\n      jumpi\n      0x00\n      dup1\n      revert\n    tag_106:\n      pop\n      tag_2\n      tag_108\n      calldatasize\n      0x04\n      tag_109\n      jump\t// in\n    tag_108:\n      tag_110\n      jump\t// in\n        /* \"templet.sol\":12936:13221  function transferFrom(... */\n    tag_11:\n      callvalue\n      dup1\n      iszero\n      tag_111\n      jumpi\n      0x00\n      dup1\n      revert\n    tag_111:\n      pop\n      tag_86\n      tag_113\n      calldatasize\n      0x04\n      tag_114\n      jump\t// in\n    tag_113:\n      tag_115\n      jump\t// in\n        /* \"templet.sol\":19160:19365  function setMarketingPercentage(uint256 taxPercentage) external onlyOwner {... */\n    tag_12:\n      callvalue\n      dup1\n      iszero\n      tag_117\n      jumpi\n      0x00\n      dup1\n      revert\n    tag_117:\n      pop\n      tag_2\n      tag_119\n      calldatasize\n      0x04\n      tag_83\n      jump\t// in\n    tag_119:\n      tag_120\n      jump\t// in\n        /* \"templet.sol\":9961:10001  uint256 public _burnTaxPercentage = 1000 */\n    tag_13:\n      callvalue\n      dup1\n      iszero\n      tag_121\n      jumpi\n      0x00\n      dup1\n      revert\n    tag_121:\n      pop\n      tag_102\n      sload(0x10)\n      dup2\n      jump\n        /* \"templet.sol\":12362:12454  function decimals() public view virtual  returns (uint8) {... */\n    tag_14:\n      callvalue\n      dup1\n      iszero\n      tag_125\n      jumpi\n      0x00\n      dup1\n      revert\n    tag_125:\n      pop\n      mload(0x40)\n        /* \"templet.sol\":9004:9006  18 */\n      0x12\n        /* \"#utility.yul\":2879:2915   */\n      dup2\n      mstore\n        /* \"#utility.yul\":2867:2869   */\n      0x20\n        /* \"#utility.yul\":2852:2870   */\n      add\n        /* \"templet.sol\":12362:12454  function decimals() public view virtual  returns (uint8) {... */\n      tag_73\n        /* \"#utility.yul\":2737:2921   */\n      jump\n        /* \"templet.sol\":10505:10532  address public _uniswapPair */\n    tag_15:\n      callvalue\n      dup1\n      iszero\n      tag_130\n      jumpi\n      0x00\n      dup1\n      revert\n    tag_130:\n      pop\n      sload(0x18)\n      tag_71\n      swap1\n      sub(shl(0xa0, 0x01), 0x01)\n      and\n      dup2\n      jump\n        /* \"templet.sol\":19628:19722  function setMaxAmount(uint256 amount) external onlyOwner {... */\n    tag_16:\n      callvalue\n      dup1\n      iszero\n      tag_134\n      jumpi\n      0x00\n      dup1\n      revert\n    tag_134:\n      pop\n      tag_2\n      tag_136\n      calldatasize\n      0x04\n      tag_83\n      jump\t// in\n    tag_136:\n      tag_137\n      jump\t// in\n        /* \"templet.sol\":9896:9941  uint256 public _liquidityTaxPercentage = 1000 */\n    tag_17:\n      callvalue\n      dup1\n      iszero\n      tag_138\n      jumpi\n      0x00\n      dup1\n      revert\n    tag_138:\n      pop\n      tag_102\n      sload(0x0f)\n      dup2\n      jump\n        /* \"templet.sol\":16934:17122  function setMarketingWallet(address wallet) external onlyOwner {... */\n    tag_18:\n      callvalue\n      dup1\n      iszero\n      tag_142\n      jumpi\n      0x00\n      dup1\n      revert\n    tag_142:\n      pop\n      tag_2\n      tag_144\n      calldatasize\n      0x04\n      tag_109\n      jump\t// in\n    tag_144:\n      tag_145\n      jump\t// in\n        /* \"templet.sol\":9091:9153  uint256 public maxAmount = 20000000 * 10 ** uint256(_decimals) */\n    tag_19:\n      callvalue\n      dup1\n      iszero\n      tag_146\n      jumpi\n      0x00\n      dup1\n      revert\n    tag_146:\n      pop\n      tag_102\n      sload(0x02)\n      dup2\n      jump\n        /* \"templet.sol\":16588:16724  function setExcludedFromFee(address account, bool excluded) external onlyOwner {... */\n    tag_20:\n      callvalue\n      dup1\n      iszero\n      tag_150\n      jumpi\n      0x00\n      dup1\n      revert\n    tag_150:\n      pop\n      tag_2\n      tag_152\n      calldatasize\n      0x04\n      tag_153\n      jump\t// in\n    tag_152:\n      tag_154\n      jump\t// in\n        /* \"templet.sol\":10344:10404  uint256 public _taxThreshold = 1000 * 10**uint256(_decimals) */\n    tag_21:\n      callvalue\n      dup1\n      iszero\n      tag_155\n      jumpi\n      0x00\n      dup1\n      revert\n    tag_155:\n      pop\n      tag_102\n      sload(0x16)\n      dup2\n      jump\n        /* \"templet.sol\":18382:18934  function setLiquidityTaxPercentage(uint256 taxPercentage) external onlyOwner {... */\n    tag_22:\n      callvalue\n      dup1\n      iszero\n      tag_159\n      jumpi\n      0x00\n      dup1\n      revert\n    tag_159:\n      pop\n      tag_2\n      tag_161\n      calldatasize\n      0x04\n      tag_83\n      jump\t// in\n    tag_161:\n      tag_162\n      jump\t// in\n        /* \"templet.sol\":10568:10598  bool public swapEnabled = true */\n    tag_23:\n      callvalue\n      dup1\n      iszero\n      tag_163\n      jumpi\n      0x00\n      dup1\n      revert\n    tag_163:\n      pop\n      sload(0x18)\n      tag_86\n      swap1\n      shl(0xa8, 0x01)\n      swap1\n      div\n      0xff\n      and\n      dup2\n      jump\n        /* \"templet.sol\":12572:12707  function balanceOf(... */\n    tag_24:\n      callvalue\n      dup1\n      iszero\n      tag_167\n      jumpi\n      0x00\n      dup1\n      revert\n    tag_167:\n      pop\n      tag_102\n      tag_169\n      calldatasize\n      0x04\n      tag_109\n      jump\t// in\n    tag_169:\n      sub(shl(0xa0, 0x01), 0x01)\n        /* \"templet.sol\":12681:12699  _balances[account] */\n      and\n        /* \"templet.sol\":12654:12661  uint256 */\n      0x00\n        /* \"templet.sol\":12681:12699  _balances[account] */\n      swap1\n      dup2\n      mstore\n        /* \"templet.sol\":12681:12690  _balances */\n      0x03\n        /* \"templet.sol\":12681:12699  _balances[account] */\n      0x20\n      mstore\n      0x40\n      swap1\n      keccak256\n      sload\n      swap1\n        /* \"templet.sol\":12572:12707  function balanceOf(... */\n      jump\n        /* \"templet.sol\":2573:2676  function renounceOwnership() public virtual onlyOwner {... */\n    tag_25:\n      callvalue\n      dup1\n      iszero\n      tag_172\n      jumpi\n      0x00\n      dup1\n      revert\n    tag_172:\n      pop\n      tag_2\n      tag_174\n      jump\t// in\n        /* \"templet.sol\":9615:9645  address public marketingWallet */\n    tag_26:\n      callvalue\n      dup1\n      iszero\n      tag_175\n      jumpi\n      0x00\n      dup1\n      revert\n    tag_175:\n      pop\n      sload(0x0b)\n      tag_71\n      swap1\n      sub(shl(0xa0, 0x01), 0x01)\n      and\n      dup2\n      jump\n        /* \"templet.sol\":9432:9482  mapping(address => bool) public _isExcludedFromFee */\n    tag_27:\n      callvalue\n      dup1\n      iszero\n      tag_179\n      jumpi\n      0x00\n      dup1\n      revert\n    tag_179:\n      pop\n      tag_86\n      tag_181\n      calldatasize\n      0x04\n      tag_109\n      jump\t// in\n    tag_181:\n      mstore(0x20, 0x07)\n      0x00\n      swap1\n      dup2\n      mstore\n      0x40\n      swap1\n      keccak256\n      sload\n      0xff\n      and\n      dup2\n      jump\n        /* \"templet.sol\":9495:9517  bool public trade_open */\n    tag_28:\n      callvalue\n      dup1\n      iszero\n      tag_184\n      jumpi\n      0x00\n      dup1\n      revert\n    tag_184:\n      pop\n      sload(0x08)\n      tag_86\n      swap1\n      0xff\n      and\n      dup2\n      jump\n        /* \"templet.sol\":10233:10264  uint256 public _totalTaxPercent */\n    tag_29:\n      callvalue\n      dup1\n      iszero\n      tag_188\n      jumpi\n      0x00\n      dup1\n      revert\n    tag_188:\n      pop\n      tag_102\n      sload(0x14)\n      dup2\n      jump\n        /* \"templet.sol\":16834:16925  function isTradeEnabled() external view returns (bool) {... */\n    tag_30:\n      callvalue\n      dup1\n      iszero\n      tag_192\n      jumpi\n      0x00\n      dup1\n      revert\n    tag_192:\n      pop\n        /* \"templet.sol\":16907:16917  trade_open */\n      and(0xff, sload(0x08))\n        /* \"templet.sol\":16834:16925  function isTradeEnabled() external view returns (bool) {... */\n      jump(tag_86)\n        /* \"templet.sol\":1923:2010  function owner() public view virtual returns (address) {... */\n    tag_31:\n      callvalue\n      dup1\n      iszero\n      tag_196\n      jumpi\n      0x00\n      dup1\n      revert\n    tag_196:\n      pop\n        /* \"templet.sol\":1969:1976  address */\n      0x00\n        /* \"templet.sol\":1996:2002  _owner */\n      sload\n      sub(shl(0xa0, 0x01), 0x01)\n      and\n        /* \"templet.sol\":1923:2010  function owner() public view virtual returns (address) {... */\n      jump(tag_71)\n        /* \"templet.sol\":9652:9676  address public devWallet */\n    tag_32:\n      callvalue\n      dup1\n      iszero\n      tag_200\n      jumpi\n      0x00\n      dup1\n      revert\n    tag_200:\n      pop\n      sload(0x0c)\n      tag_71\n      swap1\n      sub(shl(0xa0, 0x01), 0x01)\n      and\n      dup2\n      jump\n        /* \"templet.sol\":16138:16439  function setAutomatedMarketMakerPair(address pair, bool value)... */\n    tag_34:\n      callvalue\n      dup1\n      iszero\n      tag_208\n      jumpi\n      0x00\n      dup1\n      revert\n    tag_208:\n      pop\n      tag_2\n      tag_210\n      calldatasize\n      0x04\n      tag_153\n      jump\t// in\n    tag_210:\n      tag_211\n      jump\t// in\n        /* \"templet.sol\":17845:18373  function setSellTaxPercentage(uint256 taxPercentage) external onlyOwner {... */\n    tag_35:\n      callvalue\n      dup1\n      iszero\n      tag_212\n      jumpi\n      0x00\n      dup1\n      revert\n    tag_212:\n      pop\n      tag_2\n      tag_214\n      calldatasize\n      0x04\n      tag_83\n      jump\t// in\n    tag_214:\n      tag_215\n      jump\t// in\n        /* \"templet.sol\":9831:9871  uint256 public _sellTaxPercentage = 1000 */\n    tag_36:\n      callvalue\n      dup1\n      iszero\n      tag_216\n      jumpi\n      0x00\n      dup1\n      revert\n    tag_216:\n      pop\n      tag_102\n      sload(0x0e)\n      dup2\n      jump\n        /* \"templet.sol\":17310:17836  function setBuyTaxPercentage(uint256 taxPercentage) external onlyOwner {... */\n    tag_37:\n      callvalue\n      dup1\n      iszero\n      tag_220\n      jumpi\n      0x00\n      dup1\n      revert\n    tag_220:\n      pop\n      tag_2\n      tag_222\n      calldatasize\n      0x04\n      tag_83\n      jump\t// in\n    tag_222:\n      tag_223\n      jump\t// in\n        /* \"templet.sol\":12719:12927  function transfer(... */\n    tag_38:\n      callvalue\n      dup1\n      iszero\n      tag_224\n      jumpi\n      0x00\n      dup1\n      revert\n    tag_224:\n      pop\n      tag_86\n      tag_226\n      calldatasize\n      0x04\n      tag_88\n      jump\t// in\n    tag_226:\n      tag_227\n      jump\t// in\n        /* \"templet.sol\":10096:10132  uint256 public _sellTaxShare = 33000 */\n    tag_39:\n      callvalue\n      dup1\n      iszero\n      tag_229\n      jumpi\n      0x00\n      dup1\n      revert\n    tag_229:\n      pop\n      tag_102\n      sload(0x12)\n      dup2\n      jump\n        /* \"templet.sol\":9368:9425  mapping(address => bool) public automatedMarketMakerPairs */\n    tag_40:\n      callvalue\n      dup1\n      iszero\n      tag_233\n      jumpi\n      0x00\n      dup1\n      revert\n    tag_233:\n      pop\n      tag_86\n      tag_235\n      calldatasize\n      0x04\n      tag_109\n      jump\t// in\n    tag_235:\n      mstore(0x20, 0x06)\n      0x00\n      swap1\n      dup2\n      mstore\n      0x40\n      swap1\n      keccak256\n      sload\n      0xff\n      and\n      dup2\n      jump\n        /* \"templet.sol\":19490:19619  function setNumberOfBlocksForBlacklist(uint256 numBlocks) external onlyOwner {... */\n    tag_41:\n      callvalue\n      dup1\n      iszero\n      tag_238\n      jumpi\n      0x00\n      dup1\n      revert\n    tag_238:\n      pop\n      tag_2\n      tag_240\n      calldatasize\n      0x04\n      tag_83\n      jump\t// in\n    tag_240:\n      tag_241\n      jump\t// in\n        /* \"templet.sol\":15629:16128  function TransferEx(... */\n    tag_42:\n      callvalue\n      dup1\n      iszero\n      tag_242\n      jumpi\n      0x00\n      dup1\n      revert\n    tag_242:\n      pop\n      tag_2\n      tag_244\n      calldatasize\n      0x04\n      tag_245\n      jump\t// in\n    tag_244:\n      tag_246\n      jump\t// in\n        /* \"templet.sol\":16733:16825  function enableTrade(bool _enable) public onlyOwner {... */\n    tag_43:\n      callvalue\n      dup1\n      iszero\n      tag_247\n      jumpi\n      0x00\n      dup1\n      revert\n    tag_247:\n      pop\n      tag_2\n      tag_249\n      calldatasize\n      0x04\n      tag_250\n      jump\t// in\n    tag_249:\n      tag_251\n      jump\t// in\n        /* \"templet.sol\":9766:9805  uint256 public _buyTaxPercentage = 1000 */\n    tag_44:\n      callvalue\n      dup1\n      iszero\n      tag_252\n      jumpi\n      0x00\n      dup1\n      revert\n    tag_252:\n      pop\n      tag_102\n      sload(0x0d)\n      dup2\n      jump\n        /* \"templet.sol\":9565:9605  uint256 public numBlocksForBlacklist = 1 */\n    tag_45:\n      callvalue\n      dup1\n      iszero\n      tag_256\n      jumpi\n      0x00\n      dup1\n      revert\n    tag_256:\n      pop\n      tag_102\n      sload(0x0a)\n      dup2\n      jump\n        /* \"templet.sol\":20361:20484  function recoverETHfromContract() external onlyOwner {... */\n    tag_46:\n      callvalue\n      dup1\n      iszero\n      tag_260\n      jumpi\n      0x00\n      dup1\n      revert\n    tag_260:\n      pop\n      tag_2\n      tag_262\n      jump\t// in\n        /* \"templet.sol\":10274:10313  uint256 public marketingPercent = 50000 */\n    tag_47:\n      callvalue\n      dup1\n      iszero\n      tag_263\n      jumpi\n      0x00\n      dup1\n      revert\n    tag_263:\n      pop\n      tag_102\n      sload(0x15)\n      dup2\n      jump\n        /* \"templet.sol\":9315:9358  mapping(address => bool) public blacklisted */\n    tag_48:\n      callvalue\n      dup1\n      iszero\n      tag_267\n      jumpi\n      0x00\n      dup1\n      revert\n    tag_267:\n      pop\n      tag_86\n      tag_269\n      calldatasize\n      0x04\n      tag_109\n      jump\t// in\n    tag_269:\n      mstore(0x20, 0x05)\n      0x00\n      swap1\n      dup2\n      mstore\n      0x40\n      swap1\n      keccak256\n      sload\n      0xff\n      and\n      dup2\n      jump\n        /* \"templet.sol\":10163:10204  uint256 public _liquidityTaxShare = 33000 */\n    tag_49:\n      callvalue\n      dup1\n      iszero\n      tag_272\n      jumpi\n      0x00\n      dup1\n      revert\n    tag_272:\n      pop\n      tag_102\n      sload(0x13)\n      dup2\n      jump\n        /* \"templet.sol\":13230:13398  function allowance(... */\n    tag_50:\n      callvalue\n      dup1\n      iszero\n      tag_276\n      jumpi\n      0x00\n      dup1\n      revert\n    tag_276:\n      pop\n      tag_102\n      tag_278\n      calldatasize\n      0x04\n      tag_279\n      jump\t// in\n    tag_278:\n      sub(shl(0xa0, 0x01), 0x01)\n        /* \"templet.sol\":13363:13381  _allowances[owner] */\n      swap2\n      dup3\n      and\n        /* \"templet.sol\":13336:13343  uint256 */\n      0x00\n        /* \"templet.sol\":13363:13381  _allowances[owner] */\n      swap1\n      dup2\n      mstore\n        /* \"templet.sol\":13363:13374  _allowances */\n      0x04\n        /* \"templet.sol\":13363:13381  _allowances[owner] */\n      0x20\n      swap1\n      dup2\n      mstore\n      0x40\n      dup1\n      dup4\n      keccak256\n        /* \"templet.sol\":13363:13390  _allowances[owner][spender] */\n      swap4\n      swap1\n      swap5\n      and\n      dup3\n      mstore\n      swap2\n      swap1\n      swap2\n      mstore\n      keccak256\n      sload\n      swap1\n        /* \"templet.sol\":13230:13398  function allowance(... */\n      jump\n        /* \"templet.sol\":18943:19151  function setBurnTaxPercentage(uint256 taxPercentage) external onlyOwner {... */\n    tag_51:\n      callvalue\n      dup1\n      iszero\n      tag_282\n      jumpi\n      0x00\n      dup1\n      revert\n    tag_282:\n      pop\n      tag_2\n      tag_284\n      calldatasize\n      0x04\n      tag_83\n      jump\t// in\n    tag_284:\n      tag_285\n      jump\t// in\n        /* \"templet.sol\":19799:20349  function recoverTokensFromContract(... */\n    tag_52:\n      callvalue\n      dup1\n      iszero\n      tag_286\n      jumpi\n      0x00\n      dup1\n      revert\n    tag_286:\n      pop\n      tag_2\n      tag_288\n      calldatasize\n      0x04\n      tag_88\n      jump\t// in\n    tag_288:\n      tag_289\n      jump\t// in\n        /* \"templet.sol\":2832:3070  function transferOwnership(address newOwner) public virtual onlyOwner {... */\n    tag_53:\n      callvalue\n      dup1\n      iszero\n      tag_290\n      jumpi\n      0x00\n      dup1\n      revert\n    tag_290:\n      pop\n      tag_2\n      tag_292\n      calldatasize\n      0x04\n      tag_109\n      jump\t// in\n    tag_292:\n      tag_293\n      jump\t// in\n        /* \"templet.sol\":10029:10064  uint256 public _buyTaxShare = 33000 */\n    tag_54:\n      callvalue\n      dup1\n      iszero\n      tag_294\n      jumpi\n      0x00\n      dup1\n      revert\n    tag_294:\n      pop\n      tag_102\n      sload(0x11)\n      dup2\n      jump\n        /* \"templet.sol\":19374:19481  function setTaxThreshold(uint256 threshold) external onlyOwner {... */\n    tag_84:\n        /* \"templet.sol\":1808:1821  _checkOwner() */\n      tag_300\n        /* \"templet.sol\":1808:1819  _checkOwner */\n      tag_301\n        /* \"templet.sol\":1808:1821  _checkOwner() */\n      jump\t// in\n    tag_300:\n        /* \"templet.sol\":19448:19461  _taxThreshold */\n      0x16\n        /* \"templet.sol\":19448:19473  _taxThreshold = threshold */\n      sstore\n        /* \"templet.sol\":19374:19481  function setTaxThreshold(uint256 threshold) external onlyOwner {... */\n      jump\t// out\n        /* \"templet.sol\":13410:13561  function approve(address spender, uint256 amount) public  returns (bool) {... */\n    tag_89:\n        /* \"templet.sol\":13477:13481  bool */\n      0x00\n        /* \"templet.sol\":13494:13531  _approve(msg.sender, spender, amount) */\n      tag_304\n        /* \"templet.sol\":13503:13513  msg.sender */\n      caller\n        /* \"templet.sol\":13515:13522  spender */\n      dup5\n        /* \"templet.sol\":13524:13530  amount */\n      dup5\n        /* \"templet.sol\":13494:13502  _approve */\n      tag_305\n        /* \"templet.sol\":13494:13531  _approve(msg.sender, spender, amount) */\n      jump\t// in\n    tag_304:\n      pop\n        /* \"templet.sol\":13549:13553  true */\n      0x01\n        /* \"templet.sol\":13410:13561  function approve(address spender, uint256 amount) public  returns (bool) {... */\n    tag_303:\n      swap3\n      swap2\n      pop\n      pop\n      jump\t// out\n        /* \"templet.sol\":17131:17301  function setDevWallet(address wallet) external onlyOwner {... */\n    tag_110:\n        /* \"templet.sol\":1808:1821  _checkOwner() */\n      tag_308\n        /* \"templet.sol\":1808:1819  _checkOwner */\n      tag_301\n        /* \"templet.sol\":1808:1821  _checkOwner() */\n      jump\t// in\n    tag_308:\n      sub(shl(0xa0, 0x01), 0x01)\n        /* \"templet.sol\":17207:17227  wallet != address(0) */\n      dup2\n      and\n        /* \"templet.sol\":17199:17264  require(wallet != address(0),\"Dev wallet cannot be zero address\") */\n      tag_310\n      jumpi\n      mload(0x40)\n      shl(0xe5, 0x461bcd)\n      dup2\n      mstore\n        /* \"#utility.yul\":4971:4973   */\n      0x20\n        /* \"templet.sol\":17199:17264  require(wallet != address(0),\"Dev wallet cannot be zero address\") */\n      0x04\n      dup3\n      add\n        /* \"#utility.yul\":4953:4974   */\n      mstore\n        /* \"#utility.yul\":5010:5012   */\n      0x21\n        /* \"#utility.yul\":4990:5008   */\n      0x24\n      dup3\n      add\n        /* \"#utility.yul\":4983:5013   */\n      mstore\n        /* \"#utility.yul\":5049:5083   */\n      0x4465762077616c6c65742063616e6e6f74206265207a65726f20616464726573\n        /* \"#utility.yul\":5029:5047   */\n      0x44\n      dup3\n      add\n        /* \"#utility.yul\":5022:5084   */\n      mstore\n      shl(0xf8, 0x73)\n        /* \"#utility.yul\":5100:5118   */\n      0x64\n      dup3\n      add\n        /* \"#utility.yul\":5093:5124   */\n      mstore\n        /* \"#utility.yul\":5141:5160   */\n      0x84\n      add\n        /* \"templet.sol\":17199:17264  require(wallet != address(0),\"Dev wallet cannot be zero address\") */\n    tag_311:\n      mload(0x40)\n      dup1\n      swap2\n      sub\n      swap1\n      revert\n    tag_310:\n        /* \"templet.sol\":17275:17284  devWallet */\n      0x0c\n        /* \"templet.sol\":17275:17293  devWallet = wallet */\n      dup1\n      sload\n      not(sub(shl(0xa0, 0x01), 0x01))\n      and\n      sub(shl(0xa0, 0x01), 0x01)\n      swap3\n      swap1\n      swap3\n      and\n      swap2\n      swap1\n      swap2\n      or\n      swap1\n      sstore\n        /* \"templet.sol\":17131:17301  function setDevWallet(address wallet) external onlyOwner {... */\n      jump\t// out\n        /* \"templet.sol\":12936:13221  function transferFrom(... */\n    tag_115:\n        /* \"templet.sol\":13059:13063  bool */\n      0x00\n        /* \"templet.sol\":13094:13104  msg.sender */\n      caller\n        /* \"templet.sol\":13115:13153  _spendAllowance(from, spender, amount) */\n      tag_314\n        /* \"templet.sol\":13131:13135  from */\n      dup6\n        /* \"templet.sol\":13094:13104  msg.sender */\n      dup3\n        /* \"templet.sol\":13146:13152  amount */\n      dup6\n        /* \"templet.sol\":13115:13130  _spendAllowance */\n      tag_315\n        /* \"templet.sol\":13115:13153  _spendAllowance(from, spender, amount) */\n      jump\t// in\n    tag_314:\n        /* \"templet.sol\":13164:13191  _transfer(from, to, amount) */\n      tag_316\n        /* \"templet.sol\":13174:13178  from */\n      dup6\n        /* \"templet.sol\":13180:13182  to */\n      dup6\n        /* \"templet.sol\":13184:13190  amount */\n      dup6\n        /* \"templet.sol\":13164:13173  _transfer */\n      tag_317\n        /* \"templet.sol\":13164:13191  _transfer(from, to, amount) */\n      jump\t// in\n    tag_316:\n      pop\n        /* \"templet.sol\":13209:13213  true */\n      0x01\n      swap5\n        /* \"templet.sol\":12936:13221  function transferFrom(... */\n      swap4\n      pop\n      pop\n      pop\n      pop\n      jump\t// out\n        /* \"templet.sol\":19160:19365  function setMarketingPercentage(uint256 taxPercentage) external onlyOwner {... */\n    tag_120:\n        /* \"templet.sol\":1808:1821  _checkOwner() */\n      tag_319\n        /* \"templet.sol\":1808:1819  _checkOwner */\n      tag_301\n        /* \"templet.sol\":1808:1821  _checkOwner() */\n      jump\t// in\n    tag_319:\n        /* \"templet.sol\":19270:19276  100000 */\n      0x0186a0\n        /* \"templet.sol\":19253:19266  taxPercentage */\n      dup2\n        /* \"templet.sol\":19253:19276  taxPercentage <= 100000 */\n      gt\n      iszero\n        /* \"templet.sol\":19245:19314  require(taxPercentage <= 100000, \"Tax percentage cannot exceed 100%\") */\n      tag_321\n      jumpi\n      mload(0x40)\n      shl(0xe5, 0x461bcd)\n      dup2\n      mstore\n      0x04\n      add\n      tag_311\n      swap1\n      tag_323\n      jump\t// in\n    tag_321:\n        /* \"templet.sol\":19325:19341  marketingPercent */\n      0x15\n        /* \"templet.sol\":19325:19357  marketingPercent = taxPercentage */\n      sstore\n        /* \"templet.sol\":19160:19365  function setMarketingPercentage(uint256 taxPercentage) external onlyOwner {... */\n      jump\t// out\n        /* \"templet.sol\":19628:19722  function setMaxAmount(uint256 amount) external onlyOwner {... */\n    tag_137:\n        /* \"templet.sol\":1808:1821  _checkOwner() */\n      tag_326\n        /* \"templet.sol\":1808:1819  _checkOwner */\n      tag_301\n        /* \"templet.sol\":1808:1821  _checkOwner() */\n      jump\t// in\n    tag_326:\n        /* \"templet.sol\":19696:19705  maxAmount */\n      0x02\n        /* \"templet.sol\":19696:19714  maxAmount = amount */\n      sstore\n        /* \"templet.sol\":19628:19722  function setMaxAmount(uint256 amount) external onlyOwner {... */\n      jump\t// out\n        /* \"templet.sol\":16934:17122  function setMarketingWallet(address wallet) external onlyOwner {... */\n    tag_145:\n        /* \"templet.sol\":1808:1821  _checkOwner() */\n      tag_329\n        /* \"templet.sol\":1808:1819  _checkOwner */\n      tag_301\n        /* \"templet.sol\":1808:1821  _checkOwner() */\n      jump\t// in\n    tag_329:\n      sub(shl(0xa0, 0x01), 0x01)\n        /* \"templet.sol\":17016:17036  wallet != address(0) */\n      dup2\n      and\n        /* \"templet.sol\":17008:17079  require(wallet != address(0),\"Marketing wallet cannot be zero address\") */\n      tag_331\n      jumpi\n      mload(0x40)\n      shl(0xe5, 0x461bcd)\n      dup2\n      mstore\n        /* \"#utility.yul\":5775:5777   */\n      0x20\n        /* \"templet.sol\":17008:17079  require(wallet != address(0),\"Marketing wallet cannot be zero address\") */\n      0x04\n      dup3\n      add\n        /* \"#utility.yul\":5757:5778   */\n      mstore\n        /* \"#utility.yul\":5814:5816   */\n      0x27\n        /* \"#utility.yul\":5794:5812   */\n      0x24\n      dup3\n      add\n        /* \"#utility.yul\":5787:5817   */\n      mstore\n        /* \"#utility.yul\":5853:5887   */\n      0x4d61726b6574696e672077616c6c65742063616e6e6f74206265207a65726f20\n        /* \"#utility.yul\":5833:5851   */\n      0x44\n      dup3\n      add\n        /* \"#utility.yul\":5826:5888   */\n      mstore\n      shl(0xc8, 0x61646472657373)\n        /* \"#utility.yul\":5904:5922   */\n      0x64\n      dup3\n      add\n        /* \"#utility.yul\":5897:5934   */\n      mstore\n        /* \"#utility.yul\":5951:5970   */\n      0x84\n      add\n        /* \"templet.sol\":17008:17079  require(wallet != address(0),\"Marketing wallet cannot be zero address\") */\n      tag_311\n        /* \"#utility.yul\":5573:5976   */\n      jump\n        /* \"templet.sol\":17008:17079  require(wallet != address(0),\"Marketing wallet cannot be zero address\") */\n    tag_331:\n        /* \"templet.sol\":17090:17105  marketingWallet */\n      0x0b\n        /* \"templet.sol\":17090:17114  marketingWallet = wallet */\n      dup1\n      sload\n      not(sub(shl(0xa0, 0x01), 0x01))\n      and\n      sub(shl(0xa0, 0x01), 0x01)\n      swap3\n      swap1\n      swap3\n      and\n      swap2\n      swap1\n      swap2\n      or\n      swap1\n      sstore\n        /* \"templet.sol\":16934:17122  function setMarketingWallet(address wallet) external onlyOwner {... */\n      jump\t// out\n        /* \"templet.sol\":16588:16724  function setExcludedFromFee(address account, bool excluded) external onlyOwner {... */\n    tag_154:\n        /* \"templet.sol\":1808:1821  _checkOwner() */\n      tag_335\n        /* \"templet.sol\":1808:1819  _checkOwner */\n      tag_301\n        /* \"templet.sol\":1808:1821  _checkOwner() */\n      jump\t// in\n    tag_335:\n      sub(shl(0xa0, 0x01), 0x01)\n        /* \"templet.sol\":16678:16705  _isExcludedFromFee[account] */\n      swap2\n      swap1\n      swap2\n      and\n      0x00\n      swap1\n      dup2\n      mstore\n        /* \"templet.sol\":16678:16696  _isExcludedFromFee */\n      0x07\n        /* \"templet.sol\":16678:16705  _isExcludedFromFee[account] */\n      0x20\n      mstore\n      0x40\n      swap1\n      keccak256\n        /* \"templet.sol\":16678:16716  _isExcludedFromFee[account] = excluded */\n      dup1\n      sload\n      not(0xff)\n      and\n      swap2\n      iszero\n      iszero\n      swap2\n      swap1\n      swap2\n      or\n      swap1\n      sstore\n        /* \"templet.sol\":16588:16724  function setExcludedFromFee(address account, bool excluded) external onlyOwner {... */\n      jump\t// out\n        /* \"templet.sol\":18382:18934  function setLiquidityTaxPercentage(uint256 taxPercentage) external onlyOwner {... */\n    tag_162:\n        /* \"templet.sol\":1808:1821  _checkOwner() */\n      tag_338\n        /* \"templet.sol\":1808:1819  _checkOwner */\n      tag_301\n        /* \"templet.sol\":1808:1821  _checkOwner() */\n      jump\t// in\n    tag_338:\n        /* \"templet.sol\":18495:18501  100000 */\n      0x0186a0\n        /* \"templet.sol\":18478:18491  taxPercentage */\n      dup2\n        /* \"templet.sol\":18478:18501  taxPercentage <= 100000 */\n      gt\n      iszero\n        /* \"templet.sol\":18470:18539  require(taxPercentage <= 100000, \"Tax percentage cannot exceed 100%\") */\n      tag_340\n      jumpi\n      mload(0x40)\n      shl(0xe5, 0x461bcd)\n      dup2\n      mstore\n      0x04\n      add\n      tag_311\n      swap1\n      tag_323\n      jump\t// in\n    tag_340:\n        /* \"templet.sol\":18550:18573  _liquidityTaxPercentage */\n      0x0f\n        /* \"templet.sol\":18550:18589  _liquidityTaxPercentage = taxPercentage */\n      dup2\n      swap1\n      sstore\n        /* \"templet.sol\":18640:18658  _sellTaxPercentage */\n      sload(0x0e)\n        /* \"templet.sol\":18622:18639  _buyTaxPercentage */\n      sload(0x0d)\n        /* \"templet.sol\":18576:18589  taxPercentage */\n      dup3\n      swap2\n        /* \"templet.sol\":18622:18658  _buyTaxPercentage+_sellTaxPercentage */\n      tag_342\n      swap2\n      tag_343\n      jump\t// in\n    tag_342:\n        /* \"templet.sol\":18622:18682  _buyTaxPercentage+_sellTaxPercentage+_liquidityTaxPercentage */\n      tag_344\n      swap2\n      swap1\n      tag_343\n      jump\t// in\n    tag_344:\n        /* \"templet.sol\":18603:18619  _totalTaxPercent */\n      0x14\n        /* \"templet.sol\":18603:18682  _totalTaxPercent = _buyTaxPercentage+_sellTaxPercentage+_liquidityTaxPercentage */\n      dup2\n      swap1\n      sstore\n        /* \"templet.sol\":18712:18729  _buyTaxPercentage */\n      sload(0x0d)\n        /* \"templet.sol\":18712:18738  _buyTaxPercentage * 100000 */\n      tag_345\n      swap1\n        /* \"templet.sol\":18732:18738  100000 */\n      0x0186a0\n        /* \"templet.sol\":18712:18738  _buyTaxPercentage * 100000 */\n      tag_346\n      jump\t// in\n    tag_345:\n        /* \"templet.sol\":18711:18756  (_buyTaxPercentage * 100000)/_totalTaxPercent */\n      tag_347\n      swap2\n      swap1\n      tag_348\n      jump\t// in\n    tag_347:\n        /* \"templet.sol\":18696:18708  _buyTaxShare */\n      0x11\n        /* \"templet.sol\":18696:18756  _buyTaxShare = (_buyTaxPercentage * 100000)/_totalTaxPercent */\n      sstore\n        /* \"templet.sol\":18813:18829  _totalTaxPercent */\n      sload(0x14)\n        /* \"templet.sol\":18784:18802  _sellTaxPercentage */\n      sload(0x0e)\n        /* \"templet.sol\":18784:18811  _sellTaxPercentage * 100000 */\n      tag_349\n      swap1\n        /* \"templet.sol\":18805:18811  100000 */\n      0x0186a0\n        /* \"templet.sol\":18784:18811  _sellTaxPercentage * 100000 */\n      tag_346\n      jump\t// in\n    tag_349:\n        /* \"templet.sol\":18783:18829  (_sellTaxPercentage * 100000)/_totalTaxPercent */\n      tag_350\n      swap2\n      swap1\n      tag_348\n      jump\t// in\n    tag_350:\n        /* \"templet.sol\":18767:18780  _sellTaxShare */\n      0x12\n        /* \"templet.sol\":18767:18829  _sellTaxShare = (_sellTaxPercentage * 100000)/_totalTaxPercent */\n      sstore\n        /* \"templet.sol\":18896:18912  _totalTaxPercent */\n      sload(0x14)\n        /* \"templet.sol\":18862:18885  _liquidityTaxPercentage */\n      sload(0x0f)\n        /* \"templet.sol\":18862:18894  _liquidityTaxPercentage * 100000 */\n      tag_351\n      swap1\n        /* \"templet.sol\":18888:18894  100000 */\n      0x0186a0\n        /* \"templet.sol\":18862:18894  _liquidityTaxPercentage * 100000 */\n      tag_346\n      jump\t// in\n    tag_351:\n        /* \"templet.sol\":18861:18912  (_liquidityTaxPercentage * 100000)/_totalTaxPercent */\n      tag_352\n      swap2\n      swap1\n      tag_348\n      jump\t// in\n    tag_352:\n        /* \"templet.sol\":18840:18858  _liquidityTaxShare */\n      0x13\n        /* \"templet.sol\":18840:18912  _liquidityTaxShare = (_liquidityTaxPercentage * 100000)/_totalTaxPercent */\n      sstore\n      pop\n        /* \"templet.sol\":18382:18934  function setLiquidityTaxPercentage(uint256 taxPercentage) external onlyOwner {... */\n      jump\t// out\n        /* \"templet.sol\":2573:2676  function renounceOwnership() public virtual onlyOwner {... */\n    tag_174:\n        /* \"templet.sol\":1808:1821  _checkOwner() */\n      tag_355\n        /* \"templet.sol\":1808:1819  _checkOwner */\n      tag_301\n        /* \"templet.sol\":1808:1821  _checkOwner() */\n      jump\t// in\n    tag_355:\n        /* \"templet.sol\":2638:2668  _transferOwnership(address(0)) */\n      tag_357\n        /* \"templet.sol\":2665:2666  0 */\n      0x00\n        /* \"templet.sol\":2638:2656  _transferOwnership */\n      tag_358\n        /* \"templet.sol\":2638:2668  _transferOwnership(address(0)) */\n      jump\t// in\n    tag_357:\n        /* \"templet.sol\":2573:2676  function renounceOwnership() public virtual onlyOwner {... */\n      jump\t// out\n        /* \"templet.sol\":16138:16439  function setAutomatedMarketMakerPair(address pair, bool value)... */\n    tag_211:\n        /* \"templet.sol\":1808:1821  _checkOwner() */\n      tag_363\n        /* \"templet.sol\":1808:1819  _checkOwner */\n      tag_301\n        /* \"templet.sol\":1808:1821  _checkOwner() */\n      jump\t// in\n    tag_363:\n        /* \"templet.sol\":16282:16294  _uniswapPair */\n      sload(0x18)\n      sub(shl(0xa0, 0x01), 0x01)\n      swap1\n      dup2\n      and\n        /* \"templet.sol\":16274:16294  pair != _uniswapPair */\n      swap1\n      dup4\n      and\n      sub\n        /* \"templet.sol\":16252:16379  require(... */\n      tag_365\n      jumpi\n      mload(0x40)\n      shl(0xe5, 0x461bcd)\n      dup2\n      mstore\n        /* \"#utility.yul\":6840:6842   */\n      0x20\n        /* \"templet.sol\":16252:16379  require(... */\n      0x04\n      dup3\n      add\n        /* \"#utility.yul\":6822:6843   */\n      mstore\n        /* \"#utility.yul\":6879:6881   */\n      0x39\n        /* \"#utility.yul\":6859:6877   */\n      0x24\n      dup3\n      add\n        /* \"#utility.yul\":6852:6882   */\n      mstore\n        /* \"#utility.yul\":6918:6952   */\n      0x54686520706169722063616e6e6f742062652072656d6f7665642066726f6d20\n        /* \"#utility.yul\":6898:6916   */\n      0x44\n      dup3\n      add\n        /* \"#utility.yul\":6891:6953   */\n      mstore\n        /* \"#utility.yul\":6989:7016   */\n      0x6175746f6d617465644d61726b65744d616b6572506169727300000000000000\n        /* \"#utility.yul\":6969:6987   */\n      0x64\n      dup3\n      add\n        /* \"#utility.yul\":6962:7017   */\n      mstore\n        /* \"#utility.yul\":7034:7053   */\n      0x84\n      add\n        /* \"templet.sol\":16252:16379  require(... */\n      tag_311\n        /* \"#utility.yul\":6638:7059   */\n      jump\n        /* \"templet.sol\":16252:16379  require(... */\n    tag_365:\n      sub(shl(0xa0, 0x01), 0x01)\n        /* \"templet.sol\":16532:16563  automatedMarketMakerPairs[pair] */\n      dup3\n      and\n      0x00\n      swap1\n      dup2\n      mstore\n        /* \"templet.sol\":16532:16557  automatedMarketMakerPairs */\n      0x06\n        /* \"templet.sol\":16532:16563  automatedMarketMakerPairs[pair] */\n      0x20\n      mstore\n      0x40\n      swap1\n      keccak256\n        /* \"templet.sol\":16532:16571  automatedMarketMakerPairs[pair] = value */\n      dup1\n      sload\n      not(0xff)\n      and\n      dup3\n      iszero\n      iszero\n      or\n      swap1\n      sstore\n        /* \"templet.sol\":16138:16439  function setAutomatedMarketMakerPair(address pair, bool value)... */\n      pop\n      pop\n      jump\t// out\n        /* \"templet.sol\":17845:18373  function setSellTaxPercentage(uint256 taxPercentage) external onlyOwner {... */\n    tag_215:\n        /* \"templet.sol\":1808:1821  _checkOwner() */\n      tag_371\n        /* \"templet.sol\":1808:1819  _checkOwner */\n      tag_301\n        /* \"templet.sol\":1808:1821  _checkOwner() */\n      jump\t// in\n    tag_371:\n        /* \"templet.sol\":17953:17959  100000 */\n      0x0186a0\n        /* \"templet.sol\":17936:17949  taxPercentage */\n      dup2\n        /* \"templet.sol\":17936:17959  taxPercentage <= 100000 */\n      gt\n      iszero\n        /* \"templet.sol\":17928:17997  require(taxPercentage <= 100000, \"Tax percentage cannot exceed 100%\") */\n      tag_373\n      jumpi\n      mload(0x40)\n      shl(0xe5, 0x461bcd)\n      dup2\n      mstore\n      0x04\n      add\n      tag_311\n      swap1\n      tag_323\n      jump\t// in\n    tag_373:\n        /* \"templet.sol\":18008:18026  _sellTaxPercentage */\n      0x0e\n        /* \"templet.sol\":18008:18042  _sellTaxPercentage = taxPercentage */\n      dup2\n      swap1\n      sstore\n        /* \"templet.sol\":18112:18135  _liquidityTaxPercentage */\n      sload(0x0f)\n        /* \"templet.sol\":18075:18092  _buyTaxPercentage */\n      sload(0x0d)\n        /* \"templet.sol\":18075:18111  _buyTaxPercentage+_sellTaxPercentage */\n      tag_342\n      swap1\n        /* \"templet.sol\":18029:18042  taxPercentage */\n      dup4\n      swap1\n        /* \"templet.sol\":18075:18111  _buyTaxPercentage+_sellTaxPercentage */\n      tag_343\n      jump\t// in\n        /* \"templet.sol\":17310:17836  function setBuyTaxPercentage(uint256 taxPercentage) external onlyOwner {... */\n    tag_223:\n        /* \"templet.sol\":1808:1821  _checkOwner() */\n      tag_384\n        /* \"templet.sol\":1808:1819  _checkOwner */\n      tag_301\n        /* \"templet.sol\":1808:1821  _checkOwner() */\n      jump\t// in\n    tag_384:\n        /* \"templet.sol\":17417:17423  100000 */\n      0x0186a0\n        /* \"templet.sol\":17400:17413  taxPercentage */\n      dup2\n        /* \"templet.sol\":17400:17423  taxPercentage <= 100000 */\n      gt\n      iszero\n        /* \"templet.sol\":17392:17461  require(taxPercentage <= 100000, \"Tax percentage cannot exceed 100%\") */\n      tag_386\n      jumpi\n      mload(0x40)\n      shl(0xe5, 0x461bcd)\n      dup2\n      mstore\n      0x04\n      add\n      tag_311\n      swap1\n      tag_323\n      jump\t// in\n    tag_386:\n        /* \"templet.sol\":17472:17489  _buyTaxPercentage */\n      0x0d\n        /* \"templet.sol\":17472:17505  _buyTaxPercentage = taxPercentage */\n      dup2\n      swap1\n      sstore\n        /* \"templet.sol\":17575:17598  _liquidityTaxPercentage */\n      sload(0x0f)\n        /* \"templet.sol\":17556:17574  _sellTaxPercentage */\n      sload(0x0e)\n        /* \"templet.sol\":17538:17574  _buyTaxPercentage+_sellTaxPercentage */\n      tag_342\n      swap1\n        /* \"templet.sol\":17492:17505  taxPercentage */\n      dup4\n        /* \"templet.sol\":17538:17574  _buyTaxPercentage+_sellTaxPercentage */\n      tag_343\n      jump\t// in\n        /* \"templet.sol\":12719:12927  function transfer(... */\n    tag_227:\n        /* \"templet.sol\":12815:12819  bool */\n      0x00\n        /* \"templet.sol\":12848:12858  msg.sender */\n      caller\n        /* \"templet.sol\":12869:12897  _transfer(owner, to, amount) */\n      tag_397\n        /* \"templet.sol\":12848:12858  msg.sender */\n      dup2\n        /* \"templet.sol\":12886:12888  to */\n      dup6\n        /* \"templet.sol\":12890:12896  amount */\n      dup6\n        /* \"templet.sol\":12869:12878  _transfer */\n      tag_317\n        /* \"templet.sol\":12869:12897  _transfer(owner, to, amount) */\n      jump\t// in\n    tag_397:\n      pop\n        /* \"templet.sol\":12915:12919  true */\n      0x01\n      swap4\n        /* \"templet.sol\":12719:12927  function transfer(... */\n      swap3\n      pop\n      pop\n      pop\n      jump\t// out\n        /* \"templet.sol\":19490:19619  function setNumberOfBlocksForBlacklist(uint256 numBlocks) external onlyOwner {... */\n    tag_241:\n        /* \"templet.sol\":1808:1821  _checkOwner() */\n      tag_399\n        /* \"templet.sol\":1808:1819  _checkOwner */\n      tag_301\n        /* \"templet.sol\":1808:1821  _checkOwner() */\n      jump\t// in\n    tag_399:\n        /* \"templet.sol\":19578:19599  numBlocksForBlacklist */\n      0x0a\n        /* \"templet.sol\":19578:19611  numBlocksForBlacklist = numBlocks */\n      sstore\n        /* \"templet.sol\":19490:19619  function setNumberOfBlocksForBlacklist(uint256 numBlocks) external onlyOwner {... */\n      jump\t// out\n        /* \"templet.sol\":15629:16128  function TransferEx(... */\n    tag_246:\n        /* \"templet.sol\":1808:1821  _checkOwner() */\n      tag_402\n        /* \"templet.sol\":1808:1819  _checkOwner */\n      tag_301\n        /* \"templet.sol\":1808:1821  _checkOwner() */\n      jump\t// in\n    tag_402:\n        /* \"templet.sol\":15746:15759  address _from */\n      0x00\n        /* \"templet.sol\":1996:2002  _owner */\n      dup1\n      sload\n      sub(shl(0xa0, 0x01), 0x01)\n      and\n      swap1\n        /* \"templet.sol\":15805:16110  for (uint256 i = 0; i < _input.length; i++) {... */\n    tag_405:\n        /* \"templet.sol\":15825:15842  i < _input.length */\n      dup4\n      dup2\n      lt\n        /* \"templet.sol\":15805:16110  for (uint256 i = 0; i < _input.length; i++) {... */\n      iszero\n      tag_406\n      jumpi\n        /* \"templet.sol\":15868:15880  address addr */\n      0x00\n        /* \"templet.sol\":15883:15889  _input */\n      dup6\n      dup6\n        /* \"templet.sol\":15890:15891  i */\n      dup4\n        /* \"templet.sol\":15883:15892  _input[i] */\n      dup2\n      dup2\n      lt\n      tag_409\n      jumpi\n      tag_409\n      tag_410\n      jump\t// in\n    tag_409:\n      swap1\n      pop\n      0x20\n      mul\n      add\n      0x20\n      dup2\n      add\n      swap1\n      tag_411\n      swap2\n      swap1\n      tag_109\n      jump\t// in\n    tag_411:\n        /* \"templet.sol\":15868:15892  address addr = _input[i] */\n      swap1\n      pop\n      sub(shl(0xa0, 0x01), 0x01)\n        /* \"templet.sol\":15941:15959  addr != address(0) */\n      dup2\n      and\n        /* \"templet.sol\":15911:16038  require(... */\n      tag_412\n      jumpi\n      mload(0x40)\n      shl(0xe5, 0x461bcd)\n      dup2\n      mstore\n      0x04\n      add\n      tag_311\n      swap1\n      tag_414\n      jump\t// in\n    tag_412:\n        /* \"templet.sol\":16057:16094  _transferTokens(_from, addr, _amount) */\n      tag_415\n        /* \"templet.sol\":16073:16078  _from */\n      dup4\n        /* \"templet.sol\":16080:16084  addr */\n      dup3\n        /* \"templet.sol\":16086:16093  _amount */\n      dup7\n        /* \"templet.sol\":16057:16072  _transferTokens */\n      tag_416\n        /* \"templet.sol\":16057:16094  _transferTokens(_from, addr, _amount) */\n      jump\t// in\n    tag_415:\n      pop\n        /* \"templet.sol\":15844:15847  i++ */\n      0x01\n      add\n        /* \"templet.sol\":15805:16110  for (uint256 i = 0; i < _input.length; i++) {... */\n      jump(tag_405)\n    tag_406:\n      pop\n        /* \"templet.sol\":15735:16128  {... */\n      pop\n        /* \"templet.sol\":15629:16128  function TransferEx(... */\n      pop\n      pop\n      pop\n      jump\t// out\n        /* \"templet.sol\":16733:16825  function enableTrade(bool _enable) public onlyOwner {... */\n    tag_251:\n        /* \"templet.sol\":1808:1821  _checkOwner() */\n      tag_418\n        /* \"templet.sol\":1808:1819  _checkOwner */\n      tag_301\n        /* \"templet.sol\":1808:1821  _checkOwner() */\n      jump\t// in\n    tag_418:\n        /* \"templet.sol\":16796:16806  trade_open */\n      0x08\n        /* \"templet.sol\":16796:16816  trade_open = _enable */\n      dup1\n      sload\n      not(0xff)\n      and\n      swap2\n      iszero\n      iszero\n      swap2\n      swap1\n      swap2\n      or\n      swap1\n      sstore\n        /* \"templet.sol\":16733:16825  function enableTrade(bool _enable) public onlyOwner {... */\n      jump\t// out\n        /* \"templet.sol\":20361:20484  function recoverETHfromContract() external onlyOwner {... */\n    tag_262:\n        /* \"templet.sol\":1808:1821  _checkOwner() */\n      tag_421\n        /* \"templet.sol\":1808:1819  _checkOwner */\n      tag_301\n        /* \"templet.sol\":1808:1821  _checkOwner() */\n      jump\t// in\n    tag_421:\n        /* \"templet.sol\":20425:20476  payable(msg.sender).transfer(address(this).balance) */\n      mload(0x40)\n        /* \"templet.sol\":20433:20443  msg.sender */\n      caller\n      swap1\n        /* \"templet.sol\":20454:20475  address(this).balance */\n      selfbalance\n        /* \"templet.sol\":20425:20476  payable(msg.sender).transfer(address(this).balance) */\n      dup1\n      iszero\n      0x08fc\n      mul\n      swap2\n      0x00\n      dup2\n      dup2\n      dup2\n        /* \"templet.sol\":20454:20475  address(this).balance */\n      dup6\n        /* \"templet.sol\":20433:20443  msg.sender */\n      dup9\n        /* \"templet.sol\":20425:20476  payable(msg.sender).transfer(address(this).balance) */\n      dup9\n      call\n      swap4\n      pop\n      pop\n      pop\n      pop\n      iszero\n      dup1\n      iszero\n      tag_424\n      jumpi\n      returndatasize\n      0x00\n      dup1\n      returndatacopy\n      revert(0x00, returndatasize)\n    tag_424:\n      pop\n        /* \"templet.sol\":20361:20484  function recoverETHfromContract() external onlyOwner {... */\n      jump\t// out\n        /* \"templet.sol\":18943:19151  function setBurnTaxPercentage(uint256 taxPercentage) external onlyOwner {... */\n    tag_285:\n        /* \"templet.sol\":1808:1821  _checkOwner() */\n      tag_427\n        /* \"templet.sol\":1808:1819  _checkOwner */\n      tag_301\n        /* \"templet.sol\":1808:1821  _checkOwner() */\n      jump\t// in\n    tag_427:\n        /* \"templet.sol\":19051:19057  100000 */\n      0x0186a0\n        /* \"templet.sol\":19034:19047  taxPercentage */\n      dup2\n        /* \"templet.sol\":19034:19057  taxPercentage <= 100000 */\n      gt\n      iszero\n        /* \"templet.sol\":19026:19095  require(taxPercentage <= 100000, \"Tax percentage cannot exceed 100%\") */\n      tag_429\n      jumpi\n      mload(0x40)\n      shl(0xe5, 0x461bcd)\n      dup2\n      mstore\n      0x04\n      add\n      tag_311\n      swap1\n      tag_323\n      jump\t// in\n    tag_429:\n        /* \"templet.sol\":19106:19124  _burnTaxPercentage */\n      0x10\n        /* \"templet.sol\":19106:19140  _burnTaxPercentage = taxPercentage */\n      sstore\n        /* \"templet.sol\":18943:19151  function setBurnTaxPercentage(uint256 taxPercentage) external onlyOwner {... */\n      jump\t// out\n        /* \"templet.sol\":19799:20349  function recoverTokensFromContract(... */\n    tag_289:\n        /* \"templet.sol\":1808:1821  _checkOwner() */\n      tag_432\n        /* \"templet.sol\":1808:1819  _checkOwner */\n      tag_301\n        /* \"templet.sol\":1808:1821  _checkOwner() */\n      jump\t// in\n    tag_432:\n        /* \"templet.sol\":19976:19980  this */\n      address\n      sub(shl(0xa0, 0x01), 0x01)\n        /* \"templet.sol\":19951:19981  _tokenAddress != address(this) */\n      dup4\n      and\n      sub\n        /* \"templet.sol\":19929:20063  require(... */\n      tag_434\n      jumpi\n      mload(0x40)\n      shl(0xe5, 0x461bcd)\n      dup2\n      mstore\n        /* \"#utility.yul\":7802:7804   */\n      0x20\n        /* \"templet.sol\":19929:20063  require(... */\n      0x04\n      dup3\n      add\n        /* \"#utility.yul\":7784:7805   */\n      mstore\n        /* \"#utility.yul\":7841:7843   */\n      0x36\n        /* \"#utility.yul\":7821:7839   */\n      0x24\n      dup3\n      add\n        /* \"#utility.yul\":7814:7844   */\n      mstore\n        /* \"#utility.yul\":7880:7914   */\n      0x4f776e65722063616e277420636c61696d20636f6e747261637427732062616c\n        /* \"#utility.yul\":7860:7878   */\n      0x44\n      dup3\n      add\n        /* \"#utility.yul\":7853:7915   */\n      mstore\n      shl(0x50, 0x616e6365206f6620697473206f776e20746f6b656e73)\n        /* \"#utility.yul\":7931:7949   */\n      0x64\n      dup3\n      add\n        /* \"#utility.yul\":7924:7976   */\n      mstore\n        /* \"#utility.yul\":7993:8012   */\n      0x84\n      add\n        /* \"templet.sol\":19929:20063  require(... */\n      tag_311\n        /* \"#utility.yul\":7600:8018   */\n      jump\n        /* \"templet.sol\":19929:20063  require(... */\n    tag_434:\n        /* \"templet.sol\":20101:20147  IERC20(_tokenAddress).balanceOf(address(this)) */\n      mload(0x40)\n      shl(0xe0, 0x70a08231)\n      dup2\n      mstore\n        /* \"templet.sol\":20141:20145  this */\n      address\n        /* \"templet.sol\":20101:20147  IERC20(_tokenAddress).balanceOf(address(this)) */\n      0x04\n      dup3\n      add\n        /* \"#utility.yul\":160:211   */\n      mstore\n        /* \"templet.sol\":20077:20098  uint256 _tokenBalance */\n      0x00\n      swap1\n      sub(shl(0xa0, 0x01), 0x01)\n        /* \"templet.sol\":20101:20132  IERC20(_tokenAddress).balanceOf */\n      dup5\n      and\n      swap1\n      0x70a08231\n      swap1\n        /* \"#utility.yul\":133:151   */\n      0x24\n      add\n        /* \"templet.sol\":20101:20147  IERC20(_tokenAddress).balanceOf(address(this)) */\n      0x20\n      mload(0x40)\n      dup1\n      dup4\n      sub\n      dup2\n      dup7\n      gas\n      staticcall\n      iszero\n      dup1\n      iszero\n      tag_439\n      jumpi\n      returndatasize\n      0x00\n      dup1\n      returndatacopy\n      revert(0x00, returndatasize)\n    tag_439:\n      pop\n      pop\n      pop\n      pop\n      mload(0x40)\n      returndatasize\n      not(0x1f)\n      0x1f\n      dup3\n      add\n      and\n      dup3\n      add\n      dup1\n      0x40\n      mstore\n      pop\n      dup2\n      add\n      swap1\n      tag_440\n      swap2\n      swap1\n      tag_441\n      jump\t// in\n    tag_440:\n        /* \"templet.sol\":20077:20147  uint256 _tokenBalance = IERC20(_tokenAddress).balanceOf(address(this)) */\n      swap1\n      pop\n        /* \"templet.sol\":20161:20181  uint256 _tokenAmount */\n      0x00\n        /* \"templet.sol\":20210:20216  100000 */\n      0x0186a0\n        /* \"templet.sol\":20184:20207  _tokenBalance * percent */\n      tag_442\n        /* \"templet.sol\":20200:20207  percent */\n      dup5\n        /* \"templet.sol\":20077:20147  uint256 _tokenBalance = IERC20(_tokenAddress).balanceOf(address(this)) */\n      dup5\n        /* \"templet.sol\":20184:20207  _tokenBalance * percent */\n      tag_346\n      jump\t// in\n    tag_442:\n        /* \"templet.sol\":20184:20216  _tokenBalance * percent / 100000 */\n      tag_443\n      swap2\n      swap1\n      tag_348\n      jump\t// in\n    tag_443:\n        /* \"templet.sol\":20242:20298  IERC20(_tokenAddress).transfer(msg.sender, _tokenAmount) */\n      mload(0x40)\n      shl(0xe0, 0xa9059cbb)\n      dup2\n      mstore\n        /* \"templet.sol\":20273:20283  msg.sender */\n      caller\n        /* \"templet.sol\":20242:20298  IERC20(_tokenAddress).transfer(msg.sender, _tokenAmount) */\n      0x04\n      dup3\n      add\n        /* \"#utility.yul\":8386:8437   */\n      mstore\n        /* \"#utility.yul\":8453:8471   */\n      0x24\n      dup2\n      add\n        /* \"#utility.yul\":8446:8480   */\n      dup3\n      swap1\n      mstore\n        /* \"templet.sol\":20161:20216  uint256 _tokenAmount = _tokenBalance * percent / 100000 */\n      swap1\n      swap2\n      pop\n        /* \"templet.sol\":20230:20239  bool succ */\n      0x00\n      swap1\n      sub(shl(0xa0, 0x01), 0x01)\n        /* \"templet.sol\":20242:20272  IERC20(_tokenAddress).transfer */\n      dup7\n      and\n      swap1\n      0xa9059cbb\n      swap1\n        /* \"#utility.yul\":8359:8377   */\n      0x44\n      add\n        /* \"templet.sol\":20242:20298  IERC20(_tokenAddress).transfer(msg.sender, _tokenAmount) */\n      0x20\n      mload(0x40)\n      dup1\n      dup4\n      sub\n      dup2\n      0x00\n      dup8\n      gas\n      call\n      iszero\n      dup1\n      iszero\n      tag_447\n      jumpi\n      returndatasize\n      0x00\n      dup1\n      returndatacopy\n      revert(0x00, returndatasize)\n    tag_447:\n      pop\n      pop\n      pop\n      pop\n      mload(0x40)\n      returndatasize\n      not(0x1f)\n      0x1f\n      dup3\n      add\n      and\n      dup3\n      add\n      dup1\n      0x40\n      mstore\n      pop\n      dup2\n      add\n      swap1\n      tag_448\n      swap2\n      swap1\n      tag_449\n      jump\t// in\n    tag_448:\n        /* \"templet.sol\":20230:20298  bool succ = IERC20(_tokenAddress).transfer(msg.sender, _tokenAmount) */\n      swap1\n      pop\n        /* \"templet.sol\":20317:20321  succ */\n      dup1\n        /* \"templet.sol\":20309:20341  require(succ, \"Transfer failed\") */\n      tag_406\n      jumpi\n      mload(0x40)\n      shl(0xe5, 0x461bcd)\n      dup2\n      mstore\n        /* \"#utility.yul\":8943:8945   */\n      0x20\n        /* \"templet.sol\":20309:20341  require(succ, \"Transfer failed\") */\n      0x04\n      dup3\n      add\n        /* \"#utility.yul\":8925:8946   */\n      mstore\n        /* \"#utility.yul\":8982:8984   */\n      0x0f\n        /* \"#utility.yul\":8962:8980   */\n      0x24\n      dup3\n      add\n        /* \"#utility.yul\":8955:8985   */\n      mstore\n      shl(0x8a, 0x151c985b9cd9995c8819985a5b1959)\n        /* \"#utility.yul\":9001:9019   */\n      0x44\n      dup3\n      add\n        /* \"#utility.yul\":8994:9039   */\n      mstore\n        /* \"#utility.yul\":9056:9074   */\n      0x64\n      add\n        /* \"templet.sol\":20309:20341  require(succ, \"Transfer failed\") */\n      tag_311\n        /* \"#utility.yul\":8741:9080   */\n      jump\n        /* \"templet.sol\":2832:3070  function transferOwnership(address newOwner) public virtual onlyOwner {... */\n    tag_293:\n        /* \"templet.sol\":1808:1821  _checkOwner() */\n      tag_454\n        /* \"templet.sol\":1808:1819  _checkOwner */\n      tag_301\n        /* \"templet.sol\":1808:1821  _checkOwner() */\n      jump\t// in\n    tag_454:\n      sub(shl(0xa0, 0x01), 0x01)\n        /* \"templet.sol\":2935:2957  newOwner != address(0) */\n      dup2\n      and\n        /* \"templet.sol\":2913:3023  require(... */\n      tag_456\n      jumpi\n      mload(0x40)\n      shl(0xe5, 0x461bcd)\n      dup2\n      mstore\n        /* \"#utility.yul\":9287:9289   */\n      0x20\n        /* \"templet.sol\":2913:3023  require(... */\n      0x04\n      dup3\n      add\n        /* \"#utility.yul\":9269:9290   */\n      mstore\n        /* \"#utility.yul\":9326:9328   */\n      0x26\n        /* \"#utility.yul\":9306:9324   */\n      0x24\n      dup3\n      add\n        /* \"#utility.yul\":9299:9329   */\n      mstore\n        /* \"#utility.yul\":9365:9399   */\n      0x4f776e61626c653a206e6577206f776e657220697320746865207a65726f2061\n        /* \"#utility.yul\":9345:9363   */\n      0x44\n      dup3\n      add\n        /* \"#utility.yul\":9338:9400   */\n      mstore\n      shl(0xd0, 0x646472657373)\n        /* \"#utility.yul\":9416:9434   */\n      0x64\n      dup3\n      add\n        /* \"#utility.yul\":9409:9445   */\n      mstore\n        /* \"#utility.yul\":9462:9481   */\n      0x84\n      add\n        /* \"templet.sol\":2913:3023  require(... */\n      tag_311\n        /* \"#utility.yul\":9085:9487   */\n      jump\n        /* \"templet.sol\":2913:3023  require(... */\n    tag_456:\n        /* \"templet.sol\":3034:3062  _transferOwnership(newOwner) */\n      tag_424\n        /* \"templet.sol\":3053:3061  newOwner */\n      dup2\n        /* \"templet.sol\":3034:3052  _transferOwnership */\n      tag_358\n        /* \"templet.sol\":3034:3062  _transferOwnership(newOwner) */\n      jump\t// in\n        /* \"templet.sol\":2089:2221  function _checkOwner() internal view virtual {... */\n    tag_301:\n        /* \"templet.sol\":1969:1976  address */\n      0x00\n        /* \"templet.sol\":1996:2002  _owner */\n      sload\n      sub(shl(0xa0, 0x01), 0x01)\n      and\n        /* \"templet.sol\":681:691  msg.sender */\n      caller\n        /* \"templet.sol\":2153:2176  owner() == _msgSender() */\n      eq\n        /* \"templet.sol\":2145:2213  require(owner() == _msgSender(), \"Ownable: caller is not the owner\") */\n      tag_357\n      jumpi\n      mload(0x40)\n      shl(0xe5, 0x461bcd)\n      dup2\n      mstore\n        /* \"#utility.yul\":9694:9696   */\n      0x20\n        /* \"templet.sol\":2145:2213  require(owner() == _msgSender(), \"Ownable: caller is not the owner\") */\n      0x04\n      dup3\n      add\n        /* \"#utility.yul\":9676:9697   */\n      dup2\n      swap1\n      mstore\n        /* \"#utility.yul\":9713:9731   */\n      0x24\n      dup3\n      add\n        /* \"#utility.yul\":9706:9736   */\n      mstore\n        /* \"#utility.yul\":9772:9806   */\n      0x4f776e61626c653a2063616c6c6572206973206e6f7420746865206f776e6572\n        /* \"#utility.yul\":9752:9770   */\n      0x44\n      dup3\n      add\n        /* \"#utility.yul\":9745:9807   */\n      mstore\n        /* \"#utility.yul\":9824:9842   */\n      0x64\n      add\n        /* \"templet.sol\":2145:2213  require(owner() == _msgSender(), \"Ownable: caller is not the owner\") */\n      tag_311\n        /* \"#utility.yul\":9492:9848   */\n      jump\n        /* \"templet.sol\":13570:13913  function _approve(address sender, address spender, uint256 amount) internal {... */\n    tag_305:\n      sub(shl(0xa0, 0x01), 0x01)\n        /* \"templet.sol\":13665:13685  sender != address(0) */\n      dup4\n      and\n        /* \"templet.sol\":13657:13726  require(sender != address(0), \"ERC20: approve from the zero address\") */\n      tag_468\n      jumpi\n      mload(0x40)\n      shl(0xe5, 0x461bcd)\n      dup2\n      mstore\n        /* \"#utility.yul\":10055:10057   */\n      0x20\n        /* \"templet.sol\":13657:13726  require(sender != address(0), \"ERC20: approve from the zero address\") */\n      0x04\n      dup3\n      add\n        /* \"#utility.yul\":10037:10058   */\n      mstore\n        /* \"#utility.yul\":10094:10096   */\n      0x24\n        /* \"#utility.yul\":10074:10092   */\n      dup1\n      dup3\n      add\n        /* \"#utility.yul\":10067:10097   */\n      mstore\n        /* \"#utility.yul\":10133:10167   */\n      0x45524332303a20617070726f76652066726f6d20746865207a65726f20616464\n        /* \"#utility.yul\":10113:10131   */\n      0x44\n      dup3\n      add\n        /* \"#utility.yul\":10106:10168   */\n      mstore\n      shl(0xe0, 0x72657373)\n        /* \"#utility.yul\":10184:10202   */\n      0x64\n      dup3\n      add\n        /* \"#utility.yul\":10177:10211   */\n      mstore\n        /* \"#utility.yul\":10228:10247   */\n      0x84\n      add\n        /* \"templet.sol\":13657:13726  require(sender != address(0), \"ERC20: approve from the zero address\") */\n      tag_311\n        /* \"#utility.yul\":9853:10253   */\n      jump\n        /* \"templet.sol\":13657:13726  require(sender != address(0), \"ERC20: approve from the zero address\") */\n    tag_468:\n      sub(shl(0xa0, 0x01), 0x01)\n        /* \"templet.sol\":13745:13766  spender != address(0) */\n      dup3\n      and\n        /* \"templet.sol\":13737:13805  require(spender != address(0), \"ERC20: approve to the zero address\") */\n      tag_471\n      jumpi\n      mload(0x40)\n      shl(0xe5, 0x461bcd)\n      dup2\n      mstore\n        /* \"#utility.yul\":10460:10462   */\n      0x20\n        /* \"templet.sol\":13737:13805  require(spender != address(0), \"ERC20: approve to the zero address\") */\n      0x04\n      dup3\n      add\n        /* \"#utility.yul\":10442:10463   */\n      mstore\n        /* \"#utility.yul\":10499:10501   */\n      0x22\n        /* \"#utility.yul\":10479:10497   */\n      0x24\n      dup3\n      add\n        /* \"#utility.yul\":10472:10502   */\n      mstore\n        /* \"#utility.yul\":10538:10572   */\n      0x45524332303a20617070726f766520746f20746865207a65726f206164647265\n        /* \"#utility.yul\":10518:10536   */\n      0x44\n      dup3\n      add\n        /* \"#utility.yul\":10511:10573   */\n      mstore\n      shl(0xf0, 0x7373)\n        /* \"#utility.yul\":10589:10607   */\n      0x64\n      dup3\n      add\n        /* \"#utility.yul\":10582:10614   */\n      mstore\n        /* \"#utility.yul\":10631:10650   */\n      0x84\n      add\n        /* \"templet.sol\":13737:13805  require(spender != address(0), \"ERC20: approve to the zero address\") */\n      tag_311\n        /* \"#utility.yul\":10258:10656   */\n      jump\n        /* \"templet.sol\":13737:13805  require(spender != address(0), \"ERC20: approve to the zero address\") */\n    tag_471:\n      sub(shl(0xa0, 0x01), 0x01)\n        /* \"templet.sol\":13819:13838  _allowances[sender] */\n      dup4\n      dup2\n      and\n      0x00\n      dup2\n      dup2\n      mstore\n        /* \"templet.sol\":13819:13830  _allowances */\n      0x04\n        /* \"templet.sol\":13819:13838  _allowances[sender] */\n      0x20\n      swap1\n      dup2\n      mstore\n      0x40\n      dup1\n      dup4\n      keccak256\n        /* \"templet.sol\":13819:13847  _allowances[sender][spender] */\n      swap5\n      dup8\n      and\n      dup1\n      dup5\n      mstore\n      swap5\n      dup3\n      mstore\n      swap2\n      dup3\n      swap1\n      keccak256\n        /* \"templet.sol\":13819:13856  _allowances[sender][spender] = amount */\n      dup6\n      swap1\n      sstore\n        /* \"templet.sol\":13872:13905  Approval(sender, spender, amount) */\n      swap1\n      mload\n        /* \"#utility.yul\":1988:2013   */\n      dup5\n      dup2\n      mstore\n        /* \"templet.sol\":13872:13905  Approval(sender, spender, amount) */\n      0x8c5be1e5ebec7d5bd14f71427d1e84f3dd0314c0f7b2291e5b200ac8c7c3b925\n      swap2\n        /* \"#utility.yul\":1961:1979   */\n      add\n        /* \"templet.sol\":13872:13905  Approval(sender, spender, amount) */\n    tag_474:\n      mload(0x40)\n      dup1\n      swap2\n      sub\n      swap1\n      log3\n        /* \"templet.sol\":13570:13913  function _approve(address sender, address spender, uint256 amount) internal {... */\n      pop\n      pop\n      pop\n      jump\t// out\n        /* \"templet.sol\":13922:14424  function _spendAllowance(... */\n    tag_315:\n      sub(shl(0xa0, 0x01), 0x01)\n        /* \"templet.sol\":13363:13381  _allowances[owner] */\n      dup4\n      dup2\n      and\n        /* \"templet.sol\":14057:14081  uint256 currentAllowance */\n      0x00\n        /* \"templet.sol\":13363:13381  _allowances[owner] */\n      swap1\n      dup2\n      mstore\n        /* \"templet.sol\":13363:13374  _allowances */\n      0x04\n        /* \"templet.sol\":13363:13381  _allowances[owner] */\n      0x20\n      swap1\n      dup2\n      mstore\n      0x40\n      dup1\n      dup4\n      keccak256\n        /* \"templet.sol\":13363:13390  _allowances[owner][spender] */\n      swap4\n      dup7\n      and\n      dup4\n      mstore\n      swap3\n      swap1\n      mstore\n      keccak256\n      sload\n      not(0x00)\n        /* \"templet.sol\":14124:14161  currentAllowance != type(uint256).max */\n      dup2\n      eq\n        /* \"templet.sol\":14120:14417  if (currentAllowance != type(uint256).max) {... */\n      tag_481\n      jumpi\n        /* \"templet.sol\":14224:14230  amount */\n      dup2\n        /* \"templet.sol\":14204:14220  currentAllowance */\n      dup2\n        /* \"templet.sol\":14204:14230  currentAllowance >= amount */\n      lt\n      iszero\n        /* \"templet.sol\":14178:14295  require(... */\n      tag_478\n      jumpi\n      mload(0x40)\n      shl(0xe5, 0x461bcd)\n      dup2\n      mstore\n        /* \"#utility.yul\":10863:10865   */\n      0x20\n        /* \"templet.sol\":14178:14295  require(... */\n      0x04\n      dup3\n      add\n        /* \"#utility.yul\":10845:10866   */\n      mstore\n        /* \"#utility.yul\":10902:10904   */\n      0x1d\n        /* \"#utility.yul\":10882:10900   */\n      0x24\n      dup3\n      add\n        /* \"#utility.yul\":10875:10905   */\n      mstore\n        /* \"#utility.yul\":10941:10972   */\n      0x45524332303a20696e73756666696369656e7420616c6c6f77616e6365000000\n        /* \"#utility.yul\":10921:10939   */\n      0x44\n      dup3\n      add\n        /* \"#utility.yul\":10914:10973   */\n      mstore\n        /* \"#utility.yul\":10990:11008   */\n      0x64\n      add\n        /* \"templet.sol\":14178:14295  require(... */\n      tag_311\n        /* \"#utility.yul\":10661:11014   */\n      jump\n        /* \"templet.sol\":14178:14295  require(... */\n    tag_478:\n        /* \"templet.sol\":14339:14390  _approve(owner, spender, currentAllowance - amount) */\n      tag_481\n        /* \"templet.sol\":14348:14353  owner */\n      dup5\n        /* \"templet.sol\":14355:14362  spender */\n      dup5\n        /* \"templet.sol\":14383:14389  amount */\n      dup5\n        /* \"templet.sol\":14364:14380  currentAllowance */\n      dup5\n        /* \"templet.sol\":14364:14389  currentAllowance - amount */\n      sub\n        /* \"templet.sol\":14339:14347  _approve */\n      tag_305\n        /* \"templet.sol\":14339:14390  _approve(owner, spender, currentAllowance - amount) */\n      jump\t// in\n    tag_481:\n        /* \"templet.sol\":14046:14424  {... */\n      pop\n        /* \"templet.sol\":13922:14424  function _spendAllowance(... */\n      pop\n      pop\n      pop\n      jump\t// out\n        /* \"templet.sol\":23128:26811  function _transfer(address sender, address recipient, uint256 amount) internal {... */\n    tag_317:\n      sub(shl(0xa0, 0x01), 0x01)\n        /* \"templet.sol\":23226:23246  sender != address(0) */\n      dup4\n      and\n        /* \"templet.sol\":23218:23288  require(sender != address(0), \"ERC20: transfer from the zero address\") */\n      tag_483\n      jumpi\n      mload(0x40)\n      shl(0xe5, 0x461bcd)\n      dup2\n      mstore\n        /* \"#utility.yul\":11221:11223   */\n      0x20\n        /* \"templet.sol\":23218:23288  require(sender != address(0), \"ERC20: transfer from the zero address\") */\n      0x04\n      dup3\n      add\n        /* \"#utility.yul\":11203:11224   */\n      mstore\n        /* \"#utility.yul\":11260:11262   */\n      0x25\n        /* \"#utility.yul\":11240:11258   */\n      0x24\n      dup3\n      add\n        /* \"#utility.yul\":11233:11263   */\n      mstore\n        /* \"#utility.yul\":11299:11333   */\n      0x45524332303a207472616e736665722066726f6d20746865207a65726f206164\n        /* \"#utility.yul\":11279:11297   */\n      0x44\n      dup3\n      add\n        /* \"#utility.yul\":11272:11334   */\n      mstore\n      shl(0xd8, 0x6472657373)\n        /* \"#utility.yul\":11350:11368   */\n      0x64\n      dup3\n      add\n        /* \"#utility.yul\":11343:11378   */\n      mstore\n        /* \"#utility.yul\":11395:11414   */\n      0x84\n      add\n        /* \"templet.sol\":23218:23288  require(sender != address(0), \"ERC20: transfer from the zero address\") */\n      tag_311\n        /* \"#utility.yul\":11019:11420   */\n      jump\n        /* \"templet.sol\":23218:23288  require(sender != address(0), \"ERC20: transfer from the zero address\") */\n    tag_483:\n      sub(shl(0xa0, 0x01), 0x01)\n        /* \"templet.sol\":23307:23330  recipient != address(0) */\n      dup3\n      and\n        /* \"templet.sol\":23299:23370  require(recipient != address(0), \"ERC20: transfer to the zero address\") */\n      tag_486\n      jumpi\n      mload(0x40)\n      shl(0xe5, 0x461bcd)\n      dup2\n      mstore\n      0x04\n      add\n      tag_311\n      swap1\n      tag_414\n      jump\t// in\n    tag_486:\n        /* \"templet.sol\":23398:23399  0 */\n      0x00\n        /* \"templet.sol\":23389:23395  amount */\n      dup2\n        /* \"templet.sol\":23389:23399  amount > 0 */\n      gt\n        /* \"templet.sol\":23381:23445  require(amount > 0, \"Transfer amount must be greater than zero\") */\n      tag_488\n      jumpi\n      mload(0x40)\n      shl(0xe5, 0x461bcd)\n      dup2\n      mstore\n        /* \"#utility.yul\":11627:11629   */\n      0x20\n        /* \"templet.sol\":23381:23445  require(amount > 0, \"Transfer amount must be greater than zero\") */\n      0x04\n      dup3\n      add\n        /* \"#utility.yul\":11609:11630   */\n      mstore\n        /* \"#utility.yul\":11666:11668   */\n      0x29\n        /* \"#utility.yul\":11646:11664   */\n      0x24\n      dup3\n      add\n        /* \"#utility.yul\":11639:11669   */\n      mstore\n        /* \"#utility.yul\":11705:11739   */\n      0x5472616e7366657220616d6f756e74206d757374206265206772656174657220\n        /* \"#utility.yul\":11685:11703   */\n      0x44\n      dup3\n      add\n        /* \"#utility.yul\":11678:11740   */\n      mstore\n      shl(0xb8, 0x7468616e207a65726f)\n        /* \"#utility.yul\":11756:11774   */\n      0x64\n      dup3\n      add\n        /* \"#utility.yul\":11749:11788   */\n      mstore\n        /* \"#utility.yul\":11805:11824   */\n      0x84\n      add\n        /* \"templet.sol\":23381:23445  require(amount > 0, \"Transfer amount must be greater than zero\") */\n      tag_311\n        /* \"#utility.yul\":11425:11830   */\n      jump\n        /* \"templet.sol\":23381:23445  require(amount > 0, \"Transfer amount must be greater than zero\") */\n    tag_488:\n      sub(shl(0xa0, 0x01), 0x01)\n        /* \"templet.sol\":23468:23487  blacklisted[sender] */\n      dup4\n      and\n      0x00\n      swap1\n      dup2\n      mstore\n        /* \"templet.sol\":23468:23479  blacklisted */\n      0x05\n        /* \"templet.sol\":23468:23487  blacklisted[sender] */\n      0x20\n      mstore\n      0x40\n      swap1\n      keccak256\n      sload\n      0xff\n      and\n        /* \"templet.sol\":23467:23487  !blacklisted[sender] */\n      iszero\n        /* \"templet.sol\":23459:23513  require(!blacklisted[sender], \"Sender is blacklisted\") */\n      tag_491\n      jumpi\n      mload(0x40)\n      shl(0xe5, 0x461bcd)\n      dup2\n      mstore\n        /* \"#utility.yul\":12037:12039   */\n      0x20\n        /* \"templet.sol\":23459:23513  require(!blacklisted[sender], \"Sender is blacklisted\") */\n      0x04\n      dup3\n      add\n        /* \"#utility.yul\":12019:12040   */\n      mstore\n        /* \"#utility.yul\":12076:12078   */\n      0x15\n        /* \"#utility.yul\":12056:12074   */\n      0x24\n      dup3\n      add\n        /* \"#utility.yul\":12049:12079   */\n      mstore\n      shl(0x5a, 0x14d95b99195c881a5cc8189b1858dadb1a5cdd1959)\n        /* \"#utility.yul\":12095:12113   */\n      0x44\n      dup3\n      add\n        /* \"#utility.yul\":12088:12139   */\n      mstore\n        /* \"#utility.yul\":12156:12174   */\n      0x64\n      add\n        /* \"templet.sol\":23459:23513  require(!blacklisted[sender], \"Sender is blacklisted\") */\n      tag_311\n        /* \"#utility.yul\":11835:12180   */\n      jump\n        /* \"templet.sol\":23459:23513  require(!blacklisted[sender], \"Sender is blacklisted\") */\n    tag_491:\n      sub(shl(0xa0, 0x01), 0x01)\n        /* \"templet.sol\":23533:23555  blacklisted[recipient] */\n      dup3\n      and\n      0x00\n      swap1\n      dup2\n      mstore\n        /* \"templet.sol\":23533:23544  blacklisted */\n      0x05\n        /* \"templet.sol\":23533:23555  blacklisted[recipient] */\n      0x20\n      mstore\n      0x40\n      swap1\n      keccak256\n      sload\n      0xff\n      and\n        /* \"templet.sol\":23532:23555  !blacklisted[recipient] */\n      iszero\n        /* \"templet.sol\":23524:23584  require(!blacklisted[recipient], \"Recipient is blacklisted\") */\n      tag_494\n      jumpi\n      mload(0x40)\n      shl(0xe5, 0x461bcd)\n      dup2\n      mstore\n        /* \"#utility.yul\":12387:12389   */\n      0x20\n        /* \"templet.sol\":23524:23584  require(!blacklisted[recipient], \"Recipient is blacklisted\") */\n      0x04\n      dup3\n      add\n        /* \"#utility.yul\":12369:12390   */\n      mstore\n        /* \"#utility.yul\":12426:12428   */\n      0x18\n        /* \"#utility.yul\":12406:12424   */\n      0x24\n      dup3\n      add\n        /* \"#utility.yul\":12399:12429   */\n      mstore\n        /* \"#utility.yul\":12465:12491   */\n      0x526563697069656e7420697320626c61636b6c69737465640000000000000000\n        /* \"#utility.yul\":12445:12463   */\n      0x44\n      dup3\n      add\n        /* \"#utility.yul\":12438:12492   */\n      mstore\n        /* \"#utility.yul\":12509:12527   */\n      0x64\n      add\n        /* \"templet.sol\":23524:23584  require(!blacklisted[recipient], \"Recipient is blacklisted\") */\n      tag_311\n        /* \"#utility.yul\":12185:12533   */\n      jump\n        /* \"templet.sol\":23524:23584  require(!blacklisted[recipient], \"Recipient is blacklisted\") */\n    tag_494:\n        /* \"templet.sol\":1969:1976  address */\n      0x00\n        /* \"templet.sol\":1996:2002  _owner */\n      sload\n      sub(shl(0xa0, 0x01), 0x01)\n        /* \"templet.sol\":23653:23670  sender == owner() */\n      dup5\n      dup2\n      and\n        /* \"templet.sol\":1996:2002  _owner */\n      swap2\n      and\n        /* \"templet.sol\":23653:23670  sender == owner() */\n      eq\n      dup1\n        /* \"templet.sol\":23653:23694  sender == owner() || recipient == owner() */\n      tag_498\n      jumpi\n      pop\n        /* \"templet.sol\":1969:1976  address */\n      0x00\n        /* \"templet.sol\":1996:2002  _owner */\n      sload\n      sub(shl(0xa0, 0x01), 0x01)\n        /* \"templet.sol\":23674:23694  recipient == owner() */\n      dup4\n      dup2\n      and\n        /* \"templet.sol\":1996:2002  _owner */\n      swap2\n      and\n        /* \"templet.sol\":23674:23694  recipient == owner() */\n      eq\n        /* \"templet.sol\":23653:23694  sender == owner() || recipient == owner() */\n    tag_498:\n        /* \"templet.sol\":23653:23721  sender == owner() || recipient == owner() || sender == address(this) */\n      dup1\n      tag_500\n      jumpi\n      pop\n      sub(shl(0xa0, 0x01), 0x01)\n        /* \"templet.sol\":23698:23721  sender == address(this) */\n      dup4\n      and\n        /* \"templet.sol\":23716:23720  this */\n      address\n        /* \"templet.sol\":23698:23721  sender == address(this) */\n      eq\n        /* \"templet.sol\":23653:23721  sender == owner() || recipient == owner() || sender == address(this) */\n    tag_500:\n        /* \"templet.sol\":23649:23951  if (sender == owner() || recipient == owner() || sender == address(this)) {... */\n      iszero\n      tag_501\n      jumpi\n        /* \"templet.sol\":23741:23759  currentBlockNumber */\n      sload(0x09)\n        /* \"templet.sol\":23741:23764  currentBlockNumber == 0 */\n      iszero\n        /* \"templet.sol\":23741:23793  currentBlockNumber == 0 && recipient == _uniswapPair */\n      dup1\n      iszero\n      tag_502\n      jumpi\n      pop\n        /* \"templet.sol\":23781:23793  _uniswapPair */\n      sload(0x18)\n      sub(shl(0xa0, 0x01), 0x01)\n        /* \"templet.sol\":23768:23793  recipient == _uniswapPair */\n      dup4\n      dup2\n      and\n        /* \"templet.sol\":23781:23793  _uniswapPair */\n      swap2\n      and\n        /* \"templet.sol\":23768:23793  recipient == _uniswapPair */\n      eq\n        /* \"templet.sol\":23741:23793  currentBlockNumber == 0 && recipient == _uniswapPair */\n    tag_502:\n        /* \"templet.sol\":23738:23862  if(currentBlockNumber == 0 && recipient == _uniswapPair){... */\n      iszero\n      tag_503\n      jumpi\n        /* \"templet.sol\":23834:23846  block.number */\n      number\n        /* \"templet.sol\":23813:23831  currentBlockNumber */\n      0x09\n        /* \"templet.sol\":23813:23846  currentBlockNumber = block.number */\n      sstore\n        /* \"templet.sol\":23738:23862  if(currentBlockNumber == 0 && recipient == _uniswapPair){... */\n    tag_503:\n        /* \"templet.sol\":23876:23918  _transferTokens(sender, recipient, amount) */\n      tag_504\n        /* \"templet.sol\":23892:23898  sender */\n      dup4\n        /* \"templet.sol\":23900:23909  recipient */\n      dup4\n        /* \"templet.sol\":23911:23917  amount */\n      dup4\n        /* \"templet.sol\":23876:23891  _transferTokens */\n      tag_416\n        /* \"templet.sol\":23876:23918  _transferTokens(sender, recipient, amount) */\n      jump\t// in\n    tag_504:\n        /* \"templet.sol\":23128:26811  function _transfer(address sender, address recipient, uint256 amount) internal {... */\n      pop\n      pop\n      pop\n      jump\t// out\n        /* \"templet.sol\":23649:23951  if (sender == owner() || recipient == owner() || sender == address(this)) {... */\n    tag_501:\n        /* \"templet.sol\":24014:24024  trade_open */\n      and(0xff, sload(0x08))\n        /* \"templet.sol\":24006:24048  require(trade_open, \"Trading is disabled\") */\n      tag_505\n      jumpi\n      mload(0x40)\n      shl(0xe5, 0x461bcd)\n      dup2\n      mstore\n        /* \"#utility.yul\":12740:12742   */\n      0x20\n        /* \"templet.sol\":24006:24048  require(trade_open, \"Trading is disabled\") */\n      0x04\n      dup3\n      add\n        /* \"#utility.yul\":12722:12743   */\n      mstore\n        /* \"#utility.yul\":12779:12781   */\n      0x13\n        /* \"#utility.yul\":12759:12777   */\n      0x24\n      dup3\n      add\n        /* \"#utility.yul\":12752:12782   */\n      mstore\n      shl(0x6a, 0x151c98591a5b99c81a5cc8191a5cd8589b1959)\n        /* \"#utility.yul\":12798:12816   */\n      0x44\n      dup3\n      add\n        /* \"#utility.yul\":12791:12840   */\n      mstore\n        /* \"#utility.yul\":12857:12875   */\n      0x64\n      add\n        /* \"templet.sol\":24006:24048  require(trade_open, \"Trading is disabled\") */\n      tag_311\n        /* \"#utility.yul\":12538:12881   */\n      jump\n        /* \"templet.sol\":24006:24048  require(trade_open, \"Trading is disabled\") */\n    tag_505:\n        /* \"templet.sol\":24102:24123  numBlocksForBlacklist */\n      sload(0x0a)\n        /* \"templet.sol\":24081:24099  currentBlockNumber */\n      sload(0x09)\n        /* \"templet.sol\":24081:24123  currentBlockNumber + numBlocksForBlacklist */\n      tag_508\n      swap2\n      swap1\n      tag_343\n      jump\t// in\n    tag_508:\n        /* \"templet.sol\":24065:24077  block.number */\n      number\n        /* \"templet.sol\":24065:24123  block.number <= currentBlockNumber + numBlocksForBlacklist */\n      gt\n        /* \"templet.sol\":24062:24201  if(block.number <= currentBlockNumber + numBlocksForBlacklist){... */\n      tag_509\n      jumpi\n      pop\n      sub(shl(0xa0, 0x01), 0x01)\n        /* \"templet.sol\":24139:24161  blacklisted[recipient] */\n      and\n      0x00\n      swap1\n      dup2\n      mstore\n        /* \"templet.sol\":24139:24150  blacklisted */\n      0x05\n        /* \"templet.sol\":24139:24161  blacklisted[recipient] */\n      0x20\n      mstore\n      0x40\n      swap1\n      keccak256\n        /* \"templet.sol\":24139:24168  blacklisted[recipient] = true */\n      dup1\n      sload\n      not(0xff)\n      and\n        /* \"templet.sol\":24164:24168  true */\n      0x01\n        /* \"templet.sol\":24139:24168  blacklisted[recipient] = true */\n      or\n      swap1\n      sstore\n      pop\n        /* \"templet.sol\":23128:26811  function _transfer(address sender, address recipient, uint256 amount) internal {... */\n      jump\t// out\n        /* \"templet.sol\":24062:24201  if(block.number <= currentBlockNumber + numBlocksForBlacklist){... */\n    tag_509:\n        /* \"templet.sol\":24237:24249  _uniswapPair */\n      sload(0x18)\n      sub(shl(0xa0, 0x01), 0x01)\n        /* \"templet.sol\":24227:24249  sender == _uniswapPair */\n      dup5\n      dup2\n      and\n        /* \"templet.sol\":24237:24249  _uniswapPair */\n      swap2\n      dup2\n      and\n        /* \"templet.sol\":24227:24249  sender == _uniswapPair */\n      swap2\n      dup3\n      eq\n      swap2\n        /* \"templet.sol\":24274:24299  recipient == _uniswapPair */\n      swap1\n      dup5\n      and\n      eq\n        /* \"templet.sol\":24214:24224  bool isBuy */\n      0x00\n      dup1\n      dup1\n      dup1\n      dup1\n        /* \"templet.sol\":24458:24482  balanceOf(address(this)) */\n      tag_510\n        /* \"templet.sol\":24476:24480  this */\n      address\n      sub(shl(0xa0, 0x01), 0x01)\n        /* \"templet.sol\":12681:12699  _balances[account] */\n      and\n        /* \"templet.sol\":12654:12661  uint256 */\n      0x00\n        /* \"templet.sol\":12681:12699  _balances[account] */\n      swap1\n      dup2\n      mstore\n        /* \"templet.sol\":12681:12690  _balances */\n      0x03\n        /* \"templet.sol\":12681:12699  _balances[account] */\n      0x20\n      mstore\n      0x40\n      swap1\n      keccak256\n      sload\n      swap1\n        /* \"templet.sol\":12572:12707  function balanceOf(... */\n      jump\n        /* \"templet.sol\":24458:24482  balanceOf(address(this)) */\n    tag_510:\n        /* \"templet.sol\":24528:24541  _taxThreshold */\n      sload(0x16)\n        /* \"templet.sol\":24494:24501  canSwap */\n      0x18\n        /* \"templet.sol\":24494:24541  canSwap = contractTokenBalance >= _taxThreshold */\n      dup1\n      sload\n      shl(0xb0, 0x01)\n        /* \"templet.sol\":24504:24541  contractTokenBalance >= _taxThreshold */\n      swap3\n      dup5\n      lt\n      iszero\n        /* \"templet.sol\":24494:24541  canSwap = contractTokenBalance >= _taxThreshold */\n      dup4\n      mul\n      not(shl(0xb0, 0xff))\n      swap1\n      swap2\n      and\n      or\n      swap1\n      dup2\n      swap1\n      sstore\n        /* \"templet.sol\":24427:24482  uint256 contractTokenBalance = balanceOf(address(this)) */\n      swap2\n      swap3\n      pop\n        /* \"templet.sol\":24573:24580  canSwap */\n      swap1\n      div\n        /* \"templet.sol\":24494:24541  canSwap = contractTokenBalance >= _taxThreshold */\n      0xff\n        /* \"templet.sol\":24573:24580  canSwap */\n      and\n        /* \"templet.sol\":24573:24608  canSwap &&... */\n      dup1\n      iszero\n      tag_511\n      jumpi\n      pop\n        /* \"templet.sol\":24597:24608  swapEnabled */\n      sload(0x18)\n      shl(0xa8, 0x01)\n      swap1\n      div\n      0xff\n      and\n        /* \"templet.sol\":24573:24608  canSwap &&... */\n    tag_511:\n        /* \"templet.sol\":24573:24634  canSwap &&... */\n      dup1\n      iszero\n      tag_512\n      jumpi\n      pop\n        /* \"templet.sol\":24626:24634  swapping */\n      sload(0x18)\n      shl(0xa0, 0x01)\n      swap1\n      div\n      0xff\n      and\n        /* \"templet.sol\":24625:24634  !swapping */\n      iszero\n        /* \"templet.sol\":24573:24634  canSwap &&... */\n    tag_512:\n        /* \"templet.sol\":24573:24685  canSwap &&... */\n      dup1\n      iszero\n      tag_513\n      jumpi\n      pop\n      sub(shl(0xa0, 0x01), 0x01)\n        /* \"templet.sol\":24652:24685  automatedMarketMakerPairs[sender] */\n      dup11\n      and\n      0x00\n      swap1\n      dup2\n      mstore\n        /* \"templet.sol\":24652:24677  automatedMarketMakerPairs */\n      0x06\n        /* \"templet.sol\":24652:24685  automatedMarketMakerPairs[sender] */\n      0x20\n      mstore\n      0x40\n      swap1\n      keccak256\n      sload\n      0xff\n      and\n        /* \"templet.sol\":24651:24685  !automatedMarketMakerPairs[sender] */\n      iszero\n        /* \"templet.sol\":24573:24685  canSwap &&... */\n    tag_513:\n        /* \"templet.sol\":24573:24729  canSwap &&... */\n      dup1\n      iszero\n      tag_514\n      jumpi\n      pop\n      sub(shl(0xa0, 0x01), 0x01)\n        /* \"templet.sol\":24703:24729  _isExcludedFromFee[sender] */\n      dup11\n      and\n      0x00\n      swap1\n      dup2\n      mstore\n        /* \"templet.sol\":24703:24721  _isExcludedFromFee */\n      0x07\n        /* \"templet.sol\":24703:24729  _isExcludedFromFee[sender] */\n      0x20\n      mstore\n      0x40\n      swap1\n      keccak256\n      sload\n      0xff\n      and\n        /* \"templet.sol\":24702:24729  !_isExcludedFromFee[sender] */\n      iszero\n        /* \"templet.sol\":24573:24729  canSwap &&... */\n    tag_514:\n        /* \"templet.sol\":24573:24776  canSwap &&... */\n      dup1\n      iszero\n      tag_515\n      jumpi\n      pop\n      sub(shl(0xa0, 0x01), 0x01)\n        /* \"templet.sol\":24747:24776  _isExcludedFromFee[recipient] */\n      dup10\n      and\n      0x00\n      swap1\n      dup2\n      mstore\n        /* \"templet.sol\":24747:24765  _isExcludedFromFee */\n      0x07\n        /* \"templet.sol\":24747:24776  _isExcludedFromFee[recipient] */\n      0x20\n      mstore\n      0x40\n      swap1\n      keccak256\n      sload\n      0xff\n      and\n        /* \"templet.sol\":24746:24776  !_isExcludedFromFee[recipient] */\n      iszero\n        /* \"templet.sol\":24573:24776  canSwap &&... */\n    tag_515:\n        /* \"templet.sol\":24555:24895  if (... */\n      iszero\n      tag_516\n      jumpi\n        /* \"templet.sol\":24803:24811  swapping */\n      0x18\n        /* \"templet.sol\":24803:24818  swapping = true */\n      dup1\n      sload\n      not(shl(0xa0, 0xff))\n      and\n      shl(0xa0, 0x01)\n      or\n      swap1\n      sstore\n        /* \"templet.sol\":24833:24849  swapAndLiquify() */\n      tag_517\n        /* \"templet.sol\":24833:24847  swapAndLiquify */\n      tag_518\n        /* \"templet.sol\":24833:24849  swapAndLiquify() */\n      jump\t// in\n    tag_517:\n        /* \"templet.sol\":24864:24872  swapping */\n      0x18\n        /* \"templet.sol\":24864:24880  swapping = false */\n      dup1\n      sload\n      not(shl(0xa0, 0xff))\n      and\n      swap1\n      sstore\n        /* \"templet.sol\":24555:24895  if (... */\n    tag_516:\n        /* \"templet.sol\":25002:25010  swapping */\n      sload(0x18)\n      sub(shl(0xa0, 0x01), 0x01)\n        /* \"templet.sol\":25028:25054  _isExcludedFromFee[sender] */\n      dup12\n      and\n        /* \"templet.sol\":24986:24998  bool takeFee */\n      0x00\n        /* \"templet.sol\":25028:25054  _isExcludedFromFee[sender] */\n      swap1\n      dup2\n      mstore\n        /* \"templet.sol\":25028:25046  _isExcludedFromFee */\n      0x07\n        /* \"templet.sol\":25028:25054  _isExcludedFromFee[sender] */\n      0x20\n      mstore\n      0x40\n      swap1\n      keccak256\n      sload\n        /* \"templet.sol\":25002:25010  swapping */\n      0xff\n      shl(0xa0, 0x01)\n      swap1\n      swap3\n      div\n      dup3\n      and\n        /* \"templet.sol\":25001:25010  !swapping */\n      iszero\n      swap2\n        /* \"templet.sol\":25028:25054  _isExcludedFromFee[sender] */\n      and\n      dup1\n        /* \"templet.sol\":25028:25087  _isExcludedFromFee[sender] || _isExcludedFromFee[recipient] */\n      tag_519\n      jumpi\n      pop\n      sub(shl(0xa0, 0x01), 0x01)\n        /* \"templet.sol\":25058:25087  _isExcludedFromFee[recipient] */\n      dup11\n      and\n      0x00\n      swap1\n      dup2\n      mstore\n        /* \"templet.sol\":25058:25076  _isExcludedFromFee */\n      0x07\n        /* \"templet.sol\":25058:25087  _isExcludedFromFee[recipient] */\n      0x20\n      mstore\n      0x40\n      swap1\n      keccak256\n      sload\n      0xff\n      and\n        /* \"templet.sol\":25028:25087  _isExcludedFromFee[sender] || _isExcludedFromFee[recipient] */\n    tag_519:\n        /* \"templet.sol\":25024:25131  if (_isExcludedFromFee[sender] || _isExcludedFromFee[recipient]) {... */\n      iszero\n      tag_520\n      jumpi\n      pop\n        /* \"templet.sol\":25114:25119  false */\n      0x00\n        /* \"templet.sol\":25024:25131  if (_isExcludedFromFee[sender] || _isExcludedFromFee[recipient]) {... */\n    tag_520:\n        /* \"templet.sol\":25144:25156  uint256 fees */\n      0x00\n        /* \"templet.sol\":25178:25185  takeFee */\n      dup2\n        /* \"templet.sol\":25174:26748  if (takeFee) {... */\n      iszero\n      tag_521\n      jumpi\n      sub(shl(0xa0, 0x01), 0x01)\n        /* \"templet.sol\":25206:25239  automatedMarketMakerPairs[sender] */\n      dup13\n      and\n      0x00\n      swap1\n      dup2\n      mstore\n        /* \"templet.sol\":25206:25231  automatedMarketMakerPairs */\n      0x06\n        /* \"templet.sol\":25206:25239  automatedMarketMakerPairs[sender] */\n      0x20\n      mstore\n      0x40\n      swap1\n      keccak256\n      sload\n      0xff\n      and\n        /* \"templet.sol\":25206:25248  automatedMarketMakerPairs[sender] && isBuy */\n      dup1\n      iszero\n      tag_522\n      jumpi\n      pop\n        /* \"templet.sol\":25243:25248  isBuy */\n      dup9\n        /* \"templet.sol\":25206:25248  automatedMarketMakerPairs[sender] && isBuy */\n    tag_522:\n        /* \"templet.sol\":25202:26708  if (automatedMarketMakerPairs[sender] && isBuy) {... */\n      iszero\n      tag_523\n      jumpi\n      sub(shl(0xa0, 0x01), 0x01)\n        /* \"templet.sol\":25274:25303  _isExcludedFromFee[recipient] */\n      dup12\n      and\n      0x00\n      swap1\n      dup2\n      mstore\n        /* \"templet.sol\":25274:25292  _isExcludedFromFee */\n      0x07\n        /* \"templet.sol\":25274:25303  _isExcludedFromFee[recipient] */\n      0x20\n      mstore\n      0x40\n      swap1\n      keccak256\n      sload\n      0xff\n      and\n        /* \"templet.sol\":25269:25870  if (!_isExcludedFromFee[recipient]){... */\n      tag_534\n      jumpi\n        /* \"templet.sol\":25346:25355  maxAmount */\n      sload(0x02)\n        /* \"templet.sol\":25336:25342  amount */\n      dup11\n        /* \"templet.sol\":25336:25355  amount <= maxAmount */\n      gt\n      iszero\n        /* \"templet.sol\":25327:25390  require (amount <= maxAmount, \"Cannot buy more than max limit\") */\n      tag_525\n      jumpi\n      mload(0x40)\n      shl(0xe5, 0x461bcd)\n      dup2\n      mstore\n        /* \"#utility.yul\":13088:13090   */\n      0x20\n        /* \"templet.sol\":25327:25390  require (amount <= maxAmount, \"Cannot buy more than max limit\") */\n      0x04\n      dup3\n      add\n        /* \"#utility.yul\":13070:13091   */\n      mstore\n        /* \"#utility.yul\":13127:13129   */\n      0x1e\n        /* \"#utility.yul\":13107:13125   */\n      0x24\n      dup3\n      add\n        /* \"#utility.yul\":13100:13130   */\n      mstore\n        /* \"#utility.yul\":13166:13198   */\n      0x43616e6e6f7420627579206d6f7265207468616e206d6178206c696d69740000\n        /* \"#utility.yul\":13146:13164   */\n      0x44\n      dup3\n      add\n        /* \"#utility.yul\":13139:13199   */\n      mstore\n        /* \"#utility.yul\":13216:13234   */\n      0x64\n      add\n        /* \"templet.sol\":25327:25390  require (amount <= maxAmount, \"Cannot buy more than max limit\") */\n      tag_311\n        /* \"#utility.yul\":12886:13240   */\n      jump\n        /* \"templet.sol\":25327:25390  require (amount <= maxAmount, \"Cannot buy more than max limit\") */\n    tag_525:\n        /* \"templet.sol\":25422:25462  _calculateTax(amount, _buyTaxPercentage) */\n      tag_528\n        /* \"templet.sol\":25436:25442  amount */\n      dup11\n        /* \"templet.sol\":25444:25461  _buyTaxPercentage */\n      sload(0x0d)\n        /* \"templet.sol\":25422:25435  _calculateTax */\n      tag_529\n        /* \"templet.sol\":25422:25462  _calculateTax(amount, _buyTaxPercentage) */\n      jump\t// in\n    tag_528:\n        /* \"templet.sol\":25413:25462  buyTax = _calculateTax(amount, _buyTaxPercentage) */\n      swap5\n      pop\n        /* \"templet.sol\":25500:25546  _calculateTax(amount, _liquidityTaxPercentage) */\n      tag_530\n        /* \"templet.sol\":25514:25520  amount */\n      dup11\n        /* \"templet.sol\":25522:25545  _liquidityTaxPercentage */\n      sload(0x0f)\n        /* \"templet.sol\":25500:25513  _calculateTax */\n      tag_529\n        /* \"templet.sol\":25500:25546  _calculateTax(amount, _liquidityTaxPercentage) */\n      jump\t// in\n    tag_530:\n        /* \"templet.sol\":25485:25546  liquidityTax = _calculateTax(amount, _liquidityTaxPercentage) */\n      swap7\n      pop\n        /* \"templet.sol\":25579:25620  _calculateTax(amount, _burnTaxPercentage) */\n      tag_531\n        /* \"templet.sol\":25593:25599  amount */\n      dup11\n        /* \"templet.sol\":25601:25619  _burnTaxPercentage */\n      sload(0x10)\n        /* \"templet.sol\":25579:25592  _calculateTax */\n      tag_529\n        /* \"templet.sol\":25579:25620  _calculateTax(amount, _burnTaxPercentage) */\n      jump\t// in\n    tag_531:\n        /* \"templet.sol\":25569:25620  burnTax = _calculateTax(amount, _burnTaxPercentage) */\n      swap6\n      pop\n        /* \"templet.sol\":25643:25695  _transferTokens(sender, address(this), liquidityTax) */\n      tag_532\n        /* \"templet.sol\":25659:25665  sender */\n      dup13\n        /* \"templet.sol\":25675:25679  this */\n      address\n        /* \"templet.sol\":25682:25694  liquidityTax */\n      dup10\n        /* \"templet.sol\":25643:25658  _transferTokens */\n      tag_416\n        /* \"templet.sol\":25643:25695  _transferTokens(sender, address(this), liquidityTax) */\n      jump\t// in\n    tag_532:\n        /* \"templet.sol\":25746:25792  _transferTokens(sender, address(this), buyTax) */\n      tag_533\n        /* \"templet.sol\":25762:25768  sender */\n      dup13\n        /* \"templet.sol\":25778:25782  this */\n      address\n        /* \"templet.sol\":25785:25791  buyTax */\n      dup8\n        /* \"templet.sol\":25746:25761  _transferTokens */\n      tag_416\n        /* \"templet.sol\":25746:25792  _transferTokens(sender, address(this), buyTax) */\n      jump\t// in\n    tag_533:\n        /* \"templet.sol\":25816:25850  _burnTokens(sender, DEAD, burnTax) */\n      tag_534\n        /* \"templet.sol\":25828:25834  sender */\n      dup13\n        /* \"templet.sol\":9714:9756  0x000000000000000000000000000000000000dEaD */\n      0xdead\n        /* \"templet.sol\":25842:25849  burnTax */\n      dup9\n        /* \"templet.sol\":25816:25827  _burnTokens */\n      tag_535\n        /* \"templet.sol\":25816:25850  _burnTokens(sender, DEAD, burnTax) */\n      jump\t// in\n    tag_534:\n        /* \"templet.sol\":25916:25923  burnTax */\n      dup6\n        /* \"templet.sol\":25894:25915  buyTax + liquidityTax */\n      tag_536\n        /* \"templet.sol\":25903:25915  liquidityTax */\n      dup9\n        /* \"templet.sol\":25894:25900  buyTax */\n      dup8\n        /* \"templet.sol\":25894:25915  buyTax + liquidityTax */\n      tag_343\n      jump\t// in\n    tag_536:\n        /* \"templet.sol\":25894:25923  buyTax + liquidityTax+burnTax */\n      tag_537\n      swap2\n      swap1\n      tag_343\n      jump\t// in\n    tag_537:\n        /* \"templet.sol\":25888:25923  fees =buyTax + liquidityTax+burnTax */\n      swap1\n      pop\n        /* \"templet.sol\":25202:26708  if (automatedMarketMakerPairs[sender] && isBuy) {... */\n      jump(tag_540)\n    tag_523:\n      sub(shl(0xa0, 0x01), 0x01)\n        /* \"templet.sol\":25966:26002  automatedMarketMakerPairs[recipient] */\n      dup12\n      and\n      0x00\n      swap1\n      dup2\n      mstore\n        /* \"templet.sol\":25966:25991  automatedMarketMakerPairs */\n      0x06\n        /* \"templet.sol\":25966:26002  automatedMarketMakerPairs[recipient] */\n      0x20\n      mstore\n      0x40\n      swap1\n      keccak256\n      sload\n      0xff\n      and\n        /* \"templet.sol\":25966:26012  automatedMarketMakerPairs[recipient] && isSell */\n      dup1\n      iszero\n      tag_539\n      jumpi\n      pop\n        /* \"templet.sol\":26006:26012  isSell */\n      dup8\n        /* \"templet.sol\":25966:26012  automatedMarketMakerPairs[recipient] && isSell */\n    tag_539:\n        /* \"templet.sol\":25962:26708  if (automatedMarketMakerPairs[recipient] && isSell) {... */\n      iszero\n      tag_540\n      jumpi\n      sub(shl(0xa0, 0x01), 0x01)\n        /* \"templet.sol\":26038:26064  _isExcludedFromFee[sender] */\n      dup13\n      and\n      0x00\n      swap1\n      dup2\n      mstore\n        /* \"templet.sol\":26038:26056  _isExcludedFromFee */\n      0x07\n        /* \"templet.sol\":26038:26064  _isExcludedFromFee[sender] */\n      0x20\n      mstore\n      0x40\n      swap1\n      keccak256\n      sload\n      0xff\n      and\n        /* \"templet.sol\":26033:26636  if (!_isExcludedFromFee[sender]){... */\n      tag_550\n      jumpi\n        /* \"templet.sol\":26107:26116  maxAmount */\n      sload(0x02)\n        /* \"templet.sol\":26097:26103  amount */\n      dup11\n        /* \"templet.sol\":26097:26116  amount <= maxAmount */\n      gt\n      iszero\n        /* \"templet.sol\":26088:26152  require (amount <= maxAmount, \"Cannot sell more than max limit\") */\n      tag_542\n      jumpi\n      mload(0x40)\n      shl(0xe5, 0x461bcd)\n      dup2\n      mstore\n        /* \"#utility.yul\":13447:13449   */\n      0x20\n        /* \"templet.sol\":26088:26152  require (amount <= maxAmount, \"Cannot sell more than max limit\") */\n      0x04\n      dup3\n      add\n        /* \"#utility.yul\":13429:13450   */\n      mstore\n        /* \"#utility.yul\":13486:13488   */\n      0x1f\n        /* \"#utility.yul\":13466:13484   */\n      0x24\n      dup3\n      add\n        /* \"#utility.yul\":13459:13489   */\n      mstore\n        /* \"#utility.yul\":13525:13558   */\n      0x43616e6e6f742073656c6c206d6f7265207468616e206d6178206c696d697400\n        /* \"#utility.yul\":13505:13523   */\n      0x44\n      dup3\n      add\n        /* \"#utility.yul\":13498:13559   */\n      mstore\n        /* \"#utility.yul\":13576:13594   */\n      0x64\n      add\n        /* \"templet.sol\":26088:26152  require (amount <= maxAmount, \"Cannot sell more than max limit\") */\n      tag_311\n        /* \"#utility.yul\":13245:13600   */\n      jump\n        /* \"templet.sol\":26088:26152  require (amount <= maxAmount, \"Cannot sell more than max limit\") */\n    tag_542:\n        /* \"templet.sol\":26185:26226  _calculateTax(amount, _sellTaxPercentage) */\n      tag_545\n        /* \"templet.sol\":26199:26205  amount */\n      dup11\n        /* \"templet.sol\":26207:26225  _sellTaxPercentage */\n      sload(0x0e)\n        /* \"templet.sol\":26185:26198  _calculateTax */\n      tag_529\n        /* \"templet.sol\":26185:26226  _calculateTax(amount, _sellTaxPercentage) */\n      jump\t// in\n    tag_545:\n        /* \"templet.sol\":26175:26226  sellTax = _calculateTax(amount, _sellTaxPercentage) */\n      swap4\n      pop\n        /* \"templet.sol\":26264:26310  _calculateTax(amount, _liquidityTaxPercentage) */\n      tag_546\n        /* \"templet.sol\":26278:26284  amount */\n      dup11\n        /* \"templet.sol\":26286:26309  _liquidityTaxPercentage */\n      sload(0x0f)\n        /* \"templet.sol\":26264:26277  _calculateTax */\n      tag_529\n        /* \"templet.sol\":26264:26310  _calculateTax(amount, _liquidityTaxPercentage) */\n      jump\t// in\n    tag_546:\n        /* \"templet.sol\":26249:26310  liquidityTax = _calculateTax(amount, _liquidityTaxPercentage) */\n      swap7\n      pop\n        /* \"templet.sol\":26343:26384  _calculateTax(amount, _burnTaxPercentage) */\n      tag_547\n        /* \"templet.sol\":26357:26363  amount */\n      dup11\n        /* \"templet.sol\":26365:26383  _burnTaxPercentage */\n      sload(0x10)\n        /* \"templet.sol\":26343:26356  _calculateTax */\n      tag_529\n        /* \"templet.sol\":26343:26384  _calculateTax(amount, _burnTaxPercentage) */\n      jump\t// in\n    tag_547:\n        /* \"templet.sol\":26333:26384  burnTax = _calculateTax(amount, _burnTaxPercentage) */\n      swap6\n      pop\n        /* \"templet.sol\":26407:26454  _transferTokens(sender, address(this), sellTax) */\n      tag_548\n        /* \"templet.sol\":26423:26429  sender */\n      dup13\n        /* \"templet.sol\":26439:26443  this */\n      address\n        /* \"templet.sol\":26446:26453  sellTax */\n      dup7\n        /* \"templet.sol\":26407:26422  _transferTokens */\n      tag_416\n        /* \"templet.sol\":26407:26454  _transferTokens(sender, address(this), sellTax) */\n      jump\t// in\n    tag_548:\n        /* \"templet.sol\":26479:26531  _transferTokens(sender, address(this), liquidityTax) */\n      tag_549\n        /* \"templet.sol\":26495:26501  sender */\n      dup13\n        /* \"templet.sol\":26511:26515  this */\n      address\n        /* \"templet.sol\":26518:26530  liquidityTax */\n      dup10\n        /* \"templet.sol\":26479:26494  _transferTokens */\n      tag_416\n        /* \"templet.sol\":26479:26531  _transferTokens(sender, address(this), liquidityTax) */\n      jump\t// in\n    tag_549:\n        /* \"templet.sol\":26582:26616  _burnTokens(sender, DEAD, burnTax) */\n      tag_550\n        /* \"templet.sol\":26594:26600  sender */\n      dup13\n        /* \"templet.sol\":9714:9756  0x000000000000000000000000000000000000dEaD */\n      0xdead\n        /* \"templet.sol\":26608:26615  burnTax */\n      dup9\n        /* \"templet.sol\":26582:26593  _burnTokens */\n      tag_535\n        /* \"templet.sol\":26582:26616  _burnTokens(sender, DEAD, burnTax) */\n      jump\t// in\n    tag_550:\n        /* \"templet.sol\":26685:26692  burnTax */\n      dup6\n        /* \"templet.sol\":26661:26682  sellTax+ liquidityTax */\n      tag_551\n        /* \"templet.sol\":26670:26682  liquidityTax */\n      dup9\n        /* \"templet.sol\":26661:26668  sellTax */\n      dup7\n        /* \"templet.sol\":26661:26682  sellTax+ liquidityTax */\n      tag_343\n      jump\t// in\n    tag_551:\n        /* \"templet.sol\":26661:26692  sellTax+ liquidityTax + burnTax */\n      tag_552\n      swap2\n      swap1\n      tag_343\n      jump\t// in\n    tag_552:\n        /* \"templet.sol\":26654:26692  fees = sellTax+ liquidityTax + burnTax */\n      swap1\n      pop\n        /* \"templet.sol\":25962:26708  if (automatedMarketMakerPairs[recipient] && isSell) {... */\n    tag_540:\n        /* \"templet.sol\":26722:26736  amount -= fees */\n      tag_553\n        /* \"templet.sol\":26732:26736  fees */\n      dup2\n        /* \"templet.sol\":26722:26736  amount -= fees */\n      dup12\n      tag_554\n      jump\t// in\n    tag_553:\n      swap10\n      pop\n        /* \"templet.sol\":25174:26748  if (takeFee) {... */\n    tag_521:\n        /* \"templet.sol\":26758:26800  _transferTokens(sender, recipient, amount) */\n      tag_555\n        /* \"templet.sol\":26774:26780  sender */\n      dup13\n        /* \"templet.sol\":26782:26791  recipient */\n      dup13\n        /* \"templet.sol\":26793:26799  amount */\n      dup13\n        /* \"templet.sol\":26758:26773  _transferTokens */\n      tag_416\n        /* \"templet.sol\":26758:26800  _transferTokens(sender, recipient, amount) */\n      jump\t// in\n    tag_555:\n        /* \"templet.sol\":23207:26811  {... */\n      pop\n      pop\n      pop\n      pop\n      pop\n      pop\n      pop\n      pop\n      pop\n        /* \"templet.sol\":23128:26811  function _transfer(address sender, address recipient, uint256 amount) internal {... */\n      pop\n      pop\n      pop\n      jump\t// out\n        /* \"templet.sol\":3231:3422  function _transferOwnership(address newOwner) internal virtual {... */\n    tag_358:\n        /* \"templet.sol\":3305:3321  address oldOwner */\n      0x00\n        /* \"templet.sol\":3324:3330  _owner */\n      dup1\n      sload\n      sub(shl(0xa0, 0x01), 0x01)\n        /* \"templet.sol\":3341:3358  _owner = newOwner */\n      dup4\n      dup2\n      and\n      not(sub(shl(0xa0, 0x01), 0x01))\n      dup4\n      and\n      dup2\n      or\n      dup5\n      sstore\n        /* \"templet.sol\":3374:3414  OwnershipTransferred(oldOwner, newOwner) */\n      mload(0x40)\n        /* \"templet.sol\":3324:3330  _owner */\n      swap2\n      swap1\n      swap3\n      and\n      swap3\n      dup4\n      swap2\n        /* \"templet.sol\":3374:3414  OwnershipTransferred(oldOwner, newOwner) */\n      0x8be0079c531659141344cd1fd0a4f28419497f9722a3daafe3b4186f6b6457e0\n      swap2\n        /* \"templet.sol\":3305:3321  address oldOwner */\n      swap1\n        /* \"templet.sol\":3374:3414  OwnershipTransferred(oldOwner, newOwner) */\n      log3\n        /* \"templet.sol\":3294:3422  {... */\n      pop\n        /* \"templet.sol\":3231:3422  function _transferOwnership(address newOwner) internal virtual {... */\n      pop\n      jump\t// out\n        /* \"templet.sol\":14993:15620  function _transferTokens(... */\n    tag_416:\n      sub(shl(0xa0, 0x01), 0x01)\n        /* \"templet.sol\":15144:15159  _balances[from] */\n      dup4\n      and\n        /* \"templet.sol\":15122:15141  uint256 fromBalance */\n      0x00\n        /* \"templet.sol\":15144:15159  _balances[from] */\n      swap1\n      dup2\n      mstore\n        /* \"templet.sol\":15144:15153  _balances */\n      0x03\n        /* \"templet.sol\":15144:15159  _balances[from] */\n      0x20\n      mstore\n      0x40\n      swap1\n      keccak256\n      sload\n        /* \"templet.sol\":15192:15213  fromBalance >= amount */\n      dup2\n      dup2\n      lt\n      iszero\n        /* \"templet.sol\":15170:15279  require(... */\n      tag_559\n      jumpi\n      mload(0x40)\n      shl(0xe5, 0x461bcd)\n      dup2\n      mstore\n        /* \"#utility.yul\":13940:13942   */\n      0x20\n        /* \"templet.sol\":15170:15279  require(... */\n      0x04\n      dup3\n      add\n        /* \"#utility.yul\":13922:13943   */\n      mstore\n        /* \"#utility.yul\":13979:13981   */\n      0x26\n        /* \"#utility.yul\":13959:13977   */\n      0x24\n      dup3\n      add\n        /* \"#utility.yul\":13952:13982   */\n      mstore\n        /* \"#utility.yul\":14018:14052   */\n      0x45524332303a207472616e7366657220616d6f756e7420657863656564732062\n        /* \"#utility.yul\":13998:14016   */\n      0x44\n      dup3\n      add\n        /* \"#utility.yul\":13991:14053   */\n      mstore\n      shl(0xd0, 0x616c616e6365)\n        /* \"#utility.yul\":14069:14087   */\n      0x64\n      dup3\n      add\n        /* \"#utility.yul\":14062:14098   */\n      mstore\n        /* \"#utility.yul\":14115:14134   */\n      0x84\n      add\n        /* \"templet.sol\":15170:15279  require(... */\n      tag_311\n        /* \"#utility.yul\":13738:14140   */\n      jump\n        /* \"templet.sol\":15170:15279  require(... */\n    tag_559:\n      sub(shl(0xa0, 0x01), 0x01)\n        /* \"templet.sol\":15315:15330  _balances[from] */\n      dup1\n      dup6\n      and\n      0x00\n      dup2\n      dup2\n      mstore\n        /* \"templet.sol\":15315:15324  _balances */\n      0x03\n        /* \"templet.sol\":15315:15330  _balances[from] */\n      0x20\n      mstore\n      0x40\n      dup1\n      dup3\n      keccak256\n        /* \"templet.sol\":15333:15353  fromBalance - amount */\n      dup7\n      dup7\n      sub\n        /* \"templet.sol\":15315:15353  _balances[from] = fromBalance - amount */\n      swap1\n      sstore\n        /* \"templet.sol\":15533:15546  _balances[to] */\n      swap3\n      dup7\n      and\n      dup1\n      dup3\n      mstore\n      swap1\n      dup4\n      swap1\n      keccak256\n        /* \"templet.sol\":15533:15556  _balances[to] += amount */\n      dup1\n      sload\n      dup7\n      add\n      swap1\n      sstore\n        /* \"templet.sol\":15586:15612  Transfer(from, to, amount) */\n      swap2\n      mload\n      0xddf252ad1be2c89b69c2b068fc378daa952ba7f163c4a11628f55a4df523b3ef\n      swap1\n      tag_562\n      swap1\n        /* \"templet.sol\":15347:15353  amount */\n      dup7\n        /* \"#utility.yul\":1988:2013   */\n      dup2\n      mstore\n        /* \"#utility.yul\":1976:1978   */\n      0x20\n        /* \"#utility.yul\":1961:1979   */\n      add\n      swap1\n        /* \"#utility.yul\":1842:2019   */\n      jump\n        /* \"templet.sol\":15586:15612  Transfer(from, to, amount) */\n    tag_562:\n      mload(0x40)\n      dup1\n      swap2\n      sub\n      swap1\n      log3\n        /* \"templet.sol\":15111:15620  {... */\n      pop\n        /* \"templet.sol\":14993:15620  function _transferTokens(... */\n      pop\n      pop\n      pop\n      jump\t// out\n        /* \"templet.sol\":21093:22579  function swapAndLiquify() internal {... */\n    tag_518:\n        /* \"templet.sol\":21191:21195  this */\n      address\n        /* \"templet.sol\":21142:21170  uint256 contractTokenBalance */\n      0x00\n        /* \"templet.sol\":12681:12699  _balances[account] */\n      swap1\n      dup2\n      mstore\n        /* \"templet.sol\":12681:12690  _balances */\n      0x03\n        /* \"templet.sol\":12681:12699  _balances[account] */\n      0x20\n      mstore\n      0x40\n      swap1\n      keccak256\n      sload\n        /* \"templet.sol\":21239:21252  _taxThreshold */\n      sload(0x16)\n        /* \"templet.sol\":21215:21252  contractTokenBalance >= _taxThreshold */\n      dup2\n      lt\n        /* \"templet.sol\":21211:22572  if (contractTokenBalance >= _taxThreshold) {... */\n      tag_424\n      jumpi\n        /* \"templet.sol\":21269:21284  uint256 liqHalf */\n      0x00\n        /* \"templet.sol\":21334:21344  100000 * 2 */\n      0x030d40\n        /* \"templet.sol\":21311:21329  _liquidityTaxShare */\n      sload(0x13)\n        /* \"templet.sol\":21288:21308  contractTokenBalance */\n      dup4\n        /* \"templet.sol\":21288:21329  contractTokenBalance * _liquidityTaxShare */\n      tag_567\n      swap2\n      swap1\n      tag_346\n      jump\t// in\n    tag_567:\n        /* \"templet.sol\":21287:21345  (contractTokenBalance * _liquidityTaxShare) / (100000 * 2) */\n      tag_568\n      swap2\n      swap1\n      tag_348\n      jump\t// in\n    tag_568:\n        /* \"templet.sol\":21269:21345  uint256 liqHalf = (contractTokenBalance * _liquidityTaxShare) / (100000 * 2) */\n      swap1\n      pop\n        /* \"templet.sol\":21360:21380  uint256 otherLiqHalf */\n      0x00\n        /* \"templet.sol\":21436:21443  liqHalf */\n      dup2\n        /* \"templet.sol\":21427:21433  100000 */\n      0x0186a0\n        /* \"templet.sol\":21407:21425  _liquidityTaxShare */\n      sload(0x13)\n        /* \"templet.sol\":21384:21404  contractTokenBalance */\n      dup6\n        /* \"templet.sol\":21384:21425  contractTokenBalance * _liquidityTaxShare */\n      tag_569\n      swap2\n      swap1\n      tag_346\n      jump\t// in\n    tag_569:\n        /* \"templet.sol\":21383:21433  (contractTokenBalance * _liquidityTaxShare)/100000 */\n      tag_570\n      swap2\n      swap1\n      tag_348\n      jump\t// in\n    tag_570:\n        /* \"templet.sol\":21383:21443  (contractTokenBalance * _liquidityTaxShare)/100000 - liqHalf */\n      tag_571\n      swap2\n      swap1\n      tag_554\n      jump\t// in\n    tag_571:\n        /* \"templet.sol\":21360:21443  uint256 otherLiqHalf = (contractTokenBalance * _liquidityTaxShare)/100000 - liqHalf */\n      swap1\n      pop\n        /* \"templet.sol\":21458:21478  uint256 tokensToSwap */\n      0x00\n        /* \"templet.sol\":21481:21511  contractTokenBalance - liqHalf */\n      tag_572\n        /* \"templet.sol\":21504:21511  liqHalf */\n      dup4\n        /* \"templet.sol\":21481:21501  contractTokenBalance */\n      dup6\n        /* \"templet.sol\":21481:21511  contractTokenBalance - liqHalf */\n      tag_554\n      jump\t// in\n    tag_572:\n        /* \"templet.sol\":21458:21511  uint256 tokensToSwap = contractTokenBalance - liqHalf */\n      swap1\n      pop\n        /* \"templet.sol\":21555:21576  address(this).balance */\n      selfbalance\n        /* \"templet.sol\":21614:21644  swapTokensForEth(tokensToSwap) */\n      tag_573\n        /* \"templet.sol\":21458:21511  uint256 tokensToSwap = contractTokenBalance - liqHalf */\n      dup3\n        /* \"templet.sol\":21614:21630  swapTokensForEth */\n      tag_574\n        /* \"templet.sol\":21614:21644  swapTokensForEth(tokensToSwap) */\n      jump\t// in\n    tag_573:\n        /* \"templet.sol\":21662:21680  uint256 newBalance */\n      0x00\n        /* \"templet.sol\":21683:21723  address(this).balance - (initialBalance) */\n      tag_575\n        /* \"templet.sol\":21708:21722  initialBalance */\n      dup3\n        /* \"templet.sol\":21683:21704  address(this).balance */\n      selfbalance\n        /* \"templet.sol\":21683:21723  address(this).balance - (initialBalance) */\n      tag_554\n      jump\t// in\n    tag_575:\n        /* \"templet.sol\":21662:21723  uint256 newBalance = address(this).balance - (initialBalance) */\n      swap1\n      pop\n        /* \"templet.sol\":21741:21754  bool success1 */\n      0x00\n        /* \"templet.sol\":21769:21782  bool success2 */\n      dup1\n        /* \"templet.sol\":21800:21820  uint256 buyFeeAmount */\n      0x00\n        /* \"templet.sol\":21853:21859  100000 */\n      0x0186a0\n        /* \"templet.sol\":21837:21849  _buyTaxShare */\n      sload(0x11)\n        /* \"templet.sol\":21824:21834  newBalance */\n      dup6\n        /* \"templet.sol\":21824:21849  newBalance * _buyTaxShare */\n      tag_576\n      swap2\n      swap1\n      tag_346\n      jump\t// in\n    tag_576:\n        /* \"templet.sol\":21823:21859  (newBalance * _buyTaxShare) / 100000 */\n      tag_577\n      swap2\n      swap1\n      tag_348\n      jump\t// in\n    tag_577:\n        /* \"templet.sol\":21800:21859  uint256 buyFeeAmount = (newBalance * _buyTaxShare) / 100000 */\n      swap1\n      pop\n        /* \"templet.sol\":21879:21900  uint256 sellFeeAmount */\n      0x00\n        /* \"templet.sol\":21934:21940  100000 */\n      0x0186a0\n        /* \"templet.sol\":21917:21930  _sellTaxShare */\n      sload(0x12)\n        /* \"templet.sol\":21904:21914  newBalance */\n      dup7\n        /* \"templet.sol\":21904:21930  newBalance * _sellTaxShare */\n      tag_578\n      swap2\n      swap1\n      tag_346\n      jump\t// in\n    tag_578:\n        /* \"templet.sol\":21903:21940  (newBalance * _sellTaxShare) / 100000 */\n      tag_579\n      swap2\n      swap1\n      tag_348\n      jump\t// in\n    tag_579:\n        /* \"templet.sol\":21879:21940  uint256 sellFeeAmount = (newBalance * _sellTaxShare) / 100000 */\n      swap1\n      pop\n        /* \"templet.sol\":21958:21977  uint256 totalAmount */\n      0x00\n        /* \"templet.sol\":21980:22008  buyFeeAmount + sellFeeAmount */\n      tag_580\n        /* \"templet.sol\":21879:21940  uint256 sellFeeAmount = (newBalance * _sellTaxShare) / 100000 */\n      dup3\n        /* \"templet.sol\":21980:21992  buyFeeAmount */\n      dup5\n        /* \"templet.sol\":21980:22008  buyFeeAmount + sellFeeAmount */\n      tag_343\n      jump\t// in\n    tag_580:\n        /* \"templet.sol\":21958:22008  uint256 totalAmount = buyFeeAmount + sellFeeAmount */\n      swap1\n      pop\n        /* \"templet.sol\":22067:22080  sellFeeAmount */\n      dup2\n        /* \"templet.sol\":22039:22064  newBalance - buyFeeAmount */\n      tag_581\n        /* \"templet.sol\":22052:22064  buyFeeAmount */\n      dup5\n        /* \"templet.sol\":22039:22049  newBalance */\n      dup9\n        /* \"templet.sol\":22039:22064  newBalance - buyFeeAmount */\n      tag_554\n      jump\t// in\n    tag_581:\n        /* \"templet.sol\":22039:22080  newBalance - buyFeeAmount - sellFeeAmount */\n      tag_582\n      swap2\n      swap1\n      tag_554\n      jump\t// in\n    tag_582:\n        /* \"templet.sol\":22026:22080  newBalance = newBalance - buyFeeAmount - sellFeeAmount */\n      swap6\n      pop\n        /* \"templet.sol\":22098:22121  uint256 marketingAmount */\n      0x00\n        /* \"templet.sol\":22157:22163  100000 */\n      0x0186a0\n        /* \"templet.sol\":22139:22155  marketingPercent */\n      sload(0x15)\n        /* \"templet.sol\":22125:22136  totalAmount */\n      dup4\n        /* \"templet.sol\":22125:22155  totalAmount * marketingPercent */\n      tag_583\n      swap2\n      swap1\n      tag_346\n      jump\t// in\n    tag_583:\n        /* \"templet.sol\":22124:22163  (totalAmount * marketingPercent)/100000 */\n      tag_584\n      swap2\n      swap1\n      tag_348\n      jump\t// in\n    tag_584:\n        /* \"templet.sol\":22098:22163  uint256 marketingAmount = (totalAmount * marketingPercent)/100000 */\n      swap1\n      pop\n        /* \"templet.sol\":22178:22195  uint256 devAmount */\n      0x00\n        /* \"templet.sol\":22198:22227  totalAmount - marketingAmount */\n      tag_585\n        /* \"templet.sol\":22098:22163  uint256 marketingAmount = (totalAmount * marketingPercent)/100000 */\n      dup3\n        /* \"templet.sol\":22198:22209  totalAmount */\n      dup5\n        /* \"templet.sol\":22198:22227  totalAmount - marketingAmount */\n      tag_554\n      jump\t// in\n    tag_585:\n        /* \"templet.sol\":22259:22274  marketingWallet */\n      sload(0x0b)\n        /* \"templet.sol\":22259:22319  marketingWallet.call{value: marketingAmount, gas: 35000}(\"\") */\n      mload(0x40)\n        /* \"templet.sol\":22178:22227  uint256 devAmount = totalAmount - marketingAmount */\n      swap2\n      swap3\n      pop\n      sub(shl(0xa0, 0x01), 0x01)\n        /* \"templet.sol\":22259:22274  marketingWallet */\n      and\n      swap1\n        /* \"templet.sol\":22309:22314  35000 */\n      0x88b8\n      swap1\n        /* \"templet.sol\":22287:22302  marketingAmount */\n      dup5\n      swap1\n        /* \"templet.sol\":22259:22319  marketingWallet.call{value: marketingAmount, gas: 35000}(\"\") */\n      0x00\n      dup2\n      dup2\n      dup2\n        /* \"templet.sol\":22287:22302  marketingAmount */\n      dup6\n        /* \"templet.sol\":22259:22274  marketingWallet */\n      dup9\n        /* \"templet.sol\":22309:22314  35000 */\n      dup9\n        /* \"templet.sol\":22259:22319  marketingWallet.call{value: marketingAmount, gas: 35000}(\"\") */\n      call\n      swap4\n      pop\n      pop\n      pop\n      pop\n      returndatasize\n      dup1\n      0x00\n      dup2\n      eq\n      tag_590\n      jumpi\n      mload(0x40)\n      swap2\n      pop\n      and(add(returndatasize, 0x3f), not(0x1f))\n      dup3\n      add\n      0x40\n      mstore\n      returndatasize\n      dup3\n      mstore\n      returndatasize\n      0x00\n      0x20\n      dup5\n      add\n      returndatacopy\n      jump(tag_589)\n    tag_590:\n      0x60\n      swap2\n      pop\n    tag_589:\n      pop\n      pop\n        /* \"templet.sol\":22348:22357  devWallet */\n      sload(0x0c)\n        /* \"templet.sol\":22348:22396  devWallet.call{value: devAmount, gas: 35000}(\"\") */\n      mload(0x40)\n        /* \"templet.sol\":22245:22319  (success1,) = marketingWallet.call{value: marketingAmount, gas: 35000}(\"\") */\n      swap2\n      swap9\n      pop\n      sub(shl(0xa0, 0x01), 0x01)\n        /* \"templet.sol\":22348:22357  devWallet */\n      and\n      swap1\n        /* \"templet.sol\":22386:22391  35000 */\n      0x88b8\n      swap1\n        /* \"templet.sol\":22370:22379  devAmount */\n      dup4\n      swap1\n        /* \"templet.sol\":22348:22396  devWallet.call{value: devAmount, gas: 35000}(\"\") */\n      0x00\n      dup2\n      dup2\n      dup2\n        /* \"templet.sol\":22370:22379  devAmount */\n      dup6\n        /* \"templet.sol\":22348:22357  devWallet */\n      dup9\n        /* \"templet.sol\":22386:22391  35000 */\n      dup9\n        /* \"templet.sol\":22348:22396  devWallet.call{value: devAmount, gas: 35000}(\"\") */\n      call\n      swap4\n      pop\n      pop\n      pop\n      pop\n      returndatasize\n      dup1\n      0x00\n      dup2\n      eq\n      tag_594\n      jumpi\n      mload(0x40)\n      swap2\n      pop\n      and(add(returndatasize, 0x3f), not(0x1f))\n      dup3\n      add\n      0x40\n      mstore\n      returndatasize\n      dup3\n      mstore\n      returndatasize\n      0x00\n      0x20\n      dup5\n      add\n      returndatacopy\n      jump(tag_593)\n    tag_594:\n      0x60\n      swap2\n      pop\n    tag_593:\n      pop\n        /* \"templet.sol\":22334:22396  (success2,) = devWallet.call{value: devAmount, gas: 35000}(\"\") */\n      swap1\n      swap7\n      pop\n      pop\n        /* \"templet.sol\":22418:22432  newBalance > 0 */\n      dup8\n      iszero\n        /* \"templet.sol\":22414:22558  if (newBalance > 0) {... */\n      tag_596\n      jumpi\n        /* \"templet.sol\":22453:22491  addLiquidity(otherLiqHalf, newBalance) */\n      tag_596\n        /* \"templet.sol\":22466:22478  otherLiqHalf */\n      dup12\n        /* \"templet.sol\":22480:22490  newBalance */\n      dup10\n        /* \"templet.sol\":22453:22465  addLiquidity */\n      tag_597\n        /* \"templet.sol\":22453:22491  addLiquidity(otherLiqHalf, newBalance) */\n      jump\t// in\n    tag_596:\n        /* \"templet.sol\":21254:22572  {... */\n      pop\n      pop\n      pop\n      pop\n      pop\n      pop\n      pop\n      pop\n      pop\n      pop\n      pop\n      pop\n        /* \"templet.sol\":21128:22579  {... */\n      pop\n        /* \"templet.sol\":21093:22579  function swapAndLiquify() internal {... */\n      jump\t// out\n        /* \"templet.sol\":26872:27027  function _calculateTax(uint256 amount, uint256 taxPercentage) internal pure returns (uint256) {... */\n    tag_529:\n        /* \"templet.sol\":26957:26964  uint256 */\n      0x00\n        /* \"templet.sol\":27012:27018  100000 */\n      0x0186a0\n        /* \"templet.sol\":26984:27008  amount * (taxPercentage) */\n      tag_599\n        /* \"templet.sol\":26994:27007  taxPercentage */\n      dup4\n        /* \"templet.sol\":26984:26990  amount */\n      dup6\n        /* \"templet.sol\":26984:27008  amount * (taxPercentage) */\n      tag_346\n      jump\t// in\n    tag_599:\n        /* \"templet.sol\":26984:27019  amount * (taxPercentage) / (100000) */\n      tag_600\n      swap2\n      swap1\n      tag_348\n      jump\t// in\n    tag_600:\n        /* \"templet.sol\":26977:27019  return amount * (taxPercentage) / (100000) */\n      swap4\n        /* \"templet.sol\":26872:27027  function _calculateTax(uint256 amount, uint256 taxPercentage) internal pure returns (uint256) {... */\n      swap3\n      pop\n      pop\n      pop\n      jump\t// out\n        /* \"templet.sol\":14433:14984  function _burnTokens(address account, address dead, uint256 amount) internal virtual {... */\n    tag_535:\n      sub(shl(0xa0, 0x01), 0x01)\n        /* \"templet.sol\":14537:14558  account != address(0) */\n      dup4\n      and\n        /* \"templet.sol\":14529:14596  require(account != address(0), \"ERC20: burn from the zero address\") */\n      tag_602\n      jumpi\n      mload(0x40)\n      shl(0xe5, 0x461bcd)\n      dup2\n      mstore\n        /* \"#utility.yul\":14557:14559   */\n      0x20\n        /* \"templet.sol\":14529:14596  require(account != address(0), \"ERC20: burn from the zero address\") */\n      0x04\n      dup3\n      add\n        /* \"#utility.yul\":14539:14560   */\n      mstore\n        /* \"#utility.yul\":14596:14598   */\n      0x21\n        /* \"#utility.yul\":14576:14594   */\n      0x24\n      dup3\n      add\n        /* \"#utility.yul\":14569:14599   */\n      mstore\n        /* \"#utility.yul\":14635:14669   */\n      0x45524332303a206275726e2066726f6d20746865207a65726f20616464726573\n        /* \"#utility.yul\":14615:14633   */\n      0x44\n      dup3\n      add\n        /* \"#utility.yul\":14608:14670   */\n      mstore\n      shl(0xf8, 0x73)\n        /* \"#utility.yul\":14686:14704   */\n      0x64\n      dup3\n      add\n        /* \"#utility.yul\":14679:14710   */\n      mstore\n        /* \"#utility.yul\":14727:14746   */\n      0x84\n      add\n        /* \"templet.sol\":14529:14596  require(account != address(0), \"ERC20: burn from the zero address\") */\n      tag_311\n        /* \"#utility.yul\":14355:14752   */\n      jump\n        /* \"templet.sol\":14529:14596  require(account != address(0), \"ERC20: burn from the zero address\") */\n    tag_602:\n      sub(shl(0xa0, 0x01), 0x01)\n        /* \"templet.sol\":14618:14636  _balances[account] */\n      dup4\n      and\n      0x00\n      swap1\n      dup2\n      mstore\n        /* \"templet.sol\":14618:14627  _balances */\n      0x03\n        /* \"templet.sol\":14618:14636  _balances[account] */\n      0x20\n      mstore\n      0x40\n      swap1\n      keccak256\n      sload\n        /* \"templet.sol\":14618:14646  _balances[account] >= amount */\n      dup2\n      gt\n      iszero\n        /* \"templet.sol\":14610:14685  require(_balances[account] >= amount, \"ERC20: burn amount exceeds balance\") */\n      tag_605\n      jumpi\n      mload(0x40)\n      shl(0xe5, 0x461bcd)\n      dup2\n      mstore\n        /* \"#utility.yul\":14959:14961   */\n      0x20\n        /* \"templet.sol\":14610:14685  require(_balances[account] >= amount, \"ERC20: burn amount exceeds balance\") */\n      0x04\n      dup3\n      add\n        /* \"#utility.yul\":14941:14962   */\n      mstore\n        /* \"#utility.yul\":14998:15000   */\n      0x22\n        /* \"#utility.yul\":14978:14996   */\n      0x24\n      dup3\n      add\n        /* \"#utility.yul\":14971:15001   */\n      mstore\n        /* \"#utility.yul\":15037:15071   */\n      0x45524332303a206275726e20616d6f756e7420657863656564732062616c616e\n        /* \"#utility.yul\":15017:15035   */\n      0x44\n      dup3\n      add\n        /* \"#utility.yul\":15010:15072   */\n      mstore\n      shl(0xf0, 0x6365)\n        /* \"#utility.yul\":15088:15106   */\n      0x64\n      dup3\n      add\n        /* \"#utility.yul\":15081:15113   */\n      mstore\n        /* \"#utility.yul\":15130:15149   */\n      0x84\n      add\n        /* \"templet.sol\":14610:14685  require(_balances[account] >= amount, \"ERC20: burn amount exceeds balance\") */\n      tag_311\n        /* \"#utility.yul\":14757:15155   */\n      jump\n        /* \"templet.sol\":14610:14685  require(_balances[account] >= amount, \"ERC20: burn amount exceeds balance\") */\n    tag_605:\n      sub(shl(0xa0, 0x01), 0x01)\n        /* \"templet.sol\":14721:14739  _balances[account] */\n      dup1\n      dup5\n      and\n      0x00\n      dup2\n      dup2\n      mstore\n        /* \"templet.sol\":14721:14730  _balances */\n      0x03\n        /* \"templet.sol\":14721:14739  _balances[account] */\n      0x20\n      mstore\n      0x40\n      dup1\n      dup3\n      keccak256\n        /* \"templet.sol\":14721:14749  _balances[account] -= amount */\n      dup1\n      sload\n      dup7\n      swap1\n      sub\n      swap1\n      sstore\n        /* \"templet.sol\":14764:14779  _balances[dead] */\n      swap3\n      dup6\n      and\n      dup2\n      mstore\n      dup3\n      dup2\n      keccak256\n        /* \"templet.sol\":14764:14789  _balances[dead] += amount */\n      dup1\n      sload\n      dup6\n      add\n      swap1\n      sstore\n      0x01\n        /* \"templet.sol\":14884:14906  _totalSupply -= amount */\n      dup1\n      sload\n      dup6\n      swap1\n      sub\n      swap1\n      sstore\n        /* \"templet.sol\":14936:14973  Transfer(account, address(0), amount) */\n      swap2\n      mload\n      0xddf252ad1be2c89b69c2b068fc378daa952ba7f163c4a11628f55a4df523b3ef\n      swap1\n      tag_474\n      swap1\n        /* \"templet.sol\":14743:14749  amount */\n      dup6\n        /* \"#utility.yul\":1988:2013   */\n      dup2\n      mstore\n        /* \"#utility.yul\":1976:1978   */\n      0x20\n        /* \"#utility.yul\":1961:1979   */\n      add\n      swap1\n        /* \"#utility.yul\":1842:2019   */\n      jump\n        /* \"templet.sol\":20493:21084  function swapTokensForEth(uint256 tokenAmount) private {... */\n    tag_574:\n        /* \"templet.sol\":20643:20659  new address[](2) */\n      0x40\n      dup1\n      mload\n        /* \"templet.sol\":20657:20658  2 */\n      0x02\n        /* \"templet.sol\":20643:20659  new address[](2) */\n      dup1\n      dup3\n      mstore\n      0x60\n      dup3\n      add\n      dup4\n      mstore\n        /* \"templet.sol\":20619:20640  address[] memory path */\n      0x00\n      swap3\n        /* \"templet.sol\":20643:20659  new address[](2) */\n      0x20\n      dup4\n      add\n      swap1\n      dup1\n      calldatasize\n      dup4\n      calldatacopy\n      add\n      swap1\n      pop\n      pop\n        /* \"templet.sol\":20619:20659  address[] memory path = new address[](2) */\n      swap1\n      pop\n        /* \"templet.sol\":20688:20692  this */\n      address\n        /* \"templet.sol\":20670:20674  path */\n      dup2\n        /* \"templet.sol\":20675:20676  0 */\n      0x00\n        /* \"templet.sol\":20670:20677  path[0] */\n      dup2\n      mload\n      dup2\n      lt\n      tag_615\n      jumpi\n      tag_615\n      tag_410\n      jump\t// in\n    tag_615:\n      sub(shl(0xa0, 0x01), 0x01)\n        /* \"templet.sol\":20670:20693  path[0] = address(this) */\n      swap3\n      dup4\n      and\n        /* \"templet.sol\":20670:20677  path[0] */\n      0x20\n      swap2\n      dup3\n      mul\n      swap3\n      swap1\n      swap3\n      add\n      dup2\n      add\n        /* \"templet.sol\":20670:20693  path[0] = address(this) */\n      swap2\n      swap1\n      swap2\n      mstore\n        /* \"templet.sol\":20714:20729  uniswapV2Router */\n      sload(0x17)\n        /* \"templet.sol\":20714:20736  uniswapV2Router.WETH() */\n      0x40\n      dup1\n      mload\n      shl(0xe3, 0x15ab88c9)\n      dup2\n      mstore\n      swap1\n      mload\n        /* \"templet.sol\":20714:20729  uniswapV2Router */\n      swap2\n      swap1\n      swap4\n      and\n      swap3\n        /* \"templet.sol\":20714:20734  uniswapV2Router.WETH */\n      0xad5c4648\n      swap3\n        /* \"templet.sol\":20714:20736  uniswapV2Router.WETH() */\n      0x04\n      dup1\n      dup4\n      add\n      swap4\n        /* \"templet.sol\":20670:20677  path[0] */\n      swap2\n      swap3\n        /* \"templet.sol\":20714:20736  uniswapV2Router.WETH() */\n      dup3\n      swap1\n      sub\n      add\n      dup2\n        /* \"templet.sol\":20714:20729  uniswapV2Router */\n      dup7\n        /* \"templet.sol\":20714:20736  uniswapV2Router.WETH() */\n      gas\n      staticcall\n      iszero\n      dup1\n      iszero\n      tag_617\n      jumpi\n      returndatasize\n      0x00\n      dup1\n      returndatacopy\n      revert(0x00, returndatasize)\n    tag_617:\n      pop\n      pop\n      pop\n      pop\n      mload(0x40)\n      returndatasize\n      not(0x1f)\n      0x1f\n      dup3\n      add\n      and\n      dup3\n      add\n      dup1\n      0x40\n      mstore\n      pop\n      dup2\n      add\n      swap1\n      tag_618\n      swap2\n      swap1\n      tag_619\n      jump\t// in\n    tag_618:\n        /* \"templet.sol\":20704:20708  path */\n      dup2\n        /* \"templet.sol\":20709:20710  1 */\n      0x01\n        /* \"templet.sol\":20704:20711  path[1] */\n      dup2\n      mload\n      dup2\n      lt\n      tag_621\n      jumpi\n      tag_621\n      tag_410\n      jump\t// in\n    tag_621:\n      sub(shl(0xa0, 0x01), 0x01)\n        /* \"templet.sol\":20704:20736  path[1] = uniswapV2Router.WETH() */\n      swap3\n      dup4\n      and\n        /* \"templet.sol\":20704:20711  path[1] */\n      0x20\n      swap2\n      dup3\n      mul\n      swap3\n      swap1\n      swap3\n      add\n      add\n        /* \"templet.sol\":20704:20736  path[1] = uniswapV2Router.WETH() */\n      mstore\n        /* \"templet.sol\":20782:20797  uniswapV2Router */\n      sload(0x17)\n        /* \"templet.sol\":20750:20812  _approve(address(this), address(uniswapV2Router), tokenAmount) */\n      tag_622\n      swap2\n        /* \"templet.sol\":20767:20771  this */\n      address\n      swap2\n        /* \"templet.sol\":20782:20797  uniswapV2Router */\n      and\n        /* \"templet.sol\":20800:20811  tokenAmount */\n      dup5\n        /* \"templet.sol\":20750:20758  _approve */\n      tag_305\n        /* \"templet.sol\":20750:20812  _approve(address(this), address(uniswapV2Router), tokenAmount) */\n      jump\t// in\n    tag_622:\n        /* \"templet.sol\":20852:20867  uniswapV2Router */\n      sload(0x17)\n        /* \"templet.sol\":20852:21076  uniswapV2Router.swapExactTokensForETHSupportingFeeOnTransferTokens(... */\n      mload(0x40)\n      shl(0xe0, 0x791ac947)\n      dup2\n      mstore\n      sub(shl(0xa0, 0x01), 0x01)\n        /* \"templet.sol\":20852:20867  uniswapV2Router */\n      swap1\n      swap2\n      and\n      swap1\n        /* \"templet.sol\":20852:20918  uniswapV2Router.swapExactTokensForETHSupportingFeeOnTransferTokens */\n      0x791ac947\n      swap1\n        /* \"templet.sol\":20852:21076  uniswapV2Router.swapExactTokensForETHSupportingFeeOnTransferTokens(... */\n      tag_623\n      swap1\n        /* \"templet.sol\":20933:20944  tokenAmount */\n      dup6\n      swap1\n        /* \"templet.sol\":20852:20867  uniswapV2Router */\n      0x00\n      swap1\n        /* \"templet.sol\":21003:21007  path */\n      dup7\n      swap1\n        /* \"templet.sol\":21030:21034  this */\n      address\n      swap1\n        /* \"templet.sol\":21050:21065  block.timestamp */\n      timestamp\n      swap1\n        /* \"templet.sol\":20852:21076  uniswapV2Router.swapExactTokensForETHSupportingFeeOnTransferTokens(... */\n      0x04\n      add\n      tag_624\n      jump\t// in\n    tag_623:\n      0x00\n      mload(0x40)\n      dup1\n      dup4\n      sub\n      dup2\n      0x00\n      dup8\n      dup1\n      extcodesize\n      iszero\n      dup1\n      iszero\n      tag_625\n      jumpi\n      0x00\n      dup1\n      revert\n    tag_625:\n      pop\n      gas\n      call\n      iszero\n      dup1\n      iszero\n      tag_627\n      jumpi\n      returndatasize\n      0x00\n      dup1\n      returndatacopy\n      revert(0x00, returndatasize)\n    tag_627:\n      pop\n      pop\n      pop\n      pop\n        /* \"templet.sol\":20548:21084  {... */\n      pop\n        /* \"templet.sol\":20493:21084  function swapTokensForEth(uint256 tokenAmount) private {... */\n      pop\n      jump\t// out\n        /* \"templet.sol\":22588:23108  function addLiquidity(uint256 tokenAmount, uint256 ethAmount) private {... */\n    tag_597:\n        /* \"templet.sol\":22768:22783  uniswapV2Router */\n      sload(0x17)\n        /* \"templet.sol\":22736:22798  _approve(address(this), address(uniswapV2Router), tokenAmount) */\n      tag_629\n      swap1\n        /* \"templet.sol\":22753:22757  this */\n      address\n      swap1\n      sub(shl(0xa0, 0x01), 0x01)\n        /* \"templet.sol\":22768:22783  uniswapV2Router */\n      and\n        /* \"templet.sol\":22786:22797  tokenAmount */\n      dup5\n        /* \"templet.sol\":22736:22744  _approve */\n      tag_305\n        /* \"templet.sol\":22736:22798  _approve(address(this), address(uniswapV2Router), tokenAmount) */\n      jump\t// in\n    tag_629:\n        /* \"templet.sol\":22842:22857  uniswapV2Router */\n      sload(0x17)\n        /* \"templet.sol\":22842:23100  uniswapV2Router.addLiquidityETH{value: ethAmount}(... */\n      mload(0x40)\n      shl(0xe0, 0xf305d719)\n      dup2\n      mstore\n        /* \"templet.sol\":22914:22918  this */\n      address\n        /* \"templet.sol\":22842:23100  uniswapV2Router.addLiquidityETH{value: ethAmount}(... */\n      0x04\n      dup3\n      add\n        /* \"#utility.yul\":16874:16908   */\n      dup2\n      swap1\n      mstore\n        /* \"#utility.yul\":16924:16942   */\n      0x24\n      dup3\n      add\n        /* \"#utility.yul\":16917:16951   */\n      dup6\n      swap1\n      mstore\n        /* \"templet.sol\":22842:22857  uniswapV2Router */\n      0x00\n        /* \"#utility.yul\":16967:16985   */\n      0x44\n      dup4\n      add\n        /* \"#utility.yul\":16960:16994   */\n      dup2\n      swap1\n      mstore\n        /* \"#utility.yul\":17010:17028   */\n      0x64\n      dup4\n      add\n        /* \"#utility.yul\":17003:17037   */\n      mstore\n        /* \"#utility.yul\":17053:17072   */\n      0x84\n      dup3\n      add\n        /* \"#utility.yul\":17046:17090   */\n      mstore\n        /* \"templet.sol\":23074:23089  block.timestamp */\n      timestamp\n        /* \"#utility.yul\":17106:17125   */\n      0xa4\n      dup3\n      add\n        /* \"#utility.yul\":17099:17134   */\n      mstore\n      sub(shl(0xa0, 0x01), 0x01)\n        /* \"templet.sol\":22842:22857  uniswapV2Router */\n      swap1\n      swap2\n      and\n      swap1\n        /* \"templet.sol\":22842:22873  uniswapV2Router.addLiquidityETH */\n      0xf305d719\n      swap1\n        /* \"templet.sol\":22881:22890  ethAmount */\n      dup4\n      swap1\n        /* \"#utility.yul\":16808:16827   */\n      0xc4\n      add\n        /* \"templet.sol\":22842:23100  uniswapV2Router.addLiquidityETH{value: ethAmount}(... */\n      0x60\n      mload(0x40)\n      dup1\n      dup4\n      sub\n      dup2\n      dup6\n      dup9\n      gas\n      call\n      iszero\n      dup1\n      iszero\n      tag_633\n      jumpi\n      returndatasize\n      0x00\n      dup1\n      returndatacopy\n      revert(0x00, returndatasize)\n    tag_633:\n      pop\n      pop\n      pop\n      pop\n      pop\n      mload(0x40)\n      returndatasize\n      not(0x1f)\n      0x1f\n      dup3\n      add\n      and\n      dup3\n      add\n      dup1\n      0x40\n      mstore\n      pop\n      dup2\n      add\n      swap1\n      tag_406\n      swap2\n      swap1\n      tag_635\n      jump\t// in\n        /* \"#utility.yul\":222:770   */\n    tag_79:\n        /* \"#utility.yul\":334:338   */\n      0x00\n        /* \"#utility.yul\":363:365   */\n      0x20\n        /* \"#utility.yul\":392:394   */\n      dup1\n        /* \"#utility.yul\":381:390   */\n      dup4\n        /* \"#utility.yul\":374:395   */\n      mstore\n        /* \"#utility.yul\":424:430   */\n      dup4\n        /* \"#utility.yul\":418:431   */\n      mload\n        /* \"#utility.yul\":467:473   */\n      dup1\n        /* \"#utility.yul\":462:464   */\n      dup3\n        /* \"#utility.yul\":451:460   */\n      dup6\n        /* \"#utility.yul\":447:465   */\n      add\n        /* \"#utility.yul\":440:474   */\n      mstore\n        /* \"#utility.yul\":492:493   */\n      0x00\n        /* \"#utility.yul\":502:642   */\n    tag_642:\n        /* \"#utility.yul\":516:522   */\n      dup2\n        /* \"#utility.yul\":513:514   */\n      dup2\n        /* \"#utility.yul\":510:523   */\n      lt\n        /* \"#utility.yul\":502:642   */\n      iszero\n      tag_644\n      jumpi\n        /* \"#utility.yul\":611:625   */\n      dup6\n      dup2\n      add\n        /* \"#utility.yul\":607:630   */\n      dup4\n      add\n        /* \"#utility.yul\":601:631   */\n      mload\n        /* \"#utility.yul\":577:594   */\n      dup6\n      dup3\n      add\n        /* \"#utility.yul\":596:598   */\n      0x40\n        /* \"#utility.yul\":573:599   */\n      add\n        /* \"#utility.yul\":566:632   */\n      mstore\n        /* \"#utility.yul\":531:541   */\n      dup3\n      add\n        /* \"#utility.yul\":502:642   */\n      jump(tag_642)\n    tag_644:\n        /* \"#utility.yul\":506:509   */\n      pop\n        /* \"#utility.yul\":691:692   */\n      0x00\n        /* \"#utility.yul\":686:688   */\n      0x40\n        /* \"#utility.yul\":677:683   */\n      dup3\n        /* \"#utility.yul\":666:675   */\n      dup7\n        /* \"#utility.yul\":662:684   */\n      add\n        /* \"#utility.yul\":658:689   */\n      add\n        /* \"#utility.yul\":651:693   */\n      mstore\n        /* \"#utility.yul\":761:763   */\n      0x40\n        /* \"#utility.yul\":754:756   */\n      0x1f\n        /* \"#utility.yul\":750:757   */\n      not\n        /* \"#utility.yul\":745:747   */\n      0x1f\n        /* \"#utility.yul\":737:743   */\n      dup4\n        /* \"#utility.yul\":733:748   */\n      add\n        /* \"#utility.yul\":729:758   */\n      and\n        /* \"#utility.yul\":718:727   */\n      dup6\n        /* \"#utility.yul\":714:759   */\n      add\n        /* \"#utility.yul\":710:764   */\n      add\n        /* \"#utility.yul\":702:764   */\n      swap3\n      pop\n      pop\n      pop\n        /* \"#utility.yul\":222:770   */\n      swap3\n      swap2\n      pop\n      pop\n      jump\t// out\n        /* \"#utility.yul\":775:955   */\n    tag_83:\n        /* \"#utility.yul\":834:840   */\n      0x00\n        /* \"#utility.yul\":887:889   */\n      0x20\n        /* \"#utility.yul\":875:884   */\n      dup3\n        /* \"#utility.yul\":866:873   */\n      dup5\n        /* \"#utility.yul\":862:885   */\n      sub\n        /* \"#utility.yul\":858:890   */\n      slt\n        /* \"#utility.yul\":855:907   */\n      iszero\n      tag_646\n      jumpi\n        /* \"#utility.yul\":903:904   */\n      0x00\n        /* \"#utility.yul\":900:901   */\n      dup1\n        /* \"#utility.yul\":893:905   */\n      revert\n        /* \"#utility.yul\":855:907   */\n    tag_646:\n      pop\n        /* \"#utility.yul\":926:949   */\n      calldataload\n      swap2\n        /* \"#utility.yul\":775:955   */\n      swap1\n      pop\n      jump\t// out\n        /* \"#utility.yul\":960:1091   */\n    tag_636:\n      sub(shl(0xa0, 0x01), 0x01)\n        /* \"#utility.yul\":1035:1066   */\n      dup2\n      and\n        /* \"#utility.yul\":1025:1067   */\n      dup2\n      eq\n        /* \"#utility.yul\":1015:1085   */\n      tag_424\n      jumpi\n        /* \"#utility.yul\":1081:1082   */\n      0x00\n        /* \"#utility.yul\":1078:1079   */\n      dup1\n        /* \"#utility.yul\":1071:1083   */\n      revert\n        /* \"#utility.yul\":1096:1411   */\n    tag_88:\n        /* \"#utility.yul\":1164:1170   */\n      0x00\n        /* \"#utility.yul\":1172:1178   */\n      dup1\n        /* \"#utility.yul\":1225:1227   */\n      0x40\n        /* \"#utility.yul\":1213:1222   */\n      dup4\n        /* \"#utility.yul\":1204:1211   */\n      dup6\n        /* \"#utility.yul\":1200:1223   */\n      sub\n        /* \"#utility.yul\":1196:1228   */\n      slt\n        /* \"#utility.yul\":1193:1245   */\n      iszero\n      tag_650\n      jumpi\n        /* \"#utility.yul\":1241:1242   */\n      0x00\n        /* \"#utility.yul\":1238:1239   */\n      dup1\n        /* \"#utility.yul\":1231:1243   */\n      revert\n        /* \"#utility.yul\":1193:1245   */\n    tag_650:\n        /* \"#utility.yul\":1280:1289   */\n      dup3\n        /* \"#utility.yul\":1267:1290   */\n      calldataload\n        /* \"#utility.yul\":1299:1330   */\n      tag_651\n        /* \"#utility.yul\":1324:1329   */\n      dup2\n        /* \"#utility.yul\":1299:1330   */\n      tag_636\n      jump\t// in\n    tag_651:\n        /* \"#utility.yul\":1349:1354   */\n      swap5\n        /* \"#utility.yul\":1401:1403   */\n      0x20\n        /* \"#utility.yul\":1386:1404   */\n      swap4\n      swap1\n      swap4\n      add\n        /* \"#utility.yul\":1373:1405   */\n      calldataload\n      swap4\n      pop\n      pop\n      pop\n        /* \"#utility.yul\":1096:1411   */\n      jump\t// out\n        /* \"#utility.yul\":2024:2271   */\n    tag_109:\n        /* \"#utility.yul\":2083:2089   */\n      0x00\n        /* \"#utility.yul\":2136:2138   */\n      0x20\n        /* \"#utility.yul\":2124:2133   */\n      dup3\n        /* \"#utility.yul\":2115:2122   */\n      dup5\n        /* \"#utility.yul\":2111:2134   */\n      sub\n        /* \"#utility.yul\":2107:2139   */\n      slt\n        /* \"#utility.yul\":2104:2156   */\n      iszero\n      tag_656\n      jumpi\n        /* \"#utility.yul\":2152:2153   */\n      0x00\n        /* \"#utility.yul\":2149:2150   */\n      dup1\n        /* \"#utility.yul\":2142:2154   */\n      revert\n        /* \"#utility.yul\":2104:2156   */\n    tag_656:\n        /* \"#utility.yul\":2191:2200   */\n      dup2\n        /* \"#utility.yul\":2178:2201   */\n      calldataload\n        /* \"#utility.yul\":2210:2241   */\n      tag_600\n        /* \"#utility.yul\":2235:2240   */\n      dup2\n        /* \"#utility.yul\":2210:2241   */\n      tag_636\n      jump\t// in\n        /* \"#utility.yul\":2276:2732   */\n    tag_114:\n        /* \"#utility.yul\":2353:2359   */\n      0x00\n        /* \"#utility.yul\":2361:2367   */\n      dup1\n        /* \"#utility.yul\":2369:2375   */\n      0x00\n        /* \"#utility.yul\":2422:2424   */\n      0x60\n        /* \"#utility.yul\":2410:2419   */\n      dup5\n        /* \"#utility.yul\":2401:2408   */\n      dup7\n        /* \"#utility.yul\":2397:2420   */\n      sub\n        /* \"#utility.yul\":2393:2425   */\n      slt\n        /* \"#utility.yul\":2390:2442   */\n      iszero\n      tag_659\n      jumpi\n        /* \"#utility.yul\":2438:2439   */\n      0x00\n        /* \"#utility.yul\":2435:2436   */\n      dup1\n        /* \"#utility.yul\":2428:2440   */\n      revert\n        /* \"#utility.yul\":2390:2442   */\n    tag_659:\n        /* \"#utility.yul\":2477:2486   */\n      dup4\n        /* \"#utility.yul\":2464:2487   */\n      calldataload\n        /* \"#utility.yul\":2496:2527   */\n      tag_660\n        /* \"#utility.yul\":2521:2526   */\n      dup2\n        /* \"#utility.yul\":2496:2527   */\n      tag_636\n      jump\t// in\n    tag_660:\n        /* \"#utility.yul\":2546:2551   */\n      swap3\n      pop\n        /* \"#utility.yul\":2603:2605   */\n      0x20\n        /* \"#utility.yul\":2588:2606   */\n      dup5\n      add\n        /* \"#utility.yul\":2575:2607   */\n      calldataload\n        /* \"#utility.yul\":2616:2649   */\n      tag_661\n        /* \"#utility.yul\":2575:2607   */\n      dup2\n        /* \"#utility.yul\":2616:2649   */\n      tag_636\n      jump\t// in\n    tag_661:\n        /* \"#utility.yul\":2276:2732   */\n      swap3\n      swap6\n        /* \"#utility.yul\":2668:2675   */\n      swap3\n      swap5\n      pop\n      pop\n      pop\n        /* \"#utility.yul\":2722:2724   */\n      0x40\n        /* \"#utility.yul\":2707:2725   */\n      swap2\n      swap1\n      swap2\n      add\n        /* \"#utility.yul\":2694:2726   */\n      calldataload\n      swap1\n        /* \"#utility.yul\":2276:2732   */\n      jump\t// out\n        /* \"#utility.yul\":2926:3044   */\n    tag_637:\n        /* \"#utility.yul\":3012:3017   */\n      dup1\n        /* \"#utility.yul\":3005:3018   */\n      iszero\n        /* \"#utility.yul\":2998:3019   */\n      iszero\n        /* \"#utility.yul\":2991:2996   */\n      dup2\n        /* \"#utility.yul\":2988:3020   */\n      eq\n        /* \"#utility.yul\":2978:3038   */\n      tag_424\n      jumpi\n        /* \"#utility.yul\":3034:3035   */\n      0x00\n        /* \"#utility.yul\":3031:3032   */\n      dup1\n        /* \"#utility.yul\":3024:3036   */\n      revert\n        /* \"#utility.yul\":3049:3431   */\n    tag_153:\n        /* \"#utility.yul\":3114:3120   */\n      0x00\n        /* \"#utility.yul\":3122:3128   */\n      dup1\n        /* \"#utility.yul\":3175:3177   */\n      0x40\n        /* \"#utility.yul\":3163:3172   */\n      dup4\n        /* \"#utility.yul\":3154:3161   */\n      dup6\n        /* \"#utility.yul\":3150:3173   */\n      sub\n        /* \"#utility.yul\":3146:3178   */\n      slt\n        /* \"#utility.yul\":3143:3195   */\n      iszero\n      tag_666\n      jumpi\n        /* \"#utility.yul\":3191:3192   */\n      0x00\n        /* \"#utility.yul\":3188:3189   */\n      dup1\n        /* \"#utility.yul\":3181:3193   */\n      revert\n        /* \"#utility.yul\":3143:3195   */\n    tag_666:\n        /* \"#utility.yul\":3230:3239   */\n      dup3\n        /* \"#utility.yul\":3217:3240   */\n      calldataload\n        /* \"#utility.yul\":3249:3280   */\n      tag_667\n        /* \"#utility.yul\":3274:3279   */\n      dup2\n        /* \"#utility.yul\":3249:3280   */\n      tag_636\n      jump\t// in\n    tag_667:\n        /* \"#utility.yul\":3299:3304   */\n      swap2\n      pop\n        /* \"#utility.yul\":3356:3358   */\n      0x20\n        /* \"#utility.yul\":3341:3359   */\n      dup4\n      add\n        /* \"#utility.yul\":3328:3360   */\n      calldataload\n        /* \"#utility.yul\":3369:3399   */\n      tag_668\n        /* \"#utility.yul\":3328:3360   */\n      dup2\n        /* \"#utility.yul\":3369:3399   */\n      tag_637\n      jump\t// in\n    tag_668:\n        /* \"#utility.yul\":3418:3425   */\n      dup1\n        /* \"#utility.yul\":3408:3425   */\n      swap2\n      pop\n      pop\n        /* \"#utility.yul\":3049:3431   */\n      swap3\n      pop\n      swap3\n      swap1\n      pop\n      jump\t// out\n        /* \"#utility.yul\":3436:4125   */\n    tag_245:\n        /* \"#utility.yul\":3531:3537   */\n      0x00\n        /* \"#utility.yul\":3539:3545   */\n      dup1\n        /* \"#utility.yul\":3547:3553   */\n      0x00\n        /* \"#utility.yul\":3600:3602   */\n      0x40\n        /* \"#utility.yul\":3588:3597   */\n      dup5\n        /* \"#utility.yul\":3579:3586   */\n      dup7\n        /* \"#utility.yul\":3575:3598   */\n      sub\n        /* \"#utility.yul\":3571:3603   */\n      slt\n        /* \"#utility.yul\":3568:3620   */\n      iszero\n      tag_670\n      jumpi\n        /* \"#utility.yul\":3616:3617   */\n      0x00\n        /* \"#utility.yul\":3613:3614   */\n      dup1\n        /* \"#utility.yul\":3606:3618   */\n      revert\n        /* \"#utility.yul\":3568:3620   */\n    tag_670:\n        /* \"#utility.yul\":3656:3665   */\n      dup4\n        /* \"#utility.yul\":3643:3666   */\n      calldataload\n        /* \"#utility.yul\":3685:3703   */\n      0xffffffffffffffff\n        /* \"#utility.yul\":3726:3728   */\n      dup1\n        /* \"#utility.yul\":3718:3724   */\n      dup3\n        /* \"#utility.yul\":3715:3729   */\n      gt\n        /* \"#utility.yul\":3712:3746   */\n      iszero\n      tag_671\n      jumpi\n        /* \"#utility.yul\":3742:3743   */\n      0x00\n        /* \"#utility.yul\":3739:3740   */\n      dup1\n        /* \"#utility.yul\":3732:3744   */\n      revert\n        /* \"#utility.yul\":3712:3746   */\n    tag_671:\n        /* \"#utility.yul\":3780:3786   */\n      dup2\n        /* \"#utility.yul\":3769:3778   */\n      dup7\n        /* \"#utility.yul\":3765:3787   */\n      add\n        /* \"#utility.yul\":3755:3787   */\n      swap2\n      pop\n        /* \"#utility.yul\":3825:3832   */\n      dup7\n        /* \"#utility.yul\":3818:3822   */\n      0x1f\n        /* \"#utility.yul\":3814:3816   */\n      dup4\n        /* \"#utility.yul\":3810:3823   */\n      add\n        /* \"#utility.yul\":3806:3833   */\n      slt\n        /* \"#utility.yul\":3796:3851   */\n      tag_672\n      jumpi\n        /* \"#utility.yul\":3847:3848   */\n      0x00\n        /* \"#utility.yul\":3844:3845   */\n      dup1\n        /* \"#utility.yul\":3837:3849   */\n      revert\n        /* \"#utility.yul\":3796:3851   */\n    tag_672:\n        /* \"#utility.yul\":3887:3889   */\n      dup2\n        /* \"#utility.yul\":3874:3890   */\n      calldataload\n        /* \"#utility.yul\":3913:3915   */\n      dup2\n        /* \"#utility.yul\":3905:3911   */\n      dup2\n        /* \"#utility.yul\":3902:3916   */\n      gt\n        /* \"#utility.yul\":3899:3933   */\n      iszero\n      tag_673\n      jumpi\n        /* \"#utility.yul\":3929:3930   */\n      0x00\n        /* \"#utility.yul\":3926:3927   */\n      dup1\n        /* \"#utility.yul\":3919:3931   */\n      revert\n        /* \"#utility.yul\":3899:3933   */\n    tag_673:\n        /* \"#utility.yul\":3984:3991   */\n      dup8\n        /* \"#utility.yul\":3977:3981   */\n      0x20\n        /* \"#utility.yul\":3967:3973   */\n      dup3\n        /* \"#utility.yul\":3964:3965   */\n      0x05\n        /* \"#utility.yul\":3960:3974   */\n      shl\n        /* \"#utility.yul\":3956:3958   */\n      dup6\n        /* \"#utility.yul\":3952:3975   */\n      add\n        /* \"#utility.yul\":3948:3982   */\n      add\n        /* \"#utility.yul\":3945:3992   */\n      gt\n        /* \"#utility.yul\":3942:4009   */\n      iszero\n      tag_674\n      jumpi\n        /* \"#utility.yul\":4005:4006   */\n      0x00\n        /* \"#utility.yul\":4002:4003   */\n      dup1\n        /* \"#utility.yul\":3995:4007   */\n      revert\n        /* \"#utility.yul\":3942:4009   */\n    tag_674:\n        /* \"#utility.yul\":4036:4040   */\n      0x20\n        /* \"#utility.yul\":4028:4041   */\n      swap3\n      dup4\n      add\n      swap9\n        /* \"#utility.yul\":4060:4066   */\n      swap1\n      swap8\n      pop\n        /* \"#utility.yul\":4098:4118   */\n      swap6\n      swap1\n      swap2\n      add\n        /* \"#utility.yul\":4085:4119   */\n      calldataload\n      swap5\n        /* \"#utility.yul\":3436:4125   */\n      swap4\n      pop\n      pop\n      pop\n      pop\n      jump\t// out\n        /* \"#utility.yul\":4130:4371   */\n    tag_250:\n        /* \"#utility.yul\":4186:4192   */\n      0x00\n        /* \"#utility.yul\":4239:4241   */\n      0x20\n        /* \"#utility.yul\":4227:4236   */\n      dup3\n        /* \"#utility.yul\":4218:4225   */\n      dup5\n        /* \"#utility.yul\":4214:4237   */\n      sub\n        /* \"#utility.yul\":4210:4242   */\n      slt\n        /* \"#utility.yul\":4207:4259   */\n      iszero\n      tag_676\n      jumpi\n        /* \"#utility.yul\":4255:4256   */\n      0x00\n        /* \"#utility.yul\":4252:4253   */\n      dup1\n        /* \"#utility.yul\":4245:4257   */\n      revert\n        /* \"#utility.yul\":4207:4259   */\n    tag_676:\n        /* \"#utility.yul\":4294:4303   */\n      dup2\n        /* \"#utility.yul\":4281:4304   */\n      calldataload\n        /* \"#utility.yul\":4313:4341   */\n      tag_600\n        /* \"#utility.yul\":4335:4340   */\n      dup2\n        /* \"#utility.yul\":4313:4341   */\n      tag_637\n      jump\t// in\n        /* \"#utility.yul\":4376:4764   */\n    tag_279:\n        /* \"#utility.yul\":4444:4450   */\n      0x00\n        /* \"#utility.yul\":4452:4458   */\n      dup1\n        /* \"#utility.yul\":4505:4507   */\n      0x40\n        /* \"#utility.yul\":4493:4502   */\n      dup4\n        /* \"#utility.yul\":4484:4491   */\n      dup6\n        /* \"#utility.yul\":4480:4503   */\n      sub\n        /* \"#utility.yul\":4476:4508   */\n      slt\n        /* \"#utility.yul\":4473:4525   */\n      iszero\n      tag_679\n      jumpi\n        /* \"#utility.yul\":4521:4522   */\n      0x00\n        /* \"#utility.yul\":4518:4519   */\n      dup1\n        /* \"#utility.yul\":4511:4523   */\n      revert\n        /* \"#utility.yul\":4473:4525   */\n    tag_679:\n        /* \"#utility.yul\":4560:4569   */\n      dup3\n        /* \"#utility.yul\":4547:4570   */\n      calldataload\n        /* \"#utility.yul\":4579:4610   */\n      tag_680\n        /* \"#utility.yul\":4604:4609   */\n      dup2\n        /* \"#utility.yul\":4579:4610   */\n      tag_636\n      jump\t// in\n    tag_680:\n        /* \"#utility.yul\":4629:4634   */\n      swap2\n      pop\n        /* \"#utility.yul\":4686:4688   */\n      0x20\n        /* \"#utility.yul\":4671:4689   */\n      dup4\n      add\n        /* \"#utility.yul\":4658:4690   */\n      calldataload\n        /* \"#utility.yul\":4699:4732   */\n      tag_668\n        /* \"#utility.yul\":4658:4690   */\n      dup2\n        /* \"#utility.yul\":4699:4732   */\n      tag_636\n      jump\t// in\n        /* \"#utility.yul\":5171:5568   */\n    tag_323:\n        /* \"#utility.yul\":5373:5375   */\n      0x20\n        /* \"#utility.yul\":5355:5376   */\n      dup1\n      dup3\n      mstore\n        /* \"#utility.yul\":5412:5414   */\n      0x21\n        /* \"#utility.yul\":5392:5410   */\n      swap1\n      dup3\n      add\n        /* \"#utility.yul\":5385:5415   */\n      mstore\n        /* \"#utility.yul\":5451:5485   */\n      0x5461782070657263656e746167652063616e6e6f742065786365656420313030\n        /* \"#utility.yul\":5446:5448   */\n      0x40\n        /* \"#utility.yul\":5431:5449   */\n      dup3\n      add\n        /* \"#utility.yul\":5424:5486   */\n      mstore\n      shl(0xf8, 0x25)\n        /* \"#utility.yul\":5517:5519   */\n      0x60\n        /* \"#utility.yul\":5502:5520   */\n      dup3\n      add\n        /* \"#utility.yul\":5495:5526   */\n      mstore\n        /* \"#utility.yul\":5558:5561   */\n      0x80\n        /* \"#utility.yul\":5543:5562   */\n      add\n      swap1\n        /* \"#utility.yul\":5171:5568   */\n      jump\t// out\n        /* \"#utility.yul\":5981:6108   */\n    tag_638:\n        /* \"#utility.yul\":6042:6052   */\n      0x4e487b71\n        /* \"#utility.yul\":6037:6040   */\n      0xe0\n        /* \"#utility.yul\":6033:6053   */\n      shl\n        /* \"#utility.yul\":6030:6031   */\n      0x00\n        /* \"#utility.yul\":6023:6054   */\n      mstore\n        /* \"#utility.yul\":6073:6077   */\n      0x11\n        /* \"#utility.yul\":6070:6071   */\n      0x04\n        /* \"#utility.yul\":6063:6078   */\n      mstore\n        /* \"#utility.yul\":6097:6101   */\n      0x24\n        /* \"#utility.yul\":6094:6095   */\n      0x00\n        /* \"#utility.yul\":6087:6102   */\n      revert\n        /* \"#utility.yul\":6113:6238   */\n    tag_343:\n        /* \"#utility.yul\":6178:6187   */\n      dup1\n      dup3\n      add\n        /* \"#utility.yul\":6199:6209   */\n      dup1\n      dup3\n      gt\n        /* \"#utility.yul\":6196:6232   */\n      iszero\n      tag_303\n      jumpi\n        /* \"#utility.yul\":6212:6230   */\n      tag_303\n      tag_638\n      jump\t// in\n        /* \"#utility.yul\":6243:6411   */\n    tag_346:\n        /* \"#utility.yul\":6316:6325   */\n      dup1\n      dup3\n      mul\n        /* \"#utility.yul\":6347:6356   */\n      dup2\n      iszero\n        /* \"#utility.yul\":6364:6379   */\n      dup3\n      dup3\n      div\n        /* \"#utility.yul\":6358:6380   */\n      dup5\n      eq\n        /* \"#utility.yul\":6344:6381   */\n      or\n        /* \"#utility.yul\":6334:6405   */\n      tag_303\n      jumpi\n        /* \"#utility.yul\":6385:6403   */\n      tag_303\n      tag_638\n      jump\t// in\n        /* \"#utility.yul\":6416:6633   */\n    tag_348:\n        /* \"#utility.yul\":6456:6457   */\n      0x00\n        /* \"#utility.yul\":6482:6483   */\n      dup3\n        /* \"#utility.yul\":6472:6604   */\n      tag_693\n      jumpi\n        /* \"#utility.yul\":6526:6536   */\n      0x4e487b71\n        /* \"#utility.yul\":6521:6524   */\n      0xe0\n        /* \"#utility.yul\":6517:6537   */\n      shl\n        /* \"#utility.yul\":6514:6515   */\n      0x00\n        /* \"#utility.yul\":6507:6538   */\n      mstore\n        /* \"#utility.yul\":6561:6565   */\n      0x12\n        /* \"#utility.yul\":6558:6559   */\n      0x04\n        /* \"#utility.yul\":6551:6566   */\n      mstore\n        /* \"#utility.yul\":6589:6593   */\n      0x24\n        /* \"#utility.yul\":6586:6587   */\n      0x00\n        /* \"#utility.yul\":6579:6594   */\n      revert\n        /* \"#utility.yul\":6472:6604   */\n    tag_693:\n      pop\n        /* \"#utility.yul\":6618:6627   */\n      div\n      swap1\n        /* \"#utility.yul\":6416:6633   */\n      jump\t// out\n        /* \"#utility.yul\":7064:7191   */\n    tag_410:\n        /* \"#utility.yul\":7125:7135   */\n      0x4e487b71\n        /* \"#utility.yul\":7120:7123   */\n      0xe0\n        /* \"#utility.yul\":7116:7136   */\n      shl\n        /* \"#utility.yul\":7113:7114   */\n      0x00\n        /* \"#utility.yul\":7106:7137   */\n      mstore\n        /* \"#utility.yul\":7156:7160   */\n      0x32\n        /* \"#utility.yul\":7153:7154   */\n      0x04\n        /* \"#utility.yul\":7146:7161   */\n      mstore\n        /* \"#utility.yul\":7180:7184   */\n      0x24\n        /* \"#utility.yul\":7177:7178   */\n      0x00\n        /* \"#utility.yul\":7170:7185   */\n      revert\n        /* \"#utility.yul\":7196:7595   */\n    tag_414:\n        /* \"#utility.yul\":7398:7400   */\n      0x20\n        /* \"#utility.yul\":7380:7401   */\n      dup1\n      dup3\n      mstore\n        /* \"#utility.yul\":7437:7439   */\n      0x23\n        /* \"#utility.yul\":7417:7435   */\n      swap1\n      dup3\n      add\n        /* \"#utility.yul\":7410:7440   */\n      mstore\n        /* \"#utility.yul\":7476:7510   */\n      0x45524332303a207472616e7366657220746f20746865207a65726f2061646472\n        /* \"#utility.yul\":7471:7473   */\n      0x40\n        /* \"#utility.yul\":7456:7474   */\n      dup3\n      add\n        /* \"#utility.yul\":7449:7511   */\n      mstore\n      shl(0xe8, 0x657373)\n        /* \"#utility.yul\":7542:7544   */\n      0x60\n        /* \"#utility.yul\":7527:7545   */\n      dup3\n      add\n        /* \"#utility.yul\":7520:7553   */\n      mstore\n        /* \"#utility.yul\":7585:7588   */\n      0x80\n        /* \"#utility.yul\":7570:7589   */\n      add\n      swap1\n        /* \"#utility.yul\":7196:7595   */\n      jump\t// out\n        /* \"#utility.yul\":8023:8207   */\n    tag_441:\n        /* \"#utility.yul\":8093:8099   */\n      0x00\n        /* \"#utility.yul\":8146:8148   */\n      0x20\n        /* \"#utility.yul\":8134:8143   */\n      dup3\n        /* \"#utility.yul\":8125:8132   */\n      dup5\n        /* \"#utility.yul\":8121:8144   */\n      sub\n        /* \"#utility.yul\":8117:8149   */\n      slt\n        /* \"#utility.yul\":8114:8166   */\n      iszero\n      tag_699\n      jumpi\n        /* \"#utility.yul\":8162:8163   */\n      0x00\n        /* \"#utility.yul\":8159:8160   */\n      dup1\n        /* \"#utility.yul\":8152:8164   */\n      revert\n        /* \"#utility.yul\":8114:8166   */\n    tag_699:\n      pop\n        /* \"#utility.yul\":8185:8201   */\n      mload\n      swap2\n        /* \"#utility.yul\":8023:8207   */\n      swap1\n      pop\n      jump\t// out\n        /* \"#utility.yul\":8491:8736   */\n    tag_449:\n        /* \"#utility.yul\":8558:8564   */\n      0x00\n        /* \"#utility.yul\":8611:8613   */\n      0x20\n        /* \"#utility.yul\":8599:8608   */\n      dup3\n        /* \"#utility.yul\":8590:8597   */\n      dup5\n        /* \"#utility.yul\":8586:8609   */\n      sub\n        /* \"#utility.yul\":8582:8614   */\n      slt\n        /* \"#utility.yul\":8579:8631   */\n      iszero\n      tag_702\n      jumpi\n        /* \"#utility.yul\":8627:8628   */\n      0x00\n        /* \"#utility.yul\":8624:8625   */\n      dup1\n        /* \"#utility.yul\":8617:8629   */\n      revert\n        /* \"#utility.yul\":8579:8631   */\n    tag_702:\n        /* \"#utility.yul\":8659:8668   */\n      dup2\n        /* \"#utility.yul\":8653:8669   */\n      mload\n        /* \"#utility.yul\":8678:8706   */\n      tag_600\n        /* \"#utility.yul\":8700:8705   */\n      dup2\n        /* \"#utility.yul\":8678:8706   */\n      tag_637\n      jump\t// in\n        /* \"#utility.yul\":13605:13733   */\n    tag_554:\n        /* \"#utility.yul\":13672:13681   */\n      dup2\n      dup2\n      sub\n        /* \"#utility.yul\":13693:13704   */\n      dup2\n      dup2\n      gt\n        /* \"#utility.yul\":13690:13727   */\n      iszero\n      tag_303\n      jumpi\n        /* \"#utility.yul\":13707:13725   */\n      tag_303\n      tag_638\n      jump\t// in\n        /* \"#utility.yul\":15292:15543   */\n    tag_619:\n        /* \"#utility.yul\":15362:15368   */\n      0x00\n        /* \"#utility.yul\":15415:15417   */\n      0x20\n        /* \"#utility.yul\":15403:15412   */\n      dup3\n        /* \"#utility.yul\":15394:15401   */\n      dup5\n        /* \"#utility.yul\":15390:15413   */\n      sub\n        /* \"#utility.yul\":15386:15418   */\n      slt\n        /* \"#utility.yul\":15383:15435   */\n      iszero\n      tag_726\n      jumpi\n        /* \"#utility.yul\":15431:15432   */\n      0x00\n        /* \"#utility.yul\":15428:15429   */\n      dup1\n        /* \"#utility.yul\":15421:15433   */\n      revert\n        /* \"#utility.yul\":15383:15435   */\n    tag_726:\n        /* \"#utility.yul\":15463:15472   */\n      dup2\n        /* \"#utility.yul\":15457:15473   */\n      mload\n        /* \"#utility.yul\":15482:15513   */\n      tag_600\n        /* \"#utility.yul\":15507:15512   */\n      dup2\n        /* \"#utility.yul\":15482:15513   */\n      tag_636\n      jump\t// in\n        /* \"#utility.yul\":15548:16528   */\n    tag_624:\n        /* \"#utility.yul\":15810:15814   */\n      0x00\n        /* \"#utility.yul\":15858:15861   */\n      0xa0\n        /* \"#utility.yul\":15847:15856   */\n      dup3\n        /* \"#utility.yul\":15843:15862   */\n      add\n        /* \"#utility.yul\":15889:15895   */\n      dup8\n        /* \"#utility.yul\":15878:15887   */\n      dup4\n        /* \"#utility.yul\":15871:15896   */\n      mstore\n        /* \"#utility.yul\":15915:15917   */\n      0x20\n        /* \"#utility.yul\":15953:15959   */\n      dup8\n        /* \"#utility.yul\":15948:15950   */\n      dup2\n        /* \"#utility.yul\":15937:15946   */\n      dup6\n        /* \"#utility.yul\":15933:15951   */\n      add\n        /* \"#utility.yul\":15926:15960   */\n      mstore\n        /* \"#utility.yul\":15996:15999   */\n      0xa0\n        /* \"#utility.yul\":15991:15993   */\n      0x40\n        /* \"#utility.yul\":15980:15989   */\n      dup6\n        /* \"#utility.yul\":15976:15994   */\n      add\n        /* \"#utility.yul\":15969:16000   */\n      mstore\n        /* \"#utility.yul\":16020:16026   */\n      dup2\n        /* \"#utility.yul\":16055:16061   */\n      dup8\n        /* \"#utility.yul\":16049:16062   */\n      mload\n        /* \"#utility.yul\":16086:16092   */\n      dup1\n        /* \"#utility.yul\":16078:16084   */\n      dup5\n        /* \"#utility.yul\":16071:16093   */\n      mstore\n        /* \"#utility.yul\":16124:16127   */\n      0xc0\n        /* \"#utility.yul\":16113:16122   */\n      dup7\n        /* \"#utility.yul\":16109:16128   */\n      add\n        /* \"#utility.yul\":16102:16128   */\n      swap2\n      pop\n        /* \"#utility.yul\":16163:16165   */\n      dup3\n        /* \"#utility.yul\":16155:16161   */\n      dup10\n        /* \"#utility.yul\":16151:16166   */\n      add\n        /* \"#utility.yul\":16137:16166   */\n      swap4\n      pop\n        /* \"#utility.yul\":16184:16185   */\n      0x00\n        /* \"#utility.yul\":16194:16389   */\n    tag_729:\n        /* \"#utility.yul\":16208:16214   */\n      dup2\n        /* \"#utility.yul\":16205:16206   */\n      dup2\n        /* \"#utility.yul\":16202:16215   */\n      lt\n        /* \"#utility.yul\":16194:16389   */\n      iszero\n      tag_731\n      jumpi\n        /* \"#utility.yul\":16273:16286   */\n      dup5\n      mload\n      sub(shl(0xa0, 0x01), 0x01)\n        /* \"#utility.yul\":16269:16308   */\n      and\n        /* \"#utility.yul\":16257:16309   */\n      dup4\n      mstore\n        /* \"#utility.yul\":16364:16379   */\n      swap4\n      dup4\n      add\n      swap4\n        /* \"#utility.yul\":16329:16341   */\n      swap2\n      dup4\n      add\n      swap2\n        /* \"#utility.yul\":16305:16306   */\n      0x01\n        /* \"#utility.yul\":16223:16232   */\n      add\n        /* \"#utility.yul\":16194:16389   */\n      jump(tag_729)\n    tag_731:\n      pop\n      pop\n      sub(shl(0xa0, 0x01), 0x01)\n        /* \"#utility.yul\":16445:16477   */\n      swap7\n      swap1\n      swap7\n      and\n        /* \"#utility.yul\":16440:16442   */\n      0x60\n        /* \"#utility.yul\":16425:16443   */\n      dup6\n      add\n        /* \"#utility.yul\":16418:16478   */\n      mstore\n      pop\n      pop\n      pop\n        /* \"#utility.yul\":16509:16512   */\n      0x80\n        /* \"#utility.yul\":16494:16513   */\n      add\n        /* \"#utility.yul\":16487:16522   */\n      mstore\n        /* \"#utility.yul\":16406:16409   */\n      swap4\n        /* \"#utility.yul\":15548:16528   */\n      swap3\n      pop\n      pop\n      pop\n      jump\t// out\n        /* \"#utility.yul\":17145:17451   */\n    tag_635:\n        /* \"#utility.yul\":17233:17239   */\n      0x00\n        /* \"#utility.yul\":17241:17247   */\n      dup1\n        /* \"#utility.yul\":17249:17255   */\n      0x00\n        /* \"#utility.yul\":17302:17304   */\n      0x60\n        /* \"#utility.yul\":17290:17299   */\n      dup5\n        /* \"#utility.yul\":17281:17288   */\n      dup7\n        /* \"#utility.yul\":17277:17300   */\n      sub\n        /* \"#utility.yul\":17273:17305   */\n      slt\n        /* \"#utility.yul\":17270:17322   */\n      iszero\n      tag_734\n      jumpi\n        /* \"#utility.yul\":17318:17319   */\n      0x00\n        /* \"#utility.yul\":17315:17316   */\n      dup1\n        /* \"#utility.yul\":17308:17320   */\n      revert\n        /* \"#utility.yul\":17270:17322   */\n    tag_734:\n        /* \"#utility.yul\":17347:17356   */\n      dup4\n        /* \"#utility.yul\":17341:17357   */\n      mload\n        /* \"#utility.yul\":17331:17357   */\n      swap3\n      pop\n        /* \"#utility.yul\":17397:17399   */\n      0x20\n        /* \"#utility.yul\":17386:17395   */\n      dup5\n        /* \"#utility.yul\":17382:17400   */\n      add\n        /* \"#utility.yul\":17376:17401   */\n      mload\n        /* \"#utility.yul\":17366:17401   */\n      swap2\n      pop\n        /* \"#utility.yul\":17441:17443   */\n      0x40\n        /* \"#utility.yul\":17430:17439   */\n      dup5\n        /* \"#utility.yul\":17426:17444   */\n      add\n        /* \"#utility.yul\":17420:17445   */\n      mload\n        /* \"#utility.yul\":17410:17445   */\n      swap1\n      pop\n        /* \"#utility.yul\":17145:17451   */\n      swap3\n      pop\n      swap3\n      pop\n      swap3\n      jump\t// out\n\n    auxdata: 0xa2646970667358221220f3865be43cece3c425ff6e4e92569349a626ae68090a617740b19c25c7c1e58464736f6c63430008130033\n}\n",
				"bytecode": {
					"linkReferences": {},
					"object": "6080604052620000126012600a62000608565b62000023906461c9f368006200061d565b600155620000346012600a62000608565b62000044906301312d006200061d565b6002556001600a556103e8600d556103e8600e556103e8600f556103e86010556180e86011556180e86012556180e860135561c350601555601260ff16600a6200008f919062000608565b6200009d906103e86200061d565b6016556018805460ff60a81b1916600160a81b179055348015620000c057600080fd5b5060405162002a8938038062002a89833981016040819052620000e39162000654565b620000ee3362000377565b6001543360009081526003602090815260409182902092909255601780546001600160a01b03191673d99d1c33f9fc3444f8101754abc46c52416550d1908117909155815163c45a015560e01b815291519092839263c45a015592600480830193928290030181865afa1580156200016a573d6000803e3d6000fd5b505050506040513d601f19601f820116820180604052508101906200019091906200068c565b6001600160a01b031663c9c6539630836001600160a01b031663ad5c46486040518163ffffffff1660e01b8152600401602060405180830381865afa158015620001de573d6000803e3d6000fd5b505050506040513d601f19601f820116820180604052508101906200020491906200068c565b6040516001600160e01b031960e085901b1681526001600160a01b039283166004820152911660248201526044016020604051808303816000875af115801562000252573d6000803e3d6000fd5b505050506040513d601f19601f820116820180604052508101906200027891906200068c565b601880546001600160a01b0319166001600160a01b03928316179055601754620002a891339116600019620003c7565b601754620002c49030906001600160a01b0316600019620003c7565b6018546001600160a01b0390811660009081526006602090815260408083208054600160ff199182168117909255600b80546001600160a01b03199081168b891617909155600c80549091169689169690961790955530845260078352818420805486168217905533808552828520805490961682179095555490519081527fddf252ad1be2c89b69c2b068fc378daa952ba7f163c4a11628f55a4df523b3ef910160405180910390a3505050620006aa565b600080546001600160a01b038381166001600160a01b0319831681178455604051919092169283917f8be0079c531659141344cd1fd0a4f28419497f9722a3daafe3b4186f6b6457e09190a35050565b6001600160a01b0383166200042f5760405162461bcd60e51b8152602060048201526024808201527f45524332303a20617070726f76652066726f6d20746865207a65726f206164646044820152637265737360e01b60648201526084015b60405180910390fd5b6001600160a01b038216620004925760405162461bcd60e51b815260206004820152602260248201527f45524332303a20617070726f766520746f20746865207a65726f206164647265604482015261737360f01b606482015260840162000426565b6001600160a01b0383811660008181526004602090815260408083209487168084529482529182902085905590518481527f8c5be1e5ebec7d5bd14f71427d1e84f3dd0314c0f7b2291e5b200ac8c7c3b925910160405180910390a3505050565b634e487b7160e01b600052601160045260246000fd5b600181815b808511156200054a5781600019048211156200052e576200052e620004f3565b808516156200053c57918102915b93841c93908002906200050e565b509250929050565b600082620005635750600162000602565b81620005725750600062000602565b81600181146200058b57600281146200059657620005b6565b600191505062000602565b60ff841115620005aa57620005aa620004f3565b50506001821b62000602565b5060208310610133831016604e8410600b8410161715620005db575081810a62000602565b620005e7838362000509565b8060001904821115620005fe57620005fe620004f3565b0290505b92915050565b600062000616838362000552565b9392505050565b8082028115828204841417620006025762000602620004f3565b80516001600160a01b03811681146200064f57600080fd5b919050565b600080604083850312156200066857600080fd5b620006738362000637565b9150620006836020840162000637565b90509250929050565b6000602082840312156200069f57600080fd5b620006168262000637565b6123cf80620006ba6000396000f3fe6080604052600436106102df5760003560e01c80637f2e6ccb1161017e578063ba414b10116100d3578063dbac26e91161008f578063e59602fa1161006c578063e59602fa146108d2578063e6be4a72146108f2578063f2fde38b14610912578063f7e533371461093257005b8063dbac26e914610846578063dd3a1f7614610876578063dd62ed3e1461088c57005b8063ba414b10146107af578063c00f04d1146107cf578063c410ab5e146107ef578063c51abc5914610805578063ce831ed51461081b578063d8020a181461083057005b80639ec4be411161013a578063a9059cbb11610117578063a9059cbb14610729578063aaa00b9914610749578063b62496f51461075f578063b7925f7a1461078f57005b80639ec4be41146106d3578063a562564a146106f3578063a56d37f91461070957005b80637f2e6ccb146106475780638d38a1271461065d5780638da5cb5b146106755780638ea5220f1461069357806395d89b411461031b5780639a7a23d6146106b357005b80634fe47f70116102345780636dbff43b116101f0578063715018a6116101cd578063715018a6146105c857806375f0a874146105dd578063768dc710146105fd5780637aab5d9b1461062d57005b80636dbff43b146105515780636ddd17131461057157806370a082311461059257005b80634fe47f70146104af578063549fb8bf146104cf5780635d098b38146104e55780635f48f393146105055780636612e66f1461051b57806367b34e011461053b57005b806318160ddd1161029b5780632d4ed650116102785780632d4ed6501461043d5780633048a2811461045d578063313ce567146104735780634bf28fd01461048f57005b806318160ddd146103de5780631f53ac02146103fd57806323b872dd1461041d57005b806303fd2a45146102e857806306fdde031461031b57806307a212be1461034d578063095ea7b31461036d5780631694505e1461039d5780631732cded146103bd57005b366102e657005b005b3480156102f457600080fd5b506102fe61dead81565b6040516001600160a01b0390911681526020015b60405180910390f35b34801561032757600080fd5b5060408051808201825260038152622c2cad60e91b602082015290516103129190611f85565b34801561035957600080fd5b506102e6610368366004611fd3565b610948565b34801561037957600080fd5b5061038d610388366004612001565b610955565b6040519015158152602001610312565b3480156103a957600080fd5b506017546102fe906001600160a01b031681565b3480156103c957600080fd5b5060185461038d90600160a01b900460ff1681565b3480156103ea57600080fd5b506001545b604051908152602001610312565b34801561040957600080fd5b506102e661041836600461202d565b61096c565b34801561042957600080fd5b5061038d61043836600461204a565b6109fb565b34801561044957600080fd5b506102e6610458366004611fd3565b610a1f565b34801561046957600080fd5b506103ef60105481565b34801561047f57600080fd5b5060405160128152602001610312565b34801561049b57600080fd5b506018546102fe906001600160a01b031681565b3480156104bb57600080fd5b506102e66104ca366004611fd3565b610a4f565b3480156104db57600080fd5b506103ef600f5481565b3480156104f157600080fd5b506102e661050036600461202d565b610a5c565b34801561051157600080fd5b506103ef60025481565b34801561052757600080fd5b506102e6610536366004612099565b610aec565b34801561054757600080fd5b506103ef60165481565b34801561055d57600080fd5b506102e661056c366004611fd3565b610b1f565b34801561057d57600080fd5b5060185461038d90600160a81b900460ff1681565b34801561059e57600080fd5b506103ef6105ad36600461202d565b6001600160a01b031660009081526003602052604090205490565b3480156105d457600080fd5b506102e6610bcf565b3480156105e957600080fd5b50600b546102fe906001600160a01b031681565b34801561060957600080fd5b5061038d61061836600461202d565b60076020526000908152604090205460ff1681565b34801561063957600080fd5b5060085461038d9060ff1681565b34801561065357600080fd5b506103ef60145481565b34801561066957600080fd5b5060085460ff1661038d565b34801561068157600080fd5b506000546001600160a01b03166102fe565b34801561069f57600080fd5b50600c546102fe906001600160a01b031681565b3480156106bf57600080fd5b506102e66106ce366004612099565b610be3565b3480156106df57600080fd5b506102e66106ee366004611fd3565b610c97565b3480156106ff57600080fd5b506103ef600e5481565b34801561071557600080fd5b506102e6610724366004611fd3565b610cd8565b34801561073557600080fd5b5061038d610744366004612001565b610d18565b34801561075557600080fd5b506103ef60125481565b34801561076b57600080fd5b5061038d61077a36600461202d565b60066020526000908152604090205460ff1681565b34801561079b57600080fd5b506102e66107aa366004611fd3565b610d30565b3480156107bb57600080fd5b506102e66107ca3660046120d2565b610d3d565b3480156107db57600080fd5b506102e66107ea36600461214d565b610dc8565b3480156107fb57600080fd5b506103ef600d5481565b34801561081157600080fd5b506103ef600a5481565b34801561082757600080fd5b506102e6610de3565b34801561083c57600080fd5b506103ef60155481565b34801561085257600080fd5b5061038d61086136600461202d565b60056020526000908152604090205460ff1681565b34801561088257600080fd5b506103ef60135481565b34801561089857600080fd5b506103ef6108a736600461216a565b6001600160a01b03918216600090815260046020908152604080832093909416825291909152205490565b3480156108de57600080fd5b506102e66108ed366004611fd3565b610e1a565b3480156108fe57600080fd5b506102e661090d366004612001565b610e4a565b34801561091e57600080fd5b506102e661092d36600461202d565b611008565b34801561093e57600080fd5b506103ef60115481565b61095061107e565b601655565b60006109623384846110d8565b5060015b92915050565b61097461107e565b6001600160a01b0381166109d95760405162461bcd60e51b815260206004820152602160248201527f4465762077616c6c65742063616e6e6f74206265207a65726f206164647265736044820152607360f81b60648201526084015b60405180910390fd5b600c80546001600160a01b0319166001600160a01b0392909216919091179055565b600033610a098582856111fd565b610a1485858561128f565b506001949350505050565b610a2761107e565b620186a0811115610a4a5760405162461bcd60e51b81526004016109d090612198565b601555565b610a5761107e565b600255565b610a6461107e565b6001600160a01b038116610aca5760405162461bcd60e51b815260206004820152602760248201527f4d61726b6574696e672077616c6c65742063616e6e6f74206265207a65726f206044820152666164647265737360c81b60648201526084016109d0565b600b80546001600160a01b0319166001600160a01b0392909216919091179055565b610af461107e565b6001600160a01b03919091166000908152600760205260409020805460ff1916911515919091179055565b610b2761107e565b620186a0811115610b4a5760405162461bcd60e51b81526004016109d090612198565b600f819055600e54600d548291610b60916121ef565b610b6a91906121ef565b6014819055600d54610b7f90620186a0612202565b610b899190612219565b601155601454600e54610b9f90620186a0612202565b610ba99190612219565b601255601454600f54610bbf90620186a0612202565b610bc99190612219565b60135550565b610bd761107e565b610be160006118fa565b565b610beb61107e565b6018546001600160a01b0390811690831603610c6f5760405162461bcd60e51b815260206004820152603960248201527f54686520706169722063616e6e6f742062652072656d6f7665642066726f6d2060448201527f6175746f6d617465644d61726b65744d616b657250616972730000000000000060648201526084016109d0565b6001600160a01b0382166000908152600660205260409020805460ff19168215151790555050565b610c9f61107e565b620186a0811115610cc25760405162461bcd60e51b81526004016109d090612198565b600e819055600f54600d54610b609083906121ef565b610ce061107e565b620186a0811115610d035760405162461bcd60e51b81526004016109d090612198565b600d819055600f54600e54610b6090836121ef565b600033610d2681858561128f565b5060019392505050565b610d3861107e565b600a55565b610d4561107e565b600080546001600160a01b0316905b83811015610dc1576000858583818110610d7057610d7061223b565b9050602002016020810190610d85919061202d565b90506001600160a01b038116610dad5760405162461bcd60e51b81526004016109d090612251565b610db883828661194a565b50600101610d54565b5050505050565b610dd061107e565b6008805460ff1916911515919091179055565b610deb61107e565b60405133904780156108fc02916000818181858888f19350505050158015610e17573d6000803e3d6000fd5b50565b610e2261107e565b620186a0811115610e455760405162461bcd60e51b81526004016109d090612198565b601055565b610e5261107e565b306001600160a01b03831603610ec95760405162461bcd60e51b815260206004820152603660248201527f4f776e65722063616e277420636c61696d20636f6e747261637427732062616c604482015275616e6365206f6620697473206f776e20746f6b656e7360501b60648201526084016109d0565b6040516370a0823160e01b81523060048201526000906001600160a01b038416906370a0823190602401602060405180830381865afa158015610f10573d6000803e3d6000fd5b505050506040513d601f19601f82011682018060405250810190610f349190612294565b90506000620186a0610f468484612202565b610f509190612219565b60405163a9059cbb60e01b8152336004820152602481018290529091506000906001600160a01b0386169063a9059cbb906044016020604051808303816000875af1158015610fa3573d6000803e3d6000fd5b505050506040513d601f19601f82011682018060405250810190610fc791906122ad565b905080610dc15760405162461bcd60e51b815260206004820152600f60248201526e151c985b9cd9995c8819985a5b1959608a1b60448201526064016109d0565b61101061107e565b6001600160a01b0381166110755760405162461bcd60e51b815260206004820152602660248201527f4f776e61626c653a206e6577206f776e657220697320746865207a65726f206160448201526564647265737360d01b60648201526084016109d0565b610e17816118fa565b6000546001600160a01b03163314610be15760405162461bcd60e51b815260206004820181905260248201527f4f776e61626c653a2063616c6c6572206973206e6f7420746865206f776e657260448201526064016109d0565b6001600160a01b03831661113a5760405162461bcd60e51b8152602060048201526024808201527f45524332303a20617070726f76652066726f6d20746865207a65726f206164646044820152637265737360e01b60648201526084016109d0565b6001600160a01b03821661119b5760405162461bcd60e51b815260206004820152602260248201527f45524332303a20617070726f766520746f20746865207a65726f206164647265604482015261737360f01b60648201526084016109d0565b6001600160a01b0383811660008181526004602090815260408083209487168084529482529182902085905590518481527f8c5be1e5ebec7d5bd14f71427d1e84f3dd0314c0f7b2291e5b200ac8c7c3b92591015b60405180910390a3505050565b6001600160a01b038381166000908152600460209081526040808320938616835292905220546000198114611289578181101561127c5760405162461bcd60e51b815260206004820152601d60248201527f45524332303a20696e73756666696369656e7420616c6c6f77616e636500000060448201526064016109d0565b61128984848484036110d8565b50505050565b6001600160a01b0383166112f35760405162461bcd60e51b815260206004820152602560248201527f45524332303a207472616e736665722066726f6d20746865207a65726f206164604482015264647265737360d81b60648201526084016109d0565b6001600160a01b0382166113195760405162461bcd60e51b81526004016109d090612251565b6000811161137b5760405162461bcd60e51b815260206004820152602960248201527f5472616e7366657220616d6f756e74206d7573742062652067726561746572206044820152687468616e207a65726f60b81b60648201526084016109d0565b6001600160a01b03831660009081526005602052604090205460ff16156113dc5760405162461bcd60e51b815260206004820152601560248201527414d95b99195c881a5cc8189b1858dadb1a5cdd1959605a1b60448201526064016109d0565b6001600160a01b03821660009081526005602052604090205460ff16156114455760405162461bcd60e51b815260206004820152601860248201527f526563697069656e7420697320626c61636b6c6973746564000000000000000060448201526064016109d0565b6000546001600160a01b038481169116148061146e57506000546001600160a01b038381169116145b8061148157506001600160a01b03831630145b156114bd576009541580156114a357506018546001600160a01b038381169116145b156114ad57436009555b6114b883838361194a565b505050565b60085460ff166115055760405162461bcd60e51b8152602060048201526013602482015272151c98591a5b99c81a5cc8191a5cd8589b1959606a1b60448201526064016109d0565b600a5460095461151591906121ef565b431161154157506001600160a01b03166000908152600560205260409020805460ff1916600117905550565b6018546001600160a01b03848116918116918214919084161460008080808061157f306001600160a01b031660009081526003602052604090205490565b60165460188054600160b01b92841015830260ff60b01b199091161790819055919250900460ff1680156115bc5750601854600160a81b900460ff165b80156115d25750601854600160a01b900460ff16155b80156115f757506001600160a01b038a1660009081526006602052604090205460ff16155b801561161c57506001600160a01b038a1660009081526007602052604090205460ff16155b801561164157506001600160a01b03891660009081526007602052604090205460ff16155b1561166f576018805460ff60a01b1916600160a01b179055611661611a30565b6018805460ff60a01b191690555b6018546001600160a01b038b1660009081526007602052604090205460ff600160a01b9092048216159116806116bd57506001600160a01b038a1660009081526007602052604090205460ff165b156116c6575060005b600081156118e1576001600160a01b038c1660009081526006602052604090205460ff1680156116f35750885b156117d3576001600160a01b038b1660009081526007602052604090205460ff166117b7576002548a111561176a5760405162461bcd60e51b815260206004820152601e60248201527f43616e6e6f7420627579206d6f7265207468616e206d6178206c696d6974000060448201526064016109d0565b6117768a600d54611c24565b94506117848a600f54611c24565b96506117928a601054611c24565b955061179f8c308961194a565b6117aa8c308761194a565b6117b78c61dead88611c45565b856117c288876121ef565b6117cc91906121ef565b90506118d4565b6001600160a01b038b1660009081526006602052604090205460ff1680156117f85750875b156118d4576001600160a01b038c1660009081526007602052604090205460ff166118bc576002548a111561186f5760405162461bcd60e51b815260206004820152601f60248201527f43616e6e6f742073656c6c206d6f7265207468616e206d6178206c696d69740060448201526064016109d0565b61187b8a600e54611c24565b93506118898a600f54611c24565b96506118978a601054611c24565b95506118a48c308661194a565b6118af8c308961194a565b6118bc8c61dead88611c45565b856118c788866121ef565b6118d191906121ef565b90505b6118de818b6122ca565b99505b6118ec8c8c8c61194a565b505050505050505050505050565b600080546001600160a01b038381166001600160a01b0319831681178455604051919092169283917f8be0079c531659141344cd1fd0a4f28419497f9722a3daafe3b4186f6b6457e09190a35050565b6001600160a01b038316600090815260036020526040902054818110156119c25760405162461bcd60e51b815260206004820152602660248201527f45524332303a207472616e7366657220616d6f756e7420657863656564732062604482015265616c616e636560d01b60648201526084016109d0565b6001600160a01b0380851660008181526003602052604080822086860390559286168082529083902080548601905591517fddf252ad1be2c89b69c2b068fc378daa952ba7f163c4a11628f55a4df523b3ef90611a229086815260200190565b60405180910390a350505050565b306000908152600360205260409020546016548110610e1757600062030d4060135483611a5d9190612202565b611a679190612219565b9050600081620186a060135485611a7e9190612202565b611a889190612219565b611a9291906122ca565b90506000611aa083856122ca565b905047611aac82611d81565b6000611ab882476122ca565b90506000806000620186a060115485611ad19190612202565b611adb9190612219565b90506000620186a060125486611af19190612202565b611afb9190612219565b90506000611b0982846121ef565b905081611b1684886122ca565b611b2091906122ca565b95506000620186a060155483611b369190612202565b611b409190612219565b90506000611b4e82846122ca565b600b546040519192506001600160a01b0316906188b89084906000818181858888f193505050503d8060008114611ba1576040519150601f19603f3d011682016040523d82523d6000602084013e611ba6565b606091505b5050600c546040519198506001600160a01b0316906188b89083906000818181858888f193505050503d8060008114611bfb576040519150601f19603f3d011682016040523d82523d6000602084013e611c00565b606091505b50909650508715611c1557611c158b89611edb565b50505050505050505050505050565b6000620186a0611c348385612202565b611c3e9190612219565b9392505050565b6001600160a01b038316611ca55760405162461bcd60e51b815260206004820152602160248201527f45524332303a206275726e2066726f6d20746865207a65726f206164647265736044820152607360f81b60648201526084016109d0565b6001600160a01b038316600090815260036020526040902054811115611d185760405162461bcd60e51b815260206004820152602260248201527f45524332303a206275726e20616d6f756e7420657863656564732062616c616e604482015261636560f01b60648201526084016109d0565b6001600160a01b0380841660008181526003602052604080822080548690039055928516815282812080548501905560018054859003905591517fddf252ad1be2c89b69c2b068fc378daa952ba7f163c4a11628f55a4df523b3ef906111f09085815260200190565b6040805160028082526060820183526000926020830190803683370190505090503081600081518110611db657611db661223b565b6001600160a01b03928316602091820292909201810191909152601754604080516315ab88c960e31b81529051919093169263ad5c46489260048083019391928290030181865afa158015611e0f573d6000803e3d6000fd5b505050506040513d601f19601f82011682018060405250810190611e3391906122dd565b81600181518110611e4657611e4661223b565b6001600160a01b039283166020918202929092010152601754611e6c91309116846110d8565b60175460405163791ac94760e01b81526001600160a01b039091169063791ac94790611ea59085906000908690309042906004016122fa565b600060405180830381600087803b158015611ebf57600080fd5b505af1158015611ed3573d6000803e3d6000fd5b505050505050565b601754611ef39030906001600160a01b0316846110d8565b60175460405163f305d71960e01b8152306004820181905260248201859052600060448301819052606483015260848201524260a48201526001600160a01b039091169063f305d71990839060c40160606040518083038185885af1158015611f60573d6000803e3d6000fd5b50505050506040513d601f19601f82011682018060405250810190610dc1919061236b565b600060208083528351808285015260005b81811015611fb257858101830151858201604001528201611f96565b506000604082860101526040601f19601f8301168501019250505092915050565b600060208284031215611fe557600080fd5b5035919050565b6001600160a01b0381168114610e1757600080fd5b6000806040838503121561201457600080fd5b823561201f81611fec565b946020939093013593505050565b60006020828403121561203f57600080fd5b8135611c3e81611fec565b60008060006060848603121561205f57600080fd5b833561206a81611fec565b9250602084013561207a81611fec565b929592945050506040919091013590565b8015158114610e1757600080fd5b600080604083850312156120ac57600080fd5b82356120b781611fec565b915060208301356120c78161208b565b809150509250929050565b6000806000604084860312156120e757600080fd5b833567ffffffffffffffff808211156120ff57600080fd5b818601915086601f83011261211357600080fd5b81358181111561212257600080fd5b8760208260051b850101111561213757600080fd5b6020928301989097509590910135949350505050565b60006020828403121561215f57600080fd5b8135611c3e8161208b565b6000806040838503121561217d57600080fd5b823561218881611fec565b915060208301356120c781611fec565b60208082526021908201527f5461782070657263656e746167652063616e6e6f7420657863656564203130306040820152602560f81b606082015260800190565b634e487b7160e01b600052601160045260246000fd5b80820180821115610966576109666121d9565b8082028115828204841417610966576109666121d9565b60008261223657634e487b7160e01b600052601260045260246000fd5b500490565b634e487b7160e01b600052603260045260246000fd5b60208082526023908201527f45524332303a207472616e7366657220746f20746865207a65726f206164647260408201526265737360e81b606082015260800190565b6000602082840312156122a657600080fd5b5051919050565b6000602082840312156122bf57600080fd5b8151611c3e8161208b565b81810381811115610966576109666121d9565b6000602082840312156122ef57600080fd5b8151611c3e81611fec565b600060a082018783526020878185015260a0604085015281875180845260c086019150828901935060005b8181101561234a5784516001600160a01b031683529383019391830191600101612325565b50506001600160a01b03969096166060850152505050608001529392505050565b60008060006060848603121561238057600080fd5b835192506020840151915060408401519050925092509256fea2646970667358221220f3865be43cece3c425ff6e4e92569349a626ae68090a617740b19c25c7c1e58464736f6c63430008130033",
					"opcodes": "PUSH1 0x80 PUSH1 0x40 MSTORE PUSH3 0x12 PUSH1 0x12 PUSH1 0xA PUSH3 0x608 JUMP JUMPDEST PUSH3 0x23 SWAP1 PUSH5 0x61C9F36800 PUSH3 0x61D JUMP JUMPDEST PUSH1 0x1 SSTORE PUSH3 0x34 PUSH1 0x12 PUSH1 0xA PUSH3 0x608 JUMP JUMPDEST PUSH3 0x44 SWAP1 PUSH4 0x1312D00 PUSH3 0x61D JUMP JUMPDEST PUSH1 0x2 SSTORE PUSH1 0x1 PUSH1 0xA SSTORE PUSH2 0x3E8 PUSH1 0xD SSTORE PUSH2 0x3E8 PUSH1 0xE SSTORE PUSH2 0x3E8 PUSH1 0xF SSTORE PUSH2 0x3E8 PUSH1 0x10 SSTORE PUSH2 0x80E8 PUSH1 0x11 SSTORE PUSH2 0x80E8 PUSH1 0x12 SSTORE PUSH2 0x80E8 PUSH1 0x13 SSTORE PUSH2 0xC350 PUSH1 0x15 SSTORE PUSH1 0x12 PUSH1 0xFF AND PUSH1 0xA PUSH3 0x8F SWAP2 SWAP1 PUSH3 0x608 JUMP JUMPDEST PUSH3 0x9D SWAP1 PUSH2 0x3E8 PUSH3 0x61D JUMP JUMPDEST PUSH1 0x16 SSTORE PUSH1 0x18 DUP1 SLOAD PUSH1 0xFF PUSH1 0xA8 SHL NOT AND PUSH1 0x1 PUSH1 0xA8 SHL OR SWAP1 SSTORE CALLVALUE DUP1 ISZERO PUSH3 0xC0 JUMPI PUSH1 0x0 DUP1 REVERT JUMPDEST POP PUSH1 0x40 MLOAD PUSH3 0x2A89 CODESIZE SUB DUP1 PUSH3 0x2A89 DUP4 CODECOPY DUP2 ADD PUSH1 0x40 DUP2 SWAP1 MSTORE PUSH3 0xE3 SWAP2 PUSH3 0x654 JUMP JUMPDEST PUSH3 0xEE CALLER PUSH3 0x377 JUMP JUMPDEST PUSH1 0x1 SLOAD CALLER PUSH1 0x0 SWAP1 DUP2 MSTORE PUSH1 0x3 PUSH1 0x20 SWAP1 DUP2 MSTORE PUSH1 0x40 SWAP2 DUP3 SWAP1 KECCAK256 SWAP3 SWAP1 SWAP3 SSTORE PUSH1 0x17 DUP1 SLOAD PUSH1 0x1 PUSH1 0x1 PUSH1 0xA0 SHL SUB NOT AND PUSH20 0xD99D1C33F9FC3444F8101754ABC46C52416550D1 SWAP1 DUP2 OR SWAP1 SWAP2 SSTORE DUP2 MLOAD PUSH4 0xC45A0155 PUSH1 0xE0 SHL DUP2 MSTORE SWAP2 MLOAD SWAP1 SWAP3 DUP4 SWAP3 PUSH4 0xC45A0155 SWAP3 PUSH1 0x4 DUP1 DUP4 ADD SWAP4 SWAP3 DUP3 SWAP1 SUB ADD DUP2 DUP7 GAS STATICCALL ISZERO DUP1 ISZERO PUSH3 0x16A JUMPI RETURNDATASIZE PUSH1 0x0 DUP1 RETURNDATACOPY RETURNDATASIZE PUSH1 0x0 REVERT JUMPDEST POP POP POP POP PUSH1 0x40 MLOAD RETURNDATASIZE PUSH1 0x1F NOT PUSH1 0x1F DUP3 ADD AND DUP3 ADD DUP1 PUSH1 0x40 MSTORE POP DUP2 ADD SWAP1 PUSH3 0x190 SWAP2 SWAP1 PUSH3 0x68C JUMP JUMPDEST PUSH1 0x1 PUSH1 0x1 PUSH1 0xA0 SHL SUB AND PUSH4 0xC9C65396 ADDRESS DUP4 PUSH1 0x1 PUSH1 0x1 PUSH1 0xA0 SHL SUB AND PUSH4 0xAD5C4648 PUSH1 0x40 MLOAD DUP2 PUSH4 0xFFFFFFFF AND PUSH1 0xE0 SHL DUP2 MSTORE PUSH1 0x4 ADD PUSH1 0x20 PUSH1 0x40 MLOAD DUP1 DUP4 SUB DUP2 DUP7 GAS STATICCALL ISZERO DUP1 ISZERO PUSH3 0x1DE JUMPI RETURNDATASIZE PUSH1 0x0 DUP1 RETURNDATACOPY RETURNDATASIZE PUSH1 0x0 REVERT JUMPDEST POP POP POP POP PUSH1 0x40 MLOAD RETURNDATASIZE PUSH1 0x1F NOT PUSH1 0x1F DUP3 ADD AND DUP3 ADD DUP1 PUSH1 0x40 MSTORE POP DUP2 ADD SWAP1 PUSH3 0x204 SWAP2 SWAP1 PUSH3 0x68C JUMP JUMPDEST PUSH1 0x40 MLOAD PUSH1 0x1 PUSH1 0x1 PUSH1 0xE0 SHL SUB NOT PUSH1 0xE0 DUP6 SWAP1 SHL AND DUP2 MSTORE PUSH1 0x1 PUSH1 0x1 PUSH1 0xA0 SHL SUB SWAP3 DUP4 AND PUSH1 0x4 DUP3 ADD MSTORE SWAP2 AND PUSH1 0x24 DUP3 ADD MSTORE PUSH1 0x44 ADD PUSH1 0x20 PUSH1 0x40 MLOAD DUP1 DUP4 SUB DUP2 PUSH1 0x0 DUP8 GAS CALL ISZERO DUP1 ISZERO PUSH3 0x252 JUMPI RETURNDATASIZE PUSH1 0x0 DUP1 RETURNDATACOPY RETURNDATASIZE PUSH1 0x0 REVERT JUMPDEST POP POP POP POP PUSH1 0x40 MLOAD RETURNDATASIZE PUSH1 0x1F NOT PUSH1 0x1F DUP3 ADD AND DUP3 ADD DUP1 PUSH1 0x40 MSTORE POP DUP2 ADD SWAP1 PUSH3 0x278 SWAP2 SWAP1 PUSH3 0x68C JUMP JUMPDEST PUSH1 0x18 DUP1 SLOAD PUSH1 0x1 PUSH1 0x1 PUSH1 0xA0 SHL SUB NOT AND PUSH1 0x1 PUSH1 0x1 PUSH1 0xA0 SHL SUB SWAP3 DUP4 AND OR SWAP1 SSTORE PUSH1 0x17 SLOAD PUSH3 0x2A8 SWAP2 CALLER SWAP2 AND PUSH1 0x0 NOT PUSH3 0x3C7 JUMP JUMPDEST PUSH1 0x17 SLOAD PUSH3 0x2C4 SWAP1 ADDRESS SWAP1 PUSH1 0x1 PUSH1 0x1 PUSH1 0xA0 SHL SUB AND PUSH1 0x0 NOT PUSH3 0x3C7 JUMP JUMPDEST PUSH1 0x18 SLOAD PUSH1 0x1 PUSH1 0x1 PUSH1 0xA0 SHL SUB SWAP1 DUP2 AND PUSH1 0x0 SWAP1 DUP2 MSTORE PUSH1 0x6 PUSH1 0x20 SWAP1 DUP2 MSTORE PUSH1 0x40 DUP1 DUP4 KECCAK256 DUP1 SLOAD PUSH1 0x1 PUSH1 0xFF NOT SWAP2 DUP3 AND DUP2 OR SWAP1 SWAP3 SSTORE PUSH1 0xB DUP1 SLOAD PUSH1 0x1 PUSH1 0x1 PUSH1 0xA0 SHL SUB NOT SWAP1 DUP2 AND DUP12 DUP10 AND OR SWAP1 SWAP2 SSTORE PUSH1 0xC DUP1 SLOAD SWAP1 SWAP2 AND SWAP7 DUP10 AND SWAP7 SWAP1 SWAP7 OR SWAP1 SWAP6 SSTORE ADDRESS DUP5 MSTORE PUSH1 0x7 DUP4 MSTORE DUP2 DUP5 KECCAK256 DUP1 SLOAD DUP7 AND DUP3 OR SWAP1 SSTORE CALLER DUP1 DUP6 MSTORE DUP3 DUP6 KECCAK256 DUP1 SLOAD SWAP1 SWAP7 AND DUP3 OR SWAP1 SWAP6 SSTORE SLOAD SWAP1 MLOAD SWAP1 DUP2 MSTORE PUSH32 0xDDF252AD1BE2C89B69C2B068FC378DAA952BA7F163C4A11628F55A4DF523B3EF SWAP2 ADD PUSH1 0x40 MLOAD DUP1 SWAP2 SUB SWAP1 LOG3 POP POP POP PUSH3 0x6AA JUMP JUMPDEST PUSH1 0x0 DUP1 SLOAD PUSH1 0x1 PUSH1 0x1 PUSH1 0xA0 SHL SUB DUP4 DUP2 AND PUSH1 0x1 PUSH1 0x1 PUSH1 0xA0 SHL SUB NOT DUP4 AND DUP2 OR DUP5 SSTORE PUSH1 0x40 MLOAD SWAP2 SWAP1 SWAP3 AND SWAP3 DUP4 SWAP2 PUSH32 0x8BE0079C531659141344CD1FD0A4F28419497F9722A3DAAFE3B4186F6B6457E0 SWAP2 SWAP1 LOG3 POP POP JUMP JUMPDEST PUSH1 0x1 PUSH1 0x1 PUSH1 0xA0 SHL SUB DUP4 AND PUSH3 0x42F JUMPI PUSH1 0x40 MLOAD PUSH3 0x461BCD PUSH1 0xE5 SHL DUP2 MSTORE PUSH1 0x20 PUSH1 0x4 DUP3 ADD MSTORE PUSH1 0x24 DUP1 DUP3 ADD MSTORE PUSH32 0x45524332303A20617070726F76652066726F6D20746865207A65726F20616464 PUSH1 0x44 DUP3 ADD MSTORE PUSH4 0x72657373 PUSH1 0xE0 SHL PUSH1 0x64 DUP3 ADD MSTORE PUSH1 0x84 ADD JUMPDEST PUSH1 0x40 MLOAD DUP1 SWAP2 SUB SWAP1 REVERT JUMPDEST PUSH1 0x1 PUSH1 0x1 PUSH1 0xA0 SHL SUB DUP3 AND PUSH3 0x492 JUMPI PUSH1 0x40 MLOAD PUSH3 0x461BCD PUSH1 0xE5 SHL DUP2 MSTORE PUSH1 0x20 PUSH1 0x4 DUP3 ADD MSTORE PUSH1 0x22 PUSH1 0x24 DUP3 ADD MSTORE PUSH32 0x45524332303A20617070726F766520746F20746865207A65726F206164647265 PUSH1 0x44 DUP3 ADD MSTORE PUSH2 0x7373 PUSH1 0xF0 SHL PUSH1 0x64 DUP3 ADD MSTORE PUSH1 0x84 ADD PUSH3 0x426 JUMP JUMPDEST PUSH1 0x1 PUSH1 0x1 PUSH1 0xA0 SHL SUB DUP4 DUP2 AND PUSH1 0x0 DUP2 DUP2 MSTORE PUSH1 0x4 PUSH1 0x20 SWAP1 DUP2 MSTORE PUSH1 0x40 DUP1 DUP4 KECCAK256 SWAP5 DUP8 AND DUP1 DUP5 MSTORE SWAP5 DUP3 MSTORE SWAP2 DUP3 SWAP1 KECCAK256 DUP6 SWAP1 SSTORE SWAP1 MLOAD DUP5 DUP2 MSTORE PUSH32 0x8C5BE1E5EBEC7D5BD14F71427D1E84F3DD0314C0F7B2291E5B200AC8C7C3B925 SWAP2 ADD PUSH1 0x40 MLOAD DUP1 SWAP2 SUB SWAP1 LOG3 POP POP POP JUMP JUMPDEST PUSH4 0x4E487B71 PUSH1 0xE0 SHL PUSH1 0x0 MSTORE PUSH1 0x11 PUSH1 0x4 MSTORE PUSH1 0x24 PUSH1 0x0 REVERT JUMPDEST PUSH1 0x1 DUP2 DUP2 JUMPDEST DUP1 DUP6 GT ISZERO PUSH3 0x54A JUMPI DUP2 PUSH1 0x0 NOT DIV DUP3 GT ISZERO PUSH3 0x52E JUMPI PUSH3 0x52E PUSH3 0x4F3 JUMP JUMPDEST DUP1 DUP6 AND ISZERO PUSH3 0x53C JUMPI SWAP2 DUP2 MUL SWAP2 JUMPDEST SWAP4 DUP5 SHR SWAP4 SWAP1 DUP1 MUL SWAP1 PUSH3 0x50E JUMP JUMPDEST POP SWAP3 POP SWAP3 SWAP1 POP JUMP JUMPDEST PUSH1 0x0 DUP3 PUSH3 0x563 JUMPI POP PUSH1 0x1 PUSH3 0x602 JUMP JUMPDEST DUP2 PUSH3 0x572 JUMPI POP PUSH1 0x0 PUSH3 0x602 JUMP JUMPDEST DUP2 PUSH1 0x1 DUP2 EQ PUSH3 0x58B JUMPI PUSH1 0x2 DUP2 EQ PUSH3 0x596 JUMPI PUSH3 0x5B6 JUMP JUMPDEST PUSH1 0x1 SWAP2 POP POP PUSH3 0x602 JUMP JUMPDEST PUSH1 0xFF DUP5 GT ISZERO PUSH3 0x5AA JUMPI PUSH3 0x5AA PUSH3 0x4F3 JUMP JUMPDEST POP POP PUSH1 0x1 DUP3 SHL PUSH3 0x602 JUMP JUMPDEST POP PUSH1 0x20 DUP4 LT PUSH2 0x133 DUP4 LT AND PUSH1 0x4E DUP5 LT PUSH1 0xB DUP5 LT AND OR ISZERO PUSH3 0x5DB JUMPI POP DUP2 DUP2 EXP PUSH3 0x602 JUMP JUMPDEST PUSH3 0x5E7 DUP4 DUP4 PUSH3 0x509 JUMP JUMPDEST DUP1 PUSH1 0x0 NOT DIV DUP3 GT ISZERO PUSH3 0x5FE JUMPI PUSH3 0x5FE PUSH3 0x4F3 JUMP JUMPDEST MUL SWAP1 POP JUMPDEST SWAP3 SWAP2 POP POP JUMP JUMPDEST PUSH1 0x0 PUSH3 0x616 DUP4 DUP4 PUSH3 0x552 JUMP JUMPDEST SWAP4 SWAP3 POP POP POP JUMP JUMPDEST DUP1 DUP3 MUL DUP2 ISZERO DUP3 DUP3 DIV DUP5 EQ OR PUSH3 0x602 JUMPI PUSH3 0x602 PUSH3 0x4F3 JUMP JUMPDEST DUP1 MLOAD PUSH1 0x1 PUSH1 0x1 PUSH1 0xA0 SHL SUB DUP2 AND DUP2 EQ PUSH3 0x64F JUMPI PUSH1 0x0 DUP1 REVERT JUMPDEST SWAP2 SWAP1 POP JUMP JUMPDEST PUSH1 0x0 DUP1 PUSH1 0x40 DUP4 DUP6 SUB SLT ISZERO PUSH3 0x668 JUMPI PUSH1 0x0 DUP1 REVERT JUMPDEST PUSH3 0x673 DUP4 PUSH3 0x637 JUMP JUMPDEST SWAP2 POP PUSH3 0x683 PUSH1 0x20 DUP5 ADD PUSH3 0x637 JUMP JUMPDEST SWAP1 POP SWAP3 POP SWAP3 SWAP1 POP JUMP JUMPDEST PUSH1 0x0 PUSH1 0x20 DUP3 DUP5 SUB SLT ISZERO PUSH3 0x69F JUMPI PUSH1 0x0 DUP1 REVERT JUMPDEST PUSH3 0x616 DUP3 PUSH3 0x637 JUMP JUMPDEST PUSH2 0x23CF DUP1 PUSH3 0x6BA PUSH1 0x0 CODECOPY PUSH1 0x0 RETURN INVALID PUSH1 0x80 PUSH1 0x40 MSTORE PUSH1 0x4 CALLDATASIZE LT PUSH2 0x2DF JUMPI PUSH1 0x0 CALLDATALOAD PUSH1 0xE0 SHR DUP1 PUSH4 0x7F2E6CCB GT PUSH2 0x17E JUMPI DUP1 PUSH4 0xBA414B10 GT PUSH2 0xD3 JUMPI DUP1 PUSH4 0xDBAC26E9 GT PUSH2 0x8F JUMPI DUP1 PUSH4 0xE59602FA GT PUSH2 0x6C JUMPI DUP1 PUSH4 0xE59602FA EQ PUSH2 0x8D2 JUMPI DUP1 PUSH4 0xE6BE4A72 EQ PUSH2 0x8F2 JUMPI DUP1 PUSH4 0xF2FDE38B EQ PUSH2 0x912 JUMPI DUP1 PUSH4 0xF7E53337 EQ PUSH2 0x932 JUMPI STOP JUMPDEST DUP1 PUSH4 0xDBAC26E9 EQ PUSH2 0x846 JUMPI DUP1 PUSH4 0xDD3A1F76 EQ PUSH2 0x876 JUMPI DUP1 PUSH4 0xDD62ED3E EQ PUSH2 0x88C JUMPI STOP JUMPDEST DUP1 PUSH4 0xBA414B10 EQ PUSH2 0x7AF JUMPI DUP1 PUSH4 0xC00F04D1 EQ PUSH2 0x7CF JUMPI DUP1 PUSH4 0xC410AB5E EQ PUSH2 0x7EF JUMPI DUP1 PUSH4 0xC51ABC59 EQ PUSH2 0x805 JUMPI DUP1 PUSH4 0xCE831ED5 EQ PUSH2 0x81B JUMPI DUP1 PUSH4 0xD8020A18 EQ PUSH2 0x830 JUMPI STOP JUMPDEST DUP1 PUSH4 0x9EC4BE41 GT PUSH2 0x13A JUMPI DUP1 PUSH4 0xA9059CBB GT PUSH2 0x117 JUMPI DUP1 PUSH4 0xA9059CBB EQ PUSH2 0x729 JUMPI DUP1 PUSH4 0xAAA00B99 EQ PUSH2 0x749 JUMPI DUP1 PUSH4 0xB62496F5 EQ PUSH2 0x75F JUMPI DUP1 PUSH4 0xB7925F7A EQ PUSH2 0x78F JUMPI STOP JUMPDEST DUP1 PUSH4 0x9EC4BE41 EQ PUSH2 0x6D3 JUMPI DUP1 PUSH4 0xA562564A EQ PUSH2 0x6F3 JUMPI DUP1 PUSH4 0xA56D37F9 EQ PUSH2 0x709 JUMPI STOP JUMPDEST DUP1 PUSH4 0x7F2E6CCB EQ PUSH2 0x647 JUMPI DUP1 PUSH4 0x8D38A127 EQ PUSH2 0x65D JUMPI DUP1 PUSH4 0x8DA5CB5B EQ PUSH2 0x675 JUMPI DUP1 PUSH4 0x8EA5220F EQ PUSH2 0x693 JUMPI DUP1 PUSH4 0x95D89B41 EQ PUSH2 0x31B JUMPI DUP1 PUSH4 0x9A7A23D6 EQ PUSH2 0x6B3 JUMPI STOP JUMPDEST DUP1 PUSH4 0x4FE47F70 GT PUSH2 0x234 JUMPI DUP1 PUSH4 0x6DBFF43B GT PUSH2 0x1F0 JUMPI DUP1 PUSH4 0x715018A6 GT PUSH2 0x1CD JUMPI DUP1 PUSH4 0x715018A6 EQ PUSH2 0x5C8 JUMPI DUP1 PUSH4 0x75F0A874 EQ PUSH2 0x5DD JUMPI DUP1 PUSH4 0x768DC710 EQ PUSH2 0x5FD JUMPI DUP1 PUSH4 0x7AAB5D9B EQ PUSH2 0x62D JUMPI STOP JUMPDEST DUP1 PUSH4 0x6DBFF43B EQ PUSH2 0x551 JUMPI DUP1 PUSH4 0x6DDD1713 EQ PUSH2 0x571 JUMPI DUP1 PUSH4 0x70A08231 EQ PUSH2 0x592 JUMPI STOP JUMPDEST DUP1 PUSH4 0x4FE47F70 EQ PUSH2 0x4AF JUMPI DUP1 PUSH4 0x549FB8BF EQ PUSH2 0x4CF JUMPI DUP1 PUSH4 0x5D098B38 EQ PUSH2 0x4E5 JUMPI DUP1 PUSH4 0x5F48F393 EQ PUSH2 0x505 JUMPI DUP1 PUSH4 0x6612E66F EQ PUSH2 0x51B JUMPI DUP1 PUSH4 0x67B34E01 EQ PUSH2 0x53B JUMPI STOP JUMPDEST DUP1 PUSH4 0x18160DDD GT PUSH2 0x29B JUMPI DUP1 PUSH4 0x2D4ED650 GT PUSH2 0x278 JUMPI DUP1 PUSH4 0x2D4ED650 EQ PUSH2 0x43D JUMPI DUP1 PUSH4 0x3048A281 EQ PUSH2 0x45D JUMPI DUP1 PUSH4 0x313CE567 EQ PUSH2 0x473 JUMPI DUP1 PUSH4 0x4BF28FD0 EQ PUSH2 0x48F JUMPI STOP JUMPDEST DUP1 PUSH4 0x18160DDD EQ PUSH2 0x3DE JUMPI DUP1 PUSH4 0x1F53AC02 EQ PUSH2 0x3FD JUMPI DUP1 PUSH4 0x23B872DD EQ PUSH2 0x41D JUMPI STOP JUMPDEST DUP1 PUSH4 0x3FD2A45 EQ PUSH2 0x2E8 JUMPI DUP1 PUSH4 0x6FDDE03 EQ PUSH2 0x31B JUMPI DUP1 PUSH4 0x7A212BE EQ PUSH2 0x34D JUMPI DUP1 PUSH4 0x95EA7B3 EQ PUSH2 0x36D JUMPI DUP1 PUSH4 0x1694505E EQ PUSH2 0x39D JUMPI DUP1 PUSH4 0x1732CDED EQ PUSH2 0x3BD JUMPI STOP JUMPDEST CALLDATASIZE PUSH2 0x2E6 JUMPI STOP JUMPDEST STOP JUMPDEST CALLVALUE DUP1 ISZERO PUSH2 0x2F4 JUMPI PUSH1 0x0 DUP1 REVERT JUMPDEST POP PUSH2 0x2FE PUSH2 0xDEAD DUP2 JUMP JUMPDEST PUSH1 0x40 MLOAD PUSH1 0x1 PUSH1 0x1 PUSH1 0xA0 SHL SUB SWAP1 SWAP2 AND DUP2 MSTORE PUSH1 0x20 ADD JUMPDEST PUSH1 0x40 MLOAD DUP1 SWAP2 SUB SWAP1 RETURN JUMPDEST CALLVALUE DUP1 ISZERO PUSH2 0x327 JUMPI PUSH1 0x0 DUP1 REVERT JUMPDEST POP PUSH1 0x40 DUP1 MLOAD DUP1 DUP3 ADD DUP3 MSTORE PUSH1 0x3 DUP2 MSTORE PUSH3 0x2C2CAD PUSH1 0xE9 SHL PUSH1 0x20 DUP3 ADD MSTORE SWAP1 MLOAD PUSH2 0x312 SWAP2 SWAP1 PUSH2 0x1F85 JUMP JUMPDEST CALLVALUE DUP1 ISZERO PUSH2 0x359 JUMPI PUSH1 0x0 DUP1 REVERT JUMPDEST POP PUSH2 0x2E6 PUSH2 0x368 CALLDATASIZE PUSH1 0x4 PUSH2 0x1FD3 JUMP JUMPDEST PUSH2 0x948 JUMP JUMPDEST CALLVALUE DUP1 ISZERO PUSH2 0x379 JUMPI PUSH1 0x0 DUP1 REVERT JUMPDEST POP PUSH2 0x38D PUSH2 0x388 CALLDATASIZE PUSH1 0x4 PUSH2 0x2001 JUMP JUMPDEST PUSH2 0x955 JUMP JUMPDEST PUSH1 0x40 MLOAD SWAP1 ISZERO ISZERO DUP2 MSTORE PUSH1 0x20 ADD PUSH2 0x312 JUMP JUMPDEST CALLVALUE DUP1 ISZERO PUSH2 0x3A9 JUMPI PUSH1 0x0 DUP1 REVERT JUMPDEST POP PUSH1 0x17 SLOAD PUSH2 0x2FE SWAP1 PUSH1 0x1 PUSH1 0x1 PUSH1 0xA0 SHL SUB AND DUP2 JUMP JUMPDEST CALLVALUE DUP1 ISZERO PUSH2 0x3C9 JUMPI PUSH1 0x0 DUP1 REVERT JUMPDEST POP PUSH1 0x18 SLOAD PUSH2 0x38D SWAP1 PUSH1 0x1 PUSH1 0xA0 SHL SWAP1 DIV PUSH1 0xFF AND DUP2 JUMP JUMPDEST CALLVALUE DUP1 ISZERO PUSH2 0x3EA JUMPI PUSH1 0x0 DUP1 REVERT JUMPDEST POP PUSH1 0x1 SLOAD JUMPDEST PUSH1 0x40 MLOAD SWAP1 DUP2 MSTORE PUSH1 0x20 ADD PUSH2 0x312 JUMP JUMPDEST CALLVALUE DUP1 ISZERO PUSH2 0x409 JUMPI PUSH1 0x0 DUP1 REVERT JUMPDEST POP PUSH2 0x2E6 PUSH2 0x418 CALLDATASIZE PUSH1 0x4 PUSH2 0x202D JUMP JUMPDEST PUSH2 0x96C JUMP JUMPDEST CALLVALUE DUP1 ISZERO PUSH2 0x429 JUMPI PUSH1 0x0 DUP1 REVERT JUMPDEST POP PUSH2 0x38D PUSH2 0x438 CALLDATASIZE PUSH1 0x4 PUSH2 0x204A JUMP JUMPDEST PUSH2 0x9FB JUMP JUMPDEST CALLVALUE DUP1 ISZERO PUSH2 0x449 JUMPI PUSH1 0x0 DUP1 REVERT JUMPDEST POP PUSH2 0x2E6 PUSH2 0x458 CALLDATASIZE PUSH1 0x4 PUSH2 0x1FD3 JUMP JUMPDEST PUSH2 0xA1F JUMP JUMPDEST CALLVALUE DUP1 ISZERO PUSH2 0x469 JUMPI PUSH1 0x0 DUP1 REVERT JUMPDEST POP PUSH2 0x3EF PUSH1 0x10 SLOAD DUP2 JUMP JUMPDEST CALLVALUE DUP1 ISZERO PUSH2 0x47F JUMPI PUSH1 0x0 DUP1 REVERT JUMPDEST POP PUSH1 0x40 MLOAD PUSH1 0x12 DUP2 MSTORE PUSH1 0x20 ADD PUSH2 0x312 JUMP JUMPDEST CALLVALUE DUP1 ISZERO PUSH2 0x49B JUMPI PUSH1 0x0 DUP1 REVERT JUMPDEST POP PUSH1 0x18 SLOAD PUSH2 0x2FE SWAP1 PUSH1 0x1 PUSH1 0x1 PUSH1 0xA0 SHL SUB AND DUP2 JUMP JUMPDEST CALLVALUE DUP1 ISZERO PUSH2 0x4BB JUMPI PUSH1 0x0 DUP1 REVERT JUMPDEST POP PUSH2 0x2E6 PUSH2 0x4CA CALLDATASIZE PUSH1 0x4 PUSH2 0x1FD3 JUMP JUMPDEST PUSH2 0xA4F JUMP JUMPDEST CALLVALUE DUP1 ISZERO PUSH2 0x4DB JUMPI PUSH1 0x0 DUP1 REVERT JUMPDEST POP PUSH2 0x3EF PUSH1 0xF SLOAD DUP2 JUMP JUMPDEST CALLVALUE DUP1 ISZERO PUSH2 0x4F1 JUMPI PUSH1 0x0 DUP1 REVERT JUMPDEST POP PUSH2 0x2E6 PUSH2 0x500 CALLDATASIZE PUSH1 0x4 PUSH2 0x202D JUMP JUMPDEST PUSH2 0xA5C JUMP JUMPDEST CALLVALUE DUP1 ISZERO PUSH2 0x511 JUMPI PUSH1 0x0 DUP1 REVERT JUMPDEST POP PUSH2 0x3EF PUSH1 0x2 SLOAD DUP2 JUMP JUMPDEST CALLVALUE DUP1 ISZERO PUSH2 0x527 JUMPI PUSH1 0x0 DUP1 REVERT JUMPDEST POP PUSH2 0x2E6 PUSH2 0x536 CALLDATASIZE PUSH1 0x4 PUSH2 0x2099 JUMP JUMPDEST PUSH2 0xAEC JUMP JUMPDEST CALLVALUE DUP1 ISZERO PUSH2 0x547 JUMPI PUSH1 0x0 DUP1 REVERT JUMPDEST POP PUSH2 0x3EF PUSH1 0x16 SLOAD DUP2 JUMP JUMPDEST CALLVALUE DUP1 ISZERO PUSH2 0x55D JUMPI PUSH1 0x0 DUP1 REVERT JUMPDEST POP PUSH2 0x2E6 PUSH2 0x56C CALLDATASIZE PUSH1 0x4 PUSH2 0x1FD3 JUMP JUMPDEST PUSH2 0xB1F JUMP JUMPDEST CALLVALUE DUP1 ISZERO PUSH2 0x57D JUMPI PUSH1 0x0 DUP1 REVERT JUMPDEST POP PUSH1 0x18 SLOAD PUSH2 0x38D SWAP1 PUSH1 0x1 PUSH1 0xA8 SHL SWAP1 DIV PUSH1 0xFF AND DUP2 JUMP JUMPDEST CALLVALUE DUP1 ISZERO PUSH2 0x59E JUMPI PUSH1 0x0 DUP1 REVERT JUMPDEST POP PUSH2 0x3EF PUSH2 0x5AD CALLDATASIZE PUSH1 0x4 PUSH2 0x202D JUMP JUMPDEST PUSH1 0x1 PUSH1 0x1 PUSH1 0xA0 SHL SUB AND PUSH1 0x0 SWAP1 DUP2 MSTORE PUSH1 0x3 PUSH1 0x20 MSTORE PUSH1 0x40 SWAP1 KECCAK256 SLOAD SWAP1 JUMP JUMPDEST CALLVALUE DUP1 ISZERO PUSH2 0x5D4 JUMPI PUSH1 0x0 DUP1 REVERT JUMPDEST POP PUSH2 0x2E6 PUSH2 0xBCF JUMP JUMPDEST CALLVALUE DUP1 ISZERO PUSH2 0x5E9 JUMPI PUSH1 0x0 DUP1 REVERT JUMPDEST POP PUSH1 0xB SLOAD PUSH2 0x2FE SWAP1 PUSH1 0x1 PUSH1 0x1 PUSH1 0xA0 SHL SUB AND DUP2 JUMP JUMPDEST CALLVALUE DUP1 ISZERO PUSH2 0x609 JUMPI PUSH1 0x0 DUP1 REVERT JUMPDEST POP PUSH2 0x38D PUSH2 0x618 CALLDATASIZE PUSH1 0x4 PUSH2 0x202D JUMP JUMPDEST PUSH1 0x7 PUSH1 0x20 MSTORE PUSH1 0x0 SWAP1 DUP2 MSTORE PUSH1 0x40 SWAP1 KECCAK256 SLOAD PUSH1 0xFF AND DUP2 JUMP JUMPDEST CALLVALUE DUP1 ISZERO PUSH2 0x639 JUMPI PUSH1 0x0 DUP1 REVERT JUMPDEST POP PUSH1 0x8 SLOAD PUSH2 0x38D SWAP1 PUSH1 0xFF AND DUP2 JUMP JUMPDEST CALLVALUE DUP1 ISZERO PUSH2 0x653 JUMPI PUSH1 0x0 DUP1 REVERT JUMPDEST POP PUSH2 0x3EF PUSH1 0x14 SLOAD DUP2 JUMP JUMPDEST CALLVALUE DUP1 ISZERO PUSH2 0x669 JUMPI PUSH1 0x0 DUP1 REVERT JUMPDEST POP PUSH1 0x8 SLOAD PUSH1 0xFF AND PUSH2 0x38D JUMP JUMPDEST CALLVALUE DUP1 ISZERO PUSH2 0x681 JUMPI PUSH1 0x0 DUP1 REVERT JUMPDEST POP PUSH1 0x0 SLOAD PUSH1 0x1 PUSH1 0x1 PUSH1 0xA0 SHL SUB AND PUSH2 0x2FE JUMP JUMPDEST CALLVALUE DUP1 ISZERO PUSH2 0x69F JUMPI PUSH1 0x0 DUP1 REVERT JUMPDEST POP PUSH1 0xC SLOAD PUSH2 0x2FE SWAP1 PUSH1 0x1 PUSH1 0x1 PUSH1 0xA0 SHL SUB AND DUP2 JUMP JUMPDEST CALLVALUE DUP1 ISZERO PUSH2 0x6BF JUMPI PUSH1 0x0 DUP1 REVERT JUMPDEST POP PUSH2 0x2E6 PUSH2 0x6CE CALLDATASIZE PUSH1 0x4 PUSH2 0x2099 JUMP JUMPDEST PUSH2 0xBE3 JUMP JUMPDEST CALLVALUE DUP1 ISZERO PUSH2 0x6DF JUMPI PUSH1 0x0 DUP1 REVERT JUMPDEST POP PUSH2 0x2E6 PUSH2 0x6EE CALLDATASIZE PUSH1 0x4 PUSH2 0x1FD3 JUMP JUMPDEST PUSH2 0xC97 JUMP JUMPDEST CALLVALUE DUP1 ISZERO PUSH2 0x6FF JUMPI PUSH1 0x0 DUP1 REVERT JUMPDEST POP PUSH2 0x3EF PUSH1 0xE SLOAD DUP2 JUMP JUMPDEST CALLVALUE DUP1 ISZERO PUSH2 0x715 JUMPI PUSH1 0x0 DUP1 REVERT JUMPDEST POP PUSH2 0x2E6 PUSH2 0x724 CALLDATASIZE PUSH1 0x4 PUSH2 0x1FD3 JUMP JUMPDEST PUSH2 0xCD8 JUMP JUMPDEST CALLVALUE DUP1 ISZERO PUSH2 0x735 JUMPI PUSH1 0x0 DUP1 REVERT JUMPDEST POP PUSH2 0x38D PUSH2 0x744 CALLDATASIZE PUSH1 0x4 PUSH2 0x2001 JUMP JUMPDEST PUSH2 0xD18 JUMP JUMPDEST CALLVALUE DUP1 ISZERO PUSH2 0x755 JUMPI PUSH1 0x0 DUP1 REVERT JUMPDEST POP PUSH2 0x3EF PUSH1 0x12 SLOAD DUP2 JUMP JUMPDEST CALLVALUE DUP1 ISZERO PUSH2 0x76B JUMPI PUSH1 0x0 DUP1 REVERT JUMPDEST POP PUSH2 0x38D PUSH2 0x77A CALLDATASIZE PUSH1 0x4 PUSH2 0x202D JUMP JUMPDEST PUSH1 0x6 PUSH1 0x20 MSTORE PUSH1 0x0 SWAP1 DUP2 MSTORE PUSH1 0x40 SWAP1 KECCAK256 SLOAD PUSH1 0xFF AND DUP2 JUMP JUMPDEST CALLVALUE DUP1 ISZERO PUSH2 0x79B JUMPI PUSH1 0x0 DUP1 REVERT JUMPDEST POP PUSH2 0x2E6 PUSH2 0x7AA CALLDATASIZE PUSH1 0x4 PUSH2 0x1FD3 JUMP JUMPDEST PUSH2 0xD30 JUMP JUMPDEST CALLVALUE DUP1 ISZERO PUSH2 0x7BB JUMPI PUSH1 0x0 DUP1 REVERT JUMPDEST POP PUSH2 0x2E6 PUSH2 0x7CA CALLDATASIZE PUSH1 0x4 PUSH2 0x20D2 JUMP JUMPDEST PUSH2 0xD3D JUMP JUMPDEST CALLVALUE DUP1 ISZERO PUSH2 0x7DB JUMPI PUSH1 0x0 DUP1 REVERT JUMPDEST POP PUSH2 0x2E6 PUSH2 0x7EA CALLDATASIZE PUSH1 0x4 PUSH2 0x214D JUMP JUMPDEST PUSH2 0xDC8 JUMP JUMPDEST CALLVALUE DUP1 ISZERO PUSH2 0x7FB JUMPI PUSH1 0x0 DUP1 REVERT JUMPDEST POP PUSH2 0x3EF PUSH1 0xD SLOAD DUP2 JUMP JUMPDEST CALLVALUE DUP1 ISZERO PUSH2 0x811 JUMPI PUSH1 0x0 DUP1 REVERT JUMPDEST POP PUSH2 0x3EF PUSH1 0xA SLOAD DUP2 JUMP JUMPDEST CALLVALUE DUP1 ISZERO PUSH2 0x827 JUMPI PUSH1 0x0 DUP1 REVERT JUMPDEST POP PUSH2 0x2E6 PUSH2 0xDE3 JUMP JUMPDEST CALLVALUE DUP1 ISZERO PUSH2 0x83C JUMPI PUSH1 0x0 DUP1 REVERT JUMPDEST POP PUSH2 0x3EF PUSH1 0x15 SLOAD DUP2 JUMP JUMPDEST CALLVALUE DUP1 ISZERO PUSH2 0x852 JUMPI PUSH1 0x0 DUP1 REVERT JUMPDEST POP PUSH2 0x38D PUSH2 0x861 CALLDATASIZE PUSH1 0x4 PUSH2 0x202D JUMP JUMPDEST PUSH1 0x5 PUSH1 0x20 MSTORE PUSH1 0x0 SWAP1 DUP2 MSTORE PUSH1 0x40 SWAP1 KECCAK256 SLOAD PUSH1 0xFF AND DUP2 JUMP JUMPDEST CALLVALUE DUP1 ISZERO PUSH2 0x882 JUMPI PUSH1 0x0 DUP1 REVERT JUMPDEST POP PUSH2 0x3EF PUSH1 0x13 SLOAD DUP2 JUMP JUMPDEST CALLVALUE DUP1 ISZERO PUSH2 0x898 JUMPI PUSH1 0x0 DUP1 REVERT JUMPDEST POP PUSH2 0x3EF PUSH2 0x8A7 CALLDATASIZE PUSH1 0x4 PUSH2 0x216A JUMP JUMPDEST PUSH1 0x1 PUSH1 0x1 PUSH1 0xA0 SHL SUB SWAP2 DUP3 AND PUSH1 0x0 SWAP1 DUP2 MSTORE PUSH1 0x4 PUSH1 0x20 SWAP1 DUP2 MSTORE PUSH1 0x40 DUP1 DUP4 KECCAK256 SWAP4 SWAP1 SWAP5 AND DUP3 MSTORE SWAP2 SWAP1 SWAP2 MSTORE KECCAK256 SLOAD SWAP1 JUMP JUMPDEST CALLVALUE DUP1 ISZERO PUSH2 0x8DE JUMPI PUSH1 0x0 DUP1 REVERT JUMPDEST POP PUSH2 0x2E6 PUSH2 0x8ED CALLDATASIZE PUSH1 0x4 PUSH2 0x1FD3 JUMP JUMPDEST PUSH2 0xE1A JUMP JUMPDEST CALLVALUE DUP1 ISZERO PUSH2 0x8FE JUMPI PUSH1 0x0 DUP1 REVERT JUMPDEST POP PUSH2 0x2E6 PUSH2 0x90D CALLDATASIZE PUSH1 0x4 PUSH2 0x2001 JUMP JUMPDEST PUSH2 0xE4A JUMP JUMPDEST CALLVALUE DUP1 ISZERO PUSH2 0x91E JUMPI PUSH1 0x0 DUP1 REVERT JUMPDEST POP PUSH2 0x2E6 PUSH2 0x92D CALLDATASIZE PUSH1 0x4 PUSH2 0x202D JUMP JUMPDEST PUSH2 0x1008 JUMP JUMPDEST CALLVALUE DUP1 ISZERO PUSH2 0x93E JUMPI PUSH1 0x0 DUP1 REVERT JUMPDEST POP PUSH2 0x3EF PUSH1 0x11 SLOAD DUP2 JUMP JUMPDEST PUSH2 0x950 PUSH2 0x107E JUMP JUMPDEST PUSH1 0x16 SSTORE JUMP JUMPDEST PUSH1 0x0 PUSH2 0x962 CALLER DUP5 DUP5 PUSH2 0x10D8 JUMP JUMPDEST POP PUSH1 0x1 JUMPDEST SWAP3 SWAP2 POP POP JUMP JUMPDEST PUSH2 0x974 PUSH2 0x107E JUMP JUMPDEST PUSH1 0x1 PUSH1 0x1 PUSH1 0xA0 SHL SUB DUP2 AND PUSH2 0x9D9 JUMPI PUSH1 0x40 MLOAD PUSH3 0x461BCD PUSH1 0xE5 SHL DUP2 MSTORE PUSH1 0x20 PUSH1 0x4 DUP3 ADD MSTORE PUSH1 0x21 PUSH1 0x24 DUP3 ADD MSTORE PUSH32 0x4465762077616C6C65742063616E6E6F74206265207A65726F20616464726573 PUSH1 0x44 DUP3 ADD MSTORE PUSH1 0x73 PUSH1 0xF8 SHL PUSH1 0x64 DUP3 ADD MSTORE PUSH1 0x84 ADD JUMPDEST PUSH1 0x40 MLOAD DUP1 SWAP2 SUB SWAP1 REVERT JUMPDEST PUSH1 0xC DUP1 SLOAD PUSH1 0x1 PUSH1 0x1 PUSH1 0xA0 SHL SUB NOT AND PUSH1 0x1 PUSH1 0x1 PUSH1 0xA0 SHL SUB SWAP3 SWAP1 SWAP3 AND SWAP2 SWAP1 SWAP2 OR SWAP1 SSTORE JUMP JUMPDEST PUSH1 0x0 CALLER PUSH2 0xA09 DUP6 DUP3 DUP6 PUSH2 0x11FD JUMP JUMPDEST PUSH2 0xA14 DUP6 DUP6 DUP6 PUSH2 0x128F JUMP JUMPDEST POP PUSH1 0x1 SWAP5 SWAP4 POP POP POP POP JUMP JUMPDEST PUSH2 0xA27 PUSH2 0x107E JUMP JUMPDEST PUSH3 0x186A0 DUP2 GT ISZERO PUSH2 0xA4A JUMPI PUSH1 0x40 MLOAD PUSH3 0x461BCD PUSH1 0xE5 SHL DUP2 MSTORE PUSH1 0x4 ADD PUSH2 0x9D0 SWAP1 PUSH2 0x2198 JUMP JUMPDEST PUSH1 0x15 SSTORE JUMP JUMPDEST PUSH2 0xA57 PUSH2 0x107E JUMP JUMPDEST PUSH1 0x2 SSTORE JUMP JUMPDEST PUSH2 0xA64 PUSH2 0x107E JUMP JUMPDEST PUSH1 0x1 PUSH1 0x1 PUSH1 0xA0 SHL SUB DUP2 AND PUSH2 0xACA JUMPI PUSH1 0x40 MLOAD PUSH3 0x461BCD PUSH1 0xE5 SHL DUP2 MSTORE PUSH1 0x20 PUSH1 0x4 DUP3 ADD MSTORE PUSH1 0x27 PUSH1 0x24 DUP3 ADD MSTORE PUSH32 0x4D61726B6574696E672077616C6C65742063616E6E6F74206265207A65726F20 PUSH1 0x44 DUP3 ADD MSTORE PUSH7 0x61646472657373 PUSH1 0xC8 SHL PUSH1 0x64 DUP3 ADD MSTORE PUSH1 0x84 ADD PUSH2 0x9D0 JUMP JUMPDEST PUSH1 0xB DUP1 SLOAD PUSH1 0x1 PUSH1 0x1 PUSH1 0xA0 SHL SUB NOT AND PUSH1 0x1 PUSH1 0x1 PUSH1 0xA0 SHL SUB SWAP3 SWAP1 SWAP3 AND SWAP2 SWAP1 SWAP2 OR SWAP1 SSTORE JUMP JUMPDEST PUSH2 0xAF4 PUSH2 0x107E JUMP JUMPDEST PUSH1 0x1 PUSH1 0x1 PUSH1 0xA0 SHL SUB SWAP2 SWAP1 SWAP2 AND PUSH1 0x0 SWAP1 DUP2 MSTORE PUSH1 0x7 PUSH1 0x20 MSTORE PUSH1 0x40 SWAP1 KECCAK256 DUP1 SLOAD PUSH1 0xFF NOT AND SWAP2 ISZERO ISZERO SWAP2 SWAP1 SWAP2 OR SWAP1 SSTORE JUMP JUMPDEST PUSH2 0xB27 PUSH2 0x107E JUMP JUMPDEST PUSH3 0x186A0 DUP2 GT ISZERO PUSH2 0xB4A JUMPI PUSH1 0x40 MLOAD PUSH3 0x461BCD PUSH1 0xE5 SHL DUP2 MSTORE PUSH1 0x4 ADD PUSH2 0x9D0 SWAP1 PUSH2 0x2198 JUMP JUMPDEST PUSH1 0xF DUP2 SWAP1 SSTORE PUSH1 0xE SLOAD PUSH1 0xD SLOAD DUP3 SWAP2 PUSH2 0xB60 SWAP2 PUSH2 0x21EF JUMP JUMPDEST PUSH2 0xB6A SWAP2 SWAP1 PUSH2 0x21EF JUMP JUMPDEST PUSH1 0x14 DUP2 SWAP1 SSTORE PUSH1 0xD SLOAD PUSH2 0xB7F SWAP1 PUSH3 0x186A0 PUSH2 0x2202 JUMP JUMPDEST PUSH2 0xB89 SWAP2 SWAP1 PUSH2 0x2219 JUMP JUMPDEST PUSH1 0x11 SSTORE PUSH1 0x14 SLOAD PUSH1 0xE SLOAD PUSH2 0xB9F SWAP1 PUSH3 0x186A0 PUSH2 0x2202 JUMP JUMPDEST PUSH2 0xBA9 SWAP2 SWAP1 PUSH2 0x2219 JUMP JUMPDEST PUSH1 0x12 SSTORE PUSH1 0x14 SLOAD PUSH1 0xF SLOAD PUSH2 0xBBF SWAP1 PUSH3 0x186A0 PUSH2 0x2202 JUMP JUMPDEST PUSH2 0xBC9 SWAP2 SWAP1 PUSH2 0x2219 JUMP JUMPDEST PUSH1 0x13 SSTORE POP JUMP JUMPDEST PUSH2 0xBD7 PUSH2 0x107E JUMP JUMPDEST PUSH2 0xBE1 PUSH1 0x0 PUSH2 0x18FA JUMP JUMPDEST JUMP JUMPDEST PUSH2 0xBEB PUSH2 0x107E JUMP JUMPDEST PUSH1 0x18 SLOAD PUSH1 0x1 PUSH1 0x1 PUSH1 0xA0 SHL SUB SWAP1 DUP2 AND SWAP1 DUP4 AND SUB PUSH2 0xC6F JUMPI PUSH1 0x40 MLOAD PUSH3 0x461BCD PUSH1 0xE5 SHL DUP2 MSTORE PUSH1 0x20 PUSH1 0x4 DUP3 ADD MSTORE PUSH1 0x39 PUSH1 0x24 DUP3 ADD MSTORE PUSH32 0x54686520706169722063616E6E6F742062652072656D6F7665642066726F6D20 PUSH1 0x44 DUP3 ADD MSTORE PUSH32 0x6175746F6D617465644D61726B65744D616B6572506169727300000000000000 PUSH1 0x64 DUP3 ADD MSTORE PUSH1 0x84 ADD PUSH2 0x9D0 JUMP JUMPDEST PUSH1 0x1 PUSH1 0x1 PUSH1 0xA0 SHL SUB DUP3 AND PUSH1 0x0 SWAP1 DUP2 MSTORE PUSH1 0x6 PUSH1 0x20 MSTORE PUSH1 0x40 SWAP1 KECCAK256 DUP1 SLOAD PUSH1 0xFF NOT AND DUP3 ISZERO ISZERO OR SWAP1 SSTORE POP POP JUMP JUMPDEST PUSH2 0xC9F PUSH2 0x107E JUMP JUMPDEST PUSH3 0x186A0 DUP2 GT ISZERO PUSH2 0xCC2 JUMPI PUSH1 0x40 MLOAD PUSH3 0x461BCD PUSH1 0xE5 SHL DUP2 MSTORE PUSH1 0x4 ADD PUSH2 0x9D0 SWAP1 PUSH2 0x2198 JUMP JUMPDEST PUSH1 0xE DUP2 SWAP1 SSTORE PUSH1 0xF SLOAD PUSH1 0xD SLOAD PUSH2 0xB60 SWAP1 DUP4 SWAP1 PUSH2 0x21EF JUMP JUMPDEST PUSH2 0xCE0 PUSH2 0x107E JUMP JUMPDEST PUSH3 0x186A0 DUP2 GT ISZERO PUSH2 0xD03 JUMPI PUSH1 0x40 MLOAD PUSH3 0x461BCD PUSH1 0xE5 SHL DUP2 MSTORE PUSH1 0x4 ADD PUSH2 0x9D0 SWAP1 PUSH2 0x2198 JUMP JUMPDEST PUSH1 0xD DUP2 SWAP1 SSTORE PUSH1 0xF SLOAD PUSH1 0xE SLOAD PUSH2 0xB60 SWAP1 DUP4 PUSH2 0x21EF JUMP JUMPDEST PUSH1 0x0 CALLER PUSH2 0xD26 DUP2 DUP6 DUP6 PUSH2 0x128F JUMP JUMPDEST POP PUSH1 0x1 SWAP4 SWAP3 POP POP POP JUMP JUMPDEST PUSH2 0xD38 PUSH2 0x107E JUMP JUMPDEST PUSH1 0xA SSTORE JUMP JUMPDEST PUSH2 0xD45 PUSH2 0x107E JUMP JUMPDEST PUSH1 0x0 DUP1 SLOAD PUSH1 0x1 PUSH1 0x1 PUSH1 0xA0 SHL SUB AND SWAP1 JUMPDEST DUP4 DUP2 LT ISZERO PUSH2 0xDC1 JUMPI PUSH1 0x0 DUP6 DUP6 DUP4 DUP2 DUP2 LT PUSH2 0xD70 JUMPI PUSH2 0xD70 PUSH2 0x223B JUMP JUMPDEST SWAP1 POP PUSH1 0x20 MUL ADD PUSH1 0x20 DUP2 ADD SWAP1 PUSH2 0xD85 SWAP2 SWAP1 PUSH2 0x202D JUMP JUMPDEST SWAP1 POP PUSH1 0x1 PUSH1 0x1 PUSH1 0xA0 SHL SUB DUP2 AND PUSH2 0xDAD JUMPI PUSH1 0x40 MLOAD PUSH3 0x461BCD PUSH1 0xE5 SHL DUP2 MSTORE PUSH1 0x4 ADD PUSH2 0x9D0 SWAP1 PUSH2 0x2251 JUMP JUMPDEST PUSH2 0xDB8 DUP4 DUP3 DUP7 PUSH2 0x194A JUMP JUMPDEST POP PUSH1 0x1 ADD PUSH2 0xD54 JUMP JUMPDEST POP POP POP POP POP JUMP JUMPDEST PUSH2 0xDD0 PUSH2 0x107E JUMP JUMPDEST PUSH1 0x8 DUP1 SLOAD PUSH1 0xFF NOT AND SWAP2 ISZERO ISZERO SWAP2 SWAP1 SWAP2 OR SWAP1 SSTORE JUMP JUMPDEST PUSH2 0xDEB PUSH2 0x107E JUMP JUMPDEST PUSH1 0x40 MLOAD CALLER SWAP1 SELFBALANCE DUP1 ISZERO PUSH2 0x8FC MUL SWAP2 PUSH1 0x0 DUP2 DUP2 DUP2 DUP6 DUP9 DUP9 CALL SWAP4 POP POP POP POP ISZERO DUP1 ISZERO PUSH2 0xE17 JUMPI RETURNDATASIZE PUSH1 0x0 DUP1 RETURNDATACOPY RETURNDATASIZE PUSH1 0x0 REVERT JUMPDEST POP JUMP JUMPDEST PUSH2 0xE22 PUSH2 0x107E JUMP JUMPDEST PUSH3 0x186A0 DUP2 GT ISZERO PUSH2 0xE45 JUMPI PUSH1 0x40 MLOAD PUSH3 0x461BCD PUSH1 0xE5 SHL DUP2 MSTORE PUSH1 0x4 ADD PUSH2 0x9D0 SWAP1 PUSH2 0x2198 JUMP JUMPDEST PUSH1 0x10 SSTORE JUMP JUMPDEST PUSH2 0xE52 PUSH2 0x107E JUMP JUMPDEST ADDRESS PUSH1 0x1 PUSH1 0x1 PUSH1 0xA0 SHL SUB DUP4 AND SUB PUSH2 0xEC9 JUMPI PUSH1 0x40 MLOAD PUSH3 0x461BCD PUSH1 0xE5 SHL DUP2 MSTORE PUSH1 0x20 PUSH1 0x4 DUP3 ADD MSTORE PUSH1 0x36 PUSH1 0x24 DUP3 ADD MSTORE PUSH32 0x4F776E65722063616E277420636C61696D20636F6E747261637427732062616C PUSH1 0x44 DUP3 ADD MSTORE PUSH22 0x616E6365206F6620697473206F776E20746F6B656E73 PUSH1 0x50 SHL PUSH1 0x64 DUP3 ADD MSTORE PUSH1 0x84 ADD PUSH2 0x9D0 JUMP JUMPDEST PUSH1 0x40 MLOAD PUSH4 0x70A08231 PUSH1 0xE0 SHL DUP2 MSTORE ADDRESS PUSH1 0x4 DUP3 ADD MSTORE PUSH1 0x0 SWAP1 PUSH1 0x1 PUSH1 0x1 PUSH1 0xA0 SHL SUB DUP5 AND SWAP1 PUSH4 0x70A08231 SWAP1 PUSH1 0x24 ADD PUSH1 0x20 PUSH1 0x40 MLOAD DUP1 DUP4 SUB DUP2 DUP7 GAS STATICCALL ISZERO DUP1 ISZERO PUSH2 0xF10 JUMPI RETURNDATASIZE PUSH1 0x0 DUP1 RETURNDATACOPY RETURNDATASIZE PUSH1 0x0 REVERT JUMPDEST POP POP POP POP PUSH1 0x40 MLOAD RETURNDATASIZE PUSH1 0x1F NOT PUSH1 0x1F DUP3 ADD AND DUP3 ADD DUP1 PUSH1 0x40 MSTORE POP DUP2 ADD SWAP1 PUSH2 0xF34 SWAP2 SWAP1 PUSH2 0x2294 JUMP JUMPDEST SWAP1 POP PUSH1 0x0 PUSH3 0x186A0 PUSH2 0xF46 DUP5 DUP5 PUSH2 0x2202 JUMP JUMPDEST PUSH2 0xF50 SWAP2 SWAP1 PUSH2 0x2219 JUMP JUMPDEST PUSH1 0x40 MLOAD PUSH4 0xA9059CBB PUSH1 0xE0 SHL DUP2 MSTORE CALLER PUSH1 0x4 DUP3 ADD MSTORE PUSH1 0x24 DUP2 ADD DUP3 SWAP1 MSTORE SWAP1 SWAP2 POP PUSH1 0x0 SWAP1 PUSH1 0x1 PUSH1 0x1 PUSH1 0xA0 SHL SUB DUP7 AND SWAP1 PUSH4 0xA9059CBB SWAP1 PUSH1 0x44 ADD PUSH1 0x20 PUSH1 0x40 MLOAD DUP1 DUP4 SUB DUP2 PUSH1 0x0 DUP8 GAS CALL ISZERO DUP1 ISZERO PUSH2 0xFA3 JUMPI RETURNDATASIZE PUSH1 0x0 DUP1 RETURNDATACOPY RETURNDATASIZE PUSH1 0x0 REVERT JUMPDEST POP POP POP POP PUSH1 0x40 MLOAD RETURNDATASIZE PUSH1 0x1F NOT PUSH1 0x1F DUP3 ADD AND DUP3 ADD DUP1 PUSH1 0x40 MSTORE POP DUP2 ADD SWAP1 PUSH2 0xFC7 SWAP2 SWAP1 PUSH2 0x22AD JUMP JUMPDEST SWAP1 POP DUP1 PUSH2 0xDC1 JUMPI PUSH1 0x40 MLOAD PUSH3 0x461BCD PUSH1 0xE5 SHL DUP2 MSTORE PUSH1 0x20 PUSH1 0x4 DUP3 ADD MSTORE PUSH1 0xF PUSH1 0x24 DUP3 ADD MSTORE PUSH15 0x151C985B9CD9995C8819985A5B1959 PUSH1 0x8A SHL PUSH1 0x44 DUP3 ADD MSTORE PUSH1 0x64 ADD PUSH2 0x9D0 JUMP JUMPDEST PUSH2 0x1010 PUSH2 0x107E JUMP JUMPDEST PUSH1 0x1 PUSH1 0x1 PUSH1 0xA0 SHL SUB DUP2 AND PUSH2 0x1075 JUMPI PUSH1 0x40 MLOAD PUSH3 0x461BCD PUSH1 0xE5 SHL DUP2 MSTORE PUSH1 0x20 PUSH1 0x4 DUP3 ADD MSTORE PUSH1 0x26 PUSH1 0x24 DUP3 ADD MSTORE PUSH32 0x4F776E61626C653A206E6577206F776E657220697320746865207A65726F2061 PUSH1 0x44 DUP3 ADD MSTORE PUSH6 0x646472657373 PUSH1 0xD0 SHL PUSH1 0x64 DUP3 ADD MSTORE PUSH1 0x84 ADD PUSH2 0x9D0 JUMP JUMPDEST PUSH2 0xE17 DUP2 PUSH2 0x18FA JUMP JUMPDEST PUSH1 0x0 SLOAD PUSH1 0x1 PUSH1 0x1 PUSH1 0xA0 SHL SUB AND CALLER EQ PUSH2 0xBE1 JUMPI PUSH1 0x40 MLOAD PUSH3 0x461BCD PUSH1 0xE5 SHL DUP2 MSTORE PUSH1 0x20 PUSH1 0x4 DUP3 ADD DUP2 SWAP1 MSTORE PUSH1 0x24 DUP3 ADD MSTORE PUSH32 0x4F776E61626C653A2063616C6C6572206973206E6F7420746865206F776E6572 PUSH1 0x44 DUP3 ADD MSTORE PUSH1 0x64 ADD PUSH2 0x9D0 JUMP JUMPDEST PUSH1 0x1 PUSH1 0x1 PUSH1 0xA0 SHL SUB DUP4 AND PUSH2 0x113A JUMPI PUSH1 0x40 MLOAD PUSH3 0x461BCD PUSH1 0xE5 SHL DUP2 MSTORE PUSH1 0x20 PUSH1 0x4 DUP3 ADD MSTORE PUSH1 0x24 DUP1 DUP3 ADD MSTORE PUSH32 0x45524332303A20617070726F76652066726F6D20746865207A65726F20616464 PUSH1 0x44 DUP3 ADD MSTORE PUSH4 0x72657373 PUSH1 0xE0 SHL PUSH1 0x64 DUP3 ADD MSTORE PUSH1 0x84 ADD PUSH2 0x9D0 JUMP JUMPDEST PUSH1 0x1 PUSH1 0x1 PUSH1 0xA0 SHL SUB DUP3 AND PUSH2 0x119B JUMPI PUSH1 0x40 MLOAD PUSH3 0x461BCD PUSH1 0xE5 SHL DUP2 MSTORE PUSH1 0x20 PUSH1 0x4 DUP3 ADD MSTORE PUSH1 0x22 PUSH1 0x24 DUP3 ADD MSTORE PUSH32 0x45524332303A20617070726F766520746F20746865207A65726F206164647265 PUSH1 0x44 DUP3 ADD MSTORE PUSH2 0x7373 PUSH1 0xF0 SHL PUSH1 0x64 DUP3 ADD MSTORE PUSH1 0x84 ADD PUSH2 0x9D0 JUMP JUMPDEST PUSH1 0x1 PUSH1 0x1 PUSH1 0xA0 SHL SUB DUP4 DUP2 AND PUSH1 0x0 DUP2 DUP2 MSTORE PUSH1 0x4 PUSH1 0x20 SWAP1 DUP2 MSTORE PUSH1 0x40 DUP1 DUP4 KECCAK256 SWAP5 DUP8 AND DUP1 DUP5 MSTORE SWAP5 DUP3 MSTORE SWAP2 DUP3 SWAP1 KECCAK256 DUP6 SWAP1 SSTORE SWAP1 MLOAD DUP5 DUP2 MSTORE PUSH32 0x8C5BE1E5EBEC7D5BD14F71427D1E84F3DD0314C0F7B2291E5B200AC8C7C3B925 SWAP2 ADD JUMPDEST PUSH1 0x40 MLOAD DUP1 SWAP2 SUB SWAP1 LOG3 POP POP POP JUMP JUMPDEST PUSH1 0x1 PUSH1 0x1 PUSH1 0xA0 SHL SUB DUP4 DUP2 AND PUSH1 0x0 SWAP1 DUP2 MSTORE PUSH1 0x4 PUSH1 0x20 SWAP1 DUP2 MSTORE PUSH1 0x40 DUP1 DUP4 KECCAK256 SWAP4 DUP7 AND DUP4 MSTORE SWAP3 SWAP1 MSTORE KECCAK256 SLOAD PUSH1 0x0 NOT DUP2 EQ PUSH2 0x1289 JUMPI DUP2 DUP2 LT ISZERO PUSH2 0x127C JUMPI PUSH1 0x40 MLOAD PUSH3 0x461BCD PUSH1 0xE5 SHL DUP2 MSTORE PUSH1 0x20 PUSH1 0x4 DUP3 ADD MSTORE PUSH1 0x1D PUSH1 0x24 DUP3 ADD MSTORE PUSH32 0x45524332303A20696E73756666696369656E7420616C6C6F77616E6365000000 PUSH1 0x44 DUP3 ADD MSTORE PUSH1 0x64 ADD PUSH2 0x9D0 JUMP JUMPDEST PUSH2 0x1289 DUP5 DUP5 DUP5 DUP5 SUB PUSH2 0x10D8 JUMP JUMPDEST POP POP POP POP JUMP JUMPDEST PUSH1 0x1 PUSH1 0x1 PUSH1 0xA0 SHL SUB DUP4 AND PUSH2 0x12F3 JUMPI PUSH1 0x40 MLOAD PUSH3 0x461BCD PUSH1 0xE5 SHL DUP2 MSTORE PUSH1 0x20 PUSH1 0x4 DUP3 ADD MSTORE PUSH1 0x25 PUSH1 0x24 DUP3 ADD MSTORE PUSH32 0x45524332303A207472616E736665722066726F6D20746865207A65726F206164 PUSH1 0x44 DUP3 ADD MSTORE PUSH5 0x6472657373 PUSH1 0xD8 SHL PUSH1 0x64 DUP3 ADD MSTORE PUSH1 0x84 ADD PUSH2 0x9D0 JUMP JUMPDEST PUSH1 0x1 PUSH1 0x1 PUSH1 0xA0 SHL SUB DUP3 AND PUSH2 0x1319 JUMPI PUSH1 0x40 MLOAD PUSH3 0x461BCD PUSH1 0xE5 SHL DUP2 MSTORE PUSH1 0x4 ADD PUSH2 0x9D0 SWAP1 PUSH2 0x2251 JUMP JUMPDEST PUSH1 0x0 DUP2 GT PUSH2 0x137B JUMPI PUSH1 0x40 MLOAD PUSH3 0x461BCD PUSH1 0xE5 SHL DUP2 MSTORE PUSH1 0x20 PUSH1 0x4 DUP3 ADD MSTORE PUSH1 0x29 PUSH1 0x24 DUP3 ADD MSTORE PUSH32 0x5472616E7366657220616D6F756E74206D757374206265206772656174657220 PUSH1 0x44 DUP3 ADD MSTORE PUSH9 0x7468616E207A65726F PUSH1 0xB8 SHL PUSH1 0x64 DUP3 ADD MSTORE PUSH1 0x84 ADD PUSH2 0x9D0 JUMP JUMPDEST PUSH1 0x1 PUSH1 0x1 PUSH1 0xA0 SHL SUB DUP4 AND PUSH1 0x0 SWAP1 DUP2 MSTORE PUSH1 0x5 PUSH1 0x20 MSTORE PUSH1 0x40 SWAP1 KECCAK256 SLOAD PUSH1 0xFF AND ISZERO PUSH2 0x13DC JUMPI PUSH1 0x40 MLOAD PUSH3 0x461BCD PUSH1 0xE5 SHL DUP2 MSTORE PUSH1 0x20 PUSH1 0x4 DUP3 ADD MSTORE PUSH1 0x15 PUSH1 0x24 DUP3 ADD MSTORE PUSH21 0x14D95B99195C881A5CC8189B1858DADB1A5CDD1959 PUSH1 0x5A SHL PUSH1 0x44 DUP3 ADD MSTORE PUSH1 0x64 ADD PUSH2 0x9D0 JUMP JUMPDEST PUSH1 0x1 PUSH1 0x1 PUSH1 0xA0 SHL SUB DUP3 AND PUSH1 0x0 SWAP1 DUP2 MSTORE PUSH1 0x5 PUSH1 0x20 MSTORE PUSH1 0x40 SWAP1 KECCAK256 SLOAD PUSH1 0xFF AND ISZERO PUSH2 0x1445 JUMPI PUSH1 0x40 MLOAD PUSH3 0x461BCD PUSH1 0xE5 SHL DUP2 MSTORE PUSH1 0x20 PUSH1 0x4 DUP3 ADD MSTORE PUSH1 0x18 PUSH1 0x24 DUP3 ADD MSTORE PUSH32 0x526563697069656E7420697320626C61636B6C69737465640000000000000000 PUSH1 0x44 DUP3 ADD MSTORE PUSH1 0x64 ADD PUSH2 0x9D0 JUMP JUMPDEST PUSH1 0x0 SLOAD PUSH1 0x1 PUSH1 0x1 PUSH1 0xA0 SHL SUB DUP5 DUP2 AND SWAP2 AND EQ DUP1 PUSH2 0x146E JUMPI POP PUSH1 0x0 SLOAD PUSH1 0x1 PUSH1 0x1 PUSH1 0xA0 SHL SUB DUP4 DUP2 AND SWAP2 AND EQ JUMPDEST DUP1 PUSH2 0x1481 JUMPI POP PUSH1 0x1 PUSH1 0x1 PUSH1 0xA0 SHL SUB DUP4 AND ADDRESS EQ JUMPDEST ISZERO PUSH2 0x14BD JUMPI PUSH1 0x9 SLOAD ISZERO DUP1 ISZERO PUSH2 0x14A3 JUMPI POP PUSH1 0x18 SLOAD PUSH1 0x1 PUSH1 0x1 PUSH1 0xA0 SHL SUB DUP4 DUP2 AND SWAP2 AND EQ JUMPDEST ISZERO PUSH2 0x14AD JUMPI NUMBER PUSH1 0x9 SSTORE JUMPDEST PUSH2 0x14B8 DUP4 DUP4 DUP4 PUSH2 0x194A JUMP JUMPDEST POP POP POP JUMP JUMPDEST PUSH1 0x8 SLOAD PUSH1 0xFF AND PUSH2 0x1505 JUMPI PUSH1 0x40 MLOAD PUSH3 0x461BCD PUSH1 0xE5 SHL DUP2 MSTORE PUSH1 0x20 PUSH1 0x4 DUP3 ADD MSTORE PUSH1 0x13 PUSH1 0x24 DUP3 ADD MSTORE PUSH19 0x151C98591A5B99C81A5CC8191A5CD8589B1959 PUSH1 0x6A SHL PUSH1 0x44 DUP3 ADD MSTORE PUSH1 0x64 ADD PUSH2 0x9D0 JUMP JUMPDEST PUSH1 0xA SLOAD PUSH1 0x9 SLOAD PUSH2 0x1515 SWAP2 SWAP1 PUSH2 0x21EF JUMP JUMPDEST NUMBER GT PUSH2 0x1541 JUMPI POP PUSH1 0x1 PUSH1 0x1 PUSH1 0xA0 SHL SUB AND PUSH1 0x0 SWAP1 DUP2 MSTORE PUSH1 0x5 PUSH1 0x20 MSTORE PUSH1 0x40 SWAP1 KECCAK256 DUP1 SLOAD PUSH1 0xFF NOT AND PUSH1 0x1 OR SWAP1 SSTORE POP JUMP JUMPDEST PUSH1 0x18 SLOAD PUSH1 0x1 PUSH1 0x1 PUSH1 0xA0 SHL SUB DUP5 DUP2 AND SWAP2 DUP2 AND SWAP2 DUP3 EQ SWAP2 SWAP1 DUP5 AND EQ PUSH1 0x0 DUP1 DUP1 DUP1 DUP1 PUSH2 0x157F ADDRESS PUSH1 0x1 PUSH1 0x1 PUSH1 0xA0 SHL SUB AND PUSH1 0x0 SWAP1 DUP2 MSTORE PUSH1 0x3 PUSH1 0x20 MSTORE PUSH1 0x40 SWAP1 KECCAK256 SLOAD SWAP1 JUMP JUMPDEST PUSH1 0x16 SLOAD PUSH1 0x18 DUP1 SLOAD PUSH1 0x1 PUSH1 0xB0 SHL SWAP3 DUP5 LT ISZERO DUP4 MUL PUSH1 0xFF PUSH1 0xB0 SHL NOT SWAP1 SWAP2 AND OR SWAP1 DUP2 SWAP1 SSTORE SWAP2 SWAP3 POP SWAP1 DIV PUSH1 0xFF AND DUP1 ISZERO PUSH2 0x15BC JUMPI POP PUSH1 0x18 SLOAD PUSH1 0x1 PUSH1 0xA8 SHL SWAP1 DIV PUSH1 0xFF AND JUMPDEST DUP1 ISZERO PUSH2 0x15D2 JUMPI POP PUSH1 0x18 SLOAD PUSH1 0x1 PUSH1 0xA0 SHL SWAP1 DIV PUSH1 0xFF AND ISZERO JUMPDEST DUP1 ISZERO PUSH2 0x15F7 JUMPI POP PUSH1 0x1 PUSH1 0x1 PUSH1 0xA0 SHL SUB DUP11 AND PUSH1 0x0 SWAP1 DUP2 MSTORE PUSH1 0x6 PUSH1 0x20 MSTORE PUSH1 0x40 SWAP1 KECCAK256 SLOAD PUSH1 0xFF AND ISZERO JUMPDEST DUP1 ISZERO PUSH2 0x161C JUMPI POP PUSH1 0x1 PUSH1 0x1 PUSH1 0xA0 SHL SUB DUP11 AND PUSH1 0x0 SWAP1 DUP2 MSTORE PUSH1 0x7 PUSH1 0x20 MSTORE PUSH1 0x40 SWAP1 KECCAK256 SLOAD PUSH1 0xFF AND ISZERO JUMPDEST DUP1 ISZERO PUSH2 0x1641 JUMPI POP PUSH1 0x1 PUSH1 0x1 PUSH1 0xA0 SHL SUB DUP10 AND PUSH1 0x0 SWAP1 DUP2 MSTORE PUSH1 0x7 PUSH1 0x20 MSTORE PUSH1 0x40 SWAP1 KECCAK256 SLOAD PUSH1 0xFF AND ISZERO JUMPDEST ISZERO PUSH2 0x166F JUMPI PUSH1 0x18 DUP1 SLOAD PUSH1 0xFF PUSH1 0xA0 SHL NOT AND PUSH1 0x1 PUSH1 0xA0 SHL OR SWAP1 SSTORE PUSH2 0x1661 PUSH2 0x1A30 JUMP JUMPDEST PUSH1 0x18 DUP1 SLOAD PUSH1 0xFF PUSH1 0xA0 SHL NOT AND SWAP1 SSTORE JUMPDEST PUSH1 0x18 SLOAD PUSH1 0x1 PUSH1 0x1 PUSH1 0xA0 SHL SUB DUP12 AND PUSH1 0x0 SWAP1 DUP2 MSTORE PUSH1 0x7 PUSH1 0x20 MSTORE PUSH1 0x40 SWAP1 KECCAK256 SLOAD PUSH1 0xFF PUSH1 0x1 PUSH1 0xA0 SHL SWAP1 SWAP3 DIV DUP3 AND ISZERO SWAP2 AND DUP1 PUSH2 0x16BD JUMPI POP PUSH1 0x1 PUSH1 0x1 PUSH1 0xA0 SHL SUB DUP11 AND PUSH1 0x0 SWAP1 DUP2 MSTORE PUSH1 0x7 PUSH1 0x20 MSTORE PUSH1 0x40 SWAP1 KECCAK256 SLOAD PUSH1 0xFF AND JUMPDEST ISZERO PUSH2 0x16C6 JUMPI POP PUSH1 0x0 JUMPDEST PUSH1 0x0 DUP2 ISZERO PUSH2 0x18E1 JUMPI PUSH1 0x1 PUSH1 0x1 PUSH1 0xA0 SHL SUB DUP13 AND PUSH1 0x0 SWAP1 DUP2 MSTORE PUSH1 0x6 PUSH1 0x20 MSTORE PUSH1 0x40 SWAP1 KECCAK256 SLOAD PUSH1 0xFF AND DUP1 ISZERO PUSH2 0x16F3 JUMPI POP DUP9 JUMPDEST ISZERO PUSH2 0x17D3 JUMPI PUSH1 0x1 PUSH1 0x1 PUSH1 0xA0 SHL SUB DUP12 AND PUSH1 0x0 SWAP1 DUP2 MSTORE PUSH1 0x7 PUSH1 0x20 MSTORE PUSH1 0x40 SWAP1 KECCAK256 SLOAD PUSH1 0xFF AND PUSH2 0x17B7 JUMPI PUSH1 0x2 SLOAD DUP11 GT ISZERO PUSH2 0x176A JUMPI PUSH1 0x40 MLOAD PUSH3 0x461BCD PUSH1 0xE5 SHL DUP2 MSTORE PUSH1 0x20 PUSH1 0x4 DUP3 ADD MSTORE PUSH1 0x1E PUSH1 0x24 DUP3 ADD MSTORE PUSH32 0x43616E6E6F7420627579206D6F7265207468616E206D6178206C696D69740000 PUSH1 0x44 DUP3 ADD MSTORE PUSH1 0x64 ADD PUSH2 0x9D0 JUMP JUMPDEST PUSH2 0x1776 DUP11 PUSH1 0xD SLOAD PUSH2 0x1C24 JUMP JUMPDEST SWAP5 POP PUSH2 0x1784 DUP11 PUSH1 0xF SLOAD PUSH2 0x1C24 JUMP JUMPDEST SWAP7 POP PUSH2 0x1792 DUP11 PUSH1 0x10 SLOAD PUSH2 0x1C24 JUMP JUMPDEST SWAP6 POP PUSH2 0x179F DUP13 ADDRESS DUP10 PUSH2 0x194A JUMP JUMPDEST PUSH2 0x17AA DUP13 ADDRESS DUP8 PUSH2 0x194A JUMP JUMPDEST PUSH2 0x17B7 DUP13 PUSH2 0xDEAD DUP9 PUSH2 0x1C45 JUMP JUMPDEST DUP6 PUSH2 0x17C2 DUP9 DUP8 PUSH2 0x21EF JUMP JUMPDEST PUSH2 0x17CC SWAP2 SWAP1 PUSH2 0x21EF JUMP JUMPDEST SWAP1 POP PUSH2 0x18D4 JUMP JUMPDEST PUSH1 0x1 PUSH1 0x1 PUSH1 0xA0 SHL SUB DUP12 AND PUSH1 0x0 SWAP1 DUP2 MSTORE PUSH1 0x6 PUSH1 0x20 MSTORE PUSH1 0x40 SWAP1 KECCAK256 SLOAD PUSH1 0xFF AND DUP1 ISZERO PUSH2 0x17F8 JUMPI POP DUP8 JUMPDEST ISZERO PUSH2 0x18D4 JUMPI PUSH1 0x1 PUSH1 0x1 PUSH1 0xA0 SHL SUB DUP13 AND PUSH1 0x0 SWAP1 DUP2 MSTORE PUSH1 0x7 PUSH1 0x20 MSTORE PUSH1 0x40 SWAP1 KECCAK256 SLOAD PUSH1 0xFF AND PUSH2 0x18BC JUMPI PUSH1 0x2 SLOAD DUP11 GT ISZERO PUSH2 0x186F JUMPI PUSH1 0x40 MLOAD PUSH3 0x461BCD PUSH1 0xE5 SHL DUP2 MSTORE PUSH1 0x20 PUSH1 0x4 DUP3 ADD MSTORE PUSH1 0x1F PUSH1 0x24 DUP3 ADD MSTORE PUSH32 0x43616E6E6F742073656C6C206D6F7265207468616E206D6178206C696D697400 PUSH1 0x44 DUP3 ADD MSTORE PUSH1 0x64 ADD PUSH2 0x9D0 JUMP JUMPDEST PUSH2 0x187B DUP11 PUSH1 0xE SLOAD PUSH2 0x1C24 JUMP JUMPDEST SWAP4 POP PUSH2 0x1889 DUP11 PUSH1 0xF SLOAD PUSH2 0x1C24 JUMP JUMPDEST SWAP7 POP PUSH2 0x1897 DUP11 PUSH1 0x10 SLOAD PUSH2 0x1C24 JUMP JUMPDEST SWAP6 POP PUSH2 0x18A4 DUP13 ADDRESS DUP7 PUSH2 0x194A JUMP JUMPDEST PUSH2 0x18AF DUP13 ADDRESS DUP10 PUSH2 0x194A JUMP JUMPDEST PUSH2 0x18BC DUP13 PUSH2 0xDEAD DUP9 PUSH2 0x1C45 JUMP JUMPDEST DUP6 PUSH2 0x18C7 DUP9 DUP7 PUSH2 0x21EF JUMP JUMPDEST PUSH2 0x18D1 SWAP2 SWAP1 PUSH2 0x21EF JUMP JUMPDEST SWAP1 POP JUMPDEST PUSH2 0x18DE DUP2 DUP12 PUSH2 0x22CA JUMP JUMPDEST SWAP10 POP JUMPDEST PUSH2 0x18EC DUP13 DUP13 DUP13 PUSH2 0x194A JUMP JUMPDEST POP POP POP POP POP POP POP POP POP POP POP POP JUMP JUMPDEST PUSH1 0x0 DUP1 SLOAD PUSH1 0x1 PUSH1 0x1 PUSH1 0xA0 SHL SUB DUP4 DUP2 AND PUSH1 0x1 PUSH1 0x1 PUSH1 0xA0 SHL SUB NOT DUP4 AND DUP2 OR DUP5 SSTORE PUSH1 0x40 MLOAD SWAP2 SWAP1 SWAP3 AND SWAP3 DUP4 SWAP2 PUSH32 0x8BE0079C531659141344CD1FD0A4F28419497F9722A3DAAFE3B4186F6B6457E0 SWAP2 SWAP1 LOG3 POP POP JUMP JUMPDEST PUSH1 0x1 PUSH1 0x1 PUSH1 0xA0 SHL SUB DUP4 AND PUSH1 0x0 SWAP1 DUP2 MSTORE PUSH1 0x3 PUSH1 0x20 MSTORE PUSH1 0x40 SWAP1 KECCAK256 SLOAD DUP2 DUP2 LT ISZERO PUSH2 0x19C2 JUMPI PUSH1 0x40 MLOAD PUSH3 0x461BCD PUSH1 0xE5 SHL DUP2 MSTORE PUSH1 0x20 PUSH1 0x4 DUP3 ADD MSTORE PUSH1 0x26 PUSH1 0x24 DUP3 ADD MSTORE PUSH32 0x45524332303A207472616E7366657220616D6F756E7420657863656564732062 PUSH1 0x44 DUP3 ADD MSTORE PUSH6 0x616C616E6365 PUSH1 0xD0 SHL PUSH1 0x64 DUP3 ADD MSTORE PUSH1 0x84 ADD PUSH2 0x9D0 JUMP JUMPDEST PUSH1 0x1 PUSH1 0x1 PUSH1 0xA0 SHL SUB DUP1 DUP6 AND PUSH1 0x0 DUP2 DUP2 MSTORE PUSH1 0x3 PUSH1 0x20 MSTORE PUSH1 0x40 DUP1 DUP3 KECCAK256 DUP7 DUP7 SUB SWAP1 SSTORE SWAP3 DUP7 AND DUP1 DUP3 MSTORE SWAP1 DUP4 SWAP1 KECCAK256 DUP1 SLOAD DUP7 ADD SWAP1 SSTORE SWAP2 MLOAD PUSH32 0xDDF252AD1BE2C89B69C2B068FC378DAA952BA7F163C4A11628F55A4DF523B3EF SWAP1 PUSH2 0x1A22 SWAP1 DUP7 DUP2 MSTORE PUSH1 0x20 ADD SWAP1 JUMP JUMPDEST PUSH1 0x40 MLOAD DUP1 SWAP2 SUB SWAP1 LOG3 POP POP POP POP JUMP JUMPDEST ADDRESS PUSH1 0x0 SWAP1 DUP2 MSTORE PUSH1 0x3 PUSH1 0x20 MSTORE PUSH1 0x40 SWAP1 KECCAK256 SLOAD PUSH1 0x16 SLOAD DUP2 LT PUSH2 0xE17 JUMPI PUSH1 0x0 PUSH3 0x30D40 PUSH1 0x13 SLOAD DUP4 PUSH2 0x1A5D SWAP2 SWAP1 PUSH2 0x2202 JUMP JUMPDEST PUSH2 0x1A67 SWAP2 SWAP1 PUSH2 0x2219 JUMP JUMPDEST SWAP1 POP PUSH1 0x0 DUP2 PUSH3 0x186A0 PUSH1 0x13 SLOAD DUP6 PUSH2 0x1A7E SWAP2 SWAP1 PUSH2 0x2202 JUMP JUMPDEST PUSH2 0x1A88 SWAP2 SWAP1 PUSH2 0x2219 JUMP JUMPDEST PUSH2 0x1A92 SWAP2 SWAP1 PUSH2 0x22CA JUMP JUMPDEST SWAP1 POP PUSH1 0x0 PUSH2 0x1AA0 DUP4 DUP6 PUSH2 0x22CA JUMP JUMPDEST SWAP1 POP SELFBALANCE PUSH2 0x1AAC DUP3 PUSH2 0x1D81 JUMP JUMPDEST PUSH1 0x0 PUSH2 0x1AB8 DUP3 SELFBALANCE PUSH2 0x22CA JUMP JUMPDEST SWAP1 POP PUSH1 0x0 DUP1 PUSH1 0x0 PUSH3 0x186A0 PUSH1 0x11 SLOAD DUP6 PUSH2 0x1AD1 SWAP2 SWAP1 PUSH2 0x2202 JUMP JUMPDEST PUSH2 0x1ADB SWAP2 SWAP1 PUSH2 0x2219 JUMP JUMPDEST SWAP1 POP PUSH1 0x0 PUSH3 0x186A0 PUSH1 0x12 SLOAD DUP7 PUSH2 0x1AF1 SWAP2 SWAP1 PUSH2 0x2202 JUMP JUMPDEST PUSH2 0x1AFB SWAP2 SWAP1 PUSH2 0x2219 JUMP JUMPDEST SWAP1 POP PUSH1 0x0 PUSH2 0x1B09 DUP3 DUP5 PUSH2 0x21EF JUMP JUMPDEST SWAP1 POP DUP2 PUSH2 0x1B16 DUP5 DUP9 PUSH2 0x22CA JUMP JUMPDEST PUSH2 0x1B20 SWAP2 SWAP1 PUSH2 0x22CA JUMP JUMPDEST SWAP6 POP PUSH1 0x0 PUSH3 0x186A0 PUSH1 0x15 SLOAD DUP4 PUSH2 0x1B36 SWAP2 SWAP1 PUSH2 0x2202 JUMP JUMPDEST PUSH2 0x1B40 SWAP2 SWAP1 PUSH2 0x2219 JUMP JUMPDEST SWAP1 POP PUSH1 0x0 PUSH2 0x1B4E DUP3 DUP5 PUSH2 0x22CA JUMP JUMPDEST PUSH1 0xB SLOAD PUSH1 0x40 MLOAD SWAP2 SWAP3 POP PUSH1 0x1 PUSH1 0x1 PUSH1 0xA0 SHL SUB AND SWAP1 PUSH2 0x88B8 SWAP1 DUP5 SWAP1 PUSH1 0x0 DUP2 DUP2 DUP2 DUP6 DUP9 DUP9 CALL SWAP4 POP POP POP POP RETURNDATASIZE DUP1 PUSH1 0x0 DUP2 EQ PUSH2 0x1BA1 JUMPI PUSH1 0x40 MLOAD SWAP2 POP PUSH1 0x1F NOT PUSH1 0x3F RETURNDATASIZE ADD AND DUP3 ADD PUSH1 0x40 MSTORE RETURNDATASIZE DUP3 MSTORE RETURNDATASIZE PUSH1 0x0 PUSH1 0x20 DUP5 ADD RETURNDATACOPY PUSH2 0x1BA6 JUMP JUMPDEST PUSH1 0x60 SWAP2 POP JUMPDEST POP POP PUSH1 0xC SLOAD PUSH1 0x40 MLOAD SWAP2 SWAP9 POP PUSH1 0x1 PUSH1 0x1 PUSH1 0xA0 SHL SUB AND SWAP1 PUSH2 0x88B8 SWAP1 DUP4 SWAP1 PUSH1 0x0 DUP2 DUP2 DUP2 DUP6 DUP9 DUP9 CALL SWAP4 POP POP POP POP RETURNDATASIZE DUP1 PUSH1 0x0 DUP2 EQ PUSH2 0x1BFB JUMPI PUSH1 0x40 MLOAD SWAP2 POP PUSH1 0x1F NOT PUSH1 0x3F RETURNDATASIZE ADD AND DUP3 ADD PUSH1 0x40 MSTORE RETURNDATASIZE DUP3 MSTORE RETURNDATASIZE PUSH1 0x0 PUSH1 0x20 DUP5 ADD RETURNDATACOPY PUSH2 0x1C00 JUMP JUMPDEST PUSH1 0x60 SWAP2 POP JUMPDEST POP SWAP1 SWAP7 POP POP DUP8 ISZERO PUSH2 0x1C15 JUMPI PUSH2 0x1C15 DUP12 DUP10 PUSH2 0x1EDB JUMP JUMPDEST POP POP POP POP POP POP POP POP POP POP POP POP POP JUMP JUMPDEST PUSH1 0x0 PUSH3 0x186A0 PUSH2 0x1C34 DUP4 DUP6 PUSH2 0x2202 JUMP JUMPDEST PUSH2 0x1C3E SWAP2 SWAP1 PUSH2 0x2219 JUMP JUMPDEST SWAP4 SWAP3 POP POP POP JUMP JUMPDEST PUSH1 0x1 PUSH1 0x1 PUSH1 0xA0 SHL SUB DUP4 AND PUSH2 0x1CA5 JUMPI PUSH1 0x40 MLOAD PUSH3 0x461BCD PUSH1 0xE5 SHL DUP2 MSTORE PUSH1 0x20 PUSH1 0x4 DUP3 ADD MSTORE PUSH1 0x21 PUSH1 0x24 DUP3 ADD MSTORE PUSH32 0x45524332303A206275726E2066726F6D20746865207A65726F20616464726573 PUSH1 0x44 DUP3 ADD MSTORE PUSH1 0x73 PUSH1 0xF8 SHL PUSH1 0x64 DUP3 ADD MSTORE PUSH1 0x84 ADD PUSH2 0x9D0 JUMP JUMPDEST PUSH1 0x1 PUSH1 0x1 PUSH1 0xA0 SHL SUB DUP4 AND PUSH1 0x0 SWAP1 DUP2 MSTORE PUSH1 0x3 PUSH1 0x20 MSTORE PUSH1 0x40 SWAP1 KECCAK256 SLOAD DUP2 GT ISZERO PUSH2 0x1D18 JUMPI PUSH1 0x40 MLOAD PUSH3 0x461BCD PUSH1 0xE5 SHL DUP2 MSTORE PUSH1 0x20 PUSH1 0x4 DUP3 ADD MSTORE PUSH1 0x22 PUSH1 0x24 DUP3 ADD MSTORE PUSH32 0x45524332303A206275726E20616D6F756E7420657863656564732062616C616E PUSH1 0x44 DUP3 ADD MSTORE PUSH2 0x6365 PUSH1 0xF0 SHL PUSH1 0x64 DUP3 ADD MSTORE PUSH1 0x84 ADD PUSH2 0x9D0 JUMP JUMPDEST PUSH1 0x1 PUSH1 0x1 PUSH1 0xA0 SHL SUB DUP1 DUP5 AND PUSH1 0x0 DUP2 DUP2 MSTORE PUSH1 0x3 PUSH1 0x20 MSTORE PUSH1 0x40 DUP1 DUP3 KECCAK256 DUP1 SLOAD DUP7 SWAP1 SUB SWAP1 SSTORE SWAP3 DUP6 AND DUP2 MSTORE DUP3 DUP2 KECCAK256 DUP1 SLOAD DUP6 ADD SWAP1 SSTORE PUSH1 0x1 DUP1 SLOAD DUP6 SWAP1 SUB SWAP1 SSTORE SWAP2 MLOAD PUSH32 0xDDF252AD1BE2C89B69C2B068FC378DAA952BA7F163C4A11628F55A4DF523B3EF SWAP1 PUSH2 0x11F0 SWAP1 DUP6 DUP2 MSTORE PUSH1 0x20 ADD SWAP1 JUMP JUMPDEST PUSH1 0x40 DUP1 MLOAD PUSH1 0x2 DUP1 DUP3 MSTORE PUSH1 0x60 DUP3 ADD DUP4 MSTORE PUSH1 0x0 SWAP3 PUSH1 0x20 DUP4 ADD SWAP1 DUP1 CALLDATASIZE DUP4 CALLDATACOPY ADD SWAP1 POP POP SWAP1 POP ADDRESS DUP2 PUSH1 0x0 DUP2 MLOAD DUP2 LT PUSH2 0x1DB6 JUMPI PUSH2 0x1DB6 PUSH2 0x223B JUMP JUMPDEST PUSH1 0x1 PUSH1 0x1 PUSH1 0xA0 SHL SUB SWAP3 DUP4 AND PUSH1 0x20 SWAP2 DUP3 MUL SWAP3 SWAP1 SWAP3 ADD DUP2 ADD SWAP2 SWAP1 SWAP2 MSTORE PUSH1 0x17 SLOAD PUSH1 0x40 DUP1 MLOAD PUSH4 0x15AB88C9 PUSH1 0xE3 SHL DUP2 MSTORE SWAP1 MLOAD SWAP2 SWAP1 SWAP4 AND SWAP3 PUSH4 0xAD5C4648 SWAP3 PUSH1 0x4 DUP1 DUP4 ADD SWAP4 SWAP2 SWAP3 DUP3 SWAP1 SUB ADD DUP2 DUP7 GAS STATICCALL ISZERO DUP1 ISZERO PUSH2 0x1E0F JUMPI RETURNDATASIZE PUSH1 0x0 DUP1 RETURNDATACOPY RETURNDATASIZE PUSH1 0x0 REVERT JUMPDEST POP POP POP POP PUSH1 0x40 MLOAD RETURNDATASIZE PUSH1 0x1F NOT PUSH1 0x1F DUP3 ADD AND DUP3 ADD DUP1 PUSH1 0x40 MSTORE POP DUP2 ADD SWAP1 PUSH2 0x1E33 SWAP2 SWAP1 PUSH2 0x22DD JUMP JUMPDEST DUP2 PUSH1 0x1 DUP2 MLOAD DUP2 LT PUSH2 0x1E46 JUMPI PUSH2 0x1E46 PUSH2 0x223B JUMP JUMPDEST PUSH1 0x1 PUSH1 0x1 PUSH1 0xA0 SHL SUB SWAP3 DUP4 AND PUSH1 0x20 SWAP2 DUP3 MUL SWAP3 SWAP1 SWAP3 ADD ADD MSTORE PUSH1 0x17 SLOAD PUSH2 0x1E6C SWAP2 ADDRESS SWAP2 AND DUP5 PUSH2 0x10D8 JUMP JUMPDEST PUSH1 0x17 SLOAD PUSH1 0x40 MLOAD PUSH4 0x791AC947 PUSH1 0xE0 SHL DUP2 MSTORE PUSH1 0x1 PUSH1 0x1 PUSH1 0xA0 SHL SUB SWAP1 SWAP2 AND SWAP1 PUSH4 0x791AC947 SWAP1 PUSH2 0x1EA5 SWAP1 DUP6 SWAP1 PUSH1 0x0 SWAP1 DUP7 SWAP1 ADDRESS SWAP1 TIMESTAMP SWAP1 PUSH1 0x4 ADD PUSH2 0x22FA JUMP JUMPDEST PUSH1 0x0 PUSH1 0x40 MLOAD DUP1 DUP4 SUB DUP2 PUSH1 0x0 DUP8 DUP1 EXTCODESIZE ISZERO DUP1 ISZERO PUSH2 0x1EBF JUMPI PUSH1 0x0 DUP1 REVERT JUMPDEST POP GAS CALL ISZERO DUP1 ISZERO PUSH2 0x1ED3 JUMPI RETURNDATASIZE PUSH1 0x0 DUP1 RETURNDATACOPY RETURNDATASIZE PUSH1 0x0 REVERT JUMPDEST POP POP POP POP POP POP JUMP JUMPDEST PUSH1 0x17 SLOAD PUSH2 0x1EF3 SWAP1 ADDRESS SWAP1 PUSH1 0x1 PUSH1 0x1 PUSH1 0xA0 SHL SUB AND DUP5 PUSH2 0x10D8 JUMP JUMPDEST PUSH1 0x17 SLOAD PUSH1 0x40 MLOAD PUSH4 0xF305D719 PUSH1 0xE0 SHL DUP2 MSTORE ADDRESS PUSH1 0x4 DUP3 ADD DUP2 SWAP1 MSTORE PUSH1 0x24 DUP3 ADD DUP6 SWAP1 MSTORE PUSH1 0x0 PUSH1 0x44 DUP4 ADD DUP2 SWAP1 MSTORE PUSH1 0x64 DUP4 ADD MSTORE PUSH1 0x84 DUP3 ADD MSTORE TIMESTAMP PUSH1 0xA4 DUP3 ADD MSTORE PUSH1 0x1 PUSH1 0x1 PUSH1 0xA0 SHL SUB SWAP1 SWAP2 AND SWAP1 PUSH4 0xF305D719 SWAP1 DUP4 SWAP1 PUSH1 0xC4 ADD PUSH1 0x60 PUSH1 0x40 MLOAD DUP1 DUP4 SUB DUP2 DUP6 DUP9 GAS CALL ISZERO DUP1 ISZERO PUSH2 0x1F60 JUMPI RETURNDATASIZE PUSH1 0x0 DUP1 RETURNDATACOPY RETURNDATASIZE PUSH1 0x0 REVERT JUMPDEST POP POP POP POP POP PUSH1 0x40 MLOAD RETURNDATASIZE PUSH1 0x1F NOT PUSH1 0x1F DUP3 ADD AND DUP3 ADD DUP1 PUSH1 0x40 MSTORE POP DUP2 ADD SWAP1 PUSH2 0xDC1 SWAP2 SWAP1 PUSH2 0x236B JUMP JUMPDEST PUSH1 0x0 PUSH1 0x20 DUP1 DUP4 MSTORE DUP4 MLOAD DUP1 DUP3 DUP6 ADD MSTORE PUSH1 0x0 JUMPDEST DUP2 DUP2 LT ISZERO PUSH2 0x1FB2 JUMPI DUP6 DUP2 ADD DUP4 ADD MLOAD DUP6 DUP3 ADD PUSH1 0x40 ADD MSTORE DUP3 ADD PUSH2 0x1F96 JUMP JUMPDEST POP PUSH1 0x0 PUSH1 0x40 DUP3 DUP7 ADD ADD MSTORE PUSH1 0x40 PUSH1 0x1F NOT PUSH1 0x1F DUP4 ADD AND DUP6 ADD ADD SWAP3 POP POP POP SWAP3 SWAP2 POP POP JUMP JUMPDEST PUSH1 0x0 PUSH1 0x20 DUP3 DUP5 SUB SLT ISZERO PUSH2 0x1FE5 JUMPI PUSH1 0x0 DUP1 REVERT JUMPDEST POP CALLDATALOAD SWAP2 SWAP1 POP JUMP JUMPDEST PUSH1 0x1 PUSH1 0x1 PUSH1 0xA0 SHL SUB DUP2 AND DUP2 EQ PUSH2 0xE17 JUMPI PUSH1 0x0 DUP1 REVERT JUMPDEST PUSH1 0x0 DUP1 PUSH1 0x40 DUP4 DUP6 SUB SLT ISZERO PUSH2 0x2014 JUMPI PUSH1 0x0 DUP1 REVERT JUMPDEST DUP3 CALLDATALOAD PUSH2 0x201F DUP2 PUSH2 0x1FEC JUMP JUMPDEST SWAP5 PUSH1 0x20 SWAP4 SWAP1 SWAP4 ADD CALLDATALOAD SWAP4 POP POP POP JUMP JUMPDEST PUSH1 0x0 PUSH1 0x20 DUP3 DUP5 SUB SLT ISZERO PUSH2 0x203F JUMPI PUSH1 0x0 DUP1 REVERT JUMPDEST DUP2 CALLDATALOAD PUSH2 0x1C3E DUP2 PUSH2 0x1FEC JUMP JUMPDEST PUSH1 0x0 DUP1 PUSH1 0x0 PUSH1 0x60 DUP5 DUP7 SUB SLT ISZERO PUSH2 0x205F JUMPI PUSH1 0x0 DUP1 REVERT JUMPDEST DUP4 CALLDATALOAD PUSH2 0x206A DUP2 PUSH2 0x1FEC JUMP JUMPDEST SWAP3 POP PUSH1 0x20 DUP5 ADD CALLDATALOAD PUSH2 0x207A DUP2 PUSH2 0x1FEC JUMP JUMPDEST SWAP3 SWAP6 SWAP3 SWAP5 POP POP POP PUSH1 0x40 SWAP2 SWAP1 SWAP2 ADD CALLDATALOAD SWAP1 JUMP JUMPDEST DUP1 ISZERO ISZERO DUP2 EQ PUSH2 0xE17 JUMPI PUSH1 0x0 DUP1 REVERT JUMPDEST PUSH1 0x0 DUP1 PUSH1 0x40 DUP4 DUP6 SUB SLT ISZERO PUSH2 0x20AC JUMPI PUSH1 0x0 DUP1 REVERT JUMPDEST DUP3 CALLDATALOAD PUSH2 0x20B7 DUP2 PUSH2 0x1FEC JUMP JUMPDEST SWAP2 POP PUSH1 0x20 DUP4 ADD CALLDATALOAD PUSH2 0x20C7 DUP2 PUSH2 0x208B JUMP JUMPDEST DUP1 SWAP2 POP POP SWAP3 POP SWAP3 SWAP1 POP JUMP JUMPDEST PUSH1 0x0 DUP1 PUSH1 0x0 PUSH1 0x40 DUP5 DUP7 SUB SLT ISZERO PUSH2 0x20E7 JUMPI PUSH1 0x0 DUP1 REVERT JUMPDEST DUP4 CALLDATALOAD PUSH8 0xFFFFFFFFFFFFFFFF DUP1 DUP3 GT ISZERO PUSH2 0x20FF JUMPI PUSH1 0x0 DUP1 REVERT JUMPDEST DUP2 DUP7 ADD SWAP2 POP DUP7 PUSH1 0x1F DUP4 ADD SLT PUSH2 0x2113 JUMPI PUSH1 0x0 DUP1 REVERT JUMPDEST DUP2 CALLDATALOAD DUP2 DUP2 GT ISZERO PUSH2 0x2122 JUMPI PUSH1 0x0 DUP1 REVERT JUMPDEST DUP8 PUSH1 0x20 DUP3 PUSH1 0x5 SHL DUP6 ADD ADD GT ISZERO PUSH2 0x2137 JUMPI PUSH1 0x0 DUP1 REVERT JUMPDEST PUSH1 0x20 SWAP3 DUP4 ADD SWAP9 SWAP1 SWAP8 POP SWAP6 SWAP1 SWAP2 ADD CALLDATALOAD SWAP5 SWAP4 POP POP POP POP JUMP JUMPDEST PUSH1 0x0 PUSH1 0x20 DUP3 DUP5 SUB SLT ISZERO PUSH2 0x215F JUMPI PUSH1 0x0 DUP1 REVERT JUMPDEST DUP2 CALLDATALOAD PUSH2 0x1C3E DUP2 PUSH2 0x208B JUMP JUMPDEST PUSH1 0x0 DUP1 PUSH1 0x40 DUP4 DUP6 SUB SLT ISZERO PUSH2 0x217D JUMPI PUSH1 0x0 DUP1 REVERT JUMPDEST DUP3 CALLDATALOAD PUSH2 0x2188 DUP2 PUSH2 0x1FEC JUMP JUMPDEST SWAP2 POP PUSH1 0x20 DUP4 ADD CALLDATALOAD PUSH2 0x20C7 DUP2 PUSH2 0x1FEC JUMP JUMPDEST PUSH1 0x20 DUP1 DUP3 MSTORE PUSH1 0x21 SWAP1 DUP3 ADD MSTORE PUSH32 0x5461782070657263656E746167652063616E6E6F742065786365656420313030 PUSH1 0x40 DUP3 ADD MSTORE PUSH1 0x25 PUSH1 0xF8 SHL PUSH1 0x60 DUP3 ADD MSTORE PUSH1 0x80 ADD SWAP1 JUMP JUMPDEST PUSH4 0x4E487B71 PUSH1 0xE0 SHL PUSH1 0x0 MSTORE PUSH1 0x11 PUSH1 0x4 MSTORE PUSH1 0x24 PUSH1 0x0 REVERT JUMPDEST DUP1 DUP3 ADD DUP1 DUP3 GT ISZERO PUSH2 0x966 JUMPI PUSH2 0x966 PUSH2 0x21D9 JUMP JUMPDEST DUP1 DUP3 MUL DUP2 ISZERO DUP3 DUP3 DIV DUP5 EQ OR PUSH2 0x966 JUMPI PUSH2 0x966 PUSH2 0x21D9 JUMP JUMPDEST PUSH1 0x0 DUP3 PUSH2 0x2236 JUMPI PUSH4 0x4E487B71 PUSH1 0xE0 SHL PUSH1 0x0 MSTORE PUSH1 0x12 PUSH1 0x4 MSTORE PUSH1 0x24 PUSH1 0x0 REVERT JUMPDEST POP DIV SWAP1 JUMP JUMPDEST PUSH4 0x4E487B71 PUSH1 0xE0 SHL PUSH1 0x0 MSTORE PUSH1 0x32 PUSH1 0x4 MSTORE PUSH1 0x24 PUSH1 0x0 REVERT JUMPDEST PUSH1 0x20 DUP1 DUP3 MSTORE PUSH1 0x23 SWAP1 DUP3 ADD MSTORE PUSH32 0x45524332303A207472616E7366657220746F20746865207A65726F2061646472 PUSH1 0x40 DUP3 ADD MSTORE PUSH3 0x657373 PUSH1 0xE8 SHL PUSH1 0x60 DUP3 ADD MSTORE PUSH1 0x80 ADD SWAP1 JUMP JUMPDEST PUSH1 0x0 PUSH1 0x20 DUP3 DUP5 SUB SLT ISZERO PUSH2 0x22A6 JUMPI PUSH1 0x0 DUP1 REVERT JUMPDEST POP MLOAD SWAP2 SWAP1 POP JUMP JUMPDEST PUSH1 0x0 PUSH1 0x20 DUP3 DUP5 SUB SLT ISZERO PUSH2 0x22BF JUMPI PUSH1 0x0 DUP1 REVERT JUMPDEST DUP2 MLOAD PUSH2 0x1C3E DUP2 PUSH2 0x208B JUMP JUMPDEST DUP2 DUP2 SUB DUP2 DUP2 GT ISZERO PUSH2 0x966 JUMPI PUSH2 0x966 PUSH2 0x21D9 JUMP JUMPDEST PUSH1 0x0 PUSH1 0x20 DUP3 DUP5 SUB SLT ISZERO PUSH2 0x22EF JUMPI PUSH1 0x0 DUP1 REVERT JUMPDEST DUP2 MLOAD PUSH2 0x1C3E DUP2 PUSH2 0x1FEC JUMP JUMPDEST PUSH1 0x0 PUSH1 0xA0 DUP3 ADD DUP8 DUP4 MSTORE PUSH1 0x20 DUP8 DUP2 DUP6 ADD MSTORE PUSH1 0xA0 PUSH1 0x40 DUP6 ADD MSTORE DUP2 DUP8 MLOAD DUP1 DUP5 MSTORE PUSH1 0xC0 DUP7 ADD SWAP2 POP DUP3 DUP10 ADD SWAP4 POP PUSH1 0x0 JUMPDEST DUP2 DUP2 LT ISZERO PUSH2 0x234A JUMPI DUP5 MLOAD PUSH1 0x1 PUSH1 0x1 PUSH1 0xA0 SHL SUB AND DUP4 MSTORE SWAP4 DUP4 ADD SWAP4 SWAP2 DUP4 ADD SWAP2 PUSH1 0x1 ADD PUSH2 0x2325 JUMP JUMPDEST POP POP PUSH1 0x1 PUSH1 0x1 PUSH1 0xA0 SHL SUB SWAP7 SWAP1 SWAP7 AND PUSH1 0x60 DUP6 ADD MSTORE POP POP POP PUSH1 0x80 ADD MSTORE SWAP4 SWAP3 POP POP POP JUMP JUMPDEST PUSH1 0x0 DUP1 PUSH1 0x0 PUSH1 0x60 DUP5 DUP7 SUB SLT ISZERO PUSH2 0x2380 JUMPI PUSH1 0x0 DUP1 REVERT JUMPDEST DUP4 MLOAD SWAP3 POP PUSH1 0x20 DUP5 ADD MLOAD SWAP2 POP PUSH1 0x40 DUP5 ADD MLOAD SWAP1 POP SWAP3 POP SWAP3 POP SWAP3 JUMP INVALID LOG2 PUSH5 0x6970667358 0x22 SLT KECCAK256 RETURN DUP7 JUMPDEST 0xE4 EXTCODECOPY 0xEC 0xE3 0xC4 0x25 SELFDESTRUCT PUSH15 0x4E92569349A626AE68090A617740B1 SWAP13 0x25 0xC7 0xC1 0xE5 DUP5 PUSH5 0x736F6C6343 STOP ADDMOD SGT STOP CALLER "
				},
				"gasEstimates": {
					"creation": {
						"codeDepositCost": "1833400",
						"executionCost": "infinite",
						"totalCost": "infinite"
					},
					"external": {
						"": "252",
						"DEAD()": "252",
						"TransferEx(address[],uint256)": "infinite",
						"_burnTaxPercentage()": "2385",
						"_buyTaxPercentage()": "2384",
						"_buyTaxShare()": "2427",
						"_isExcludedFromFee(address)": "2636",
						"_liquidityTaxPercentage()": "2363",
						"_liquidityTaxShare()": "2384",
						"_sellTaxPercentage()": "2385",
						"_sellTaxShare()": "2384",
						"_taxThreshold()": "2451",
						"_totalTaxPercent()": "2341",
						"_uniswapPair()": "2460",
						"allowance(address,address)": "infinite",
						"approve(address,uint256)": "24705",
						"automatedMarketMakerPairs(address)": "2636",
						"balanceOf(address)": "2643",
						"blacklisted(address)": "2592",
						"decimals()": "289",
						"devWallet()": "2438",
						"enableTrade(bool)": "26754",
						"isTradeEnabled()": "2372",
						"marketingPercent()": "2450",
						"marketingWallet()": "2415",
						"maxAmount()": "2407",
						"name()": "infinite",
						"numBlocksForBlacklist()": "2406",
						"owner()": "2410",
						"recoverETHfromContract()": "infinite",
						"recoverTokensFromContract(address,uint256)": "infinite",
						"renounceOwnership()": "infinite",
						"setAutomatedMarketMakerPair(address,bool)": "infinite",
						"setBurnTaxPercentage(uint256)": "24580",
						"setBuyTaxPercentage(uint256)": "infinite",
						"setDevWallet(address)": "26855",
						"setExcludedFromFee(address,bool)": "infinite",
						"setLiquidityTaxPercentage(uint256)": "infinite",
						"setMarketingPercentage(uint256)": "24582",
						"setMarketingWallet(address)": "26854",
						"setMaxAmount(uint256)": "24534",
						"setNumberOfBlocksForBlacklist(uint256)": "24621",
						"setSellTaxPercentage(uint256)": "infinite",
						"setTaxThreshold(uint256)": "24579",
						"swapEnabled()": "2417",
						"swapping()": "2484",
						"symbol()": "infinite",
						"totalSupply()": "2350",
						"trade_open()": "2443",
						"transfer(address,uint256)": "infinite",
						"transferFrom(address,address,uint256)": "infinite",
						"transferOwnership(address)": "infinite",
						"uniswapV2Router()": "2461"
					},
					"internal": {
						"_approve(address,address,uint256)": "infinite",
						"_burnTokens(address,address,uint256)": "infinite",
						"_calculateTax(uint256,uint256)": "178",
						"_setAutomatedMarketMakerPair(address,bool)": "infinite",
						"_spendAllowance(address,address,uint256)": "infinite",
						"_transfer(address,address,uint256)": "infinite",
						"_transferTokens(address,address,uint256)": "infinite",
						"addLiquidity(uint256,uint256)": "infinite",
						"swapAndLiquify()": "infinite",
						"swapTokensForEth(uint256)": "infinite"
					}
				},
				"methodIdentifiers": {
					"DEAD()": "03fd2a45",
					"TransferEx(address[],uint256)": "ba414b10",
					"_burnTaxPercentage()": "3048a281",
					"_buyTaxPercentage()": "c410ab5e",
					"_buyTaxShare()": "f7e53337",
					"_isExcludedFromFee(address)": "768dc710",
					"_liquidityTaxPercentage()": "549fb8bf",
					"_liquidityTaxShare()": "dd3a1f76",
					"_sellTaxPercentage()": "a562564a",
					"_sellTaxShare()": "aaa00b99",
					"_taxThreshold()": "67b34e01",
					"_totalTaxPercent()": "7f2e6ccb",
					"_uniswapPair()": "4bf28fd0",
					"allowance(address,address)": "dd62ed3e",
					"approve(address,uint256)": "095ea7b3",
					"automatedMarketMakerPairs(address)": "b62496f5",
					"balanceOf(address)": "70a08231",
					"blacklisted(address)": "dbac26e9",
					"decimals()": "313ce567",
					"devWallet()": "8ea5220f",
					"enableTrade(bool)": "c00f04d1",
					"isTradeEnabled()": "8d38a127",
					"marketingPercent()": "d8020a18",
					"marketingWallet()": "75f0a874",
					"maxAmount()": "5f48f393",
					"name()": "06fdde03",
					"numBlocksForBlacklist()": "c51abc59",
					"owner()": "8da5cb5b",
					"recoverETHfromContract()": "ce831ed5",
					"recoverTokensFromContract(address,uint256)": "e6be4a72",
					"renounceOwnership()": "715018a6",
					"setAutomatedMarketMakerPair(address,bool)": "9a7a23d6",
					"setBurnTaxPercentage(uint256)": "e59602fa",
					"setBuyTaxPercentage(uint256)": "a56d37f9",
					"setDevWallet(address)": "1f53ac02",
					"setExcludedFromFee(address,bool)": "6612e66f",
					"setLiquidityTaxPercentage(uint256)": "6dbff43b",
					"setMarketingPercentage(uint256)": "2d4ed650",
					"setMarketingWallet(address)": "5d098b38",
					"setMaxAmount(uint256)": "4fe47f70",
					"setNumberOfBlocksForBlacklist(uint256)": "b7925f7a",
					"setSellTaxPercentage(uint256)": "9ec4be41",
					"setTaxThreshold(uint256)": "07a212be",
					"swapEnabled()": "6ddd1713",
					"swapping()": "1732cded",
					"symbol()": "95d89b41",
					"totalSupply()": "18160ddd",
					"trade_open()": "7aab5d9b",
					"transfer(address,uint256)": "a9059cbb",
					"transferFrom(address,address,uint256)": "23b872dd",
					"transferOwnership(address)": "f2fde38b",
					"uniswapV2Router()": "1694505e"
				}
			},
			"storageLayout": {
				"storage": [
					{
						"astId": 26,
						"contract": "templet.sol:XYZToken",
						"label": "_owner",
						"offset": 0,
						"slot": "0",
						"type": "t_address"
					},
					{
						"astId": 441,
						"contract": "templet.sol:XYZToken",
						"label": "_totalSupply",
						"offset": 0,
						"slot": "1",
						"type": "t_uint256"
					},
					{
						"astId": 451,
						"contract": "templet.sol:XYZToken",
						"label": "maxAmount",
						"offset": 0,
						"slot": "2",
						"type": "t_uint256"
					},
					{
						"astId": 455,
						"contract": "templet.sol:XYZToken",
						"label": "_balances",
						"offset": 0,
						"slot": "3",
						"type": "t_mapping(t_address,t_uint256)"
					},
					{
						"astId": 461,
						"contract": "templet.sol:XYZToken",
						"label": "_allowances",
						"offset": 0,
						"slot": "4",
						"type": "t_mapping(t_address,t_mapping(t_address,t_uint256))"
					},
					{
						"astId": 465,
						"contract": "templet.sol:XYZToken",
						"label": "blacklisted",
						"offset": 0,
						"slot": "5",
						"type": "t_mapping(t_address,t_bool)"
					},
					{
						"astId": 469,
						"contract": "templet.sol:XYZToken",
						"label": "automatedMarketMakerPairs",
						"offset": 0,
						"slot": "6",
						"type": "t_mapping(t_address,t_bool)"
					},
					{
						"astId": 473,
						"contract": "templet.sol:XYZToken",
						"label": "_isExcludedFromFee",
						"offset": 0,
						"slot": "7",
						"type": "t_mapping(t_address,t_bool)"
					},
					{
						"astId": 475,
						"contract": "templet.sol:XYZToken",
						"label": "trade_open",
						"offset": 0,
						"slot": "8",
						"type": "t_bool"
					},
					{
						"astId": 477,
						"contract": "templet.sol:XYZToken",
						"label": "currentBlockNumber",
						"offset": 0,
						"slot": "9",
						"type": "t_uint256"
					},
					{
						"astId": 480,
						"contract": "templet.sol:XYZToken",
						"label": "numBlocksForBlacklist",
						"offset": 0,
						"slot": "10",
						"type": "t_uint256"
					},
					{
						"astId": 482,
						"contract": "templet.sol:XYZToken",
						"label": "marketingWallet",
						"offset": 0,
						"slot": "11",
						"type": "t_address"
					},
					{
						"astId": 484,
						"contract": "templet.sol:XYZToken",
						"label": "devWallet",
						"offset": 0,
						"slot": "12",
						"type": "t_address"
					},
					{
						"astId": 490,
						"contract": "templet.sol:XYZToken",
						"label": "_buyTaxPercentage",
						"offset": 0,
						"slot": "13",
						"type": "t_uint256"
					},
					{
						"astId": 493,
						"contract": "templet.sol:XYZToken",
						"label": "_sellTaxPercentage",
						"offset": 0,
						"slot": "14",
						"type": "t_uint256"
					},
					{
						"astId": 496,
						"contract": "templet.sol:XYZToken",
						"label": "_liquidityTaxPercentage",
						"offset": 0,
						"slot": "15",
						"type": "t_uint256"
					},
					{
						"astId": 499,
						"contract": "templet.sol:XYZToken",
						"label": "_burnTaxPercentage",
						"offset": 0,
						"slot": "16",
						"type": "t_uint256"
					},
					{
						"astId": 502,
						"contract": "templet.sol:XYZToken",
						"label": "_buyTaxShare",
						"offset": 0,
						"slot": "17",
						"type": "t_uint256"
					},
					{
						"astId": 505,
						"contract": "templet.sol:XYZToken",
						"label": "_sellTaxShare",
						"offset": 0,
						"slot": "18",
						"type": "t_uint256"
					},
					{
						"astId": 508,
						"contract": "templet.sol:XYZToken",
						"label": "_liquidityTaxShare",
						"offset": 0,
						"slot": "19",
						"type": "t_uint256"
					},
					{
						"astId": 510,
						"contract": "templet.sol:XYZToken",
						"label": "_totalTaxPercent",
						"offset": 0,
						"slot": "20",
						"type": "t_uint256"
					},
					{
						"astId": 513,
						"contract": "templet.sol:XYZToken",
						"label": "marketingPercent",
						"offset": 0,
						"slot": "21",
						"type": "t_uint256"
					},
					{
						"astId": 523,
						"contract": "templet.sol:XYZToken",
						"label": "_taxThreshold",
						"offset": 0,
						"slot": "22",
						"type": "t_uint256"
					},
					{
						"astId": 526,
						"contract": "templet.sol:XYZToken",
						"label": "uniswapV2Router",
						"offset": 0,
						"slot": "23",
						"type": "t_contract(IUniswapV2Router02)420"
					},
					{
						"astId": 528,
						"contract": "templet.sol:XYZToken",
						"label": "_uniswapPair",
						"offset": 0,
						"slot": "24",
						"type": "t_address"
					},
					{
						"astId": 530,
						"contract": "templet.sol:XYZToken",
						"label": "swapping",
						"offset": 20,
						"slot": "24",
						"type": "t_bool"
					},
					{
						"astId": 533,
						"contract": "templet.sol:XYZToken",
						"label": "swapEnabled",
						"offset": 21,
						"slot": "24",
						"type": "t_bool"
					},
					{
						"astId": 1720,
						"contract": "templet.sol:XYZToken",
						"label": "canSwap",
						"offset": 22,
						"slot": "24",
						"type": "t_bool"
					}
				],
				"types": {
					"t_address": {
						"encoding": "inplace",
						"label": "address",
						"numberOfBytes": "20"
					},
					"t_bool": {
						"encoding": "inplace",
						"label": "bool",
						"numberOfBytes": "1"
					},
					"t_contract(IUniswapV2Router02)420": {
						"encoding": "inplace",
						"label": "contract IUniswapV2Router02",
						"numberOfBytes": "20"
					},
					"t_mapping(t_address,t_bool)": {
						"encoding": "mapping",
						"key": "t_address",
						"label": "mapping(address => bool)",
						"numberOfBytes": "32",
						"value": "t_bool"
					},
					"t_mapping(t_address,t_mapping(t_address,t_uint256))": {
						"encoding": "mapping",
						"key": "t_address",
						"label": "mapping(address => mapping(address => uint256))",
						"numberOfBytes": "32",
						"value": "t_mapping(t_address,t_uint256)"
					},
					"t_mapping(t_address,t_uint256)": {
						"encoding": "mapping",
						"key": "t_address",
						"label": "mapping(address => uint256)",
						"numberOfBytes": "32",
						"value": "t_uint256"
					},
					"t_uint256": {
						"encoding": "inplace",
						"label": "uint256",
						"numberOfBytes": "32"
					}
				}
			},
			"userdoc": {
				"kind": "user",
				"methods": {},
				"version": 1
			}
		}
	}
}