{
	"USR.sol": {
		"USRToken": {
			"abi": [
				{
					"inputs": [
						{
							"internalType": "address",
							"name": "_userFoundation",
							"type": "address"
						}
					],
					"stateMutability": "nonpayable",
					"type": "constructor"
				},
				{
					"anonymous": false,
					"inputs": [
						{
							"indexed": true,
							"internalType": "address",
							"name": "owner",
							"type": "address"
						},
						{
							"indexed": true,
							"internalType": "address",
							"name": "spender",
							"type": "address"
						},
						{
							"indexed": false,
							"internalType": "uint256",
							"name": "value",
							"type": "uint256"
						}
					],
					"name": "Approval",
					"type": "event"
				},
				{
					"anonymous": false,
					"inputs": [
						{
							"indexed": true,
							"internalType": "address",
							"name": "previousOwner",
							"type": "address"
						},
						{
							"indexed": true,
							"internalType": "address",
							"name": "newOwner",
							"type": "address"
						}
					],
					"name": "OwnershipTransferred",
					"type": "event"
				},
				{
					"anonymous": false,
					"inputs": [
						{
							"indexed": true,
							"internalType": "address",
							"name": "from",
							"type": "address"
						},
						{
							"indexed": true,
							"internalType": "address",
							"name": "to",
							"type": "address"
						},
						{
							"indexed": false,
							"internalType": "uint256",
							"name": "value",
							"type": "uint256"
						}
					],
					"name": "Transfer",
					"type": "event"
				},
				{
					"stateMutability": "payable",
					"type": "fallback"
				},
				{
					"inputs": [],
					"name": "_buyBurnTaxPercentage",
					"outputs": [
						{
							"internalType": "uint256",
							"name": "",
							"type": "uint256"
						}
					],
					"stateMutability": "view",
					"type": "function"
				},
				{
					"inputs": [],
					"name": "_buyLiquidityShare",
					"outputs": [
						{
							"internalType": "uint256",
							"name": "",
							"type": "uint256"
						}
					],
					"stateMutability": "view",
					"type": "function"
				},
				{
					"inputs": [],
					"name": "_buyLiquidityTaxPercentage",
					"outputs": [
						{
							"internalType": "uint256",
							"name": "",
							"type": "uint256"
						}
					],
					"stateMutability": "view",
					"type": "function"
				},
				{
					"inputs": [],
					"name": "_buyUFShare",
					"outputs": [
						{
							"internalType": "uint256",
							"name": "",
							"type": "uint256"
						}
					],
					"stateMutability": "view",
					"type": "function"
				},
				{
					"inputs": [],
					"name": "_buyUFTaxPercentage",
					"outputs": [
						{
							"internalType": "uint256",
							"name": "",
							"type": "uint256"
						}
					],
					"stateMutability": "view",
					"type": "function"
				},
				{
					"inputs": [
						{
							"internalType": "address",
							"name": "",
							"type": "address"
						}
					],
					"name": "_isExcludedFromFee",
					"outputs": [
						{
							"internalType": "bool",
							"name": "",
							"type": "bool"
						}
					],
					"stateMutability": "view",
					"type": "function"
				},
				{
					"inputs": [],
					"name": "_sellBurnTaxPercentage",
					"outputs": [
						{
							"internalType": "uint256",
							"name": "",
							"type": "uint256"
						}
					],
					"stateMutability": "view",
					"type": "function"
				},
				{
					"inputs": [],
					"name": "_sellLiquidityShare",
					"outputs": [
						{
							"internalType": "uint256",
							"name": "",
							"type": "uint256"
						}
					],
					"stateMutability": "view",
					"type": "function"
				},
				{
					"inputs": [],
					"name": "_sellLiquidityTaxPercentage",
					"outputs": [
						{
							"internalType": "uint256",
							"name": "",
							"type": "uint256"
						}
					],
					"stateMutability": "view",
					"type": "function"
				},
				{
					"inputs": [],
					"name": "_sellUFShare",
					"outputs": [
						{
							"internalType": "uint256",
							"name": "",
							"type": "uint256"
						}
					],
					"stateMutability": "view",
					"type": "function"
				},
				{
					"inputs": [],
					"name": "_sellUFTaxPercentage",
					"outputs": [
						{
							"internalType": "uint256",
							"name": "",
							"type": "uint256"
						}
					],
					"stateMutability": "view",
					"type": "function"
				},
				{
					"inputs": [],
					"name": "_taxThreshold",
					"outputs": [
						{
							"internalType": "uint256",
							"name": "",
							"type": "uint256"
						}
					],
					"stateMutability": "view",
					"type": "function"
				},
				{
					"inputs": [],
					"name": "_totalTaxPercent",
					"outputs": [
						{
							"internalType": "uint256",
							"name": "",
							"type": "uint256"
						}
					],
					"stateMutability": "view",
					"type": "function"
				},
				{
					"inputs": [],
					"name": "_transferBurnTaxPercentage",
					"outputs": [
						{
							"internalType": "uint256",
							"name": "",
							"type": "uint256"
						}
					],
					"stateMutability": "view",
					"type": "function"
				},
				{
					"inputs": [],
					"name": "_transferLiquidityShare",
					"outputs": [
						{
							"internalType": "uint256",
							"name": "",
							"type": "uint256"
						}
					],
					"stateMutability": "view",
					"type": "function"
				},
				{
					"inputs": [],
					"name": "_transferLiquidityTaxPercentage",
					"outputs": [
						{
							"internalType": "uint256",
							"name": "",
							"type": "uint256"
						}
					],
					"stateMutability": "view",
					"type": "function"
				},
				{
					"inputs": [],
					"name": "_uniswapPair",
					"outputs": [
						{
							"internalType": "address",
							"name": "",
							"type": "address"
						}
					],
					"stateMutability": "view",
					"type": "function"
				},
				{
					"inputs": [
						{
							"internalType": "address",
							"name": "account",
							"type": "address"
						}
					],
					"name": "addToBlacklist",
					"outputs": [],
					"stateMutability": "nonpayable",
					"type": "function"
				},
				{
					"inputs": [
						{
							"internalType": "address",
							"name": "owner",
							"type": "address"
						},
						{
							"internalType": "address",
							"name": "spender",
							"type": "address"
						}
					],
					"name": "allowance",
					"outputs": [
						{
							"internalType": "uint256",
							"name": "",
							"type": "uint256"
						}
					],
					"stateMutability": "view",
					"type": "function"
				},
				{
					"inputs": [
						{
							"internalType": "address",
							"name": "spender",
							"type": "address"
						},
						{
							"internalType": "uint256",
							"name": "amount",
							"type": "uint256"
						}
					],
					"name": "approve",
					"outputs": [
						{
							"internalType": "bool",
							"name": "",
							"type": "bool"
						}
					],
					"stateMutability": "nonpayable",
					"type": "function"
				},
				{
					"inputs": [
						{
							"internalType": "address",
							"name": "",
							"type": "address"
						}
					],
					"name": "automatedMarketMakerPairs",
					"outputs": [
						{
							"internalType": "bool",
							"name": "",
							"type": "bool"
						}
					],
					"stateMutability": "view",
					"type": "function"
				},
				{
					"inputs": [
						{
							"internalType": "address",
							"name": "account",
							"type": "address"
						}
					],
					"name": "balanceOf",
					"outputs": [
						{
							"internalType": "uint256",
							"name": "",
							"type": "uint256"
						}
					],
					"stateMutability": "view",
					"type": "function"
				},
				{
					"inputs": [
						{
							"internalType": "address",
							"name": "",
							"type": "address"
						}
					],
					"name": "blacklisted",
					"outputs": [
						{
							"internalType": "bool",
							"name": "",
							"type": "bool"
						}
					],
					"stateMutability": "view",
					"type": "function"
				},
				{
					"inputs": [],
					"name": "burn_disable",
					"outputs": [
						{
							"internalType": "bool",
							"name": "",
							"type": "bool"
						}
					],
					"stateMutability": "view",
					"type": "function"
				},
				{
					"inputs": [],
					"name": "decimals",
					"outputs": [
						{
							"internalType": "uint8",
							"name": "",
							"type": "uint8"
						}
					],
					"stateMutability": "view",
					"type": "function"
				},
				{
					"inputs": [
						{
							"internalType": "bool",
							"name": "_status",
							"type": "bool"
						}
					],
					"name": "disableBurn",
					"outputs": [],
					"stateMutability": "nonpayable",
					"type": "function"
				},
				{
					"inputs": [],
					"name": "enableTrade",
					"outputs": [],
					"stateMutability": "nonpayable",
					"type": "function"
				},
				{
					"inputs": [],
					"name": "name",
					"outputs": [
						{
							"internalType": "string",
							"name": "",
							"type": "string"
						}
					],
					"stateMutability": "view",
					"type": "function"
				},
				{
					"inputs": [],
					"name": "numBlocksForBlacklist",
					"outputs": [
						{
							"internalType": "uint256",
							"name": "",
							"type": "uint256"
						}
					],
					"stateMutability": "view",
					"type": "function"
				},
				{
					"inputs": [],
					"name": "owner",
					"outputs": [
						{
							"internalType": "address",
							"name": "",
							"type": "address"
						}
					],
					"stateMutability": "view",
					"type": "function"
				},
				{
					"inputs": [],
					"name": "pauseTrade",
					"outputs": [],
					"stateMutability": "nonpayable",
					"type": "function"
				},
				{
					"inputs": [],
					"name": "recoverETHfromContract",
					"outputs": [],
					"stateMutability": "nonpayable",
					"type": "function"
				},
				{
					"inputs": [],
					"name": "renounceOwnership",
					"outputs": [],
					"stateMutability": "nonpayable",
					"type": "function"
				},
				{
					"inputs": [
						{
							"internalType": "address",
							"name": "pair",
							"type": "address"
						},
						{
							"internalType": "bool",
							"name": "value",
							"type": "bool"
						}
					],
					"name": "setAutomatedMarketMakerPair",
					"outputs": [],
					"stateMutability": "nonpayable",
					"type": "function"
				},
				{
					"inputs": [
						{
							"internalType": "uint256",
							"name": "_burnPercent",
							"type": "uint256"
						}
					],
					"name": "setBuyBurnPercentage",
					"outputs": [],
					"stateMutability": "nonpayable",
					"type": "function"
				},
				{
					"inputs": [
						{
							"internalType": "uint256",
							"name": "_liquidityPercent",
							"type": "uint256"
						}
					],
					"name": "setBuyLiquidityPercentage",
					"outputs": [],
					"stateMutability": "nonpayable",
					"type": "function"
				},
				{
					"inputs": [
						{
							"internalType": "uint256",
							"name": "_userFoundationPercent",
							"type": "uint256"
						}
					],
					"name": "setBuyUserFoundationPercentage",
					"outputs": [],
					"stateMutability": "nonpayable",
					"type": "function"
				},
				{
					"inputs": [
						{
							"internalType": "address",
							"name": "account",
							"type": "address"
						},
						{
							"internalType": "bool",
							"name": "excluded",
							"type": "bool"
						}
					],
					"name": "setExcludedFromFee",
					"outputs": [],
					"stateMutability": "nonpayable",
					"type": "function"
				},
				{
					"inputs": [
						{
							"internalType": "uint256",
							"name": "_burnPercent",
							"type": "uint256"
						}
					],
					"name": "setSellBurnPercentage",
					"outputs": [],
					"stateMutability": "nonpayable",
					"type": "function"
				},
				{
					"inputs": [
						{
							"internalType": "uint256",
							"name": "_liquidityPercent",
							"type": "uint256"
						}
					],
					"name": "setSellLiquidityPercentage",
					"outputs": [],
					"stateMutability": "nonpayable",
					"type": "function"
				},
				{
					"inputs": [
						{
							"internalType": "uint256",
							"name": "_userFoundationPercent",
							"type": "uint256"
						}
					],
					"name": "setSellUserFoundationPercentage",
					"outputs": [],
					"stateMutability": "nonpayable",
					"type": "function"
				},
				{
					"inputs": [
						{
							"internalType": "uint256",
							"name": "threshold",
							"type": "uint256"
						}
					],
					"name": "setTaxThreshold",
					"outputs": [],
					"stateMutability": "nonpayable",
					"type": "function"
				},
				{
					"inputs": [
						{
							"internalType": "uint256",
							"name": "_burnPercent",
							"type": "uint256"
						}
					],
					"name": "setTransferBurnPercentage",
					"outputs": [],
					"stateMutability": "nonpayable",
					"type": "function"
				},
				{
					"inputs": [
						{
							"internalType": "uint256",
							"name": "_liquidityPercent",
							"type": "uint256"
						}
					],
					"name": "setTransferLiquidityPercentage",
					"outputs": [],
					"stateMutability": "nonpayable",
					"type": "function"
				},
				{
					"inputs": [
						{
							"internalType": "address",
							"name": "wallet",
							"type": "address"
						}
					],
					"name": "setUserFoundationWallet",
					"outputs": [],
					"stateMutability": "nonpayable",
					"type": "function"
				},
				{
					"inputs": [],
					"name": "swapEnabled",
					"outputs": [
						{
							"internalType": "bool",
							"name": "",
							"type": "bool"
						}
					],
					"stateMutability": "view",
					"type": "function"
				},
				{
					"inputs": [],
					"name": "symbol",
					"outputs": [
						{
							"internalType": "string",
							"name": "",
							"type": "string"
						}
					],
					"stateMutability": "view",
					"type": "function"
				},
				{
					"inputs": [],
					"name": "totalSupply",
					"outputs": [
						{
							"internalType": "uint256",
							"name": "",
							"type": "uint256"
						}
					],
					"stateMutability": "view",
					"type": "function"
				},
				{
					"inputs": [],
					"name": "trade_open",
					"outputs": [
						{
							"internalType": "bool",
							"name": "",
							"type": "bool"
						}
					],
					"stateMutability": "view",
					"type": "function"
				},
				{
					"inputs": [
						{
							"internalType": "address",
							"name": "to",
							"type": "address"
						},
						{
							"internalType": "uint256",
							"name": "amount",
							"type": "uint256"
						}
					],
					"name": "transfer",
					"outputs": [
						{
							"internalType": "bool",
							"name": "",
							"type": "bool"
						}
					],
					"stateMutability": "nonpayable",
					"type": "function"
				},
				{
					"inputs": [
						{
							"internalType": "address",
							"name": "from",
							"type": "address"
						},
						{
							"internalType": "address",
							"name": "to",
							"type": "address"
						},
						{
							"internalType": "uint256",
							"name": "amount",
							"type": "uint256"
						}
					],
					"name": "transferFrom",
					"outputs": [
						{
							"internalType": "bool",
							"name": "",
							"type": "bool"
						}
					],
					"stateMutability": "nonpayable",
					"type": "function"
				},
				{
					"inputs": [
						{
							"internalType": "address",
							"name": "newOwner",
							"type": "address"
						}
					],
					"name": "transferOwnership",
					"outputs": [],
					"stateMutability": "nonpayable",
					"type": "function"
				},
				{
					"inputs": [],
					"name": "uniswapV2Router",
					"outputs": [
						{
							"internalType": "contract IUniswapV2Router02",
							"name": "",
							"type": "address"
						}
					],
					"stateMutability": "view",
					"type": "function"
				},
				{
					"inputs": [],
					"name": "userFoundation",
					"outputs": [
						{
							"internalType": "address",
							"name": "",
							"type": "address"
						}
					],
					"stateMutability": "view",
					"type": "function"
				},
				{
					"stateMutability": "payable",
					"type": "receive"
				}
			],
			"devdoc": {
				"events": {
					"Approval(address,address,uint256)": {
						"details": "Emitted when the allowance of a `spender` for an `owner` is set by a call to {approve}. `value` is the new allowance."
					},
					"Transfer(address,address,uint256)": {
						"details": "Emitted when `value` tokens are moved from one account (`from`) to another (`to`). Note that `value` may be zero."
					}
				},
				"kind": "dev",
				"methods": {
					"owner()": {
						"details": "Returns the address of the current owner."
					},
					"renounceOwnership()": {
						"details": "Leaves the contract without owner. It will not be possible to call `onlyOwner` functions anymore. Can only be called by the current owner. NOTE: Renouncing ownership will leave the contract without an owner, thereby removing any functionality that is only available to the owner."
					},
					"transferOwnership(address)": {
						"details": "Transfers ownership of the contract to a new account (`newOwner`). Can only be called by the current owner."
					}
				},
				"version": 1
			},
			"evm": {
				"assembly": "    /* \"USR.sol\":12012:31729  contract USRToken is Ownable {... */\n  mstore(0x40, 0x80)\n    /* \"USR.sol\":12176:12178  18 */\n  0x12\n    /* \"USR.sol\":12235:12253  uint256(_decimals) */\n  0xff\n  and\n    /* \"USR.sol\":12231:12233  10 */\n  0x0a\n    /* \"USR.sol\":12231:12253  10**uint256(_decimals) */\n  tag_1\n  swap2\n  swap1\n  tag_2\n  jump\t// in\ntag_1:\n    /* \"USR.sol\":12216:12228  420000000000 */\n  0x61c9f36800\n    /* \"USR.sol\":12216:12253  420000000000 * 10**uint256(_decimals) */\n  tag_3\n  swap2\n  swap1\n  tag_4\n  jump\t// in\ntag_3:\n    /* \"USR.sol\":12185:12253  uint256 private _totalSupply = 420000000000 * 10**uint256(_decimals) */\n  0x01\n  sstore\n    /* \"USR.sol\":12176:12178  18 */\n  0x12\n    /* \"USR.sol\":12304:12322  uint256(_decimals) */\n  0xff\n  and\n    /* \"USR.sol\":12300:12302  10 */\n  0x0a\n    /* \"USR.sol\":12300:12322  10**uint256(_decimals) */\n  tag_5\n  swap2\n  swap1\n  tag_2\n  jump\t// in\ntag_5:\n    /* \"USR.sol\":12294:12297  100 */\n  0x64\n    /* \"USR.sol\":12294:12322  100 * 10**uint256(_decimals) */\n  tag_6\n  swap2\n  swap1\n  tag_4\n  jump\t// in\ntag_6:\n    /* \"USR.sol\":12263:12322  uint256 public _taxThreshold = 100 * 10**uint256(_decimals) */\n  0x02\n  sstore\n    /* \"USR.sol\":12794:12795  5 */\n  0x05\n    /* \"USR.sol\":12755:12795  uint256 public numBlocksForBlacklist = 5 */\n  0x0a\n  sstore\n    /* \"USR.sol\":12908:12910  10 */\n  0x0a\n    /* \"USR.sol\":12871:12910  uint256 public _buyUFTaxPercentage = 10 */\n  0x0c\n  sstore\n    /* \"USR.sol\":12987:12989  10 */\n  0x0a\n    /* \"USR.sol\":12943:12989  uint256 public _buyLiquidityTaxPercentage = 10 */\n  0x0d\n  sstore\n    /* \"USR.sol\":13054:13055  5 */\n  0x05\n    /* \"USR.sol\":13015:13055  uint256 public _buyBurnTaxPercentage = 5 */\n  0x0e\n  sstore\n    /* \"USR.sol\":13127:13129  10 */\n  0x0a\n    /* \"USR.sol\":13089:13129  uint256 public _sellUFTaxPercentage = 10 */\n  0x0f\n  sstore\n    /* \"USR.sol\":13206:13208  30 */\n  0x1e\n    /* \"USR.sol\":13161:13208  uint256 public _sellLiquidityTaxPercentage = 30 */\n  0x10\n  sstore\n    /* \"USR.sol\":13273:13274  5 */\n  0x05\n    /* \"USR.sol\":13233:13274  uint256 public _sellBurnTaxPercentage = 5 */\n  0x11\n  sstore\n    /* \"USR.sol\":13356:13358  25 */\n  0x19\n    /* \"USR.sol\":13307:13358  uint256 public _transferLiquidityTaxPercentage = 25 */\n  0x12\n  sstore\n    /* \"USR.sol\":13424:13425  5 */\n  0x05\n    /* \"USR.sol\":13380:13425  uint256 public _transferBurnTaxPercentage = 5 */\n  0x13\n  sstore\n    /* \"USR.sol\":13506:13511  11764 */\n  0x2df4\n    /* \"USR.sol\":13477:13511  uint256 public _buyUFShare = 11764 */\n  0x14\n  sstore\n    /* \"USR.sol\":13592:13597  11764 */\n  0x2df4\n    /* \"USR.sol\":13556:13597  uint256 public _buyLiquidityShare = 11764 */\n  0x15\n  sstore\n    /* \"USR.sol\":13667:13672  11764 */\n  0x2df4\n    /* \"USR.sol\":13637:13672  uint256 public _sellUFShare = 11764 */\n  0x16\n  sstore\n    /* \"USR.sol\":13753:13758  35294 */\n  0x89de\n    /* \"USR.sol\":13716:13758  uint256 public _sellLiquidityShare = 35294 */\n  0x17\n  sstore\n    /* \"USR.sol\":13838:13843  29411 */\n  0x72e3\n    /* \"USR.sol\":13797:13843  uint256 public _transferLiquidityShare = 29411 */\n  0x18\n  sstore\n    /* \"USR.sol\":14059:14063  true */\n  0x01\n    /* \"USR.sol\":14033:14063  bool public swapEnabled = true */\n  0x1b\n  exp(0x0100, 0x15)\n  dup2\n  sload\n  dup2\n  0xff\n  mul\n  not\n  and\n  swap1\n  dup4\n  iszero\n  iszero\n  mul\n  or\n  swap1\n  sstore\n  pop\n    /* \"USR.sol\":14099:14104  false */\n  0x00\n    /* \"USR.sol\":14072:14104  bool public burn_disable = false */\n  0x1b\n  exp(0x0100, 0x16)\n  dup2\n  sload\n  dup2\n  0xff\n  mul\n  not\n  and\n  swap1\n  dup4\n  iszero\n  iszero\n  mul\n  or\n  swap1\n  sstore\n  pop\n    /* \"USR.sol\":14624:16280  constructor(address _userFoundation) {... */\n  callvalue\n  dup1\n  iszero\n  tag_7\n  jumpi\n  0x00\n  dup1\n  revert\ntag_7:\n  pop\n  mload(0x40)\n  sub(codesize, bytecodeSize)\n  dup1\n  bytecodeSize\n  dup4\n  codecopy\n  dup2\n  dup2\n  add\n  0x40\n  mstore\n  dup2\n  add\n  swap1\n  tag_8\n  swap2\n  swap1\n  tag_9\n  jump\t// in\ntag_8:\n    /* \"USR.sol\":4814:4846  _transferOwnership(_msgSender()) */\n  tag_13\n    /* \"USR.sol\":4833:4845  _msgSender() */\n  tag_14\n    /* \"USR.sol\":4833:4843  _msgSender */\n  shl(0x20, tag_15)\n    /* \"USR.sol\":4833:4845  _msgSender() */\n  0x20\n  shr\n  jump\t// in\ntag_14:\n    /* \"USR.sol\":4814:4832  _transferOwnership */\n  shl(0x20, tag_16)\n    /* \"USR.sol\":4814:4846  _transferOwnership(_msgSender()) */\n  0x20\n  shr\n  jump\t// in\ntag_13:\n    /* \"USR.sol\":14696:14708  _totalSupply */\n  sload(0x01)\n    /* \"USR.sol\":14672:14681  _balances */\n  0x03\n    /* \"USR.sol\":14672:14693  _balances[msg.sender] */\n  0x00\n    /* \"USR.sol\":14682:14692  msg.sender */\n  caller\n    /* \"USR.sol\":14672:14693  _balances[msg.sender] */\n  0xffffffffffffffffffffffffffffffffffffffff\n  and\n  0xffffffffffffffffffffffffffffffffffffffff\n  and\n  dup2\n  mstore\n  0x20\n  add\n  swap1\n  dup2\n  mstore\n  0x20\n  add\n  0x00\n  keccak256\n    /* \"USR.sol\":14672:14708  _balances[msg.sender] = _totalSupply */\n  dup2\n  swap1\n  sstore\n  pop\n    /* \"USR.sol\":14720:14755  IUniswapV2Router02 _uniswapV2Router */\n  0x00\n    /* \"USR.sol\":14793:14795  56 */\n  0x38\n    /* \"USR.sol\":14776:14789  block.chainid */\n  chainid\n    /* \"USR.sol\":14776:14795  block.chainid == 56 */\n  sub\n    /* \"USR.sol\":14772:15616  if (block.chainid == 56) {... */\n  tag_18\n  jumpi\n    /* \"USR.sol\":14850:14892  0x10ED43C718714eb63d5aA57B78B54704E256024E */\n  0x10ed43c718714eb63d5aa57b78b54704e256024e\n    /* \"USR.sol\":14812:14893  _uniswapV2Router = IUniswapV2Router02(0x10ED43C718714eb63d5aA57B78B54704E256024E) */\n  swap1\n  pop\n    /* \"USR.sol\":14772:15616  if (block.chainid == 56) {... */\n  jump(tag_19)\ntag_18:\n    /* \"USR.sol\":14942:14944  97 */\n  0x61\n    /* \"USR.sol\":14925:14938  block.chainid */\n  chainid\n    /* \"USR.sol\":14925:14944  block.chainid == 97 */\n  sub\n    /* \"USR.sol\":14921:15616  if (block.chainid == 97) {... */\n  tag_20\n  jumpi\n    /* \"USR.sol\":14999:15041  0xD99D1c33F9fC3444f8101754aBC46c52416550D1 */\n  0xd99d1c33f9fc3444f8101754abc46c52416550d1\n    /* \"USR.sol\":14961:15042  _uniswapV2Router = IUniswapV2Router02(0xD99D1c33F9fC3444f8101754aBC46c52416550D1) */\n  swap1\n  pop\n    /* \"USR.sol\":14921:15616  if (block.chainid == 97) {... */\n  jump(tag_21)\ntag_20:\n    /* \"USR.sol\":15091:15092  1 */\n  0x01\n    /* \"USR.sol\":15074:15087  block.chainid */\n  chainid\n    /* \"USR.sol\":15074:15092  block.chainid == 1 */\n  eq\n    /* \"USR.sol\":15074:15114  block.chainid == 1 || block.chainid == 4 */\n  dup1\n  tag_22\n  jumpi\n  pop\n    /* \"USR.sol\":15113:15114  4 */\n  0x04\n    /* \"USR.sol\":15096:15109  block.chainid */\n  chainid\n    /* \"USR.sol\":15096:15114  block.chainid == 4 */\n  eq\n    /* \"USR.sol\":15074:15114  block.chainid == 1 || block.chainid == 4 */\ntag_22:\n    /* \"USR.sol\":15074:15136  block.chainid == 1 || block.chainid == 4 || block.chainid == 3 */\n  dup1\n  tag_23\n  jumpi\n  pop\n    /* \"USR.sol\":15135:15136  3 */\n  0x03\n    /* \"USR.sol\":15118:15131  block.chainid */\n  chainid\n    /* \"USR.sol\":15118:15136  block.chainid == 3 */\n  eq\n    /* \"USR.sol\":15074:15136  block.chainid == 1 || block.chainid == 4 || block.chainid == 3 */\ntag_23:\n    /* \"USR.sol\":15070:15616  if (block.chainid == 1 || block.chainid == 4 || block.chainid == 3) {... */\n  iszero\n  tag_24\n  jumpi\n    /* \"USR.sol\":15191:15233  0x7a250d5630B4cF539739dF2C5dAcb4c659F2488D */\n  0x7a250d5630b4cf539739df2c5dacb4c659f2488d\n    /* \"USR.sol\":15153:15234  _uniswapV2Router = IUniswapV2Router02(0x7a250d5630B4cF539739dF2C5dAcb4c659F2488D) */\n  swap1\n  pop\n    /* \"USR.sol\":15070:15616  if (block.chainid == 1 || block.chainid == 4 || block.chainid == 3) {... */\n  jump(tag_25)\ntag_24:\n    /* \"USR.sol\":15283:15288  43114 */\n  0xa86a\n    /* \"USR.sol\":15266:15279  block.chainid */\n  chainid\n    /* \"USR.sol\":15266:15288  block.chainid == 43114 */\n  sub\n    /* \"USR.sol\":15262:15616  if (block.chainid == 43114) {... */\n  tag_26\n  jumpi\n    /* \"USR.sol\":15343:15385  0x60aE616a2155Ee3d9A68541Ba4544862310933d4 */\n  0x60ae616a2155ee3d9a68541ba4544862310933d4\n    /* \"USR.sol\":15305:15386  _uniswapV2Router = IUniswapV2Router02(0x60aE616a2155Ee3d9A68541Ba4544862310933d4) */\n  swap1\n  pop\n    /* \"USR.sol\":15262:15616  if (block.chainid == 43114) {... */\n  jump(tag_27)\ntag_26:\n    /* \"USR.sol\":15435:15438  250 */\n  0xfa\n    /* \"USR.sol\":15418:15431  block.chainid */\n  chainid\n    /* \"USR.sol\":15418:15438  block.chainid == 250 */\n  sub\n    /* \"USR.sol\":15414:15616  if (block.chainid == 250) {... */\n  tag_28\n  jumpi\n    /* \"USR.sol\":15493:15535  0xF491e7B69E4244ad4002BC14e878a34207E38c29 */\n  0xf491e7b69e4244ad4002bc14e878a34207e38c29\n    /* \"USR.sol\":15455:15536  _uniswapV2Router = IUniswapV2Router02(0xF491e7B69E4244ad4002BC14e878a34207E38c29) */\n  swap1\n  pop\n    /* \"USR.sol\":15414:15616  if (block.chainid == 250) {... */\n  jump(tag_29)\ntag_28:\n    /* \"USR.sol\":15579:15604  revert(\"Chain not valid\") */\n  mload(0x40)\n  0x08c379a000000000000000000000000000000000000000000000000000000000\n  dup2\n  mstore\n  0x04\n  add\n  tag_30\n  swap1\n  tag_31\n  jump\t// in\ntag_30:\n  mload(0x40)\n  dup1\n  swap2\n  sub\n  swap1\n  revert\n    /* \"USR.sol\":15414:15616  if (block.chainid == 250) {... */\ntag_29:\n    /* \"USR.sol\":15262:15616  if (block.chainid == 43114) {... */\ntag_27:\n    /* \"USR.sol\":15070:15616  if (block.chainid == 1 || block.chainid == 4 || block.chainid == 3) {... */\ntag_25:\n    /* \"USR.sol\":14921:15616  if (block.chainid == 97) {... */\ntag_21:\n    /* \"USR.sol\":14772:15616  if (block.chainid == 56) {... */\ntag_19:\n    /* \"USR.sol\":15646:15662  _uniswapV2Router */\n  dup1\n    /* \"USR.sol\":15628:15643  uniswapV2Router */\n  0x1a\n  0x00\n    /* \"USR.sol\":15628:15662  uniswapV2Router = _uniswapV2Router */\n  0x0100\n  exp\n  dup2\n  sload\n  dup2\n  0xffffffffffffffffffffffffffffffffffffffff\n  mul\n  not\n  and\n  swap1\n  dup4\n  0xffffffffffffffffffffffffffffffffffffffff\n  and\n  mul\n  or\n  swap1\n  sstore\n  pop\n    /* \"USR.sol\":15716:15732  _uniswapV2Router */\n  dup1\n    /* \"USR.sol\":15716:15740  _uniswapV2Router.factory */\n  0xffffffffffffffffffffffffffffffffffffffff\n  and\n  0xc45a0155\n    /* \"USR.sol\":15716:15742  _uniswapV2Router.factory() */\n  mload(0x40)\n  dup2\n  0xffffffff\n  and\n  0xe0\n  shl\n  dup2\n  mstore\n  0x04\n  add\n  0x20\n  mload(0x40)\n  dup1\n  dup4\n  sub\n  dup2\n  dup7\n  gas\n  staticcall\n  iszero\n  dup1\n  iszero\n  tag_33\n  jumpi\n  returndatasize\n  0x00\n  dup1\n  returndatacopy\n  revert(0x00, returndatasize)\ntag_33:\n  pop\n  pop\n  pop\n  pop\n  mload(0x40)\n  returndatasize\n  not(0x1f)\n  0x1f\n  dup3\n  add\n  and\n  dup3\n  add\n  dup1\n  0x40\n  mstore\n  pop\n  dup2\n  add\n  swap1\n  tag_34\n  swap2\n  swap1\n  tag_9\n  jump\t// in\ntag_34:\n    /* \"USR.sol\":15698:15754  IUniswapV2Factory(_uniswapV2Router.factory()).createPair */\n  0xffffffffffffffffffffffffffffffffffffffff\n  and\n  0xc9c65396\n    /* \"USR.sol\":15777:15781  this */\n  address\n    /* \"USR.sol\":15797:15813  _uniswapV2Router */\n  dup4\n    /* \"USR.sol\":15797:15818  _uniswapV2Router.WETH */\n  0xffffffffffffffffffffffffffffffffffffffff\n  and\n  0xad5c4648\n    /* \"USR.sol\":15797:15820  _uniswapV2Router.WETH() */\n  mload(0x40)\n  dup2\n  0xffffffff\n  and\n  0xe0\n  shl\n  dup2\n  mstore\n  0x04\n  add\n  0x20\n  mload(0x40)\n  dup1\n  dup4\n  sub\n  dup2\n  dup7\n  gas\n  staticcall\n  iszero\n  dup1\n  iszero\n  tag_36\n  jumpi\n  returndatasize\n  0x00\n  dup1\n  returndatacopy\n  revert(0x00, returndatasize)\ntag_36:\n  pop\n  pop\n  pop\n  pop\n  mload(0x40)\n  returndatasize\n  not(0x1f)\n  0x1f\n  dup3\n  add\n  and\n  dup3\n  add\n  dup1\n  0x40\n  mstore\n  pop\n  dup2\n  add\n  swap1\n  tag_37\n  swap2\n  swap1\n  tag_9\n  jump\t// in\ntag_37:\n    /* \"USR.sol\":15698:15831  IUniswapV2Factory(_uniswapV2Router.factory()).createPair(... */\n  mload(0x40)\n  dup4\n  0xffffffff\n  and\n  0xe0\n  shl\n  dup2\n  mstore\n  0x04\n  add\n  tag_38\n  swap3\n  swap2\n  swap1\n  tag_39\n  jump\t// in\ntag_38:\n  0x20\n  mload(0x40)\n  dup1\n  dup4\n  sub\n  dup2\n  0x00\n  dup8\n  gas\n  call\n  iszero\n  dup1\n  iszero\n  tag_41\n  jumpi\n  returndatasize\n  0x00\n  dup1\n  returndatacopy\n  revert(0x00, returndatasize)\ntag_41:\n  pop\n  pop\n  pop\n  pop\n  mload(0x40)\n  returndatasize\n  not(0x1f)\n  0x1f\n  dup3\n  add\n  and\n  dup3\n  add\n  dup1\n  0x40\n  mstore\n  pop\n  dup2\n  add\n  swap1\n  tag_42\n  swap2\n  swap1\n  tag_9\n  jump\t// in\ntag_42:\n    /* \"USR.sol\":15683:15695  _uniswapPair */\n  0x1b\n  0x00\n    /* \"USR.sol\":15683:15831  _uniswapPair = IUniswapV2Factory(_uniswapV2Router.factory()).createPair(... */\n  0x0100\n  exp\n  dup2\n  sload\n  dup2\n  0xffffffffffffffffffffffffffffffffffffffff\n  mul\n  not\n  and\n  swap1\n  dup4\n  0xffffffffffffffffffffffffffffffffffffffff\n  and\n  mul\n  or\n  swap1\n  sstore\n  pop\n    /* \"USR.sol\":15845:15910  _approve(msg.sender, address(uniswapV2Router), type(uint256).max) */\n  tag_43\n    /* \"USR.sol\":15854:15864  msg.sender */\n  caller\n    /* \"USR.sol\":15874:15889  uniswapV2Router */\n  0x1a\n  0x00\n  swap1\n  sload\n  swap1\n  0x0100\n  exp\n  swap1\n  div\n  0xffffffffffffffffffffffffffffffffffffffff\n  and\n    /* \"USR.sol\":15892:15909  type(uint256).max */\n  0xffffffffffffffffffffffffffffffffffffffffffffffffffffffffffffffff\n    /* \"USR.sol\":15845:15853  _approve */\n  shl(0x20, tag_44)\n    /* \"USR.sol\":15845:15910  _approve(msg.sender, address(uniswapV2Router), type(uint256).max) */\n  0x20\n  shr\n  jump\t// in\ntag_43:\n    /* \"USR.sol\":15921:15989  _approve(address(this), address(uniswapV2Router), type(uint256).max) */\n  tag_45\n    /* \"USR.sol\":15938:15942  this */\n  address\n    /* \"USR.sol\":15953:15968  uniswapV2Router */\n  0x1a\n  0x00\n  swap1\n  sload\n  swap1\n  0x0100\n  exp\n  swap1\n  div\n  0xffffffffffffffffffffffffffffffffffffffff\n  and\n    /* \"USR.sol\":15971:15988  type(uint256).max */\n  0xffffffffffffffffffffffffffffffffffffffffffffffffffffffffffffffff\n    /* \"USR.sol\":15921:15929  _approve */\n  shl(0x20, tag_44)\n    /* \"USR.sol\":15921:15989  _approve(address(this), address(uniswapV2Router), type(uint256).max) */\n  0x20\n  shr\n  jump\t// in\ntag_45:\n    /* \"USR.sol\":16002:16059  _setAutomatedMarketMakerPair(address(_uniswapPair), true) */\n  tag_46\n    /* \"USR.sol\":16039:16051  _uniswapPair */\n  0x1b\n  0x00\n  swap1\n  sload\n  swap1\n  0x0100\n  exp\n  swap1\n  div\n  0xffffffffffffffffffffffffffffffffffffffff\n  and\n    /* \"USR.sol\":16054:16058  true */\n  0x01\n    /* \"USR.sol\":16002:16030  _setAutomatedMarketMakerPair */\n  shl(0x20, tag_47)\n    /* \"USR.sol\":16002:16059  _setAutomatedMarketMakerPair(address(_uniswapPair), true) */\n  0x20\n  shr\n  jump\t// in\ntag_46:\n    /* \"USR.sol\":16090:16105  _userFoundation */\n  dup2\n    /* \"USR.sol\":16073:16087  userFoundation */\n  0x0b\n  0x00\n    /* \"USR.sol\":16073:16105  userFoundation = _userFoundation */\n  0x0100\n  exp\n  dup2\n  sload\n  dup2\n  0xffffffffffffffffffffffffffffffffffffffff\n  mul\n  not\n  and\n  swap1\n  dup4\n  0xffffffffffffffffffffffffffffffffffffffff\n  and\n  mul\n  or\n  swap1\n  sstore\n  pop\n    /* \"USR.sol\":16155:16159  true */\n  0x01\n    /* \"USR.sol\":16119:16137  _isExcludedFromFee */\n  0x07\n    /* \"USR.sol\":16119:16152  _isExcludedFromFee[address(this)] */\n  0x00\n    /* \"USR.sol\":16146:16150  this */\n  address\n    /* \"USR.sol\":16119:16152  _isExcludedFromFee[address(this)] */\n  0xffffffffffffffffffffffffffffffffffffffff\n  and\n  0xffffffffffffffffffffffffffffffffffffffff\n  and\n  dup2\n  mstore\n  0x20\n  add\n  swap1\n  dup2\n  mstore\n  0x20\n  add\n  0x00\n  keccak256\n  0x00\n    /* \"USR.sol\":16119:16159  _isExcludedFromFee[address(this)] = true */\n  0x0100\n  exp\n  dup2\n  sload\n  dup2\n  0xff\n  mul\n  not\n  and\n  swap1\n  dup4\n  iszero\n  iszero\n  mul\n  or\n  swap1\n  sstore\n  pop\n    /* \"USR.sol\":16203:16207  true */\n  0x01\n    /* \"USR.sol\":16170:16188  _isExcludedFromFee */\n  0x07\n    /* \"USR.sol\":16170:16200  _isExcludedFromFee[msg.sender] */\n  0x00\n    /* \"USR.sol\":16189:16199  msg.sender */\n  caller\n    /* \"USR.sol\":16170:16200  _isExcludedFromFee[msg.sender] */\n  0xffffffffffffffffffffffffffffffffffffffff\n  and\n  0xffffffffffffffffffffffffffffffffffffffff\n  and\n  dup2\n  mstore\n  0x20\n  add\n  swap1\n  dup2\n  mstore\n  0x20\n  add\n  0x00\n  keccak256\n  0x00\n    /* \"USR.sol\":16170:16207  _isExcludedFromFee[msg.sender] = true */\n  0x0100\n  exp\n  dup2\n  sload\n  dup2\n  0xff\n  mul\n  not\n  and\n  swap1\n  dup4\n  iszero\n  iszero\n  mul\n  or\n  swap1\n  sstore\n  pop\n    /* \"USR.sol\":16247:16257  msg.sender */\n  caller\n    /* \"USR.sol\":16226:16272  Transfer(address(0), msg.sender, _totalSupply) */\n  0xffffffffffffffffffffffffffffffffffffffff\n  and\n    /* \"USR.sol\":16243:16244  0 */\n  0x00\n    /* \"USR.sol\":16226:16272  Transfer(address(0), msg.sender, _totalSupply) */\n  0xffffffffffffffffffffffffffffffffffffffff\n  and\n  0xddf252ad1be2c89b69c2b068fc378daa952ba7f163c4a11628f55a4df523b3ef\n    /* \"USR.sol\":16259:16271  _totalSupply */\n  sload(0x01)\n    /* \"USR.sol\":16226:16272  Transfer(address(0), msg.sender, _totalSupply) */\n  mload(0x40)\n  tag_48\n  swap2\n  swap1\n  tag_49\n  jump\t// in\ntag_48:\n  mload(0x40)\n  dup1\n  swap2\n  sub\n  swap1\n  log3\n    /* \"USR.sol\":14661:16280  {... */\n  pop\n    /* \"USR.sol\":14624:16280  constructor(address _userFoundation) {... */\n  pop\n    /* \"USR.sol\":12012:31729  contract USRToken is Ownable {... */\n  jump(tag_50)\n    /* \"USR.sol\":3771:3869  function _msgSender() internal view virtual returns (address) {... */\ntag_15:\n    /* \"USR.sol\":3824:3831  address */\n  0x00\n    /* \"USR.sol\":3851:3861  msg.sender */\n  caller\n    /* \"USR.sol\":3844:3861  return msg.sender */\n  swap1\n  pop\n    /* \"USR.sol\":3771:3869  function _msgSender() internal view virtual returns (address) {... */\n  swap1\n  jump\t// out\n    /* \"USR.sol\":6403:6594  function _transferOwnership(address newOwner) internal virtual {... */\ntag_16:\n    /* \"USR.sol\":6477:6493  address oldOwner */\n  0x00\n    /* \"USR.sol\":6496:6502  _owner */\n  dup1\n  0x00\n  swap1\n  sload\n  swap1\n  0x0100\n  exp\n  swap1\n  div\n  0xffffffffffffffffffffffffffffffffffffffff\n  and\n    /* \"USR.sol\":6477:6502  address oldOwner = _owner */\n  swap1\n  pop\n    /* \"USR.sol\":6522:6530  newOwner */\n  dup2\n    /* \"USR.sol\":6513:6519  _owner */\n  0x00\n  dup1\n    /* \"USR.sol\":6513:6530  _owner = newOwner */\n  0x0100\n  exp\n  dup2\n  sload\n  dup2\n  0xffffffffffffffffffffffffffffffffffffffff\n  mul\n  not\n  and\n  swap1\n  dup4\n  0xffffffffffffffffffffffffffffffffffffffff\n  and\n  mul\n  or\n  swap1\n  sstore\n  pop\n    /* \"USR.sol\":6577:6585  newOwner */\n  dup2\n    /* \"USR.sol\":6546:6586  OwnershipTransferred(oldOwner, newOwner) */\n  0xffffffffffffffffffffffffffffffffffffffff\n  and\n    /* \"USR.sol\":6567:6575  oldOwner */\n  dup2\n    /* \"USR.sol\":6546:6586  OwnershipTransferred(oldOwner, newOwner) */\n  0xffffffffffffffffffffffffffffffffffffffff\n  and\n  0x8be0079c531659141344cd1fd0a4f28419497f9722a3daafe3b4186f6b6457e0\n  mload(0x40)\n  mload(0x40)\n  dup1\n  swap2\n  sub\n  swap1\n  log3\n    /* \"USR.sol\":6466:6594  {... */\n  pop\n    /* \"USR.sol\":6403:6594  function _transferOwnership(address newOwner) internal virtual {... */\n  pop\n  jump\t// out\n    /* \"USR.sol\":17716:18059  function _approve(address sender, address spender, uint256 amount) internal {... */\ntag_44:\n    /* \"USR.sol\":17829:17830  0 */\n  0x00\n    /* \"USR.sol\":17811:17831  sender != address(0) */\n  0xffffffffffffffffffffffffffffffffffffffff\n  and\n    /* \"USR.sol\":17811:17817  sender */\n  dup4\n    /* \"USR.sol\":17811:17831  sender != address(0) */\n  0xffffffffffffffffffffffffffffffffffffffff\n  and\n  sub\n    /* \"USR.sol\":17803:17872  require(sender != address(0), \"ERC20: approve from the zero address\") */\n  tag_54\n  jumpi\n  mload(0x40)\n  0x08c379a000000000000000000000000000000000000000000000000000000000\n  dup2\n  mstore\n  0x04\n  add\n  tag_55\n  swap1\n  tag_56\n  jump\t// in\ntag_55:\n  mload(0x40)\n  dup1\n  swap2\n  sub\n  swap1\n  revert\ntag_54:\n    /* \"USR.sol\":17910:17911  0 */\n  0x00\n    /* \"USR.sol\":17891:17912  spender != address(0) */\n  0xffffffffffffffffffffffffffffffffffffffff\n  and\n    /* \"USR.sol\":17891:17898  spender */\n  dup3\n    /* \"USR.sol\":17891:17912  spender != address(0) */\n  0xffffffffffffffffffffffffffffffffffffffff\n  and\n  sub\n    /* \"USR.sol\":17883:17951  require(spender != address(0), \"ERC20: approve to the zero address\") */\n  tag_57\n  jumpi\n  mload(0x40)\n  0x08c379a000000000000000000000000000000000000000000000000000000000\n  dup2\n  mstore\n  0x04\n  add\n  tag_58\n  swap1\n  tag_59\n  jump\t// in\ntag_58:\n  mload(0x40)\n  dup1\n  swap2\n  sub\n  swap1\n  revert\ntag_57:\n    /* \"USR.sol\":17996:18002  amount */\n  dup1\n    /* \"USR.sol\":17965:17976  _allowances */\n  0x04\n    /* \"USR.sol\":17965:17984  _allowances[sender] */\n  0x00\n    /* \"USR.sol\":17977:17983  sender */\n  dup6\n    /* \"USR.sol\":17965:17984  _allowances[sender] */\n  0xffffffffffffffffffffffffffffffffffffffff\n  and\n  0xffffffffffffffffffffffffffffffffffffffff\n  and\n  dup2\n  mstore\n  0x20\n  add\n  swap1\n  dup2\n  mstore\n  0x20\n  add\n  0x00\n  keccak256\n    /* \"USR.sol\":17965:17993  _allowances[sender][spender] */\n  0x00\n    /* \"USR.sol\":17985:17992  spender */\n  dup5\n    /* \"USR.sol\":17965:17993  _allowances[sender][spender] */\n  0xffffffffffffffffffffffffffffffffffffffff\n  and\n  0xffffffffffffffffffffffffffffffffffffffff\n  and\n  dup2\n  mstore\n  0x20\n  add\n  swap1\n  dup2\n  mstore\n  0x20\n  add\n  0x00\n  keccak256\n    /* \"USR.sol\":17965:18002  _allowances[sender][spender] = amount */\n  dup2\n  swap1\n  sstore\n  pop\n    /* \"USR.sol\":18035:18042  spender */\n  dup2\n    /* \"USR.sol\":18018:18051  Approval(sender, spender, amount) */\n  0xffffffffffffffffffffffffffffffffffffffff\n  and\n    /* \"USR.sol\":18027:18033  sender */\n  dup4\n    /* \"USR.sol\":18018:18051  Approval(sender, spender, amount) */\n  0xffffffffffffffffffffffffffffffffffffffff\n  and\n  0x8c5be1e5ebec7d5bd14f71427d1e84f3dd0314c0f7b2291e5b200ac8c7c3b925\n    /* \"USR.sol\":18044:18050  amount */\n  dup4\n    /* \"USR.sol\":18018:18051  Approval(sender, spender, amount) */\n  mload(0x40)\n  tag_60\n  swap2\n  swap1\n  tag_49\n  jump\t// in\ntag_60:\n  mload(0x40)\n  dup1\n  swap2\n  sub\n  swap1\n  log3\n    /* \"USR.sol\":17716:18059  function _approve(address sender, address spender, uint256 amount) internal {... */\n  pop\n  pop\n  pop\n  jump\t// out\n    /* \"USR.sol\":20475:20605  function _setAutomatedMarketMakerPair(address pair, bool value) private {... */\ntag_47:\n    /* \"USR.sol\":20592:20597  value */\n  dup1\n    /* \"USR.sol\":20558:20583  automatedMarketMakerPairs */\n  0x06\n    /* \"USR.sol\":20558:20589  automatedMarketMakerPairs[pair] */\n  0x00\n    /* \"USR.sol\":20584:20588  pair */\n  dup5\n    /* \"USR.sol\":20558:20589  automatedMarketMakerPairs[pair] */\n  0xffffffffffffffffffffffffffffffffffffffff\n  and\n  0xffffffffffffffffffffffffffffffffffffffff\n  and\n  dup2\n  mstore\n  0x20\n  add\n  swap1\n  dup2\n  mstore\n  0x20\n  add\n  0x00\n  keccak256\n  0x00\n    /* \"USR.sol\":20558:20597  automatedMarketMakerPairs[pair] = value */\n  0x0100\n  exp\n  dup2\n  sload\n  dup2\n  0xff\n  mul\n  not\n  and\n  swap1\n  dup4\n  iszero\n  iszero\n  mul\n  or\n  swap1\n  sstore\n  pop\n    /* \"USR.sol\":20475:20605  function _setAutomatedMarketMakerPair(address pair, bool value) private {... */\n  pop\n  pop\n  jump\t// out\n    /* \"#utility.yul\":7:187   */\ntag_62:\n    /* \"#utility.yul\":55:132   */\n  0x4e487b7100000000000000000000000000000000000000000000000000000000\n    /* \"#utility.yul\":52:53   */\n  0x00\n    /* \"#utility.yul\":45:133   */\n  mstore\n    /* \"#utility.yul\":152:156   */\n  0x11\n    /* \"#utility.yul\":149:150   */\n  0x04\n    /* \"#utility.yul\":142:157   */\n  mstore\n    /* \"#utility.yul\":176:180   */\n  0x24\n    /* \"#utility.yul\":173:174   */\n  0x00\n    /* \"#utility.yul\":166:181   */\n  revert\n    /* \"#utility.yul\":193:295   */\ntag_63:\n    /* \"#utility.yul\":235:243   */\n  0x00\n    /* \"#utility.yul\":282:287   */\n  dup2\n    /* \"#utility.yul\":279:280   */\n  0x01\n    /* \"#utility.yul\":275:288   */\n  shr\n    /* \"#utility.yul\":254:288   */\n  swap1\n  pop\n    /* \"#utility.yul\":193:295   */\n  swap2\n  swap1\n  pop\n  jump\t// out\n    /* \"#utility.yul\":301:1149   */\ntag_64:\n    /* \"#utility.yul\":362:367   */\n  0x00\n    /* \"#utility.yul\":369:373   */\n  dup1\n    /* \"#utility.yul\":393:399   */\n  dup3\n    /* \"#utility.yul\":384:399   */\n  swap2\n  pop\n    /* \"#utility.yul\":417:422   */\n  dup4\n    /* \"#utility.yul\":408:422   */\n  swap1\n  pop\n    /* \"#utility.yul\":431:1143   */\ntag_87:\n    /* \"#utility.yul\":452:453   */\n  0x01\n    /* \"#utility.yul\":442:450   */\n  dup6\n    /* \"#utility.yul\":439:454   */\n  gt\n    /* \"#utility.yul\":431:1143   */\n  iszero\n  tag_89\n  jumpi\n    /* \"#utility.yul\":547:551   */\n  dup1\n    /* \"#utility.yul\":542:545   */\n  dup7\n    /* \"#utility.yul\":538:552   */\n  div\n    /* \"#utility.yul\":532:536   */\n  dup2\n    /* \"#utility.yul\":529:553   */\n  gt\n    /* \"#utility.yul\":526:576   */\n  iszero\n  tag_90\n  jumpi\n    /* \"#utility.yul\":556:574   */\n  tag_91\n  tag_62\n  jump\t// in\ntag_91:\n    /* \"#utility.yul\":526:576   */\ntag_90:\n    /* \"#utility.yul\":606:607   */\n  0x01\n    /* \"#utility.yul\":596:604   */\n  dup6\n    /* \"#utility.yul\":592:608   */\n  and\n    /* \"#utility.yul\":589:1040   */\n  iszero\n  tag_92\n  jumpi\n    /* \"#utility.yul\":1021:1025   */\n  dup1\n    /* \"#utility.yul\":1014:1019   */\n  dup3\n    /* \"#utility.yul\":1010:1026   */\n  mul\n    /* \"#utility.yul\":1001:1026   */\n  swap2\n  pop\n    /* \"#utility.yul\":589:1040   */\ntag_92:\n    /* \"#utility.yul\":1071:1075   */\n  dup1\n    /* \"#utility.yul\":1065:1069   */\n  dup2\n    /* \"#utility.yul\":1061:1076   */\n  mul\n    /* \"#utility.yul\":1053:1076   */\n  swap1\n  pop\n    /* \"#utility.yul\":1101:1133   */\n  tag_93\n    /* \"#utility.yul\":1124:1132   */\n  dup6\n    /* \"#utility.yul\":1101:1133   */\n  tag_63\n  jump\t// in\ntag_93:\n    /* \"#utility.yul\":1089:1133   */\n  swap5\n  pop\n    /* \"#utility.yul\":431:1143   */\n  jump(tag_87)\ntag_89:\n    /* \"#utility.yul\":301:1149   */\n  swap5\n  pop\n  swap5\n  swap3\n  pop\n  pop\n  pop\n  jump\t// out\n    /* \"#utility.yul\":1155:2228   */\ntag_65:\n    /* \"#utility.yul\":1209:1214   */\n  0x00\n    /* \"#utility.yul\":1400:1408   */\n  dup3\n    /* \"#utility.yul\":1390:1430   */\n  tag_95\n  jumpi\n    /* \"#utility.yul\":1421:1422   */\n  0x01\n    /* \"#utility.yul\":1412:1422   */\n  swap1\n  pop\n    /* \"#utility.yul\":1423:1428   */\n  jump(tag_94)\n    /* \"#utility.yul\":1390:1430   */\ntag_95:\n    /* \"#utility.yul\":1449:1453   */\n  dup2\n    /* \"#utility.yul\":1439:1475   */\n  tag_96\n  jumpi\n    /* \"#utility.yul\":1466:1467   */\n  0x00\n    /* \"#utility.yul\":1457:1467   */\n  swap1\n  pop\n    /* \"#utility.yul\":1468:1473   */\n  jump(tag_94)\n    /* \"#utility.yul\":1439:1475   */\ntag_96:\n    /* \"#utility.yul\":1535:1539   */\n  dup2\n    /* \"#utility.yul\":1583:1584   */\n  0x01\n    /* \"#utility.yul\":1578:1605   */\n  dup2\n  eq\n  tag_98\n  jumpi\n    /* \"#utility.yul\":1619:1620   */\n  0x02\n    /* \"#utility.yul\":1614:1805   */\n  dup2\n  eq\n  tag_99\n  jumpi\n    /* \"#utility.yul\":1528:1805   */\n  jump(tag_97)\n    /* \"#utility.yul\":1578:1605   */\ntag_98:\n    /* \"#utility.yul\":1596:1597   */\n  0x01\n    /* \"#utility.yul\":1587:1597   */\n  swap2\n  pop\n    /* \"#utility.yul\":1598:1603   */\n  pop\n  jump(tag_94)\n    /* \"#utility.yul\":1614:1805   */\ntag_99:\n    /* \"#utility.yul\":1659:1662   */\n  0xff\n    /* \"#utility.yul\":1649:1657   */\n  dup5\n    /* \"#utility.yul\":1646:1663   */\n  gt\n    /* \"#utility.yul\":1643:1686   */\n  iszero\n  tag_100\n  jumpi\n    /* \"#utility.yul\":1666:1684   */\n  tag_101\n  tag_62\n  jump\t// in\ntag_101:\n    /* \"#utility.yul\":1643:1686   */\ntag_100:\n    /* \"#utility.yul\":1715:1723   */\n  dup4\n    /* \"#utility.yul\":1712:1713   */\n  0x02\n    /* \"#utility.yul\":1708:1724   */\n  exp\n    /* \"#utility.yul\":1699:1724   */\n  swap2\n  pop\n    /* \"#utility.yul\":1750:1753   */\n  dup5\n    /* \"#utility.yul\":1743:1748   */\n  dup3\n    /* \"#utility.yul\":1740:1754   */\n  gt\n    /* \"#utility.yul\":1737:1777   */\n  iszero\n  tag_102\n  jumpi\n    /* \"#utility.yul\":1757:1775   */\n  tag_103\n  tag_62\n  jump\t// in\ntag_103:\n    /* \"#utility.yul\":1737:1777   */\ntag_102:\n    /* \"#utility.yul\":1790:1795   */\n  pop\n  jump(tag_94)\n    /* \"#utility.yul\":1528:1805   */\ntag_97:\n  pop\n    /* \"#utility.yul\":1914:1916   */\n  0x20\n    /* \"#utility.yul\":1904:1912   */\n  dup4\n    /* \"#utility.yul\":1901:1917   */\n  lt\n    /* \"#utility.yul\":1895:1898   */\n  0x0133\n    /* \"#utility.yul\":1889:1893   */\n  dup4\n    /* \"#utility.yul\":1886:1899   */\n  lt\n    /* \"#utility.yul\":1882:1918   */\n  and\n    /* \"#utility.yul\":1864:1866   */\n  0x4e\n    /* \"#utility.yul\":1854:1862   */\n  dup5\n    /* \"#utility.yul\":1851:1867   */\n  lt\n    /* \"#utility.yul\":1846:1848   */\n  0x0b\n    /* \"#utility.yul\":1840:1844   */\n  dup5\n    /* \"#utility.yul\":1837:1849   */\n  lt\n    /* \"#utility.yul\":1833:1868   */\n  and\n    /* \"#utility.yul\":1817:1928   */\n  or\n    /* \"#utility.yul\":1814:2060   */\n  iszero\n  tag_104\n  jumpi\n    /* \"#utility.yul\":1970:1978   */\n  dup3\n    /* \"#utility.yul\":1964:1968   */\n  dup3\n    /* \"#utility.yul\":1960:1979   */\n  exp\n    /* \"#utility.yul\":1951:1979   */\n  swap1\n  pop\n    /* \"#utility.yul\":2005:2008   */\n  dup4\n    /* \"#utility.yul\":1998:2003   */\n  dup2\n    /* \"#utility.yul\":1995:2009   */\n  gt\n    /* \"#utility.yul\":1992:2032   */\n  iszero\n  tag_105\n  jumpi\n    /* \"#utility.yul\":2012:2030   */\n  tag_106\n  tag_62\n  jump\t// in\ntag_106:\n    /* \"#utility.yul\":1992:2032   */\ntag_105:\n    /* \"#utility.yul\":2045:2050   */\n  jump(tag_94)\n    /* \"#utility.yul\":1814:2060   */\ntag_104:\n    /* \"#utility.yul\":2085:2127   */\n  tag_107\n    /* \"#utility.yul\":2123:2126   */\n  dup5\n    /* \"#utility.yul\":2113:2121   */\n  dup5\n    /* \"#utility.yul\":2107:2111   */\n  dup5\n    /* \"#utility.yul\":2104:2105   */\n  0x01\n    /* \"#utility.yul\":2085:2127   */\n  tag_64\n  jump\t// in\ntag_107:\n    /* \"#utility.yul\":2070:2127   */\n  swap3\n  pop\n  swap1\n  pop\n    /* \"#utility.yul\":2159:2163   */\n  dup2\n    /* \"#utility.yul\":2154:2157   */\n  dup5\n    /* \"#utility.yul\":2150:2164   */\n  div\n    /* \"#utility.yul\":2143:2148   */\n  dup2\n    /* \"#utility.yul\":2140:2165   */\n  gt\n    /* \"#utility.yul\":2137:2188   */\n  iszero\n  tag_108\n  jumpi\n    /* \"#utility.yul\":2168:2186   */\n  tag_109\n  tag_62\n  jump\t// in\ntag_109:\n    /* \"#utility.yul\":2137:2188   */\ntag_108:\n    /* \"#utility.yul\":2217:2221   */\n  dup2\n    /* \"#utility.yul\":2210:2215   */\n  dup2\n    /* \"#utility.yul\":2206:2222   */\n  mul\n    /* \"#utility.yul\":2197:2222   */\n  swap1\n  pop\n    /* \"#utility.yul\":1155:2228   */\ntag_94:\n  swap4\n  swap3\n  pop\n  pop\n  pop\n  jump\t// out\n    /* \"#utility.yul\":2234:2311   */\ntag_66:\n    /* \"#utility.yul\":2271:2278   */\n  0x00\n    /* \"#utility.yul\":2300:2305   */\n  dup2\n    /* \"#utility.yul\":2289:2305   */\n  swap1\n  pop\n    /* \"#utility.yul\":2234:2311   */\n  swap2\n  swap1\n  pop\n  jump\t// out\n    /* \"#utility.yul\":2317:2602   */\ntag_2:\n    /* \"#utility.yul\":2377:2382   */\n  0x00\n    /* \"#utility.yul\":2401:2424   */\n  tag_112\n    /* \"#utility.yul\":2419:2423   */\n  dup3\n    /* \"#utility.yul\":2401:2424   */\n  tag_66\n  jump\t// in\ntag_112:\n    /* \"#utility.yul\":2393:2424   */\n  swap2\n  pop\n    /* \"#utility.yul\":2445:2472   */\n  tag_113\n    /* \"#utility.yul\":2463:2471   */\n  dup4\n    /* \"#utility.yul\":2445:2472   */\n  tag_66\n  jump\t// in\ntag_113:\n    /* \"#utility.yul\":2433:2472   */\n  swap3\n  pop\n    /* \"#utility.yul\":2491:2595   */\n  tag_114\n    /* \"#utility.yul\":2528:2594   */\n  0xffffffffffffffffffffffffffffffffffffffffffffffffffffffffffffffff\n    /* \"#utility.yul\":2518:2526   */\n  dup5\n    /* \"#utility.yul\":2512:2516   */\n  dup5\n    /* \"#utility.yul\":2491:2595   */\n  tag_65\n  jump\t// in\ntag_114:\n    /* \"#utility.yul\":2482:2595   */\n  swap1\n  pop\n    /* \"#utility.yul\":2317:2602   */\n  swap3\n  swap2\n  pop\n  pop\n  jump\t// out\n    /* \"#utility.yul\":2608:3018   */\ntag_4:\n    /* \"#utility.yul\":2648:2655   */\n  0x00\n    /* \"#utility.yul\":2671:2691   */\n  tag_116\n    /* \"#utility.yul\":2689:2690   */\n  dup3\n    /* \"#utility.yul\":2671:2691   */\n  tag_66\n  jump\t// in\ntag_116:\n    /* \"#utility.yul\":2666:2691   */\n  swap2\n  pop\n    /* \"#utility.yul\":2705:2725   */\n  tag_117\n    /* \"#utility.yul\":2723:2724   */\n  dup4\n    /* \"#utility.yul\":2705:2725   */\n  tag_66\n  jump\t// in\ntag_117:\n    /* \"#utility.yul\":2700:2725   */\n  swap3\n  pop\n    /* \"#utility.yul\":2760:2761   */\n  dup3\n    /* \"#utility.yul\":2757:2758   */\n  dup3\n    /* \"#utility.yul\":2753:2762   */\n  mul\n    /* \"#utility.yul\":2782:2812   */\n  tag_118\n    /* \"#utility.yul\":2800:2811   */\n  dup2\n    /* \"#utility.yul\":2782:2812   */\n  tag_66\n  jump\t// in\ntag_118:\n    /* \"#utility.yul\":2771:2812   */\n  swap2\n  pop\n    /* \"#utility.yul\":2961:2962   */\n  dup3\n    /* \"#utility.yul\":2952:2959   */\n  dup3\n    /* \"#utility.yul\":2948:2963   */\n  div\n    /* \"#utility.yul\":2945:2946   */\n  dup5\n    /* \"#utility.yul\":2942:2964   */\n  eq\n    /* \"#utility.yul\":2922:2923   */\n  dup4\n    /* \"#utility.yul\":2915:2924   */\n  iszero\n    /* \"#utility.yul\":2895:2978   */\n  or\n    /* \"#utility.yul\":2872:3011   */\n  tag_119\n  jumpi\n    /* \"#utility.yul\":2991:3009   */\n  tag_120\n  tag_62\n  jump\t// in\ntag_120:\n    /* \"#utility.yul\":2872:3011   */\ntag_119:\n    /* \"#utility.yul\":2656:3018   */\n  pop\n    /* \"#utility.yul\":2608:3018   */\n  swap3\n  swap2\n  pop\n  pop\n  jump\t// out\n    /* \"#utility.yul\":3105:3222   */\ntag_68:\n    /* \"#utility.yul\":3214:3215   */\n  0x00\n    /* \"#utility.yul\":3211:3212   */\n  dup1\n    /* \"#utility.yul\":3204:3216   */\n  revert\n    /* \"#utility.yul\":3351:3477   */\ntag_70:\n    /* \"#utility.yul\":3388:3395   */\n  0x00\n    /* \"#utility.yul\":3428:3470   */\n  0xffffffffffffffffffffffffffffffffffffffff\n    /* \"#utility.yul\":3421:3426   */\n  dup3\n    /* \"#utility.yul\":3417:3471   */\n  and\n    /* \"#utility.yul\":3406:3471   */\n  swap1\n  pop\n    /* \"#utility.yul\":3351:3477   */\n  swap2\n  swap1\n  pop\n  jump\t// out\n    /* \"#utility.yul\":3483:3579   */\ntag_71:\n    /* \"#utility.yul\":3520:3527   */\n  0x00\n    /* \"#utility.yul\":3549:3573   */\n  tag_126\n    /* \"#utility.yul\":3567:3572   */\n  dup3\n    /* \"#utility.yul\":3549:3573   */\n  tag_70\n  jump\t// in\ntag_126:\n    /* \"#utility.yul\":3538:3573   */\n  swap1\n  pop\n    /* \"#utility.yul\":3483:3579   */\n  swap2\n  swap1\n  pop\n  jump\t// out\n    /* \"#utility.yul\":3585:3707   */\ntag_72:\n    /* \"#utility.yul\":3658:3682   */\n  tag_128\n    /* \"#utility.yul\":3676:3681   */\n  dup2\n    /* \"#utility.yul\":3658:3682   */\n  tag_71\n  jump\t// in\ntag_128:\n    /* \"#utility.yul\":3651:3656   */\n  dup2\n    /* \"#utility.yul\":3648:3683   */\n  eq\n    /* \"#utility.yul\":3638:3701   */\n  tag_129\n  jumpi\n    /* \"#utility.yul\":3697:3698   */\n  0x00\n    /* \"#utility.yul\":3694:3695   */\n  dup1\n    /* \"#utility.yul\":3687:3699   */\n  revert\n    /* \"#utility.yul\":3638:3701   */\ntag_129:\n    /* \"#utility.yul\":3585:3707   */\n  pop\n  jump\t// out\n    /* \"#utility.yul\":3713:3856   */\ntag_73:\n    /* \"#utility.yul\":3770:3775   */\n  0x00\n    /* \"#utility.yul\":3801:3807   */\n  dup2\n    /* \"#utility.yul\":3795:3808   */\n  mload\n    /* \"#utility.yul\":3786:3808   */\n  swap1\n  pop\n    /* \"#utility.yul\":3817:3850   */\n  tag_131\n    /* \"#utility.yul\":3844:3849   */\n  dup2\n    /* \"#utility.yul\":3817:3850   */\n  tag_72\n  jump\t// in\ntag_131:\n    /* \"#utility.yul\":3713:3856   */\n  swap3\n  swap2\n  pop\n  pop\n  jump\t// out\n    /* \"#utility.yul\":3862:4213   */\ntag_9:\n    /* \"#utility.yul\":3932:3938   */\n  0x00\n    /* \"#utility.yul\":3981:3983   */\n  0x20\n    /* \"#utility.yul\":3969:3978   */\n  dup3\n    /* \"#utility.yul\":3960:3967   */\n  dup5\n    /* \"#utility.yul\":3956:3979   */\n  sub\n    /* \"#utility.yul\":3952:3984   */\n  slt\n    /* \"#utility.yul\":3949:4068   */\n  iszero\n  tag_133\n  jumpi\n    /* \"#utility.yul\":3987:4066   */\n  tag_134\n  tag_68\n  jump\t// in\ntag_134:\n    /* \"#utility.yul\":3949:4068   */\ntag_133:\n    /* \"#utility.yul\":4107:4108   */\n  0x00\n    /* \"#utility.yul\":4132:4196   */\n  tag_135\n    /* \"#utility.yul\":4188:4195   */\n  dup5\n    /* \"#utility.yul\":4179:4185   */\n  dup3\n    /* \"#utility.yul\":4168:4177   */\n  dup6\n    /* \"#utility.yul\":4164:4186   */\n  add\n    /* \"#utility.yul\":4132:4196   */\n  tag_73\n  jump\t// in\ntag_135:\n    /* \"#utility.yul\":4122:4196   */\n  swap2\n  pop\n    /* \"#utility.yul\":4078:4206   */\n  pop\n    /* \"#utility.yul\":3862:4213   */\n  swap3\n  swap2\n  pop\n  pop\n  jump\t// out\n    /* \"#utility.yul\":4219:4388   */\ntag_74:\n    /* \"#utility.yul\":4303:4314   */\n  0x00\n    /* \"#utility.yul\":4337:4343   */\n  dup3\n    /* \"#utility.yul\":4332:4335   */\n  dup3\n    /* \"#utility.yul\":4325:4344   */\n  mstore\n    /* \"#utility.yul\":4377:4381   */\n  0x20\n    /* \"#utility.yul\":4372:4375   */\n  dup3\n    /* \"#utility.yul\":4368:4382   */\n  add\n    /* \"#utility.yul\":4353:4382   */\n  swap1\n  pop\n    /* \"#utility.yul\":4219:4388   */\n  swap3\n  swap2\n  pop\n  pop\n  jump\t// out\n    /* \"#utility.yul\":4394:4559   */\ntag_75:\n    /* \"#utility.yul\":4534:4551   */\n  0x436861696e206e6f742076616c69640000000000000000000000000000000000\n    /* \"#utility.yul\":4530:4531   */\n  0x00\n    /* \"#utility.yul\":4522:4528   */\n  dup3\n    /* \"#utility.yul\":4518:4532   */\n  add\n    /* \"#utility.yul\":4511:4552   */\n  mstore\n    /* \"#utility.yul\":4394:4559   */\n  pop\n  jump\t// out\n    /* \"#utility.yul\":4565:4931   */\ntag_76:\n    /* \"#utility.yul\":4707:4710   */\n  0x00\n    /* \"#utility.yul\":4728:4795   */\n  tag_139\n    /* \"#utility.yul\":4792:4794   */\n  0x0f\n    /* \"#utility.yul\":4787:4790   */\n  dup4\n    /* \"#utility.yul\":4728:4795   */\n  tag_74\n  jump\t// in\ntag_139:\n    /* \"#utility.yul\":4721:4795   */\n  swap2\n  pop\n    /* \"#utility.yul\":4804:4897   */\n  tag_140\n    /* \"#utility.yul\":4893:4896   */\n  dup3\n    /* \"#utility.yul\":4804:4897   */\n  tag_75\n  jump\t// in\ntag_140:\n    /* \"#utility.yul\":4922:4924   */\n  0x20\n    /* \"#utility.yul\":4917:4920   */\n  dup3\n    /* \"#utility.yul\":4913:4925   */\n  add\n    /* \"#utility.yul\":4906:4925   */\n  swap1\n  pop\n    /* \"#utility.yul\":4565:4931   */\n  swap2\n  swap1\n  pop\n  jump\t// out\n    /* \"#utility.yul\":4937:5356   */\ntag_31:\n    /* \"#utility.yul\":5103:5107   */\n  0x00\n    /* \"#utility.yul\":5141:5143   */\n  0x20\n    /* \"#utility.yul\":5130:5139   */\n  dup3\n    /* \"#utility.yul\":5126:5144   */\n  add\n    /* \"#utility.yul\":5118:5144   */\n  swap1\n  pop\n    /* \"#utility.yul\":5190:5199   */\n  dup2\n    /* \"#utility.yul\":5184:5188   */\n  dup2\n    /* \"#utility.yul\":5180:5200   */\n  sub\n    /* \"#utility.yul\":5176:5177   */\n  0x00\n    /* \"#utility.yul\":5165:5174   */\n  dup4\n    /* \"#utility.yul\":5161:5178   */\n  add\n    /* \"#utility.yul\":5154:5201   */\n  mstore\n    /* \"#utility.yul\":5218:5349   */\n  tag_142\n    /* \"#utility.yul\":5344:5348   */\n  dup2\n    /* \"#utility.yul\":5218:5349   */\n  tag_76\n  jump\t// in\ntag_142:\n    /* \"#utility.yul\":5210:5349   */\n  swap1\n  pop\n    /* \"#utility.yul\":4937:5356   */\n  swap2\n  swap1\n  pop\n  jump\t// out\n    /* \"#utility.yul\":5362:5480   */\ntag_77:\n    /* \"#utility.yul\":5449:5473   */\n  tag_144\n    /* \"#utility.yul\":5467:5472   */\n  dup2\n    /* \"#utility.yul\":5449:5473   */\n  tag_71\n  jump\t// in\ntag_144:\n    /* \"#utility.yul\":5444:5447   */\n  dup3\n    /* \"#utility.yul\":5437:5474   */\n  mstore\n    /* \"#utility.yul\":5362:5480   */\n  pop\n  pop\n  jump\t// out\n    /* \"#utility.yul\":5486:5818   */\ntag_39:\n    /* \"#utility.yul\":5607:5611   */\n  0x00\n    /* \"#utility.yul\":5645:5647   */\n  0x40\n    /* \"#utility.yul\":5634:5643   */\n  dup3\n    /* \"#utility.yul\":5630:5648   */\n  add\n    /* \"#utility.yul\":5622:5648   */\n  swap1\n  pop\n    /* \"#utility.yul\":5658:5729   */\n  tag_146\n    /* \"#utility.yul\":5726:5727   */\n  0x00\n    /* \"#utility.yul\":5715:5724   */\n  dup4\n    /* \"#utility.yul\":5711:5728   */\n  add\n    /* \"#utility.yul\":5702:5708   */\n  dup6\n    /* \"#utility.yul\":5658:5729   */\n  tag_77\n  jump\t// in\ntag_146:\n    /* \"#utility.yul\":5739:5811   */\n  tag_147\n    /* \"#utility.yul\":5807:5809   */\n  0x20\n    /* \"#utility.yul\":5796:5805   */\n  dup4\n    /* \"#utility.yul\":5792:5810   */\n  add\n    /* \"#utility.yul\":5783:5789   */\n  dup5\n    /* \"#utility.yul\":5739:5811   */\n  tag_77\n  jump\t// in\ntag_147:\n    /* \"#utility.yul\":5486:5818   */\n  swap4\n  swap3\n  pop\n  pop\n  pop\n  jump\t// out\n    /* \"#utility.yul\":5824:5942   */\ntag_78:\n    /* \"#utility.yul\":5911:5935   */\n  tag_149\n    /* \"#utility.yul\":5929:5934   */\n  dup2\n    /* \"#utility.yul\":5911:5935   */\n  tag_66\n  jump\t// in\ntag_149:\n    /* \"#utility.yul\":5906:5909   */\n  dup3\n    /* \"#utility.yul\":5899:5936   */\n  mstore\n    /* \"#utility.yul\":5824:5942   */\n  pop\n  pop\n  jump\t// out\n    /* \"#utility.yul\":5948:6170   */\ntag_49:\n    /* \"#utility.yul\":6041:6045   */\n  0x00\n    /* \"#utility.yul\":6079:6081   */\n  0x20\n    /* \"#utility.yul\":6068:6077   */\n  dup3\n    /* \"#utility.yul\":6064:6082   */\n  add\n    /* \"#utility.yul\":6056:6082   */\n  swap1\n  pop\n    /* \"#utility.yul\":6092:6163   */\n  tag_151\n    /* \"#utility.yul\":6160:6161   */\n  0x00\n    /* \"#utility.yul\":6149:6158   */\n  dup4\n    /* \"#utility.yul\":6145:6162   */\n  add\n    /* \"#utility.yul\":6136:6142   */\n  dup5\n    /* \"#utility.yul\":6092:6163   */\n  tag_78\n  jump\t// in\ntag_151:\n    /* \"#utility.yul\":5948:6170   */\n  swap3\n  swap2\n  pop\n  pop\n  jump\t// out\n    /* \"#utility.yul\":6176:6399   */\ntag_79:\n    /* \"#utility.yul\":6316:6350   */\n  0x45524332303a20617070726f76652066726f6d20746865207a65726f20616464\n    /* \"#utility.yul\":6312:6313   */\n  0x00\n    /* \"#utility.yul\":6304:6310   */\n  dup3\n    /* \"#utility.yul\":6300:6314   */\n  add\n    /* \"#utility.yul\":6293:6351   */\n  mstore\n    /* \"#utility.yul\":6385:6391   */\n  0x7265737300000000000000000000000000000000000000000000000000000000\n    /* \"#utility.yul\":6380:6382   */\n  0x20\n    /* \"#utility.yul\":6372:6378   */\n  dup3\n    /* \"#utility.yul\":6368:6383   */\n  add\n    /* \"#utility.yul\":6361:6392   */\n  mstore\n    /* \"#utility.yul\":6176:6399   */\n  pop\n  jump\t// out\n    /* \"#utility.yul\":6405:6771   */\ntag_80:\n    /* \"#utility.yul\":6547:6550   */\n  0x00\n    /* \"#utility.yul\":6568:6635   */\n  tag_154\n    /* \"#utility.yul\":6632:6634   */\n  0x24\n    /* \"#utility.yul\":6627:6630   */\n  dup4\n    /* \"#utility.yul\":6568:6635   */\n  tag_74\n  jump\t// in\ntag_154:\n    /* \"#utility.yul\":6561:6635   */\n  swap2\n  pop\n    /* \"#utility.yul\":6644:6737   */\n  tag_155\n    /* \"#utility.yul\":6733:6736   */\n  dup3\n    /* \"#utility.yul\":6644:6737   */\n  tag_79\n  jump\t// in\ntag_155:\n    /* \"#utility.yul\":6762:6764   */\n  0x40\n    /* \"#utility.yul\":6757:6760   */\n  dup3\n    /* \"#utility.yul\":6753:6765   */\n  add\n    /* \"#utility.yul\":6746:6765   */\n  swap1\n  pop\n    /* \"#utility.yul\":6405:6771   */\n  swap2\n  swap1\n  pop\n  jump\t// out\n    /* \"#utility.yul\":6777:7196   */\ntag_56:\n    /* \"#utility.yul\":6943:6947   */\n  0x00\n    /* \"#utility.yul\":6981:6983   */\n  0x20\n    /* \"#utility.yul\":6970:6979   */\n  dup3\n    /* \"#utility.yul\":6966:6984   */\n  add\n    /* \"#utility.yul\":6958:6984   */\n  swap1\n  pop\n    /* \"#utility.yul\":7030:7039   */\n  dup2\n    /* \"#utility.yul\":7024:7028   */\n  dup2\n    /* \"#utility.yul\":7020:7040   */\n  sub\n    /* \"#utility.yul\":7016:7017   */\n  0x00\n    /* \"#utility.yul\":7005:7014   */\n  dup4\n    /* \"#utility.yul\":7001:7018   */\n  add\n    /* \"#utility.yul\":6994:7041   */\n  mstore\n    /* \"#utility.yul\":7058:7189   */\n  tag_157\n    /* \"#utility.yul\":7184:7188   */\n  dup2\n    /* \"#utility.yul\":7058:7189   */\n  tag_80\n  jump\t// in\ntag_157:\n    /* \"#utility.yul\":7050:7189   */\n  swap1\n  pop\n    /* \"#utility.yul\":6777:7196   */\n  swap2\n  swap1\n  pop\n  jump\t// out\n    /* \"#utility.yul\":7202:7423   */\ntag_81:\n    /* \"#utility.yul\":7342:7376   */\n  0x45524332303a20617070726f766520746f20746865207a65726f206164647265\n    /* \"#utility.yul\":7338:7339   */\n  0x00\n    /* \"#utility.yul\":7330:7336   */\n  dup3\n    /* \"#utility.yul\":7326:7340   */\n  add\n    /* \"#utility.yul\":7319:7377   */\n  mstore\n    /* \"#utility.yul\":7411:7415   */\n  0x7373000000000000000000000000000000000000000000000000000000000000\n    /* \"#utility.yul\":7406:7408   */\n  0x20\n    /* \"#utility.yul\":7398:7404   */\n  dup3\n    /* \"#utility.yul\":7394:7409   */\n  add\n    /* \"#utility.yul\":7387:7416   */\n  mstore\n    /* \"#utility.yul\":7202:7423   */\n  pop\n  jump\t// out\n    /* \"#utility.yul\":7429:7795   */\ntag_82:\n    /* \"#utility.yul\":7571:7574   */\n  0x00\n    /* \"#utility.yul\":7592:7659   */\n  tag_160\n    /* \"#utility.yul\":7656:7658   */\n  0x22\n    /* \"#utility.yul\":7651:7654   */\n  dup4\n    /* \"#utility.yul\":7592:7659   */\n  tag_74\n  jump\t// in\ntag_160:\n    /* \"#utility.yul\":7585:7659   */\n  swap2\n  pop\n    /* \"#utility.yul\":7668:7761   */\n  tag_161\n    /* \"#utility.yul\":7757:7760   */\n  dup3\n    /* \"#utility.yul\":7668:7761   */\n  tag_81\n  jump\t// in\ntag_161:\n    /* \"#utility.yul\":7786:7788   */\n  0x40\n    /* \"#utility.yul\":7781:7784   */\n  dup3\n    /* \"#utility.yul\":7777:7789   */\n  add\n    /* \"#utility.yul\":7770:7789   */\n  swap1\n  pop\n    /* \"#utility.yul\":7429:7795   */\n  swap2\n  swap1\n  pop\n  jump\t// out\n    /* \"#utility.yul\":7801:8220   */\ntag_59:\n    /* \"#utility.yul\":7967:7971   */\n  0x00\n    /* \"#utility.yul\":8005:8007   */\n  0x20\n    /* \"#utility.yul\":7994:8003   */\n  dup3\n    /* \"#utility.yul\":7990:8008   */\n  add\n    /* \"#utility.yul\":7982:8008   */\n  swap1\n  pop\n    /* \"#utility.yul\":8054:8063   */\n  dup2\n    /* \"#utility.yul\":8048:8052   */\n  dup2\n    /* \"#utility.yul\":8044:8064   */\n  sub\n    /* \"#utility.yul\":8040:8041   */\n  0x00\n    /* \"#utility.yul\":8029:8038   */\n  dup4\n    /* \"#utility.yul\":8025:8042   */\n  add\n    /* \"#utility.yul\":8018:8065   */\n  mstore\n    /* \"#utility.yul\":8082:8213   */\n  tag_163\n    /* \"#utility.yul\":8208:8212   */\n  dup2\n    /* \"#utility.yul\":8082:8213   */\n  tag_82\n  jump\t// in\ntag_163:\n    /* \"#utility.yul\":8074:8213   */\n  swap1\n  pop\n    /* \"#utility.yul\":7801:8220   */\n  swap2\n  swap1\n  pop\n  jump\t// out\n    /* \"USR.sol\":12012:31729  contract USRToken is Ownable {... */\ntag_50:\n  dataSize(sub_0)\n  dup1\n  dataOffset(sub_0)\n  0x00\n  codecopy\n  0x00\n  return\nstop\n\nsub_0: assembly {\n        /* \"USR.sol\":12012:31729  contract USRToken is Ownable {... */\n      mstore(0x40, 0x80)\n      jumpi(tag_1, lt(calldatasize, 0x04))\n      shr(0xe0, calldataload(0x00))\n      dup1\n      0x6bf74354\n      gt\n      tag_57\n      jumpi\n      dup1\n      0xaaeeaa89\n      gt\n      tag_58\n      jumpi\n      dup1\n      0xd8bfd198\n      gt\n      tag_59\n      jumpi\n      dup1\n      0xe47f47a6\n      gt\n      tag_60\n      jumpi\n      dup1\n      0xe47f47a6\n      eq\n      tag_53\n      jumpi\n      dup1\n      0xf2fde38b\n      eq\n      tag_54\n      jumpi\n      dup1\n      0xf3d1f026\n      eq\n      tag_55\n      jumpi\n      dup1\n      0xffcac76d\n      eq\n      tag_56\n      jumpi\n      jump(tag_2)\n    tag_60:\n      dup1\n      0xd8bfd198\n      eq\n      tag_50\n      jumpi\n      dup1\n      0xdbac26e9\n      eq\n      tag_51\n      jumpi\n      dup1\n      0xdd62ed3e\n      eq\n      tag_52\n      jumpi\n      jump(tag_2)\n    tag_59:\n      dup1\n      0xc51abc59\n      gt\n      tag_61\n      jumpi\n      dup1\n      0xc51abc59\n      eq\n      tag_46\n      jumpi\n      dup1\n      0xc844d32d\n      eq\n      tag_47\n      jumpi\n      dup1\n      0xce831ed5\n      eq\n      tag_48\n      jumpi\n      dup1\n      0xd4927eb2\n      eq\n      tag_49\n      jumpi\n      jump(tag_2)\n    tag_61:\n      dup1\n      0xaaeeaa89\n      eq\n      tag_43\n      jumpi\n      dup1\n      0xb62496f5\n      eq\n      tag_44\n      jumpi\n      dup1\n      0xba61f301\n      eq\n      tag_45\n      jumpi\n      jump(tag_2)\n    tag_58:\n      dup1\n      0x7f2e6ccb\n      gt\n      tag_62\n      jumpi\n      dup1\n      0x8da5cb5b\n      gt\n      tag_63\n      jumpi\n      dup1\n      0x8da5cb5b\n      eq\n      tag_39\n      jumpi\n      dup1\n      0x95d89b41\n      eq\n      tag_40\n      jumpi\n      dup1\n      0x9a7a23d6\n      eq\n      tag_41\n      jumpi\n      dup1\n      0xa9059cbb\n      eq\n      tag_42\n      jumpi\n      jump(tag_2)\n    tag_63:\n      dup1\n      0x7f2e6ccb\n      eq\n      tag_36\n      jumpi\n      dup1\n      0x8683171f\n      eq\n      tag_37\n      jumpi\n      dup1\n      0x8d9d142c\n      eq\n      tag_38\n      jumpi\n      jump(tag_2)\n    tag_62:\n      dup1\n      0x6bf74354\n      eq\n      tag_30\n      jumpi\n      dup1\n      0x6ddd1713\n      eq\n      tag_31\n      jumpi\n      dup1\n      0x70a08231\n      eq\n      tag_32\n      jumpi\n      dup1\n      0x715018a6\n      eq\n      tag_33\n      jumpi\n      dup1\n      0x768dc710\n      eq\n      tag_34\n      jumpi\n      dup1\n      0x7aab5d9b\n      eq\n      tag_35\n      jumpi\n      jump(tag_2)\n    tag_57:\n      dup1\n      0x3f156b62\n      gt\n      tag_64\n      jumpi\n      dup1\n      0x53d01d3e\n      gt\n      tag_65\n      jumpi\n      dup1\n      0x6612e66f\n      gt\n      tag_66\n      jumpi\n      dup1\n      0x6612e66f\n      eq\n      tag_26\n      jumpi\n      dup1\n      0x6717ea65\n      eq\n      tag_27\n      jumpi\n      dup1\n      0x67b34e01\n      eq\n      tag_28\n      jumpi\n      dup1\n      0x67d76508\n      eq\n      tag_29\n      jumpi\n      jump(tag_2)\n    tag_66:\n      dup1\n      0x53d01d3e\n      eq\n      tag_23\n      jumpi\n      dup1\n      0x56566c7f\n      eq\n      tag_24\n      jumpi\n      dup1\n      0x5fa1f783\n      eq\n      tag_25\n      jumpi\n      jump(tag_2)\n    tag_65:\n      dup1\n      0x46c9ee3e\n      gt\n      tag_67\n      jumpi\n      dup1\n      0x46c9ee3e\n      eq\n      tag_19\n      jumpi\n      dup1\n      0x4bf28fd0\n      eq\n      tag_20\n      jumpi\n      dup1\n      0x4dcb39a0\n      eq\n      tag_21\n      jumpi\n      dup1\n      0x4e08915f\n      eq\n      tag_22\n      jumpi\n      jump(tag_2)\n    tag_67:\n      dup1\n      0x3f156b62\n      eq\n      tag_16\n      jumpi\n      dup1\n      0x44337ea1\n      eq\n      tag_17\n      jumpi\n      dup1\n      0x46190503\n      eq\n      tag_18\n      jumpi\n      jump(tag_2)\n    tag_64:\n      dup1\n      0x137461dc\n      gt\n      tag_68\n      jumpi\n      dup1\n      0x235c6609\n      gt\n      tag_69\n      jumpi\n      dup1\n      0x235c6609\n      eq\n      tag_12\n      jumpi\n      dup1\n      0x23b872dd\n      eq\n      tag_13\n      jumpi\n      dup1\n      0x2e860462\n      eq\n      tag_14\n      jumpi\n      dup1\n      0x313ce567\n      eq\n      tag_15\n      jumpi\n      jump(tag_2)\n    tag_69:\n      dup1\n      0x137461dc\n      eq\n      tag_9\n      jumpi\n      dup1\n      0x1694505e\n      eq\n      tag_10\n      jumpi\n      dup1\n      0x18160ddd\n      eq\n      tag_11\n      jumpi\n      jump(tag_2)\n    tag_68:\n      dup1\n      0x99d386\n      eq\n      tag_3\n      jumpi\n      dup1\n      0x06fdde03\n      eq\n      tag_4\n      jumpi\n      dup1\n      0x07a212be\n      eq\n      tag_5\n      jumpi\n      dup1\n      0x095ea7b3\n      eq\n      tag_6\n      jumpi\n      dup1\n      0x105183e5\n      eq\n      tag_7\n      jumpi\n      dup1\n      0x10c5b4c3\n      eq\n      tag_8\n      jumpi\n      jump(tag_2)\n    tag_1:\n      jumpi(tag_2, calldatasize)\n      stop\n    tag_2:\n      stop\n        /* \"USR.sol\":20758:20835  function enableTrade() public onlyOwner {... */\n    tag_3:\n      callvalue\n      dup1\n      iszero\n      tag_74\n      jumpi\n      0x00\n      dup1\n      revert\n    tag_74:\n      pop\n      tag_75\n      tag_76\n      jump\t// in\n    tag_75:\n      stop\n        /* \"USR.sol\":16302:16394  function name() public view virtual  returns (string memory) {... */\n    tag_4:\n      callvalue\n      dup1\n      iszero\n      tag_77\n      jumpi\n      0x00\n      dup1\n      revert\n    tag_77:\n      pop\n      tag_78\n      tag_79\n      jump\t// in\n    tag_78:\n      mload(0x40)\n      tag_80\n      swap2\n      swap1\n      tag_81\n      jump\t// in\n    tag_80:\n      mload(0x40)\n      dup1\n      swap2\n      sub\n      swap1\n      return\n        /* \"USR.sol\":24717:24920  function setTaxThreshold(uint256 threshold) external onlyOwner {... */\n    tag_5:\n      callvalue\n      dup1\n      iszero\n      tag_82\n      jumpi\n      0x00\n      dup1\n      revert\n    tag_82:\n      pop\n      tag_83\n      0x04\n      dup1\n      calldatasize\n      sub\n      dup2\n      add\n      swap1\n      tag_84\n      swap2\n      swap1\n      tag_85\n      jump\t// in\n    tag_84:\n      tag_86\n      jump\t// in\n    tag_83:\n      stop\n        /* \"USR.sol\":17556:17707  function approve(address spender, uint256 amount) public  returns (bool) {... */\n    tag_6:\n      callvalue\n      dup1\n      iszero\n      tag_87\n      jumpi\n      0x00\n      dup1\n      revert\n    tag_87:\n      pop\n      tag_88\n      0x04\n      dup1\n      calldatasize\n      sub\n      dup2\n      add\n      swap1\n      tag_89\n      swap2\n      swap1\n      tag_90\n      jump\t// in\n    tag_89:\n      tag_91\n      jump\t// in\n    tag_88:\n      mload(0x40)\n      tag_92\n      swap2\n      swap1\n      tag_93\n      jump\t// in\n    tag_92:\n      mload(0x40)\n      dup1\n      swap2\n      sub\n      swap1\n      return\n        /* \"USR.sol\":22013:22344  function setBuyUserFoundationPercentage(uint256 _userFoundationPercent) external onlyOwner {... */\n    tag_7:\n      callvalue\n      dup1\n      iszero\n      tag_94\n      jumpi\n      0x00\n      dup1\n      revert\n    tag_94:\n      pop\n      tag_95\n      0x04\n      dup1\n      calldatasize\n      sub\n      dup2\n      add\n      swap1\n      tag_96\n      swap2\n      swap1\n      tag_85\n      jump\t// in\n    tag_96:\n      tag_97\n      jump\t// in\n    tag_95:\n      stop\n        /* \"USR.sol\":13015:13055  uint256 public _buyBurnTaxPercentage = 5 */\n    tag_8:\n      callvalue\n      dup1\n      iszero\n      tag_98\n      jumpi\n      0x00\n      dup1\n      revert\n    tag_98:\n      pop\n      tag_99\n      tag_100\n      jump\t// in\n    tag_99:\n      mload(0x40)\n      tag_101\n      swap2\n      swap1\n      tag_102\n      jump\t// in\n    tag_101:\n      mload(0x40)\n      dup1\n      swap2\n      sub\n      swap1\n      return\n        /* \"USR.sol\":13089:13129  uint256 public _sellUFTaxPercentage = 10 */\n    tag_9:\n      callvalue\n      dup1\n      iszero\n      tag_103\n      jumpi\n      0x00\n      dup1\n      revert\n    tag_103:\n      pop\n      tag_104\n      tag_105\n      jump\t// in\n    tag_104:\n      mload(0x40)\n      tag_106\n      swap2\n      swap1\n      tag_102\n      jump\t// in\n    tag_106:\n      mload(0x40)\n      dup1\n      swap2\n      sub\n      swap1\n      return\n        /* \"USR.sol\":13920:13961  IUniswapV2Router02 public uniswapV2Router */\n    tag_10:\n      callvalue\n      dup1\n      iszero\n      tag_107\n      jumpi\n      0x00\n      dup1\n      revert\n    tag_107:\n      pop\n      tag_108\n      tag_109\n      jump\t// in\n    tag_108:\n      mload(0x40)\n      tag_110\n      swap2\n      swap1\n      tag_111\n      jump\t// in\n    tag_110:\n      mload(0x40)\n      dup1\n      swap2\n      sub\n      swap1\n      return\n        /* \"USR.sol\":16609:16709  function totalSupply() public view virtual  returns (uint256) {... */\n    tag_11:\n      callvalue\n      dup1\n      iszero\n      tag_112\n      jumpi\n      0x00\n      dup1\n      revert\n    tag_112:\n      pop\n      tag_113\n      tag_114\n      jump\t// in\n    tag_113:\n      mload(0x40)\n      tag_115\n      swap2\n      swap1\n      tag_102\n      jump\t// in\n    tag_115:\n      mload(0x40)\n      dup1\n      swap2\n      sub\n      swap1\n      return\n        /* \"USR.sol\":24193:24447  function setTransferBurnPercentage(uint256 _burnPercent) external onlyOwner {... */\n    tag_12:\n      callvalue\n      dup1\n      iszero\n      tag_116\n      jumpi\n      0x00\n      dup1\n      revert\n    tag_116:\n      pop\n      tag_117\n      0x04\n      dup1\n      calldatasize\n      sub\n      dup2\n      add\n      swap1\n      tag_118\n      swap2\n      swap1\n      tag_85\n      jump\t// in\n    tag_118:\n      tag_119\n      jump\t// in\n    tag_117:\n      stop\n        /* \"USR.sol\":17082:17367  function transferFrom(... */\n    tag_13:\n      callvalue\n      dup1\n      iszero\n      tag_120\n      jumpi\n      0x00\n      dup1\n      revert\n    tag_120:\n      pop\n      tag_121\n      0x04\n      dup1\n      calldatasize\n      sub\n      dup2\n      add\n      swap1\n      tag_122\n      swap2\n      swap1\n      tag_123\n      jump\t// in\n    tag_122:\n      tag_124\n      jump\t// in\n    tag_121:\n      mload(0x40)\n      tag_125\n      swap2\n      swap1\n      tag_93\n      jump\t// in\n    tag_125:\n      mload(0x40)\n      dup1\n      swap2\n      sub\n      swap1\n      return\n        /* \"USR.sol\":22352:22664  function setBuyLiquidityPercentage(uint256 _liquidityPercent) external onlyOwner {... */\n    tag_14:\n      callvalue\n      dup1\n      iszero\n      tag_126\n      jumpi\n      0x00\n      dup1\n      revert\n    tag_126:\n      pop\n      tag_127\n      0x04\n      dup1\n      calldatasize\n      sub\n      dup2\n      add\n      swap1\n      tag_128\n      swap2\n      swap1\n      tag_85\n      jump\t// in\n    tag_128:\n      tag_129\n      jump\t// in\n    tag_127:\n      stop\n        /* \"USR.sol\":16508:16600  function decimals() public view virtual  returns (uint8) {... */\n    tag_15:\n      callvalue\n      dup1\n      iszero\n      tag_130\n      jumpi\n      0x00\n      dup1\n      revert\n    tag_130:\n      pop\n      tag_131\n      tag_132\n      jump\t// in\n    tag_131:\n      mload(0x40)\n      tag_133\n      swap2\n      swap1\n      tag_134\n      jump\t// in\n    tag_133:\n      mload(0x40)\n      dup1\n      swap2\n      sub\n      swap1\n      return\n        /* \"USR.sol\":13477:13511  uint256 public _buyUFShare = 11764 */\n    tag_16:\n      callvalue\n      dup1\n      iszero\n      tag_135\n      jumpi\n      0x00\n      dup1\n      revert\n    tag_135:\n      pop\n      tag_136\n      tag_137\n      jump\t// in\n    tag_136:\n      mload(0x40)\n      tag_138\n      swap2\n      swap1\n      tag_102\n      jump\t// in\n    tag_138:\n      mload(0x40)\n      dup1\n      swap2\n      sub\n      swap1\n      return\n        /* \"USR.sol\":24459:24705  function addToBlacklist(address account) public onlyOwner{... */\n    tag_17:\n      callvalue\n      dup1\n      iszero\n      tag_139\n      jumpi\n      0x00\n      dup1\n      revert\n    tag_139:\n      pop\n      tag_140\n      0x04\n      dup1\n      calldatasize\n      sub\n      dup2\n      add\n      swap1\n      tag_141\n      swap2\n      swap1\n      tag_142\n      jump\t// in\n    tag_141:\n      tag_143\n      jump\t// in\n    tag_140:\n      stop\n        /* \"USR.sol\":20929:21023  function disableBurn(bool _status) public onlyOwner {... */\n    tag_18:\n      callvalue\n      dup1\n      iszero\n      tag_144\n      jumpi\n      0x00\n      dup1\n      revert\n    tag_144:\n      pop\n      tag_145\n      0x04\n      dup1\n      calldatasize\n      sub\n      dup2\n      add\n      swap1\n      tag_146\n      swap2\n      swap1\n      tag_147\n      jump\t// in\n    tag_146:\n      tag_148\n      jump\t// in\n    tag_145:\n      stop\n        /* \"USR.sol\":12943:12989  uint256 public _buyLiquidityTaxPercentage = 10 */\n    tag_19:\n      callvalue\n      dup1\n      iszero\n      tag_149\n      jumpi\n      0x00\n      dup1\n      revert\n    tag_149:\n      pop\n      tag_150\n      tag_151\n      jump\t// in\n    tag_150:\n      mload(0x40)\n      tag_152\n      swap2\n      swap1\n      tag_102\n      jump\t// in\n    tag_152:\n      mload(0x40)\n      dup1\n      swap2\n      sub\n      swap1\n      return\n        /* \"USR.sol\":13968:13995  address public _uniswapPair */\n    tag_20:\n      callvalue\n      dup1\n      iszero\n      tag_153\n      jumpi\n      0x00\n      dup1\n      revert\n    tag_153:\n      pop\n      tag_154\n      tag_155\n      jump\t// in\n    tag_154:\n      mload(0x40)\n      tag_156\n      swap2\n      swap1\n      tag_157\n      jump\t// in\n    tag_156:\n      mload(0x40)\n      dup1\n      swap2\n      sub\n      swap1\n      return\n        /* \"USR.sol\":13380:13425  uint256 public _transferBurnTaxPercentage = 5 */\n    tag_21:\n      callvalue\n      dup1\n      iszero\n      tag_158\n      jumpi\n      0x00\n      dup1\n      revert\n    tag_158:\n      pop\n      tag_159\n      tag_160\n      jump\t// in\n    tag_159:\n      mload(0x40)\n      tag_161\n      swap2\n      swap1\n      tag_102\n      jump\t// in\n    tag_161:\n      mload(0x40)\n      dup1\n      swap2\n      sub\n      swap1\n      return\n        /* \"USR.sol\":13797:13843  uint256 public _transferLiquidityShare = 29411 */\n    tag_22:\n      callvalue\n      dup1\n      iszero\n      tag_162\n      jumpi\n      0x00\n      dup1\n      revert\n    tag_162:\n      pop\n      tag_163\n      tag_164\n      jump\t// in\n    tag_163:\n      mload(0x40)\n      tag_165\n      swap2\n      swap1\n      tag_102\n      jump\t// in\n    tag_165:\n      mload(0x40)\n      dup1\n      swap2\n      sub\n      swap1\n      return\n        /* \"USR.sol\":13716:13758  uint256 public _sellLiquidityShare = 35294 */\n    tag_23:\n      callvalue\n      dup1\n      iszero\n      tag_166\n      jumpi\n      0x00\n      dup1\n      revert\n    tag_166:\n      pop\n      tag_167\n      tag_168\n      jump\t// in\n    tag_167:\n      mload(0x40)\n      tag_169\n      swap2\n      swap1\n      tag_102\n      jump\t// in\n    tag_169:\n      mload(0x40)\n      dup1\n      swap2\n      sub\n      swap1\n      return\n        /* \"USR.sol\":23607:23868  function setSellBurnPercentage(uint256 _burnPercent) external onlyOwner {... */\n    tag_24:\n      callvalue\n      dup1\n      iszero\n      tag_170\n      jumpi\n      0x00\n      dup1\n      revert\n    tag_170:\n      pop\n      tag_171\n      0x04\n      dup1\n      calldatasize\n      sub\n      dup2\n      add\n      swap1\n      tag_172\n      swap2\n      swap1\n      tag_85\n      jump\t// in\n    tag_172:\n      tag_173\n      jump\t// in\n    tag_171:\n      stop\n        /* \"USR.sol\":13556:13597  uint256 public _buyLiquidityShare = 11764 */\n    tag_25:\n      callvalue\n      dup1\n      iszero\n      tag_174\n      jumpi\n      0x00\n      dup1\n      revert\n    tag_174:\n      pop\n      tag_175\n      tag_176\n      jump\t// in\n    tag_175:\n      mload(0x40)\n      tag_177\n      swap2\n      swap1\n      tag_102\n      jump\t// in\n    tag_177:\n      mload(0x40)\n      dup1\n      swap2\n      sub\n      swap1\n      return\n        /* \"USR.sol\":20613:20749  function setExcludedFromFee(address account, bool excluded) external onlyOwner {... */\n    tag_26:\n      callvalue\n      dup1\n      iszero\n      tag_178\n      jumpi\n      0x00\n      dup1\n      revert\n    tag_178:\n      pop\n      tag_179\n      0x04\n      dup1\n      calldatasize\n      sub\n      dup2\n      add\n      swap1\n      tag_180\n      swap2\n      swap1\n      tag_181\n      jump\t// in\n    tag_180:\n      tag_182\n      jump\t// in\n    tag_179:\n      stop\n        /* \"USR.sol\":14072:14104  bool public burn_disable = false */\n    tag_27:\n      callvalue\n      dup1\n      iszero\n      tag_183\n      jumpi\n      0x00\n      dup1\n      revert\n    tag_183:\n      pop\n      tag_184\n      tag_185\n      jump\t// in\n    tag_184:\n      mload(0x40)\n      tag_186\n      swap2\n      swap1\n      tag_93\n      jump\t// in\n    tag_186:\n      mload(0x40)\n      dup1\n      swap2\n      sub\n      swap1\n      return\n        /* \"USR.sol\":12263:12322  uint256 public _taxThreshold = 100 * 10**uint256(_decimals) */\n    tag_28:\n      callvalue\n      dup1\n      iszero\n      tag_187\n      jumpi\n      0x00\n      dup1\n      revert\n    tag_187:\n      pop\n      tag_188\n      tag_189\n      jump\t// in\n    tag_188:\n      mload(0x40)\n      tag_190\n      swap2\n      swap1\n      tag_102\n      jump\t// in\n    tag_190:\n      mload(0x40)\n      dup1\n      swap2\n      sub\n      swap1\n      return\n        /* \"USR.sol\":12871:12910  uint256 public _buyUFTaxPercentage = 10 */\n    tag_29:\n      callvalue\n      dup1\n      iszero\n      tag_191\n      jumpi\n      0x00\n      dup1\n      revert\n    tag_191:\n      pop\n      tag_192\n      tag_193\n      jump\t// in\n    tag_192:\n      mload(0x40)\n      tag_194\n      swap2\n      swap1\n      tag_102\n      jump\t// in\n    tag_194:\n      mload(0x40)\n      dup1\n      swap2\n      sub\n      swap1\n      return\n        /* \"USR.sol\":23282:23599  function setSellLiquidityPercentage(uint256 _liquidityPercent) external onlyOwner {... */\n    tag_30:\n      callvalue\n      dup1\n      iszero\n      tag_195\n      jumpi\n      0x00\n      dup1\n      revert\n    tag_195:\n      pop\n      tag_196\n      0x04\n      dup1\n      calldatasize\n      sub\n      dup2\n      add\n      swap1\n      tag_197\n      swap2\n      swap1\n      tag_85\n      jump\t// in\n    tag_197:\n      tag_198\n      jump\t// in\n    tag_196:\n      stop\n        /* \"USR.sol\":14033:14063  bool public swapEnabled = true */\n    tag_31:\n      callvalue\n      dup1\n      iszero\n      tag_199\n      jumpi\n      0x00\n      dup1\n      revert\n    tag_199:\n      pop\n      tag_200\n      tag_201\n      jump\t// in\n    tag_200:\n      mload(0x40)\n      tag_202\n      swap2\n      swap1\n      tag_93\n      jump\t// in\n    tag_202:\n      mload(0x40)\n      dup1\n      swap2\n      sub\n      swap1\n      return\n        /* \"USR.sol\":16718:16853  function balanceOf(... */\n    tag_32:\n      callvalue\n      dup1\n      iszero\n      tag_203\n      jumpi\n      0x00\n      dup1\n      revert\n    tag_203:\n      pop\n      tag_204\n      0x04\n      dup1\n      calldatasize\n      sub\n      dup2\n      add\n      swap1\n      tag_205\n      swap2\n      swap1\n      tag_142\n      jump\t// in\n    tag_205:\n      tag_206\n      jump\t// in\n    tag_204:\n      mload(0x40)\n      tag_207\n      swap2\n      swap1\n      tag_102\n      jump\t// in\n    tag_207:\n      mload(0x40)\n      dup1\n      swap2\n      sub\n      swap1\n      return\n        /* \"USR.sol\":5745:5848  function renounceOwnership() public virtual onlyOwner {... */\n    tag_33:\n      callvalue\n      dup1\n      iszero\n      tag_208\n      jumpi\n      0x00\n      dup1\n      revert\n    tag_208:\n      pop\n      tag_209\n      tag_210\n      jump\t// in\n    tag_209:\n      stop\n        /* \"USR.sol\":12622:12672  mapping(address => bool) public _isExcludedFromFee */\n    tag_34:\n      callvalue\n      dup1\n      iszero\n      tag_211\n      jumpi\n      0x00\n      dup1\n      revert\n    tag_211:\n      pop\n      tag_212\n      0x04\n      dup1\n      calldatasize\n      sub\n      dup2\n      add\n      swap1\n      tag_213\n      swap2\n      swap1\n      tag_142\n      jump\t// in\n    tag_213:\n      tag_214\n      jump\t// in\n    tag_212:\n      mload(0x40)\n      tag_215\n      swap2\n      swap1\n      tag_93\n      jump\t// in\n    tag_215:\n      mload(0x40)\n      dup1\n      swap2\n      sub\n      swap1\n      return\n        /* \"USR.sol\":12685:12707  bool public trade_open */\n    tag_35:\n      callvalue\n      dup1\n      iszero\n      tag_216\n      jumpi\n      0x00\n      dup1\n      revert\n    tag_216:\n      pop\n      tag_217\n      tag_218\n      jump\t// in\n    tag_217:\n      mload(0x40)\n      tag_219\n      swap2\n      swap1\n      tag_93\n      jump\t// in\n    tag_219:\n      mload(0x40)\n      dup1\n      swap2\n      sub\n      swap1\n      return\n        /* \"USR.sol\":13879:13910  uint256 public _totalTaxPercent */\n    tag_36:\n      callvalue\n      dup1\n      iszero\n      tag_220\n      jumpi\n      0x00\n      dup1\n      revert\n    tag_220:\n      pop\n      tag_221\n      tag_222\n      jump\t// in\n    tag_221:\n      mload(0x40)\n      tag_223\n      swap2\n      swap1\n      tag_102\n      jump\t// in\n    tag_223:\n      mload(0x40)\n      dup1\n      swap2\n      sub\n      swap1\n      return\n        /* \"USR.sol\":22672:22929  function setBuyBurnPercentage(uint256 _burnPercent) external onlyOwner {... */\n    tag_37:\n      callvalue\n      dup1\n      iszero\n      tag_224\n      jumpi\n      0x00\n      dup1\n      revert\n    tag_224:\n      pop\n      tag_225\n      0x04\n      dup1\n      calldatasize\n      sub\n      dup2\n      add\n      swap1\n      tag_226\n      swap2\n      swap1\n      tag_85\n      jump\t// in\n    tag_226:\n      tag_227\n      jump\t// in\n    tag_225:\n      stop\n        /* \"USR.sol\":13161:13208  uint256 public _sellLiquidityTaxPercentage = 30 */\n    tag_38:\n      callvalue\n      dup1\n      iszero\n      tag_228\n      jumpi\n      0x00\n      dup1\n      revert\n    tag_228:\n      pop\n      tag_229\n      tag_230\n      jump\t// in\n    tag_229:\n      mload(0x40)\n      tag_231\n      swap2\n      swap1\n      tag_102\n      jump\t// in\n    tag_231:\n      mload(0x40)\n      dup1\n      swap2\n      sub\n      swap1\n      return\n        /* \"USR.sol\":5095:5182  function owner() public view virtual returns (address) {... */\n    tag_39:\n      callvalue\n      dup1\n      iszero\n      tag_232\n      jumpi\n      0x00\n      dup1\n      revert\n    tag_232:\n      pop\n      tag_233\n      tag_234\n      jump\t// in\n    tag_233:\n      mload(0x40)\n      tag_235\n      swap2\n      swap1\n      tag_157\n      jump\t// in\n    tag_235:\n      mload(0x40)\n      dup1\n      swap2\n      sub\n      swap1\n      return\n        /* \"USR.sol\":16403:16499  function symbol() public view virtual  returns (string memory) {... */\n    tag_40:\n      callvalue\n      dup1\n      iszero\n      tag_236\n      jumpi\n      0x00\n      dup1\n      revert\n    tag_236:\n      pop\n      tag_237\n      tag_238\n      jump\t// in\n    tag_237:\n      mload(0x40)\n      tag_239\n      swap2\n      swap1\n      tag_81\n      jump\t// in\n    tag_239:\n      mload(0x40)\n      dup1\n      swap2\n      sub\n      swap1\n      return\n        /* \"USR.sol\":20165:20466  function setAutomatedMarketMakerPair(address pair, bool value)... */\n    tag_41:\n      callvalue\n      dup1\n      iszero\n      tag_240\n      jumpi\n      0x00\n      dup1\n      revert\n    tag_240:\n      pop\n      tag_241\n      0x04\n      dup1\n      calldatasize\n      sub\n      dup2\n      add\n      swap1\n      tag_242\n      swap2\n      swap1\n      tag_181\n      jump\t// in\n    tag_242:\n      tag_243\n      jump\t// in\n    tag_241:\n      stop\n        /* \"USR.sol\":16865:17073  function transfer(... */\n    tag_42:\n      callvalue\n      dup1\n      iszero\n      tag_244\n      jumpi\n      0x00\n      dup1\n      revert\n    tag_244:\n      pop\n      tag_245\n      0x04\n      dup1\n      calldatasize\n      sub\n      dup2\n      add\n      swap1\n      tag_246\n      swap2\n      swap1\n      tag_90\n      jump\t// in\n    tag_246:\n      tag_247\n      jump\t// in\n    tag_245:\n      mload(0x40)\n      tag_248\n      swap2\n      swap1\n      tag_93\n      jump\t// in\n    tag_248:\n      mload(0x40)\n      dup1\n      swap2\n      sub\n      swap1\n      return\n        /* \"USR.sol\":21032:21224  function setUserFoundationWallet(address wallet) external onlyOwner {... */\n    tag_43:\n      callvalue\n      dup1\n      iszero\n      tag_249\n      jumpi\n      0x00\n      dup1\n      revert\n    tag_249:\n      pop\n      tag_250\n      0x04\n      dup1\n      calldatasize\n      sub\n      dup2\n      add\n      swap1\n      tag_251\n      swap2\n      swap1\n      tag_142\n      jump\t// in\n    tag_251:\n      tag_252\n      jump\t// in\n    tag_250:\n      stop\n        /* \"USR.sol\":12558:12615  mapping(address => bool) public automatedMarketMakerPairs */\n    tag_44:\n      callvalue\n      dup1\n      iszero\n      tag_253\n      jumpi\n      0x00\n      dup1\n      revert\n    tag_253:\n      pop\n      tag_254\n      0x04\n      dup1\n      calldatasize\n      sub\n      dup2\n      add\n      swap1\n      tag_255\n      swap2\n      swap1\n      tag_142\n      jump\t// in\n    tag_255:\n      tag_256\n      jump\t// in\n    tag_254:\n      mload(0x40)\n      tag_257\n      swap2\n      swap1\n      tag_93\n      jump\t// in\n    tag_257:\n      mload(0x40)\n      dup1\n      swap2\n      sub\n      swap1\n      return\n        /* \"USR.sol\":13233:13274  uint256 public _sellBurnTaxPercentage = 5 */\n    tag_45:\n      callvalue\n      dup1\n      iszero\n      tag_258\n      jumpi\n      0x00\n      dup1\n      revert\n    tag_258:\n      pop\n      tag_259\n      tag_260\n      jump\t// in\n    tag_259:\n      mload(0x40)\n      tag_261\n      swap2\n      swap1\n      tag_102\n      jump\t// in\n    tag_261:\n      mload(0x40)\n      dup1\n      swap2\n      sub\n      swap1\n      return\n        /* \"USR.sol\":12755:12795  uint256 public numBlocksForBlacklist = 5 */\n    tag_46:\n      callvalue\n      dup1\n      iszero\n      tag_262\n      jumpi\n      0x00\n      dup1\n      revert\n    tag_262:\n      pop\n      tag_263\n      tag_264\n      jump\t// in\n    tag_263:\n      mload(0x40)\n      tag_265\n      swap2\n      swap1\n      tag_102\n      jump\t// in\n    tag_265:\n      mload(0x40)\n      dup1\n      swap2\n      sub\n      swap1\n      return\n        /* \"USR.sol\":13637:13672  uint256 public _sellUFShare = 11764 */\n    tag_47:\n      callvalue\n      dup1\n      iszero\n      tag_266\n      jumpi\n      0x00\n      dup1\n      revert\n    tag_266:\n      pop\n      tag_267\n      tag_268\n      jump\t// in\n    tag_267:\n      mload(0x40)\n      tag_269\n      swap2\n      swap1\n      tag_102\n      jump\t// in\n    tag_269:\n      mload(0x40)\n      dup1\n      swap2\n      sub\n      swap1\n      return\n        /* \"USR.sol\":24932:25055  function recoverETHfromContract() external onlyOwner {... */\n    tag_48:\n      callvalue\n      dup1\n      iszero\n      tag_270\n      jumpi\n      0x00\n      dup1\n      revert\n    tag_270:\n      pop\n      tag_271\n      tag_272\n      jump\t// in\n    tag_271:\n      stop\n        /* \"USR.sol\":12805:12834  address public userFoundation */\n    tag_49:\n      callvalue\n      dup1\n      iszero\n      tag_273\n      jumpi\n      0x00\n      dup1\n      revert\n    tag_273:\n      pop\n      tag_274\n      tag_275\n      jump\t// in\n    tag_274:\n      mload(0x40)\n      tag_276\n      swap2\n      swap1\n      tag_157\n      jump\t// in\n    tag_276:\n      mload(0x40)\n      dup1\n      swap2\n      sub\n      swap1\n      return\n        /* \"USR.sol\":22937:23274  function setSellUserFoundationPercentage(uint256 _userFoundationPercent) external onlyOwner {... */\n    tag_50:\n      callvalue\n      dup1\n      iszero\n      tag_277\n      jumpi\n      0x00\n      dup1\n      revert\n    tag_277:\n      pop\n      tag_278\n      0x04\n      dup1\n      calldatasize\n      sub\n      dup2\n      add\n      swap1\n      tag_279\n      swap2\n      swap1\n      tag_85\n      jump\t// in\n    tag_279:\n      tag_280\n      jump\t// in\n    tag_278:\n      stop\n        /* \"USR.sol\":12505:12548  mapping(address => bool) public blacklisted */\n    tag_51:\n      callvalue\n      dup1\n      iszero\n      tag_281\n      jumpi\n      0x00\n      dup1\n      revert\n    tag_281:\n      pop\n      tag_282\n      0x04\n      dup1\n      calldatasize\n      sub\n      dup2\n      add\n      swap1\n      tag_283\n      swap2\n      swap1\n      tag_142\n      jump\t// in\n    tag_283:\n      tag_284\n      jump\t// in\n    tag_282:\n      mload(0x40)\n      tag_285\n      swap2\n      swap1\n      tag_93\n      jump\t// in\n    tag_285:\n      mload(0x40)\n      dup1\n      swap2\n      sub\n      swap1\n      return\n        /* \"USR.sol\":17376:17544  function allowance(... */\n    tag_52:\n      callvalue\n      dup1\n      iszero\n      tag_286\n      jumpi\n      0x00\n      dup1\n      revert\n    tag_286:\n      pop\n      tag_287\n      0x04\n      dup1\n      calldatasize\n      sub\n      dup2\n      add\n      swap1\n      tag_288\n      swap2\n      swap1\n      tag_289\n      jump\t// in\n    tag_288:\n      tag_290\n      jump\t// in\n    tag_287:\n      mload(0x40)\n      tag_291\n      swap2\n      swap1\n      tag_102\n      jump\t// in\n    tag_291:\n      mload(0x40)\n      dup1\n      swap2\n      sub\n      swap1\n      return\n        /* \"USR.sol\":23876:24185  function setTransferLiquidityPercentage(uint256 _liquidityPercent) external onlyOwner {... */\n    tag_53:\n      callvalue\n      dup1\n      iszero\n      tag_292\n      jumpi\n      0x00\n      dup1\n      revert\n    tag_292:\n      pop\n      tag_293\n      0x04\n      dup1\n      calldatasize\n      sub\n      dup2\n      add\n      swap1\n      tag_294\n      swap2\n      swap1\n      tag_85\n      jump\t// in\n    tag_294:\n      tag_295\n      jump\t// in\n    tag_293:\n      stop\n        /* \"USR.sol\":6004:6242  function transferOwnership(address newOwner) public virtual onlyOwner {... */\n    tag_54:\n      callvalue\n      dup1\n      iszero\n      tag_296\n      jumpi\n      0x00\n      dup1\n      revert\n    tag_296:\n      pop\n      tag_297\n      0x04\n      dup1\n      calldatasize\n      sub\n      dup2\n      add\n      swap1\n      tag_298\n      swap2\n      swap1\n      tag_142\n      jump\t// in\n    tag_298:\n      tag_299\n      jump\t// in\n    tag_297:\n      stop\n        /* \"USR.sol\":20844:20921  function pauseTrade() public onlyOwner {... */\n    tag_55:\n      callvalue\n      dup1\n      iszero\n      tag_300\n      jumpi\n      0x00\n      dup1\n      revert\n    tag_300:\n      pop\n      tag_301\n      tag_302\n      jump\t// in\n    tag_301:\n      stop\n        /* \"USR.sol\":13307:13358  uint256 public _transferLiquidityTaxPercentage = 25 */\n    tag_56:\n      callvalue\n      dup1\n      iszero\n      tag_303\n      jumpi\n      0x00\n      dup1\n      revert\n    tag_303:\n      pop\n      tag_304\n      tag_305\n      jump\t// in\n    tag_304:\n      mload(0x40)\n      tag_306\n      swap2\n      swap1\n      tag_102\n      jump\t// in\n    tag_306:\n      mload(0x40)\n      dup1\n      swap2\n      sub\n      swap1\n      return\n        /* \"USR.sol\":20758:20835  function enableTrade() public onlyOwner {... */\n    tag_76:\n        /* \"USR.sol\":4980:4993  _checkOwner() */\n      tag_308\n        /* \"USR.sol\":4980:4991  _checkOwner */\n      tag_309\n        /* \"USR.sol\":4980:4993  _checkOwner() */\n      jump\t// in\n    tag_308:\n        /* \"USR.sol\":20822:20826  true */\n      0x01\n        /* \"USR.sol\":20809:20819  trade_open */\n      0x08\n      0x00\n        /* \"USR.sol\":20809:20826  trade_open = true */\n      0x0100\n      exp\n      dup2\n      sload\n      dup2\n      0xff\n      mul\n      not\n      and\n      swap1\n      dup4\n      iszero\n      iszero\n      mul\n      or\n      swap1\n      sstore\n      pop\n        /* \"USR.sol\":20758:20835  function enableTrade() public onlyOwner {... */\n      jump\t// out\n        /* \"USR.sol\":16302:16394  function name() public view virtual  returns (string memory) {... */\n    tag_79:\n        /* \"USR.sol\":16348:16361  string memory */\n      0x60\n        /* \"USR.sol\":16381:16386  _name */\n      mload(0x40)\n      dup1\n      0x40\n      add\n      0x40\n      mstore\n      dup1\n      0x03\n      dup2\n      mstore\n      0x20\n      add\n      0x5553520000000000000000000000000000000000000000000000000000000000\n      dup2\n      mstore\n      pop\n        /* \"USR.sol\":16374:16386  return _name */\n      swap1\n      pop\n        /* \"USR.sol\":16302:16394  function name() public view virtual  returns (string memory) {... */\n      swap1\n      jump\t// out\n        /* \"USR.sol\":24717:24920  function setTaxThreshold(uint256 threshold) external onlyOwner {... */\n    tag_86:\n        /* \"USR.sol\":4980:4993  _checkOwner() */\n      tag_313\n        /* \"USR.sol\":4980:4991  _checkOwner */\n      tag_309\n        /* \"USR.sol\":4980:4993  _checkOwner() */\n      jump\t// in\n    tag_313:\n        /* \"USR.sol\":24812:24825  totalSupply() */\n      tag_315\n        /* \"USR.sol\":24812:24823  totalSupply */\n      tag_114\n        /* \"USR.sol\":24812:24825  totalSupply() */\n      jump\t// in\n    tag_315:\n        /* \"USR.sol\":24799:24808  threshold */\n      dup2\n        /* \"USR.sol\":24799:24825  threshold <= totalSupply() */\n      gt\n      iszero\n        /* \"USR.sol\":24791:24876  require(threshold <= totalSupply(), \"Tax threshold cannot be more than total supply\") */\n      tag_316\n      jumpi\n      mload(0x40)\n      0x08c379a000000000000000000000000000000000000000000000000000000000\n      dup2\n      mstore\n      0x04\n      add\n      tag_317\n      swap1\n      tag_318\n      jump\t// in\n    tag_317:\n      mload(0x40)\n      dup1\n      swap2\n      sub\n      swap1\n      revert\n    tag_316:\n        /* \"USR.sol\":24903:24912  threshold */\n      dup1\n        /* \"USR.sol\":24887:24900  _taxThreshold */\n      0x02\n        /* \"USR.sol\":24887:24912  _taxThreshold = threshold */\n      dup2\n      swap1\n      sstore\n      pop\n        /* \"USR.sol\":24717:24920  function setTaxThreshold(uint256 threshold) external onlyOwner {... */\n      pop\n      jump\t// out\n        /* \"USR.sol\":17556:17707  function approve(address spender, uint256 amount) public  returns (bool) {... */\n    tag_91:\n        /* \"USR.sol\":17623:17627  bool */\n      0x00\n        /* \"USR.sol\":17640:17677  _approve(msg.sender, spender, amount) */\n      tag_320\n        /* \"USR.sol\":17649:17659  msg.sender */\n      caller\n        /* \"USR.sol\":17661:17668  spender */\n      dup5\n        /* \"USR.sol\":17670:17676  amount */\n      dup5\n        /* \"USR.sol\":17640:17648  _approve */\n      tag_321\n        /* \"USR.sol\":17640:17677  _approve(msg.sender, spender, amount) */\n      jump\t// in\n    tag_320:\n        /* \"USR.sol\":17695:17699  true */\n      0x01\n        /* \"USR.sol\":17688:17699  return true */\n      swap1\n      pop\n        /* \"USR.sol\":17556:17707  function approve(address spender, uint256 amount) public  returns (bool) {... */\n      swap3\n      swap2\n      pop\n      pop\n      jump\t// out\n        /* \"USR.sol\":22013:22344  function setBuyUserFoundationPercentage(uint256 _userFoundationPercent) external onlyOwner {... */\n    tag_97:\n        /* \"USR.sol\":4980:4993  _checkOwner() */\n      tag_323\n        /* \"USR.sol\":4980:4991  _checkOwner */\n      tag_309\n        /* \"USR.sol\":4980:4993  _checkOwner() */\n      jump\t// in\n    tag_323:\n        /* \"USR.sol\":22202:22206  5000 */\n      0x1388\n        /* \"USR.sol\":22177:22198  _buyBurnTaxPercentage */\n      sload(0x0e)\n        /* \"USR.sol\":22148:22174  _buyLiquidityTaxPercentage */\n      sload(0x0d)\n        /* \"USR.sol\":22123:22145  _userFoundationPercent */\n      dup4\n        /* \"USR.sol\":22123:22174  _userFoundationPercent + _buyLiquidityTaxPercentage */\n      tag_325\n      swap2\n      swap1\n      tag_326\n      jump\t// in\n    tag_325:\n        /* \"USR.sol\":22123:22198  _userFoundationPercent + _buyLiquidityTaxPercentage + _buyBurnTaxPercentage */\n      tag_327\n      swap2\n      swap1\n      tag_326\n      jump\t// in\n    tag_327:\n        /* \"USR.sol\":22123:22206  _userFoundationPercent + _buyLiquidityTaxPercentage + _buyBurnTaxPercentage <= 5000 */\n      gt\n      iszero\n        /* \"USR.sol\":22115:22246  require(_userFoundationPercent + _buyLiquidityTaxPercentage + _buyBurnTaxPercentage <= 5000, \"Buy Tax percentage cannot exceed 5%\") */\n      tag_328\n      jumpi\n      mload(0x40)\n      0x08c379a000000000000000000000000000000000000000000000000000000000\n      dup2\n      mstore\n      0x04\n      add\n      tag_329\n      swap1\n      tag_330\n      jump\t// in\n    tag_329:\n      mload(0x40)\n      dup1\n      swap2\n      sub\n      swap1\n      revert\n    tag_328:\n        /* \"USR.sol\":22279:22301  _userFoundationPercent */\n      dup1\n        /* \"USR.sol\":22257:22276  _buyUFTaxPercentage */\n      0x0c\n        /* \"USR.sol\":22257:22301  _buyUFTaxPercentage = _userFoundationPercent */\n      dup2\n      swap1\n      sstore\n      pop\n        /* \"USR.sol\":22315:22329  updateShares() */\n      tag_331\n        /* \"USR.sol\":22315:22327  updateShares */\n      tag_332\n        /* \"USR.sol\":22315:22329  updateShares() */\n      jump\t// in\n    tag_331:\n        /* \"USR.sol\":22013:22344  function setBuyUserFoundationPercentage(uint256 _userFoundationPercent) external onlyOwner {... */\n      pop\n      jump\t// out\n        /* \"USR.sol\":13015:13055  uint256 public _buyBurnTaxPercentage = 5 */\n    tag_100:\n      sload(0x0e)\n      dup2\n      jump\t// out\n        /* \"USR.sol\":13089:13129  uint256 public _sellUFTaxPercentage = 10 */\n    tag_105:\n      sload(0x0f)\n      dup2\n      jump\t// out\n        /* \"USR.sol\":13920:13961  IUniswapV2Router02 public uniswapV2Router */\n    tag_109:\n      0x1a\n      0x00\n      swap1\n      sload\n      swap1\n      0x0100\n      exp\n      swap1\n      div\n      0xffffffffffffffffffffffffffffffffffffffff\n      and\n      dup2\n      jump\t// out\n        /* \"USR.sol\":16609:16709  function totalSupply() public view virtual  returns (uint256) {... */\n    tag_114:\n        /* \"USR.sol\":16662:16669  uint256 */\n      0x00\n        /* \"USR.sol\":16689:16701  _totalSupply */\n      sload(0x01)\n        /* \"USR.sol\":16682:16701  return _totalSupply */\n      swap1\n      pop\n        /* \"USR.sol\":16609:16709  function totalSupply() public view virtual  returns (uint256) {... */\n      swap1\n      jump\t// out\n        /* \"USR.sol\":24193:24447  function setTransferBurnPercentage(uint256 _burnPercent) external onlyOwner {... */\n    tag_119:\n        /* \"USR.sol\":4980:4993  _checkOwner() */\n      tag_335\n        /* \"USR.sol\":4980:4991  _checkOwner */\n      tag_309\n        /* \"USR.sol\":4980:4993  _checkOwner() */\n      jump\t// in\n    tag_335:\n        /* \"USR.sol\":24338:24342  3000 */\n      0x0bb8\n        /* \"USR.sol\":24303:24334  _transferLiquidityTaxPercentage */\n      sload(0x12)\n        /* \"USR.sol\":24288:24300  _burnPercent */\n      dup3\n        /* \"USR.sol\":24288:24334  _burnPercent + _transferLiquidityTaxPercentage */\n      tag_337\n      swap2\n      swap1\n      tag_326\n      jump\t// in\n    tag_337:\n        /* \"USR.sol\":24288:24342  _burnPercent + _transferLiquidityTaxPercentage <= 3000 */\n      gt\n      iszero\n        /* \"USR.sol\":24280:24387  require(_burnPercent + _transferLiquidityTaxPercentage <= 3000, \"Transfer Tax percentage cannot exceed 3%\") */\n      tag_338\n      jumpi\n      mload(0x40)\n      0x08c379a000000000000000000000000000000000000000000000000000000000\n      dup2\n      mstore\n      0x04\n      add\n      tag_339\n      swap1\n      tag_340\n      jump\t// in\n    tag_339:\n      mload(0x40)\n      dup1\n      swap2\n      sub\n      swap1\n      revert\n    tag_338:\n        /* \"USR.sol\":24427:24439  _burnPercent */\n      dup1\n        /* \"USR.sol\":24398:24424  _transferBurnTaxPercentage */\n      0x13\n        /* \"USR.sol\":24398:24439  _transferBurnTaxPercentage = _burnPercent */\n      dup2\n      swap1\n      sstore\n      pop\n        /* \"USR.sol\":24193:24447  function setTransferBurnPercentage(uint256 _burnPercent) external onlyOwner {... */\n      pop\n      jump\t// out\n        /* \"USR.sol\":17082:17367  function transferFrom(... */\n    tag_124:\n        /* \"USR.sol\":17205:17209  bool */\n      0x00\n        /* \"USR.sol\":17222:17237  address spender */\n      dup1\n        /* \"USR.sol\":17240:17250  msg.sender */\n      caller\n        /* \"USR.sol\":17222:17250  address spender = msg.sender */\n      swap1\n      pop\n        /* \"USR.sol\":17261:17299  _spendAllowance(from, spender, amount) */\n      tag_342\n        /* \"USR.sol\":17277:17281  from */\n      dup6\n        /* \"USR.sol\":17283:17290  spender */\n      dup3\n        /* \"USR.sol\":17292:17298  amount */\n      dup6\n        /* \"USR.sol\":17261:17276  _spendAllowance */\n      tag_343\n        /* \"USR.sol\":17261:17299  _spendAllowance(from, spender, amount) */\n      jump\t// in\n    tag_342:\n        /* \"USR.sol\":17310:17337  _transfer(from, to, amount) */\n      tag_344\n        /* \"USR.sol\":17320:17324  from */\n      dup6\n        /* \"USR.sol\":17326:17328  to */\n      dup6\n        /* \"USR.sol\":17330:17336  amount */\n      dup6\n        /* \"USR.sol\":17310:17319  _transfer */\n      tag_345\n        /* \"USR.sol\":17310:17337  _transfer(from, to, amount) */\n      jump\t// in\n    tag_344:\n        /* \"USR.sol\":17355:17359  true */\n      0x01\n        /* \"USR.sol\":17348:17359  return true */\n      swap2\n      pop\n      pop\n        /* \"USR.sol\":17082:17367  function transferFrom(... */\n      swap4\n      swap3\n      pop\n      pop\n      pop\n      jump\t// out\n        /* \"USR.sol\":22352:22664  function setBuyLiquidityPercentage(uint256 _liquidityPercent) external onlyOwner {... */\n    tag_129:\n        /* \"USR.sol\":4980:4993  _checkOwner() */\n      tag_347\n        /* \"USR.sol\":4980:4991  _checkOwner */\n      tag_309\n        /* \"USR.sol\":4980:4993  _checkOwner() */\n      jump\t// in\n    tag_347:\n        /* \"USR.sol\":22519:22523  5000 */\n      0x1388\n        /* \"USR.sol\":22494:22515  _buyBurnTaxPercentage */\n      sload(0x0e)\n        /* \"USR.sol\":22472:22491  _buyUFTaxPercentage */\n      sload(0x0c)\n        /* \"USR.sol\":22452:22469  _liquidityPercent */\n      dup4\n        /* \"USR.sol\":22452:22491  _liquidityPercent + _buyUFTaxPercentage */\n      tag_349\n      swap2\n      swap1\n      tag_326\n      jump\t// in\n    tag_349:\n        /* \"USR.sol\":22452:22515  _liquidityPercent + _buyUFTaxPercentage + _buyBurnTaxPercentage */\n      tag_350\n      swap2\n      swap1\n      tag_326\n      jump\t// in\n    tag_350:\n        /* \"USR.sol\":22452:22523  _liquidityPercent + _buyUFTaxPercentage + _buyBurnTaxPercentage <= 5000 */\n      gt\n      iszero\n        /* \"USR.sol\":22444:22564  require(_liquidityPercent + _buyUFTaxPercentage + _buyBurnTaxPercentage <= 5000, \" Buy Tax percentage cannot exceed 5%\") */\n      tag_351\n      jumpi\n      mload(0x40)\n      0x08c379a000000000000000000000000000000000000000000000000000000000\n      dup2\n      mstore\n      0x04\n      add\n      tag_352\n      swap1\n      tag_353\n      jump\t// in\n    tag_352:\n      mload(0x40)\n      dup1\n      swap2\n      sub\n      swap1\n      revert\n    tag_351:\n        /* \"USR.sol\":22604:22621  _liquidityPercent */\n      dup1\n        /* \"USR.sol\":22575:22601  _buyLiquidityTaxPercentage */\n      0x0d\n        /* \"USR.sol\":22575:22621  _buyLiquidityTaxPercentage = _liquidityPercent */\n      dup2\n      swap1\n      sstore\n      pop\n        /* \"USR.sol\":22635:22649  updateShares() */\n      tag_354\n        /* \"USR.sol\":22635:22647  updateShares */\n      tag_332\n        /* \"USR.sol\":22635:22649  updateShares() */\n      jump\t// in\n    tag_354:\n        /* \"USR.sol\":22352:22664  function setBuyLiquidityPercentage(uint256 _liquidityPercent) external onlyOwner {... */\n      pop\n      jump\t// out\n        /* \"USR.sol\":16508:16600  function decimals() public view virtual  returns (uint8) {... */\n    tag_132:\n        /* \"USR.sol\":16558:16563  uint8 */\n      0x00\n        /* \"USR.sol\":12176:12178  18 */\n      0x12\n        /* \"USR.sol\":16576:16592  return _decimals */\n      swap1\n      pop\n        /* \"USR.sol\":16508:16600  function decimals() public view virtual  returns (uint8) {... */\n      swap1\n      jump\t// out\n        /* \"USR.sol\":13477:13511  uint256 public _buyUFShare = 11764 */\n    tag_137:\n      sload(0x14)\n      dup2\n      jump\t// out\n        /* \"USR.sol\":24459:24705  function addToBlacklist(address account) public onlyOwner{... */\n    tag_143:\n        /* \"USR.sol\":4980:4993  _checkOwner() */\n      tag_357\n        /* \"USR.sol\":4980:4991  _checkOwner */\n      tag_309\n        /* \"USR.sol\":4980:4993  _checkOwner() */\n      jump\t// in\n    tag_357:\n        /* \"USR.sol\":24536:24547  blacklisted */\n      0x05\n        /* \"USR.sol\":24536:24556  blacklisted[account] */\n      0x00\n        /* \"USR.sol\":24548:24555  account */\n      dup3\n        /* \"USR.sol\":24536:24556  blacklisted[account] */\n      0xffffffffffffffffffffffffffffffffffffffff\n      and\n      0xffffffffffffffffffffffffffffffffffffffff\n      and\n      dup2\n      mstore\n      0x20\n      add\n      swap1\n      dup2\n      mstore\n      0x20\n      add\n      0x00\n      keccak256\n      0x00\n      swap1\n      sload\n      swap1\n      0x0100\n      exp\n      swap1\n      div\n      0xff\n      and\n        /* \"USR.sol\":24535:24556  !blacklisted[account] */\n      iszero\n        /* \"USR.sol\":24527:24591  require(!blacklisted[account], \"Account is already blacklisted\") */\n      tag_359\n      jumpi\n      mload(0x40)\n      0x08c379a000000000000000000000000000000000000000000000000000000000\n      dup2\n      mstore\n      0x04\n      add\n      tag_360\n      swap1\n      tag_361\n      jump\t// in\n    tag_360:\n      mload(0x40)\n      dup1\n      swap2\n      sub\n      swap1\n      revert\n    tag_359:\n        /* \"USR.sol\":24626:24633  account */\n      dup1\n        /* \"USR.sol\":24610:24633  _msgSender() != account */\n      0xffffffffffffffffffffffffffffffffffffffff\n      and\n        /* \"USR.sol\":24610:24622  _msgSender() */\n      tag_362\n        /* \"USR.sol\":24610:24620  _msgSender */\n      tag_363\n        /* \"USR.sol\":24610:24622  _msgSender() */\n      jump\t// in\n    tag_362:\n        /* \"USR.sol\":24610:24633  _msgSender() != account */\n      0xffffffffffffffffffffffffffffffffffffffff\n      and\n      sub\n        /* \"USR.sol\":24602:24659  require(_msgSender() != account, \"Cannot blacklist self\") */\n      tag_364\n      jumpi\n      mload(0x40)\n      0x08c379a000000000000000000000000000000000000000000000000000000000\n      dup2\n      mstore\n      0x04\n      add\n      tag_365\n      swap1\n      tag_366\n      jump\t// in\n    tag_365:\n      mload(0x40)\n      dup1\n      swap2\n      sub\n      swap1\n      revert\n    tag_364:\n        /* \"USR.sol\":24693:24697  true */\n      0x01\n        /* \"USR.sol\":24670:24681  blacklisted */\n      0x05\n        /* \"USR.sol\":24670:24690  blacklisted[account] */\n      0x00\n        /* \"USR.sol\":24682:24689  account */\n      dup4\n        /* \"USR.sol\":24670:24690  blacklisted[account] */\n      0xffffffffffffffffffffffffffffffffffffffff\n      and\n      0xffffffffffffffffffffffffffffffffffffffff\n      and\n      dup2\n      mstore\n      0x20\n      add\n      swap1\n      dup2\n      mstore\n      0x20\n      add\n      0x00\n      keccak256\n      0x00\n        /* \"USR.sol\":24670:24697  blacklisted[account] = true */\n      0x0100\n      exp\n      dup2\n      sload\n      dup2\n      0xff\n      mul\n      not\n      and\n      swap1\n      dup4\n      iszero\n      iszero\n      mul\n      or\n      swap1\n      sstore\n      pop\n        /* \"USR.sol\":24459:24705  function addToBlacklist(address account) public onlyOwner{... */\n      pop\n      jump\t// out\n        /* \"USR.sol\":20929:21023  function disableBurn(bool _status) public onlyOwner {... */\n    tag_148:\n        /* \"USR.sol\":4980:4993  _checkOwner() */\n      tag_368\n        /* \"USR.sol\":4980:4991  _checkOwner */\n      tag_309\n        /* \"USR.sol\":4980:4993  _checkOwner() */\n      jump\t// in\n    tag_368:\n        /* \"USR.sol\":21007:21014  _status */\n      dup1\n        /* \"USR.sol\":20992:21004  burn_disable */\n      0x1b\n      0x16\n        /* \"USR.sol\":20992:21014  burn_disable = _status */\n      0x0100\n      exp\n      dup2\n      sload\n      dup2\n      0xff\n      mul\n      not\n      and\n      swap1\n      dup4\n      iszero\n      iszero\n      mul\n      or\n      swap1\n      sstore\n      pop\n        /* \"USR.sol\":20929:21023  function disableBurn(bool _status) public onlyOwner {... */\n      pop\n      jump\t// out\n        /* \"USR.sol\":12943:12989  uint256 public _buyLiquidityTaxPercentage = 10 */\n    tag_151:\n      sload(0x0d)\n      dup2\n      jump\t// out\n        /* \"USR.sol\":13968:13995  address public _uniswapPair */\n    tag_155:\n      0x1b\n      0x00\n      swap1\n      sload\n      swap1\n      0x0100\n      exp\n      swap1\n      div\n      0xffffffffffffffffffffffffffffffffffffffff\n      and\n      dup2\n      jump\t// out\n        /* \"USR.sol\":13380:13425  uint256 public _transferBurnTaxPercentage = 5 */\n    tag_160:\n      sload(0x13)\n      dup2\n      jump\t// out\n        /* \"USR.sol\":13797:13843  uint256 public _transferLiquidityShare = 29411 */\n    tag_164:\n      sload(0x18)\n      dup2\n      jump\t// out\n        /* \"USR.sol\":13716:13758  uint256 public _sellLiquidityShare = 35294 */\n    tag_168:\n      sload(0x17)\n      dup2\n      jump\t// out\n        /* \"USR.sol\":23607:23868  function setSellBurnPercentage(uint256 _burnPercent) external onlyOwner {... */\n    tag_173:\n        /* \"USR.sol\":4980:4993  _checkOwner() */\n      tag_371\n        /* \"USR.sol\":4980:4991  _checkOwner */\n      tag_309\n        /* \"USR.sol\":4980:4993  _checkOwner() */\n      jump\t// in\n    tag_371:\n        /* \"USR.sol\":23767:23771  5000 */\n      0x1388\n        /* \"USR.sol\":23736:23763  _sellLiquidityTaxPercentage */\n      sload(0x10)\n        /* \"USR.sol\":23713:23733  _sellUFTaxPercentage */\n      sload(0x0f)\n        /* \"USR.sol\":23698:23710  _burnPercent */\n      dup4\n        /* \"USR.sol\":23698:23733  _burnPercent + _sellUFTaxPercentage */\n      tag_373\n      swap2\n      swap1\n      tag_326\n      jump\t// in\n    tag_373:\n        /* \"USR.sol\":23698:23763  _burnPercent + _sellUFTaxPercentage + _sellLiquidityTaxPercentage */\n      tag_374\n      swap2\n      swap1\n      tag_326\n      jump\t// in\n    tag_374:\n        /* \"USR.sol\":23698:23771  _burnPercent + _sellUFTaxPercentage + _sellLiquidityTaxPercentage <= 5000 */\n      gt\n      iszero\n        /* \"USR.sol\":23690:23812  require(_burnPercent + _sellUFTaxPercentage + _sellLiquidityTaxPercentage <= 5000, \"Sell Tax percentage cannot exceed 5%\") */\n      tag_375\n      jumpi\n      mload(0x40)\n      0x08c379a000000000000000000000000000000000000000000000000000000000\n      dup2\n      mstore\n      0x04\n      add\n      tag_376\n      swap1\n      tag_377\n      jump\t// in\n    tag_376:\n      mload(0x40)\n      dup1\n      swap2\n      sub\n      swap1\n      revert\n    tag_375:\n        /* \"USR.sol\":23848:23860  _burnPercent */\n      dup1\n        /* \"USR.sol\":23823:23845  _sellBurnTaxPercentage */\n      0x11\n        /* \"USR.sol\":23823:23860  _sellBurnTaxPercentage = _burnPercent */\n      dup2\n      swap1\n      sstore\n      pop\n        /* \"USR.sol\":23607:23868  function setSellBurnPercentage(uint256 _burnPercent) external onlyOwner {... */\n      pop\n      jump\t// out\n        /* \"USR.sol\":13556:13597  uint256 public _buyLiquidityShare = 11764 */\n    tag_176:\n      sload(0x15)\n      dup2\n      jump\t// out\n        /* \"USR.sol\":20613:20749  function setExcludedFromFee(address account, bool excluded) external onlyOwner {... */\n    tag_182:\n        /* \"USR.sol\":4980:4993  _checkOwner() */\n      tag_379\n        /* \"USR.sol\":4980:4991  _checkOwner */\n      tag_309\n        /* \"USR.sol\":4980:4993  _checkOwner() */\n      jump\t// in\n    tag_379:\n        /* \"USR.sol\":20733:20741  excluded */\n      dup1\n        /* \"USR.sol\":20703:20721  _isExcludedFromFee */\n      0x07\n        /* \"USR.sol\":20703:20730  _isExcludedFromFee[account] */\n      0x00\n        /* \"USR.sol\":20722:20729  account */\n      dup5\n        /* \"USR.sol\":20703:20730  _isExcludedFromFee[account] */\n      0xffffffffffffffffffffffffffffffffffffffff\n      and\n      0xffffffffffffffffffffffffffffffffffffffff\n      and\n      dup2\n      mstore\n      0x20\n      add\n      swap1\n      dup2\n      mstore\n      0x20\n      add\n      0x00\n      keccak256\n      0x00\n        /* \"USR.sol\":20703:20741  _isExcludedFromFee[account] = excluded */\n      0x0100\n      exp\n      dup2\n      sload\n      dup2\n      0xff\n      mul\n      not\n      and\n      swap1\n      dup4\n      iszero\n      iszero\n      mul\n      or\n      swap1\n      sstore\n      pop\n        /* \"USR.sol\":20613:20749  function setExcludedFromFee(address account, bool excluded) external onlyOwner {... */\n      pop\n      pop\n      jump\t// out\n        /* \"USR.sol\":14072:14104  bool public burn_disable = false */\n    tag_185:\n      0x1b\n      0x16\n      swap1\n      sload\n      swap1\n      0x0100\n      exp\n      swap1\n      div\n      0xff\n      and\n      dup2\n      jump\t// out\n        /* \"USR.sol\":12263:12322  uint256 public _taxThreshold = 100 * 10**uint256(_decimals) */\n    tag_189:\n      sload(0x02)\n      dup2\n      jump\t// out\n        /* \"USR.sol\":12871:12910  uint256 public _buyUFTaxPercentage = 10 */\n    tag_193:\n      sload(0x0c)\n      dup2\n      jump\t// out\n        /* \"USR.sol\":23282:23599  function setSellLiquidityPercentage(uint256 _liquidityPercent) external onlyOwner {... */\n    tag_198:\n        /* \"USR.sol\":4980:4993  _checkOwner() */\n      tag_382\n        /* \"USR.sol\":4980:4991  _checkOwner */\n      tag_309\n        /* \"USR.sol\":4980:4993  _checkOwner() */\n      jump\t// in\n    tag_382:\n        /* \"USR.sol\":23452:23456  5000 */\n      0x1388\n        /* \"USR.sol\":23426:23448  _sellBurnTaxPercentage */\n      sload(0x11)\n        /* \"USR.sol\":23403:23423  _sellUFTaxPercentage */\n      sload(0x0f)\n        /* \"USR.sol\":23383:23400  _liquidityPercent */\n      dup4\n        /* \"USR.sol\":23383:23423  _liquidityPercent + _sellUFTaxPercentage */\n      tag_384\n      swap2\n      swap1\n      tag_326\n      jump\t// in\n    tag_384:\n        /* \"USR.sol\":23383:23448  _liquidityPercent + _sellUFTaxPercentage + _sellBurnTaxPercentage */\n      tag_385\n      swap2\n      swap1\n      tag_326\n      jump\t// in\n    tag_385:\n        /* \"USR.sol\":23383:23456  _liquidityPercent + _sellUFTaxPercentage + _sellBurnTaxPercentage <= 5000 */\n      gt\n      iszero\n        /* \"USR.sol\":23375:23498  require(_liquidityPercent + _sellUFTaxPercentage + _sellBurnTaxPercentage <= 5000, \" Sell Tax percentage cannot exceed 5%\") */\n      tag_386\n      jumpi\n      mload(0x40)\n      0x08c379a000000000000000000000000000000000000000000000000000000000\n      dup2\n      mstore\n      0x04\n      add\n      tag_387\n      swap1\n      tag_388\n      jump\t// in\n    tag_387:\n      mload(0x40)\n      dup1\n      swap2\n      sub\n      swap1\n      revert\n    tag_386:\n        /* \"USR.sol\":23539:23556  _liquidityPercent */\n      dup1\n        /* \"USR.sol\":23509:23536  _sellLiquidityTaxPercentage */\n      0x10\n        /* \"USR.sol\":23509:23556  _sellLiquidityTaxPercentage = _liquidityPercent */\n      dup2\n      swap1\n      sstore\n      pop\n        /* \"USR.sol\":23570:23584  updateShares() */\n      tag_389\n        /* \"USR.sol\":23570:23582  updateShares */\n      tag_332\n        /* \"USR.sol\":23570:23584  updateShares() */\n      jump\t// in\n    tag_389:\n        /* \"USR.sol\":23282:23599  function setSellLiquidityPercentage(uint256 _liquidityPercent) external onlyOwner {... */\n      pop\n      jump\t// out\n        /* \"USR.sol\":14033:14063  bool public swapEnabled = true */\n    tag_201:\n      0x1b\n      0x15\n      swap1\n      sload\n      swap1\n      0x0100\n      exp\n      swap1\n      div\n      0xff\n      and\n      dup2\n      jump\t// out\n        /* \"USR.sol\":16718:16853  function balanceOf(... */\n    tag_206:\n        /* \"USR.sol\":16800:16807  uint256 */\n      0x00\n        /* \"USR.sol\":16827:16836  _balances */\n      0x03\n        /* \"USR.sol\":16827:16845  _balances[account] */\n      0x00\n        /* \"USR.sol\":16837:16844  account */\n      dup4\n        /* \"USR.sol\":16827:16845  _balances[account] */\n      0xffffffffffffffffffffffffffffffffffffffff\n      and\n      0xffffffffffffffffffffffffffffffffffffffff\n      and\n      dup2\n      mstore\n      0x20\n      add\n      swap1\n      dup2\n      mstore\n      0x20\n      add\n      0x00\n      keccak256\n      sload\n        /* \"USR.sol\":16820:16845  return _balances[account] */\n      swap1\n      pop\n        /* \"USR.sol\":16718:16853  function balanceOf(... */\n      swap2\n      swap1\n      pop\n      jump\t// out\n        /* \"USR.sol\":5745:5848  function renounceOwnership() public virtual onlyOwner {... */\n    tag_210:\n        /* \"USR.sol\":4980:4993  _checkOwner() */\n      tag_392\n        /* \"USR.sol\":4980:4991  _checkOwner */\n      tag_309\n        /* \"USR.sol\":4980:4993  _checkOwner() */\n      jump\t// in\n    tag_392:\n        /* \"USR.sol\":5810:5840  _transferOwnership(address(0)) */\n      tag_394\n        /* \"USR.sol\":5837:5838  0 */\n      0x00\n        /* \"USR.sol\":5810:5828  _transferOwnership */\n      tag_395\n        /* \"USR.sol\":5810:5840  _transferOwnership(address(0)) */\n      jump\t// in\n    tag_394:\n        /* \"USR.sol\":5745:5848  function renounceOwnership() public virtual onlyOwner {... */\n      jump\t// out\n        /* \"USR.sol\":12622:12672  mapping(address => bool) public _isExcludedFromFee */\n    tag_214:\n      mstore(0x20, 0x07)\n      dup1\n      0x00\n      mstore\n      keccak256(0x00, 0x40)\n      0x00\n      swap2\n      pop\n      sload\n      swap1\n      0x0100\n      exp\n      swap1\n      div\n      0xff\n      and\n      dup2\n      jump\t// out\n        /* \"USR.sol\":12685:12707  bool public trade_open */\n    tag_218:\n      0x08\n      0x00\n      swap1\n      sload\n      swap1\n      0x0100\n      exp\n      swap1\n      div\n      0xff\n      and\n      dup2\n      jump\t// out\n        /* \"USR.sol\":13879:13910  uint256 public _totalTaxPercent */\n    tag_222:\n      sload(0x19)\n      dup2\n      jump\t// out\n        /* \"USR.sol\":22672:22929  function setBuyBurnPercentage(uint256 _burnPercent) external onlyOwner {... */\n    tag_227:\n        /* \"USR.sol\":4980:4993  _checkOwner() */\n      tag_397\n        /* \"USR.sol\":4980:4991  _checkOwner */\n      tag_309\n        /* \"USR.sol\":4980:4993  _checkOwner() */\n      jump\t// in\n    tag_397:\n        /* \"USR.sol\":22829:22833  5000 */\n      0x1388\n        /* \"USR.sol\":22799:22825  _buyLiquidityTaxPercentage */\n      sload(0x0d)\n        /* \"USR.sol\":22777:22796  _buyUFTaxPercentage */\n      sload(0x0c)\n        /* \"USR.sol\":22762:22774  _burnPercent */\n      dup4\n        /* \"USR.sol\":22762:22796  _burnPercent + _buyUFTaxPercentage */\n      tag_399\n      swap2\n      swap1\n      tag_326\n      jump\t// in\n    tag_399:\n        /* \"USR.sol\":22762:22825  _burnPercent + _buyUFTaxPercentage + _buyLiquidityTaxPercentage */\n      tag_400\n      swap2\n      swap1\n      tag_326\n      jump\t// in\n    tag_400:\n        /* \"USR.sol\":22762:22833  _burnPercent + _buyUFTaxPercentage + _buyLiquidityTaxPercentage <= 5000 */\n      gt\n      iszero\n        /* \"USR.sol\":22754:22874  require(_burnPercent + _buyUFTaxPercentage + _buyLiquidityTaxPercentage <= 5000, \" Buy Tax percentage cannot exceed 5%\") */\n      tag_401\n      jumpi\n      mload(0x40)\n      0x08c379a000000000000000000000000000000000000000000000000000000000\n      dup2\n      mstore\n      0x04\n      add\n      tag_402\n      swap1\n      tag_353\n      jump\t// in\n    tag_402:\n      mload(0x40)\n      dup1\n      swap2\n      sub\n      swap1\n      revert\n    tag_401:\n        /* \"USR.sol\":22909:22921  _burnPercent */\n      dup1\n        /* \"USR.sol\":22885:22906  _buyBurnTaxPercentage */\n      0x0e\n        /* \"USR.sol\":22885:22921  _buyBurnTaxPercentage = _burnPercent */\n      dup2\n      swap1\n      sstore\n      pop\n        /* \"USR.sol\":22672:22929  function setBuyBurnPercentage(uint256 _burnPercent) external onlyOwner {... */\n      pop\n      jump\t// out\n        /* \"USR.sol\":13161:13208  uint256 public _sellLiquidityTaxPercentage = 30 */\n    tag_230:\n      sload(0x10)\n      dup2\n      jump\t// out\n        /* \"USR.sol\":5095:5182  function owner() public view virtual returns (address) {... */\n    tag_234:\n        /* \"USR.sol\":5141:5148  address */\n      0x00\n        /* \"USR.sol\":5168:5174  _owner */\n      dup1\n      0x00\n      swap1\n      sload\n      swap1\n      0x0100\n      exp\n      swap1\n      div\n      0xffffffffffffffffffffffffffffffffffffffff\n      and\n        /* \"USR.sol\":5161:5174  return _owner */\n      swap1\n      pop\n        /* \"USR.sol\":5095:5182  function owner() public view virtual returns (address) {... */\n      swap1\n      jump\t// out\n        /* \"USR.sol\":16403:16499  function symbol() public view virtual  returns (string memory) {... */\n    tag_238:\n        /* \"USR.sol\":16451:16464  string memory */\n      0x60\n        /* \"USR.sol\":16484:16491  _symbol */\n      mload(0x40)\n      dup1\n      0x40\n      add\n      0x40\n      mstore\n      dup1\n      0x03\n      dup2\n      mstore\n      0x20\n      add\n      0x5553520000000000000000000000000000000000000000000000000000000000\n      dup2\n      mstore\n      pop\n        /* \"USR.sol\":16477:16491  return _symbol */\n      swap1\n      pop\n        /* \"USR.sol\":16403:16499  function symbol() public view virtual  returns (string memory) {... */\n      swap1\n      jump\t// out\n        /* \"USR.sol\":20165:20466  function setAutomatedMarketMakerPair(address pair, bool value)... */\n    tag_243:\n        /* \"USR.sol\":4980:4993  _checkOwner() */\n      tag_406\n        /* \"USR.sol\":4980:4991  _checkOwner */\n      tag_309\n        /* \"USR.sol\":4980:4993  _checkOwner() */\n      jump\t// in\n    tag_406:\n        /* \"USR.sol\":20309:20321  _uniswapPair */\n      0x1b\n      0x00\n      swap1\n      sload\n      swap1\n      0x0100\n      exp\n      swap1\n      div\n      0xffffffffffffffffffffffffffffffffffffffff\n      and\n        /* \"USR.sol\":20301:20321  pair != _uniswapPair */\n      0xffffffffffffffffffffffffffffffffffffffff\n      and\n        /* \"USR.sol\":20301:20305  pair */\n      dup3\n        /* \"USR.sol\":20301:20321  pair != _uniswapPair */\n      0xffffffffffffffffffffffffffffffffffffffff\n      and\n      sub\n        /* \"USR.sol\":20279:20406  require(... */\n      tag_408\n      jumpi\n      mload(0x40)\n      0x08c379a000000000000000000000000000000000000000000000000000000000\n      dup2\n      mstore\n      0x04\n      add\n      tag_409\n      swap1\n      tag_410\n      jump\t// in\n    tag_409:\n      mload(0x40)\n      dup1\n      swap2\n      sub\n      swap1\n      revert\n    tag_408:\n        /* \"USR.sol\":20417:20458  _setAutomatedMarketMakerPair(pair, value) */\n      tag_411\n        /* \"USR.sol\":20446:20450  pair */\n      dup3\n        /* \"USR.sol\":20452:20457  value */\n      dup3\n        /* \"USR.sol\":20417:20445  _setAutomatedMarketMakerPair */\n      tag_412\n        /* \"USR.sol\":20417:20458  _setAutomatedMarketMakerPair(pair, value) */\n      jump\t// in\n    tag_411:\n        /* \"USR.sol\":20165:20466  function setAutomatedMarketMakerPair(address pair, bool value)... */\n      pop\n      pop\n      jump\t// out\n        /* \"USR.sol\":16865:17073  function transfer(... */\n    tag_247:\n        /* \"USR.sol\":16961:16965  bool */\n      0x00\n        /* \"USR.sol\":16978:16991  address owner */\n      dup1\n        /* \"USR.sol\":16994:17004  msg.sender */\n      caller\n        /* \"USR.sol\":16978:17004  address owner = msg.sender */\n      swap1\n      pop\n        /* \"USR.sol\":17015:17043  _transfer(owner, to, amount) */\n      tag_414\n        /* \"USR.sol\":17025:17030  owner */\n      dup2\n        /* \"USR.sol\":17032:17034  to */\n      dup6\n        /* \"USR.sol\":17036:17042  amount */\n      dup6\n        /* \"USR.sol\":17015:17024  _transfer */\n      tag_345\n        /* \"USR.sol\":17015:17043  _transfer(owner, to, amount) */\n      jump\t// in\n    tag_414:\n        /* \"USR.sol\":17061:17065  true */\n      0x01\n        /* \"USR.sol\":17054:17065  return true */\n      swap2\n      pop\n      pop\n        /* \"USR.sol\":16865:17073  function transfer(... */\n      swap3\n      swap2\n      pop\n      pop\n      jump\t// out\n        /* \"USR.sol\":21032:21224  function setUserFoundationWallet(address wallet) external onlyOwner {... */\n    tag_252:\n        /* \"USR.sol\":4980:4993  _checkOwner() */\n      tag_416\n        /* \"USR.sol\":4980:4991  _checkOwner */\n      tag_309\n        /* \"USR.sol\":4980:4993  _checkOwner() */\n      jump\t// in\n    tag_416:\n        /* \"USR.sol\":21137:21138  0 */\n      0x00\n        /* \"USR.sol\":21119:21139  wallet != address(0) */\n      0xffffffffffffffffffffffffffffffffffffffff\n      and\n        /* \"USR.sol\":21119:21125  wallet */\n      dup2\n        /* \"USR.sol\":21119:21139  wallet != address(0) */\n      0xffffffffffffffffffffffffffffffffffffffff\n      and\n      sub\n        /* \"USR.sol\":21111:21182  require(wallet != address(0),\"Marketing wallet cannot be zero address\") */\n      tag_418\n      jumpi\n      mload(0x40)\n      0x08c379a000000000000000000000000000000000000000000000000000000000\n      dup2\n      mstore\n      0x04\n      add\n      tag_419\n      swap1\n      tag_420\n      jump\t// in\n    tag_419:\n      mload(0x40)\n      dup1\n      swap2\n      sub\n      swap1\n      revert\n    tag_418:\n        /* \"USR.sol\":21210:21216  wallet */\n      dup1\n        /* \"USR.sol\":21193:21207  userFoundation */\n      0x0b\n      0x00\n        /* \"USR.sol\":21193:21216  userFoundation = wallet */\n      0x0100\n      exp\n      dup2\n      sload\n      dup2\n      0xffffffffffffffffffffffffffffffffffffffff\n      mul\n      not\n      and\n      swap1\n      dup4\n      0xffffffffffffffffffffffffffffffffffffffff\n      and\n      mul\n      or\n      swap1\n      sstore\n      pop\n        /* \"USR.sol\":21032:21224  function setUserFoundationWallet(address wallet) external onlyOwner {... */\n      pop\n      jump\t// out\n        /* \"USR.sol\":12558:12615  mapping(address => bool) public automatedMarketMakerPairs */\n    tag_256:\n      mstore(0x20, 0x06)\n      dup1\n      0x00\n      mstore\n      keccak256(0x00, 0x40)\n      0x00\n      swap2\n      pop\n      sload\n      swap1\n      0x0100\n      exp\n      swap1\n      div\n      0xff\n      and\n      dup2\n      jump\t// out\n        /* \"USR.sol\":13233:13274  uint256 public _sellBurnTaxPercentage = 5 */\n    tag_260:\n      sload(0x11)\n      dup2\n      jump\t// out\n        /* \"USR.sol\":12755:12795  uint256 public numBlocksForBlacklist = 5 */\n    tag_264:\n      sload(0x0a)\n      dup2\n      jump\t// out\n        /* \"USR.sol\":13637:13672  uint256 public _sellUFShare = 11764 */\n    tag_268:\n      sload(0x16)\n      dup2\n      jump\t// out\n        /* \"USR.sol\":24932:25055  function recoverETHfromContract() external onlyOwner {... */\n    tag_272:\n        /* \"USR.sol\":4980:4993  _checkOwner() */\n      tag_422\n        /* \"USR.sol\":4980:4991  _checkOwner */\n      tag_309\n        /* \"USR.sol\":4980:4993  _checkOwner() */\n      jump\t// in\n    tag_422:\n        /* \"USR.sol\":25004:25014  msg.sender */\n      caller\n        /* \"USR.sol\":24996:25024  payable(msg.sender).transfer */\n      0xffffffffffffffffffffffffffffffffffffffff\n      and\n        /* \"USR.sol\":24996:25047  payable(msg.sender).transfer(address(this).balance) */\n      0x08fc\n        /* \"USR.sol\":25025:25046  address(this).balance */\n      selfbalance\n        /* \"USR.sol\":24996:25047  payable(msg.sender).transfer(address(this).balance) */\n      swap1\n      dup2\n      iszero\n      mul\n      swap1\n      mload(0x40)\n      0x00\n      mload(0x40)\n      dup1\n      dup4\n      sub\n      dup2\n      dup6\n      dup9\n      dup9\n      call\n      swap4\n      pop\n      pop\n      pop\n      pop\n      iszero\n      dup1\n      iszero\n      tag_425\n      jumpi\n      returndatasize\n      0x00\n      dup1\n      returndatacopy\n      revert(0x00, returndatasize)\n    tag_425:\n      pop\n        /* \"USR.sol\":24932:25055  function recoverETHfromContract() external onlyOwner {... */\n      jump\t// out\n        /* \"USR.sol\":12805:12834  address public userFoundation */\n    tag_275:\n      0x0b\n      0x00\n      swap1\n      sload\n      swap1\n      0x0100\n      exp\n      swap1\n      div\n      0xffffffffffffffffffffffffffffffffffffffff\n      and\n      dup2\n      jump\t// out\n        /* \"USR.sol\":22937:23274  function setSellUserFoundationPercentage(uint256 _userFoundationPercent) external onlyOwner {... */\n    tag_280:\n        /* \"USR.sol\":4980:4993  _checkOwner() */\n      tag_427\n        /* \"USR.sol\":4980:4991  _checkOwner */\n      tag_309\n        /* \"USR.sol\":4980:4993  _checkOwner() */\n      jump\t// in\n    tag_427:\n        /* \"USR.sol\":23129:23133  5000 */\n      0x1388\n        /* \"USR.sol\":23103:23125  _sellBurnTaxPercentage */\n      sload(0x11)\n        /* \"USR.sol\":23073:23100  _sellLiquidityTaxPercentage */\n      sload(0x10)\n        /* \"USR.sol\":23048:23070  _userFoundationPercent */\n      dup4\n        /* \"USR.sol\":23048:23100  _userFoundationPercent + _sellLiquidityTaxPercentage */\n      tag_429\n      swap2\n      swap1\n      tag_326\n      jump\t// in\n    tag_429:\n        /* \"USR.sol\":23048:23125  _userFoundationPercent + _sellLiquidityTaxPercentage + _sellBurnTaxPercentage */\n      tag_430\n      swap2\n      swap1\n      tag_326\n      jump\t// in\n    tag_430:\n        /* \"USR.sol\":23048:23133  _userFoundationPercent + _sellLiquidityTaxPercentage + _sellBurnTaxPercentage <= 5000 */\n      gt\n      iszero\n        /* \"USR.sol\":23040:23175  require(_userFoundationPercent + _sellLiquidityTaxPercentage + _sellBurnTaxPercentage <= 5000, \" Sell Tax percentage cannot exceed 5%\") */\n      tag_431\n      jumpi\n      mload(0x40)\n      0x08c379a000000000000000000000000000000000000000000000000000000000\n      dup2\n      mstore\n      0x04\n      add\n      tag_432\n      swap1\n      tag_388\n      jump\t// in\n    tag_432:\n      mload(0x40)\n      dup1\n      swap2\n      sub\n      swap1\n      revert\n    tag_431:\n        /* \"USR.sol\":23209:23231  _userFoundationPercent */\n      dup1\n        /* \"USR.sol\":23186:23206  _sellUFTaxPercentage */\n      0x0f\n        /* \"USR.sol\":23186:23231  _sellUFTaxPercentage = _userFoundationPercent */\n      dup2\n      swap1\n      sstore\n      pop\n        /* \"USR.sol\":23245:23259  updateShares() */\n      tag_433\n        /* \"USR.sol\":23245:23257  updateShares */\n      tag_332\n        /* \"USR.sol\":23245:23259  updateShares() */\n      jump\t// in\n    tag_433:\n        /* \"USR.sol\":22937:23274  function setSellUserFoundationPercentage(uint256 _userFoundationPercent) external onlyOwner {... */\n      pop\n      jump\t// out\n        /* \"USR.sol\":12505:12548  mapping(address => bool) public blacklisted */\n    tag_284:\n      mstore(0x20, 0x05)\n      dup1\n      0x00\n      mstore\n      keccak256(0x00, 0x40)\n      0x00\n      swap2\n      pop\n      sload\n      swap1\n      0x0100\n      exp\n      swap1\n      div\n      0xff\n      and\n      dup2\n      jump\t// out\n        /* \"USR.sol\":17376:17544  function allowance(... */\n    tag_290:\n        /* \"USR.sol\":17482:17489  uint256 */\n      0x00\n        /* \"USR.sol\":17509:17520  _allowances */\n      0x04\n        /* \"USR.sol\":17509:17527  _allowances[owner] */\n      0x00\n        /* \"USR.sol\":17521:17526  owner */\n      dup5\n        /* \"USR.sol\":17509:17527  _allowances[owner] */\n      0xffffffffffffffffffffffffffffffffffffffff\n      and\n      0xffffffffffffffffffffffffffffffffffffffff\n      and\n      dup2\n      mstore\n      0x20\n      add\n      swap1\n      dup2\n      mstore\n      0x20\n      add\n      0x00\n      keccak256\n        /* \"USR.sol\":17509:17536  _allowances[owner][spender] */\n      0x00\n        /* \"USR.sol\":17528:17535  spender */\n      dup4\n        /* \"USR.sol\":17509:17536  _allowances[owner][spender] */\n      0xffffffffffffffffffffffffffffffffffffffff\n      and\n      0xffffffffffffffffffffffffffffffffffffffff\n      and\n      dup2\n      mstore\n      0x20\n      add\n      swap1\n      dup2\n      mstore\n      0x20\n      add\n      0x00\n      keccak256\n      sload\n        /* \"USR.sol\":17502:17536  return _allowances[owner][spender] */\n      swap1\n      pop\n        /* \"USR.sol\":17376:17544  function allowance(... */\n      swap3\n      swap2\n      pop\n      pop\n      jump\t// out\n        /* \"USR.sol\":23876:24185  function setTransferLiquidityPercentage(uint256 _liquidityPercent) external onlyOwner {... */\n    tag_295:\n        /* \"USR.sol\":4980:4993  _checkOwner() */\n      tag_436\n        /* \"USR.sol\":4980:4991  _checkOwner */\n      tag_309\n        /* \"USR.sol\":4980:4993  _checkOwner() */\n      jump\t// in\n    tag_436:\n        /* \"USR.sol\":24031:24035  3000 */\n      0x0bb8\n        /* \"USR.sol\":24001:24027  _transferBurnTaxPercentage */\n      sload(0x13)\n        /* \"USR.sol\":23981:23998  _liquidityPercent */\n      dup3\n        /* \"USR.sol\":23981:24027  _liquidityPercent + _transferBurnTaxPercentage */\n      tag_438\n      swap2\n      swap1\n      tag_326\n      jump\t// in\n    tag_438:\n        /* \"USR.sol\":23981:24035  _liquidityPercent + _transferBurnTaxPercentage <= 3000 */\n      gt\n      iszero\n        /* \"USR.sol\":23973:24080  require(_liquidityPercent + _transferBurnTaxPercentage <= 3000, \"Transfer Tax percentage cannot exceed 3%\") */\n      tag_439\n      jumpi\n      mload(0x40)\n      0x08c379a000000000000000000000000000000000000000000000000000000000\n      dup2\n      mstore\n      0x04\n      add\n      tag_440\n      swap1\n      tag_340\n      jump\t// in\n    tag_440:\n      mload(0x40)\n      dup1\n      swap2\n      sub\n      swap1\n      revert\n    tag_439:\n        /* \"USR.sol\":24125:24142  _liquidityPercent */\n      dup1\n        /* \"USR.sol\":24091:24122  _transferLiquidityTaxPercentage */\n      0x12\n        /* \"USR.sol\":24091:24142  _transferLiquidityTaxPercentage = _liquidityPercent */\n      dup2\n      swap1\n      sstore\n      pop\n        /* \"USR.sol\":24156:24170  updateShares() */\n      tag_441\n        /* \"USR.sol\":24156:24168  updateShares */\n      tag_332\n        /* \"USR.sol\":24156:24170  updateShares() */\n      jump\t// in\n    tag_441:\n        /* \"USR.sol\":23876:24185  function setTransferLiquidityPercentage(uint256 _liquidityPercent) external onlyOwner {... */\n      pop\n      jump\t// out\n        /* \"USR.sol\":6004:6242  function transferOwnership(address newOwner) public virtual onlyOwner {... */\n    tag_299:\n        /* \"USR.sol\":4980:4993  _checkOwner() */\n      tag_443\n        /* \"USR.sol\":4980:4991  _checkOwner */\n      tag_309\n        /* \"USR.sol\":4980:4993  _checkOwner() */\n      jump\t// in\n    tag_443:\n        /* \"USR.sol\":6127:6128  0 */\n      0x00\n        /* \"USR.sol\":6107:6129  newOwner != address(0) */\n      0xffffffffffffffffffffffffffffffffffffffff\n      and\n        /* \"USR.sol\":6107:6115  newOwner */\n      dup2\n        /* \"USR.sol\":6107:6129  newOwner != address(0) */\n      0xffffffffffffffffffffffffffffffffffffffff\n      and\n      sub\n        /* \"USR.sol\":6085:6195  require(... */\n      tag_445\n      jumpi\n      mload(0x40)\n      0x08c379a000000000000000000000000000000000000000000000000000000000\n      dup2\n      mstore\n      0x04\n      add\n      tag_446\n      swap1\n      tag_447\n      jump\t// in\n    tag_446:\n      mload(0x40)\n      dup1\n      swap2\n      sub\n      swap1\n      revert\n    tag_445:\n        /* \"USR.sol\":6206:6234  _transferOwnership(newOwner) */\n      tag_448\n        /* \"USR.sol\":6225:6233  newOwner */\n      dup2\n        /* \"USR.sol\":6206:6224  _transferOwnership */\n      tag_395\n        /* \"USR.sol\":6206:6234  _transferOwnership(newOwner) */\n      jump\t// in\n    tag_448:\n        /* \"USR.sol\":6004:6242  function transferOwnership(address newOwner) public virtual onlyOwner {... */\n      pop\n      jump\t// out\n        /* \"USR.sol\":20844:20921  function pauseTrade() public onlyOwner {... */\n    tag_302:\n        /* \"USR.sol\":4980:4993  _checkOwner() */\n      tag_450\n        /* \"USR.sol\":4980:4991  _checkOwner */\n      tag_309\n        /* \"USR.sol\":4980:4993  _checkOwner() */\n      jump\t// in\n    tag_450:\n        /* \"USR.sol\":20907:20912  false */\n      0x00\n        /* \"USR.sol\":20894:20904  trade_open */\n      0x08\n      0x00\n        /* \"USR.sol\":20894:20912  trade_open = false */\n      0x0100\n      exp\n      dup2\n      sload\n      dup2\n      0xff\n      mul\n      not\n      and\n      swap1\n      dup4\n      iszero\n      iszero\n      mul\n      or\n      swap1\n      sstore\n      pop\n        /* \"USR.sol\":20844:20921  function pauseTrade() public onlyOwner {... */\n      jump\t// out\n        /* \"USR.sol\":13307:13358  uint256 public _transferLiquidityTaxPercentage = 25 */\n    tag_305:\n      sload(0x12)\n      dup2\n      jump\t// out\n        /* \"USR.sol\":5261:5393  function _checkOwner() internal view virtual {... */\n    tag_309:\n        /* \"USR.sol\":5336:5348  _msgSender() */\n      tag_453\n        /* \"USR.sol\":5336:5346  _msgSender */\n      tag_363\n        /* \"USR.sol\":5336:5348  _msgSender() */\n      jump\t// in\n    tag_453:\n        /* \"USR.sol\":5325:5348  owner() == _msgSender() */\n      0xffffffffffffffffffffffffffffffffffffffff\n      and\n        /* \"USR.sol\":5325:5332  owner() */\n      tag_454\n        /* \"USR.sol\":5325:5330  owner */\n      tag_234\n        /* \"USR.sol\":5325:5332  owner() */\n      jump\t// in\n    tag_454:\n        /* \"USR.sol\":5325:5348  owner() == _msgSender() */\n      0xffffffffffffffffffffffffffffffffffffffff\n      and\n      eq\n        /* \"USR.sol\":5317:5385  require(owner() == _msgSender(), \"Ownable: caller is not the owner\") */\n      tag_455\n      jumpi\n      mload(0x40)\n      0x08c379a000000000000000000000000000000000000000000000000000000000\n      dup2\n      mstore\n      0x04\n      add\n      tag_456\n      swap1\n      tag_457\n      jump\t// in\n    tag_456:\n      mload(0x40)\n      dup1\n      swap2\n      sub\n      swap1\n      revert\n    tag_455:\n        /* \"USR.sol\":5261:5393  function _checkOwner() internal view virtual {... */\n      jump\t// out\n        /* \"USR.sol\":17716:18059  function _approve(address sender, address spender, uint256 amount) internal {... */\n    tag_321:\n        /* \"USR.sol\":17829:17830  0 */\n      0x00\n        /* \"USR.sol\":17811:17831  sender != address(0) */\n      0xffffffffffffffffffffffffffffffffffffffff\n      and\n        /* \"USR.sol\":17811:17817  sender */\n      dup4\n        /* \"USR.sol\":17811:17831  sender != address(0) */\n      0xffffffffffffffffffffffffffffffffffffffff\n      and\n      sub\n        /* \"USR.sol\":17803:17872  require(sender != address(0), \"ERC20: approve from the zero address\") */\n      tag_459\n      jumpi\n      mload(0x40)\n      0x08c379a000000000000000000000000000000000000000000000000000000000\n      dup2\n      mstore\n      0x04\n      add\n      tag_460\n      swap1\n      tag_461\n      jump\t// in\n    tag_460:\n      mload(0x40)\n      dup1\n      swap2\n      sub\n      swap1\n      revert\n    tag_459:\n        /* \"USR.sol\":17910:17911  0 */\n      0x00\n        /* \"USR.sol\":17891:17912  spender != address(0) */\n      0xffffffffffffffffffffffffffffffffffffffff\n      and\n        /* \"USR.sol\":17891:17898  spender */\n      dup3\n        /* \"USR.sol\":17891:17912  spender != address(0) */\n      0xffffffffffffffffffffffffffffffffffffffff\n      and\n      sub\n        /* \"USR.sol\":17883:17951  require(spender != address(0), \"ERC20: approve to the zero address\") */\n      tag_462\n      jumpi\n      mload(0x40)\n      0x08c379a000000000000000000000000000000000000000000000000000000000\n      dup2\n      mstore\n      0x04\n      add\n      tag_463\n      swap1\n      tag_464\n      jump\t// in\n    tag_463:\n      mload(0x40)\n      dup1\n      swap2\n      sub\n      swap1\n      revert\n    tag_462:\n        /* \"USR.sol\":17996:18002  amount */\n      dup1\n        /* \"USR.sol\":17965:17976  _allowances */\n      0x04\n        /* \"USR.sol\":17965:17984  _allowances[sender] */\n      0x00\n        /* \"USR.sol\":17977:17983  sender */\n      dup6\n        /* \"USR.sol\":17965:17984  _allowances[sender] */\n      0xffffffffffffffffffffffffffffffffffffffff\n      and\n      0xffffffffffffffffffffffffffffffffffffffff\n      and\n      dup2\n      mstore\n      0x20\n      add\n      swap1\n      dup2\n      mstore\n      0x20\n      add\n      0x00\n      keccak256\n        /* \"USR.sol\":17965:17993  _allowances[sender][spender] */\n      0x00\n        /* \"USR.sol\":17985:17992  spender */\n      dup5\n        /* \"USR.sol\":17965:17993  _allowances[sender][spender] */\n      0xffffffffffffffffffffffffffffffffffffffff\n      and\n      0xffffffffffffffffffffffffffffffffffffffff\n      and\n      dup2\n      mstore\n      0x20\n      add\n      swap1\n      dup2\n      mstore\n      0x20\n      add\n      0x00\n      keccak256\n        /* \"USR.sol\":17965:18002  _allowances[sender][spender] = amount */\n      dup2\n      swap1\n      sstore\n      pop\n        /* \"USR.sol\":18035:18042  spender */\n      dup2\n        /* \"USR.sol\":18018:18051  Approval(sender, spender, amount) */\n      0xffffffffffffffffffffffffffffffffffffffff\n      and\n        /* \"USR.sol\":18027:18033  sender */\n      dup4\n        /* \"USR.sol\":18018:18051  Approval(sender, spender, amount) */\n      0xffffffffffffffffffffffffffffffffffffffff\n      and\n      0x8c5be1e5ebec7d5bd14f71427d1e84f3dd0314c0f7b2291e5b200ac8c7c3b925\n        /* \"USR.sol\":18044:18050  amount */\n      dup4\n        /* \"USR.sol\":18018:18051  Approval(sender, spender, amount) */\n      mload(0x40)\n      tag_465\n      swap2\n      swap1\n      tag_102\n      jump\t// in\n    tag_465:\n      mload(0x40)\n      dup1\n      swap2\n      sub\n      swap1\n      log3\n        /* \"USR.sol\":17716:18059  function _approve(address sender, address spender, uint256 amount) internal {... */\n      pop\n      pop\n      pop\n      jump\t// out\n        /* \"USR.sol\":21236:22005  function updateShares() internal {... */\n    tag_332:\n        /* \"USR.sol\":21282:21296  uint256 buyTax */\n      0x00\n        /* \"USR.sol\":21321:21347  _buyLiquidityTaxPercentage */\n      sload(0x0d)\n        /* \"USR.sol\":21299:21318  _buyUFTaxPercentage */\n      sload(0x0c)\n        /* \"USR.sol\":21299:21347  _buyUFTaxPercentage + _buyLiquidityTaxPercentage */\n      tag_467\n      swap2\n      swap1\n      tag_326\n      jump\t// in\n    tag_467:\n        /* \"USR.sol\":21282:21347  uint256 buyTax = _buyUFTaxPercentage + _buyLiquidityTaxPercentage */\n      swap1\n      pop\n        /* \"USR.sol\":21358:21373  uint256 sellTax */\n      0x00\n        /* \"USR.sol\":21399:21426  _sellLiquidityTaxPercentage */\n      sload(0x10)\n        /* \"USR.sol\":21376:21396  _sellUFTaxPercentage */\n      sload(0x0f)\n        /* \"USR.sol\":21376:21426  _sellUFTaxPercentage + _sellLiquidityTaxPercentage */\n      tag_468\n      swap2\n      swap1\n      tag_326\n      jump\t// in\n    tag_468:\n        /* \"USR.sol\":21358:21426  uint256 sellTax = _sellUFTaxPercentage + _sellLiquidityTaxPercentage */\n      swap1\n      pop\n        /* \"USR.sol\":21437:21456  uint256 transferTax */\n      0x00\n        /* \"USR.sol\":21459:21490  _transferLiquidityTaxPercentage */\n      sload(0x12)\n        /* \"USR.sol\":21437:21490  uint256 transferTax = _transferLiquidityTaxPercentage */\n      swap1\n      pop\n        /* \"USR.sol\":21541:21552  transferTax */\n      dup1\n        /* \"USR.sol\":21531:21538  sellTax */\n      dup3\n        /* \"USR.sol\":21522:21528  buyTax */\n      dup5\n        /* \"USR.sol\":21522:21538  buyTax + sellTax */\n      tag_469\n      swap2\n      swap1\n      tag_326\n      jump\t// in\n    tag_469:\n        /* \"USR.sol\":21522:21552  buyTax + sellTax + transferTax */\n      tag_470\n      swap2\n      swap1\n      tag_326\n      jump\t// in\n    tag_470:\n        /* \"USR.sol\":21503:21519  _totalTaxPercent */\n      0x19\n        /* \"USR.sol\":21503:21552  _totalTaxPercent = buyTax + sellTax + transferTax */\n      dup2\n      swap1\n      sstore\n      pop\n        /* \"USR.sol\":21611:21627  _totalTaxPercent */\n      sload(0x19)\n        /* \"USR.sol\":21603:21609  100000 */\n      0x0186a0\n        /* \"USR.sol\":21581:21600  _buyUFTaxPercentage */\n      sload(0x0c)\n        /* \"USR.sol\":21581:21609  _buyUFTaxPercentage * 100000 */\n      tag_471\n      swap2\n      swap1\n      tag_472\n      jump\t// in\n    tag_471:\n        /* \"USR.sol\":21580:21627  (_buyUFTaxPercentage * 100000)/_totalTaxPercent */\n      tag_473\n      swap2\n      swap1\n      tag_474\n      jump\t// in\n    tag_473:\n        /* \"USR.sol\":21566:21577  _buyUFShare */\n      0x14\n        /* \"USR.sol\":21566:21627  _buyUFShare = (_buyUFTaxPercentage * 100000)/_totalTaxPercent */\n      dup2\n      swap1\n      sstore\n      pop\n        /* \"USR.sol\":21702:21718  _totalTaxPercent */\n      sload(0x19)\n        /* \"USR.sol\":21694:21700  100000 */\n      0x0186a0\n        /* \"USR.sol\":21665:21691  _buyLiquidityTaxPercentage */\n      sload(0x0d)\n        /* \"USR.sol\":21665:21700  _buyLiquidityTaxPercentage * 100000 */\n      tag_475\n      swap2\n      swap1\n      tag_472\n      jump\t// in\n    tag_475:\n        /* \"USR.sol\":21664:21718  (_buyLiquidityTaxPercentage * 100000)/_totalTaxPercent */\n      tag_476\n      swap2\n      swap1\n      tag_474\n      jump\t// in\n    tag_476:\n        /* \"USR.sol\":21643:21661  _buyLiquidityShare */\n      0x15\n        /* \"USR.sol\":21643:21718  _buyLiquidityShare = (_buyLiquidityTaxPercentage * 100000)/_totalTaxPercent */\n      dup2\n      swap1\n      sstore\n      pop\n        /* \"USR.sol\":21778:21794  _totalTaxPercent */\n      sload(0x19)\n        /* \"USR.sol\":21770:21776  100000 */\n      0x0186a0\n        /* \"USR.sol\":21747:21767  _sellUFTaxPercentage */\n      sload(0x0f)\n        /* \"USR.sol\":21747:21776  _sellUFTaxPercentage * 100000 */\n      tag_477\n      swap2\n      swap1\n      tag_472\n      jump\t// in\n    tag_477:\n        /* \"USR.sol\":21746:21794  (_sellUFTaxPercentage * 100000)/_totalTaxPercent */\n      tag_478\n      swap2\n      swap1\n      tag_474\n      jump\t// in\n    tag_478:\n        /* \"USR.sol\":21731:21743  _sellUFShare */\n      0x16\n        /* \"USR.sol\":21731:21794  _sellUFShare = (_sellUFTaxPercentage * 100000)/_totalTaxPercent */\n      dup2\n      swap1\n      sstore\n      pop\n        /* \"USR.sol\":21870:21886  _totalTaxPercent */\n      sload(0x19)\n        /* \"USR.sol\":21862:21868  100000 */\n      0x0186a0\n        /* \"USR.sol\":21832:21859  _sellLiquidityTaxPercentage */\n      sload(0x10)\n        /* \"USR.sol\":21832:21868  _sellLiquidityTaxPercentage * 100000 */\n      tag_479\n      swap2\n      swap1\n      tag_472\n      jump\t// in\n    tag_479:\n        /* \"USR.sol\":21831:21886  (_sellLiquidityTaxPercentage * 100000)/_totalTaxPercent */\n      tag_480\n      swap2\n      swap1\n      tag_474\n      jump\t// in\n    tag_480:\n        /* \"USR.sol\":21809:21828  _sellLiquidityShare */\n      0x17\n        /* \"USR.sol\":21809:21886  _sellLiquidityShare = (_sellLiquidityTaxPercentage * 100000)/_totalTaxPercent */\n      dup2\n      swap1\n      sstore\n      pop\n        /* \"USR.sol\":21980:21996  _totalTaxPercent */\n      sload(0x19)\n        /* \"USR.sol\":21972:21978  100000 */\n      0x0186a0\n        /* \"USR.sol\":21938:21969  _transferLiquidityTaxPercentage */\n      sload(0x12)\n        /* \"USR.sol\":21938:21978  _transferLiquidityTaxPercentage * 100000 */\n      tag_481\n      swap2\n      swap1\n      tag_472\n      jump\t// in\n    tag_481:\n        /* \"USR.sol\":21937:21996  (_transferLiquidityTaxPercentage * 100000)/_totalTaxPercent */\n      tag_482\n      swap2\n      swap1\n      tag_474\n      jump\t// in\n    tag_482:\n        /* \"USR.sol\":21911:21934  _transferLiquidityShare */\n      0x18\n        /* \"USR.sol\":21911:21996  _transferLiquidityShare = (_transferLiquidityTaxPercentage * 100000)/_totalTaxPercent */\n      dup2\n      swap1\n      sstore\n      pop\n        /* \"USR.sol\":21269:22005  {... */\n      pop\n      pop\n      pop\n        /* \"USR.sol\":21236:22005  function updateShares() internal {... */\n      jump\t// out\n        /* \"USR.sol\":18068:18570  function _spendAllowance(... */\n    tag_343:\n        /* \"USR.sol\":18203:18227  uint256 currentAllowance */\n      0x00\n        /* \"USR.sol\":18230:18255  allowance(owner, spender) */\n      tag_484\n        /* \"USR.sol\":18240:18245  owner */\n      dup5\n        /* \"USR.sol\":18247:18254  spender */\n      dup5\n        /* \"USR.sol\":18230:18239  allowance */\n      tag_290\n        /* \"USR.sol\":18230:18255  allowance(owner, spender) */\n      jump\t// in\n    tag_484:\n        /* \"USR.sol\":18203:18255  uint256 currentAllowance = allowance(owner, spender) */\n      swap1\n      pop\n        /* \"USR.sol\":18290:18307  type(uint256).max */\n      0xffffffffffffffffffffffffffffffffffffffffffffffffffffffffffffffff\n        /* \"USR.sol\":18270:18286  currentAllowance */\n      dup2\n        /* \"USR.sol\":18270:18307  currentAllowance != type(uint256).max */\n      eq\n        /* \"USR.sol\":18266:18563  if (currentAllowance != type(uint256).max) {... */\n      tag_485\n      jumpi\n        /* \"USR.sol\":18370:18376  amount */\n      dup2\n        /* \"USR.sol\":18350:18366  currentAllowance */\n      dup2\n        /* \"USR.sol\":18350:18376  currentAllowance >= amount */\n      lt\n      iszero\n        /* \"USR.sol\":18324:18441  require(... */\n      tag_486\n      jumpi\n      mload(0x40)\n      0x08c379a000000000000000000000000000000000000000000000000000000000\n      dup2\n      mstore\n      0x04\n      add\n      tag_487\n      swap1\n      tag_488\n      jump\t// in\n    tag_487:\n      mload(0x40)\n      dup1\n      swap2\n      sub\n      swap1\n      revert\n    tag_486:\n        /* \"USR.sol\":18485:18536  _approve(owner, spender, currentAllowance - amount) */\n      tag_489\n        /* \"USR.sol\":18494:18499  owner */\n      dup5\n        /* \"USR.sol\":18501:18508  spender */\n      dup5\n        /* \"USR.sol\":18529:18535  amount */\n      dup5\n        /* \"USR.sol\":18510:18526  currentAllowance */\n      dup5\n        /* \"USR.sol\":18510:18535  currentAllowance - amount */\n      sub\n        /* \"USR.sol\":18485:18493  _approve */\n      tag_321\n        /* \"USR.sol\":18485:18536  _approve(owner, spender, currentAllowance - amount) */\n      jump\t// in\n    tag_489:\n        /* \"USR.sol\":18266:18563  if (currentAllowance != type(uint256).max) {... */\n    tag_485:\n        /* \"USR.sol\":18192:18570  {... */\n      pop\n        /* \"USR.sol\":18068:18570  function _spendAllowance(... */\n      pop\n      pop\n      pop\n      jump\t// out\n        /* \"USR.sol\":27341:31479  function _transfer(address sender, address recipient, uint256 amount) internal {... */\n    tag_345:\n        /* \"USR.sol\":27457:27458  0 */\n      0x00\n        /* \"USR.sol\":27439:27459  sender != address(0) */\n      0xffffffffffffffffffffffffffffffffffffffff\n      and\n        /* \"USR.sol\":27439:27445  sender */\n      dup4\n        /* \"USR.sol\":27439:27459  sender != address(0) */\n      0xffffffffffffffffffffffffffffffffffffffff\n      and\n      sub\n        /* \"USR.sol\":27431:27501  require(sender != address(0), \"ERC20: transfer from the zero address\") */\n      tag_491\n      jumpi\n      mload(0x40)\n      0x08c379a000000000000000000000000000000000000000000000000000000000\n      dup2\n      mstore\n      0x04\n      add\n      tag_492\n      swap1\n      tag_493\n      jump\t// in\n    tag_492:\n      mload(0x40)\n      dup1\n      swap2\n      sub\n      swap1\n      revert\n    tag_491:\n        /* \"USR.sol\":27541:27542  0 */\n      0x00\n        /* \"USR.sol\":27520:27543  recipient != address(0) */\n      0xffffffffffffffffffffffffffffffffffffffff\n      and\n        /* \"USR.sol\":27520:27529  recipient */\n      dup3\n        /* \"USR.sol\":27520:27543  recipient != address(0) */\n      0xffffffffffffffffffffffffffffffffffffffff\n      and\n      sub\n        /* \"USR.sol\":27512:27583  require(recipient != address(0), \"ERC20: transfer to the zero address\") */\n      tag_494\n      jumpi\n      mload(0x40)\n      0x08c379a000000000000000000000000000000000000000000000000000000000\n      dup2\n      mstore\n      0x04\n      add\n      tag_495\n      swap1\n      tag_496\n      jump\t// in\n    tag_495:\n      mload(0x40)\n      dup1\n      swap2\n      sub\n      swap1\n      revert\n    tag_494:\n        /* \"USR.sol\":27611:27612  0 */\n      0x00\n        /* \"USR.sol\":27602:27608  amount */\n      dup2\n        /* \"USR.sol\":27602:27612  amount > 0 */\n      gt\n        /* \"USR.sol\":27594:27658  require(amount > 0, \"Transfer amount must be greater than zero\") */\n      tag_497\n      jumpi\n      mload(0x40)\n      0x08c379a000000000000000000000000000000000000000000000000000000000\n      dup2\n      mstore\n      0x04\n      add\n      tag_498\n      swap1\n      tag_499\n      jump\t// in\n    tag_498:\n      mload(0x40)\n      dup1\n      swap2\n      sub\n      swap1\n      revert\n    tag_497:\n        /* \"USR.sol\":27681:27692  blacklisted */\n      0x05\n        /* \"USR.sol\":27681:27700  blacklisted[sender] */\n      0x00\n        /* \"USR.sol\":27693:27699  sender */\n      dup5\n        /* \"USR.sol\":27681:27700  blacklisted[sender] */\n      0xffffffffffffffffffffffffffffffffffffffff\n      and\n      0xffffffffffffffffffffffffffffffffffffffff\n      and\n      dup2\n      mstore\n      0x20\n      add\n      swap1\n      dup2\n      mstore\n      0x20\n      add\n      0x00\n      keccak256\n      0x00\n      swap1\n      sload\n      swap1\n      0x0100\n      exp\n      swap1\n      div\n      0xff\n      and\n        /* \"USR.sol\":27680:27700  !blacklisted[sender] */\n      iszero\n        /* \"USR.sol\":27672:27726  require(!blacklisted[sender], \"Sender is blacklisted\") */\n      tag_500\n      jumpi\n      mload(0x40)\n      0x08c379a000000000000000000000000000000000000000000000000000000000\n      dup2\n      mstore\n      0x04\n      add\n      tag_501\n      swap1\n      tag_502\n      jump\t// in\n    tag_501:\n      mload(0x40)\n      dup1\n      swap2\n      sub\n      swap1\n      revert\n    tag_500:\n        /* \"USR.sol\":27746:27757  blacklisted */\n      0x05\n        /* \"USR.sol\":27746:27768  blacklisted[recipient] */\n      0x00\n        /* \"USR.sol\":27758:27767  recipient */\n      dup4\n        /* \"USR.sol\":27746:27768  blacklisted[recipient] */\n      0xffffffffffffffffffffffffffffffffffffffff\n      and\n      0xffffffffffffffffffffffffffffffffffffffff\n      and\n      dup2\n      mstore\n      0x20\n      add\n      swap1\n      dup2\n      mstore\n      0x20\n      add\n      0x00\n      keccak256\n      0x00\n      swap1\n      sload\n      swap1\n      0x0100\n      exp\n      swap1\n      div\n      0xff\n      and\n        /* \"USR.sol\":27745:27768  !blacklisted[recipient] */\n      iszero\n        /* \"USR.sol\":27737:27797  require(!blacklisted[recipient], \"Recipient is blacklisted\") */\n      tag_503\n      jumpi\n      mload(0x40)\n      0x08c379a000000000000000000000000000000000000000000000000000000000\n      dup2\n      mstore\n      0x04\n      add\n      tag_504\n      swap1\n      tag_505\n      jump\t// in\n    tag_504:\n      mload(0x40)\n      dup1\n      swap2\n      sub\n      swap1\n      revert\n    tag_503:\n        /* \"USR.sol\":27876:27883  owner() */\n      tag_506\n        /* \"USR.sol\":27876:27881  owner */\n      tag_234\n        /* \"USR.sol\":27876:27883  owner() */\n      jump\t// in\n    tag_506:\n        /* \"USR.sol\":27866:27883  sender == owner() */\n      0xffffffffffffffffffffffffffffffffffffffff\n      and\n        /* \"USR.sol\":27866:27872  sender */\n      dup4\n        /* \"USR.sol\":27866:27883  sender == owner() */\n      0xffffffffffffffffffffffffffffffffffffffff\n      and\n      eq\n        /* \"USR.sol\":27866:27907  sender == owner() || recipient == owner() */\n      dup1\n      tag_507\n      jumpi\n      pop\n        /* \"USR.sol\":27900:27907  owner() */\n      tag_508\n        /* \"USR.sol\":27900:27905  owner */\n      tag_234\n        /* \"USR.sol\":27900:27907  owner() */\n      jump\t// in\n    tag_508:\n        /* \"USR.sol\":27887:27907  recipient == owner() */\n      0xffffffffffffffffffffffffffffffffffffffff\n      and\n        /* \"USR.sol\":27887:27896  recipient */\n      dup3\n        /* \"USR.sol\":27887:27907  recipient == owner() */\n      0xffffffffffffffffffffffffffffffffffffffff\n      and\n      eq\n        /* \"USR.sol\":27866:27907  sender == owner() || recipient == owner() */\n    tag_507:\n        /* \"USR.sol\":27866:27934  sender == owner() || recipient == owner() || sender == address(this) */\n      dup1\n      tag_509\n      jumpi\n      pop\n        /* \"USR.sol\":27929:27933  this */\n      address\n        /* \"USR.sol\":27911:27934  sender == address(this) */\n      0xffffffffffffffffffffffffffffffffffffffff\n      and\n        /* \"USR.sol\":27911:27917  sender */\n      dup4\n        /* \"USR.sol\":27911:27934  sender == address(this) */\n      0xffffffffffffffffffffffffffffffffffffffff\n      and\n      eq\n        /* \"USR.sol\":27866:27934  sender == owner() || recipient == owner() || sender == address(this) */\n    tag_509:\n        /* \"USR.sol\":27862:28164  if (sender == owner() || recipient == owner() || sender == address(this)) {... */\n      iszero\n      tag_510\n      jumpi\n        /* \"USR.sol\":27976:27977  0 */\n      0x00\n        /* \"USR.sol\":27954:27972  currentBlockNumber */\n      sload(0x09)\n        /* \"USR.sol\":27954:27977  currentBlockNumber == 0 */\n      eq\n        /* \"USR.sol\":27954:28006  currentBlockNumber == 0 && recipient == _uniswapPair */\n      dup1\n      iszero\n      tag_511\n      jumpi\n      pop\n        /* \"USR.sol\":27994:28006  _uniswapPair */\n      0x1b\n      0x00\n      swap1\n      sload\n      swap1\n      0x0100\n      exp\n      swap1\n      div\n      0xffffffffffffffffffffffffffffffffffffffff\n      and\n        /* \"USR.sol\":27981:28006  recipient == _uniswapPair */\n      0xffffffffffffffffffffffffffffffffffffffff\n      and\n        /* \"USR.sol\":27981:27990  recipient */\n      dup3\n        /* \"USR.sol\":27981:28006  recipient == _uniswapPair */\n      0xffffffffffffffffffffffffffffffffffffffff\n      and\n      eq\n        /* \"USR.sol\":27954:28006  currentBlockNumber == 0 && recipient == _uniswapPair */\n    tag_511:\n        /* \"USR.sol\":27951:28075  if(currentBlockNumber == 0 && recipient == _uniswapPair){... */\n      iszero\n      tag_512\n      jumpi\n        /* \"USR.sol\":28047:28059  block.number */\n      number\n        /* \"USR.sol\":28026:28044  currentBlockNumber */\n      0x09\n        /* \"USR.sol\":28026:28059  currentBlockNumber = block.number */\n      dup2\n      swap1\n      sstore\n      pop\n        /* \"USR.sol\":27951:28075  if(currentBlockNumber == 0 && recipient == _uniswapPair){... */\n    tag_512:\n        /* \"USR.sol\":28089:28131  _transferTokens(sender, recipient, amount) */\n      tag_513\n        /* \"USR.sol\":28105:28111  sender */\n      dup4\n        /* \"USR.sol\":28113:28122  recipient */\n      dup4\n        /* \"USR.sol\":28124:28130  amount */\n      dup4\n        /* \"USR.sol\":28089:28104  _transferTokens */\n      tag_514\n        /* \"USR.sol\":28089:28131  _transferTokens(sender, recipient, amount) */\n      jump\t// in\n    tag_513:\n        /* \"USR.sol\":28146:28153  return; */\n      jump(tag_490)\n        /* \"USR.sol\":27862:28164  if (sender == owner() || recipient == owner() || sender == address(this)) {... */\n    tag_510:\n        /* \"USR.sol\":28224:28234  trade_open */\n      0x08\n      0x00\n      swap1\n      sload\n      swap1\n      0x0100\n      exp\n      swap1\n      div\n      0xff\n      and\n        /* \"USR.sol\":28216:28258  require(trade_open, \"Trading is disabled\") */\n      tag_515\n      jumpi\n      mload(0x40)\n      0x08c379a000000000000000000000000000000000000000000000000000000000\n      dup2\n      mstore\n      0x04\n      add\n      tag_516\n      swap1\n      tag_517\n      jump\t// in\n    tag_516:\n      mload(0x40)\n      dup1\n      swap2\n      sub\n      swap1\n      revert\n    tag_515:\n        /* \"USR.sol\":28312:28333  numBlocksForBlacklist */\n      sload(0x0a)\n        /* \"USR.sol\":28291:28309  currentBlockNumber */\n      sload(0x09)\n        /* \"USR.sol\":28291:28333  currentBlockNumber + numBlocksForBlacklist */\n      tag_518\n      swap2\n      swap1\n      tag_326\n      jump\t// in\n    tag_518:\n        /* \"USR.sol\":28275:28287  block.number */\n      number\n        /* \"USR.sol\":28275:28333  block.number <= currentBlockNumber + numBlocksForBlacklist */\n      gt\n        /* \"USR.sol\":28272:28411  if(block.number <= currentBlockNumber + numBlocksForBlacklist){... */\n      tag_519\n      jumpi\n        /* \"USR.sol\":28374:28378  true */\n      0x01\n        /* \"USR.sol\":28349:28360  blacklisted */\n      0x05\n        /* \"USR.sol\":28349:28371  blacklisted[recipient] */\n      0x00\n        /* \"USR.sol\":28361:28370  recipient */\n      dup5\n        /* \"USR.sol\":28349:28371  blacklisted[recipient] */\n      0xffffffffffffffffffffffffffffffffffffffff\n      and\n      0xffffffffffffffffffffffffffffffffffffffff\n      and\n      dup2\n      mstore\n      0x20\n      add\n      swap1\n      dup2\n      mstore\n      0x20\n      add\n      0x00\n      keccak256\n      0x00\n        /* \"USR.sol\":28349:28378  blacklisted[recipient] = true */\n      0x0100\n      exp\n      dup2\n      sload\n      dup2\n      0xff\n      mul\n      not\n      and\n      swap1\n      dup4\n      iszero\n      iszero\n      mul\n      or\n      swap1\n      sstore\n      pop\n        /* \"USR.sol\":28393:28400  return; */\n      jump(tag_490)\n        /* \"USR.sol\":28272:28411  if(block.number <= currentBlockNumber + numBlocksForBlacklist){... */\n    tag_519:\n        /* \"USR.sol\":28424:28434  bool isBuy */\n      0x00\n        /* \"USR.sol\":28447:28459  _uniswapPair */\n      0x1b\n      0x00\n      swap1\n      sload\n      swap1\n      0x0100\n      exp\n      swap1\n      div\n      0xffffffffffffffffffffffffffffffffffffffff\n      and\n        /* \"USR.sol\":28437:28459  sender == _uniswapPair */\n      0xffffffffffffffffffffffffffffffffffffffff\n      and\n        /* \"USR.sol\":28437:28443  sender */\n      dup5\n        /* \"USR.sol\":28437:28459  sender == _uniswapPair */\n      0xffffffffffffffffffffffffffffffffffffffff\n      and\n      eq\n        /* \"USR.sol\":28424:28459  bool isBuy = sender == _uniswapPair */\n      swap1\n      pop\n        /* \"USR.sol\":28470:28481  bool isSell */\n      0x00\n        /* \"USR.sol\":28497:28509  _uniswapPair */\n      0x1b\n      0x00\n      swap1\n      sload\n      swap1\n      0x0100\n      exp\n      swap1\n      div\n      0xffffffffffffffffffffffffffffffffffffffff\n      and\n        /* \"USR.sol\":28484:28509  recipient == _uniswapPair */\n      0xffffffffffffffffffffffffffffffffffffffff\n      and\n        /* \"USR.sol\":28484:28493  recipient */\n      dup5\n        /* \"USR.sol\":28484:28509  recipient == _uniswapPair */\n      0xffffffffffffffffffffffffffffffffffffffff\n      and\n      eq\n        /* \"USR.sol\":28470:28509  bool isSell = recipient == _uniswapPair */\n      swap1\n      pop\n        /* \"USR.sol\":28526:28546  uint256 liquidityTax */\n      0x00\n        /* \"USR.sol\":28557:28572  uint256 burnTax */\n      dup1\n        /* \"USR.sol\":28583:28608  uint256 userFoundationTax */\n      0x00\n        /* \"USR.sol\":28622:28650  uint256 contractTokenBalance */\n      dup1\n        /* \"USR.sol\":28653:28677  balanceOf(address(this)) */\n      tag_520\n        /* \"USR.sol\":28671:28675  this */\n      address\n        /* \"USR.sol\":28653:28662  balanceOf */\n      tag_206\n        /* \"USR.sol\":28653:28677  balanceOf(address(this)) */\n      jump\t// in\n    tag_520:\n        /* \"USR.sol\":28622:28677  uint256 contractTokenBalance = balanceOf(address(this)) */\n      swap1\n      pop\n        /* \"USR.sol\":28688:28700  bool canSwap */\n      0x00\n        /* \"USR.sol\":28727:28740  _taxThreshold */\n      sload(0x02)\n        /* \"USR.sol\":28703:28723  contractTokenBalance */\n      dup3\n        /* \"USR.sol\":28703:28740  contractTokenBalance >= _taxThreshold */\n      lt\n      iszero\n        /* \"USR.sol\":28688:28740  bool canSwap = contractTokenBalance >= _taxThreshold */\n      swap1\n      pop\n        /* \"USR.sol\":28772:28779  canSwap */\n      dup1\n        /* \"USR.sol\":28772:28807  canSwap &&... */\n      dup1\n      iszero\n      tag_521\n      jumpi\n      pop\n        /* \"USR.sol\":28796:28807  swapEnabled */\n      0x1b\n      0x15\n      swap1\n      sload\n      swap1\n      0x0100\n      exp\n      swap1\n      div\n      0xff\n      and\n        /* \"USR.sol\":28772:28807  canSwap &&... */\n    tag_521:\n        /* \"USR.sol\":28772:28833  canSwap &&... */\n      dup1\n      iszero\n      tag_522\n      jumpi\n      pop\n        /* \"USR.sol\":28825:28833  swapping */\n      0x1b\n      0x14\n      swap1\n      sload\n      swap1\n      0x0100\n      exp\n      swap1\n      div\n      0xff\n      and\n        /* \"USR.sol\":28824:28833  !swapping */\n      iszero\n        /* \"USR.sol\":28772:28833  canSwap &&... */\n    tag_522:\n        /* \"USR.sol\":28772:28884  canSwap &&... */\n      dup1\n      iszero\n      tag_523\n      jumpi\n      pop\n        /* \"USR.sol\":28851:28876  automatedMarketMakerPairs */\n      0x06\n        /* \"USR.sol\":28851:28884  automatedMarketMakerPairs[sender] */\n      0x00\n        /* \"USR.sol\":28877:28883  sender */\n      dup12\n        /* \"USR.sol\":28851:28884  automatedMarketMakerPairs[sender] */\n      0xffffffffffffffffffffffffffffffffffffffff\n      and\n      0xffffffffffffffffffffffffffffffffffffffff\n      and\n      dup2\n      mstore\n      0x20\n      add\n      swap1\n      dup2\n      mstore\n      0x20\n      add\n      0x00\n      keccak256\n      0x00\n      swap1\n      sload\n      swap1\n      0x0100\n      exp\n      swap1\n      div\n      0xff\n      and\n        /* \"USR.sol\":28850:28884  !automatedMarketMakerPairs[sender] */\n      iszero\n        /* \"USR.sol\":28772:28884  canSwap &&... */\n    tag_523:\n        /* \"USR.sol\":28772:28928  canSwap &&... */\n      dup1\n      iszero\n      tag_524\n      jumpi\n      pop\n        /* \"USR.sol\":28902:28920  _isExcludedFromFee */\n      0x07\n        /* \"USR.sol\":28902:28928  _isExcludedFromFee[sender] */\n      0x00\n        /* \"USR.sol\":28921:28927  sender */\n      dup12\n        /* \"USR.sol\":28902:28928  _isExcludedFromFee[sender] */\n      0xffffffffffffffffffffffffffffffffffffffff\n      and\n      0xffffffffffffffffffffffffffffffffffffffff\n      and\n      dup2\n      mstore\n      0x20\n      add\n      swap1\n      dup2\n      mstore\n      0x20\n      add\n      0x00\n      keccak256\n      0x00\n      swap1\n      sload\n      swap1\n      0x0100\n      exp\n      swap1\n      div\n      0xff\n      and\n        /* \"USR.sol\":28901:28928  !_isExcludedFromFee[sender] */\n      iszero\n        /* \"USR.sol\":28772:28928  canSwap &&... */\n    tag_524:\n        /* \"USR.sol\":28772:28975  canSwap &&... */\n      dup1\n      iszero\n      tag_525\n      jumpi\n      pop\n        /* \"USR.sol\":28946:28964  _isExcludedFromFee */\n      0x07\n        /* \"USR.sol\":28946:28975  _isExcludedFromFee[recipient] */\n      0x00\n        /* \"USR.sol\":28965:28974  recipient */\n      dup11\n        /* \"USR.sol\":28946:28975  _isExcludedFromFee[recipient] */\n      0xffffffffffffffffffffffffffffffffffffffff\n      and\n      0xffffffffffffffffffffffffffffffffffffffff\n      and\n      dup2\n      mstore\n      0x20\n      add\n      swap1\n      dup2\n      mstore\n      0x20\n      add\n      0x00\n      keccak256\n      0x00\n      swap1\n      sload\n      swap1\n      0x0100\n      exp\n      swap1\n      div\n      0xff\n      and\n        /* \"USR.sol\":28945:28975  !_isExcludedFromFee[recipient] */\n      iszero\n        /* \"USR.sol\":28772:28975  canSwap &&... */\n    tag_525:\n        /* \"USR.sol\":28754:29091  if (... */\n      iszero\n      tag_526\n      jumpi\n        /* \"USR.sol\":29013:29017  true */\n      0x01\n        /* \"USR.sol\":29002:29010  swapping */\n      0x1b\n      0x14\n        /* \"USR.sol\":29002:29017  swapping = true */\n      0x0100\n      exp\n      dup2\n      sload\n      dup2\n      0xff\n      mul\n      not\n      and\n      swap1\n      dup4\n      iszero\n      iszero\n      mul\n      or\n      swap1\n      sstore\n      pop\n        /* \"USR.sol\":29032:29048  swapAndLiquify() */\n      tag_527\n        /* \"USR.sol\":29032:29046  swapAndLiquify */\n      tag_528\n        /* \"USR.sol\":29032:29048  swapAndLiquify() */\n      jump\t// in\n    tag_527:\n        /* \"USR.sol\":29074:29079  false */\n      0x00\n        /* \"USR.sol\":29063:29071  swapping */\n      0x1b\n      0x14\n        /* \"USR.sol\":29063:29079  swapping = false */\n      0x0100\n      exp\n      dup2\n      sload\n      dup2\n      0xff\n      mul\n      not\n      and\n      swap1\n      dup4\n      iszero\n      iszero\n      mul\n      or\n      swap1\n      sstore\n      pop\n        /* \"USR.sol\":28754:29091  if (... */\n    tag_526:\n        /* \"USR.sol\":29104:29116  bool takeFee */\n      0x00\n        /* \"USR.sol\":29120:29128  swapping */\n      0x1b\n      0x14\n      swap1\n      sload\n      swap1\n      0x0100\n      exp\n      swap1\n      div\n      0xff\n      and\n        /* \"USR.sol\":29119:29128  !swapping */\n      iszero\n        /* \"USR.sol\":29104:29128  bool takeFee = !swapping */\n      swap1\n      pop\n        /* \"USR.sol\":29146:29164  _isExcludedFromFee */\n      0x07\n        /* \"USR.sol\":29146:29172  _isExcludedFromFee[sender] */\n      0x00\n        /* \"USR.sol\":29165:29171  sender */\n      dup13\n        /* \"USR.sol\":29146:29172  _isExcludedFromFee[sender] */\n      0xffffffffffffffffffffffffffffffffffffffff\n      and\n      0xffffffffffffffffffffffffffffffffffffffff\n      and\n      dup2\n      mstore\n      0x20\n      add\n      swap1\n      dup2\n      mstore\n      0x20\n      add\n      0x00\n      keccak256\n      0x00\n      swap1\n      sload\n      swap1\n      0x0100\n      exp\n      swap1\n      div\n      0xff\n      and\n        /* \"USR.sol\":29146:29205  _isExcludedFromFee[sender] || _isExcludedFromFee[recipient] */\n      dup1\n      tag_529\n      jumpi\n      pop\n        /* \"USR.sol\":29176:29194  _isExcludedFromFee */\n      0x07\n        /* \"USR.sol\":29176:29205  _isExcludedFromFee[recipient] */\n      0x00\n        /* \"USR.sol\":29195:29204  recipient */\n      dup12\n        /* \"USR.sol\":29176:29205  _isExcludedFromFee[recipient] */\n      0xffffffffffffffffffffffffffffffffffffffff\n      and\n      0xffffffffffffffffffffffffffffffffffffffff\n      and\n      dup2\n      mstore\n      0x20\n      add\n      swap1\n      dup2\n      mstore\n      0x20\n      add\n      0x00\n      keccak256\n      0x00\n      swap1\n      sload\n      swap1\n      0x0100\n      exp\n      swap1\n      div\n      0xff\n      and\n        /* \"USR.sol\":29146:29205  _isExcludedFromFee[sender] || _isExcludedFromFee[recipient] */\n    tag_529:\n        /* \"USR.sol\":29142:29249  if (_isExcludedFromFee[sender] || _isExcludedFromFee[recipient]) {... */\n      iszero\n      tag_530\n      jumpi\n        /* \"USR.sol\":29232:29237  false */\n      0x00\n        /* \"USR.sol\":29222:29237  takeFee = false */\n      swap1\n      pop\n        /* \"USR.sol\":29142:29249  if (_isExcludedFromFee[sender] || _isExcludedFromFee[recipient]) {... */\n    tag_530:\n        /* \"USR.sol\":29262:29274  uint256 fees */\n      0x00\n        /* \"USR.sol\":29296:29303  takeFee */\n      dup2\n        /* \"USR.sol\":29292:31414  if (takeFee) {... */\n      iszero\n      tag_531\n      jumpi\n        /* \"USR.sol\":29324:29349  automatedMarketMakerPairs */\n      0x06\n        /* \"USR.sol\":29324:29357  automatedMarketMakerPairs[sender] */\n      0x00\n        /* \"USR.sol\":29350:29356  sender */\n      dup14\n        /* \"USR.sol\":29324:29357  automatedMarketMakerPairs[sender] */\n      0xffffffffffffffffffffffffffffffffffffffff\n      and\n      0xffffffffffffffffffffffffffffffffffffffff\n      and\n      dup2\n      mstore\n      0x20\n      add\n      swap1\n      dup2\n      mstore\n      0x20\n      add\n      0x00\n      keccak256\n      0x00\n      swap1\n      sload\n      swap1\n      0x0100\n      exp\n      swap1\n      div\n      0xff\n      and\n        /* \"USR.sol\":29324:29366  automatedMarketMakerPairs[sender] && isBuy */\n      dup1\n      iszero\n      tag_532\n      jumpi\n      pop\n        /* \"USR.sol\":29361:29366  isBuy */\n      dup9\n        /* \"USR.sol\":29324:29366  automatedMarketMakerPairs[sender] && isBuy */\n    tag_532:\n        /* \"USR.sol\":29320:31372  if (automatedMarketMakerPairs[sender] && isBuy) {... */\n      iszero\n      tag_533\n      jumpi\n        /* \"USR.sol\":29392:29410  _isExcludedFromFee */\n      0x07\n        /* \"USR.sol\":29392:29421  _isExcludedFromFee[recipient] */\n      0x00\n        /* \"USR.sol\":29411:29420  recipient */\n      dup13\n        /* \"USR.sol\":29392:29421  _isExcludedFromFee[recipient] */\n      0xffffffffffffffffffffffffffffffffffffffff\n      and\n      0xffffffffffffffffffffffffffffffffffffffff\n      and\n      dup2\n      mstore\n      0x20\n      add\n      swap1\n      dup2\n      mstore\n      0x20\n      add\n      0x00\n      keccak256\n      0x00\n      swap1\n      sload\n      swap1\n      0x0100\n      exp\n      swap1\n      div\n      0xff\n      and\n        /* \"USR.sol\":29387:29991  if (!_isExcludedFromFee[recipient]){... */\n      tag_534\n      jumpi\n        /* \"USR.sol\":29465:29507  _calculateTax(amount, _buyUFTaxPercentage) */\n      tag_535\n        /* \"USR.sol\":29479:29485  amount */\n      dup11\n        /* \"USR.sol\":29487:29506  _buyUFTaxPercentage */\n      sload(0x0c)\n        /* \"USR.sol\":29465:29478  _calculateTax */\n      tag_536\n        /* \"USR.sol\":29465:29507  _calculateTax(amount, _buyUFTaxPercentage) */\n      jump\t// in\n    tag_535:\n        /* \"USR.sol\":29445:29507  userFoundationTax = _calculateTax(amount, _buyUFTaxPercentage) */\n      swap5\n      pop\n        /* \"USR.sol\":29545:29594  _calculateTax(amount, _buyLiquidityTaxPercentage) */\n      tag_537\n        /* \"USR.sol\":29559:29565  amount */\n      dup11\n        /* \"USR.sol\":29567:29593  _buyLiquidityTaxPercentage */\n      sload(0x0d)\n        /* \"USR.sol\":29545:29558  _calculateTax */\n      tag_536\n        /* \"USR.sol\":29545:29594  _calculateTax(amount, _buyLiquidityTaxPercentage) */\n      jump\t// in\n    tag_537:\n        /* \"USR.sol\":29530:29594  liquidityTax = _calculateTax(amount, _buyLiquidityTaxPercentage) */\n      swap7\n      pop\n        /* \"USR.sol\":29617:29669  _transferTokens(sender, address(this), liquidityTax) */\n      tag_538\n        /* \"USR.sol\":29633:29639  sender */\n      dup13\n        /* \"USR.sol\":29649:29653  this */\n      address\n        /* \"USR.sol\":29656:29668  liquidityTax */\n      dup10\n        /* \"USR.sol\":29617:29632  _transferTokens */\n      tag_514\n        /* \"USR.sol\":29617:29669  _transferTokens(sender, address(this), liquidityTax) */\n      jump\t// in\n    tag_538:\n        /* \"USR.sol\":29720:29777  _transferTokens(sender, address(this), userFoundationTax) */\n      tag_539\n        /* \"USR.sol\":29736:29742  sender */\n      dup13\n        /* \"USR.sol\":29752:29756  this */\n      address\n        /* \"USR.sol\":29759:29776  userFoundationTax */\n      dup8\n        /* \"USR.sol\":29720:29735  _transferTokens */\n      tag_514\n        /* \"USR.sol\":29720:29777  _transferTokens(sender, address(this), userFoundationTax) */\n      jump\t// in\n    tag_539:\n        /* \"USR.sol\":29805:29817  burn_disable */\n      0x1b\n      0x16\n      swap1\n      sload\n      swap1\n      0x0100\n      exp\n      swap1\n      div\n      0xff\n      and\n        /* \"USR.sol\":29801:29972  if(!burn_disable){... */\n      tag_540\n      jumpi\n        /* \"USR.sol\":29855:29899  _calculateTax(amount, _buyBurnTaxPercentage) */\n      tag_541\n        /* \"USR.sol\":29869:29875  amount */\n      dup11\n        /* \"USR.sol\":29877:29898  _buyBurnTaxPercentage */\n      sload(0x0e)\n        /* \"USR.sol\":29855:29868  _calculateTax */\n      tag_536\n        /* \"USR.sol\":29855:29899  _calculateTax(amount, _buyBurnTaxPercentage) */\n      jump\t// in\n    tag_541:\n        /* \"USR.sol\":29845:29899  burnTax = _calculateTax(amount, _buyBurnTaxPercentage) */\n      swap6\n      pop\n        /* \"USR.sol\":29926:29948  _burn(sender, burnTax) */\n      tag_542\n        /* \"USR.sol\":29932:29938  sender */\n      dup13\n        /* \"USR.sol\":29940:29947  burnTax */\n      dup8\n        /* \"USR.sol\":29926:29931  _burn */\n      tag_543\n        /* \"USR.sol\":29926:29948  _burn(sender, burnTax) */\n      jump\t// in\n    tag_542:\n        /* \"USR.sol\":29801:29972  if(!burn_disable){... */\n    tag_540:\n        /* \"USR.sol\":29387:29991  if (!_isExcludedFromFee[recipient]){... */\n    tag_534:\n        /* \"USR.sol\":30051:30058  burnTax */\n      dup6\n        /* \"USR.sol\":30036:30048  liquidityTax */\n      dup8\n        /* \"USR.sol\":30016:30033  userFoundationTax */\n      dup7\n        /* \"USR.sol\":30016:30048  userFoundationTax + liquidityTax */\n      tag_544\n      swap2\n      swap1\n      tag_326\n      jump\t// in\n    tag_544:\n        /* \"USR.sol\":30016:30058  userFoundationTax + liquidityTax + burnTax */\n      tag_545\n      swap2\n      swap1\n      tag_326\n      jump\t// in\n    tag_545:\n        /* \"USR.sol\":30009:30058  fees = userFoundationTax + liquidityTax + burnTax */\n      swap1\n      pop\n        /* \"USR.sol\":29320:31372  if (automatedMarketMakerPairs[sender] && isBuy) {... */\n      jump(tag_546)\n    tag_533:\n        /* \"USR.sol\":30101:30126  automatedMarketMakerPairs */\n      0x06\n        /* \"USR.sol\":30101:30137  automatedMarketMakerPairs[recipient] */\n      0x00\n        /* \"USR.sol\":30127:30136  recipient */\n      dup13\n        /* \"USR.sol\":30101:30137  automatedMarketMakerPairs[recipient] */\n      0xffffffffffffffffffffffffffffffffffffffff\n      and\n      0xffffffffffffffffffffffffffffffffffffffff\n      and\n      dup2\n      mstore\n      0x20\n      add\n      swap1\n      dup2\n      mstore\n      0x20\n      add\n      0x00\n      keccak256\n      0x00\n      swap1\n      sload\n      swap1\n      0x0100\n      exp\n      swap1\n      div\n      0xff\n      and\n        /* \"USR.sol\":30101:30147  automatedMarketMakerPairs[recipient] && isSell */\n      dup1\n      iszero\n      tag_547\n      jumpi\n      pop\n        /* \"USR.sol\":30141:30147  isSell */\n      dup8\n        /* \"USR.sol\":30101:30147  automatedMarketMakerPairs[recipient] && isSell */\n    tag_547:\n        /* \"USR.sol\":30097:31372  if (automatedMarketMakerPairs[recipient] && isSell) {... */\n      iszero\n      tag_548\n      jumpi\n        /* \"USR.sol\":30173:30191  _isExcludedFromFee */\n      0x07\n        /* \"USR.sol\":30173:30199  _isExcludedFromFee[sender] */\n      0x00\n        /* \"USR.sol\":30192:30198  sender */\n      dup14\n        /* \"USR.sol\":30173:30199  _isExcludedFromFee[sender] */\n      0xffffffffffffffffffffffffffffffffffffffff\n      and\n      0xffffffffffffffffffffffffffffffffffffffff\n      and\n      dup2\n      mstore\n      0x20\n      add\n      swap1\n      dup2\n      mstore\n      0x20\n      add\n      0x00\n      keccak256\n      0x00\n      swap1\n      sload\n      swap1\n      0x0100\n      exp\n      swap1\n      div\n      0xff\n      and\n        /* \"USR.sol\":30168:30794  if (!_isExcludedFromFee[sender]){... */\n      tag_549\n      jumpi\n        /* \"USR.sol\":30243:30286  _calculateTax(amount, _sellUFTaxPercentage) */\n      tag_550\n        /* \"USR.sol\":30257:30263  amount */\n      dup11\n        /* \"USR.sol\":30265:30285  _sellUFTaxPercentage */\n      sload(0x0f)\n        /* \"USR.sol\":30243:30256  _calculateTax */\n      tag_536\n        /* \"USR.sol\":30243:30286  _calculateTax(amount, _sellUFTaxPercentage) */\n      jump\t// in\n    tag_550:\n        /* \"USR.sol\":30223:30286  userFoundationTax = _calculateTax(amount, _sellUFTaxPercentage) */\n      swap5\n      pop\n        /* \"USR.sol\":30324:30374  _calculateTax(amount, _sellLiquidityTaxPercentage) */\n      tag_551\n        /* \"USR.sol\":30338:30344  amount */\n      dup11\n        /* \"USR.sol\":30346:30373  _sellLiquidityTaxPercentage */\n      sload(0x10)\n        /* \"USR.sol\":30324:30337  _calculateTax */\n      tag_536\n        /* \"USR.sol\":30324:30374  _calculateTax(amount, _sellLiquidityTaxPercentage) */\n      jump\t// in\n    tag_551:\n        /* \"USR.sol\":30309:30374  liquidityTax = _calculateTax(amount, _sellLiquidityTaxPercentage) */\n      swap7\n      pop\n        /* \"USR.sol\":30397:30454  _transferTokens(sender, address(this), userFoundationTax) */\n      tag_552\n        /* \"USR.sol\":30413:30419  sender */\n      dup13\n        /* \"USR.sol\":30429:30433  this */\n      address\n        /* \"USR.sol\":30436:30453  userFoundationTax */\n      dup8\n        /* \"USR.sol\":30397:30412  _transferTokens */\n      tag_514\n        /* \"USR.sol\":30397:30454  _transferTokens(sender, address(this), userFoundationTax) */\n      jump\t// in\n    tag_552:\n        /* \"USR.sol\":30478:30530  _transferTokens(sender, address(this), liquidityTax) */\n      tag_553\n        /* \"USR.sol\":30494:30500  sender */\n      dup13\n        /* \"USR.sol\":30510:30514  this */\n      address\n        /* \"USR.sol\":30517:30529  liquidityTax */\n      dup10\n        /* \"USR.sol\":30478:30493  _transferTokens */\n      tag_514\n        /* \"USR.sol\":30478:30530  _transferTokens(sender, address(this), liquidityTax) */\n      jump\t// in\n    tag_553:\n        /* \"USR.sol\":30607:30619  burn_disable */\n      0x1b\n      0x16\n      swap1\n      sload\n      swap1\n      0x0100\n      exp\n      swap1\n      div\n      0xff\n      and\n        /* \"USR.sol\":30603:30775  if(!burn_disable){... */\n      tag_554\n      jumpi\n        /* \"USR.sol\":30657:30702  _calculateTax(amount, _sellBurnTaxPercentage) */\n      tag_555\n        /* \"USR.sol\":30671:30677  amount */\n      dup11\n        /* \"USR.sol\":30679:30701  _sellBurnTaxPercentage */\n      sload(0x11)\n        /* \"USR.sol\":30657:30670  _calculateTax */\n      tag_536\n        /* \"USR.sol\":30657:30702  _calculateTax(amount, _sellBurnTaxPercentage) */\n      jump\t// in\n    tag_555:\n        /* \"USR.sol\":30647:30702  burnTax = _calculateTax(amount, _sellBurnTaxPercentage) */\n      swap6\n      pop\n        /* \"USR.sol\":30729:30751  _burn(sender, burnTax) */\n      tag_556\n        /* \"USR.sol\":30735:30741  sender */\n      dup13\n        /* \"USR.sol\":30743:30750  burnTax */\n      dup8\n        /* \"USR.sol\":30729:30734  _burn */\n      tag_543\n        /* \"USR.sol\":30729:30751  _burn(sender, burnTax) */\n      jump\t// in\n    tag_556:\n        /* \"USR.sol\":30603:30775  if(!burn_disable){... */\n    tag_554:\n        /* \"USR.sol\":30168:30794  if (!_isExcludedFromFee[sender]){... */\n    tag_549:\n        /* \"USR.sol\":30854:30861  burnTax */\n      dup6\n        /* \"USR.sol\":30839:30851  liquidityTax */\n      dup8\n        /* \"USR.sol\":30819:30836  userFoundationTax */\n      dup7\n        /* \"USR.sol\":30819:30851  userFoundationTax + liquidityTax */\n      tag_557\n      swap2\n      swap1\n      tag_326\n      jump\t// in\n    tag_557:\n        /* \"USR.sol\":30819:30861  userFoundationTax + liquidityTax + burnTax */\n      tag_558\n      swap2\n      swap1\n      tag_326\n      jump\t// in\n    tag_558:\n        /* \"USR.sol\":30812:30861  fees = userFoundationTax + liquidityTax + burnTax */\n      swap1\n      pop\n        /* \"USR.sol\":30097:31372  if (automatedMarketMakerPairs[recipient] && isSell) {... */\n      jump(tag_559)\n    tag_548:\n        /* \"USR.sol\":30902:30907  isBuy */\n      dup9\n        /* \"USR.sol\":30901:30907  !isBuy */\n      iszero\n        /* \"USR.sol\":30901:30918  !isBuy && !isSell */\n      dup1\n      iszero\n      tag_560\n      jumpi\n      pop\n        /* \"USR.sol\":30912:30918  isSell */\n      dup8\n        /* \"USR.sol\":30911:30918  !isSell */\n      iszero\n        /* \"USR.sol\":30901:30918  !isBuy && !isSell */\n    tag_560:\n        /* \"USR.sol\":30898:31372  if(!isBuy && !isSell){... */\n      iszero\n      tag_561\n      jumpi\n        /* \"USR.sol\":30953:31007  _calculateTax(amount, _transferLiquidityTaxPercentage) */\n      tag_562\n        /* \"USR.sol\":30967:30973  amount */\n      dup11\n        /* \"USR.sol\":30975:31006  _transferLiquidityTaxPercentage */\n      sload(0x12)\n        /* \"USR.sol\":30953:30966  _calculateTax */\n      tag_536\n        /* \"USR.sol\":30953:31007  _calculateTax(amount, _transferLiquidityTaxPercentage) */\n      jump\t// in\n    tag_562:\n        /* \"USR.sol\":30938:31007  liquidityTax = _calculateTax(amount, _transferLiquidityTaxPercentage) */\n      swap7\n      pop\n        /* \"USR.sol\":31026:31078  _transferTokens(sender, address(this), liquidityTax) */\n      tag_563\n        /* \"USR.sol\":31042:31048  sender */\n      dup13\n        /* \"USR.sol\":31058:31062  this */\n      address\n        /* \"USR.sol\":31065:31077  liquidityTax */\n      dup10\n        /* \"USR.sol\":31026:31041  _transferTokens */\n      tag_514\n        /* \"USR.sol\":31026:31078  _transferTokens(sender, address(this), liquidityTax) */\n      jump\t// in\n    tag_563:\n        /* \"USR.sol\":31147:31159  burn_disable */\n      0x1b\n      0x16\n      swap1\n      sload\n      swap1\n      0x0100\n      exp\n      swap1\n      div\n      0xff\n      and\n        /* \"USR.sol\":31143:31307  if(!burn_disable){... */\n      tag_564\n      jumpi\n        /* \"USR.sol\":31193:31242  _calculateTax(amount, _transferBurnTaxPercentage) */\n      tag_565\n        /* \"USR.sol\":31207:31213  amount */\n      dup11\n        /* \"USR.sol\":31215:31241  _transferBurnTaxPercentage */\n      sload(0x13)\n        /* \"USR.sol\":31193:31206  _calculateTax */\n      tag_536\n        /* \"USR.sol\":31193:31242  _calculateTax(amount, _transferBurnTaxPercentage) */\n      jump\t// in\n    tag_565:\n        /* \"USR.sol\":31183:31242  burnTax = _calculateTax(amount, _transferBurnTaxPercentage) */\n      swap6\n      pop\n        /* \"USR.sol\":31265:31287  _burn(sender, burnTax) */\n      tag_566\n        /* \"USR.sol\":31271:31277  sender */\n      dup13\n        /* \"USR.sol\":31279:31286  burnTax */\n      dup8\n        /* \"USR.sol\":31265:31270  _burn */\n      tag_543\n        /* \"USR.sol\":31265:31287  _burn(sender, burnTax) */\n      jump\t// in\n    tag_566:\n        /* \"USR.sol\":31143:31307  if(!burn_disable){... */\n    tag_564:\n        /* \"USR.sol\":31349:31356  burnTax */\n      dup6\n        /* \"USR.sol\":31334:31346  liquidityTax */\n      dup8\n        /* \"USR.sol\":31334:31356  liquidityTax + burnTax */\n      tag_567\n      swap2\n      swap1\n      tag_326\n      jump\t// in\n    tag_567:\n        /* \"USR.sol\":31327:31356  fees = liquidityTax + burnTax */\n      swap1\n      pop\n        /* \"USR.sol\":30898:31372  if(!isBuy && !isSell){... */\n    tag_561:\n        /* \"USR.sol\":30097:31372  if (automatedMarketMakerPairs[recipient] && isSell) {... */\n    tag_559:\n        /* \"USR.sol\":29320:31372  if (automatedMarketMakerPairs[sender] && isBuy) {... */\n    tag_546:\n        /* \"USR.sol\":31398:31402  fees */\n      dup1\n        /* \"USR.sol\":31388:31402  amount -= fees */\n      dup11\n      tag_568\n      swap2\n      swap1\n      tag_569\n      jump\t// in\n    tag_568:\n      swap10\n      pop\n        /* \"USR.sol\":29292:31414  if (takeFee) {... */\n    tag_531:\n        /* \"USR.sol\":31426:31468  _transferTokens(sender, recipient, amount) */\n      tag_570\n        /* \"USR.sol\":31442:31448  sender */\n      dup13\n        /* \"USR.sol\":31450:31459  recipient */\n      dup13\n        /* \"USR.sol\":31461:31467  amount */\n      dup13\n        /* \"USR.sol\":31426:31441  _transferTokens */\n      tag_514\n        /* \"USR.sol\":31426:31468  _transferTokens(sender, recipient, amount) */\n      jump\t// in\n    tag_570:\n        /* \"USR.sol\":27420:31479  {... */\n      pop\n      pop\n      pop\n      pop\n      pop\n      pop\n      pop\n      pop\n      pop\n        /* \"USR.sol\":27341:31479  function _transfer(address sender, address recipient, uint256 amount) internal {... */\n    tag_490:\n      pop\n      pop\n      pop\n      jump\t// out\n        /* \"USR.sol\":3771:3869  function _msgSender() internal view virtual returns (address) {... */\n    tag_363:\n        /* \"USR.sol\":3824:3831  address */\n      0x00\n        /* \"USR.sol\":3851:3861  msg.sender */\n      caller\n        /* \"USR.sol\":3844:3861  return msg.sender */\n      swap1\n      pop\n        /* \"USR.sol\":3771:3869  function _msgSender() internal view virtual returns (address) {... */\n      swap1\n      jump\t// out\n        /* \"USR.sol\":6403:6594  function _transferOwnership(address newOwner) internal virtual {... */\n    tag_395:\n        /* \"USR.sol\":6477:6493  address oldOwner */\n      0x00\n        /* \"USR.sol\":6496:6502  _owner */\n      dup1\n      0x00\n      swap1\n      sload\n      swap1\n      0x0100\n      exp\n      swap1\n      div\n      0xffffffffffffffffffffffffffffffffffffffff\n      and\n        /* \"USR.sol\":6477:6502  address oldOwner = _owner */\n      swap1\n      pop\n        /* \"USR.sol\":6522:6530  newOwner */\n      dup2\n        /* \"USR.sol\":6513:6519  _owner */\n      0x00\n      dup1\n        /* \"USR.sol\":6513:6530  _owner = newOwner */\n      0x0100\n      exp\n      dup2\n      sload\n      dup2\n      0xffffffffffffffffffffffffffffffffffffffff\n      mul\n      not\n      and\n      swap1\n      dup4\n      0xffffffffffffffffffffffffffffffffffffffff\n      and\n      mul\n      or\n      swap1\n      sstore\n      pop\n        /* \"USR.sol\":6577:6585  newOwner */\n      dup2\n        /* \"USR.sol\":6546:6586  OwnershipTransferred(oldOwner, newOwner) */\n      0xffffffffffffffffffffffffffffffffffffffff\n      and\n        /* \"USR.sol\":6567:6575  oldOwner */\n      dup2\n        /* \"USR.sol\":6546:6586  OwnershipTransferred(oldOwner, newOwner) */\n      0xffffffffffffffffffffffffffffffffffffffff\n      and\n      0x8be0079c531659141344cd1fd0a4f28419497f9722a3daafe3b4186f6b6457e0\n      mload(0x40)\n      mload(0x40)\n      dup1\n      swap2\n      sub\n      swap1\n      log3\n        /* \"USR.sol\":6466:6594  {... */\n      pop\n        /* \"USR.sol\":6403:6594  function _transferOwnership(address newOwner) internal virtual {... */\n      pop\n      jump\t// out\n        /* \"USR.sol\":20475:20605  function _setAutomatedMarketMakerPair(address pair, bool value) private {... */\n    tag_412:\n        /* \"USR.sol\":20592:20597  value */\n      dup1\n        /* \"USR.sol\":20558:20583  automatedMarketMakerPairs */\n      0x06\n        /* \"USR.sol\":20558:20589  automatedMarketMakerPairs[pair] */\n      0x00\n        /* \"USR.sol\":20584:20588  pair */\n      dup5\n        /* \"USR.sol\":20558:20589  automatedMarketMakerPairs[pair] */\n      0xffffffffffffffffffffffffffffffffffffffff\n      and\n      0xffffffffffffffffffffffffffffffffffffffff\n      and\n      dup2\n      mstore\n      0x20\n      add\n      swap1\n      dup2\n      mstore\n      0x20\n      add\n      0x00\n      keccak256\n      0x00\n        /* \"USR.sol\":20558:20597  automatedMarketMakerPairs[pair] = value */\n      0x0100\n      exp\n      dup2\n      sload\n      dup2\n      0xff\n      mul\n      not\n      and\n      swap1\n      dup4\n      iszero\n      iszero\n      mul\n      or\n      swap1\n      sstore\n      pop\n        /* \"USR.sol\":20475:20605  function _setAutomatedMarketMakerPair(address pair, bool value) private {... */\n      pop\n      pop\n      jump\t// out\n        /* \"USR.sol\":19528:20155  function _transferTokens(... */\n    tag_514:\n        /* \"USR.sol\":19657:19676  uint256 fromBalance */\n      0x00\n        /* \"USR.sol\":19679:19688  _balances */\n      0x03\n        /* \"USR.sol\":19679:19694  _balances[from] */\n      0x00\n        /* \"USR.sol\":19689:19693  from */\n      dup6\n        /* \"USR.sol\":19679:19694  _balances[from] */\n      0xffffffffffffffffffffffffffffffffffffffff\n      and\n      0xffffffffffffffffffffffffffffffffffffffff\n      and\n      dup2\n      mstore\n      0x20\n      add\n      swap1\n      dup2\n      mstore\n      0x20\n      add\n      0x00\n      keccak256\n      sload\n        /* \"USR.sol\":19657:19694  uint256 fromBalance = _balances[from] */\n      swap1\n      pop\n        /* \"USR.sol\":19742:19748  amount */\n      dup2\n        /* \"USR.sol\":19727:19738  fromBalance */\n      dup2\n        /* \"USR.sol\":19727:19748  fromBalance >= amount */\n      lt\n      iszero\n        /* \"USR.sol\":19705:19814  require(... */\n      tag_575\n      jumpi\n      mload(0x40)\n      0x08c379a000000000000000000000000000000000000000000000000000000000\n      dup2\n      mstore\n      0x04\n      add\n      tag_576\n      swap1\n      tag_577\n      jump\t// in\n    tag_576:\n      mload(0x40)\n      dup1\n      swap2\n      sub\n      swap1\n      revert\n    tag_575:\n        /* \"USR.sol\":19882:19888  amount */\n      dup2\n        /* \"USR.sol\":19868:19879  fromBalance */\n      dup2\n        /* \"USR.sol\":19868:19888  fromBalance - amount */\n      sub\n        /* \"USR.sol\":19850:19859  _balances */\n      0x03\n        /* \"USR.sol\":19850:19865  _balances[from] */\n      0x00\n        /* \"USR.sol\":19860:19864  from */\n      dup7\n        /* \"USR.sol\":19850:19865  _balances[from] */\n      0xffffffffffffffffffffffffffffffffffffffff\n      and\n      0xffffffffffffffffffffffffffffffffffffffff\n      and\n      dup2\n      mstore\n      0x20\n      add\n      swap1\n      dup2\n      mstore\n      0x20\n      add\n      0x00\n      keccak256\n        /* \"USR.sol\":19850:19888  _balances[from] = fromBalance - amount */\n      dup2\n      swap1\n      sstore\n      pop\n        /* \"USR.sol\":20085:20091  amount */\n      dup2\n        /* \"USR.sol\":20068:20077  _balances */\n      0x03\n        /* \"USR.sol\":20068:20081  _balances[to] */\n      0x00\n        /* \"USR.sol\":20078:20080  to */\n      dup6\n        /* \"USR.sol\":20068:20081  _balances[to] */\n      0xffffffffffffffffffffffffffffffffffffffff\n      and\n      0xffffffffffffffffffffffffffffffffffffffff\n      and\n      dup2\n      mstore\n      0x20\n      add\n      swap1\n      dup2\n      mstore\n      0x20\n      add\n      0x00\n      keccak256\n      0x00\n        /* \"USR.sol\":20068:20091  _balances[to] += amount */\n      dup3\n      dup3\n      sload\n      add\n      swap3\n      pop\n      pop\n      dup2\n      swap1\n      sstore\n      pop\n        /* \"USR.sol\":20136:20138  to */\n      dup3\n        /* \"USR.sol\":20121:20147  Transfer(from, to, amount) */\n      0xffffffffffffffffffffffffffffffffffffffff\n      and\n        /* \"USR.sol\":20130:20134  from */\n      dup5\n        /* \"USR.sol\":20121:20147  Transfer(from, to, amount) */\n      0xffffffffffffffffffffffffffffffffffffffff\n      and\n      0xddf252ad1be2c89b69c2b068fc378daa952ba7f163c4a11628f55a4df523b3ef\n        /* \"USR.sol\":20140:20146  amount */\n      dup5\n        /* \"USR.sol\":20121:20147  Transfer(from, to, amount) */\n      mload(0x40)\n      tag_578\n      swap2\n      swap1\n      tag_102\n      jump\t// in\n    tag_578:\n      mload(0x40)\n      dup1\n      swap2\n      sub\n      swap1\n      log3\n        /* \"USR.sol\":19646:20155  {... */\n      pop\n        /* \"USR.sol\":19528:20155  function _transferTokens(... */\n      pop\n      pop\n      pop\n      jump\t// out\n        /* \"USR.sol\":25666:26806  function swapAndLiquify() internal {... */\n    tag_528:\n        /* \"USR.sol\":25715:25743  uint256 contractTokenBalance */\n      0x00\n        /* \"USR.sol\":25746:25770  balanceOf(address(this)) */\n      tag_580\n        /* \"USR.sol\":25764:25768  this */\n      address\n        /* \"USR.sol\":25746:25755  balanceOf */\n      tag_206\n        /* \"USR.sol\":25746:25770  balanceOf(address(this)) */\n      jump\t// in\n    tag_580:\n        /* \"USR.sol\":25715:25770  uint256 contractTokenBalance = balanceOf(address(this)) */\n      swap1\n      pop\n        /* \"USR.sol\":25781:25808  uint256 totalLiquidityShare */\n      0x00\n        /* \"USR.sol\":25854:25877  _transferLiquidityShare */\n      sload(0x18)\n        /* \"USR.sol\":25832:25851  _sellLiquidityShare */\n      sload(0x17)\n        /* \"USR.sol\":25811:25829  _buyLiquidityShare */\n      sload(0x15)\n        /* \"USR.sol\":25811:25851  _buyLiquidityShare + _sellLiquidityShare */\n      tag_581\n      swap2\n      swap1\n      tag_326\n      jump\t// in\n    tag_581:\n        /* \"USR.sol\":25811:25877  _buyLiquidityShare + _sellLiquidityShare + _transferLiquidityShare */\n      tag_582\n      swap2\n      swap1\n      tag_326\n      jump\t// in\n    tag_582:\n        /* \"USR.sol\":25781:25877  uint256 totalLiquidityShare = _buyLiquidityShare + _sellLiquidityShare + _transferLiquidityShare */\n      swap1\n      pop\n        /* \"USR.sol\":25919:25932  _taxThreshold */\n      sload(0x02)\n        /* \"USR.sol\":25895:25915  contractTokenBalance */\n      dup3\n        /* \"USR.sol\":25895:25932  contractTokenBalance >= _taxThreshold */\n      lt\n        /* \"USR.sol\":25891:26799  if (contractTokenBalance >= _taxThreshold) {... */\n      tag_583\n      jumpi\n        /* \"USR.sol\":25949:25964  uint256 liqHalf */\n      0x00\n        /* \"USR.sol\":26015:26025  100000 * 2 */\n      0x030d40\n        /* \"USR.sol\":25991:26010  totalLiquidityShare */\n      dup3\n        /* \"USR.sol\":25968:25988  contractTokenBalance */\n      dup5\n        /* \"USR.sol\":25968:26010  contractTokenBalance * totalLiquidityShare */\n      tag_584\n      swap2\n      swap1\n      tag_472\n      jump\t// in\n    tag_584:\n        /* \"USR.sol\":25967:26026  (contractTokenBalance * totalLiquidityShare) / (100000 * 2) */\n      tag_585\n      swap2\n      swap1\n      tag_474\n      jump\t// in\n    tag_585:\n        /* \"USR.sol\":25949:26026  uint256 liqHalf = (contractTokenBalance * totalLiquidityShare) / (100000 * 2) */\n      swap1\n      pop\n        /* \"USR.sol\":26041:26061  uint256 tokensToSwap */\n      0x00\n        /* \"USR.sol\":26087:26094  liqHalf */\n      dup2\n        /* \"USR.sol\":26064:26084  contractTokenBalance */\n      dup5\n        /* \"USR.sol\":26064:26094  contractTokenBalance - liqHalf */\n      tag_586\n      swap2\n      swap1\n      tag_569\n      jump\t// in\n    tag_586:\n        /* \"USR.sol\":26041:26094  uint256 tokensToSwap = contractTokenBalance - liqHalf */\n      swap1\n      pop\n        /* \"USR.sol\":26113:26135  uint256 initialBalance */\n      0x00\n        /* \"USR.sol\":26138:26159  address(this).balance */\n      selfbalance\n        /* \"USR.sol\":26113:26159  uint256 initialBalance = address(this).balance */\n      swap1\n      pop\n        /* \"USR.sol\":26177:26207  swapTokensForEth(tokensToSwap) */\n      tag_587\n        /* \"USR.sol\":26194:26206  tokensToSwap */\n      dup3\n        /* \"USR.sol\":26177:26193  swapTokensForEth */\n      tag_588\n        /* \"USR.sol\":26177:26207  swapTokensForEth(tokensToSwap) */\n      jump\t// in\n    tag_587:\n        /* \"USR.sol\":26225:26243  uint256 newBalance */\n      0x00\n        /* \"USR.sol\":26271:26285  initialBalance */\n      dup2\n        /* \"USR.sol\":26246:26267  address(this).balance */\n      selfbalance\n        /* \"USR.sol\":26246:26286  address(this).balance - (initialBalance) */\n      tag_589\n      swap2\n      swap1\n      tag_569\n      jump\t// in\n    tag_589:\n        /* \"USR.sol\":26225:26286  uint256 newBalance = address(this).balance - (initialBalance) */\n      swap1\n      pop\n        /* \"USR.sol\":26304:26316  bool success */\n      0x00\n        /* \"USR.sol\":26334:26353  uint256 buyUFAmount */\n      dup1\n        /* \"USR.sol\":26385:26391  100000 */\n      0x0186a0\n        /* \"USR.sol\":26370:26381  _buyUFShare */\n      sload(0x14)\n        /* \"USR.sol\":26357:26367  newBalance */\n      dup5\n        /* \"USR.sol\":26357:26381  newBalance * _buyUFShare */\n      tag_590\n      swap2\n      swap1\n      tag_472\n      jump\t// in\n    tag_590:\n        /* \"USR.sol\":26356:26391  (newBalance * _buyUFShare) / 100000 */\n      tag_591\n      swap2\n      swap1\n      tag_474\n      jump\t// in\n    tag_591:\n        /* \"USR.sol\":26334:26391  uint256 buyUFAmount = (newBalance * _buyUFShare) / 100000 */\n      swap1\n      pop\n        /* \"USR.sol\":26406:26426  uint256 sellUFAmount */\n      0x00\n        /* \"USR.sol\":26459:26465  100000 */\n      0x0186a0\n        /* \"USR.sol\":26443:26455  _sellUFShare */\n      sload(0x16)\n        /* \"USR.sol\":26430:26440  newBalance */\n      dup6\n        /* \"USR.sol\":26430:26455  newBalance * _sellUFShare */\n      tag_592\n      swap2\n      swap1\n      tag_472\n      jump\t// in\n    tag_592:\n        /* \"USR.sol\":26429:26465  (newBalance * _sellUFShare) / 100000 */\n      tag_593\n      swap2\n      swap1\n      tag_474\n      jump\t// in\n    tag_593:\n        /* \"USR.sol\":26406:26465  uint256 sellUFAmount = (newBalance * _sellUFShare) / 100000 */\n      swap1\n      pop\n        /* \"USR.sol\":26483:26504  uint256 totalUFAmount */\n      0x00\n        /* \"USR.sol\":26521:26533  sellUFAmount */\n      dup2\n        /* \"USR.sol\":26507:26518  buyUFAmount */\n      dup4\n        /* \"USR.sol\":26507:26533  buyUFAmount + sellUFAmount */\n      tag_594\n      swap2\n      swap1\n      tag_326\n      jump\t// in\n    tag_594:\n        /* \"USR.sol\":26483:26533  uint256 totalUFAmount = buyUFAmount + sellUFAmount */\n      swap1\n      pop\n        /* \"USR.sol\":26577:26590  totalUFAmount */\n      dup1\n        /* \"USR.sol\":26564:26574  newBalance */\n      dup6\n        /* \"USR.sol\":26564:26590  newBalance - totalUFAmount */\n      tag_595\n      swap2\n      swap1\n      tag_569\n      jump\t// in\n    tag_595:\n        /* \"USR.sol\":26551:26590  newBalance = newBalance - totalUFAmount */\n      swap5\n      pop\n        /* \"USR.sol\":26622:26636  userFoundation */\n      0x0b\n      0x00\n      swap1\n      sload\n      swap1\n      0x0100\n      exp\n      swap1\n      div\n      0xffffffffffffffffffffffffffffffffffffffff\n      and\n        /* \"USR.sol\":26622:26641  userFoundation.call */\n      0xffffffffffffffffffffffffffffffffffffffff\n      and\n        /* \"USR.sol\":26649:26662  totalUFAmount */\n      dup2\n        /* \"USR.sol\":26669:26674  35000 */\n      0x88b8\n        /* \"USR.sol\":26622:26679  userFoundation.call{value: totalUFAmount, gas: 35000}(\"\") */\n      swap1\n      mload(0x40)\n      tag_596\n      swap1\n      tag_597\n      jump\t// in\n    tag_596:\n      0x00\n      mload(0x40)\n      dup1\n      dup4\n      sub\n      dup2\n      dup6\n      dup9\n      dup9\n      call\n      swap4\n      pop\n      pop\n      pop\n      pop\n      returndatasize\n      dup1\n      0x00\n      dup2\n      eq\n      tag_600\n      jumpi\n      mload(0x40)\n      swap2\n      pop\n      and(add(returndatasize, 0x3f), not(0x1f))\n      dup3\n      add\n      0x40\n      mstore\n      returndatasize\n      dup3\n      mstore\n      returndatasize\n      0x00\n      0x20\n      dup5\n      add\n      returndatacopy\n      jump(tag_599)\n    tag_600:\n      0x60\n      swap2\n      pop\n    tag_599:\n      pop\n        /* \"USR.sol\":26609:26679  (success,) = userFoundation.call{value: totalUFAmount, gas: 35000}(\"\") */\n      pop\n      dup1\n      swap5\n      pop\n      pop\n        /* \"USR.sol\":26714:26715  0 */\n      0x00\n        /* \"USR.sol\":26701:26711  newBalance */\n      dup6\n        /* \"USR.sol\":26701:26715  newBalance > 0 */\n      gt\n        /* \"USR.sol\":26697:26785  if (newBalance > 0) {... */\n      iszero\n      tag_601\n      jumpi\n        /* \"USR.sol\":26736:26769  addLiquidity(liqHalf, newBalance) */\n      tag_602\n        /* \"USR.sol\":26749:26756  liqHalf */\n      dup9\n        /* \"USR.sol\":26758:26768  newBalance */\n      dup7\n        /* \"USR.sol\":26736:26748  addLiquidity */\n      tag_603\n        /* \"USR.sol\":26736:26769  addLiquidity(liqHalf, newBalance) */\n      jump\t// in\n    tag_602:\n        /* \"USR.sol\":26697:26785  if (newBalance > 0) {... */\n    tag_601:\n        /* \"USR.sol\":25934:26799  {... */\n      pop\n      pop\n      pop\n      pop\n      pop\n      pop\n      pop\n      pop\n        /* \"USR.sol\":25891:26799  if (contractTokenBalance >= _taxThreshold) {... */\n    tag_583:\n        /* \"USR.sol\":25701:26806  {... */\n      pop\n      pop\n        /* \"USR.sol\":25666:26806  function swapAndLiquify() internal {... */\n      jump\t// out\n        /* \"USR.sol\":31494:31649  function _calculateTax(uint256 amount, uint256 taxPercentage) internal pure returns (uint256) {... */\n    tag_536:\n        /* \"USR.sol\":31579:31586  uint256 */\n      0x00\n        /* \"USR.sol\":31634:31640  100000 */\n      0x0186a0\n        /* \"USR.sol\":31616:31629  taxPercentage */\n      dup3\n        /* \"USR.sol\":31606:31612  amount */\n      dup5\n        /* \"USR.sol\":31606:31630  amount * (taxPercentage) */\n      tag_605\n      swap2\n      swap1\n      tag_472\n      jump\t// in\n    tag_605:\n        /* \"USR.sol\":31606:31641  amount * (taxPercentage) / (100000) */\n      tag_606\n      swap2\n      swap1\n      tag_474\n      jump\t// in\n    tag_606:\n        /* \"USR.sol\":31599:31641  return amount * (taxPercentage) / (100000) */\n      swap1\n      pop\n        /* \"USR.sol\":31494:31649  function _calculateTax(uint256 amount, uint256 taxPercentage) internal pure returns (uint256) {... */\n      swap3\n      swap2\n      pop\n      pop\n      jump\t// out\n        /* \"USR.sol\":18579:19254  function _burn(address account, uint256 amount) internal virtual {... */\n    tag_543:\n        /* \"USR.sol\":18682:18683  0 */\n      0x00\n        /* \"USR.sol\":18663:18684  account != address(0) */\n      0xffffffffffffffffffffffffffffffffffffffff\n      and\n        /* \"USR.sol\":18663:18670  account */\n      dup3\n        /* \"USR.sol\":18663:18684  account != address(0) */\n      0xffffffffffffffffffffffffffffffffffffffff\n      and\n      sub\n        /* \"USR.sol\":18655:18722  require(account != address(0), \"ERC20: burn from the zero address\") */\n      tag_608\n      jumpi\n      mload(0x40)\n      0x08c379a000000000000000000000000000000000000000000000000000000000\n      dup2\n      mstore\n      0x04\n      add\n      tag_609\n      swap1\n      tag_610\n      jump\t// in\n    tag_609:\n      mload(0x40)\n      dup1\n      swap2\n      sub\n      swap1\n      revert\n    tag_608:\n        /* \"USR.sol\":18735:18784  _beforeTokenTransfer(account, address(0), amount) */\n      tag_611\n        /* \"USR.sol\":18756:18763  account */\n      dup3\n        /* \"USR.sol\":18773:18774  0 */\n      0x00\n        /* \"USR.sol\":18777:18783  amount */\n      dup4\n        /* \"USR.sol\":18735:18755  _beforeTokenTransfer */\n      tag_612\n        /* \"USR.sol\":18735:18784  _beforeTokenTransfer(account, address(0), amount) */\n      jump\t// in\n    tag_611:\n        /* \"USR.sol\":18797:18819  uint256 accountBalance */\n      0x00\n        /* \"USR.sol\":18822:18831  _balances */\n      0x03\n        /* \"USR.sol\":18822:18840  _balances[account] */\n      0x00\n        /* \"USR.sol\":18832:18839  account */\n      dup5\n        /* \"USR.sol\":18822:18840  _balances[account] */\n      0xffffffffffffffffffffffffffffffffffffffff\n      and\n      0xffffffffffffffffffffffffffffffffffffffff\n      and\n      dup2\n      mstore\n      0x20\n      add\n      swap1\n      dup2\n      mstore\n      0x20\n      add\n      0x00\n      keccak256\n      sload\n        /* \"USR.sol\":18797:18840  uint256 accountBalance = _balances[account] */\n      swap1\n      pop\n        /* \"USR.sol\":18877:18883  amount */\n      dup2\n        /* \"USR.sol\":18859:18873  accountBalance */\n      dup2\n        /* \"USR.sol\":18859:18883  accountBalance >= amount */\n      lt\n      iszero\n        /* \"USR.sol\":18851:18922  require(accountBalance >= amount, \"ERC20: burn amount exceeds balance\") */\n      tag_613\n      jumpi\n      mload(0x40)\n      0x08c379a000000000000000000000000000000000000000000000000000000000\n      dup2\n      mstore\n      0x04\n      add\n      tag_614\n      swap1\n      tag_615\n      jump\t// in\n    tag_614:\n      mload(0x40)\n      dup1\n      swap2\n      sub\n      swap1\n      revert\n    tag_613:\n        /* \"USR.sol\":18996:19002  amount */\n      dup2\n        /* \"USR.sol\":18979:18993  accountBalance */\n      dup2\n        /* \"USR.sol\":18979:19002  accountBalance - amount */\n      sub\n        /* \"USR.sol\":18958:18967  _balances */\n      0x03\n        /* \"USR.sol\":18958:18976  _balances[account] */\n      0x00\n        /* \"USR.sol\":18968:18975  account */\n      dup6\n        /* \"USR.sol\":18958:18976  _balances[account] */\n      0xffffffffffffffffffffffffffffffffffffffff\n      and\n      0xffffffffffffffffffffffffffffffffffffffff\n      and\n      dup2\n      mstore\n      0x20\n      add\n      swap1\n      dup2\n      mstore\n      0x20\n      add\n      0x00\n      keccak256\n        /* \"USR.sol\":18958:19002  _balances[account] = accountBalance - amount */\n      dup2\n      swap1\n      sstore\n      pop\n        /* \"USR.sol\":19113:19119  amount */\n      dup2\n        /* \"USR.sol\":19097:19109  _totalSupply */\n      0x01\n      0x00\n        /* \"USR.sol\":19097:19119  _totalSupply -= amount */\n      dup3\n      dup3\n      sload\n      sub\n      swap3\n      pop\n      pop\n      dup2\n      swap1\n      sstore\n      pop\n        /* \"USR.sol\":19174:19175  0 */\n      0x00\n        /* \"USR.sol\":19148:19185  Transfer(account, address(0), amount) */\n      0xffffffffffffffffffffffffffffffffffffffff\n      and\n        /* \"USR.sol\":19157:19164  account */\n      dup4\n        /* \"USR.sol\":19148:19185  Transfer(account, address(0), amount) */\n      0xffffffffffffffffffffffffffffffffffffffff\n      and\n      0xddf252ad1be2c89b69c2b068fc378daa952ba7f163c4a11628f55a4df523b3ef\n        /* \"USR.sol\":19178:19184  amount */\n      dup5\n        /* \"USR.sol\":19148:19185  Transfer(account, address(0), amount) */\n      mload(0x40)\n      tag_616\n      swap2\n      swap1\n      tag_102\n      jump\t// in\n    tag_616:\n      mload(0x40)\n      dup1\n      swap2\n      sub\n      swap1\n      log3\n        /* \"USR.sol\":19198:19246  _afterTokenTransfer(account, address(0), amount) */\n      tag_617\n        /* \"USR.sol\":19218:19225  account */\n      dup4\n        /* \"USR.sol\":19235:19236  0 */\n      0x00\n        /* \"USR.sol\":19239:19245  amount */\n      dup5\n        /* \"USR.sol\":19198:19217  _afterTokenTransfer */\n      tag_618\n        /* \"USR.sol\":19198:19246  _afterTokenTransfer(account, address(0), amount) */\n      jump\t// in\n    tag_617:\n        /* \"USR.sol\":18644:19254  {... */\n      pop\n        /* \"USR.sol\":18579:19254  function _burn(address account, uint256 amount) internal virtual {... */\n      pop\n      pop\n      jump\t// out\n        /* \"USR.sol\":25066:25657  function swapTokensForEth(uint256 tokenAmount) private {... */\n    tag_588:\n        /* \"USR.sol\":25192:25213  address[] memory path */\n      0x00\n        /* \"USR.sol\":25230:25231  2 */\n      0x02\n        /* \"USR.sol\":25216:25232  new address[](2) */\n      0xffffffffffffffff\n      dup2\n      gt\n      iszero\n      tag_620\n      jumpi\n      tag_621\n      tag_622\n      jump\t// in\n    tag_621:\n    tag_620:\n      mload(0x40)\n      swap1\n      dup1\n      dup3\n      mstore\n      dup1\n      0x20\n      mul\n      0x20\n      add\n      dup3\n      add\n      0x40\n      mstore\n      dup1\n      iszero\n      tag_623\n      jumpi\n      dup2\n      0x20\n      add\n      0x20\n      dup3\n      mul\n      dup1\n      calldatasize\n      dup4\n      calldatacopy\n      dup1\n      dup3\n      add\n      swap2\n      pop\n      pop\n      swap1\n      pop\n    tag_623:\n      pop\n        /* \"USR.sol\":25192:25232  address[] memory path = new address[](2) */\n      swap1\n      pop\n        /* \"USR.sol\":25261:25265  this */\n      address\n        /* \"USR.sol\":25243:25247  path */\n      dup2\n        /* \"USR.sol\":25248:25249  0 */\n      0x00\n        /* \"USR.sol\":25243:25250  path[0] */\n      dup2\n      mload\n      dup2\n      lt\n      tag_624\n      jumpi\n      tag_625\n      tag_626\n      jump\t// in\n    tag_625:\n    tag_624:\n      0x20\n      mul\n      0x20\n      add\n      add\n        /* \"USR.sol\":25243:25266  path[0] = address(this) */\n      swap1\n      0xffffffffffffffffffffffffffffffffffffffff\n      and\n      swap1\n      dup2\n      0xffffffffffffffffffffffffffffffffffffffff\n      and\n      dup2\n      mstore\n      pop\n      pop\n        /* \"USR.sol\":25287:25302  uniswapV2Router */\n      0x1a\n      0x00\n      swap1\n      sload\n      swap1\n      0x0100\n      exp\n      swap1\n      div\n      0xffffffffffffffffffffffffffffffffffffffff\n      and\n        /* \"USR.sol\":25287:25307  uniswapV2Router.WETH */\n      0xffffffffffffffffffffffffffffffffffffffff\n      and\n      0xad5c4648\n        /* \"USR.sol\":25287:25309  uniswapV2Router.WETH() */\n      mload(0x40)\n      dup2\n      0xffffffff\n      and\n      0xe0\n      shl\n      dup2\n      mstore\n      0x04\n      add\n      0x20\n      mload(0x40)\n      dup1\n      dup4\n      sub\n      dup2\n      dup7\n      gas\n      staticcall\n      iszero\n      dup1\n      iszero\n      tag_628\n      jumpi\n      returndatasize\n      0x00\n      dup1\n      returndatacopy\n      revert(0x00, returndatasize)\n    tag_628:\n      pop\n      pop\n      pop\n      pop\n      mload(0x40)\n      returndatasize\n      not(0x1f)\n      0x1f\n      dup3\n      add\n      and\n      dup3\n      add\n      dup1\n      0x40\n      mstore\n      pop\n      dup2\n      add\n      swap1\n      tag_629\n      swap2\n      swap1\n      tag_630\n      jump\t// in\n    tag_629:\n        /* \"USR.sol\":25277:25281  path */\n      dup2\n        /* \"USR.sol\":25282:25283  1 */\n      0x01\n        /* \"USR.sol\":25277:25284  path[1] */\n      dup2\n      mload\n      dup2\n      lt\n      tag_631\n      jumpi\n      tag_632\n      tag_626\n      jump\t// in\n    tag_632:\n    tag_631:\n      0x20\n      mul\n      0x20\n      add\n      add\n        /* \"USR.sol\":25277:25309  path[1] = uniswapV2Router.WETH() */\n      swap1\n      0xffffffffffffffffffffffffffffffffffffffff\n      and\n      swap1\n      dup2\n      0xffffffffffffffffffffffffffffffffffffffff\n      and\n      dup2\n      mstore\n      pop\n      pop\n        /* \"USR.sol\":25323:25385  _approve(address(this), address(uniswapV2Router), tokenAmount) */\n      tag_633\n        /* \"USR.sol\":25340:25344  this */\n      address\n        /* \"USR.sol\":25355:25370  uniswapV2Router */\n      0x1a\n      0x00\n      swap1\n      sload\n      swap1\n      0x0100\n      exp\n      swap1\n      div\n      0xffffffffffffffffffffffffffffffffffffffff\n      and\n        /* \"USR.sol\":25373:25384  tokenAmount */\n      dup5\n        /* \"USR.sol\":25323:25331  _approve */\n      tag_321\n        /* \"USR.sol\":25323:25385  _approve(address(this), address(uniswapV2Router), tokenAmount) */\n      jump\t// in\n    tag_633:\n        /* \"USR.sol\":25425:25440  uniswapV2Router */\n      0x1a\n      0x00\n      swap1\n      sload\n      swap1\n      0x0100\n      exp\n      swap1\n      div\n      0xffffffffffffffffffffffffffffffffffffffff\n      and\n        /* \"USR.sol\":25425:25491  uniswapV2Router.swapExactTokensForETHSupportingFeeOnTransferTokens */\n      0xffffffffffffffffffffffffffffffffffffffff\n      and\n      0x791ac947\n        /* \"USR.sol\":25506:25517  tokenAmount */\n      dup4\n        /* \"USR.sol\":25532:25533  0 */\n      0x00\n        /* \"USR.sol\":25576:25580  path */\n      dup5\n        /* \"USR.sol\":25603:25607  this */\n      address\n        /* \"USR.sol\":25623:25638  block.timestamp */\n      timestamp\n        /* \"USR.sol\":25425:25649  uniswapV2Router.swapExactTokensForETHSupportingFeeOnTransferTokens(... */\n      mload(0x40)\n      dup7\n      0xffffffff\n      and\n      0xe0\n      shl\n      dup2\n      mstore\n      0x04\n      add\n      tag_634\n      swap6\n      swap5\n      swap4\n      swap3\n      swap2\n      swap1\n      tag_635\n      jump\t// in\n    tag_634:\n      0x00\n      mload(0x40)\n      dup1\n      dup4\n      sub\n      dup2\n      0x00\n      dup8\n      dup1\n      extcodesize\n      iszero\n      dup1\n      iszero\n      tag_636\n      jumpi\n      0x00\n      dup1\n      revert\n    tag_636:\n      pop\n      gas\n      call\n      iszero\n      dup1\n      iszero\n      tag_638\n      jumpi\n      returndatasize\n      0x00\n      dup1\n      returndatacopy\n      revert(0x00, returndatasize)\n    tag_638:\n      pop\n      pop\n      pop\n      pop\n        /* \"USR.sol\":25121:25657  {... */\n      pop\n        /* \"USR.sol\":25066:25657  function swapTokensForEth(uint256 tokenAmount) private {... */\n      pop\n      jump\t// out\n        /* \"USR.sol\":26815:27335  function addLiquidity(uint256 tokenAmount, uint256 ethAmount) private {... */\n    tag_603:\n        /* \"USR.sol\":26963:27025  _approve(address(this), address(uniswapV2Router), tokenAmount) */\n      tag_640\n        /* \"USR.sol\":26980:26984  this */\n      address\n        /* \"USR.sol\":26995:27010  uniswapV2Router */\n      0x1a\n      0x00\n      swap1\n      sload\n      swap1\n      0x0100\n      exp\n      swap1\n      div\n      0xffffffffffffffffffffffffffffffffffffffff\n      and\n        /* \"USR.sol\":27013:27024  tokenAmount */\n      dup5\n        /* \"USR.sol\":26963:26971  _approve */\n      tag_321\n        /* \"USR.sol\":26963:27025  _approve(address(this), address(uniswapV2Router), tokenAmount) */\n      jump\t// in\n    tag_640:\n        /* \"USR.sol\":27069:27084  uniswapV2Router */\n      0x1a\n      0x00\n      swap1\n      sload\n      swap1\n      0x0100\n      exp\n      swap1\n      div\n      0xffffffffffffffffffffffffffffffffffffffff\n      and\n        /* \"USR.sol\":27069:27100  uniswapV2Router.addLiquidityETH */\n      0xffffffffffffffffffffffffffffffffffffffff\n      and\n      0xf305d719\n        /* \"USR.sol\":27108:27117  ethAmount */\n      dup3\n        /* \"USR.sol\":27141:27145  this */\n      address\n        /* \"USR.sol\":27161:27172  tokenAmount */\n      dup6\n        /* \"USR.sol\":27187:27188  0 */\n      0x00\n        /* \"USR.sol\":27230:27231  0 */\n      dup1\n        /* \"USR.sol\":27281:27285  this */\n      address\n        /* \"USR.sol\":27301:27316  block.timestamp */\n      timestamp\n        /* \"USR.sol\":27069:27327  uniswapV2Router.addLiquidityETH{value: ethAmount}(... */\n      mload(0x40)\n      dup9\n      0xffffffff\n      and\n      0xe0\n      shl\n      dup2\n      mstore\n      0x04\n      add\n      tag_641\n      swap7\n      swap6\n      swap5\n      swap4\n      swap3\n      swap2\n      swap1\n      tag_642\n      jump\t// in\n    tag_641:\n      0x60\n      mload(0x40)\n      dup1\n      dup4\n      sub\n      dup2\n      dup6\n      dup9\n      gas\n      call\n      iszero\n      dup1\n      iszero\n      tag_644\n      jumpi\n      returndatasize\n      0x00\n      dup1\n      returndatacopy\n      revert(0x00, returndatasize)\n    tag_644:\n      pop\n      pop\n      pop\n      pop\n      pop\n      mload(0x40)\n      returndatasize\n      not(0x1f)\n      0x1f\n      dup3\n      add\n      and\n      dup3\n      add\n      dup1\n      0x40\n      mstore\n      pop\n      dup2\n      add\n      swap1\n      tag_645\n      swap2\n      swap1\n      tag_646\n      jump\t// in\n    tag_645:\n      pop\n      pop\n      pop\n        /* \"USR.sol\":26815:27335  function addLiquidity(uint256 tokenAmount, uint256 ethAmount) private {... */\n      pop\n      pop\n      jump\t// out\n        /* \"USR.sol\":19263:19388  function _beforeTokenTransfer(... */\n    tag_612:\n      pop\n      pop\n      pop\n      jump\t// out\n        /* \"USR.sol\":19396:19520  function _afterTokenTransfer(... */\n    tag_618:\n      pop\n      pop\n      pop\n      jump\t// out\n        /* \"#utility.yul\":7:106   */\n    tag_649:\n        /* \"#utility.yul\":59:65   */\n      0x00\n        /* \"#utility.yul\":93:98   */\n      dup2\n        /* \"#utility.yul\":87:99   */\n      mload\n        /* \"#utility.yul\":77:99   */\n      swap1\n      pop\n        /* \"#utility.yul\":7:106   */\n      swap2\n      swap1\n      pop\n      jump\t// out\n        /* \"#utility.yul\":112:281   */\n    tag_650:\n        /* \"#utility.yul\":196:207   */\n      0x00\n        /* \"#utility.yul\":230:236   */\n      dup3\n        /* \"#utility.yul\":225:228   */\n      dup3\n        /* \"#utility.yul\":218:237   */\n      mstore\n        /* \"#utility.yul\":270:274   */\n      0x20\n        /* \"#utility.yul\":265:268   */\n      dup3\n        /* \"#utility.yul\":261:275   */\n      add\n        /* \"#utility.yul\":246:275   */\n      swap1\n      pop\n        /* \"#utility.yul\":112:281   */\n      swap3\n      swap2\n      pop\n      pop\n      jump\t// out\n        /* \"#utility.yul\":287:533   */\n    tag_651:\n        /* \"#utility.yul\":368:369   */\n      0x00\n        /* \"#utility.yul\":378:491   */\n    tag_746:\n        /* \"#utility.yul\":392:398   */\n      dup4\n        /* \"#utility.yul\":389:390   */\n      dup2\n        /* \"#utility.yul\":386:399   */\n      lt\n        /* \"#utility.yul\":378:491   */\n      iszero\n      tag_748\n      jumpi\n        /* \"#utility.yul\":477:478   */\n      dup1\n        /* \"#utility.yul\":472:475   */\n      dup3\n        /* \"#utility.yul\":468:479   */\n      add\n        /* \"#utility.yul\":462:480   */\n      mload\n        /* \"#utility.yul\":458:459   */\n      dup2\n        /* \"#utility.yul\":453:456   */\n      dup5\n        /* \"#utility.yul\":449:460   */\n      add\n        /* \"#utility.yul\":442:481   */\n      mstore\n        /* \"#utility.yul\":414:416   */\n      0x20\n        /* \"#utility.yul\":411:412   */\n      dup2\n        /* \"#utility.yul\":407:417   */\n      add\n        /* \"#utility.yul\":402:417   */\n      swap1\n      pop\n        /* \"#utility.yul\":378:491   */\n      jump(tag_746)\n    tag_748:\n        /* \"#utility.yul\":525:526   */\n      0x00\n        /* \"#utility.yul\":516:522   */\n      dup5\n        /* \"#utility.yul\":511:514   */\n      dup5\n        /* \"#utility.yul\":507:523   */\n      add\n        /* \"#utility.yul\":500:527   */\n      mstore\n        /* \"#utility.yul\":349:533   */\n      pop\n        /* \"#utility.yul\":287:533   */\n      pop\n      pop\n      pop\n      jump\t// out\n        /* \"#utility.yul\":539:641   */\n    tag_652:\n        /* \"#utility.yul\":580:586   */\n      0x00\n        /* \"#utility.yul\":631:633   */\n      0x1f\n        /* \"#utility.yul\":627:634   */\n      not\n        /* \"#utility.yul\":622:624   */\n      0x1f\n        /* \"#utility.yul\":615:620   */\n      dup4\n        /* \"#utility.yul\":611:625   */\n      add\n        /* \"#utility.yul\":607:635   */\n      and\n        /* \"#utility.yul\":597:635   */\n      swap1\n      pop\n        /* \"#utility.yul\":539:641   */\n      swap2\n      swap1\n      pop\n      jump\t// out\n        /* \"#utility.yul\":647:1024   */\n    tag_653:\n        /* \"#utility.yul\":735:738   */\n      0x00\n        /* \"#utility.yul\":763:802   */\n      tag_751\n        /* \"#utility.yul\":796:801   */\n      dup3\n        /* \"#utility.yul\":763:802   */\n      tag_649\n      jump\t// in\n    tag_751:\n        /* \"#utility.yul\":818:889   */\n      tag_752\n        /* \"#utility.yul\":882:888   */\n      dup2\n        /* \"#utility.yul\":877:880   */\n      dup6\n        /* \"#utility.yul\":818:889   */\n      tag_650\n      jump\t// in\n    tag_752:\n        /* \"#utility.yul\":811:889   */\n      swap4\n      pop\n        /* \"#utility.yul\":898:963   */\n      tag_753\n        /* \"#utility.yul\":956:962   */\n      dup2\n        /* \"#utility.yul\":951:954   */\n      dup6\n        /* \"#utility.yul\":944:948   */\n      0x20\n        /* \"#utility.yul\":937:942   */\n      dup7\n        /* \"#utility.yul\":933:949   */\n      add\n        /* \"#utility.yul\":898:963   */\n      tag_651\n      jump\t// in\n    tag_753:\n        /* \"#utility.yul\":988:1017   */\n      tag_754\n        /* \"#utility.yul\":1010:1016   */\n      dup2\n        /* \"#utility.yul\":988:1017   */\n      tag_652\n      jump\t// in\n    tag_754:\n        /* \"#utility.yul\":983:986   */\n      dup5\n        /* \"#utility.yul\":979:1018   */\n      add\n        /* \"#utility.yul\":972:1018   */\n      swap2\n      pop\n        /* \"#utility.yul\":739:1024   */\n      pop\n        /* \"#utility.yul\":647:1024   */\n      swap3\n      swap2\n      pop\n      pop\n      jump\t// out\n        /* \"#utility.yul\":1030:1343   */\n    tag_81:\n        /* \"#utility.yul\":1143:1147   */\n      0x00\n        /* \"#utility.yul\":1181:1183   */\n      0x20\n        /* \"#utility.yul\":1170:1179   */\n      dup3\n        /* \"#utility.yul\":1166:1184   */\n      add\n        /* \"#utility.yul\":1158:1184   */\n      swap1\n      pop\n        /* \"#utility.yul\":1230:1239   */\n      dup2\n        /* \"#utility.yul\":1224:1228   */\n      dup2\n        /* \"#utility.yul\":1220:1240   */\n      sub\n        /* \"#utility.yul\":1216:1217   */\n      0x00\n        /* \"#utility.yul\":1205:1214   */\n      dup4\n        /* \"#utility.yul\":1201:1218   */\n      add\n        /* \"#utility.yul\":1194:1241   */\n      mstore\n        /* \"#utility.yul\":1258:1336   */\n      tag_756\n        /* \"#utility.yul\":1331:1335   */\n      dup2\n        /* \"#utility.yul\":1322:1328   */\n      dup5\n        /* \"#utility.yul\":1258:1336   */\n      tag_653\n      jump\t// in\n    tag_756:\n        /* \"#utility.yul\":1250:1336   */\n      swap1\n      pop\n        /* \"#utility.yul\":1030:1343   */\n      swap3\n      swap2\n      pop\n      pop\n      jump\t// out\n        /* \"#utility.yul\":1430:1547   */\n    tag_655:\n        /* \"#utility.yul\":1539:1540   */\n      0x00\n        /* \"#utility.yul\":1536:1537   */\n      dup1\n        /* \"#utility.yul\":1529:1541   */\n      revert\n        /* \"#utility.yul\":1676:1753   */\n    tag_657:\n        /* \"#utility.yul\":1713:1720   */\n      0x00\n        /* \"#utility.yul\":1742:1747   */\n      dup2\n        /* \"#utility.yul\":1731:1747   */\n      swap1\n      pop\n        /* \"#utility.yul\":1676:1753   */\n      swap2\n      swap1\n      pop\n      jump\t// out\n        /* \"#utility.yul\":1759:1881   */\n    tag_658:\n        /* \"#utility.yul\":1832:1856   */\n      tag_762\n        /* \"#utility.yul\":1850:1855   */\n      dup2\n        /* \"#utility.yul\":1832:1856   */\n      tag_657\n      jump\t// in\n    tag_762:\n        /* \"#utility.yul\":1825:1830   */\n      dup2\n        /* \"#utility.yul\":1822:1857   */\n      eq\n        /* \"#utility.yul\":1812:1875   */\n      tag_763\n      jumpi\n        /* \"#utility.yul\":1871:1872   */\n      0x00\n        /* \"#utility.yul\":1868:1869   */\n      dup1\n        /* \"#utility.yul\":1861:1873   */\n      revert\n        /* \"#utility.yul\":1812:1875   */\n    tag_763:\n        /* \"#utility.yul\":1759:1881   */\n      pop\n      jump\t// out\n        /* \"#utility.yul\":1887:2026   */\n    tag_659:\n        /* \"#utility.yul\":1933:1938   */\n      0x00\n        /* \"#utility.yul\":1971:1977   */\n      dup2\n        /* \"#utility.yul\":1958:1978   */\n      calldataload\n        /* \"#utility.yul\":1949:1978   */\n      swap1\n      pop\n        /* \"#utility.yul\":1987:2020   */\n      tag_765\n        /* \"#utility.yul\":2014:2019   */\n      dup2\n        /* \"#utility.yul\":1987:2020   */\n      tag_658\n      jump\t// in\n    tag_765:\n        /* \"#utility.yul\":1887:2026   */\n      swap3\n      swap2\n      pop\n      pop\n      jump\t// out\n        /* \"#utility.yul\":2032:2361   */\n    tag_85:\n        /* \"#utility.yul\":2091:2097   */\n      0x00\n        /* \"#utility.yul\":2140:2142   */\n      0x20\n        /* \"#utility.yul\":2128:2137   */\n      dup3\n        /* \"#utility.yul\":2119:2126   */\n      dup5\n        /* \"#utility.yul\":2115:2138   */\n      sub\n        /* \"#utility.yul\":2111:2143   */\n      slt\n        /* \"#utility.yul\":2108:2227   */\n      iszero\n      tag_767\n      jumpi\n        /* \"#utility.yul\":2146:2225   */\n      tag_768\n      tag_655\n      jump\t// in\n    tag_768:\n        /* \"#utility.yul\":2108:2227   */\n    tag_767:\n        /* \"#utility.yul\":2266:2267   */\n      0x00\n        /* \"#utility.yul\":2291:2344   */\n      tag_769\n        /* \"#utility.yul\":2336:2343   */\n      dup5\n        /* \"#utility.yul\":2327:2333   */\n      dup3\n        /* \"#utility.yul\":2316:2325   */\n      dup6\n        /* \"#utility.yul\":2312:2334   */\n      add\n        /* \"#utility.yul\":2291:2344   */\n      tag_659\n      jump\t// in\n    tag_769:\n        /* \"#utility.yul\":2281:2344   */\n      swap2\n      pop\n        /* \"#utility.yul\":2237:2354   */\n      pop\n        /* \"#utility.yul\":2032:2361   */\n      swap3\n      swap2\n      pop\n      pop\n      jump\t// out\n        /* \"#utility.yul\":2367:2493   */\n    tag_660:\n        /* \"#utility.yul\":2404:2411   */\n      0x00\n        /* \"#utility.yul\":2444:2486   */\n      0xffffffffffffffffffffffffffffffffffffffff\n        /* \"#utility.yul\":2437:2442   */\n      dup3\n        /* \"#utility.yul\":2433:2487   */\n      and\n        /* \"#utility.yul\":2422:2487   */\n      swap1\n      pop\n        /* \"#utility.yul\":2367:2493   */\n      swap2\n      swap1\n      pop\n      jump\t// out\n        /* \"#utility.yul\":2499:2595   */\n    tag_661:\n        /* \"#utility.yul\":2536:2543   */\n      0x00\n        /* \"#utility.yul\":2565:2589   */\n      tag_772\n        /* \"#utility.yul\":2583:2588   */\n      dup3\n        /* \"#utility.yul\":2565:2589   */\n      tag_660\n      jump\t// in\n    tag_772:\n        /* \"#utility.yul\":2554:2589   */\n      swap1\n      pop\n        /* \"#utility.yul\":2499:2595   */\n      swap2\n      swap1\n      pop\n      jump\t// out\n        /* \"#utility.yul\":2601:2723   */\n    tag_662:\n        /* \"#utility.yul\":2674:2698   */\n      tag_774\n        /* \"#utility.yul\":2692:2697   */\n      dup2\n        /* \"#utility.yul\":2674:2698   */\n      tag_661\n      jump\t// in\n    tag_774:\n        /* \"#utility.yul\":2667:2672   */\n      dup2\n        /* \"#utility.yul\":2664:2699   */\n      eq\n        /* \"#utility.yul\":2654:2717   */\n      tag_775\n      jumpi\n        /* \"#utility.yul\":2713:2714   */\n      0x00\n        /* \"#utility.yul\":2710:2711   */\n      dup1\n        /* \"#utility.yul\":2703:2715   */\n      revert\n        /* \"#utility.yul\":2654:2717   */\n    tag_775:\n        /* \"#utility.yul\":2601:2723   */\n      pop\n      jump\t// out\n        /* \"#utility.yul\":2729:2868   */\n    tag_663:\n        /* \"#utility.yul\":2775:2780   */\n      0x00\n        /* \"#utility.yul\":2813:2819   */\n      dup2\n        /* \"#utility.yul\":2800:2820   */\n      calldataload\n        /* \"#utility.yul\":2791:2820   */\n      swap1\n      pop\n        /* \"#utility.yul\":2829:2862   */\n      tag_777\n        /* \"#utility.yul\":2856:2861   */\n      dup2\n        /* \"#utility.yul\":2829:2862   */\n      tag_662\n      jump\t// in\n    tag_777:\n        /* \"#utility.yul\":2729:2868   */\n      swap3\n      swap2\n      pop\n      pop\n      jump\t// out\n        /* \"#utility.yul\":2874:3348   */\n    tag_90:\n        /* \"#utility.yul\":2942:2948   */\n      0x00\n        /* \"#utility.yul\":2950:2956   */\n      dup1\n        /* \"#utility.yul\":2999:3001   */\n      0x40\n        /* \"#utility.yul\":2987:2996   */\n      dup4\n        /* \"#utility.yul\":2978:2985   */\n      dup6\n        /* \"#utility.yul\":2974:2997   */\n      sub\n        /* \"#utility.yul\":2970:3002   */\n      slt\n        /* \"#utility.yul\":2967:3086   */\n      iszero\n      tag_779\n      jumpi\n        /* \"#utility.yul\":3005:3084   */\n      tag_780\n      tag_655\n      jump\t// in\n    tag_780:\n        /* \"#utility.yul\":2967:3086   */\n    tag_779:\n        /* \"#utility.yul\":3125:3126   */\n      0x00\n        /* \"#utility.yul\":3150:3203   */\n      tag_781\n        /* \"#utility.yul\":3195:3202   */\n      dup6\n        /* \"#utility.yul\":3186:3192   */\n      dup3\n        /* \"#utility.yul\":3175:3184   */\n      dup7\n        /* \"#utility.yul\":3171:3193   */\n      add\n        /* \"#utility.yul\":3150:3203   */\n      tag_663\n      jump\t// in\n    tag_781:\n        /* \"#utility.yul\":3140:3203   */\n      swap3\n      pop\n        /* \"#utility.yul\":3096:3213   */\n      pop\n        /* \"#utility.yul\":3252:3254   */\n      0x20\n        /* \"#utility.yul\":3278:3331   */\n      tag_782\n        /* \"#utility.yul\":3323:3330   */\n      dup6\n        /* \"#utility.yul\":3314:3320   */\n      dup3\n        /* \"#utility.yul\":3303:3312   */\n      dup7\n        /* \"#utility.yul\":3299:3321   */\n      add\n        /* \"#utility.yul\":3278:3331   */\n      tag_659\n      jump\t// in\n    tag_782:\n        /* \"#utility.yul\":3268:3331   */\n      swap2\n      pop\n        /* \"#utility.yul\":3223:3341   */\n      pop\n        /* \"#utility.yul\":2874:3348   */\n      swap3\n      pop\n      swap3\n      swap1\n      pop\n      jump\t// out\n        /* \"#utility.yul\":3354:3444   */\n    tag_664:\n        /* \"#utility.yul\":3388:3395   */\n      0x00\n        /* \"#utility.yul\":3431:3436   */\n      dup2\n        /* \"#utility.yul\":3424:3437   */\n      iszero\n        /* \"#utility.yul\":3417:3438   */\n      iszero\n        /* \"#utility.yul\":3406:3438   */\n      swap1\n      pop\n        /* \"#utility.yul\":3354:3444   */\n      swap2\n      swap1\n      pop\n      jump\t// out\n        /* \"#utility.yul\":3450:3559   */\n    tag_665:\n        /* \"#utility.yul\":3531:3552   */\n      tag_785\n        /* \"#utility.yul\":3546:3551   */\n      dup2\n        /* \"#utility.yul\":3531:3552   */\n      tag_664\n      jump\t// in\n    tag_785:\n        /* \"#utility.yul\":3526:3529   */\n      dup3\n        /* \"#utility.yul\":3519:3553   */\n      mstore\n        /* \"#utility.yul\":3450:3559   */\n      pop\n      pop\n      jump\t// out\n        /* \"#utility.yul\":3565:3775   */\n    tag_93:\n        /* \"#utility.yul\":3652:3656   */\n      0x00\n        /* \"#utility.yul\":3690:3692   */\n      0x20\n        /* \"#utility.yul\":3679:3688   */\n      dup3\n        /* \"#utility.yul\":3675:3693   */\n      add\n        /* \"#utility.yul\":3667:3693   */\n      swap1\n      pop\n        /* \"#utility.yul\":3703:3768   */\n      tag_787\n        /* \"#utility.yul\":3765:3766   */\n      0x00\n        /* \"#utility.yul\":3754:3763   */\n      dup4\n        /* \"#utility.yul\":3750:3767   */\n      add\n        /* \"#utility.yul\":3741:3747   */\n      dup5\n        /* \"#utility.yul\":3703:3768   */\n      tag_665\n      jump\t// in\n    tag_787:\n        /* \"#utility.yul\":3565:3775   */\n      swap3\n      swap2\n      pop\n      pop\n      jump\t// out\n        /* \"#utility.yul\":3781:3899   */\n    tag_666:\n        /* \"#utility.yul\":3868:3892   */\n      tag_789\n        /* \"#utility.yul\":3886:3891   */\n      dup2\n        /* \"#utility.yul\":3868:3892   */\n      tag_657\n      jump\t// in\n    tag_789:\n        /* \"#utility.yul\":3863:3866   */\n      dup3\n        /* \"#utility.yul\":3856:3893   */\n      mstore\n        /* \"#utility.yul\":3781:3899   */\n      pop\n      pop\n      jump\t// out\n        /* \"#utility.yul\":3905:4127   */\n    tag_102:\n        /* \"#utility.yul\":3998:4002   */\n      0x00\n        /* \"#utility.yul\":4036:4038   */\n      0x20\n        /* \"#utility.yul\":4025:4034   */\n      dup3\n        /* \"#utility.yul\":4021:4039   */\n      add\n        /* \"#utility.yul\":4013:4039   */\n      swap1\n      pop\n        /* \"#utility.yul\":4049:4120   */\n      tag_791\n        /* \"#utility.yul\":4117:4118   */\n      0x00\n        /* \"#utility.yul\":4106:4115   */\n      dup4\n        /* \"#utility.yul\":4102:4119   */\n      add\n        /* \"#utility.yul\":4093:4099   */\n      dup5\n        /* \"#utility.yul\":4049:4120   */\n      tag_666\n      jump\t// in\n    tag_791:\n        /* \"#utility.yul\":3905:4127   */\n      swap3\n      swap2\n      pop\n      pop\n      jump\t// out\n        /* \"#utility.yul\":4133:4193   */\n    tag_667:\n        /* \"#utility.yul\":4161:4164   */\n      0x00\n        /* \"#utility.yul\":4182:4187   */\n      dup2\n        /* \"#utility.yul\":4175:4187   */\n      swap1\n      pop\n        /* \"#utility.yul\":4133:4193   */\n      swap2\n      swap1\n      pop\n      jump\t// out\n        /* \"#utility.yul\":4199:4341   */\n    tag_668:\n        /* \"#utility.yul\":4249:4258   */\n      0x00\n        /* \"#utility.yul\":4282:4335   */\n      tag_794\n        /* \"#utility.yul\":4300:4334   */\n      tag_795\n        /* \"#utility.yul\":4309:4333   */\n      tag_796\n        /* \"#utility.yul\":4327:4332   */\n      dup5\n        /* \"#utility.yul\":4309:4333   */\n      tag_660\n      jump\t// in\n    tag_796:\n        /* \"#utility.yul\":4300:4334   */\n      tag_667\n      jump\t// in\n    tag_795:\n        /* \"#utility.yul\":4282:4335   */\n      tag_660\n      jump\t// in\n    tag_794:\n        /* \"#utility.yul\":4269:4335   */\n      swap1\n      pop\n        /* \"#utility.yul\":4199:4341   */\n      swap2\n      swap1\n      pop\n      jump\t// out\n        /* \"#utility.yul\":4347:4473   */\n    tag_669:\n        /* \"#utility.yul\":4397:4406   */\n      0x00\n        /* \"#utility.yul\":4430:4467   */\n      tag_798\n        /* \"#utility.yul\":4461:4466   */\n      dup3\n        /* \"#utility.yul\":4430:4467   */\n      tag_668\n      jump\t// in\n    tag_798:\n        /* \"#utility.yul\":4417:4467   */\n      swap1\n      pop\n        /* \"#utility.yul\":4347:4473   */\n      swap2\n      swap1\n      pop\n      jump\t// out\n        /* \"#utility.yul\":4479:4631   */\n    tag_670:\n        /* \"#utility.yul\":4555:4564   */\n      0x00\n        /* \"#utility.yul\":4588:4625   */\n      tag_800\n        /* \"#utility.yul\":4619:4624   */\n      dup3\n        /* \"#utility.yul\":4588:4625   */\n      tag_669\n      jump\t// in\n    tag_800:\n        /* \"#utility.yul\":4575:4625   */\n      swap1\n      pop\n        /* \"#utility.yul\":4479:4631   */\n      swap2\n      swap1\n      pop\n      jump\t// out\n        /* \"#utility.yul\":4637:4820   */\n    tag_671:\n        /* \"#utility.yul\":4750:4813   */\n      tag_802\n        /* \"#utility.yul\":4807:4812   */\n      dup2\n        /* \"#utility.yul\":4750:4813   */\n      tag_670\n      jump\t// in\n    tag_802:\n        /* \"#utility.yul\":4745:4748   */\n      dup3\n        /* \"#utility.yul\":4738:4814   */\n      mstore\n        /* \"#utility.yul\":4637:4820   */\n      pop\n      pop\n      jump\t// out\n        /* \"#utility.yul\":4826:5100   */\n    tag_111:\n        /* \"#utility.yul\":4945:4949   */\n      0x00\n        /* \"#utility.yul\":4983:4985   */\n      0x20\n        /* \"#utility.yul\":4972:4981   */\n      dup3\n        /* \"#utility.yul\":4968:4986   */\n      add\n        /* \"#utility.yul\":4960:4986   */\n      swap1\n      pop\n        /* \"#utility.yul\":4996:5093   */\n      tag_804\n        /* \"#utility.yul\":5090:5091   */\n      0x00\n        /* \"#utility.yul\":5079:5088   */\n      dup4\n        /* \"#utility.yul\":5075:5092   */\n      add\n        /* \"#utility.yul\":5066:5072   */\n      dup5\n        /* \"#utility.yul\":4996:5093   */\n      tag_671\n      jump\t// in\n    tag_804:\n        /* \"#utility.yul\":4826:5100   */\n      swap3\n      swap2\n      pop\n      pop\n      jump\t// out\n        /* \"#utility.yul\":5106:5725   */\n    tag_123:\n        /* \"#utility.yul\":5183:5189   */\n      0x00\n        /* \"#utility.yul\":5191:5197   */\n      dup1\n        /* \"#utility.yul\":5199:5205   */\n      0x00\n        /* \"#utility.yul\":5248:5250   */\n      0x60\n        /* \"#utility.yul\":5236:5245   */\n      dup5\n        /* \"#utility.yul\":5227:5234   */\n      dup7\n        /* \"#utility.yul\":5223:5246   */\n      sub\n        /* \"#utility.yul\":5219:5251   */\n      slt\n        /* \"#utility.yul\":5216:5335   */\n      iszero\n      tag_806\n      jumpi\n        /* \"#utility.yul\":5254:5333   */\n      tag_807\n      tag_655\n      jump\t// in\n    tag_807:\n        /* \"#utility.yul\":5216:5335   */\n    tag_806:\n        /* \"#utility.yul\":5374:5375   */\n      0x00\n        /* \"#utility.yul\":5399:5452   */\n      tag_808\n        /* \"#utility.yul\":5444:5451   */\n      dup7\n        /* \"#utility.yul\":5435:5441   */\n      dup3\n        /* \"#utility.yul\":5424:5433   */\n      dup8\n        /* \"#utility.yul\":5420:5442   */\n      add\n        /* \"#utility.yul\":5399:5452   */\n      tag_663\n      jump\t// in\n    tag_808:\n        /* \"#utility.yul\":5389:5452   */\n      swap4\n      pop\n        /* \"#utility.yul\":5345:5462   */\n      pop\n        /* \"#utility.yul\":5501:5503   */\n      0x20\n        /* \"#utility.yul\":5527:5580   */\n      tag_809\n        /* \"#utility.yul\":5572:5579   */\n      dup7\n        /* \"#utility.yul\":5563:5569   */\n      dup3\n        /* \"#utility.yul\":5552:5561   */\n      dup8\n        /* \"#utility.yul\":5548:5570   */\n      add\n        /* \"#utility.yul\":5527:5580   */\n      tag_663\n      jump\t// in\n    tag_809:\n        /* \"#utility.yul\":5517:5580   */\n      swap3\n      pop\n        /* \"#utility.yul\":5472:5590   */\n      pop\n        /* \"#utility.yul\":5629:5631   */\n      0x40\n        /* \"#utility.yul\":5655:5708   */\n      tag_810\n        /* \"#utility.yul\":5700:5707   */\n      dup7\n        /* \"#utility.yul\":5691:5697   */\n      dup3\n        /* \"#utility.yul\":5680:5689   */\n      dup8\n        /* \"#utility.yul\":5676:5698   */\n      add\n        /* \"#utility.yul\":5655:5708   */\n      tag_659\n      jump\t// in\n    tag_810:\n        /* \"#utility.yul\":5645:5708   */\n      swap2\n      pop\n        /* \"#utility.yul\":5600:5718   */\n      pop\n        /* \"#utility.yul\":5106:5725   */\n      swap3\n      pop\n      swap3\n      pop\n      swap3\n      jump\t// out\n        /* \"#utility.yul\":5731:5817   */\n    tag_672:\n        /* \"#utility.yul\":5766:5773   */\n      0x00\n        /* \"#utility.yul\":5806:5810   */\n      0xff\n        /* \"#utility.yul\":5799:5804   */\n      dup3\n        /* \"#utility.yul\":5795:5811   */\n      and\n        /* \"#utility.yul\":5784:5811   */\n      swap1\n      pop\n        /* \"#utility.yul\":5731:5817   */\n      swap2\n      swap1\n      pop\n      jump\t// out\n        /* \"#utility.yul\":5823:5935   */\n    tag_673:\n        /* \"#utility.yul\":5906:5928   */\n      tag_813\n        /* \"#utility.yul\":5922:5927   */\n      dup2\n        /* \"#utility.yul\":5906:5928   */\n      tag_672\n      jump\t// in\n    tag_813:\n        /* \"#utility.yul\":5901:5904   */\n      dup3\n        /* \"#utility.yul\":5894:5929   */\n      mstore\n        /* \"#utility.yul\":5823:5935   */\n      pop\n      pop\n      jump\t// out\n        /* \"#utility.yul\":5941:6155   */\n    tag_134:\n        /* \"#utility.yul\":6030:6034   */\n      0x00\n        /* \"#utility.yul\":6068:6070   */\n      0x20\n        /* \"#utility.yul\":6057:6066   */\n      dup3\n        /* \"#utility.yul\":6053:6071   */\n      add\n        /* \"#utility.yul\":6045:6071   */\n      swap1\n      pop\n        /* \"#utility.yul\":6081:6148   */\n      tag_815\n        /* \"#utility.yul\":6145:6146   */\n      0x00\n        /* \"#utility.yul\":6134:6143   */\n      dup4\n        /* \"#utility.yul\":6130:6147   */\n      add\n        /* \"#utility.yul\":6121:6127   */\n      dup5\n        /* \"#utility.yul\":6081:6148   */\n      tag_673\n      jump\t// in\n    tag_815:\n        /* \"#utility.yul\":5941:6155   */\n      swap3\n      swap2\n      pop\n      pop\n      jump\t// out\n        /* \"#utility.yul\":6161:6490   */\n    tag_142:\n        /* \"#utility.yul\":6220:6226   */\n      0x00\n        /* \"#utility.yul\":6269:6271   */\n      0x20\n        /* \"#utility.yul\":6257:6266   */\n      dup3\n        /* \"#utility.yul\":6248:6255   */\n      dup5\n        /* \"#utility.yul\":6244:6267   */\n      sub\n        /* \"#utility.yul\":6240:6272   */\n      slt\n        /* \"#utility.yul\":6237:6356   */\n      iszero\n      tag_817\n      jumpi\n        /* \"#utility.yul\":6275:6354   */\n      tag_818\n      tag_655\n      jump\t// in\n    tag_818:\n        /* \"#utility.yul\":6237:6356   */\n    tag_817:\n        /* \"#utility.yul\":6395:6396   */\n      0x00\n        /* \"#utility.yul\":6420:6473   */\n      tag_819\n        /* \"#utility.yul\":6465:6472   */\n      dup5\n        /* \"#utility.yul\":6456:6462   */\n      dup3\n        /* \"#utility.yul\":6445:6454   */\n      dup6\n        /* \"#utility.yul\":6441:6463   */\n      add\n        /* \"#utility.yul\":6420:6473   */\n      tag_663\n      jump\t// in\n    tag_819:\n        /* \"#utility.yul\":6410:6473   */\n      swap2\n      pop\n        /* \"#utility.yul\":6366:6483   */\n      pop\n        /* \"#utility.yul\":6161:6490   */\n      swap3\n      swap2\n      pop\n      pop\n      jump\t// out\n        /* \"#utility.yul\":6496:6612   */\n    tag_674:\n        /* \"#utility.yul\":6566:6587   */\n      tag_821\n        /* \"#utility.yul\":6581:6586   */\n      dup2\n        /* \"#utility.yul\":6566:6587   */\n      tag_664\n      jump\t// in\n    tag_821:\n        /* \"#utility.yul\":6559:6564   */\n      dup2\n        /* \"#utility.yul\":6556:6588   */\n      eq\n        /* \"#utility.yul\":6546:6606   */\n      tag_822\n      jumpi\n        /* \"#utility.yul\":6602:6603   */\n      0x00\n        /* \"#utility.yul\":6599:6600   */\n      dup1\n        /* \"#utility.yul\":6592:6604   */\n      revert\n        /* \"#utility.yul\":6546:6606   */\n    tag_822:\n        /* \"#utility.yul\":6496:6612   */\n      pop\n      jump\t// out\n        /* \"#utility.yul\":6618:6751   */\n    tag_675:\n        /* \"#utility.yul\":6661:6666   */\n      0x00\n        /* \"#utility.yul\":6699:6705   */\n      dup2\n        /* \"#utility.yul\":6686:6706   */\n      calldataload\n        /* \"#utility.yul\":6677:6706   */\n      swap1\n      pop\n        /* \"#utility.yul\":6715:6745   */\n      tag_824\n        /* \"#utility.yul\":6739:6744   */\n      dup2\n        /* \"#utility.yul\":6715:6745   */\n      tag_674\n      jump\t// in\n    tag_824:\n        /* \"#utility.yul\":6618:6751   */\n      swap3\n      swap2\n      pop\n      pop\n      jump\t// out\n        /* \"#utility.yul\":6757:7080   */\n    tag_147:\n        /* \"#utility.yul\":6813:6819   */\n      0x00\n        /* \"#utility.yul\":6862:6864   */\n      0x20\n        /* \"#utility.yul\":6850:6859   */\n      dup3\n        /* \"#utility.yul\":6841:6848   */\n      dup5\n        /* \"#utility.yul\":6837:6860   */\n      sub\n        /* \"#utility.yul\":6833:6865   */\n      slt\n        /* \"#utility.yul\":6830:6949   */\n      iszero\n      tag_826\n      jumpi\n        /* \"#utility.yul\":6868:6947   */\n      tag_827\n      tag_655\n      jump\t// in\n    tag_827:\n        /* \"#utility.yul\":6830:6949   */\n    tag_826:\n        /* \"#utility.yul\":6988:6989   */\n      0x00\n        /* \"#utility.yul\":7013:7063   */\n      tag_828\n        /* \"#utility.yul\":7055:7062   */\n      dup5\n        /* \"#utility.yul\":7046:7052   */\n      dup3\n        /* \"#utility.yul\":7035:7044   */\n      dup6\n        /* \"#utility.yul\":7031:7053   */\n      add\n        /* \"#utility.yul\":7013:7063   */\n      tag_675\n      jump\t// in\n    tag_828:\n        /* \"#utility.yul\":7003:7063   */\n      swap2\n      pop\n        /* \"#utility.yul\":6959:7073   */\n      pop\n        /* \"#utility.yul\":6757:7080   */\n      swap3\n      swap2\n      pop\n      pop\n      jump\t// out\n        /* \"#utility.yul\":7086:7204   */\n    tag_676:\n        /* \"#utility.yul\":7173:7197   */\n      tag_830\n        /* \"#utility.yul\":7191:7196   */\n      dup2\n        /* \"#utility.yul\":7173:7197   */\n      tag_661\n      jump\t// in\n    tag_830:\n        /* \"#utility.yul\":7168:7171   */\n      dup3\n        /* \"#utility.yul\":7161:7198   */\n      mstore\n        /* \"#utility.yul\":7086:7204   */\n      pop\n      pop\n      jump\t// out\n        /* \"#utility.yul\":7210:7432   */\n    tag_157:\n        /* \"#utility.yul\":7303:7307   */\n      0x00\n        /* \"#utility.yul\":7341:7343   */\n      0x20\n        /* \"#utility.yul\":7330:7339   */\n      dup3\n        /* \"#utility.yul\":7326:7344   */\n      add\n        /* \"#utility.yul\":7318:7344   */\n      swap1\n      pop\n        /* \"#utility.yul\":7354:7425   */\n      tag_832\n        /* \"#utility.yul\":7422:7423   */\n      0x00\n        /* \"#utility.yul\":7411:7420   */\n      dup4\n        /* \"#utility.yul\":7407:7424   */\n      add\n        /* \"#utility.yul\":7398:7404   */\n      dup5\n        /* \"#utility.yul\":7354:7425   */\n      tag_676\n      jump\t// in\n    tag_832:\n        /* \"#utility.yul\":7210:7432   */\n      swap3\n      swap2\n      pop\n      pop\n      jump\t// out\n        /* \"#utility.yul\":7438:7906   */\n    tag_181:\n        /* \"#utility.yul\":7503:7509   */\n      0x00\n        /* \"#utility.yul\":7511:7517   */\n      dup1\n        /* \"#utility.yul\":7560:7562   */\n      0x40\n        /* \"#utility.yul\":7548:7557   */\n      dup4\n        /* \"#utility.yul\":7539:7546   */\n      dup6\n        /* \"#utility.yul\":7535:7558   */\n      sub\n        /* \"#utility.yul\":7531:7563   */\n      slt\n        /* \"#utility.yul\":7528:7647   */\n      iszero\n      tag_834\n      jumpi\n        /* \"#utility.yul\":7566:7645   */\n      tag_835\n      tag_655\n      jump\t// in\n    tag_835:\n        /* \"#utility.yul\":7528:7647   */\n    tag_834:\n        /* \"#utility.yul\":7686:7687   */\n      0x00\n        /* \"#utility.yul\":7711:7764   */\n      tag_836\n        /* \"#utility.yul\":7756:7763   */\n      dup6\n        /* \"#utility.yul\":7747:7753   */\n      dup3\n        /* \"#utility.yul\":7736:7745   */\n      dup7\n        /* \"#utility.yul\":7732:7754   */\n      add\n        /* \"#utility.yul\":7711:7764   */\n      tag_663\n      jump\t// in\n    tag_836:\n        /* \"#utility.yul\":7701:7764   */\n      swap3\n      pop\n        /* \"#utility.yul\":7657:7774   */\n      pop\n        /* \"#utility.yul\":7813:7815   */\n      0x20\n        /* \"#utility.yul\":7839:7889   */\n      tag_837\n        /* \"#utility.yul\":7881:7888   */\n      dup6\n        /* \"#utility.yul\":7872:7878   */\n      dup3\n        /* \"#utility.yul\":7861:7870   */\n      dup7\n        /* \"#utility.yul\":7857:7879   */\n      add\n        /* \"#utility.yul\":7839:7889   */\n      tag_675\n      jump\t// in\n    tag_837:\n        /* \"#utility.yul\":7829:7889   */\n      swap2\n      pop\n        /* \"#utility.yul\":7784:7899   */\n      pop\n        /* \"#utility.yul\":7438:7906   */\n      swap3\n      pop\n      swap3\n      swap1\n      pop\n      jump\t// out\n        /* \"#utility.yul\":7912:8386   */\n    tag_289:\n        /* \"#utility.yul\":7980:7986   */\n      0x00\n        /* \"#utility.yul\":7988:7994   */\n      dup1\n        /* \"#utility.yul\":8037:8039   */\n      0x40\n        /* \"#utility.yul\":8025:8034   */\n      dup4\n        /* \"#utility.yul\":8016:8023   */\n      dup6\n        /* \"#utility.yul\":8012:8035   */\n      sub\n        /* \"#utility.yul\":8008:8040   */\n      slt\n        /* \"#utility.yul\":8005:8124   */\n      iszero\n      tag_839\n      jumpi\n        /* \"#utility.yul\":8043:8122   */\n      tag_840\n      tag_655\n      jump\t// in\n    tag_840:\n        /* \"#utility.yul\":8005:8124   */\n    tag_839:\n        /* \"#utility.yul\":8163:8164   */\n      0x00\n        /* \"#utility.yul\":8188:8241   */\n      tag_841\n        /* \"#utility.yul\":8233:8240   */\n      dup6\n        /* \"#utility.yul\":8224:8230   */\n      dup3\n        /* \"#utility.yul\":8213:8222   */\n      dup7\n        /* \"#utility.yul\":8209:8231   */\n      add\n        /* \"#utility.yul\":8188:8241   */\n      tag_663\n      jump\t// in\n    tag_841:\n        /* \"#utility.yul\":8178:8241   */\n      swap3\n      pop\n        /* \"#utility.yul\":8134:8251   */\n      pop\n        /* \"#utility.yul\":8290:8292   */\n      0x20\n        /* \"#utility.yul\":8316:8369   */\n      tag_842\n        /* \"#utility.yul\":8361:8368   */\n      dup6\n        /* \"#utility.yul\":8352:8358   */\n      dup3\n        /* \"#utility.yul\":8341:8350   */\n      dup7\n        /* \"#utility.yul\":8337:8359   */\n      add\n        /* \"#utility.yul\":8316:8369   */\n      tag_663\n      jump\t// in\n    tag_842:\n        /* \"#utility.yul\":8306:8369   */\n      swap2\n      pop\n        /* \"#utility.yul\":8261:8379   */\n      pop\n        /* \"#utility.yul\":7912:8386   */\n      swap3\n      pop\n      swap3\n      swap1\n      pop\n      jump\t// out\n        /* \"#utility.yul\":8392:8625   */\n    tag_677:\n        /* \"#utility.yul\":8532:8566   */\n      0x546178207468726573686f6c642063616e6e6f74206265206d6f726520746861\n        /* \"#utility.yul\":8528:8529   */\n      0x00\n        /* \"#utility.yul\":8520:8526   */\n      dup3\n        /* \"#utility.yul\":8516:8530   */\n      add\n        /* \"#utility.yul\":8509:8567   */\n      mstore\n        /* \"#utility.yul\":8601:8617   */\n      0x6e20746f74616c20737570706c79000000000000000000000000000000000000\n        /* \"#utility.yul\":8596:8598   */\n      0x20\n        /* \"#utility.yul\":8588:8594   */\n      dup3\n        /* \"#utility.yul\":8584:8599   */\n      add\n        /* \"#utility.yul\":8577:8618   */\n      mstore\n        /* \"#utility.yul\":8392:8625   */\n      pop\n      jump\t// out\n        /* \"#utility.yul\":8631:8997   */\n    tag_678:\n        /* \"#utility.yul\":8773:8776   */\n      0x00\n        /* \"#utility.yul\":8794:8861   */\n      tag_845\n        /* \"#utility.yul\":8858:8860   */\n      0x2e\n        /* \"#utility.yul\":8853:8856   */\n      dup4\n        /* \"#utility.yul\":8794:8861   */\n      tag_650\n      jump\t// in\n    tag_845:\n        /* \"#utility.yul\":8787:8861   */\n      swap2\n      pop\n        /* \"#utility.yul\":8870:8963   */\n      tag_846\n        /* \"#utility.yul\":8959:8962   */\n      dup3\n        /* \"#utility.yul\":8870:8963   */\n      tag_677\n      jump\t// in\n    tag_846:\n        /* \"#utility.yul\":8988:8990   */\n      0x40\n        /* \"#utility.yul\":8983:8986   */\n      dup3\n        /* \"#utility.yul\":8979:8991   */\n      add\n        /* \"#utility.yul\":8972:8991   */\n      swap1\n      pop\n        /* \"#utility.yul\":8631:8997   */\n      swap2\n      swap1\n      pop\n      jump\t// out\n        /* \"#utility.yul\":9003:9422   */\n    tag_318:\n        /* \"#utility.yul\":9169:9173   */\n      0x00\n        /* \"#utility.yul\":9207:9209   */\n      0x20\n        /* \"#utility.yul\":9196:9205   */\n      dup3\n        /* \"#utility.yul\":9192:9210   */\n      add\n        /* \"#utility.yul\":9184:9210   */\n      swap1\n      pop\n        /* \"#utility.yul\":9256:9265   */\n      dup2\n        /* \"#utility.yul\":9250:9254   */\n      dup2\n        /* \"#utility.yul\":9246:9266   */\n      sub\n        /* \"#utility.yul\":9242:9243   */\n      0x00\n        /* \"#utility.yul\":9231:9240   */\n      dup4\n        /* \"#utility.yul\":9227:9244   */\n      add\n        /* \"#utility.yul\":9220:9267   */\n      mstore\n        /* \"#utility.yul\":9284:9415   */\n      tag_848\n        /* \"#utility.yul\":9410:9414   */\n      dup2\n        /* \"#utility.yul\":9284:9415   */\n      tag_678\n      jump\t// in\n    tag_848:\n        /* \"#utility.yul\":9276:9415   */\n      swap1\n      pop\n        /* \"#utility.yul\":9003:9422   */\n      swap2\n      swap1\n      pop\n      jump\t// out\n        /* \"#utility.yul\":9428:9608   */\n    tag_679:\n        /* \"#utility.yul\":9476:9553   */\n      0x4e487b7100000000000000000000000000000000000000000000000000000000\n        /* \"#utility.yul\":9473:9474   */\n      0x00\n        /* \"#utility.yul\":9466:9554   */\n      mstore\n        /* \"#utility.yul\":9573:9577   */\n      0x11\n        /* \"#utility.yul\":9570:9571   */\n      0x04\n        /* \"#utility.yul\":9563:9578   */\n      mstore\n        /* \"#utility.yul\":9597:9601   */\n      0x24\n        /* \"#utility.yul\":9594:9595   */\n      0x00\n        /* \"#utility.yul\":9587:9602   */\n      revert\n        /* \"#utility.yul\":9614:9805   */\n    tag_326:\n        /* \"#utility.yul\":9654:9657   */\n      0x00\n        /* \"#utility.yul\":9673:9693   */\n      tag_851\n        /* \"#utility.yul\":9691:9692   */\n      dup3\n        /* \"#utility.yul\":9673:9693   */\n      tag_657\n      jump\t// in\n    tag_851:\n        /* \"#utility.yul\":9668:9693   */\n      swap2\n      pop\n        /* \"#utility.yul\":9707:9727   */\n      tag_852\n        /* \"#utility.yul\":9725:9726   */\n      dup4\n        /* \"#utility.yul\":9707:9727   */\n      tag_657\n      jump\t// in\n    tag_852:\n        /* \"#utility.yul\":9702:9727   */\n      swap3\n      pop\n        /* \"#utility.yul\":9750:9751   */\n      dup3\n        /* \"#utility.yul\":9747:9748   */\n      dup3\n        /* \"#utility.yul\":9743:9752   */\n      add\n        /* \"#utility.yul\":9736:9752   */\n      swap1\n      pop\n        /* \"#utility.yul\":9771:9774   */\n      dup1\n        /* \"#utility.yul\":9768:9769   */\n      dup3\n        /* \"#utility.yul\":9765:9775   */\n      gt\n        /* \"#utility.yul\":9762:9798   */\n      iszero\n      tag_853\n      jumpi\n        /* \"#utility.yul\":9778:9796   */\n      tag_854\n      tag_679\n      jump\t// in\n    tag_854:\n        /* \"#utility.yul\":9762:9798   */\n    tag_853:\n        /* \"#utility.yul\":9614:9805   */\n      swap3\n      swap2\n      pop\n      pop\n      jump\t// out\n        /* \"#utility.yul\":9811:10033   */\n    tag_680:\n        /* \"#utility.yul\":9951:9985   */\n      0x427579205461782070657263656e746167652063616e6e6f7420657863656564\n        /* \"#utility.yul\":9947:9948   */\n      0x00\n        /* \"#utility.yul\":9939:9945   */\n      dup3\n        /* \"#utility.yul\":9935:9949   */\n      add\n        /* \"#utility.yul\":9928:9986   */\n      mstore\n        /* \"#utility.yul\":10020:10025   */\n      0x2035250000000000000000000000000000000000000000000000000000000000\n        /* \"#utility.yul\":10015:10017   */\n      0x20\n        /* \"#utility.yul\":10007:10013   */\n      dup3\n        /* \"#utility.yul\":10003:10018   */\n      add\n        /* \"#utility.yul\":9996:10026   */\n      mstore\n        /* \"#utility.yul\":9811:10033   */\n      pop\n      jump\t// out\n        /* \"#utility.yul\":10039:10405   */\n    tag_681:\n        /* \"#utility.yul\":10181:10184   */\n      0x00\n        /* \"#utility.yul\":10202:10269   */\n      tag_857\n        /* \"#utility.yul\":10266:10268   */\n      0x23\n        /* \"#utility.yul\":10261:10264   */\n      dup4\n        /* \"#utility.yul\":10202:10269   */\n      tag_650\n      jump\t// in\n    tag_857:\n        /* \"#utility.yul\":10195:10269   */\n      swap2\n      pop\n        /* \"#utility.yul\":10278:10371   */\n      tag_858\n        /* \"#utility.yul\":10367:10370   */\n      dup3\n        /* \"#utility.yul\":10278:10371   */\n      tag_680\n      jump\t// in\n    tag_858:\n        /* \"#utility.yul\":10396:10398   */\n      0x40\n        /* \"#utility.yul\":10391:10394   */\n      dup3\n        /* \"#utility.yul\":10387:10399   */\n      add\n        /* \"#utility.yul\":10380:10399   */\n      swap1\n      pop\n        /* \"#utility.yul\":10039:10405   */\n      swap2\n      swap1\n      pop\n      jump\t// out\n        /* \"#utility.yul\":10411:10830   */\n    tag_330:\n        /* \"#utility.yul\":10577:10581   */\n      0x00\n        /* \"#utility.yul\":10615:10617   */\n      0x20\n        /* \"#utility.yul\":10604:10613   */\n      dup3\n        /* \"#utility.yul\":10600:10618   */\n      add\n        /* \"#utility.yul\":10592:10618   */\n      swap1\n      pop\n        /* \"#utility.yul\":10664:10673   */\n      dup2\n        /* \"#utility.yul\":10658:10662   */\n      dup2\n        /* \"#utility.yul\":10654:10674   */\n      sub\n        /* \"#utility.yul\":10650:10651   */\n      0x00\n        /* \"#utility.yul\":10639:10648   */\n      dup4\n        /* \"#utility.yul\":10635:10652   */\n      add\n        /* \"#utility.yul\":10628:10675   */\n      mstore\n        /* \"#utility.yul\":10692:10823   */\n      tag_860\n        /* \"#utility.yul\":10818:10822   */\n      dup2\n        /* \"#utility.yul\":10692:10823   */\n      tag_681\n      jump\t// in\n    tag_860:\n        /* \"#utility.yul\":10684:10823   */\n      swap1\n      pop\n        /* \"#utility.yul\":10411:10830   */\n      swap2\n      swap1\n      pop\n      jump\t// out\n        /* \"#utility.yul\":10836:11063   */\n    tag_682:\n        /* \"#utility.yul\":10976:11010   */\n      0x5472616e73666572205461782070657263656e746167652063616e6e6f742065\n        /* \"#utility.yul\":10972:10973   */\n      0x00\n        /* \"#utility.yul\":10964:10970   */\n      dup3\n        /* \"#utility.yul\":10960:10974   */\n      add\n        /* \"#utility.yul\":10953:11011   */\n      mstore\n        /* \"#utility.yul\":11045:11055   */\n      0x7863656564203325000000000000000000000000000000000000000000000000\n        /* \"#utility.yul\":11040:11042   */\n      0x20\n        /* \"#utility.yul\":11032:11038   */\n      dup3\n        /* \"#utility.yul\":11028:11043   */\n      add\n        /* \"#utility.yul\":11021:11056   */\n      mstore\n        /* \"#utility.yul\":10836:11063   */\n      pop\n      jump\t// out\n        /* \"#utility.yul\":11069:11435   */\n    tag_683:\n        /* \"#utility.yul\":11211:11214   */\n      0x00\n        /* \"#utility.yul\":11232:11299   */\n      tag_863\n        /* \"#utility.yul\":11296:11298   */\n      0x28\n        /* \"#utility.yul\":11291:11294   */\n      dup4\n        /* \"#utility.yul\":11232:11299   */\n      tag_650\n      jump\t// in\n    tag_863:\n        /* \"#utility.yul\":11225:11299   */\n      swap2\n      pop\n        /* \"#utility.yul\":11308:11401   */\n      tag_864\n        /* \"#utility.yul\":11397:11400   */\n      dup3\n        /* \"#utility.yul\":11308:11401   */\n      tag_682\n      jump\t// in\n    tag_864:\n        /* \"#utility.yul\":11426:11428   */\n      0x40\n        /* \"#utility.yul\":11421:11424   */\n      dup3\n        /* \"#utility.yul\":11417:11429   */\n      add\n        /* \"#utility.yul\":11410:11429   */\n      swap1\n      pop\n        /* \"#utility.yul\":11069:11435   */\n      swap2\n      swap1\n      pop\n      jump\t// out\n        /* \"#utility.yul\":11441:11860   */\n    tag_340:\n        /* \"#utility.yul\":11607:11611   */\n      0x00\n        /* \"#utility.yul\":11645:11647   */\n      0x20\n        /* \"#utility.yul\":11634:11643   */\n      dup3\n        /* \"#utility.yul\":11630:11648   */\n      add\n        /* \"#utility.yul\":11622:11648   */\n      swap1\n      pop\n        /* \"#utility.yul\":11694:11703   */\n      dup2\n        /* \"#utility.yul\":11688:11692   */\n      dup2\n        /* \"#utility.yul\":11684:11704   */\n      sub\n        /* \"#utility.yul\":11680:11681   */\n      0x00\n        /* \"#utility.yul\":11669:11678   */\n      dup4\n        /* \"#utility.yul\":11665:11682   */\n      add\n        /* \"#utility.yul\":11658:11705   */\n      mstore\n        /* \"#utility.yul\":11722:11853   */\n      tag_866\n        /* \"#utility.yul\":11848:11852   */\n      dup2\n        /* \"#utility.yul\":11722:11853   */\n      tag_683\n      jump\t// in\n    tag_866:\n        /* \"#utility.yul\":11714:11853   */\n      swap1\n      pop\n        /* \"#utility.yul\":11441:11860   */\n      swap2\n      swap1\n      pop\n      jump\t// out\n        /* \"#utility.yul\":11866:12089   */\n    tag_684:\n        /* \"#utility.yul\":12006:12040   */\n      0x20427579205461782070657263656e746167652063616e6e6f74206578636565\n        /* \"#utility.yul\":12002:12003   */\n      0x00\n        /* \"#utility.yul\":11994:12000   */\n      dup3\n        /* \"#utility.yul\":11990:12004   */\n      add\n        /* \"#utility.yul\":11983:12041   */\n      mstore\n        /* \"#utility.yul\":12075:12081   */\n      0x6420352500000000000000000000000000000000000000000000000000000000\n        /* \"#utility.yul\":12070:12072   */\n      0x20\n        /* \"#utility.yul\":12062:12068   */\n      dup3\n        /* \"#utility.yul\":12058:12073   */\n      add\n        /* \"#utility.yul\":12051:12082   */\n      mstore\n        /* \"#utility.yul\":11866:12089   */\n      pop\n      jump\t// out\n        /* \"#utility.yul\":12095:12461   */\n    tag_685:\n        /* \"#utility.yul\":12237:12240   */\n      0x00\n        /* \"#utility.yul\":12258:12325   */\n      tag_869\n        /* \"#utility.yul\":12322:12324   */\n      0x24\n        /* \"#utility.yul\":12317:12320   */\n      dup4\n        /* \"#utility.yul\":12258:12325   */\n      tag_650\n      jump\t// in\n    tag_869:\n        /* \"#utility.yul\":12251:12325   */\n      swap2\n      pop\n        /* \"#utility.yul\":12334:12427   */\n      tag_870\n        /* \"#utility.yul\":12423:12426   */\n      dup3\n        /* \"#utility.yul\":12334:12427   */\n      tag_684\n      jump\t// in\n    tag_870:\n        /* \"#utility.yul\":12452:12454   */\n      0x40\n        /* \"#utility.yul\":12447:12450   */\n      dup3\n        /* \"#utility.yul\":12443:12455   */\n      add\n        /* \"#utility.yul\":12436:12455   */\n      swap1\n      pop\n        /* \"#utility.yul\":12095:12461   */\n      swap2\n      swap1\n      pop\n      jump\t// out\n        /* \"#utility.yul\":12467:12886   */\n    tag_353:\n        /* \"#utility.yul\":12633:12637   */\n      0x00\n        /* \"#utility.yul\":12671:12673   */\n      0x20\n        /* \"#utility.yul\":12660:12669   */\n      dup3\n        /* \"#utility.yul\":12656:12674   */\n      add\n        /* \"#utility.yul\":12648:12674   */\n      swap1\n      pop\n        /* \"#utility.yul\":12720:12729   */\n      dup2\n        /* \"#utility.yul\":12714:12718   */\n      dup2\n        /* \"#utility.yul\":12710:12730   */\n      sub\n        /* \"#utility.yul\":12706:12707   */\n      0x00\n        /* \"#utility.yul\":12695:12704   */\n      dup4\n        /* \"#utility.yul\":12691:12708   */\n      add\n        /* \"#utility.yul\":12684:12731   */\n      mstore\n        /* \"#utility.yul\":12748:12879   */\n      tag_872\n        /* \"#utility.yul\":12874:12878   */\n      dup2\n        /* \"#utility.yul\":12748:12879   */\n      tag_685\n      jump\t// in\n    tag_872:\n        /* \"#utility.yul\":12740:12879   */\n      swap1\n      pop\n        /* \"#utility.yul\":12467:12886   */\n      swap2\n      swap1\n      pop\n      jump\t// out\n        /* \"#utility.yul\":12892:13072   */\n    tag_686:\n        /* \"#utility.yul\":13032:13064   */\n      0x4163636f756e7420697320616c726561647920626c61636b6c69737465640000\n        /* \"#utility.yul\":13028:13029   */\n      0x00\n        /* \"#utility.yul\":13020:13026   */\n      dup3\n        /* \"#utility.yul\":13016:13030   */\n      add\n        /* \"#utility.yul\":13009:13065   */\n      mstore\n        /* \"#utility.yul\":12892:13072   */\n      pop\n      jump\t// out\n        /* \"#utility.yul\":13078:13444   */\n    tag_687:\n        /* \"#utility.yul\":13220:13223   */\n      0x00\n        /* \"#utility.yul\":13241:13308   */\n      tag_875\n        /* \"#utility.yul\":13305:13307   */\n      0x1e\n        /* \"#utility.yul\":13300:13303   */\n      dup4\n        /* \"#utility.yul\":13241:13308   */\n      tag_650\n      jump\t// in\n    tag_875:\n        /* \"#utility.yul\":13234:13308   */\n      swap2\n      pop\n        /* \"#utility.yul\":13317:13410   */\n      tag_876\n        /* \"#utility.yul\":13406:13409   */\n      dup3\n        /* \"#utility.yul\":13317:13410   */\n      tag_686\n      jump\t// in\n    tag_876:\n        /* \"#utility.yul\":13435:13437   */\n      0x20\n        /* \"#utility.yul\":13430:13433   */\n      dup3\n        /* \"#utility.yul\":13426:13438   */\n      add\n        /* \"#utility.yul\":13419:13438   */\n      swap1\n      pop\n        /* \"#utility.yul\":13078:13444   */\n      swap2\n      swap1\n      pop\n      jump\t// out\n        /* \"#utility.yul\":13450:13869   */\n    tag_361:\n        /* \"#utility.yul\":13616:13620   */\n      0x00\n        /* \"#utility.yul\":13654:13656   */\n      0x20\n        /* \"#utility.yul\":13643:13652   */\n      dup3\n        /* \"#utility.yul\":13639:13657   */\n      add\n        /* \"#utility.yul\":13631:13657   */\n      swap1\n      pop\n        /* \"#utility.yul\":13703:13712   */\n      dup2\n        /* \"#utility.yul\":13697:13701   */\n      dup2\n        /* \"#utility.yul\":13693:13713   */\n      sub\n        /* \"#utility.yul\":13689:13690   */\n      0x00\n        /* \"#utility.yul\":13678:13687   */\n      dup4\n        /* \"#utility.yul\":13674:13691   */\n      add\n        /* \"#utility.yul\":13667:13714   */\n      mstore\n        /* \"#utility.yul\":13731:13862   */\n      tag_878\n        /* \"#utility.yul\":13857:13861   */\n      dup2\n        /* \"#utility.yul\":13731:13862   */\n      tag_687\n      jump\t// in\n    tag_878:\n        /* \"#utility.yul\":13723:13862   */\n      swap1\n      pop\n        /* \"#utility.yul\":13450:13869   */\n      swap2\n      swap1\n      pop\n      jump\t// out\n        /* \"#utility.yul\":13875:14046   */\n    tag_688:\n        /* \"#utility.yul\":14015:14038   */\n      0x43616e6e6f7420626c61636b6c6973742073656c660000000000000000000000\n        /* \"#utility.yul\":14011:14012   */\n      0x00\n        /* \"#utility.yul\":14003:14009   */\n      dup3\n        /* \"#utility.yul\":13999:14013   */\n      add\n        /* \"#utility.yul\":13992:14039   */\n      mstore\n        /* \"#utility.yul\":13875:14046   */\n      pop\n      jump\t// out\n        /* \"#utility.yul\":14052:14418   */\n    tag_689:\n        /* \"#utility.yul\":14194:14197   */\n      0x00\n        /* \"#utility.yul\":14215:14282   */\n      tag_881\n        /* \"#utility.yul\":14279:14281   */\n      0x15\n        /* \"#utility.yul\":14274:14277   */\n      dup4\n        /* \"#utility.yul\":14215:14282   */\n      tag_650\n      jump\t// in\n    tag_881:\n        /* \"#utility.yul\":14208:14282   */\n      swap2\n      pop\n        /* \"#utility.yul\":14291:14384   */\n      tag_882\n        /* \"#utility.yul\":14380:14383   */\n      dup3\n        /* \"#utility.yul\":14291:14384   */\n      tag_688\n      jump\t// in\n    tag_882:\n        /* \"#utility.yul\":14409:14411   */\n      0x20\n        /* \"#utility.yul\":14404:14407   */\n      dup3\n        /* \"#utility.yul\":14400:14412   */\n      add\n        /* \"#utility.yul\":14393:14412   */\n      swap1\n      pop\n        /* \"#utility.yul\":14052:14418   */\n      swap2\n      swap1\n      pop\n      jump\t// out\n        /* \"#utility.yul\":14424:14843   */\n    tag_366:\n        /* \"#utility.yul\":14590:14594   */\n      0x00\n        /* \"#utility.yul\":14628:14630   */\n      0x20\n        /* \"#utility.yul\":14617:14626   */\n      dup3\n        /* \"#utility.yul\":14613:14631   */\n      add\n        /* \"#utility.yul\":14605:14631   */\n      swap1\n      pop\n        /* \"#utility.yul\":14677:14686   */\n      dup2\n        /* \"#utility.yul\":14671:14675   */\n      dup2\n        /* \"#utility.yul\":14667:14687   */\n      sub\n        /* \"#utility.yul\":14663:14664   */\n      0x00\n        /* \"#utility.yul\":14652:14661   */\n      dup4\n        /* \"#utility.yul\":14648:14665   */\n      add\n        /* \"#utility.yul\":14641:14688   */\n      mstore\n        /* \"#utility.yul\":14705:14836   */\n      tag_884\n        /* \"#utility.yul\":14831:14835   */\n      dup2\n        /* \"#utility.yul\":14705:14836   */\n      tag_689\n      jump\t// in\n    tag_884:\n        /* \"#utility.yul\":14697:14836   */\n      swap1\n      pop\n        /* \"#utility.yul\":14424:14843   */\n      swap2\n      swap1\n      pop\n      jump\t// out\n        /* \"#utility.yul\":14849:15072   */\n    tag_690:\n        /* \"#utility.yul\":14989:15023   */\n      0x53656c6c205461782070657263656e746167652063616e6e6f74206578636565\n        /* \"#utility.yul\":14985:14986   */\n      0x00\n        /* \"#utility.yul\":14977:14983   */\n      dup3\n        /* \"#utility.yul\":14973:14987   */\n      add\n        /* \"#utility.yul\":14966:15024   */\n      mstore\n        /* \"#utility.yul\":15058:15064   */\n      0x6420352500000000000000000000000000000000000000000000000000000000\n        /* \"#utility.yul\":15053:15055   */\n      0x20\n        /* \"#utility.yul\":15045:15051   */\n      dup3\n        /* \"#utility.yul\":15041:15056   */\n      add\n        /* \"#utility.yul\":15034:15065   */\n      mstore\n        /* \"#utility.yul\":14849:15072   */\n      pop\n      jump\t// out\n        /* \"#utility.yul\":15078:15444   */\n    tag_691:\n        /* \"#utility.yul\":15220:15223   */\n      0x00\n        /* \"#utility.yul\":15241:15308   */\n      tag_887\n        /* \"#utility.yul\":15305:15307   */\n      0x24\n        /* \"#utility.yul\":15300:15303   */\n      dup4\n        /* \"#utility.yul\":15241:15308   */\n      tag_650\n      jump\t// in\n    tag_887:\n        /* \"#utility.yul\":15234:15308   */\n      swap2\n      pop\n        /* \"#utility.yul\":15317:15410   */\n      tag_888\n        /* \"#utility.yul\":15406:15409   */\n      dup3\n        /* \"#utility.yul\":15317:15410   */\n      tag_690\n      jump\t// in\n    tag_888:\n        /* \"#utility.yul\":15435:15437   */\n      0x40\n        /* \"#utility.yul\":15430:15433   */\n      dup3\n        /* \"#utility.yul\":15426:15438   */\n      add\n        /* \"#utility.yul\":15419:15438   */\n      swap1\n      pop\n        /* \"#utility.yul\":15078:15444   */\n      swap2\n      swap1\n      pop\n      jump\t// out\n        /* \"#utility.yul\":15450:15869   */\n    tag_377:\n        /* \"#utility.yul\":15616:15620   */\n      0x00\n        /* \"#utility.yul\":15654:15656   */\n      0x20\n        /* \"#utility.yul\":15643:15652   */\n      dup3\n        /* \"#utility.yul\":15639:15657   */\n      add\n        /* \"#utility.yul\":15631:15657   */\n      swap1\n      pop\n        /* \"#utility.yul\":15703:15712   */\n      dup2\n        /* \"#utility.yul\":15697:15701   */\n      dup2\n        /* \"#utility.yul\":15693:15713   */\n      sub\n        /* \"#utility.yul\":15689:15690   */\n      0x00\n        /* \"#utility.yul\":15678:15687   */\n      dup4\n        /* \"#utility.yul\":15674:15691   */\n      add\n        /* \"#utility.yul\":15667:15714   */\n      mstore\n        /* \"#utility.yul\":15731:15862   */\n      tag_890\n        /* \"#utility.yul\":15857:15861   */\n      dup2\n        /* \"#utility.yul\":15731:15862   */\n      tag_691\n      jump\t// in\n    tag_890:\n        /* \"#utility.yul\":15723:15862   */\n      swap1\n      pop\n        /* \"#utility.yul\":15450:15869   */\n      swap2\n      swap1\n      pop\n      jump\t// out\n        /* \"#utility.yul\":15875:16099   */\n    tag_692:\n        /* \"#utility.yul\":16015:16049   */\n      0x2053656c6c205461782070657263656e746167652063616e6e6f742065786365\n        /* \"#utility.yul\":16011:16012   */\n      0x00\n        /* \"#utility.yul\":16003:16009   */\n      dup3\n        /* \"#utility.yul\":15999:16013   */\n      add\n        /* \"#utility.yul\":15992:16050   */\n      mstore\n        /* \"#utility.yul\":16084:16091   */\n      0x6564203525000000000000000000000000000000000000000000000000000000\n        /* \"#utility.yul\":16079:16081   */\n      0x20\n        /* \"#utility.yul\":16071:16077   */\n      dup3\n        /* \"#utility.yul\":16067:16082   */\n      add\n        /* \"#utility.yul\":16060:16092   */\n      mstore\n        /* \"#utility.yul\":15875:16099   */\n      pop\n      jump\t// out\n        /* \"#utility.yul\":16105:16471   */\n    tag_693:\n        /* \"#utility.yul\":16247:16250   */\n      0x00\n        /* \"#utility.yul\":16268:16335   */\n      tag_893\n        /* \"#utility.yul\":16332:16334   */\n      0x25\n        /* \"#utility.yul\":16327:16330   */\n      dup4\n        /* \"#utility.yul\":16268:16335   */\n      tag_650\n      jump\t// in\n    tag_893:\n        /* \"#utility.yul\":16261:16335   */\n      swap2\n      pop\n        /* \"#utility.yul\":16344:16437   */\n      tag_894\n        /* \"#utility.yul\":16433:16436   */\n      dup3\n        /* \"#utility.yul\":16344:16437   */\n      tag_692\n      jump\t// in\n    tag_894:\n        /* \"#utility.yul\":16462:16464   */\n      0x40\n        /* \"#utility.yul\":16457:16460   */\n      dup3\n        /* \"#utility.yul\":16453:16465   */\n      add\n        /* \"#utility.yul\":16446:16465   */\n      swap1\n      pop\n        /* \"#utility.yul\":16105:16471   */\n      swap2\n      swap1\n      pop\n      jump\t// out\n        /* \"#utility.yul\":16477:16896   */\n    tag_388:\n        /* \"#utility.yul\":16643:16647   */\n      0x00\n        /* \"#utility.yul\":16681:16683   */\n      0x20\n        /* \"#utility.yul\":16670:16679   */\n      dup3\n        /* \"#utility.yul\":16666:16684   */\n      add\n        /* \"#utility.yul\":16658:16684   */\n      swap1\n      pop\n        /* \"#utility.yul\":16730:16739   */\n      dup2\n        /* \"#utility.yul\":16724:16728   */\n      dup2\n        /* \"#utility.yul\":16720:16740   */\n      sub\n        /* \"#utility.yul\":16716:16717   */\n      0x00\n        /* \"#utility.yul\":16705:16714   */\n      dup4\n        /* \"#utility.yul\":16701:16718   */\n      add\n        /* \"#utility.yul\":16694:16741   */\n      mstore\n        /* \"#utility.yul\":16758:16889   */\n      tag_896\n        /* \"#utility.yul\":16884:16888   */\n      dup2\n        /* \"#utility.yul\":16758:16889   */\n      tag_693\n      jump\t// in\n    tag_896:\n        /* \"#utility.yul\":16750:16889   */\n      swap1\n      pop\n        /* \"#utility.yul\":16477:16896   */\n      swap2\n      swap1\n      pop\n      jump\t// out\n        /* \"#utility.yul\":16902:17146   */\n    tag_694:\n        /* \"#utility.yul\":17042:17076   */\n      0x54686520706169722063616e6e6f742062652072656d6f7665642066726f6d20\n        /* \"#utility.yul\":17038:17039   */\n      0x00\n        /* \"#utility.yul\":17030:17036   */\n      dup3\n        /* \"#utility.yul\":17026:17040   */\n      add\n        /* \"#utility.yul\":17019:17077   */\n      mstore\n        /* \"#utility.yul\":17111:17138   */\n      0x6175746f6d617465644d61726b65744d616b6572506169727300000000000000\n        /* \"#utility.yul\":17106:17108   */\n      0x20\n        /* \"#utility.yul\":17098:17104   */\n      dup3\n        /* \"#utility.yul\":17094:17109   */\n      add\n        /* \"#utility.yul\":17087:17139   */\n      mstore\n        /* \"#utility.yul\":16902:17146   */\n      pop\n      jump\t// out\n        /* \"#utility.yul\":17152:17518   */\n    tag_695:\n        /* \"#utility.yul\":17294:17297   */\n      0x00\n        /* \"#utility.yul\":17315:17382   */\n      tag_899\n        /* \"#utility.yul\":17379:17381   */\n      0x39\n        /* \"#utility.yul\":17374:17377   */\n      dup4\n        /* \"#utility.yul\":17315:17382   */\n      tag_650\n      jump\t// in\n    tag_899:\n        /* \"#utility.yul\":17308:17382   */\n      swap2\n      pop\n        /* \"#utility.yul\":17391:17484   */\n      tag_900\n        /* \"#utility.yul\":17480:17483   */\n      dup3\n        /* \"#utility.yul\":17391:17484   */\n      tag_694\n      jump\t// in\n    tag_900:\n        /* \"#utility.yul\":17509:17511   */\n      0x40\n        /* \"#utility.yul\":17504:17507   */\n      dup3\n        /* \"#utility.yul\":17500:17512   */\n      add\n        /* \"#utility.yul\":17493:17512   */\n      swap1\n      pop\n        /* \"#utility.yul\":17152:17518   */\n      swap2\n      swap1\n      pop\n      jump\t// out\n        /* \"#utility.yul\":17524:17943   */\n    tag_410:\n        /* \"#utility.yul\":17690:17694   */\n      0x00\n        /* \"#utility.yul\":17728:17730   */\n      0x20\n        /* \"#utility.yul\":17717:17726   */\n      dup3\n        /* \"#utility.yul\":17713:17731   */\n      add\n        /* \"#utility.yul\":17705:17731   */\n      swap1\n      pop\n        /* \"#utility.yul\":17777:17786   */\n      dup2\n        /* \"#utility.yul\":17771:17775   */\n      dup2\n        /* \"#utility.yul\":17767:17787   */\n      sub\n        /* \"#utility.yul\":17763:17764   */\n      0x00\n        /* \"#utility.yul\":17752:17761   */\n      dup4\n        /* \"#utility.yul\":17748:17765   */\n      add\n        /* \"#utility.yul\":17741:17788   */\n      mstore\n        /* \"#utility.yul\":17805:17936   */\n      tag_902\n        /* \"#utility.yul\":17931:17935   */\n      dup2\n        /* \"#utility.yul\":17805:17936   */\n      tag_695\n      jump\t// in\n    tag_902:\n        /* \"#utility.yul\":17797:17936   */\n      swap1\n      pop\n        /* \"#utility.yul\":17524:17943   */\n      swap2\n      swap1\n      pop\n      jump\t// out\n        /* \"#utility.yul\":17949:18175   */\n    tag_696:\n        /* \"#utility.yul\":18089:18123   */\n      0x4d61726b6574696e672077616c6c65742063616e6e6f74206265207a65726f20\n        /* \"#utility.yul\":18085:18086   */\n      0x00\n        /* \"#utility.yul\":18077:18083   */\n      dup3\n        /* \"#utility.yul\":18073:18087   */\n      add\n        /* \"#utility.yul\":18066:18124   */\n      mstore\n        /* \"#utility.yul\":18158:18167   */\n      0x6164647265737300000000000000000000000000000000000000000000000000\n        /* \"#utility.yul\":18153:18155   */\n      0x20\n        /* \"#utility.yul\":18145:18151   */\n      dup3\n        /* \"#utility.yul\":18141:18156   */\n      add\n        /* \"#utility.yul\":18134:18168   */\n      mstore\n        /* \"#utility.yul\":17949:18175   */\n      pop\n      jump\t// out\n        /* \"#utility.yul\":18181:18547   */\n    tag_697:\n        /* \"#utility.yul\":18323:18326   */\n      0x00\n        /* \"#utility.yul\":18344:18411   */\n      tag_905\n        /* \"#utility.yul\":18408:18410   */\n      0x27\n        /* \"#utility.yul\":18403:18406   */\n      dup4\n        /* \"#utility.yul\":18344:18411   */\n      tag_650\n      jump\t// in\n    tag_905:\n        /* \"#utility.yul\":18337:18411   */\n      swap2\n      pop\n        /* \"#utility.yul\":18420:18513   */\n      tag_906\n        /* \"#utility.yul\":18509:18512   */\n      dup3\n        /* \"#utility.yul\":18420:18513   */\n      tag_696\n      jump\t// in\n    tag_906:\n        /* \"#utility.yul\":18538:18540   */\n      0x40\n        /* \"#utility.yul\":18533:18536   */\n      dup3\n        /* \"#utility.yul\":18529:18541   */\n      add\n        /* \"#utility.yul\":18522:18541   */\n      swap1\n      pop\n        /* \"#utility.yul\":18181:18547   */\n      swap2\n      swap1\n      pop\n      jump\t// out\n        /* \"#utility.yul\":18553:18972   */\n    tag_420:\n        /* \"#utility.yul\":18719:18723   */\n      0x00\n        /* \"#utility.yul\":18757:18759   */\n      0x20\n        /* \"#utility.yul\":18746:18755   */\n      dup3\n        /* \"#utility.yul\":18742:18760   */\n      add\n        /* \"#utility.yul\":18734:18760   */\n      swap1\n      pop\n        /* \"#utility.yul\":18806:18815   */\n      dup2\n        /* \"#utility.yul\":18800:18804   */\n      dup2\n        /* \"#utility.yul\":18796:18816   */\n      sub\n        /* \"#utility.yul\":18792:18793   */\n      0x00\n        /* \"#utility.yul\":18781:18790   */\n      dup4\n        /* \"#utility.yul\":18777:18794   */\n      add\n        /* \"#utility.yul\":18770:18817   */\n      mstore\n        /* \"#utility.yul\":18834:18965   */\n      tag_908\n        /* \"#utility.yul\":18960:18964   */\n      dup2\n        /* \"#utility.yul\":18834:18965   */\n      tag_697\n      jump\t// in\n    tag_908:\n        /* \"#utility.yul\":18826:18965   */\n      swap1\n      pop\n        /* \"#utility.yul\":18553:18972   */\n      swap2\n      swap1\n      pop\n      jump\t// out\n        /* \"#utility.yul\":18978:19203   */\n    tag_698:\n        /* \"#utility.yul\":19118:19152   */\n      0x4f776e61626c653a206e6577206f776e657220697320746865207a65726f2061\n        /* \"#utility.yul\":19114:19115   */\n      0x00\n        /* \"#utility.yul\":19106:19112   */\n      dup3\n        /* \"#utility.yul\":19102:19116   */\n      add\n        /* \"#utility.yul\":19095:19153   */\n      mstore\n        /* \"#utility.yul\":19187:19195   */\n      0x6464726573730000000000000000000000000000000000000000000000000000\n        /* \"#utility.yul\":19182:19184   */\n      0x20\n        /* \"#utility.yul\":19174:19180   */\n      dup3\n        /* \"#utility.yul\":19170:19185   */\n      add\n        /* \"#utility.yul\":19163:19196   */\n      mstore\n        /* \"#utility.yul\":18978:19203   */\n      pop\n      jump\t// out\n        /* \"#utility.yul\":19209:19575   */\n    tag_699:\n        /* \"#utility.yul\":19351:19354   */\n      0x00\n        /* \"#utility.yul\":19372:19439   */\n      tag_911\n        /* \"#utility.yul\":19436:19438   */\n      0x26\n        /* \"#utility.yul\":19431:19434   */\n      dup4\n        /* \"#utility.yul\":19372:19439   */\n      tag_650\n      jump\t// in\n    tag_911:\n        /* \"#utility.yul\":19365:19439   */\n      swap2\n      pop\n        /* \"#utility.yul\":19448:19541   */\n      tag_912\n        /* \"#utility.yul\":19537:19540   */\n      dup3\n        /* \"#utility.yul\":19448:19541   */\n      tag_698\n      jump\t// in\n    tag_912:\n        /* \"#utility.yul\":19566:19568   */\n      0x40\n        /* \"#utility.yul\":19561:19564   */\n      dup3\n        /* \"#utility.yul\":19557:19569   */\n      add\n        /* \"#utility.yul\":19550:19569   */\n      swap1\n      pop\n        /* \"#utility.yul\":19209:19575   */\n      swap2\n      swap1\n      pop\n      jump\t// out\n        /* \"#utility.yul\":19581:20000   */\n    tag_447:\n        /* \"#utility.yul\":19747:19751   */\n      0x00\n        /* \"#utility.yul\":19785:19787   */\n      0x20\n        /* \"#utility.yul\":19774:19783   */\n      dup3\n        /* \"#utility.yul\":19770:19788   */\n      add\n        /* \"#utility.yul\":19762:19788   */\n      swap1\n      pop\n        /* \"#utility.yul\":19834:19843   */\n      dup2\n        /* \"#utility.yul\":19828:19832   */\n      dup2\n        /* \"#utility.yul\":19824:19844   */\n      sub\n        /* \"#utility.yul\":19820:19821   */\n      0x00\n        /* \"#utility.yul\":19809:19818   */\n      dup4\n        /* \"#utility.yul\":19805:19822   */\n      add\n        /* \"#utility.yul\":19798:19845   */\n      mstore\n        /* \"#utility.yul\":19862:19993   */\n      tag_914\n        /* \"#utility.yul\":19988:19992   */\n      dup2\n        /* \"#utility.yul\":19862:19993   */\n      tag_699\n      jump\t// in\n    tag_914:\n        /* \"#utility.yul\":19854:19993   */\n      swap1\n      pop\n        /* \"#utility.yul\":19581:20000   */\n      swap2\n      swap1\n      pop\n      jump\t// out\n        /* \"#utility.yul\":20006:20188   */\n    tag_700:\n        /* \"#utility.yul\":20146:20180   */\n      0x4f776e61626c653a2063616c6c6572206973206e6f7420746865206f776e6572\n        /* \"#utility.yul\":20142:20143   */\n      0x00\n        /* \"#utility.yul\":20134:20140   */\n      dup3\n        /* \"#utility.yul\":20130:20144   */\n      add\n        /* \"#utility.yul\":20123:20181   */\n      mstore\n        /* \"#utility.yul\":20006:20188   */\n      pop\n      jump\t// out\n        /* \"#utility.yul\":20194:20560   */\n    tag_701:\n        /* \"#utility.yul\":20336:20339   */\n      0x00\n        /* \"#utility.yul\":20357:20424   */\n      tag_917\n        /* \"#utility.yul\":20421:20423   */\n      0x20\n        /* \"#utility.yul\":20416:20419   */\n      dup4\n        /* \"#utility.yul\":20357:20424   */\n      tag_650\n      jump\t// in\n    tag_917:\n        /* \"#utility.yul\":20350:20424   */\n      swap2\n      pop\n        /* \"#utility.yul\":20433:20526   */\n      tag_918\n        /* \"#utility.yul\":20522:20525   */\n      dup3\n        /* \"#utility.yul\":20433:20526   */\n      tag_700\n      jump\t// in\n    tag_918:\n        /* \"#utility.yul\":20551:20553   */\n      0x20\n        /* \"#utility.yul\":20546:20549   */\n      dup3\n        /* \"#utility.yul\":20542:20554   */\n      add\n        /* \"#utility.yul\":20535:20554   */\n      swap1\n      pop\n        /* \"#utility.yul\":20194:20560   */\n      swap2\n      swap1\n      pop\n      jump\t// out\n        /* \"#utility.yul\":20566:20985   */\n    tag_457:\n        /* \"#utility.yul\":20732:20736   */\n      0x00\n        /* \"#utility.yul\":20770:20772   */\n      0x20\n        /* \"#utility.yul\":20759:20768   */\n      dup3\n        /* \"#utility.yul\":20755:20773   */\n      add\n        /* \"#utility.yul\":20747:20773   */\n      swap1\n      pop\n        /* \"#utility.yul\":20819:20828   */\n      dup2\n        /* \"#utility.yul\":20813:20817   */\n      dup2\n        /* \"#utility.yul\":20809:20829   */\n      sub\n        /* \"#utility.yul\":20805:20806   */\n      0x00\n        /* \"#utility.yul\":20794:20803   */\n      dup4\n        /* \"#utility.yul\":20790:20807   */\n      add\n        /* \"#utility.yul\":20783:20830   */\n      mstore\n        /* \"#utility.yul\":20847:20978   */\n      tag_920\n        /* \"#utility.yul\":20973:20977   */\n      dup2\n        /* \"#utility.yul\":20847:20978   */\n      tag_701\n      jump\t// in\n    tag_920:\n        /* \"#utility.yul\":20839:20978   */\n      swap1\n      pop\n        /* \"#utility.yul\":20566:20985   */\n      swap2\n      swap1\n      pop\n      jump\t// out\n        /* \"#utility.yul\":20991:21214   */\n    tag_702:\n        /* \"#utility.yul\":21131:21165   */\n      0x45524332303a20617070726f76652066726f6d20746865207a65726f20616464\n        /* \"#utility.yul\":21127:21128   */\n      0x00\n        /* \"#utility.yul\":21119:21125   */\n      dup3\n        /* \"#utility.yul\":21115:21129   */\n      add\n        /* \"#utility.yul\":21108:21166   */\n      mstore\n        /* \"#utility.yul\":21200:21206   */\n      0x7265737300000000000000000000000000000000000000000000000000000000\n        /* \"#utility.yul\":21195:21197   */\n      0x20\n        /* \"#utility.yul\":21187:21193   */\n      dup3\n        /* \"#utility.yul\":21183:21198   */\n      add\n        /* \"#utility.yul\":21176:21207   */\n      mstore\n        /* \"#utility.yul\":20991:21214   */\n      pop\n      jump\t// out\n        /* \"#utility.yul\":21220:21586   */\n    tag_703:\n        /* \"#utility.yul\":21362:21365   */\n      0x00\n        /* \"#utility.yul\":21383:21450   */\n      tag_923\n        /* \"#utility.yul\":21447:21449   */\n      0x24\n        /* \"#utility.yul\":21442:21445   */\n      dup4\n        /* \"#utility.yul\":21383:21450   */\n      tag_650\n      jump\t// in\n    tag_923:\n        /* \"#utility.yul\":21376:21450   */\n      swap2\n      pop\n        /* \"#utility.yul\":21459:21552   */\n      tag_924\n        /* \"#utility.yul\":21548:21551   */\n      dup3\n        /* \"#utility.yul\":21459:21552   */\n      tag_702\n      jump\t// in\n    tag_924:\n        /* \"#utility.yul\":21577:21579   */\n      0x40\n        /* \"#utility.yul\":21572:21575   */\n      dup3\n        /* \"#utility.yul\":21568:21580   */\n      add\n        /* \"#utility.yul\":21561:21580   */\n      swap1\n      pop\n        /* \"#utility.yul\":21220:21586   */\n      swap2\n      swap1\n      pop\n      jump\t// out\n        /* \"#utility.yul\":21592:22011   */\n    tag_461:\n        /* \"#utility.yul\":21758:21762   */\n      0x00\n        /* \"#utility.yul\":21796:21798   */\n      0x20\n        /* \"#utility.yul\":21785:21794   */\n      dup3\n        /* \"#utility.yul\":21781:21799   */\n      add\n        /* \"#utility.yul\":21773:21799   */\n      swap1\n      pop\n        /* \"#utility.yul\":21845:21854   */\n      dup2\n        /* \"#utility.yul\":21839:21843   */\n      dup2\n        /* \"#utility.yul\":21835:21855   */\n      sub\n        /* \"#utility.yul\":21831:21832   */\n      0x00\n        /* \"#utility.yul\":21820:21829   */\n      dup4\n        /* \"#utility.yul\":21816:21833   */\n      add\n        /* \"#utility.yul\":21809:21856   */\n      mstore\n        /* \"#utility.yul\":21873:22004   */\n      tag_926\n        /* \"#utility.yul\":21999:22003   */\n      dup2\n        /* \"#utility.yul\":21873:22004   */\n      tag_703\n      jump\t// in\n    tag_926:\n        /* \"#utility.yul\":21865:22004   */\n      swap1\n      pop\n        /* \"#utility.yul\":21592:22011   */\n      swap2\n      swap1\n      pop\n      jump\t// out\n        /* \"#utility.yul\":22017:22238   */\n    tag_704:\n        /* \"#utility.yul\":22157:22191   */\n      0x45524332303a20617070726f766520746f20746865207a65726f206164647265\n        /* \"#utility.yul\":22153:22154   */\n      0x00\n        /* \"#utility.yul\":22145:22151   */\n      dup3\n        /* \"#utility.yul\":22141:22155   */\n      add\n        /* \"#utility.yul\":22134:22192   */\n      mstore\n        /* \"#utility.yul\":22226:22230   */\n      0x7373000000000000000000000000000000000000000000000000000000000000\n        /* \"#utility.yul\":22221:22223   */\n      0x20\n        /* \"#utility.yul\":22213:22219   */\n      dup3\n        /* \"#utility.yul\":22209:22224   */\n      add\n        /* \"#utility.yul\":22202:22231   */\n      mstore\n        /* \"#utility.yul\":22017:22238   */\n      pop\n      jump\t// out\n        /* \"#utility.yul\":22244:22610   */\n    tag_705:\n        /* \"#utility.yul\":22386:22389   */\n      0x00\n        /* \"#utility.yul\":22407:22474   */\n      tag_929\n        /* \"#utility.yul\":22471:22473   */\n      0x22\n        /* \"#utility.yul\":22466:22469   */\n      dup4\n        /* \"#utility.yul\":22407:22474   */\n      tag_650\n      jump\t// in\n    tag_929:\n        /* \"#utility.yul\":22400:22474   */\n      swap2\n      pop\n        /* \"#utility.yul\":22483:22576   */\n      tag_930\n        /* \"#utility.yul\":22572:22575   */\n      dup3\n        /* \"#utility.yul\":22483:22576   */\n      tag_704\n      jump\t// in\n    tag_930:\n        /* \"#utility.yul\":22601:22603   */\n      0x40\n        /* \"#utility.yul\":22596:22599   */\n      dup3\n        /* \"#utility.yul\":22592:22604   */\n      add\n        /* \"#utility.yul\":22585:22604   */\n      swap1\n      pop\n        /* \"#utility.yul\":22244:22610   */\n      swap2\n      swap1\n      pop\n      jump\t// out\n        /* \"#utility.yul\":22616:23035   */\n    tag_464:\n        /* \"#utility.yul\":22782:22786   */\n      0x00\n        /* \"#utility.yul\":22820:22822   */\n      0x20\n        /* \"#utility.yul\":22809:22818   */\n      dup3\n        /* \"#utility.yul\":22805:22823   */\n      add\n        /* \"#utility.yul\":22797:22823   */\n      swap1\n      pop\n        /* \"#utility.yul\":22869:22878   */\n      dup2\n        /* \"#utility.yul\":22863:22867   */\n      dup2\n        /* \"#utility.yul\":22859:22879   */\n      sub\n        /* \"#utility.yul\":22855:22856   */\n      0x00\n        /* \"#utility.yul\":22844:22853   */\n      dup4\n        /* \"#utility.yul\":22840:22857   */\n      add\n        /* \"#utility.yul\":22833:22880   */\n      mstore\n        /* \"#utility.yul\":22897:23028   */\n      tag_932\n        /* \"#utility.yul\":23023:23027   */\n      dup2\n        /* \"#utility.yul\":22897:23028   */\n      tag_705\n      jump\t// in\n    tag_932:\n        /* \"#utility.yul\":22889:23028   */\n      swap1\n      pop\n        /* \"#utility.yul\":22616:23035   */\n      swap2\n      swap1\n      pop\n      jump\t// out\n        /* \"#utility.yul\":23041:23451   */\n    tag_472:\n        /* \"#utility.yul\":23081:23088   */\n      0x00\n        /* \"#utility.yul\":23104:23124   */\n      tag_934\n        /* \"#utility.yul\":23122:23123   */\n      dup3\n        /* \"#utility.yul\":23104:23124   */\n      tag_657\n      jump\t// in\n    tag_934:\n        /* \"#utility.yul\":23099:23124   */\n      swap2\n      pop\n        /* \"#utility.yul\":23138:23158   */\n      tag_935\n        /* \"#utility.yul\":23156:23157   */\n      dup4\n        /* \"#utility.yul\":23138:23158   */\n      tag_657\n      jump\t// in\n    tag_935:\n        /* \"#utility.yul\":23133:23158   */\n      swap3\n      pop\n        /* \"#utility.yul\":23193:23194   */\n      dup3\n        /* \"#utility.yul\":23190:23191   */\n      dup3\n        /* \"#utility.yul\":23186:23195   */\n      mul\n        /* \"#utility.yul\":23215:23245   */\n      tag_936\n        /* \"#utility.yul\":23233:23244   */\n      dup2\n        /* \"#utility.yul\":23215:23245   */\n      tag_657\n      jump\t// in\n    tag_936:\n        /* \"#utility.yul\":23204:23245   */\n      swap2\n      pop\n        /* \"#utility.yul\":23394:23395   */\n      dup3\n        /* \"#utility.yul\":23385:23392   */\n      dup3\n        /* \"#utility.yul\":23381:23396   */\n      div\n        /* \"#utility.yul\":23378:23379   */\n      dup5\n        /* \"#utility.yul\":23375:23397   */\n      eq\n        /* \"#utility.yul\":23355:23356   */\n      dup4\n        /* \"#utility.yul\":23348:23357   */\n      iszero\n        /* \"#utility.yul\":23328:23411   */\n      or\n        /* \"#utility.yul\":23305:23444   */\n      tag_937\n      jumpi\n        /* \"#utility.yul\":23424:23442   */\n      tag_938\n      tag_679\n      jump\t// in\n    tag_938:\n        /* \"#utility.yul\":23305:23444   */\n    tag_937:\n        /* \"#utility.yul\":23089:23451   */\n      pop\n        /* \"#utility.yul\":23041:23451   */\n      swap3\n      swap2\n      pop\n      pop\n      jump\t// out\n        /* \"#utility.yul\":23457:23637   */\n    tag_706:\n        /* \"#utility.yul\":23505:23582   */\n      0x4e487b7100000000000000000000000000000000000000000000000000000000\n        /* \"#utility.yul\":23502:23503   */\n      0x00\n        /* \"#utility.yul\":23495:23583   */\n      mstore\n        /* \"#utility.yul\":23602:23606   */\n      0x12\n        /* \"#utility.yul\":23599:23600   */\n      0x04\n        /* \"#utility.yul\":23592:23607   */\n      mstore\n        /* \"#utility.yul\":23626:23630   */\n      0x24\n        /* \"#utility.yul\":23623:23624   */\n      0x00\n        /* \"#utility.yul\":23616:23631   */\n      revert\n        /* \"#utility.yul\":23643:23828   */\n    tag_474:\n        /* \"#utility.yul\":23683:23684   */\n      0x00\n        /* \"#utility.yul\":23700:23720   */\n      tag_941\n        /* \"#utility.yul\":23718:23719   */\n      dup3\n        /* \"#utility.yul\":23700:23720   */\n      tag_657\n      jump\t// in\n    tag_941:\n        /* \"#utility.yul\":23695:23720   */\n      swap2\n      pop\n        /* \"#utility.yul\":23734:23754   */\n      tag_942\n        /* \"#utility.yul\":23752:23753   */\n      dup4\n        /* \"#utility.yul\":23734:23754   */\n      tag_657\n      jump\t// in\n    tag_942:\n        /* \"#utility.yul\":23729:23754   */\n      swap3\n      pop\n        /* \"#utility.yul\":23773:23774   */\n      dup3\n        /* \"#utility.yul\":23763:23798   */\n      tag_943\n      jumpi\n        /* \"#utility.yul\":23778:23796   */\n      tag_944\n      tag_706\n      jump\t// in\n    tag_944:\n        /* \"#utility.yul\":23763:23798   */\n    tag_943:\n        /* \"#utility.yul\":23820:23821   */\n      dup3\n        /* \"#utility.yul\":23817:23818   */\n      dup3\n        /* \"#utility.yul\":23813:23822   */\n      div\n        /* \"#utility.yul\":23808:23822   */\n      swap1\n      pop\n        /* \"#utility.yul\":23643:23828   */\n      swap3\n      swap2\n      pop\n      pop\n      jump\t// out\n        /* \"#utility.yul\":23834:24013   */\n    tag_707:\n        /* \"#utility.yul\":23974:24005   */\n      0x45524332303a20696e73756666696369656e7420616c6c6f77616e6365000000\n        /* \"#utility.yul\":23970:23971   */\n      0x00\n        /* \"#utility.yul\":23962:23968   */\n      dup3\n        /* \"#utility.yul\":23958:23972   */\n      add\n        /* \"#utility.yul\":23951:24006   */\n      mstore\n        /* \"#utility.yul\":23834:24013   */\n      pop\n      jump\t// out\n        /* \"#utility.yul\":24019:24385   */\n    tag_708:\n        /* \"#utility.yul\":24161:24164   */\n      0x00\n        /* \"#utility.yul\":24182:24249   */\n      tag_947\n        /* \"#utility.yul\":24246:24248   */\n      0x1d\n        /* \"#utility.yul\":24241:24244   */\n      dup4\n        /* \"#utility.yul\":24182:24249   */\n      tag_650\n      jump\t// in\n    tag_947:\n        /* \"#utility.yul\":24175:24249   */\n      swap2\n      pop\n        /* \"#utility.yul\":24258:24351   */\n      tag_948\n        /* \"#utility.yul\":24347:24350   */\n      dup3\n        /* \"#utility.yul\":24258:24351   */\n      tag_707\n      jump\t// in\n    tag_948:\n        /* \"#utility.yul\":24376:24378   */\n      0x20\n        /* \"#utility.yul\":24371:24374   */\n      dup3\n        /* \"#utility.yul\":24367:24379   */\n      add\n        /* \"#utility.yul\":24360:24379   */\n      swap1\n      pop\n        /* \"#utility.yul\":24019:24385   */\n      swap2\n      swap1\n      pop\n      jump\t// out\n        /* \"#utility.yul\":24391:24810   */\n    tag_488:\n        /* \"#utility.yul\":24557:24561   */\n      0x00\n        /* \"#utility.yul\":24595:24597   */\n      0x20\n        /* \"#utility.yul\":24584:24593   */\n      dup3\n        /* \"#utility.yul\":24580:24598   */\n      add\n        /* \"#utility.yul\":24572:24598   */\n      swap1\n      pop\n        /* \"#utility.yul\":24644:24653   */\n      dup2\n        /* \"#utility.yul\":24638:24642   */\n      dup2\n        /* \"#utility.yul\":24634:24654   */\n      sub\n        /* \"#utility.yul\":24630:24631   */\n      0x00\n        /* \"#utility.yul\":24619:24628   */\n      dup4\n        /* \"#utility.yul\":24615:24632   */\n      add\n        /* \"#utility.yul\":24608:24655   */\n      mstore\n        /* \"#utility.yul\":24672:24803   */\n      tag_950\n        /* \"#utility.yul\":24798:24802   */\n      dup2\n        /* \"#utility.yul\":24672:24803   */\n      tag_708\n      jump\t// in\n    tag_950:\n        /* \"#utility.yul\":24664:24803   */\n      swap1\n      pop\n        /* \"#utility.yul\":24391:24810   */\n      swap2\n      swap1\n      pop\n      jump\t// out\n        /* \"#utility.yul\":24816:25040   */\n    tag_709:\n        /* \"#utility.yul\":24956:24990   */\n      0x45524332303a207472616e736665722066726f6d20746865207a65726f206164\n        /* \"#utility.yul\":24952:24953   */\n      0x00\n        /* \"#utility.yul\":24944:24950   */\n      dup3\n        /* \"#utility.yul\":24940:24954   */\n      add\n        /* \"#utility.yul\":24933:24991   */\n      mstore\n        /* \"#utility.yul\":25025:25032   */\n      0x6472657373000000000000000000000000000000000000000000000000000000\n        /* \"#utility.yul\":25020:25022   */\n      0x20\n        /* \"#utility.yul\":25012:25018   */\n      dup3\n        /* \"#utility.yul\":25008:25023   */\n      add\n        /* \"#utility.yul\":25001:25033   */\n      mstore\n        /* \"#utility.yul\":24816:25040   */\n      pop\n      jump\t// out\n        /* \"#utility.yul\":25046:25412   */\n    tag_710:\n        /* \"#utility.yul\":25188:25191   */\n      0x00\n        /* \"#utility.yul\":25209:25276   */\n      tag_953\n        /* \"#utility.yul\":25273:25275   */\n      0x25\n        /* \"#utility.yul\":25268:25271   */\n      dup4\n        /* \"#utility.yul\":25209:25276   */\n      tag_650\n      jump\t// in\n    tag_953:\n        /* \"#utility.yul\":25202:25276   */\n      swap2\n      pop\n        /* \"#utility.yul\":25285:25378   */\n      tag_954\n        /* \"#utility.yul\":25374:25377   */\n      dup3\n        /* \"#utility.yul\":25285:25378   */\n      tag_709\n      jump\t// in\n    tag_954:\n        /* \"#utility.yul\":25403:25405   */\n      0x40\n        /* \"#utility.yul\":25398:25401   */\n      dup3\n        /* \"#utility.yul\":25394:25406   */\n      add\n        /* \"#utility.yul\":25387:25406   */\n      swap1\n      pop\n        /* \"#utility.yul\":25046:25412   */\n      swap2\n      swap1\n      pop\n      jump\t// out\n        /* \"#utility.yul\":25418:25837   */\n    tag_493:\n        /* \"#utility.yul\":25584:25588   */\n      0x00\n        /* \"#utility.yul\":25622:25624   */\n      0x20\n        /* \"#utility.yul\":25611:25620   */\n      dup3\n        /* \"#utility.yul\":25607:25625   */\n      add\n        /* \"#utility.yul\":25599:25625   */\n      swap1\n      pop\n        /* \"#utility.yul\":25671:25680   */\n      dup2\n        /* \"#utility.yul\":25665:25669   */\n      dup2\n        /* \"#utility.yul\":25661:25681   */\n      sub\n        /* \"#utility.yul\":25657:25658   */\n      0x00\n        /* \"#utility.yul\":25646:25655   */\n      dup4\n        /* \"#utility.yul\":25642:25659   */\n      add\n        /* \"#utility.yul\":25635:25682   */\n      mstore\n        /* \"#utility.yul\":25699:25830   */\n      tag_956\n        /* \"#utility.yul\":25825:25829   */\n      dup2\n        /* \"#utility.yul\":25699:25830   */\n      tag_710\n      jump\t// in\n    tag_956:\n        /* \"#utility.yul\":25691:25830   */\n      swap1\n      pop\n        /* \"#utility.yul\":25418:25837   */\n      swap2\n      swap1\n      pop\n      jump\t// out\n        /* \"#utility.yul\":25843:26065   */\n    tag_711:\n        /* \"#utility.yul\":25983:26017   */\n      0x45524332303a207472616e7366657220746f20746865207a65726f2061646472\n        /* \"#utility.yul\":25979:25980   */\n      0x00\n        /* \"#utility.yul\":25971:25977   */\n      dup3\n        /* \"#utility.yul\":25967:25981   */\n      add\n        /* \"#utility.yul\":25960:26018   */\n      mstore\n        /* \"#utility.yul\":26052:26057   */\n      0x6573730000000000000000000000000000000000000000000000000000000000\n        /* \"#utility.yul\":26047:26049   */\n      0x20\n        /* \"#utility.yul\":26039:26045   */\n      dup3\n        /* \"#utility.yul\":26035:26050   */\n      add\n        /* \"#utility.yul\":26028:26058   */\n      mstore\n        /* \"#utility.yul\":25843:26065   */\n      pop\n      jump\t// out\n        /* \"#utility.yul\":26071:26437   */\n    tag_712:\n        /* \"#utility.yul\":26213:26216   */\n      0x00\n        /* \"#utility.yul\":26234:26301   */\n      tag_959\n        /* \"#utility.yul\":26298:26300   */\n      0x23\n        /* \"#utility.yul\":26293:26296   */\n      dup4\n        /* \"#utility.yul\":26234:26301   */\n      tag_650\n      jump\t// in\n    tag_959:\n        /* \"#utility.yul\":26227:26301   */\n      swap2\n      pop\n        /* \"#utility.yul\":26310:26403   */\n      tag_960\n        /* \"#utility.yul\":26399:26402   */\n      dup3\n        /* \"#utility.yul\":26310:26403   */\n      tag_711\n      jump\t// in\n    tag_960:\n        /* \"#utility.yul\":26428:26430   */\n      0x40\n        /* \"#utility.yul\":26423:26426   */\n      dup3\n        /* \"#utility.yul\":26419:26431   */\n      add\n        /* \"#utility.yul\":26412:26431   */\n      swap1\n      pop\n        /* \"#utility.yul\":26071:26437   */\n      swap2\n      swap1\n      pop\n      jump\t// out\n        /* \"#utility.yul\":26443:26862   */\n    tag_496:\n        /* \"#utility.yul\":26609:26613   */\n      0x00\n        /* \"#utility.yul\":26647:26649   */\n      0x20\n        /* \"#utility.yul\":26636:26645   */\n      dup3\n        /* \"#utility.yul\":26632:26650   */\n      add\n        /* \"#utility.yul\":26624:26650   */\n      swap1\n      pop\n        /* \"#utility.yul\":26696:26705   */\n      dup2\n        /* \"#utility.yul\":26690:26694   */\n      dup2\n        /* \"#utility.yul\":26686:26706   */\n      sub\n        /* \"#utility.yul\":26682:26683   */\n      0x00\n        /* \"#utility.yul\":26671:26680   */\n      dup4\n        /* \"#utility.yul\":26667:26684   */\n      add\n        /* \"#utility.yul\":26660:26707   */\n      mstore\n        /* \"#utility.yul\":26724:26855   */\n      tag_962\n        /* \"#utility.yul\":26850:26854   */\n      dup2\n        /* \"#utility.yul\":26724:26855   */\n      tag_712\n      jump\t// in\n    tag_962:\n        /* \"#utility.yul\":26716:26855   */\n      swap1\n      pop\n        /* \"#utility.yul\":26443:26862   */\n      swap2\n      swap1\n      pop\n      jump\t// out\n        /* \"#utility.yul\":26868:27096   */\n    tag_713:\n        /* \"#utility.yul\":27008:27042   */\n      0x5472616e7366657220616d6f756e74206d757374206265206772656174657220\n        /* \"#utility.yul\":27004:27005   */\n      0x00\n        /* \"#utility.yul\":26996:27002   */\n      dup3\n        /* \"#utility.yul\":26992:27006   */\n      add\n        /* \"#utility.yul\":26985:27043   */\n      mstore\n        /* \"#utility.yul\":27077:27088   */\n      0x7468616e207a65726f0000000000000000000000000000000000000000000000\n        /* \"#utility.yul\":27072:27074   */\n      0x20\n        /* \"#utility.yul\":27064:27070   */\n      dup3\n        /* \"#utility.yul\":27060:27075   */\n      add\n        /* \"#utility.yul\":27053:27089   */\n      mstore\n        /* \"#utility.yul\":26868:27096   */\n      pop\n      jump\t// out\n        /* \"#utility.yul\":27102:27468   */\n    tag_714:\n        /* \"#utility.yul\":27244:27247   */\n      0x00\n        /* \"#utility.yul\":27265:27332   */\n      tag_965\n        /* \"#utility.yul\":27329:27331   */\n      0x29\n        /* \"#utility.yul\":27324:27327   */\n      dup4\n        /* \"#utility.yul\":27265:27332   */\n      tag_650\n      jump\t// in\n    tag_965:\n        /* \"#utility.yul\":27258:27332   */\n      swap2\n      pop\n        /* \"#utility.yul\":27341:27434   */\n      tag_966\n        /* \"#utility.yul\":27430:27433   */\n      dup3\n        /* \"#utility.yul\":27341:27434   */\n      tag_713\n      jump\t// in\n    tag_966:\n        /* \"#utility.yul\":27459:27461   */\n      0x40\n        /* \"#utility.yul\":27454:27457   */\n      dup3\n        /* \"#utility.yul\":27450:27462   */\n      add\n        /* \"#utility.yul\":27443:27462   */\n      swap1\n      pop\n        /* \"#utility.yul\":27102:27468   */\n      swap2\n      swap1\n      pop\n      jump\t// out\n        /* \"#utility.yul\":27474:27893   */\n    tag_499:\n        /* \"#utility.yul\":27640:27644   */\n      0x00\n        /* \"#utility.yul\":27678:27680   */\n      0x20\n        /* \"#utility.yul\":27667:27676   */\n      dup3\n        /* \"#utility.yul\":27663:27681   */\n      add\n        /* \"#utility.yul\":27655:27681   */\n      swap1\n      pop\n        /* \"#utility.yul\":27727:27736   */\n      dup2\n        /* \"#utility.yul\":27721:27725   */\n      dup2\n        /* \"#utility.yul\":27717:27737   */\n      sub\n        /* \"#utility.yul\":27713:27714   */\n      0x00\n        /* \"#utility.yul\":27702:27711   */\n      dup4\n        /* \"#utility.yul\":27698:27715   */\n      add\n        /* \"#utility.yul\":27691:27738   */\n      mstore\n        /* \"#utility.yul\":27755:27886   */\n      tag_968\n        /* \"#utility.yul\":27881:27885   */\n      dup2\n        /* \"#utility.yul\":27755:27886   */\n      tag_714\n      jump\t// in\n    tag_968:\n        /* \"#utility.yul\":27747:27886   */\n      swap1\n      pop\n        /* \"#utility.yul\":27474:27893   */\n      swap2\n      swap1\n      pop\n      jump\t// out\n        /* \"#utility.yul\":27899:28070   */\n    tag_715:\n        /* \"#utility.yul\":28039:28062   */\n      0x53656e64657220697320626c61636b6c69737465640000000000000000000000\n        /* \"#utility.yul\":28035:28036   */\n      0x00\n        /* \"#utility.yul\":28027:28033   */\n      dup3\n        /* \"#utility.yul\":28023:28037   */\n      add\n        /* \"#utility.yul\":28016:28063   */\n      mstore\n        /* \"#utility.yul\":27899:28070   */\n      pop\n      jump\t// out\n        /* \"#utility.yul\":28076:28442   */\n    tag_716:\n        /* \"#utility.yul\":28218:28221   */\n      0x00\n        /* \"#utility.yul\":28239:28306   */\n      tag_971\n        /* \"#utility.yul\":28303:28305   */\n      0x15\n        /* \"#utility.yul\":28298:28301   */\n      dup4\n        /* \"#utility.yul\":28239:28306   */\n      tag_650\n      jump\t// in\n    tag_971:\n        /* \"#utility.yul\":28232:28306   */\n      swap2\n      pop\n        /* \"#utility.yul\":28315:28408   */\n      tag_972\n        /* \"#utility.yul\":28404:28407   */\n      dup3\n        /* \"#utility.yul\":28315:28408   */\n      tag_715\n      jump\t// in\n    tag_972:\n        /* \"#utility.yul\":28433:28435   */\n      0x20\n        /* \"#utility.yul\":28428:28431   */\n      dup3\n        /* \"#utility.yul\":28424:28436   */\n      add\n        /* \"#utility.yul\":28417:28436   */\n      swap1\n      pop\n        /* \"#utility.yul\":28076:28442   */\n      swap2\n      swap1\n      pop\n      jump\t// out\n        /* \"#utility.yul\":28448:28867   */\n    tag_502:\n        /* \"#utility.yul\":28614:28618   */\n      0x00\n        /* \"#utility.yul\":28652:28654   */\n      0x20\n        /* \"#utility.yul\":28641:28650   */\n      dup3\n        /* \"#utility.yul\":28637:28655   */\n      add\n        /* \"#utility.yul\":28629:28655   */\n      swap1\n      pop\n        /* \"#utility.yul\":28701:28710   */\n      dup2\n        /* \"#utility.yul\":28695:28699   */\n      dup2\n        /* \"#utility.yul\":28691:28711   */\n      sub\n        /* \"#utility.yul\":28687:28688   */\n      0x00\n        /* \"#utility.yul\":28676:28685   */\n      dup4\n        /* \"#utility.yul\":28672:28689   */\n      add\n        /* \"#utility.yul\":28665:28712   */\n      mstore\n        /* \"#utility.yul\":28729:28860   */\n      tag_974\n        /* \"#utility.yul\":28855:28859   */\n      dup2\n        /* \"#utility.yul\":28729:28860   */\n      tag_716\n      jump\t// in\n    tag_974:\n        /* \"#utility.yul\":28721:28860   */\n      swap1\n      pop\n        /* \"#utility.yul\":28448:28867   */\n      swap2\n      swap1\n      pop\n      jump\t// out\n        /* \"#utility.yul\":28873:29047   */\n    tag_717:\n        /* \"#utility.yul\":29013:29039   */\n      0x526563697069656e7420697320626c61636b6c69737465640000000000000000\n        /* \"#utility.yul\":29009:29010   */\n      0x00\n        /* \"#utility.yul\":29001:29007   */\n      dup3\n        /* \"#utility.yul\":28997:29011   */\n      add\n        /* \"#utility.yul\":28990:29040   */\n      mstore\n        /* \"#utility.yul\":28873:29047   */\n      pop\n      jump\t// out\n        /* \"#utility.yul\":29053:29419   */\n    tag_718:\n        /* \"#utility.yul\":29195:29198   */\n      0x00\n        /* \"#utility.yul\":29216:29283   */\n      tag_977\n        /* \"#utility.yul\":29280:29282   */\n      0x18\n        /* \"#utility.yul\":29275:29278   */\n      dup4\n        /* \"#utility.yul\":29216:29283   */\n      tag_650\n      jump\t// in\n    tag_977:\n        /* \"#utility.yul\":29209:29283   */\n      swap2\n      pop\n        /* \"#utility.yul\":29292:29385   */\n      tag_978\n        /* \"#utility.yul\":29381:29384   */\n      dup3\n        /* \"#utility.yul\":29292:29385   */\n      tag_717\n      jump\t// in\n    tag_978:\n        /* \"#utility.yul\":29410:29412   */\n      0x20\n        /* \"#utility.yul\":29405:29408   */\n      dup3\n        /* \"#utility.yul\":29401:29413   */\n      add\n        /* \"#utility.yul\":29394:29413   */\n      swap1\n      pop\n        /* \"#utility.yul\":29053:29419   */\n      swap2\n      swap1\n      pop\n      jump\t// out\n        /* \"#utility.yul\":29425:29844   */\n    tag_505:\n        /* \"#utility.yul\":29591:29595   */\n      0x00\n        /* \"#utility.yul\":29629:29631   */\n      0x20\n        /* \"#utility.yul\":29618:29627   */\n      dup3\n        /* \"#utility.yul\":29614:29632   */\n      add\n        /* \"#utility.yul\":29606:29632   */\n      swap1\n      pop\n        /* \"#utility.yul\":29678:29687   */\n      dup2\n        /* \"#utility.yul\":29672:29676   */\n      dup2\n        /* \"#utility.yul\":29668:29688   */\n      sub\n        /* \"#utility.yul\":29664:29665   */\n      0x00\n        /* \"#utility.yul\":29653:29662   */\n      dup4\n        /* \"#utility.yul\":29649:29666   */\n      add\n        /* \"#utility.yul\":29642:29689   */\n      mstore\n        /* \"#utility.yul\":29706:29837   */\n      tag_980\n        /* \"#utility.yul\":29832:29836   */\n      dup2\n        /* \"#utility.yul\":29706:29837   */\n      tag_718\n      jump\t// in\n    tag_980:\n        /* \"#utility.yul\":29698:29837   */\n      swap1\n      pop\n        /* \"#utility.yul\":29425:29844   */\n      swap2\n      swap1\n      pop\n      jump\t// out\n        /* \"#utility.yul\":29850:30019   */\n    tag_719:\n        /* \"#utility.yul\":29990:30011   */\n      0x54726164696e672069732064697361626c656400000000000000000000000000\n        /* \"#utility.yul\":29986:29987   */\n      0x00\n        /* \"#utility.yul\":29978:29984   */\n      dup3\n        /* \"#utility.yul\":29974:29988   */\n      add\n        /* \"#utility.yul\":29967:30012   */\n      mstore\n        /* \"#utility.yul\":29850:30019   */\n      pop\n      jump\t// out\n        /* \"#utility.yul\":30025:30391   */\n    tag_720:\n        /* \"#utility.yul\":30167:30170   */\n      0x00\n        /* \"#utility.yul\":30188:30255   */\n      tag_983\n        /* \"#utility.yul\":30252:30254   */\n      0x13\n        /* \"#utility.yul\":30247:30250   */\n      dup4\n        /* \"#utility.yul\":30188:30255   */\n      tag_650\n      jump\t// in\n    tag_983:\n        /* \"#utility.yul\":30181:30255   */\n      swap2\n      pop\n        /* \"#utility.yul\":30264:30357   */\n      tag_984\n        /* \"#utility.yul\":30353:30356   */\n      dup3\n        /* \"#utility.yul\":30264:30357   */\n      tag_719\n      jump\t// in\n    tag_984:\n        /* \"#utility.yul\":30382:30384   */\n      0x20\n        /* \"#utility.yul\":30377:30380   */\n      dup3\n        /* \"#utility.yul\":30373:30385   */\n      add\n        /* \"#utility.yul\":30366:30385   */\n      swap1\n      pop\n        /* \"#utility.yul\":30025:30391   */\n      swap2\n      swap1\n      pop\n      jump\t// out\n        /* \"#utility.yul\":30397:30816   */\n    tag_517:\n        /* \"#utility.yul\":30563:30567   */\n      0x00\n        /* \"#utility.yul\":30601:30603   */\n      0x20\n        /* \"#utility.yul\":30590:30599   */\n      dup3\n        /* \"#utility.yul\":30586:30604   */\n      add\n        /* \"#utility.yul\":30578:30604   */\n      swap1\n      pop\n        /* \"#utility.yul\":30650:30659   */\n      dup2\n        /* \"#utility.yul\":30644:30648   */\n      dup2\n        /* \"#utility.yul\":30640:30660   */\n      sub\n        /* \"#utility.yul\":30636:30637   */\n      0x00\n        /* \"#utility.yul\":30625:30634   */\n      dup4\n        /* \"#utility.yul\":30621:30638   */\n      add\n        /* \"#utility.yul\":30614:30661   */\n      mstore\n        /* \"#utility.yul\":30678:30809   */\n      tag_986\n        /* \"#utility.yul\":30804:30808   */\n      dup2\n        /* \"#utility.yul\":30678:30809   */\n      tag_720\n      jump\t// in\n    tag_986:\n        /* \"#utility.yul\":30670:30809   */\n      swap1\n      pop\n        /* \"#utility.yul\":30397:30816   */\n      swap2\n      swap1\n      pop\n      jump\t// out\n        /* \"#utility.yul\":30822:31016   */\n    tag_569:\n        /* \"#utility.yul\":30862:30866   */\n      0x00\n        /* \"#utility.yul\":30882:30902   */\n      tag_988\n        /* \"#utility.yul\":30900:30901   */\n      dup3\n        /* \"#utility.yul\":30882:30902   */\n      tag_657\n      jump\t// in\n    tag_988:\n        /* \"#utility.yul\":30877:30902   */\n      swap2\n      pop\n        /* \"#utility.yul\":30916:30936   */\n      tag_989\n        /* \"#utility.yul\":30934:30935   */\n      dup4\n        /* \"#utility.yul\":30916:30936   */\n      tag_657\n      jump\t// in\n    tag_989:\n        /* \"#utility.yul\":30911:30936   */\n      swap3\n      pop\n        /* \"#utility.yul\":30960:30961   */\n      dup3\n        /* \"#utility.yul\":30957:30958   */\n      dup3\n        /* \"#utility.yul\":30953:30962   */\n      sub\n        /* \"#utility.yul\":30945:30962   */\n      swap1\n      pop\n        /* \"#utility.yul\":30984:30985   */\n      dup2\n        /* \"#utility.yul\":30978:30982   */\n      dup2\n        /* \"#utility.yul\":30975:30986   */\n      gt\n        /* \"#utility.yul\":30972:31009   */\n      iszero\n      tag_990\n      jumpi\n        /* \"#utility.yul\":30989:31007   */\n      tag_991\n      tag_679\n      jump\t// in\n    tag_991:\n        /* \"#utility.yul\":30972:31009   */\n    tag_990:\n        /* \"#utility.yul\":30822:31016   */\n      swap3\n      swap2\n      pop\n      pop\n      jump\t// out\n        /* \"#utility.yul\":31022:31247   */\n    tag_721:\n        /* \"#utility.yul\":31162:31196   */\n      0x45524332303a207472616e7366657220616d6f756e7420657863656564732062\n        /* \"#utility.yul\":31158:31159   */\n      0x00\n        /* \"#utility.yul\":31150:31156   */\n      dup3\n        /* \"#utility.yul\":31146:31160   */\n      add\n        /* \"#utility.yul\":31139:31197   */\n      mstore\n        /* \"#utility.yul\":31231:31239   */\n      0x616c616e63650000000000000000000000000000000000000000000000000000\n        /* \"#utility.yul\":31226:31228   */\n      0x20\n        /* \"#utility.yul\":31218:31224   */\n      dup3\n        /* \"#utility.yul\":31214:31229   */\n      add\n        /* \"#utility.yul\":31207:31240   */\n      mstore\n        /* \"#utility.yul\":31022:31247   */\n      pop\n      jump\t// out\n        /* \"#utility.yul\":31253:31619   */\n    tag_722:\n        /* \"#utility.yul\":31395:31398   */\n      0x00\n        /* \"#utility.yul\":31416:31483   */\n      tag_994\n        /* \"#utility.yul\":31480:31482   */\n      0x26\n        /* \"#utility.yul\":31475:31478   */\n      dup4\n        /* \"#utility.yul\":31416:31483   */\n      tag_650\n      jump\t// in\n    tag_994:\n        /* \"#utility.yul\":31409:31483   */\n      swap2\n      pop\n        /* \"#utility.yul\":31492:31585   */\n      tag_995\n        /* \"#utility.yul\":31581:31584   */\n      dup3\n        /* \"#utility.yul\":31492:31585   */\n      tag_721\n      jump\t// in\n    tag_995:\n        /* \"#utility.yul\":31610:31612   */\n      0x40\n        /* \"#utility.yul\":31605:31608   */\n      dup3\n        /* \"#utility.yul\":31601:31613   */\n      add\n        /* \"#utility.yul\":31594:31613   */\n      swap1\n      pop\n        /* \"#utility.yul\":31253:31619   */\n      swap2\n      swap1\n      pop\n      jump\t// out\n        /* \"#utility.yul\":31625:32044   */\n    tag_577:\n        /* \"#utility.yul\":31791:31795   */\n      0x00\n        /* \"#utility.yul\":31829:31831   */\n      0x20\n        /* \"#utility.yul\":31818:31827   */\n      dup3\n        /* \"#utility.yul\":31814:31832   */\n      add\n        /* \"#utility.yul\":31806:31832   */\n      swap1\n      pop\n        /* \"#utility.yul\":31878:31887   */\n      dup2\n        /* \"#utility.yul\":31872:31876   */\n      dup2\n        /* \"#utility.yul\":31868:31888   */\n      sub\n        /* \"#utility.yul\":31864:31865   */\n      0x00\n        /* \"#utility.yul\":31853:31862   */\n      dup4\n        /* \"#utility.yul\":31849:31866   */\n      add\n        /* \"#utility.yul\":31842:31889   */\n      mstore\n        /* \"#utility.yul\":31906:32037   */\n      tag_997\n        /* \"#utility.yul\":32032:32036   */\n      dup2\n        /* \"#utility.yul\":31906:32037   */\n      tag_722\n      jump\t// in\n    tag_997:\n        /* \"#utility.yul\":31898:32037   */\n      swap1\n      pop\n        /* \"#utility.yul\":31625:32044   */\n      swap2\n      swap1\n      pop\n      jump\t// out\n        /* \"#utility.yul\":32050:32197   */\n    tag_723:\n        /* \"#utility.yul\":32151:32162   */\n      0x00\n        /* \"#utility.yul\":32188:32191   */\n      dup2\n        /* \"#utility.yul\":32173:32191   */\n      swap1\n      pop\n        /* \"#utility.yul\":32050:32197   */\n      swap3\n      swap2\n      pop\n      pop\n      jump\t// out\n        /* \"#utility.yul\":32203:32317   */\n    tag_724:\n      pop\n      jump\t// out\n        /* \"#utility.yul\":32323:32721   */\n    tag_725:\n        /* \"#utility.yul\":32482:32485   */\n      0x00\n        /* \"#utility.yul\":32503:32586   */\n      tag_1001\n        /* \"#utility.yul\":32584:32585   */\n      0x00\n        /* \"#utility.yul\":32579:32582   */\n      dup4\n        /* \"#utility.yul\":32503:32586   */\n      tag_723\n      jump\t// in\n    tag_1001:\n        /* \"#utility.yul\":32496:32586   */\n      swap2\n      pop\n        /* \"#utility.yul\":32595:32688   */\n      tag_1002\n        /* \"#utility.yul\":32684:32687   */\n      dup3\n        /* \"#utility.yul\":32595:32688   */\n      tag_724\n      jump\t// in\n    tag_1002:\n        /* \"#utility.yul\":32713:32714   */\n      0x00\n        /* \"#utility.yul\":32708:32711   */\n      dup3\n        /* \"#utility.yul\":32704:32715   */\n      add\n        /* \"#utility.yul\":32697:32715   */\n      swap1\n      pop\n        /* \"#utility.yul\":32323:32721   */\n      swap2\n      swap1\n      pop\n      jump\t// out\n        /* \"#utility.yul\":32727:33106   */\n    tag_597:\n        /* \"#utility.yul\":32911:32914   */\n      0x00\n        /* \"#utility.yul\":32933:33080   */\n      tag_1004\n        /* \"#utility.yul\":33076:33079   */\n      dup3\n        /* \"#utility.yul\":32933:33080   */\n      tag_725\n      jump\t// in\n    tag_1004:\n        /* \"#utility.yul\":32926:33080   */\n      swap2\n      pop\n        /* \"#utility.yul\":33097:33100   */\n      dup2\n        /* \"#utility.yul\":33090:33100   */\n      swap1\n      pop\n        /* \"#utility.yul\":32727:33106   */\n      swap2\n      swap1\n      pop\n      jump\t// out\n        /* \"#utility.yul\":33112:33332   */\n    tag_726:\n        /* \"#utility.yul\":33252:33286   */\n      0x45524332303a206275726e2066726f6d20746865207a65726f20616464726573\n        /* \"#utility.yul\":33248:33249   */\n      0x00\n        /* \"#utility.yul\":33240:33246   */\n      dup3\n        /* \"#utility.yul\":33236:33250   */\n      add\n        /* \"#utility.yul\":33229:33287   */\n      mstore\n        /* \"#utility.yul\":33321:33324   */\n      0x7300000000000000000000000000000000000000000000000000000000000000\n        /* \"#utility.yul\":33316:33318   */\n      0x20\n        /* \"#utility.yul\":33308:33314   */\n      dup3\n        /* \"#utility.yul\":33304:33319   */\n      add\n        /* \"#utility.yul\":33297:33325   */\n      mstore\n        /* \"#utility.yul\":33112:33332   */\n      pop\n      jump\t// out\n        /* \"#utility.yul\":33338:33704   */\n    tag_727:\n        /* \"#utility.yul\":33480:33483   */\n      0x00\n        /* \"#utility.yul\":33501:33568   */\n      tag_1007\n        /* \"#utility.yul\":33565:33567   */\n      0x21\n        /* \"#utility.yul\":33560:33563   */\n      dup4\n        /* \"#utility.yul\":33501:33568   */\n      tag_650\n      jump\t// in\n    tag_1007:\n        /* \"#utility.yul\":33494:33568   */\n      swap2\n      pop\n        /* \"#utility.yul\":33577:33670   */\n      tag_1008\n        /* \"#utility.yul\":33666:33669   */\n      dup3\n        /* \"#utility.yul\":33577:33670   */\n      tag_726\n      jump\t// in\n    tag_1008:\n        /* \"#utility.yul\":33695:33697   */\n      0x40\n        /* \"#utility.yul\":33690:33693   */\n      dup3\n        /* \"#utility.yul\":33686:33698   */\n      add\n        /* \"#utility.yul\":33679:33698   */\n      swap1\n      pop\n        /* \"#utility.yul\":33338:33704   */\n      swap2\n      swap1\n      pop\n      jump\t// out\n        /* \"#utility.yul\":33710:34129   */\n    tag_610:\n        /* \"#utility.yul\":33876:33880   */\n      0x00\n        /* \"#utility.yul\":33914:33916   */\n      0x20\n        /* \"#utility.yul\":33903:33912   */\n      dup3\n        /* \"#utility.yul\":33899:33917   */\n      add\n        /* \"#utility.yul\":33891:33917   */\n      swap1\n      pop\n        /* \"#utility.yul\":33963:33972   */\n      dup2\n        /* \"#utility.yul\":33957:33961   */\n      dup2\n        /* \"#utility.yul\":33953:33973   */\n      sub\n        /* \"#utility.yul\":33949:33950   */\n      0x00\n        /* \"#utility.yul\":33938:33947   */\n      dup4\n        /* \"#utility.yul\":33934:33951   */\n      add\n        /* \"#utility.yul\":33927:33974   */\n      mstore\n        /* \"#utility.yul\":33991:34122   */\n      tag_1010\n        /* \"#utility.yul\":34117:34121   */\n      dup2\n        /* \"#utility.yul\":33991:34122   */\n      tag_727\n      jump\t// in\n    tag_1010:\n        /* \"#utility.yul\":33983:34122   */\n      swap1\n      pop\n        /* \"#utility.yul\":33710:34129   */\n      swap2\n      swap1\n      pop\n      jump\t// out\n        /* \"#utility.yul\":34135:34356   */\n    tag_728:\n        /* \"#utility.yul\":34275:34309   */\n      0x45524332303a206275726e20616d6f756e7420657863656564732062616c616e\n        /* \"#utility.yul\":34271:34272   */\n      0x00\n        /* \"#utility.yul\":34263:34269   */\n      dup3\n        /* \"#utility.yul\":34259:34273   */\n      add\n        /* \"#utility.yul\":34252:34310   */\n      mstore\n        /* \"#utility.yul\":34344:34348   */\n      0x6365000000000000000000000000000000000000000000000000000000000000\n        /* \"#utility.yul\":34339:34341   */\n      0x20\n        /* \"#utility.yul\":34331:34337   */\n      dup3\n        /* \"#utility.yul\":34327:34342   */\n      add\n        /* \"#utility.yul\":34320:34349   */\n      mstore\n        /* \"#utility.yul\":34135:34356   */\n      pop\n      jump\t// out\n        /* \"#utility.yul\":34362:34728   */\n    tag_729:\n        /* \"#utility.yul\":34504:34507   */\n      0x00\n        /* \"#utility.yul\":34525:34592   */\n      tag_1013\n        /* \"#utility.yul\":34589:34591   */\n      0x22\n        /* \"#utility.yul\":34584:34587   */\n      dup4\n        /* \"#utility.yul\":34525:34592   */\n      tag_650\n      jump\t// in\n    tag_1013:\n        /* \"#utility.yul\":34518:34592   */\n      swap2\n      pop\n        /* \"#utility.yul\":34601:34694   */\n      tag_1014\n        /* \"#utility.yul\":34690:34693   */\n      dup3\n        /* \"#utility.yul\":34601:34694   */\n      tag_728\n      jump\t// in\n    tag_1014:\n        /* \"#utility.yul\":34719:34721   */\n      0x40\n        /* \"#utility.yul\":34714:34717   */\n      dup3\n        /* \"#utility.yul\":34710:34722   */\n      add\n        /* \"#utility.yul\":34703:34722   */\n      swap1\n      pop\n        /* \"#utility.yul\":34362:34728   */\n      swap2\n      swap1\n      pop\n      jump\t// out\n        /* \"#utility.yul\":34734:35153   */\n    tag_615:\n        /* \"#utility.yul\":34900:34904   */\n      0x00\n        /* \"#utility.yul\":34938:34940   */\n      0x20\n        /* \"#utility.yul\":34927:34936   */\n      dup3\n        /* \"#utility.yul\":34923:34941   */\n      add\n        /* \"#utility.yul\":34915:34941   */\n      swap1\n      pop\n        /* \"#utility.yul\":34987:34996   */\n      dup2\n        /* \"#utility.yul\":34981:34985   */\n      dup2\n        /* \"#utility.yul\":34977:34997   */\n      sub\n        /* \"#utility.yul\":34973:34974   */\n      0x00\n        /* \"#utility.yul\":34962:34971   */\n      dup4\n        /* \"#utility.yul\":34958:34975   */\n      add\n        /* \"#utility.yul\":34951:34998   */\n      mstore\n        /* \"#utility.yul\":35015:35146   */\n      tag_1016\n        /* \"#utility.yul\":35141:35145   */\n      dup2\n        /* \"#utility.yul\":35015:35146   */\n      tag_729\n      jump\t// in\n    tag_1016:\n        /* \"#utility.yul\":35007:35146   */\n      swap1\n      pop\n        /* \"#utility.yul\":34734:35153   */\n      swap2\n      swap1\n      pop\n      jump\t// out\n        /* \"#utility.yul\":35159:35339   */\n    tag_622:\n        /* \"#utility.yul\":35207:35284   */\n      0x4e487b7100000000000000000000000000000000000000000000000000000000\n        /* \"#utility.yul\":35204:35205   */\n      0x00\n        /* \"#utility.yul\":35197:35285   */\n      mstore\n        /* \"#utility.yul\":35304:35308   */\n      0x41\n        /* \"#utility.yul\":35301:35302   */\n      0x04\n        /* \"#utility.yul\":35294:35309   */\n      mstore\n        /* \"#utility.yul\":35328:35332   */\n      0x24\n        /* \"#utility.yul\":35325:35326   */\n      0x00\n        /* \"#utility.yul\":35318:35333   */\n      revert\n        /* \"#utility.yul\":35345:35525   */\n    tag_626:\n        /* \"#utility.yul\":35393:35470   */\n      0x4e487b7100000000000000000000000000000000000000000000000000000000\n        /* \"#utility.yul\":35390:35391   */\n      0x00\n        /* \"#utility.yul\":35383:35471   */\n      mstore\n        /* \"#utility.yul\":35490:35494   */\n      0x32\n        /* \"#utility.yul\":35487:35488   */\n      0x04\n        /* \"#utility.yul\":35480:35495   */\n      mstore\n        /* \"#utility.yul\":35514:35518   */\n      0x24\n        /* \"#utility.yul\":35511:35512   */\n      0x00\n        /* \"#utility.yul\":35504:35519   */\n      revert\n        /* \"#utility.yul\":35531:35674   */\n    tag_730:\n        /* \"#utility.yul\":35588:35593   */\n      0x00\n        /* \"#utility.yul\":35619:35625   */\n      dup2\n        /* \"#utility.yul\":35613:35626   */\n      mload\n        /* \"#utility.yul\":35604:35626   */\n      swap1\n      pop\n        /* \"#utility.yul\":35635:35668   */\n      tag_1020\n        /* \"#utility.yul\":35662:35667   */\n      dup2\n        /* \"#utility.yul\":35635:35668   */\n      tag_662\n      jump\t// in\n    tag_1020:\n        /* \"#utility.yul\":35531:35674   */\n      swap3\n      swap2\n      pop\n      pop\n      jump\t// out\n        /* \"#utility.yul\":35680:36031   */\n    tag_630:\n        /* \"#utility.yul\":35750:35756   */\n      0x00\n        /* \"#utility.yul\":35799:35801   */\n      0x20\n        /* \"#utility.yul\":35787:35796   */\n      dup3\n        /* \"#utility.yul\":35778:35785   */\n      dup5\n        /* \"#utility.yul\":35774:35797   */\n      sub\n        /* \"#utility.yul\":35770:35802   */\n      slt\n        /* \"#utility.yul\":35767:35886   */\n      iszero\n      tag_1022\n      jumpi\n        /* \"#utility.yul\":35805:35884   */\n      tag_1023\n      tag_655\n      jump\t// in\n    tag_1023:\n        /* \"#utility.yul\":35767:35886   */\n    tag_1022:\n        /* \"#utility.yul\":35925:35926   */\n      0x00\n        /* \"#utility.yul\":35950:36014   */\n      tag_1024\n        /* \"#utility.yul\":36006:36013   */\n      dup5\n        /* \"#utility.yul\":35997:36003   */\n      dup3\n        /* \"#utility.yul\":35986:35995   */\n      dup6\n        /* \"#utility.yul\":35982:36004   */\n      add\n        /* \"#utility.yul\":35950:36014   */\n      tag_730\n      jump\t// in\n    tag_1024:\n        /* \"#utility.yul\":35940:36014   */\n      swap2\n      pop\n        /* \"#utility.yul\":35896:36024   */\n      pop\n        /* \"#utility.yul\":35680:36031   */\n      swap3\n      swap2\n      pop\n      pop\n      jump\t// out\n        /* \"#utility.yul\":36037:36122   */\n    tag_731:\n        /* \"#utility.yul\":36082:36089   */\n      0x00\n        /* \"#utility.yul\":36111:36116   */\n      dup2\n        /* \"#utility.yul\":36100:36116   */\n      swap1\n      pop\n        /* \"#utility.yul\":36037:36122   */\n      swap2\n      swap1\n      pop\n      jump\t// out\n        /* \"#utility.yul\":36128:36286   */\n    tag_732:\n        /* \"#utility.yul\":36186:36195   */\n      0x00\n        /* \"#utility.yul\":36219:36280   */\n      tag_1027\n        /* \"#utility.yul\":36237:36279   */\n      tag_1028\n        /* \"#utility.yul\":36246:36278   */\n      tag_1029\n        /* \"#utility.yul\":36272:36277   */\n      dup5\n        /* \"#utility.yul\":36246:36278   */\n      tag_731\n      jump\t// in\n    tag_1029:\n        /* \"#utility.yul\":36237:36279   */\n      tag_667\n      jump\t// in\n    tag_1028:\n        /* \"#utility.yul\":36219:36280   */\n      tag_657\n      jump\t// in\n    tag_1027:\n        /* \"#utility.yul\":36206:36280   */\n      swap1\n      pop\n        /* \"#utility.yul\":36128:36286   */\n      swap2\n      swap1\n      pop\n      jump\t// out\n        /* \"#utility.yul\":36292:36439   */\n    tag_733:\n        /* \"#utility.yul\":36387:36432   */\n      tag_1031\n        /* \"#utility.yul\":36426:36431   */\n      dup2\n        /* \"#utility.yul\":36387:36432   */\n      tag_732\n      jump\t// in\n    tag_1031:\n        /* \"#utility.yul\":36382:36385   */\n      dup3\n        /* \"#utility.yul\":36375:36433   */\n      mstore\n        /* \"#utility.yul\":36292:36439   */\n      pop\n      pop\n      jump\t// out\n        /* \"#utility.yul\":36445:36559   */\n    tag_734:\n        /* \"#utility.yul\":36512:36518   */\n      0x00\n        /* \"#utility.yul\":36546:36551   */\n      dup2\n        /* \"#utility.yul\":36540:36552   */\n      mload\n        /* \"#utility.yul\":36530:36552   */\n      swap1\n      pop\n        /* \"#utility.yul\":36445:36559   */\n      swap2\n      swap1\n      pop\n      jump\t// out\n        /* \"#utility.yul\":36565:36749   */\n    tag_735:\n        /* \"#utility.yul\":36664:36675   */\n      0x00\n        /* \"#utility.yul\":36698:36704   */\n      dup3\n        /* \"#utility.yul\":36693:36696   */\n      dup3\n        /* \"#utility.yul\":36686:36705   */\n      mstore\n        /* \"#utility.yul\":36738:36742   */\n      0x20\n        /* \"#utility.yul\":36733:36736   */\n      dup3\n        /* \"#utility.yul\":36729:36743   */\n      add\n        /* \"#utility.yul\":36714:36743   */\n      swap1\n      pop\n        /* \"#utility.yul\":36565:36749   */\n      swap3\n      swap2\n      pop\n      pop\n      jump\t// out\n        /* \"#utility.yul\":36755:36887   */\n    tag_736:\n        /* \"#utility.yul\":36822:36826   */\n      0x00\n        /* \"#utility.yul\":36845:36848   */\n      dup2\n        /* \"#utility.yul\":36837:36848   */\n      swap1\n      pop\n        /* \"#utility.yul\":36875:36879   */\n      0x20\n        /* \"#utility.yul\":36870:36873   */\n      dup3\n        /* \"#utility.yul\":36866:36880   */\n      add\n        /* \"#utility.yul\":36858:36880   */\n      swap1\n      pop\n        /* \"#utility.yul\":36755:36887   */\n      swap2\n      swap1\n      pop\n      jump\t// out\n        /* \"#utility.yul\":36893:37001   */\n    tag_737:\n        /* \"#utility.yul\":36970:36994   */\n      tag_1036\n        /* \"#utility.yul\":36988:36993   */\n      dup2\n        /* \"#utility.yul\":36970:36994   */\n      tag_661\n      jump\t// in\n    tag_1036:\n        /* \"#utility.yul\":36965:36968   */\n      dup3\n        /* \"#utility.yul\":36958:36995   */\n      mstore\n        /* \"#utility.yul\":36893:37001   */\n      pop\n      pop\n      jump\t// out\n        /* \"#utility.yul\":37007:37186   */\n    tag_738:\n        /* \"#utility.yul\":37076:37086   */\n      0x00\n        /* \"#utility.yul\":37097:37143   */\n      tag_1038\n        /* \"#utility.yul\":37139:37142   */\n      dup4\n        /* \"#utility.yul\":37131:37137   */\n      dup4\n        /* \"#utility.yul\":37097:37143   */\n      tag_737\n      jump\t// in\n    tag_1038:\n        /* \"#utility.yul\":37175:37179   */\n      0x20\n        /* \"#utility.yul\":37170:37173   */\n      dup4\n        /* \"#utility.yul\":37166:37180   */\n      add\n        /* \"#utility.yul\":37152:37180   */\n      swap1\n      pop\n        /* \"#utility.yul\":37007:37186   */\n      swap3\n      swap2\n      pop\n      pop\n      jump\t// out\n        /* \"#utility.yul\":37192:37305   */\n    tag_739:\n        /* \"#utility.yul\":37262:37266   */\n      0x00\n        /* \"#utility.yul\":37294:37298   */\n      0x20\n        /* \"#utility.yul\":37289:37292   */\n      dup3\n        /* \"#utility.yul\":37285:37299   */\n      add\n        /* \"#utility.yul\":37277:37299   */\n      swap1\n      pop\n        /* \"#utility.yul\":37192:37305   */\n      swap2\n      swap1\n      pop\n      jump\t// out\n        /* \"#utility.yul\":37341:38073   */\n    tag_740:\n        /* \"#utility.yul\":37460:37463   */\n      0x00\n        /* \"#utility.yul\":37489:37543   */\n      tag_1041\n        /* \"#utility.yul\":37537:37542   */\n      dup3\n        /* \"#utility.yul\":37489:37543   */\n      tag_734\n      jump\t// in\n    tag_1041:\n        /* \"#utility.yul\":37559:37645   */\n      tag_1042\n        /* \"#utility.yul\":37638:37644   */\n      dup2\n        /* \"#utility.yul\":37633:37636   */\n      dup6\n        /* \"#utility.yul\":37559:37645   */\n      tag_735\n      jump\t// in\n    tag_1042:\n        /* \"#utility.yul\":37552:37645   */\n      swap4\n      pop\n        /* \"#utility.yul\":37669:37725   */\n      tag_1043\n        /* \"#utility.yul\":37719:37724   */\n      dup4\n        /* \"#utility.yul\":37669:37725   */\n      tag_736\n      jump\t// in\n    tag_1043:\n        /* \"#utility.yul\":37748:37755   */\n      dup1\n        /* \"#utility.yul\":37779:37780   */\n      0x00\n        /* \"#utility.yul\":37764:38048   */\n    tag_1044:\n        /* \"#utility.yul\":37789:37795   */\n      dup4\n        /* \"#utility.yul\":37786:37787   */\n      dup2\n        /* \"#utility.yul\":37783:37796   */\n      lt\n        /* \"#utility.yul\":37764:38048   */\n      iszero\n      tag_1046\n      jumpi\n        /* \"#utility.yul\":37865:37871   */\n      dup2\n        /* \"#utility.yul\":37859:37872   */\n      mload\n        /* \"#utility.yul\":37892:37955   */\n      tag_1047\n        /* \"#utility.yul\":37951:37954   */\n      dup9\n        /* \"#utility.yul\":37936:37949   */\n      dup3\n        /* \"#utility.yul\":37892:37955   */\n      tag_738\n      jump\t// in\n    tag_1047:\n        /* \"#utility.yul\":37885:37955   */\n      swap8\n      pop\n        /* \"#utility.yul\":37978:38038   */\n      tag_1048\n        /* \"#utility.yul\":38031:38037   */\n      dup4\n        /* \"#utility.yul\":37978:38038   */\n      tag_739\n      jump\t// in\n    tag_1048:\n        /* \"#utility.yul\":37968:38038   */\n      swap3\n      pop\n        /* \"#utility.yul\":37824:38048   */\n      pop\n        /* \"#utility.yul\":37811:37812   */\n      0x01\n        /* \"#utility.yul\":37808:37809   */\n      dup2\n        /* \"#utility.yul\":37804:37813   */\n      add\n        /* \"#utility.yul\":37799:37813   */\n      swap1\n      pop\n        /* \"#utility.yul\":37764:38048   */\n      jump(tag_1044)\n    tag_1046:\n        /* \"#utility.yul\":37768:37782   */\n      pop\n        /* \"#utility.yul\":38064:38067   */\n      dup6\n        /* \"#utility.yul\":38057:38067   */\n      swap4\n      pop\n        /* \"#utility.yul\":37465:38073   */\n      pop\n      pop\n      pop\n        /* \"#utility.yul\":37341:38073   */\n      swap3\n      swap2\n      pop\n      pop\n      jump\t// out\n        /* \"#utility.yul\":38079:38910   */\n    tag_635:\n        /* \"#utility.yul\":38342:38346   */\n      0x00\n        /* \"#utility.yul\":38380:38383   */\n      0xa0\n        /* \"#utility.yul\":38369:38378   */\n      dup3\n        /* \"#utility.yul\":38365:38384   */\n      add\n        /* \"#utility.yul\":38357:38384   */\n      swap1\n      pop\n        /* \"#utility.yul\":38394:38465   */\n      tag_1050\n        /* \"#utility.yul\":38462:38463   */\n      0x00\n        /* \"#utility.yul\":38451:38460   */\n      dup4\n        /* \"#utility.yul\":38447:38464   */\n      add\n        /* \"#utility.yul\":38438:38444   */\n      dup9\n        /* \"#utility.yul\":38394:38465   */\n      tag_666\n      jump\t// in\n    tag_1050:\n        /* \"#utility.yul\":38475:38555   */\n      tag_1051\n        /* \"#utility.yul\":38551:38553   */\n      0x20\n        /* \"#utility.yul\":38540:38549   */\n      dup4\n        /* \"#utility.yul\":38536:38554   */\n      add\n        /* \"#utility.yul\":38527:38533   */\n      dup8\n        /* \"#utility.yul\":38475:38555   */\n      tag_733\n      jump\t// in\n    tag_1051:\n        /* \"#utility.yul\":38602:38611   */\n      dup2\n        /* \"#utility.yul\":38596:38600   */\n      dup2\n        /* \"#utility.yul\":38592:38612   */\n      sub\n        /* \"#utility.yul\":38587:38589   */\n      0x40\n        /* \"#utility.yul\":38576:38585   */\n      dup4\n        /* \"#utility.yul\":38572:38590   */\n      add\n        /* \"#utility.yul\":38565:38613   */\n      mstore\n        /* \"#utility.yul\":38630:38738   */\n      tag_1052\n        /* \"#utility.yul\":38733:38737   */\n      dup2\n        /* \"#utility.yul\":38724:38730   */\n      dup7\n        /* \"#utility.yul\":38630:38738   */\n      tag_740\n      jump\t// in\n    tag_1052:\n        /* \"#utility.yul\":38622:38738   */\n      swap1\n      pop\n        /* \"#utility.yul\":38748:38820   */\n      tag_1053\n        /* \"#utility.yul\":38816:38818   */\n      0x60\n        /* \"#utility.yul\":38805:38814   */\n      dup4\n        /* \"#utility.yul\":38801:38819   */\n      add\n        /* \"#utility.yul\":38792:38798   */\n      dup6\n        /* \"#utility.yul\":38748:38820   */\n      tag_676\n      jump\t// in\n    tag_1053:\n        /* \"#utility.yul\":38830:38903   */\n      tag_1054\n        /* \"#utility.yul\":38898:38901   */\n      0x80\n        /* \"#utility.yul\":38887:38896   */\n      dup4\n        /* \"#utility.yul\":38883:38902   */\n      add\n        /* \"#utility.yul\":38874:38880   */\n      dup5\n        /* \"#utility.yul\":38830:38903   */\n      tag_666\n      jump\t// in\n    tag_1054:\n        /* \"#utility.yul\":38079:38910   */\n      swap7\n      swap6\n      pop\n      pop\n      pop\n      pop\n      pop\n      pop\n      jump\t// out\n        /* \"#utility.yul\":38916:39723   */\n    tag_642:\n        /* \"#utility.yul\":39165:39169   */\n      0x00\n        /* \"#utility.yul\":39203:39206   */\n      0xc0\n        /* \"#utility.yul\":39192:39201   */\n      dup3\n        /* \"#utility.yul\":39188:39207   */\n      add\n        /* \"#utility.yul\":39180:39207   */\n      swap1\n      pop\n        /* \"#utility.yul\":39217:39288   */\n      tag_1056\n        /* \"#utility.yul\":39285:39286   */\n      0x00\n        /* \"#utility.yul\":39274:39283   */\n      dup4\n        /* \"#utility.yul\":39270:39287   */\n      add\n        /* \"#utility.yul\":39261:39267   */\n      dup10\n        /* \"#utility.yul\":39217:39288   */\n      tag_676\n      jump\t// in\n    tag_1056:\n        /* \"#utility.yul\":39298:39370   */\n      tag_1057\n        /* \"#utility.yul\":39366:39368   */\n      0x20\n        /* \"#utility.yul\":39355:39364   */\n      dup4\n        /* \"#utility.yul\":39351:39369   */\n      add\n        /* \"#utility.yul\":39342:39348   */\n      dup9\n        /* \"#utility.yul\":39298:39370   */\n      tag_666\n      jump\t// in\n    tag_1057:\n        /* \"#utility.yul\":39380:39460   */\n      tag_1058\n        /* \"#utility.yul\":39456:39458   */\n      0x40\n        /* \"#utility.yul\":39445:39454   */\n      dup4\n        /* \"#utility.yul\":39441:39459   */\n      add\n        /* \"#utility.yul\":39432:39438   */\n      dup8\n        /* \"#utility.yul\":39380:39460   */\n      tag_733\n      jump\t// in\n    tag_1058:\n        /* \"#utility.yul\":39470:39550   */\n      tag_1059\n        /* \"#utility.yul\":39546:39548   */\n      0x60\n        /* \"#utility.yul\":39535:39544   */\n      dup4\n        /* \"#utility.yul\":39531:39549   */\n      add\n        /* \"#utility.yul\":39522:39528   */\n      dup7\n        /* \"#utility.yul\":39470:39550   */\n      tag_733\n      jump\t// in\n    tag_1059:\n        /* \"#utility.yul\":39560:39633   */\n      tag_1060\n        /* \"#utility.yul\":39628:39631   */\n      0x80\n        /* \"#utility.yul\":39617:39626   */\n      dup4\n        /* \"#utility.yul\":39613:39632   */\n      add\n        /* \"#utility.yul\":39604:39610   */\n      dup6\n        /* \"#utility.yul\":39560:39633   */\n      tag_676\n      jump\t// in\n    tag_1060:\n        /* \"#utility.yul\":39643:39716   */\n      tag_1061\n        /* \"#utility.yul\":39711:39714   */\n      0xa0\n        /* \"#utility.yul\":39700:39709   */\n      dup4\n        /* \"#utility.yul\":39696:39715   */\n      add\n        /* \"#utility.yul\":39687:39693   */\n      dup5\n        /* \"#utility.yul\":39643:39716   */\n      tag_666\n      jump\t// in\n    tag_1061:\n        /* \"#utility.yul\":38916:39723   */\n      swap8\n      swap7\n      pop\n      pop\n      pop\n      pop\n      pop\n      pop\n      pop\n      jump\t// out\n        /* \"#utility.yul\":39729:39872   */\n    tag_741:\n        /* \"#utility.yul\":39786:39791   */\n      0x00\n        /* \"#utility.yul\":39817:39823   */\n      dup2\n        /* \"#utility.yul\":39811:39824   */\n      mload\n        /* \"#utility.yul\":39802:39824   */\n      swap1\n      pop\n        /* \"#utility.yul\":39833:39866   */\n      tag_1063\n        /* \"#utility.yul\":39860:39865   */\n      dup2\n        /* \"#utility.yul\":39833:39866   */\n      tag_658\n      jump\t// in\n    tag_1063:\n        /* \"#utility.yul\":39729:39872   */\n      swap3\n      swap2\n      pop\n      pop\n      jump\t// out\n        /* \"#utility.yul\":39878:40541   */\n    tag_646:\n        /* \"#utility.yul\":39966:39972   */\n      0x00\n        /* \"#utility.yul\":39974:39980   */\n      dup1\n        /* \"#utility.yul\":39982:39988   */\n      0x00\n        /* \"#utility.yul\":40031:40033   */\n      0x60\n        /* \"#utility.yul\":40019:40028   */\n      dup5\n        /* \"#utility.yul\":40010:40017   */\n      dup7\n        /* \"#utility.yul\":40006:40029   */\n      sub\n        /* \"#utility.yul\":40002:40034   */\n      slt\n        /* \"#utility.yul\":39999:40118   */\n      iszero\n      tag_1065\n      jumpi\n        /* \"#utility.yul\":40037:40116   */\n      tag_1066\n      tag_655\n      jump\t// in\n    tag_1066:\n        /* \"#utility.yul\":39999:40118   */\n    tag_1065:\n        /* \"#utility.yul\":40157:40158   */\n      0x00\n        /* \"#utility.yul\":40182:40246   */\n      tag_1067\n        /* \"#utility.yul\":40238:40245   */\n      dup7\n        /* \"#utility.yul\":40229:40235   */\n      dup3\n        /* \"#utility.yul\":40218:40227   */\n      dup8\n        /* \"#utility.yul\":40214:40236   */\n      add\n        /* \"#utility.yul\":40182:40246   */\n      tag_741\n      jump\t// in\n    tag_1067:\n        /* \"#utility.yul\":40172:40246   */\n      swap4\n      pop\n        /* \"#utility.yul\":40128:40256   */\n      pop\n        /* \"#utility.yul\":40295:40297   */\n      0x20\n        /* \"#utility.yul\":40321:40385   */\n      tag_1068\n        /* \"#utility.yul\":40377:40384   */\n      dup7\n        /* \"#utility.yul\":40368:40374   */\n      dup3\n        /* \"#utility.yul\":40357:40366   */\n      dup8\n        /* \"#utility.yul\":40353:40375   */\n      add\n        /* \"#utility.yul\":40321:40385   */\n      tag_741\n      jump\t// in\n    tag_1068:\n        /* \"#utility.yul\":40311:40385   */\n      swap3\n      pop\n        /* \"#utility.yul\":40266:40395   */\n      pop\n        /* \"#utility.yul\":40434:40436   */\n      0x40\n        /* \"#utility.yul\":40460:40524   */\n      tag_1069\n        /* \"#utility.yul\":40516:40523   */\n      dup7\n        /* \"#utility.yul\":40507:40513   */\n      dup3\n        /* \"#utility.yul\":40496:40505   */\n      dup8\n        /* \"#utility.yul\":40492:40514   */\n      add\n        /* \"#utility.yul\":40460:40524   */\n      tag_741\n      jump\t// in\n    tag_1069:\n        /* \"#utility.yul\":40450:40524   */\n      swap2\n      pop\n        /* \"#utility.yul\":40405:40534   */\n      pop\n        /* \"#utility.yul\":39878:40541   */\n      swap3\n      pop\n      swap3\n      pop\n      swap3\n      jump\t// out\n\n    auxdata: 0xa2646970667358221220bbd67e43cdd6361e4db481806baee530a647e3aae76540f6a1d1c8535d9263a164736f6c63430008130033\n}\n",
				"bytecode": {
					"linkReferences": {},
					"object": "6080604052601260ff16600a62000017919062000b32565b6461c9f3680062000029919062000b83565b600155601260ff16600a6200003f919062000b32565b60646200004d919062000b83565b6002556005600a55600a600c55600a600d556005600e55600a600f55601e601055600560115560196012556005601355612df4601455612df4601555612df46016556189de6017556172e36018556001601b60156101000a81548160ff0219169083151502179055506000601b60166101000a81548160ff021916908315150217905550348015620000de57600080fd5b506040516200537838038062005378833981810160405281019062000104919062000c38565b6200012462000118620006ad60201b60201c565b620006b560201b60201c565b600154600360003373ffffffffffffffffffffffffffffffffffffffff1673ffffffffffffffffffffffffffffffffffffffff1681526020019081526020016000208190555060006038460362000192577310ed43c718714eb63d5aa57b78b54704e256024e905062000285565b60614603620001b85773d99d1c33f9fc3444f8101754abc46c52416550d1905062000284565b6001461480620001c85750600446145b80620001d45750600346145b15620001f757737a250d5630b4cf539739df2c5dacb4c659f2488d905062000283565b61a86a46036200021e577360ae616a2155ee3d9a68541ba4544862310933d4905062000282565b60fa4603620002445773f491e7b69e4244ad4002bc14e878a34207e38c29905062000281565b6040517f08c379a0000000000000000000000000000000000000000000000000000000008152600401620002789062000ccb565b60405180910390fd5b5b5b5b5b80601a60006101000a81548173ffffffffffffffffffffffffffffffffffffffff021916908373ffffffffffffffffffffffffffffffffffffffff1602179055508073ffffffffffffffffffffffffffffffffffffffff1663c45a01556040518163ffffffff1660e01b8152600401602060405180830381865afa15801562000312573d6000803e3d6000fd5b505050506040513d601f19601f8201168201806040525081019062000338919062000c38565b73ffffffffffffffffffffffffffffffffffffffff1663c9c65396308373ffffffffffffffffffffffffffffffffffffffff1663ad5c46486040518163ffffffff1660e01b8152600401602060405180830381865afa158015620003a0573d6000803e3d6000fd5b505050506040513d601f19601f82011682018060405250810190620003c6919062000c38565b6040518363ffffffff1660e01b8152600401620003e592919062000cfe565b6020604051808303816000875af115801562000405573d6000803e3d6000fd5b505050506040513d601f19601f820116820180604052508101906200042b919062000c38565b601b60006101000a81548173ffffffffffffffffffffffffffffffffffffffff021916908373ffffffffffffffffffffffffffffffffffffffff160217905550620004c033601a60009054906101000a900473ffffffffffffffffffffffffffffffffffffffff167fffffffffffffffffffffffffffffffffffffffffffffffffffffffffffffffff6200077960201b60201c565b6200051530601a60009054906101000a900473ffffffffffffffffffffffffffffffffffffffff167fffffffffffffffffffffffffffffffffffffffffffffffffffffffffffffffff6200077960201b60201c565b6200054a601b60009054906101000a900473ffffffffffffffffffffffffffffffffffffffff1660016200094a60201b60201c565b81600b60006101000a81548173ffffffffffffffffffffffffffffffffffffffff021916908373ffffffffffffffffffffffffffffffffffffffff1602179055506001600760003073ffffffffffffffffffffffffffffffffffffffff1673ffffffffffffffffffffffffffffffffffffffff16815260200190815260200160002060006101000a81548160ff0219169083151502179055506001600760003373ffffffffffffffffffffffffffffffffffffffff1673ffffffffffffffffffffffffffffffffffffffff16815260200190815260200160002060006101000a81548160ff0219169083151502179055503373ffffffffffffffffffffffffffffffffffffffff16600073ffffffffffffffffffffffffffffffffffffffff167fddf252ad1be2c89b69c2b068fc378daa952ba7f163c4a11628f55a4df523b3ef6001546040516200069d919062000d3c565b60405180910390a3505062000e89565b600033905090565b60008060009054906101000a900473ffffffffffffffffffffffffffffffffffffffff169050816000806101000a81548173ffffffffffffffffffffffffffffffffffffffff021916908373ffffffffffffffffffffffffffffffffffffffff1602179055508173ffffffffffffffffffffffffffffffffffffffff168173ffffffffffffffffffffffffffffffffffffffff167f8be0079c531659141344cd1fd0a4f28419497f9722a3daafe3b4186f6b6457e060405160405180910390a35050565b600073ffffffffffffffffffffffffffffffffffffffff168373ffffffffffffffffffffffffffffffffffffffff1603620007eb576040517f08c379a0000000000000000000000000000000000000000000000000000000008152600401620007e29062000dcf565b60405180910390fd5b600073ffffffffffffffffffffffffffffffffffffffff168273ffffffffffffffffffffffffffffffffffffffff16036200085d576040517f08c379a0000000000000000000000000000000000000000000000000000000008152600401620008549062000e67565b60405180910390fd5b80600460008573ffffffffffffffffffffffffffffffffffffffff1673ffffffffffffffffffffffffffffffffffffffff16815260200190815260200160002060008473ffffffffffffffffffffffffffffffffffffffff1673ffffffffffffffffffffffffffffffffffffffff168152602001908152602001600020819055508173ffffffffffffffffffffffffffffffffffffffff168373ffffffffffffffffffffffffffffffffffffffff167f8c5be1e5ebec7d5bd14f71427d1e84f3dd0314c0f7b2291e5b200ac8c7c3b925836040516200093d919062000d3c565b60405180910390a3505050565b80600660008473ffffffffffffffffffffffffffffffffffffffff1673ffffffffffffffffffffffffffffffffffffffff16815260200190815260200160002060006101000a81548160ff0219169083151502179055505050565b7f4e487b7100000000000000000000000000000000000000000000000000000000600052601160045260246000fd5b60008160011c9050919050565b6000808291508390505b600185111562000a335780860481111562000a0b5762000a0a620009a5565b5b600185161562000a1b5780820291505b808102905062000a2b85620009d4565b9450620009eb565b94509492505050565b60008262000a4e576001905062000b21565b8162000a5e576000905062000b21565b816001811462000a77576002811462000a825762000ab8565b600191505062000b21565b60ff84111562000a975762000a96620009a5565b5b8360020a91508482111562000ab15762000ab0620009a5565b5b5062000b21565b5060208310610133831016604e8410600b841016171562000af25782820a90508381111562000aec5762000aeb620009a5565b5b62000b21565b62000b018484846001620009e1565b9250905081840481111562000b1b5762000b1a620009a5565b5b81810290505b9392505050565b6000819050919050565b600062000b3f8262000b28565b915062000b4c8362000b28565b925062000b7b7fffffffffffffffffffffffffffffffffffffffffffffffffffffffffffffffff848462000a3c565b905092915050565b600062000b908262000b28565b915062000b9d8362000b28565b925082820262000bad8162000b28565b9150828204841483151762000bc75762000bc6620009a5565b5b5092915050565b600080fd5b600073ffffffffffffffffffffffffffffffffffffffff82169050919050565b600062000c008262000bd3565b9050919050565b62000c128162000bf3565b811462000c1e57600080fd5b50565b60008151905062000c328162000c07565b92915050565b60006020828403121562000c515762000c5062000bce565b5b600062000c618482850162000c21565b91505092915050565b600082825260208201905092915050565b7f436861696e206e6f742076616c69640000000000000000000000000000000000600082015250565b600062000cb3600f8362000c6a565b915062000cc08262000c7b565b602082019050919050565b6000602082019050818103600083015262000ce68162000ca4565b9050919050565b62000cf88162000bf3565b82525050565b600060408201905062000d15600083018562000ced565b62000d24602083018462000ced565b9392505050565b62000d368162000b28565b82525050565b600060208201905062000d53600083018462000d2b565b92915050565b7f45524332303a20617070726f76652066726f6d20746865207a65726f2061646460008201527f7265737300000000000000000000000000000000000000000000000000000000602082015250565b600062000db760248362000c6a565b915062000dc48262000d59565b604082019050919050565b6000602082019050818103600083015262000dea8162000da8565b9050919050565b7f45524332303a20617070726f766520746f20746865207a65726f20616464726560008201527f7373000000000000000000000000000000000000000000000000000000000000602082015250565b600062000e4f60228362000c6a565b915062000e5c8262000df1565b604082019050919050565b6000602082019050818103600083015262000e828162000e40565b9050919050565b6144df8062000e996000396000f3fe6080604052600436106103385760003560e01c80636bf74354116101ab578063aaeeaa89116100f7578063d8bfd19811610095578063e47f47a61161006f578063e47f47a614610be1578063f2fde38b14610c0a578063f3d1f02614610c33578063ffcac76d14610c4a5761033f565b8063d8bfd19814610b3e578063dbac26e914610b67578063dd62ed3e14610ba45761033f565b8063c51abc59116100d1578063c51abc5914610aa6578063c844d32d14610ad1578063ce831ed514610afc578063d4927eb214610b135761033f565b8063aaeeaa8914610a15578063b62496f514610a3e578063ba61f30114610a7b5761033f565b80637f2e6ccb116101645780638da5cb5b1161013e5780638da5cb5b1461095957806395d89b41146109845780639a7a23d6146109af578063a9059cbb146109d85761033f565b80637f2e6ccb146108da5780638683171f146109055780638d9d142c1461092e5761033f565b80636bf74354146107ca5780636ddd1713146107f357806370a082311461081e578063715018a61461085b578063768dc710146108725780637aab5d9b146108af5761033f565b80633f156b621161028557806353d01d3e116102235780636612e66f116101fd5780636612e66f146107205780636717ea651461074957806367b34e011461077457806367d765081461079f5761033f565b806353d01d3e146106a157806356566c7f146106cc5780635fa1f783146106f55761033f565b806346c9ee3e1161025f57806346c9ee3e146105f55780634bf28fd0146106205780634dcb39a01461064b5780634e08915f146106765761033f565b80633f156b621461057857806344337ea1146105a357806346190503146105cc5761033f565b8063137461dc116102f2578063235c6609116102cc578063235c6609146104be57806323b872dd146104e75780632e86046214610524578063313ce5671461054d5761033f565b8063137461dc1461043d5780631694505e1461046857806318160ddd146104935761033f565b806299d3861461034157806306fdde031461035857806307a212be14610383578063095ea7b3146103ac578063105183e5146103e957806310c5b4c3146104125761033f565b3661033f57005b005b34801561034d57600080fd5b50610356610c75565b005b34801561036457600080fd5b5061036d610c9a565b60405161037a919061300c565b60405180910390f35b34801561038f57600080fd5b506103aa60048036038101906103a59190613069565b610cd7565b005b3480156103b857600080fd5b506103d360048036038101906103ce91906130f4565b610d33565b6040516103e0919061314f565b60405180910390f35b3480156103f557600080fd5b50610410600480360381019061040b9190613069565b610d4a565b005b34801561041e57600080fd5b50610427610dc3565b6040516104349190613179565b60405180910390f35b34801561044957600080fd5b50610452610dc9565b60405161045f9190613179565b60405180910390f35b34801561047457600080fd5b5061047d610dcf565b60405161048a91906131f3565b60405180910390f35b34801561049f57600080fd5b506104a8610df5565b6040516104b59190613179565b60405180910390f35b3480156104ca57600080fd5b506104e560048036038101906104e09190613069565b610dff565b005b3480156104f357600080fd5b5061050e6004803603810190610509919061320e565b610e63565b60405161051b919061314f565b60405180910390f35b34801561053057600080fd5b5061054b60048036038101906105469190613069565b610e8b565b005b34801561055957600080fd5b50610562610f04565b60405161056f919061327d565b60405180910390f35b34801561058457600080fd5b5061058d610f0d565b60405161059a9190613179565b60405180910390f35b3480156105af57600080fd5b506105ca60048036038101906105c59190613298565b610f13565b005b3480156105d857600080fd5b506105f360048036038101906105ee91906132f1565b611078565b005b34801561060157600080fd5b5061060a61109d565b6040516106179190613179565b60405180910390f35b34801561062c57600080fd5b506106356110a3565b604051610642919061332d565b60405180910390f35b34801561065757600080fd5b506106606110c9565b60405161066d9190613179565b60405180910390f35b34801561068257600080fd5b5061068b6110cf565b6040516106989190613179565b60405180910390f35b3480156106ad57600080fd5b506106b66110d5565b6040516106c39190613179565b60405180910390f35b3480156106d857600080fd5b506106f360048036038101906106ee9190613069565b6110db565b005b34801561070157600080fd5b5061070a61114c565b6040516107179190613179565b60405180910390f35b34801561072c57600080fd5b5061074760048036038101906107429190613348565b611152565b005b34801561075557600080fd5b5061075e6111b5565b60405161076b919061314f565b60405180910390f35b34801561078057600080fd5b506107896111c8565b6040516107969190613179565b60405180910390f35b3480156107ab57600080fd5b506107b46111ce565b6040516107c19190613179565b60405180910390f35b3480156107d657600080fd5b506107f160048036038101906107ec9190613069565b6111d4565b005b3480156107ff57600080fd5b5061080861124d565b604051610815919061314f565b60405180910390f35b34801561082a57600080fd5b5061084560048036038101906108409190613298565b611260565b6040516108529190613179565b60405180910390f35b34801561086757600080fd5b506108706112a9565b005b34801561087e57600080fd5b5061089960048036038101906108949190613298565b6112bd565b6040516108a6919061314f565b60405180910390f35b3480156108bb57600080fd5b506108c46112dd565b6040516108d1919061314f565b60405180910390f35b3480156108e657600080fd5b506108ef6112f0565b6040516108fc9190613179565b60405180910390f35b34801561091157600080fd5b5061092c60048036038101906109279190613069565b6112f6565b005b34801561093a57600080fd5b50610943611367565b6040516109509190613179565b60405180910390f35b34801561096557600080fd5b5061096e61136d565b60405161097b919061332d565b60405180910390f35b34801561099057600080fd5b50610999611396565b6040516109a6919061300c565b60405180910390f35b3480156109bb57600080fd5b506109d660048036038101906109d19190613348565b6113d3565b005b3480156109e457600080fd5b506109ff60048036038101906109fa91906130f4565b611479565b604051610a0c919061314f565b60405180910390f35b348015610a2157600080fd5b50610a3c6004803603810190610a379190613298565b611495565b005b348015610a4a57600080fd5b50610a656004803603810190610a609190613298565b611550565b604051610a72919061314f565b60405180910390f35b348015610a8757600080fd5b50610a90611570565b604051610a9d9190613179565b60405180910390f35b348015610ab257600080fd5b50610abb611576565b604051610ac89190613179565b60405180910390f35b348015610add57600080fd5b50610ae661157c565b604051610af39190613179565b60405180910390f35b348015610b0857600080fd5b50610b11611582565b005b348015610b1f57600080fd5b50610b286115d3565b604051610b35919061332d565b60405180910390f35b348015610b4a57600080fd5b50610b656004803603810190610b609190613069565b6115f9565b005b348015610b7357600080fd5b50610b8e6004803603810190610b899190613298565b611672565b604051610b9b919061314f565b60405180910390f35b348015610bb057600080fd5b50610bcb6004803603810190610bc69190613388565b611692565b604051610bd89190613179565b60405180910390f35b348015610bed57600080fd5b50610c086004803603810190610c039190613069565b611719565b005b348015610c1657600080fd5b50610c316004803603810190610c2c9190613298565b611785565b005b348015610c3f57600080fd5b50610c48611808565b005b348015610c5657600080fd5b50610c5f61182d565b604051610c6c9190613179565b60405180910390f35b610c7d611833565b6001600860006101000a81548160ff021916908315150217905550565b60606040518060400160405280600381526020017f5553520000000000000000000000000000000000000000000000000000000000815250905090565b610cdf611833565b610ce7610df5565b811115610d29576040517f08c379a0000000000000000000000000000000000000000000000000000000008152600401610d209061343a565b60405180910390fd5b8060028190555050565b6000610d403384846118b1565b6001905092915050565b610d52611833565b611388600e54600d5483610d669190613489565b610d709190613489565b1115610db1576040517f08c379a0000000000000000000000000000000000000000000000000000000008152600401610da89061352f565b60405180910390fd5b80600c81905550610dc0611a7a565b50565b600e5481565b600f5481565b601a60009054906101000a900473ffffffffffffffffffffffffffffffffffffffff1681565b6000600154905090565b610e07611833565b610bb860125482610e189190613489565b1115610e59576040517f08c379a0000000000000000000000000000000000000000000000000000000008152600401610e50906135c1565b60405180910390fd5b8060138190555050565b600080339050610e74858285611b7f565b610e7f858585611c0b565b60019150509392505050565b610e93611833565b611388600e54600c5483610ea79190613489565b610eb19190613489565b1115610ef2576040517f08c379a0000000000000000000000000000000000000000000000000000000008152600401610ee990613653565b60405180910390fd5b80600d81905550610f01611a7a565b50565b60006012905090565b60145481565b610f1b611833565b600560008273ffffffffffffffffffffffffffffffffffffffff1673ffffffffffffffffffffffffffffffffffffffff16815260200190815260200160002060009054906101000a900460ff1615610fa8576040517f08c379a0000000000000000000000000000000000000000000000000000000008152600401610f9f906136bf565b60405180910390fd5b8073ffffffffffffffffffffffffffffffffffffffff16610fc761261c565b73ffffffffffffffffffffffffffffffffffffffff160361101d576040517f08c379a00000000000000000000000000000000000000000000000000000000081526004016110149061372b565b60405180910390fd5b6001600560008373ffffffffffffffffffffffffffffffffffffffff1673ffffffffffffffffffffffffffffffffffffffff16815260200190815260200160002060006101000a81548160ff02191690831515021790555050565b611080611833565b80601b60166101000a81548160ff02191690831515021790555050565b600d5481565b601b60009054906101000a900473ffffffffffffffffffffffffffffffffffffffff1681565b60135481565b60185481565b60175481565b6110e3611833565b611388601054600f54836110f79190613489565b6111019190613489565b1115611142576040517f08c379a0000000000000000000000000000000000000000000000000000000008152600401611139906137bd565b60405180910390fd5b8060118190555050565b60155481565b61115a611833565b80600760008473ffffffffffffffffffffffffffffffffffffffff1673ffffffffffffffffffffffffffffffffffffffff16815260200190815260200160002060006101000a81548160ff0219169083151502179055505050565b601b60169054906101000a900460ff1681565b60025481565b600c5481565b6111dc611833565b611388601154600f54836111f09190613489565b6111fa9190613489565b111561123b576040517f08c379a00000000000000000000000000000000000000000000000000000000081526004016112329061384f565b60405180910390fd5b8060108190555061124a611a7a565b50565b601b60159054906101000a900460ff1681565b6000600360008373ffffffffffffffffffffffffffffffffffffffff1673ffffffffffffffffffffffffffffffffffffffff168152602001908152602001600020549050919050565b6112b1611833565b6112bb6000612624565b565b60076020528060005260406000206000915054906101000a900460ff1681565b600860009054906101000a900460ff1681565b60195481565b6112fe611833565b611388600d54600c54836113129190613489565b61131c9190613489565b111561135d576040517f08c379a000000000000000000000000000000000000000000000000000000000815260040161135490613653565b60405180910390fd5b80600e8190555050565b60105481565b60008060009054906101000a900473ffffffffffffffffffffffffffffffffffffffff16905090565b60606040518060400160405280600381526020017f5553520000000000000000000000000000000000000000000000000000000000815250905090565b6113db611833565b601b60009054906101000a900473ffffffffffffffffffffffffffffffffffffffff1673ffffffffffffffffffffffffffffffffffffffff168273ffffffffffffffffffffffffffffffffffffffff160361146b576040517f08c379a0000000000000000000000000000000000000000000000000000000008152600401611462906138e1565b60405180910390fd5b61147582826126e8565b5050565b60008033905061148a818585611c0b565b600191505092915050565b61149d611833565b600073ffffffffffffffffffffffffffffffffffffffff168173ffffffffffffffffffffffffffffffffffffffff160361150c576040517f08c379a000000000000000000000000000000000000000000000000000000000815260040161150390613973565b60405180910390fd5b80600b60006101000a81548173ffffffffffffffffffffffffffffffffffffffff021916908373ffffffffffffffffffffffffffffffffffffffff16021790555050565b60066020528060005260406000206000915054906101000a900460ff1681565b60115481565b600a5481565b60165481565b61158a611833565b3373ffffffffffffffffffffffffffffffffffffffff166108fc479081150290604051600060405180830381858888f193505050501580156115d0573d6000803e3d6000fd5b50565b600b60009054906101000a900473ffffffffffffffffffffffffffffffffffffffff1681565b611601611833565b611388601154601054836116159190613489565b61161f9190613489565b1115611660576040517f08c379a00000000000000000000000000000000000000000000000000000000081526004016116579061384f565b60405180910390fd5b80600f8190555061166f611a7a565b50565b60056020528060005260406000206000915054906101000a900460ff1681565b6000600460008473ffffffffffffffffffffffffffffffffffffffff1673ffffffffffffffffffffffffffffffffffffffff16815260200190815260200160002060008373ffffffffffffffffffffffffffffffffffffffff1673ffffffffffffffffffffffffffffffffffffffff16815260200190815260200160002054905092915050565b611721611833565b610bb8601354826117329190613489565b1115611773576040517f08c379a000000000000000000000000000000000000000000000000000000000815260040161176a906135c1565b60405180910390fd5b80601281905550611782611a7a565b50565b61178d611833565b600073ffffffffffffffffffffffffffffffffffffffff168173ffffffffffffffffffffffffffffffffffffffff16036117fc576040517f08c379a00000000000000000000000000000000000000000000000000000000081526004016117f390613a05565b60405180910390fd5b61180581612624565b50565b611810611833565b6000600860006101000a81548160ff021916908315150217905550565b60125481565b61183b61261c565b73ffffffffffffffffffffffffffffffffffffffff1661185961136d565b73ffffffffffffffffffffffffffffffffffffffff16146118af576040517f08c379a00000000000000000000000000000000000000000000000000000000081526004016118a690613a71565b60405180910390fd5b565b600073ffffffffffffffffffffffffffffffffffffffff168373ffffffffffffffffffffffffffffffffffffffff1603611920576040517f08c379a000000000000000000000000000000000000000000000000000000000815260040161191790613b03565b60405180910390fd5b600073ffffffffffffffffffffffffffffffffffffffff168273ffffffffffffffffffffffffffffffffffffffff160361198f576040517f08c379a000000000000000000000000000000000000000000000000000000000815260040161198690613b95565b60405180910390fd5b80600460008573ffffffffffffffffffffffffffffffffffffffff1673ffffffffffffffffffffffffffffffffffffffff16815260200190815260200160002060008473ffffffffffffffffffffffffffffffffffffffff1673ffffffffffffffffffffffffffffffffffffffff168152602001908152602001600020819055508173ffffffffffffffffffffffffffffffffffffffff168373ffffffffffffffffffffffffffffffffffffffff167f8c5be1e5ebec7d5bd14f71427d1e84f3dd0314c0f7b2291e5b200ac8c7c3b92583604051611a6d9190613179565b60405180910390a3505050565b6000600d54600c54611a8c9190613489565b90506000601054600f54611aa09190613489565b905060006012549050808284611ab69190613489565b611ac09190613489565b601981905550601954620186a0600c54611ada9190613bb5565b611ae49190613c26565b601481905550601954620186a0600d54611afe9190613bb5565b611b089190613c26565b601581905550601954620186a0600f54611b229190613bb5565b611b2c9190613c26565b601681905550601954620186a0601054611b469190613bb5565b611b509190613c26565b601781905550601954620186a0601254611b6a9190613bb5565b611b749190613c26565b601881905550505050565b6000611b8b8484611692565b90507fffffffffffffffffffffffffffffffffffffffffffffffffffffffffffffffff8114611c055781811015611bf7576040517f08c379a0000000000000000000000000000000000000000000000000000000008152600401611bee90613ca3565b60405180910390fd5b611c0484848484036118b1565b5b50505050565b600073ffffffffffffffffffffffffffffffffffffffff168373ffffffffffffffffffffffffffffffffffffffff1603611c7a576040517f08c379a0000000000000000000000000000000000000000000000000000000008152600401611c7190613d35565b60405180910390fd5b600073ffffffffffffffffffffffffffffffffffffffff168273ffffffffffffffffffffffffffffffffffffffff1603611ce9576040517f08c379a0000000000000000000000000000000000000000000000000000000008152600401611ce090613dc7565b60405180910390fd5b60008111611d2c576040517f08c379a0000000000000000000000000000000000000000000000000000000008152600401611d2390613e59565b60405180910390fd5b600560008473ffffffffffffffffffffffffffffffffffffffff1673ffffffffffffffffffffffffffffffffffffffff16815260200190815260200160002060009054906101000a900460ff1615611db9576040517f08c379a0000000000000000000000000000000000000000000000000000000008152600401611db090613ec5565b60405180910390fd5b600560008373ffffffffffffffffffffffffffffffffffffffff1673ffffffffffffffffffffffffffffffffffffffff16815260200190815260200160002060009054906101000a900460ff1615611e46576040517f08c379a0000000000000000000000000000000000000000000000000000000008152600401611e3d90613f31565b60405180910390fd5b611e4e61136d565b73ffffffffffffffffffffffffffffffffffffffff168373ffffffffffffffffffffffffffffffffffffffff161480611eb95750611e8a61136d565b73ffffffffffffffffffffffffffffffffffffffff168273ffffffffffffffffffffffffffffffffffffffff16145b80611eef57503073ffffffffffffffffffffffffffffffffffffffff168373ffffffffffffffffffffffffffffffffffffffff16145b15611f70576000600954148015611f535750601b60009054906101000a900473ffffffffffffffffffffffffffffffffffffffff1673ffffffffffffffffffffffffffffffffffffffff168273ffffffffffffffffffffffffffffffffffffffff16145b15611f6057436009819055505b611f6b838383612743565b612617565b600860009054906101000a900460ff16611fbf576040517f08c379a0000000000000000000000000000000000000000000000000000000008152600401611fb690613f9d565b60405180910390fd5b600a54600954611fcf9190613489565b4311612032576001600560008473ffffffffffffffffffffffffffffffffffffffff1673ffffffffffffffffffffffffffffffffffffffff16815260200190815260200160002060006101000a81548160ff021916908315150217905550612617565b6000601b60009054906101000a900473ffffffffffffffffffffffffffffffffffffffff1673ffffffffffffffffffffffffffffffffffffffff168473ffffffffffffffffffffffffffffffffffffffff161490506000601b60009054906101000a900473ffffffffffffffffffffffffffffffffffffffff1673ffffffffffffffffffffffffffffffffffffffff168473ffffffffffffffffffffffffffffffffffffffff161490506000806000806120eb30611260565b9050600060025482101590508080156121105750601b60159054906101000a900460ff165b80156121295750601b60149054906101000a900460ff16155b801561217f5750600660008b73ffffffffffffffffffffffffffffffffffffffff1673ffffffffffffffffffffffffffffffffffffffff16815260200190815260200160002060009054906101000a900460ff16155b80156121d55750600760008b73ffffffffffffffffffffffffffffffffffffffff1673ffffffffffffffffffffffffffffffffffffffff16815260200190815260200160002060009054906101000a900460ff16155b801561222b5750600760008a73ffffffffffffffffffffffffffffffffffffffff1673ffffffffffffffffffffffffffffffffffffffff16815260200190815260200160002060009054906101000a900460ff16155b1561226f576001601b60146101000a81548160ff0219169083151502179055506122536128c8565b6000601b60146101000a81548160ff0219169083151502179055505b6000601b60149054906101000a900460ff16159050600760008c73ffffffffffffffffffffffffffffffffffffffff1673ffffffffffffffffffffffffffffffffffffffff16815260200190815260200160002060009054906101000a900460ff16806123255750600760008b73ffffffffffffffffffffffffffffffffffffffff1673ffffffffffffffffffffffffffffffffffffffff16815260200190815260200160002060009054906101000a900460ff165b1561232f57600090505b6000811561260257600660008d73ffffffffffffffffffffffffffffffffffffffff1673ffffffffffffffffffffffffffffffffffffffff16815260200190815260200160002060009054906101000a900460ff16801561238d5750885b1561246157600760008c73ffffffffffffffffffffffffffffffffffffffff1673ffffffffffffffffffffffffffffffffffffffff16815260200190815260200160002060009054906101000a900460ff16612443576123ef8a600c54612a5e565b94506123fd8a600d54612a5e565b965061240a8c3089612743565b6124158c3087612743565b601b60169054906101000a900460ff16612442576124358a600e54612a5e565b95506124418c87612a82565b5b5b8587866124509190613489565b61245a9190613489565b90506125f3565b600660008c73ffffffffffffffffffffffffffffffffffffffff1673ffffffffffffffffffffffffffffffffffffffff16815260200190815260200160002060009054906101000a900460ff1680156124b75750875b1561258b57600760008d73ffffffffffffffffffffffffffffffffffffffff1673ffffffffffffffffffffffffffffffffffffffff16815260200190815260200160002060009054906101000a900460ff1661256d576125198a600f54612a5e565b94506125278a601054612a5e565b96506125348c3087612743565b61253f8c3089612743565b601b60169054906101000a900460ff1661256c5761255f8a601154612a5e565b955061256b8c87612a82565b5b5b85878661257a9190613489565b6125849190613489565b90506125f2565b88158015612597575087155b156125f1576125a88a601254612a5e565b96506125b58c3089612743565b601b60169054906101000a900460ff166125e2576125d58a601354612a5e565b95506125e18c87612a82565b5b85876125ee9190613489565b90505b5b5b808a6125ff9190613fbd565b99505b61260d8c8c8c612743565b5050505050505050505b505050565b600033905090565b60008060009054906101000a900473ffffffffffffffffffffffffffffffffffffffff169050816000806101000a81548173ffffffffffffffffffffffffffffffffffffffff021916908373ffffffffffffffffffffffffffffffffffffffff1602179055508173ffffffffffffffffffffffffffffffffffffffff168173ffffffffffffffffffffffffffffffffffffffff167f8be0079c531659141344cd1fd0a4f28419497f9722a3daafe3b4186f6b6457e060405160405180910390a35050565b80600660008473ffffffffffffffffffffffffffffffffffffffff1673ffffffffffffffffffffffffffffffffffffffff16815260200190815260200160002060006101000a81548160ff0219169083151502179055505050565b6000600360008573ffffffffffffffffffffffffffffffffffffffff1673ffffffffffffffffffffffffffffffffffffffff168152602001908152602001600020549050818110156127ca576040517f08c379a00000000000000000000000000000000000000000000000000000000081526004016127c190614063565b60405180910390fd5b818103600360008673ffffffffffffffffffffffffffffffffffffffff1673ffffffffffffffffffffffffffffffffffffffff1681526020019081526020016000208190555081600360008573ffffffffffffffffffffffffffffffffffffffff1673ffffffffffffffffffffffffffffffffffffffff168152602001908152602001600020600082825401925050819055508273ffffffffffffffffffffffffffffffffffffffff168473ffffffffffffffffffffffffffffffffffffffff167fddf252ad1be2c89b69c2b068fc378daa952ba7f163c4a11628f55a4df523b3ef846040516128ba9190613179565b60405180910390a350505050565b60006128d330611260565b905060006018546017546015546128ea9190613489565b6128f49190613489565b90506002548210612a5a57600062030d4082846129119190613bb5565b61291b9190613c26565b90506000818461292b9190613fbd565b9050600047905061293b82612c51565b600081476129499190613fbd565b9050600080620186a0601454846129609190613bb5565b61296a9190613c26565b90506000620186a0601654856129809190613bb5565b61298a9190613c26565b90506000818361299a9190613489565b905080856129a89190613fbd565b9450600b60009054906101000a900473ffffffffffffffffffffffffffffffffffffffff1673ffffffffffffffffffffffffffffffffffffffff16816188b8906040516129f4906140b4565b600060405180830381858888f193505050503d8060008114612a32576040519150601f19603f3d011682016040523d82523d6000602084013e612a37565b606091505b5050809450506000851115612a5157612a508886612e94565b5b50505050505050505b5050565b6000620186a08284612a709190613bb5565b612a7a9190613c26565b905092915050565b600073ffffffffffffffffffffffffffffffffffffffff168273ffffffffffffffffffffffffffffffffffffffff1603612af1576040517f08c379a0000000000000000000000000000000000000000000000000000000008152600401612ae89061413b565b60405180910390fd5b612afd82600083612f72565b6000600360008473ffffffffffffffffffffffffffffffffffffffff1673ffffffffffffffffffffffffffffffffffffffff16815260200190815260200160002054905081811015612b84576040517f08c379a0000000000000000000000000000000000000000000000000000000008152600401612b7b906141cd565b60405180910390fd5b818103600360008573ffffffffffffffffffffffffffffffffffffffff1673ffffffffffffffffffffffffffffffffffffffff1681526020019081526020016000208190555081600160008282540392505081905550600073ffffffffffffffffffffffffffffffffffffffff168373ffffffffffffffffffffffffffffffffffffffff167fddf252ad1be2c89b69c2b068fc378daa952ba7f163c4a11628f55a4df523b3ef84604051612c389190613179565b60405180910390a3612c4c83600084612f77565b505050565b6000600267ffffffffffffffff811115612c6e57612c6d6141ed565b5b604051908082528060200260200182016040528015612c9c5781602001602082028036833780820191505090505b5090503081600081518110612cb457612cb361421c565b5b602002602001019073ffffffffffffffffffffffffffffffffffffffff16908173ffffffffffffffffffffffffffffffffffffffff1681525050601a60009054906101000a900473ffffffffffffffffffffffffffffffffffffffff1673ffffffffffffffffffffffffffffffffffffffff1663ad5c46486040518163ffffffff1660e01b8152600401602060405180830381865afa158015612d5b573d6000803e3d6000fd5b505050506040513d601f19601f82011682018060405250810190612d7f9190614260565b81600181518110612d9357612d9261421c565b5b602002602001019073ffffffffffffffffffffffffffffffffffffffff16908173ffffffffffffffffffffffffffffffffffffffff1681525050612dfa30601a60009054906101000a900473ffffffffffffffffffffffffffffffffffffffff16846118b1565b601a60009054906101000a900473ffffffffffffffffffffffffffffffffffffffff1673ffffffffffffffffffffffffffffffffffffffff1663791ac9478360008430426040518663ffffffff1660e01b8152600401612e5e959493929190614386565b600060405180830381600087803b158015612e7857600080fd5b505af1158015612e8c573d6000803e3d6000fd5b505050505050565b612ec130601a60009054906101000a900473ffffffffffffffffffffffffffffffffffffffff16846118b1565b601a60009054906101000a900473ffffffffffffffffffffffffffffffffffffffff1673ffffffffffffffffffffffffffffffffffffffff1663f305d71982308560008030426040518863ffffffff1660e01b8152600401612f28969594939291906143e0565b60606040518083038185885af1158015612f46573d6000803e3d6000fd5b50505050506040513d601f19601f82011682018060405250810190612f6b9190614456565b5050505050565b505050565b505050565b600081519050919050565b600082825260208201905092915050565b60005b83811015612fb6578082015181840152602081019050612f9b565b60008484015250505050565b6000601f19601f8301169050919050565b6000612fde82612f7c565b612fe88185612f87565b9350612ff8818560208601612f98565b61300181612fc2565b840191505092915050565b600060208201905081810360008301526130268184612fd3565b905092915050565b600080fd5b6000819050919050565b61304681613033565b811461305157600080fd5b50565b6000813590506130638161303d565b92915050565b60006020828403121561307f5761307e61302e565b5b600061308d84828501613054565b91505092915050565b600073ffffffffffffffffffffffffffffffffffffffff82169050919050565b60006130c182613096565b9050919050565b6130d1816130b6565b81146130dc57600080fd5b50565b6000813590506130ee816130c8565b92915050565b6000806040838503121561310b5761310a61302e565b5b6000613119858286016130df565b925050602061312a85828601613054565b9150509250929050565b60008115159050919050565b61314981613134565b82525050565b60006020820190506131646000830184613140565b92915050565b61317381613033565b82525050565b600060208201905061318e600083018461316a565b92915050565b6000819050919050565b60006131b96131b46131af84613096565b613194565b613096565b9050919050565b60006131cb8261319e565b9050919050565b60006131dd826131c0565b9050919050565b6131ed816131d2565b82525050565b600060208201905061320860008301846131e4565b92915050565b6000806000606084860312156132275761322661302e565b5b6000613235868287016130df565b9350506020613246868287016130df565b925050604061325786828701613054565b9150509250925092565b600060ff82169050919050565b61327781613261565b82525050565b6000602082019050613292600083018461326e565b92915050565b6000602082840312156132ae576132ad61302e565b5b60006132bc848285016130df565b91505092915050565b6132ce81613134565b81146132d957600080fd5b50565b6000813590506132eb816132c5565b92915050565b6000602082840312156133075761330661302e565b5b6000613315848285016132dc565b91505092915050565b613327816130b6565b82525050565b6000602082019050613342600083018461331e565b92915050565b6000806040838503121561335f5761335e61302e565b5b600061336d858286016130df565b925050602061337e858286016132dc565b9150509250929050565b6000806040838503121561339f5761339e61302e565b5b60006133ad858286016130df565b92505060206133be858286016130df565b9150509250929050565b7f546178207468726573686f6c642063616e6e6f74206265206d6f72652074686160008201527f6e20746f74616c20737570706c79000000000000000000000000000000000000602082015250565b6000613424602e83612f87565b915061342f826133c8565b604082019050919050565b6000602082019050818103600083015261345381613417565b9050919050565b7f4e487b7100000000000000000000000000000000000000000000000000000000600052601160045260246000fd5b600061349482613033565b915061349f83613033565b92508282019050808211156134b7576134b661345a565b5b92915050565b7f427579205461782070657263656e746167652063616e6e6f742065786365656460008201527f2035250000000000000000000000000000000000000000000000000000000000602082015250565b6000613519602383612f87565b9150613524826134bd565b604082019050919050565b600060208201905081810360008301526135488161350c565b9050919050565b7f5472616e73666572205461782070657263656e746167652063616e6e6f74206560008201527f7863656564203325000000000000000000000000000000000000000000000000602082015250565b60006135ab602883612f87565b91506135b68261354f565b604082019050919050565b600060208201905081810360008301526135da8161359e565b9050919050565b7f20427579205461782070657263656e746167652063616e6e6f7420657863656560008201527f6420352500000000000000000000000000000000000000000000000000000000602082015250565b600061363d602483612f87565b9150613648826135e1565b604082019050919050565b6000602082019050818103600083015261366c81613630565b9050919050565b7f4163636f756e7420697320616c726561647920626c61636b6c69737465640000600082015250565b60006136a9601e83612f87565b91506136b482613673565b602082019050919050565b600060208201905081810360008301526136d88161369c565b9050919050565b7f43616e6e6f7420626c61636b6c6973742073656c660000000000000000000000600082015250565b6000613715601583612f87565b9150613720826136df565b602082019050919050565b6000602082019050818103600083015261374481613708565b9050919050565b7f53656c6c205461782070657263656e746167652063616e6e6f7420657863656560008201527f6420352500000000000000000000000000000000000000000000000000000000602082015250565b60006137a7602483612f87565b91506137b28261374b565b604082019050919050565b600060208201905081810360008301526137d68161379a565b9050919050565b7f2053656c6c205461782070657263656e746167652063616e6e6f74206578636560008201527f6564203525000000000000000000000000000000000000000000000000000000602082015250565b6000613839602583612f87565b9150613844826137dd565b604082019050919050565b600060208201905081810360008301526138688161382c565b9050919050565b7f54686520706169722063616e6e6f742062652072656d6f7665642066726f6d2060008201527f6175746f6d617465644d61726b65744d616b6572506169727300000000000000602082015250565b60006138cb603983612f87565b91506138d68261386f565b604082019050919050565b600060208201905081810360008301526138fa816138be565b9050919050565b7f4d61726b6574696e672077616c6c65742063616e6e6f74206265207a65726f2060008201527f6164647265737300000000000000000000000000000000000000000000000000602082015250565b600061395d602783612f87565b915061396882613901565b604082019050919050565b6000602082019050818103600083015261398c81613950565b9050919050565b7f4f776e61626c653a206e6577206f776e657220697320746865207a65726f206160008201527f6464726573730000000000000000000000000000000000000000000000000000602082015250565b60006139ef602683612f87565b91506139fa82613993565b604082019050919050565b60006020820190508181036000830152613a1e816139e2565b9050919050565b7f4f776e61626c653a2063616c6c6572206973206e6f7420746865206f776e6572600082015250565b6000613a5b602083612f87565b9150613a6682613a25565b602082019050919050565b60006020820190508181036000830152613a8a81613a4e565b9050919050565b7f45524332303a20617070726f76652066726f6d20746865207a65726f2061646460008201527f7265737300000000000000000000000000000000000000000000000000000000602082015250565b6000613aed602483612f87565b9150613af882613a91565b604082019050919050565b60006020820190508181036000830152613b1c81613ae0565b9050919050565b7f45524332303a20617070726f766520746f20746865207a65726f20616464726560008201527f7373000000000000000000000000000000000000000000000000000000000000602082015250565b6000613b7f602283612f87565b9150613b8a82613b23565b604082019050919050565b60006020820190508181036000830152613bae81613b72565b9050919050565b6000613bc082613033565b9150613bcb83613033565b9250828202613bd981613033565b91508282048414831517613bf057613bef61345a565b5b5092915050565b7f4e487b7100000000000000000000000000000000000000000000000000000000600052601260045260246000fd5b6000613c3182613033565b9150613c3c83613033565b925082613c4c57613c4b613bf7565b5b828204905092915050565b7f45524332303a20696e73756666696369656e7420616c6c6f77616e6365000000600082015250565b6000613c8d601d83612f87565b9150613c9882613c57565b602082019050919050565b60006020820190508181036000830152613cbc81613c80565b9050919050565b7f45524332303a207472616e736665722066726f6d20746865207a65726f20616460008201527f6472657373000000000000000000000000000000000000000000000000000000602082015250565b6000613d1f602583612f87565b9150613d2a82613cc3565b604082019050919050565b60006020820190508181036000830152613d4e81613d12565b9050919050565b7f45524332303a207472616e7366657220746f20746865207a65726f206164647260008201527f6573730000000000000000000000000000000000000000000000000000000000602082015250565b6000613db1602383612f87565b9150613dbc82613d55565b604082019050919050565b60006020820190508181036000830152613de081613da4565b9050919050565b7f5472616e7366657220616d6f756e74206d75737420626520677265617465722060008201527f7468616e207a65726f0000000000000000000000000000000000000000000000602082015250565b6000613e43602983612f87565b9150613e4e82613de7565b604082019050919050565b60006020820190508181036000830152613e7281613e36565b9050919050565b7f53656e64657220697320626c61636b6c69737465640000000000000000000000600082015250565b6000613eaf601583612f87565b9150613eba82613e79565b602082019050919050565b60006020820190508181036000830152613ede81613ea2565b9050919050565b7f526563697069656e7420697320626c61636b6c69737465640000000000000000600082015250565b6000613f1b601883612f87565b9150613f2682613ee5565b602082019050919050565b60006020820190508181036000830152613f4a81613f0e565b9050919050565b7f54726164696e672069732064697361626c656400000000000000000000000000600082015250565b6000613f87601383612f87565b9150613f9282613f51565b602082019050919050565b60006020820190508181036000830152613fb681613f7a565b9050919050565b6000613fc882613033565b9150613fd383613033565b9250828203905081811115613feb57613fea61345a565b5b92915050565b7f45524332303a207472616e7366657220616d6f756e742065786365656473206260008201527f616c616e63650000000000000000000000000000000000000000000000000000602082015250565b600061404d602683612f87565b915061405882613ff1565b604082019050919050565b6000602082019050818103600083015261407c81614040565b9050919050565b600081905092915050565b50565b600061409e600083614083565b91506140a98261408e565b600082019050919050565b60006140bf82614091565b9150819050919050565b7f45524332303a206275726e2066726f6d20746865207a65726f2061646472657360008201527f7300000000000000000000000000000000000000000000000000000000000000602082015250565b6000614125602183612f87565b9150614130826140c9565b604082019050919050565b6000602082019050818103600083015261415481614118565b9050919050565b7f45524332303a206275726e20616d6f756e7420657863656564732062616c616e60008201527f6365000000000000000000000000000000000000000000000000000000000000602082015250565b60006141b7602283612f87565b91506141c28261415b565b604082019050919050565b600060208201905081810360008301526141e6816141aa565b9050919050565b7f4e487b7100000000000000000000000000000000000000000000000000000000600052604160045260246000fd5b7f4e487b7100000000000000000000000000000000000000000000000000000000600052603260045260246000fd5b60008151905061425a816130c8565b92915050565b6000602082840312156142765761427561302e565b5b60006142848482850161424b565b91505092915050565b6000819050919050565b60006142b26142ad6142a88461428d565b613194565b613033565b9050919050565b6142c281614297565b82525050565b600081519050919050565b600082825260208201905092915050565b6000819050602082019050919050565b6142fd816130b6565b82525050565b600061430f83836142f4565b60208301905092915050565b6000602082019050919050565b6000614333826142c8565b61433d81856142d3565b9350614348836142e4565b8060005b838110156143795781516143608882614303565b975061436b8361431b565b92505060018101905061434c565b5085935050505092915050565b600060a08201905061439b600083018861316a565b6143a860208301876142b9565b81810360408301526143ba8186614328565b90506143c9606083018561331e565b6143d6608083018461316a565b9695505050505050565b600060c0820190506143f5600083018961331e565b614402602083018861316a565b61440f60408301876142b9565b61441c60608301866142b9565b614429608083018561331e565b61443660a083018461316a565b979650505050505050565b6000815190506144508161303d565b92915050565b60008060006060848603121561446f5761446e61302e565b5b600061447d86828701614441565b935050602061448e86828701614441565b925050604061449f86828701614441565b915050925092509256fea2646970667358221220bbd67e43cdd6361e4db481806baee530a647e3aae76540f6a1d1c8535d9263a164736f6c63430008130033",
					"opcodes": "PUSH1 0x80 PUSH1 0x40 MSTORE PUSH1 0x12 PUSH1 0xFF AND PUSH1 0xA PUSH3 0x17 SWAP2 SWAP1 PUSH3 0xB32 JUMP JUMPDEST PUSH5 0x61C9F36800 PUSH3 0x29 SWAP2 SWAP1 PUSH3 0xB83 JUMP JUMPDEST PUSH1 0x1 SSTORE PUSH1 0x12 PUSH1 0xFF AND PUSH1 0xA PUSH3 0x3F SWAP2 SWAP1 PUSH3 0xB32 JUMP JUMPDEST PUSH1 0x64 PUSH3 0x4D SWAP2 SWAP1 PUSH3 0xB83 JUMP JUMPDEST PUSH1 0x2 SSTORE PUSH1 0x5 PUSH1 0xA SSTORE PUSH1 0xA PUSH1 0xC SSTORE PUSH1 0xA PUSH1 0xD SSTORE PUSH1 0x5 PUSH1 0xE SSTORE PUSH1 0xA PUSH1 0xF SSTORE PUSH1 0x1E PUSH1 0x10 SSTORE PUSH1 0x5 PUSH1 0x11 SSTORE PUSH1 0x19 PUSH1 0x12 SSTORE PUSH1 0x5 PUSH1 0x13 SSTORE PUSH2 0x2DF4 PUSH1 0x14 SSTORE PUSH2 0x2DF4 PUSH1 0x15 SSTORE PUSH2 0x2DF4 PUSH1 0x16 SSTORE PUSH2 0x89DE PUSH1 0x17 SSTORE PUSH2 0x72E3 PUSH1 0x18 SSTORE PUSH1 0x1 PUSH1 0x1B PUSH1 0x15 PUSH2 0x100 EXP DUP2 SLOAD DUP2 PUSH1 0xFF MUL NOT AND SWAP1 DUP4 ISZERO ISZERO MUL OR SWAP1 SSTORE POP PUSH1 0x0 PUSH1 0x1B PUSH1 0x16 PUSH2 0x100 EXP DUP2 SLOAD DUP2 PUSH1 0xFF MUL NOT AND SWAP1 DUP4 ISZERO ISZERO MUL OR SWAP1 SSTORE POP CALLVALUE DUP1 ISZERO PUSH3 0xDE JUMPI PUSH1 0x0 DUP1 REVERT JUMPDEST POP PUSH1 0x40 MLOAD PUSH3 0x5378 CODESIZE SUB DUP1 PUSH3 0x5378 DUP4 CODECOPY DUP2 DUP2 ADD PUSH1 0x40 MSTORE DUP2 ADD SWAP1 PUSH3 0x104 SWAP2 SWAP1 PUSH3 0xC38 JUMP JUMPDEST PUSH3 0x124 PUSH3 0x118 PUSH3 0x6AD PUSH1 0x20 SHL PUSH1 0x20 SHR JUMP JUMPDEST PUSH3 0x6B5 PUSH1 0x20 SHL PUSH1 0x20 SHR JUMP JUMPDEST PUSH1 0x1 SLOAD PUSH1 0x3 PUSH1 0x0 CALLER PUSH20 0xFFFFFFFFFFFFFFFFFFFFFFFFFFFFFFFFFFFFFFFF AND PUSH20 0xFFFFFFFFFFFFFFFFFFFFFFFFFFFFFFFFFFFFFFFF AND DUP2 MSTORE PUSH1 0x20 ADD SWAP1 DUP2 MSTORE PUSH1 0x20 ADD PUSH1 0x0 KECCAK256 DUP2 SWAP1 SSTORE POP PUSH1 0x0 PUSH1 0x38 CHAINID SUB PUSH3 0x192 JUMPI PUSH20 0x10ED43C718714EB63D5AA57B78B54704E256024E SWAP1 POP PUSH3 0x285 JUMP JUMPDEST PUSH1 0x61 CHAINID SUB PUSH3 0x1B8 JUMPI PUSH20 0xD99D1C33F9FC3444F8101754ABC46C52416550D1 SWAP1 POP PUSH3 0x284 JUMP JUMPDEST PUSH1 0x1 CHAINID EQ DUP1 PUSH3 0x1C8 JUMPI POP PUSH1 0x4 CHAINID EQ JUMPDEST DUP1 PUSH3 0x1D4 JUMPI POP PUSH1 0x3 CHAINID EQ JUMPDEST ISZERO PUSH3 0x1F7 JUMPI PUSH20 0x7A250D5630B4CF539739DF2C5DACB4C659F2488D SWAP1 POP PUSH3 0x283 JUMP JUMPDEST PUSH2 0xA86A CHAINID SUB PUSH3 0x21E JUMPI PUSH20 0x60AE616A2155EE3D9A68541BA4544862310933D4 SWAP1 POP PUSH3 0x282 JUMP JUMPDEST PUSH1 0xFA CHAINID SUB PUSH3 0x244 JUMPI PUSH20 0xF491E7B69E4244AD4002BC14E878A34207E38C29 SWAP1 POP PUSH3 0x281 JUMP JUMPDEST PUSH1 0x40 MLOAD PUSH32 0x8C379A000000000000000000000000000000000000000000000000000000000 DUP2 MSTORE PUSH1 0x4 ADD PUSH3 0x278 SWAP1 PUSH3 0xCCB JUMP JUMPDEST PUSH1 0x40 MLOAD DUP1 SWAP2 SUB SWAP1 REVERT JUMPDEST JUMPDEST JUMPDEST JUMPDEST JUMPDEST DUP1 PUSH1 0x1A PUSH1 0x0 PUSH2 0x100 EXP DUP2 SLOAD DUP2 PUSH20 0xFFFFFFFFFFFFFFFFFFFFFFFFFFFFFFFFFFFFFFFF MUL NOT AND SWAP1 DUP4 PUSH20 0xFFFFFFFFFFFFFFFFFFFFFFFFFFFFFFFFFFFFFFFF AND MUL OR SWAP1 SSTORE POP DUP1 PUSH20 0xFFFFFFFFFFFFFFFFFFFFFFFFFFFFFFFFFFFFFFFF AND PUSH4 0xC45A0155 PUSH1 0x40 MLOAD DUP2 PUSH4 0xFFFFFFFF AND PUSH1 0xE0 SHL DUP2 MSTORE PUSH1 0x4 ADD PUSH1 0x20 PUSH1 0x40 MLOAD DUP1 DUP4 SUB DUP2 DUP7 GAS STATICCALL ISZERO DUP1 ISZERO PUSH3 0x312 JUMPI RETURNDATASIZE PUSH1 0x0 DUP1 RETURNDATACOPY RETURNDATASIZE PUSH1 0x0 REVERT JUMPDEST POP POP POP POP PUSH1 0x40 MLOAD RETURNDATASIZE PUSH1 0x1F NOT PUSH1 0x1F DUP3 ADD AND DUP3 ADD DUP1 PUSH1 0x40 MSTORE POP DUP2 ADD SWAP1 PUSH3 0x338 SWAP2 SWAP1 PUSH3 0xC38 JUMP JUMPDEST PUSH20 0xFFFFFFFFFFFFFFFFFFFFFFFFFFFFFFFFFFFFFFFF AND PUSH4 0xC9C65396 ADDRESS DUP4 PUSH20 0xFFFFFFFFFFFFFFFFFFFFFFFFFFFFFFFFFFFFFFFF AND PUSH4 0xAD5C4648 PUSH1 0x40 MLOAD DUP2 PUSH4 0xFFFFFFFF AND PUSH1 0xE0 SHL DUP2 MSTORE PUSH1 0x4 ADD PUSH1 0x20 PUSH1 0x40 MLOAD DUP1 DUP4 SUB DUP2 DUP7 GAS STATICCALL ISZERO DUP1 ISZERO PUSH3 0x3A0 JUMPI RETURNDATASIZE PUSH1 0x0 DUP1 RETURNDATACOPY RETURNDATASIZE PUSH1 0x0 REVERT JUMPDEST POP POP POP POP PUSH1 0x40 MLOAD RETURNDATASIZE PUSH1 0x1F NOT PUSH1 0x1F DUP3 ADD AND DUP3 ADD DUP1 PUSH1 0x40 MSTORE POP DUP2 ADD SWAP1 PUSH3 0x3C6 SWAP2 SWAP1 PUSH3 0xC38 JUMP JUMPDEST PUSH1 0x40 MLOAD DUP4 PUSH4 0xFFFFFFFF AND PUSH1 0xE0 SHL DUP2 MSTORE PUSH1 0x4 ADD PUSH3 0x3E5 SWAP3 SWAP2 SWAP1 PUSH3 0xCFE JUMP JUMPDEST PUSH1 0x20 PUSH1 0x40 MLOAD DUP1 DUP4 SUB DUP2 PUSH1 0x0 DUP8 GAS CALL ISZERO DUP1 ISZERO PUSH3 0x405 JUMPI RETURNDATASIZE PUSH1 0x0 DUP1 RETURNDATACOPY RETURNDATASIZE PUSH1 0x0 REVERT JUMPDEST POP POP POP POP PUSH1 0x40 MLOAD RETURNDATASIZE PUSH1 0x1F NOT PUSH1 0x1F DUP3 ADD AND DUP3 ADD DUP1 PUSH1 0x40 MSTORE POP DUP2 ADD SWAP1 PUSH3 0x42B SWAP2 SWAP1 PUSH3 0xC38 JUMP JUMPDEST PUSH1 0x1B PUSH1 0x0 PUSH2 0x100 EXP DUP2 SLOAD DUP2 PUSH20 0xFFFFFFFFFFFFFFFFFFFFFFFFFFFFFFFFFFFFFFFF MUL NOT AND SWAP1 DUP4 PUSH20 0xFFFFFFFFFFFFFFFFFFFFFFFFFFFFFFFFFFFFFFFF AND MUL OR SWAP1 SSTORE POP PUSH3 0x4C0 CALLER PUSH1 0x1A PUSH1 0x0 SWAP1 SLOAD SWAP1 PUSH2 0x100 EXP SWAP1 DIV PUSH20 0xFFFFFFFFFFFFFFFFFFFFFFFFFFFFFFFFFFFFFFFF AND PUSH32 0xFFFFFFFFFFFFFFFFFFFFFFFFFFFFFFFFFFFFFFFFFFFFFFFFFFFFFFFFFFFFFFFF PUSH3 0x779 PUSH1 0x20 SHL PUSH1 0x20 SHR JUMP JUMPDEST PUSH3 0x515 ADDRESS PUSH1 0x1A PUSH1 0x0 SWAP1 SLOAD SWAP1 PUSH2 0x100 EXP SWAP1 DIV PUSH20 0xFFFFFFFFFFFFFFFFFFFFFFFFFFFFFFFFFFFFFFFF AND PUSH32 0xFFFFFFFFFFFFFFFFFFFFFFFFFFFFFFFFFFFFFFFFFFFFFFFFFFFFFFFFFFFFFFFF PUSH3 0x779 PUSH1 0x20 SHL PUSH1 0x20 SHR JUMP JUMPDEST PUSH3 0x54A PUSH1 0x1B PUSH1 0x0 SWAP1 SLOAD SWAP1 PUSH2 0x100 EXP SWAP1 DIV PUSH20 0xFFFFFFFFFFFFFFFFFFFFFFFFFFFFFFFFFFFFFFFF AND PUSH1 0x1 PUSH3 0x94A PUSH1 0x20 SHL PUSH1 0x20 SHR JUMP JUMPDEST DUP2 PUSH1 0xB PUSH1 0x0 PUSH2 0x100 EXP DUP2 SLOAD DUP2 PUSH20 0xFFFFFFFFFFFFFFFFFFFFFFFFFFFFFFFFFFFFFFFF MUL NOT AND SWAP1 DUP4 PUSH20 0xFFFFFFFFFFFFFFFFFFFFFFFFFFFFFFFFFFFFFFFF AND MUL OR SWAP1 SSTORE POP PUSH1 0x1 PUSH1 0x7 PUSH1 0x0 ADDRESS PUSH20 0xFFFFFFFFFFFFFFFFFFFFFFFFFFFFFFFFFFFFFFFF AND PUSH20 0xFFFFFFFFFFFFFFFFFFFFFFFFFFFFFFFFFFFFFFFF AND DUP2 MSTORE PUSH1 0x20 ADD SWAP1 DUP2 MSTORE PUSH1 0x20 ADD PUSH1 0x0 KECCAK256 PUSH1 0x0 PUSH2 0x100 EXP DUP2 SLOAD DUP2 PUSH1 0xFF MUL NOT AND SWAP1 DUP4 ISZERO ISZERO MUL OR SWAP1 SSTORE POP PUSH1 0x1 PUSH1 0x7 PUSH1 0x0 CALLER PUSH20 0xFFFFFFFFFFFFFFFFFFFFFFFFFFFFFFFFFFFFFFFF AND PUSH20 0xFFFFFFFFFFFFFFFFFFFFFFFFFFFFFFFFFFFFFFFF AND DUP2 MSTORE PUSH1 0x20 ADD SWAP1 DUP2 MSTORE PUSH1 0x20 ADD PUSH1 0x0 KECCAK256 PUSH1 0x0 PUSH2 0x100 EXP DUP2 SLOAD DUP2 PUSH1 0xFF MUL NOT AND SWAP1 DUP4 ISZERO ISZERO MUL OR SWAP1 SSTORE POP CALLER PUSH20 0xFFFFFFFFFFFFFFFFFFFFFFFFFFFFFFFFFFFFFFFF AND PUSH1 0x0 PUSH20 0xFFFFFFFFFFFFFFFFFFFFFFFFFFFFFFFFFFFFFFFF AND PUSH32 0xDDF252AD1BE2C89B69C2B068FC378DAA952BA7F163C4A11628F55A4DF523B3EF PUSH1 0x1 SLOAD PUSH1 0x40 MLOAD PUSH3 0x69D SWAP2 SWAP1 PUSH3 0xD3C JUMP JUMPDEST PUSH1 0x40 MLOAD DUP1 SWAP2 SUB SWAP1 LOG3 POP POP PUSH3 0xE89 JUMP JUMPDEST PUSH1 0x0 CALLER SWAP1 POP SWAP1 JUMP JUMPDEST PUSH1 0x0 DUP1 PUSH1 0x0 SWAP1 SLOAD SWAP1 PUSH2 0x100 EXP SWAP1 DIV PUSH20 0xFFFFFFFFFFFFFFFFFFFFFFFFFFFFFFFFFFFFFFFF AND SWAP1 POP DUP2 PUSH1 0x0 DUP1 PUSH2 0x100 EXP DUP2 SLOAD DUP2 PUSH20 0xFFFFFFFFFFFFFFFFFFFFFFFFFFFFFFFFFFFFFFFF MUL NOT AND SWAP1 DUP4 PUSH20 0xFFFFFFFFFFFFFFFFFFFFFFFFFFFFFFFFFFFFFFFF AND MUL OR SWAP1 SSTORE POP DUP2 PUSH20 0xFFFFFFFFFFFFFFFFFFFFFFFFFFFFFFFFFFFFFFFF AND DUP2 PUSH20 0xFFFFFFFFFFFFFFFFFFFFFFFFFFFFFFFFFFFFFFFF AND PUSH32 0x8BE0079C531659141344CD1FD0A4F28419497F9722A3DAAFE3B4186F6B6457E0 PUSH1 0x40 MLOAD PUSH1 0x40 MLOAD DUP1 SWAP2 SUB SWAP1 LOG3 POP POP JUMP JUMPDEST PUSH1 0x0 PUSH20 0xFFFFFFFFFFFFFFFFFFFFFFFFFFFFFFFFFFFFFFFF AND DUP4 PUSH20 0xFFFFFFFFFFFFFFFFFFFFFFFFFFFFFFFFFFFFFFFF AND SUB PUSH3 0x7EB JUMPI PUSH1 0x40 MLOAD PUSH32 0x8C379A000000000000000000000000000000000000000000000000000000000 DUP2 MSTORE PUSH1 0x4 ADD PUSH3 0x7E2 SWAP1 PUSH3 0xDCF JUMP JUMPDEST PUSH1 0x40 MLOAD DUP1 SWAP2 SUB SWAP1 REVERT JUMPDEST PUSH1 0x0 PUSH20 0xFFFFFFFFFFFFFFFFFFFFFFFFFFFFFFFFFFFFFFFF AND DUP3 PUSH20 0xFFFFFFFFFFFFFFFFFFFFFFFFFFFFFFFFFFFFFFFF AND SUB PUSH3 0x85D JUMPI PUSH1 0x40 MLOAD PUSH32 0x8C379A000000000000000000000000000000000000000000000000000000000 DUP2 MSTORE PUSH1 0x4 ADD PUSH3 0x854 SWAP1 PUSH3 0xE67 JUMP JUMPDEST PUSH1 0x40 MLOAD DUP1 SWAP2 SUB SWAP1 REVERT JUMPDEST DUP1 PUSH1 0x4 PUSH1 0x0 DUP6 PUSH20 0xFFFFFFFFFFFFFFFFFFFFFFFFFFFFFFFFFFFFFFFF AND PUSH20 0xFFFFFFFFFFFFFFFFFFFFFFFFFFFFFFFFFFFFFFFF AND DUP2 MSTORE PUSH1 0x20 ADD SWAP1 DUP2 MSTORE PUSH1 0x20 ADD PUSH1 0x0 KECCAK256 PUSH1 0x0 DUP5 PUSH20 0xFFFFFFFFFFFFFFFFFFFFFFFFFFFFFFFFFFFFFFFF AND PUSH20 0xFFFFFFFFFFFFFFFFFFFFFFFFFFFFFFFFFFFFFFFF AND DUP2 MSTORE PUSH1 0x20 ADD SWAP1 DUP2 MSTORE PUSH1 0x20 ADD PUSH1 0x0 KECCAK256 DUP2 SWAP1 SSTORE POP DUP2 PUSH20 0xFFFFFFFFFFFFFFFFFFFFFFFFFFFFFFFFFFFFFFFF AND DUP4 PUSH20 0xFFFFFFFFFFFFFFFFFFFFFFFFFFFFFFFFFFFFFFFF AND PUSH32 0x8C5BE1E5EBEC7D5BD14F71427D1E84F3DD0314C0F7B2291E5B200AC8C7C3B925 DUP4 PUSH1 0x40 MLOAD PUSH3 0x93D SWAP2 SWAP1 PUSH3 0xD3C JUMP JUMPDEST PUSH1 0x40 MLOAD DUP1 SWAP2 SUB SWAP1 LOG3 POP POP POP JUMP JUMPDEST DUP1 PUSH1 0x6 PUSH1 0x0 DUP5 PUSH20 0xFFFFFFFFFFFFFFFFFFFFFFFFFFFFFFFFFFFFFFFF AND PUSH20 0xFFFFFFFFFFFFFFFFFFFFFFFFFFFFFFFFFFFFFFFF AND DUP2 MSTORE PUSH1 0x20 ADD SWAP1 DUP2 MSTORE PUSH1 0x20 ADD PUSH1 0x0 KECCAK256 PUSH1 0x0 PUSH2 0x100 EXP DUP2 SLOAD DUP2 PUSH1 0xFF MUL NOT AND SWAP1 DUP4 ISZERO ISZERO MUL OR SWAP1 SSTORE POP POP POP JUMP JUMPDEST PUSH32 0x4E487B7100000000000000000000000000000000000000000000000000000000 PUSH1 0x0 MSTORE PUSH1 0x11 PUSH1 0x4 MSTORE PUSH1 0x24 PUSH1 0x0 REVERT JUMPDEST PUSH1 0x0 DUP2 PUSH1 0x1 SHR SWAP1 POP SWAP2 SWAP1 POP JUMP JUMPDEST PUSH1 0x0 DUP1 DUP3 SWAP2 POP DUP4 SWAP1 POP JUMPDEST PUSH1 0x1 DUP6 GT ISZERO PUSH3 0xA33 JUMPI DUP1 DUP7 DIV DUP2 GT ISZERO PUSH3 0xA0B JUMPI PUSH3 0xA0A PUSH3 0x9A5 JUMP JUMPDEST JUMPDEST PUSH1 0x1 DUP6 AND ISZERO PUSH3 0xA1B JUMPI DUP1 DUP3 MUL SWAP2 POP JUMPDEST DUP1 DUP2 MUL SWAP1 POP PUSH3 0xA2B DUP6 PUSH3 0x9D4 JUMP JUMPDEST SWAP5 POP PUSH3 0x9EB JUMP JUMPDEST SWAP5 POP SWAP5 SWAP3 POP POP POP JUMP JUMPDEST PUSH1 0x0 DUP3 PUSH3 0xA4E JUMPI PUSH1 0x1 SWAP1 POP PUSH3 0xB21 JUMP JUMPDEST DUP2 PUSH3 0xA5E JUMPI PUSH1 0x0 SWAP1 POP PUSH3 0xB21 JUMP JUMPDEST DUP2 PUSH1 0x1 DUP2 EQ PUSH3 0xA77 JUMPI PUSH1 0x2 DUP2 EQ PUSH3 0xA82 JUMPI PUSH3 0xAB8 JUMP JUMPDEST PUSH1 0x1 SWAP2 POP POP PUSH3 0xB21 JUMP JUMPDEST PUSH1 0xFF DUP5 GT ISZERO PUSH3 0xA97 JUMPI PUSH3 0xA96 PUSH3 0x9A5 JUMP JUMPDEST JUMPDEST DUP4 PUSH1 0x2 EXP SWAP2 POP DUP5 DUP3 GT ISZERO PUSH3 0xAB1 JUMPI PUSH3 0xAB0 PUSH3 0x9A5 JUMP JUMPDEST JUMPDEST POP PUSH3 0xB21 JUMP JUMPDEST POP PUSH1 0x20 DUP4 LT PUSH2 0x133 DUP4 LT AND PUSH1 0x4E DUP5 LT PUSH1 0xB DUP5 LT AND OR ISZERO PUSH3 0xAF2 JUMPI DUP3 DUP3 EXP SWAP1 POP DUP4 DUP2 GT ISZERO PUSH3 0xAEC JUMPI PUSH3 0xAEB PUSH3 0x9A5 JUMP JUMPDEST JUMPDEST PUSH3 0xB21 JUMP JUMPDEST PUSH3 0xB01 DUP5 DUP5 DUP5 PUSH1 0x1 PUSH3 0x9E1 JUMP JUMPDEST SWAP3 POP SWAP1 POP DUP2 DUP5 DIV DUP2 GT ISZERO PUSH3 0xB1B JUMPI PUSH3 0xB1A PUSH3 0x9A5 JUMP JUMPDEST JUMPDEST DUP2 DUP2 MUL SWAP1 POP JUMPDEST SWAP4 SWAP3 POP POP POP JUMP JUMPDEST PUSH1 0x0 DUP2 SWAP1 POP SWAP2 SWAP1 POP JUMP JUMPDEST PUSH1 0x0 PUSH3 0xB3F DUP3 PUSH3 0xB28 JUMP JUMPDEST SWAP2 POP PUSH3 0xB4C DUP4 PUSH3 0xB28 JUMP JUMPDEST SWAP3 POP PUSH3 0xB7B PUSH32 0xFFFFFFFFFFFFFFFFFFFFFFFFFFFFFFFFFFFFFFFFFFFFFFFFFFFFFFFFFFFFFFFF DUP5 DUP5 PUSH3 0xA3C JUMP JUMPDEST SWAP1 POP SWAP3 SWAP2 POP POP JUMP JUMPDEST PUSH1 0x0 PUSH3 0xB90 DUP3 PUSH3 0xB28 JUMP JUMPDEST SWAP2 POP PUSH3 0xB9D DUP4 PUSH3 0xB28 JUMP JUMPDEST SWAP3 POP DUP3 DUP3 MUL PUSH3 0xBAD DUP2 PUSH3 0xB28 JUMP JUMPDEST SWAP2 POP DUP3 DUP3 DIV DUP5 EQ DUP4 ISZERO OR PUSH3 0xBC7 JUMPI PUSH3 0xBC6 PUSH3 0x9A5 JUMP JUMPDEST JUMPDEST POP SWAP3 SWAP2 POP POP JUMP JUMPDEST PUSH1 0x0 DUP1 REVERT JUMPDEST PUSH1 0x0 PUSH20 0xFFFFFFFFFFFFFFFFFFFFFFFFFFFFFFFFFFFFFFFF DUP3 AND SWAP1 POP SWAP2 SWAP1 POP JUMP JUMPDEST PUSH1 0x0 PUSH3 0xC00 DUP3 PUSH3 0xBD3 JUMP JUMPDEST SWAP1 POP SWAP2 SWAP1 POP JUMP JUMPDEST PUSH3 0xC12 DUP2 PUSH3 0xBF3 JUMP JUMPDEST DUP2 EQ PUSH3 0xC1E JUMPI PUSH1 0x0 DUP1 REVERT JUMPDEST POP JUMP JUMPDEST PUSH1 0x0 DUP2 MLOAD SWAP1 POP PUSH3 0xC32 DUP2 PUSH3 0xC07 JUMP JUMPDEST SWAP3 SWAP2 POP POP JUMP JUMPDEST PUSH1 0x0 PUSH1 0x20 DUP3 DUP5 SUB SLT ISZERO PUSH3 0xC51 JUMPI PUSH3 0xC50 PUSH3 0xBCE JUMP JUMPDEST JUMPDEST PUSH1 0x0 PUSH3 0xC61 DUP5 DUP3 DUP6 ADD PUSH3 0xC21 JUMP JUMPDEST SWAP2 POP POP SWAP3 SWAP2 POP POP JUMP JUMPDEST PUSH1 0x0 DUP3 DUP3 MSTORE PUSH1 0x20 DUP3 ADD SWAP1 POP SWAP3 SWAP2 POP POP JUMP JUMPDEST PUSH32 0x436861696E206E6F742076616C69640000000000000000000000000000000000 PUSH1 0x0 DUP3 ADD MSTORE POP JUMP JUMPDEST PUSH1 0x0 PUSH3 0xCB3 PUSH1 0xF DUP4 PUSH3 0xC6A JUMP JUMPDEST SWAP2 POP PUSH3 0xCC0 DUP3 PUSH3 0xC7B JUMP JUMPDEST PUSH1 0x20 DUP3 ADD SWAP1 POP SWAP2 SWAP1 POP JUMP JUMPDEST PUSH1 0x0 PUSH1 0x20 DUP3 ADD SWAP1 POP DUP2 DUP2 SUB PUSH1 0x0 DUP4 ADD MSTORE PUSH3 0xCE6 DUP2 PUSH3 0xCA4 JUMP JUMPDEST SWAP1 POP SWAP2 SWAP1 POP JUMP JUMPDEST PUSH3 0xCF8 DUP2 PUSH3 0xBF3 JUMP JUMPDEST DUP3 MSTORE POP POP JUMP JUMPDEST PUSH1 0x0 PUSH1 0x40 DUP3 ADD SWAP1 POP PUSH3 0xD15 PUSH1 0x0 DUP4 ADD DUP6 PUSH3 0xCED JUMP JUMPDEST PUSH3 0xD24 PUSH1 0x20 DUP4 ADD DUP5 PUSH3 0xCED JUMP JUMPDEST SWAP4 SWAP3 POP POP POP JUMP JUMPDEST PUSH3 0xD36 DUP2 PUSH3 0xB28 JUMP JUMPDEST DUP3 MSTORE POP POP JUMP JUMPDEST PUSH1 0x0 PUSH1 0x20 DUP3 ADD SWAP1 POP PUSH3 0xD53 PUSH1 0x0 DUP4 ADD DUP5 PUSH3 0xD2B JUMP JUMPDEST SWAP3 SWAP2 POP POP JUMP JUMPDEST PUSH32 0x45524332303A20617070726F76652066726F6D20746865207A65726F20616464 PUSH1 0x0 DUP3 ADD MSTORE PUSH32 0x7265737300000000000000000000000000000000000000000000000000000000 PUSH1 0x20 DUP3 ADD MSTORE POP JUMP JUMPDEST PUSH1 0x0 PUSH3 0xDB7 PUSH1 0x24 DUP4 PUSH3 0xC6A JUMP JUMPDEST SWAP2 POP PUSH3 0xDC4 DUP3 PUSH3 0xD59 JUMP JUMPDEST PUSH1 0x40 DUP3 ADD SWAP1 POP SWAP2 SWAP1 POP JUMP JUMPDEST PUSH1 0x0 PUSH1 0x20 DUP3 ADD SWAP1 POP DUP2 DUP2 SUB PUSH1 0x0 DUP4 ADD MSTORE PUSH3 0xDEA DUP2 PUSH3 0xDA8 JUMP JUMPDEST SWAP1 POP SWAP2 SWAP1 POP JUMP JUMPDEST PUSH32 0x45524332303A20617070726F766520746F20746865207A65726F206164647265 PUSH1 0x0 DUP3 ADD MSTORE PUSH32 0x7373000000000000000000000000000000000000000000000000000000000000 PUSH1 0x20 DUP3 ADD MSTORE POP JUMP JUMPDEST PUSH1 0x0 PUSH3 0xE4F PUSH1 0x22 DUP4 PUSH3 0xC6A JUMP JUMPDEST SWAP2 POP PUSH3 0xE5C DUP3 PUSH3 0xDF1 JUMP JUMPDEST PUSH1 0x40 DUP3 ADD SWAP1 POP SWAP2 SWAP1 POP JUMP JUMPDEST PUSH1 0x0 PUSH1 0x20 DUP3 ADD SWAP1 POP DUP2 DUP2 SUB PUSH1 0x0 DUP4 ADD MSTORE PUSH3 0xE82 DUP2 PUSH3 0xE40 JUMP JUMPDEST SWAP1 POP SWAP2 SWAP1 POP JUMP JUMPDEST PUSH2 0x44DF DUP1 PUSH3 0xE99 PUSH1 0x0 CODECOPY PUSH1 0x0 RETURN INVALID PUSH1 0x80 PUSH1 0x40 MSTORE PUSH1 0x4 CALLDATASIZE LT PUSH2 0x338 JUMPI PUSH1 0x0 CALLDATALOAD PUSH1 0xE0 SHR DUP1 PUSH4 0x6BF74354 GT PUSH2 0x1AB JUMPI DUP1 PUSH4 0xAAEEAA89 GT PUSH2 0xF7 JUMPI DUP1 PUSH4 0xD8BFD198 GT PUSH2 0x95 JUMPI DUP1 PUSH4 0xE47F47A6 GT PUSH2 0x6F JUMPI DUP1 PUSH4 0xE47F47A6 EQ PUSH2 0xBE1 JUMPI DUP1 PUSH4 0xF2FDE38B EQ PUSH2 0xC0A JUMPI DUP1 PUSH4 0xF3D1F026 EQ PUSH2 0xC33 JUMPI DUP1 PUSH4 0xFFCAC76D EQ PUSH2 0xC4A JUMPI PUSH2 0x33F JUMP JUMPDEST DUP1 PUSH4 0xD8BFD198 EQ PUSH2 0xB3E JUMPI DUP1 PUSH4 0xDBAC26E9 EQ PUSH2 0xB67 JUMPI DUP1 PUSH4 0xDD62ED3E EQ PUSH2 0xBA4 JUMPI PUSH2 0x33F JUMP JUMPDEST DUP1 PUSH4 0xC51ABC59 GT PUSH2 0xD1 JUMPI DUP1 PUSH4 0xC51ABC59 EQ PUSH2 0xAA6 JUMPI DUP1 PUSH4 0xC844D32D EQ PUSH2 0xAD1 JUMPI DUP1 PUSH4 0xCE831ED5 EQ PUSH2 0xAFC JUMPI DUP1 PUSH4 0xD4927EB2 EQ PUSH2 0xB13 JUMPI PUSH2 0x33F JUMP JUMPDEST DUP1 PUSH4 0xAAEEAA89 EQ PUSH2 0xA15 JUMPI DUP1 PUSH4 0xB62496F5 EQ PUSH2 0xA3E JUMPI DUP1 PUSH4 0xBA61F301 EQ PUSH2 0xA7B JUMPI PUSH2 0x33F JUMP JUMPDEST DUP1 PUSH4 0x7F2E6CCB GT PUSH2 0x164 JUMPI DUP1 PUSH4 0x8DA5CB5B GT PUSH2 0x13E JUMPI DUP1 PUSH4 0x8DA5CB5B EQ PUSH2 0x959 JUMPI DUP1 PUSH4 0x95D89B41 EQ PUSH2 0x984 JUMPI DUP1 PUSH4 0x9A7A23D6 EQ PUSH2 0x9AF JUMPI DUP1 PUSH4 0xA9059CBB EQ PUSH2 0x9D8 JUMPI PUSH2 0x33F JUMP JUMPDEST DUP1 PUSH4 0x7F2E6CCB EQ PUSH2 0x8DA JUMPI DUP1 PUSH4 0x8683171F EQ PUSH2 0x905 JUMPI DUP1 PUSH4 0x8D9D142C EQ PUSH2 0x92E JUMPI PUSH2 0x33F JUMP JUMPDEST DUP1 PUSH4 0x6BF74354 EQ PUSH2 0x7CA JUMPI DUP1 PUSH4 0x6DDD1713 EQ PUSH2 0x7F3 JUMPI DUP1 PUSH4 0x70A08231 EQ PUSH2 0x81E JUMPI DUP1 PUSH4 0x715018A6 EQ PUSH2 0x85B JUMPI DUP1 PUSH4 0x768DC710 EQ PUSH2 0x872 JUMPI DUP1 PUSH4 0x7AAB5D9B EQ PUSH2 0x8AF JUMPI PUSH2 0x33F JUMP JUMPDEST DUP1 PUSH4 0x3F156B62 GT PUSH2 0x285 JUMPI DUP1 PUSH4 0x53D01D3E GT PUSH2 0x223 JUMPI DUP1 PUSH4 0x6612E66F GT PUSH2 0x1FD JUMPI DUP1 PUSH4 0x6612E66F EQ PUSH2 0x720 JUMPI DUP1 PUSH4 0x6717EA65 EQ PUSH2 0x749 JUMPI DUP1 PUSH4 0x67B34E01 EQ PUSH2 0x774 JUMPI DUP1 PUSH4 0x67D76508 EQ PUSH2 0x79F JUMPI PUSH2 0x33F JUMP JUMPDEST DUP1 PUSH4 0x53D01D3E EQ PUSH2 0x6A1 JUMPI DUP1 PUSH4 0x56566C7F EQ PUSH2 0x6CC JUMPI DUP1 PUSH4 0x5FA1F783 EQ PUSH2 0x6F5 JUMPI PUSH2 0x33F JUMP JUMPDEST DUP1 PUSH4 0x46C9EE3E GT PUSH2 0x25F JUMPI DUP1 PUSH4 0x46C9EE3E EQ PUSH2 0x5F5 JUMPI DUP1 PUSH4 0x4BF28FD0 EQ PUSH2 0x620 JUMPI DUP1 PUSH4 0x4DCB39A0 EQ PUSH2 0x64B JUMPI DUP1 PUSH4 0x4E08915F EQ PUSH2 0x676 JUMPI PUSH2 0x33F JUMP JUMPDEST DUP1 PUSH4 0x3F156B62 EQ PUSH2 0x578 JUMPI DUP1 PUSH4 0x44337EA1 EQ PUSH2 0x5A3 JUMPI DUP1 PUSH4 0x46190503 EQ PUSH2 0x5CC JUMPI PUSH2 0x33F JUMP JUMPDEST DUP1 PUSH4 0x137461DC GT PUSH2 0x2F2 JUMPI DUP1 PUSH4 0x235C6609 GT PUSH2 0x2CC JUMPI DUP1 PUSH4 0x235C6609 EQ PUSH2 0x4BE JUMPI DUP1 PUSH4 0x23B872DD EQ PUSH2 0x4E7 JUMPI DUP1 PUSH4 0x2E860462 EQ PUSH2 0x524 JUMPI DUP1 PUSH4 0x313CE567 EQ PUSH2 0x54D JUMPI PUSH2 0x33F JUMP JUMPDEST DUP1 PUSH4 0x137461DC EQ PUSH2 0x43D JUMPI DUP1 PUSH4 0x1694505E EQ PUSH2 0x468 JUMPI DUP1 PUSH4 0x18160DDD EQ PUSH2 0x493 JUMPI PUSH2 0x33F JUMP JUMPDEST DUP1 PUSH3 0x99D386 EQ PUSH2 0x341 JUMPI DUP1 PUSH4 0x6FDDE03 EQ PUSH2 0x358 JUMPI DUP1 PUSH4 0x7A212BE EQ PUSH2 0x383 JUMPI DUP1 PUSH4 0x95EA7B3 EQ PUSH2 0x3AC JUMPI DUP1 PUSH4 0x105183E5 EQ PUSH2 0x3E9 JUMPI DUP1 PUSH4 0x10C5B4C3 EQ PUSH2 0x412 JUMPI PUSH2 0x33F JUMP JUMPDEST CALLDATASIZE PUSH2 0x33F JUMPI STOP JUMPDEST STOP JUMPDEST CALLVALUE DUP1 ISZERO PUSH2 0x34D JUMPI PUSH1 0x0 DUP1 REVERT JUMPDEST POP PUSH2 0x356 PUSH2 0xC75 JUMP JUMPDEST STOP JUMPDEST CALLVALUE DUP1 ISZERO PUSH2 0x364 JUMPI PUSH1 0x0 DUP1 REVERT JUMPDEST POP PUSH2 0x36D PUSH2 0xC9A JUMP JUMPDEST PUSH1 0x40 MLOAD PUSH2 0x37A SWAP2 SWAP1 PUSH2 0x300C JUMP JUMPDEST PUSH1 0x40 MLOAD DUP1 SWAP2 SUB SWAP1 RETURN JUMPDEST CALLVALUE DUP1 ISZERO PUSH2 0x38F JUMPI PUSH1 0x0 DUP1 REVERT JUMPDEST POP PUSH2 0x3AA PUSH1 0x4 DUP1 CALLDATASIZE SUB DUP2 ADD SWAP1 PUSH2 0x3A5 SWAP2 SWAP1 PUSH2 0x3069 JUMP JUMPDEST PUSH2 0xCD7 JUMP JUMPDEST STOP JUMPDEST CALLVALUE DUP1 ISZERO PUSH2 0x3B8 JUMPI PUSH1 0x0 DUP1 REVERT JUMPDEST POP PUSH2 0x3D3 PUSH1 0x4 DUP1 CALLDATASIZE SUB DUP2 ADD SWAP1 PUSH2 0x3CE SWAP2 SWAP1 PUSH2 0x30F4 JUMP JUMPDEST PUSH2 0xD33 JUMP JUMPDEST PUSH1 0x40 MLOAD PUSH2 0x3E0 SWAP2 SWAP1 PUSH2 0x314F JUMP JUMPDEST PUSH1 0x40 MLOAD DUP1 SWAP2 SUB SWAP1 RETURN JUMPDEST CALLVALUE DUP1 ISZERO PUSH2 0x3F5 JUMPI PUSH1 0x0 DUP1 REVERT JUMPDEST POP PUSH2 0x410 PUSH1 0x4 DUP1 CALLDATASIZE SUB DUP2 ADD SWAP1 PUSH2 0x40B SWAP2 SWAP1 PUSH2 0x3069 JUMP JUMPDEST PUSH2 0xD4A JUMP JUMPDEST STOP JUMPDEST CALLVALUE DUP1 ISZERO PUSH2 0x41E JUMPI PUSH1 0x0 DUP1 REVERT JUMPDEST POP PUSH2 0x427 PUSH2 0xDC3 JUMP JUMPDEST PUSH1 0x40 MLOAD PUSH2 0x434 SWAP2 SWAP1 PUSH2 0x3179 JUMP JUMPDEST PUSH1 0x40 MLOAD DUP1 SWAP2 SUB SWAP1 RETURN JUMPDEST CALLVALUE DUP1 ISZERO PUSH2 0x449 JUMPI PUSH1 0x0 DUP1 REVERT JUMPDEST POP PUSH2 0x452 PUSH2 0xDC9 JUMP JUMPDEST PUSH1 0x40 MLOAD PUSH2 0x45F SWAP2 SWAP1 PUSH2 0x3179 JUMP JUMPDEST PUSH1 0x40 MLOAD DUP1 SWAP2 SUB SWAP1 RETURN JUMPDEST CALLVALUE DUP1 ISZERO PUSH2 0x474 JUMPI PUSH1 0x0 DUP1 REVERT JUMPDEST POP PUSH2 0x47D PUSH2 0xDCF JUMP JUMPDEST PUSH1 0x40 MLOAD PUSH2 0x48A SWAP2 SWAP1 PUSH2 0x31F3 JUMP JUMPDEST PUSH1 0x40 MLOAD DUP1 SWAP2 SUB SWAP1 RETURN JUMPDEST CALLVALUE DUP1 ISZERO PUSH2 0x49F JUMPI PUSH1 0x0 DUP1 REVERT JUMPDEST POP PUSH2 0x4A8 PUSH2 0xDF5 JUMP JUMPDEST PUSH1 0x40 MLOAD PUSH2 0x4B5 SWAP2 SWAP1 PUSH2 0x3179 JUMP JUMPDEST PUSH1 0x40 MLOAD DUP1 SWAP2 SUB SWAP1 RETURN JUMPDEST CALLVALUE DUP1 ISZERO PUSH2 0x4CA JUMPI PUSH1 0x0 DUP1 REVERT JUMPDEST POP PUSH2 0x4E5 PUSH1 0x4 DUP1 CALLDATASIZE SUB DUP2 ADD SWAP1 PUSH2 0x4E0 SWAP2 SWAP1 PUSH2 0x3069 JUMP JUMPDEST PUSH2 0xDFF JUMP JUMPDEST STOP JUMPDEST CALLVALUE DUP1 ISZERO PUSH2 0x4F3 JUMPI PUSH1 0x0 DUP1 REVERT JUMPDEST POP PUSH2 0x50E PUSH1 0x4 DUP1 CALLDATASIZE SUB DUP2 ADD SWAP1 PUSH2 0x509 SWAP2 SWAP1 PUSH2 0x320E JUMP JUMPDEST PUSH2 0xE63 JUMP JUMPDEST PUSH1 0x40 MLOAD PUSH2 0x51B SWAP2 SWAP1 PUSH2 0x314F JUMP JUMPDEST PUSH1 0x40 MLOAD DUP1 SWAP2 SUB SWAP1 RETURN JUMPDEST CALLVALUE DUP1 ISZERO PUSH2 0x530 JUMPI PUSH1 0x0 DUP1 REVERT JUMPDEST POP PUSH2 0x54B PUSH1 0x4 DUP1 CALLDATASIZE SUB DUP2 ADD SWAP1 PUSH2 0x546 SWAP2 SWAP1 PUSH2 0x3069 JUMP JUMPDEST PUSH2 0xE8B JUMP JUMPDEST STOP JUMPDEST CALLVALUE DUP1 ISZERO PUSH2 0x559 JUMPI PUSH1 0x0 DUP1 REVERT JUMPDEST POP PUSH2 0x562 PUSH2 0xF04 JUMP JUMPDEST PUSH1 0x40 MLOAD PUSH2 0x56F SWAP2 SWAP1 PUSH2 0x327D JUMP JUMPDEST PUSH1 0x40 MLOAD DUP1 SWAP2 SUB SWAP1 RETURN JUMPDEST CALLVALUE DUP1 ISZERO PUSH2 0x584 JUMPI PUSH1 0x0 DUP1 REVERT JUMPDEST POP PUSH2 0x58D PUSH2 0xF0D JUMP JUMPDEST PUSH1 0x40 MLOAD PUSH2 0x59A SWAP2 SWAP1 PUSH2 0x3179 JUMP JUMPDEST PUSH1 0x40 MLOAD DUP1 SWAP2 SUB SWAP1 RETURN JUMPDEST CALLVALUE DUP1 ISZERO PUSH2 0x5AF JUMPI PUSH1 0x0 DUP1 REVERT JUMPDEST POP PUSH2 0x5CA PUSH1 0x4 DUP1 CALLDATASIZE SUB DUP2 ADD SWAP1 PUSH2 0x5C5 SWAP2 SWAP1 PUSH2 0x3298 JUMP JUMPDEST PUSH2 0xF13 JUMP JUMPDEST STOP JUMPDEST CALLVALUE DUP1 ISZERO PUSH2 0x5D8 JUMPI PUSH1 0x0 DUP1 REVERT JUMPDEST POP PUSH2 0x5F3 PUSH1 0x4 DUP1 CALLDATASIZE SUB DUP2 ADD SWAP1 PUSH2 0x5EE SWAP2 SWAP1 PUSH2 0x32F1 JUMP JUMPDEST PUSH2 0x1078 JUMP JUMPDEST STOP JUMPDEST CALLVALUE DUP1 ISZERO PUSH2 0x601 JUMPI PUSH1 0x0 DUP1 REVERT JUMPDEST POP PUSH2 0x60A PUSH2 0x109D JUMP JUMPDEST PUSH1 0x40 MLOAD PUSH2 0x617 SWAP2 SWAP1 PUSH2 0x3179 JUMP JUMPDEST PUSH1 0x40 MLOAD DUP1 SWAP2 SUB SWAP1 RETURN JUMPDEST CALLVALUE DUP1 ISZERO PUSH2 0x62C JUMPI PUSH1 0x0 DUP1 REVERT JUMPDEST POP PUSH2 0x635 PUSH2 0x10A3 JUMP JUMPDEST PUSH1 0x40 MLOAD PUSH2 0x642 SWAP2 SWAP1 PUSH2 0x332D JUMP JUMPDEST PUSH1 0x40 MLOAD DUP1 SWAP2 SUB SWAP1 RETURN JUMPDEST CALLVALUE DUP1 ISZERO PUSH2 0x657 JUMPI PUSH1 0x0 DUP1 REVERT JUMPDEST POP PUSH2 0x660 PUSH2 0x10C9 JUMP JUMPDEST PUSH1 0x40 MLOAD PUSH2 0x66D SWAP2 SWAP1 PUSH2 0x3179 JUMP JUMPDEST PUSH1 0x40 MLOAD DUP1 SWAP2 SUB SWAP1 RETURN JUMPDEST CALLVALUE DUP1 ISZERO PUSH2 0x682 JUMPI PUSH1 0x0 DUP1 REVERT JUMPDEST POP PUSH2 0x68B PUSH2 0x10CF JUMP JUMPDEST PUSH1 0x40 MLOAD PUSH2 0x698 SWAP2 SWAP1 PUSH2 0x3179 JUMP JUMPDEST PUSH1 0x40 MLOAD DUP1 SWAP2 SUB SWAP1 RETURN JUMPDEST CALLVALUE DUP1 ISZERO PUSH2 0x6AD JUMPI PUSH1 0x0 DUP1 REVERT JUMPDEST POP PUSH2 0x6B6 PUSH2 0x10D5 JUMP JUMPDEST PUSH1 0x40 MLOAD PUSH2 0x6C3 SWAP2 SWAP1 PUSH2 0x3179 JUMP JUMPDEST PUSH1 0x40 MLOAD DUP1 SWAP2 SUB SWAP1 RETURN JUMPDEST CALLVALUE DUP1 ISZERO PUSH2 0x6D8 JUMPI PUSH1 0x0 DUP1 REVERT JUMPDEST POP PUSH2 0x6F3 PUSH1 0x4 DUP1 CALLDATASIZE SUB DUP2 ADD SWAP1 PUSH2 0x6EE SWAP2 SWAP1 PUSH2 0x3069 JUMP JUMPDEST PUSH2 0x10DB JUMP JUMPDEST STOP JUMPDEST CALLVALUE DUP1 ISZERO PUSH2 0x701 JUMPI PUSH1 0x0 DUP1 REVERT JUMPDEST POP PUSH2 0x70A PUSH2 0x114C JUMP JUMPDEST PUSH1 0x40 MLOAD PUSH2 0x717 SWAP2 SWAP1 PUSH2 0x3179 JUMP JUMPDEST PUSH1 0x40 MLOAD DUP1 SWAP2 SUB SWAP1 RETURN JUMPDEST CALLVALUE DUP1 ISZERO PUSH2 0x72C JUMPI PUSH1 0x0 DUP1 REVERT JUMPDEST POP PUSH2 0x747 PUSH1 0x4 DUP1 CALLDATASIZE SUB DUP2 ADD SWAP1 PUSH2 0x742 SWAP2 SWAP1 PUSH2 0x3348 JUMP JUMPDEST PUSH2 0x1152 JUMP JUMPDEST STOP JUMPDEST CALLVALUE DUP1 ISZERO PUSH2 0x755 JUMPI PUSH1 0x0 DUP1 REVERT JUMPDEST POP PUSH2 0x75E PUSH2 0x11B5 JUMP JUMPDEST PUSH1 0x40 MLOAD PUSH2 0x76B SWAP2 SWAP1 PUSH2 0x314F JUMP JUMPDEST PUSH1 0x40 MLOAD DUP1 SWAP2 SUB SWAP1 RETURN JUMPDEST CALLVALUE DUP1 ISZERO PUSH2 0x780 JUMPI PUSH1 0x0 DUP1 REVERT JUMPDEST POP PUSH2 0x789 PUSH2 0x11C8 JUMP JUMPDEST PUSH1 0x40 MLOAD PUSH2 0x796 SWAP2 SWAP1 PUSH2 0x3179 JUMP JUMPDEST PUSH1 0x40 MLOAD DUP1 SWAP2 SUB SWAP1 RETURN JUMPDEST CALLVALUE DUP1 ISZERO PUSH2 0x7AB JUMPI PUSH1 0x0 DUP1 REVERT JUMPDEST POP PUSH2 0x7B4 PUSH2 0x11CE JUMP JUMPDEST PUSH1 0x40 MLOAD PUSH2 0x7C1 SWAP2 SWAP1 PUSH2 0x3179 JUMP JUMPDEST PUSH1 0x40 MLOAD DUP1 SWAP2 SUB SWAP1 RETURN JUMPDEST CALLVALUE DUP1 ISZERO PUSH2 0x7D6 JUMPI PUSH1 0x0 DUP1 REVERT JUMPDEST POP PUSH2 0x7F1 PUSH1 0x4 DUP1 CALLDATASIZE SUB DUP2 ADD SWAP1 PUSH2 0x7EC SWAP2 SWAP1 PUSH2 0x3069 JUMP JUMPDEST PUSH2 0x11D4 JUMP JUMPDEST STOP JUMPDEST CALLVALUE DUP1 ISZERO PUSH2 0x7FF JUMPI PUSH1 0x0 DUP1 REVERT JUMPDEST POP PUSH2 0x808 PUSH2 0x124D JUMP JUMPDEST PUSH1 0x40 MLOAD PUSH2 0x815 SWAP2 SWAP1 PUSH2 0x314F JUMP JUMPDEST PUSH1 0x40 MLOAD DUP1 SWAP2 SUB SWAP1 RETURN JUMPDEST CALLVALUE DUP1 ISZERO PUSH2 0x82A JUMPI PUSH1 0x0 DUP1 REVERT JUMPDEST POP PUSH2 0x845 PUSH1 0x4 DUP1 CALLDATASIZE SUB DUP2 ADD SWAP1 PUSH2 0x840 SWAP2 SWAP1 PUSH2 0x3298 JUMP JUMPDEST PUSH2 0x1260 JUMP JUMPDEST PUSH1 0x40 MLOAD PUSH2 0x852 SWAP2 SWAP1 PUSH2 0x3179 JUMP JUMPDEST PUSH1 0x40 MLOAD DUP1 SWAP2 SUB SWAP1 RETURN JUMPDEST CALLVALUE DUP1 ISZERO PUSH2 0x867 JUMPI PUSH1 0x0 DUP1 REVERT JUMPDEST POP PUSH2 0x870 PUSH2 0x12A9 JUMP JUMPDEST STOP JUMPDEST CALLVALUE DUP1 ISZERO PUSH2 0x87E JUMPI PUSH1 0x0 DUP1 REVERT JUMPDEST POP PUSH2 0x899 PUSH1 0x4 DUP1 CALLDATASIZE SUB DUP2 ADD SWAP1 PUSH2 0x894 SWAP2 SWAP1 PUSH2 0x3298 JUMP JUMPDEST PUSH2 0x12BD JUMP JUMPDEST PUSH1 0x40 MLOAD PUSH2 0x8A6 SWAP2 SWAP1 PUSH2 0x314F JUMP JUMPDEST PUSH1 0x40 MLOAD DUP1 SWAP2 SUB SWAP1 RETURN JUMPDEST CALLVALUE DUP1 ISZERO PUSH2 0x8BB JUMPI PUSH1 0x0 DUP1 REVERT JUMPDEST POP PUSH2 0x8C4 PUSH2 0x12DD JUMP JUMPDEST PUSH1 0x40 MLOAD PUSH2 0x8D1 SWAP2 SWAP1 PUSH2 0x314F JUMP JUMPDEST PUSH1 0x40 MLOAD DUP1 SWAP2 SUB SWAP1 RETURN JUMPDEST CALLVALUE DUP1 ISZERO PUSH2 0x8E6 JUMPI PUSH1 0x0 DUP1 REVERT JUMPDEST POP PUSH2 0x8EF PUSH2 0x12F0 JUMP JUMPDEST PUSH1 0x40 MLOAD PUSH2 0x8FC SWAP2 SWAP1 PUSH2 0x3179 JUMP JUMPDEST PUSH1 0x40 MLOAD DUP1 SWAP2 SUB SWAP1 RETURN JUMPDEST CALLVALUE DUP1 ISZERO PUSH2 0x911 JUMPI PUSH1 0x0 DUP1 REVERT JUMPDEST POP PUSH2 0x92C PUSH1 0x4 DUP1 CALLDATASIZE SUB DUP2 ADD SWAP1 PUSH2 0x927 SWAP2 SWAP1 PUSH2 0x3069 JUMP JUMPDEST PUSH2 0x12F6 JUMP JUMPDEST STOP JUMPDEST CALLVALUE DUP1 ISZERO PUSH2 0x93A JUMPI PUSH1 0x0 DUP1 REVERT JUMPDEST POP PUSH2 0x943 PUSH2 0x1367 JUMP JUMPDEST PUSH1 0x40 MLOAD PUSH2 0x950 SWAP2 SWAP1 PUSH2 0x3179 JUMP JUMPDEST PUSH1 0x40 MLOAD DUP1 SWAP2 SUB SWAP1 RETURN JUMPDEST CALLVALUE DUP1 ISZERO PUSH2 0x965 JUMPI PUSH1 0x0 DUP1 REVERT JUMPDEST POP PUSH2 0x96E PUSH2 0x136D JUMP JUMPDEST PUSH1 0x40 MLOAD PUSH2 0x97B SWAP2 SWAP1 PUSH2 0x332D JUMP JUMPDEST PUSH1 0x40 MLOAD DUP1 SWAP2 SUB SWAP1 RETURN JUMPDEST CALLVALUE DUP1 ISZERO PUSH2 0x990 JUMPI PUSH1 0x0 DUP1 REVERT JUMPDEST POP PUSH2 0x999 PUSH2 0x1396 JUMP JUMPDEST PUSH1 0x40 MLOAD PUSH2 0x9A6 SWAP2 SWAP1 PUSH2 0x300C JUMP JUMPDEST PUSH1 0x40 MLOAD DUP1 SWAP2 SUB SWAP1 RETURN JUMPDEST CALLVALUE DUP1 ISZERO PUSH2 0x9BB JUMPI PUSH1 0x0 DUP1 REVERT JUMPDEST POP PUSH2 0x9D6 PUSH1 0x4 DUP1 CALLDATASIZE SUB DUP2 ADD SWAP1 PUSH2 0x9D1 SWAP2 SWAP1 PUSH2 0x3348 JUMP JUMPDEST PUSH2 0x13D3 JUMP JUMPDEST STOP JUMPDEST CALLVALUE DUP1 ISZERO PUSH2 0x9E4 JUMPI PUSH1 0x0 DUP1 REVERT JUMPDEST POP PUSH2 0x9FF PUSH1 0x4 DUP1 CALLDATASIZE SUB DUP2 ADD SWAP1 PUSH2 0x9FA SWAP2 SWAP1 PUSH2 0x30F4 JUMP JUMPDEST PUSH2 0x1479 JUMP JUMPDEST PUSH1 0x40 MLOAD PUSH2 0xA0C SWAP2 SWAP1 PUSH2 0x314F JUMP JUMPDEST PUSH1 0x40 MLOAD DUP1 SWAP2 SUB SWAP1 RETURN JUMPDEST CALLVALUE DUP1 ISZERO PUSH2 0xA21 JUMPI PUSH1 0x0 DUP1 REVERT JUMPDEST POP PUSH2 0xA3C PUSH1 0x4 DUP1 CALLDATASIZE SUB DUP2 ADD SWAP1 PUSH2 0xA37 SWAP2 SWAP1 PUSH2 0x3298 JUMP JUMPDEST PUSH2 0x1495 JUMP JUMPDEST STOP JUMPDEST CALLVALUE DUP1 ISZERO PUSH2 0xA4A JUMPI PUSH1 0x0 DUP1 REVERT JUMPDEST POP PUSH2 0xA65 PUSH1 0x4 DUP1 CALLDATASIZE SUB DUP2 ADD SWAP1 PUSH2 0xA60 SWAP2 SWAP1 PUSH2 0x3298 JUMP JUMPDEST PUSH2 0x1550 JUMP JUMPDEST PUSH1 0x40 MLOAD PUSH2 0xA72 SWAP2 SWAP1 PUSH2 0x314F JUMP JUMPDEST PUSH1 0x40 MLOAD DUP1 SWAP2 SUB SWAP1 RETURN JUMPDEST CALLVALUE DUP1 ISZERO PUSH2 0xA87 JUMPI PUSH1 0x0 DUP1 REVERT JUMPDEST POP PUSH2 0xA90 PUSH2 0x1570 JUMP JUMPDEST PUSH1 0x40 MLOAD PUSH2 0xA9D SWAP2 SWAP1 PUSH2 0x3179 JUMP JUMPDEST PUSH1 0x40 MLOAD DUP1 SWAP2 SUB SWAP1 RETURN JUMPDEST CALLVALUE DUP1 ISZERO PUSH2 0xAB2 JUMPI PUSH1 0x0 DUP1 REVERT JUMPDEST POP PUSH2 0xABB PUSH2 0x1576 JUMP JUMPDEST PUSH1 0x40 MLOAD PUSH2 0xAC8 SWAP2 SWAP1 PUSH2 0x3179 JUMP JUMPDEST PUSH1 0x40 MLOAD DUP1 SWAP2 SUB SWAP1 RETURN JUMPDEST CALLVALUE DUP1 ISZERO PUSH2 0xADD JUMPI PUSH1 0x0 DUP1 REVERT JUMPDEST POP PUSH2 0xAE6 PUSH2 0x157C JUMP JUMPDEST PUSH1 0x40 MLOAD PUSH2 0xAF3 SWAP2 SWAP1 PUSH2 0x3179 JUMP JUMPDEST PUSH1 0x40 MLOAD DUP1 SWAP2 SUB SWAP1 RETURN JUMPDEST CALLVALUE DUP1 ISZERO PUSH2 0xB08 JUMPI PUSH1 0x0 DUP1 REVERT JUMPDEST POP PUSH2 0xB11 PUSH2 0x1582 JUMP JUMPDEST STOP JUMPDEST CALLVALUE DUP1 ISZERO PUSH2 0xB1F JUMPI PUSH1 0x0 DUP1 REVERT JUMPDEST POP PUSH2 0xB28 PUSH2 0x15D3 JUMP JUMPDEST PUSH1 0x40 MLOAD PUSH2 0xB35 SWAP2 SWAP1 PUSH2 0x332D JUMP JUMPDEST PUSH1 0x40 MLOAD DUP1 SWAP2 SUB SWAP1 RETURN JUMPDEST CALLVALUE DUP1 ISZERO PUSH2 0xB4A JUMPI PUSH1 0x0 DUP1 REVERT JUMPDEST POP PUSH2 0xB65 PUSH1 0x4 DUP1 CALLDATASIZE SUB DUP2 ADD SWAP1 PUSH2 0xB60 SWAP2 SWAP1 PUSH2 0x3069 JUMP JUMPDEST PUSH2 0x15F9 JUMP JUMPDEST STOP JUMPDEST CALLVALUE DUP1 ISZERO PUSH2 0xB73 JUMPI PUSH1 0x0 DUP1 REVERT JUMPDEST POP PUSH2 0xB8E PUSH1 0x4 DUP1 CALLDATASIZE SUB DUP2 ADD SWAP1 PUSH2 0xB89 SWAP2 SWAP1 PUSH2 0x3298 JUMP JUMPDEST PUSH2 0x1672 JUMP JUMPDEST PUSH1 0x40 MLOAD PUSH2 0xB9B SWAP2 SWAP1 PUSH2 0x314F JUMP JUMPDEST PUSH1 0x40 MLOAD DUP1 SWAP2 SUB SWAP1 RETURN JUMPDEST CALLVALUE DUP1 ISZERO PUSH2 0xBB0 JUMPI PUSH1 0x0 DUP1 REVERT JUMPDEST POP PUSH2 0xBCB PUSH1 0x4 DUP1 CALLDATASIZE SUB DUP2 ADD SWAP1 PUSH2 0xBC6 SWAP2 SWAP1 PUSH2 0x3388 JUMP JUMPDEST PUSH2 0x1692 JUMP JUMPDEST PUSH1 0x40 MLOAD PUSH2 0xBD8 SWAP2 SWAP1 PUSH2 0x3179 JUMP JUMPDEST PUSH1 0x40 MLOAD DUP1 SWAP2 SUB SWAP1 RETURN JUMPDEST CALLVALUE DUP1 ISZERO PUSH2 0xBED JUMPI PUSH1 0x0 DUP1 REVERT JUMPDEST POP PUSH2 0xC08 PUSH1 0x4 DUP1 CALLDATASIZE SUB DUP2 ADD SWAP1 PUSH2 0xC03 SWAP2 SWAP1 PUSH2 0x3069 JUMP JUMPDEST PUSH2 0x1719 JUMP JUMPDEST STOP JUMPDEST CALLVALUE DUP1 ISZERO PUSH2 0xC16 JUMPI PUSH1 0x0 DUP1 REVERT JUMPDEST POP PUSH2 0xC31 PUSH1 0x4 DUP1 CALLDATASIZE SUB DUP2 ADD SWAP1 PUSH2 0xC2C SWAP2 SWAP1 PUSH2 0x3298 JUMP JUMPDEST PUSH2 0x1785 JUMP JUMPDEST STOP JUMPDEST CALLVALUE DUP1 ISZERO PUSH2 0xC3F JUMPI PUSH1 0x0 DUP1 REVERT JUMPDEST POP PUSH2 0xC48 PUSH2 0x1808 JUMP JUMPDEST STOP JUMPDEST CALLVALUE DUP1 ISZERO PUSH2 0xC56 JUMPI PUSH1 0x0 DUP1 REVERT JUMPDEST POP PUSH2 0xC5F PUSH2 0x182D JUMP JUMPDEST PUSH1 0x40 MLOAD PUSH2 0xC6C SWAP2 SWAP1 PUSH2 0x3179 JUMP JUMPDEST PUSH1 0x40 MLOAD DUP1 SWAP2 SUB SWAP1 RETURN JUMPDEST PUSH2 0xC7D PUSH2 0x1833 JUMP JUMPDEST PUSH1 0x1 PUSH1 0x8 PUSH1 0x0 PUSH2 0x100 EXP DUP2 SLOAD DUP2 PUSH1 0xFF MUL NOT AND SWAP1 DUP4 ISZERO ISZERO MUL OR SWAP1 SSTORE POP JUMP JUMPDEST PUSH1 0x60 PUSH1 0x40 MLOAD DUP1 PUSH1 0x40 ADD PUSH1 0x40 MSTORE DUP1 PUSH1 0x3 DUP2 MSTORE PUSH1 0x20 ADD PUSH32 0x5553520000000000000000000000000000000000000000000000000000000000 DUP2 MSTORE POP SWAP1 POP SWAP1 JUMP JUMPDEST PUSH2 0xCDF PUSH2 0x1833 JUMP JUMPDEST PUSH2 0xCE7 PUSH2 0xDF5 JUMP JUMPDEST DUP2 GT ISZERO PUSH2 0xD29 JUMPI PUSH1 0x40 MLOAD PUSH32 0x8C379A000000000000000000000000000000000000000000000000000000000 DUP2 MSTORE PUSH1 0x4 ADD PUSH2 0xD20 SWAP1 PUSH2 0x343A JUMP JUMPDEST PUSH1 0x40 MLOAD DUP1 SWAP2 SUB SWAP1 REVERT JUMPDEST DUP1 PUSH1 0x2 DUP2 SWAP1 SSTORE POP POP JUMP JUMPDEST PUSH1 0x0 PUSH2 0xD40 CALLER DUP5 DUP5 PUSH2 0x18B1 JUMP JUMPDEST PUSH1 0x1 SWAP1 POP SWAP3 SWAP2 POP POP JUMP JUMPDEST PUSH2 0xD52 PUSH2 0x1833 JUMP JUMPDEST PUSH2 0x1388 PUSH1 0xE SLOAD PUSH1 0xD SLOAD DUP4 PUSH2 0xD66 SWAP2 SWAP1 PUSH2 0x3489 JUMP JUMPDEST PUSH2 0xD70 SWAP2 SWAP1 PUSH2 0x3489 JUMP JUMPDEST GT ISZERO PUSH2 0xDB1 JUMPI PUSH1 0x40 MLOAD PUSH32 0x8C379A000000000000000000000000000000000000000000000000000000000 DUP2 MSTORE PUSH1 0x4 ADD PUSH2 0xDA8 SWAP1 PUSH2 0x352F JUMP JUMPDEST PUSH1 0x40 MLOAD DUP1 SWAP2 SUB SWAP1 REVERT JUMPDEST DUP1 PUSH1 0xC DUP2 SWAP1 SSTORE POP PUSH2 0xDC0 PUSH2 0x1A7A JUMP JUMPDEST POP JUMP JUMPDEST PUSH1 0xE SLOAD DUP2 JUMP JUMPDEST PUSH1 0xF SLOAD DUP2 JUMP JUMPDEST PUSH1 0x1A PUSH1 0x0 SWAP1 SLOAD SWAP1 PUSH2 0x100 EXP SWAP1 DIV PUSH20 0xFFFFFFFFFFFFFFFFFFFFFFFFFFFFFFFFFFFFFFFF AND DUP2 JUMP JUMPDEST PUSH1 0x0 PUSH1 0x1 SLOAD SWAP1 POP SWAP1 JUMP JUMPDEST PUSH2 0xE07 PUSH2 0x1833 JUMP JUMPDEST PUSH2 0xBB8 PUSH1 0x12 SLOAD DUP3 PUSH2 0xE18 SWAP2 SWAP1 PUSH2 0x3489 JUMP JUMPDEST GT ISZERO PUSH2 0xE59 JUMPI PUSH1 0x40 MLOAD PUSH32 0x8C379A000000000000000000000000000000000000000000000000000000000 DUP2 MSTORE PUSH1 0x4 ADD PUSH2 0xE50 SWAP1 PUSH2 0x35C1 JUMP JUMPDEST PUSH1 0x40 MLOAD DUP1 SWAP2 SUB SWAP1 REVERT JUMPDEST DUP1 PUSH1 0x13 DUP2 SWAP1 SSTORE POP POP JUMP JUMPDEST PUSH1 0x0 DUP1 CALLER SWAP1 POP PUSH2 0xE74 DUP6 DUP3 DUP6 PUSH2 0x1B7F JUMP JUMPDEST PUSH2 0xE7F DUP6 DUP6 DUP6 PUSH2 0x1C0B JUMP JUMPDEST PUSH1 0x1 SWAP2 POP POP SWAP4 SWAP3 POP POP POP JUMP JUMPDEST PUSH2 0xE93 PUSH2 0x1833 JUMP JUMPDEST PUSH2 0x1388 PUSH1 0xE SLOAD PUSH1 0xC SLOAD DUP4 PUSH2 0xEA7 SWAP2 SWAP1 PUSH2 0x3489 JUMP JUMPDEST PUSH2 0xEB1 SWAP2 SWAP1 PUSH2 0x3489 JUMP JUMPDEST GT ISZERO PUSH2 0xEF2 JUMPI PUSH1 0x40 MLOAD PUSH32 0x8C379A000000000000000000000000000000000000000000000000000000000 DUP2 MSTORE PUSH1 0x4 ADD PUSH2 0xEE9 SWAP1 PUSH2 0x3653 JUMP JUMPDEST PUSH1 0x40 MLOAD DUP1 SWAP2 SUB SWAP1 REVERT JUMPDEST DUP1 PUSH1 0xD DUP2 SWAP1 SSTORE POP PUSH2 0xF01 PUSH2 0x1A7A JUMP JUMPDEST POP JUMP JUMPDEST PUSH1 0x0 PUSH1 0x12 SWAP1 POP SWAP1 JUMP JUMPDEST PUSH1 0x14 SLOAD DUP2 JUMP JUMPDEST PUSH2 0xF1B PUSH2 0x1833 JUMP JUMPDEST PUSH1 0x5 PUSH1 0x0 DUP3 PUSH20 0xFFFFFFFFFFFFFFFFFFFFFFFFFFFFFFFFFFFFFFFF AND PUSH20 0xFFFFFFFFFFFFFFFFFFFFFFFFFFFFFFFFFFFFFFFF AND DUP2 MSTORE PUSH1 0x20 ADD SWAP1 DUP2 MSTORE PUSH1 0x20 ADD PUSH1 0x0 KECCAK256 PUSH1 0x0 SWAP1 SLOAD SWAP1 PUSH2 0x100 EXP SWAP1 DIV PUSH1 0xFF AND ISZERO PUSH2 0xFA8 JUMPI PUSH1 0x40 MLOAD PUSH32 0x8C379A000000000000000000000000000000000000000000000000000000000 DUP2 MSTORE PUSH1 0x4 ADD PUSH2 0xF9F SWAP1 PUSH2 0x36BF JUMP JUMPDEST PUSH1 0x40 MLOAD DUP1 SWAP2 SUB SWAP1 REVERT JUMPDEST DUP1 PUSH20 0xFFFFFFFFFFFFFFFFFFFFFFFFFFFFFFFFFFFFFFFF AND PUSH2 0xFC7 PUSH2 0x261C JUMP JUMPDEST PUSH20 0xFFFFFFFFFFFFFFFFFFFFFFFFFFFFFFFFFFFFFFFF AND SUB PUSH2 0x101D JUMPI PUSH1 0x40 MLOAD PUSH32 0x8C379A000000000000000000000000000000000000000000000000000000000 DUP2 MSTORE PUSH1 0x4 ADD PUSH2 0x1014 SWAP1 PUSH2 0x372B JUMP JUMPDEST PUSH1 0x40 MLOAD DUP1 SWAP2 SUB SWAP1 REVERT JUMPDEST PUSH1 0x1 PUSH1 0x5 PUSH1 0x0 DUP4 PUSH20 0xFFFFFFFFFFFFFFFFFFFFFFFFFFFFFFFFFFFFFFFF AND PUSH20 0xFFFFFFFFFFFFFFFFFFFFFFFFFFFFFFFFFFFFFFFF AND DUP2 MSTORE PUSH1 0x20 ADD SWAP1 DUP2 MSTORE PUSH1 0x20 ADD PUSH1 0x0 KECCAK256 PUSH1 0x0 PUSH2 0x100 EXP DUP2 SLOAD DUP2 PUSH1 0xFF MUL NOT AND SWAP1 DUP4 ISZERO ISZERO MUL OR SWAP1 SSTORE POP POP JUMP JUMPDEST PUSH2 0x1080 PUSH2 0x1833 JUMP JUMPDEST DUP1 PUSH1 0x1B PUSH1 0x16 PUSH2 0x100 EXP DUP2 SLOAD DUP2 PUSH1 0xFF MUL NOT AND SWAP1 DUP4 ISZERO ISZERO MUL OR SWAP1 SSTORE POP POP JUMP JUMPDEST PUSH1 0xD SLOAD DUP2 JUMP JUMPDEST PUSH1 0x1B PUSH1 0x0 SWAP1 SLOAD SWAP1 PUSH2 0x100 EXP SWAP1 DIV PUSH20 0xFFFFFFFFFFFFFFFFFFFFFFFFFFFFFFFFFFFFFFFF AND DUP2 JUMP JUMPDEST PUSH1 0x13 SLOAD DUP2 JUMP JUMPDEST PUSH1 0x18 SLOAD DUP2 JUMP JUMPDEST PUSH1 0x17 SLOAD DUP2 JUMP JUMPDEST PUSH2 0x10E3 PUSH2 0x1833 JUMP JUMPDEST PUSH2 0x1388 PUSH1 0x10 SLOAD PUSH1 0xF SLOAD DUP4 PUSH2 0x10F7 SWAP2 SWAP1 PUSH2 0x3489 JUMP JUMPDEST PUSH2 0x1101 SWAP2 SWAP1 PUSH2 0x3489 JUMP JUMPDEST GT ISZERO PUSH2 0x1142 JUMPI PUSH1 0x40 MLOAD PUSH32 0x8C379A000000000000000000000000000000000000000000000000000000000 DUP2 MSTORE PUSH1 0x4 ADD PUSH2 0x1139 SWAP1 PUSH2 0x37BD JUMP JUMPDEST PUSH1 0x40 MLOAD DUP1 SWAP2 SUB SWAP1 REVERT JUMPDEST DUP1 PUSH1 0x11 DUP2 SWAP1 SSTORE POP POP JUMP JUMPDEST PUSH1 0x15 SLOAD DUP2 JUMP JUMPDEST PUSH2 0x115A PUSH2 0x1833 JUMP JUMPDEST DUP1 PUSH1 0x7 PUSH1 0x0 DUP5 PUSH20 0xFFFFFFFFFFFFFFFFFFFFFFFFFFFFFFFFFFFFFFFF AND PUSH20 0xFFFFFFFFFFFFFFFFFFFFFFFFFFFFFFFFFFFFFFFF AND DUP2 MSTORE PUSH1 0x20 ADD SWAP1 DUP2 MSTORE PUSH1 0x20 ADD PUSH1 0x0 KECCAK256 PUSH1 0x0 PUSH2 0x100 EXP DUP2 SLOAD DUP2 PUSH1 0xFF MUL NOT AND SWAP1 DUP4 ISZERO ISZERO MUL OR SWAP1 SSTORE POP POP POP JUMP JUMPDEST PUSH1 0x1B PUSH1 0x16 SWAP1 SLOAD SWAP1 PUSH2 0x100 EXP SWAP1 DIV PUSH1 0xFF AND DUP2 JUMP JUMPDEST PUSH1 0x2 SLOAD DUP2 JUMP JUMPDEST PUSH1 0xC SLOAD DUP2 JUMP JUMPDEST PUSH2 0x11DC PUSH2 0x1833 JUMP JUMPDEST PUSH2 0x1388 PUSH1 0x11 SLOAD PUSH1 0xF SLOAD DUP4 PUSH2 0x11F0 SWAP2 SWAP1 PUSH2 0x3489 JUMP JUMPDEST PUSH2 0x11FA SWAP2 SWAP1 PUSH2 0x3489 JUMP JUMPDEST GT ISZERO PUSH2 0x123B JUMPI PUSH1 0x40 MLOAD PUSH32 0x8C379A000000000000000000000000000000000000000000000000000000000 DUP2 MSTORE PUSH1 0x4 ADD PUSH2 0x1232 SWAP1 PUSH2 0x384F JUMP JUMPDEST PUSH1 0x40 MLOAD DUP1 SWAP2 SUB SWAP1 REVERT JUMPDEST DUP1 PUSH1 0x10 DUP2 SWAP1 SSTORE POP PUSH2 0x124A PUSH2 0x1A7A JUMP JUMPDEST POP JUMP JUMPDEST PUSH1 0x1B PUSH1 0x15 SWAP1 SLOAD SWAP1 PUSH2 0x100 EXP SWAP1 DIV PUSH1 0xFF AND DUP2 JUMP JUMPDEST PUSH1 0x0 PUSH1 0x3 PUSH1 0x0 DUP4 PUSH20 0xFFFFFFFFFFFFFFFFFFFFFFFFFFFFFFFFFFFFFFFF AND PUSH20 0xFFFFFFFFFFFFFFFFFFFFFFFFFFFFFFFFFFFFFFFF AND DUP2 MSTORE PUSH1 0x20 ADD SWAP1 DUP2 MSTORE PUSH1 0x20 ADD PUSH1 0x0 KECCAK256 SLOAD SWAP1 POP SWAP2 SWAP1 POP JUMP JUMPDEST PUSH2 0x12B1 PUSH2 0x1833 JUMP JUMPDEST PUSH2 0x12BB PUSH1 0x0 PUSH2 0x2624 JUMP JUMPDEST JUMP JUMPDEST PUSH1 0x7 PUSH1 0x20 MSTORE DUP1 PUSH1 0x0 MSTORE PUSH1 0x40 PUSH1 0x0 KECCAK256 PUSH1 0x0 SWAP2 POP SLOAD SWAP1 PUSH2 0x100 EXP SWAP1 DIV PUSH1 0xFF AND DUP2 JUMP JUMPDEST PUSH1 0x8 PUSH1 0x0 SWAP1 SLOAD SWAP1 PUSH2 0x100 EXP SWAP1 DIV PUSH1 0xFF AND DUP2 JUMP JUMPDEST PUSH1 0x19 SLOAD DUP2 JUMP JUMPDEST PUSH2 0x12FE PUSH2 0x1833 JUMP JUMPDEST PUSH2 0x1388 PUSH1 0xD SLOAD PUSH1 0xC SLOAD DUP4 PUSH2 0x1312 SWAP2 SWAP1 PUSH2 0x3489 JUMP JUMPDEST PUSH2 0x131C SWAP2 SWAP1 PUSH2 0x3489 JUMP JUMPDEST GT ISZERO PUSH2 0x135D JUMPI PUSH1 0x40 MLOAD PUSH32 0x8C379A000000000000000000000000000000000000000000000000000000000 DUP2 MSTORE PUSH1 0x4 ADD PUSH2 0x1354 SWAP1 PUSH2 0x3653 JUMP JUMPDEST PUSH1 0x40 MLOAD DUP1 SWAP2 SUB SWAP1 REVERT JUMPDEST DUP1 PUSH1 0xE DUP2 SWAP1 SSTORE POP POP JUMP JUMPDEST PUSH1 0x10 SLOAD DUP2 JUMP JUMPDEST PUSH1 0x0 DUP1 PUSH1 0x0 SWAP1 SLOAD SWAP1 PUSH2 0x100 EXP SWAP1 DIV PUSH20 0xFFFFFFFFFFFFFFFFFFFFFFFFFFFFFFFFFFFFFFFF AND SWAP1 POP SWAP1 JUMP JUMPDEST PUSH1 0x60 PUSH1 0x40 MLOAD DUP1 PUSH1 0x40 ADD PUSH1 0x40 MSTORE DUP1 PUSH1 0x3 DUP2 MSTORE PUSH1 0x20 ADD PUSH32 0x5553520000000000000000000000000000000000000000000000000000000000 DUP2 MSTORE POP SWAP1 POP SWAP1 JUMP JUMPDEST PUSH2 0x13DB PUSH2 0x1833 JUMP JUMPDEST PUSH1 0x1B PUSH1 0x0 SWAP1 SLOAD SWAP1 PUSH2 0x100 EXP SWAP1 DIV PUSH20 0xFFFFFFFFFFFFFFFFFFFFFFFFFFFFFFFFFFFFFFFF AND PUSH20 0xFFFFFFFFFFFFFFFFFFFFFFFFFFFFFFFFFFFFFFFF AND DUP3 PUSH20 0xFFFFFFFFFFFFFFFFFFFFFFFFFFFFFFFFFFFFFFFF AND SUB PUSH2 0x146B JUMPI PUSH1 0x40 MLOAD PUSH32 0x8C379A000000000000000000000000000000000000000000000000000000000 DUP2 MSTORE PUSH1 0x4 ADD PUSH2 0x1462 SWAP1 PUSH2 0x38E1 JUMP JUMPDEST PUSH1 0x40 MLOAD DUP1 SWAP2 SUB SWAP1 REVERT JUMPDEST PUSH2 0x1475 DUP3 DUP3 PUSH2 0x26E8 JUMP JUMPDEST POP POP JUMP JUMPDEST PUSH1 0x0 DUP1 CALLER SWAP1 POP PUSH2 0x148A DUP2 DUP6 DUP6 PUSH2 0x1C0B JUMP JUMPDEST PUSH1 0x1 SWAP2 POP POP SWAP3 SWAP2 POP POP JUMP JUMPDEST PUSH2 0x149D PUSH2 0x1833 JUMP JUMPDEST PUSH1 0x0 PUSH20 0xFFFFFFFFFFFFFFFFFFFFFFFFFFFFFFFFFFFFFFFF AND DUP2 PUSH20 0xFFFFFFFFFFFFFFFFFFFFFFFFFFFFFFFFFFFFFFFF AND SUB PUSH2 0x150C JUMPI PUSH1 0x40 MLOAD PUSH32 0x8C379A000000000000000000000000000000000000000000000000000000000 DUP2 MSTORE PUSH1 0x4 ADD PUSH2 0x1503 SWAP1 PUSH2 0x3973 JUMP JUMPDEST PUSH1 0x40 MLOAD DUP1 SWAP2 SUB SWAP1 REVERT JUMPDEST DUP1 PUSH1 0xB PUSH1 0x0 PUSH2 0x100 EXP DUP2 SLOAD DUP2 PUSH20 0xFFFFFFFFFFFFFFFFFFFFFFFFFFFFFFFFFFFFFFFF MUL NOT AND SWAP1 DUP4 PUSH20 0xFFFFFFFFFFFFFFFFFFFFFFFFFFFFFFFFFFFFFFFF AND MUL OR SWAP1 SSTORE POP POP JUMP JUMPDEST PUSH1 0x6 PUSH1 0x20 MSTORE DUP1 PUSH1 0x0 MSTORE PUSH1 0x40 PUSH1 0x0 KECCAK256 PUSH1 0x0 SWAP2 POP SLOAD SWAP1 PUSH2 0x100 EXP SWAP1 DIV PUSH1 0xFF AND DUP2 JUMP JUMPDEST PUSH1 0x11 SLOAD DUP2 JUMP JUMPDEST PUSH1 0xA SLOAD DUP2 JUMP JUMPDEST PUSH1 0x16 SLOAD DUP2 JUMP JUMPDEST PUSH2 0x158A PUSH2 0x1833 JUMP JUMPDEST CALLER PUSH20 0xFFFFFFFFFFFFFFFFFFFFFFFFFFFFFFFFFFFFFFFF AND PUSH2 0x8FC SELFBALANCE SWAP1 DUP2 ISZERO MUL SWAP1 PUSH1 0x40 MLOAD PUSH1 0x0 PUSH1 0x40 MLOAD DUP1 DUP4 SUB DUP2 DUP6 DUP9 DUP9 CALL SWAP4 POP POP POP POP ISZERO DUP1 ISZERO PUSH2 0x15D0 JUMPI RETURNDATASIZE PUSH1 0x0 DUP1 RETURNDATACOPY RETURNDATASIZE PUSH1 0x0 REVERT JUMPDEST POP JUMP JUMPDEST PUSH1 0xB PUSH1 0x0 SWAP1 SLOAD SWAP1 PUSH2 0x100 EXP SWAP1 DIV PUSH20 0xFFFFFFFFFFFFFFFFFFFFFFFFFFFFFFFFFFFFFFFF AND DUP2 JUMP JUMPDEST PUSH2 0x1601 PUSH2 0x1833 JUMP JUMPDEST PUSH2 0x1388 PUSH1 0x11 SLOAD PUSH1 0x10 SLOAD DUP4 PUSH2 0x1615 SWAP2 SWAP1 PUSH2 0x3489 JUMP JUMPDEST PUSH2 0x161F SWAP2 SWAP1 PUSH2 0x3489 JUMP JUMPDEST GT ISZERO PUSH2 0x1660 JUMPI PUSH1 0x40 MLOAD PUSH32 0x8C379A000000000000000000000000000000000000000000000000000000000 DUP2 MSTORE PUSH1 0x4 ADD PUSH2 0x1657 SWAP1 PUSH2 0x384F JUMP JUMPDEST PUSH1 0x40 MLOAD DUP1 SWAP2 SUB SWAP1 REVERT JUMPDEST DUP1 PUSH1 0xF DUP2 SWAP1 SSTORE POP PUSH2 0x166F PUSH2 0x1A7A JUMP JUMPDEST POP JUMP JUMPDEST PUSH1 0x5 PUSH1 0x20 MSTORE DUP1 PUSH1 0x0 MSTORE PUSH1 0x40 PUSH1 0x0 KECCAK256 PUSH1 0x0 SWAP2 POP SLOAD SWAP1 PUSH2 0x100 EXP SWAP1 DIV PUSH1 0xFF AND DUP2 JUMP JUMPDEST PUSH1 0x0 PUSH1 0x4 PUSH1 0x0 DUP5 PUSH20 0xFFFFFFFFFFFFFFFFFFFFFFFFFFFFFFFFFFFFFFFF AND PUSH20 0xFFFFFFFFFFFFFFFFFFFFFFFFFFFFFFFFFFFFFFFF AND DUP2 MSTORE PUSH1 0x20 ADD SWAP1 DUP2 MSTORE PUSH1 0x20 ADD PUSH1 0x0 KECCAK256 PUSH1 0x0 DUP4 PUSH20 0xFFFFFFFFFFFFFFFFFFFFFFFFFFFFFFFFFFFFFFFF AND PUSH20 0xFFFFFFFFFFFFFFFFFFFFFFFFFFFFFFFFFFFFFFFF AND DUP2 MSTORE PUSH1 0x20 ADD SWAP1 DUP2 MSTORE PUSH1 0x20 ADD PUSH1 0x0 KECCAK256 SLOAD SWAP1 POP SWAP3 SWAP2 POP POP JUMP JUMPDEST PUSH2 0x1721 PUSH2 0x1833 JUMP JUMPDEST PUSH2 0xBB8 PUSH1 0x13 SLOAD DUP3 PUSH2 0x1732 SWAP2 SWAP1 PUSH2 0x3489 JUMP JUMPDEST GT ISZERO PUSH2 0x1773 JUMPI PUSH1 0x40 MLOAD PUSH32 0x8C379A000000000000000000000000000000000000000000000000000000000 DUP2 MSTORE PUSH1 0x4 ADD PUSH2 0x176A SWAP1 PUSH2 0x35C1 JUMP JUMPDEST PUSH1 0x40 MLOAD DUP1 SWAP2 SUB SWAP1 REVERT JUMPDEST DUP1 PUSH1 0x12 DUP2 SWAP1 SSTORE POP PUSH2 0x1782 PUSH2 0x1A7A JUMP JUMPDEST POP JUMP JUMPDEST PUSH2 0x178D PUSH2 0x1833 JUMP JUMPDEST PUSH1 0x0 PUSH20 0xFFFFFFFFFFFFFFFFFFFFFFFFFFFFFFFFFFFFFFFF AND DUP2 PUSH20 0xFFFFFFFFFFFFFFFFFFFFFFFFFFFFFFFFFFFFFFFF AND SUB PUSH2 0x17FC JUMPI PUSH1 0x40 MLOAD PUSH32 0x8C379A000000000000000000000000000000000000000000000000000000000 DUP2 MSTORE PUSH1 0x4 ADD PUSH2 0x17F3 SWAP1 PUSH2 0x3A05 JUMP JUMPDEST PUSH1 0x40 MLOAD DUP1 SWAP2 SUB SWAP1 REVERT JUMPDEST PUSH2 0x1805 DUP2 PUSH2 0x2624 JUMP JUMPDEST POP JUMP JUMPDEST PUSH2 0x1810 PUSH2 0x1833 JUMP JUMPDEST PUSH1 0x0 PUSH1 0x8 PUSH1 0x0 PUSH2 0x100 EXP DUP2 SLOAD DUP2 PUSH1 0xFF MUL NOT AND SWAP1 DUP4 ISZERO ISZERO MUL OR SWAP1 SSTORE POP JUMP JUMPDEST PUSH1 0x12 SLOAD DUP2 JUMP JUMPDEST PUSH2 0x183B PUSH2 0x261C JUMP JUMPDEST PUSH20 0xFFFFFFFFFFFFFFFFFFFFFFFFFFFFFFFFFFFFFFFF AND PUSH2 0x1859 PUSH2 0x136D JUMP JUMPDEST PUSH20 0xFFFFFFFFFFFFFFFFFFFFFFFFFFFFFFFFFFFFFFFF AND EQ PUSH2 0x18AF JUMPI PUSH1 0x40 MLOAD PUSH32 0x8C379A000000000000000000000000000000000000000000000000000000000 DUP2 MSTORE PUSH1 0x4 ADD PUSH2 0x18A6 SWAP1 PUSH2 0x3A71 JUMP JUMPDEST PUSH1 0x40 MLOAD DUP1 SWAP2 SUB SWAP1 REVERT JUMPDEST JUMP JUMPDEST PUSH1 0x0 PUSH20 0xFFFFFFFFFFFFFFFFFFFFFFFFFFFFFFFFFFFFFFFF AND DUP4 PUSH20 0xFFFFFFFFFFFFFFFFFFFFFFFFFFFFFFFFFFFFFFFF AND SUB PUSH2 0x1920 JUMPI PUSH1 0x40 MLOAD PUSH32 0x8C379A000000000000000000000000000000000000000000000000000000000 DUP2 MSTORE PUSH1 0x4 ADD PUSH2 0x1917 SWAP1 PUSH2 0x3B03 JUMP JUMPDEST PUSH1 0x40 MLOAD DUP1 SWAP2 SUB SWAP1 REVERT JUMPDEST PUSH1 0x0 PUSH20 0xFFFFFFFFFFFFFFFFFFFFFFFFFFFFFFFFFFFFFFFF AND DUP3 PUSH20 0xFFFFFFFFFFFFFFFFFFFFFFFFFFFFFFFFFFFFFFFF AND SUB PUSH2 0x198F JUMPI PUSH1 0x40 MLOAD PUSH32 0x8C379A000000000000000000000000000000000000000000000000000000000 DUP2 MSTORE PUSH1 0x4 ADD PUSH2 0x1986 SWAP1 PUSH2 0x3B95 JUMP JUMPDEST PUSH1 0x40 MLOAD DUP1 SWAP2 SUB SWAP1 REVERT JUMPDEST DUP1 PUSH1 0x4 PUSH1 0x0 DUP6 PUSH20 0xFFFFFFFFFFFFFFFFFFFFFFFFFFFFFFFFFFFFFFFF AND PUSH20 0xFFFFFFFFFFFFFFFFFFFFFFFFFFFFFFFFFFFFFFFF AND DUP2 MSTORE PUSH1 0x20 ADD SWAP1 DUP2 MSTORE PUSH1 0x20 ADD PUSH1 0x0 KECCAK256 PUSH1 0x0 DUP5 PUSH20 0xFFFFFFFFFFFFFFFFFFFFFFFFFFFFFFFFFFFFFFFF AND PUSH20 0xFFFFFFFFFFFFFFFFFFFFFFFFFFFFFFFFFFFFFFFF AND DUP2 MSTORE PUSH1 0x20 ADD SWAP1 DUP2 MSTORE PUSH1 0x20 ADD PUSH1 0x0 KECCAK256 DUP2 SWAP1 SSTORE POP DUP2 PUSH20 0xFFFFFFFFFFFFFFFFFFFFFFFFFFFFFFFFFFFFFFFF AND DUP4 PUSH20 0xFFFFFFFFFFFFFFFFFFFFFFFFFFFFFFFFFFFFFFFF AND PUSH32 0x8C5BE1E5EBEC7D5BD14F71427D1E84F3DD0314C0F7B2291E5B200AC8C7C3B925 DUP4 PUSH1 0x40 MLOAD PUSH2 0x1A6D SWAP2 SWAP1 PUSH2 0x3179 JUMP JUMPDEST PUSH1 0x40 MLOAD DUP1 SWAP2 SUB SWAP1 LOG3 POP POP POP JUMP JUMPDEST PUSH1 0x0 PUSH1 0xD SLOAD PUSH1 0xC SLOAD PUSH2 0x1A8C SWAP2 SWAP1 PUSH2 0x3489 JUMP JUMPDEST SWAP1 POP PUSH1 0x0 PUSH1 0x10 SLOAD PUSH1 0xF SLOAD PUSH2 0x1AA0 SWAP2 SWAP1 PUSH2 0x3489 JUMP JUMPDEST SWAP1 POP PUSH1 0x0 PUSH1 0x12 SLOAD SWAP1 POP DUP1 DUP3 DUP5 PUSH2 0x1AB6 SWAP2 SWAP1 PUSH2 0x3489 JUMP JUMPDEST PUSH2 0x1AC0 SWAP2 SWAP1 PUSH2 0x3489 JUMP JUMPDEST PUSH1 0x19 DUP2 SWAP1 SSTORE POP PUSH1 0x19 SLOAD PUSH3 0x186A0 PUSH1 0xC SLOAD PUSH2 0x1ADA SWAP2 SWAP1 PUSH2 0x3BB5 JUMP JUMPDEST PUSH2 0x1AE4 SWAP2 SWAP1 PUSH2 0x3C26 JUMP JUMPDEST PUSH1 0x14 DUP2 SWAP1 SSTORE POP PUSH1 0x19 SLOAD PUSH3 0x186A0 PUSH1 0xD SLOAD PUSH2 0x1AFE SWAP2 SWAP1 PUSH2 0x3BB5 JUMP JUMPDEST PUSH2 0x1B08 SWAP2 SWAP1 PUSH2 0x3C26 JUMP JUMPDEST PUSH1 0x15 DUP2 SWAP1 SSTORE POP PUSH1 0x19 SLOAD PUSH3 0x186A0 PUSH1 0xF SLOAD PUSH2 0x1B22 SWAP2 SWAP1 PUSH2 0x3BB5 JUMP JUMPDEST PUSH2 0x1B2C SWAP2 SWAP1 PUSH2 0x3C26 JUMP JUMPDEST PUSH1 0x16 DUP2 SWAP1 SSTORE POP PUSH1 0x19 SLOAD PUSH3 0x186A0 PUSH1 0x10 SLOAD PUSH2 0x1B46 SWAP2 SWAP1 PUSH2 0x3BB5 JUMP JUMPDEST PUSH2 0x1B50 SWAP2 SWAP1 PUSH2 0x3C26 JUMP JUMPDEST PUSH1 0x17 DUP2 SWAP1 SSTORE POP PUSH1 0x19 SLOAD PUSH3 0x186A0 PUSH1 0x12 SLOAD PUSH2 0x1B6A SWAP2 SWAP1 PUSH2 0x3BB5 JUMP JUMPDEST PUSH2 0x1B74 SWAP2 SWAP1 PUSH2 0x3C26 JUMP JUMPDEST PUSH1 0x18 DUP2 SWAP1 SSTORE POP POP POP POP JUMP JUMPDEST PUSH1 0x0 PUSH2 0x1B8B DUP5 DUP5 PUSH2 0x1692 JUMP JUMPDEST SWAP1 POP PUSH32 0xFFFFFFFFFFFFFFFFFFFFFFFFFFFFFFFFFFFFFFFFFFFFFFFFFFFFFFFFFFFFFFFF DUP2 EQ PUSH2 0x1C05 JUMPI DUP2 DUP2 LT ISZERO PUSH2 0x1BF7 JUMPI PUSH1 0x40 MLOAD PUSH32 0x8C379A000000000000000000000000000000000000000000000000000000000 DUP2 MSTORE PUSH1 0x4 ADD PUSH2 0x1BEE SWAP1 PUSH2 0x3CA3 JUMP JUMPDEST PUSH1 0x40 MLOAD DUP1 SWAP2 SUB SWAP1 REVERT JUMPDEST PUSH2 0x1C04 DUP5 DUP5 DUP5 DUP5 SUB PUSH2 0x18B1 JUMP JUMPDEST JUMPDEST POP POP POP POP JUMP JUMPDEST PUSH1 0x0 PUSH20 0xFFFFFFFFFFFFFFFFFFFFFFFFFFFFFFFFFFFFFFFF AND DUP4 PUSH20 0xFFFFFFFFFFFFFFFFFFFFFFFFFFFFFFFFFFFFFFFF AND SUB PUSH2 0x1C7A JUMPI PUSH1 0x40 MLOAD PUSH32 0x8C379A000000000000000000000000000000000000000000000000000000000 DUP2 MSTORE PUSH1 0x4 ADD PUSH2 0x1C71 SWAP1 PUSH2 0x3D35 JUMP JUMPDEST PUSH1 0x40 MLOAD DUP1 SWAP2 SUB SWAP1 REVERT JUMPDEST PUSH1 0x0 PUSH20 0xFFFFFFFFFFFFFFFFFFFFFFFFFFFFFFFFFFFFFFFF AND DUP3 PUSH20 0xFFFFFFFFFFFFFFFFFFFFFFFFFFFFFFFFFFFFFFFF AND SUB PUSH2 0x1CE9 JUMPI PUSH1 0x40 MLOAD PUSH32 0x8C379A000000000000000000000000000000000000000000000000000000000 DUP2 MSTORE PUSH1 0x4 ADD PUSH2 0x1CE0 SWAP1 PUSH2 0x3DC7 JUMP JUMPDEST PUSH1 0x40 MLOAD DUP1 SWAP2 SUB SWAP1 REVERT JUMPDEST PUSH1 0x0 DUP2 GT PUSH2 0x1D2C JUMPI PUSH1 0x40 MLOAD PUSH32 0x8C379A000000000000000000000000000000000000000000000000000000000 DUP2 MSTORE PUSH1 0x4 ADD PUSH2 0x1D23 SWAP1 PUSH2 0x3E59 JUMP JUMPDEST PUSH1 0x40 MLOAD DUP1 SWAP2 SUB SWAP1 REVERT JUMPDEST PUSH1 0x5 PUSH1 0x0 DUP5 PUSH20 0xFFFFFFFFFFFFFFFFFFFFFFFFFFFFFFFFFFFFFFFF AND PUSH20 0xFFFFFFFFFFFFFFFFFFFFFFFFFFFFFFFFFFFFFFFF AND DUP2 MSTORE PUSH1 0x20 ADD SWAP1 DUP2 MSTORE PUSH1 0x20 ADD PUSH1 0x0 KECCAK256 PUSH1 0x0 SWAP1 SLOAD SWAP1 PUSH2 0x100 EXP SWAP1 DIV PUSH1 0xFF AND ISZERO PUSH2 0x1DB9 JUMPI PUSH1 0x40 MLOAD PUSH32 0x8C379A000000000000000000000000000000000000000000000000000000000 DUP2 MSTORE PUSH1 0x4 ADD PUSH2 0x1DB0 SWAP1 PUSH2 0x3EC5 JUMP JUMPDEST PUSH1 0x40 MLOAD DUP1 SWAP2 SUB SWAP1 REVERT JUMPDEST PUSH1 0x5 PUSH1 0x0 DUP4 PUSH20 0xFFFFFFFFFFFFFFFFFFFFFFFFFFFFFFFFFFFFFFFF AND PUSH20 0xFFFFFFFFFFFFFFFFFFFFFFFFFFFFFFFFFFFFFFFF AND DUP2 MSTORE PUSH1 0x20 ADD SWAP1 DUP2 MSTORE PUSH1 0x20 ADD PUSH1 0x0 KECCAK256 PUSH1 0x0 SWAP1 SLOAD SWAP1 PUSH2 0x100 EXP SWAP1 DIV PUSH1 0xFF AND ISZERO PUSH2 0x1E46 JUMPI PUSH1 0x40 MLOAD PUSH32 0x8C379A000000000000000000000000000000000000000000000000000000000 DUP2 MSTORE PUSH1 0x4 ADD PUSH2 0x1E3D SWAP1 PUSH2 0x3F31 JUMP JUMPDEST PUSH1 0x40 MLOAD DUP1 SWAP2 SUB SWAP1 REVERT JUMPDEST PUSH2 0x1E4E PUSH2 0x136D JUMP JUMPDEST PUSH20 0xFFFFFFFFFFFFFFFFFFFFFFFFFFFFFFFFFFFFFFFF AND DUP4 PUSH20 0xFFFFFFFFFFFFFFFFFFFFFFFFFFFFFFFFFFFFFFFF AND EQ DUP1 PUSH2 0x1EB9 JUMPI POP PUSH2 0x1E8A PUSH2 0x136D JUMP JUMPDEST PUSH20 0xFFFFFFFFFFFFFFFFFFFFFFFFFFFFFFFFFFFFFFFF AND DUP3 PUSH20 0xFFFFFFFFFFFFFFFFFFFFFFFFFFFFFFFFFFFFFFFF AND EQ JUMPDEST DUP1 PUSH2 0x1EEF JUMPI POP ADDRESS PUSH20 0xFFFFFFFFFFFFFFFFFFFFFFFFFFFFFFFFFFFFFFFF AND DUP4 PUSH20 0xFFFFFFFFFFFFFFFFFFFFFFFFFFFFFFFFFFFFFFFF AND EQ JUMPDEST ISZERO PUSH2 0x1F70 JUMPI PUSH1 0x0 PUSH1 0x9 SLOAD EQ DUP1 ISZERO PUSH2 0x1F53 JUMPI POP PUSH1 0x1B PUSH1 0x0 SWAP1 SLOAD SWAP1 PUSH2 0x100 EXP SWAP1 DIV PUSH20 0xFFFFFFFFFFFFFFFFFFFFFFFFFFFFFFFFFFFFFFFF AND PUSH20 0xFFFFFFFFFFFFFFFFFFFFFFFFFFFFFFFFFFFFFFFF AND DUP3 PUSH20 0xFFFFFFFFFFFFFFFFFFFFFFFFFFFFFFFFFFFFFFFF AND EQ JUMPDEST ISZERO PUSH2 0x1F60 JUMPI NUMBER PUSH1 0x9 DUP2 SWAP1 SSTORE POP JUMPDEST PUSH2 0x1F6B DUP4 DUP4 DUP4 PUSH2 0x2743 JUMP JUMPDEST PUSH2 0x2617 JUMP JUMPDEST PUSH1 0x8 PUSH1 0x0 SWAP1 SLOAD SWAP1 PUSH2 0x100 EXP SWAP1 DIV PUSH1 0xFF AND PUSH2 0x1FBF JUMPI PUSH1 0x40 MLOAD PUSH32 0x8C379A000000000000000000000000000000000000000000000000000000000 DUP2 MSTORE PUSH1 0x4 ADD PUSH2 0x1FB6 SWAP1 PUSH2 0x3F9D JUMP JUMPDEST PUSH1 0x40 MLOAD DUP1 SWAP2 SUB SWAP1 REVERT JUMPDEST PUSH1 0xA SLOAD PUSH1 0x9 SLOAD PUSH2 0x1FCF SWAP2 SWAP1 PUSH2 0x3489 JUMP JUMPDEST NUMBER GT PUSH2 0x2032 JUMPI PUSH1 0x1 PUSH1 0x5 PUSH1 0x0 DUP5 PUSH20 0xFFFFFFFFFFFFFFFFFFFFFFFFFFFFFFFFFFFFFFFF AND PUSH20 0xFFFFFFFFFFFFFFFFFFFFFFFFFFFFFFFFFFFFFFFF AND DUP2 MSTORE PUSH1 0x20 ADD SWAP1 DUP2 MSTORE PUSH1 0x20 ADD PUSH1 0x0 KECCAK256 PUSH1 0x0 PUSH2 0x100 EXP DUP2 SLOAD DUP2 PUSH1 0xFF MUL NOT AND SWAP1 DUP4 ISZERO ISZERO MUL OR SWAP1 SSTORE POP PUSH2 0x2617 JUMP JUMPDEST PUSH1 0x0 PUSH1 0x1B PUSH1 0x0 SWAP1 SLOAD SWAP1 PUSH2 0x100 EXP SWAP1 DIV PUSH20 0xFFFFFFFFFFFFFFFFFFFFFFFFFFFFFFFFFFFFFFFF AND PUSH20 0xFFFFFFFFFFFFFFFFFFFFFFFFFFFFFFFFFFFFFFFF AND DUP5 PUSH20 0xFFFFFFFFFFFFFFFFFFFFFFFFFFFFFFFFFFFFFFFF AND EQ SWAP1 POP PUSH1 0x0 PUSH1 0x1B PUSH1 0x0 SWAP1 SLOAD SWAP1 PUSH2 0x100 EXP SWAP1 DIV PUSH20 0xFFFFFFFFFFFFFFFFFFFFFFFFFFFFFFFFFFFFFFFF AND PUSH20 0xFFFFFFFFFFFFFFFFFFFFFFFFFFFFFFFFFFFFFFFF AND DUP5 PUSH20 0xFFFFFFFFFFFFFFFFFFFFFFFFFFFFFFFFFFFFFFFF AND EQ SWAP1 POP PUSH1 0x0 DUP1 PUSH1 0x0 DUP1 PUSH2 0x20EB ADDRESS PUSH2 0x1260 JUMP JUMPDEST SWAP1 POP PUSH1 0x0 PUSH1 0x2 SLOAD DUP3 LT ISZERO SWAP1 POP DUP1 DUP1 ISZERO PUSH2 0x2110 JUMPI POP PUSH1 0x1B PUSH1 0x15 SWAP1 SLOAD SWAP1 PUSH2 0x100 EXP SWAP1 DIV PUSH1 0xFF AND JUMPDEST DUP1 ISZERO PUSH2 0x2129 JUMPI POP PUSH1 0x1B PUSH1 0x14 SWAP1 SLOAD SWAP1 PUSH2 0x100 EXP SWAP1 DIV PUSH1 0xFF AND ISZERO JUMPDEST DUP1 ISZERO PUSH2 0x217F JUMPI POP PUSH1 0x6 PUSH1 0x0 DUP12 PUSH20 0xFFFFFFFFFFFFFFFFFFFFFFFFFFFFFFFFFFFFFFFF AND PUSH20 0xFFFFFFFFFFFFFFFFFFFFFFFFFFFFFFFFFFFFFFFF AND DUP2 MSTORE PUSH1 0x20 ADD SWAP1 DUP2 MSTORE PUSH1 0x20 ADD PUSH1 0x0 KECCAK256 PUSH1 0x0 SWAP1 SLOAD SWAP1 PUSH2 0x100 EXP SWAP1 DIV PUSH1 0xFF AND ISZERO JUMPDEST DUP1 ISZERO PUSH2 0x21D5 JUMPI POP PUSH1 0x7 PUSH1 0x0 DUP12 PUSH20 0xFFFFFFFFFFFFFFFFFFFFFFFFFFFFFFFFFFFFFFFF AND PUSH20 0xFFFFFFFFFFFFFFFFFFFFFFFFFFFFFFFFFFFFFFFF AND DUP2 MSTORE PUSH1 0x20 ADD SWAP1 DUP2 MSTORE PUSH1 0x20 ADD PUSH1 0x0 KECCAK256 PUSH1 0x0 SWAP1 SLOAD SWAP1 PUSH2 0x100 EXP SWAP1 DIV PUSH1 0xFF AND ISZERO JUMPDEST DUP1 ISZERO PUSH2 0x222B JUMPI POP PUSH1 0x7 PUSH1 0x0 DUP11 PUSH20 0xFFFFFFFFFFFFFFFFFFFFFFFFFFFFFFFFFFFFFFFF AND PUSH20 0xFFFFFFFFFFFFFFFFFFFFFFFFFFFFFFFFFFFFFFFF AND DUP2 MSTORE PUSH1 0x20 ADD SWAP1 DUP2 MSTORE PUSH1 0x20 ADD PUSH1 0x0 KECCAK256 PUSH1 0x0 SWAP1 SLOAD SWAP1 PUSH2 0x100 EXP SWAP1 DIV PUSH1 0xFF AND ISZERO JUMPDEST ISZERO PUSH2 0x226F JUMPI PUSH1 0x1 PUSH1 0x1B PUSH1 0x14 PUSH2 0x100 EXP DUP2 SLOAD DUP2 PUSH1 0xFF MUL NOT AND SWAP1 DUP4 ISZERO ISZERO MUL OR SWAP1 SSTORE POP PUSH2 0x2253 PUSH2 0x28C8 JUMP JUMPDEST PUSH1 0x0 PUSH1 0x1B PUSH1 0x14 PUSH2 0x100 EXP DUP2 SLOAD DUP2 PUSH1 0xFF MUL NOT AND SWAP1 DUP4 ISZERO ISZERO MUL OR SWAP1 SSTORE POP JUMPDEST PUSH1 0x0 PUSH1 0x1B PUSH1 0x14 SWAP1 SLOAD SWAP1 PUSH2 0x100 EXP SWAP1 DIV PUSH1 0xFF AND ISZERO SWAP1 POP PUSH1 0x7 PUSH1 0x0 DUP13 PUSH20 0xFFFFFFFFFFFFFFFFFFFFFFFFFFFFFFFFFFFFFFFF AND PUSH20 0xFFFFFFFFFFFFFFFFFFFFFFFFFFFFFFFFFFFFFFFF AND DUP2 MSTORE PUSH1 0x20 ADD SWAP1 DUP2 MSTORE PUSH1 0x20 ADD PUSH1 0x0 KECCAK256 PUSH1 0x0 SWAP1 SLOAD SWAP1 PUSH2 0x100 EXP SWAP1 DIV PUSH1 0xFF AND DUP1 PUSH2 0x2325 JUMPI POP PUSH1 0x7 PUSH1 0x0 DUP12 PUSH20 0xFFFFFFFFFFFFFFFFFFFFFFFFFFFFFFFFFFFFFFFF AND PUSH20 0xFFFFFFFFFFFFFFFFFFFFFFFFFFFFFFFFFFFFFFFF AND DUP2 MSTORE PUSH1 0x20 ADD SWAP1 DUP2 MSTORE PUSH1 0x20 ADD PUSH1 0x0 KECCAK256 PUSH1 0x0 SWAP1 SLOAD SWAP1 PUSH2 0x100 EXP SWAP1 DIV PUSH1 0xFF AND JUMPDEST ISZERO PUSH2 0x232F JUMPI PUSH1 0x0 SWAP1 POP JUMPDEST PUSH1 0x0 DUP2 ISZERO PUSH2 0x2602 JUMPI PUSH1 0x6 PUSH1 0x0 DUP14 PUSH20 0xFFFFFFFFFFFFFFFFFFFFFFFFFFFFFFFFFFFFFFFF AND PUSH20 0xFFFFFFFFFFFFFFFFFFFFFFFFFFFFFFFFFFFFFFFF AND DUP2 MSTORE PUSH1 0x20 ADD SWAP1 DUP2 MSTORE PUSH1 0x20 ADD PUSH1 0x0 KECCAK256 PUSH1 0x0 SWAP1 SLOAD SWAP1 PUSH2 0x100 EXP SWAP1 DIV PUSH1 0xFF AND DUP1 ISZERO PUSH2 0x238D JUMPI POP DUP9 JUMPDEST ISZERO PUSH2 0x2461 JUMPI PUSH1 0x7 PUSH1 0x0 DUP13 PUSH20 0xFFFFFFFFFFFFFFFFFFFFFFFFFFFFFFFFFFFFFFFF AND PUSH20 0xFFFFFFFFFFFFFFFFFFFFFFFFFFFFFFFFFFFFFFFF AND DUP2 MSTORE PUSH1 0x20 ADD SWAP1 DUP2 MSTORE PUSH1 0x20 ADD PUSH1 0x0 KECCAK256 PUSH1 0x0 SWAP1 SLOAD SWAP1 PUSH2 0x100 EXP SWAP1 DIV PUSH1 0xFF AND PUSH2 0x2443 JUMPI PUSH2 0x23EF DUP11 PUSH1 0xC SLOAD PUSH2 0x2A5E JUMP JUMPDEST SWAP5 POP PUSH2 0x23FD DUP11 PUSH1 0xD SLOAD PUSH2 0x2A5E JUMP JUMPDEST SWAP7 POP PUSH2 0x240A DUP13 ADDRESS DUP10 PUSH2 0x2743 JUMP JUMPDEST PUSH2 0x2415 DUP13 ADDRESS DUP8 PUSH2 0x2743 JUMP JUMPDEST PUSH1 0x1B PUSH1 0x16 SWAP1 SLOAD SWAP1 PUSH2 0x100 EXP SWAP1 DIV PUSH1 0xFF AND PUSH2 0x2442 JUMPI PUSH2 0x2435 DUP11 PUSH1 0xE SLOAD PUSH2 0x2A5E JUMP JUMPDEST SWAP6 POP PUSH2 0x2441 DUP13 DUP8 PUSH2 0x2A82 JUMP JUMPDEST JUMPDEST JUMPDEST DUP6 DUP8 DUP7 PUSH2 0x2450 SWAP2 SWAP1 PUSH2 0x3489 JUMP JUMPDEST PUSH2 0x245A SWAP2 SWAP1 PUSH2 0x3489 JUMP JUMPDEST SWAP1 POP PUSH2 0x25F3 JUMP JUMPDEST PUSH1 0x6 PUSH1 0x0 DUP13 PUSH20 0xFFFFFFFFFFFFFFFFFFFFFFFFFFFFFFFFFFFFFFFF AND PUSH20 0xFFFFFFFFFFFFFFFFFFFFFFFFFFFFFFFFFFFFFFFF AND DUP2 MSTORE PUSH1 0x20 ADD SWAP1 DUP2 MSTORE PUSH1 0x20 ADD PUSH1 0x0 KECCAK256 PUSH1 0x0 SWAP1 SLOAD SWAP1 PUSH2 0x100 EXP SWAP1 DIV PUSH1 0xFF AND DUP1 ISZERO PUSH2 0x24B7 JUMPI POP DUP8 JUMPDEST ISZERO PUSH2 0x258B JUMPI PUSH1 0x7 PUSH1 0x0 DUP14 PUSH20 0xFFFFFFFFFFFFFFFFFFFFFFFFFFFFFFFFFFFFFFFF AND PUSH20 0xFFFFFFFFFFFFFFFFFFFFFFFFFFFFFFFFFFFFFFFF AND DUP2 MSTORE PUSH1 0x20 ADD SWAP1 DUP2 MSTORE PUSH1 0x20 ADD PUSH1 0x0 KECCAK256 PUSH1 0x0 SWAP1 SLOAD SWAP1 PUSH2 0x100 EXP SWAP1 DIV PUSH1 0xFF AND PUSH2 0x256D JUMPI PUSH2 0x2519 DUP11 PUSH1 0xF SLOAD PUSH2 0x2A5E JUMP JUMPDEST SWAP5 POP PUSH2 0x2527 DUP11 PUSH1 0x10 SLOAD PUSH2 0x2A5E JUMP JUMPDEST SWAP7 POP PUSH2 0x2534 DUP13 ADDRESS DUP8 PUSH2 0x2743 JUMP JUMPDEST PUSH2 0x253F DUP13 ADDRESS DUP10 PUSH2 0x2743 JUMP JUMPDEST PUSH1 0x1B PUSH1 0x16 SWAP1 SLOAD SWAP1 PUSH2 0x100 EXP SWAP1 DIV PUSH1 0xFF AND PUSH2 0x256C JUMPI PUSH2 0x255F DUP11 PUSH1 0x11 SLOAD PUSH2 0x2A5E JUMP JUMPDEST SWAP6 POP PUSH2 0x256B DUP13 DUP8 PUSH2 0x2A82 JUMP JUMPDEST JUMPDEST JUMPDEST DUP6 DUP8 DUP7 PUSH2 0x257A SWAP2 SWAP1 PUSH2 0x3489 JUMP JUMPDEST PUSH2 0x2584 SWAP2 SWAP1 PUSH2 0x3489 JUMP JUMPDEST SWAP1 POP PUSH2 0x25F2 JUMP JUMPDEST DUP9 ISZERO DUP1 ISZERO PUSH2 0x2597 JUMPI POP DUP8 ISZERO JUMPDEST ISZERO PUSH2 0x25F1 JUMPI PUSH2 0x25A8 DUP11 PUSH1 0x12 SLOAD PUSH2 0x2A5E JUMP JUMPDEST SWAP7 POP PUSH2 0x25B5 DUP13 ADDRESS DUP10 PUSH2 0x2743 JUMP JUMPDEST PUSH1 0x1B PUSH1 0x16 SWAP1 SLOAD SWAP1 PUSH2 0x100 EXP SWAP1 DIV PUSH1 0xFF AND PUSH2 0x25E2 JUMPI PUSH2 0x25D5 DUP11 PUSH1 0x13 SLOAD PUSH2 0x2A5E JUMP JUMPDEST SWAP6 POP PUSH2 0x25E1 DUP13 DUP8 PUSH2 0x2A82 JUMP JUMPDEST JUMPDEST DUP6 DUP8 PUSH2 0x25EE SWAP2 SWAP1 PUSH2 0x3489 JUMP JUMPDEST SWAP1 POP JUMPDEST JUMPDEST JUMPDEST DUP1 DUP11 PUSH2 0x25FF SWAP2 SWAP1 PUSH2 0x3FBD JUMP JUMPDEST SWAP10 POP JUMPDEST PUSH2 0x260D DUP13 DUP13 DUP13 PUSH2 0x2743 JUMP JUMPDEST POP POP POP POP POP POP POP POP POP JUMPDEST POP POP POP JUMP JUMPDEST PUSH1 0x0 CALLER SWAP1 POP SWAP1 JUMP JUMPDEST PUSH1 0x0 DUP1 PUSH1 0x0 SWAP1 SLOAD SWAP1 PUSH2 0x100 EXP SWAP1 DIV PUSH20 0xFFFFFFFFFFFFFFFFFFFFFFFFFFFFFFFFFFFFFFFF AND SWAP1 POP DUP2 PUSH1 0x0 DUP1 PUSH2 0x100 EXP DUP2 SLOAD DUP2 PUSH20 0xFFFFFFFFFFFFFFFFFFFFFFFFFFFFFFFFFFFFFFFF MUL NOT AND SWAP1 DUP4 PUSH20 0xFFFFFFFFFFFFFFFFFFFFFFFFFFFFFFFFFFFFFFFF AND MUL OR SWAP1 SSTORE POP DUP2 PUSH20 0xFFFFFFFFFFFFFFFFFFFFFFFFFFFFFFFFFFFFFFFF AND DUP2 PUSH20 0xFFFFFFFFFFFFFFFFFFFFFFFFFFFFFFFFFFFFFFFF AND PUSH32 0x8BE0079C531659141344CD1FD0A4F28419497F9722A3DAAFE3B4186F6B6457E0 PUSH1 0x40 MLOAD PUSH1 0x40 MLOAD DUP1 SWAP2 SUB SWAP1 LOG3 POP POP JUMP JUMPDEST DUP1 PUSH1 0x6 PUSH1 0x0 DUP5 PUSH20 0xFFFFFFFFFFFFFFFFFFFFFFFFFFFFFFFFFFFFFFFF AND PUSH20 0xFFFFFFFFFFFFFFFFFFFFFFFFFFFFFFFFFFFFFFFF AND DUP2 MSTORE PUSH1 0x20 ADD SWAP1 DUP2 MSTORE PUSH1 0x20 ADD PUSH1 0x0 KECCAK256 PUSH1 0x0 PUSH2 0x100 EXP DUP2 SLOAD DUP2 PUSH1 0xFF MUL NOT AND SWAP1 DUP4 ISZERO ISZERO MUL OR SWAP1 SSTORE POP POP POP JUMP JUMPDEST PUSH1 0x0 PUSH1 0x3 PUSH1 0x0 DUP6 PUSH20 0xFFFFFFFFFFFFFFFFFFFFFFFFFFFFFFFFFFFFFFFF AND PUSH20 0xFFFFFFFFFFFFFFFFFFFFFFFFFFFFFFFFFFFFFFFF AND DUP2 MSTORE PUSH1 0x20 ADD SWAP1 DUP2 MSTORE PUSH1 0x20 ADD PUSH1 0x0 KECCAK256 SLOAD SWAP1 POP DUP2 DUP2 LT ISZERO PUSH2 0x27CA JUMPI PUSH1 0x40 MLOAD PUSH32 0x8C379A000000000000000000000000000000000000000000000000000000000 DUP2 MSTORE PUSH1 0x4 ADD PUSH2 0x27C1 SWAP1 PUSH2 0x4063 JUMP JUMPDEST PUSH1 0x40 MLOAD DUP1 SWAP2 SUB SWAP1 REVERT JUMPDEST DUP2 DUP2 SUB PUSH1 0x3 PUSH1 0x0 DUP7 PUSH20 0xFFFFFFFFFFFFFFFFFFFFFFFFFFFFFFFFFFFFFFFF AND PUSH20 0xFFFFFFFFFFFFFFFFFFFFFFFFFFFFFFFFFFFFFFFF AND DUP2 MSTORE PUSH1 0x20 ADD SWAP1 DUP2 MSTORE PUSH1 0x20 ADD PUSH1 0x0 KECCAK256 DUP2 SWAP1 SSTORE POP DUP2 PUSH1 0x3 PUSH1 0x0 DUP6 PUSH20 0xFFFFFFFFFFFFFFFFFFFFFFFFFFFFFFFFFFFFFFFF AND PUSH20 0xFFFFFFFFFFFFFFFFFFFFFFFFFFFFFFFFFFFFFFFF AND DUP2 MSTORE PUSH1 0x20 ADD SWAP1 DUP2 MSTORE PUSH1 0x20 ADD PUSH1 0x0 KECCAK256 PUSH1 0x0 DUP3 DUP3 SLOAD ADD SWAP3 POP POP DUP2 SWAP1 SSTORE POP DUP3 PUSH20 0xFFFFFFFFFFFFFFFFFFFFFFFFFFFFFFFFFFFFFFFF AND DUP5 PUSH20 0xFFFFFFFFFFFFFFFFFFFFFFFFFFFFFFFFFFFFFFFF AND PUSH32 0xDDF252AD1BE2C89B69C2B068FC378DAA952BA7F163C4A11628F55A4DF523B3EF DUP5 PUSH1 0x40 MLOAD PUSH2 0x28BA SWAP2 SWAP1 PUSH2 0x3179 JUMP JUMPDEST PUSH1 0x40 MLOAD DUP1 SWAP2 SUB SWAP1 LOG3 POP POP POP POP JUMP JUMPDEST PUSH1 0x0 PUSH2 0x28D3 ADDRESS PUSH2 0x1260 JUMP JUMPDEST SWAP1 POP PUSH1 0x0 PUSH1 0x18 SLOAD PUSH1 0x17 SLOAD PUSH1 0x15 SLOAD PUSH2 0x28EA SWAP2 SWAP1 PUSH2 0x3489 JUMP JUMPDEST PUSH2 0x28F4 SWAP2 SWAP1 PUSH2 0x3489 JUMP JUMPDEST SWAP1 POP PUSH1 0x2 SLOAD DUP3 LT PUSH2 0x2A5A JUMPI PUSH1 0x0 PUSH3 0x30D40 DUP3 DUP5 PUSH2 0x2911 SWAP2 SWAP1 PUSH2 0x3BB5 JUMP JUMPDEST PUSH2 0x291B SWAP2 SWAP1 PUSH2 0x3C26 JUMP JUMPDEST SWAP1 POP PUSH1 0x0 DUP2 DUP5 PUSH2 0x292B SWAP2 SWAP1 PUSH2 0x3FBD JUMP JUMPDEST SWAP1 POP PUSH1 0x0 SELFBALANCE SWAP1 POP PUSH2 0x293B DUP3 PUSH2 0x2C51 JUMP JUMPDEST PUSH1 0x0 DUP2 SELFBALANCE PUSH2 0x2949 SWAP2 SWAP1 PUSH2 0x3FBD JUMP JUMPDEST SWAP1 POP PUSH1 0x0 DUP1 PUSH3 0x186A0 PUSH1 0x14 SLOAD DUP5 PUSH2 0x2960 SWAP2 SWAP1 PUSH2 0x3BB5 JUMP JUMPDEST PUSH2 0x296A SWAP2 SWAP1 PUSH2 0x3C26 JUMP JUMPDEST SWAP1 POP PUSH1 0x0 PUSH3 0x186A0 PUSH1 0x16 SLOAD DUP6 PUSH2 0x2980 SWAP2 SWAP1 PUSH2 0x3BB5 JUMP JUMPDEST PUSH2 0x298A SWAP2 SWAP1 PUSH2 0x3C26 JUMP JUMPDEST SWAP1 POP PUSH1 0x0 DUP2 DUP4 PUSH2 0x299A SWAP2 SWAP1 PUSH2 0x3489 JUMP JUMPDEST SWAP1 POP DUP1 DUP6 PUSH2 0x29A8 SWAP2 SWAP1 PUSH2 0x3FBD JUMP JUMPDEST SWAP5 POP PUSH1 0xB PUSH1 0x0 SWAP1 SLOAD SWAP1 PUSH2 0x100 EXP SWAP1 DIV PUSH20 0xFFFFFFFFFFFFFFFFFFFFFFFFFFFFFFFFFFFFFFFF AND PUSH20 0xFFFFFFFFFFFFFFFFFFFFFFFFFFFFFFFFFFFFFFFF AND DUP2 PUSH2 0x88B8 SWAP1 PUSH1 0x40 MLOAD PUSH2 0x29F4 SWAP1 PUSH2 0x40B4 JUMP JUMPDEST PUSH1 0x0 PUSH1 0x40 MLOAD DUP1 DUP4 SUB DUP2 DUP6 DUP9 DUP9 CALL SWAP4 POP POP POP POP RETURNDATASIZE DUP1 PUSH1 0x0 DUP2 EQ PUSH2 0x2A32 JUMPI PUSH1 0x40 MLOAD SWAP2 POP PUSH1 0x1F NOT PUSH1 0x3F RETURNDATASIZE ADD AND DUP3 ADD PUSH1 0x40 MSTORE RETURNDATASIZE DUP3 MSTORE RETURNDATASIZE PUSH1 0x0 PUSH1 0x20 DUP5 ADD RETURNDATACOPY PUSH2 0x2A37 JUMP JUMPDEST PUSH1 0x60 SWAP2 POP JUMPDEST POP POP DUP1 SWAP5 POP POP PUSH1 0x0 DUP6 GT ISZERO PUSH2 0x2A51 JUMPI PUSH2 0x2A50 DUP9 DUP7 PUSH2 0x2E94 JUMP JUMPDEST JUMPDEST POP POP POP POP POP POP POP POP JUMPDEST POP POP JUMP JUMPDEST PUSH1 0x0 PUSH3 0x186A0 DUP3 DUP5 PUSH2 0x2A70 SWAP2 SWAP1 PUSH2 0x3BB5 JUMP JUMPDEST PUSH2 0x2A7A SWAP2 SWAP1 PUSH2 0x3C26 JUMP JUMPDEST SWAP1 POP SWAP3 SWAP2 POP POP JUMP JUMPDEST PUSH1 0x0 PUSH20 0xFFFFFFFFFFFFFFFFFFFFFFFFFFFFFFFFFFFFFFFF AND DUP3 PUSH20 0xFFFFFFFFFFFFFFFFFFFFFFFFFFFFFFFFFFFFFFFF AND SUB PUSH2 0x2AF1 JUMPI PUSH1 0x40 MLOAD PUSH32 0x8C379A000000000000000000000000000000000000000000000000000000000 DUP2 MSTORE PUSH1 0x4 ADD PUSH2 0x2AE8 SWAP1 PUSH2 0x413B JUMP JUMPDEST PUSH1 0x40 MLOAD DUP1 SWAP2 SUB SWAP1 REVERT JUMPDEST PUSH2 0x2AFD DUP3 PUSH1 0x0 DUP4 PUSH2 0x2F72 JUMP JUMPDEST PUSH1 0x0 PUSH1 0x3 PUSH1 0x0 DUP5 PUSH20 0xFFFFFFFFFFFFFFFFFFFFFFFFFFFFFFFFFFFFFFFF AND PUSH20 0xFFFFFFFFFFFFFFFFFFFFFFFFFFFFFFFFFFFFFFFF AND DUP2 MSTORE PUSH1 0x20 ADD SWAP1 DUP2 MSTORE PUSH1 0x20 ADD PUSH1 0x0 KECCAK256 SLOAD SWAP1 POP DUP2 DUP2 LT ISZERO PUSH2 0x2B84 JUMPI PUSH1 0x40 MLOAD PUSH32 0x8C379A000000000000000000000000000000000000000000000000000000000 DUP2 MSTORE PUSH1 0x4 ADD PUSH2 0x2B7B SWAP1 PUSH2 0x41CD JUMP JUMPDEST PUSH1 0x40 MLOAD DUP1 SWAP2 SUB SWAP1 REVERT JUMPDEST DUP2 DUP2 SUB PUSH1 0x3 PUSH1 0x0 DUP6 PUSH20 0xFFFFFFFFFFFFFFFFFFFFFFFFFFFFFFFFFFFFFFFF AND PUSH20 0xFFFFFFFFFFFFFFFFFFFFFFFFFFFFFFFFFFFFFFFF AND DUP2 MSTORE PUSH1 0x20 ADD SWAP1 DUP2 MSTORE PUSH1 0x20 ADD PUSH1 0x0 KECCAK256 DUP2 SWAP1 SSTORE POP DUP2 PUSH1 0x1 PUSH1 0x0 DUP3 DUP3 SLOAD SUB SWAP3 POP POP DUP2 SWAP1 SSTORE POP PUSH1 0x0 PUSH20 0xFFFFFFFFFFFFFFFFFFFFFFFFFFFFFFFFFFFFFFFF AND DUP4 PUSH20 0xFFFFFFFFFFFFFFFFFFFFFFFFFFFFFFFFFFFFFFFF AND PUSH32 0xDDF252AD1BE2C89B69C2B068FC378DAA952BA7F163C4A11628F55A4DF523B3EF DUP5 PUSH1 0x40 MLOAD PUSH2 0x2C38 SWAP2 SWAP1 PUSH2 0x3179 JUMP JUMPDEST PUSH1 0x40 MLOAD DUP1 SWAP2 SUB SWAP1 LOG3 PUSH2 0x2C4C DUP4 PUSH1 0x0 DUP5 PUSH2 0x2F77 JUMP JUMPDEST POP POP POP JUMP JUMPDEST PUSH1 0x0 PUSH1 0x2 PUSH8 0xFFFFFFFFFFFFFFFF DUP2 GT ISZERO PUSH2 0x2C6E JUMPI PUSH2 0x2C6D PUSH2 0x41ED JUMP JUMPDEST JUMPDEST PUSH1 0x40 MLOAD SWAP1 DUP1 DUP3 MSTORE DUP1 PUSH1 0x20 MUL PUSH1 0x20 ADD DUP3 ADD PUSH1 0x40 MSTORE DUP1 ISZERO PUSH2 0x2C9C JUMPI DUP2 PUSH1 0x20 ADD PUSH1 0x20 DUP3 MUL DUP1 CALLDATASIZE DUP4 CALLDATACOPY DUP1 DUP3 ADD SWAP2 POP POP SWAP1 POP JUMPDEST POP SWAP1 POP ADDRESS DUP2 PUSH1 0x0 DUP2 MLOAD DUP2 LT PUSH2 0x2CB4 JUMPI PUSH2 0x2CB3 PUSH2 0x421C JUMP JUMPDEST JUMPDEST PUSH1 0x20 MUL PUSH1 0x20 ADD ADD SWAP1 PUSH20 0xFFFFFFFFFFFFFFFFFFFFFFFFFFFFFFFFFFFFFFFF AND SWAP1 DUP2 PUSH20 0xFFFFFFFFFFFFFFFFFFFFFFFFFFFFFFFFFFFFFFFF AND DUP2 MSTORE POP POP PUSH1 0x1A PUSH1 0x0 SWAP1 SLOAD SWAP1 PUSH2 0x100 EXP SWAP1 DIV PUSH20 0xFFFFFFFFFFFFFFFFFFFFFFFFFFFFFFFFFFFFFFFF AND PUSH20 0xFFFFFFFFFFFFFFFFFFFFFFFFFFFFFFFFFFFFFFFF AND PUSH4 0xAD5C4648 PUSH1 0x40 MLOAD DUP2 PUSH4 0xFFFFFFFF AND PUSH1 0xE0 SHL DUP2 MSTORE PUSH1 0x4 ADD PUSH1 0x20 PUSH1 0x40 MLOAD DUP1 DUP4 SUB DUP2 DUP7 GAS STATICCALL ISZERO DUP1 ISZERO PUSH2 0x2D5B JUMPI RETURNDATASIZE PUSH1 0x0 DUP1 RETURNDATACOPY RETURNDATASIZE PUSH1 0x0 REVERT JUMPDEST POP POP POP POP PUSH1 0x40 MLOAD RETURNDATASIZE PUSH1 0x1F NOT PUSH1 0x1F DUP3 ADD AND DUP3 ADD DUP1 PUSH1 0x40 MSTORE POP DUP2 ADD SWAP1 PUSH2 0x2D7F SWAP2 SWAP1 PUSH2 0x4260 JUMP JUMPDEST DUP2 PUSH1 0x1 DUP2 MLOAD DUP2 LT PUSH2 0x2D93 JUMPI PUSH2 0x2D92 PUSH2 0x421C JUMP JUMPDEST JUMPDEST PUSH1 0x20 MUL PUSH1 0x20 ADD ADD SWAP1 PUSH20 0xFFFFFFFFFFFFFFFFFFFFFFFFFFFFFFFFFFFFFFFF AND SWAP1 DUP2 PUSH20 0xFFFFFFFFFFFFFFFFFFFFFFFFFFFFFFFFFFFFFFFF AND DUP2 MSTORE POP POP PUSH2 0x2DFA ADDRESS PUSH1 0x1A PUSH1 0x0 SWAP1 SLOAD SWAP1 PUSH2 0x100 EXP SWAP1 DIV PUSH20 0xFFFFFFFFFFFFFFFFFFFFFFFFFFFFFFFFFFFFFFFF AND DUP5 PUSH2 0x18B1 JUMP JUMPDEST PUSH1 0x1A PUSH1 0x0 SWAP1 SLOAD SWAP1 PUSH2 0x100 EXP SWAP1 DIV PUSH20 0xFFFFFFFFFFFFFFFFFFFFFFFFFFFFFFFFFFFFFFFF AND PUSH20 0xFFFFFFFFFFFFFFFFFFFFFFFFFFFFFFFFFFFFFFFF AND PUSH4 0x791AC947 DUP4 PUSH1 0x0 DUP5 ADDRESS TIMESTAMP PUSH1 0x40 MLOAD DUP7 PUSH4 0xFFFFFFFF AND PUSH1 0xE0 SHL DUP2 MSTORE PUSH1 0x4 ADD PUSH2 0x2E5E SWAP6 SWAP5 SWAP4 SWAP3 SWAP2 SWAP1 PUSH2 0x4386 JUMP JUMPDEST PUSH1 0x0 PUSH1 0x40 MLOAD DUP1 DUP4 SUB DUP2 PUSH1 0x0 DUP8 DUP1 EXTCODESIZE ISZERO DUP1 ISZERO PUSH2 0x2E78 JUMPI PUSH1 0x0 DUP1 REVERT JUMPDEST POP GAS CALL ISZERO DUP1 ISZERO PUSH2 0x2E8C JUMPI RETURNDATASIZE PUSH1 0x0 DUP1 RETURNDATACOPY RETURNDATASIZE PUSH1 0x0 REVERT JUMPDEST POP POP POP POP POP POP JUMP JUMPDEST PUSH2 0x2EC1 ADDRESS PUSH1 0x1A PUSH1 0x0 SWAP1 SLOAD SWAP1 PUSH2 0x100 EXP SWAP1 DIV PUSH20 0xFFFFFFFFFFFFFFFFFFFFFFFFFFFFFFFFFFFFFFFF AND DUP5 PUSH2 0x18B1 JUMP JUMPDEST PUSH1 0x1A PUSH1 0x0 SWAP1 SLOAD SWAP1 PUSH2 0x100 EXP SWAP1 DIV PUSH20 0xFFFFFFFFFFFFFFFFFFFFFFFFFFFFFFFFFFFFFFFF AND PUSH20 0xFFFFFFFFFFFFFFFFFFFFFFFFFFFFFFFFFFFFFFFF AND PUSH4 0xF305D719 DUP3 ADDRESS DUP6 PUSH1 0x0 DUP1 ADDRESS TIMESTAMP PUSH1 0x40 MLOAD DUP9 PUSH4 0xFFFFFFFF AND PUSH1 0xE0 SHL DUP2 MSTORE PUSH1 0x4 ADD PUSH2 0x2F28 SWAP7 SWAP6 SWAP5 SWAP4 SWAP3 SWAP2 SWAP1 PUSH2 0x43E0 JUMP JUMPDEST PUSH1 0x60 PUSH1 0x40 MLOAD DUP1 DUP4 SUB DUP2 DUP6 DUP9 GAS CALL ISZERO DUP1 ISZERO PUSH2 0x2F46 JUMPI RETURNDATASIZE PUSH1 0x0 DUP1 RETURNDATACOPY RETURNDATASIZE PUSH1 0x0 REVERT JUMPDEST POP POP POP POP POP PUSH1 0x40 MLOAD RETURNDATASIZE PUSH1 0x1F NOT PUSH1 0x1F DUP3 ADD AND DUP3 ADD DUP1 PUSH1 0x40 MSTORE POP DUP2 ADD SWAP1 PUSH2 0x2F6B SWAP2 SWAP1 PUSH2 0x4456 JUMP JUMPDEST POP POP POP POP POP JUMP JUMPDEST POP POP POP JUMP JUMPDEST POP POP POP JUMP JUMPDEST PUSH1 0x0 DUP2 MLOAD SWAP1 POP SWAP2 SWAP1 POP JUMP JUMPDEST PUSH1 0x0 DUP3 DUP3 MSTORE PUSH1 0x20 DUP3 ADD SWAP1 POP SWAP3 SWAP2 POP POP JUMP JUMPDEST PUSH1 0x0 JUMPDEST DUP4 DUP2 LT ISZERO PUSH2 0x2FB6 JUMPI DUP1 DUP3 ADD MLOAD DUP2 DUP5 ADD MSTORE PUSH1 0x20 DUP2 ADD SWAP1 POP PUSH2 0x2F9B JUMP JUMPDEST PUSH1 0x0 DUP5 DUP5 ADD MSTORE POP POP POP POP JUMP JUMPDEST PUSH1 0x0 PUSH1 0x1F NOT PUSH1 0x1F DUP4 ADD AND SWAP1 POP SWAP2 SWAP1 POP JUMP JUMPDEST PUSH1 0x0 PUSH2 0x2FDE DUP3 PUSH2 0x2F7C JUMP JUMPDEST PUSH2 0x2FE8 DUP2 DUP6 PUSH2 0x2F87 JUMP JUMPDEST SWAP4 POP PUSH2 0x2FF8 DUP2 DUP6 PUSH1 0x20 DUP7 ADD PUSH2 0x2F98 JUMP JUMPDEST PUSH2 0x3001 DUP2 PUSH2 0x2FC2 JUMP JUMPDEST DUP5 ADD SWAP2 POP POP SWAP3 SWAP2 POP POP JUMP JUMPDEST PUSH1 0x0 PUSH1 0x20 DUP3 ADD SWAP1 POP DUP2 DUP2 SUB PUSH1 0x0 DUP4 ADD MSTORE PUSH2 0x3026 DUP2 DUP5 PUSH2 0x2FD3 JUMP JUMPDEST SWAP1 POP SWAP3 SWAP2 POP POP JUMP JUMPDEST PUSH1 0x0 DUP1 REVERT JUMPDEST PUSH1 0x0 DUP2 SWAP1 POP SWAP2 SWAP1 POP JUMP JUMPDEST PUSH2 0x3046 DUP2 PUSH2 0x3033 JUMP JUMPDEST DUP2 EQ PUSH2 0x3051 JUMPI PUSH1 0x0 DUP1 REVERT JUMPDEST POP JUMP JUMPDEST PUSH1 0x0 DUP2 CALLDATALOAD SWAP1 POP PUSH2 0x3063 DUP2 PUSH2 0x303D JUMP JUMPDEST SWAP3 SWAP2 POP POP JUMP JUMPDEST PUSH1 0x0 PUSH1 0x20 DUP3 DUP5 SUB SLT ISZERO PUSH2 0x307F JUMPI PUSH2 0x307E PUSH2 0x302E JUMP JUMPDEST JUMPDEST PUSH1 0x0 PUSH2 0x308D DUP5 DUP3 DUP6 ADD PUSH2 0x3054 JUMP JUMPDEST SWAP2 POP POP SWAP3 SWAP2 POP POP JUMP JUMPDEST PUSH1 0x0 PUSH20 0xFFFFFFFFFFFFFFFFFFFFFFFFFFFFFFFFFFFFFFFF DUP3 AND SWAP1 POP SWAP2 SWAP1 POP JUMP JUMPDEST PUSH1 0x0 PUSH2 0x30C1 DUP3 PUSH2 0x3096 JUMP JUMPDEST SWAP1 POP SWAP2 SWAP1 POP JUMP JUMPDEST PUSH2 0x30D1 DUP2 PUSH2 0x30B6 JUMP JUMPDEST DUP2 EQ PUSH2 0x30DC JUMPI PUSH1 0x0 DUP1 REVERT JUMPDEST POP JUMP JUMPDEST PUSH1 0x0 DUP2 CALLDATALOAD SWAP1 POP PUSH2 0x30EE DUP2 PUSH2 0x30C8 JUMP JUMPDEST SWAP3 SWAP2 POP POP JUMP JUMPDEST PUSH1 0x0 DUP1 PUSH1 0x40 DUP4 DUP6 SUB SLT ISZERO PUSH2 0x310B JUMPI PUSH2 0x310A PUSH2 0x302E JUMP JUMPDEST JUMPDEST PUSH1 0x0 PUSH2 0x3119 DUP6 DUP3 DUP7 ADD PUSH2 0x30DF JUMP JUMPDEST SWAP3 POP POP PUSH1 0x20 PUSH2 0x312A DUP6 DUP3 DUP7 ADD PUSH2 0x3054 JUMP JUMPDEST SWAP2 POP POP SWAP3 POP SWAP3 SWAP1 POP JUMP JUMPDEST PUSH1 0x0 DUP2 ISZERO ISZERO SWAP1 POP SWAP2 SWAP1 POP JUMP JUMPDEST PUSH2 0x3149 DUP2 PUSH2 0x3134 JUMP JUMPDEST DUP3 MSTORE POP POP JUMP JUMPDEST PUSH1 0x0 PUSH1 0x20 DUP3 ADD SWAP1 POP PUSH2 0x3164 PUSH1 0x0 DUP4 ADD DUP5 PUSH2 0x3140 JUMP JUMPDEST SWAP3 SWAP2 POP POP JUMP JUMPDEST PUSH2 0x3173 DUP2 PUSH2 0x3033 JUMP JUMPDEST DUP3 MSTORE POP POP JUMP JUMPDEST PUSH1 0x0 PUSH1 0x20 DUP3 ADD SWAP1 POP PUSH2 0x318E PUSH1 0x0 DUP4 ADD DUP5 PUSH2 0x316A JUMP JUMPDEST SWAP3 SWAP2 POP POP JUMP JUMPDEST PUSH1 0x0 DUP2 SWAP1 POP SWAP2 SWAP1 POP JUMP JUMPDEST PUSH1 0x0 PUSH2 0x31B9 PUSH2 0x31B4 PUSH2 0x31AF DUP5 PUSH2 0x3096 JUMP JUMPDEST PUSH2 0x3194 JUMP JUMPDEST PUSH2 0x3096 JUMP JUMPDEST SWAP1 POP SWAP2 SWAP1 POP JUMP JUMPDEST PUSH1 0x0 PUSH2 0x31CB DUP3 PUSH2 0x319E JUMP JUMPDEST SWAP1 POP SWAP2 SWAP1 POP JUMP JUMPDEST PUSH1 0x0 PUSH2 0x31DD DUP3 PUSH2 0x31C0 JUMP JUMPDEST SWAP1 POP SWAP2 SWAP1 POP JUMP JUMPDEST PUSH2 0x31ED DUP2 PUSH2 0x31D2 JUMP JUMPDEST DUP3 MSTORE POP POP JUMP JUMPDEST PUSH1 0x0 PUSH1 0x20 DUP3 ADD SWAP1 POP PUSH2 0x3208 PUSH1 0x0 DUP4 ADD DUP5 PUSH2 0x31E4 JUMP JUMPDEST SWAP3 SWAP2 POP POP JUMP JUMPDEST PUSH1 0x0 DUP1 PUSH1 0x0 PUSH1 0x60 DUP5 DUP7 SUB SLT ISZERO PUSH2 0x3227 JUMPI PUSH2 0x3226 PUSH2 0x302E JUMP JUMPDEST JUMPDEST PUSH1 0x0 PUSH2 0x3235 DUP7 DUP3 DUP8 ADD PUSH2 0x30DF JUMP JUMPDEST SWAP4 POP POP PUSH1 0x20 PUSH2 0x3246 DUP7 DUP3 DUP8 ADD PUSH2 0x30DF JUMP JUMPDEST SWAP3 POP POP PUSH1 0x40 PUSH2 0x3257 DUP7 DUP3 DUP8 ADD PUSH2 0x3054 JUMP JUMPDEST SWAP2 POP POP SWAP3 POP SWAP3 POP SWAP3 JUMP JUMPDEST PUSH1 0x0 PUSH1 0xFF DUP3 AND SWAP1 POP SWAP2 SWAP1 POP JUMP JUMPDEST PUSH2 0x3277 DUP2 PUSH2 0x3261 JUMP JUMPDEST DUP3 MSTORE POP POP JUMP JUMPDEST PUSH1 0x0 PUSH1 0x20 DUP3 ADD SWAP1 POP PUSH2 0x3292 PUSH1 0x0 DUP4 ADD DUP5 PUSH2 0x326E JUMP JUMPDEST SWAP3 SWAP2 POP POP JUMP JUMPDEST PUSH1 0x0 PUSH1 0x20 DUP3 DUP5 SUB SLT ISZERO PUSH2 0x32AE JUMPI PUSH2 0x32AD PUSH2 0x302E JUMP JUMPDEST JUMPDEST PUSH1 0x0 PUSH2 0x32BC DUP5 DUP3 DUP6 ADD PUSH2 0x30DF JUMP JUMPDEST SWAP2 POP POP SWAP3 SWAP2 POP POP JUMP JUMPDEST PUSH2 0x32CE DUP2 PUSH2 0x3134 JUMP JUMPDEST DUP2 EQ PUSH2 0x32D9 JUMPI PUSH1 0x0 DUP1 REVERT JUMPDEST POP JUMP JUMPDEST PUSH1 0x0 DUP2 CALLDATALOAD SWAP1 POP PUSH2 0x32EB DUP2 PUSH2 0x32C5 JUMP JUMPDEST SWAP3 SWAP2 POP POP JUMP JUMPDEST PUSH1 0x0 PUSH1 0x20 DUP3 DUP5 SUB SLT ISZERO PUSH2 0x3307 JUMPI PUSH2 0x3306 PUSH2 0x302E JUMP JUMPDEST JUMPDEST PUSH1 0x0 PUSH2 0x3315 DUP5 DUP3 DUP6 ADD PUSH2 0x32DC JUMP JUMPDEST SWAP2 POP POP SWAP3 SWAP2 POP POP JUMP JUMPDEST PUSH2 0x3327 DUP2 PUSH2 0x30B6 JUMP JUMPDEST DUP3 MSTORE POP POP JUMP JUMPDEST PUSH1 0x0 PUSH1 0x20 DUP3 ADD SWAP1 POP PUSH2 0x3342 PUSH1 0x0 DUP4 ADD DUP5 PUSH2 0x331E JUMP JUMPDEST SWAP3 SWAP2 POP POP JUMP JUMPDEST PUSH1 0x0 DUP1 PUSH1 0x40 DUP4 DUP6 SUB SLT ISZERO PUSH2 0x335F JUMPI PUSH2 0x335E PUSH2 0x302E JUMP JUMPDEST JUMPDEST PUSH1 0x0 PUSH2 0x336D DUP6 DUP3 DUP7 ADD PUSH2 0x30DF JUMP JUMPDEST SWAP3 POP POP PUSH1 0x20 PUSH2 0x337E DUP6 DUP3 DUP7 ADD PUSH2 0x32DC JUMP JUMPDEST SWAP2 POP POP SWAP3 POP SWAP3 SWAP1 POP JUMP JUMPDEST PUSH1 0x0 DUP1 PUSH1 0x40 DUP4 DUP6 SUB SLT ISZERO PUSH2 0x339F JUMPI PUSH2 0x339E PUSH2 0x302E JUMP JUMPDEST JUMPDEST PUSH1 0x0 PUSH2 0x33AD DUP6 DUP3 DUP7 ADD PUSH2 0x30DF JUMP JUMPDEST SWAP3 POP POP PUSH1 0x20 PUSH2 0x33BE DUP6 DUP3 DUP7 ADD PUSH2 0x30DF JUMP JUMPDEST SWAP2 POP POP SWAP3 POP SWAP3 SWAP1 POP JUMP JUMPDEST PUSH32 0x546178207468726573686F6C642063616E6E6F74206265206D6F726520746861 PUSH1 0x0 DUP3 ADD MSTORE PUSH32 0x6E20746F74616C20737570706C79000000000000000000000000000000000000 PUSH1 0x20 DUP3 ADD MSTORE POP JUMP JUMPDEST PUSH1 0x0 PUSH2 0x3424 PUSH1 0x2E DUP4 PUSH2 0x2F87 JUMP JUMPDEST SWAP2 POP PUSH2 0x342F DUP3 PUSH2 0x33C8 JUMP JUMPDEST PUSH1 0x40 DUP3 ADD SWAP1 POP SWAP2 SWAP1 POP JUMP JUMPDEST PUSH1 0x0 PUSH1 0x20 DUP3 ADD SWAP1 POP DUP2 DUP2 SUB PUSH1 0x0 DUP4 ADD MSTORE PUSH2 0x3453 DUP2 PUSH2 0x3417 JUMP JUMPDEST SWAP1 POP SWAP2 SWAP1 POP JUMP JUMPDEST PUSH32 0x4E487B7100000000000000000000000000000000000000000000000000000000 PUSH1 0x0 MSTORE PUSH1 0x11 PUSH1 0x4 MSTORE PUSH1 0x24 PUSH1 0x0 REVERT JUMPDEST PUSH1 0x0 PUSH2 0x3494 DUP3 PUSH2 0x3033 JUMP JUMPDEST SWAP2 POP PUSH2 0x349F DUP4 PUSH2 0x3033 JUMP JUMPDEST SWAP3 POP DUP3 DUP3 ADD SWAP1 POP DUP1 DUP3 GT ISZERO PUSH2 0x34B7 JUMPI PUSH2 0x34B6 PUSH2 0x345A JUMP JUMPDEST JUMPDEST SWAP3 SWAP2 POP POP JUMP JUMPDEST PUSH32 0x427579205461782070657263656E746167652063616E6E6F7420657863656564 PUSH1 0x0 DUP3 ADD MSTORE PUSH32 0x2035250000000000000000000000000000000000000000000000000000000000 PUSH1 0x20 DUP3 ADD MSTORE POP JUMP JUMPDEST PUSH1 0x0 PUSH2 0x3519 PUSH1 0x23 DUP4 PUSH2 0x2F87 JUMP JUMPDEST SWAP2 POP PUSH2 0x3524 DUP3 PUSH2 0x34BD JUMP JUMPDEST PUSH1 0x40 DUP3 ADD SWAP1 POP SWAP2 SWAP1 POP JUMP JUMPDEST PUSH1 0x0 PUSH1 0x20 DUP3 ADD SWAP1 POP DUP2 DUP2 SUB PUSH1 0x0 DUP4 ADD MSTORE PUSH2 0x3548 DUP2 PUSH2 0x350C JUMP JUMPDEST SWAP1 POP SWAP2 SWAP1 POP JUMP JUMPDEST PUSH32 0x5472616E73666572205461782070657263656E746167652063616E6E6F742065 PUSH1 0x0 DUP3 ADD MSTORE PUSH32 0x7863656564203325000000000000000000000000000000000000000000000000 PUSH1 0x20 DUP3 ADD MSTORE POP JUMP JUMPDEST PUSH1 0x0 PUSH2 0x35AB PUSH1 0x28 DUP4 PUSH2 0x2F87 JUMP JUMPDEST SWAP2 POP PUSH2 0x35B6 DUP3 PUSH2 0x354F JUMP JUMPDEST PUSH1 0x40 DUP3 ADD SWAP1 POP SWAP2 SWAP1 POP JUMP JUMPDEST PUSH1 0x0 PUSH1 0x20 DUP3 ADD SWAP1 POP DUP2 DUP2 SUB PUSH1 0x0 DUP4 ADD MSTORE PUSH2 0x35DA DUP2 PUSH2 0x359E JUMP JUMPDEST SWAP1 POP SWAP2 SWAP1 POP JUMP JUMPDEST PUSH32 0x20427579205461782070657263656E746167652063616E6E6F74206578636565 PUSH1 0x0 DUP3 ADD MSTORE PUSH32 0x6420352500000000000000000000000000000000000000000000000000000000 PUSH1 0x20 DUP3 ADD MSTORE POP JUMP JUMPDEST PUSH1 0x0 PUSH2 0x363D PUSH1 0x24 DUP4 PUSH2 0x2F87 JUMP JUMPDEST SWAP2 POP PUSH2 0x3648 DUP3 PUSH2 0x35E1 JUMP JUMPDEST PUSH1 0x40 DUP3 ADD SWAP1 POP SWAP2 SWAP1 POP JUMP JUMPDEST PUSH1 0x0 PUSH1 0x20 DUP3 ADD SWAP1 POP DUP2 DUP2 SUB PUSH1 0x0 DUP4 ADD MSTORE PUSH2 0x366C DUP2 PUSH2 0x3630 JUMP JUMPDEST SWAP1 POP SWAP2 SWAP1 POP JUMP JUMPDEST PUSH32 0x4163636F756E7420697320616C726561647920626C61636B6C69737465640000 PUSH1 0x0 DUP3 ADD MSTORE POP JUMP JUMPDEST PUSH1 0x0 PUSH2 0x36A9 PUSH1 0x1E DUP4 PUSH2 0x2F87 JUMP JUMPDEST SWAP2 POP PUSH2 0x36B4 DUP3 PUSH2 0x3673 JUMP JUMPDEST PUSH1 0x20 DUP3 ADD SWAP1 POP SWAP2 SWAP1 POP JUMP JUMPDEST PUSH1 0x0 PUSH1 0x20 DUP3 ADD SWAP1 POP DUP2 DUP2 SUB PUSH1 0x0 DUP4 ADD MSTORE PUSH2 0x36D8 DUP2 PUSH2 0x369C JUMP JUMPDEST SWAP1 POP SWAP2 SWAP1 POP JUMP JUMPDEST PUSH32 0x43616E6E6F7420626C61636B6C6973742073656C660000000000000000000000 PUSH1 0x0 DUP3 ADD MSTORE POP JUMP JUMPDEST PUSH1 0x0 PUSH2 0x3715 PUSH1 0x15 DUP4 PUSH2 0x2F87 JUMP JUMPDEST SWAP2 POP PUSH2 0x3720 DUP3 PUSH2 0x36DF JUMP JUMPDEST PUSH1 0x20 DUP3 ADD SWAP1 POP SWAP2 SWAP1 POP JUMP JUMPDEST PUSH1 0x0 PUSH1 0x20 DUP3 ADD SWAP1 POP DUP2 DUP2 SUB PUSH1 0x0 DUP4 ADD MSTORE PUSH2 0x3744 DUP2 PUSH2 0x3708 JUMP JUMPDEST SWAP1 POP SWAP2 SWAP1 POP JUMP JUMPDEST PUSH32 0x53656C6C205461782070657263656E746167652063616E6E6F74206578636565 PUSH1 0x0 DUP3 ADD MSTORE PUSH32 0x6420352500000000000000000000000000000000000000000000000000000000 PUSH1 0x20 DUP3 ADD MSTORE POP JUMP JUMPDEST PUSH1 0x0 PUSH2 0x37A7 PUSH1 0x24 DUP4 PUSH2 0x2F87 JUMP JUMPDEST SWAP2 POP PUSH2 0x37B2 DUP3 PUSH2 0x374B JUMP JUMPDEST PUSH1 0x40 DUP3 ADD SWAP1 POP SWAP2 SWAP1 POP JUMP JUMPDEST PUSH1 0x0 PUSH1 0x20 DUP3 ADD SWAP1 POP DUP2 DUP2 SUB PUSH1 0x0 DUP4 ADD MSTORE PUSH2 0x37D6 DUP2 PUSH2 0x379A JUMP JUMPDEST SWAP1 POP SWAP2 SWAP1 POP JUMP JUMPDEST PUSH32 0x2053656C6C205461782070657263656E746167652063616E6E6F742065786365 PUSH1 0x0 DUP3 ADD MSTORE PUSH32 0x6564203525000000000000000000000000000000000000000000000000000000 PUSH1 0x20 DUP3 ADD MSTORE POP JUMP JUMPDEST PUSH1 0x0 PUSH2 0x3839 PUSH1 0x25 DUP4 PUSH2 0x2F87 JUMP JUMPDEST SWAP2 POP PUSH2 0x3844 DUP3 PUSH2 0x37DD JUMP JUMPDEST PUSH1 0x40 DUP3 ADD SWAP1 POP SWAP2 SWAP1 POP JUMP JUMPDEST PUSH1 0x0 PUSH1 0x20 DUP3 ADD SWAP1 POP DUP2 DUP2 SUB PUSH1 0x0 DUP4 ADD MSTORE PUSH2 0x3868 DUP2 PUSH2 0x382C JUMP JUMPDEST SWAP1 POP SWAP2 SWAP1 POP JUMP JUMPDEST PUSH32 0x54686520706169722063616E6E6F742062652072656D6F7665642066726F6D20 PUSH1 0x0 DUP3 ADD MSTORE PUSH32 0x6175746F6D617465644D61726B65744D616B6572506169727300000000000000 PUSH1 0x20 DUP3 ADD MSTORE POP JUMP JUMPDEST PUSH1 0x0 PUSH2 0x38CB PUSH1 0x39 DUP4 PUSH2 0x2F87 JUMP JUMPDEST SWAP2 POP PUSH2 0x38D6 DUP3 PUSH2 0x386F JUMP JUMPDEST PUSH1 0x40 DUP3 ADD SWAP1 POP SWAP2 SWAP1 POP JUMP JUMPDEST PUSH1 0x0 PUSH1 0x20 DUP3 ADD SWAP1 POP DUP2 DUP2 SUB PUSH1 0x0 DUP4 ADD MSTORE PUSH2 0x38FA DUP2 PUSH2 0x38BE JUMP JUMPDEST SWAP1 POP SWAP2 SWAP1 POP JUMP JUMPDEST PUSH32 0x4D61726B6574696E672077616C6C65742063616E6E6F74206265207A65726F20 PUSH1 0x0 DUP3 ADD MSTORE PUSH32 0x6164647265737300000000000000000000000000000000000000000000000000 PUSH1 0x20 DUP3 ADD MSTORE POP JUMP JUMPDEST PUSH1 0x0 PUSH2 0x395D PUSH1 0x27 DUP4 PUSH2 0x2F87 JUMP JUMPDEST SWAP2 POP PUSH2 0x3968 DUP3 PUSH2 0x3901 JUMP JUMPDEST PUSH1 0x40 DUP3 ADD SWAP1 POP SWAP2 SWAP1 POP JUMP JUMPDEST PUSH1 0x0 PUSH1 0x20 DUP3 ADD SWAP1 POP DUP2 DUP2 SUB PUSH1 0x0 DUP4 ADD MSTORE PUSH2 0x398C DUP2 PUSH2 0x3950 JUMP JUMPDEST SWAP1 POP SWAP2 SWAP1 POP JUMP JUMPDEST PUSH32 0x4F776E61626C653A206E6577206F776E657220697320746865207A65726F2061 PUSH1 0x0 DUP3 ADD MSTORE PUSH32 0x6464726573730000000000000000000000000000000000000000000000000000 PUSH1 0x20 DUP3 ADD MSTORE POP JUMP JUMPDEST PUSH1 0x0 PUSH2 0x39EF PUSH1 0x26 DUP4 PUSH2 0x2F87 JUMP JUMPDEST SWAP2 POP PUSH2 0x39FA DUP3 PUSH2 0x3993 JUMP JUMPDEST PUSH1 0x40 DUP3 ADD SWAP1 POP SWAP2 SWAP1 POP JUMP JUMPDEST PUSH1 0x0 PUSH1 0x20 DUP3 ADD SWAP1 POP DUP2 DUP2 SUB PUSH1 0x0 DUP4 ADD MSTORE PUSH2 0x3A1E DUP2 PUSH2 0x39E2 JUMP JUMPDEST SWAP1 POP SWAP2 SWAP1 POP JUMP JUMPDEST PUSH32 0x4F776E61626C653A2063616C6C6572206973206E6F7420746865206F776E6572 PUSH1 0x0 DUP3 ADD MSTORE POP JUMP JUMPDEST PUSH1 0x0 PUSH2 0x3A5B PUSH1 0x20 DUP4 PUSH2 0x2F87 JUMP JUMPDEST SWAP2 POP PUSH2 0x3A66 DUP3 PUSH2 0x3A25 JUMP JUMPDEST PUSH1 0x20 DUP3 ADD SWAP1 POP SWAP2 SWAP1 POP JUMP JUMPDEST PUSH1 0x0 PUSH1 0x20 DUP3 ADD SWAP1 POP DUP2 DUP2 SUB PUSH1 0x0 DUP4 ADD MSTORE PUSH2 0x3A8A DUP2 PUSH2 0x3A4E JUMP JUMPDEST SWAP1 POP SWAP2 SWAP1 POP JUMP JUMPDEST PUSH32 0x45524332303A20617070726F76652066726F6D20746865207A65726F20616464 PUSH1 0x0 DUP3 ADD MSTORE PUSH32 0x7265737300000000000000000000000000000000000000000000000000000000 PUSH1 0x20 DUP3 ADD MSTORE POP JUMP JUMPDEST PUSH1 0x0 PUSH2 0x3AED PUSH1 0x24 DUP4 PUSH2 0x2F87 JUMP JUMPDEST SWAP2 POP PUSH2 0x3AF8 DUP3 PUSH2 0x3A91 JUMP JUMPDEST PUSH1 0x40 DUP3 ADD SWAP1 POP SWAP2 SWAP1 POP JUMP JUMPDEST PUSH1 0x0 PUSH1 0x20 DUP3 ADD SWAP1 POP DUP2 DUP2 SUB PUSH1 0x0 DUP4 ADD MSTORE PUSH2 0x3B1C DUP2 PUSH2 0x3AE0 JUMP JUMPDEST SWAP1 POP SWAP2 SWAP1 POP JUMP JUMPDEST PUSH32 0x45524332303A20617070726F766520746F20746865207A65726F206164647265 PUSH1 0x0 DUP3 ADD MSTORE PUSH32 0x7373000000000000000000000000000000000000000000000000000000000000 PUSH1 0x20 DUP3 ADD MSTORE POP JUMP JUMPDEST PUSH1 0x0 PUSH2 0x3B7F PUSH1 0x22 DUP4 PUSH2 0x2F87 JUMP JUMPDEST SWAP2 POP PUSH2 0x3B8A DUP3 PUSH2 0x3B23 JUMP JUMPDEST PUSH1 0x40 DUP3 ADD SWAP1 POP SWAP2 SWAP1 POP JUMP JUMPDEST PUSH1 0x0 PUSH1 0x20 DUP3 ADD SWAP1 POP DUP2 DUP2 SUB PUSH1 0x0 DUP4 ADD MSTORE PUSH2 0x3BAE DUP2 PUSH2 0x3B72 JUMP JUMPDEST SWAP1 POP SWAP2 SWAP1 POP JUMP JUMPDEST PUSH1 0x0 PUSH2 0x3BC0 DUP3 PUSH2 0x3033 JUMP JUMPDEST SWAP2 POP PUSH2 0x3BCB DUP4 PUSH2 0x3033 JUMP JUMPDEST SWAP3 POP DUP3 DUP3 MUL PUSH2 0x3BD9 DUP2 PUSH2 0x3033 JUMP JUMPDEST SWAP2 POP DUP3 DUP3 DIV DUP5 EQ DUP4 ISZERO OR PUSH2 0x3BF0 JUMPI PUSH2 0x3BEF PUSH2 0x345A JUMP JUMPDEST JUMPDEST POP SWAP3 SWAP2 POP POP JUMP JUMPDEST PUSH32 0x4E487B7100000000000000000000000000000000000000000000000000000000 PUSH1 0x0 MSTORE PUSH1 0x12 PUSH1 0x4 MSTORE PUSH1 0x24 PUSH1 0x0 REVERT JUMPDEST PUSH1 0x0 PUSH2 0x3C31 DUP3 PUSH2 0x3033 JUMP JUMPDEST SWAP2 POP PUSH2 0x3C3C DUP4 PUSH2 0x3033 JUMP JUMPDEST SWAP3 POP DUP3 PUSH2 0x3C4C JUMPI PUSH2 0x3C4B PUSH2 0x3BF7 JUMP JUMPDEST JUMPDEST DUP3 DUP3 DIV SWAP1 POP SWAP3 SWAP2 POP POP JUMP JUMPDEST PUSH32 0x45524332303A20696E73756666696369656E7420616C6C6F77616E6365000000 PUSH1 0x0 DUP3 ADD MSTORE POP JUMP JUMPDEST PUSH1 0x0 PUSH2 0x3C8D PUSH1 0x1D DUP4 PUSH2 0x2F87 JUMP JUMPDEST SWAP2 POP PUSH2 0x3C98 DUP3 PUSH2 0x3C57 JUMP JUMPDEST PUSH1 0x20 DUP3 ADD SWAP1 POP SWAP2 SWAP1 POP JUMP JUMPDEST PUSH1 0x0 PUSH1 0x20 DUP3 ADD SWAP1 POP DUP2 DUP2 SUB PUSH1 0x0 DUP4 ADD MSTORE PUSH2 0x3CBC DUP2 PUSH2 0x3C80 JUMP JUMPDEST SWAP1 POP SWAP2 SWAP1 POP JUMP JUMPDEST PUSH32 0x45524332303A207472616E736665722066726F6D20746865207A65726F206164 PUSH1 0x0 DUP3 ADD MSTORE PUSH32 0x6472657373000000000000000000000000000000000000000000000000000000 PUSH1 0x20 DUP3 ADD MSTORE POP JUMP JUMPDEST PUSH1 0x0 PUSH2 0x3D1F PUSH1 0x25 DUP4 PUSH2 0x2F87 JUMP JUMPDEST SWAP2 POP PUSH2 0x3D2A DUP3 PUSH2 0x3CC3 JUMP JUMPDEST PUSH1 0x40 DUP3 ADD SWAP1 POP SWAP2 SWAP1 POP JUMP JUMPDEST PUSH1 0x0 PUSH1 0x20 DUP3 ADD SWAP1 POP DUP2 DUP2 SUB PUSH1 0x0 DUP4 ADD MSTORE PUSH2 0x3D4E DUP2 PUSH2 0x3D12 JUMP JUMPDEST SWAP1 POP SWAP2 SWAP1 POP JUMP JUMPDEST PUSH32 0x45524332303A207472616E7366657220746F20746865207A65726F2061646472 PUSH1 0x0 DUP3 ADD MSTORE PUSH32 0x6573730000000000000000000000000000000000000000000000000000000000 PUSH1 0x20 DUP3 ADD MSTORE POP JUMP JUMPDEST PUSH1 0x0 PUSH2 0x3DB1 PUSH1 0x23 DUP4 PUSH2 0x2F87 JUMP JUMPDEST SWAP2 POP PUSH2 0x3DBC DUP3 PUSH2 0x3D55 JUMP JUMPDEST PUSH1 0x40 DUP3 ADD SWAP1 POP SWAP2 SWAP1 POP JUMP JUMPDEST PUSH1 0x0 PUSH1 0x20 DUP3 ADD SWAP1 POP DUP2 DUP2 SUB PUSH1 0x0 DUP4 ADD MSTORE PUSH2 0x3DE0 DUP2 PUSH2 0x3DA4 JUMP JUMPDEST SWAP1 POP SWAP2 SWAP1 POP JUMP JUMPDEST PUSH32 0x5472616E7366657220616D6F756E74206D757374206265206772656174657220 PUSH1 0x0 DUP3 ADD MSTORE PUSH32 0x7468616E207A65726F0000000000000000000000000000000000000000000000 PUSH1 0x20 DUP3 ADD MSTORE POP JUMP JUMPDEST PUSH1 0x0 PUSH2 0x3E43 PUSH1 0x29 DUP4 PUSH2 0x2F87 JUMP JUMPDEST SWAP2 POP PUSH2 0x3E4E DUP3 PUSH2 0x3DE7 JUMP JUMPDEST PUSH1 0x40 DUP3 ADD SWAP1 POP SWAP2 SWAP1 POP JUMP JUMPDEST PUSH1 0x0 PUSH1 0x20 DUP3 ADD SWAP1 POP DUP2 DUP2 SUB PUSH1 0x0 DUP4 ADD MSTORE PUSH2 0x3E72 DUP2 PUSH2 0x3E36 JUMP JUMPDEST SWAP1 POP SWAP2 SWAP1 POP JUMP JUMPDEST PUSH32 0x53656E64657220697320626C61636B6C69737465640000000000000000000000 PUSH1 0x0 DUP3 ADD MSTORE POP JUMP JUMPDEST PUSH1 0x0 PUSH2 0x3EAF PUSH1 0x15 DUP4 PUSH2 0x2F87 JUMP JUMPDEST SWAP2 POP PUSH2 0x3EBA DUP3 PUSH2 0x3E79 JUMP JUMPDEST PUSH1 0x20 DUP3 ADD SWAP1 POP SWAP2 SWAP1 POP JUMP JUMPDEST PUSH1 0x0 PUSH1 0x20 DUP3 ADD SWAP1 POP DUP2 DUP2 SUB PUSH1 0x0 DUP4 ADD MSTORE PUSH2 0x3EDE DUP2 PUSH2 0x3EA2 JUMP JUMPDEST SWAP1 POP SWAP2 SWAP1 POP JUMP JUMPDEST PUSH32 0x526563697069656E7420697320626C61636B6C69737465640000000000000000 PUSH1 0x0 DUP3 ADD MSTORE POP JUMP JUMPDEST PUSH1 0x0 PUSH2 0x3F1B PUSH1 0x18 DUP4 PUSH2 0x2F87 JUMP JUMPDEST SWAP2 POP PUSH2 0x3F26 DUP3 PUSH2 0x3EE5 JUMP JUMPDEST PUSH1 0x20 DUP3 ADD SWAP1 POP SWAP2 SWAP1 POP JUMP JUMPDEST PUSH1 0x0 PUSH1 0x20 DUP3 ADD SWAP1 POP DUP2 DUP2 SUB PUSH1 0x0 DUP4 ADD MSTORE PUSH2 0x3F4A DUP2 PUSH2 0x3F0E JUMP JUMPDEST SWAP1 POP SWAP2 SWAP1 POP JUMP JUMPDEST PUSH32 0x54726164696E672069732064697361626C656400000000000000000000000000 PUSH1 0x0 DUP3 ADD MSTORE POP JUMP JUMPDEST PUSH1 0x0 PUSH2 0x3F87 PUSH1 0x13 DUP4 PUSH2 0x2F87 JUMP JUMPDEST SWAP2 POP PUSH2 0x3F92 DUP3 PUSH2 0x3F51 JUMP JUMPDEST PUSH1 0x20 DUP3 ADD SWAP1 POP SWAP2 SWAP1 POP JUMP JUMPDEST PUSH1 0x0 PUSH1 0x20 DUP3 ADD SWAP1 POP DUP2 DUP2 SUB PUSH1 0x0 DUP4 ADD MSTORE PUSH2 0x3FB6 DUP2 PUSH2 0x3F7A JUMP JUMPDEST SWAP1 POP SWAP2 SWAP1 POP JUMP JUMPDEST PUSH1 0x0 PUSH2 0x3FC8 DUP3 PUSH2 0x3033 JUMP JUMPDEST SWAP2 POP PUSH2 0x3FD3 DUP4 PUSH2 0x3033 JUMP JUMPDEST SWAP3 POP DUP3 DUP3 SUB SWAP1 POP DUP2 DUP2 GT ISZERO PUSH2 0x3FEB JUMPI PUSH2 0x3FEA PUSH2 0x345A JUMP JUMPDEST JUMPDEST SWAP3 SWAP2 POP POP JUMP JUMPDEST PUSH32 0x45524332303A207472616E7366657220616D6F756E7420657863656564732062 PUSH1 0x0 DUP3 ADD MSTORE PUSH32 0x616C616E63650000000000000000000000000000000000000000000000000000 PUSH1 0x20 DUP3 ADD MSTORE POP JUMP JUMPDEST PUSH1 0x0 PUSH2 0x404D PUSH1 0x26 DUP4 PUSH2 0x2F87 JUMP JUMPDEST SWAP2 POP PUSH2 0x4058 DUP3 PUSH2 0x3FF1 JUMP JUMPDEST PUSH1 0x40 DUP3 ADD SWAP1 POP SWAP2 SWAP1 POP JUMP JUMPDEST PUSH1 0x0 PUSH1 0x20 DUP3 ADD SWAP1 POP DUP2 DUP2 SUB PUSH1 0x0 DUP4 ADD MSTORE PUSH2 0x407C DUP2 PUSH2 0x4040 JUMP JUMPDEST SWAP1 POP SWAP2 SWAP1 POP JUMP JUMPDEST PUSH1 0x0 DUP2 SWAP1 POP SWAP3 SWAP2 POP POP JUMP JUMPDEST POP JUMP JUMPDEST PUSH1 0x0 PUSH2 0x409E PUSH1 0x0 DUP4 PUSH2 0x4083 JUMP JUMPDEST SWAP2 POP PUSH2 0x40A9 DUP3 PUSH2 0x408E JUMP JUMPDEST PUSH1 0x0 DUP3 ADD SWAP1 POP SWAP2 SWAP1 POP JUMP JUMPDEST PUSH1 0x0 PUSH2 0x40BF DUP3 PUSH2 0x4091 JUMP JUMPDEST SWAP2 POP DUP2 SWAP1 POP SWAP2 SWAP1 POP JUMP JUMPDEST PUSH32 0x45524332303A206275726E2066726F6D20746865207A65726F20616464726573 PUSH1 0x0 DUP3 ADD MSTORE PUSH32 0x7300000000000000000000000000000000000000000000000000000000000000 PUSH1 0x20 DUP3 ADD MSTORE POP JUMP JUMPDEST PUSH1 0x0 PUSH2 0x4125 PUSH1 0x21 DUP4 PUSH2 0x2F87 JUMP JUMPDEST SWAP2 POP PUSH2 0x4130 DUP3 PUSH2 0x40C9 JUMP JUMPDEST PUSH1 0x40 DUP3 ADD SWAP1 POP SWAP2 SWAP1 POP JUMP JUMPDEST PUSH1 0x0 PUSH1 0x20 DUP3 ADD SWAP1 POP DUP2 DUP2 SUB PUSH1 0x0 DUP4 ADD MSTORE PUSH2 0x4154 DUP2 PUSH2 0x4118 JUMP JUMPDEST SWAP1 POP SWAP2 SWAP1 POP JUMP JUMPDEST PUSH32 0x45524332303A206275726E20616D6F756E7420657863656564732062616C616E PUSH1 0x0 DUP3 ADD MSTORE PUSH32 0x6365000000000000000000000000000000000000000000000000000000000000 PUSH1 0x20 DUP3 ADD MSTORE POP JUMP JUMPDEST PUSH1 0x0 PUSH2 0x41B7 PUSH1 0x22 DUP4 PUSH2 0x2F87 JUMP JUMPDEST SWAP2 POP PUSH2 0x41C2 DUP3 PUSH2 0x415B JUMP JUMPDEST PUSH1 0x40 DUP3 ADD SWAP1 POP SWAP2 SWAP1 POP JUMP JUMPDEST PUSH1 0x0 PUSH1 0x20 DUP3 ADD SWAP1 POP DUP2 DUP2 SUB PUSH1 0x0 DUP4 ADD MSTORE PUSH2 0x41E6 DUP2 PUSH2 0x41AA JUMP JUMPDEST SWAP1 POP SWAP2 SWAP1 POP JUMP JUMPDEST PUSH32 0x4E487B7100000000000000000000000000000000000000000000000000000000 PUSH1 0x0 MSTORE PUSH1 0x41 PUSH1 0x4 MSTORE PUSH1 0x24 PUSH1 0x0 REVERT JUMPDEST PUSH32 0x4E487B7100000000000000000000000000000000000000000000000000000000 PUSH1 0x0 MSTORE PUSH1 0x32 PUSH1 0x4 MSTORE PUSH1 0x24 PUSH1 0x0 REVERT JUMPDEST PUSH1 0x0 DUP2 MLOAD SWAP1 POP PUSH2 0x425A DUP2 PUSH2 0x30C8 JUMP JUMPDEST SWAP3 SWAP2 POP POP JUMP JUMPDEST PUSH1 0x0 PUSH1 0x20 DUP3 DUP5 SUB SLT ISZERO PUSH2 0x4276 JUMPI PUSH2 0x4275 PUSH2 0x302E JUMP JUMPDEST JUMPDEST PUSH1 0x0 PUSH2 0x4284 DUP5 DUP3 DUP6 ADD PUSH2 0x424B JUMP JUMPDEST SWAP2 POP POP SWAP3 SWAP2 POP POP JUMP JUMPDEST PUSH1 0x0 DUP2 SWAP1 POP SWAP2 SWAP1 POP JUMP JUMPDEST PUSH1 0x0 PUSH2 0x42B2 PUSH2 0x42AD PUSH2 0x42A8 DUP5 PUSH2 0x428D JUMP JUMPDEST PUSH2 0x3194 JUMP JUMPDEST PUSH2 0x3033 JUMP JUMPDEST SWAP1 POP SWAP2 SWAP1 POP JUMP JUMPDEST PUSH2 0x42C2 DUP2 PUSH2 0x4297 JUMP JUMPDEST DUP3 MSTORE POP POP JUMP JUMPDEST PUSH1 0x0 DUP2 MLOAD SWAP1 POP SWAP2 SWAP1 POP JUMP JUMPDEST PUSH1 0x0 DUP3 DUP3 MSTORE PUSH1 0x20 DUP3 ADD SWAP1 POP SWAP3 SWAP2 POP POP JUMP JUMPDEST PUSH1 0x0 DUP2 SWAP1 POP PUSH1 0x20 DUP3 ADD SWAP1 POP SWAP2 SWAP1 POP JUMP JUMPDEST PUSH2 0x42FD DUP2 PUSH2 0x30B6 JUMP JUMPDEST DUP3 MSTORE POP POP JUMP JUMPDEST PUSH1 0x0 PUSH2 0x430F DUP4 DUP4 PUSH2 0x42F4 JUMP JUMPDEST PUSH1 0x20 DUP4 ADD SWAP1 POP SWAP3 SWAP2 POP POP JUMP JUMPDEST PUSH1 0x0 PUSH1 0x20 DUP3 ADD SWAP1 POP SWAP2 SWAP1 POP JUMP JUMPDEST PUSH1 0x0 PUSH2 0x4333 DUP3 PUSH2 0x42C8 JUMP JUMPDEST PUSH2 0x433D DUP2 DUP6 PUSH2 0x42D3 JUMP JUMPDEST SWAP4 POP PUSH2 0x4348 DUP4 PUSH2 0x42E4 JUMP JUMPDEST DUP1 PUSH1 0x0 JUMPDEST DUP4 DUP2 LT ISZERO PUSH2 0x4379 JUMPI DUP2 MLOAD PUSH2 0x4360 DUP9 DUP3 PUSH2 0x4303 JUMP JUMPDEST SWAP8 POP PUSH2 0x436B DUP4 PUSH2 0x431B JUMP JUMPDEST SWAP3 POP POP PUSH1 0x1 DUP2 ADD SWAP1 POP PUSH2 0x434C JUMP JUMPDEST POP DUP6 SWAP4 POP POP POP POP SWAP3 SWAP2 POP POP JUMP JUMPDEST PUSH1 0x0 PUSH1 0xA0 DUP3 ADD SWAP1 POP PUSH2 0x439B PUSH1 0x0 DUP4 ADD DUP9 PUSH2 0x316A JUMP JUMPDEST PUSH2 0x43A8 PUSH1 0x20 DUP4 ADD DUP8 PUSH2 0x42B9 JUMP JUMPDEST DUP2 DUP2 SUB PUSH1 0x40 DUP4 ADD MSTORE PUSH2 0x43BA DUP2 DUP7 PUSH2 0x4328 JUMP JUMPDEST SWAP1 POP PUSH2 0x43C9 PUSH1 0x60 DUP4 ADD DUP6 PUSH2 0x331E JUMP JUMPDEST PUSH2 0x43D6 PUSH1 0x80 DUP4 ADD DUP5 PUSH2 0x316A JUMP JUMPDEST SWAP7 SWAP6 POP POP POP POP POP POP JUMP JUMPDEST PUSH1 0x0 PUSH1 0xC0 DUP3 ADD SWAP1 POP PUSH2 0x43F5 PUSH1 0x0 DUP4 ADD DUP10 PUSH2 0x331E JUMP JUMPDEST PUSH2 0x4402 PUSH1 0x20 DUP4 ADD DUP9 PUSH2 0x316A JUMP JUMPDEST PUSH2 0x440F PUSH1 0x40 DUP4 ADD DUP8 PUSH2 0x42B9 JUMP JUMPDEST PUSH2 0x441C PUSH1 0x60 DUP4 ADD DUP7 PUSH2 0x42B9 JUMP JUMPDEST PUSH2 0x4429 PUSH1 0x80 DUP4 ADD DUP6 PUSH2 0x331E JUMP JUMPDEST PUSH2 0x4436 PUSH1 0xA0 DUP4 ADD DUP5 PUSH2 0x316A JUMP JUMPDEST SWAP8 SWAP7 POP POP POP POP POP POP POP JUMP JUMPDEST PUSH1 0x0 DUP2 MLOAD SWAP1 POP PUSH2 0x4450 DUP2 PUSH2 0x303D JUMP JUMPDEST SWAP3 SWAP2 POP POP JUMP JUMPDEST PUSH1 0x0 DUP1 PUSH1 0x0 PUSH1 0x60 DUP5 DUP7 SUB SLT ISZERO PUSH2 0x446F JUMPI PUSH2 0x446E PUSH2 0x302E JUMP JUMPDEST JUMPDEST PUSH1 0x0 PUSH2 0x447D DUP7 DUP3 DUP8 ADD PUSH2 0x4441 JUMP JUMPDEST SWAP4 POP POP PUSH1 0x20 PUSH2 0x448E DUP7 DUP3 DUP8 ADD PUSH2 0x4441 JUMP JUMPDEST SWAP3 POP POP PUSH1 0x40 PUSH2 0x449F DUP7 DUP3 DUP8 ADD PUSH2 0x4441 JUMP JUMPDEST SWAP2 POP POP SWAP3 POP SWAP3 POP SWAP3 JUMP INVALID LOG2 PUSH5 0x6970667358 0x22 SLT KECCAK256 0xBB 0xD6 PUSH31 0x43CDD6361E4DB481806BAEE530A647E3AAE76540F6A1D1C8535D9263A16473 PUSH16 0x6C634300081300330000000000000000 "
				},
				"gasEstimates": {
					"creation": {
						"codeDepositCost": "3526200",
						"executionCost": "infinite",
						"totalCost": "infinite"
					},
					"external": {
						"": "264",
						"_buyBurnTaxPercentage()": "2586",
						"_buyLiquidityShare()": "2541",
						"_buyLiquidityTaxPercentage()": "2497",
						"_buyUFShare()": "2498",
						"_buyUFTaxPercentage()": "2562",
						"_isExcludedFromFee(address)": "2979",
						"_sellBurnTaxPercentage()": "2541",
						"_sellLiquidityShare()": "2497",
						"_sellLiquidityTaxPercentage()": "2541",
						"_sellUFShare()": "2518",
						"_sellUFTaxPercentage()": "2498",
						"_taxThreshold()": "2540",
						"_totalTaxPercent()": "2497",
						"_transferBurnTaxPercentage()": "2541",
						"_transferLiquidityShare()": "2563",
						"_transferLiquidityTaxPercentage()": "2561",
						"_uniswapPair()": "2604",
						"addToBlacklist(address)": "infinite",
						"allowance(address,address)": "infinite",
						"approve(address,uint256)": "infinite",
						"automatedMarketMakerPairs(address)": "2935",
						"balanceOf(address)": "2931",
						"blacklisted(address)": "2934",
						"burn_disable()": "2610",
						"decimals()": "477",
						"disableBurn(bool)": "27106",
						"enableTrade()": "26722",
						"name()": "infinite",
						"numBlocksForBlacklist()": "2496",
						"owner()": "2589",
						"pauseTrade()": "26785",
						"recoverETHfromContract()": "infinite",
						"renounceOwnership()": "30510",
						"setAutomatedMarketMakerPair(address,bool)": "29571",
						"setBuyBurnPercentage(uint256)": "infinite",
						"setBuyLiquidityPercentage(uint256)": "infinite",
						"setBuyUserFoundationPercentage(uint256)": "infinite",
						"setExcludedFromFee(address,bool)": "27322",
						"setSellBurnPercentage(uint256)": "infinite",
						"setSellLiquidityPercentage(uint256)": "infinite",
						"setSellUserFoundationPercentage(uint256)": "infinite",
						"setTaxThreshold(uint256)": "27036",
						"setTransferBurnPercentage(uint256)": "infinite",
						"setTransferLiquidityPercentage(uint256)": "infinite",
						"setUserFoundationWallet(address)": "27089",
						"swapEnabled()": "2589",
						"symbol()": "infinite",
						"totalSupply()": "2550",
						"trade_open()": "2627",
						"transfer(address,uint256)": "infinite",
						"transferFrom(address,address,uint256)": "infinite",
						"transferOwnership(address)": "30832",
						"uniswapV2Router()": "infinite",
						"userFoundation()": "2647"
					},
					"internal": {
						"_afterTokenTransfer(address,address,uint256)": "15",
						"_approve(address,address,uint256)": "infinite",
						"_beforeTokenTransfer(address,address,uint256)": "15",
						"_burn(address,uint256)": "infinite",
						"_calculateTax(uint256,uint256)": "infinite",
						"_setAutomatedMarketMakerPair(address,bool)": "24376",
						"_spendAllowance(address,address,uint256)": "infinite",
						"_transfer(address,address,uint256)": "infinite",
						"_transferTokens(address,address,uint256)": "infinite",
						"addLiquidity(uint256,uint256)": "infinite",
						"swapAndLiquify()": "infinite",
						"swapTokensForEth(uint256)": "infinite",
						"updateShares()": "infinite"
					}
				},
				"methodIdentifiers": {
					"_buyBurnTaxPercentage()": "10c5b4c3",
					"_buyLiquidityShare()": "5fa1f783",
					"_buyLiquidityTaxPercentage()": "46c9ee3e",
					"_buyUFShare()": "3f156b62",
					"_buyUFTaxPercentage()": "67d76508",
					"_isExcludedFromFee(address)": "768dc710",
					"_sellBurnTaxPercentage()": "ba61f301",
					"_sellLiquidityShare()": "53d01d3e",
					"_sellLiquidityTaxPercentage()": "8d9d142c",
					"_sellUFShare()": "c844d32d",
					"_sellUFTaxPercentage()": "137461dc",
					"_taxThreshold()": "67b34e01",
					"_totalTaxPercent()": "7f2e6ccb",
					"_transferBurnTaxPercentage()": "4dcb39a0",
					"_transferLiquidityShare()": "4e08915f",
					"_transferLiquidityTaxPercentage()": "ffcac76d",
					"_uniswapPair()": "4bf28fd0",
					"addToBlacklist(address)": "44337ea1",
					"allowance(address,address)": "dd62ed3e",
					"approve(address,uint256)": "095ea7b3",
					"automatedMarketMakerPairs(address)": "b62496f5",
					"balanceOf(address)": "70a08231",
					"blacklisted(address)": "dbac26e9",
					"burn_disable()": "6717ea65",
					"decimals()": "313ce567",
					"disableBurn(bool)": "46190503",
					"enableTrade()": "0099d386",
					"name()": "06fdde03",
					"numBlocksForBlacklist()": "c51abc59",
					"owner()": "8da5cb5b",
					"pauseTrade()": "f3d1f026",
					"recoverETHfromContract()": "ce831ed5",
					"renounceOwnership()": "715018a6",
					"setAutomatedMarketMakerPair(address,bool)": "9a7a23d6",
					"setBuyBurnPercentage(uint256)": "8683171f",
					"setBuyLiquidityPercentage(uint256)": "2e860462",
					"setBuyUserFoundationPercentage(uint256)": "105183e5",
					"setExcludedFromFee(address,bool)": "6612e66f",
					"setSellBurnPercentage(uint256)": "56566c7f",
					"setSellLiquidityPercentage(uint256)": "6bf74354",
					"setSellUserFoundationPercentage(uint256)": "d8bfd198",
					"setTaxThreshold(uint256)": "07a212be",
					"setTransferBurnPercentage(uint256)": "235c6609",
					"setTransferLiquidityPercentage(uint256)": "e47f47a6",
					"setUserFoundationWallet(address)": "aaeeaa89",
					"swapEnabled()": "6ddd1713",
					"symbol()": "95d89b41",
					"totalSupply()": "18160ddd",
					"trade_open()": "7aab5d9b",
					"transfer(address,uint256)": "a9059cbb",
					"transferFrom(address,address,uint256)": "23b872dd",
					"transferOwnership(address)": "f2fde38b",
					"uniswapV2Router()": "1694505e",
					"userFoundation()": "d4927eb2"
				}
			},
			"storageLayout": {
				"storage": [
					{
						"astId": 26,
						"contract": "USR.sol:USRToken",
						"label": "_owner",
						"offset": 0,
						"slot": "0",
						"type": "t_address"
					},
					{
						"astId": 441,
						"contract": "USR.sol:USRToken",
						"label": "_totalSupply",
						"offset": 0,
						"slot": "1",
						"type": "t_uint256"
					},
					{
						"astId": 451,
						"contract": "USR.sol:USRToken",
						"label": "_taxThreshold",
						"offset": 0,
						"slot": "2",
						"type": "t_uint256"
					},
					{
						"astId": 455,
						"contract": "USR.sol:USRToken",
						"label": "_balances",
						"offset": 0,
						"slot": "3",
						"type": "t_mapping(t_address,t_uint256)"
					},
					{
						"astId": 461,
						"contract": "USR.sol:USRToken",
						"label": "_allowances",
						"offset": 0,
						"slot": "4",
						"type": "t_mapping(t_address,t_mapping(t_address,t_uint256))"
					},
					{
						"astId": 465,
						"contract": "USR.sol:USRToken",
						"label": "blacklisted",
						"offset": 0,
						"slot": "5",
						"type": "t_mapping(t_address,t_bool)"
					},
					{
						"astId": 469,
						"contract": "USR.sol:USRToken",
						"label": "automatedMarketMakerPairs",
						"offset": 0,
						"slot": "6",
						"type": "t_mapping(t_address,t_bool)"
					},
					{
						"astId": 473,
						"contract": "USR.sol:USRToken",
						"label": "_isExcludedFromFee",
						"offset": 0,
						"slot": "7",
						"type": "t_mapping(t_address,t_bool)"
					},
					{
						"astId": 475,
						"contract": "USR.sol:USRToken",
						"label": "trade_open",
						"offset": 0,
						"slot": "8",
						"type": "t_bool"
					},
					{
						"astId": 477,
						"contract": "USR.sol:USRToken",
						"label": "currentBlockNumber",
						"offset": 0,
						"slot": "9",
						"type": "t_uint256"
					},
					{
						"astId": 480,
						"contract": "USR.sol:USRToken",
						"label": "numBlocksForBlacklist",
						"offset": 0,
						"slot": "10",
						"type": "t_uint256"
					},
					{
						"astId": 482,
						"contract": "USR.sol:USRToken",
						"label": "userFoundation",
						"offset": 0,
						"slot": "11",
						"type": "t_address"
					},
					{
						"astId": 485,
						"contract": "USR.sol:USRToken",
						"label": "_buyUFTaxPercentage",
						"offset": 0,
						"slot": "12",
						"type": "t_uint256"
					},
					{
						"astId": 488,
						"contract": "USR.sol:USRToken",
						"label": "_buyLiquidityTaxPercentage",
						"offset": 0,
						"slot": "13",
						"type": "t_uint256"
					},
					{
						"astId": 491,
						"contract": "USR.sol:USRToken",
						"label": "_buyBurnTaxPercentage",
						"offset": 0,
						"slot": "14",
						"type": "t_uint256"
					},
					{
						"astId": 494,
						"contract": "USR.sol:USRToken",
						"label": "_sellUFTaxPercentage",
						"offset": 0,
						"slot": "15",
						"type": "t_uint256"
					},
					{
						"astId": 497,
						"contract": "USR.sol:USRToken",
						"label": "_sellLiquidityTaxPercentage",
						"offset": 0,
						"slot": "16",
						"type": "t_uint256"
					},
					{
						"astId": 500,
						"contract": "USR.sol:USRToken",
						"label": "_sellBurnTaxPercentage",
						"offset": 0,
						"slot": "17",
						"type": "t_uint256"
					},
					{
						"astId": 503,
						"contract": "USR.sol:USRToken",
						"label": "_transferLiquidityTaxPercentage",
						"offset": 0,
						"slot": "18",
						"type": "t_uint256"
					},
					{
						"astId": 506,
						"contract": "USR.sol:USRToken",
						"label": "_transferBurnTaxPercentage",
						"offset": 0,
						"slot": "19",
						"type": "t_uint256"
					},
					{
						"astId": 509,
						"contract": "USR.sol:USRToken",
						"label": "_buyUFShare",
						"offset": 0,
						"slot": "20",
						"type": "t_uint256"
					},
					{
						"astId": 512,
						"contract": "USR.sol:USRToken",
						"label": "_buyLiquidityShare",
						"offset": 0,
						"slot": "21",
						"type": "t_uint256"
					},
					{
						"astId": 515,
						"contract": "USR.sol:USRToken",
						"label": "_sellUFShare",
						"offset": 0,
						"slot": "22",
						"type": "t_uint256"
					},
					{
						"astId": 518,
						"contract": "USR.sol:USRToken",
						"label": "_sellLiquidityShare",
						"offset": 0,
						"slot": "23",
						"type": "t_uint256"
					},
					{
						"astId": 521,
						"contract": "USR.sol:USRToken",
						"label": "_transferLiquidityShare",
						"offset": 0,
						"slot": "24",
						"type": "t_uint256"
					},
					{
						"astId": 523,
						"contract": "USR.sol:USRToken",
						"label": "_totalTaxPercent",
						"offset": 0,
						"slot": "25",
						"type": "t_uint256"
					},
					{
						"astId": 526,
						"contract": "USR.sol:USRToken",
						"label": "uniswapV2Router",
						"offset": 0,
						"slot": "26",
						"type": "t_contract(IUniswapV2Router02)420"
					},
					{
						"astId": 528,
						"contract": "USR.sol:USRToken",
						"label": "_uniswapPair",
						"offset": 0,
						"slot": "27",
						"type": "t_address"
					},
					{
						"astId": 530,
						"contract": "USR.sol:USRToken",
						"label": "swapping",
						"offset": 20,
						"slot": "27",
						"type": "t_bool"
					},
					{
						"astId": 533,
						"contract": "USR.sol:USRToken",
						"label": "swapEnabled",
						"offset": 21,
						"slot": "27",
						"type": "t_bool"
					},
					{
						"astId": 536,
						"contract": "USR.sol:USRToken",
						"label": "burn_disable",
						"offset": 22,
						"slot": "27",
						"type": "t_bool"
					}
				],
				"types": {
					"t_address": {
						"encoding": "inplace",
						"label": "address",
						"numberOfBytes": "20"
					},
					"t_bool": {
						"encoding": "inplace",
						"label": "bool",
						"numberOfBytes": "1"
					},
					"t_contract(IUniswapV2Router02)420": {
						"encoding": "inplace",
						"label": "contract IUniswapV2Router02",
						"numberOfBytes": "20"
					},
					"t_mapping(t_address,t_bool)": {
						"encoding": "mapping",
						"key": "t_address",
						"label": "mapping(address => bool)",
						"numberOfBytes": "32",
						"value": "t_bool"
					},
					"t_mapping(t_address,t_mapping(t_address,t_uint256))": {
						"encoding": "mapping",
						"key": "t_address",
						"label": "mapping(address => mapping(address => uint256))",
						"numberOfBytes": "32",
						"value": "t_mapping(t_address,t_uint256)"
					},
					"t_mapping(t_address,t_uint256)": {
						"encoding": "mapping",
						"key": "t_address",
						"label": "mapping(address => uint256)",
						"numberOfBytes": "32",
						"value": "t_uint256"
					},
					"t_uint256": {
						"encoding": "inplace",
						"label": "uint256",
						"numberOfBytes": "32"
					}
				}
			},
			"userdoc": {
				"kind": "user",
				"methods": {},
				"version": 1
			}
		}
	}
}