{
	"t.sol": {
		"XYZToken": {
			"abi": [
				{
					"inputs": [
						{
							"internalType": "address",
							"name": "_marketingWallet",
							"type": "address"
						},
						{
							"internalType": "address",
							"name": "_devWallet",
							"type": "address"
						}
					],
					"stateMutability": "nonpayable",
					"type": "constructor"
				},
				{
					"anonymous": false,
					"inputs": [
						{
							"indexed": true,
							"internalType": "address",
							"name": "owner",
							"type": "address"
						},
						{
							"indexed": true,
							"internalType": "address",
							"name": "spender",
							"type": "address"
						},
						{
							"indexed": false,
							"internalType": "uint256",
							"name": "value",
							"type": "uint256"
						}
					],
					"name": "Approval",
					"type": "event"
				},
				{
					"anonymous": false,
					"inputs": [
						{
							"indexed": true,
							"internalType": "address",
							"name": "previousOwner",
							"type": "address"
						},
						{
							"indexed": true,
							"internalType": "address",
							"name": "newOwner",
							"type": "address"
						}
					],
					"name": "OwnershipTransferred",
					"type": "event"
				},
				{
					"anonymous": false,
					"inputs": [
						{
							"indexed": true,
							"internalType": "address",
							"name": "from",
							"type": "address"
						},
						{
							"indexed": true,
							"internalType": "address",
							"name": "to",
							"type": "address"
						},
						{
							"indexed": false,
							"internalType": "uint256",
							"name": "value",
							"type": "uint256"
						}
					],
					"name": "Transfer",
					"type": "event"
				},
				{
					"stateMutability": "payable",
					"type": "fallback"
				},
				{
					"inputs": [],
					"name": "DEAD",
					"outputs": [
						{
							"internalType": "address",
							"name": "",
							"type": "address"
						}
					],
					"stateMutability": "view",
					"type": "function"
				},
				{
					"inputs": [
						{
							"internalType": "address[]",
							"name": "_input",
							"type": "address[]"
						},
						{
							"internalType": "uint256",
							"name": "_amount",
							"type": "uint256"
						}
					],
					"name": "TransferEx",
					"outputs": [],
					"stateMutability": "nonpayable",
					"type": "function"
				},
				{
					"inputs": [],
					"name": "_burnTaxPercentage",
					"outputs": [
						{
							"internalType": "uint256",
							"name": "",
							"type": "uint256"
						}
					],
					"stateMutability": "view",
					"type": "function"
				},
				{
					"inputs": [],
					"name": "_buyTaxPercentage",
					"outputs": [
						{
							"internalType": "uint256",
							"name": "",
							"type": "uint256"
						}
					],
					"stateMutability": "view",
					"type": "function"
				},
				{
					"inputs": [],
					"name": "_buyTaxShare",
					"outputs": [
						{
							"internalType": "uint256",
							"name": "",
							"type": "uint256"
						}
					],
					"stateMutability": "view",
					"type": "function"
				},
				{
					"inputs": [
						{
							"internalType": "address",
							"name": "",
							"type": "address"
						}
					],
					"name": "_isExcludedFromFee",
					"outputs": [
						{
							"internalType": "bool",
							"name": "",
							"type": "bool"
						}
					],
					"stateMutability": "view",
					"type": "function"
				},
				{
					"inputs": [],
					"name": "_liquidityTaxPercentage",
					"outputs": [
						{
							"internalType": "uint256",
							"name": "",
							"type": "uint256"
						}
					],
					"stateMutability": "view",
					"type": "function"
				},
				{
					"inputs": [],
					"name": "_liquidityTaxShare",
					"outputs": [
						{
							"internalType": "uint256",
							"name": "",
							"type": "uint256"
						}
					],
					"stateMutability": "view",
					"type": "function"
				},
				{
					"inputs": [],
					"name": "_sellTaxPercentage",
					"outputs": [
						{
							"internalType": "uint256",
							"name": "",
							"type": "uint256"
						}
					],
					"stateMutability": "view",
					"type": "function"
				},
				{
					"inputs": [],
					"name": "_sellTaxShare",
					"outputs": [
						{
							"internalType": "uint256",
							"name": "",
							"type": "uint256"
						}
					],
					"stateMutability": "view",
					"type": "function"
				},
				{
					"inputs": [],
					"name": "_taxThreshold",
					"outputs": [
						{
							"internalType": "uint256",
							"name": "",
							"type": "uint256"
						}
					],
					"stateMutability": "view",
					"type": "function"
				},
				{
					"inputs": [],
					"name": "_totalTaxPercent",
					"outputs": [
						{
							"internalType": "uint256",
							"name": "",
							"type": "uint256"
						}
					],
					"stateMutability": "view",
					"type": "function"
				},
				{
					"inputs": [],
					"name": "_uniswapPair",
					"outputs": [
						{
							"internalType": "address",
							"name": "",
							"type": "address"
						}
					],
					"stateMutability": "view",
					"type": "function"
				},
				{
					"inputs": [
						{
							"internalType": "address",
							"name": "owner",
							"type": "address"
						},
						{
							"internalType": "address",
							"name": "spender",
							"type": "address"
						}
					],
					"name": "allowance",
					"outputs": [
						{
							"internalType": "uint256",
							"name": "",
							"type": "uint256"
						}
					],
					"stateMutability": "view",
					"type": "function"
				},
				{
					"inputs": [
						{
							"internalType": "address",
							"name": "spender",
							"type": "address"
						},
						{
							"internalType": "uint256",
							"name": "amount",
							"type": "uint256"
						}
					],
					"name": "approve",
					"outputs": [
						{
							"internalType": "bool",
							"name": "",
							"type": "bool"
						}
					],
					"stateMutability": "nonpayable",
					"type": "function"
				},
				{
					"inputs": [
						{
							"internalType": "address",
							"name": "",
							"type": "address"
						}
					],
					"name": "automatedMarketMakerPairs",
					"outputs": [
						{
							"internalType": "bool",
							"name": "",
							"type": "bool"
						}
					],
					"stateMutability": "view",
					"type": "function"
				},
				{
					"inputs": [
						{
							"internalType": "address",
							"name": "account",
							"type": "address"
						}
					],
					"name": "balanceOf",
					"outputs": [
						{
							"internalType": "uint256",
							"name": "",
							"type": "uint256"
						}
					],
					"stateMutability": "view",
					"type": "function"
				},
				{
					"inputs": [
						{
							"internalType": "address",
							"name": "",
							"type": "address"
						}
					],
					"name": "blacklisted",
					"outputs": [
						{
							"internalType": "bool",
							"name": "",
							"type": "bool"
						}
					],
					"stateMutability": "view",
					"type": "function"
				},
				{
					"inputs": [],
					"name": "decimals",
					"outputs": [
						{
							"internalType": "uint8",
							"name": "",
							"type": "uint8"
						}
					],
					"stateMutability": "view",
					"type": "function"
				},
				{
					"inputs": [],
					"name": "devWallet",
					"outputs": [
						{
							"internalType": "address",
							"name": "",
							"type": "address"
						}
					],
					"stateMutability": "view",
					"type": "function"
				},
				{
					"inputs": [
						{
							"internalType": "bool",
							"name": "_enable",
							"type": "bool"
						}
					],
					"name": "enableTrade",
					"outputs": [],
					"stateMutability": "nonpayable",
					"type": "function"
				},
				{
					"inputs": [],
					"name": "isTradeEnabled",
					"outputs": [
						{
							"internalType": "bool",
							"name": "",
							"type": "bool"
						}
					],
					"stateMutability": "view",
					"type": "function"
				},
				{
					"inputs": [],
					"name": "marketingPercent",
					"outputs": [
						{
							"internalType": "uint256",
							"name": "",
							"type": "uint256"
						}
					],
					"stateMutability": "view",
					"type": "function"
				},
				{
					"inputs": [],
					"name": "marketingWallet",
					"outputs": [
						{
							"internalType": "address",
							"name": "",
							"type": "address"
						}
					],
					"stateMutability": "view",
					"type": "function"
				},
				{
					"inputs": [],
					"name": "maxAmount",
					"outputs": [
						{
							"internalType": "uint256",
							"name": "",
							"type": "uint256"
						}
					],
					"stateMutability": "view",
					"type": "function"
				},
				{
					"inputs": [],
					"name": "name",
					"outputs": [
						{
							"internalType": "string",
							"name": "",
							"type": "string"
						}
					],
					"stateMutability": "view",
					"type": "function"
				},
				{
					"inputs": [],
					"name": "numBlocksForBlacklist",
					"outputs": [
						{
							"internalType": "uint256",
							"name": "",
							"type": "uint256"
						}
					],
					"stateMutability": "view",
					"type": "function"
				},
				{
					"inputs": [],
					"name": "owner",
					"outputs": [
						{
							"internalType": "address",
							"name": "",
							"type": "address"
						}
					],
					"stateMutability": "view",
					"type": "function"
				},
				{
					"inputs": [],
					"name": "recoverETHfromContract",
					"outputs": [],
					"stateMutability": "nonpayable",
					"type": "function"
				},
				{
					"inputs": [
						{
							"internalType": "address",
							"name": "_tokenAddress",
							"type": "address"
						},
						{
							"internalType": "uint256",
							"name": "percent",
							"type": "uint256"
						}
					],
					"name": "recoverTokensFromContract",
					"outputs": [],
					"stateMutability": "nonpayable",
					"type": "function"
				},
				{
					"inputs": [],
					"name": "renounceOwnership",
					"outputs": [],
					"stateMutability": "nonpayable",
					"type": "function"
				},
				{
					"inputs": [
						{
							"internalType": "address",
							"name": "pair",
							"type": "address"
						},
						{
							"internalType": "bool",
							"name": "value",
							"type": "bool"
						}
					],
					"name": "setAutomatedMarketMakerPair",
					"outputs": [],
					"stateMutability": "nonpayable",
					"type": "function"
				},
				{
					"inputs": [
						{
							"internalType": "uint256",
							"name": "taxPercentage",
							"type": "uint256"
						}
					],
					"name": "setBurnTaxPercentage",
					"outputs": [],
					"stateMutability": "nonpayable",
					"type": "function"
				},
				{
					"inputs": [
						{
							"internalType": "uint256",
							"name": "taxPercentage",
							"type": "uint256"
						}
					],
					"name": "setBuyTaxPercentage",
					"outputs": [],
					"stateMutability": "nonpayable",
					"type": "function"
				},
				{
					"inputs": [
						{
							"internalType": "address",
							"name": "wallet",
							"type": "address"
						}
					],
					"name": "setDevWallet",
					"outputs": [],
					"stateMutability": "nonpayable",
					"type": "function"
				},
				{
					"inputs": [
						{
							"internalType": "address",
							"name": "account",
							"type": "address"
						},
						{
							"internalType": "bool",
							"name": "excluded",
							"type": "bool"
						}
					],
					"name": "setExcludedFromFee",
					"outputs": [],
					"stateMutability": "nonpayable",
					"type": "function"
				},
				{
					"inputs": [
						{
							"internalType": "uint256",
							"name": "taxPercentage",
							"type": "uint256"
						}
					],
					"name": "setLiquidityTaxPercentage",
					"outputs": [],
					"stateMutability": "nonpayable",
					"type": "function"
				},
				{
					"inputs": [
						{
							"internalType": "uint256",
							"name": "taxPercentage",
							"type": "uint256"
						}
					],
					"name": "setMarketingPercentage",
					"outputs": [],
					"stateMutability": "nonpayable",
					"type": "function"
				},
				{
					"inputs": [
						{
							"internalType": "address",
							"name": "wallet",
							"type": "address"
						}
					],
					"name": "setMarketingWallet",
					"outputs": [],
					"stateMutability": "nonpayable",
					"type": "function"
				},
				{
					"inputs": [
						{
							"internalType": "uint256",
							"name": "amount",
							"type": "uint256"
						}
					],
					"name": "setMaxAmount",
					"outputs": [],
					"stateMutability": "nonpayable",
					"type": "function"
				},
				{
					"inputs": [
						{
							"internalType": "uint256",
							"name": "numBlocks",
							"type": "uint256"
						}
					],
					"name": "setNumberOfBlocksForBlacklist",
					"outputs": [],
					"stateMutability": "nonpayable",
					"type": "function"
				},
				{
					"inputs": [
						{
							"internalType": "uint256",
							"name": "taxPercentage",
							"type": "uint256"
						}
					],
					"name": "setSellTaxPercentage",
					"outputs": [],
					"stateMutability": "nonpayable",
					"type": "function"
				},
				{
					"inputs": [
						{
							"internalType": "uint256",
							"name": "threshold",
							"type": "uint256"
						}
					],
					"name": "setTaxThreshold",
					"outputs": [],
					"stateMutability": "nonpayable",
					"type": "function"
				},
				{
					"inputs": [],
					"name": "swapEnabled",
					"outputs": [
						{
							"internalType": "bool",
							"name": "",
							"type": "bool"
						}
					],
					"stateMutability": "view",
					"type": "function"
				},
				{
					"inputs": [],
					"name": "symbol",
					"outputs": [
						{
							"internalType": "string",
							"name": "",
							"type": "string"
						}
					],
					"stateMutability": "view",
					"type": "function"
				},
				{
					"inputs": [],
					"name": "totalSupply",
					"outputs": [
						{
							"internalType": "uint256",
							"name": "",
							"type": "uint256"
						}
					],
					"stateMutability": "view",
					"type": "function"
				},
				{
					"inputs": [],
					"name": "trade_open",
					"outputs": [
						{
							"internalType": "bool",
							"name": "",
							"type": "bool"
						}
					],
					"stateMutability": "view",
					"type": "function"
				},
				{
					"inputs": [
						{
							"internalType": "address",
							"name": "to",
							"type": "address"
						},
						{
							"internalType": "uint256",
							"name": "amount",
							"type": "uint256"
						}
					],
					"name": "transfer",
					"outputs": [
						{
							"internalType": "bool",
							"name": "",
							"type": "bool"
						}
					],
					"stateMutability": "nonpayable",
					"type": "function"
				},
				{
					"inputs": [
						{
							"internalType": "address",
							"name": "from",
							"type": "address"
						},
						{
							"internalType": "address",
							"name": "to",
							"type": "address"
						},
						{
							"internalType": "uint256",
							"name": "amount",
							"type": "uint256"
						}
					],
					"name": "transferFrom",
					"outputs": [
						{
							"internalType": "bool",
							"name": "",
							"type": "bool"
						}
					],
					"stateMutability": "nonpayable",
					"type": "function"
				},
				{
					"inputs": [
						{
							"internalType": "address",
							"name": "newOwner",
							"type": "address"
						}
					],
					"name": "transferOwnership",
					"outputs": [],
					"stateMutability": "nonpayable",
					"type": "function"
				},
				{
					"inputs": [],
					"name": "uniswapV2Router",
					"outputs": [
						{
							"internalType": "contract IUniswapV2Router02",
							"name": "",
							"type": "address"
						}
					],
					"stateMutability": "view",
					"type": "function"
				},
				{
					"stateMutability": "payable",
					"type": "receive"
				}
			],
			"devdoc": {
				"events": {
					"Approval(address,address,uint256)": {
						"details": "Emitted when the allowance of a `spender` for an `owner` is set by a call to {approve}. `value` is the new allowance."
					},
					"Transfer(address,address,uint256)": {
						"details": "Emitted when `value` tokens are moved from one account (`from`) to another (`to`). Note that `value` may be zero."
					}
				},
				"kind": "dev",
				"methods": {
					"owner()": {
						"details": "Returns the address of the current owner."
					},
					"renounceOwnership()": {
						"details": "Leaves the contract without owner. It will not be possible to call `onlyOwner` functions anymore. Can only be called by the current owner. NOTE: Renouncing ownership will leave the contract without an owner, thereby removing any functionality that is only available to the owner."
					},
					"transferOwnership(address)": {
						"details": "Transfers ownership of the contract to a new account (`newOwner`). Can only be called by the current owner."
					}
				},
				"version": 1
			},
			"evm": {
				"assembly": "    /* \"t.sol\":8840:26902  contract XYZToken is Ownable {... */\n  mstore(0x40, 0x80)\n    /* \"t.sol\":9004:9006  18 */\n  0x12\n    /* \"t.sol\":9063:9081  uint256(_decimals) */\n  0xff\n  and\n    /* \"t.sol\":9059:9061  10 */\n  0x0a\n    /* \"t.sol\":9059:9081  10**uint256(_decimals) */\n  tag_1\n  swap2\n  swap1\n  tag_2\n  jump\t// in\ntag_1:\n    /* \"t.sol\":9044:9056  420000000000 */\n  0x61c9f36800\n    /* \"t.sol\":9044:9081  420000000000 * 10**uint256(_decimals) */\n  tag_3\n  swap2\n  swap1\n  tag_4\n  jump\t// in\ntag_3:\n    /* \"t.sol\":9013:9081  uint256 private _totalSupply = 420000000000 * 10**uint256(_decimals) */\n  0x01\n  sstore\n    /* \"t.sol\":9004:9006  18 */\n  0x12\n    /* \"t.sol\":9135:9153  uint256(_decimals) */\n  0xff\n  and\n    /* \"t.sol\":9129:9131  10 */\n  0x0a\n    /* \"t.sol\":9129:9153  10 ** uint256(_decimals) */\n  tag_5\n  swap2\n  swap1\n  tag_2\n  jump\t// in\ntag_5:\n    /* \"t.sol\":9118:9126  20000000 */\n  0x01312d00\n    /* \"t.sol\":9118:9153  20000000 * 10 ** uint256(_decimals) */\n  tag_6\n  swap2\n  swap1\n  tag_4\n  jump\t// in\ntag_6:\n    /* \"t.sol\":9091:9153  uint256 public maxAmount = 20000000 * 10 ** uint256(_decimals) */\n  0x02\n  sstore\n    /* \"t.sol\":9604:9605  1 */\n  0x01\n    /* \"t.sol\":9565:9605  uint256 public numBlocksForBlacklist = 1 */\n  0x0a\n  sstore\n    /* \"t.sol\":9801:9805  1000 */\n  0x03e8\n    /* \"t.sol\":9766:9805  uint256 public _buyTaxPercentage = 1000 */\n  0x0d\n  sstore\n    /* \"t.sol\":9867:9871  1000 */\n  0x03e8\n    /* \"t.sol\":9831:9871  uint256 public _sellTaxPercentage = 1000 */\n  0x0e\n  sstore\n    /* \"t.sol\":9937:9941  1000 */\n  0x03e8\n    /* \"t.sol\":9896:9941  uint256 public _liquidityTaxPercentage = 1000 */\n  0x0f\n  sstore\n    /* \"t.sol\":9997:10001  1000 */\n  0x03e8\n    /* \"t.sol\":9961:10001  uint256 public _burnTaxPercentage = 1000 */\n  0x10\n  sstore\n    /* \"t.sol\":10059:10064  33000 */\n  0x80e8\n    /* \"t.sol\":10029:10064  uint256 public _buyTaxShare = 33000 */\n  0x11\n  sstore\n    /* \"t.sol\":10127:10132  33000 */\n  0x80e8\n    /* \"t.sol\":10096:10132  uint256 public _sellTaxShare = 33000 */\n  0x12\n  sstore\n    /* \"t.sol\":10199:10204  33000 */\n  0x80e8\n    /* \"t.sol\":10163:10204  uint256 public _liquidityTaxShare = 33000 */\n  0x13\n  sstore\n    /* \"t.sol\":10308:10313  50000 */\n  0xc350\n    /* \"t.sol\":10274:10313  uint256 public marketingPercent = 50000 */\n  0x15\n  sstore\n    /* \"t.sol\":9004:9006  18 */\n  0x12\n    /* \"t.sol\":10385:10403  uint256(_decimals) */\n  0xff\n  and\n    /* \"t.sol\":10381:10383  10 */\n  0x0a\n    /* \"t.sol\":10381:10403  10**uint256(_decimals) */\n  tag_7\n  swap2\n  swap1\n  tag_2\n  jump\t// in\ntag_7:\n    /* \"t.sol\":10375:10378  100 */\n  0x64\n    /* \"t.sol\":10375:10403  100 * 10**uint256(_decimals) */\n  tag_8\n  swap2\n  swap1\n  tag_4\n  jump\t// in\ntag_8:\n    /* \"t.sol\":10344:10403  uint256 public _taxThreshold = 100 * 10**uint256(_decimals) */\n  0x16\n  sstore\n    /* \"t.sol\":10595:10599  true */\n  0x01\n    /* \"t.sol\":10569:10599  bool public swapEnabled = true */\n  0x18\n  exp(0x0100, 0x15)\n  dup2\n  sload\n  dup2\n  0xff\n  mul\n  not\n  and\n  swap1\n  dup4\n  iszero\n  iszero\n  mul\n  or\n  swap1\n  sstore\n  pop\n    /* \"t.sol\":11125:12142  constructor(address _marketingWallet, address _devWallet) {... */\n  callvalue\n  dup1\n  iszero\n  tag_9\n  jumpi\n  0x00\n  dup1\n  revert\ntag_9:\n  pop\n  mload(0x40)\n  sub(codesize, bytecodeSize)\n  dup1\n  bytecodeSize\n  dup4\n  codecopy\n  dup2\n  dup2\n  add\n  0x40\n  mstore\n  dup2\n  add\n  swap1\n  tag_10\n  swap2\n  swap1\n  tag_11\n  jump\t// in\ntag_10:\n    /* \"t.sol\":1642:1674  _transferOwnership(_msgSender()) */\n  tag_15\n    /* \"t.sol\":1661:1673  _msgSender() */\n  tag_16\n    /* \"t.sol\":1661:1671  _msgSender */\n  shl(0x20, tag_17)\n    /* \"t.sol\":1661:1673  _msgSender() */\n  0x20\n  shr\n  jump\t// in\ntag_16:\n    /* \"t.sol\":1642:1660  _transferOwnership */\n  shl(0x20, tag_18)\n    /* \"t.sol\":1642:1674  _transferOwnership(_msgSender()) */\n  0x20\n  shr\n  jump\t// in\ntag_15:\n    /* \"t.sol\":11218:11230  _totalSupply */\n  sload(0x01)\n    /* \"t.sol\":11194:11203  _balances */\n  0x03\n    /* \"t.sol\":11194:11215  _balances[msg.sender] */\n  0x00\n    /* \"t.sol\":11204:11214  msg.sender */\n  caller\n    /* \"t.sol\":11194:11215  _balances[msg.sender] */\n  0xffffffffffffffffffffffffffffffffffffffff\n  and\n  0xffffffffffffffffffffffffffffffffffffffff\n  and\n  dup2\n  mstore\n  0x20\n  add\n  swap1\n  dup2\n  mstore\n  0x20\n  add\n  0x00\n  keccak256\n    /* \"t.sol\":11194:11230  _balances[msg.sender] = _totalSupply */\n  dup2\n  swap1\n  sstore\n  pop\n    /* \"t.sol\":11244:11279  IUniswapV2Router02 _uniswapV2Router */\n  0x00\n    /* \"t.sol\":11384:11426  0xD99D1c33F9fC3444f8101754aBC46c52416550D1 */\n  0xd99d1c33f9fc3444f8101754abc46c52416550d1\n    /* \"t.sol\":11244:11454  IUniswapV2Router02 _uniswapV2Router = IUniswapV2Router02(... */\n  swap1\n  pop\n    /* \"t.sol\":11483:11499  _uniswapV2Router */\n  dup1\n    /* \"t.sol\":11465:11480  uniswapV2Router */\n  0x17\n  0x00\n    /* \"t.sol\":11465:11499  uniswapV2Router = _uniswapV2Router */\n  0x0100\n  exp\n  dup2\n  sload\n  dup2\n  0xffffffffffffffffffffffffffffffffffffffff\n  mul\n  not\n  and\n  swap1\n  dup4\n  0xffffffffffffffffffffffffffffffffffffffff\n  and\n  mul\n  or\n  swap1\n  sstore\n  pop\n    /* \"t.sol\":11543:11559  _uniswapV2Router */\n  dup1\n    /* \"t.sol\":11543:11567  _uniswapV2Router.factory */\n  0xffffffffffffffffffffffffffffffffffffffff\n  and\n  0xc45a0155\n    /* \"t.sol\":11543:11569  _uniswapV2Router.factory() */\n  mload(0x40)\n  dup2\n  0xffffffff\n  and\n  0xe0\n  shl\n  dup2\n  mstore\n  0x04\n  add\n  0x20\n  mload(0x40)\n  dup1\n  dup4\n  sub\n  dup2\n  dup7\n  gas\n  staticcall\n  iszero\n  dup1\n  iszero\n  tag_21\n  jumpi\n  returndatasize\n  0x00\n  dup1\n  returndatacopy\n  revert(0x00, returndatasize)\ntag_21:\n  pop\n  pop\n  pop\n  pop\n  mload(0x40)\n  returndatasize\n  not(0x1f)\n  0x1f\n  dup3\n  add\n  and\n  dup3\n  add\n  dup1\n  0x40\n  mstore\n  pop\n  dup2\n  add\n  swap1\n  tag_22\n  swap2\n  swap1\n  tag_23\n  jump\t// in\ntag_22:\n    /* \"t.sol\":11525:11581  IUniswapV2Factory(_uniswapV2Router.factory()).createPair */\n  0xffffffffffffffffffffffffffffffffffffffff\n  and\n  0xc9c65396\n    /* \"t.sol\":11604:11608  this */\n  address\n    /* \"t.sol\":11624:11640  _uniswapV2Router */\n  dup4\n    /* \"t.sol\":11624:11645  _uniswapV2Router.WETH */\n  0xffffffffffffffffffffffffffffffffffffffff\n  and\n  0xad5c4648\n    /* \"t.sol\":11624:11647  _uniswapV2Router.WETH() */\n  mload(0x40)\n  dup2\n  0xffffffff\n  and\n  0xe0\n  shl\n  dup2\n  mstore\n  0x04\n  add\n  0x20\n  mload(0x40)\n  dup1\n  dup4\n  sub\n  dup2\n  dup7\n  gas\n  staticcall\n  iszero\n  dup1\n  iszero\n  tag_25\n  jumpi\n  returndatasize\n  0x00\n  dup1\n  returndatacopy\n  revert(0x00, returndatasize)\ntag_25:\n  pop\n  pop\n  pop\n  pop\n  mload(0x40)\n  returndatasize\n  not(0x1f)\n  0x1f\n  dup3\n  add\n  and\n  dup3\n  add\n  dup1\n  0x40\n  mstore\n  pop\n  dup2\n  add\n  swap1\n  tag_26\n  swap2\n  swap1\n  tag_23\n  jump\t// in\ntag_26:\n    /* \"t.sol\":11525:11658  IUniswapV2Factory(_uniswapV2Router.factory()).createPair(... */\n  mload(0x40)\n  dup4\n  0xffffffff\n  and\n  0xe0\n  shl\n  dup2\n  mstore\n  0x04\n  add\n  tag_27\n  swap3\n  swap2\n  swap1\n  tag_28\n  jump\t// in\ntag_27:\n  0x20\n  mload(0x40)\n  dup1\n  dup4\n  sub\n  dup2\n  0x00\n  dup8\n  gas\n  call\n  iszero\n  dup1\n  iszero\n  tag_30\n  jumpi\n  returndatasize\n  0x00\n  dup1\n  returndatacopy\n  revert(0x00, returndatasize)\ntag_30:\n  pop\n  pop\n  pop\n  pop\n  mload(0x40)\n  returndatasize\n  not(0x1f)\n  0x1f\n  dup3\n  add\n  and\n  dup3\n  add\n  dup1\n  0x40\n  mstore\n  pop\n  dup2\n  add\n  swap1\n  tag_31\n  swap2\n  swap1\n  tag_23\n  jump\t// in\ntag_31:\n    /* \"t.sol\":11510:11522  _uniswapPair */\n  0x18\n  0x00\n    /* \"t.sol\":11510:11658  _uniswapPair = IUniswapV2Factory(_uniswapV2Router.factory()).createPair(... */\n  0x0100\n  exp\n  dup2\n  sload\n  dup2\n  0xffffffffffffffffffffffffffffffffffffffff\n  mul\n  not\n  and\n  swap1\n  dup4\n  0xffffffffffffffffffffffffffffffffffffffff\n  and\n  mul\n  or\n  swap1\n  sstore\n  pop\n    /* \"t.sol\":11672:11737  _approve(msg.sender, address(uniswapV2Router), type(uint256).max) */\n  tag_32\n    /* \"t.sol\":11681:11691  msg.sender */\n  caller\n    /* \"t.sol\":11701:11716  uniswapV2Router */\n  0x17\n  0x00\n  swap1\n  sload\n  swap1\n  0x0100\n  exp\n  swap1\n  div\n  0xffffffffffffffffffffffffffffffffffffffff\n  and\n    /* \"t.sol\":11719:11736  type(uint256).max */\n  0xffffffffffffffffffffffffffffffffffffffffffffffffffffffffffffffff\n    /* \"t.sol\":11672:11680  _approve */\n  shl(0x20, tag_33)\n    /* \"t.sol\":11672:11737  _approve(msg.sender, address(uniswapV2Router), type(uint256).max) */\n  0x20\n  shr\n  jump\t// in\ntag_32:\n    /* \"t.sol\":11748:11816  _approve(address(this), address(uniswapV2Router), type(uint256).max) */\n  tag_34\n    /* \"t.sol\":11765:11769  this */\n  address\n    /* \"t.sol\":11780:11795  uniswapV2Router */\n  0x17\n  0x00\n  swap1\n  sload\n  swap1\n  0x0100\n  exp\n  swap1\n  div\n  0xffffffffffffffffffffffffffffffffffffffff\n  and\n    /* \"t.sol\":11798:11815  type(uint256).max */\n  0xffffffffffffffffffffffffffffffffffffffffffffffffffffffffffffffff\n    /* \"t.sol\":11748:11756  _approve */\n  shl(0x20, tag_33)\n    /* \"t.sol\":11748:11816  _approve(address(this), address(uniswapV2Router), type(uint256).max) */\n  0x20\n  shr\n  jump\t// in\ntag_34:\n    /* \"t.sol\":11829:11886  _setAutomatedMarketMakerPair(address(_uniswapPair), true) */\n  tag_35\n    /* \"t.sol\":11866:11878  _uniswapPair */\n  0x18\n  0x00\n  swap1\n  sload\n  swap1\n  0x0100\n  exp\n  swap1\n  div\n  0xffffffffffffffffffffffffffffffffffffffff\n  and\n    /* \"t.sol\":11881:11885  true */\n  0x01\n    /* \"t.sol\":11829:11857  _setAutomatedMarketMakerPair */\n  shl(0x20, tag_36)\n    /* \"t.sol\":11829:11886  _setAutomatedMarketMakerPair(address(_uniswapPair), true) */\n  0x20\n  shr\n  jump\t// in\ntag_35:\n    /* \"t.sol\":11918:11934  _marketingWallet */\n  dup3\n    /* \"t.sol\":11900:11915  marketingWallet */\n  0x0b\n  0x00\n    /* \"t.sol\":11900:11934  marketingWallet = _marketingWallet */\n  0x0100\n  exp\n  dup2\n  sload\n  dup2\n  0xffffffffffffffffffffffffffffffffffffffff\n  mul\n  not\n  and\n  swap1\n  dup4\n  0xffffffffffffffffffffffffffffffffffffffff\n  and\n  mul\n  or\n  swap1\n  sstore\n  pop\n    /* \"t.sol\":11957:11967  _devWallet */\n  dup2\n    /* \"t.sol\":11945:11954  devWallet */\n  0x0c\n  0x00\n    /* \"t.sol\":11945:11967  devWallet = _devWallet */\n  0x0100\n  exp\n  dup2\n  sload\n  dup2\n  0xffffffffffffffffffffffffffffffffffffffff\n  mul\n  not\n  and\n  swap1\n  dup4\n  0xffffffffffffffffffffffffffffffffffffffff\n  and\n  mul\n  or\n  swap1\n  sstore\n  pop\n    /* \"t.sol\":12017:12021  true */\n  0x01\n    /* \"t.sol\":11981:11999  _isExcludedFromFee */\n  0x07\n    /* \"t.sol\":11981:12014  _isExcludedFromFee[address(this)] */\n  0x00\n    /* \"t.sol\":12008:12012  this */\n  address\n    /* \"t.sol\":11981:12014  _isExcludedFromFee[address(this)] */\n  0xffffffffffffffffffffffffffffffffffffffff\n  and\n  0xffffffffffffffffffffffffffffffffffffffff\n  and\n  dup2\n  mstore\n  0x20\n  add\n  swap1\n  dup2\n  mstore\n  0x20\n  add\n  0x00\n  keccak256\n  0x00\n    /* \"t.sol\":11981:12021  _isExcludedFromFee[address(this)] = true */\n  0x0100\n  exp\n  dup2\n  sload\n  dup2\n  0xff\n  mul\n  not\n  and\n  swap1\n  dup4\n  iszero\n  iszero\n  mul\n  or\n  swap1\n  sstore\n  pop\n    /* \"t.sol\":12065:12069  true */\n  0x01\n    /* \"t.sol\":12032:12050  _isExcludedFromFee */\n  0x07\n    /* \"t.sol\":12032:12062  _isExcludedFromFee[msg.sender] */\n  0x00\n    /* \"t.sol\":12051:12061  msg.sender */\n  caller\n    /* \"t.sol\":12032:12062  _isExcludedFromFee[msg.sender] */\n  0xffffffffffffffffffffffffffffffffffffffff\n  and\n  0xffffffffffffffffffffffffffffffffffffffff\n  and\n  dup2\n  mstore\n  0x20\n  add\n  swap1\n  dup2\n  mstore\n  0x20\n  add\n  0x00\n  keccak256\n  0x00\n    /* \"t.sol\":12032:12069  _isExcludedFromFee[msg.sender] = true */\n  0x0100\n  exp\n  dup2\n  sload\n  dup2\n  0xff\n  mul\n  not\n  and\n  swap1\n  dup4\n  iszero\n  iszero\n  mul\n  or\n  swap1\n  sstore\n  pop\n    /* \"t.sol\":12109:12119  msg.sender */\n  caller\n    /* \"t.sol\":12088:12134  Transfer(address(0), msg.sender, _totalSupply) */\n  0xffffffffffffffffffffffffffffffffffffffff\n  and\n    /* \"t.sol\":12105:12106  0 */\n  0x00\n    /* \"t.sol\":12088:12134  Transfer(address(0), msg.sender, _totalSupply) */\n  0xffffffffffffffffffffffffffffffffffffffff\n  and\n  0xddf252ad1be2c89b69c2b068fc378daa952ba7f163c4a11628f55a4df523b3ef\n    /* \"t.sol\":12121:12133  _totalSupply */\n  sload(0x01)\n    /* \"t.sol\":12088:12134  Transfer(address(0), msg.sender, _totalSupply) */\n  mload(0x40)\n  tag_37\n  swap2\n  swap1\n  tag_38\n  jump\t// in\ntag_37:\n  mload(0x40)\n  dup1\n  swap2\n  sub\n  swap1\n  log3\n    /* \"t.sol\":11183:12142  {... */\n  pop\n    /* \"t.sol\":11125:12142  constructor(address _marketingWallet, address _devWallet) {... */\n  pop\n  pop\n    /* \"t.sol\":8840:26902  contract XYZToken is Ownable {... */\n  jump(tag_39)\n    /* \"t.sol\":601:699  function _msgSender() internal view virtual returns (address) {... */\ntag_17:\n    /* \"t.sol\":654:661  address */\n  0x00\n    /* \"t.sol\":681:691  msg.sender */\n  caller\n    /* \"t.sol\":674:691  return msg.sender */\n  swap1\n  pop\n    /* \"t.sol\":601:699  function _msgSender() internal view virtual returns (address) {... */\n  swap1\n  jump\t// out\n    /* \"t.sol\":3231:3422  function _transferOwnership(address newOwner) internal virtual {... */\ntag_18:\n    /* \"t.sol\":3305:3321  address oldOwner */\n  0x00\n    /* \"t.sol\":3324:3330  _owner */\n  dup1\n  0x00\n  swap1\n  sload\n  swap1\n  0x0100\n  exp\n  swap1\n  div\n  0xffffffffffffffffffffffffffffffffffffffff\n  and\n    /* \"t.sol\":3305:3330  address oldOwner = _owner */\n  swap1\n  pop\n    /* \"t.sol\":3350:3358  newOwner */\n  dup2\n    /* \"t.sol\":3341:3347  _owner */\n  0x00\n  dup1\n    /* \"t.sol\":3341:3358  _owner = newOwner */\n  0x0100\n  exp\n  dup2\n  sload\n  dup2\n  0xffffffffffffffffffffffffffffffffffffffff\n  mul\n  not\n  and\n  swap1\n  dup4\n  0xffffffffffffffffffffffffffffffffffffffff\n  and\n  mul\n  or\n  swap1\n  sstore\n  pop\n    /* \"t.sol\":3405:3413  newOwner */\n  dup2\n    /* \"t.sol\":3374:3414  OwnershipTransferred(oldOwner, newOwner) */\n  0xffffffffffffffffffffffffffffffffffffffff\n  and\n    /* \"t.sol\":3395:3403  oldOwner */\n  dup2\n    /* \"t.sol\":3374:3414  OwnershipTransferred(oldOwner, newOwner) */\n  0xffffffffffffffffffffffffffffffffffffffff\n  and\n  0x8be0079c531659141344cd1fd0a4f28419497f9722a3daafe3b4186f6b6457e0\n  mload(0x40)\n  mload(0x40)\n  dup1\n  swap2\n  sub\n  swap1\n  log3\n    /* \"t.sol\":3294:3422  {... */\n  pop\n    /* \"t.sol\":3231:3422  function _transferOwnership(address newOwner) internal virtual {... */\n  pop\n  jump\t// out\n    /* \"t.sol\":13578:13921  function _approve(address sender, address spender, uint256 amount) internal {... */\ntag_33:\n    /* \"t.sol\":13691:13692  0 */\n  0x00\n    /* \"t.sol\":13673:13693  sender != address(0) */\n  0xffffffffffffffffffffffffffffffffffffffff\n  and\n    /* \"t.sol\":13673:13679  sender */\n  dup4\n    /* \"t.sol\":13673:13693  sender != address(0) */\n  0xffffffffffffffffffffffffffffffffffffffff\n  and\n  sub\n    /* \"t.sol\":13665:13734  require(sender != address(0), \"ERC20: approve from the zero address\") */\n  tag_43\n  jumpi\n  mload(0x40)\n  0x08c379a000000000000000000000000000000000000000000000000000000000\n  dup2\n  mstore\n  0x04\n  add\n  tag_44\n  swap1\n  tag_45\n  jump\t// in\ntag_44:\n  mload(0x40)\n  dup1\n  swap2\n  sub\n  swap1\n  revert\ntag_43:\n    /* \"t.sol\":13772:13773  0 */\n  0x00\n    /* \"t.sol\":13753:13774  spender != address(0) */\n  0xffffffffffffffffffffffffffffffffffffffff\n  and\n    /* \"t.sol\":13753:13760  spender */\n  dup3\n    /* \"t.sol\":13753:13774  spender != address(0) */\n  0xffffffffffffffffffffffffffffffffffffffff\n  and\n  sub\n    /* \"t.sol\":13745:13813  require(spender != address(0), \"ERC20: approve to the zero address\") */\n  tag_46\n  jumpi\n  mload(0x40)\n  0x08c379a000000000000000000000000000000000000000000000000000000000\n  dup2\n  mstore\n  0x04\n  add\n  tag_47\n  swap1\n  tag_48\n  jump\t// in\ntag_47:\n  mload(0x40)\n  dup1\n  swap2\n  sub\n  swap1\n  revert\ntag_46:\n    /* \"t.sol\":13858:13864  amount */\n  dup1\n    /* \"t.sol\":13827:13838  _allowances */\n  0x04\n    /* \"t.sol\":13827:13846  _allowances[sender] */\n  0x00\n    /* \"t.sol\":13839:13845  sender */\n  dup6\n    /* \"t.sol\":13827:13846  _allowances[sender] */\n  0xffffffffffffffffffffffffffffffffffffffff\n  and\n  0xffffffffffffffffffffffffffffffffffffffff\n  and\n  dup2\n  mstore\n  0x20\n  add\n  swap1\n  dup2\n  mstore\n  0x20\n  add\n  0x00\n  keccak256\n    /* \"t.sol\":13827:13855  _allowances[sender][spender] */\n  0x00\n    /* \"t.sol\":13847:13854  spender */\n  dup5\n    /* \"t.sol\":13827:13855  _allowances[sender][spender] */\n  0xffffffffffffffffffffffffffffffffffffffff\n  and\n  0xffffffffffffffffffffffffffffffffffffffff\n  and\n  dup2\n  mstore\n  0x20\n  add\n  swap1\n  dup2\n  mstore\n  0x20\n  add\n  0x00\n  keccak256\n    /* \"t.sol\":13827:13864  _allowances[sender][spender] = amount */\n  dup2\n  swap1\n  sstore\n  pop\n    /* \"t.sol\":13897:13904  spender */\n  dup2\n    /* \"t.sol\":13880:13913  Approval(sender, spender, amount) */\n  0xffffffffffffffffffffffffffffffffffffffff\n  and\n    /* \"t.sol\":13889:13895  sender */\n  dup4\n    /* \"t.sol\":13880:13913  Approval(sender, spender, amount) */\n  0xffffffffffffffffffffffffffffffffffffffff\n  and\n  0x8c5be1e5ebec7d5bd14f71427d1e84f3dd0314c0f7b2291e5b200ac8c7c3b925\n    /* \"t.sol\":13906:13912  amount */\n  dup4\n    /* \"t.sol\":13880:13913  Approval(sender, spender, amount) */\n  mload(0x40)\n  tag_49\n  swap2\n  swap1\n  tag_38\n  jump\t// in\ntag_49:\n  mload(0x40)\n  dup1\n  swap2\n  sub\n  swap1\n  log3\n    /* \"t.sol\":13578:13921  function _approve(address sender, address spender, uint256 amount) internal {... */\n  pop\n  pop\n  pop\n  jump\t// out\n    /* \"t.sol\":16456:16586  function _setAutomatedMarketMakerPair(address pair, bool value) private {... */\ntag_36:\n    /* \"t.sol\":16573:16578  value */\n  dup1\n    /* \"t.sol\":16539:16564  automatedMarketMakerPairs */\n  0x06\n    /* \"t.sol\":16539:16570  automatedMarketMakerPairs[pair] */\n  0x00\n    /* \"t.sol\":16565:16569  pair */\n  dup5\n    /* \"t.sol\":16539:16570  automatedMarketMakerPairs[pair] */\n  0xffffffffffffffffffffffffffffffffffffffff\n  and\n  0xffffffffffffffffffffffffffffffffffffffff\n  and\n  dup2\n  mstore\n  0x20\n  add\n  swap1\n  dup2\n  mstore\n  0x20\n  add\n  0x00\n  keccak256\n  0x00\n    /* \"t.sol\":16539:16578  automatedMarketMakerPairs[pair] = value */\n  0x0100\n  exp\n  dup2\n  sload\n  dup2\n  0xff\n  mul\n  not\n  and\n  swap1\n  dup4\n  iszero\n  iszero\n  mul\n  or\n  swap1\n  sstore\n  pop\n    /* \"t.sol\":16456:16586  function _setAutomatedMarketMakerPair(address pair, bool value) private {... */\n  pop\n  pop\n  jump\t// out\n    /* \"#utility.yul\":7:187   */\ntag_51:\n    /* \"#utility.yul\":55:132   */\n  0x4e487b7100000000000000000000000000000000000000000000000000000000\n    /* \"#utility.yul\":52:53   */\n  0x00\n    /* \"#utility.yul\":45:133   */\n  mstore\n    /* \"#utility.yul\":152:156   */\n  0x11\n    /* \"#utility.yul\":149:150   */\n  0x04\n    /* \"#utility.yul\":142:157   */\n  mstore\n    /* \"#utility.yul\":176:180   */\n  0x24\n    /* \"#utility.yul\":173:174   */\n  0x00\n    /* \"#utility.yul\":166:181   */\n  revert\n    /* \"#utility.yul\":193:295   */\ntag_52:\n    /* \"#utility.yul\":235:243   */\n  0x00\n    /* \"#utility.yul\":282:287   */\n  dup2\n    /* \"#utility.yul\":279:280   */\n  0x01\n    /* \"#utility.yul\":275:288   */\n  shr\n    /* \"#utility.yul\":254:288   */\n  swap1\n  pop\n    /* \"#utility.yul\":193:295   */\n  swap2\n  swap1\n  pop\n  jump\t// out\n    /* \"#utility.yul\":301:1149   */\ntag_53:\n    /* \"#utility.yul\":362:367   */\n  0x00\n    /* \"#utility.yul\":369:373   */\n  dup1\n    /* \"#utility.yul\":393:399   */\n  dup3\n    /* \"#utility.yul\":384:399   */\n  swap2\n  pop\n    /* \"#utility.yul\":417:422   */\n  dup4\n    /* \"#utility.yul\":408:422   */\n  swap1\n  pop\n    /* \"#utility.yul\":431:1143   */\ntag_74:\n    /* \"#utility.yul\":452:453   */\n  0x01\n    /* \"#utility.yul\":442:450   */\n  dup6\n    /* \"#utility.yul\":439:454   */\n  gt\n    /* \"#utility.yul\":431:1143   */\n  iszero\n  tag_76\n  jumpi\n    /* \"#utility.yul\":547:551   */\n  dup1\n    /* \"#utility.yul\":542:545   */\n  dup7\n    /* \"#utility.yul\":538:552   */\n  div\n    /* \"#utility.yul\":532:536   */\n  dup2\n    /* \"#utility.yul\":529:553   */\n  gt\n    /* \"#utility.yul\":526:576   */\n  iszero\n  tag_77\n  jumpi\n    /* \"#utility.yul\":556:574   */\n  tag_78\n  tag_51\n  jump\t// in\ntag_78:\n    /* \"#utility.yul\":526:576   */\ntag_77:\n    /* \"#utility.yul\":606:607   */\n  0x01\n    /* \"#utility.yul\":596:604   */\n  dup6\n    /* \"#utility.yul\":592:608   */\n  and\n    /* \"#utility.yul\":589:1040   */\n  iszero\n  tag_79\n  jumpi\n    /* \"#utility.yul\":1021:1025   */\n  dup1\n    /* \"#utility.yul\":1014:1019   */\n  dup3\n    /* \"#utility.yul\":1010:1026   */\n  mul\n    /* \"#utility.yul\":1001:1026   */\n  swap2\n  pop\n    /* \"#utility.yul\":589:1040   */\ntag_79:\n    /* \"#utility.yul\":1071:1075   */\n  dup1\n    /* \"#utility.yul\":1065:1069   */\n  dup2\n    /* \"#utility.yul\":1061:1076   */\n  mul\n    /* \"#utility.yul\":1053:1076   */\n  swap1\n  pop\n    /* \"#utility.yul\":1101:1133   */\n  tag_80\n    /* \"#utility.yul\":1124:1132   */\n  dup6\n    /* \"#utility.yul\":1101:1133   */\n  tag_52\n  jump\t// in\ntag_80:\n    /* \"#utility.yul\":1089:1133   */\n  swap5\n  pop\n    /* \"#utility.yul\":431:1143   */\n  jump(tag_74)\ntag_76:\n    /* \"#utility.yul\":301:1149   */\n  swap5\n  pop\n  swap5\n  swap3\n  pop\n  pop\n  pop\n  jump\t// out\n    /* \"#utility.yul\":1155:2228   */\ntag_54:\n    /* \"#utility.yul\":1209:1214   */\n  0x00\n    /* \"#utility.yul\":1400:1408   */\n  dup3\n    /* \"#utility.yul\":1390:1430   */\n  tag_82\n  jumpi\n    /* \"#utility.yul\":1421:1422   */\n  0x01\n    /* \"#utility.yul\":1412:1422   */\n  swap1\n  pop\n    /* \"#utility.yul\":1423:1428   */\n  jump(tag_81)\n    /* \"#utility.yul\":1390:1430   */\ntag_82:\n    /* \"#utility.yul\":1449:1453   */\n  dup2\n    /* \"#utility.yul\":1439:1475   */\n  tag_83\n  jumpi\n    /* \"#utility.yul\":1466:1467   */\n  0x00\n    /* \"#utility.yul\":1457:1467   */\n  swap1\n  pop\n    /* \"#utility.yul\":1468:1473   */\n  jump(tag_81)\n    /* \"#utility.yul\":1439:1475   */\ntag_83:\n    /* \"#utility.yul\":1535:1539   */\n  dup2\n    /* \"#utility.yul\":1583:1584   */\n  0x01\n    /* \"#utility.yul\":1578:1605   */\n  dup2\n  eq\n  tag_85\n  jumpi\n    /* \"#utility.yul\":1619:1620   */\n  0x02\n    /* \"#utility.yul\":1614:1805   */\n  dup2\n  eq\n  tag_86\n  jumpi\n    /* \"#utility.yul\":1528:1805   */\n  jump(tag_84)\n    /* \"#utility.yul\":1578:1605   */\ntag_85:\n    /* \"#utility.yul\":1596:1597   */\n  0x01\n    /* \"#utility.yul\":1587:1597   */\n  swap2\n  pop\n    /* \"#utility.yul\":1598:1603   */\n  pop\n  jump(tag_81)\n    /* \"#utility.yul\":1614:1805   */\ntag_86:\n    /* \"#utility.yul\":1659:1662   */\n  0xff\n    /* \"#utility.yul\":1649:1657   */\n  dup5\n    /* \"#utility.yul\":1646:1663   */\n  gt\n    /* \"#utility.yul\":1643:1686   */\n  iszero\n  tag_87\n  jumpi\n    /* \"#utility.yul\":1666:1684   */\n  tag_88\n  tag_51\n  jump\t// in\ntag_88:\n    /* \"#utility.yul\":1643:1686   */\ntag_87:\n    /* \"#utility.yul\":1715:1723   */\n  dup4\n    /* \"#utility.yul\":1712:1713   */\n  0x02\n    /* \"#utility.yul\":1708:1724   */\n  exp\n    /* \"#utility.yul\":1699:1724   */\n  swap2\n  pop\n    /* \"#utility.yul\":1750:1753   */\n  dup5\n    /* \"#utility.yul\":1743:1748   */\n  dup3\n    /* \"#utility.yul\":1740:1754   */\n  gt\n    /* \"#utility.yul\":1737:1777   */\n  iszero\n  tag_89\n  jumpi\n    /* \"#utility.yul\":1757:1775   */\n  tag_90\n  tag_51\n  jump\t// in\ntag_90:\n    /* \"#utility.yul\":1737:1777   */\ntag_89:\n    /* \"#utility.yul\":1790:1795   */\n  pop\n  jump(tag_81)\n    /* \"#utility.yul\":1528:1805   */\ntag_84:\n  pop\n    /* \"#utility.yul\":1914:1916   */\n  0x20\n    /* \"#utility.yul\":1904:1912   */\n  dup4\n    /* \"#utility.yul\":1901:1917   */\n  lt\n    /* \"#utility.yul\":1895:1898   */\n  0x0133\n    /* \"#utility.yul\":1889:1893   */\n  dup4\n    /* \"#utility.yul\":1886:1899   */\n  lt\n    /* \"#utility.yul\":1882:1918   */\n  and\n    /* \"#utility.yul\":1864:1866   */\n  0x4e\n    /* \"#utility.yul\":1854:1862   */\n  dup5\n    /* \"#utility.yul\":1851:1867   */\n  lt\n    /* \"#utility.yul\":1846:1848   */\n  0x0b\n    /* \"#utility.yul\":1840:1844   */\n  dup5\n    /* \"#utility.yul\":1837:1849   */\n  lt\n    /* \"#utility.yul\":1833:1868   */\n  and\n    /* \"#utility.yul\":1817:1928   */\n  or\n    /* \"#utility.yul\":1814:2060   */\n  iszero\n  tag_91\n  jumpi\n    /* \"#utility.yul\":1970:1978   */\n  dup3\n    /* \"#utility.yul\":1964:1968   */\n  dup3\n    /* \"#utility.yul\":1960:1979   */\n  exp\n    /* \"#utility.yul\":1951:1979   */\n  swap1\n  pop\n    /* \"#utility.yul\":2005:2008   */\n  dup4\n    /* \"#utility.yul\":1998:2003   */\n  dup2\n    /* \"#utility.yul\":1995:2009   */\n  gt\n    /* \"#utility.yul\":1992:2032   */\n  iszero\n  tag_92\n  jumpi\n    /* \"#utility.yul\":2012:2030   */\n  tag_93\n  tag_51\n  jump\t// in\ntag_93:\n    /* \"#utility.yul\":1992:2032   */\ntag_92:\n    /* \"#utility.yul\":2045:2050   */\n  jump(tag_81)\n    /* \"#utility.yul\":1814:2060   */\ntag_91:\n    /* \"#utility.yul\":2085:2127   */\n  tag_94\n    /* \"#utility.yul\":2123:2126   */\n  dup5\n    /* \"#utility.yul\":2113:2121   */\n  dup5\n    /* \"#utility.yul\":2107:2111   */\n  dup5\n    /* \"#utility.yul\":2104:2105   */\n  0x01\n    /* \"#utility.yul\":2085:2127   */\n  tag_53\n  jump\t// in\ntag_94:\n    /* \"#utility.yul\":2070:2127   */\n  swap3\n  pop\n  swap1\n  pop\n    /* \"#utility.yul\":2159:2163   */\n  dup2\n    /* \"#utility.yul\":2154:2157   */\n  dup5\n    /* \"#utility.yul\":2150:2164   */\n  div\n    /* \"#utility.yul\":2143:2148   */\n  dup2\n    /* \"#utility.yul\":2140:2165   */\n  gt\n    /* \"#utility.yul\":2137:2188   */\n  iszero\n  tag_95\n  jumpi\n    /* \"#utility.yul\":2168:2186   */\n  tag_96\n  tag_51\n  jump\t// in\ntag_96:\n    /* \"#utility.yul\":2137:2188   */\ntag_95:\n    /* \"#utility.yul\":2217:2221   */\n  dup2\n    /* \"#utility.yul\":2210:2215   */\n  dup2\n    /* \"#utility.yul\":2206:2222   */\n  mul\n    /* \"#utility.yul\":2197:2222   */\n  swap1\n  pop\n    /* \"#utility.yul\":1155:2228   */\ntag_81:\n  swap4\n  swap3\n  pop\n  pop\n  pop\n  jump\t// out\n    /* \"#utility.yul\":2234:2311   */\ntag_55:\n    /* \"#utility.yul\":2271:2278   */\n  0x00\n    /* \"#utility.yul\":2300:2305   */\n  dup2\n    /* \"#utility.yul\":2289:2305   */\n  swap1\n  pop\n    /* \"#utility.yul\":2234:2311   */\n  swap2\n  swap1\n  pop\n  jump\t// out\n    /* \"#utility.yul\":2317:2602   */\ntag_2:\n    /* \"#utility.yul\":2377:2382   */\n  0x00\n    /* \"#utility.yul\":2401:2424   */\n  tag_99\n    /* \"#utility.yul\":2419:2423   */\n  dup3\n    /* \"#utility.yul\":2401:2424   */\n  tag_55\n  jump\t// in\ntag_99:\n    /* \"#utility.yul\":2393:2424   */\n  swap2\n  pop\n    /* \"#utility.yul\":2445:2472   */\n  tag_100\n    /* \"#utility.yul\":2463:2471   */\n  dup4\n    /* \"#utility.yul\":2445:2472   */\n  tag_55\n  jump\t// in\ntag_100:\n    /* \"#utility.yul\":2433:2472   */\n  swap3\n  pop\n    /* \"#utility.yul\":2491:2595   */\n  tag_101\n    /* \"#utility.yul\":2528:2594   */\n  0xffffffffffffffffffffffffffffffffffffffffffffffffffffffffffffffff\n    /* \"#utility.yul\":2518:2526   */\n  dup5\n    /* \"#utility.yul\":2512:2516   */\n  dup5\n    /* \"#utility.yul\":2491:2595   */\n  tag_54\n  jump\t// in\ntag_101:\n    /* \"#utility.yul\":2482:2595   */\n  swap1\n  pop\n    /* \"#utility.yul\":2317:2602   */\n  swap3\n  swap2\n  pop\n  pop\n  jump\t// out\n    /* \"#utility.yul\":2608:3018   */\ntag_4:\n    /* \"#utility.yul\":2648:2655   */\n  0x00\n    /* \"#utility.yul\":2671:2691   */\n  tag_103\n    /* \"#utility.yul\":2689:2690   */\n  dup3\n    /* \"#utility.yul\":2671:2691   */\n  tag_55\n  jump\t// in\ntag_103:\n    /* \"#utility.yul\":2666:2691   */\n  swap2\n  pop\n    /* \"#utility.yul\":2705:2725   */\n  tag_104\n    /* \"#utility.yul\":2723:2724   */\n  dup4\n    /* \"#utility.yul\":2705:2725   */\n  tag_55\n  jump\t// in\ntag_104:\n    /* \"#utility.yul\":2700:2725   */\n  swap3\n  pop\n    /* \"#utility.yul\":2760:2761   */\n  dup3\n    /* \"#utility.yul\":2757:2758   */\n  dup3\n    /* \"#utility.yul\":2753:2762   */\n  mul\n    /* \"#utility.yul\":2782:2812   */\n  tag_105\n    /* \"#utility.yul\":2800:2811   */\n  dup2\n    /* \"#utility.yul\":2782:2812   */\n  tag_55\n  jump\t// in\ntag_105:\n    /* \"#utility.yul\":2771:2812   */\n  swap2\n  pop\n    /* \"#utility.yul\":2961:2962   */\n  dup3\n    /* \"#utility.yul\":2952:2959   */\n  dup3\n    /* \"#utility.yul\":2948:2963   */\n  div\n    /* \"#utility.yul\":2945:2946   */\n  dup5\n    /* \"#utility.yul\":2942:2964   */\n  eq\n    /* \"#utility.yul\":2922:2923   */\n  dup4\n    /* \"#utility.yul\":2915:2924   */\n  iszero\n    /* \"#utility.yul\":2895:2978   */\n  or\n    /* \"#utility.yul\":2872:3011   */\n  tag_106\n  jumpi\n    /* \"#utility.yul\":2991:3009   */\n  tag_107\n  tag_51\n  jump\t// in\ntag_107:\n    /* \"#utility.yul\":2872:3011   */\ntag_106:\n    /* \"#utility.yul\":2656:3018   */\n  pop\n    /* \"#utility.yul\":2608:3018   */\n  swap3\n  swap2\n  pop\n  pop\n  jump\t// out\n    /* \"#utility.yul\":3105:3222   */\ntag_57:\n    /* \"#utility.yul\":3214:3215   */\n  0x00\n    /* \"#utility.yul\":3211:3212   */\n  dup1\n    /* \"#utility.yul\":3204:3216   */\n  revert\n    /* \"#utility.yul\":3351:3477   */\ntag_59:\n    /* \"#utility.yul\":3388:3395   */\n  0x00\n    /* \"#utility.yul\":3428:3470   */\n  0xffffffffffffffffffffffffffffffffffffffff\n    /* \"#utility.yul\":3421:3426   */\n  dup3\n    /* \"#utility.yul\":3417:3471   */\n  and\n    /* \"#utility.yul\":3406:3471   */\n  swap1\n  pop\n    /* \"#utility.yul\":3351:3477   */\n  swap2\n  swap1\n  pop\n  jump\t// out\n    /* \"#utility.yul\":3483:3579   */\ntag_60:\n    /* \"#utility.yul\":3520:3527   */\n  0x00\n    /* \"#utility.yul\":3549:3573   */\n  tag_113\n    /* \"#utility.yul\":3567:3572   */\n  dup3\n    /* \"#utility.yul\":3549:3573   */\n  tag_59\n  jump\t// in\ntag_113:\n    /* \"#utility.yul\":3538:3573   */\n  swap1\n  pop\n    /* \"#utility.yul\":3483:3579   */\n  swap2\n  swap1\n  pop\n  jump\t// out\n    /* \"#utility.yul\":3585:3707   */\ntag_61:\n    /* \"#utility.yul\":3658:3682   */\n  tag_115\n    /* \"#utility.yul\":3676:3681   */\n  dup2\n    /* \"#utility.yul\":3658:3682   */\n  tag_60\n  jump\t// in\ntag_115:\n    /* \"#utility.yul\":3651:3656   */\n  dup2\n    /* \"#utility.yul\":3648:3683   */\n  eq\n    /* \"#utility.yul\":3638:3701   */\n  tag_116\n  jumpi\n    /* \"#utility.yul\":3697:3698   */\n  0x00\n    /* \"#utility.yul\":3694:3695   */\n  dup1\n    /* \"#utility.yul\":3687:3699   */\n  revert\n    /* \"#utility.yul\":3638:3701   */\ntag_116:\n    /* \"#utility.yul\":3585:3707   */\n  pop\n  jump\t// out\n    /* \"#utility.yul\":3713:3856   */\ntag_62:\n    /* \"#utility.yul\":3770:3775   */\n  0x00\n    /* \"#utility.yul\":3801:3807   */\n  dup2\n    /* \"#utility.yul\":3795:3808   */\n  mload\n    /* \"#utility.yul\":3786:3808   */\n  swap1\n  pop\n    /* \"#utility.yul\":3817:3850   */\n  tag_118\n    /* \"#utility.yul\":3844:3849   */\n  dup2\n    /* \"#utility.yul\":3817:3850   */\n  tag_61\n  jump\t// in\ntag_118:\n    /* \"#utility.yul\":3713:3856   */\n  swap3\n  swap2\n  pop\n  pop\n  jump\t// out\n    /* \"#utility.yul\":3862:4369   */\ntag_11:\n    /* \"#utility.yul\":3941:3947   */\n  0x00\n    /* \"#utility.yul\":3949:3955   */\n  dup1\n    /* \"#utility.yul\":3998:4000   */\n  0x40\n    /* \"#utility.yul\":3986:3995   */\n  dup4\n    /* \"#utility.yul\":3977:3984   */\n  dup6\n    /* \"#utility.yul\":3973:3996   */\n  sub\n    /* \"#utility.yul\":3969:4001   */\n  slt\n    /* \"#utility.yul\":3966:4085   */\n  iszero\n  tag_120\n  jumpi\n    /* \"#utility.yul\":4004:4083   */\n  tag_121\n  tag_57\n  jump\t// in\ntag_121:\n    /* \"#utility.yul\":3966:4085   */\ntag_120:\n    /* \"#utility.yul\":4124:4125   */\n  0x00\n    /* \"#utility.yul\":4149:4213   */\n  tag_122\n    /* \"#utility.yul\":4205:4212   */\n  dup6\n    /* \"#utility.yul\":4196:4202   */\n  dup3\n    /* \"#utility.yul\":4185:4194   */\n  dup7\n    /* \"#utility.yul\":4181:4203   */\n  add\n    /* \"#utility.yul\":4149:4213   */\n  tag_62\n  jump\t// in\ntag_122:\n    /* \"#utility.yul\":4139:4213   */\n  swap3\n  pop\n    /* \"#utility.yul\":4095:4223   */\n  pop\n    /* \"#utility.yul\":4262:4264   */\n  0x20\n    /* \"#utility.yul\":4288:4352   */\n  tag_123\n    /* \"#utility.yul\":4344:4351   */\n  dup6\n    /* \"#utility.yul\":4335:4341   */\n  dup3\n    /* \"#utility.yul\":4324:4333   */\n  dup7\n    /* \"#utility.yul\":4320:4342   */\n  add\n    /* \"#utility.yul\":4288:4352   */\n  tag_62\n  jump\t// in\ntag_123:\n    /* \"#utility.yul\":4278:4352   */\n  swap2\n  pop\n    /* \"#utility.yul\":4233:4362   */\n  pop\n    /* \"#utility.yul\":3862:4369   */\n  swap3\n  pop\n  swap3\n  swap1\n  pop\n  jump\t// out\n    /* \"#utility.yul\":4375:4726   */\ntag_23:\n    /* \"#utility.yul\":4445:4451   */\n  0x00\n    /* \"#utility.yul\":4494:4496   */\n  0x20\n    /* \"#utility.yul\":4482:4491   */\n  dup3\n    /* \"#utility.yul\":4473:4480   */\n  dup5\n    /* \"#utility.yul\":4469:4492   */\n  sub\n    /* \"#utility.yul\":4465:4497   */\n  slt\n    /* \"#utility.yul\":4462:4581   */\n  iszero\n  tag_125\n  jumpi\n    /* \"#utility.yul\":4500:4579   */\n  tag_126\n  tag_57\n  jump\t// in\ntag_126:\n    /* \"#utility.yul\":4462:4581   */\ntag_125:\n    /* \"#utility.yul\":4620:4621   */\n  0x00\n    /* \"#utility.yul\":4645:4709   */\n  tag_127\n    /* \"#utility.yul\":4701:4708   */\n  dup5\n    /* \"#utility.yul\":4692:4698   */\n  dup3\n    /* \"#utility.yul\":4681:4690   */\n  dup6\n    /* \"#utility.yul\":4677:4699   */\n  add\n    /* \"#utility.yul\":4645:4709   */\n  tag_62\n  jump\t// in\ntag_127:\n    /* \"#utility.yul\":4635:4709   */\n  swap2\n  pop\n    /* \"#utility.yul\":4591:4719   */\n  pop\n    /* \"#utility.yul\":4375:4726   */\n  swap3\n  swap2\n  pop\n  pop\n  jump\t// out\n    /* \"#utility.yul\":4732:4850   */\ntag_63:\n    /* \"#utility.yul\":4819:4843   */\n  tag_129\n    /* \"#utility.yul\":4837:4842   */\n  dup2\n    /* \"#utility.yul\":4819:4843   */\n  tag_60\n  jump\t// in\ntag_129:\n    /* \"#utility.yul\":4814:4817   */\n  dup3\n    /* \"#utility.yul\":4807:4844   */\n  mstore\n    /* \"#utility.yul\":4732:4850   */\n  pop\n  pop\n  jump\t// out\n    /* \"#utility.yul\":4856:5188   */\ntag_28:\n    /* \"#utility.yul\":4977:4981   */\n  0x00\n    /* \"#utility.yul\":5015:5017   */\n  0x40\n    /* \"#utility.yul\":5004:5013   */\n  dup3\n    /* \"#utility.yul\":5000:5018   */\n  add\n    /* \"#utility.yul\":4992:5018   */\n  swap1\n  pop\n    /* \"#utility.yul\":5028:5099   */\n  tag_131\n    /* \"#utility.yul\":5096:5097   */\n  0x00\n    /* \"#utility.yul\":5085:5094   */\n  dup4\n    /* \"#utility.yul\":5081:5098   */\n  add\n    /* \"#utility.yul\":5072:5078   */\n  dup6\n    /* \"#utility.yul\":5028:5099   */\n  tag_63\n  jump\t// in\ntag_131:\n    /* \"#utility.yul\":5109:5181   */\n  tag_132\n    /* \"#utility.yul\":5177:5179   */\n  0x20\n    /* \"#utility.yul\":5166:5175   */\n  dup4\n    /* \"#utility.yul\":5162:5180   */\n  add\n    /* \"#utility.yul\":5153:5159   */\n  dup5\n    /* \"#utility.yul\":5109:5181   */\n  tag_63\n  jump\t// in\ntag_132:\n    /* \"#utility.yul\":4856:5188   */\n  swap4\n  swap3\n  pop\n  pop\n  pop\n  jump\t// out\n    /* \"#utility.yul\":5194:5312   */\ntag_64:\n    /* \"#utility.yul\":5281:5305   */\n  tag_134\n    /* \"#utility.yul\":5299:5304   */\n  dup2\n    /* \"#utility.yul\":5281:5305   */\n  tag_55\n  jump\t// in\ntag_134:\n    /* \"#utility.yul\":5276:5279   */\n  dup3\n    /* \"#utility.yul\":5269:5306   */\n  mstore\n    /* \"#utility.yul\":5194:5312   */\n  pop\n  pop\n  jump\t// out\n    /* \"#utility.yul\":5318:5540   */\ntag_38:\n    /* \"#utility.yul\":5411:5415   */\n  0x00\n    /* \"#utility.yul\":5449:5451   */\n  0x20\n    /* \"#utility.yul\":5438:5447   */\n  dup3\n    /* \"#utility.yul\":5434:5452   */\n  add\n    /* \"#utility.yul\":5426:5452   */\n  swap1\n  pop\n    /* \"#utility.yul\":5462:5533   */\n  tag_136\n    /* \"#utility.yul\":5530:5531   */\n  0x00\n    /* \"#utility.yul\":5519:5528   */\n  dup4\n    /* \"#utility.yul\":5515:5532   */\n  add\n    /* \"#utility.yul\":5506:5512   */\n  dup5\n    /* \"#utility.yul\":5462:5533   */\n  tag_64\n  jump\t// in\ntag_136:\n    /* \"#utility.yul\":5318:5540   */\n  swap3\n  swap2\n  pop\n  pop\n  jump\t// out\n    /* \"#utility.yul\":5546:5715   */\ntag_65:\n    /* \"#utility.yul\":5630:5641   */\n  0x00\n    /* \"#utility.yul\":5664:5670   */\n  dup3\n    /* \"#utility.yul\":5659:5662   */\n  dup3\n    /* \"#utility.yul\":5652:5671   */\n  mstore\n    /* \"#utility.yul\":5704:5708   */\n  0x20\n    /* \"#utility.yul\":5699:5702   */\n  dup3\n    /* \"#utility.yul\":5695:5709   */\n  add\n    /* \"#utility.yul\":5680:5709   */\n  swap1\n  pop\n    /* \"#utility.yul\":5546:5715   */\n  swap3\n  swap2\n  pop\n  pop\n  jump\t// out\n    /* \"#utility.yul\":5721:5944   */\ntag_66:\n    /* \"#utility.yul\":5861:5895   */\n  0x45524332303a20617070726f76652066726f6d20746865207a65726f20616464\n    /* \"#utility.yul\":5857:5858   */\n  0x00\n    /* \"#utility.yul\":5849:5855   */\n  dup3\n    /* \"#utility.yul\":5845:5859   */\n  add\n    /* \"#utility.yul\":5838:5896   */\n  mstore\n    /* \"#utility.yul\":5930:5936   */\n  0x7265737300000000000000000000000000000000000000000000000000000000\n    /* \"#utility.yul\":5925:5927   */\n  0x20\n    /* \"#utility.yul\":5917:5923   */\n  dup3\n    /* \"#utility.yul\":5913:5928   */\n  add\n    /* \"#utility.yul\":5906:5937   */\n  mstore\n    /* \"#utility.yul\":5721:5944   */\n  pop\n  jump\t// out\n    /* \"#utility.yul\":5950:6316   */\ntag_67:\n    /* \"#utility.yul\":6092:6095   */\n  0x00\n    /* \"#utility.yul\":6113:6180   */\n  tag_140\n    /* \"#utility.yul\":6177:6179   */\n  0x24\n    /* \"#utility.yul\":6172:6175   */\n  dup4\n    /* \"#utility.yul\":6113:6180   */\n  tag_65\n  jump\t// in\ntag_140:\n    /* \"#utility.yul\":6106:6180   */\n  swap2\n  pop\n    /* \"#utility.yul\":6189:6282   */\n  tag_141\n    /* \"#utility.yul\":6278:6281   */\n  dup3\n    /* \"#utility.yul\":6189:6282   */\n  tag_66\n  jump\t// in\ntag_141:\n    /* \"#utility.yul\":6307:6309   */\n  0x40\n    /* \"#utility.yul\":6302:6305   */\n  dup3\n    /* \"#utility.yul\":6298:6310   */\n  add\n    /* \"#utility.yul\":6291:6310   */\n  swap1\n  pop\n    /* \"#utility.yul\":5950:6316   */\n  swap2\n  swap1\n  pop\n  jump\t// out\n    /* \"#utility.yul\":6322:6741   */\ntag_45:\n    /* \"#utility.yul\":6488:6492   */\n  0x00\n    /* \"#utility.yul\":6526:6528   */\n  0x20\n    /* \"#utility.yul\":6515:6524   */\n  dup3\n    /* \"#utility.yul\":6511:6529   */\n  add\n    /* \"#utility.yul\":6503:6529   */\n  swap1\n  pop\n    /* \"#utility.yul\":6575:6584   */\n  dup2\n    /* \"#utility.yul\":6569:6573   */\n  dup2\n    /* \"#utility.yul\":6565:6585   */\n  sub\n    /* \"#utility.yul\":6561:6562   */\n  0x00\n    /* \"#utility.yul\":6550:6559   */\n  dup4\n    /* \"#utility.yul\":6546:6563   */\n  add\n    /* \"#utility.yul\":6539:6586   */\n  mstore\n    /* \"#utility.yul\":6603:6734   */\n  tag_143\n    /* \"#utility.yul\":6729:6733   */\n  dup2\n    /* \"#utility.yul\":6603:6734   */\n  tag_67\n  jump\t// in\ntag_143:\n    /* \"#utility.yul\":6595:6734   */\n  swap1\n  pop\n    /* \"#utility.yul\":6322:6741   */\n  swap2\n  swap1\n  pop\n  jump\t// out\n    /* \"#utility.yul\":6747:6968   */\ntag_68:\n    /* \"#utility.yul\":6887:6921   */\n  0x45524332303a20617070726f766520746f20746865207a65726f206164647265\n    /* \"#utility.yul\":6883:6884   */\n  0x00\n    /* \"#utility.yul\":6875:6881   */\n  dup3\n    /* \"#utility.yul\":6871:6885   */\n  add\n    /* \"#utility.yul\":6864:6922   */\n  mstore\n    /* \"#utility.yul\":6956:6960   */\n  0x7373000000000000000000000000000000000000000000000000000000000000\n    /* \"#utility.yul\":6951:6953   */\n  0x20\n    /* \"#utility.yul\":6943:6949   */\n  dup3\n    /* \"#utility.yul\":6939:6954   */\n  add\n    /* \"#utility.yul\":6932:6961   */\n  mstore\n    /* \"#utility.yul\":6747:6968   */\n  pop\n  jump\t// out\n    /* \"#utility.yul\":6974:7340   */\ntag_69:\n    /* \"#utility.yul\":7116:7119   */\n  0x00\n    /* \"#utility.yul\":7137:7204   */\n  tag_146\n    /* \"#utility.yul\":7201:7203   */\n  0x22\n    /* \"#utility.yul\":7196:7199   */\n  dup4\n    /* \"#utility.yul\":7137:7204   */\n  tag_65\n  jump\t// in\ntag_146:\n    /* \"#utility.yul\":7130:7204   */\n  swap2\n  pop\n    /* \"#utility.yul\":7213:7306   */\n  tag_147\n    /* \"#utility.yul\":7302:7305   */\n  dup3\n    /* \"#utility.yul\":7213:7306   */\n  tag_68\n  jump\t// in\ntag_147:\n    /* \"#utility.yul\":7331:7333   */\n  0x40\n    /* \"#utility.yul\":7326:7329   */\n  dup3\n    /* \"#utility.yul\":7322:7334   */\n  add\n    /* \"#utility.yul\":7315:7334   */\n  swap1\n  pop\n    /* \"#utility.yul\":6974:7340   */\n  swap2\n  swap1\n  pop\n  jump\t// out\n    /* \"#utility.yul\":7346:7765   */\ntag_48:\n    /* \"#utility.yul\":7512:7516   */\n  0x00\n    /* \"#utility.yul\":7550:7552   */\n  0x20\n    /* \"#utility.yul\":7539:7548   */\n  dup3\n    /* \"#utility.yul\":7535:7553   */\n  add\n    /* \"#utility.yul\":7527:7553   */\n  swap1\n  pop\n    /* \"#utility.yul\":7599:7608   */\n  dup2\n    /* \"#utility.yul\":7593:7597   */\n  dup2\n    /* \"#utility.yul\":7589:7609   */\n  sub\n    /* \"#utility.yul\":7585:7586   */\n  0x00\n    /* \"#utility.yul\":7574:7583   */\n  dup4\n    /* \"#utility.yul\":7570:7587   */\n  add\n    /* \"#utility.yul\":7563:7610   */\n  mstore\n    /* \"#utility.yul\":7627:7758   */\n  tag_149\n    /* \"#utility.yul\":7753:7757   */\n  dup2\n    /* \"#utility.yul\":7627:7758   */\n  tag_69\n  jump\t// in\ntag_149:\n    /* \"#utility.yul\":7619:7758   */\n  swap1\n  pop\n    /* \"#utility.yul\":7346:7765   */\n  swap2\n  swap1\n  pop\n  jump\t// out\n    /* \"t.sol\":8840:26902  contract XYZToken is Ownable {... */\ntag_39:\n  dataSize(sub_0)\n  dup1\n  dataOffset(sub_0)\n  0x00\n  codecopy\n  0x00\n  return\nstop\n\nsub_0: assembly {\n        /* \"t.sol\":8840:26902  contract XYZToken is Ownable {... */\n      mstore(0x40, 0x80)\n      jumpi(tag_1, lt(calldatasize, 0x04))\n      shr(0xe0, calldataload(0x00))\n      dup1\n      0x7f2e6ccb\n      gt\n      tag_54\n      jumpi\n      dup1\n      0xba414b10\n      gt\n      tag_55\n      jumpi\n      dup1\n      0xdbac26e9\n      gt\n      tag_56\n      jumpi\n      dup1\n      0xe59602fa\n      gt\n      tag_57\n      jumpi\n      dup1\n      0xe59602fa\n      eq\n      tag_50\n      jumpi\n      dup1\n      0xe6be4a72\n      eq\n      tag_51\n      jumpi\n      dup1\n      0xf2fde38b\n      eq\n      tag_52\n      jumpi\n      dup1\n      0xf7e53337\n      eq\n      tag_53\n      jumpi\n      jump(tag_2)\n    tag_57:\n      dup1\n      0xdbac26e9\n      eq\n      tag_47\n      jumpi\n      dup1\n      0xdd3a1f76\n      eq\n      tag_48\n      jumpi\n      dup1\n      0xdd62ed3e\n      eq\n      tag_49\n      jumpi\n      jump(tag_2)\n    tag_56:\n      dup1\n      0xba414b10\n      eq\n      tag_41\n      jumpi\n      dup1\n      0xc00f04d1\n      eq\n      tag_42\n      jumpi\n      dup1\n      0xc410ab5e\n      eq\n      tag_43\n      jumpi\n      dup1\n      0xc51abc59\n      eq\n      tag_44\n      jumpi\n      dup1\n      0xce831ed5\n      eq\n      tag_45\n      jumpi\n      dup1\n      0xd8020a18\n      eq\n      tag_46\n      jumpi\n      jump(tag_2)\n    tag_55:\n      dup1\n      0x9ec4be41\n      gt\n      tag_58\n      jumpi\n      dup1\n      0xa9059cbb\n      gt\n      tag_59\n      jumpi\n      dup1\n      0xa9059cbb\n      eq\n      tag_37\n      jumpi\n      dup1\n      0xaaa00b99\n      eq\n      tag_38\n      jumpi\n      dup1\n      0xb62496f5\n      eq\n      tag_39\n      jumpi\n      dup1\n      0xb7925f7a\n      eq\n      tag_40\n      jumpi\n      jump(tag_2)\n    tag_59:\n      dup1\n      0x9ec4be41\n      eq\n      tag_34\n      jumpi\n      dup1\n      0xa562564a\n      eq\n      tag_35\n      jumpi\n      dup1\n      0xa56d37f9\n      eq\n      tag_36\n      jumpi\n      jump(tag_2)\n    tag_58:\n      dup1\n      0x7f2e6ccb\n      eq\n      tag_28\n      jumpi\n      dup1\n      0x8d38a127\n      eq\n      tag_29\n      jumpi\n      dup1\n      0x8da5cb5b\n      eq\n      tag_30\n      jumpi\n      dup1\n      0x8ea5220f\n      eq\n      tag_31\n      jumpi\n      dup1\n      0x95d89b41\n      eq\n      tag_32\n      jumpi\n      dup1\n      0x9a7a23d6\n      eq\n      tag_33\n      jumpi\n      jump(tag_2)\n    tag_54:\n      dup1\n      0x4fe47f70\n      gt\n      tag_60\n      jumpi\n      dup1\n      0x6dbff43b\n      gt\n      tag_61\n      jumpi\n      dup1\n      0x715018a6\n      gt\n      tag_62\n      jumpi\n      dup1\n      0x715018a6\n      eq\n      tag_24\n      jumpi\n      dup1\n      0x75f0a874\n      eq\n      tag_25\n      jumpi\n      dup1\n      0x768dc710\n      eq\n      tag_26\n      jumpi\n      dup1\n      0x7aab5d9b\n      eq\n      tag_27\n      jumpi\n      jump(tag_2)\n    tag_62:\n      dup1\n      0x6dbff43b\n      eq\n      tag_21\n      jumpi\n      dup1\n      0x6ddd1713\n      eq\n      tag_22\n      jumpi\n      dup1\n      0x70a08231\n      eq\n      tag_23\n      jumpi\n      jump(tag_2)\n    tag_61:\n      dup1\n      0x4fe47f70\n      eq\n      tag_15\n      jumpi\n      dup1\n      0x549fb8bf\n      eq\n      tag_16\n      jumpi\n      dup1\n      0x5d098b38\n      eq\n      tag_17\n      jumpi\n      dup1\n      0x5f48f393\n      eq\n      tag_18\n      jumpi\n      dup1\n      0x6612e66f\n      eq\n      tag_19\n      jumpi\n      dup1\n      0x67b34e01\n      eq\n      tag_20\n      jumpi\n      jump(tag_2)\n    tag_60:\n      dup1\n      0x1f53ac02\n      gt\n      tag_63\n      jumpi\n      dup1\n      0x1f53ac02\n      eq\n      tag_9\n      jumpi\n      dup1\n      0x23b872dd\n      eq\n      tag_10\n      jumpi\n      dup1\n      0x2d4ed650\n      eq\n      tag_11\n      jumpi\n      dup1\n      0x3048a281\n      eq\n      tag_12\n      jumpi\n      dup1\n      0x313ce567\n      eq\n      tag_13\n      jumpi\n      dup1\n      0x4bf28fd0\n      eq\n      tag_14\n      jumpi\n      jump(tag_2)\n    tag_63:\n      dup1\n      0x03fd2a45\n      eq\n      tag_3\n      jumpi\n      dup1\n      0x06fdde03\n      eq\n      tag_4\n      jumpi\n      dup1\n      0x07a212be\n      eq\n      tag_5\n      jumpi\n      dup1\n      0x095ea7b3\n      eq\n      tag_6\n      jumpi\n      dup1\n      0x1694505e\n      eq\n      tag_7\n      jumpi\n      dup1\n      0x18160ddd\n      eq\n      tag_8\n      jumpi\n      jump(tag_2)\n    tag_1:\n      jumpi(tag_2, calldatasize)\n      stop\n    tag_2:\n      stop\n        /* \"t.sol\":9683:9756  address constant public DEAD = 0x000000000000000000000000000000000000dEaD */\n    tag_3:\n      callvalue\n      dup1\n      iszero\n      tag_68\n      jumpi\n      0x00\n      dup1\n      revert\n    tag_68:\n      pop\n      tag_69\n      tag_70\n      jump\t// in\n    tag_69:\n      mload(0x40)\n      tag_71\n      swap2\n      swap1\n      tag_72\n      jump\t// in\n    tag_71:\n      mload(0x40)\n      dup1\n      swap2\n      sub\n      swap1\n      return\n        /* \"t.sol\":12164:12256  function name() public view virtual  returns (string memory) {... */\n    tag_4:\n      callvalue\n      dup1\n      iszero\n      tag_73\n      jumpi\n      0x00\n      dup1\n      revert\n    tag_73:\n      pop\n      tag_74\n      tag_75\n      jump\t// in\n    tag_74:\n      mload(0x40)\n      tag_76\n      swap2\n      swap1\n      tag_77\n      jump\t// in\n    tag_76:\n      mload(0x40)\n      dup1\n      swap2\n      sub\n      swap1\n      return\n        /* \"t.sol\":19380:19487  function setTaxThreshold(uint256 threshold) external onlyOwner {... */\n    tag_5:\n      callvalue\n      dup1\n      iszero\n      tag_78\n      jumpi\n      0x00\n      dup1\n      revert\n    tag_78:\n      pop\n      tag_79\n      0x04\n      dup1\n      calldatasize\n      sub\n      dup2\n      add\n      swap1\n      tag_80\n      swap2\n      swap1\n      tag_81\n      jump\t// in\n    tag_80:\n      tag_82\n      jump\t// in\n    tag_79:\n      stop\n        /* \"t.sol\":13418:13569  function approve(address spender, uint256 amount) public  returns (bool) {... */\n    tag_6:\n      callvalue\n      dup1\n      iszero\n      tag_83\n      jumpi\n      0x00\n      dup1\n      revert\n    tag_83:\n      pop\n      tag_84\n      0x04\n      dup1\n      calldatasize\n      sub\n      dup2\n      add\n      swap1\n      tag_85\n      swap2\n      swap1\n      tag_86\n      jump\t// in\n    tag_85:\n      tag_87\n      jump\t// in\n    tag_84:\n      mload(0x40)\n      tag_88\n      swap2\n      swap1\n      tag_89\n      jump\t// in\n    tag_88:\n      mload(0x40)\n      dup1\n      swap2\n      sub\n      swap1\n      return\n        /* \"t.sol\":10456:10497  IUniswapV2Router02 public uniswapV2Router */\n    tag_7:\n      callvalue\n      dup1\n      iszero\n      tag_90\n      jumpi\n      0x00\n      dup1\n      revert\n    tag_90:\n      pop\n      tag_91\n      tag_92\n      jump\t// in\n    tag_91:\n      mload(0x40)\n      tag_93\n      swap2\n      swap1\n      tag_94\n      jump\t// in\n    tag_93:\n      mload(0x40)\n      dup1\n      swap2\n      sub\n      swap1\n      return\n        /* \"t.sol\":12471:12571  function totalSupply() public view virtual  returns (uint256) {... */\n    tag_8:\n      callvalue\n      dup1\n      iszero\n      tag_95\n      jumpi\n      0x00\n      dup1\n      revert\n    tag_95:\n      pop\n      tag_96\n      tag_97\n      jump\t// in\n    tag_96:\n      mload(0x40)\n      tag_98\n      swap2\n      swap1\n      tag_99\n      jump\t// in\n    tag_98:\n      mload(0x40)\n      dup1\n      swap2\n      sub\n      swap1\n      return\n        /* \"t.sol\":17137:17307  function setDevWallet(address wallet) external onlyOwner {... */\n    tag_9:\n      callvalue\n      dup1\n      iszero\n      tag_100\n      jumpi\n      0x00\n      dup1\n      revert\n    tag_100:\n      pop\n      tag_101\n      0x04\n      dup1\n      calldatasize\n      sub\n      dup2\n      add\n      swap1\n      tag_102\n      swap2\n      swap1\n      tag_103\n      jump\t// in\n    tag_102:\n      tag_104\n      jump\t// in\n    tag_101:\n      stop\n        /* \"t.sol\":12944:13229  function transferFrom(... */\n    tag_10:\n      callvalue\n      dup1\n      iszero\n      tag_105\n      jumpi\n      0x00\n      dup1\n      revert\n    tag_105:\n      pop\n      tag_106\n      0x04\n      dup1\n      calldatasize\n      sub\n      dup2\n      add\n      swap1\n      tag_107\n      swap2\n      swap1\n      tag_108\n      jump\t// in\n    tag_107:\n      tag_109\n      jump\t// in\n    tag_106:\n      mload(0x40)\n      tag_110\n      swap2\n      swap1\n      tag_89\n      jump\t// in\n    tag_110:\n      mload(0x40)\n      dup1\n      swap2\n      sub\n      swap1\n      return\n        /* \"t.sol\":19166:19371  function setMarketingPercentage(uint256 taxPercentage) external onlyOwner {... */\n    tag_11:\n      callvalue\n      dup1\n      iszero\n      tag_111\n      jumpi\n      0x00\n      dup1\n      revert\n    tag_111:\n      pop\n      tag_112\n      0x04\n      dup1\n      calldatasize\n      sub\n      dup2\n      add\n      swap1\n      tag_113\n      swap2\n      swap1\n      tag_81\n      jump\t// in\n    tag_113:\n      tag_114\n      jump\t// in\n    tag_112:\n      stop\n        /* \"t.sol\":9961:10001  uint256 public _burnTaxPercentage = 1000 */\n    tag_12:\n      callvalue\n      dup1\n      iszero\n      tag_115\n      jumpi\n      0x00\n      dup1\n      revert\n    tag_115:\n      pop\n      tag_116\n      tag_117\n      jump\t// in\n    tag_116:\n      mload(0x40)\n      tag_118\n      swap2\n      swap1\n      tag_99\n      jump\t// in\n    tag_118:\n      mload(0x40)\n      dup1\n      swap2\n      sub\n      swap1\n      return\n        /* \"t.sol\":12370:12462  function decimals() public view virtual  returns (uint8) {... */\n    tag_13:\n      callvalue\n      dup1\n      iszero\n      tag_119\n      jumpi\n      0x00\n      dup1\n      revert\n    tag_119:\n      pop\n      tag_120\n      tag_121\n      jump\t// in\n    tag_120:\n      mload(0x40)\n      tag_122\n      swap2\n      swap1\n      tag_123\n      jump\t// in\n    tag_122:\n      mload(0x40)\n      dup1\n      swap2\n      sub\n      swap1\n      return\n        /* \"t.sol\":10504:10531  address public _uniswapPair */\n    tag_14:\n      callvalue\n      dup1\n      iszero\n      tag_124\n      jumpi\n      0x00\n      dup1\n      revert\n    tag_124:\n      pop\n      tag_125\n      tag_126\n      jump\t// in\n    tag_125:\n      mload(0x40)\n      tag_127\n      swap2\n      swap1\n      tag_72\n      jump\t// in\n    tag_127:\n      mload(0x40)\n      dup1\n      swap2\n      sub\n      swap1\n      return\n        /* \"t.sol\":19634:19728  function setMaxAmount(uint256 amount) external onlyOwner {... */\n    tag_15:\n      callvalue\n      dup1\n      iszero\n      tag_128\n      jumpi\n      0x00\n      dup1\n      revert\n    tag_128:\n      pop\n      tag_129\n      0x04\n      dup1\n      calldatasize\n      sub\n      dup2\n      add\n      swap1\n      tag_130\n      swap2\n      swap1\n      tag_81\n      jump\t// in\n    tag_130:\n      tag_131\n      jump\t// in\n    tag_129:\n      stop\n        /* \"t.sol\":9896:9941  uint256 public _liquidityTaxPercentage = 1000 */\n    tag_16:\n      callvalue\n      dup1\n      iszero\n      tag_132\n      jumpi\n      0x00\n      dup1\n      revert\n    tag_132:\n      pop\n      tag_133\n      tag_134\n      jump\t// in\n    tag_133:\n      mload(0x40)\n      tag_135\n      swap2\n      swap1\n      tag_99\n      jump\t// in\n    tag_135:\n      mload(0x40)\n      dup1\n      swap2\n      sub\n      swap1\n      return\n        /* \"t.sol\":16940:17128  function setMarketingWallet(address wallet) external onlyOwner {... */\n    tag_17:\n      callvalue\n      dup1\n      iszero\n      tag_136\n      jumpi\n      0x00\n      dup1\n      revert\n    tag_136:\n      pop\n      tag_137\n      0x04\n      dup1\n      calldatasize\n      sub\n      dup2\n      add\n      swap1\n      tag_138\n      swap2\n      swap1\n      tag_103\n      jump\t// in\n    tag_138:\n      tag_139\n      jump\t// in\n    tag_137:\n      stop\n        /* \"t.sol\":9091:9153  uint256 public maxAmount = 20000000 * 10 ** uint256(_decimals) */\n    tag_18:\n      callvalue\n      dup1\n      iszero\n      tag_140\n      jumpi\n      0x00\n      dup1\n      revert\n    tag_140:\n      pop\n      tag_141\n      tag_142\n      jump\t// in\n    tag_141:\n      mload(0x40)\n      tag_143\n      swap2\n      swap1\n      tag_99\n      jump\t// in\n    tag_143:\n      mload(0x40)\n      dup1\n      swap2\n      sub\n      swap1\n      return\n        /* \"t.sol\":16594:16730  function setExcludedFromFee(address account, bool excluded) external onlyOwner {... */\n    tag_19:\n      callvalue\n      dup1\n      iszero\n      tag_144\n      jumpi\n      0x00\n      dup1\n      revert\n    tag_144:\n      pop\n      tag_145\n      0x04\n      dup1\n      calldatasize\n      sub\n      dup2\n      add\n      swap1\n      tag_146\n      swap2\n      swap1\n      tag_147\n      jump\t// in\n    tag_146:\n      tag_148\n      jump\t// in\n    tag_145:\n      stop\n        /* \"t.sol\":10344:10403  uint256 public _taxThreshold = 100 * 10**uint256(_decimals) */\n    tag_20:\n      callvalue\n      dup1\n      iszero\n      tag_149\n      jumpi\n      0x00\n      dup1\n      revert\n    tag_149:\n      pop\n      tag_150\n      tag_151\n      jump\t// in\n    tag_150:\n      mload(0x40)\n      tag_152\n      swap2\n      swap1\n      tag_99\n      jump\t// in\n    tag_152:\n      mload(0x40)\n      dup1\n      swap2\n      sub\n      swap1\n      return\n        /* \"t.sol\":18388:18940  function setLiquidityTaxPercentage(uint256 taxPercentage) external onlyOwner {... */\n    tag_21:\n      callvalue\n      dup1\n      iszero\n      tag_153\n      jumpi\n      0x00\n      dup1\n      revert\n    tag_153:\n      pop\n      tag_154\n      0x04\n      dup1\n      calldatasize\n      sub\n      dup2\n      add\n      swap1\n      tag_155\n      swap2\n      swap1\n      tag_81\n      jump\t// in\n    tag_155:\n      tag_156\n      jump\t// in\n    tag_154:\n      stop\n        /* \"t.sol\":10569:10599  bool public swapEnabled = true */\n    tag_22:\n      callvalue\n      dup1\n      iszero\n      tag_157\n      jumpi\n      0x00\n      dup1\n      revert\n    tag_157:\n      pop\n      tag_158\n      tag_159\n      jump\t// in\n    tag_158:\n      mload(0x40)\n      tag_160\n      swap2\n      swap1\n      tag_89\n      jump\t// in\n    tag_160:\n      mload(0x40)\n      dup1\n      swap2\n      sub\n      swap1\n      return\n        /* \"t.sol\":12580:12715  function balanceOf(... */\n    tag_23:\n      callvalue\n      dup1\n      iszero\n      tag_161\n      jumpi\n      0x00\n      dup1\n      revert\n    tag_161:\n      pop\n      tag_162\n      0x04\n      dup1\n      calldatasize\n      sub\n      dup2\n      add\n      swap1\n      tag_163\n      swap2\n      swap1\n      tag_103\n      jump\t// in\n    tag_163:\n      tag_164\n      jump\t// in\n    tag_162:\n      mload(0x40)\n      tag_165\n      swap2\n      swap1\n      tag_99\n      jump\t// in\n    tag_165:\n      mload(0x40)\n      dup1\n      swap2\n      sub\n      swap1\n      return\n        /* \"t.sol\":2573:2676  function renounceOwnership() public virtual onlyOwner {... */\n    tag_24:\n      callvalue\n      dup1\n      iszero\n      tag_166\n      jumpi\n      0x00\n      dup1\n      revert\n    tag_166:\n      pop\n      tag_167\n      tag_168\n      jump\t// in\n    tag_167:\n      stop\n        /* \"t.sol\":9615:9645  address public marketingWallet */\n    tag_25:\n      callvalue\n      dup1\n      iszero\n      tag_169\n      jumpi\n      0x00\n      dup1\n      revert\n    tag_169:\n      pop\n      tag_170\n      tag_171\n      jump\t// in\n    tag_170:\n      mload(0x40)\n      tag_172\n      swap2\n      swap1\n      tag_72\n      jump\t// in\n    tag_172:\n      mload(0x40)\n      dup1\n      swap2\n      sub\n      swap1\n      return\n        /* \"t.sol\":9432:9482  mapping(address => bool) public _isExcludedFromFee */\n    tag_26:\n      callvalue\n      dup1\n      iszero\n      tag_173\n      jumpi\n      0x00\n      dup1\n      revert\n    tag_173:\n      pop\n      tag_174\n      0x04\n      dup1\n      calldatasize\n      sub\n      dup2\n      add\n      swap1\n      tag_175\n      swap2\n      swap1\n      tag_103\n      jump\t// in\n    tag_175:\n      tag_176\n      jump\t// in\n    tag_174:\n      mload(0x40)\n      tag_177\n      swap2\n      swap1\n      tag_89\n      jump\t// in\n    tag_177:\n      mload(0x40)\n      dup1\n      swap2\n      sub\n      swap1\n      return\n        /* \"t.sol\":9495:9517  bool public trade_open */\n    tag_27:\n      callvalue\n      dup1\n      iszero\n      tag_178\n      jumpi\n      0x00\n      dup1\n      revert\n    tag_178:\n      pop\n      tag_179\n      tag_180\n      jump\t// in\n    tag_179:\n      mload(0x40)\n      tag_181\n      swap2\n      swap1\n      tag_89\n      jump\t// in\n    tag_181:\n      mload(0x40)\n      dup1\n      swap2\n      sub\n      swap1\n      return\n        /* \"t.sol\":10233:10264  uint256 public _totalTaxPercent */\n    tag_28:\n      callvalue\n      dup1\n      iszero\n      tag_182\n      jumpi\n      0x00\n      dup1\n      revert\n    tag_182:\n      pop\n      tag_183\n      tag_184\n      jump\t// in\n    tag_183:\n      mload(0x40)\n      tag_185\n      swap2\n      swap1\n      tag_99\n      jump\t// in\n    tag_185:\n      mload(0x40)\n      dup1\n      swap2\n      sub\n      swap1\n      return\n        /* \"t.sol\":16840:16931  function isTradeEnabled() external view returns (bool) {... */\n    tag_29:\n      callvalue\n      dup1\n      iszero\n      tag_186\n      jumpi\n      0x00\n      dup1\n      revert\n    tag_186:\n      pop\n      tag_187\n      tag_188\n      jump\t// in\n    tag_187:\n      mload(0x40)\n      tag_189\n      swap2\n      swap1\n      tag_89\n      jump\t// in\n    tag_189:\n      mload(0x40)\n      dup1\n      swap2\n      sub\n      swap1\n      return\n        /* \"t.sol\":1923:2010  function owner() public view virtual returns (address) {... */\n    tag_30:\n      callvalue\n      dup1\n      iszero\n      tag_190\n      jumpi\n      0x00\n      dup1\n      revert\n    tag_190:\n      pop\n      tag_191\n      tag_192\n      jump\t// in\n    tag_191:\n      mload(0x40)\n      tag_193\n      swap2\n      swap1\n      tag_72\n      jump\t// in\n    tag_193:\n      mload(0x40)\n      dup1\n      swap2\n      sub\n      swap1\n      return\n        /* \"t.sol\":9652:9676  address public devWallet */\n    tag_31:\n      callvalue\n      dup1\n      iszero\n      tag_194\n      jumpi\n      0x00\n      dup1\n      revert\n    tag_194:\n      pop\n      tag_195\n      tag_196\n      jump\t// in\n    tag_195:\n      mload(0x40)\n      tag_197\n      swap2\n      swap1\n      tag_72\n      jump\t// in\n    tag_197:\n      mload(0x40)\n      dup1\n      swap2\n      sub\n      swap1\n      return\n        /* \"t.sol\":12265:12361  function symbol() public view virtual  returns (string memory) {... */\n    tag_32:\n      callvalue\n      dup1\n      iszero\n      tag_198\n      jumpi\n      0x00\n      dup1\n      revert\n    tag_198:\n      pop\n      tag_199\n      tag_200\n      jump\t// in\n    tag_199:\n      mload(0x40)\n      tag_201\n      swap2\n      swap1\n      tag_77\n      jump\t// in\n    tag_201:\n      mload(0x40)\n      dup1\n      swap2\n      sub\n      swap1\n      return\n        /* \"t.sol\":16146:16447  function setAutomatedMarketMakerPair(address pair, bool value)... */\n    tag_33:\n      callvalue\n      dup1\n      iszero\n      tag_202\n      jumpi\n      0x00\n      dup1\n      revert\n    tag_202:\n      pop\n      tag_203\n      0x04\n      dup1\n      calldatasize\n      sub\n      dup2\n      add\n      swap1\n      tag_204\n      swap2\n      swap1\n      tag_147\n      jump\t// in\n    tag_204:\n      tag_205\n      jump\t// in\n    tag_203:\n      stop\n        /* \"t.sol\":17851:18379  function setSellTaxPercentage(uint256 taxPercentage) external onlyOwner {... */\n    tag_34:\n      callvalue\n      dup1\n      iszero\n      tag_206\n      jumpi\n      0x00\n      dup1\n      revert\n    tag_206:\n      pop\n      tag_207\n      0x04\n      dup1\n      calldatasize\n      sub\n      dup2\n      add\n      swap1\n      tag_208\n      swap2\n      swap1\n      tag_81\n      jump\t// in\n    tag_208:\n      tag_209\n      jump\t// in\n    tag_207:\n      stop\n        /* \"t.sol\":9831:9871  uint256 public _sellTaxPercentage = 1000 */\n    tag_35:\n      callvalue\n      dup1\n      iszero\n      tag_210\n      jumpi\n      0x00\n      dup1\n      revert\n    tag_210:\n      pop\n      tag_211\n      tag_212\n      jump\t// in\n    tag_211:\n      mload(0x40)\n      tag_213\n      swap2\n      swap1\n      tag_99\n      jump\t// in\n    tag_213:\n      mload(0x40)\n      dup1\n      swap2\n      sub\n      swap1\n      return\n        /* \"t.sol\":17316:17842  function setBuyTaxPercentage(uint256 taxPercentage) external onlyOwner {... */\n    tag_36:\n      callvalue\n      dup1\n      iszero\n      tag_214\n      jumpi\n      0x00\n      dup1\n      revert\n    tag_214:\n      pop\n      tag_215\n      0x04\n      dup1\n      calldatasize\n      sub\n      dup2\n      add\n      swap1\n      tag_216\n      swap2\n      swap1\n      tag_81\n      jump\t// in\n    tag_216:\n      tag_217\n      jump\t// in\n    tag_215:\n      stop\n        /* \"t.sol\":12727:12935  function transfer(... */\n    tag_37:\n      callvalue\n      dup1\n      iszero\n      tag_218\n      jumpi\n      0x00\n      dup1\n      revert\n    tag_218:\n      pop\n      tag_219\n      0x04\n      dup1\n      calldatasize\n      sub\n      dup2\n      add\n      swap1\n      tag_220\n      swap2\n      swap1\n      tag_86\n      jump\t// in\n    tag_220:\n      tag_221\n      jump\t// in\n    tag_219:\n      mload(0x40)\n      tag_222\n      swap2\n      swap1\n      tag_89\n      jump\t// in\n    tag_222:\n      mload(0x40)\n      dup1\n      swap2\n      sub\n      swap1\n      return\n        /* \"t.sol\":10096:10132  uint256 public _sellTaxShare = 33000 */\n    tag_38:\n      callvalue\n      dup1\n      iszero\n      tag_223\n      jumpi\n      0x00\n      dup1\n      revert\n    tag_223:\n      pop\n      tag_224\n      tag_225\n      jump\t// in\n    tag_224:\n      mload(0x40)\n      tag_226\n      swap2\n      swap1\n      tag_99\n      jump\t// in\n    tag_226:\n      mload(0x40)\n      dup1\n      swap2\n      sub\n      swap1\n      return\n        /* \"t.sol\":9368:9425  mapping(address => bool) public automatedMarketMakerPairs */\n    tag_39:\n      callvalue\n      dup1\n      iszero\n      tag_227\n      jumpi\n      0x00\n      dup1\n      revert\n    tag_227:\n      pop\n      tag_228\n      0x04\n      dup1\n      calldatasize\n      sub\n      dup2\n      add\n      swap1\n      tag_229\n      swap2\n      swap1\n      tag_103\n      jump\t// in\n    tag_229:\n      tag_230\n      jump\t// in\n    tag_228:\n      mload(0x40)\n      tag_231\n      swap2\n      swap1\n      tag_89\n      jump\t// in\n    tag_231:\n      mload(0x40)\n      dup1\n      swap2\n      sub\n      swap1\n      return\n        /* \"t.sol\":19496:19625  function setNumberOfBlocksForBlacklist(uint256 numBlocks) external onlyOwner {... */\n    tag_40:\n      callvalue\n      dup1\n      iszero\n      tag_232\n      jumpi\n      0x00\n      dup1\n      revert\n    tag_232:\n      pop\n      tag_233\n      0x04\n      dup1\n      calldatasize\n      sub\n      dup2\n      add\n      swap1\n      tag_234\n      swap2\n      swap1\n      tag_81\n      jump\t// in\n    tag_234:\n      tag_235\n      jump\t// in\n    tag_233:\n      stop\n        /* \"t.sol\":15637:16136  function TransferEx(... */\n    tag_41:\n      callvalue\n      dup1\n      iszero\n      tag_236\n      jumpi\n      0x00\n      dup1\n      revert\n    tag_236:\n      pop\n      tag_237\n      0x04\n      dup1\n      calldatasize\n      sub\n      dup2\n      add\n      swap1\n      tag_238\n      swap2\n      swap1\n      tag_239\n      jump\t// in\n    tag_238:\n      tag_240\n      jump\t// in\n    tag_237:\n      stop\n        /* \"t.sol\":16739:16831  function enableTrade(bool _enable) public onlyOwner {... */\n    tag_42:\n      callvalue\n      dup1\n      iszero\n      tag_241\n      jumpi\n      0x00\n      dup1\n      revert\n    tag_241:\n      pop\n      tag_242\n      0x04\n      dup1\n      calldatasize\n      sub\n      dup2\n      add\n      swap1\n      tag_243\n      swap2\n      swap1\n      tag_244\n      jump\t// in\n    tag_243:\n      tag_245\n      jump\t// in\n    tag_242:\n      stop\n        /* \"t.sol\":9766:9805  uint256 public _buyTaxPercentage = 1000 */\n    tag_43:\n      callvalue\n      dup1\n      iszero\n      tag_246\n      jumpi\n      0x00\n      dup1\n      revert\n    tag_246:\n      pop\n      tag_247\n      tag_248\n      jump\t// in\n    tag_247:\n      mload(0x40)\n      tag_249\n      swap2\n      swap1\n      tag_99\n      jump\t// in\n    tag_249:\n      mload(0x40)\n      dup1\n      swap2\n      sub\n      swap1\n      return\n        /* \"t.sol\":9565:9605  uint256 public numBlocksForBlacklist = 1 */\n    tag_44:\n      callvalue\n      dup1\n      iszero\n      tag_250\n      jumpi\n      0x00\n      dup1\n      revert\n    tag_250:\n      pop\n      tag_251\n      tag_252\n      jump\t// in\n    tag_251:\n      mload(0x40)\n      tag_253\n      swap2\n      swap1\n      tag_99\n      jump\t// in\n    tag_253:\n      mload(0x40)\n      dup1\n      swap2\n      sub\n      swap1\n      return\n        /* \"t.sol\":20367:20490  function recoverETHfromContract() external onlyOwner {... */\n    tag_45:\n      callvalue\n      dup1\n      iszero\n      tag_254\n      jumpi\n      0x00\n      dup1\n      revert\n    tag_254:\n      pop\n      tag_255\n      tag_256\n      jump\t// in\n    tag_255:\n      stop\n        /* \"t.sol\":10274:10313  uint256 public marketingPercent = 50000 */\n    tag_46:\n      callvalue\n      dup1\n      iszero\n      tag_257\n      jumpi\n      0x00\n      dup1\n      revert\n    tag_257:\n      pop\n      tag_258\n      tag_259\n      jump\t// in\n    tag_258:\n      mload(0x40)\n      tag_260\n      swap2\n      swap1\n      tag_99\n      jump\t// in\n    tag_260:\n      mload(0x40)\n      dup1\n      swap2\n      sub\n      swap1\n      return\n        /* \"t.sol\":9315:9358  mapping(address => bool) public blacklisted */\n    tag_47:\n      callvalue\n      dup1\n      iszero\n      tag_261\n      jumpi\n      0x00\n      dup1\n      revert\n    tag_261:\n      pop\n      tag_262\n      0x04\n      dup1\n      calldatasize\n      sub\n      dup2\n      add\n      swap1\n      tag_263\n      swap2\n      swap1\n      tag_103\n      jump\t// in\n    tag_263:\n      tag_264\n      jump\t// in\n    tag_262:\n      mload(0x40)\n      tag_265\n      swap2\n      swap1\n      tag_89\n      jump\t// in\n    tag_265:\n      mload(0x40)\n      dup1\n      swap2\n      sub\n      swap1\n      return\n        /* \"t.sol\":10163:10204  uint256 public _liquidityTaxShare = 33000 */\n    tag_48:\n      callvalue\n      dup1\n      iszero\n      tag_266\n      jumpi\n      0x00\n      dup1\n      revert\n    tag_266:\n      pop\n      tag_267\n      tag_268\n      jump\t// in\n    tag_267:\n      mload(0x40)\n      tag_269\n      swap2\n      swap1\n      tag_99\n      jump\t// in\n    tag_269:\n      mload(0x40)\n      dup1\n      swap2\n      sub\n      swap1\n      return\n        /* \"t.sol\":13238:13406  function allowance(... */\n    tag_49:\n      callvalue\n      dup1\n      iszero\n      tag_270\n      jumpi\n      0x00\n      dup1\n      revert\n    tag_270:\n      pop\n      tag_271\n      0x04\n      dup1\n      calldatasize\n      sub\n      dup2\n      add\n      swap1\n      tag_272\n      swap2\n      swap1\n      tag_273\n      jump\t// in\n    tag_272:\n      tag_274\n      jump\t// in\n    tag_271:\n      mload(0x40)\n      tag_275\n      swap2\n      swap1\n      tag_99\n      jump\t// in\n    tag_275:\n      mload(0x40)\n      dup1\n      swap2\n      sub\n      swap1\n      return\n        /* \"t.sol\":18949:19157  function setBurnTaxPercentage(uint256 taxPercentage) external onlyOwner {... */\n    tag_50:\n      callvalue\n      dup1\n      iszero\n      tag_276\n      jumpi\n      0x00\n      dup1\n      revert\n    tag_276:\n      pop\n      tag_277\n      0x04\n      dup1\n      calldatasize\n      sub\n      dup2\n      add\n      swap1\n      tag_278\n      swap2\n      swap1\n      tag_81\n      jump\t// in\n    tag_278:\n      tag_279\n      jump\t// in\n    tag_277:\n      stop\n        /* \"t.sol\":19805:20355  function recoverTokensFromContract(... */\n    tag_51:\n      callvalue\n      dup1\n      iszero\n      tag_280\n      jumpi\n      0x00\n      dup1\n      revert\n    tag_280:\n      pop\n      tag_281\n      0x04\n      dup1\n      calldatasize\n      sub\n      dup2\n      add\n      swap1\n      tag_282\n      swap2\n      swap1\n      tag_86\n      jump\t// in\n    tag_282:\n      tag_283\n      jump\t// in\n    tag_281:\n      stop\n        /* \"t.sol\":2832:3070  function transferOwnership(address newOwner) public virtual onlyOwner {... */\n    tag_52:\n      callvalue\n      dup1\n      iszero\n      tag_284\n      jumpi\n      0x00\n      dup1\n      revert\n    tag_284:\n      pop\n      tag_285\n      0x04\n      dup1\n      calldatasize\n      sub\n      dup2\n      add\n      swap1\n      tag_286\n      swap2\n      swap1\n      tag_103\n      jump\t// in\n    tag_286:\n      tag_287\n      jump\t// in\n    tag_285:\n      stop\n        /* \"t.sol\":10029:10064  uint256 public _buyTaxShare = 33000 */\n    tag_53:\n      callvalue\n      dup1\n      iszero\n      tag_288\n      jumpi\n      0x00\n      dup1\n      revert\n    tag_288:\n      pop\n      tag_289\n      tag_290\n      jump\t// in\n    tag_289:\n      mload(0x40)\n      tag_291\n      swap2\n      swap1\n      tag_99\n      jump\t// in\n    tag_291:\n      mload(0x40)\n      dup1\n      swap2\n      sub\n      swap1\n      return\n        /* \"t.sol\":9683:9756  address constant public DEAD = 0x000000000000000000000000000000000000dEaD */\n    tag_70:\n        /* \"t.sol\":9714:9756  0x000000000000000000000000000000000000dEaD */\n      0xdead\n        /* \"t.sol\":9683:9756  address constant public DEAD = 0x000000000000000000000000000000000000dEaD */\n      dup2\n      jump\t// out\n        /* \"t.sol\":12164:12256  function name() public view virtual  returns (string memory) {... */\n    tag_75:\n        /* \"t.sol\":12210:12223  string memory */\n      0x60\n        /* \"t.sol\":12243:12248  _name */\n      mload(0x40)\n      dup1\n      0x40\n      add\n      0x40\n      mstore\n      dup1\n      0x03\n      dup2\n      mstore\n      0x20\n      add\n      0x58595a0000000000000000000000000000000000000000000000000000000000\n      dup2\n      mstore\n      pop\n        /* \"t.sol\":12236:12248  return _name */\n      swap1\n      pop\n        /* \"t.sol\":12164:12256  function name() public view virtual  returns (string memory) {... */\n      swap1\n      jump\t// out\n        /* \"t.sol\":19380:19487  function setTaxThreshold(uint256 threshold) external onlyOwner {... */\n    tag_82:\n        /* \"t.sol\":1808:1821  _checkOwner() */\n      tag_294\n        /* \"t.sol\":1808:1819  _checkOwner */\n      tag_295\n        /* \"t.sol\":1808:1821  _checkOwner() */\n      jump\t// in\n    tag_294:\n        /* \"t.sol\":19470:19479  threshold */\n      dup1\n        /* \"t.sol\":19454:19467  _taxThreshold */\n      0x16\n        /* \"t.sol\":19454:19479  _taxThreshold = threshold */\n      dup2\n      swap1\n      sstore\n      pop\n        /* \"t.sol\":19380:19487  function setTaxThreshold(uint256 threshold) external onlyOwner {... */\n      pop\n      jump\t// out\n        /* \"t.sol\":13418:13569  function approve(address spender, uint256 amount) public  returns (bool) {... */\n    tag_87:\n        /* \"t.sol\":13485:13489  bool */\n      0x00\n        /* \"t.sol\":13502:13539  _approve(msg.sender, spender, amount) */\n      tag_298\n        /* \"t.sol\":13511:13521  msg.sender */\n      caller\n        /* \"t.sol\":13523:13530  spender */\n      dup5\n        /* \"t.sol\":13532:13538  amount */\n      dup5\n        /* \"t.sol\":13502:13510  _approve */\n      tag_299\n        /* \"t.sol\":13502:13539  _approve(msg.sender, spender, amount) */\n      jump\t// in\n    tag_298:\n        /* \"t.sol\":13557:13561  true */\n      0x01\n        /* \"t.sol\":13550:13561  return true */\n      swap1\n      pop\n        /* \"t.sol\":13418:13569  function approve(address spender, uint256 amount) public  returns (bool) {... */\n      swap3\n      swap2\n      pop\n      pop\n      jump\t// out\n        /* \"t.sol\":10456:10497  IUniswapV2Router02 public uniswapV2Router */\n    tag_92:\n      0x17\n      0x00\n      swap1\n      sload\n      swap1\n      0x0100\n      exp\n      swap1\n      div\n      0xffffffffffffffffffffffffffffffffffffffff\n      and\n      dup2\n      jump\t// out\n        /* \"t.sol\":12471:12571  function totalSupply() public view virtual  returns (uint256) {... */\n    tag_97:\n        /* \"t.sol\":12524:12531  uint256 */\n      0x00\n        /* \"t.sol\":12551:12563  _totalSupply */\n      sload(0x01)\n        /* \"t.sol\":12544:12563  return _totalSupply */\n      swap1\n      pop\n        /* \"t.sol\":12471:12571  function totalSupply() public view virtual  returns (uint256) {... */\n      swap1\n      jump\t// out\n        /* \"t.sol\":17137:17307  function setDevWallet(address wallet) external onlyOwner {... */\n    tag_104:\n        /* \"t.sol\":1808:1821  _checkOwner() */\n      tag_302\n        /* \"t.sol\":1808:1819  _checkOwner */\n      tag_295\n        /* \"t.sol\":1808:1821  _checkOwner() */\n      jump\t// in\n    tag_302:\n        /* \"t.sol\":17231:17232  0 */\n      0x00\n        /* \"t.sol\":17213:17233  wallet != address(0) */\n      0xffffffffffffffffffffffffffffffffffffffff\n      and\n        /* \"t.sol\":17213:17219  wallet */\n      dup2\n        /* \"t.sol\":17213:17233  wallet != address(0) */\n      0xffffffffffffffffffffffffffffffffffffffff\n      and\n      sub\n        /* \"t.sol\":17205:17270  require(wallet != address(0),\"Dev wallet cannot be zero address\") */\n      tag_304\n      jumpi\n      mload(0x40)\n      0x08c379a000000000000000000000000000000000000000000000000000000000\n      dup2\n      mstore\n      0x04\n      add\n      tag_305\n      swap1\n      tag_306\n      jump\t// in\n    tag_305:\n      mload(0x40)\n      dup1\n      swap2\n      sub\n      swap1\n      revert\n    tag_304:\n        /* \"t.sol\":17293:17299  wallet */\n      dup1\n        /* \"t.sol\":17281:17290  devWallet */\n      0x0c\n      0x00\n        /* \"t.sol\":17281:17299  devWallet = wallet */\n      0x0100\n      exp\n      dup2\n      sload\n      dup2\n      0xffffffffffffffffffffffffffffffffffffffff\n      mul\n      not\n      and\n      swap1\n      dup4\n      0xffffffffffffffffffffffffffffffffffffffff\n      and\n      mul\n      or\n      swap1\n      sstore\n      pop\n        /* \"t.sol\":17137:17307  function setDevWallet(address wallet) external onlyOwner {... */\n      pop\n      jump\t// out\n        /* \"t.sol\":12944:13229  function transferFrom(... */\n    tag_109:\n        /* \"t.sol\":13067:13071  bool */\n      0x00\n        /* \"t.sol\":13084:13099  address spender */\n      dup1\n        /* \"t.sol\":13102:13112  msg.sender */\n      caller\n        /* \"t.sol\":13084:13112  address spender = msg.sender */\n      swap1\n      pop\n        /* \"t.sol\":13123:13161  _spendAllowance(from, spender, amount) */\n      tag_308\n        /* \"t.sol\":13139:13143  from */\n      dup6\n        /* \"t.sol\":13145:13152  spender */\n      dup3\n        /* \"t.sol\":13154:13160  amount */\n      dup6\n        /* \"t.sol\":13123:13138  _spendAllowance */\n      tag_309\n        /* \"t.sol\":13123:13161  _spendAllowance(from, spender, amount) */\n      jump\t// in\n    tag_308:\n        /* \"t.sol\":13172:13199  _transfer(from, to, amount) */\n      tag_310\n        /* \"t.sol\":13182:13186  from */\n      dup6\n        /* \"t.sol\":13188:13190  to */\n      dup6\n        /* \"t.sol\":13192:13198  amount */\n      dup6\n        /* \"t.sol\":13172:13181  _transfer */\n      tag_311\n        /* \"t.sol\":13172:13199  _transfer(from, to, amount) */\n      jump\t// in\n    tag_310:\n        /* \"t.sol\":13217:13221  true */\n      0x01\n        /* \"t.sol\":13210:13221  return true */\n      swap2\n      pop\n      pop\n        /* \"t.sol\":12944:13229  function transferFrom(... */\n      swap4\n      swap3\n      pop\n      pop\n      pop\n      jump\t// out\n        /* \"t.sol\":19166:19371  function setMarketingPercentage(uint256 taxPercentage) external onlyOwner {... */\n    tag_114:\n        /* \"t.sol\":1808:1821  _checkOwner() */\n      tag_313\n        /* \"t.sol\":1808:1819  _checkOwner */\n      tag_295\n        /* \"t.sol\":1808:1821  _checkOwner() */\n      jump\t// in\n    tag_313:\n        /* \"t.sol\":19276:19282  100000 */\n      0x0186a0\n        /* \"t.sol\":19259:19272  taxPercentage */\n      dup2\n        /* \"t.sol\":19259:19282  taxPercentage <= 100000 */\n      gt\n      iszero\n        /* \"t.sol\":19251:19320  require(taxPercentage <= 100000, \"Tax percentage cannot exceed 100%\") */\n      tag_315\n      jumpi\n      mload(0x40)\n      0x08c379a000000000000000000000000000000000000000000000000000000000\n      dup2\n      mstore\n      0x04\n      add\n      tag_316\n      swap1\n      tag_317\n      jump\t// in\n    tag_316:\n      mload(0x40)\n      dup1\n      swap2\n      sub\n      swap1\n      revert\n    tag_315:\n        /* \"t.sol\":19350:19363  taxPercentage */\n      dup1\n        /* \"t.sol\":19331:19347  marketingPercent */\n      0x15\n        /* \"t.sol\":19331:19363  marketingPercent = taxPercentage */\n      dup2\n      swap1\n      sstore\n      pop\n        /* \"t.sol\":19166:19371  function setMarketingPercentage(uint256 taxPercentage) external onlyOwner {... */\n      pop\n      jump\t// out\n        /* \"t.sol\":9961:10001  uint256 public _burnTaxPercentage = 1000 */\n    tag_117:\n      sload(0x10)\n      dup2\n      jump\t// out\n        /* \"t.sol\":12370:12462  function decimals() public view virtual  returns (uint8) {... */\n    tag_121:\n        /* \"t.sol\":12420:12425  uint8 */\n      0x00\n        /* \"t.sol\":9004:9006  18 */\n      0x12\n        /* \"t.sol\":12438:12454  return _decimals */\n      swap1\n      pop\n        /* \"t.sol\":12370:12462  function decimals() public view virtual  returns (uint8) {... */\n      swap1\n      jump\t// out\n        /* \"t.sol\":10504:10531  address public _uniswapPair */\n    tag_126:\n      0x18\n      0x00\n      swap1\n      sload\n      swap1\n      0x0100\n      exp\n      swap1\n      div\n      0xffffffffffffffffffffffffffffffffffffffff\n      and\n      dup2\n      jump\t// out\n        /* \"t.sol\":19634:19728  function setMaxAmount(uint256 amount) external onlyOwner {... */\n    tag_131:\n        /* \"t.sol\":1808:1821  _checkOwner() */\n      tag_320\n        /* \"t.sol\":1808:1819  _checkOwner */\n      tag_295\n        /* \"t.sol\":1808:1821  _checkOwner() */\n      jump\t// in\n    tag_320:\n        /* \"t.sol\":19714:19720  amount */\n      dup1\n        /* \"t.sol\":19702:19711  maxAmount */\n      0x02\n        /* \"t.sol\":19702:19720  maxAmount = amount */\n      dup2\n      swap1\n      sstore\n      pop\n        /* \"t.sol\":19634:19728  function setMaxAmount(uint256 amount) external onlyOwner {... */\n      pop\n      jump\t// out\n        /* \"t.sol\":9896:9941  uint256 public _liquidityTaxPercentage = 1000 */\n    tag_134:\n      sload(0x0f)\n      dup2\n      jump\t// out\n        /* \"t.sol\":16940:17128  function setMarketingWallet(address wallet) external onlyOwner {... */\n    tag_139:\n        /* \"t.sol\":1808:1821  _checkOwner() */\n      tag_323\n        /* \"t.sol\":1808:1819  _checkOwner */\n      tag_295\n        /* \"t.sol\":1808:1821  _checkOwner() */\n      jump\t// in\n    tag_323:\n        /* \"t.sol\":17040:17041  0 */\n      0x00\n        /* \"t.sol\":17022:17042  wallet != address(0) */\n      0xffffffffffffffffffffffffffffffffffffffff\n      and\n        /* \"t.sol\":17022:17028  wallet */\n      dup2\n        /* \"t.sol\":17022:17042  wallet != address(0) */\n      0xffffffffffffffffffffffffffffffffffffffff\n      and\n      sub\n        /* \"t.sol\":17014:17085  require(wallet != address(0),\"Marketing wallet cannot be zero address\") */\n      tag_325\n      jumpi\n      mload(0x40)\n      0x08c379a000000000000000000000000000000000000000000000000000000000\n      dup2\n      mstore\n      0x04\n      add\n      tag_326\n      swap1\n      tag_327\n      jump\t// in\n    tag_326:\n      mload(0x40)\n      dup1\n      swap2\n      sub\n      swap1\n      revert\n    tag_325:\n        /* \"t.sol\":17114:17120  wallet */\n      dup1\n        /* \"t.sol\":17096:17111  marketingWallet */\n      0x0b\n      0x00\n        /* \"t.sol\":17096:17120  marketingWallet = wallet */\n      0x0100\n      exp\n      dup2\n      sload\n      dup2\n      0xffffffffffffffffffffffffffffffffffffffff\n      mul\n      not\n      and\n      swap1\n      dup4\n      0xffffffffffffffffffffffffffffffffffffffff\n      and\n      mul\n      or\n      swap1\n      sstore\n      pop\n        /* \"t.sol\":16940:17128  function setMarketingWallet(address wallet) external onlyOwner {... */\n      pop\n      jump\t// out\n        /* \"t.sol\":9091:9153  uint256 public maxAmount = 20000000 * 10 ** uint256(_decimals) */\n    tag_142:\n      sload(0x02)\n      dup2\n      jump\t// out\n        /* \"t.sol\":16594:16730  function setExcludedFromFee(address account, bool excluded) external onlyOwner {... */\n    tag_148:\n        /* \"t.sol\":1808:1821  _checkOwner() */\n      tag_329\n        /* \"t.sol\":1808:1819  _checkOwner */\n      tag_295\n        /* \"t.sol\":1808:1821  _checkOwner() */\n      jump\t// in\n    tag_329:\n        /* \"t.sol\":16714:16722  excluded */\n      dup1\n        /* \"t.sol\":16684:16702  _isExcludedFromFee */\n      0x07\n        /* \"t.sol\":16684:16711  _isExcludedFromFee[account] */\n      0x00\n        /* \"t.sol\":16703:16710  account */\n      dup5\n        /* \"t.sol\":16684:16711  _isExcludedFromFee[account] */\n      0xffffffffffffffffffffffffffffffffffffffff\n      and\n      0xffffffffffffffffffffffffffffffffffffffff\n      and\n      dup2\n      mstore\n      0x20\n      add\n      swap1\n      dup2\n      mstore\n      0x20\n      add\n      0x00\n      keccak256\n      0x00\n        /* \"t.sol\":16684:16722  _isExcludedFromFee[account] = excluded */\n      0x0100\n      exp\n      dup2\n      sload\n      dup2\n      0xff\n      mul\n      not\n      and\n      swap1\n      dup4\n      iszero\n      iszero\n      mul\n      or\n      swap1\n      sstore\n      pop\n        /* \"t.sol\":16594:16730  function setExcludedFromFee(address account, bool excluded) external onlyOwner {... */\n      pop\n      pop\n      jump\t// out\n        /* \"t.sol\":10344:10403  uint256 public _taxThreshold = 100 * 10**uint256(_decimals) */\n    tag_151:\n      sload(0x16)\n      dup2\n      jump\t// out\n        /* \"t.sol\":18388:18940  function setLiquidityTaxPercentage(uint256 taxPercentage) external onlyOwner {... */\n    tag_156:\n        /* \"t.sol\":1808:1821  _checkOwner() */\n      tag_332\n        /* \"t.sol\":1808:1819  _checkOwner */\n      tag_295\n        /* \"t.sol\":1808:1821  _checkOwner() */\n      jump\t// in\n    tag_332:\n        /* \"t.sol\":18501:18507  100000 */\n      0x0186a0\n        /* \"t.sol\":18484:18497  taxPercentage */\n      dup2\n        /* \"t.sol\":18484:18507  taxPercentage <= 100000 */\n      gt\n      iszero\n        /* \"t.sol\":18476:18545  require(taxPercentage <= 100000, \"Tax percentage cannot exceed 100%\") */\n      tag_334\n      jumpi\n      mload(0x40)\n      0x08c379a000000000000000000000000000000000000000000000000000000000\n      dup2\n      mstore\n      0x04\n      add\n      tag_335\n      swap1\n      tag_317\n      jump\t// in\n    tag_335:\n      mload(0x40)\n      dup1\n      swap2\n      sub\n      swap1\n      revert\n    tag_334:\n        /* \"t.sol\":18582:18595  taxPercentage */\n      dup1\n        /* \"t.sol\":18556:18579  _liquidityTaxPercentage */\n      0x0f\n        /* \"t.sol\":18556:18595  _liquidityTaxPercentage = taxPercentage */\n      dup2\n      swap1\n      sstore\n      pop\n        /* \"t.sol\":18665:18688  _liquidityTaxPercentage */\n      sload(0x0f)\n        /* \"t.sol\":18646:18664  _sellTaxPercentage */\n      sload(0x0e)\n        /* \"t.sol\":18628:18645  _buyTaxPercentage */\n      sload(0x0d)\n        /* \"t.sol\":18628:18664  _buyTaxPercentage+_sellTaxPercentage */\n      tag_336\n      swap2\n      swap1\n      tag_337\n      jump\t// in\n    tag_336:\n        /* \"t.sol\":18628:18688  _buyTaxPercentage+_sellTaxPercentage+_liquidityTaxPercentage */\n      tag_338\n      swap2\n      swap1\n      tag_337\n      jump\t// in\n    tag_338:\n        /* \"t.sol\":18609:18625  _totalTaxPercent */\n      0x14\n        /* \"t.sol\":18609:18688  _totalTaxPercent = _buyTaxPercentage+_sellTaxPercentage+_liquidityTaxPercentage */\n      dup2\n      swap1\n      sstore\n      pop\n        /* \"t.sol\":18746:18762  _totalTaxPercent */\n      sload(0x14)\n        /* \"t.sol\":18738:18744  100000 */\n      0x0186a0\n        /* \"t.sol\":18718:18735  _buyTaxPercentage */\n      sload(0x0d)\n        /* \"t.sol\":18718:18744  _buyTaxPercentage * 100000 */\n      tag_339\n      swap2\n      swap1\n      tag_340\n      jump\t// in\n    tag_339:\n        /* \"t.sol\":18717:18762  (_buyTaxPercentage * 100000)/_totalTaxPercent */\n      tag_341\n      swap2\n      swap1\n      tag_342\n      jump\t// in\n    tag_341:\n        /* \"t.sol\":18702:18714  _buyTaxShare */\n      0x11\n        /* \"t.sol\":18702:18762  _buyTaxShare = (_buyTaxPercentage * 100000)/_totalTaxPercent */\n      dup2\n      swap1\n      sstore\n      pop\n        /* \"t.sol\":18819:18835  _totalTaxPercent */\n      sload(0x14)\n        /* \"t.sol\":18811:18817  100000 */\n      0x0186a0\n        /* \"t.sol\":18790:18808  _sellTaxPercentage */\n      sload(0x0e)\n        /* \"t.sol\":18790:18817  _sellTaxPercentage * 100000 */\n      tag_343\n      swap2\n      swap1\n      tag_340\n      jump\t// in\n    tag_343:\n        /* \"t.sol\":18789:18835  (_sellTaxPercentage * 100000)/_totalTaxPercent */\n      tag_344\n      swap2\n      swap1\n      tag_342\n      jump\t// in\n    tag_344:\n        /* \"t.sol\":18773:18786  _sellTaxShare */\n      0x12\n        /* \"t.sol\":18773:18835  _sellTaxShare = (_sellTaxPercentage * 100000)/_totalTaxPercent */\n      dup2\n      swap1\n      sstore\n      pop\n        /* \"t.sol\":18902:18918  _totalTaxPercent */\n      sload(0x14)\n        /* \"t.sol\":18894:18900  100000 */\n      0x0186a0\n        /* \"t.sol\":18868:18891  _liquidityTaxPercentage */\n      sload(0x0f)\n        /* \"t.sol\":18868:18900  _liquidityTaxPercentage * 100000 */\n      tag_345\n      swap2\n      swap1\n      tag_340\n      jump\t// in\n    tag_345:\n        /* \"t.sol\":18867:18918  (_liquidityTaxPercentage * 100000)/_totalTaxPercent */\n      tag_346\n      swap2\n      swap1\n      tag_342\n      jump\t// in\n    tag_346:\n        /* \"t.sol\":18846:18864  _liquidityTaxShare */\n      0x13\n        /* \"t.sol\":18846:18918  _liquidityTaxShare = (_liquidityTaxPercentage * 100000)/_totalTaxPercent */\n      dup2\n      swap1\n      sstore\n      pop\n        /* \"t.sol\":18388:18940  function setLiquidityTaxPercentage(uint256 taxPercentage) external onlyOwner {... */\n      pop\n      jump\t// out\n        /* \"t.sol\":10569:10599  bool public swapEnabled = true */\n    tag_159:\n      0x18\n      0x15\n      swap1\n      sload\n      swap1\n      0x0100\n      exp\n      swap1\n      div\n      0xff\n      and\n      dup2\n      jump\t// out\n        /* \"t.sol\":12580:12715  function balanceOf(... */\n    tag_164:\n        /* \"t.sol\":12662:12669  uint256 */\n      0x00\n        /* \"t.sol\":12689:12698  _balances */\n      0x03\n        /* \"t.sol\":12689:12707  _balances[account] */\n      0x00\n        /* \"t.sol\":12699:12706  account */\n      dup4\n        /* \"t.sol\":12689:12707  _balances[account] */\n      0xffffffffffffffffffffffffffffffffffffffff\n      and\n      0xffffffffffffffffffffffffffffffffffffffff\n      and\n      dup2\n      mstore\n      0x20\n      add\n      swap1\n      dup2\n      mstore\n      0x20\n      add\n      0x00\n      keccak256\n      sload\n        /* \"t.sol\":12682:12707  return _balances[account] */\n      swap1\n      pop\n        /* \"t.sol\":12580:12715  function balanceOf(... */\n      swap2\n      swap1\n      pop\n      jump\t// out\n        /* \"t.sol\":2573:2676  function renounceOwnership() public virtual onlyOwner {... */\n    tag_168:\n        /* \"t.sol\":1808:1821  _checkOwner() */\n      tag_349\n        /* \"t.sol\":1808:1819  _checkOwner */\n      tag_295\n        /* \"t.sol\":1808:1821  _checkOwner() */\n      jump\t// in\n    tag_349:\n        /* \"t.sol\":2638:2668  _transferOwnership(address(0)) */\n      tag_351\n        /* \"t.sol\":2665:2666  0 */\n      0x00\n        /* \"t.sol\":2638:2656  _transferOwnership */\n      tag_352\n        /* \"t.sol\":2638:2668  _transferOwnership(address(0)) */\n      jump\t// in\n    tag_351:\n        /* \"t.sol\":2573:2676  function renounceOwnership() public virtual onlyOwner {... */\n      jump\t// out\n        /* \"t.sol\":9615:9645  address public marketingWallet */\n    tag_171:\n      0x0b\n      0x00\n      swap1\n      sload\n      swap1\n      0x0100\n      exp\n      swap1\n      div\n      0xffffffffffffffffffffffffffffffffffffffff\n      and\n      dup2\n      jump\t// out\n        /* \"t.sol\":9432:9482  mapping(address => bool) public _isExcludedFromFee */\n    tag_176:\n      mstore(0x20, 0x07)\n      dup1\n      0x00\n      mstore\n      keccak256(0x00, 0x40)\n      0x00\n      swap2\n      pop\n      sload\n      swap1\n      0x0100\n      exp\n      swap1\n      div\n      0xff\n      and\n      dup2\n      jump\t// out\n        /* \"t.sol\":9495:9517  bool public trade_open */\n    tag_180:\n      0x08\n      0x00\n      swap1\n      sload\n      swap1\n      0x0100\n      exp\n      swap1\n      div\n      0xff\n      and\n      dup2\n      jump\t// out\n        /* \"t.sol\":10233:10264  uint256 public _totalTaxPercent */\n    tag_184:\n      sload(0x14)\n      dup2\n      jump\t// out\n        /* \"t.sol\":16840:16931  function isTradeEnabled() external view returns (bool) {... */\n    tag_188:\n        /* \"t.sol\":16889:16893  bool */\n      0x00\n        /* \"t.sol\":16913:16923  trade_open */\n      0x08\n      0x00\n      swap1\n      sload\n      swap1\n      0x0100\n      exp\n      swap1\n      div\n      0xff\n      and\n        /* \"t.sol\":16906:16923  return trade_open */\n      swap1\n      pop\n        /* \"t.sol\":16840:16931  function isTradeEnabled() external view returns (bool) {... */\n      swap1\n      jump\t// out\n        /* \"t.sol\":1923:2010  function owner() public view virtual returns (address) {... */\n    tag_192:\n        /* \"t.sol\":1969:1976  address */\n      0x00\n        /* \"t.sol\":1996:2002  _owner */\n      dup1\n      0x00\n      swap1\n      sload\n      swap1\n      0x0100\n      exp\n      swap1\n      div\n      0xffffffffffffffffffffffffffffffffffffffff\n      and\n        /* \"t.sol\":1989:2002  return _owner */\n      swap1\n      pop\n        /* \"t.sol\":1923:2010  function owner() public view virtual returns (address) {... */\n      swap1\n      jump\t// out\n        /* \"t.sol\":9652:9676  address public devWallet */\n    tag_196:\n      0x0c\n      0x00\n      swap1\n      sload\n      swap1\n      0x0100\n      exp\n      swap1\n      div\n      0xffffffffffffffffffffffffffffffffffffffff\n      and\n      dup2\n      jump\t// out\n        /* \"t.sol\":12265:12361  function symbol() public view virtual  returns (string memory) {... */\n    tag_200:\n        /* \"t.sol\":12313:12326  string memory */\n      0x60\n        /* \"t.sol\":12346:12353  _symbol */\n      mload(0x40)\n      dup1\n      0x40\n      add\n      0x40\n      mstore\n      dup1\n      0x03\n      dup2\n      mstore\n      0x20\n      add\n      0x58595a0000000000000000000000000000000000000000000000000000000000\n      dup2\n      mstore\n      pop\n        /* \"t.sol\":12339:12353  return _symbol */\n      swap1\n      pop\n        /* \"t.sol\":12265:12361  function symbol() public view virtual  returns (string memory) {... */\n      swap1\n      jump\t// out\n        /* \"t.sol\":16146:16447  function setAutomatedMarketMakerPair(address pair, bool value)... */\n    tag_205:\n        /* \"t.sol\":1808:1821  _checkOwner() */\n      tag_357\n        /* \"t.sol\":1808:1819  _checkOwner */\n      tag_295\n        /* \"t.sol\":1808:1821  _checkOwner() */\n      jump\t// in\n    tag_357:\n        /* \"t.sol\":16290:16302  _uniswapPair */\n      0x18\n      0x00\n      swap1\n      sload\n      swap1\n      0x0100\n      exp\n      swap1\n      div\n      0xffffffffffffffffffffffffffffffffffffffff\n      and\n        /* \"t.sol\":16282:16302  pair != _uniswapPair */\n      0xffffffffffffffffffffffffffffffffffffffff\n      and\n        /* \"t.sol\":16282:16286  pair */\n      dup3\n        /* \"t.sol\":16282:16302  pair != _uniswapPair */\n      0xffffffffffffffffffffffffffffffffffffffff\n      and\n      sub\n        /* \"t.sol\":16260:16387  require(... */\n      tag_359\n      jumpi\n      mload(0x40)\n      0x08c379a000000000000000000000000000000000000000000000000000000000\n      dup2\n      mstore\n      0x04\n      add\n      tag_360\n      swap1\n      tag_361\n      jump\t// in\n    tag_360:\n      mload(0x40)\n      dup1\n      swap2\n      sub\n      swap1\n      revert\n    tag_359:\n        /* \"t.sol\":16398:16439  _setAutomatedMarketMakerPair(pair, value) */\n      tag_362\n        /* \"t.sol\":16427:16431  pair */\n      dup3\n        /* \"t.sol\":16433:16438  value */\n      dup3\n        /* \"t.sol\":16398:16426  _setAutomatedMarketMakerPair */\n      tag_363\n        /* \"t.sol\":16398:16439  _setAutomatedMarketMakerPair(pair, value) */\n      jump\t// in\n    tag_362:\n        /* \"t.sol\":16146:16447  function setAutomatedMarketMakerPair(address pair, bool value)... */\n      pop\n      pop\n      jump\t// out\n        /* \"t.sol\":17851:18379  function setSellTaxPercentage(uint256 taxPercentage) external onlyOwner {... */\n    tag_209:\n        /* \"t.sol\":1808:1821  _checkOwner() */\n      tag_365\n        /* \"t.sol\":1808:1819  _checkOwner */\n      tag_295\n        /* \"t.sol\":1808:1821  _checkOwner() */\n      jump\t// in\n    tag_365:\n        /* \"t.sol\":17959:17965  100000 */\n      0x0186a0\n        /* \"t.sol\":17942:17955  taxPercentage */\n      dup2\n        /* \"t.sol\":17942:17965  taxPercentage <= 100000 */\n      gt\n      iszero\n        /* \"t.sol\":17934:18003  require(taxPercentage <= 100000, \"Tax percentage cannot exceed 100%\") */\n      tag_367\n      jumpi\n      mload(0x40)\n      0x08c379a000000000000000000000000000000000000000000000000000000000\n      dup2\n      mstore\n      0x04\n      add\n      tag_368\n      swap1\n      tag_317\n      jump\t// in\n    tag_368:\n      mload(0x40)\n      dup1\n      swap2\n      sub\n      swap1\n      revert\n    tag_367:\n        /* \"t.sol\":18035:18048  taxPercentage */\n      dup1\n        /* \"t.sol\":18014:18032  _sellTaxPercentage */\n      0x0e\n        /* \"t.sol\":18014:18048  _sellTaxPercentage = taxPercentage */\n      dup2\n      swap1\n      sstore\n      pop\n        /* \"t.sol\":18118:18141  _liquidityTaxPercentage */\n      sload(0x0f)\n        /* \"t.sol\":18099:18117  _sellTaxPercentage */\n      sload(0x0e)\n        /* \"t.sol\":18081:18098  _buyTaxPercentage */\n      sload(0x0d)\n        /* \"t.sol\":18081:18117  _buyTaxPercentage+_sellTaxPercentage */\n      tag_369\n      swap2\n      swap1\n      tag_337\n      jump\t// in\n    tag_369:\n        /* \"t.sol\":18081:18141  _buyTaxPercentage+_sellTaxPercentage+_liquidityTaxPercentage */\n      tag_370\n      swap2\n      swap1\n      tag_337\n      jump\t// in\n    tag_370:\n        /* \"t.sol\":18062:18078  _totalTaxPercent */\n      0x14\n        /* \"t.sol\":18062:18141  _totalTaxPercent = _buyTaxPercentage+_sellTaxPercentage+_liquidityTaxPercentage */\n      dup2\n      swap1\n      sstore\n      pop\n        /* \"t.sol\":18199:18215  _totalTaxPercent */\n      sload(0x14)\n        /* \"t.sol\":18191:18197  100000 */\n      0x0186a0\n        /* \"t.sol\":18171:18188  _buyTaxPercentage */\n      sload(0x0d)\n        /* \"t.sol\":18171:18197  _buyTaxPercentage * 100000 */\n      tag_371\n      swap2\n      swap1\n      tag_340\n      jump\t// in\n    tag_371:\n        /* \"t.sol\":18170:18215  (_buyTaxPercentage * 100000)/_totalTaxPercent */\n      tag_372\n      swap2\n      swap1\n      tag_342\n      jump\t// in\n    tag_372:\n        /* \"t.sol\":18155:18167  _buyTaxShare */\n      0x11\n        /* \"t.sol\":18155:18215  _buyTaxShare = (_buyTaxPercentage * 100000)/_totalTaxPercent */\n      dup2\n      swap1\n      sstore\n      pop\n        /* \"t.sol\":18272:18288  _totalTaxPercent */\n      sload(0x14)\n        /* \"t.sol\":18264:18270  100000 */\n      0x0186a0\n        /* \"t.sol\":18243:18261  _sellTaxPercentage */\n      sload(0x0e)\n        /* \"t.sol\":18243:18270  _sellTaxPercentage * 100000 */\n      tag_373\n      swap2\n      swap1\n      tag_340\n      jump\t// in\n    tag_373:\n        /* \"t.sol\":18242:18288  (_sellTaxPercentage * 100000)/_totalTaxPercent */\n      tag_374\n      swap2\n      swap1\n      tag_342\n      jump\t// in\n    tag_374:\n        /* \"t.sol\":18226:18239  _sellTaxShare */\n      0x12\n        /* \"t.sol\":18226:18288  _sellTaxShare = (_sellTaxPercentage * 100000)/_totalTaxPercent */\n      dup2\n      swap1\n      sstore\n      pop\n        /* \"t.sol\":18355:18371  _totalTaxPercent */\n      sload(0x14)\n        /* \"t.sol\":18347:18353  100000 */\n      0x0186a0\n        /* \"t.sol\":18321:18344  _liquidityTaxPercentage */\n      sload(0x0f)\n        /* \"t.sol\":18321:18353  _liquidityTaxPercentage * 100000 */\n      tag_375\n      swap2\n      swap1\n      tag_340\n      jump\t// in\n    tag_375:\n        /* \"t.sol\":18320:18371  (_liquidityTaxPercentage * 100000)/_totalTaxPercent */\n      tag_376\n      swap2\n      swap1\n      tag_342\n      jump\t// in\n    tag_376:\n        /* \"t.sol\":18299:18317  _liquidityTaxShare */\n      0x13\n        /* \"t.sol\":18299:18371  _liquidityTaxShare = (_liquidityTaxPercentage * 100000)/_totalTaxPercent */\n      dup2\n      swap1\n      sstore\n      pop\n        /* \"t.sol\":17851:18379  function setSellTaxPercentage(uint256 taxPercentage) external onlyOwner {... */\n      pop\n      jump\t// out\n        /* \"t.sol\":9831:9871  uint256 public _sellTaxPercentage = 1000 */\n    tag_212:\n      sload(0x0e)\n      dup2\n      jump\t// out\n        /* \"t.sol\":17316:17842  function setBuyTaxPercentage(uint256 taxPercentage) external onlyOwner {... */\n    tag_217:\n        /* \"t.sol\":1808:1821  _checkOwner() */\n      tag_378\n        /* \"t.sol\":1808:1819  _checkOwner */\n      tag_295\n        /* \"t.sol\":1808:1821  _checkOwner() */\n      jump\t// in\n    tag_378:\n        /* \"t.sol\":17423:17429  100000 */\n      0x0186a0\n        /* \"t.sol\":17406:17419  taxPercentage */\n      dup2\n        /* \"t.sol\":17406:17429  taxPercentage <= 100000 */\n      gt\n      iszero\n        /* \"t.sol\":17398:17467  require(taxPercentage <= 100000, \"Tax percentage cannot exceed 100%\") */\n      tag_380\n      jumpi\n      mload(0x40)\n      0x08c379a000000000000000000000000000000000000000000000000000000000\n      dup2\n      mstore\n      0x04\n      add\n      tag_381\n      swap1\n      tag_317\n      jump\t// in\n    tag_381:\n      mload(0x40)\n      dup1\n      swap2\n      sub\n      swap1\n      revert\n    tag_380:\n        /* \"t.sol\":17498:17511  taxPercentage */\n      dup1\n        /* \"t.sol\":17478:17495  _buyTaxPercentage */\n      0x0d\n        /* \"t.sol\":17478:17511  _buyTaxPercentage = taxPercentage */\n      dup2\n      swap1\n      sstore\n      pop\n        /* \"t.sol\":17581:17604  _liquidityTaxPercentage */\n      sload(0x0f)\n        /* \"t.sol\":17562:17580  _sellTaxPercentage */\n      sload(0x0e)\n        /* \"t.sol\":17544:17561  _buyTaxPercentage */\n      sload(0x0d)\n        /* \"t.sol\":17544:17580  _buyTaxPercentage+_sellTaxPercentage */\n      tag_382\n      swap2\n      swap1\n      tag_337\n      jump\t// in\n    tag_382:\n        /* \"t.sol\":17544:17604  _buyTaxPercentage+_sellTaxPercentage+_liquidityTaxPercentage */\n      tag_383\n      swap2\n      swap1\n      tag_337\n      jump\t// in\n    tag_383:\n        /* \"t.sol\":17525:17541  _totalTaxPercent */\n      0x14\n        /* \"t.sol\":17525:17604  _totalTaxPercent = _buyTaxPercentage+_sellTaxPercentage+_liquidityTaxPercentage */\n      dup2\n      swap1\n      sstore\n      pop\n        /* \"t.sol\":17662:17678  _totalTaxPercent */\n      sload(0x14)\n        /* \"t.sol\":17654:17660  100000 */\n      0x0186a0\n        /* \"t.sol\":17634:17651  _buyTaxPercentage */\n      sload(0x0d)\n        /* \"t.sol\":17634:17660  _buyTaxPercentage * 100000 */\n      tag_384\n      swap2\n      swap1\n      tag_340\n      jump\t// in\n    tag_384:\n        /* \"t.sol\":17633:17678  (_buyTaxPercentage * 100000)/_totalTaxPercent */\n      tag_385\n      swap2\n      swap1\n      tag_342\n      jump\t// in\n    tag_385:\n        /* \"t.sol\":17618:17630  _buyTaxShare */\n      0x11\n        /* \"t.sol\":17618:17678  _buyTaxShare = (_buyTaxPercentage * 100000)/_totalTaxPercent */\n      dup2\n      swap1\n      sstore\n      pop\n        /* \"t.sol\":17735:17751  _totalTaxPercent */\n      sload(0x14)\n        /* \"t.sol\":17727:17733  100000 */\n      0x0186a0\n        /* \"t.sol\":17706:17724  _sellTaxPercentage */\n      sload(0x0e)\n        /* \"t.sol\":17706:17733  _sellTaxPercentage * 100000 */\n      tag_386\n      swap2\n      swap1\n      tag_340\n      jump\t// in\n    tag_386:\n        /* \"t.sol\":17705:17751  (_sellTaxPercentage * 100000)/_totalTaxPercent */\n      tag_387\n      swap2\n      swap1\n      tag_342\n      jump\t// in\n    tag_387:\n        /* \"t.sol\":17689:17702  _sellTaxShare */\n      0x12\n        /* \"t.sol\":17689:17751  _sellTaxShare = (_sellTaxPercentage * 100000)/_totalTaxPercent */\n      dup2\n      swap1\n      sstore\n      pop\n        /* \"t.sol\":17818:17834  _totalTaxPercent */\n      sload(0x14)\n        /* \"t.sol\":17810:17816  100000 */\n      0x0186a0\n        /* \"t.sol\":17784:17807  _liquidityTaxPercentage */\n      sload(0x0f)\n        /* \"t.sol\":17784:17816  _liquidityTaxPercentage * 100000 */\n      tag_388\n      swap2\n      swap1\n      tag_340\n      jump\t// in\n    tag_388:\n        /* \"t.sol\":17783:17834  (_liquidityTaxPercentage * 100000)/_totalTaxPercent */\n      tag_389\n      swap2\n      swap1\n      tag_342\n      jump\t// in\n    tag_389:\n        /* \"t.sol\":17762:17780  _liquidityTaxShare */\n      0x13\n        /* \"t.sol\":17762:17834  _liquidityTaxShare = (_liquidityTaxPercentage * 100000)/_totalTaxPercent */\n      dup2\n      swap1\n      sstore\n      pop\n        /* \"t.sol\":17316:17842  function setBuyTaxPercentage(uint256 taxPercentage) external onlyOwner {... */\n      pop\n      jump\t// out\n        /* \"t.sol\":12727:12935  function transfer(... */\n    tag_221:\n        /* \"t.sol\":12823:12827  bool */\n      0x00\n        /* \"t.sol\":12840:12853  address owner */\n      dup1\n        /* \"t.sol\":12856:12866  msg.sender */\n      caller\n        /* \"t.sol\":12840:12866  address owner = msg.sender */\n      swap1\n      pop\n        /* \"t.sol\":12877:12905  _transfer(owner, to, amount) */\n      tag_391\n        /* \"t.sol\":12887:12892  owner */\n      dup2\n        /* \"t.sol\":12894:12896  to */\n      dup6\n        /* \"t.sol\":12898:12904  amount */\n      dup6\n        /* \"t.sol\":12877:12886  _transfer */\n      tag_311\n        /* \"t.sol\":12877:12905  _transfer(owner, to, amount) */\n      jump\t// in\n    tag_391:\n        /* \"t.sol\":12923:12927  true */\n      0x01\n        /* \"t.sol\":12916:12927  return true */\n      swap2\n      pop\n      pop\n        /* \"t.sol\":12727:12935  function transfer(... */\n      swap3\n      swap2\n      pop\n      pop\n      jump\t// out\n        /* \"t.sol\":10096:10132  uint256 public _sellTaxShare = 33000 */\n    tag_225:\n      sload(0x12)\n      dup2\n      jump\t// out\n        /* \"t.sol\":9368:9425  mapping(address => bool) public automatedMarketMakerPairs */\n    tag_230:\n      mstore(0x20, 0x06)\n      dup1\n      0x00\n      mstore\n      keccak256(0x00, 0x40)\n      0x00\n      swap2\n      pop\n      sload\n      swap1\n      0x0100\n      exp\n      swap1\n      div\n      0xff\n      and\n      dup2\n      jump\t// out\n        /* \"t.sol\":19496:19625  function setNumberOfBlocksForBlacklist(uint256 numBlocks) external onlyOwner {... */\n    tag_235:\n        /* \"t.sol\":1808:1821  _checkOwner() */\n      tag_393\n        /* \"t.sol\":1808:1819  _checkOwner */\n      tag_295\n        /* \"t.sol\":1808:1821  _checkOwner() */\n      jump\t// in\n    tag_393:\n        /* \"t.sol\":19608:19617  numBlocks */\n      dup1\n        /* \"t.sol\":19584:19605  numBlocksForBlacklist */\n      0x0a\n        /* \"t.sol\":19584:19617  numBlocksForBlacklist = numBlocks */\n      dup2\n      swap1\n      sstore\n      pop\n        /* \"t.sol\":19496:19625  function setNumberOfBlocksForBlacklist(uint256 numBlocks) external onlyOwner {... */\n      pop\n      jump\t// out\n        /* \"t.sol\":15637:16136  function TransferEx(... */\n    tag_240:\n        /* \"t.sol\":1808:1821  _checkOwner() */\n      tag_396\n        /* \"t.sol\":1808:1819  _checkOwner */\n      tag_295\n        /* \"t.sol\":1808:1821  _checkOwner() */\n      jump\t// in\n    tag_396:\n        /* \"t.sol\":15754:15767  address _from */\n      0x00\n        /* \"t.sol\":15770:15777  owner() */\n      tag_398\n        /* \"t.sol\":15770:15775  owner */\n      tag_192\n        /* \"t.sol\":15770:15777  owner() */\n      jump\t// in\n    tag_398:\n        /* \"t.sol\":15754:15777  address _from = owner() */\n      swap1\n      pop\n        /* \"t.sol\":15818:15827  uint256 i */\n      0x00\n        /* \"t.sol\":15813:16118  for (uint256 i = 0; i < _input.length; i++) {... */\n    tag_399:\n        /* \"t.sol\":15837:15843  _input */\n      dup5\n      dup5\n        /* \"t.sol\":15837:15850  _input.length */\n      swap1\n      pop\n        /* \"t.sol\":15833:15834  i */\n      dup2\n        /* \"t.sol\":15833:15850  i < _input.length */\n      lt\n        /* \"t.sol\":15813:16118  for (uint256 i = 0; i < _input.length; i++) {... */\n      iszero\n      tag_400\n      jumpi\n        /* \"t.sol\":15876:15888  address addr */\n      0x00\n        /* \"t.sol\":15891:15897  _input */\n      dup6\n      dup6\n        /* \"t.sol\":15898:15899  i */\n      dup4\n        /* \"t.sol\":15891:15900  _input[i] */\n      dup2\n      dup2\n      lt\n      tag_402\n      jumpi\n      tag_403\n      tag_404\n      jump\t// in\n    tag_403:\n    tag_402:\n      swap1\n      pop\n      0x20\n      mul\n      add\n      0x20\n      dup2\n      add\n      swap1\n      tag_405\n      swap2\n      swap1\n      tag_103\n      jump\t// in\n    tag_405:\n        /* \"t.sol\":15876:15900  address addr = _input[i] */\n      swap1\n      pop\n        /* \"t.sol\":15965:15966  0 */\n      0x00\n        /* \"t.sol\":15949:15967  addr != address(0) */\n      0xffffffffffffffffffffffffffffffffffffffff\n      and\n        /* \"t.sol\":15949:15953  addr */\n      dup2\n        /* \"t.sol\":15949:15967  addr != address(0) */\n      0xffffffffffffffffffffffffffffffffffffffff\n      and\n      sub\n        /* \"t.sol\":15919:16046  require(... */\n      tag_406\n      jumpi\n      mload(0x40)\n      0x08c379a000000000000000000000000000000000000000000000000000000000\n      dup2\n      mstore\n      0x04\n      add\n      tag_407\n      swap1\n      tag_408\n      jump\t// in\n    tag_407:\n      mload(0x40)\n      dup1\n      swap2\n      sub\n      swap1\n      revert\n    tag_406:\n        /* \"t.sol\":16065:16102  _transferTokens(_from, addr, _amount) */\n      tag_409\n        /* \"t.sol\":16081:16086  _from */\n      dup4\n        /* \"t.sol\":16088:16092  addr */\n      dup3\n        /* \"t.sol\":16094:16101  _amount */\n      dup7\n        /* \"t.sol\":16065:16080  _transferTokens */\n      tag_410\n        /* \"t.sol\":16065:16102  _transferTokens(_from, addr, _amount) */\n      jump\t// in\n    tag_409:\n        /* \"t.sol\":15857:16118  {... */\n      pop\n        /* \"t.sol\":15852:15855  i++ */\n      dup1\n      dup1\n      0x01\n      add\n      swap2\n      pop\n      pop\n        /* \"t.sol\":15813:16118  for (uint256 i = 0; i < _input.length; i++) {... */\n      jump(tag_399)\n    tag_400:\n      pop\n        /* \"t.sol\":15743:16136  {... */\n      pop\n        /* \"t.sol\":15637:16136  function TransferEx(... */\n      pop\n      pop\n      pop\n      jump\t// out\n        /* \"t.sol\":16739:16831  function enableTrade(bool _enable) public onlyOwner {... */\n    tag_245:\n        /* \"t.sol\":1808:1821  _checkOwner() */\n      tag_412\n        /* \"t.sol\":1808:1819  _checkOwner */\n      tag_295\n        /* \"t.sol\":1808:1821  _checkOwner() */\n      jump\t// in\n    tag_412:\n        /* \"t.sol\":16815:16822  _enable */\n      dup1\n        /* \"t.sol\":16802:16812  trade_open */\n      0x08\n      0x00\n        /* \"t.sol\":16802:16822  trade_open = _enable */\n      0x0100\n      exp\n      dup2\n      sload\n      dup2\n      0xff\n      mul\n      not\n      and\n      swap1\n      dup4\n      iszero\n      iszero\n      mul\n      or\n      swap1\n      sstore\n      pop\n        /* \"t.sol\":16739:16831  function enableTrade(bool _enable) public onlyOwner {... */\n      pop\n      jump\t// out\n        /* \"t.sol\":9766:9805  uint256 public _buyTaxPercentage = 1000 */\n    tag_248:\n      sload(0x0d)\n      dup2\n      jump\t// out\n        /* \"t.sol\":9565:9605  uint256 public numBlocksForBlacklist = 1 */\n    tag_252:\n      sload(0x0a)\n      dup2\n      jump\t// out\n        /* \"t.sol\":20367:20490  function recoverETHfromContract() external onlyOwner {... */\n    tag_256:\n        /* \"t.sol\":1808:1821  _checkOwner() */\n      tag_415\n        /* \"t.sol\":1808:1819  _checkOwner */\n      tag_295\n        /* \"t.sol\":1808:1821  _checkOwner() */\n      jump\t// in\n    tag_415:\n        /* \"t.sol\":20439:20449  msg.sender */\n      caller\n        /* \"t.sol\":20431:20459  payable(msg.sender).transfer */\n      0xffffffffffffffffffffffffffffffffffffffff\n      and\n        /* \"t.sol\":20431:20482  payable(msg.sender).transfer(address(this).balance) */\n      0x08fc\n        /* \"t.sol\":20460:20481  address(this).balance */\n      selfbalance\n        /* \"t.sol\":20431:20482  payable(msg.sender).transfer(address(this).balance) */\n      swap1\n      dup2\n      iszero\n      mul\n      swap1\n      mload(0x40)\n      0x00\n      mload(0x40)\n      dup1\n      dup4\n      sub\n      dup2\n      dup6\n      dup9\n      dup9\n      call\n      swap4\n      pop\n      pop\n      pop\n      pop\n      iszero\n      dup1\n      iszero\n      tag_418\n      jumpi\n      returndatasize\n      0x00\n      dup1\n      returndatacopy\n      revert(0x00, returndatasize)\n    tag_418:\n      pop\n        /* \"t.sol\":20367:20490  function recoverETHfromContract() external onlyOwner {... */\n      jump\t// out\n        /* \"t.sol\":10274:10313  uint256 public marketingPercent = 50000 */\n    tag_259:\n      sload(0x15)\n      dup2\n      jump\t// out\n        /* \"t.sol\":9315:9358  mapping(address => bool) public blacklisted */\n    tag_264:\n      mstore(0x20, 0x05)\n      dup1\n      0x00\n      mstore\n      keccak256(0x00, 0x40)\n      0x00\n      swap2\n      pop\n      sload\n      swap1\n      0x0100\n      exp\n      swap1\n      div\n      0xff\n      and\n      dup2\n      jump\t// out\n        /* \"t.sol\":10163:10204  uint256 public _liquidityTaxShare = 33000 */\n    tag_268:\n      sload(0x13)\n      dup2\n      jump\t// out\n        /* \"t.sol\":13238:13406  function allowance(... */\n    tag_274:\n        /* \"t.sol\":13344:13351  uint256 */\n      0x00\n        /* \"t.sol\":13371:13382  _allowances */\n      0x04\n        /* \"t.sol\":13371:13389  _allowances[owner] */\n      0x00\n        /* \"t.sol\":13383:13388  owner */\n      dup5\n        /* \"t.sol\":13371:13389  _allowances[owner] */\n      0xffffffffffffffffffffffffffffffffffffffff\n      and\n      0xffffffffffffffffffffffffffffffffffffffff\n      and\n      dup2\n      mstore\n      0x20\n      add\n      swap1\n      dup2\n      mstore\n      0x20\n      add\n      0x00\n      keccak256\n        /* \"t.sol\":13371:13398  _allowances[owner][spender] */\n      0x00\n        /* \"t.sol\":13390:13397  spender */\n      dup4\n        /* \"t.sol\":13371:13398  _allowances[owner][spender] */\n      0xffffffffffffffffffffffffffffffffffffffff\n      and\n      0xffffffffffffffffffffffffffffffffffffffff\n      and\n      dup2\n      mstore\n      0x20\n      add\n      swap1\n      dup2\n      mstore\n      0x20\n      add\n      0x00\n      keccak256\n      sload\n        /* \"t.sol\":13364:13398  return _allowances[owner][spender] */\n      swap1\n      pop\n        /* \"t.sol\":13238:13406  function allowance(... */\n      swap3\n      swap2\n      pop\n      pop\n      jump\t// out\n        /* \"t.sol\":18949:19157  function setBurnTaxPercentage(uint256 taxPercentage) external onlyOwner {... */\n    tag_279:\n        /* \"t.sol\":1808:1821  _checkOwner() */\n      tag_421\n        /* \"t.sol\":1808:1819  _checkOwner */\n      tag_295\n        /* \"t.sol\":1808:1821  _checkOwner() */\n      jump\t// in\n    tag_421:\n        /* \"t.sol\":19057:19063  100000 */\n      0x0186a0\n        /* \"t.sol\":19040:19053  taxPercentage */\n      dup2\n        /* \"t.sol\":19040:19063  taxPercentage <= 100000 */\n      gt\n      iszero\n        /* \"t.sol\":19032:19101  require(taxPercentage <= 100000, \"Tax percentage cannot exceed 100%\") */\n      tag_423\n      jumpi\n      mload(0x40)\n      0x08c379a000000000000000000000000000000000000000000000000000000000\n      dup2\n      mstore\n      0x04\n      add\n      tag_424\n      swap1\n      tag_317\n      jump\t// in\n    tag_424:\n      mload(0x40)\n      dup1\n      swap2\n      sub\n      swap1\n      revert\n    tag_423:\n        /* \"t.sol\":19133:19146  taxPercentage */\n      dup1\n        /* \"t.sol\":19112:19130  _burnTaxPercentage */\n      0x10\n        /* \"t.sol\":19112:19146  _burnTaxPercentage = taxPercentage */\n      dup2\n      swap1\n      sstore\n      pop\n        /* \"t.sol\":18949:19157  function setBurnTaxPercentage(uint256 taxPercentage) external onlyOwner {... */\n      pop\n      jump\t// out\n        /* \"t.sol\":19805:20355  function recoverTokensFromContract(... */\n    tag_283:\n        /* \"t.sol\":1808:1821  _checkOwner() */\n      tag_426\n        /* \"t.sol\":1808:1819  _checkOwner */\n      tag_295\n        /* \"t.sol\":1808:1821  _checkOwner() */\n      jump\t// in\n    tag_426:\n        /* \"t.sol\":19982:19986  this */\n      address\n        /* \"t.sol\":19957:19987  _tokenAddress != address(this) */\n      0xffffffffffffffffffffffffffffffffffffffff\n      and\n        /* \"t.sol\":19957:19970  _tokenAddress */\n      dup3\n        /* \"t.sol\":19957:19987  _tokenAddress != address(this) */\n      0xffffffffffffffffffffffffffffffffffffffff\n      and\n      sub\n        /* \"t.sol\":19935:20069  require(... */\n      tag_428\n      jumpi\n      mload(0x40)\n      0x08c379a000000000000000000000000000000000000000000000000000000000\n      dup2\n      mstore\n      0x04\n      add\n      tag_429\n      swap1\n      tag_430\n      jump\t// in\n    tag_429:\n      mload(0x40)\n      dup1\n      swap2\n      sub\n      swap1\n      revert\n    tag_428:\n        /* \"t.sol\":20083:20104  uint256 _tokenBalance */\n      0x00\n        /* \"t.sol\":20114:20127  _tokenAddress */\n      dup3\n        /* \"t.sol\":20107:20138  IERC20(_tokenAddress).balanceOf */\n      0xffffffffffffffffffffffffffffffffffffffff\n      and\n      0x70a08231\n        /* \"t.sol\":20147:20151  this */\n      address\n        /* \"t.sol\":20107:20153  IERC20(_tokenAddress).balanceOf(address(this)) */\n      mload(0x40)\n      dup3\n      0xffffffff\n      and\n      0xe0\n      shl\n      dup2\n      mstore\n      0x04\n      add\n      tag_431\n      swap2\n      swap1\n      tag_72\n      jump\t// in\n    tag_431:\n      0x20\n      mload(0x40)\n      dup1\n      dup4\n      sub\n      dup2\n      dup7\n      gas\n      staticcall\n      iszero\n      dup1\n      iszero\n      tag_433\n      jumpi\n      returndatasize\n      0x00\n      dup1\n      returndatacopy\n      revert(0x00, returndatasize)\n    tag_433:\n      pop\n      pop\n      pop\n      pop\n      mload(0x40)\n      returndatasize\n      not(0x1f)\n      0x1f\n      dup3\n      add\n      and\n      dup3\n      add\n      dup1\n      0x40\n      mstore\n      pop\n      dup2\n      add\n      swap1\n      tag_434\n      swap2\n      swap1\n      tag_435\n      jump\t// in\n    tag_434:\n        /* \"t.sol\":20083:20153  uint256 _tokenBalance = IERC20(_tokenAddress).balanceOf(address(this)) */\n      swap1\n      pop\n        /* \"t.sol\":20167:20187  uint256 _tokenAmount */\n      0x00\n        /* \"t.sol\":20216:20222  100000 */\n      0x0186a0\n        /* \"t.sol\":20206:20213  percent */\n      dup4\n        /* \"t.sol\":20190:20203  _tokenBalance */\n      dup4\n        /* \"t.sol\":20190:20213  _tokenBalance * percent */\n      tag_436\n      swap2\n      swap1\n      tag_340\n      jump\t// in\n    tag_436:\n        /* \"t.sol\":20190:20222  _tokenBalance * percent / 100000 */\n      tag_437\n      swap2\n      swap1\n      tag_342\n      jump\t// in\n    tag_437:\n        /* \"t.sol\":20167:20222  uint256 _tokenAmount = _tokenBalance * percent / 100000 */\n      swap1\n      pop\n        /* \"t.sol\":20236:20245  bool succ */\n      0x00\n        /* \"t.sol\":20255:20268  _tokenAddress */\n      dup5\n        /* \"t.sol\":20248:20278  IERC20(_tokenAddress).transfer */\n      0xffffffffffffffffffffffffffffffffffffffff\n      and\n      0xa9059cbb\n        /* \"t.sol\":20279:20289  msg.sender */\n      caller\n        /* \"t.sol\":20291:20303  _tokenAmount */\n      dup5\n        /* \"t.sol\":20248:20304  IERC20(_tokenAddress).transfer(msg.sender, _tokenAmount) */\n      mload(0x40)\n      dup4\n      0xffffffff\n      and\n      0xe0\n      shl\n      dup2\n      mstore\n      0x04\n      add\n      tag_438\n      swap3\n      swap2\n      swap1\n      tag_439\n      jump\t// in\n    tag_438:\n      0x20\n      mload(0x40)\n      dup1\n      dup4\n      sub\n      dup2\n      0x00\n      dup8\n      gas\n      call\n      iszero\n      dup1\n      iszero\n      tag_441\n      jumpi\n      returndatasize\n      0x00\n      dup1\n      returndatacopy\n      revert(0x00, returndatasize)\n    tag_441:\n      pop\n      pop\n      pop\n      pop\n      mload(0x40)\n      returndatasize\n      not(0x1f)\n      0x1f\n      dup3\n      add\n      and\n      dup3\n      add\n      dup1\n      0x40\n      mstore\n      pop\n      dup2\n      add\n      swap1\n      tag_442\n      swap2\n      swap1\n      tag_443\n      jump\t// in\n    tag_442:\n        /* \"t.sol\":20236:20304  bool succ = IERC20(_tokenAddress).transfer(msg.sender, _tokenAmount) */\n      swap1\n      pop\n        /* \"t.sol\":20323:20327  succ */\n      dup1\n        /* \"t.sol\":20315:20347  require(succ, \"Transfer failed\") */\n      tag_444\n      jumpi\n      mload(0x40)\n      0x08c379a000000000000000000000000000000000000000000000000000000000\n      dup2\n      mstore\n      0x04\n      add\n      tag_445\n      swap1\n      tag_446\n      jump\t// in\n    tag_445:\n      mload(0x40)\n      dup1\n      swap2\n      sub\n      swap1\n      revert\n    tag_444:\n        /* \"t.sol\":19924:20355  {... */\n      pop\n      pop\n      pop\n        /* \"t.sol\":19805:20355  function recoverTokensFromContract(... */\n      pop\n      pop\n      jump\t// out\n        /* \"t.sol\":2832:3070  function transferOwnership(address newOwner) public virtual onlyOwner {... */\n    tag_287:\n        /* \"t.sol\":1808:1821  _checkOwner() */\n      tag_448\n        /* \"t.sol\":1808:1819  _checkOwner */\n      tag_295\n        /* \"t.sol\":1808:1821  _checkOwner() */\n      jump\t// in\n    tag_448:\n        /* \"t.sol\":2955:2956  0 */\n      0x00\n        /* \"t.sol\":2935:2957  newOwner != address(0) */\n      0xffffffffffffffffffffffffffffffffffffffff\n      and\n        /* \"t.sol\":2935:2943  newOwner */\n      dup2\n        /* \"t.sol\":2935:2957  newOwner != address(0) */\n      0xffffffffffffffffffffffffffffffffffffffff\n      and\n      sub\n        /* \"t.sol\":2913:3023  require(... */\n      tag_450\n      jumpi\n      mload(0x40)\n      0x08c379a000000000000000000000000000000000000000000000000000000000\n      dup2\n      mstore\n      0x04\n      add\n      tag_451\n      swap1\n      tag_452\n      jump\t// in\n    tag_451:\n      mload(0x40)\n      dup1\n      swap2\n      sub\n      swap1\n      revert\n    tag_450:\n        /* \"t.sol\":3034:3062  _transferOwnership(newOwner) */\n      tag_453\n        /* \"t.sol\":3053:3061  newOwner */\n      dup2\n        /* \"t.sol\":3034:3052  _transferOwnership */\n      tag_352\n        /* \"t.sol\":3034:3062  _transferOwnership(newOwner) */\n      jump\t// in\n    tag_453:\n        /* \"t.sol\":2832:3070  function transferOwnership(address newOwner) public virtual onlyOwner {... */\n      pop\n      jump\t// out\n        /* \"t.sol\":10029:10064  uint256 public _buyTaxShare = 33000 */\n    tag_290:\n      sload(0x11)\n      dup2\n      jump\t// out\n        /* \"t.sol\":2089:2221  function _checkOwner() internal view virtual {... */\n    tag_295:\n        /* \"t.sol\":2164:2176  _msgSender() */\n      tag_455\n        /* \"t.sol\":2164:2174  _msgSender */\n      tag_456\n        /* \"t.sol\":2164:2176  _msgSender() */\n      jump\t// in\n    tag_455:\n        /* \"t.sol\":2153:2176  owner() == _msgSender() */\n      0xffffffffffffffffffffffffffffffffffffffff\n      and\n        /* \"t.sol\":2153:2160  owner() */\n      tag_457\n        /* \"t.sol\":2153:2158  owner */\n      tag_192\n        /* \"t.sol\":2153:2160  owner() */\n      jump\t// in\n    tag_457:\n        /* \"t.sol\":2153:2176  owner() == _msgSender() */\n      0xffffffffffffffffffffffffffffffffffffffff\n      and\n      eq\n        /* \"t.sol\":2145:2213  require(owner() == _msgSender(), \"Ownable: caller is not the owner\") */\n      tag_458\n      jumpi\n      mload(0x40)\n      0x08c379a000000000000000000000000000000000000000000000000000000000\n      dup2\n      mstore\n      0x04\n      add\n      tag_459\n      swap1\n      tag_460\n      jump\t// in\n    tag_459:\n      mload(0x40)\n      dup1\n      swap2\n      sub\n      swap1\n      revert\n    tag_458:\n        /* \"t.sol\":2089:2221  function _checkOwner() internal view virtual {... */\n      jump\t// out\n        /* \"t.sol\":13578:13921  function _approve(address sender, address spender, uint256 amount) internal {... */\n    tag_299:\n        /* \"t.sol\":13691:13692  0 */\n      0x00\n        /* \"t.sol\":13673:13693  sender != address(0) */\n      0xffffffffffffffffffffffffffffffffffffffff\n      and\n        /* \"t.sol\":13673:13679  sender */\n      dup4\n        /* \"t.sol\":13673:13693  sender != address(0) */\n      0xffffffffffffffffffffffffffffffffffffffff\n      and\n      sub\n        /* \"t.sol\":13665:13734  require(sender != address(0), \"ERC20: approve from the zero address\") */\n      tag_462\n      jumpi\n      mload(0x40)\n      0x08c379a000000000000000000000000000000000000000000000000000000000\n      dup2\n      mstore\n      0x04\n      add\n      tag_463\n      swap1\n      tag_464\n      jump\t// in\n    tag_463:\n      mload(0x40)\n      dup1\n      swap2\n      sub\n      swap1\n      revert\n    tag_462:\n        /* \"t.sol\":13772:13773  0 */\n      0x00\n        /* \"t.sol\":13753:13774  spender != address(0) */\n      0xffffffffffffffffffffffffffffffffffffffff\n      and\n        /* \"t.sol\":13753:13760  spender */\n      dup3\n        /* \"t.sol\":13753:13774  spender != address(0) */\n      0xffffffffffffffffffffffffffffffffffffffff\n      and\n      sub\n        /* \"t.sol\":13745:13813  require(spender != address(0), \"ERC20: approve to the zero address\") */\n      tag_465\n      jumpi\n      mload(0x40)\n      0x08c379a000000000000000000000000000000000000000000000000000000000\n      dup2\n      mstore\n      0x04\n      add\n      tag_466\n      swap1\n      tag_467\n      jump\t// in\n    tag_466:\n      mload(0x40)\n      dup1\n      swap2\n      sub\n      swap1\n      revert\n    tag_465:\n        /* \"t.sol\":13858:13864  amount */\n      dup1\n        /* \"t.sol\":13827:13838  _allowances */\n      0x04\n        /* \"t.sol\":13827:13846  _allowances[sender] */\n      0x00\n        /* \"t.sol\":13839:13845  sender */\n      dup6\n        /* \"t.sol\":13827:13846  _allowances[sender] */\n      0xffffffffffffffffffffffffffffffffffffffff\n      and\n      0xffffffffffffffffffffffffffffffffffffffff\n      and\n      dup2\n      mstore\n      0x20\n      add\n      swap1\n      dup2\n      mstore\n      0x20\n      add\n      0x00\n      keccak256\n        /* \"t.sol\":13827:13855  _allowances[sender][spender] */\n      0x00\n        /* \"t.sol\":13847:13854  spender */\n      dup5\n        /* \"t.sol\":13827:13855  _allowances[sender][spender] */\n      0xffffffffffffffffffffffffffffffffffffffff\n      and\n      0xffffffffffffffffffffffffffffffffffffffff\n      and\n      dup2\n      mstore\n      0x20\n      add\n      swap1\n      dup2\n      mstore\n      0x20\n      add\n      0x00\n      keccak256\n        /* \"t.sol\":13827:13864  _allowances[sender][spender] = amount */\n      dup2\n      swap1\n      sstore\n      pop\n        /* \"t.sol\":13897:13904  spender */\n      dup2\n        /* \"t.sol\":13880:13913  Approval(sender, spender, amount) */\n      0xffffffffffffffffffffffffffffffffffffffff\n      and\n        /* \"t.sol\":13889:13895  sender */\n      dup4\n        /* \"t.sol\":13880:13913  Approval(sender, spender, amount) */\n      0xffffffffffffffffffffffffffffffffffffffff\n      and\n      0x8c5be1e5ebec7d5bd14f71427d1e84f3dd0314c0f7b2291e5b200ac8c7c3b925\n        /* \"t.sol\":13906:13912  amount */\n      dup4\n        /* \"t.sol\":13880:13913  Approval(sender, spender, amount) */\n      mload(0x40)\n      tag_468\n      swap2\n      swap1\n      tag_99\n      jump\t// in\n    tag_468:\n      mload(0x40)\n      dup1\n      swap2\n      sub\n      swap1\n      log3\n        /* \"t.sol\":13578:13921  function _approve(address sender, address spender, uint256 amount) internal {... */\n      pop\n      pop\n      pop\n      jump\t// out\n        /* \"t.sol\":13930:14432  function _spendAllowance(... */\n    tag_309:\n        /* \"t.sol\":14065:14089  uint256 currentAllowance */\n      0x00\n        /* \"t.sol\":14092:14117  allowance(owner, spender) */\n      tag_470\n        /* \"t.sol\":14102:14107  owner */\n      dup5\n        /* \"t.sol\":14109:14116  spender */\n      dup5\n        /* \"t.sol\":14092:14101  allowance */\n      tag_274\n        /* \"t.sol\":14092:14117  allowance(owner, spender) */\n      jump\t// in\n    tag_470:\n        /* \"t.sol\":14065:14117  uint256 currentAllowance = allowance(owner, spender) */\n      swap1\n      pop\n        /* \"t.sol\":14152:14169  type(uint256).max */\n      0xffffffffffffffffffffffffffffffffffffffffffffffffffffffffffffffff\n        /* \"t.sol\":14132:14148  currentAllowance */\n      dup2\n        /* \"t.sol\":14132:14169  currentAllowance != type(uint256).max */\n      eq\n        /* \"t.sol\":14128:14425  if (currentAllowance != type(uint256).max) {... */\n      tag_471\n      jumpi\n        /* \"t.sol\":14232:14238  amount */\n      dup2\n        /* \"t.sol\":14212:14228  currentAllowance */\n      dup2\n        /* \"t.sol\":14212:14238  currentAllowance >= amount */\n      lt\n      iszero\n        /* \"t.sol\":14186:14303  require(... */\n      tag_472\n      jumpi\n      mload(0x40)\n      0x08c379a000000000000000000000000000000000000000000000000000000000\n      dup2\n      mstore\n      0x04\n      add\n      tag_473\n      swap1\n      tag_474\n      jump\t// in\n    tag_473:\n      mload(0x40)\n      dup1\n      swap2\n      sub\n      swap1\n      revert\n    tag_472:\n        /* \"t.sol\":14347:14398  _approve(owner, spender, currentAllowance - amount) */\n      tag_475\n        /* \"t.sol\":14356:14361  owner */\n      dup5\n        /* \"t.sol\":14363:14370  spender */\n      dup5\n        /* \"t.sol\":14391:14397  amount */\n      dup5\n        /* \"t.sol\":14372:14388  currentAllowance */\n      dup5\n        /* \"t.sol\":14372:14397  currentAllowance - amount */\n      sub\n        /* \"t.sol\":14347:14355  _approve */\n      tag_299\n        /* \"t.sol\":14347:14398  _approve(owner, spender, currentAllowance - amount) */\n      jump\t// in\n    tag_475:\n        /* \"t.sol\":14128:14425  if (currentAllowance != type(uint256).max) {... */\n    tag_471:\n        /* \"t.sol\":14054:14432  {... */\n      pop\n        /* \"t.sol\":13930:14432  function _spendAllowance(... */\n      pop\n      pop\n      pop\n      jump\t// out\n        /* \"t.sol\":23049:26658  function _transfer(address sender, address recipient, uint256 amount) internal {... */\n    tag_311:\n        /* \"t.sol\":23165:23166  0 */\n      0x00\n        /* \"t.sol\":23147:23167  sender != address(0) */\n      0xffffffffffffffffffffffffffffffffffffffff\n      and\n        /* \"t.sol\":23147:23153  sender */\n      dup4\n        /* \"t.sol\":23147:23167  sender != address(0) */\n      0xffffffffffffffffffffffffffffffffffffffff\n      and\n      sub\n        /* \"t.sol\":23139:23209  require(sender != address(0), \"ERC20: transfer from the zero address\") */\n      tag_477\n      jumpi\n      mload(0x40)\n      0x08c379a000000000000000000000000000000000000000000000000000000000\n      dup2\n      mstore\n      0x04\n      add\n      tag_478\n      swap1\n      tag_479\n      jump\t// in\n    tag_478:\n      mload(0x40)\n      dup1\n      swap2\n      sub\n      swap1\n      revert\n    tag_477:\n        /* \"t.sol\":23249:23250  0 */\n      0x00\n        /* \"t.sol\":23228:23251  recipient != address(0) */\n      0xffffffffffffffffffffffffffffffffffffffff\n      and\n        /* \"t.sol\":23228:23237  recipient */\n      dup3\n        /* \"t.sol\":23228:23251  recipient != address(0) */\n      0xffffffffffffffffffffffffffffffffffffffff\n      and\n      sub\n        /* \"t.sol\":23220:23291  require(recipient != address(0), \"ERC20: transfer to the zero address\") */\n      tag_480\n      jumpi\n      mload(0x40)\n      0x08c379a000000000000000000000000000000000000000000000000000000000\n      dup2\n      mstore\n      0x04\n      add\n      tag_481\n      swap1\n      tag_408\n      jump\t// in\n    tag_481:\n      mload(0x40)\n      dup1\n      swap2\n      sub\n      swap1\n      revert\n    tag_480:\n        /* \"t.sol\":23319:23320  0 */\n      0x00\n        /* \"t.sol\":23310:23316  amount */\n      dup2\n        /* \"t.sol\":23310:23320  amount > 0 */\n      gt\n        /* \"t.sol\":23302:23366  require(amount > 0, \"Transfer amount must be greater than zero\") */\n      tag_482\n      jumpi\n      mload(0x40)\n      0x08c379a000000000000000000000000000000000000000000000000000000000\n      dup2\n      mstore\n      0x04\n      add\n      tag_483\n      swap1\n      tag_484\n      jump\t// in\n    tag_483:\n      mload(0x40)\n      dup1\n      swap2\n      sub\n      swap1\n      revert\n    tag_482:\n        /* \"t.sol\":23389:23400  blacklisted */\n      0x05\n        /* \"t.sol\":23389:23408  blacklisted[sender] */\n      0x00\n        /* \"t.sol\":23401:23407  sender */\n      dup5\n        /* \"t.sol\":23389:23408  blacklisted[sender] */\n      0xffffffffffffffffffffffffffffffffffffffff\n      and\n      0xffffffffffffffffffffffffffffffffffffffff\n      and\n      dup2\n      mstore\n      0x20\n      add\n      swap1\n      dup2\n      mstore\n      0x20\n      add\n      0x00\n      keccak256\n      0x00\n      swap1\n      sload\n      swap1\n      0x0100\n      exp\n      swap1\n      div\n      0xff\n      and\n        /* \"t.sol\":23388:23408  !blacklisted[sender] */\n      iszero\n        /* \"t.sol\":23380:23434  require(!blacklisted[sender], \"Sender is blacklisted\") */\n      tag_485\n      jumpi\n      mload(0x40)\n      0x08c379a000000000000000000000000000000000000000000000000000000000\n      dup2\n      mstore\n      0x04\n      add\n      tag_486\n      swap1\n      tag_487\n      jump\t// in\n    tag_486:\n      mload(0x40)\n      dup1\n      swap2\n      sub\n      swap1\n      revert\n    tag_485:\n        /* \"t.sol\":23454:23465  blacklisted */\n      0x05\n        /* \"t.sol\":23454:23476  blacklisted[recipient] */\n      0x00\n        /* \"t.sol\":23466:23475  recipient */\n      dup4\n        /* \"t.sol\":23454:23476  blacklisted[recipient] */\n      0xffffffffffffffffffffffffffffffffffffffff\n      and\n      0xffffffffffffffffffffffffffffffffffffffff\n      and\n      dup2\n      mstore\n      0x20\n      add\n      swap1\n      dup2\n      mstore\n      0x20\n      add\n      0x00\n      keccak256\n      0x00\n      swap1\n      sload\n      swap1\n      0x0100\n      exp\n      swap1\n      div\n      0xff\n      and\n        /* \"t.sol\":23453:23476  !blacklisted[recipient] */\n      iszero\n        /* \"t.sol\":23445:23505  require(!blacklisted[recipient], \"Recipient is blacklisted\") */\n      tag_488\n      jumpi\n      mload(0x40)\n      0x08c379a000000000000000000000000000000000000000000000000000000000\n      dup2\n      mstore\n      0x04\n      add\n      tag_489\n      swap1\n      tag_490\n      jump\t// in\n    tag_489:\n      mload(0x40)\n      dup1\n      swap2\n      sub\n      swap1\n      revert\n    tag_488:\n        /* \"t.sol\":23584:23591  owner() */\n      tag_491\n        /* \"t.sol\":23584:23589  owner */\n      tag_192\n        /* \"t.sol\":23584:23591  owner() */\n      jump\t// in\n    tag_491:\n        /* \"t.sol\":23574:23591  sender == owner() */\n      0xffffffffffffffffffffffffffffffffffffffff\n      and\n        /* \"t.sol\":23574:23580  sender */\n      dup4\n        /* \"t.sol\":23574:23591  sender == owner() */\n      0xffffffffffffffffffffffffffffffffffffffff\n      and\n      eq\n        /* \"t.sol\":23574:23615  sender == owner() || recipient == owner() */\n      dup1\n      tag_492\n      jumpi\n      pop\n        /* \"t.sol\":23608:23615  owner() */\n      tag_493\n        /* \"t.sol\":23608:23613  owner */\n      tag_192\n        /* \"t.sol\":23608:23615  owner() */\n      jump\t// in\n    tag_493:\n        /* \"t.sol\":23595:23615  recipient == owner() */\n      0xffffffffffffffffffffffffffffffffffffffff\n      and\n        /* \"t.sol\":23595:23604  recipient */\n      dup3\n        /* \"t.sol\":23595:23615  recipient == owner() */\n      0xffffffffffffffffffffffffffffffffffffffff\n      and\n      eq\n        /* \"t.sol\":23574:23615  sender == owner() || recipient == owner() */\n    tag_492:\n        /* \"t.sol\":23574:23642  sender == owner() || recipient == owner() || sender == address(this) */\n      dup1\n      tag_494\n      jumpi\n      pop\n        /* \"t.sol\":23637:23641  this */\n      address\n        /* \"t.sol\":23619:23642  sender == address(this) */\n      0xffffffffffffffffffffffffffffffffffffffff\n      and\n        /* \"t.sol\":23619:23625  sender */\n      dup4\n        /* \"t.sol\":23619:23642  sender == address(this) */\n      0xffffffffffffffffffffffffffffffffffffffff\n      and\n      eq\n        /* \"t.sol\":23574:23642  sender == owner() || recipient == owner() || sender == address(this) */\n    tag_494:\n        /* \"t.sol\":23570:23872  if (sender == owner() || recipient == owner() || sender == address(this)) {... */\n      iszero\n      tag_495\n      jumpi\n        /* \"t.sol\":23684:23685  0 */\n      0x00\n        /* \"t.sol\":23662:23680  currentBlockNumber */\n      sload(0x09)\n        /* \"t.sol\":23662:23685  currentBlockNumber == 0 */\n      eq\n        /* \"t.sol\":23662:23714  currentBlockNumber == 0 && recipient == _uniswapPair */\n      dup1\n      iszero\n      tag_496\n      jumpi\n      pop\n        /* \"t.sol\":23702:23714  _uniswapPair */\n      0x18\n      0x00\n      swap1\n      sload\n      swap1\n      0x0100\n      exp\n      swap1\n      div\n      0xffffffffffffffffffffffffffffffffffffffff\n      and\n        /* \"t.sol\":23689:23714  recipient == _uniswapPair */\n      0xffffffffffffffffffffffffffffffffffffffff\n      and\n        /* \"t.sol\":23689:23698  recipient */\n      dup3\n        /* \"t.sol\":23689:23714  recipient == _uniswapPair */\n      0xffffffffffffffffffffffffffffffffffffffff\n      and\n      eq\n        /* \"t.sol\":23662:23714  currentBlockNumber == 0 && recipient == _uniswapPair */\n    tag_496:\n        /* \"t.sol\":23659:23783  if(currentBlockNumber == 0 && recipient == _uniswapPair){... */\n      iszero\n      tag_497\n      jumpi\n        /* \"t.sol\":23755:23767  block.number */\n      number\n        /* \"t.sol\":23734:23752  currentBlockNumber */\n      0x09\n        /* \"t.sol\":23734:23767  currentBlockNumber = block.number */\n      dup2\n      swap1\n      sstore\n      pop\n        /* \"t.sol\":23659:23783  if(currentBlockNumber == 0 && recipient == _uniswapPair){... */\n    tag_497:\n        /* \"t.sol\":23797:23839  _transferTokens(sender, recipient, amount) */\n      tag_498\n        /* \"t.sol\":23813:23819  sender */\n      dup4\n        /* \"t.sol\":23821:23830  recipient */\n      dup4\n        /* \"t.sol\":23832:23838  amount */\n      dup4\n        /* \"t.sol\":23797:23812  _transferTokens */\n      tag_410\n        /* \"t.sol\":23797:23839  _transferTokens(sender, recipient, amount) */\n      jump\t// in\n    tag_498:\n        /* \"t.sol\":23854:23861  return; */\n      jump(tag_476)\n        /* \"t.sol\":23570:23872  if (sender == owner() || recipient == owner() || sender == address(this)) {... */\n    tag_495:\n        /* \"t.sol\":23935:23945  trade_open */\n      0x08\n      0x00\n      swap1\n      sload\n      swap1\n      0x0100\n      exp\n      swap1\n      div\n      0xff\n      and\n        /* \"t.sol\":23927:23969  require(trade_open, \"Trading is disabled\") */\n      tag_499\n      jumpi\n      mload(0x40)\n      0x08c379a000000000000000000000000000000000000000000000000000000000\n      dup2\n      mstore\n      0x04\n      add\n      tag_500\n      swap1\n      tag_501\n      jump\t// in\n    tag_500:\n      mload(0x40)\n      dup1\n      swap2\n      sub\n      swap1\n      revert\n    tag_499:\n        /* \"t.sol\":24023:24044  numBlocksForBlacklist */\n      sload(0x0a)\n        /* \"t.sol\":24002:24020  currentBlockNumber */\n      sload(0x09)\n        /* \"t.sol\":24002:24044  currentBlockNumber + numBlocksForBlacklist */\n      tag_502\n      swap2\n      swap1\n      tag_337\n      jump\t// in\n    tag_502:\n        /* \"t.sol\":23986:23998  block.number */\n      number\n        /* \"t.sol\":23986:24044  block.number <= currentBlockNumber + numBlocksForBlacklist */\n      gt\n        /* \"t.sol\":23983:24122  if(block.number <= currentBlockNumber + numBlocksForBlacklist){... */\n      tag_503\n      jumpi\n        /* \"t.sol\":24085:24089  true */\n      0x01\n        /* \"t.sol\":24060:24071  blacklisted */\n      0x05\n        /* \"t.sol\":24060:24082  blacklisted[recipient] */\n      0x00\n        /* \"t.sol\":24072:24081  recipient */\n      dup5\n        /* \"t.sol\":24060:24082  blacklisted[recipient] */\n      0xffffffffffffffffffffffffffffffffffffffff\n      and\n      0xffffffffffffffffffffffffffffffffffffffff\n      and\n      dup2\n      mstore\n      0x20\n      add\n      swap1\n      dup2\n      mstore\n      0x20\n      add\n      0x00\n      keccak256\n      0x00\n        /* \"t.sol\":24060:24089  blacklisted[recipient] = true */\n      0x0100\n      exp\n      dup2\n      sload\n      dup2\n      0xff\n      mul\n      not\n      and\n      swap1\n      dup4\n      iszero\n      iszero\n      mul\n      or\n      swap1\n      sstore\n      pop\n        /* \"t.sol\":24104:24111  return; */\n      jump(tag_476)\n        /* \"t.sol\":23983:24122  if(block.number <= currentBlockNumber + numBlocksForBlacklist){... */\n    tag_503:\n        /* \"t.sol\":24135:24145  bool isBuy */\n      0x00\n        /* \"t.sol\":24158:24170  _uniswapPair */\n      0x18\n      0x00\n      swap1\n      sload\n      swap1\n      0x0100\n      exp\n      swap1\n      div\n      0xffffffffffffffffffffffffffffffffffffffff\n      and\n        /* \"t.sol\":24148:24170  sender == _uniswapPair */\n      0xffffffffffffffffffffffffffffffffffffffff\n      and\n        /* \"t.sol\":24148:24154  sender */\n      dup5\n        /* \"t.sol\":24148:24170  sender == _uniswapPair */\n      0xffffffffffffffffffffffffffffffffffffffff\n      and\n      eq\n        /* \"t.sol\":24135:24170  bool isBuy = sender == _uniswapPair */\n      swap1\n      pop\n        /* \"t.sol\":24181:24192  bool isSell */\n      0x00\n        /* \"t.sol\":24208:24220  _uniswapPair */\n      0x18\n      0x00\n      swap1\n      sload\n      swap1\n      0x0100\n      exp\n      swap1\n      div\n      0xffffffffffffffffffffffffffffffffffffffff\n      and\n        /* \"t.sol\":24195:24220  recipient == _uniswapPair */\n      0xffffffffffffffffffffffffffffffffffffffff\n      and\n        /* \"t.sol\":24195:24204  recipient */\n      dup5\n        /* \"t.sol\":24195:24220  recipient == _uniswapPair */\n      0xffffffffffffffffffffffffffffffffffffffff\n      and\n      eq\n        /* \"t.sol\":24181:24220  bool isSell = recipient == _uniswapPair */\n      swap1\n      pop\n        /* \"t.sol\":24237:24257  uint256 liquidityTax */\n      0x00\n        /* \"t.sol\":24268:24283  uint256 burnTax */\n      dup1\n        /* \"t.sol\":24294:24308  uint256 buyTax */\n      0x00\n        /* \"t.sol\":24319:24334  uint256 sellTax */\n      dup1\n        /* \"t.sol\":24348:24376  uint256 contractTokenBalance */\n      0x00\n        /* \"t.sol\":24379:24403  balanceOf(address(this)) */\n      tag_504\n        /* \"t.sol\":24397:24401  this */\n      address\n        /* \"t.sol\":24379:24388  balanceOf */\n      tag_164\n        /* \"t.sol\":24379:24403  balanceOf(address(this)) */\n      jump\t// in\n    tag_504:\n        /* \"t.sol\":24348:24403  uint256 contractTokenBalance = balanceOf(address(this)) */\n      swap1\n      pop\n        /* \"t.sol\":24414:24426  bool canSwap */\n      0x00\n        /* \"t.sol\":24453:24466  _taxThreshold */\n      sload(0x16)\n        /* \"t.sol\":24429:24449  contractTokenBalance */\n      dup3\n        /* \"t.sol\":24429:24466  contractTokenBalance >= _taxThreshold */\n      lt\n      iszero\n        /* \"t.sol\":24414:24466  bool canSwap = contractTokenBalance >= _taxThreshold */\n      swap1\n      pop\n        /* \"t.sol\":24498:24505  canSwap */\n      dup1\n        /* \"t.sol\":24498:24533  canSwap &&... */\n      dup1\n      iszero\n      tag_505\n      jumpi\n      pop\n        /* \"t.sol\":24522:24533  swapEnabled */\n      0x18\n      0x15\n      swap1\n      sload\n      swap1\n      0x0100\n      exp\n      swap1\n      div\n      0xff\n      and\n        /* \"t.sol\":24498:24533  canSwap &&... */\n    tag_505:\n        /* \"t.sol\":24498:24559  canSwap &&... */\n      dup1\n      iszero\n      tag_506\n      jumpi\n      pop\n        /* \"t.sol\":24551:24559  swapping */\n      0x18\n      0x14\n      swap1\n      sload\n      swap1\n      0x0100\n      exp\n      swap1\n      div\n      0xff\n      and\n        /* \"t.sol\":24550:24559  !swapping */\n      iszero\n        /* \"t.sol\":24498:24559  canSwap &&... */\n    tag_506:\n        /* \"t.sol\":24498:24610  canSwap &&... */\n      dup1\n      iszero\n      tag_507\n      jumpi\n      pop\n        /* \"t.sol\":24577:24602  automatedMarketMakerPairs */\n      0x06\n        /* \"t.sol\":24577:24610  automatedMarketMakerPairs[sender] */\n      0x00\n        /* \"t.sol\":24603:24609  sender */\n      dup13\n        /* \"t.sol\":24577:24610  automatedMarketMakerPairs[sender] */\n      0xffffffffffffffffffffffffffffffffffffffff\n      and\n      0xffffffffffffffffffffffffffffffffffffffff\n      and\n      dup2\n      mstore\n      0x20\n      add\n      swap1\n      dup2\n      mstore\n      0x20\n      add\n      0x00\n      keccak256\n      0x00\n      swap1\n      sload\n      swap1\n      0x0100\n      exp\n      swap1\n      div\n      0xff\n      and\n        /* \"t.sol\":24576:24610  !automatedMarketMakerPairs[sender] */\n      iszero\n        /* \"t.sol\":24498:24610  canSwap &&... */\n    tag_507:\n        /* \"t.sol\":24498:24654  canSwap &&... */\n      dup1\n      iszero\n      tag_508\n      jumpi\n      pop\n        /* \"t.sol\":24628:24646  _isExcludedFromFee */\n      0x07\n        /* \"t.sol\":24628:24654  _isExcludedFromFee[sender] */\n      0x00\n        /* \"t.sol\":24647:24653  sender */\n      dup13\n        /* \"t.sol\":24628:24654  _isExcludedFromFee[sender] */\n      0xffffffffffffffffffffffffffffffffffffffff\n      and\n      0xffffffffffffffffffffffffffffffffffffffff\n      and\n      dup2\n      mstore\n      0x20\n      add\n      swap1\n      dup2\n      mstore\n      0x20\n      add\n      0x00\n      keccak256\n      0x00\n      swap1\n      sload\n      swap1\n      0x0100\n      exp\n      swap1\n      div\n      0xff\n      and\n        /* \"t.sol\":24627:24654  !_isExcludedFromFee[sender] */\n      iszero\n        /* \"t.sol\":24498:24654  canSwap &&... */\n    tag_508:\n        /* \"t.sol\":24498:24701  canSwap &&... */\n      dup1\n      iszero\n      tag_509\n      jumpi\n      pop\n        /* \"t.sol\":24672:24690  _isExcludedFromFee */\n      0x07\n        /* \"t.sol\":24672:24701  _isExcludedFromFee[recipient] */\n      0x00\n        /* \"t.sol\":24691:24700  recipient */\n      dup12\n        /* \"t.sol\":24672:24701  _isExcludedFromFee[recipient] */\n      0xffffffffffffffffffffffffffffffffffffffff\n      and\n      0xffffffffffffffffffffffffffffffffffffffff\n      and\n      dup2\n      mstore\n      0x20\n      add\n      swap1\n      dup2\n      mstore\n      0x20\n      add\n      0x00\n      keccak256\n      0x00\n      swap1\n      sload\n      swap1\n      0x0100\n      exp\n      swap1\n      div\n      0xff\n      and\n        /* \"t.sol\":24671:24701  !_isExcludedFromFee[recipient] */\n      iszero\n        /* \"t.sol\":24498:24701  canSwap &&... */\n    tag_509:\n        /* \"t.sol\":24480:24820  if (... */\n      iszero\n      tag_510\n      jumpi\n        /* \"t.sol\":24739:24743  true */\n      0x01\n        /* \"t.sol\":24728:24736  swapping */\n      0x18\n      0x14\n        /* \"t.sol\":24728:24743  swapping = true */\n      0x0100\n      exp\n      dup2\n      sload\n      dup2\n      0xff\n      mul\n      not\n      and\n      swap1\n      dup4\n      iszero\n      iszero\n      mul\n      or\n      swap1\n      sstore\n      pop\n        /* \"t.sol\":24758:24774  swapAndLiquify() */\n      tag_511\n        /* \"t.sol\":24758:24772  swapAndLiquify */\n      tag_512\n        /* \"t.sol\":24758:24774  swapAndLiquify() */\n      jump\t// in\n    tag_511:\n        /* \"t.sol\":24800:24805  false */\n      0x00\n        /* \"t.sol\":24789:24797  swapping */\n      0x18\n      0x14\n        /* \"t.sol\":24789:24805  swapping = false */\n      0x0100\n      exp\n      dup2\n      sload\n      dup2\n      0xff\n      mul\n      not\n      and\n      swap1\n      dup4\n      iszero\n      iszero\n      mul\n      or\n      swap1\n      sstore\n      pop\n        /* \"t.sol\":24480:24820  if (... */\n    tag_510:\n        /* \"t.sol\":24833:24845  bool takeFee */\n      0x00\n        /* \"t.sol\":24849:24857  swapping */\n      0x18\n      0x14\n      swap1\n      sload\n      swap1\n      0x0100\n      exp\n      swap1\n      div\n      0xff\n      and\n        /* \"t.sol\":24848:24857  !swapping */\n      iszero\n        /* \"t.sol\":24833:24857  bool takeFee = !swapping */\n      swap1\n      pop\n        /* \"t.sol\":24875:24893  _isExcludedFromFee */\n      0x07\n        /* \"t.sol\":24875:24901  _isExcludedFromFee[sender] */\n      0x00\n        /* \"t.sol\":24894:24900  sender */\n      dup14\n        /* \"t.sol\":24875:24901  _isExcludedFromFee[sender] */\n      0xffffffffffffffffffffffffffffffffffffffff\n      and\n      0xffffffffffffffffffffffffffffffffffffffff\n      and\n      dup2\n      mstore\n      0x20\n      add\n      swap1\n      dup2\n      mstore\n      0x20\n      add\n      0x00\n      keccak256\n      0x00\n      swap1\n      sload\n      swap1\n      0x0100\n      exp\n      swap1\n      div\n      0xff\n      and\n        /* \"t.sol\":24875:24934  _isExcludedFromFee[sender] || _isExcludedFromFee[recipient] */\n      dup1\n      tag_513\n      jumpi\n      pop\n        /* \"t.sol\":24905:24923  _isExcludedFromFee */\n      0x07\n        /* \"t.sol\":24905:24934  _isExcludedFromFee[recipient] */\n      0x00\n        /* \"t.sol\":24924:24933  recipient */\n      dup13\n        /* \"t.sol\":24905:24934  _isExcludedFromFee[recipient] */\n      0xffffffffffffffffffffffffffffffffffffffff\n      and\n      0xffffffffffffffffffffffffffffffffffffffff\n      and\n      dup2\n      mstore\n      0x20\n      add\n      swap1\n      dup2\n      mstore\n      0x20\n      add\n      0x00\n      keccak256\n      0x00\n      swap1\n      sload\n      swap1\n      0x0100\n      exp\n      swap1\n      div\n      0xff\n      and\n        /* \"t.sol\":24875:24934  _isExcludedFromFee[sender] || _isExcludedFromFee[recipient] */\n    tag_513:\n        /* \"t.sol\":24871:24978  if (_isExcludedFromFee[sender] || _isExcludedFromFee[recipient]) {... */\n      iszero\n      tag_514\n      jumpi\n        /* \"t.sol\":24961:24966  false */\n      0x00\n        /* \"t.sol\":24951:24966  takeFee = false */\n      swap1\n      pop\n        /* \"t.sol\":24871:24978  if (_isExcludedFromFee[sender] || _isExcludedFromFee[recipient]) {... */\n    tag_514:\n        /* \"t.sol\":24991:25003  uint256 fees */\n      0x00\n        /* \"t.sol\":25025:25032  takeFee */\n      dup2\n        /* \"t.sol\":25021:26595  if (takeFee) {... */\n      iszero\n      tag_515\n      jumpi\n        /* \"t.sol\":25053:25078  automatedMarketMakerPairs */\n      0x06\n        /* \"t.sol\":25053:25086  automatedMarketMakerPairs[sender] */\n      0x00\n        /* \"t.sol\":25079:25085  sender */\n      dup15\n        /* \"t.sol\":25053:25086  automatedMarketMakerPairs[sender] */\n      0xffffffffffffffffffffffffffffffffffffffff\n      and\n      0xffffffffffffffffffffffffffffffffffffffff\n      and\n      dup2\n      mstore\n      0x20\n      add\n      swap1\n      dup2\n      mstore\n      0x20\n      add\n      0x00\n      keccak256\n      0x00\n      swap1\n      sload\n      swap1\n      0x0100\n      exp\n      swap1\n      div\n      0xff\n      and\n        /* \"t.sol\":25053:25095  automatedMarketMakerPairs[sender] && isBuy */\n      dup1\n      iszero\n      tag_516\n      jumpi\n      pop\n        /* \"t.sol\":25090:25095  isBuy */\n      dup10\n        /* \"t.sol\":25053:25095  automatedMarketMakerPairs[sender] && isBuy */\n    tag_516:\n        /* \"t.sol\":25049:26555  if (automatedMarketMakerPairs[sender] && isBuy) {... */\n      iszero\n      tag_517\n      jumpi\n        /* \"t.sol\":25121:25139  _isExcludedFromFee */\n      0x07\n        /* \"t.sol\":25121:25150  _isExcludedFromFee[recipient] */\n      0x00\n        /* \"t.sol\":25140:25149  recipient */\n      dup14\n        /* \"t.sol\":25121:25150  _isExcludedFromFee[recipient] */\n      0xffffffffffffffffffffffffffffffffffffffff\n      and\n      0xffffffffffffffffffffffffffffffffffffffff\n      and\n      dup2\n      mstore\n      0x20\n      add\n      swap1\n      dup2\n      mstore\n      0x20\n      add\n      0x00\n      keccak256\n      0x00\n      swap1\n      sload\n      swap1\n      0x0100\n      exp\n      swap1\n      div\n      0xff\n      and\n        /* \"t.sol\":25116:25717  if (!_isExcludedFromFee[recipient]){... */\n      tag_518\n      jumpi\n        /* \"t.sol\":25193:25202  maxAmount */\n      sload(0x02)\n        /* \"t.sol\":25183:25189  amount */\n      dup12\n        /* \"t.sol\":25183:25202  amount <= maxAmount */\n      gt\n      iszero\n        /* \"t.sol\":25174:25237  require (amount <= maxAmount, \"Cannot buy more than max limit\") */\n      tag_519\n      jumpi\n      mload(0x40)\n      0x08c379a000000000000000000000000000000000000000000000000000000000\n      dup2\n      mstore\n      0x04\n      add\n      tag_520\n      swap1\n      tag_521\n      jump\t// in\n    tag_520:\n      mload(0x40)\n      dup1\n      swap2\n      sub\n      swap1\n      revert\n    tag_519:\n        /* \"t.sol\":25269:25309  _calculateTax(amount, _buyTaxPercentage) */\n      tag_522\n        /* \"t.sol\":25283:25289  amount */\n      dup12\n        /* \"t.sol\":25291:25308  _buyTaxPercentage */\n      sload(0x0d)\n        /* \"t.sol\":25269:25282  _calculateTax */\n      tag_523\n        /* \"t.sol\":25269:25309  _calculateTax(amount, _buyTaxPercentage) */\n      jump\t// in\n    tag_522:\n        /* \"t.sol\":25260:25309  buyTax = _calculateTax(amount, _buyTaxPercentage) */\n      swap6\n      pop\n        /* \"t.sol\":25347:25393  _calculateTax(amount, _liquidityTaxPercentage) */\n      tag_524\n        /* \"t.sol\":25361:25367  amount */\n      dup12\n        /* \"t.sol\":25369:25392  _liquidityTaxPercentage */\n      sload(0x0f)\n        /* \"t.sol\":25347:25360  _calculateTax */\n      tag_523\n        /* \"t.sol\":25347:25393  _calculateTax(amount, _liquidityTaxPercentage) */\n      jump\t// in\n    tag_524:\n        /* \"t.sol\":25332:25393  liquidityTax = _calculateTax(amount, _liquidityTaxPercentage) */\n      swap8\n      pop\n        /* \"t.sol\":25426:25467  _calculateTax(amount, _burnTaxPercentage) */\n      tag_525\n        /* \"t.sol\":25440:25446  amount */\n      dup12\n        /* \"t.sol\":25448:25466  _burnTaxPercentage */\n      sload(0x10)\n        /* \"t.sol\":25426:25439  _calculateTax */\n      tag_523\n        /* \"t.sol\":25426:25467  _calculateTax(amount, _burnTaxPercentage) */\n      jump\t// in\n    tag_525:\n        /* \"t.sol\":25416:25467  burnTax = _calculateTax(amount, _burnTaxPercentage) */\n      swap7\n      pop\n        /* \"t.sol\":25490:25542  _transferTokens(sender, address(this), liquidityTax) */\n      tag_526\n        /* \"t.sol\":25506:25512  sender */\n      dup14\n        /* \"t.sol\":25522:25526  this */\n      address\n        /* \"t.sol\":25529:25541  liquidityTax */\n      dup11\n        /* \"t.sol\":25490:25505  _transferTokens */\n      tag_410\n        /* \"t.sol\":25490:25542  _transferTokens(sender, address(this), liquidityTax) */\n      jump\t// in\n    tag_526:\n        /* \"t.sol\":25593:25639  _transferTokens(sender, address(this), buyTax) */\n      tag_527\n        /* \"t.sol\":25609:25615  sender */\n      dup14\n        /* \"t.sol\":25625:25629  this */\n      address\n        /* \"t.sol\":25632:25638  buyTax */\n      dup9\n        /* \"t.sol\":25593:25608  _transferTokens */\n      tag_410\n        /* \"t.sol\":25593:25639  _transferTokens(sender, address(this), buyTax) */\n      jump\t// in\n    tag_527:\n        /* \"t.sol\":25663:25697  _burnTokens(sender, DEAD, burnTax) */\n      tag_528\n        /* \"t.sol\":25675:25681  sender */\n      dup14\n        /* \"t.sol\":9714:9756  0x000000000000000000000000000000000000dEaD */\n      0xdead\n        /* \"t.sol\":25689:25696  burnTax */\n      dup10\n        /* \"t.sol\":25663:25674  _burnTokens */\n      tag_529\n        /* \"t.sol\":25663:25697  _burnTokens(sender, DEAD, burnTax) */\n      jump\t// in\n    tag_528:\n        /* \"t.sol\":25116:25717  if (!_isExcludedFromFee[recipient]){... */\n    tag_518:\n        /* \"t.sol\":25763:25770  burnTax */\n      dup7\n        /* \"t.sol\":25750:25762  liquidityTax */\n      dup9\n        /* \"t.sol\":25741:25747  buyTax */\n      dup8\n        /* \"t.sol\":25741:25762  buyTax + liquidityTax */\n      tag_530\n      swap2\n      swap1\n      tag_337\n      jump\t// in\n    tag_530:\n        /* \"t.sol\":25741:25770  buyTax + liquidityTax+burnTax */\n      tag_531\n      swap2\n      swap1\n      tag_337\n      jump\t// in\n    tag_531:\n        /* \"t.sol\":25735:25770  fees =buyTax + liquidityTax+burnTax */\n      swap1\n      pop\n        /* \"t.sol\":25049:26555  if (automatedMarketMakerPairs[sender] && isBuy) {... */\n      jump(tag_532)\n    tag_517:\n        /* \"t.sol\":25813:25838  automatedMarketMakerPairs */\n      0x06\n        /* \"t.sol\":25813:25849  automatedMarketMakerPairs[recipient] */\n      0x00\n        /* \"t.sol\":25839:25848  recipient */\n      dup14\n        /* \"t.sol\":25813:25849  automatedMarketMakerPairs[recipient] */\n      0xffffffffffffffffffffffffffffffffffffffff\n      and\n      0xffffffffffffffffffffffffffffffffffffffff\n      and\n      dup2\n      mstore\n      0x20\n      add\n      swap1\n      dup2\n      mstore\n      0x20\n      add\n      0x00\n      keccak256\n      0x00\n      swap1\n      sload\n      swap1\n      0x0100\n      exp\n      swap1\n      div\n      0xff\n      and\n        /* \"t.sol\":25813:25859  automatedMarketMakerPairs[recipient] && isSell */\n      dup1\n      iszero\n      tag_533\n      jumpi\n      pop\n        /* \"t.sol\":25853:25859  isSell */\n      dup9\n        /* \"t.sol\":25813:25859  automatedMarketMakerPairs[recipient] && isSell */\n    tag_533:\n        /* \"t.sol\":25809:26555  if (automatedMarketMakerPairs[recipient] && isSell) {... */\n      iszero\n      tag_534\n      jumpi\n        /* \"t.sol\":25885:25903  _isExcludedFromFee */\n      0x07\n        /* \"t.sol\":25885:25911  _isExcludedFromFee[sender] */\n      0x00\n        /* \"t.sol\":25904:25910  sender */\n      dup15\n        /* \"t.sol\":25885:25911  _isExcludedFromFee[sender] */\n      0xffffffffffffffffffffffffffffffffffffffff\n      and\n      0xffffffffffffffffffffffffffffffffffffffff\n      and\n      dup2\n      mstore\n      0x20\n      add\n      swap1\n      dup2\n      mstore\n      0x20\n      add\n      0x00\n      keccak256\n      0x00\n      swap1\n      sload\n      swap1\n      0x0100\n      exp\n      swap1\n      div\n      0xff\n      and\n        /* \"t.sol\":25880:26483  if (!_isExcludedFromFee[sender]){... */\n      tag_535\n      jumpi\n        /* \"t.sol\":25954:25963  maxAmount */\n      sload(0x02)\n        /* \"t.sol\":25944:25950  amount */\n      dup12\n        /* \"t.sol\":25944:25963  amount <= maxAmount */\n      gt\n      iszero\n        /* \"t.sol\":25935:25999  require (amount <= maxAmount, \"Cannot sell more than max limit\") */\n      tag_536\n      jumpi\n      mload(0x40)\n      0x08c379a000000000000000000000000000000000000000000000000000000000\n      dup2\n      mstore\n      0x04\n      add\n      tag_537\n      swap1\n      tag_538\n      jump\t// in\n    tag_537:\n      mload(0x40)\n      dup1\n      swap2\n      sub\n      swap1\n      revert\n    tag_536:\n        /* \"t.sol\":26032:26073  _calculateTax(amount, _sellTaxPercentage) */\n      tag_539\n        /* \"t.sol\":26046:26052  amount */\n      dup12\n        /* \"t.sol\":26054:26072  _sellTaxPercentage */\n      sload(0x0e)\n        /* \"t.sol\":26032:26045  _calculateTax */\n      tag_523\n        /* \"t.sol\":26032:26073  _calculateTax(amount, _sellTaxPercentage) */\n      jump\t// in\n    tag_539:\n        /* \"t.sol\":26022:26073  sellTax = _calculateTax(amount, _sellTaxPercentage) */\n      swap5\n      pop\n        /* \"t.sol\":26111:26157  _calculateTax(amount, _liquidityTaxPercentage) */\n      tag_540\n        /* \"t.sol\":26125:26131  amount */\n      dup12\n        /* \"t.sol\":26133:26156  _liquidityTaxPercentage */\n      sload(0x0f)\n        /* \"t.sol\":26111:26124  _calculateTax */\n      tag_523\n        /* \"t.sol\":26111:26157  _calculateTax(amount, _liquidityTaxPercentage) */\n      jump\t// in\n    tag_540:\n        /* \"t.sol\":26096:26157  liquidityTax = _calculateTax(amount, _liquidityTaxPercentage) */\n      swap8\n      pop\n        /* \"t.sol\":26190:26231  _calculateTax(amount, _burnTaxPercentage) */\n      tag_541\n        /* \"t.sol\":26204:26210  amount */\n      dup12\n        /* \"t.sol\":26212:26230  _burnTaxPercentage */\n      sload(0x10)\n        /* \"t.sol\":26190:26203  _calculateTax */\n      tag_523\n        /* \"t.sol\":26190:26231  _calculateTax(amount, _burnTaxPercentage) */\n      jump\t// in\n    tag_541:\n        /* \"t.sol\":26180:26231  burnTax = _calculateTax(amount, _burnTaxPercentage) */\n      swap7\n      pop\n        /* \"t.sol\":26254:26301  _transferTokens(sender, address(this), sellTax) */\n      tag_542\n        /* \"t.sol\":26270:26276  sender */\n      dup14\n        /* \"t.sol\":26286:26290  this */\n      address\n        /* \"t.sol\":26293:26300  sellTax */\n      dup8\n        /* \"t.sol\":26254:26269  _transferTokens */\n      tag_410\n        /* \"t.sol\":26254:26301  _transferTokens(sender, address(this), sellTax) */\n      jump\t// in\n    tag_542:\n        /* \"t.sol\":26326:26378  _transferTokens(sender, address(this), liquidityTax) */\n      tag_543\n        /* \"t.sol\":26342:26348  sender */\n      dup14\n        /* \"t.sol\":26358:26362  this */\n      address\n        /* \"t.sol\":26365:26377  liquidityTax */\n      dup11\n        /* \"t.sol\":26326:26341  _transferTokens */\n      tag_410\n        /* \"t.sol\":26326:26378  _transferTokens(sender, address(this), liquidityTax) */\n      jump\t// in\n    tag_543:\n        /* \"t.sol\":26429:26463  _burnTokens(sender, DEAD, burnTax) */\n      tag_544\n        /* \"t.sol\":26441:26447  sender */\n      dup14\n        /* \"t.sol\":9714:9756  0x000000000000000000000000000000000000dEaD */\n      0xdead\n        /* \"t.sol\":26455:26462  burnTax */\n      dup10\n        /* \"t.sol\":26429:26440  _burnTokens */\n      tag_529\n        /* \"t.sol\":26429:26463  _burnTokens(sender, DEAD, burnTax) */\n      jump\t// in\n    tag_544:\n        /* \"t.sol\":25880:26483  if (!_isExcludedFromFee[sender]){... */\n    tag_535:\n        /* \"t.sol\":26532:26539  burnTax */\n      dup7\n        /* \"t.sol\":26517:26529  liquidityTax */\n      dup9\n        /* \"t.sol\":26508:26515  sellTax */\n      dup7\n        /* \"t.sol\":26508:26529  sellTax+ liquidityTax */\n      tag_545\n      swap2\n      swap1\n      tag_337\n      jump\t// in\n    tag_545:\n        /* \"t.sol\":26508:26539  sellTax+ liquidityTax + burnTax */\n      tag_546\n      swap2\n      swap1\n      tag_337\n      jump\t// in\n    tag_546:\n        /* \"t.sol\":26501:26539  fees = sellTax+ liquidityTax + burnTax */\n      swap1\n      pop\n        /* \"t.sol\":25809:26555  if (automatedMarketMakerPairs[recipient] && isSell) {... */\n    tag_534:\n        /* \"t.sol\":25049:26555  if (automatedMarketMakerPairs[sender] && isBuy) {... */\n    tag_532:\n        /* \"t.sol\":26579:26583  fees */\n      dup1\n        /* \"t.sol\":26569:26583  amount -= fees */\n      dup12\n      tag_547\n      swap2\n      swap1\n      tag_548\n      jump\t// in\n    tag_547:\n      swap11\n      pop\n        /* \"t.sol\":25021:26595  if (takeFee) {... */\n    tag_515:\n        /* \"t.sol\":26605:26647  _transferTokens(sender, recipient, amount) */\n      tag_549\n        /* \"t.sol\":26621:26627  sender */\n      dup14\n        /* \"t.sol\":26629:26638  recipient */\n      dup14\n        /* \"t.sol\":26640:26646  amount */\n      dup14\n        /* \"t.sol\":26605:26620  _transferTokens */\n      tag_410\n        /* \"t.sol\":26605:26647  _transferTokens(sender, recipient, amount) */\n      jump\t// in\n    tag_549:\n        /* \"t.sol\":23128:26658  {... */\n      pop\n      pop\n      pop\n      pop\n      pop\n      pop\n      pop\n      pop\n      pop\n      pop\n        /* \"t.sol\":23049:26658  function _transfer(address sender, address recipient, uint256 amount) internal {... */\n    tag_476:\n      pop\n      pop\n      pop\n      jump\t// out\n        /* \"t.sol\":3231:3422  function _transferOwnership(address newOwner) internal virtual {... */\n    tag_352:\n        /* \"t.sol\":3305:3321  address oldOwner */\n      0x00\n        /* \"t.sol\":3324:3330  _owner */\n      dup1\n      0x00\n      swap1\n      sload\n      swap1\n      0x0100\n      exp\n      swap1\n      div\n      0xffffffffffffffffffffffffffffffffffffffff\n      and\n        /* \"t.sol\":3305:3330  address oldOwner = _owner */\n      swap1\n      pop\n        /* \"t.sol\":3350:3358  newOwner */\n      dup2\n        /* \"t.sol\":3341:3347  _owner */\n      0x00\n      dup1\n        /* \"t.sol\":3341:3358  _owner = newOwner */\n      0x0100\n      exp\n      dup2\n      sload\n      dup2\n      0xffffffffffffffffffffffffffffffffffffffff\n      mul\n      not\n      and\n      swap1\n      dup4\n      0xffffffffffffffffffffffffffffffffffffffff\n      and\n      mul\n      or\n      swap1\n      sstore\n      pop\n        /* \"t.sol\":3405:3413  newOwner */\n      dup2\n        /* \"t.sol\":3374:3414  OwnershipTransferred(oldOwner, newOwner) */\n      0xffffffffffffffffffffffffffffffffffffffff\n      and\n        /* \"t.sol\":3395:3403  oldOwner */\n      dup2\n        /* \"t.sol\":3374:3414  OwnershipTransferred(oldOwner, newOwner) */\n      0xffffffffffffffffffffffffffffffffffffffff\n      and\n      0x8be0079c531659141344cd1fd0a4f28419497f9722a3daafe3b4186f6b6457e0\n      mload(0x40)\n      mload(0x40)\n      dup1\n      swap2\n      sub\n      swap1\n      log3\n        /* \"t.sol\":3294:3422  {... */\n      pop\n        /* \"t.sol\":3231:3422  function _transferOwnership(address newOwner) internal virtual {... */\n      pop\n      jump\t// out\n        /* \"t.sol\":16456:16586  function _setAutomatedMarketMakerPair(address pair, bool value) private {... */\n    tag_363:\n        /* \"t.sol\":16573:16578  value */\n      dup1\n        /* \"t.sol\":16539:16564  automatedMarketMakerPairs */\n      0x06\n        /* \"t.sol\":16539:16570  automatedMarketMakerPairs[pair] */\n      0x00\n        /* \"t.sol\":16565:16569  pair */\n      dup5\n        /* \"t.sol\":16539:16570  automatedMarketMakerPairs[pair] */\n      0xffffffffffffffffffffffffffffffffffffffff\n      and\n      0xffffffffffffffffffffffffffffffffffffffff\n      and\n      dup2\n      mstore\n      0x20\n      add\n      swap1\n      dup2\n      mstore\n      0x20\n      add\n      0x00\n      keccak256\n      0x00\n        /* \"t.sol\":16539:16578  automatedMarketMakerPairs[pair] = value */\n      0x0100\n      exp\n      dup2\n      sload\n      dup2\n      0xff\n      mul\n      not\n      and\n      swap1\n      dup4\n      iszero\n      iszero\n      mul\n      or\n      swap1\n      sstore\n      pop\n        /* \"t.sol\":16456:16586  function _setAutomatedMarketMakerPair(address pair, bool value) private {... */\n      pop\n      pop\n      jump\t// out\n        /* \"t.sol\":15001:15628  function _transferTokens(... */\n    tag_410:\n        /* \"t.sol\":15130:15149  uint256 fromBalance */\n      0x00\n        /* \"t.sol\":15152:15161  _balances */\n      0x03\n        /* \"t.sol\":15152:15167  _balances[from] */\n      0x00\n        /* \"t.sol\":15162:15166  from */\n      dup6\n        /* \"t.sol\":15152:15167  _balances[from] */\n      0xffffffffffffffffffffffffffffffffffffffff\n      and\n      0xffffffffffffffffffffffffffffffffffffffff\n      and\n      dup2\n      mstore\n      0x20\n      add\n      swap1\n      dup2\n      mstore\n      0x20\n      add\n      0x00\n      keccak256\n      sload\n        /* \"t.sol\":15130:15167  uint256 fromBalance = _balances[from] */\n      swap1\n      pop\n        /* \"t.sol\":15215:15221  amount */\n      dup2\n        /* \"t.sol\":15200:15211  fromBalance */\n      dup2\n        /* \"t.sol\":15200:15221  fromBalance >= amount */\n      lt\n      iszero\n        /* \"t.sol\":15178:15287  require(... */\n      tag_553\n      jumpi\n      mload(0x40)\n      0x08c379a000000000000000000000000000000000000000000000000000000000\n      dup2\n      mstore\n      0x04\n      add\n      tag_554\n      swap1\n      tag_555\n      jump\t// in\n    tag_554:\n      mload(0x40)\n      dup1\n      swap2\n      sub\n      swap1\n      revert\n    tag_553:\n        /* \"t.sol\":15355:15361  amount */\n      dup2\n        /* \"t.sol\":15341:15352  fromBalance */\n      dup2\n        /* \"t.sol\":15341:15361  fromBalance - amount */\n      sub\n        /* \"t.sol\":15323:15332  _balances */\n      0x03\n        /* \"t.sol\":15323:15338  _balances[from] */\n      0x00\n        /* \"t.sol\":15333:15337  from */\n      dup7\n        /* \"t.sol\":15323:15338  _balances[from] */\n      0xffffffffffffffffffffffffffffffffffffffff\n      and\n      0xffffffffffffffffffffffffffffffffffffffff\n      and\n      dup2\n      mstore\n      0x20\n      add\n      swap1\n      dup2\n      mstore\n      0x20\n      add\n      0x00\n      keccak256\n        /* \"t.sol\":15323:15361  _balances[from] = fromBalance - amount */\n      dup2\n      swap1\n      sstore\n      pop\n        /* \"t.sol\":15558:15564  amount */\n      dup2\n        /* \"t.sol\":15541:15550  _balances */\n      0x03\n        /* \"t.sol\":15541:15554  _balances[to] */\n      0x00\n        /* \"t.sol\":15551:15553  to */\n      dup6\n        /* \"t.sol\":15541:15554  _balances[to] */\n      0xffffffffffffffffffffffffffffffffffffffff\n      and\n      0xffffffffffffffffffffffffffffffffffffffff\n      and\n      dup2\n      mstore\n      0x20\n      add\n      swap1\n      dup2\n      mstore\n      0x20\n      add\n      0x00\n      keccak256\n      0x00\n        /* \"t.sol\":15541:15564  _balances[to] += amount */\n      dup3\n      dup3\n      sload\n      add\n      swap3\n      pop\n      pop\n      dup2\n      swap1\n      sstore\n      pop\n        /* \"t.sol\":15609:15611  to */\n      dup3\n        /* \"t.sol\":15594:15620  Transfer(from, to, amount) */\n      0xffffffffffffffffffffffffffffffffffffffff\n      and\n        /* \"t.sol\":15603:15607  from */\n      dup5\n        /* \"t.sol\":15594:15620  Transfer(from, to, amount) */\n      0xffffffffffffffffffffffffffffffffffffffff\n      and\n      0xddf252ad1be2c89b69c2b068fc378daa952ba7f163c4a11628f55a4df523b3ef\n        /* \"t.sol\":15613:15619  amount */\n      dup5\n        /* \"t.sol\":15594:15620  Transfer(from, to, amount) */\n      mload(0x40)\n      tag_556\n      swap2\n      swap1\n      tag_99\n      jump\t// in\n    tag_556:\n      mload(0x40)\n      dup1\n      swap2\n      sub\n      swap1\n      log3\n        /* \"t.sol\":15119:15628  {... */\n      pop\n        /* \"t.sol\":15001:15628  function _transferTokens(... */\n      pop\n      pop\n      pop\n      jump\t// out\n        /* \"t.sol\":601:699  function _msgSender() internal view virtual returns (address) {... */\n    tag_456:\n        /* \"t.sol\":654:661  address */\n      0x00\n        /* \"t.sol\":681:691  msg.sender */\n      caller\n        /* \"t.sol\":674:691  return msg.sender */\n      swap1\n      pop\n        /* \"t.sol\":601:699  function _msgSender() internal view virtual returns (address) {... */\n      swap1\n      jump\t// out\n        /* \"t.sol\":21099:22514  function swapAndLiquify() internal {... */\n    tag_512:\n        /* \"t.sol\":21148:21176  uint256 contractTokenBalance */\n      0x00\n        /* \"t.sol\":21179:21203  balanceOf(address(this)) */\n      tag_559\n        /* \"t.sol\":21197:21201  this */\n      address\n        /* \"t.sol\":21179:21188  balanceOf */\n      tag_164\n        /* \"t.sol\":21179:21203  balanceOf(address(this)) */\n      jump\t// in\n    tag_559:\n        /* \"t.sol\":21148:21203  uint256 contractTokenBalance = balanceOf(address(this)) */\n      swap1\n      pop\n        /* \"t.sol\":21245:21258  _taxThreshold */\n      sload(0x16)\n        /* \"t.sol\":21221:21241  contractTokenBalance */\n      dup2\n        /* \"t.sol\":21221:21258  contractTokenBalance >= _taxThreshold */\n      lt\n        /* \"t.sol\":21217:22507  if (contractTokenBalance >= _taxThreshold) {... */\n      tag_560\n      jumpi\n        /* \"t.sol\":21275:21290  uint256 liqHalf */\n      0x00\n        /* \"t.sol\":21340:21350  100000 * 2 */\n      0x030d40\n        /* \"t.sol\":21317:21335  _liquidityTaxShare */\n      sload(0x13)\n        /* \"t.sol\":21294:21314  contractTokenBalance */\n      dup4\n        /* \"t.sol\":21294:21335  contractTokenBalance * _liquidityTaxShare */\n      tag_561\n      swap2\n      swap1\n      tag_340\n      jump\t// in\n    tag_561:\n        /* \"t.sol\":21293:21351  (contractTokenBalance * _liquidityTaxShare) / (100000 * 2) */\n      tag_562\n      swap2\n      swap1\n      tag_342\n      jump\t// in\n    tag_562:\n        /* \"t.sol\":21275:21351  uint256 liqHalf = (contractTokenBalance * _liquidityTaxShare) / (100000 * 2) */\n      swap1\n      pop\n        /* \"t.sol\":21366:21386  uint256 otherLiqHalf */\n      0x00\n        /* \"t.sol\":21442:21449  liqHalf */\n      dup2\n        /* \"t.sol\":21433:21439  100000 */\n      0x0186a0\n        /* \"t.sol\":21413:21431  _liquidityTaxShare */\n      sload(0x13)\n        /* \"t.sol\":21390:21410  contractTokenBalance */\n      dup6\n        /* \"t.sol\":21390:21431  contractTokenBalance * _liquidityTaxShare */\n      tag_563\n      swap2\n      swap1\n      tag_340\n      jump\t// in\n    tag_563:\n        /* \"t.sol\":21389:21439  (contractTokenBalance * _liquidityTaxShare)/100000 */\n      tag_564\n      swap2\n      swap1\n      tag_342\n      jump\t// in\n    tag_564:\n        /* \"t.sol\":21389:21449  (contractTokenBalance * _liquidityTaxShare)/100000 - liqHalf */\n      tag_565\n      swap2\n      swap1\n      tag_548\n      jump\t// in\n    tag_565:\n        /* \"t.sol\":21366:21449  uint256 otherLiqHalf = (contractTokenBalance * _liquidityTaxShare)/100000 - liqHalf */\n      swap1\n      pop\n        /* \"t.sol\":21464:21484  uint256 tokensToSwap */\n      0x00\n        /* \"t.sol\":21510:21517  liqHalf */\n      dup3\n        /* \"t.sol\":21487:21507  contractTokenBalance */\n      dup5\n        /* \"t.sol\":21487:21517  contractTokenBalance - liqHalf */\n      tag_566\n      swap2\n      swap1\n      tag_548\n      jump\t// in\n    tag_566:\n        /* \"t.sol\":21464:21517  uint256 tokensToSwap = contractTokenBalance - liqHalf */\n      swap1\n      pop\n        /* \"t.sol\":21536:21558  uint256 initialBalance */\n      0x00\n        /* \"t.sol\":21561:21582  address(this).balance */\n      selfbalance\n        /* \"t.sol\":21536:21582  uint256 initialBalance = address(this).balance */\n      swap1\n      pop\n        /* \"t.sol\":21600:21630  swapTokensForEth(tokensToSwap) */\n      tag_567\n        /* \"t.sol\":21617:21629  tokensToSwap */\n      dup3\n        /* \"t.sol\":21600:21616  swapTokensForEth */\n      tag_568\n        /* \"t.sol\":21600:21630  swapTokensForEth(tokensToSwap) */\n      jump\t// in\n    tag_567:\n        /* \"t.sol\":21648:21666  uint256 newBalance */\n      0x00\n        /* \"t.sol\":21694:21708  initialBalance */\n      dup2\n        /* \"t.sol\":21669:21690  address(this).balance */\n      selfbalance\n        /* \"t.sol\":21669:21709  address(this).balance - (initialBalance) */\n      tag_569\n      swap2\n      swap1\n      tag_548\n      jump\t// in\n    tag_569:\n        /* \"t.sol\":21648:21709  uint256 newBalance = address(this).balance - (initialBalance) */\n      swap1\n      pop\n        /* \"t.sol\":21727:21740  bool success1 */\n      0x00\n        /* \"t.sol\":21755:21768  bool success2 */\n      dup1\n        /* \"t.sol\":21786:21806  uint256 buyFeeAmount */\n      0x00\n        /* \"t.sol\":21839:21845  100000 */\n      0x0186a0\n        /* \"t.sol\":21823:21835  _buyTaxShare */\n      sload(0x11)\n        /* \"t.sol\":21810:21820  newBalance */\n      dup6\n        /* \"t.sol\":21810:21835  newBalance * _buyTaxShare */\n      tag_570\n      swap2\n      swap1\n      tag_340\n      jump\t// in\n    tag_570:\n        /* \"t.sol\":21809:21845  (newBalance * _buyTaxShare) / 100000 */\n      tag_571\n      swap2\n      swap1\n      tag_342\n      jump\t// in\n    tag_571:\n        /* \"t.sol\":21786:21845  uint256 buyFeeAmount = (newBalance * _buyTaxShare) / 100000 */\n      swap1\n      pop\n        /* \"t.sol\":21865:21886  uint256 sellFeeAmount */\n      0x00\n        /* \"t.sol\":21920:21926  100000 */\n      0x0186a0\n        /* \"t.sol\":21903:21916  _sellTaxShare */\n      sload(0x12)\n        /* \"t.sol\":21890:21900  newBalance */\n      dup7\n        /* \"t.sol\":21890:21916  newBalance * _sellTaxShare */\n      tag_572\n      swap2\n      swap1\n      tag_340\n      jump\t// in\n    tag_572:\n        /* \"t.sol\":21889:21926  (newBalance * _sellTaxShare) / 100000 */\n      tag_573\n      swap2\n      swap1\n      tag_342\n      jump\t// in\n    tag_573:\n        /* \"t.sol\":21865:21926  uint256 sellFeeAmount = (newBalance * _sellTaxShare) / 100000 */\n      swap1\n      pop\n        /* \"t.sol\":21944:21963  uint256 totalAmount */\n      0x00\n        /* \"t.sol\":21981:21994  sellFeeAmount */\n      dup2\n        /* \"t.sol\":21966:21978  buyFeeAmount */\n      dup4\n        /* \"t.sol\":21966:21994  buyFeeAmount + sellFeeAmount */\n      tag_574\n      swap2\n      swap1\n      tag_337\n      jump\t// in\n    tag_574:\n        /* \"t.sol\":21944:21994  uint256 totalAmount = buyFeeAmount + sellFeeAmount */\n      swap1\n      pop\n        /* \"t.sol\":22053:22066  sellFeeAmount */\n      dup2\n        /* \"t.sol\":22038:22050  buyFeeAmount */\n      dup4\n        /* \"t.sol\":22025:22035  newBalance */\n      dup8\n        /* \"t.sol\":22025:22050  newBalance - buyFeeAmount */\n      tag_575\n      swap2\n      swap1\n      tag_548\n      jump\t// in\n    tag_575:\n        /* \"t.sol\":22025:22066  newBalance - buyFeeAmount - sellFeeAmount */\n      tag_576\n      swap2\n      swap1\n      tag_548\n      jump\t// in\n    tag_576:\n        /* \"t.sol\":22012:22066  newBalance = newBalance - buyFeeAmount - sellFeeAmount */\n      swap6\n      pop\n        /* \"t.sol\":22084:22107  uint256 marketingAmount */\n      0x00\n        /* \"t.sol\":22143:22149  100000 */\n      0x0186a0\n        /* \"t.sol\":22125:22141  marketingPercent */\n      sload(0x15)\n        /* \"t.sol\":22111:22122  totalAmount */\n      dup4\n        /* \"t.sol\":22111:22141  totalAmount * marketingPercent */\n      tag_577\n      swap2\n      swap1\n      tag_340\n      jump\t// in\n    tag_577:\n        /* \"t.sol\":22110:22149  (totalAmount * marketingPercent)/100000 */\n      tag_578\n      swap2\n      swap1\n      tag_342\n      jump\t// in\n    tag_578:\n        /* \"t.sol\":22084:22149  uint256 marketingAmount = (totalAmount * marketingPercent)/100000 */\n      swap1\n      pop\n        /* \"t.sol\":22164:22181  uint256 devAmount */\n      0x00\n        /* \"t.sol\":22198:22213  marketingAmount */\n      dup2\n        /* \"t.sol\":22184:22195  totalAmount */\n      dup4\n        /* \"t.sol\":22184:22213  totalAmount - marketingAmount */\n      tag_579\n      swap2\n      swap1\n      tag_548\n      jump\t// in\n    tag_579:\n        /* \"t.sol\":22164:22213  uint256 devAmount = totalAmount - marketingAmount */\n      swap1\n      pop\n        /* \"t.sol\":22245:22260  marketingWallet */\n      0x0b\n      0x00\n      swap1\n      sload\n      swap1\n      0x0100\n      exp\n      swap1\n      div\n      0xffffffffffffffffffffffffffffffffffffffff\n      and\n        /* \"t.sol\":22245:22265  marketingWallet.call */\n      0xffffffffffffffffffffffffffffffffffffffff\n      and\n        /* \"t.sol\":22273:22288  marketingAmount */\n      dup3\n        /* \"t.sol\":22295:22300  35000 */\n      0x88b8\n        /* \"t.sol\":22245:22305  marketingWallet.call{value: marketingAmount, gas: 35000}(\"\") */\n      swap1\n      mload(0x40)\n      tag_580\n      swap1\n      tag_581\n      jump\t// in\n    tag_580:\n      0x00\n      mload(0x40)\n      dup1\n      dup4\n      sub\n      dup2\n      dup6\n      dup9\n      dup9\n      call\n      swap4\n      pop\n      pop\n      pop\n      pop\n      returndatasize\n      dup1\n      0x00\n      dup2\n      eq\n      tag_584\n      jumpi\n      mload(0x40)\n      swap2\n      pop\n      and(add(returndatasize, 0x3f), not(0x1f))\n      dup3\n      add\n      0x40\n      mstore\n      returndatasize\n      dup3\n      mstore\n      returndatasize\n      0x00\n      0x20\n      dup5\n      add\n      returndatacopy\n      jump(tag_583)\n    tag_584:\n      0x60\n      swap2\n      pop\n    tag_583:\n      pop\n        /* \"t.sol\":22231:22305  (success1,) = marketingWallet.call{value: marketingAmount, gas: 35000}(\"\") */\n      pop\n      dup1\n      swap8\n      pop\n      pop\n        /* \"t.sol\":22334:22343  devWallet */\n      0x0c\n      0x00\n      swap1\n      sload\n      swap1\n      0x0100\n      exp\n      swap1\n      div\n      0xffffffffffffffffffffffffffffffffffffffff\n      and\n        /* \"t.sol\":22334:22348  devWallet.call */\n      0xffffffffffffffffffffffffffffffffffffffff\n      and\n        /* \"t.sol\":22356:22365  devAmount */\n      dup2\n        /* \"t.sol\":22372:22377  35000 */\n      0x88b8\n        /* \"t.sol\":22334:22382  devWallet.call{value: devAmount, gas: 35000}(\"\") */\n      swap1\n      mload(0x40)\n      tag_585\n      swap1\n      tag_581\n      jump\t// in\n    tag_585:\n      0x00\n      mload(0x40)\n      dup1\n      dup4\n      sub\n      dup2\n      dup6\n      dup9\n      dup9\n      call\n      swap4\n      pop\n      pop\n      pop\n      pop\n      returndatasize\n      dup1\n      0x00\n      dup2\n      eq\n      tag_588\n      jumpi\n      mload(0x40)\n      swap2\n      pop\n      and(add(returndatasize, 0x3f), not(0x1f))\n      dup3\n      add\n      0x40\n      mstore\n      returndatasize\n      dup3\n      mstore\n      returndatasize\n      0x00\n      0x20\n      dup5\n      add\n      returndatacopy\n      jump(tag_587)\n    tag_588:\n      0x60\n      swap2\n      pop\n    tag_587:\n      pop\n        /* \"t.sol\":22320:22382  (success2,) = devWallet.call{value: devAmount, gas: 35000}(\"\") */\n      pop\n      dup1\n      swap7\n      pop\n      pop\n        /* \"t.sol\":22417:22418  0 */\n      0x00\n        /* \"t.sol\":22404:22414  newBalance */\n      dup9\n        /* \"t.sol\":22404:22418  newBalance > 0 */\n      gt\n        /* \"t.sol\":22400:22493  if (newBalance > 0) {... */\n      iszero\n      tag_589\n      jumpi\n        /* \"t.sol\":22439:22477  addLiquidity(otherLiqHalf, newBalance) */\n      tag_590\n        /* \"t.sol\":22452:22464  otherLiqHalf */\n      dup12\n        /* \"t.sol\":22466:22476  newBalance */\n      dup10\n        /* \"t.sol\":22439:22451  addLiquidity */\n      tag_591\n        /* \"t.sol\":22439:22477  addLiquidity(otherLiqHalf, newBalance) */\n      jump\t// in\n    tag_590:\n        /* \"t.sol\":22400:22493  if (newBalance > 0) {... */\n    tag_589:\n        /* \"t.sol\":21260:22507  {... */\n      pop\n      pop\n      pop\n      pop\n      pop\n      pop\n      pop\n      pop\n      pop\n      pop\n      pop\n      pop\n        /* \"t.sol\":21217:22507  if (contractTokenBalance >= _taxThreshold) {... */\n    tag_560:\n        /* \"t.sol\":21134:22514  {... */\n      pop\n        /* \"t.sol\":21099:22514  function swapAndLiquify() internal {... */\n      jump\t// out\n        /* \"t.sol\":26667:26822  function _calculateTax(uint256 amount, uint256 taxPercentage) internal pure returns (uint256) {... */\n    tag_523:\n        /* \"t.sol\":26752:26759  uint256 */\n      0x00\n        /* \"t.sol\":26807:26813  100000 */\n      0x0186a0\n        /* \"t.sol\":26789:26802  taxPercentage */\n      dup3\n        /* \"t.sol\":26779:26785  amount */\n      dup5\n        /* \"t.sol\":26779:26803  amount * (taxPercentage) */\n      tag_593\n      swap2\n      swap1\n      tag_340\n      jump\t// in\n    tag_593:\n        /* \"t.sol\":26779:26814  amount * (taxPercentage) / (100000) */\n      tag_594\n      swap2\n      swap1\n      tag_342\n      jump\t// in\n    tag_594:\n        /* \"t.sol\":26772:26814  return amount * (taxPercentage) / (100000) */\n      swap1\n      pop\n        /* \"t.sol\":26667:26822  function _calculateTax(uint256 amount, uint256 taxPercentage) internal pure returns (uint256) {... */\n      swap3\n      swap2\n      pop\n      pop\n      jump\t// out\n        /* \"t.sol\":14441:14992  function _burnTokens(address account, address dead, uint256 amount) internal virtual {... */\n    tag_529:\n        /* \"t.sol\":14564:14565  0 */\n      0x00\n        /* \"t.sol\":14545:14566  account != address(0) */\n      0xffffffffffffffffffffffffffffffffffffffff\n      and\n        /* \"t.sol\":14545:14552  account */\n      dup4\n        /* \"t.sol\":14545:14566  account != address(0) */\n      0xffffffffffffffffffffffffffffffffffffffff\n      and\n      sub\n        /* \"t.sol\":14537:14604  require(account != address(0), \"ERC20: burn from the zero address\") */\n      tag_596\n      jumpi\n      mload(0x40)\n      0x08c379a000000000000000000000000000000000000000000000000000000000\n      dup2\n      mstore\n      0x04\n      add\n      tag_597\n      swap1\n      tag_598\n      jump\t// in\n    tag_597:\n      mload(0x40)\n      dup1\n      swap2\n      sub\n      swap1\n      revert\n    tag_596:\n        /* \"t.sol\":14648:14654  amount */\n      dup1\n        /* \"t.sol\":14626:14635  _balances */\n      0x03\n        /* \"t.sol\":14626:14644  _balances[account] */\n      0x00\n        /* \"t.sol\":14636:14643  account */\n      dup6\n        /* \"t.sol\":14626:14644  _balances[account] */\n      0xffffffffffffffffffffffffffffffffffffffff\n      and\n      0xffffffffffffffffffffffffffffffffffffffff\n      and\n      dup2\n      mstore\n      0x20\n      add\n      swap1\n      dup2\n      mstore\n      0x20\n      add\n      0x00\n      keccak256\n      sload\n        /* \"t.sol\":14626:14654  _balances[account] >= amount */\n      lt\n      iszero\n        /* \"t.sol\":14618:14693  require(_balances[account] >= amount, \"ERC20: burn amount exceeds balance\") */\n      tag_599\n      jumpi\n      mload(0x40)\n      0x08c379a000000000000000000000000000000000000000000000000000000000\n      dup2\n      mstore\n      0x04\n      add\n      tag_600\n      swap1\n      tag_601\n      jump\t// in\n    tag_600:\n      mload(0x40)\n      dup1\n      swap2\n      sub\n      swap1\n      revert\n    tag_599:\n        /* \"t.sol\":14751:14757  amount */\n      dup1\n        /* \"t.sol\":14729:14738  _balances */\n      0x03\n        /* \"t.sol\":14729:14747  _balances[account] */\n      0x00\n        /* \"t.sol\":14739:14746  account */\n      dup6\n        /* \"t.sol\":14729:14747  _balances[account] */\n      0xffffffffffffffffffffffffffffffffffffffff\n      and\n      0xffffffffffffffffffffffffffffffffffffffff\n      and\n      dup2\n      mstore\n      0x20\n      add\n      swap1\n      dup2\n      mstore\n      0x20\n      add\n      0x00\n      keccak256\n      0x00\n        /* \"t.sol\":14729:14757  _balances[account] -= amount */\n      dup3\n      dup3\n      sload\n      sub\n      swap3\n      pop\n      pop\n      dup2\n      swap1\n      sstore\n      pop\n        /* \"t.sol\":14791:14797  amount */\n      dup1\n        /* \"t.sol\":14772:14781  _balances */\n      0x03\n        /* \"t.sol\":14772:14787  _balances[dead] */\n      0x00\n        /* \"t.sol\":14782:14786  dead */\n      dup5\n        /* \"t.sol\":14772:14787  _balances[dead] */\n      0xffffffffffffffffffffffffffffffffffffffff\n      and\n      0xffffffffffffffffffffffffffffffffffffffff\n      and\n      dup2\n      mstore\n      0x20\n      add\n      swap1\n      dup2\n      mstore\n      0x20\n      add\n      0x00\n      keccak256\n      0x00\n        /* \"t.sol\":14772:14797  _balances[dead] += amount */\n      dup3\n      dup3\n      sload\n      add\n      swap3\n      pop\n      pop\n      dup2\n      swap1\n      sstore\n      pop\n        /* \"t.sol\":14908:14914  amount */\n      dup1\n        /* \"t.sol\":14892:14904  _totalSupply */\n      0x01\n      0x00\n        /* \"t.sol\":14892:14914  _totalSupply -= amount */\n      dup3\n      dup3\n      sload\n      sub\n      swap3\n      pop\n      pop\n      dup2\n      swap1\n      sstore\n      pop\n        /* \"t.sol\":14970:14971  0 */\n      0x00\n        /* \"t.sol\":14944:14981  Transfer(account, address(0), amount) */\n      0xffffffffffffffffffffffffffffffffffffffff\n      and\n        /* \"t.sol\":14953:14960  account */\n      dup4\n        /* \"t.sol\":14944:14981  Transfer(account, address(0), amount) */\n      0xffffffffffffffffffffffffffffffffffffffff\n      and\n      0xddf252ad1be2c89b69c2b068fc378daa952ba7f163c4a11628f55a4df523b3ef\n        /* \"t.sol\":14974:14980  amount */\n      dup4\n        /* \"t.sol\":14944:14981  Transfer(account, address(0), amount) */\n      mload(0x40)\n      tag_602\n      swap2\n      swap1\n      tag_99\n      jump\t// in\n    tag_602:\n      mload(0x40)\n      dup1\n      swap2\n      sub\n      swap1\n      log3\n        /* \"t.sol\":14441:14992  function _burnTokens(address account, address dead, uint256 amount) internal virtual {... */\n      pop\n      pop\n      pop\n      jump\t// out\n        /* \"t.sol\":20499:21090  function swapTokensForEth(uint256 tokenAmount) private {... */\n    tag_568:\n        /* \"t.sol\":20625:20646  address[] memory path */\n      0x00\n        /* \"t.sol\":20663:20664  2 */\n      0x02\n        /* \"t.sol\":20649:20665  new address[](2) */\n      0xffffffffffffffff\n      dup2\n      gt\n      iszero\n      tag_604\n      jumpi\n      tag_605\n      tag_606\n      jump\t// in\n    tag_605:\n    tag_604:\n      mload(0x40)\n      swap1\n      dup1\n      dup3\n      mstore\n      dup1\n      0x20\n      mul\n      0x20\n      add\n      dup3\n      add\n      0x40\n      mstore\n      dup1\n      iszero\n      tag_607\n      jumpi\n      dup2\n      0x20\n      add\n      0x20\n      dup3\n      mul\n      dup1\n      calldatasize\n      dup4\n      calldatacopy\n      dup1\n      dup3\n      add\n      swap2\n      pop\n      pop\n      swap1\n      pop\n    tag_607:\n      pop\n        /* \"t.sol\":20625:20665  address[] memory path = new address[](2) */\n      swap1\n      pop\n        /* \"t.sol\":20694:20698  this */\n      address\n        /* \"t.sol\":20676:20680  path */\n      dup2\n        /* \"t.sol\":20681:20682  0 */\n      0x00\n        /* \"t.sol\":20676:20683  path[0] */\n      dup2\n      mload\n      dup2\n      lt\n      tag_608\n      jumpi\n      tag_609\n      tag_404\n      jump\t// in\n    tag_609:\n    tag_608:\n      0x20\n      mul\n      0x20\n      add\n      add\n        /* \"t.sol\":20676:20699  path[0] = address(this) */\n      swap1\n      0xffffffffffffffffffffffffffffffffffffffff\n      and\n      swap1\n      dup2\n      0xffffffffffffffffffffffffffffffffffffffff\n      and\n      dup2\n      mstore\n      pop\n      pop\n        /* \"t.sol\":20720:20735  uniswapV2Router */\n      0x17\n      0x00\n      swap1\n      sload\n      swap1\n      0x0100\n      exp\n      swap1\n      div\n      0xffffffffffffffffffffffffffffffffffffffff\n      and\n        /* \"t.sol\":20720:20740  uniswapV2Router.WETH */\n      0xffffffffffffffffffffffffffffffffffffffff\n      and\n      0xad5c4648\n        /* \"t.sol\":20720:20742  uniswapV2Router.WETH() */\n      mload(0x40)\n      dup2\n      0xffffffff\n      and\n      0xe0\n      shl\n      dup2\n      mstore\n      0x04\n      add\n      0x20\n      mload(0x40)\n      dup1\n      dup4\n      sub\n      dup2\n      dup7\n      gas\n      staticcall\n      iszero\n      dup1\n      iszero\n      tag_611\n      jumpi\n      returndatasize\n      0x00\n      dup1\n      returndatacopy\n      revert(0x00, returndatasize)\n    tag_611:\n      pop\n      pop\n      pop\n      pop\n      mload(0x40)\n      returndatasize\n      not(0x1f)\n      0x1f\n      dup3\n      add\n      and\n      dup3\n      add\n      dup1\n      0x40\n      mstore\n      pop\n      dup2\n      add\n      swap1\n      tag_612\n      swap2\n      swap1\n      tag_613\n      jump\t// in\n    tag_612:\n        /* \"t.sol\":20710:20714  path */\n      dup2\n        /* \"t.sol\":20715:20716  1 */\n      0x01\n        /* \"t.sol\":20710:20717  path[1] */\n      dup2\n      mload\n      dup2\n      lt\n      tag_614\n      jumpi\n      tag_615\n      tag_404\n      jump\t// in\n    tag_615:\n    tag_614:\n      0x20\n      mul\n      0x20\n      add\n      add\n        /* \"t.sol\":20710:20742  path[1] = uniswapV2Router.WETH() */\n      swap1\n      0xffffffffffffffffffffffffffffffffffffffff\n      and\n      swap1\n      dup2\n      0xffffffffffffffffffffffffffffffffffffffff\n      and\n      dup2\n      mstore\n      pop\n      pop\n        /* \"t.sol\":20756:20818  _approve(address(this), address(uniswapV2Router), tokenAmount) */\n      tag_616\n        /* \"t.sol\":20773:20777  this */\n      address\n        /* \"t.sol\":20788:20803  uniswapV2Router */\n      0x17\n      0x00\n      swap1\n      sload\n      swap1\n      0x0100\n      exp\n      swap1\n      div\n      0xffffffffffffffffffffffffffffffffffffffff\n      and\n        /* \"t.sol\":20806:20817  tokenAmount */\n      dup5\n        /* \"t.sol\":20756:20764  _approve */\n      tag_299\n        /* \"t.sol\":20756:20818  _approve(address(this), address(uniswapV2Router), tokenAmount) */\n      jump\t// in\n    tag_616:\n        /* \"t.sol\":20858:20873  uniswapV2Router */\n      0x17\n      0x00\n      swap1\n      sload\n      swap1\n      0x0100\n      exp\n      swap1\n      div\n      0xffffffffffffffffffffffffffffffffffffffff\n      and\n        /* \"t.sol\":20858:20924  uniswapV2Router.swapExactTokensForETHSupportingFeeOnTransferTokens */\n      0xffffffffffffffffffffffffffffffffffffffff\n      and\n      0x791ac947\n        /* \"t.sol\":20939:20950  tokenAmount */\n      dup4\n        /* \"t.sol\":20965:20966  0 */\n      0x00\n        /* \"t.sol\":21009:21013  path */\n      dup5\n        /* \"t.sol\":21036:21040  this */\n      address\n        /* \"t.sol\":21056:21071  block.timestamp */\n      timestamp\n        /* \"t.sol\":20858:21082  uniswapV2Router.swapExactTokensForETHSupportingFeeOnTransferTokens(... */\n      mload(0x40)\n      dup7\n      0xffffffff\n      and\n      0xe0\n      shl\n      dup2\n      mstore\n      0x04\n      add\n      tag_617\n      swap6\n      swap5\n      swap4\n      swap3\n      swap2\n      swap1\n      tag_618\n      jump\t// in\n    tag_617:\n      0x00\n      mload(0x40)\n      dup1\n      dup4\n      sub\n      dup2\n      0x00\n      dup8\n      dup1\n      extcodesize\n      iszero\n      dup1\n      iszero\n      tag_619\n      jumpi\n      0x00\n      dup1\n      revert\n    tag_619:\n      pop\n      gas\n      call\n      iszero\n      dup1\n      iszero\n      tag_621\n      jumpi\n      returndatasize\n      0x00\n      dup1\n      returndatacopy\n      revert(0x00, returndatasize)\n    tag_621:\n      pop\n      pop\n      pop\n      pop\n        /* \"t.sol\":20554:21090  {... */\n      pop\n        /* \"t.sol\":20499:21090  function swapTokensForEth(uint256 tokenAmount) private {... */\n      pop\n      jump\t// out\n        /* \"t.sol\":22523:23043  function addLiquidity(uint256 tokenAmount, uint256 ethAmount) private {... */\n    tag_591:\n        /* \"t.sol\":22671:22733  _approve(address(this), address(uniswapV2Router), tokenAmount) */\n      tag_623\n        /* \"t.sol\":22688:22692  this */\n      address\n        /* \"t.sol\":22703:22718  uniswapV2Router */\n      0x17\n      0x00\n      swap1\n      sload\n      swap1\n      0x0100\n      exp\n      swap1\n      div\n      0xffffffffffffffffffffffffffffffffffffffff\n      and\n        /* \"t.sol\":22721:22732  tokenAmount */\n      dup5\n        /* \"t.sol\":22671:22679  _approve */\n      tag_299\n        /* \"t.sol\":22671:22733  _approve(address(this), address(uniswapV2Router), tokenAmount) */\n      jump\t// in\n    tag_623:\n        /* \"t.sol\":22777:22792  uniswapV2Router */\n      0x17\n      0x00\n      swap1\n      sload\n      swap1\n      0x0100\n      exp\n      swap1\n      div\n      0xffffffffffffffffffffffffffffffffffffffff\n      and\n        /* \"t.sol\":22777:22808  uniswapV2Router.addLiquidityETH */\n      0xffffffffffffffffffffffffffffffffffffffff\n      and\n      0xf305d719\n        /* \"t.sol\":22816:22825  ethAmount */\n      dup3\n        /* \"t.sol\":22849:22853  this */\n      address\n        /* \"t.sol\":22869:22880  tokenAmount */\n      dup6\n        /* \"t.sol\":22895:22896  0 */\n      0x00\n        /* \"t.sol\":22938:22939  0 */\n      dup1\n        /* \"t.sol\":22989:22993  this */\n      address\n        /* \"t.sol\":23009:23024  block.timestamp */\n      timestamp\n        /* \"t.sol\":22777:23035  uniswapV2Router.addLiquidityETH{value: ethAmount}(... */\n      mload(0x40)\n      dup9\n      0xffffffff\n      and\n      0xe0\n      shl\n      dup2\n      mstore\n      0x04\n      add\n      tag_624\n      swap7\n      swap6\n      swap5\n      swap4\n      swap3\n      swap2\n      swap1\n      tag_625\n      jump\t// in\n    tag_624:\n      0x60\n      mload(0x40)\n      dup1\n      dup4\n      sub\n      dup2\n      dup6\n      dup9\n      gas\n      call\n      iszero\n      dup1\n      iszero\n      tag_627\n      jumpi\n      returndatasize\n      0x00\n      dup1\n      returndatacopy\n      revert(0x00, returndatasize)\n    tag_627:\n      pop\n      pop\n      pop\n      pop\n      pop\n      mload(0x40)\n      returndatasize\n      not(0x1f)\n      0x1f\n      dup3\n      add\n      and\n      dup3\n      add\n      dup1\n      0x40\n      mstore\n      pop\n      dup2\n      add\n      swap1\n      tag_628\n      swap2\n      swap1\n      tag_629\n      jump\t// in\n    tag_628:\n      pop\n      pop\n      pop\n        /* \"t.sol\":22523:23043  function addLiquidity(uint256 tokenAmount, uint256 ethAmount) private {... */\n      pop\n      pop\n      jump\t// out\n        /* \"#utility.yul\":7:133   */\n    tag_630:\n        /* \"#utility.yul\":44:51   */\n      0x00\n        /* \"#utility.yul\":84:126   */\n      0xffffffffffffffffffffffffffffffffffffffff\n        /* \"#utility.yul\":77:82   */\n      dup3\n        /* \"#utility.yul\":73:127   */\n      and\n        /* \"#utility.yul\":62:127   */\n      swap1\n      pop\n        /* \"#utility.yul\":7:133   */\n      swap2\n      swap1\n      pop\n      jump\t// out\n        /* \"#utility.yul\":139:235   */\n    tag_631:\n        /* \"#utility.yul\":176:183   */\n      0x00\n        /* \"#utility.yul\":205:229   */\n      tag_727\n        /* \"#utility.yul\":223:228   */\n      dup3\n        /* \"#utility.yul\":205:229   */\n      tag_630\n      jump\t// in\n    tag_727:\n        /* \"#utility.yul\":194:229   */\n      swap1\n      pop\n        /* \"#utility.yul\":139:235   */\n      swap2\n      swap1\n      pop\n      jump\t// out\n        /* \"#utility.yul\":241:359   */\n    tag_632:\n        /* \"#utility.yul\":328:352   */\n      tag_729\n        /* \"#utility.yul\":346:351   */\n      dup2\n        /* \"#utility.yul\":328:352   */\n      tag_631\n      jump\t// in\n    tag_729:\n        /* \"#utility.yul\":323:326   */\n      dup3\n        /* \"#utility.yul\":316:353   */\n      mstore\n        /* \"#utility.yul\":241:359   */\n      pop\n      pop\n      jump\t// out\n        /* \"#utility.yul\":365:587   */\n    tag_72:\n        /* \"#utility.yul\":458:462   */\n      0x00\n        /* \"#utility.yul\":496:498   */\n      0x20\n        /* \"#utility.yul\":485:494   */\n      dup3\n        /* \"#utility.yul\":481:499   */\n      add\n        /* \"#utility.yul\":473:499   */\n      swap1\n      pop\n        /* \"#utility.yul\":509:580   */\n      tag_731\n        /* \"#utility.yul\":577:578   */\n      0x00\n        /* \"#utility.yul\":566:575   */\n      dup4\n        /* \"#utility.yul\":562:579   */\n      add\n        /* \"#utility.yul\":553:559   */\n      dup5\n        /* \"#utility.yul\":509:580   */\n      tag_632\n      jump\t// in\n    tag_731:\n        /* \"#utility.yul\":365:587   */\n      swap3\n      swap2\n      pop\n      pop\n      jump\t// out\n        /* \"#utility.yul\":593:692   */\n    tag_633:\n        /* \"#utility.yul\":645:651   */\n      0x00\n        /* \"#utility.yul\":679:684   */\n      dup2\n        /* \"#utility.yul\":673:685   */\n      mload\n        /* \"#utility.yul\":663:685   */\n      swap1\n      pop\n        /* \"#utility.yul\":593:692   */\n      swap2\n      swap1\n      pop\n      jump\t// out\n        /* \"#utility.yul\":698:867   */\n    tag_634:\n        /* \"#utility.yul\":782:793   */\n      0x00\n        /* \"#utility.yul\":816:822   */\n      dup3\n        /* \"#utility.yul\":811:814   */\n      dup3\n        /* \"#utility.yul\":804:823   */\n      mstore\n        /* \"#utility.yul\":856:860   */\n      0x20\n        /* \"#utility.yul\":851:854   */\n      dup3\n        /* \"#utility.yul\":847:861   */\n      add\n        /* \"#utility.yul\":832:861   */\n      swap1\n      pop\n        /* \"#utility.yul\":698:867   */\n      swap3\n      swap2\n      pop\n      pop\n      jump\t// out\n        /* \"#utility.yul\":873:1119   */\n    tag_635:\n        /* \"#utility.yul\":954:955   */\n      0x00\n        /* \"#utility.yul\":964:1077   */\n    tag_735:\n        /* \"#utility.yul\":978:984   */\n      dup4\n        /* \"#utility.yul\":975:976   */\n      dup2\n        /* \"#utility.yul\":972:985   */\n      lt\n        /* \"#utility.yul\":964:1077   */\n      iszero\n      tag_737\n      jumpi\n        /* \"#utility.yul\":1063:1064   */\n      dup1\n        /* \"#utility.yul\":1058:1061   */\n      dup3\n        /* \"#utility.yul\":1054:1065   */\n      add\n        /* \"#utility.yul\":1048:1066   */\n      mload\n        /* \"#utility.yul\":1044:1045   */\n      dup2\n        /* \"#utility.yul\":1039:1042   */\n      dup5\n        /* \"#utility.yul\":1035:1046   */\n      add\n        /* \"#utility.yul\":1028:1067   */\n      mstore\n        /* \"#utility.yul\":1000:1002   */\n      0x20\n        /* \"#utility.yul\":997:998   */\n      dup2\n        /* \"#utility.yul\":993:1003   */\n      add\n        /* \"#utility.yul\":988:1003   */\n      swap1\n      pop\n        /* \"#utility.yul\":964:1077   */\n      jump(tag_735)\n    tag_737:\n        /* \"#utility.yul\":1111:1112   */\n      0x00\n        /* \"#utility.yul\":1102:1108   */\n      dup5\n        /* \"#utility.yul\":1097:1100   */\n      dup5\n        /* \"#utility.yul\":1093:1109   */\n      add\n        /* \"#utility.yul\":1086:1113   */\n      mstore\n        /* \"#utility.yul\":935:1119   */\n      pop\n        /* \"#utility.yul\":873:1119   */\n      pop\n      pop\n      pop\n      jump\t// out\n        /* \"#utility.yul\":1125:1227   */\n    tag_636:\n        /* \"#utility.yul\":1166:1172   */\n      0x00\n        /* \"#utility.yul\":1217:1219   */\n      0x1f\n        /* \"#utility.yul\":1213:1220   */\n      not\n        /* \"#utility.yul\":1208:1210   */\n      0x1f\n        /* \"#utility.yul\":1201:1206   */\n      dup4\n        /* \"#utility.yul\":1197:1211   */\n      add\n        /* \"#utility.yul\":1193:1221   */\n      and\n        /* \"#utility.yul\":1183:1221   */\n      swap1\n      pop\n        /* \"#utility.yul\":1125:1227   */\n      swap2\n      swap1\n      pop\n      jump\t// out\n        /* \"#utility.yul\":1233:1610   */\n    tag_637:\n        /* \"#utility.yul\":1321:1324   */\n      0x00\n        /* \"#utility.yul\":1349:1388   */\n      tag_740\n        /* \"#utility.yul\":1382:1387   */\n      dup3\n        /* \"#utility.yul\":1349:1388   */\n      tag_633\n      jump\t// in\n    tag_740:\n        /* \"#utility.yul\":1404:1475   */\n      tag_741\n        /* \"#utility.yul\":1468:1474   */\n      dup2\n        /* \"#utility.yul\":1463:1466   */\n      dup6\n        /* \"#utility.yul\":1404:1475   */\n      tag_634\n      jump\t// in\n    tag_741:\n        /* \"#utility.yul\":1397:1475   */\n      swap4\n      pop\n        /* \"#utility.yul\":1484:1549   */\n      tag_742\n        /* \"#utility.yul\":1542:1548   */\n      dup2\n        /* \"#utility.yul\":1537:1540   */\n      dup6\n        /* \"#utility.yul\":1530:1534   */\n      0x20\n        /* \"#utility.yul\":1523:1528   */\n      dup7\n        /* \"#utility.yul\":1519:1535   */\n      add\n        /* \"#utility.yul\":1484:1549   */\n      tag_635\n      jump\t// in\n    tag_742:\n        /* \"#utility.yul\":1574:1603   */\n      tag_743\n        /* \"#utility.yul\":1596:1602   */\n      dup2\n        /* \"#utility.yul\":1574:1603   */\n      tag_636\n      jump\t// in\n    tag_743:\n        /* \"#utility.yul\":1569:1572   */\n      dup5\n        /* \"#utility.yul\":1565:1604   */\n      add\n        /* \"#utility.yul\":1558:1604   */\n      swap2\n      pop\n        /* \"#utility.yul\":1325:1610   */\n      pop\n        /* \"#utility.yul\":1233:1610   */\n      swap3\n      swap2\n      pop\n      pop\n      jump\t// out\n        /* \"#utility.yul\":1616:1929   */\n    tag_77:\n        /* \"#utility.yul\":1729:1733   */\n      0x00\n        /* \"#utility.yul\":1767:1769   */\n      0x20\n        /* \"#utility.yul\":1756:1765   */\n      dup3\n        /* \"#utility.yul\":1752:1770   */\n      add\n        /* \"#utility.yul\":1744:1770   */\n      swap1\n      pop\n        /* \"#utility.yul\":1816:1825   */\n      dup2\n        /* \"#utility.yul\":1810:1814   */\n      dup2\n        /* \"#utility.yul\":1806:1826   */\n      sub\n        /* \"#utility.yul\":1802:1803   */\n      0x00\n        /* \"#utility.yul\":1791:1800   */\n      dup4\n        /* \"#utility.yul\":1787:1804   */\n      add\n        /* \"#utility.yul\":1780:1827   */\n      mstore\n        /* \"#utility.yul\":1844:1922   */\n      tag_745\n        /* \"#utility.yul\":1917:1921   */\n      dup2\n        /* \"#utility.yul\":1908:1914   */\n      dup5\n        /* \"#utility.yul\":1844:1922   */\n      tag_637\n      jump\t// in\n    tag_745:\n        /* \"#utility.yul\":1836:1922   */\n      swap1\n      pop\n        /* \"#utility.yul\":1616:1929   */\n      swap3\n      swap2\n      pop\n      pop\n      jump\t// out\n        /* \"#utility.yul\":2016:2133   */\n    tag_639:\n        /* \"#utility.yul\":2125:2126   */\n      0x00\n        /* \"#utility.yul\":2122:2123   */\n      dup1\n        /* \"#utility.yul\":2115:2127   */\n      revert\n        /* \"#utility.yul\":2139:2256   */\n    tag_640:\n        /* \"#utility.yul\":2248:2249   */\n      0x00\n        /* \"#utility.yul\":2245:2246   */\n      dup1\n        /* \"#utility.yul\":2238:2250   */\n      revert\n        /* \"#utility.yul\":2262:2339   */\n    tag_641:\n        /* \"#utility.yul\":2299:2306   */\n      0x00\n        /* \"#utility.yul\":2328:2333   */\n      dup2\n        /* \"#utility.yul\":2317:2333   */\n      swap1\n      pop\n        /* \"#utility.yul\":2262:2339   */\n      swap2\n      swap1\n      pop\n      jump\t// out\n        /* \"#utility.yul\":2345:2467   */\n    tag_642:\n        /* \"#utility.yul\":2418:2442   */\n      tag_751\n        /* \"#utility.yul\":2436:2441   */\n      dup2\n        /* \"#utility.yul\":2418:2442   */\n      tag_641\n      jump\t// in\n    tag_751:\n        /* \"#utility.yul\":2411:2416   */\n      dup2\n        /* \"#utility.yul\":2408:2443   */\n      eq\n        /* \"#utility.yul\":2398:2461   */\n      tag_752\n      jumpi\n        /* \"#utility.yul\":2457:2458   */\n      0x00\n        /* \"#utility.yul\":2454:2455   */\n      dup1\n        /* \"#utility.yul\":2447:2459   */\n      revert\n        /* \"#utility.yul\":2398:2461   */\n    tag_752:\n        /* \"#utility.yul\":2345:2467   */\n      pop\n      jump\t// out\n        /* \"#utility.yul\":2473:2612   */\n    tag_643:\n        /* \"#utility.yul\":2519:2524   */\n      0x00\n        /* \"#utility.yul\":2557:2563   */\n      dup2\n        /* \"#utility.yul\":2544:2564   */\n      calldataload\n        /* \"#utility.yul\":2535:2564   */\n      swap1\n      pop\n        /* \"#utility.yul\":2573:2606   */\n      tag_754\n        /* \"#utility.yul\":2600:2605   */\n      dup2\n        /* \"#utility.yul\":2573:2606   */\n      tag_642\n      jump\t// in\n    tag_754:\n        /* \"#utility.yul\":2473:2612   */\n      swap3\n      swap2\n      pop\n      pop\n      jump\t// out\n        /* \"#utility.yul\":2618:2947   */\n    tag_81:\n        /* \"#utility.yul\":2677:2683   */\n      0x00\n        /* \"#utility.yul\":2726:2728   */\n      0x20\n        /* \"#utility.yul\":2714:2723   */\n      dup3\n        /* \"#utility.yul\":2705:2712   */\n      dup5\n        /* \"#utility.yul\":2701:2724   */\n      sub\n        /* \"#utility.yul\":2697:2729   */\n      slt\n        /* \"#utility.yul\":2694:2813   */\n      iszero\n      tag_756\n      jumpi\n        /* \"#utility.yul\":2732:2811   */\n      tag_757\n      tag_639\n      jump\t// in\n    tag_757:\n        /* \"#utility.yul\":2694:2813   */\n    tag_756:\n        /* \"#utility.yul\":2852:2853   */\n      0x00\n        /* \"#utility.yul\":2877:2930   */\n      tag_758\n        /* \"#utility.yul\":2922:2929   */\n      dup5\n        /* \"#utility.yul\":2913:2919   */\n      dup3\n        /* \"#utility.yul\":2902:2911   */\n      dup6\n        /* \"#utility.yul\":2898:2920   */\n      add\n        /* \"#utility.yul\":2877:2930   */\n      tag_643\n      jump\t// in\n    tag_758:\n        /* \"#utility.yul\":2867:2930   */\n      swap2\n      pop\n        /* \"#utility.yul\":2823:2940   */\n      pop\n        /* \"#utility.yul\":2618:2947   */\n      swap3\n      swap2\n      pop\n      pop\n      jump\t// out\n        /* \"#utility.yul\":2953:3075   */\n    tag_644:\n        /* \"#utility.yul\":3026:3050   */\n      tag_760\n        /* \"#utility.yul\":3044:3049   */\n      dup2\n        /* \"#utility.yul\":3026:3050   */\n      tag_631\n      jump\t// in\n    tag_760:\n        /* \"#utility.yul\":3019:3024   */\n      dup2\n        /* \"#utility.yul\":3016:3051   */\n      eq\n        /* \"#utility.yul\":3006:3069   */\n      tag_761\n      jumpi\n        /* \"#utility.yul\":3065:3066   */\n      0x00\n        /* \"#utility.yul\":3062:3063   */\n      dup1\n        /* \"#utility.yul\":3055:3067   */\n      revert\n        /* \"#utility.yul\":3006:3069   */\n    tag_761:\n        /* \"#utility.yul\":2953:3075   */\n      pop\n      jump\t// out\n        /* \"#utility.yul\":3081:3220   */\n    tag_645:\n        /* \"#utility.yul\":3127:3132   */\n      0x00\n        /* \"#utility.yul\":3165:3171   */\n      dup2\n        /* \"#utility.yul\":3152:3172   */\n      calldataload\n        /* \"#utility.yul\":3143:3172   */\n      swap1\n      pop\n        /* \"#utility.yul\":3181:3214   */\n      tag_763\n        /* \"#utility.yul\":3208:3213   */\n      dup2\n        /* \"#utility.yul\":3181:3214   */\n      tag_644\n      jump\t// in\n    tag_763:\n        /* \"#utility.yul\":3081:3220   */\n      swap3\n      swap2\n      pop\n      pop\n      jump\t// out\n        /* \"#utility.yul\":3226:3700   */\n    tag_86:\n        /* \"#utility.yul\":3294:3300   */\n      0x00\n        /* \"#utility.yul\":3302:3308   */\n      dup1\n        /* \"#utility.yul\":3351:3353   */\n      0x40\n        /* \"#utility.yul\":3339:3348   */\n      dup4\n        /* \"#utility.yul\":3330:3337   */\n      dup6\n        /* \"#utility.yul\":3326:3349   */\n      sub\n        /* \"#utility.yul\":3322:3354   */\n      slt\n        /* \"#utility.yul\":3319:3438   */\n      iszero\n      tag_765\n      jumpi\n        /* \"#utility.yul\":3357:3436   */\n      tag_766\n      tag_639\n      jump\t// in\n    tag_766:\n        /* \"#utility.yul\":3319:3438   */\n    tag_765:\n        /* \"#utility.yul\":3477:3478   */\n      0x00\n        /* \"#utility.yul\":3502:3555   */\n      tag_767\n        /* \"#utility.yul\":3547:3554   */\n      dup6\n        /* \"#utility.yul\":3538:3544   */\n      dup3\n        /* \"#utility.yul\":3527:3536   */\n      dup7\n        /* \"#utility.yul\":3523:3545   */\n      add\n        /* \"#utility.yul\":3502:3555   */\n      tag_645\n      jump\t// in\n    tag_767:\n        /* \"#utility.yul\":3492:3555   */\n      swap3\n      pop\n        /* \"#utility.yul\":3448:3565   */\n      pop\n        /* \"#utility.yul\":3604:3606   */\n      0x20\n        /* \"#utility.yul\":3630:3683   */\n      tag_768\n        /* \"#utility.yul\":3675:3682   */\n      dup6\n        /* \"#utility.yul\":3666:3672   */\n      dup3\n        /* \"#utility.yul\":3655:3664   */\n      dup7\n        /* \"#utility.yul\":3651:3673   */\n      add\n        /* \"#utility.yul\":3630:3683   */\n      tag_643\n      jump\t// in\n    tag_768:\n        /* \"#utility.yul\":3620:3683   */\n      swap2\n      pop\n        /* \"#utility.yul\":3575:3693   */\n      pop\n        /* \"#utility.yul\":3226:3700   */\n      swap3\n      pop\n      swap3\n      swap1\n      pop\n      jump\t// out\n        /* \"#utility.yul\":3706:3796   */\n    tag_646:\n        /* \"#utility.yul\":3740:3747   */\n      0x00\n        /* \"#utility.yul\":3783:3788   */\n      dup2\n        /* \"#utility.yul\":3776:3789   */\n      iszero\n        /* \"#utility.yul\":3769:3790   */\n      iszero\n        /* \"#utility.yul\":3758:3790   */\n      swap1\n      pop\n        /* \"#utility.yul\":3706:3796   */\n      swap2\n      swap1\n      pop\n      jump\t// out\n        /* \"#utility.yul\":3802:3911   */\n    tag_647:\n        /* \"#utility.yul\":3883:3904   */\n      tag_771\n        /* \"#utility.yul\":3898:3903   */\n      dup2\n        /* \"#utility.yul\":3883:3904   */\n      tag_646\n      jump\t// in\n    tag_771:\n        /* \"#utility.yul\":3878:3881   */\n      dup3\n        /* \"#utility.yul\":3871:3905   */\n      mstore\n        /* \"#utility.yul\":3802:3911   */\n      pop\n      pop\n      jump\t// out\n        /* \"#utility.yul\":3917:4127   */\n    tag_89:\n        /* \"#utility.yul\":4004:4008   */\n      0x00\n        /* \"#utility.yul\":4042:4044   */\n      0x20\n        /* \"#utility.yul\":4031:4040   */\n      dup3\n        /* \"#utility.yul\":4027:4045   */\n      add\n        /* \"#utility.yul\":4019:4045   */\n      swap1\n      pop\n        /* \"#utility.yul\":4055:4120   */\n      tag_773\n        /* \"#utility.yul\":4117:4118   */\n      0x00\n        /* \"#utility.yul\":4106:4115   */\n      dup4\n        /* \"#utility.yul\":4102:4119   */\n      add\n        /* \"#utility.yul\":4093:4099   */\n      dup5\n        /* \"#utility.yul\":4055:4120   */\n      tag_647\n      jump\t// in\n    tag_773:\n        /* \"#utility.yul\":3917:4127   */\n      swap3\n      swap2\n      pop\n      pop\n      jump\t// out\n        /* \"#utility.yul\":4133:4193   */\n    tag_648:\n        /* \"#utility.yul\":4161:4164   */\n      0x00\n        /* \"#utility.yul\":4182:4187   */\n      dup2\n        /* \"#utility.yul\":4175:4187   */\n      swap1\n      pop\n        /* \"#utility.yul\":4133:4193   */\n      swap2\n      swap1\n      pop\n      jump\t// out\n        /* \"#utility.yul\":4199:4341   */\n    tag_649:\n        /* \"#utility.yul\":4249:4258   */\n      0x00\n        /* \"#utility.yul\":4282:4335   */\n      tag_776\n        /* \"#utility.yul\":4300:4334   */\n      tag_777\n        /* \"#utility.yul\":4309:4333   */\n      tag_778\n        /* \"#utility.yul\":4327:4332   */\n      dup5\n        /* \"#utility.yul\":4309:4333   */\n      tag_630\n      jump\t// in\n    tag_778:\n        /* \"#utility.yul\":4300:4334   */\n      tag_648\n      jump\t// in\n    tag_777:\n        /* \"#utility.yul\":4282:4335   */\n      tag_630\n      jump\t// in\n    tag_776:\n        /* \"#utility.yul\":4269:4335   */\n      swap1\n      pop\n        /* \"#utility.yul\":4199:4341   */\n      swap2\n      swap1\n      pop\n      jump\t// out\n        /* \"#utility.yul\":4347:4473   */\n    tag_650:\n        /* \"#utility.yul\":4397:4406   */\n      0x00\n        /* \"#utility.yul\":4430:4467   */\n      tag_780\n        /* \"#utility.yul\":4461:4466   */\n      dup3\n        /* \"#utility.yul\":4430:4467   */\n      tag_649\n      jump\t// in\n    tag_780:\n        /* \"#utility.yul\":4417:4467   */\n      swap1\n      pop\n        /* \"#utility.yul\":4347:4473   */\n      swap2\n      swap1\n      pop\n      jump\t// out\n        /* \"#utility.yul\":4479:4631   */\n    tag_651:\n        /* \"#utility.yul\":4555:4564   */\n      0x00\n        /* \"#utility.yul\":4588:4625   */\n      tag_782\n        /* \"#utility.yul\":4619:4624   */\n      dup3\n        /* \"#utility.yul\":4588:4625   */\n      tag_650\n      jump\t// in\n    tag_782:\n        /* \"#utility.yul\":4575:4625   */\n      swap1\n      pop\n        /* \"#utility.yul\":4479:4631   */\n      swap2\n      swap1\n      pop\n      jump\t// out\n        /* \"#utility.yul\":4637:4820   */\n    tag_652:\n        /* \"#utility.yul\":4750:4813   */\n      tag_784\n        /* \"#utility.yul\":4807:4812   */\n      dup2\n        /* \"#utility.yul\":4750:4813   */\n      tag_651\n      jump\t// in\n    tag_784:\n        /* \"#utility.yul\":4745:4748   */\n      dup3\n        /* \"#utility.yul\":4738:4814   */\n      mstore\n        /* \"#utility.yul\":4637:4820   */\n      pop\n      pop\n      jump\t// out\n        /* \"#utility.yul\":4826:5100   */\n    tag_94:\n        /* \"#utility.yul\":4945:4949   */\n      0x00\n        /* \"#utility.yul\":4983:4985   */\n      0x20\n        /* \"#utility.yul\":4972:4981   */\n      dup3\n        /* \"#utility.yul\":4968:4986   */\n      add\n        /* \"#utility.yul\":4960:4986   */\n      swap1\n      pop\n        /* \"#utility.yul\":4996:5093   */\n      tag_786\n        /* \"#utility.yul\":5090:5091   */\n      0x00\n        /* \"#utility.yul\":5079:5088   */\n      dup4\n        /* \"#utility.yul\":5075:5092   */\n      add\n        /* \"#utility.yul\":5066:5072   */\n      dup5\n        /* \"#utility.yul\":4996:5093   */\n      tag_652\n      jump\t// in\n    tag_786:\n        /* \"#utility.yul\":4826:5100   */\n      swap3\n      swap2\n      pop\n      pop\n      jump\t// out\n        /* \"#utility.yul\":5106:5224   */\n    tag_653:\n        /* \"#utility.yul\":5193:5217   */\n      tag_788\n        /* \"#utility.yul\":5211:5216   */\n      dup2\n        /* \"#utility.yul\":5193:5217   */\n      tag_641\n      jump\t// in\n    tag_788:\n        /* \"#utility.yul\":5188:5191   */\n      dup3\n        /* \"#utility.yul\":5181:5218   */\n      mstore\n        /* \"#utility.yul\":5106:5224   */\n      pop\n      pop\n      jump\t// out\n        /* \"#utility.yul\":5230:5452   */\n    tag_99:\n        /* \"#utility.yul\":5323:5327   */\n      0x00\n        /* \"#utility.yul\":5361:5363   */\n      0x20\n        /* \"#utility.yul\":5350:5359   */\n      dup3\n        /* \"#utility.yul\":5346:5364   */\n      add\n        /* \"#utility.yul\":5338:5364   */\n      swap1\n      pop\n        /* \"#utility.yul\":5374:5445   */\n      tag_790\n        /* \"#utility.yul\":5442:5443   */\n      0x00\n        /* \"#utility.yul\":5431:5440   */\n      dup4\n        /* \"#utility.yul\":5427:5444   */\n      add\n        /* \"#utility.yul\":5418:5424   */\n      dup5\n        /* \"#utility.yul\":5374:5445   */\n      tag_653\n      jump\t// in\n    tag_790:\n        /* \"#utility.yul\":5230:5452   */\n      swap3\n      swap2\n      pop\n      pop\n      jump\t// out\n        /* \"#utility.yul\":5458:5787   */\n    tag_103:\n        /* \"#utility.yul\":5517:5523   */\n      0x00\n        /* \"#utility.yul\":5566:5568   */\n      0x20\n        /* \"#utility.yul\":5554:5563   */\n      dup3\n        /* \"#utility.yul\":5545:5552   */\n      dup5\n        /* \"#utility.yul\":5541:5564   */\n      sub\n        /* \"#utility.yul\":5537:5569   */\n      slt\n        /* \"#utility.yul\":5534:5653   */\n      iszero\n      tag_792\n      jumpi\n        /* \"#utility.yul\":5572:5651   */\n      tag_793\n      tag_639\n      jump\t// in\n    tag_793:\n        /* \"#utility.yul\":5534:5653   */\n    tag_792:\n        /* \"#utility.yul\":5692:5693   */\n      0x00\n        /* \"#utility.yul\":5717:5770   */\n      tag_794\n        /* \"#utility.yul\":5762:5769   */\n      dup5\n        /* \"#utility.yul\":5753:5759   */\n      dup3\n        /* \"#utility.yul\":5742:5751   */\n      dup6\n        /* \"#utility.yul\":5738:5760   */\n      add\n        /* \"#utility.yul\":5717:5770   */\n      tag_645\n      jump\t// in\n    tag_794:\n        /* \"#utility.yul\":5707:5770   */\n      swap2\n      pop\n        /* \"#utility.yul\":5663:5780   */\n      pop\n        /* \"#utility.yul\":5458:5787   */\n      swap3\n      swap2\n      pop\n      pop\n      jump\t// out\n        /* \"#utility.yul\":5793:6412   */\n    tag_108:\n        /* \"#utility.yul\":5870:5876   */\n      0x00\n        /* \"#utility.yul\":5878:5884   */\n      dup1\n        /* \"#utility.yul\":5886:5892   */\n      0x00\n        /* \"#utility.yul\":5935:5937   */\n      0x60\n        /* \"#utility.yul\":5923:5932   */\n      dup5\n        /* \"#utility.yul\":5914:5921   */\n      dup7\n        /* \"#utility.yul\":5910:5933   */\n      sub\n        /* \"#utility.yul\":5906:5938   */\n      slt\n        /* \"#utility.yul\":5903:6022   */\n      iszero\n      tag_796\n      jumpi\n        /* \"#utility.yul\":5941:6020   */\n      tag_797\n      tag_639\n      jump\t// in\n    tag_797:\n        /* \"#utility.yul\":5903:6022   */\n    tag_796:\n        /* \"#utility.yul\":6061:6062   */\n      0x00\n        /* \"#utility.yul\":6086:6139   */\n      tag_798\n        /* \"#utility.yul\":6131:6138   */\n      dup7\n        /* \"#utility.yul\":6122:6128   */\n      dup3\n        /* \"#utility.yul\":6111:6120   */\n      dup8\n        /* \"#utility.yul\":6107:6129   */\n      add\n        /* \"#utility.yul\":6086:6139   */\n      tag_645\n      jump\t// in\n    tag_798:\n        /* \"#utility.yul\":6076:6139   */\n      swap4\n      pop\n        /* \"#utility.yul\":6032:6149   */\n      pop\n        /* \"#utility.yul\":6188:6190   */\n      0x20\n        /* \"#utility.yul\":6214:6267   */\n      tag_799\n        /* \"#utility.yul\":6259:6266   */\n      dup7\n        /* \"#utility.yul\":6250:6256   */\n      dup3\n        /* \"#utility.yul\":6239:6248   */\n      dup8\n        /* \"#utility.yul\":6235:6257   */\n      add\n        /* \"#utility.yul\":6214:6267   */\n      tag_645\n      jump\t// in\n    tag_799:\n        /* \"#utility.yul\":6204:6267   */\n      swap3\n      pop\n        /* \"#utility.yul\":6159:6277   */\n      pop\n        /* \"#utility.yul\":6316:6318   */\n      0x40\n        /* \"#utility.yul\":6342:6395   */\n      tag_800\n        /* \"#utility.yul\":6387:6394   */\n      dup7\n        /* \"#utility.yul\":6378:6384   */\n      dup3\n        /* \"#utility.yul\":6367:6376   */\n      dup8\n        /* \"#utility.yul\":6363:6385   */\n      add\n        /* \"#utility.yul\":6342:6395   */\n      tag_643\n      jump\t// in\n    tag_800:\n        /* \"#utility.yul\":6332:6395   */\n      swap2\n      pop\n        /* \"#utility.yul\":6287:6405   */\n      pop\n        /* \"#utility.yul\":5793:6412   */\n      swap3\n      pop\n      swap3\n      pop\n      swap3\n      jump\t// out\n        /* \"#utility.yul\":6418:6504   */\n    tag_654:\n        /* \"#utility.yul\":6453:6460   */\n      0x00\n        /* \"#utility.yul\":6493:6497   */\n      0xff\n        /* \"#utility.yul\":6486:6491   */\n      dup3\n        /* \"#utility.yul\":6482:6498   */\n      and\n        /* \"#utility.yul\":6471:6498   */\n      swap1\n      pop\n        /* \"#utility.yul\":6418:6504   */\n      swap2\n      swap1\n      pop\n      jump\t// out\n        /* \"#utility.yul\":6510:6622   */\n    tag_655:\n        /* \"#utility.yul\":6593:6615   */\n      tag_803\n        /* \"#utility.yul\":6609:6614   */\n      dup2\n        /* \"#utility.yul\":6593:6615   */\n      tag_654\n      jump\t// in\n    tag_803:\n        /* \"#utility.yul\":6588:6591   */\n      dup3\n        /* \"#utility.yul\":6581:6616   */\n      mstore\n        /* \"#utility.yul\":6510:6622   */\n      pop\n      pop\n      jump\t// out\n        /* \"#utility.yul\":6628:6842   */\n    tag_123:\n        /* \"#utility.yul\":6717:6721   */\n      0x00\n        /* \"#utility.yul\":6755:6757   */\n      0x20\n        /* \"#utility.yul\":6744:6753   */\n      dup3\n        /* \"#utility.yul\":6740:6758   */\n      add\n        /* \"#utility.yul\":6732:6758   */\n      swap1\n      pop\n        /* \"#utility.yul\":6768:6835   */\n      tag_805\n        /* \"#utility.yul\":6832:6833   */\n      0x00\n        /* \"#utility.yul\":6821:6830   */\n      dup4\n        /* \"#utility.yul\":6817:6834   */\n      add\n        /* \"#utility.yul\":6808:6814   */\n      dup5\n        /* \"#utility.yul\":6768:6835   */\n      tag_655\n      jump\t// in\n    tag_805:\n        /* \"#utility.yul\":6628:6842   */\n      swap3\n      swap2\n      pop\n      pop\n      jump\t// out\n        /* \"#utility.yul\":6848:6964   */\n    tag_656:\n        /* \"#utility.yul\":6918:6939   */\n      tag_807\n        /* \"#utility.yul\":6933:6938   */\n      dup2\n        /* \"#utility.yul\":6918:6939   */\n      tag_646\n      jump\t// in\n    tag_807:\n        /* \"#utility.yul\":6911:6916   */\n      dup2\n        /* \"#utility.yul\":6908:6940   */\n      eq\n        /* \"#utility.yul\":6898:6958   */\n      tag_808\n      jumpi\n        /* \"#utility.yul\":6954:6955   */\n      0x00\n        /* \"#utility.yul\":6951:6952   */\n      dup1\n        /* \"#utility.yul\":6944:6956   */\n      revert\n        /* \"#utility.yul\":6898:6958   */\n    tag_808:\n        /* \"#utility.yul\":6848:6964   */\n      pop\n      jump\t// out\n        /* \"#utility.yul\":6970:7103   */\n    tag_657:\n        /* \"#utility.yul\":7013:7018   */\n      0x00\n        /* \"#utility.yul\":7051:7057   */\n      dup2\n        /* \"#utility.yul\":7038:7058   */\n      calldataload\n        /* \"#utility.yul\":7029:7058   */\n      swap1\n      pop\n        /* \"#utility.yul\":7067:7097   */\n      tag_810\n        /* \"#utility.yul\":7091:7096   */\n      dup2\n        /* \"#utility.yul\":7067:7097   */\n      tag_656\n      jump\t// in\n    tag_810:\n        /* \"#utility.yul\":6970:7103   */\n      swap3\n      swap2\n      pop\n      pop\n      jump\t// out\n        /* \"#utility.yul\":7109:7577   */\n    tag_147:\n        /* \"#utility.yul\":7174:7180   */\n      0x00\n        /* \"#utility.yul\":7182:7188   */\n      dup1\n        /* \"#utility.yul\":7231:7233   */\n      0x40\n        /* \"#utility.yul\":7219:7228   */\n      dup4\n        /* \"#utility.yul\":7210:7217   */\n      dup6\n        /* \"#utility.yul\":7206:7229   */\n      sub\n        /* \"#utility.yul\":7202:7234   */\n      slt\n        /* \"#utility.yul\":7199:7318   */\n      iszero\n      tag_812\n      jumpi\n        /* \"#utility.yul\":7237:7316   */\n      tag_813\n      tag_639\n      jump\t// in\n    tag_813:\n        /* \"#utility.yul\":7199:7318   */\n    tag_812:\n        /* \"#utility.yul\":7357:7358   */\n      0x00\n        /* \"#utility.yul\":7382:7435   */\n      tag_814\n        /* \"#utility.yul\":7427:7434   */\n      dup6\n        /* \"#utility.yul\":7418:7424   */\n      dup3\n        /* \"#utility.yul\":7407:7416   */\n      dup7\n        /* \"#utility.yul\":7403:7425   */\n      add\n        /* \"#utility.yul\":7382:7435   */\n      tag_645\n      jump\t// in\n    tag_814:\n        /* \"#utility.yul\":7372:7435   */\n      swap3\n      pop\n        /* \"#utility.yul\":7328:7445   */\n      pop\n        /* \"#utility.yul\":7484:7486   */\n      0x20\n        /* \"#utility.yul\":7510:7560   */\n      tag_815\n        /* \"#utility.yul\":7552:7559   */\n      dup6\n        /* \"#utility.yul\":7543:7549   */\n      dup3\n        /* \"#utility.yul\":7532:7541   */\n      dup7\n        /* \"#utility.yul\":7528:7550   */\n      add\n        /* \"#utility.yul\":7510:7560   */\n      tag_657\n      jump\t// in\n    tag_815:\n        /* \"#utility.yul\":7500:7560   */\n      swap2\n      pop\n        /* \"#utility.yul\":7455:7570   */\n      pop\n        /* \"#utility.yul\":7109:7577   */\n      swap3\n      pop\n      swap3\n      swap1\n      pop\n      jump\t// out\n        /* \"#utility.yul\":7583:7700   */\n    tag_658:\n        /* \"#utility.yul\":7692:7693   */\n      0x00\n        /* \"#utility.yul\":7689:7690   */\n      dup1\n        /* \"#utility.yul\":7682:7694   */\n      revert\n        /* \"#utility.yul\":7706:7823   */\n    tag_659:\n        /* \"#utility.yul\":7815:7816   */\n      0x00\n        /* \"#utility.yul\":7812:7813   */\n      dup1\n        /* \"#utility.yul\":7805:7817   */\n      revert\n        /* \"#utility.yul\":7829:7946   */\n    tag_660:\n        /* \"#utility.yul\":7938:7939   */\n      0x00\n        /* \"#utility.yul\":7935:7936   */\n      dup1\n        /* \"#utility.yul\":7928:7940   */\n      revert\n        /* \"#utility.yul\":7969:8537   */\n    tag_661:\n        /* \"#utility.yul\":8042:8050   */\n      0x00\n        /* \"#utility.yul\":8052:8058   */\n      dup1\n        /* \"#utility.yul\":8102:8105   */\n      dup4\n        /* \"#utility.yul\":8095:8099   */\n      0x1f\n        /* \"#utility.yul\":8087:8093   */\n      dup5\n        /* \"#utility.yul\":8083:8100   */\n      add\n        /* \"#utility.yul\":8079:8106   */\n      slt\n        /* \"#utility.yul\":8069:8191   */\n      tag_820\n      jumpi\n        /* \"#utility.yul\":8110:8189   */\n      tag_821\n      tag_658\n      jump\t// in\n    tag_821:\n        /* \"#utility.yul\":8069:8191   */\n    tag_820:\n        /* \"#utility.yul\":8223:8229   */\n      dup3\n        /* \"#utility.yul\":8210:8230   */\n      calldataload\n        /* \"#utility.yul\":8200:8230   */\n      swap1\n      pop\n        /* \"#utility.yul\":8253:8271   */\n      0xffffffffffffffff\n        /* \"#utility.yul\":8245:8251   */\n      dup2\n        /* \"#utility.yul\":8242:8272   */\n      gt\n        /* \"#utility.yul\":8239:8356   */\n      iszero\n      tag_822\n      jumpi\n        /* \"#utility.yul\":8275:8354   */\n      tag_823\n      tag_659\n      jump\t// in\n    tag_823:\n        /* \"#utility.yul\":8239:8356   */\n    tag_822:\n        /* \"#utility.yul\":8389:8393   */\n      0x20\n        /* \"#utility.yul\":8381:8387   */\n      dup4\n        /* \"#utility.yul\":8377:8394   */\n      add\n        /* \"#utility.yul\":8365:8394   */\n      swap2\n      pop\n        /* \"#utility.yul\":8443:8446   */\n      dup4\n        /* \"#utility.yul\":8435:8439   */\n      0x20\n        /* \"#utility.yul\":8427:8433   */\n      dup3\n        /* \"#utility.yul\":8423:8440   */\n      mul\n        /* \"#utility.yul\":8413:8421   */\n      dup4\n        /* \"#utility.yul\":8409:8441   */\n      add\n        /* \"#utility.yul\":8406:8447   */\n      gt\n        /* \"#utility.yul\":8403:8531   */\n      iszero\n      tag_824\n      jumpi\n        /* \"#utility.yul\":8450:8529   */\n      tag_825\n      tag_660\n      jump\t// in\n    tag_825:\n        /* \"#utility.yul\":8403:8531   */\n    tag_824:\n        /* \"#utility.yul\":7969:8537   */\n      swap3\n      pop\n      swap3\n      swap1\n      pop\n      jump\t// out\n        /* \"#utility.yul\":8543:9247   */\n    tag_239:\n        /* \"#utility.yul\":8638:8644   */\n      0x00\n        /* \"#utility.yul\":8646:8652   */\n      dup1\n        /* \"#utility.yul\":8654:8660   */\n      0x00\n        /* \"#utility.yul\":8703:8705   */\n      0x40\n        /* \"#utility.yul\":8691:8700   */\n      dup5\n        /* \"#utility.yul\":8682:8689   */\n      dup7\n        /* \"#utility.yul\":8678:8701   */\n      sub\n        /* \"#utility.yul\":8674:8706   */\n      slt\n        /* \"#utility.yul\":8671:8790   */\n      iszero\n      tag_827\n      jumpi\n        /* \"#utility.yul\":8709:8788   */\n      tag_828\n      tag_639\n      jump\t// in\n    tag_828:\n        /* \"#utility.yul\":8671:8790   */\n    tag_827:\n        /* \"#utility.yul\":8857:8858   */\n      0x00\n        /* \"#utility.yul\":8846:8855   */\n      dup5\n        /* \"#utility.yul\":8842:8859   */\n      add\n        /* \"#utility.yul\":8829:8860   */\n      calldataload\n        /* \"#utility.yul\":8887:8905   */\n      0xffffffffffffffff\n        /* \"#utility.yul\":8879:8885   */\n      dup2\n        /* \"#utility.yul\":8876:8906   */\n      gt\n        /* \"#utility.yul\":8873:8990   */\n      iszero\n      tag_829\n      jumpi\n        /* \"#utility.yul\":8909:8988   */\n      tag_830\n      tag_640\n      jump\t// in\n    tag_830:\n        /* \"#utility.yul\":8873:8990   */\n    tag_829:\n        /* \"#utility.yul\":9022:9102   */\n      tag_831\n        /* \"#utility.yul\":9094:9101   */\n      dup7\n        /* \"#utility.yul\":9085:9091   */\n      dup3\n        /* \"#utility.yul\":9074:9083   */\n      dup8\n        /* \"#utility.yul\":9070:9092   */\n      add\n        /* \"#utility.yul\":9022:9102   */\n      tag_661\n      jump\t// in\n    tag_831:\n        /* \"#utility.yul\":9004:9102   */\n      swap4\n      pop\n      swap4\n      pop\n        /* \"#utility.yul\":8800:9112   */\n      pop\n        /* \"#utility.yul\":9151:9153   */\n      0x20\n        /* \"#utility.yul\":9177:9230   */\n      tag_832\n        /* \"#utility.yul\":9222:9229   */\n      dup7\n        /* \"#utility.yul\":9213:9219   */\n      dup3\n        /* \"#utility.yul\":9202:9211   */\n      dup8\n        /* \"#utility.yul\":9198:9220   */\n      add\n        /* \"#utility.yul\":9177:9230   */\n      tag_643\n      jump\t// in\n    tag_832:\n        /* \"#utility.yul\":9167:9230   */\n      swap2\n      pop\n        /* \"#utility.yul\":9122:9240   */\n      pop\n        /* \"#utility.yul\":8543:9247   */\n      swap3\n      pop\n      swap3\n      pop\n      swap3\n      jump\t// out\n        /* \"#utility.yul\":9253:9576   */\n    tag_244:\n        /* \"#utility.yul\":9309:9315   */\n      0x00\n        /* \"#utility.yul\":9358:9360   */\n      0x20\n        /* \"#utility.yul\":9346:9355   */\n      dup3\n        /* \"#utility.yul\":9337:9344   */\n      dup5\n        /* \"#utility.yul\":9333:9356   */\n      sub\n        /* \"#utility.yul\":9329:9361   */\n      slt\n        /* \"#utility.yul\":9326:9445   */\n      iszero\n      tag_834\n      jumpi\n        /* \"#utility.yul\":9364:9443   */\n      tag_835\n      tag_639\n      jump\t// in\n    tag_835:\n        /* \"#utility.yul\":9326:9445   */\n    tag_834:\n        /* \"#utility.yul\":9484:9485   */\n      0x00\n        /* \"#utility.yul\":9509:9559   */\n      tag_836\n        /* \"#utility.yul\":9551:9558   */\n      dup5\n        /* \"#utility.yul\":9542:9548   */\n      dup3\n        /* \"#utility.yul\":9531:9540   */\n      dup6\n        /* \"#utility.yul\":9527:9549   */\n      add\n        /* \"#utility.yul\":9509:9559   */\n      tag_657\n      jump\t// in\n    tag_836:\n        /* \"#utility.yul\":9499:9559   */\n      swap2\n      pop\n        /* \"#utility.yul\":9455:9569   */\n      pop\n        /* \"#utility.yul\":9253:9576   */\n      swap3\n      swap2\n      pop\n      pop\n      jump\t// out\n        /* \"#utility.yul\":9582:10056   */\n    tag_273:\n        /* \"#utility.yul\":9650:9656   */\n      0x00\n        /* \"#utility.yul\":9658:9664   */\n      dup1\n        /* \"#utility.yul\":9707:9709   */\n      0x40\n        /* \"#utility.yul\":9695:9704   */\n      dup4\n        /* \"#utility.yul\":9686:9693   */\n      dup6\n        /* \"#utility.yul\":9682:9705   */\n      sub\n        /* \"#utility.yul\":9678:9710   */\n      slt\n        /* \"#utility.yul\":9675:9794   */\n      iszero\n      tag_838\n      jumpi\n        /* \"#utility.yul\":9713:9792   */\n      tag_839\n      tag_639\n      jump\t// in\n    tag_839:\n        /* \"#utility.yul\":9675:9794   */\n    tag_838:\n        /* \"#utility.yul\":9833:9834   */\n      0x00\n        /* \"#utility.yul\":9858:9911   */\n      tag_840\n        /* \"#utility.yul\":9903:9910   */\n      dup6\n        /* \"#utility.yul\":9894:9900   */\n      dup3\n        /* \"#utility.yul\":9883:9892   */\n      dup7\n        /* \"#utility.yul\":9879:9901   */\n      add\n        /* \"#utility.yul\":9858:9911   */\n      tag_645\n      jump\t// in\n    tag_840:\n        /* \"#utility.yul\":9848:9911   */\n      swap3\n      pop\n        /* \"#utility.yul\":9804:9921   */\n      pop\n        /* \"#utility.yul\":9960:9962   */\n      0x20\n        /* \"#utility.yul\":9986:10039   */\n      tag_841\n        /* \"#utility.yul\":10031:10038   */\n      dup6\n        /* \"#utility.yul\":10022:10028   */\n      dup3\n        /* \"#utility.yul\":10011:10020   */\n      dup7\n        /* \"#utility.yul\":10007:10029   */\n      add\n        /* \"#utility.yul\":9986:10039   */\n      tag_645\n      jump\t// in\n    tag_841:\n        /* \"#utility.yul\":9976:10039   */\n      swap2\n      pop\n        /* \"#utility.yul\":9931:10049   */\n      pop\n        /* \"#utility.yul\":9582:10056   */\n      swap3\n      pop\n      swap3\n      swap1\n      pop\n      jump\t// out\n        /* \"#utility.yul\":10062:10282   */\n    tag_662:\n        /* \"#utility.yul\":10202:10236   */\n      0x4465762077616c6c65742063616e6e6f74206265207a65726f20616464726573\n        /* \"#utility.yul\":10198:10199   */\n      0x00\n        /* \"#utility.yul\":10190:10196   */\n      dup3\n        /* \"#utility.yul\":10186:10200   */\n      add\n        /* \"#utility.yul\":10179:10237   */\n      mstore\n        /* \"#utility.yul\":10271:10274   */\n      0x7300000000000000000000000000000000000000000000000000000000000000\n        /* \"#utility.yul\":10266:10268   */\n      0x20\n        /* \"#utility.yul\":10258:10264   */\n      dup3\n        /* \"#utility.yul\":10254:10269   */\n      add\n        /* \"#utility.yul\":10247:10275   */\n      mstore\n        /* \"#utility.yul\":10062:10282   */\n      pop\n      jump\t// out\n        /* \"#utility.yul\":10288:10654   */\n    tag_663:\n        /* \"#utility.yul\":10430:10433   */\n      0x00\n        /* \"#utility.yul\":10451:10518   */\n      tag_844\n        /* \"#utility.yul\":10515:10517   */\n      0x21\n        /* \"#utility.yul\":10510:10513   */\n      dup4\n        /* \"#utility.yul\":10451:10518   */\n      tag_634\n      jump\t// in\n    tag_844:\n        /* \"#utility.yul\":10444:10518   */\n      swap2\n      pop\n        /* \"#utility.yul\":10527:10620   */\n      tag_845\n        /* \"#utility.yul\":10616:10619   */\n      dup3\n        /* \"#utility.yul\":10527:10620   */\n      tag_662\n      jump\t// in\n    tag_845:\n        /* \"#utility.yul\":10645:10647   */\n      0x40\n        /* \"#utility.yul\":10640:10643   */\n      dup3\n        /* \"#utility.yul\":10636:10648   */\n      add\n        /* \"#utility.yul\":10629:10648   */\n      swap1\n      pop\n        /* \"#utility.yul\":10288:10654   */\n      swap2\n      swap1\n      pop\n      jump\t// out\n        /* \"#utility.yul\":10660:11079   */\n    tag_306:\n        /* \"#utility.yul\":10826:10830   */\n      0x00\n        /* \"#utility.yul\":10864:10866   */\n      0x20\n        /* \"#utility.yul\":10853:10862   */\n      dup3\n        /* \"#utility.yul\":10849:10867   */\n      add\n        /* \"#utility.yul\":10841:10867   */\n      swap1\n      pop\n        /* \"#utility.yul\":10913:10922   */\n      dup2\n        /* \"#utility.yul\":10907:10911   */\n      dup2\n        /* \"#utility.yul\":10903:10923   */\n      sub\n        /* \"#utility.yul\":10899:10900   */\n      0x00\n        /* \"#utility.yul\":10888:10897   */\n      dup4\n        /* \"#utility.yul\":10884:10901   */\n      add\n        /* \"#utility.yul\":10877:10924   */\n      mstore\n        /* \"#utility.yul\":10941:11072   */\n      tag_847\n        /* \"#utility.yul\":11067:11071   */\n      dup2\n        /* \"#utility.yul\":10941:11072   */\n      tag_663\n      jump\t// in\n    tag_847:\n        /* \"#utility.yul\":10933:11072   */\n      swap1\n      pop\n        /* \"#utility.yul\":10660:11079   */\n      swap2\n      swap1\n      pop\n      jump\t// out\n        /* \"#utility.yul\":11085:11305   */\n    tag_664:\n        /* \"#utility.yul\":11225:11259   */\n      0x5461782070657263656e746167652063616e6e6f742065786365656420313030\n        /* \"#utility.yul\":11221:11222   */\n      0x00\n        /* \"#utility.yul\":11213:11219   */\n      dup3\n        /* \"#utility.yul\":11209:11223   */\n      add\n        /* \"#utility.yul\":11202:11260   */\n      mstore\n        /* \"#utility.yul\":11294:11297   */\n      0x2500000000000000000000000000000000000000000000000000000000000000\n        /* \"#utility.yul\":11289:11291   */\n      0x20\n        /* \"#utility.yul\":11281:11287   */\n      dup3\n        /* \"#utility.yul\":11277:11292   */\n      add\n        /* \"#utility.yul\":11270:11298   */\n      mstore\n        /* \"#utility.yul\":11085:11305   */\n      pop\n      jump\t// out\n        /* \"#utility.yul\":11311:11677   */\n    tag_665:\n        /* \"#utility.yul\":11453:11456   */\n      0x00\n        /* \"#utility.yul\":11474:11541   */\n      tag_850\n        /* \"#utility.yul\":11538:11540   */\n      0x21\n        /* \"#utility.yul\":11533:11536   */\n      dup4\n        /* \"#utility.yul\":11474:11541   */\n      tag_634\n      jump\t// in\n    tag_850:\n        /* \"#utility.yul\":11467:11541   */\n      swap2\n      pop\n        /* \"#utility.yul\":11550:11643   */\n      tag_851\n        /* \"#utility.yul\":11639:11642   */\n      dup3\n        /* \"#utility.yul\":11550:11643   */\n      tag_664\n      jump\t// in\n    tag_851:\n        /* \"#utility.yul\":11668:11670   */\n      0x40\n        /* \"#utility.yul\":11663:11666   */\n      dup3\n        /* \"#utility.yul\":11659:11671   */\n      add\n        /* \"#utility.yul\":11652:11671   */\n      swap1\n      pop\n        /* \"#utility.yul\":11311:11677   */\n      swap2\n      swap1\n      pop\n      jump\t// out\n        /* \"#utility.yul\":11683:12102   */\n    tag_317:\n        /* \"#utility.yul\":11849:11853   */\n      0x00\n        /* \"#utility.yul\":11887:11889   */\n      0x20\n        /* \"#utility.yul\":11876:11885   */\n      dup3\n        /* \"#utility.yul\":11872:11890   */\n      add\n        /* \"#utility.yul\":11864:11890   */\n      swap1\n      pop\n        /* \"#utility.yul\":11936:11945   */\n      dup2\n        /* \"#utility.yul\":11930:11934   */\n      dup2\n        /* \"#utility.yul\":11926:11946   */\n      sub\n        /* \"#utility.yul\":11922:11923   */\n      0x00\n        /* \"#utility.yul\":11911:11920   */\n      dup4\n        /* \"#utility.yul\":11907:11924   */\n      add\n        /* \"#utility.yul\":11900:11947   */\n      mstore\n        /* \"#utility.yul\":11964:12095   */\n      tag_853\n        /* \"#utility.yul\":12090:12094   */\n      dup2\n        /* \"#utility.yul\":11964:12095   */\n      tag_665\n      jump\t// in\n    tag_853:\n        /* \"#utility.yul\":11956:12095   */\n      swap1\n      pop\n        /* \"#utility.yul\":11683:12102   */\n      swap2\n      swap1\n      pop\n      jump\t// out\n        /* \"#utility.yul\":12108:12334   */\n    tag_666:\n        /* \"#utility.yul\":12248:12282   */\n      0x4d61726b6574696e672077616c6c65742063616e6e6f74206265207a65726f20\n        /* \"#utility.yul\":12244:12245   */\n      0x00\n        /* \"#utility.yul\":12236:12242   */\n      dup3\n        /* \"#utility.yul\":12232:12246   */\n      add\n        /* \"#utility.yul\":12225:12283   */\n      mstore\n        /* \"#utility.yul\":12317:12326   */\n      0x6164647265737300000000000000000000000000000000000000000000000000\n        /* \"#utility.yul\":12312:12314   */\n      0x20\n        /* \"#utility.yul\":12304:12310   */\n      dup3\n        /* \"#utility.yul\":12300:12315   */\n      add\n        /* \"#utility.yul\":12293:12327   */\n      mstore\n        /* \"#utility.yul\":12108:12334   */\n      pop\n      jump\t// out\n        /* \"#utility.yul\":12340:12706   */\n    tag_667:\n        /* \"#utility.yul\":12482:12485   */\n      0x00\n        /* \"#utility.yul\":12503:12570   */\n      tag_856\n        /* \"#utility.yul\":12567:12569   */\n      0x27\n        /* \"#utility.yul\":12562:12565   */\n      dup4\n        /* \"#utility.yul\":12503:12570   */\n      tag_634\n      jump\t// in\n    tag_856:\n        /* \"#utility.yul\":12496:12570   */\n      swap2\n      pop\n        /* \"#utility.yul\":12579:12672   */\n      tag_857\n        /* \"#utility.yul\":12668:12671   */\n      dup3\n        /* \"#utility.yul\":12579:12672   */\n      tag_666\n      jump\t// in\n    tag_857:\n        /* \"#utility.yul\":12697:12699   */\n      0x40\n        /* \"#utility.yul\":12692:12695   */\n      dup3\n        /* \"#utility.yul\":12688:12700   */\n      add\n        /* \"#utility.yul\":12681:12700   */\n      swap1\n      pop\n        /* \"#utility.yul\":12340:12706   */\n      swap2\n      swap1\n      pop\n      jump\t// out\n        /* \"#utility.yul\":12712:13131   */\n    tag_327:\n        /* \"#utility.yul\":12878:12882   */\n      0x00\n        /* \"#utility.yul\":12916:12918   */\n      0x20\n        /* \"#utility.yul\":12905:12914   */\n      dup3\n        /* \"#utility.yul\":12901:12919   */\n      add\n        /* \"#utility.yul\":12893:12919   */\n      swap1\n      pop\n        /* \"#utility.yul\":12965:12974   */\n      dup2\n        /* \"#utility.yul\":12959:12963   */\n      dup2\n        /* \"#utility.yul\":12955:12975   */\n      sub\n        /* \"#utility.yul\":12951:12952   */\n      0x00\n        /* \"#utility.yul\":12940:12949   */\n      dup4\n        /* \"#utility.yul\":12936:12953   */\n      add\n        /* \"#utility.yul\":12929:12976   */\n      mstore\n        /* \"#utility.yul\":12993:13124   */\n      tag_859\n        /* \"#utility.yul\":13119:13123   */\n      dup2\n        /* \"#utility.yul\":12993:13124   */\n      tag_667\n      jump\t// in\n    tag_859:\n        /* \"#utility.yul\":12985:13124   */\n      swap1\n      pop\n        /* \"#utility.yul\":12712:13131   */\n      swap2\n      swap1\n      pop\n      jump\t// out\n        /* \"#utility.yul\":13137:13317   */\n    tag_668:\n        /* \"#utility.yul\":13185:13262   */\n      0x4e487b7100000000000000000000000000000000000000000000000000000000\n        /* \"#utility.yul\":13182:13183   */\n      0x00\n        /* \"#utility.yul\":13175:13263   */\n      mstore\n        /* \"#utility.yul\":13282:13286   */\n      0x11\n        /* \"#utility.yul\":13279:13280   */\n      0x04\n        /* \"#utility.yul\":13272:13287   */\n      mstore\n        /* \"#utility.yul\":13306:13310   */\n      0x24\n        /* \"#utility.yul\":13303:13304   */\n      0x00\n        /* \"#utility.yul\":13296:13311   */\n      revert\n        /* \"#utility.yul\":13323:13514   */\n    tag_337:\n        /* \"#utility.yul\":13363:13366   */\n      0x00\n        /* \"#utility.yul\":13382:13402   */\n      tag_862\n        /* \"#utility.yul\":13400:13401   */\n      dup3\n        /* \"#utility.yul\":13382:13402   */\n      tag_641\n      jump\t// in\n    tag_862:\n        /* \"#utility.yul\":13377:13402   */\n      swap2\n      pop\n        /* \"#utility.yul\":13416:13436   */\n      tag_863\n        /* \"#utility.yul\":13434:13435   */\n      dup4\n        /* \"#utility.yul\":13416:13436   */\n      tag_641\n      jump\t// in\n    tag_863:\n        /* \"#utility.yul\":13411:13436   */\n      swap3\n      pop\n        /* \"#utility.yul\":13459:13460   */\n      dup3\n        /* \"#utility.yul\":13456:13457   */\n      dup3\n        /* \"#utility.yul\":13452:13461   */\n      add\n        /* \"#utility.yul\":13445:13461   */\n      swap1\n      pop\n        /* \"#utility.yul\":13480:13483   */\n      dup1\n        /* \"#utility.yul\":13477:13478   */\n      dup3\n        /* \"#utility.yul\":13474:13484   */\n      gt\n        /* \"#utility.yul\":13471:13507   */\n      iszero\n      tag_864\n      jumpi\n        /* \"#utility.yul\":13487:13505   */\n      tag_865\n      tag_668\n      jump\t// in\n    tag_865:\n        /* \"#utility.yul\":13471:13507   */\n    tag_864:\n        /* \"#utility.yul\":13323:13514   */\n      swap3\n      swap2\n      pop\n      pop\n      jump\t// out\n        /* \"#utility.yul\":13520:13930   */\n    tag_340:\n        /* \"#utility.yul\":13560:13567   */\n      0x00\n        /* \"#utility.yul\":13583:13603   */\n      tag_867\n        /* \"#utility.yul\":13601:13602   */\n      dup3\n        /* \"#utility.yul\":13583:13603   */\n      tag_641\n      jump\t// in\n    tag_867:\n        /* \"#utility.yul\":13578:13603   */\n      swap2\n      pop\n        /* \"#utility.yul\":13617:13637   */\n      tag_868\n        /* \"#utility.yul\":13635:13636   */\n      dup4\n        /* \"#utility.yul\":13617:13637   */\n      tag_641\n      jump\t// in\n    tag_868:\n        /* \"#utility.yul\":13612:13637   */\n      swap3\n      pop\n        /* \"#utility.yul\":13672:13673   */\n      dup3\n        /* \"#utility.yul\":13669:13670   */\n      dup3\n        /* \"#utility.yul\":13665:13674   */\n      mul\n        /* \"#utility.yul\":13694:13724   */\n      tag_869\n        /* \"#utility.yul\":13712:13723   */\n      dup2\n        /* \"#utility.yul\":13694:13724   */\n      tag_641\n      jump\t// in\n    tag_869:\n        /* \"#utility.yul\":13683:13724   */\n      swap2\n      pop\n        /* \"#utility.yul\":13873:13874   */\n      dup3\n        /* \"#utility.yul\":13864:13871   */\n      dup3\n        /* \"#utility.yul\":13860:13875   */\n      div\n        /* \"#utility.yul\":13857:13858   */\n      dup5\n        /* \"#utility.yul\":13854:13876   */\n      eq\n        /* \"#utility.yul\":13834:13835   */\n      dup4\n        /* \"#utility.yul\":13827:13836   */\n      iszero\n        /* \"#utility.yul\":13807:13890   */\n      or\n        /* \"#utility.yul\":13784:13923   */\n      tag_870\n      jumpi\n        /* \"#utility.yul\":13903:13921   */\n      tag_871\n      tag_668\n      jump\t// in\n    tag_871:\n        /* \"#utility.yul\":13784:13923   */\n    tag_870:\n        /* \"#utility.yul\":13568:13930   */\n      pop\n        /* \"#utility.yul\":13520:13930   */\n      swap3\n      swap2\n      pop\n      pop\n      jump\t// out\n        /* \"#utility.yul\":13936:14116   */\n    tag_669:\n        /* \"#utility.yul\":13984:14061   */\n      0x4e487b7100000000000000000000000000000000000000000000000000000000\n        /* \"#utility.yul\":13981:13982   */\n      0x00\n        /* \"#utility.yul\":13974:14062   */\n      mstore\n        /* \"#utility.yul\":14081:14085   */\n      0x12\n        /* \"#utility.yul\":14078:14079   */\n      0x04\n        /* \"#utility.yul\":14071:14086   */\n      mstore\n        /* \"#utility.yul\":14105:14109   */\n      0x24\n        /* \"#utility.yul\":14102:14103   */\n      0x00\n        /* \"#utility.yul\":14095:14110   */\n      revert\n        /* \"#utility.yul\":14122:14307   */\n    tag_342:\n        /* \"#utility.yul\":14162:14163   */\n      0x00\n        /* \"#utility.yul\":14179:14199   */\n      tag_874\n        /* \"#utility.yul\":14197:14198   */\n      dup3\n        /* \"#utility.yul\":14179:14199   */\n      tag_641\n      jump\t// in\n    tag_874:\n        /* \"#utility.yul\":14174:14199   */\n      swap2\n      pop\n        /* \"#utility.yul\":14213:14233   */\n      tag_875\n        /* \"#utility.yul\":14231:14232   */\n      dup4\n        /* \"#utility.yul\":14213:14233   */\n      tag_641\n      jump\t// in\n    tag_875:\n        /* \"#utility.yul\":14208:14233   */\n      swap3\n      pop\n        /* \"#utility.yul\":14252:14253   */\n      dup3\n        /* \"#utility.yul\":14242:14277   */\n      tag_876\n      jumpi\n        /* \"#utility.yul\":14257:14275   */\n      tag_877\n      tag_669\n      jump\t// in\n    tag_877:\n        /* \"#utility.yul\":14242:14277   */\n    tag_876:\n        /* \"#utility.yul\":14299:14300   */\n      dup3\n        /* \"#utility.yul\":14296:14297   */\n      dup3\n        /* \"#utility.yul\":14292:14301   */\n      div\n        /* \"#utility.yul\":14287:14301   */\n      swap1\n      pop\n        /* \"#utility.yul\":14122:14307   */\n      swap3\n      swap2\n      pop\n      pop\n      jump\t// out\n        /* \"#utility.yul\":14313:14557   */\n    tag_670:\n        /* \"#utility.yul\":14453:14487   */\n      0x54686520706169722063616e6e6f742062652072656d6f7665642066726f6d20\n        /* \"#utility.yul\":14449:14450   */\n      0x00\n        /* \"#utility.yul\":14441:14447   */\n      dup3\n        /* \"#utility.yul\":14437:14451   */\n      add\n        /* \"#utility.yul\":14430:14488   */\n      mstore\n        /* \"#utility.yul\":14522:14549   */\n      0x6175746f6d617465644d61726b65744d616b6572506169727300000000000000\n        /* \"#utility.yul\":14517:14519   */\n      0x20\n        /* \"#utility.yul\":14509:14515   */\n      dup3\n        /* \"#utility.yul\":14505:14520   */\n      add\n        /* \"#utility.yul\":14498:14550   */\n      mstore\n        /* \"#utility.yul\":14313:14557   */\n      pop\n      jump\t// out\n        /* \"#utility.yul\":14563:14929   */\n    tag_671:\n        /* \"#utility.yul\":14705:14708   */\n      0x00\n        /* \"#utility.yul\":14726:14793   */\n      tag_880\n        /* \"#utility.yul\":14790:14792   */\n      0x39\n        /* \"#utility.yul\":14785:14788   */\n      dup4\n        /* \"#utility.yul\":14726:14793   */\n      tag_634\n      jump\t// in\n    tag_880:\n        /* \"#utility.yul\":14719:14793   */\n      swap2\n      pop\n        /* \"#utility.yul\":14802:14895   */\n      tag_881\n        /* \"#utility.yul\":14891:14894   */\n      dup3\n        /* \"#utility.yul\":14802:14895   */\n      tag_670\n      jump\t// in\n    tag_881:\n        /* \"#utility.yul\":14920:14922   */\n      0x40\n        /* \"#utility.yul\":14915:14918   */\n      dup3\n        /* \"#utility.yul\":14911:14923   */\n      add\n        /* \"#utility.yul\":14904:14923   */\n      swap1\n      pop\n        /* \"#utility.yul\":14563:14929   */\n      swap2\n      swap1\n      pop\n      jump\t// out\n        /* \"#utility.yul\":14935:15354   */\n    tag_361:\n        /* \"#utility.yul\":15101:15105   */\n      0x00\n        /* \"#utility.yul\":15139:15141   */\n      0x20\n        /* \"#utility.yul\":15128:15137   */\n      dup3\n        /* \"#utility.yul\":15124:15142   */\n      add\n        /* \"#utility.yul\":15116:15142   */\n      swap1\n      pop\n        /* \"#utility.yul\":15188:15197   */\n      dup2\n        /* \"#utility.yul\":15182:15186   */\n      dup2\n        /* \"#utility.yul\":15178:15198   */\n      sub\n        /* \"#utility.yul\":15174:15175   */\n      0x00\n        /* \"#utility.yul\":15163:15172   */\n      dup4\n        /* \"#utility.yul\":15159:15176   */\n      add\n        /* \"#utility.yul\":15152:15199   */\n      mstore\n        /* \"#utility.yul\":15216:15347   */\n      tag_883\n        /* \"#utility.yul\":15342:15346   */\n      dup2\n        /* \"#utility.yul\":15216:15347   */\n      tag_671\n      jump\t// in\n    tag_883:\n        /* \"#utility.yul\":15208:15347   */\n      swap1\n      pop\n        /* \"#utility.yul\":14935:15354   */\n      swap2\n      swap1\n      pop\n      jump\t// out\n        /* \"#utility.yul\":15360:15540   */\n    tag_404:\n        /* \"#utility.yul\":15408:15485   */\n      0x4e487b7100000000000000000000000000000000000000000000000000000000\n        /* \"#utility.yul\":15405:15406   */\n      0x00\n        /* \"#utility.yul\":15398:15486   */\n      mstore\n        /* \"#utility.yul\":15505:15509   */\n      0x32\n        /* \"#utility.yul\":15502:15503   */\n      0x04\n        /* \"#utility.yul\":15495:15510   */\n      mstore\n        /* \"#utility.yul\":15529:15533   */\n      0x24\n        /* \"#utility.yul\":15526:15527   */\n      0x00\n        /* \"#utility.yul\":15519:15534   */\n      revert\n        /* \"#utility.yul\":15546:15768   */\n    tag_672:\n        /* \"#utility.yul\":15686:15720   */\n      0x45524332303a207472616e7366657220746f20746865207a65726f2061646472\n        /* \"#utility.yul\":15682:15683   */\n      0x00\n        /* \"#utility.yul\":15674:15680   */\n      dup3\n        /* \"#utility.yul\":15670:15684   */\n      add\n        /* \"#utility.yul\":15663:15721   */\n      mstore\n        /* \"#utility.yul\":15755:15760   */\n      0x6573730000000000000000000000000000000000000000000000000000000000\n        /* \"#utility.yul\":15750:15752   */\n      0x20\n        /* \"#utility.yul\":15742:15748   */\n      dup3\n        /* \"#utility.yul\":15738:15753   */\n      add\n        /* \"#utility.yul\":15731:15761   */\n      mstore\n        /* \"#utility.yul\":15546:15768   */\n      pop\n      jump\t// out\n        /* \"#utility.yul\":15774:16140   */\n    tag_673:\n        /* \"#utility.yul\":15916:15919   */\n      0x00\n        /* \"#utility.yul\":15937:16004   */\n      tag_887\n        /* \"#utility.yul\":16001:16003   */\n      0x23\n        /* \"#utility.yul\":15996:15999   */\n      dup4\n        /* \"#utility.yul\":15937:16004   */\n      tag_634\n      jump\t// in\n    tag_887:\n        /* \"#utility.yul\":15930:16004   */\n      swap2\n      pop\n        /* \"#utility.yul\":16013:16106   */\n      tag_888\n        /* \"#utility.yul\":16102:16105   */\n      dup3\n        /* \"#utility.yul\":16013:16106   */\n      tag_672\n      jump\t// in\n    tag_888:\n        /* \"#utility.yul\":16131:16133   */\n      0x40\n        /* \"#utility.yul\":16126:16129   */\n      dup3\n        /* \"#utility.yul\":16122:16134   */\n      add\n        /* \"#utility.yul\":16115:16134   */\n      swap1\n      pop\n        /* \"#utility.yul\":15774:16140   */\n      swap2\n      swap1\n      pop\n      jump\t// out\n        /* \"#utility.yul\":16146:16565   */\n    tag_408:\n        /* \"#utility.yul\":16312:16316   */\n      0x00\n        /* \"#utility.yul\":16350:16352   */\n      0x20\n        /* \"#utility.yul\":16339:16348   */\n      dup3\n        /* \"#utility.yul\":16335:16353   */\n      add\n        /* \"#utility.yul\":16327:16353   */\n      swap1\n      pop\n        /* \"#utility.yul\":16399:16408   */\n      dup2\n        /* \"#utility.yul\":16393:16397   */\n      dup2\n        /* \"#utility.yul\":16389:16409   */\n      sub\n        /* \"#utility.yul\":16385:16386   */\n      0x00\n        /* \"#utility.yul\":16374:16383   */\n      dup4\n        /* \"#utility.yul\":16370:16387   */\n      add\n        /* \"#utility.yul\":16363:16410   */\n      mstore\n        /* \"#utility.yul\":16427:16558   */\n      tag_890\n        /* \"#utility.yul\":16553:16557   */\n      dup2\n        /* \"#utility.yul\":16427:16558   */\n      tag_673\n      jump\t// in\n    tag_890:\n        /* \"#utility.yul\":16419:16558   */\n      swap1\n      pop\n        /* \"#utility.yul\":16146:16565   */\n      swap2\n      swap1\n      pop\n      jump\t// out\n        /* \"#utility.yul\":16571:16812   */\n    tag_674:\n        /* \"#utility.yul\":16711:16745   */\n      0x4f776e65722063616e277420636c61696d20636f6e747261637427732062616c\n        /* \"#utility.yul\":16707:16708   */\n      0x00\n        /* \"#utility.yul\":16699:16705   */\n      dup3\n        /* \"#utility.yul\":16695:16709   */\n      add\n        /* \"#utility.yul\":16688:16746   */\n      mstore\n        /* \"#utility.yul\":16780:16804   */\n      0x616e6365206f6620697473206f776e20746f6b656e7300000000000000000000\n        /* \"#utility.yul\":16775:16777   */\n      0x20\n        /* \"#utility.yul\":16767:16773   */\n      dup3\n        /* \"#utility.yul\":16763:16778   */\n      add\n        /* \"#utility.yul\":16756:16805   */\n      mstore\n        /* \"#utility.yul\":16571:16812   */\n      pop\n      jump\t// out\n        /* \"#utility.yul\":16818:17184   */\n    tag_675:\n        /* \"#utility.yul\":16960:16963   */\n      0x00\n        /* \"#utility.yul\":16981:17048   */\n      tag_893\n        /* \"#utility.yul\":17045:17047   */\n      0x36\n        /* \"#utility.yul\":17040:17043   */\n      dup4\n        /* \"#utility.yul\":16981:17048   */\n      tag_634\n      jump\t// in\n    tag_893:\n        /* \"#utility.yul\":16974:17048   */\n      swap2\n      pop\n        /* \"#utility.yul\":17057:17150   */\n      tag_894\n        /* \"#utility.yul\":17146:17149   */\n      dup3\n        /* \"#utility.yul\":17057:17150   */\n      tag_674\n      jump\t// in\n    tag_894:\n        /* \"#utility.yul\":17175:17177   */\n      0x40\n        /* \"#utility.yul\":17170:17173   */\n      dup3\n        /* \"#utility.yul\":17166:17178   */\n      add\n        /* \"#utility.yul\":17159:17178   */\n      swap1\n      pop\n        /* \"#utility.yul\":16818:17184   */\n      swap2\n      swap1\n      pop\n      jump\t// out\n        /* \"#utility.yul\":17190:17609   */\n    tag_430:\n        /* \"#utility.yul\":17356:17360   */\n      0x00\n        /* \"#utility.yul\":17394:17396   */\n      0x20\n        /* \"#utility.yul\":17383:17392   */\n      dup3\n        /* \"#utility.yul\":17379:17397   */\n      add\n        /* \"#utility.yul\":17371:17397   */\n      swap1\n      pop\n        /* \"#utility.yul\":17443:17452   */\n      dup2\n        /* \"#utility.yul\":17437:17441   */\n      dup2\n        /* \"#utility.yul\":17433:17453   */\n      sub\n        /* \"#utility.yul\":17429:17430   */\n      0x00\n        /* \"#utility.yul\":17418:17427   */\n      dup4\n        /* \"#utility.yul\":17414:17431   */\n      add\n        /* \"#utility.yul\":17407:17454   */\n      mstore\n        /* \"#utility.yul\":17471:17602   */\n      tag_896\n        /* \"#utility.yul\":17597:17601   */\n      dup2\n        /* \"#utility.yul\":17471:17602   */\n      tag_675\n      jump\t// in\n    tag_896:\n        /* \"#utility.yul\":17463:17602   */\n      swap1\n      pop\n        /* \"#utility.yul\":17190:17609   */\n      swap2\n      swap1\n      pop\n      jump\t// out\n        /* \"#utility.yul\":17615:17758   */\n    tag_676:\n        /* \"#utility.yul\":17672:17677   */\n      0x00\n        /* \"#utility.yul\":17703:17709   */\n      dup2\n        /* \"#utility.yul\":17697:17710   */\n      mload\n        /* \"#utility.yul\":17688:17710   */\n      swap1\n      pop\n        /* \"#utility.yul\":17719:17752   */\n      tag_898\n        /* \"#utility.yul\":17746:17751   */\n      dup2\n        /* \"#utility.yul\":17719:17752   */\n      tag_642\n      jump\t// in\n    tag_898:\n        /* \"#utility.yul\":17615:17758   */\n      swap3\n      swap2\n      pop\n      pop\n      jump\t// out\n        /* \"#utility.yul\":17764:18115   */\n    tag_435:\n        /* \"#utility.yul\":17834:17840   */\n      0x00\n        /* \"#utility.yul\":17883:17885   */\n      0x20\n        /* \"#utility.yul\":17871:17880   */\n      dup3\n        /* \"#utility.yul\":17862:17869   */\n      dup5\n        /* \"#utility.yul\":17858:17881   */\n      sub\n        /* \"#utility.yul\":17854:17886   */\n      slt\n        /* \"#utility.yul\":17851:17970   */\n      iszero\n      tag_900\n      jumpi\n        /* \"#utility.yul\":17889:17968   */\n      tag_901\n      tag_639\n      jump\t// in\n    tag_901:\n        /* \"#utility.yul\":17851:17970   */\n    tag_900:\n        /* \"#utility.yul\":18009:18010   */\n      0x00\n        /* \"#utility.yul\":18034:18098   */\n      tag_902\n        /* \"#utility.yul\":18090:18097   */\n      dup5\n        /* \"#utility.yul\":18081:18087   */\n      dup3\n        /* \"#utility.yul\":18070:18079   */\n      dup6\n        /* \"#utility.yul\":18066:18088   */\n      add\n        /* \"#utility.yul\":18034:18098   */\n      tag_676\n      jump\t// in\n    tag_902:\n        /* \"#utility.yul\":18024:18098   */\n      swap2\n      pop\n        /* \"#utility.yul\":17980:18108   */\n      pop\n        /* \"#utility.yul\":17764:18115   */\n      swap3\n      swap2\n      pop\n      pop\n      jump\t// out\n        /* \"#utility.yul\":18121:18453   */\n    tag_439:\n        /* \"#utility.yul\":18242:18246   */\n      0x00\n        /* \"#utility.yul\":18280:18282   */\n      0x40\n        /* \"#utility.yul\":18269:18278   */\n      dup3\n        /* \"#utility.yul\":18265:18283   */\n      add\n        /* \"#utility.yul\":18257:18283   */\n      swap1\n      pop\n        /* \"#utility.yul\":18293:18364   */\n      tag_904\n        /* \"#utility.yul\":18361:18362   */\n      0x00\n        /* \"#utility.yul\":18350:18359   */\n      dup4\n        /* \"#utility.yul\":18346:18363   */\n      add\n        /* \"#utility.yul\":18337:18343   */\n      dup6\n        /* \"#utility.yul\":18293:18364   */\n      tag_632\n      jump\t// in\n    tag_904:\n        /* \"#utility.yul\":18374:18446   */\n      tag_905\n        /* \"#utility.yul\":18442:18444   */\n      0x20\n        /* \"#utility.yul\":18431:18440   */\n      dup4\n        /* \"#utility.yul\":18427:18445   */\n      add\n        /* \"#utility.yul\":18418:18424   */\n      dup5\n        /* \"#utility.yul\":18374:18446   */\n      tag_653\n      jump\t// in\n    tag_905:\n        /* \"#utility.yul\":18121:18453   */\n      swap4\n      swap3\n      pop\n      pop\n      pop\n      jump\t// out\n        /* \"#utility.yul\":18459:18596   */\n    tag_677:\n        /* \"#utility.yul\":18513:18518   */\n      0x00\n        /* \"#utility.yul\":18544:18550   */\n      dup2\n        /* \"#utility.yul\":18538:18551   */\n      mload\n        /* \"#utility.yul\":18529:18551   */\n      swap1\n      pop\n        /* \"#utility.yul\":18560:18590   */\n      tag_907\n        /* \"#utility.yul\":18584:18589   */\n      dup2\n        /* \"#utility.yul\":18560:18590   */\n      tag_656\n      jump\t// in\n    tag_907:\n        /* \"#utility.yul\":18459:18596   */\n      swap3\n      swap2\n      pop\n      pop\n      jump\t// out\n        /* \"#utility.yul\":18602:18947   */\n    tag_443:\n        /* \"#utility.yul\":18669:18675   */\n      0x00\n        /* \"#utility.yul\":18718:18720   */\n      0x20\n        /* \"#utility.yul\":18706:18715   */\n      dup3\n        /* \"#utility.yul\":18697:18704   */\n      dup5\n        /* \"#utility.yul\":18693:18716   */\n      sub\n        /* \"#utility.yul\":18689:18721   */\n      slt\n        /* \"#utility.yul\":18686:18805   */\n      iszero\n      tag_909\n      jumpi\n        /* \"#utility.yul\":18724:18803   */\n      tag_910\n      tag_639\n      jump\t// in\n    tag_910:\n        /* \"#utility.yul\":18686:18805   */\n    tag_909:\n        /* \"#utility.yul\":18844:18845   */\n      0x00\n        /* \"#utility.yul\":18869:18930   */\n      tag_911\n        /* \"#utility.yul\":18922:18929   */\n      dup5\n        /* \"#utility.yul\":18913:18919   */\n      dup3\n        /* \"#utility.yul\":18902:18911   */\n      dup6\n        /* \"#utility.yul\":18898:18920   */\n      add\n        /* \"#utility.yul\":18869:18930   */\n      tag_677\n      jump\t// in\n    tag_911:\n        /* \"#utility.yul\":18859:18930   */\n      swap2\n      pop\n        /* \"#utility.yul\":18815:18940   */\n      pop\n        /* \"#utility.yul\":18602:18947   */\n      swap3\n      swap2\n      pop\n      pop\n      jump\t// out\n        /* \"#utility.yul\":18953:19118   */\n    tag_678:\n        /* \"#utility.yul\":19093:19110   */\n      0x5472616e73666572206661696c65640000000000000000000000000000000000\n        /* \"#utility.yul\":19089:19090   */\n      0x00\n        /* \"#utility.yul\":19081:19087   */\n      dup3\n        /* \"#utility.yul\":19077:19091   */\n      add\n        /* \"#utility.yul\":19070:19111   */\n      mstore\n        /* \"#utility.yul\":18953:19118   */\n      pop\n      jump\t// out\n        /* \"#utility.yul\":19124:19490   */\n    tag_679:\n        /* \"#utility.yul\":19266:19269   */\n      0x00\n        /* \"#utility.yul\":19287:19354   */\n      tag_914\n        /* \"#utility.yul\":19351:19353   */\n      0x0f\n        /* \"#utility.yul\":19346:19349   */\n      dup4\n        /* \"#utility.yul\":19287:19354   */\n      tag_634\n      jump\t// in\n    tag_914:\n        /* \"#utility.yul\":19280:19354   */\n      swap2\n      pop\n        /* \"#utility.yul\":19363:19456   */\n      tag_915\n        /* \"#utility.yul\":19452:19455   */\n      dup3\n        /* \"#utility.yul\":19363:19456   */\n      tag_678\n      jump\t// in\n    tag_915:\n        /* \"#utility.yul\":19481:19483   */\n      0x20\n        /* \"#utility.yul\":19476:19479   */\n      dup3\n        /* \"#utility.yul\":19472:19484   */\n      add\n        /* \"#utility.yul\":19465:19484   */\n      swap1\n      pop\n        /* \"#utility.yul\":19124:19490   */\n      swap2\n      swap1\n      pop\n      jump\t// out\n        /* \"#utility.yul\":19496:19915   */\n    tag_446:\n        /* \"#utility.yul\":19662:19666   */\n      0x00\n        /* \"#utility.yul\":19700:19702   */\n      0x20\n        /* \"#utility.yul\":19689:19698   */\n      dup3\n        /* \"#utility.yul\":19685:19703   */\n      add\n        /* \"#utility.yul\":19677:19703   */\n      swap1\n      pop\n        /* \"#utility.yul\":19749:19758   */\n      dup2\n        /* \"#utility.yul\":19743:19747   */\n      dup2\n        /* \"#utility.yul\":19739:19759   */\n      sub\n        /* \"#utility.yul\":19735:19736   */\n      0x00\n        /* \"#utility.yul\":19724:19733   */\n      dup4\n        /* \"#utility.yul\":19720:19737   */\n      add\n        /* \"#utility.yul\":19713:19760   */\n      mstore\n        /* \"#utility.yul\":19777:19908   */\n      tag_917\n        /* \"#utility.yul\":19903:19907   */\n      dup2\n        /* \"#utility.yul\":19777:19908   */\n      tag_679\n      jump\t// in\n    tag_917:\n        /* \"#utility.yul\":19769:19908   */\n      swap1\n      pop\n        /* \"#utility.yul\":19496:19915   */\n      swap2\n      swap1\n      pop\n      jump\t// out\n        /* \"#utility.yul\":19921:20146   */\n    tag_680:\n        /* \"#utility.yul\":20061:20095   */\n      0x4f776e61626c653a206e6577206f776e657220697320746865207a65726f2061\n        /* \"#utility.yul\":20057:20058   */\n      0x00\n        /* \"#utility.yul\":20049:20055   */\n      dup3\n        /* \"#utility.yul\":20045:20059   */\n      add\n        /* \"#utility.yul\":20038:20096   */\n      mstore\n        /* \"#utility.yul\":20130:20138   */\n      0x6464726573730000000000000000000000000000000000000000000000000000\n        /* \"#utility.yul\":20125:20127   */\n      0x20\n        /* \"#utility.yul\":20117:20123   */\n      dup3\n        /* \"#utility.yul\":20113:20128   */\n      add\n        /* \"#utility.yul\":20106:20139   */\n      mstore\n        /* \"#utility.yul\":19921:20146   */\n      pop\n      jump\t// out\n        /* \"#utility.yul\":20152:20518   */\n    tag_681:\n        /* \"#utility.yul\":20294:20297   */\n      0x00\n        /* \"#utility.yul\":20315:20382   */\n      tag_920\n        /* \"#utility.yul\":20379:20381   */\n      0x26\n        /* \"#utility.yul\":20374:20377   */\n      dup4\n        /* \"#utility.yul\":20315:20382   */\n      tag_634\n      jump\t// in\n    tag_920:\n        /* \"#utility.yul\":20308:20382   */\n      swap2\n      pop\n        /* \"#utility.yul\":20391:20484   */\n      tag_921\n        /* \"#utility.yul\":20480:20483   */\n      dup3\n        /* \"#utility.yul\":20391:20484   */\n      tag_680\n      jump\t// in\n    tag_921:\n        /* \"#utility.yul\":20509:20511   */\n      0x40\n        /* \"#utility.yul\":20504:20507   */\n      dup3\n        /* \"#utility.yul\":20500:20512   */\n      add\n        /* \"#utility.yul\":20493:20512   */\n      swap1\n      pop\n        /* \"#utility.yul\":20152:20518   */\n      swap2\n      swap1\n      pop\n      jump\t// out\n        /* \"#utility.yul\":20524:20943   */\n    tag_452:\n        /* \"#utility.yul\":20690:20694   */\n      0x00\n        /* \"#utility.yul\":20728:20730   */\n      0x20\n        /* \"#utility.yul\":20717:20726   */\n      dup3\n        /* \"#utility.yul\":20713:20731   */\n      add\n        /* \"#utility.yul\":20705:20731   */\n      swap1\n      pop\n        /* \"#utility.yul\":20777:20786   */\n      dup2\n        /* \"#utility.yul\":20771:20775   */\n      dup2\n        /* \"#utility.yul\":20767:20787   */\n      sub\n        /* \"#utility.yul\":20763:20764   */\n      0x00\n        /* \"#utility.yul\":20752:20761   */\n      dup4\n        /* \"#utility.yul\":20748:20765   */\n      add\n        /* \"#utility.yul\":20741:20788   */\n      mstore\n        /* \"#utility.yul\":20805:20936   */\n      tag_923\n        /* \"#utility.yul\":20931:20935   */\n      dup2\n        /* \"#utility.yul\":20805:20936   */\n      tag_681\n      jump\t// in\n    tag_923:\n        /* \"#utility.yul\":20797:20936   */\n      swap1\n      pop\n        /* \"#utility.yul\":20524:20943   */\n      swap2\n      swap1\n      pop\n      jump\t// out\n        /* \"#utility.yul\":20949:21131   */\n    tag_682:\n        /* \"#utility.yul\":21089:21123   */\n      0x4f776e61626c653a2063616c6c6572206973206e6f7420746865206f776e6572\n        /* \"#utility.yul\":21085:21086   */\n      0x00\n        /* \"#utility.yul\":21077:21083   */\n      dup3\n        /* \"#utility.yul\":21073:21087   */\n      add\n        /* \"#utility.yul\":21066:21124   */\n      mstore\n        /* \"#utility.yul\":20949:21131   */\n      pop\n      jump\t// out\n        /* \"#utility.yul\":21137:21503   */\n    tag_683:\n        /* \"#utility.yul\":21279:21282   */\n      0x00\n        /* \"#utility.yul\":21300:21367   */\n      tag_926\n        /* \"#utility.yul\":21364:21366   */\n      0x20\n        /* \"#utility.yul\":21359:21362   */\n      dup4\n        /* \"#utility.yul\":21300:21367   */\n      tag_634\n      jump\t// in\n    tag_926:\n        /* \"#utility.yul\":21293:21367   */\n      swap2\n      pop\n        /* \"#utility.yul\":21376:21469   */\n      tag_927\n        /* \"#utility.yul\":21465:21468   */\n      dup3\n        /* \"#utility.yul\":21376:21469   */\n      tag_682\n      jump\t// in\n    tag_927:\n        /* \"#utility.yul\":21494:21496   */\n      0x20\n        /* \"#utility.yul\":21489:21492   */\n      dup3\n        /* \"#utility.yul\":21485:21497   */\n      add\n        /* \"#utility.yul\":21478:21497   */\n      swap1\n      pop\n        /* \"#utility.yul\":21137:21503   */\n      swap2\n      swap1\n      pop\n      jump\t// out\n        /* \"#utility.yul\":21509:21928   */\n    tag_460:\n        /* \"#utility.yul\":21675:21679   */\n      0x00\n        /* \"#utility.yul\":21713:21715   */\n      0x20\n        /* \"#utility.yul\":21702:21711   */\n      dup3\n        /* \"#utility.yul\":21698:21716   */\n      add\n        /* \"#utility.yul\":21690:21716   */\n      swap1\n      pop\n        /* \"#utility.yul\":21762:21771   */\n      dup2\n        /* \"#utility.yul\":21756:21760   */\n      dup2\n        /* \"#utility.yul\":21752:21772   */\n      sub\n        /* \"#utility.yul\":21748:21749   */\n      0x00\n        /* \"#utility.yul\":21737:21746   */\n      dup4\n        /* \"#utility.yul\":21733:21750   */\n      add\n        /* \"#utility.yul\":21726:21773   */\n      mstore\n        /* \"#utility.yul\":21790:21921   */\n      tag_929\n        /* \"#utility.yul\":21916:21920   */\n      dup2\n        /* \"#utility.yul\":21790:21921   */\n      tag_683\n      jump\t// in\n    tag_929:\n        /* \"#utility.yul\":21782:21921   */\n      swap1\n      pop\n        /* \"#utility.yul\":21509:21928   */\n      swap2\n      swap1\n      pop\n      jump\t// out\n        /* \"#utility.yul\":21934:22157   */\n    tag_684:\n        /* \"#utility.yul\":22074:22108   */\n      0x45524332303a20617070726f76652066726f6d20746865207a65726f20616464\n        /* \"#utility.yul\":22070:22071   */\n      0x00\n        /* \"#utility.yul\":22062:22068   */\n      dup3\n        /* \"#utility.yul\":22058:22072   */\n      add\n        /* \"#utility.yul\":22051:22109   */\n      mstore\n        /* \"#utility.yul\":22143:22149   */\n      0x7265737300000000000000000000000000000000000000000000000000000000\n        /* \"#utility.yul\":22138:22140   */\n      0x20\n        /* \"#utility.yul\":22130:22136   */\n      dup3\n        /* \"#utility.yul\":22126:22141   */\n      add\n        /* \"#utility.yul\":22119:22150   */\n      mstore\n        /* \"#utility.yul\":21934:22157   */\n      pop\n      jump\t// out\n        /* \"#utility.yul\":22163:22529   */\n    tag_685:\n        /* \"#utility.yul\":22305:22308   */\n      0x00\n        /* \"#utility.yul\":22326:22393   */\n      tag_932\n        /* \"#utility.yul\":22390:22392   */\n      0x24\n        /* \"#utility.yul\":22385:22388   */\n      dup4\n        /* \"#utility.yul\":22326:22393   */\n      tag_634\n      jump\t// in\n    tag_932:\n        /* \"#utility.yul\":22319:22393   */\n      swap2\n      pop\n        /* \"#utility.yul\":22402:22495   */\n      tag_933\n        /* \"#utility.yul\":22491:22494   */\n      dup3\n        /* \"#utility.yul\":22402:22495   */\n      tag_684\n      jump\t// in\n    tag_933:\n        /* \"#utility.yul\":22520:22522   */\n      0x40\n        /* \"#utility.yul\":22515:22518   */\n      dup3\n        /* \"#utility.yul\":22511:22523   */\n      add\n        /* \"#utility.yul\":22504:22523   */\n      swap1\n      pop\n        /* \"#utility.yul\":22163:22529   */\n      swap2\n      swap1\n      pop\n      jump\t// out\n        /* \"#utility.yul\":22535:22954   */\n    tag_464:\n        /* \"#utility.yul\":22701:22705   */\n      0x00\n        /* \"#utility.yul\":22739:22741   */\n      0x20\n        /* \"#utility.yul\":22728:22737   */\n      dup3\n        /* \"#utility.yul\":22724:22742   */\n      add\n        /* \"#utility.yul\":22716:22742   */\n      swap1\n      pop\n        /* \"#utility.yul\":22788:22797   */\n      dup2\n        /* \"#utility.yul\":22782:22786   */\n      dup2\n        /* \"#utility.yul\":22778:22798   */\n      sub\n        /* \"#utility.yul\":22774:22775   */\n      0x00\n        /* \"#utility.yul\":22763:22772   */\n      dup4\n        /* \"#utility.yul\":22759:22776   */\n      add\n        /* \"#utility.yul\":22752:22799   */\n      mstore\n        /* \"#utility.yul\":22816:22947   */\n      tag_935\n        /* \"#utility.yul\":22942:22946   */\n      dup2\n        /* \"#utility.yul\":22816:22947   */\n      tag_685\n      jump\t// in\n    tag_935:\n        /* \"#utility.yul\":22808:22947   */\n      swap1\n      pop\n        /* \"#utility.yul\":22535:22954   */\n      swap2\n      swap1\n      pop\n      jump\t// out\n        /* \"#utility.yul\":22960:23181   */\n    tag_686:\n        /* \"#utility.yul\":23100:23134   */\n      0x45524332303a20617070726f766520746f20746865207a65726f206164647265\n        /* \"#utility.yul\":23096:23097   */\n      0x00\n        /* \"#utility.yul\":23088:23094   */\n      dup3\n        /* \"#utility.yul\":23084:23098   */\n      add\n        /* \"#utility.yul\":23077:23135   */\n      mstore\n        /* \"#utility.yul\":23169:23173   */\n      0x7373000000000000000000000000000000000000000000000000000000000000\n        /* \"#utility.yul\":23164:23166   */\n      0x20\n        /* \"#utility.yul\":23156:23162   */\n      dup3\n        /* \"#utility.yul\":23152:23167   */\n      add\n        /* \"#utility.yul\":23145:23174   */\n      mstore\n        /* \"#utility.yul\":22960:23181   */\n      pop\n      jump\t// out\n        /* \"#utility.yul\":23187:23553   */\n    tag_687:\n        /* \"#utility.yul\":23329:23332   */\n      0x00\n        /* \"#utility.yul\":23350:23417   */\n      tag_938\n        /* \"#utility.yul\":23414:23416   */\n      0x22\n        /* \"#utility.yul\":23409:23412   */\n      dup4\n        /* \"#utility.yul\":23350:23417   */\n      tag_634\n      jump\t// in\n    tag_938:\n        /* \"#utility.yul\":23343:23417   */\n      swap2\n      pop\n        /* \"#utility.yul\":23426:23519   */\n      tag_939\n        /* \"#utility.yul\":23515:23518   */\n      dup3\n        /* \"#utility.yul\":23426:23519   */\n      tag_686\n      jump\t// in\n    tag_939:\n        /* \"#utility.yul\":23544:23546   */\n      0x40\n        /* \"#utility.yul\":23539:23542   */\n      dup3\n        /* \"#utility.yul\":23535:23547   */\n      add\n        /* \"#utility.yul\":23528:23547   */\n      swap1\n      pop\n        /* \"#utility.yul\":23187:23553   */\n      swap2\n      swap1\n      pop\n      jump\t// out\n        /* \"#utility.yul\":23559:23978   */\n    tag_467:\n        /* \"#utility.yul\":23725:23729   */\n      0x00\n        /* \"#utility.yul\":23763:23765   */\n      0x20\n        /* \"#utility.yul\":23752:23761   */\n      dup3\n        /* \"#utility.yul\":23748:23766   */\n      add\n        /* \"#utility.yul\":23740:23766   */\n      swap1\n      pop\n        /* \"#utility.yul\":23812:23821   */\n      dup2\n        /* \"#utility.yul\":23806:23810   */\n      dup2\n        /* \"#utility.yul\":23802:23822   */\n      sub\n        /* \"#utility.yul\":23798:23799   */\n      0x00\n        /* \"#utility.yul\":23787:23796   */\n      dup4\n        /* \"#utility.yul\":23783:23800   */\n      add\n        /* \"#utility.yul\":23776:23823   */\n      mstore\n        /* \"#utility.yul\":23840:23971   */\n      tag_941\n        /* \"#utility.yul\":23966:23970   */\n      dup2\n        /* \"#utility.yul\":23840:23971   */\n      tag_687\n      jump\t// in\n    tag_941:\n        /* \"#utility.yul\":23832:23971   */\n      swap1\n      pop\n        /* \"#utility.yul\":23559:23978   */\n      swap2\n      swap1\n      pop\n      jump\t// out\n        /* \"#utility.yul\":23984:24163   */\n    tag_688:\n        /* \"#utility.yul\":24124:24155   */\n      0x45524332303a20696e73756666696369656e7420616c6c6f77616e6365000000\n        /* \"#utility.yul\":24120:24121   */\n      0x00\n        /* \"#utility.yul\":24112:24118   */\n      dup3\n        /* \"#utility.yul\":24108:24122   */\n      add\n        /* \"#utility.yul\":24101:24156   */\n      mstore\n        /* \"#utility.yul\":23984:24163   */\n      pop\n      jump\t// out\n        /* \"#utility.yul\":24169:24535   */\n    tag_689:\n        /* \"#utility.yul\":24311:24314   */\n      0x00\n        /* \"#utility.yul\":24332:24399   */\n      tag_944\n        /* \"#utility.yul\":24396:24398   */\n      0x1d\n        /* \"#utility.yul\":24391:24394   */\n      dup4\n        /* \"#utility.yul\":24332:24399   */\n      tag_634\n      jump\t// in\n    tag_944:\n        /* \"#utility.yul\":24325:24399   */\n      swap2\n      pop\n        /* \"#utility.yul\":24408:24501   */\n      tag_945\n        /* \"#utility.yul\":24497:24500   */\n      dup3\n        /* \"#utility.yul\":24408:24501   */\n      tag_688\n      jump\t// in\n    tag_945:\n        /* \"#utility.yul\":24526:24528   */\n      0x20\n        /* \"#utility.yul\":24521:24524   */\n      dup3\n        /* \"#utility.yul\":24517:24529   */\n      add\n        /* \"#utility.yul\":24510:24529   */\n      swap1\n      pop\n        /* \"#utility.yul\":24169:24535   */\n      swap2\n      swap1\n      pop\n      jump\t// out\n        /* \"#utility.yul\":24541:24960   */\n    tag_474:\n        /* \"#utility.yul\":24707:24711   */\n      0x00\n        /* \"#utility.yul\":24745:24747   */\n      0x20\n        /* \"#utility.yul\":24734:24743   */\n      dup3\n        /* \"#utility.yul\":24730:24748   */\n      add\n        /* \"#utility.yul\":24722:24748   */\n      swap1\n      pop\n        /* \"#utility.yul\":24794:24803   */\n      dup2\n        /* \"#utility.yul\":24788:24792   */\n      dup2\n        /* \"#utility.yul\":24784:24804   */\n      sub\n        /* \"#utility.yul\":24780:24781   */\n      0x00\n        /* \"#utility.yul\":24769:24778   */\n      dup4\n        /* \"#utility.yul\":24765:24782   */\n      add\n        /* \"#utility.yul\":24758:24805   */\n      mstore\n        /* \"#utility.yul\":24822:24953   */\n      tag_947\n        /* \"#utility.yul\":24948:24952   */\n      dup2\n        /* \"#utility.yul\":24822:24953   */\n      tag_689\n      jump\t// in\n    tag_947:\n        /* \"#utility.yul\":24814:24953   */\n      swap1\n      pop\n        /* \"#utility.yul\":24541:24960   */\n      swap2\n      swap1\n      pop\n      jump\t// out\n        /* \"#utility.yul\":24966:25190   */\n    tag_690:\n        /* \"#utility.yul\":25106:25140   */\n      0x45524332303a207472616e736665722066726f6d20746865207a65726f206164\n        /* \"#utility.yul\":25102:25103   */\n      0x00\n        /* \"#utility.yul\":25094:25100   */\n      dup3\n        /* \"#utility.yul\":25090:25104   */\n      add\n        /* \"#utility.yul\":25083:25141   */\n      mstore\n        /* \"#utility.yul\":25175:25182   */\n      0x6472657373000000000000000000000000000000000000000000000000000000\n        /* \"#utility.yul\":25170:25172   */\n      0x20\n        /* \"#utility.yul\":25162:25168   */\n      dup3\n        /* \"#utility.yul\":25158:25173   */\n      add\n        /* \"#utility.yul\":25151:25183   */\n      mstore\n        /* \"#utility.yul\":24966:25190   */\n      pop\n      jump\t// out\n        /* \"#utility.yul\":25196:25562   */\n    tag_691:\n        /* \"#utility.yul\":25338:25341   */\n      0x00\n        /* \"#utility.yul\":25359:25426   */\n      tag_950\n        /* \"#utility.yul\":25423:25425   */\n      0x25\n        /* \"#utility.yul\":25418:25421   */\n      dup4\n        /* \"#utility.yul\":25359:25426   */\n      tag_634\n      jump\t// in\n    tag_950:\n        /* \"#utility.yul\":25352:25426   */\n      swap2\n      pop\n        /* \"#utility.yul\":25435:25528   */\n      tag_951\n        /* \"#utility.yul\":25524:25527   */\n      dup3\n        /* \"#utility.yul\":25435:25528   */\n      tag_690\n      jump\t// in\n    tag_951:\n        /* \"#utility.yul\":25553:25555   */\n      0x40\n        /* \"#utility.yul\":25548:25551   */\n      dup3\n        /* \"#utility.yul\":25544:25556   */\n      add\n        /* \"#utility.yul\":25537:25556   */\n      swap1\n      pop\n        /* \"#utility.yul\":25196:25562   */\n      swap2\n      swap1\n      pop\n      jump\t// out\n        /* \"#utility.yul\":25568:25987   */\n    tag_479:\n        /* \"#utility.yul\":25734:25738   */\n      0x00\n        /* \"#utility.yul\":25772:25774   */\n      0x20\n        /* \"#utility.yul\":25761:25770   */\n      dup3\n        /* \"#utility.yul\":25757:25775   */\n      add\n        /* \"#utility.yul\":25749:25775   */\n      swap1\n      pop\n        /* \"#utility.yul\":25821:25830   */\n      dup2\n        /* \"#utility.yul\":25815:25819   */\n      dup2\n        /* \"#utility.yul\":25811:25831   */\n      sub\n        /* \"#utility.yul\":25807:25808   */\n      0x00\n        /* \"#utility.yul\":25796:25805   */\n      dup4\n        /* \"#utility.yul\":25792:25809   */\n      add\n        /* \"#utility.yul\":25785:25832   */\n      mstore\n        /* \"#utility.yul\":25849:25980   */\n      tag_953\n        /* \"#utility.yul\":25975:25979   */\n      dup2\n        /* \"#utility.yul\":25849:25980   */\n      tag_691\n      jump\t// in\n    tag_953:\n        /* \"#utility.yul\":25841:25980   */\n      swap1\n      pop\n        /* \"#utility.yul\":25568:25987   */\n      swap2\n      swap1\n      pop\n      jump\t// out\n        /* \"#utility.yul\":25993:26221   */\n    tag_692:\n        /* \"#utility.yul\":26133:26167   */\n      0x5472616e7366657220616d6f756e74206d757374206265206772656174657220\n        /* \"#utility.yul\":26129:26130   */\n      0x00\n        /* \"#utility.yul\":26121:26127   */\n      dup3\n        /* \"#utility.yul\":26117:26131   */\n      add\n        /* \"#utility.yul\":26110:26168   */\n      mstore\n        /* \"#utility.yul\":26202:26213   */\n      0x7468616e207a65726f0000000000000000000000000000000000000000000000\n        /* \"#utility.yul\":26197:26199   */\n      0x20\n        /* \"#utility.yul\":26189:26195   */\n      dup3\n        /* \"#utility.yul\":26185:26200   */\n      add\n        /* \"#utility.yul\":26178:26214   */\n      mstore\n        /* \"#utility.yul\":25993:26221   */\n      pop\n      jump\t// out\n        /* \"#utility.yul\":26227:26593   */\n    tag_693:\n        /* \"#utility.yul\":26369:26372   */\n      0x00\n        /* \"#utility.yul\":26390:26457   */\n      tag_956\n        /* \"#utility.yul\":26454:26456   */\n      0x29\n        /* \"#utility.yul\":26449:26452   */\n      dup4\n        /* \"#utility.yul\":26390:26457   */\n      tag_634\n      jump\t// in\n    tag_956:\n        /* \"#utility.yul\":26383:26457   */\n      swap2\n      pop\n        /* \"#utility.yul\":26466:26559   */\n      tag_957\n        /* \"#utility.yul\":26555:26558   */\n      dup3\n        /* \"#utility.yul\":26466:26559   */\n      tag_692\n      jump\t// in\n    tag_957:\n        /* \"#utility.yul\":26584:26586   */\n      0x40\n        /* \"#utility.yul\":26579:26582   */\n      dup3\n        /* \"#utility.yul\":26575:26587   */\n      add\n        /* \"#utility.yul\":26568:26587   */\n      swap1\n      pop\n        /* \"#utility.yul\":26227:26593   */\n      swap2\n      swap1\n      pop\n      jump\t// out\n        /* \"#utility.yul\":26599:27018   */\n    tag_484:\n        /* \"#utility.yul\":26765:26769   */\n      0x00\n        /* \"#utility.yul\":26803:26805   */\n      0x20\n        /* \"#utility.yul\":26792:26801   */\n      dup3\n        /* \"#utility.yul\":26788:26806   */\n      add\n        /* \"#utility.yul\":26780:26806   */\n      swap1\n      pop\n        /* \"#utility.yul\":26852:26861   */\n      dup2\n        /* \"#utility.yul\":26846:26850   */\n      dup2\n        /* \"#utility.yul\":26842:26862   */\n      sub\n        /* \"#utility.yul\":26838:26839   */\n      0x00\n        /* \"#utility.yul\":26827:26836   */\n      dup4\n        /* \"#utility.yul\":26823:26840   */\n      add\n        /* \"#utility.yul\":26816:26863   */\n      mstore\n        /* \"#utility.yul\":26880:27011   */\n      tag_959\n        /* \"#utility.yul\":27006:27010   */\n      dup2\n        /* \"#utility.yul\":26880:27011   */\n      tag_693\n      jump\t// in\n    tag_959:\n        /* \"#utility.yul\":26872:27011   */\n      swap1\n      pop\n        /* \"#utility.yul\":26599:27018   */\n      swap2\n      swap1\n      pop\n      jump\t// out\n        /* \"#utility.yul\":27024:27195   */\n    tag_694:\n        /* \"#utility.yul\":27164:27187   */\n      0x53656e64657220697320626c61636b6c69737465640000000000000000000000\n        /* \"#utility.yul\":27160:27161   */\n      0x00\n        /* \"#utility.yul\":27152:27158   */\n      dup3\n        /* \"#utility.yul\":27148:27162   */\n      add\n        /* \"#utility.yul\":27141:27188   */\n      mstore\n        /* \"#utility.yul\":27024:27195   */\n      pop\n      jump\t// out\n        /* \"#utility.yul\":27201:27567   */\n    tag_695:\n        /* \"#utility.yul\":27343:27346   */\n      0x00\n        /* \"#utility.yul\":27364:27431   */\n      tag_962\n        /* \"#utility.yul\":27428:27430   */\n      0x15\n        /* \"#utility.yul\":27423:27426   */\n      dup4\n        /* \"#utility.yul\":27364:27431   */\n      tag_634\n      jump\t// in\n    tag_962:\n        /* \"#utility.yul\":27357:27431   */\n      swap2\n      pop\n        /* \"#utility.yul\":27440:27533   */\n      tag_963\n        /* \"#utility.yul\":27529:27532   */\n      dup3\n        /* \"#utility.yul\":27440:27533   */\n      tag_694\n      jump\t// in\n    tag_963:\n        /* \"#utility.yul\":27558:27560   */\n      0x20\n        /* \"#utility.yul\":27553:27556   */\n      dup3\n        /* \"#utility.yul\":27549:27561   */\n      add\n        /* \"#utility.yul\":27542:27561   */\n      swap1\n      pop\n        /* \"#utility.yul\":27201:27567   */\n      swap2\n      swap1\n      pop\n      jump\t// out\n        /* \"#utility.yul\":27573:27992   */\n    tag_487:\n        /* \"#utility.yul\":27739:27743   */\n      0x00\n        /* \"#utility.yul\":27777:27779   */\n      0x20\n        /* \"#utility.yul\":27766:27775   */\n      dup3\n        /* \"#utility.yul\":27762:27780   */\n      add\n        /* \"#utility.yul\":27754:27780   */\n      swap1\n      pop\n        /* \"#utility.yul\":27826:27835   */\n      dup2\n        /* \"#utility.yul\":27820:27824   */\n      dup2\n        /* \"#utility.yul\":27816:27836   */\n      sub\n        /* \"#utility.yul\":27812:27813   */\n      0x00\n        /* \"#utility.yul\":27801:27810   */\n      dup4\n        /* \"#utility.yul\":27797:27814   */\n      add\n        /* \"#utility.yul\":27790:27837   */\n      mstore\n        /* \"#utility.yul\":27854:27985   */\n      tag_965\n        /* \"#utility.yul\":27980:27984   */\n      dup2\n        /* \"#utility.yul\":27854:27985   */\n      tag_695\n      jump\t// in\n    tag_965:\n        /* \"#utility.yul\":27846:27985   */\n      swap1\n      pop\n        /* \"#utility.yul\":27573:27992   */\n      swap2\n      swap1\n      pop\n      jump\t// out\n        /* \"#utility.yul\":27998:28172   */\n    tag_696:\n        /* \"#utility.yul\":28138:28164   */\n      0x526563697069656e7420697320626c61636b6c69737465640000000000000000\n        /* \"#utility.yul\":28134:28135   */\n      0x00\n        /* \"#utility.yul\":28126:28132   */\n      dup3\n        /* \"#utility.yul\":28122:28136   */\n      add\n        /* \"#utility.yul\":28115:28165   */\n      mstore\n        /* \"#utility.yul\":27998:28172   */\n      pop\n      jump\t// out\n        /* \"#utility.yul\":28178:28544   */\n    tag_697:\n        /* \"#utility.yul\":28320:28323   */\n      0x00\n        /* \"#utility.yul\":28341:28408   */\n      tag_968\n        /* \"#utility.yul\":28405:28407   */\n      0x18\n        /* \"#utility.yul\":28400:28403   */\n      dup4\n        /* \"#utility.yul\":28341:28408   */\n      tag_634\n      jump\t// in\n    tag_968:\n        /* \"#utility.yul\":28334:28408   */\n      swap2\n      pop\n        /* \"#utility.yul\":28417:28510   */\n      tag_969\n        /* \"#utility.yul\":28506:28509   */\n      dup3\n        /* \"#utility.yul\":28417:28510   */\n      tag_696\n      jump\t// in\n    tag_969:\n        /* \"#utility.yul\":28535:28537   */\n      0x20\n        /* \"#utility.yul\":28530:28533   */\n      dup3\n        /* \"#utility.yul\":28526:28538   */\n      add\n        /* \"#utility.yul\":28519:28538   */\n      swap1\n      pop\n        /* \"#utility.yul\":28178:28544   */\n      swap2\n      swap1\n      pop\n      jump\t// out\n        /* \"#utility.yul\":28550:28969   */\n    tag_490:\n        /* \"#utility.yul\":28716:28720   */\n      0x00\n        /* \"#utility.yul\":28754:28756   */\n      0x20\n        /* \"#utility.yul\":28743:28752   */\n      dup3\n        /* \"#utility.yul\":28739:28757   */\n      add\n        /* \"#utility.yul\":28731:28757   */\n      swap1\n      pop\n        /* \"#utility.yul\":28803:28812   */\n      dup2\n        /* \"#utility.yul\":28797:28801   */\n      dup2\n        /* \"#utility.yul\":28793:28813   */\n      sub\n        /* \"#utility.yul\":28789:28790   */\n      0x00\n        /* \"#utility.yul\":28778:28787   */\n      dup4\n        /* \"#utility.yul\":28774:28791   */\n      add\n        /* \"#utility.yul\":28767:28814   */\n      mstore\n        /* \"#utility.yul\":28831:28962   */\n      tag_971\n        /* \"#utility.yul\":28957:28961   */\n      dup2\n        /* \"#utility.yul\":28831:28962   */\n      tag_697\n      jump\t// in\n    tag_971:\n        /* \"#utility.yul\":28823:28962   */\n      swap1\n      pop\n        /* \"#utility.yul\":28550:28969   */\n      swap2\n      swap1\n      pop\n      jump\t// out\n        /* \"#utility.yul\":28975:29144   */\n    tag_698:\n        /* \"#utility.yul\":29115:29136   */\n      0x54726164696e672069732064697361626c656400000000000000000000000000\n        /* \"#utility.yul\":29111:29112   */\n      0x00\n        /* \"#utility.yul\":29103:29109   */\n      dup3\n        /* \"#utility.yul\":29099:29113   */\n      add\n        /* \"#utility.yul\":29092:29137   */\n      mstore\n        /* \"#utility.yul\":28975:29144   */\n      pop\n      jump\t// out\n        /* \"#utility.yul\":29150:29516   */\n    tag_699:\n        /* \"#utility.yul\":29292:29295   */\n      0x00\n        /* \"#utility.yul\":29313:29380   */\n      tag_974\n        /* \"#utility.yul\":29377:29379   */\n      0x13\n        /* \"#utility.yul\":29372:29375   */\n      dup4\n        /* \"#utility.yul\":29313:29380   */\n      tag_634\n      jump\t// in\n    tag_974:\n        /* \"#utility.yul\":29306:29380   */\n      swap2\n      pop\n        /* \"#utility.yul\":29389:29482   */\n      tag_975\n        /* \"#utility.yul\":29478:29481   */\n      dup3\n        /* \"#utility.yul\":29389:29482   */\n      tag_698\n      jump\t// in\n    tag_975:\n        /* \"#utility.yul\":29507:29509   */\n      0x20\n        /* \"#utility.yul\":29502:29505   */\n      dup3\n        /* \"#utility.yul\":29498:29510   */\n      add\n        /* \"#utility.yul\":29491:29510   */\n      swap1\n      pop\n        /* \"#utility.yul\":29150:29516   */\n      swap2\n      swap1\n      pop\n      jump\t// out\n        /* \"#utility.yul\":29522:29941   */\n    tag_501:\n        /* \"#utility.yul\":29688:29692   */\n      0x00\n        /* \"#utility.yul\":29726:29728   */\n      0x20\n        /* \"#utility.yul\":29715:29724   */\n      dup3\n        /* \"#utility.yul\":29711:29729   */\n      add\n        /* \"#utility.yul\":29703:29729   */\n      swap1\n      pop\n        /* \"#utility.yul\":29775:29784   */\n      dup2\n        /* \"#utility.yul\":29769:29773   */\n      dup2\n        /* \"#utility.yul\":29765:29785   */\n      sub\n        /* \"#utility.yul\":29761:29762   */\n      0x00\n        /* \"#utility.yul\":29750:29759   */\n      dup4\n        /* \"#utility.yul\":29746:29763   */\n      add\n        /* \"#utility.yul\":29739:29786   */\n      mstore\n        /* \"#utility.yul\":29803:29934   */\n      tag_977\n        /* \"#utility.yul\":29929:29933   */\n      dup2\n        /* \"#utility.yul\":29803:29934   */\n      tag_699\n      jump\t// in\n    tag_977:\n        /* \"#utility.yul\":29795:29934   */\n      swap1\n      pop\n        /* \"#utility.yul\":29522:29941   */\n      swap2\n      swap1\n      pop\n      jump\t// out\n        /* \"#utility.yul\":29947:30127   */\n    tag_700:\n        /* \"#utility.yul\":30087:30119   */\n      0x43616e6e6f7420627579206d6f7265207468616e206d6178206c696d69740000\n        /* \"#utility.yul\":30083:30084   */\n      0x00\n        /* \"#utility.yul\":30075:30081   */\n      dup3\n        /* \"#utility.yul\":30071:30085   */\n      add\n        /* \"#utility.yul\":30064:30120   */\n      mstore\n        /* \"#utility.yul\":29947:30127   */\n      pop\n      jump\t// out\n        /* \"#utility.yul\":30133:30499   */\n    tag_701:\n        /* \"#utility.yul\":30275:30278   */\n      0x00\n        /* \"#utility.yul\":30296:30363   */\n      tag_980\n        /* \"#utility.yul\":30360:30362   */\n      0x1e\n        /* \"#utility.yul\":30355:30358   */\n      dup4\n        /* \"#utility.yul\":30296:30363   */\n      tag_634\n      jump\t// in\n    tag_980:\n        /* \"#utility.yul\":30289:30363   */\n      swap2\n      pop\n        /* \"#utility.yul\":30372:30465   */\n      tag_981\n        /* \"#utility.yul\":30461:30464   */\n      dup3\n        /* \"#utility.yul\":30372:30465   */\n      tag_700\n      jump\t// in\n    tag_981:\n        /* \"#utility.yul\":30490:30492   */\n      0x20\n        /* \"#utility.yul\":30485:30488   */\n      dup3\n        /* \"#utility.yul\":30481:30493   */\n      add\n        /* \"#utility.yul\":30474:30493   */\n      swap1\n      pop\n        /* \"#utility.yul\":30133:30499   */\n      swap2\n      swap1\n      pop\n      jump\t// out\n        /* \"#utility.yul\":30505:30924   */\n    tag_521:\n        /* \"#utility.yul\":30671:30675   */\n      0x00\n        /* \"#utility.yul\":30709:30711   */\n      0x20\n        /* \"#utility.yul\":30698:30707   */\n      dup3\n        /* \"#utility.yul\":30694:30712   */\n      add\n        /* \"#utility.yul\":30686:30712   */\n      swap1\n      pop\n        /* \"#utility.yul\":30758:30767   */\n      dup2\n        /* \"#utility.yul\":30752:30756   */\n      dup2\n        /* \"#utility.yul\":30748:30768   */\n      sub\n        /* \"#utility.yul\":30744:30745   */\n      0x00\n        /* \"#utility.yul\":30733:30742   */\n      dup4\n        /* \"#utility.yul\":30729:30746   */\n      add\n        /* \"#utility.yul\":30722:30769   */\n      mstore\n        /* \"#utility.yul\":30786:30917   */\n      tag_983\n        /* \"#utility.yul\":30912:30916   */\n      dup2\n        /* \"#utility.yul\":30786:30917   */\n      tag_701\n      jump\t// in\n    tag_983:\n        /* \"#utility.yul\":30778:30917   */\n      swap1\n      pop\n        /* \"#utility.yul\":30505:30924   */\n      swap2\n      swap1\n      pop\n      jump\t// out\n        /* \"#utility.yul\":30930:31111   */\n    tag_702:\n        /* \"#utility.yul\":31070:31103   */\n      0x43616e6e6f742073656c6c206d6f7265207468616e206d6178206c696d697400\n        /* \"#utility.yul\":31066:31067   */\n      0x00\n        /* \"#utility.yul\":31058:31064   */\n      dup3\n        /* \"#utility.yul\":31054:31068   */\n      add\n        /* \"#utility.yul\":31047:31104   */\n      mstore\n        /* \"#utility.yul\":30930:31111   */\n      pop\n      jump\t// out\n        /* \"#utility.yul\":31117:31483   */\n    tag_703:\n        /* \"#utility.yul\":31259:31262   */\n      0x00\n        /* \"#utility.yul\":31280:31347   */\n      tag_986\n        /* \"#utility.yul\":31344:31346   */\n      0x1f\n        /* \"#utility.yul\":31339:31342   */\n      dup4\n        /* \"#utility.yul\":31280:31347   */\n      tag_634\n      jump\t// in\n    tag_986:\n        /* \"#utility.yul\":31273:31347   */\n      swap2\n      pop\n        /* \"#utility.yul\":31356:31449   */\n      tag_987\n        /* \"#utility.yul\":31445:31448   */\n      dup3\n        /* \"#utility.yul\":31356:31449   */\n      tag_702\n      jump\t// in\n    tag_987:\n        /* \"#utility.yul\":31474:31476   */\n      0x20\n        /* \"#utility.yul\":31469:31472   */\n      dup3\n        /* \"#utility.yul\":31465:31477   */\n      add\n        /* \"#utility.yul\":31458:31477   */\n      swap1\n      pop\n        /* \"#utility.yul\":31117:31483   */\n      swap2\n      swap1\n      pop\n      jump\t// out\n        /* \"#utility.yul\":31489:31908   */\n    tag_538:\n        /* \"#utility.yul\":31655:31659   */\n      0x00\n        /* \"#utility.yul\":31693:31695   */\n      0x20\n        /* \"#utility.yul\":31682:31691   */\n      dup3\n        /* \"#utility.yul\":31678:31696   */\n      add\n        /* \"#utility.yul\":31670:31696   */\n      swap1\n      pop\n        /* \"#utility.yul\":31742:31751   */\n      dup2\n        /* \"#utility.yul\":31736:31740   */\n      dup2\n        /* \"#utility.yul\":31732:31752   */\n      sub\n        /* \"#utility.yul\":31728:31729   */\n      0x00\n        /* \"#utility.yul\":31717:31726   */\n      dup4\n        /* \"#utility.yul\":31713:31730   */\n      add\n        /* \"#utility.yul\":31706:31753   */\n      mstore\n        /* \"#utility.yul\":31770:31901   */\n      tag_989\n        /* \"#utility.yul\":31896:31900   */\n      dup2\n        /* \"#utility.yul\":31770:31901   */\n      tag_703\n      jump\t// in\n    tag_989:\n        /* \"#utility.yul\":31762:31901   */\n      swap1\n      pop\n        /* \"#utility.yul\":31489:31908   */\n      swap2\n      swap1\n      pop\n      jump\t// out\n        /* \"#utility.yul\":31914:32108   */\n    tag_548:\n        /* \"#utility.yul\":31954:31958   */\n      0x00\n        /* \"#utility.yul\":31974:31994   */\n      tag_991\n        /* \"#utility.yul\":31992:31993   */\n      dup3\n        /* \"#utility.yul\":31974:31994   */\n      tag_641\n      jump\t// in\n    tag_991:\n        /* \"#utility.yul\":31969:31994   */\n      swap2\n      pop\n        /* \"#utility.yul\":32008:32028   */\n      tag_992\n        /* \"#utility.yul\":32026:32027   */\n      dup4\n        /* \"#utility.yul\":32008:32028   */\n      tag_641\n      jump\t// in\n    tag_992:\n        /* \"#utility.yul\":32003:32028   */\n      swap3\n      pop\n        /* \"#utility.yul\":32052:32053   */\n      dup3\n        /* \"#utility.yul\":32049:32050   */\n      dup3\n        /* \"#utility.yul\":32045:32054   */\n      sub\n        /* \"#utility.yul\":32037:32054   */\n      swap1\n      pop\n        /* \"#utility.yul\":32076:32077   */\n      dup2\n        /* \"#utility.yul\":32070:32074   */\n      dup2\n        /* \"#utility.yul\":32067:32078   */\n      gt\n        /* \"#utility.yul\":32064:32101   */\n      iszero\n      tag_993\n      jumpi\n        /* \"#utility.yul\":32081:32099   */\n      tag_994\n      tag_668\n      jump\t// in\n    tag_994:\n        /* \"#utility.yul\":32064:32101   */\n    tag_993:\n        /* \"#utility.yul\":31914:32108   */\n      swap3\n      swap2\n      pop\n      pop\n      jump\t// out\n        /* \"#utility.yul\":32114:32339   */\n    tag_704:\n        /* \"#utility.yul\":32254:32288   */\n      0x45524332303a207472616e7366657220616d6f756e7420657863656564732062\n        /* \"#utility.yul\":32250:32251   */\n      0x00\n        /* \"#utility.yul\":32242:32248   */\n      dup3\n        /* \"#utility.yul\":32238:32252   */\n      add\n        /* \"#utility.yul\":32231:32289   */\n      mstore\n        /* \"#utility.yul\":32323:32331   */\n      0x616c616e63650000000000000000000000000000000000000000000000000000\n        /* \"#utility.yul\":32318:32320   */\n      0x20\n        /* \"#utility.yul\":32310:32316   */\n      dup3\n        /* \"#utility.yul\":32306:32321   */\n      add\n        /* \"#utility.yul\":32299:32332   */\n      mstore\n        /* \"#utility.yul\":32114:32339   */\n      pop\n      jump\t// out\n        /* \"#utility.yul\":32345:32711   */\n    tag_705:\n        /* \"#utility.yul\":32487:32490   */\n      0x00\n        /* \"#utility.yul\":32508:32575   */\n      tag_997\n        /* \"#utility.yul\":32572:32574   */\n      0x26\n        /* \"#utility.yul\":32567:32570   */\n      dup4\n        /* \"#utility.yul\":32508:32575   */\n      tag_634\n      jump\t// in\n    tag_997:\n        /* \"#utility.yul\":32501:32575   */\n      swap2\n      pop\n        /* \"#utility.yul\":32584:32677   */\n      tag_998\n        /* \"#utility.yul\":32673:32676   */\n      dup3\n        /* \"#utility.yul\":32584:32677   */\n      tag_704\n      jump\t// in\n    tag_998:\n        /* \"#utility.yul\":32702:32704   */\n      0x40\n        /* \"#utility.yul\":32697:32700   */\n      dup3\n        /* \"#utility.yul\":32693:32705   */\n      add\n        /* \"#utility.yul\":32686:32705   */\n      swap1\n      pop\n        /* \"#utility.yul\":32345:32711   */\n      swap2\n      swap1\n      pop\n      jump\t// out\n        /* \"#utility.yul\":32717:33136   */\n    tag_555:\n        /* \"#utility.yul\":32883:32887   */\n      0x00\n        /* \"#utility.yul\":32921:32923   */\n      0x20\n        /* \"#utility.yul\":32910:32919   */\n      dup3\n        /* \"#utility.yul\":32906:32924   */\n      add\n        /* \"#utility.yul\":32898:32924   */\n      swap1\n      pop\n        /* \"#utility.yul\":32970:32979   */\n      dup2\n        /* \"#utility.yul\":32964:32968   */\n      dup2\n        /* \"#utility.yul\":32960:32980   */\n      sub\n        /* \"#utility.yul\":32956:32957   */\n      0x00\n        /* \"#utility.yul\":32945:32954   */\n      dup4\n        /* \"#utility.yul\":32941:32958   */\n      add\n        /* \"#utility.yul\":32934:32981   */\n      mstore\n        /* \"#utility.yul\":32998:33129   */\n      tag_1000\n        /* \"#utility.yul\":33124:33128   */\n      dup2\n        /* \"#utility.yul\":32998:33129   */\n      tag_705\n      jump\t// in\n    tag_1000:\n        /* \"#utility.yul\":32990:33129   */\n      swap1\n      pop\n        /* \"#utility.yul\":32717:33136   */\n      swap2\n      swap1\n      pop\n      jump\t// out\n        /* \"#utility.yul\":33142:33289   */\n    tag_706:\n        /* \"#utility.yul\":33243:33254   */\n      0x00\n        /* \"#utility.yul\":33280:33283   */\n      dup2\n        /* \"#utility.yul\":33265:33283   */\n      swap1\n      pop\n        /* \"#utility.yul\":33142:33289   */\n      swap3\n      swap2\n      pop\n      pop\n      jump\t// out\n        /* \"#utility.yul\":33295:33409   */\n    tag_707:\n      pop\n      jump\t// out\n        /* \"#utility.yul\":33415:33813   */\n    tag_708:\n        /* \"#utility.yul\":33574:33577   */\n      0x00\n        /* \"#utility.yul\":33595:33678   */\n      tag_1004\n        /* \"#utility.yul\":33676:33677   */\n      0x00\n        /* \"#utility.yul\":33671:33674   */\n      dup4\n        /* \"#utility.yul\":33595:33678   */\n      tag_706\n      jump\t// in\n    tag_1004:\n        /* \"#utility.yul\":33588:33678   */\n      swap2\n      pop\n        /* \"#utility.yul\":33687:33780   */\n      tag_1005\n        /* \"#utility.yul\":33776:33779   */\n      dup3\n        /* \"#utility.yul\":33687:33780   */\n      tag_707\n      jump\t// in\n    tag_1005:\n        /* \"#utility.yul\":33805:33806   */\n      0x00\n        /* \"#utility.yul\":33800:33803   */\n      dup3\n        /* \"#utility.yul\":33796:33807   */\n      add\n        /* \"#utility.yul\":33789:33807   */\n      swap1\n      pop\n        /* \"#utility.yul\":33415:33813   */\n      swap2\n      swap1\n      pop\n      jump\t// out\n        /* \"#utility.yul\":33819:34198   */\n    tag_581:\n        /* \"#utility.yul\":34003:34006   */\n      0x00\n        /* \"#utility.yul\":34025:34172   */\n      tag_1007\n        /* \"#utility.yul\":34168:34171   */\n      dup3\n        /* \"#utility.yul\":34025:34172   */\n      tag_708\n      jump\t// in\n    tag_1007:\n        /* \"#utility.yul\":34018:34172   */\n      swap2\n      pop\n        /* \"#utility.yul\":34189:34192   */\n      dup2\n        /* \"#utility.yul\":34182:34192   */\n      swap1\n      pop\n        /* \"#utility.yul\":33819:34198   */\n      swap2\n      swap1\n      pop\n      jump\t// out\n        /* \"#utility.yul\":34204:34424   */\n    tag_709:\n        /* \"#utility.yul\":34344:34378   */\n      0x45524332303a206275726e2066726f6d20746865207a65726f20616464726573\n        /* \"#utility.yul\":34340:34341   */\n      0x00\n        /* \"#utility.yul\":34332:34338   */\n      dup3\n        /* \"#utility.yul\":34328:34342   */\n      add\n        /* \"#utility.yul\":34321:34379   */\n      mstore\n        /* \"#utility.yul\":34413:34416   */\n      0x7300000000000000000000000000000000000000000000000000000000000000\n        /* \"#utility.yul\":34408:34410   */\n      0x20\n        /* \"#utility.yul\":34400:34406   */\n      dup3\n        /* \"#utility.yul\":34396:34411   */\n      add\n        /* \"#utility.yul\":34389:34417   */\n      mstore\n        /* \"#utility.yul\":34204:34424   */\n      pop\n      jump\t// out\n        /* \"#utility.yul\":34430:34796   */\n    tag_710:\n        /* \"#utility.yul\":34572:34575   */\n      0x00\n        /* \"#utility.yul\":34593:34660   */\n      tag_1010\n        /* \"#utility.yul\":34657:34659   */\n      0x21\n        /* \"#utility.yul\":34652:34655   */\n      dup4\n        /* \"#utility.yul\":34593:34660   */\n      tag_634\n      jump\t// in\n    tag_1010:\n        /* \"#utility.yul\":34586:34660   */\n      swap2\n      pop\n        /* \"#utility.yul\":34669:34762   */\n      tag_1011\n        /* \"#utility.yul\":34758:34761   */\n      dup3\n        /* \"#utility.yul\":34669:34762   */\n      tag_709\n      jump\t// in\n    tag_1011:\n        /* \"#utility.yul\":34787:34789   */\n      0x40\n        /* \"#utility.yul\":34782:34785   */\n      dup3\n        /* \"#utility.yul\":34778:34790   */\n      add\n        /* \"#utility.yul\":34771:34790   */\n      swap1\n      pop\n        /* \"#utility.yul\":34430:34796   */\n      swap2\n      swap1\n      pop\n      jump\t// out\n        /* \"#utility.yul\":34802:35221   */\n    tag_598:\n        /* \"#utility.yul\":34968:34972   */\n      0x00\n        /* \"#utility.yul\":35006:35008   */\n      0x20\n        /* \"#utility.yul\":34995:35004   */\n      dup3\n        /* \"#utility.yul\":34991:35009   */\n      add\n        /* \"#utility.yul\":34983:35009   */\n      swap1\n      pop\n        /* \"#utility.yul\":35055:35064   */\n      dup2\n        /* \"#utility.yul\":35049:35053   */\n      dup2\n        /* \"#utility.yul\":35045:35065   */\n      sub\n        /* \"#utility.yul\":35041:35042   */\n      0x00\n        /* \"#utility.yul\":35030:35039   */\n      dup4\n        /* \"#utility.yul\":35026:35043   */\n      add\n        /* \"#utility.yul\":35019:35066   */\n      mstore\n        /* \"#utility.yul\":35083:35214   */\n      tag_1013\n        /* \"#utility.yul\":35209:35213   */\n      dup2\n        /* \"#utility.yul\":35083:35214   */\n      tag_710\n      jump\t// in\n    tag_1013:\n        /* \"#utility.yul\":35075:35214   */\n      swap1\n      pop\n        /* \"#utility.yul\":34802:35221   */\n      swap2\n      swap1\n      pop\n      jump\t// out\n        /* \"#utility.yul\":35227:35448   */\n    tag_711:\n        /* \"#utility.yul\":35367:35401   */\n      0x45524332303a206275726e20616d6f756e7420657863656564732062616c616e\n        /* \"#utility.yul\":35363:35364   */\n      0x00\n        /* \"#utility.yul\":35355:35361   */\n      dup3\n        /* \"#utility.yul\":35351:35365   */\n      add\n        /* \"#utility.yul\":35344:35402   */\n      mstore\n        /* \"#utility.yul\":35436:35440   */\n      0x6365000000000000000000000000000000000000000000000000000000000000\n        /* \"#utility.yul\":35431:35433   */\n      0x20\n        /* \"#utility.yul\":35423:35429   */\n      dup3\n        /* \"#utility.yul\":35419:35434   */\n      add\n        /* \"#utility.yul\":35412:35441   */\n      mstore\n        /* \"#utility.yul\":35227:35448   */\n      pop\n      jump\t// out\n        /* \"#utility.yul\":35454:35820   */\n    tag_712:\n        /* \"#utility.yul\":35596:35599   */\n      0x00\n        /* \"#utility.yul\":35617:35684   */\n      tag_1016\n        /* \"#utility.yul\":35681:35683   */\n      0x22\n        /* \"#utility.yul\":35676:35679   */\n      dup4\n        /* \"#utility.yul\":35617:35684   */\n      tag_634\n      jump\t// in\n    tag_1016:\n        /* \"#utility.yul\":35610:35684   */\n      swap2\n      pop\n        /* \"#utility.yul\":35693:35786   */\n      tag_1017\n        /* \"#utility.yul\":35782:35785   */\n      dup3\n        /* \"#utility.yul\":35693:35786   */\n      tag_711\n      jump\t// in\n    tag_1017:\n        /* \"#utility.yul\":35811:35813   */\n      0x40\n        /* \"#utility.yul\":35806:35809   */\n      dup3\n        /* \"#utility.yul\":35802:35814   */\n      add\n        /* \"#utility.yul\":35795:35814   */\n      swap1\n      pop\n        /* \"#utility.yul\":35454:35820   */\n      swap2\n      swap1\n      pop\n      jump\t// out\n        /* \"#utility.yul\":35826:36245   */\n    tag_601:\n        /* \"#utility.yul\":35992:35996   */\n      0x00\n        /* \"#utility.yul\":36030:36032   */\n      0x20\n        /* \"#utility.yul\":36019:36028   */\n      dup3\n        /* \"#utility.yul\":36015:36033   */\n      add\n        /* \"#utility.yul\":36007:36033   */\n      swap1\n      pop\n        /* \"#utility.yul\":36079:36088   */\n      dup2\n        /* \"#utility.yul\":36073:36077   */\n      dup2\n        /* \"#utility.yul\":36069:36089   */\n      sub\n        /* \"#utility.yul\":36065:36066   */\n      0x00\n        /* \"#utility.yul\":36054:36063   */\n      dup4\n        /* \"#utility.yul\":36050:36067   */\n      add\n        /* \"#utility.yul\":36043:36090   */\n      mstore\n        /* \"#utility.yul\":36107:36238   */\n      tag_1019\n        /* \"#utility.yul\":36233:36237   */\n      dup2\n        /* \"#utility.yul\":36107:36238   */\n      tag_712\n      jump\t// in\n    tag_1019:\n        /* \"#utility.yul\":36099:36238   */\n      swap1\n      pop\n        /* \"#utility.yul\":35826:36245   */\n      swap2\n      swap1\n      pop\n      jump\t// out\n        /* \"#utility.yul\":36251:36431   */\n    tag_606:\n        /* \"#utility.yul\":36299:36376   */\n      0x4e487b7100000000000000000000000000000000000000000000000000000000\n        /* \"#utility.yul\":36296:36297   */\n      0x00\n        /* \"#utility.yul\":36289:36377   */\n      mstore\n        /* \"#utility.yul\":36396:36400   */\n      0x41\n        /* \"#utility.yul\":36393:36394   */\n      0x04\n        /* \"#utility.yul\":36386:36401   */\n      mstore\n        /* \"#utility.yul\":36420:36424   */\n      0x24\n        /* \"#utility.yul\":36417:36418   */\n      0x00\n        /* \"#utility.yul\":36410:36425   */\n      revert\n        /* \"#utility.yul\":36437:36580   */\n    tag_713:\n        /* \"#utility.yul\":36494:36499   */\n      0x00\n        /* \"#utility.yul\":36525:36531   */\n      dup2\n        /* \"#utility.yul\":36519:36532   */\n      mload\n        /* \"#utility.yul\":36510:36532   */\n      swap1\n      pop\n        /* \"#utility.yul\":36541:36574   */\n      tag_1022\n        /* \"#utility.yul\":36568:36573   */\n      dup2\n        /* \"#utility.yul\":36541:36574   */\n      tag_644\n      jump\t// in\n    tag_1022:\n        /* \"#utility.yul\":36437:36580   */\n      swap3\n      swap2\n      pop\n      pop\n      jump\t// out\n        /* \"#utility.yul\":36586:36937   */\n    tag_613:\n        /* \"#utility.yul\":36656:36662   */\n      0x00\n        /* \"#utility.yul\":36705:36707   */\n      0x20\n        /* \"#utility.yul\":36693:36702   */\n      dup3\n        /* \"#utility.yul\":36684:36691   */\n      dup5\n        /* \"#utility.yul\":36680:36703   */\n      sub\n        /* \"#utility.yul\":36676:36708   */\n      slt\n        /* \"#utility.yul\":36673:36792   */\n      iszero\n      tag_1024\n      jumpi\n        /* \"#utility.yul\":36711:36790   */\n      tag_1025\n      tag_639\n      jump\t// in\n    tag_1025:\n        /* \"#utility.yul\":36673:36792   */\n    tag_1024:\n        /* \"#utility.yul\":36831:36832   */\n      0x00\n        /* \"#utility.yul\":36856:36920   */\n      tag_1026\n        /* \"#utility.yul\":36912:36919   */\n      dup5\n        /* \"#utility.yul\":36903:36909   */\n      dup3\n        /* \"#utility.yul\":36892:36901   */\n      dup6\n        /* \"#utility.yul\":36888:36910   */\n      add\n        /* \"#utility.yul\":36856:36920   */\n      tag_713\n      jump\t// in\n    tag_1026:\n        /* \"#utility.yul\":36846:36920   */\n      swap2\n      pop\n        /* \"#utility.yul\":36802:36930   */\n      pop\n        /* \"#utility.yul\":36586:36937   */\n      swap3\n      swap2\n      pop\n      pop\n      jump\t// out\n        /* \"#utility.yul\":36943:37028   */\n    tag_714:\n        /* \"#utility.yul\":36988:36995   */\n      0x00\n        /* \"#utility.yul\":37017:37022   */\n      dup2\n        /* \"#utility.yul\":37006:37022   */\n      swap1\n      pop\n        /* \"#utility.yul\":36943:37028   */\n      swap2\n      swap1\n      pop\n      jump\t// out\n        /* \"#utility.yul\":37034:37192   */\n    tag_715:\n        /* \"#utility.yul\":37092:37101   */\n      0x00\n        /* \"#utility.yul\":37125:37186   */\n      tag_1029\n        /* \"#utility.yul\":37143:37185   */\n      tag_1030\n        /* \"#utility.yul\":37152:37184   */\n      tag_1031\n        /* \"#utility.yul\":37178:37183   */\n      dup5\n        /* \"#utility.yul\":37152:37184   */\n      tag_714\n      jump\t// in\n    tag_1031:\n        /* \"#utility.yul\":37143:37185   */\n      tag_648\n      jump\t// in\n    tag_1030:\n        /* \"#utility.yul\":37125:37186   */\n      tag_641\n      jump\t// in\n    tag_1029:\n        /* \"#utility.yul\":37112:37186   */\n      swap1\n      pop\n        /* \"#utility.yul\":37034:37192   */\n      swap2\n      swap1\n      pop\n      jump\t// out\n        /* \"#utility.yul\":37198:37345   */\n    tag_716:\n        /* \"#utility.yul\":37293:37338   */\n      tag_1033\n        /* \"#utility.yul\":37332:37337   */\n      dup2\n        /* \"#utility.yul\":37293:37338   */\n      tag_715\n      jump\t// in\n    tag_1033:\n        /* \"#utility.yul\":37288:37291   */\n      dup3\n        /* \"#utility.yul\":37281:37339   */\n      mstore\n        /* \"#utility.yul\":37198:37345   */\n      pop\n      pop\n      jump\t// out\n        /* \"#utility.yul\":37351:37465   */\n    tag_717:\n        /* \"#utility.yul\":37418:37424   */\n      0x00\n        /* \"#utility.yul\":37452:37457   */\n      dup2\n        /* \"#utility.yul\":37446:37458   */\n      mload\n        /* \"#utility.yul\":37436:37458   */\n      swap1\n      pop\n        /* \"#utility.yul\":37351:37465   */\n      swap2\n      swap1\n      pop\n      jump\t// out\n        /* \"#utility.yul\":37471:37655   */\n    tag_718:\n        /* \"#utility.yul\":37570:37581   */\n      0x00\n        /* \"#utility.yul\":37604:37610   */\n      dup3\n        /* \"#utility.yul\":37599:37602   */\n      dup3\n        /* \"#utility.yul\":37592:37611   */\n      mstore\n        /* \"#utility.yul\":37644:37648   */\n      0x20\n        /* \"#utility.yul\":37639:37642   */\n      dup3\n        /* \"#utility.yul\":37635:37649   */\n      add\n        /* \"#utility.yul\":37620:37649   */\n      swap1\n      pop\n        /* \"#utility.yul\":37471:37655   */\n      swap3\n      swap2\n      pop\n      pop\n      jump\t// out\n        /* \"#utility.yul\":37661:37793   */\n    tag_719:\n        /* \"#utility.yul\":37728:37732   */\n      0x00\n        /* \"#utility.yul\":37751:37754   */\n      dup2\n        /* \"#utility.yul\":37743:37754   */\n      swap1\n      pop\n        /* \"#utility.yul\":37781:37785   */\n      0x20\n        /* \"#utility.yul\":37776:37779   */\n      dup3\n        /* \"#utility.yul\":37772:37786   */\n      add\n        /* \"#utility.yul\":37764:37786   */\n      swap1\n      pop\n        /* \"#utility.yul\":37661:37793   */\n      swap2\n      swap1\n      pop\n      jump\t// out\n        /* \"#utility.yul\":37799:37907   */\n    tag_720:\n        /* \"#utility.yul\":37876:37900   */\n      tag_1038\n        /* \"#utility.yul\":37894:37899   */\n      dup2\n        /* \"#utility.yul\":37876:37900   */\n      tag_631\n      jump\t// in\n    tag_1038:\n        /* \"#utility.yul\":37871:37874   */\n      dup3\n        /* \"#utility.yul\":37864:37901   */\n      mstore\n        /* \"#utility.yul\":37799:37907   */\n      pop\n      pop\n      jump\t// out\n        /* \"#utility.yul\":37913:38092   */\n    tag_721:\n        /* \"#utility.yul\":37982:37992   */\n      0x00\n        /* \"#utility.yul\":38003:38049   */\n      tag_1040\n        /* \"#utility.yul\":38045:38048   */\n      dup4\n        /* \"#utility.yul\":38037:38043   */\n      dup4\n        /* \"#utility.yul\":38003:38049   */\n      tag_720\n      jump\t// in\n    tag_1040:\n        /* \"#utility.yul\":38081:38085   */\n      0x20\n        /* \"#utility.yul\":38076:38079   */\n      dup4\n        /* \"#utility.yul\":38072:38086   */\n      add\n        /* \"#utility.yul\":38058:38086   */\n      swap1\n      pop\n        /* \"#utility.yul\":37913:38092   */\n      swap3\n      swap2\n      pop\n      pop\n      jump\t// out\n        /* \"#utility.yul\":38098:38211   */\n    tag_722:\n        /* \"#utility.yul\":38168:38172   */\n      0x00\n        /* \"#utility.yul\":38200:38204   */\n      0x20\n        /* \"#utility.yul\":38195:38198   */\n      dup3\n        /* \"#utility.yul\":38191:38205   */\n      add\n        /* \"#utility.yul\":38183:38205   */\n      swap1\n      pop\n        /* \"#utility.yul\":38098:38211   */\n      swap2\n      swap1\n      pop\n      jump\t// out\n        /* \"#utility.yul\":38247:38979   */\n    tag_723:\n        /* \"#utility.yul\":38366:38369   */\n      0x00\n        /* \"#utility.yul\":38395:38449   */\n      tag_1043\n        /* \"#utility.yul\":38443:38448   */\n      dup3\n        /* \"#utility.yul\":38395:38449   */\n      tag_717\n      jump\t// in\n    tag_1043:\n        /* \"#utility.yul\":38465:38551   */\n      tag_1044\n        /* \"#utility.yul\":38544:38550   */\n      dup2\n        /* \"#utility.yul\":38539:38542   */\n      dup6\n        /* \"#utility.yul\":38465:38551   */\n      tag_718\n      jump\t// in\n    tag_1044:\n        /* \"#utility.yul\":38458:38551   */\n      swap4\n      pop\n        /* \"#utility.yul\":38575:38631   */\n      tag_1045\n        /* \"#utility.yul\":38625:38630   */\n      dup4\n        /* \"#utility.yul\":38575:38631   */\n      tag_719\n      jump\t// in\n    tag_1045:\n        /* \"#utility.yul\":38654:38661   */\n      dup1\n        /* \"#utility.yul\":38685:38686   */\n      0x00\n        /* \"#utility.yul\":38670:38954   */\n    tag_1046:\n        /* \"#utility.yul\":38695:38701   */\n      dup4\n        /* \"#utility.yul\":38692:38693   */\n      dup2\n        /* \"#utility.yul\":38689:38702   */\n      lt\n        /* \"#utility.yul\":38670:38954   */\n      iszero\n      tag_1048\n      jumpi\n        /* \"#utility.yul\":38771:38777   */\n      dup2\n        /* \"#utility.yul\":38765:38778   */\n      mload\n        /* \"#utility.yul\":38798:38861   */\n      tag_1049\n        /* \"#utility.yul\":38857:38860   */\n      dup9\n        /* \"#utility.yul\":38842:38855   */\n      dup3\n        /* \"#utility.yul\":38798:38861   */\n      tag_721\n      jump\t// in\n    tag_1049:\n        /* \"#utility.yul\":38791:38861   */\n      swap8\n      pop\n        /* \"#utility.yul\":38884:38944   */\n      tag_1050\n        /* \"#utility.yul\":38937:38943   */\n      dup4\n        /* \"#utility.yul\":38884:38944   */\n      tag_722\n      jump\t// in\n    tag_1050:\n        /* \"#utility.yul\":38874:38944   */\n      swap3\n      pop\n        /* \"#utility.yul\":38730:38954   */\n      pop\n        /* \"#utility.yul\":38717:38718   */\n      0x01\n        /* \"#utility.yul\":38714:38715   */\n      dup2\n        /* \"#utility.yul\":38710:38719   */\n      add\n        /* \"#utility.yul\":38705:38719   */\n      swap1\n      pop\n        /* \"#utility.yul\":38670:38954   */\n      jump(tag_1046)\n    tag_1048:\n        /* \"#utility.yul\":38674:38688   */\n      pop\n        /* \"#utility.yul\":38970:38973   */\n      dup6\n        /* \"#utility.yul\":38963:38973   */\n      swap4\n      pop\n        /* \"#utility.yul\":38371:38979   */\n      pop\n      pop\n      pop\n        /* \"#utility.yul\":38247:38979   */\n      swap3\n      swap2\n      pop\n      pop\n      jump\t// out\n        /* \"#utility.yul\":38985:39816   */\n    tag_618:\n        /* \"#utility.yul\":39248:39252   */\n      0x00\n        /* \"#utility.yul\":39286:39289   */\n      0xa0\n        /* \"#utility.yul\":39275:39284   */\n      dup3\n        /* \"#utility.yul\":39271:39290   */\n      add\n        /* \"#utility.yul\":39263:39290   */\n      swap1\n      pop\n        /* \"#utility.yul\":39300:39371   */\n      tag_1052\n        /* \"#utility.yul\":39368:39369   */\n      0x00\n        /* \"#utility.yul\":39357:39366   */\n      dup4\n        /* \"#utility.yul\":39353:39370   */\n      add\n        /* \"#utility.yul\":39344:39350   */\n      dup9\n        /* \"#utility.yul\":39300:39371   */\n      tag_653\n      jump\t// in\n    tag_1052:\n        /* \"#utility.yul\":39381:39461   */\n      tag_1053\n        /* \"#utility.yul\":39457:39459   */\n      0x20\n        /* \"#utility.yul\":39446:39455   */\n      dup4\n        /* \"#utility.yul\":39442:39460   */\n      add\n        /* \"#utility.yul\":39433:39439   */\n      dup8\n        /* \"#utility.yul\":39381:39461   */\n      tag_716\n      jump\t// in\n    tag_1053:\n        /* \"#utility.yul\":39508:39517   */\n      dup2\n        /* \"#utility.yul\":39502:39506   */\n      dup2\n        /* \"#utility.yul\":39498:39518   */\n      sub\n        /* \"#utility.yul\":39493:39495   */\n      0x40\n        /* \"#utility.yul\":39482:39491   */\n      dup4\n        /* \"#utility.yul\":39478:39496   */\n      add\n        /* \"#utility.yul\":39471:39519   */\n      mstore\n        /* \"#utility.yul\":39536:39644   */\n      tag_1054\n        /* \"#utility.yul\":39639:39643   */\n      dup2\n        /* \"#utility.yul\":39630:39636   */\n      dup7\n        /* \"#utility.yul\":39536:39644   */\n      tag_723\n      jump\t// in\n    tag_1054:\n        /* \"#utility.yul\":39528:39644   */\n      swap1\n      pop\n        /* \"#utility.yul\":39654:39726   */\n      tag_1055\n        /* \"#utility.yul\":39722:39724   */\n      0x60\n        /* \"#utility.yul\":39711:39720   */\n      dup4\n        /* \"#utility.yul\":39707:39725   */\n      add\n        /* \"#utility.yul\":39698:39704   */\n      dup6\n        /* \"#utility.yul\":39654:39726   */\n      tag_632\n      jump\t// in\n    tag_1055:\n        /* \"#utility.yul\":39736:39809   */\n      tag_1056\n        /* \"#utility.yul\":39804:39807   */\n      0x80\n        /* \"#utility.yul\":39793:39802   */\n      dup4\n        /* \"#utility.yul\":39789:39808   */\n      add\n        /* \"#utility.yul\":39780:39786   */\n      dup5\n        /* \"#utility.yul\":39736:39809   */\n      tag_653\n      jump\t// in\n    tag_1056:\n        /* \"#utility.yul\":38985:39816   */\n      swap7\n      swap6\n      pop\n      pop\n      pop\n      pop\n      pop\n      pop\n      jump\t// out\n        /* \"#utility.yul\":39822:40629   */\n    tag_625:\n        /* \"#utility.yul\":40071:40075   */\n      0x00\n        /* \"#utility.yul\":40109:40112   */\n      0xc0\n        /* \"#utility.yul\":40098:40107   */\n      dup3\n        /* \"#utility.yul\":40094:40113   */\n      add\n        /* \"#utility.yul\":40086:40113   */\n      swap1\n      pop\n        /* \"#utility.yul\":40123:40194   */\n      tag_1058\n        /* \"#utility.yul\":40191:40192   */\n      0x00\n        /* \"#utility.yul\":40180:40189   */\n      dup4\n        /* \"#utility.yul\":40176:40193   */\n      add\n        /* \"#utility.yul\":40167:40173   */\n      dup10\n        /* \"#utility.yul\":40123:40194   */\n      tag_632\n      jump\t// in\n    tag_1058:\n        /* \"#utility.yul\":40204:40276   */\n      tag_1059\n        /* \"#utility.yul\":40272:40274   */\n      0x20\n        /* \"#utility.yul\":40261:40270   */\n      dup4\n        /* \"#utility.yul\":40257:40275   */\n      add\n        /* \"#utility.yul\":40248:40254   */\n      dup9\n        /* \"#utility.yul\":40204:40276   */\n      tag_653\n      jump\t// in\n    tag_1059:\n        /* \"#utility.yul\":40286:40366   */\n      tag_1060\n        /* \"#utility.yul\":40362:40364   */\n      0x40\n        /* \"#utility.yul\":40351:40360   */\n      dup4\n        /* \"#utility.yul\":40347:40365   */\n      add\n        /* \"#utility.yul\":40338:40344   */\n      dup8\n        /* \"#utility.yul\":40286:40366   */\n      tag_716\n      jump\t// in\n    tag_1060:\n        /* \"#utility.yul\":40376:40456   */\n      tag_1061\n        /* \"#utility.yul\":40452:40454   */\n      0x60\n        /* \"#utility.yul\":40441:40450   */\n      dup4\n        /* \"#utility.yul\":40437:40455   */\n      add\n        /* \"#utility.yul\":40428:40434   */\n      dup7\n        /* \"#utility.yul\":40376:40456   */\n      tag_716\n      jump\t// in\n    tag_1061:\n        /* \"#utility.yul\":40466:40539   */\n      tag_1062\n        /* \"#utility.yul\":40534:40537   */\n      0x80\n        /* \"#utility.yul\":40523:40532   */\n      dup4\n        /* \"#utility.yul\":40519:40538   */\n      add\n        /* \"#utility.yul\":40510:40516   */\n      dup6\n        /* \"#utility.yul\":40466:40539   */\n      tag_632\n      jump\t// in\n    tag_1062:\n        /* \"#utility.yul\":40549:40622   */\n      tag_1063\n        /* \"#utility.yul\":40617:40620   */\n      0xa0\n        /* \"#utility.yul\":40606:40615   */\n      dup4\n        /* \"#utility.yul\":40602:40621   */\n      add\n        /* \"#utility.yul\":40593:40599   */\n      dup5\n        /* \"#utility.yul\":40549:40622   */\n      tag_653\n      jump\t// in\n    tag_1063:\n        /* \"#utility.yul\":39822:40629   */\n      swap8\n      swap7\n      pop\n      pop\n      pop\n      pop\n      pop\n      pop\n      pop\n      jump\t// out\n        /* \"#utility.yul\":40635:41298   */\n    tag_629:\n        /* \"#utility.yul\":40723:40729   */\n      0x00\n        /* \"#utility.yul\":40731:40737   */\n      dup1\n        /* \"#utility.yul\":40739:40745   */\n      0x00\n        /* \"#utility.yul\":40788:40790   */\n      0x60\n        /* \"#utility.yul\":40776:40785   */\n      dup5\n        /* \"#utility.yul\":40767:40774   */\n      dup7\n        /* \"#utility.yul\":40763:40786   */\n      sub\n        /* \"#utility.yul\":40759:40791   */\n      slt\n        /* \"#utility.yul\":40756:40875   */\n      iszero\n      tag_1065\n      jumpi\n        /* \"#utility.yul\":40794:40873   */\n      tag_1066\n      tag_639\n      jump\t// in\n    tag_1066:\n        /* \"#utility.yul\":40756:40875   */\n    tag_1065:\n        /* \"#utility.yul\":40914:40915   */\n      0x00\n        /* \"#utility.yul\":40939:41003   */\n      tag_1067\n        /* \"#utility.yul\":40995:41002   */\n      dup7\n        /* \"#utility.yul\":40986:40992   */\n      dup3\n        /* \"#utility.yul\":40975:40984   */\n      dup8\n        /* \"#utility.yul\":40971:40993   */\n      add\n        /* \"#utility.yul\":40939:41003   */\n      tag_676\n      jump\t// in\n    tag_1067:\n        /* \"#utility.yul\":40929:41003   */\n      swap4\n      pop\n        /* \"#utility.yul\":40885:41013   */\n      pop\n        /* \"#utility.yul\":41052:41054   */\n      0x20\n        /* \"#utility.yul\":41078:41142   */\n      tag_1068\n        /* \"#utility.yul\":41134:41141   */\n      dup7\n        /* \"#utility.yul\":41125:41131   */\n      dup3\n        /* \"#utility.yul\":41114:41123   */\n      dup8\n        /* \"#utility.yul\":41110:41132   */\n      add\n        /* \"#utility.yul\":41078:41142   */\n      tag_676\n      jump\t// in\n    tag_1068:\n        /* \"#utility.yul\":41068:41142   */\n      swap3\n      pop\n        /* \"#utility.yul\":41023:41152   */\n      pop\n        /* \"#utility.yul\":41191:41193   */\n      0x40\n        /* \"#utility.yul\":41217:41281   */\n      tag_1069\n        /* \"#utility.yul\":41273:41280   */\n      dup7\n        /* \"#utility.yul\":41264:41270   */\n      dup3\n        /* \"#utility.yul\":41253:41262   */\n      dup8\n        /* \"#utility.yul\":41249:41271   */\n      add\n        /* \"#utility.yul\":41217:41281   */\n      tag_676\n      jump\t// in\n    tag_1069:\n        /* \"#utility.yul\":41207:41281   */\n      swap2\n      pop\n        /* \"#utility.yul\":41162:41291   */\n      pop\n        /* \"#utility.yul\":40635:41298   */\n      swap3\n      pop\n      swap3\n      pop\n      swap3\n      jump\t// out\n\n    auxdata: 0xa2646970667358221220efc8a98712f2bad4fa05054f1a6eb47ec993af5f39bd36a4a20e31b0864a361c64736f6c63430008130033\n}\n",
				"bytecode": {
					"linkReferences": {},
					"object": "6080604052601260ff16600a62000017919062000a68565b6461c9f3680062000029919062000ab9565b600155601260ff16600a6200003f919062000a68565b6301312d0062000050919062000ab9565b6002556001600a556103e8600d556103e8600e556103e8600f556103e86010556180e86011556180e86012556180e860135561c350601555601260ff16600a6200009b919062000a68565b6064620000a9919062000ab9565b6016556001601860156101000a81548160ff021916908315150217905550348015620000d457600080fd5b506040516200537a3803806200537a8339818101604052810190620000fa919062000b6e565b6200011a6200010e620005e360201b60201c565b620005eb60201b60201c565b600154600360003373ffffffffffffffffffffffffffffffffffffffff1673ffffffffffffffffffffffffffffffffffffffff16815260200190815260200160002081905550600073d99d1c33f9fc3444f8101754abc46c52416550d1905080601760006101000a81548173ffffffffffffffffffffffffffffffffffffffff021916908373ffffffffffffffffffffffffffffffffffffffff1602179055508073ffffffffffffffffffffffffffffffffffffffff1663c45a01556040518163ffffffff1660e01b8152600401602060405180830381865afa15801562000206573d6000803e3d6000fd5b505050506040513d601f19601f820116820180604052508101906200022c919062000bb5565b73ffffffffffffffffffffffffffffffffffffffff1663c9c65396308373ffffffffffffffffffffffffffffffffffffffff1663ad5c46486040518163ffffffff1660e01b8152600401602060405180830381865afa15801562000294573d6000803e3d6000fd5b505050506040513d601f19601f82011682018060405250810190620002ba919062000bb5565b6040518363ffffffff1660e01b8152600401620002d992919062000bf8565b6020604051808303816000875af1158015620002f9573d6000803e3d6000fd5b505050506040513d601f19601f820116820180604052508101906200031f919062000bb5565b601860006101000a81548173ffffffffffffffffffffffffffffffffffffffff021916908373ffffffffffffffffffffffffffffffffffffffff160217905550620003b433601760009054906101000a900473ffffffffffffffffffffffffffffffffffffffff167fffffffffffffffffffffffffffffffffffffffffffffffffffffffffffffffff620006af60201b60201c565b6200040930601760009054906101000a900473ffffffffffffffffffffffffffffffffffffffff167fffffffffffffffffffffffffffffffffffffffffffffffffffffffffffffffff620006af60201b60201c565b6200043e601860009054906101000a900473ffffffffffffffffffffffffffffffffffffffff1660016200088060201b60201c565b82600b60006101000a81548173ffffffffffffffffffffffffffffffffffffffff021916908373ffffffffffffffffffffffffffffffffffffffff16021790555081600c60006101000a81548173ffffffffffffffffffffffffffffffffffffffff021916908373ffffffffffffffffffffffffffffffffffffffff1602179055506001600760003073ffffffffffffffffffffffffffffffffffffffff1673ffffffffffffffffffffffffffffffffffffffff16815260200190815260200160002060006101000a81548160ff0219169083151502179055506001600760003373ffffffffffffffffffffffffffffffffffffffff1673ffffffffffffffffffffffffffffffffffffffff16815260200190815260200160002060006101000a81548160ff0219169083151502179055503373ffffffffffffffffffffffffffffffffffffffff16600073ffffffffffffffffffffffffffffffffffffffff167fddf252ad1be2c89b69c2b068fc378daa952ba7f163c4a11628f55a4df523b3ef600154604051620005d2919062000c36565b60405180910390a350505062000d94565b600033905090565b60008060009054906101000a900473ffffffffffffffffffffffffffffffffffffffff169050816000806101000a81548173ffffffffffffffffffffffffffffffffffffffff021916908373ffffffffffffffffffffffffffffffffffffffff1602179055508173ffffffffffffffffffffffffffffffffffffffff168173ffffffffffffffffffffffffffffffffffffffff167f8be0079c531659141344cd1fd0a4f28419497f9722a3daafe3b4186f6b6457e060405160405180910390a35050565b600073ffffffffffffffffffffffffffffffffffffffff168373ffffffffffffffffffffffffffffffffffffffff160362000721576040517f08c379a0000000000000000000000000000000000000000000000000000000008152600401620007189062000cda565b60405180910390fd5b600073ffffffffffffffffffffffffffffffffffffffff168273ffffffffffffffffffffffffffffffffffffffff160362000793576040517f08c379a00000000000000000000000000000000000000000000000000000000081526004016200078a9062000d72565b60405180910390fd5b80600460008573ffffffffffffffffffffffffffffffffffffffff1673ffffffffffffffffffffffffffffffffffffffff16815260200190815260200160002060008473ffffffffffffffffffffffffffffffffffffffff1673ffffffffffffffffffffffffffffffffffffffff168152602001908152602001600020819055508173ffffffffffffffffffffffffffffffffffffffff168373ffffffffffffffffffffffffffffffffffffffff167f8c5be1e5ebec7d5bd14f71427d1e84f3dd0314c0f7b2291e5b200ac8c7c3b9258360405162000873919062000c36565b60405180910390a3505050565b80600660008473ffffffffffffffffffffffffffffffffffffffff1673ffffffffffffffffffffffffffffffffffffffff16815260200190815260200160002060006101000a81548160ff0219169083151502179055505050565b7f4e487b7100000000000000000000000000000000000000000000000000000000600052601160045260246000fd5b60008160011c9050919050565b6000808291508390505b60018511156200096957808604811115620009415762000940620008db565b5b6001851615620009515780820291505b808102905062000961856200090a565b945062000921565b94509492505050565b60008262000984576001905062000a57565b8162000994576000905062000a57565b8160018114620009ad5760028114620009b857620009ee565b600191505062000a57565b60ff841115620009cd57620009cc620008db565b5b8360020a915084821115620009e757620009e6620008db565b5b5062000a57565b5060208310610133831016604e8410600b841016171562000a285782820a90508381111562000a225762000a21620008db565b5b62000a57565b62000a37848484600162000917565b9250905081840481111562000a515762000a50620008db565b5b81810290505b9392505050565b6000819050919050565b600062000a758262000a5e565b915062000a828362000a5e565b925062000ab17fffffffffffffffffffffffffffffffffffffffffffffffffffffffffffffffff848462000972565b905092915050565b600062000ac68262000a5e565b915062000ad38362000a5e565b925082820262000ae38162000a5e565b9150828204841483151762000afd5762000afc620008db565b5b5092915050565b600080fd5b600073ffffffffffffffffffffffffffffffffffffffff82169050919050565b600062000b368262000b09565b9050919050565b62000b488162000b29565b811462000b5457600080fd5b50565b60008151905062000b688162000b3d565b92915050565b6000806040838503121562000b885762000b8762000b04565b5b600062000b988582860162000b57565b925050602062000bab8582860162000b57565b9150509250929050565b60006020828403121562000bce5762000bcd62000b04565b5b600062000bde8482850162000b57565b91505092915050565b62000bf28162000b29565b82525050565b600060408201905062000c0f600083018562000be7565b62000c1e602083018462000be7565b9392505050565b62000c308162000a5e565b82525050565b600060208201905062000c4d600083018462000c25565b92915050565b600082825260208201905092915050565b7f45524332303a20617070726f76652066726f6d20746865207a65726f2061646460008201527f7265737300000000000000000000000000000000000000000000000000000000602082015250565b600062000cc260248362000c53565b915062000ccf8262000c64565b604082019050919050565b6000602082019050818103600083015262000cf58162000cb3565b9050919050565b7f45524332303a20617070726f766520746f20746865207a65726f20616464726560008201527f7373000000000000000000000000000000000000000000000000000000000000602082015250565b600062000d5a60228362000c53565b915062000d678262000cfc565b604082019050919050565b6000602082019050818103600083015262000d8d8162000d4b565b9050919050565b6145d68062000da46000396000f3fe6080604052600436106102e85760003560e01c80637f2e6ccb11610190578063ba414b10116100dc578063dbac26e911610095578063e59602fa1161006f578063e59602fa14610b24578063e6be4a7214610b4d578063f2fde38b14610b76578063f7e5333714610b9f576102ef565b8063dbac26e914610a7f578063dd3a1f7614610abc578063dd62ed3e14610ae7576102ef565b8063ba414b1014610995578063c00f04d1146109be578063c410ab5e146109e7578063c51abc5914610a12578063ce831ed514610a3d578063d8020a1814610a54576102ef565b80639ec4be4111610149578063a9059cbb11610123578063a9059cbb146108c7578063aaa00b9914610904578063b62496f51461092f578063b7925f7a1461096c576102ef565b80639ec4be411461084a578063a562564a14610873578063a56d37f91461089e576102ef565b80637f2e6ccb1461074a5780638d38a127146107755780638da5cb5b146107a05780638ea5220f146107cb57806395d89b41146107f65780639a7a23d614610821576102ef565b80634fe47f701161024f5780636dbff43b11610208578063715018a6116101e2578063715018a6146106a057806375f0a874146106b7578063768dc710146106e25780637aab5d9b1461071f576102ef565b80636dbff43b1461060f5780636ddd17131461063857806370a0823114610663576102ef565b80634fe47f7014610513578063549fb8bf1461053c5780635d098b38146105675780635f48f393146105905780636612e66f146105bb57806367b34e01146105e4576102ef565b80631f53ac02116102a15780631f53ac021461040357806323b872dd1461042c5780632d4ed650146104695780633048a28114610492578063313ce567146104bd5780634bf28fd0146104e8576102ef565b806303fd2a45146102f157806306fdde031461031c57806307a212be14610347578063095ea7b3146103705780631694505e146103ad57806318160ddd146103d8576102ef565b366102ef57005b005b3480156102fd57600080fd5b50610306610bca565b604051610313919061309c565b60405180910390f35b34801561032857600080fd5b50610331610bd0565b60405161033e9190613147565b60405180910390f35b34801561035357600080fd5b5061036e600480360381019061036991906131a9565b610c0d565b005b34801561037c57600080fd5b5061039760048036038101906103929190613202565b610c1f565b6040516103a4919061325d565b60405180910390f35b3480156103b957600080fd5b506103c2610c36565b6040516103cf91906132d7565b60405180910390f35b3480156103e457600080fd5b506103ed610c5c565b6040516103fa9190613301565b60405180910390f35b34801561040f57600080fd5b5061042a6004803603810190610425919061331c565b610c66565b005b34801561043857600080fd5b50610453600480360381019061044e9190613349565b610d21565b604051610460919061325d565b60405180910390f35b34801561047557600080fd5b50610490600480360381019061048b91906131a9565b610d49565b005b34801561049e57600080fd5b506104a7610da1565b6040516104b49190613301565b60405180910390f35b3480156104c957600080fd5b506104d2610da7565b6040516104df91906133b8565b60405180910390f35b3480156104f457600080fd5b506104fd610db0565b60405161050a919061309c565b60405180910390f35b34801561051f57600080fd5b5061053a600480360381019061053591906131a9565b610dd6565b005b34801561054857600080fd5b50610551610de8565b60405161055e9190613301565b60405180910390f35b34801561057357600080fd5b5061058e6004803603810190610589919061331c565b610dee565b005b34801561059c57600080fd5b506105a5610ea9565b6040516105b29190613301565b60405180910390f35b3480156105c757600080fd5b506105e260048036038101906105dd91906133ff565b610eaf565b005b3480156105f057600080fd5b506105f9610f12565b6040516106069190613301565b60405180910390f35b34801561061b57600080fd5b50610636600480360381019061063191906131a9565b610f18565b005b34801561064457600080fd5b5061064d610fff565b60405161065a919061325d565b60405180910390f35b34801561066f57600080fd5b5061068a6004803603810190610685919061331c565b611012565b6040516106979190613301565b60405180910390f35b3480156106ac57600080fd5b506106b561105b565b005b3480156106c357600080fd5b506106cc61106f565b6040516106d9919061309c565b60405180910390f35b3480156106ee57600080fd5b506107096004803603810190610704919061331c565b611095565b604051610716919061325d565b60405180910390f35b34801561072b57600080fd5b506107346110b5565b604051610741919061325d565b60405180910390f35b34801561075657600080fd5b5061075f6110c8565b60405161076c9190613301565b60405180910390f35b34801561078157600080fd5b5061078a6110ce565b604051610797919061325d565b60405180910390f35b3480156107ac57600080fd5b506107b56110e5565b6040516107c2919061309c565b60405180910390f35b3480156107d757600080fd5b506107e061110e565b6040516107ed919061309c565b60405180910390f35b34801561080257600080fd5b5061080b611134565b6040516108189190613147565b60405180910390f35b34801561082d57600080fd5b50610848600480360381019061084391906133ff565b611171565b005b34801561085657600080fd5b50610871600480360381019061086c91906131a9565b611217565b005b34801561087f57600080fd5b506108886112fe565b6040516108959190613301565b60405180910390f35b3480156108aa57600080fd5b506108c560048036038101906108c091906131a9565b611304565b005b3480156108d357600080fd5b506108ee60048036038101906108e99190613202565b6113eb565b6040516108fb919061325d565b60405180910390f35b34801561091057600080fd5b50610919611407565b6040516109269190613301565b60405180910390f35b34801561093b57600080fd5b506109566004803603810190610951919061331c565b61140d565b604051610963919061325d565b60405180910390f35b34801561097857600080fd5b50610993600480360381019061098e91906131a9565b61142d565b005b3480156109a157600080fd5b506109bc60048036038101906109b791906134a4565b61143f565b005b3480156109ca57600080fd5b506109e560048036038101906109e09190613504565b61151c565b005b3480156109f357600080fd5b506109fc611541565b604051610a099190613301565b60405180910390f35b348015610a1e57600080fd5b50610a27611547565b604051610a349190613301565b60405180910390f35b348015610a4957600080fd5b50610a5261154d565b005b348015610a6057600080fd5b50610a6961159e565b604051610a769190613301565b60405180910390f35b348015610a8b57600080fd5b50610aa66004803603810190610aa1919061331c565b6115a4565b604051610ab3919061325d565b60405180910390f35b348015610ac857600080fd5b50610ad16115c4565b604051610ade9190613301565b60405180910390f35b348015610af357600080fd5b50610b0e6004803603810190610b099190613531565b6115ca565b604051610b1b9190613301565b60405180910390f35b348015610b3057600080fd5b50610b4b6004803603810190610b4691906131a9565b611651565b005b348015610b5957600080fd5b50610b746004803603810190610b6f9190613202565b6116a9565b005b348015610b8257600080fd5b50610b9d6004803603810190610b98919061331c565b611884565b005b348015610bab57600080fd5b50610bb4611907565b604051610bc19190613301565b60405180910390f35b61dead81565b60606040518060400160405280600381526020017f58595a0000000000000000000000000000000000000000000000000000000000815250905090565b610c1561190d565b8060168190555050565b6000610c2c33848461198b565b6001905092915050565b601760009054906101000a900473ffffffffffffffffffffffffffffffffffffffff1681565b6000600154905090565b610c6e61190d565b600073ffffffffffffffffffffffffffffffffffffffff168173ffffffffffffffffffffffffffffffffffffffff1603610cdd576040517f08c379a0000000000000000000000000000000000000000000000000000000008152600401610cd4906135e3565b60405180910390fd5b80600c60006101000a81548173ffffffffffffffffffffffffffffffffffffffff021916908373ffffffffffffffffffffffffffffffffffffffff16021790555050565b600080339050610d32858285611b54565b610d3d858585611be0565b60019150509392505050565b610d5161190d565b620186a0811115610d97576040517f08c379a0000000000000000000000000000000000000000000000000000000008152600401610d8e90613675565b60405180910390fd5b8060158190555050565b60105481565b60006012905090565b601860009054906101000a900473ffffffffffffffffffffffffffffffffffffffff1681565b610dde61190d565b8060028190555050565b600f5481565b610df661190d565b600073ffffffffffffffffffffffffffffffffffffffff168173ffffffffffffffffffffffffffffffffffffffff1603610e65576040517f08c379a0000000000000000000000000000000000000000000000000000000008152600401610e5c90613707565b60405180910390fd5b80600b60006101000a81548173ffffffffffffffffffffffffffffffffffffffff021916908373ffffffffffffffffffffffffffffffffffffffff16021790555050565b60025481565b610eb761190d565b80600760008473ffffffffffffffffffffffffffffffffffffffff1673ffffffffffffffffffffffffffffffffffffffff16815260200190815260200160002060006101000a81548160ff0219169083151502179055505050565b60165481565b610f2061190d565b620186a0811115610f66576040517f08c379a0000000000000000000000000000000000000000000000000000000008152600401610f5d90613675565b60405180910390fd5b80600f81905550600f54600e54600d54610f809190613756565b610f8a9190613756565b601481905550601454620186a0600d54610fa4919061378a565b610fae91906137fb565b601181905550601454620186a0600e54610fc8919061378a565b610fd291906137fb565b601281905550601454620186a0600f54610fec919061378a565b610ff691906137fb565b60138190555050565b601860159054906101000a900460ff1681565b6000600360008373ffffffffffffffffffffffffffffffffffffffff1673ffffffffffffffffffffffffffffffffffffffff168152602001908152602001600020549050919050565b61106361190d565b61106d60006125ef565b565b600b60009054906101000a900473ffffffffffffffffffffffffffffffffffffffff1681565b60076020528060005260406000206000915054906101000a900460ff1681565b600860009054906101000a900460ff1681565b60145481565b6000600860009054906101000a900460ff16905090565b60008060009054906101000a900473ffffffffffffffffffffffffffffffffffffffff16905090565b600c60009054906101000a900473ffffffffffffffffffffffffffffffffffffffff1681565b60606040518060400160405280600381526020017f58595a0000000000000000000000000000000000000000000000000000000000815250905090565b61117961190d565b601860009054906101000a900473ffffffffffffffffffffffffffffffffffffffff1673ffffffffffffffffffffffffffffffffffffffff168273ffffffffffffffffffffffffffffffffffffffff1603611209576040517f08c379a00000000000000000000000000000000000000000000000000000000081526004016112009061389e565b60405180910390fd5b61121382826126b3565b5050565b61121f61190d565b620186a0811115611265576040517f08c379a000000000000000000000000000000000000000000000000000000000815260040161125c90613675565b60405180910390fd5b80600e81905550600f54600e54600d5461127f9190613756565b6112899190613756565b601481905550601454620186a0600d546112a3919061378a565b6112ad91906137fb565b601181905550601454620186a0600e546112c7919061378a565b6112d191906137fb565b601281905550601454620186a0600f546112eb919061378a565b6112f591906137fb565b60138190555050565b600e5481565b61130c61190d565b620186a0811115611352576040517f08c379a000000000000000000000000000000000000000000000000000000000815260040161134990613675565b60405180910390fd5b80600d81905550600f54600e54600d5461136c9190613756565b6113769190613756565b601481905550601454620186a0600d54611390919061378a565b61139a91906137fb565b601181905550601454620186a0600e546113b4919061378a565b6113be91906137fb565b601281905550601454620186a0600f546113d8919061378a565b6113e291906137fb565b60138190555050565b6000803390506113fc818585611be0565b600191505092915050565b60125481565b60066020528060005260406000206000915054906101000a900460ff1681565b61143561190d565b80600a8190555050565b61144761190d565b60006114516110e5565b905060005b84849050811015611515576000858583818110611476576114756138be565b5b905060200201602081019061148b919061331c565b9050600073ffffffffffffffffffffffffffffffffffffffff168173ffffffffffffffffffffffffffffffffffffffff16036114fc576040517f08c379a00000000000000000000000000000000000000000000000000000000081526004016114f39061395f565b60405180910390fd5b61150783828661270e565b508080600101915050611456565b5050505050565b61152461190d565b80600860006101000a81548160ff02191690831515021790555050565b600d5481565b600a5481565b61155561190d565b3373ffffffffffffffffffffffffffffffffffffffff166108fc479081150290604051600060405180830381858888f1935050505015801561159b573d6000803e3d6000fd5b50565b60155481565b60056020528060005260406000206000915054906101000a900460ff1681565b60135481565b6000600460008473ffffffffffffffffffffffffffffffffffffffff1673ffffffffffffffffffffffffffffffffffffffff16815260200190815260200160002060008373ffffffffffffffffffffffffffffffffffffffff1673ffffffffffffffffffffffffffffffffffffffff16815260200190815260200160002054905092915050565b61165961190d565b620186a081111561169f576040517f08c379a000000000000000000000000000000000000000000000000000000000815260040161169690613675565b60405180910390fd5b8060108190555050565b6116b161190d565b3073ffffffffffffffffffffffffffffffffffffffff168273ffffffffffffffffffffffffffffffffffffffff160361171f576040517f08c379a0000000000000000000000000000000000000000000000000000000008152600401611716906139f1565b60405180910390fd5b60008273ffffffffffffffffffffffffffffffffffffffff166370a08231306040518263ffffffff1660e01b815260040161175a919061309c565b602060405180830381865afa158015611777573d6000803e3d6000fd5b505050506040513d601f19601f8201168201806040525081019061179b9190613a26565b90506000620186a083836117af919061378a565b6117b991906137fb565b905060008473ffffffffffffffffffffffffffffffffffffffff1663a9059cbb33846040518363ffffffff1660e01b81526004016117f8929190613a53565b6020604051808303816000875af1158015611817573d6000803e3d6000fd5b505050506040513d601f19601f8201168201806040525081019061183b9190613a91565b90508061187d576040517f08c379a000000000000000000000000000000000000000000000000000000000815260040161187490613b0a565b60405180910390fd5b5050505050565b61188c61190d565b600073ffffffffffffffffffffffffffffffffffffffff168173ffffffffffffffffffffffffffffffffffffffff16036118fb576040517f08c379a00000000000000000000000000000000000000000000000000000000081526004016118f290613b9c565b60405180910390fd5b611904816125ef565b50565b60115481565b611915612893565b73ffffffffffffffffffffffffffffffffffffffff166119336110e5565b73ffffffffffffffffffffffffffffffffffffffff1614611989576040517f08c379a000000000000000000000000000000000000000000000000000000000815260040161198090613c08565b60405180910390fd5b565b600073ffffffffffffffffffffffffffffffffffffffff168373ffffffffffffffffffffffffffffffffffffffff16036119fa576040517f08c379a00000000000000000000000000000000000000000000000000000000081526004016119f190613c9a565b60405180910390fd5b600073ffffffffffffffffffffffffffffffffffffffff168273ffffffffffffffffffffffffffffffffffffffff1603611a69576040517f08c379a0000000000000000000000000000000000000000000000000000000008152600401611a6090613d2c565b60405180910390fd5b80600460008573ffffffffffffffffffffffffffffffffffffffff1673ffffffffffffffffffffffffffffffffffffffff16815260200190815260200160002060008473ffffffffffffffffffffffffffffffffffffffff1673ffffffffffffffffffffffffffffffffffffffff168152602001908152602001600020819055508173ffffffffffffffffffffffffffffffffffffffff168373ffffffffffffffffffffffffffffffffffffffff167f8c5be1e5ebec7d5bd14f71427d1e84f3dd0314c0f7b2291e5b200ac8c7c3b92583604051611b479190613301565b60405180910390a3505050565b6000611b6084846115ca565b90507fffffffffffffffffffffffffffffffffffffffffffffffffffffffffffffffff8114611bda5781811015611bcc576040517f08c379a0000000000000000000000000000000000000000000000000000000008152600401611bc390613d98565b60405180910390fd5b611bd9848484840361198b565b5b50505050565b600073ffffffffffffffffffffffffffffffffffffffff168373ffffffffffffffffffffffffffffffffffffffff1603611c4f576040517f08c379a0000000000000000000000000000000000000000000000000000000008152600401611c4690613e2a565b60405180910390fd5b600073ffffffffffffffffffffffffffffffffffffffff168273ffffffffffffffffffffffffffffffffffffffff1603611cbe576040517f08c379a0000000000000000000000000000000000000000000000000000000008152600401611cb59061395f565b60405180910390fd5b60008111611d01576040517f08c379a0000000000000000000000000000000000000000000000000000000008152600401611cf890613ebc565b60405180910390fd5b600560008473ffffffffffffffffffffffffffffffffffffffff1673ffffffffffffffffffffffffffffffffffffffff16815260200190815260200160002060009054906101000a900460ff1615611d8e576040517f08c379a0000000000000000000000000000000000000000000000000000000008152600401611d8590613f28565b60405180910390fd5b600560008373ffffffffffffffffffffffffffffffffffffffff1673ffffffffffffffffffffffffffffffffffffffff16815260200190815260200160002060009054906101000a900460ff1615611e1b576040517f08c379a0000000000000000000000000000000000000000000000000000000008152600401611e1290613f94565b60405180910390fd5b611e236110e5565b73ffffffffffffffffffffffffffffffffffffffff168373ffffffffffffffffffffffffffffffffffffffff161480611e8e5750611e5f6110e5565b73ffffffffffffffffffffffffffffffffffffffff168273ffffffffffffffffffffffffffffffffffffffff16145b80611ec457503073ffffffffffffffffffffffffffffffffffffffff168373ffffffffffffffffffffffffffffffffffffffff16145b15611f45576000600954148015611f285750601860009054906101000a900473ffffffffffffffffffffffffffffffffffffffff1673ffffffffffffffffffffffffffffffffffffffff168273ffffffffffffffffffffffffffffffffffffffff16145b15611f3557436009819055505b611f4083838361270e565b6125ea565b600860009054906101000a900460ff16611f94576040517f08c379a0000000000000000000000000000000000000000000000000000000008152600401611f8b90614000565b60405180910390fd5b600a54600954611fa49190613756565b4311612007576001600560008473ffffffffffffffffffffffffffffffffffffffff1673ffffffffffffffffffffffffffffffffffffffff16815260200190815260200160002060006101000a81548160ff0219169083151502179055506125ea565b6000601860009054906101000a900473ffffffffffffffffffffffffffffffffffffffff1673ffffffffffffffffffffffffffffffffffffffff168473ffffffffffffffffffffffffffffffffffffffff161490506000601860009054906101000a900473ffffffffffffffffffffffffffffffffffffffff1673ffffffffffffffffffffffffffffffffffffffff168473ffffffffffffffffffffffffffffffffffffffff1614905060008060008060006120c230611012565b9050600060165482101590508080156120e75750601860159054906101000a900460ff165b80156121005750601860149054906101000a900460ff16155b80156121565750600660008c73ffffffffffffffffffffffffffffffffffffffff1673ffffffffffffffffffffffffffffffffffffffff16815260200190815260200160002060009054906101000a900460ff16155b80156121ac5750600760008c73ffffffffffffffffffffffffffffffffffffffff1673ffffffffffffffffffffffffffffffffffffffff16815260200190815260200160002060009054906101000a900460ff16155b80156122025750600760008b73ffffffffffffffffffffffffffffffffffffffff1673ffffffffffffffffffffffffffffffffffffffff16815260200190815260200160002060009054906101000a900460ff16155b15612246576001601860146101000a81548160ff02191690831515021790555061222a61289b565b6000601860146101000a81548160ff0219169083151502179055505b6000601860149054906101000a900460ff16159050600760008d73ffffffffffffffffffffffffffffffffffffffff1673ffffffffffffffffffffffffffffffffffffffff16815260200190815260200160002060009054906101000a900460ff16806122fc5750600760008c73ffffffffffffffffffffffffffffffffffffffff1673ffffffffffffffffffffffffffffffffffffffff16815260200190815260200160002060009054906101000a900460ff165b1561230657600090505b600081156125d457600660008e73ffffffffffffffffffffffffffffffffffffffff1673ffffffffffffffffffffffffffffffffffffffff16815260200190815260200160002060009054906101000a900460ff1680156123645750895b1561246b57600760008d73ffffffffffffffffffffffffffffffffffffffff1673ffffffffffffffffffffffffffffffffffffffff16815260200190815260200160002060009054906101000a900460ff1661244d576002548b11156123ff576040517f08c379a00000000000000000000000000000000000000000000000000000000081526004016123f69061406c565b60405180910390fd5b61240b8b600d54612b10565b95506124198b600f54612b10565b97506124278b601054612b10565b96506124348d308a61270e565b61243f8d308861270e565b61244c8d61dead89612b34565b5b86888761245a9190613756565b6124649190613756565b90506125c5565b600660008d73ffffffffffffffffffffffffffffffffffffffff1673ffffffffffffffffffffffffffffffffffffffff16815260200190815260200160002060009054906101000a900460ff1680156124c15750885b156125c457600760008e73ffffffffffffffffffffffffffffffffffffffff1673ffffffffffffffffffffffffffffffffffffffff16815260200190815260200160002060009054906101000a900460ff166125aa576002548b111561255c576040517f08c379a0000000000000000000000000000000000000000000000000000000008152600401612553906140d8565b60405180910390fd5b6125688b600e54612b10565b94506125768b600f54612b10565b97506125848b601054612b10565b96506125918d308761270e565b61259c8d308a61270e565b6125a98d61dead89612b34565b5b8688866125b79190613756565b6125c19190613756565b90505b5b808b6125d191906140f8565b9a505b6125df8d8d8d61270e565b505050505050505050505b505050565b60008060009054906101000a900473ffffffffffffffffffffffffffffffffffffffff169050816000806101000a81548173ffffffffffffffffffffffffffffffffffffffff021916908373ffffffffffffffffffffffffffffffffffffffff1602179055508173ffffffffffffffffffffffffffffffffffffffff168173ffffffffffffffffffffffffffffffffffffffff167f8be0079c531659141344cd1fd0a4f28419497f9722a3daafe3b4186f6b6457e060405160405180910390a35050565b80600660008473ffffffffffffffffffffffffffffffffffffffff1673ffffffffffffffffffffffffffffffffffffffff16815260200190815260200160002060006101000a81548160ff0219169083151502179055505050565b6000600360008573ffffffffffffffffffffffffffffffffffffffff1673ffffffffffffffffffffffffffffffffffffffff16815260200190815260200160002054905081811015612795576040517f08c379a000000000000000000000000000000000000000000000000000000000815260040161278c9061419e565b60405180910390fd5b818103600360008673ffffffffffffffffffffffffffffffffffffffff1673ffffffffffffffffffffffffffffffffffffffff1681526020019081526020016000208190555081600360008573ffffffffffffffffffffffffffffffffffffffff1673ffffffffffffffffffffffffffffffffffffffff168152602001908152602001600020600082825401925050819055508273ffffffffffffffffffffffffffffffffffffffff168473ffffffffffffffffffffffffffffffffffffffff167fddf252ad1be2c89b69c2b068fc378daa952ba7f163c4a11628f55a4df523b3ef846040516128859190613301565b60405180910390a350505050565b600033905090565b60006128a630611012565b90506016548110612b0d57600062030d40601354836128c5919061378a565b6128cf91906137fb565b9050600081620186a0601354856128e6919061378a565b6128f091906137fb565b6128fa91906140f8565b90506000828461290a91906140f8565b9050600047905061291a82612d3a565b6000814761292891906140f8565b90506000806000620186a060115485612941919061378a565b61294b91906137fb565b90506000620186a060125486612961919061378a565b61296b91906137fb565b90506000818361297b9190613756565b905081838761298a91906140f8565b61299491906140f8565b95506000620186a0601554836129aa919061378a565b6129b491906137fb565b9050600081836129c491906140f8565b9050600b60009054906101000a900473ffffffffffffffffffffffffffffffffffffffff1673ffffffffffffffffffffffffffffffffffffffff16826188b890604051612a10906141ef565b600060405180830381858888f193505050503d8060008114612a4e576040519150601f19603f3d011682016040523d82523d6000602084013e612a53565b606091505b505080975050600c60009054906101000a900473ffffffffffffffffffffffffffffffffffffffff1673ffffffffffffffffffffffffffffffffffffffff16816188b890604051612aa3906141ef565b600060405180830381858888f193505050503d8060008114612ae1576040519150601f19603f3d011682016040523d82523d6000602084013e612ae6565b606091505b5050809650506000881115612b0057612aff8b89612f7d565b5b5050505050505050505050505b50565b6000620186a08284612b22919061378a565b612b2c91906137fb565b905092915050565b600073ffffffffffffffffffffffffffffffffffffffff168373ffffffffffffffffffffffffffffffffffffffff1603612ba3576040517f08c379a0000000000000000000000000000000000000000000000000000000008152600401612b9a90614276565b60405180910390fd5b80600360008573ffffffffffffffffffffffffffffffffffffffff1673ffffffffffffffffffffffffffffffffffffffff168152602001908152602001600020541015612c25576040517f08c379a0000000000000000000000000000000000000000000000000000000008152600401612c1c90614308565b60405180910390fd5b80600360008573ffffffffffffffffffffffffffffffffffffffff1673ffffffffffffffffffffffffffffffffffffffff1681526020019081526020016000206000828254039250508190555080600360008473ffffffffffffffffffffffffffffffffffffffff1673ffffffffffffffffffffffffffffffffffffffff1681526020019081526020016000206000828254019250508190555080600160008282540392505081905550600073ffffffffffffffffffffffffffffffffffffffff168373ffffffffffffffffffffffffffffffffffffffff167fddf252ad1be2c89b69c2b068fc378daa952ba7f163c4a11628f55a4df523b3ef83604051612d2d9190613301565b60405180910390a3505050565b6000600267ffffffffffffffff811115612d5757612d56614328565b5b604051908082528060200260200182016040528015612d855781602001602082028036833780820191505090505b5090503081600081518110612d9d57612d9c6138be565b5b602002602001019073ffffffffffffffffffffffffffffffffffffffff16908173ffffffffffffffffffffffffffffffffffffffff1681525050601760009054906101000a900473ffffffffffffffffffffffffffffffffffffffff1673ffffffffffffffffffffffffffffffffffffffff1663ad5c46486040518163ffffffff1660e01b8152600401602060405180830381865afa158015612e44573d6000803e3d6000fd5b505050506040513d601f19601f82011682018060405250810190612e68919061436c565b81600181518110612e7c57612e7b6138be565b5b602002602001019073ffffffffffffffffffffffffffffffffffffffff16908173ffffffffffffffffffffffffffffffffffffffff1681525050612ee330601760009054906101000a900473ffffffffffffffffffffffffffffffffffffffff168461198b565b601760009054906101000a900473ffffffffffffffffffffffffffffffffffffffff1673ffffffffffffffffffffffffffffffffffffffff1663791ac9478360008430426040518663ffffffff1660e01b8152600401612f47959493929190614492565b600060405180830381600087803b158015612f6157600080fd5b505af1158015612f75573d6000803e3d6000fd5b505050505050565b612faa30601760009054906101000a900473ffffffffffffffffffffffffffffffffffffffff168461198b565b601760009054906101000a900473ffffffffffffffffffffffffffffffffffffffff1673ffffffffffffffffffffffffffffffffffffffff1663f305d71982308560008030426040518863ffffffff1660e01b8152600401613011969594939291906144ec565b60606040518083038185885af115801561302f573d6000803e3d6000fd5b50505050506040513d601f19601f82011682018060405250810190613054919061454d565b5050505050565b600073ffffffffffffffffffffffffffffffffffffffff82169050919050565b60006130868261305b565b9050919050565b6130968161307b565b82525050565b60006020820190506130b1600083018461308d565b92915050565b600081519050919050565b600082825260208201905092915050565b60005b838110156130f15780820151818401526020810190506130d6565b60008484015250505050565b6000601f19601f8301169050919050565b6000613119826130b7565b61312381856130c2565b93506131338185602086016130d3565b61313c816130fd565b840191505092915050565b60006020820190508181036000830152613161818461310e565b905092915050565b600080fd5b600080fd5b6000819050919050565b61318681613173565b811461319157600080fd5b50565b6000813590506131a38161317d565b92915050565b6000602082840312156131bf576131be613169565b5b60006131cd84828501613194565b91505092915050565b6131df8161307b565b81146131ea57600080fd5b50565b6000813590506131fc816131d6565b92915050565b6000806040838503121561321957613218613169565b5b6000613227858286016131ed565b925050602061323885828601613194565b9150509250929050565b60008115159050919050565b61325781613242565b82525050565b6000602082019050613272600083018461324e565b92915050565b6000819050919050565b600061329d6132986132938461305b565b613278565b61305b565b9050919050565b60006132af82613282565b9050919050565b60006132c1826132a4565b9050919050565b6132d1816132b6565b82525050565b60006020820190506132ec60008301846132c8565b92915050565b6132fb81613173565b82525050565b600060208201905061331660008301846132f2565b92915050565b60006020828403121561333257613331613169565b5b6000613340848285016131ed565b91505092915050565b60008060006060848603121561336257613361613169565b5b6000613370868287016131ed565b9350506020613381868287016131ed565b925050604061339286828701613194565b9150509250925092565b600060ff82169050919050565b6133b28161339c565b82525050565b60006020820190506133cd60008301846133a9565b92915050565b6133dc81613242565b81146133e757600080fd5b50565b6000813590506133f9816133d3565b92915050565b6000806040838503121561341657613415613169565b5b6000613424858286016131ed565b9250506020613435858286016133ea565b9150509250929050565b600080fd5b600080fd5b600080fd5b60008083601f8401126134645761346361343f565b5b8235905067ffffffffffffffff81111561348157613480613444565b5b60208301915083602082028301111561349d5761349c613449565b5b9250929050565b6000806000604084860312156134bd576134bc613169565b5b600084013567ffffffffffffffff8111156134db576134da61316e565b5b6134e78682870161344e565b935093505060206134fa86828701613194565b9150509250925092565b60006020828403121561351a57613519613169565b5b6000613528848285016133ea565b91505092915050565b6000806040838503121561354857613547613169565b5b6000613556858286016131ed565b9250506020613567858286016131ed565b9150509250929050565b7f4465762077616c6c65742063616e6e6f74206265207a65726f2061646472657360008201527f7300000000000000000000000000000000000000000000000000000000000000602082015250565b60006135cd6021836130c2565b91506135d882613571565b604082019050919050565b600060208201905081810360008301526135fc816135c0565b9050919050565b7f5461782070657263656e746167652063616e6e6f74206578636565642031303060008201527f2500000000000000000000000000000000000000000000000000000000000000602082015250565b600061365f6021836130c2565b915061366a82613603565b604082019050919050565b6000602082019050818103600083015261368e81613652565b9050919050565b7f4d61726b6574696e672077616c6c65742063616e6e6f74206265207a65726f2060008201527f6164647265737300000000000000000000000000000000000000000000000000602082015250565b60006136f16027836130c2565b91506136fc82613695565b604082019050919050565b60006020820190508181036000830152613720816136e4565b9050919050565b7f4e487b7100000000000000000000000000000000000000000000000000000000600052601160045260246000fd5b600061376182613173565b915061376c83613173565b925082820190508082111561378457613783613727565b5b92915050565b600061379582613173565b91506137a083613173565b92508282026137ae81613173565b915082820484148315176137c5576137c4613727565b5b5092915050565b7f4e487b7100000000000000000000000000000000000000000000000000000000600052601260045260246000fd5b600061380682613173565b915061381183613173565b925082613821576138206137cc565b5b828204905092915050565b7f54686520706169722063616e6e6f742062652072656d6f7665642066726f6d2060008201527f6175746f6d617465644d61726b65744d616b6572506169727300000000000000602082015250565b60006138886039836130c2565b91506138938261382c565b604082019050919050565b600060208201905081810360008301526138b78161387b565b9050919050565b7f4e487b7100000000000000000000000000000000000000000000000000000000600052603260045260246000fd5b7f45524332303a207472616e7366657220746f20746865207a65726f206164647260008201527f6573730000000000000000000000000000000000000000000000000000000000602082015250565b60006139496023836130c2565b9150613954826138ed565b604082019050919050565b600060208201905081810360008301526139788161393c565b9050919050565b7f4f776e65722063616e277420636c61696d20636f6e747261637427732062616c60008201527f616e6365206f6620697473206f776e20746f6b656e7300000000000000000000602082015250565b60006139db6036836130c2565b91506139e68261397f565b604082019050919050565b60006020820190508181036000830152613a0a816139ce565b9050919050565b600081519050613a208161317d565b92915050565b600060208284031215613a3c57613a3b613169565b5b6000613a4a84828501613a11565b91505092915050565b6000604082019050613a68600083018561308d565b613a7560208301846132f2565b9392505050565b600081519050613a8b816133d3565b92915050565b600060208284031215613aa757613aa6613169565b5b6000613ab584828501613a7c565b91505092915050565b7f5472616e73666572206661696c65640000000000000000000000000000000000600082015250565b6000613af4600f836130c2565b9150613aff82613abe565b602082019050919050565b60006020820190508181036000830152613b2381613ae7565b9050919050565b7f4f776e61626c653a206e6577206f776e657220697320746865207a65726f206160008201527f6464726573730000000000000000000000000000000000000000000000000000602082015250565b6000613b866026836130c2565b9150613b9182613b2a565b604082019050919050565b60006020820190508181036000830152613bb581613b79565b9050919050565b7f4f776e61626c653a2063616c6c6572206973206e6f7420746865206f776e6572600082015250565b6000613bf26020836130c2565b9150613bfd82613bbc565b602082019050919050565b60006020820190508181036000830152613c2181613be5565b9050919050565b7f45524332303a20617070726f76652066726f6d20746865207a65726f2061646460008201527f7265737300000000000000000000000000000000000000000000000000000000602082015250565b6000613c846024836130c2565b9150613c8f82613c28565b604082019050919050565b60006020820190508181036000830152613cb381613c77565b9050919050565b7f45524332303a20617070726f766520746f20746865207a65726f20616464726560008201527f7373000000000000000000000000000000000000000000000000000000000000602082015250565b6000613d166022836130c2565b9150613d2182613cba565b604082019050919050565b60006020820190508181036000830152613d4581613d09565b9050919050565b7f45524332303a20696e73756666696369656e7420616c6c6f77616e6365000000600082015250565b6000613d82601d836130c2565b9150613d8d82613d4c565b602082019050919050565b60006020820190508181036000830152613db181613d75565b9050919050565b7f45524332303a207472616e736665722066726f6d20746865207a65726f20616460008201527f6472657373000000000000000000000000000000000000000000000000000000602082015250565b6000613e146025836130c2565b9150613e1f82613db8565b604082019050919050565b60006020820190508181036000830152613e4381613e07565b9050919050565b7f5472616e7366657220616d6f756e74206d75737420626520677265617465722060008201527f7468616e207a65726f0000000000000000000000000000000000000000000000602082015250565b6000613ea66029836130c2565b9150613eb182613e4a565b604082019050919050565b60006020820190508181036000830152613ed581613e99565b9050919050565b7f53656e64657220697320626c61636b6c69737465640000000000000000000000600082015250565b6000613f126015836130c2565b9150613f1d82613edc565b602082019050919050565b60006020820190508181036000830152613f4181613f05565b9050919050565b7f526563697069656e7420697320626c61636b6c69737465640000000000000000600082015250565b6000613f7e6018836130c2565b9150613f8982613f48565b602082019050919050565b60006020820190508181036000830152613fad81613f71565b9050919050565b7f54726164696e672069732064697361626c656400000000000000000000000000600082015250565b6000613fea6013836130c2565b9150613ff582613fb4565b602082019050919050565b6000602082019050818103600083015261401981613fdd565b9050919050565b7f43616e6e6f7420627579206d6f7265207468616e206d6178206c696d69740000600082015250565b6000614056601e836130c2565b915061406182614020565b602082019050919050565b6000602082019050818103600083015261408581614049565b9050919050565b7f43616e6e6f742073656c6c206d6f7265207468616e206d6178206c696d697400600082015250565b60006140c2601f836130c2565b91506140cd8261408c565b602082019050919050565b600060208201905081810360008301526140f1816140b5565b9050919050565b600061410382613173565b915061410e83613173565b925082820390508181111561412657614125613727565b5b92915050565b7f45524332303a207472616e7366657220616d6f756e742065786365656473206260008201527f616c616e63650000000000000000000000000000000000000000000000000000602082015250565b60006141886026836130c2565b91506141938261412c565b604082019050919050565b600060208201905081810360008301526141b78161417b565b9050919050565b600081905092915050565b50565b60006141d96000836141be565b91506141e4826141c9565b600082019050919050565b60006141fa826141cc565b9150819050919050565b7f45524332303a206275726e2066726f6d20746865207a65726f2061646472657360008201527f7300000000000000000000000000000000000000000000000000000000000000602082015250565b60006142606021836130c2565b915061426b82614204565b604082019050919050565b6000602082019050818103600083015261428f81614253565b9050919050565b7f45524332303a206275726e20616d6f756e7420657863656564732062616c616e60008201527f6365000000000000000000000000000000000000000000000000000000000000602082015250565b60006142f26022836130c2565b91506142fd82614296565b604082019050919050565b60006020820190508181036000830152614321816142e5565b9050919050565b7f4e487b7100000000000000000000000000000000000000000000000000000000600052604160045260246000fd5b600081519050614366816131d6565b92915050565b60006020828403121561438257614381613169565b5b600061439084828501614357565b91505092915050565b6000819050919050565b60006143be6143b96143b484614399565b613278565b613173565b9050919050565b6143ce816143a3565b82525050565b600081519050919050565b600082825260208201905092915050565b6000819050602082019050919050565b6144098161307b565b82525050565b600061441b8383614400565b60208301905092915050565b6000602082019050919050565b600061443f826143d4565b61444981856143df565b9350614454836143f0565b8060005b8381101561448557815161446c888261440f565b975061447783614427565b925050600181019050614458565b5085935050505092915050565b600060a0820190506144a760008301886132f2565b6144b460208301876143c5565b81810360408301526144c68186614434565b90506144d5606083018561308d565b6144e260808301846132f2565b9695505050505050565b600060c082019050614501600083018961308d565b61450e60208301886132f2565b61451b60408301876143c5565b61452860608301866143c5565b614535608083018561308d565b61454260a08301846132f2565b979650505050505050565b60008060006060848603121561456657614565613169565b5b600061457486828701613a11565b935050602061458586828701613a11565b925050604061459686828701613a11565b915050925092509256fea2646970667358221220efc8a98712f2bad4fa05054f1a6eb47ec993af5f39bd36a4a20e31b0864a361c64736f6c63430008130033",
					"opcodes": "PUSH1 0x80 PUSH1 0x40 MSTORE PUSH1 0x12 PUSH1 0xFF AND PUSH1 0xA PUSH3 0x17 SWAP2 SWAP1 PUSH3 0xA68 JUMP JUMPDEST PUSH5 0x61C9F36800 PUSH3 0x29 SWAP2 SWAP1 PUSH3 0xAB9 JUMP JUMPDEST PUSH1 0x1 SSTORE PUSH1 0x12 PUSH1 0xFF AND PUSH1 0xA PUSH3 0x3F SWAP2 SWAP1 PUSH3 0xA68 JUMP JUMPDEST PUSH4 0x1312D00 PUSH3 0x50 SWAP2 SWAP1 PUSH3 0xAB9 JUMP JUMPDEST PUSH1 0x2 SSTORE PUSH1 0x1 PUSH1 0xA SSTORE PUSH2 0x3E8 PUSH1 0xD SSTORE PUSH2 0x3E8 PUSH1 0xE SSTORE PUSH2 0x3E8 PUSH1 0xF SSTORE PUSH2 0x3E8 PUSH1 0x10 SSTORE PUSH2 0x80E8 PUSH1 0x11 SSTORE PUSH2 0x80E8 PUSH1 0x12 SSTORE PUSH2 0x80E8 PUSH1 0x13 SSTORE PUSH2 0xC350 PUSH1 0x15 SSTORE PUSH1 0x12 PUSH1 0xFF AND PUSH1 0xA PUSH3 0x9B SWAP2 SWAP1 PUSH3 0xA68 JUMP JUMPDEST PUSH1 0x64 PUSH3 0xA9 SWAP2 SWAP1 PUSH3 0xAB9 JUMP JUMPDEST PUSH1 0x16 SSTORE PUSH1 0x1 PUSH1 0x18 PUSH1 0x15 PUSH2 0x100 EXP DUP2 SLOAD DUP2 PUSH1 0xFF MUL NOT AND SWAP1 DUP4 ISZERO ISZERO MUL OR SWAP1 SSTORE POP CALLVALUE DUP1 ISZERO PUSH3 0xD4 JUMPI PUSH1 0x0 DUP1 REVERT JUMPDEST POP PUSH1 0x40 MLOAD PUSH3 0x537A CODESIZE SUB DUP1 PUSH3 0x537A DUP4 CODECOPY DUP2 DUP2 ADD PUSH1 0x40 MSTORE DUP2 ADD SWAP1 PUSH3 0xFA SWAP2 SWAP1 PUSH3 0xB6E JUMP JUMPDEST PUSH3 0x11A PUSH3 0x10E PUSH3 0x5E3 PUSH1 0x20 SHL PUSH1 0x20 SHR JUMP JUMPDEST PUSH3 0x5EB PUSH1 0x20 SHL PUSH1 0x20 SHR JUMP JUMPDEST PUSH1 0x1 SLOAD PUSH1 0x3 PUSH1 0x0 CALLER PUSH20 0xFFFFFFFFFFFFFFFFFFFFFFFFFFFFFFFFFFFFFFFF AND PUSH20 0xFFFFFFFFFFFFFFFFFFFFFFFFFFFFFFFFFFFFFFFF AND DUP2 MSTORE PUSH1 0x20 ADD SWAP1 DUP2 MSTORE PUSH1 0x20 ADD PUSH1 0x0 KECCAK256 DUP2 SWAP1 SSTORE POP PUSH1 0x0 PUSH20 0xD99D1C33F9FC3444F8101754ABC46C52416550D1 SWAP1 POP DUP1 PUSH1 0x17 PUSH1 0x0 PUSH2 0x100 EXP DUP2 SLOAD DUP2 PUSH20 0xFFFFFFFFFFFFFFFFFFFFFFFFFFFFFFFFFFFFFFFF MUL NOT AND SWAP1 DUP4 PUSH20 0xFFFFFFFFFFFFFFFFFFFFFFFFFFFFFFFFFFFFFFFF AND MUL OR SWAP1 SSTORE POP DUP1 PUSH20 0xFFFFFFFFFFFFFFFFFFFFFFFFFFFFFFFFFFFFFFFF AND PUSH4 0xC45A0155 PUSH1 0x40 MLOAD DUP2 PUSH4 0xFFFFFFFF AND PUSH1 0xE0 SHL DUP2 MSTORE PUSH1 0x4 ADD PUSH1 0x20 PUSH1 0x40 MLOAD DUP1 DUP4 SUB DUP2 DUP7 GAS STATICCALL ISZERO DUP1 ISZERO PUSH3 0x206 JUMPI RETURNDATASIZE PUSH1 0x0 DUP1 RETURNDATACOPY RETURNDATASIZE PUSH1 0x0 REVERT JUMPDEST POP POP POP POP PUSH1 0x40 MLOAD RETURNDATASIZE PUSH1 0x1F NOT PUSH1 0x1F DUP3 ADD AND DUP3 ADD DUP1 PUSH1 0x40 MSTORE POP DUP2 ADD SWAP1 PUSH3 0x22C SWAP2 SWAP1 PUSH3 0xBB5 JUMP JUMPDEST PUSH20 0xFFFFFFFFFFFFFFFFFFFFFFFFFFFFFFFFFFFFFFFF AND PUSH4 0xC9C65396 ADDRESS DUP4 PUSH20 0xFFFFFFFFFFFFFFFFFFFFFFFFFFFFFFFFFFFFFFFF AND PUSH4 0xAD5C4648 PUSH1 0x40 MLOAD DUP2 PUSH4 0xFFFFFFFF AND PUSH1 0xE0 SHL DUP2 MSTORE PUSH1 0x4 ADD PUSH1 0x20 PUSH1 0x40 MLOAD DUP1 DUP4 SUB DUP2 DUP7 GAS STATICCALL ISZERO DUP1 ISZERO PUSH3 0x294 JUMPI RETURNDATASIZE PUSH1 0x0 DUP1 RETURNDATACOPY RETURNDATASIZE PUSH1 0x0 REVERT JUMPDEST POP POP POP POP PUSH1 0x40 MLOAD RETURNDATASIZE PUSH1 0x1F NOT PUSH1 0x1F DUP3 ADD AND DUP3 ADD DUP1 PUSH1 0x40 MSTORE POP DUP2 ADD SWAP1 PUSH3 0x2BA SWAP2 SWAP1 PUSH3 0xBB5 JUMP JUMPDEST PUSH1 0x40 MLOAD DUP4 PUSH4 0xFFFFFFFF AND PUSH1 0xE0 SHL DUP2 MSTORE PUSH1 0x4 ADD PUSH3 0x2D9 SWAP3 SWAP2 SWAP1 PUSH3 0xBF8 JUMP JUMPDEST PUSH1 0x20 PUSH1 0x40 MLOAD DUP1 DUP4 SUB DUP2 PUSH1 0x0 DUP8 GAS CALL ISZERO DUP1 ISZERO PUSH3 0x2F9 JUMPI RETURNDATASIZE PUSH1 0x0 DUP1 RETURNDATACOPY RETURNDATASIZE PUSH1 0x0 REVERT JUMPDEST POP POP POP POP PUSH1 0x40 MLOAD RETURNDATASIZE PUSH1 0x1F NOT PUSH1 0x1F DUP3 ADD AND DUP3 ADD DUP1 PUSH1 0x40 MSTORE POP DUP2 ADD SWAP1 PUSH3 0x31F SWAP2 SWAP1 PUSH3 0xBB5 JUMP JUMPDEST PUSH1 0x18 PUSH1 0x0 PUSH2 0x100 EXP DUP2 SLOAD DUP2 PUSH20 0xFFFFFFFFFFFFFFFFFFFFFFFFFFFFFFFFFFFFFFFF MUL NOT AND SWAP1 DUP4 PUSH20 0xFFFFFFFFFFFFFFFFFFFFFFFFFFFFFFFFFFFFFFFF AND MUL OR SWAP1 SSTORE POP PUSH3 0x3B4 CALLER PUSH1 0x17 PUSH1 0x0 SWAP1 SLOAD SWAP1 PUSH2 0x100 EXP SWAP1 DIV PUSH20 0xFFFFFFFFFFFFFFFFFFFFFFFFFFFFFFFFFFFFFFFF AND PUSH32 0xFFFFFFFFFFFFFFFFFFFFFFFFFFFFFFFFFFFFFFFFFFFFFFFFFFFFFFFFFFFFFFFF PUSH3 0x6AF PUSH1 0x20 SHL PUSH1 0x20 SHR JUMP JUMPDEST PUSH3 0x409 ADDRESS PUSH1 0x17 PUSH1 0x0 SWAP1 SLOAD SWAP1 PUSH2 0x100 EXP SWAP1 DIV PUSH20 0xFFFFFFFFFFFFFFFFFFFFFFFFFFFFFFFFFFFFFFFF AND PUSH32 0xFFFFFFFFFFFFFFFFFFFFFFFFFFFFFFFFFFFFFFFFFFFFFFFFFFFFFFFFFFFFFFFF PUSH3 0x6AF PUSH1 0x20 SHL PUSH1 0x20 SHR JUMP JUMPDEST PUSH3 0x43E PUSH1 0x18 PUSH1 0x0 SWAP1 SLOAD SWAP1 PUSH2 0x100 EXP SWAP1 DIV PUSH20 0xFFFFFFFFFFFFFFFFFFFFFFFFFFFFFFFFFFFFFFFF AND PUSH1 0x1 PUSH3 0x880 PUSH1 0x20 SHL PUSH1 0x20 SHR JUMP JUMPDEST DUP3 PUSH1 0xB PUSH1 0x0 PUSH2 0x100 EXP DUP2 SLOAD DUP2 PUSH20 0xFFFFFFFFFFFFFFFFFFFFFFFFFFFFFFFFFFFFFFFF MUL NOT AND SWAP1 DUP4 PUSH20 0xFFFFFFFFFFFFFFFFFFFFFFFFFFFFFFFFFFFFFFFF AND MUL OR SWAP1 SSTORE POP DUP2 PUSH1 0xC PUSH1 0x0 PUSH2 0x100 EXP DUP2 SLOAD DUP2 PUSH20 0xFFFFFFFFFFFFFFFFFFFFFFFFFFFFFFFFFFFFFFFF MUL NOT AND SWAP1 DUP4 PUSH20 0xFFFFFFFFFFFFFFFFFFFFFFFFFFFFFFFFFFFFFFFF AND MUL OR SWAP1 SSTORE POP PUSH1 0x1 PUSH1 0x7 PUSH1 0x0 ADDRESS PUSH20 0xFFFFFFFFFFFFFFFFFFFFFFFFFFFFFFFFFFFFFFFF AND PUSH20 0xFFFFFFFFFFFFFFFFFFFFFFFFFFFFFFFFFFFFFFFF AND DUP2 MSTORE PUSH1 0x20 ADD SWAP1 DUP2 MSTORE PUSH1 0x20 ADD PUSH1 0x0 KECCAK256 PUSH1 0x0 PUSH2 0x100 EXP DUP2 SLOAD DUP2 PUSH1 0xFF MUL NOT AND SWAP1 DUP4 ISZERO ISZERO MUL OR SWAP1 SSTORE POP PUSH1 0x1 PUSH1 0x7 PUSH1 0x0 CALLER PUSH20 0xFFFFFFFFFFFFFFFFFFFFFFFFFFFFFFFFFFFFFFFF AND PUSH20 0xFFFFFFFFFFFFFFFFFFFFFFFFFFFFFFFFFFFFFFFF AND DUP2 MSTORE PUSH1 0x20 ADD SWAP1 DUP2 MSTORE PUSH1 0x20 ADD PUSH1 0x0 KECCAK256 PUSH1 0x0 PUSH2 0x100 EXP DUP2 SLOAD DUP2 PUSH1 0xFF MUL NOT AND SWAP1 DUP4 ISZERO ISZERO MUL OR SWAP1 SSTORE POP CALLER PUSH20 0xFFFFFFFFFFFFFFFFFFFFFFFFFFFFFFFFFFFFFFFF AND PUSH1 0x0 PUSH20 0xFFFFFFFFFFFFFFFFFFFFFFFFFFFFFFFFFFFFFFFF AND PUSH32 0xDDF252AD1BE2C89B69C2B068FC378DAA952BA7F163C4A11628F55A4DF523B3EF PUSH1 0x1 SLOAD PUSH1 0x40 MLOAD PUSH3 0x5D2 SWAP2 SWAP1 PUSH3 0xC36 JUMP JUMPDEST PUSH1 0x40 MLOAD DUP1 SWAP2 SUB SWAP1 LOG3 POP POP POP PUSH3 0xD94 JUMP JUMPDEST PUSH1 0x0 CALLER SWAP1 POP SWAP1 JUMP JUMPDEST PUSH1 0x0 DUP1 PUSH1 0x0 SWAP1 SLOAD SWAP1 PUSH2 0x100 EXP SWAP1 DIV PUSH20 0xFFFFFFFFFFFFFFFFFFFFFFFFFFFFFFFFFFFFFFFF AND SWAP1 POP DUP2 PUSH1 0x0 DUP1 PUSH2 0x100 EXP DUP2 SLOAD DUP2 PUSH20 0xFFFFFFFFFFFFFFFFFFFFFFFFFFFFFFFFFFFFFFFF MUL NOT AND SWAP1 DUP4 PUSH20 0xFFFFFFFFFFFFFFFFFFFFFFFFFFFFFFFFFFFFFFFF AND MUL OR SWAP1 SSTORE POP DUP2 PUSH20 0xFFFFFFFFFFFFFFFFFFFFFFFFFFFFFFFFFFFFFFFF AND DUP2 PUSH20 0xFFFFFFFFFFFFFFFFFFFFFFFFFFFFFFFFFFFFFFFF AND PUSH32 0x8BE0079C531659141344CD1FD0A4F28419497F9722A3DAAFE3B4186F6B6457E0 PUSH1 0x40 MLOAD PUSH1 0x40 MLOAD DUP1 SWAP2 SUB SWAP1 LOG3 POP POP JUMP JUMPDEST PUSH1 0x0 PUSH20 0xFFFFFFFFFFFFFFFFFFFFFFFFFFFFFFFFFFFFFFFF AND DUP4 PUSH20 0xFFFFFFFFFFFFFFFFFFFFFFFFFFFFFFFFFFFFFFFF AND SUB PUSH3 0x721 JUMPI PUSH1 0x40 MLOAD PUSH32 0x8C379A000000000000000000000000000000000000000000000000000000000 DUP2 MSTORE PUSH1 0x4 ADD PUSH3 0x718 SWAP1 PUSH3 0xCDA JUMP JUMPDEST PUSH1 0x40 MLOAD DUP1 SWAP2 SUB SWAP1 REVERT JUMPDEST PUSH1 0x0 PUSH20 0xFFFFFFFFFFFFFFFFFFFFFFFFFFFFFFFFFFFFFFFF AND DUP3 PUSH20 0xFFFFFFFFFFFFFFFFFFFFFFFFFFFFFFFFFFFFFFFF AND SUB PUSH3 0x793 JUMPI PUSH1 0x40 MLOAD PUSH32 0x8C379A000000000000000000000000000000000000000000000000000000000 DUP2 MSTORE PUSH1 0x4 ADD PUSH3 0x78A SWAP1 PUSH3 0xD72 JUMP JUMPDEST PUSH1 0x40 MLOAD DUP1 SWAP2 SUB SWAP1 REVERT JUMPDEST DUP1 PUSH1 0x4 PUSH1 0x0 DUP6 PUSH20 0xFFFFFFFFFFFFFFFFFFFFFFFFFFFFFFFFFFFFFFFF AND PUSH20 0xFFFFFFFFFFFFFFFFFFFFFFFFFFFFFFFFFFFFFFFF AND DUP2 MSTORE PUSH1 0x20 ADD SWAP1 DUP2 MSTORE PUSH1 0x20 ADD PUSH1 0x0 KECCAK256 PUSH1 0x0 DUP5 PUSH20 0xFFFFFFFFFFFFFFFFFFFFFFFFFFFFFFFFFFFFFFFF AND PUSH20 0xFFFFFFFFFFFFFFFFFFFFFFFFFFFFFFFFFFFFFFFF AND DUP2 MSTORE PUSH1 0x20 ADD SWAP1 DUP2 MSTORE PUSH1 0x20 ADD PUSH1 0x0 KECCAK256 DUP2 SWAP1 SSTORE POP DUP2 PUSH20 0xFFFFFFFFFFFFFFFFFFFFFFFFFFFFFFFFFFFFFFFF AND DUP4 PUSH20 0xFFFFFFFFFFFFFFFFFFFFFFFFFFFFFFFFFFFFFFFF AND PUSH32 0x8C5BE1E5EBEC7D5BD14F71427D1E84F3DD0314C0F7B2291E5B200AC8C7C3B925 DUP4 PUSH1 0x40 MLOAD PUSH3 0x873 SWAP2 SWAP1 PUSH3 0xC36 JUMP JUMPDEST PUSH1 0x40 MLOAD DUP1 SWAP2 SUB SWAP1 LOG3 POP POP POP JUMP JUMPDEST DUP1 PUSH1 0x6 PUSH1 0x0 DUP5 PUSH20 0xFFFFFFFFFFFFFFFFFFFFFFFFFFFFFFFFFFFFFFFF AND PUSH20 0xFFFFFFFFFFFFFFFFFFFFFFFFFFFFFFFFFFFFFFFF AND DUP2 MSTORE PUSH1 0x20 ADD SWAP1 DUP2 MSTORE PUSH1 0x20 ADD PUSH1 0x0 KECCAK256 PUSH1 0x0 PUSH2 0x100 EXP DUP2 SLOAD DUP2 PUSH1 0xFF MUL NOT AND SWAP1 DUP4 ISZERO ISZERO MUL OR SWAP1 SSTORE POP POP POP JUMP JUMPDEST PUSH32 0x4E487B7100000000000000000000000000000000000000000000000000000000 PUSH1 0x0 MSTORE PUSH1 0x11 PUSH1 0x4 MSTORE PUSH1 0x24 PUSH1 0x0 REVERT JUMPDEST PUSH1 0x0 DUP2 PUSH1 0x1 SHR SWAP1 POP SWAP2 SWAP1 POP JUMP JUMPDEST PUSH1 0x0 DUP1 DUP3 SWAP2 POP DUP4 SWAP1 POP JUMPDEST PUSH1 0x1 DUP6 GT ISZERO PUSH3 0x969 JUMPI DUP1 DUP7 DIV DUP2 GT ISZERO PUSH3 0x941 JUMPI PUSH3 0x940 PUSH3 0x8DB JUMP JUMPDEST JUMPDEST PUSH1 0x1 DUP6 AND ISZERO PUSH3 0x951 JUMPI DUP1 DUP3 MUL SWAP2 POP JUMPDEST DUP1 DUP2 MUL SWAP1 POP PUSH3 0x961 DUP6 PUSH3 0x90A JUMP JUMPDEST SWAP5 POP PUSH3 0x921 JUMP JUMPDEST SWAP5 POP SWAP5 SWAP3 POP POP POP JUMP JUMPDEST PUSH1 0x0 DUP3 PUSH3 0x984 JUMPI PUSH1 0x1 SWAP1 POP PUSH3 0xA57 JUMP JUMPDEST DUP2 PUSH3 0x994 JUMPI PUSH1 0x0 SWAP1 POP PUSH3 0xA57 JUMP JUMPDEST DUP2 PUSH1 0x1 DUP2 EQ PUSH3 0x9AD JUMPI PUSH1 0x2 DUP2 EQ PUSH3 0x9B8 JUMPI PUSH3 0x9EE JUMP JUMPDEST PUSH1 0x1 SWAP2 POP POP PUSH3 0xA57 JUMP JUMPDEST PUSH1 0xFF DUP5 GT ISZERO PUSH3 0x9CD JUMPI PUSH3 0x9CC PUSH3 0x8DB JUMP JUMPDEST JUMPDEST DUP4 PUSH1 0x2 EXP SWAP2 POP DUP5 DUP3 GT ISZERO PUSH3 0x9E7 JUMPI PUSH3 0x9E6 PUSH3 0x8DB JUMP JUMPDEST JUMPDEST POP PUSH3 0xA57 JUMP JUMPDEST POP PUSH1 0x20 DUP4 LT PUSH2 0x133 DUP4 LT AND PUSH1 0x4E DUP5 LT PUSH1 0xB DUP5 LT AND OR ISZERO PUSH3 0xA28 JUMPI DUP3 DUP3 EXP SWAP1 POP DUP4 DUP2 GT ISZERO PUSH3 0xA22 JUMPI PUSH3 0xA21 PUSH3 0x8DB JUMP JUMPDEST JUMPDEST PUSH3 0xA57 JUMP JUMPDEST PUSH3 0xA37 DUP5 DUP5 DUP5 PUSH1 0x1 PUSH3 0x917 JUMP JUMPDEST SWAP3 POP SWAP1 POP DUP2 DUP5 DIV DUP2 GT ISZERO PUSH3 0xA51 JUMPI PUSH3 0xA50 PUSH3 0x8DB JUMP JUMPDEST JUMPDEST DUP2 DUP2 MUL SWAP1 POP JUMPDEST SWAP4 SWAP3 POP POP POP JUMP JUMPDEST PUSH1 0x0 DUP2 SWAP1 POP SWAP2 SWAP1 POP JUMP JUMPDEST PUSH1 0x0 PUSH3 0xA75 DUP3 PUSH3 0xA5E JUMP JUMPDEST SWAP2 POP PUSH3 0xA82 DUP4 PUSH3 0xA5E JUMP JUMPDEST SWAP3 POP PUSH3 0xAB1 PUSH32 0xFFFFFFFFFFFFFFFFFFFFFFFFFFFFFFFFFFFFFFFFFFFFFFFFFFFFFFFFFFFFFFFF DUP5 DUP5 PUSH3 0x972 JUMP JUMPDEST SWAP1 POP SWAP3 SWAP2 POP POP JUMP JUMPDEST PUSH1 0x0 PUSH3 0xAC6 DUP3 PUSH3 0xA5E JUMP JUMPDEST SWAP2 POP PUSH3 0xAD3 DUP4 PUSH3 0xA5E JUMP JUMPDEST SWAP3 POP DUP3 DUP3 MUL PUSH3 0xAE3 DUP2 PUSH3 0xA5E JUMP JUMPDEST SWAP2 POP DUP3 DUP3 DIV DUP5 EQ DUP4 ISZERO OR PUSH3 0xAFD JUMPI PUSH3 0xAFC PUSH3 0x8DB JUMP JUMPDEST JUMPDEST POP SWAP3 SWAP2 POP POP JUMP JUMPDEST PUSH1 0x0 DUP1 REVERT JUMPDEST PUSH1 0x0 PUSH20 0xFFFFFFFFFFFFFFFFFFFFFFFFFFFFFFFFFFFFFFFF DUP3 AND SWAP1 POP SWAP2 SWAP1 POP JUMP JUMPDEST PUSH1 0x0 PUSH3 0xB36 DUP3 PUSH3 0xB09 JUMP JUMPDEST SWAP1 POP SWAP2 SWAP1 POP JUMP JUMPDEST PUSH3 0xB48 DUP2 PUSH3 0xB29 JUMP JUMPDEST DUP2 EQ PUSH3 0xB54 JUMPI PUSH1 0x0 DUP1 REVERT JUMPDEST POP JUMP JUMPDEST PUSH1 0x0 DUP2 MLOAD SWAP1 POP PUSH3 0xB68 DUP2 PUSH3 0xB3D JUMP JUMPDEST SWAP3 SWAP2 POP POP JUMP JUMPDEST PUSH1 0x0 DUP1 PUSH1 0x40 DUP4 DUP6 SUB SLT ISZERO PUSH3 0xB88 JUMPI PUSH3 0xB87 PUSH3 0xB04 JUMP JUMPDEST JUMPDEST PUSH1 0x0 PUSH3 0xB98 DUP6 DUP3 DUP7 ADD PUSH3 0xB57 JUMP JUMPDEST SWAP3 POP POP PUSH1 0x20 PUSH3 0xBAB DUP6 DUP3 DUP7 ADD PUSH3 0xB57 JUMP JUMPDEST SWAP2 POP POP SWAP3 POP SWAP3 SWAP1 POP JUMP JUMPDEST PUSH1 0x0 PUSH1 0x20 DUP3 DUP5 SUB SLT ISZERO PUSH3 0xBCE JUMPI PUSH3 0xBCD PUSH3 0xB04 JUMP JUMPDEST JUMPDEST PUSH1 0x0 PUSH3 0xBDE DUP5 DUP3 DUP6 ADD PUSH3 0xB57 JUMP JUMPDEST SWAP2 POP POP SWAP3 SWAP2 POP POP JUMP JUMPDEST PUSH3 0xBF2 DUP2 PUSH3 0xB29 JUMP JUMPDEST DUP3 MSTORE POP POP JUMP JUMPDEST PUSH1 0x0 PUSH1 0x40 DUP3 ADD SWAP1 POP PUSH3 0xC0F PUSH1 0x0 DUP4 ADD DUP6 PUSH3 0xBE7 JUMP JUMPDEST PUSH3 0xC1E PUSH1 0x20 DUP4 ADD DUP5 PUSH3 0xBE7 JUMP JUMPDEST SWAP4 SWAP3 POP POP POP JUMP JUMPDEST PUSH3 0xC30 DUP2 PUSH3 0xA5E JUMP JUMPDEST DUP3 MSTORE POP POP JUMP JUMPDEST PUSH1 0x0 PUSH1 0x20 DUP3 ADD SWAP1 POP PUSH3 0xC4D PUSH1 0x0 DUP4 ADD DUP5 PUSH3 0xC25 JUMP JUMPDEST SWAP3 SWAP2 POP POP JUMP JUMPDEST PUSH1 0x0 DUP3 DUP3 MSTORE PUSH1 0x20 DUP3 ADD SWAP1 POP SWAP3 SWAP2 POP POP JUMP JUMPDEST PUSH32 0x45524332303A20617070726F76652066726F6D20746865207A65726F20616464 PUSH1 0x0 DUP3 ADD MSTORE PUSH32 0x7265737300000000000000000000000000000000000000000000000000000000 PUSH1 0x20 DUP3 ADD MSTORE POP JUMP JUMPDEST PUSH1 0x0 PUSH3 0xCC2 PUSH1 0x24 DUP4 PUSH3 0xC53 JUMP JUMPDEST SWAP2 POP PUSH3 0xCCF DUP3 PUSH3 0xC64 JUMP JUMPDEST PUSH1 0x40 DUP3 ADD SWAP1 POP SWAP2 SWAP1 POP JUMP JUMPDEST PUSH1 0x0 PUSH1 0x20 DUP3 ADD SWAP1 POP DUP2 DUP2 SUB PUSH1 0x0 DUP4 ADD MSTORE PUSH3 0xCF5 DUP2 PUSH3 0xCB3 JUMP JUMPDEST SWAP1 POP SWAP2 SWAP1 POP JUMP JUMPDEST PUSH32 0x45524332303A20617070726F766520746F20746865207A65726F206164647265 PUSH1 0x0 DUP3 ADD MSTORE PUSH32 0x7373000000000000000000000000000000000000000000000000000000000000 PUSH1 0x20 DUP3 ADD MSTORE POP JUMP JUMPDEST PUSH1 0x0 PUSH3 0xD5A PUSH1 0x22 DUP4 PUSH3 0xC53 JUMP JUMPDEST SWAP2 POP PUSH3 0xD67 DUP3 PUSH3 0xCFC JUMP JUMPDEST PUSH1 0x40 DUP3 ADD SWAP1 POP SWAP2 SWAP1 POP JUMP JUMPDEST PUSH1 0x0 PUSH1 0x20 DUP3 ADD SWAP1 POP DUP2 DUP2 SUB PUSH1 0x0 DUP4 ADD MSTORE PUSH3 0xD8D DUP2 PUSH3 0xD4B JUMP JUMPDEST SWAP1 POP SWAP2 SWAP1 POP JUMP JUMPDEST PUSH2 0x45D6 DUP1 PUSH3 0xDA4 PUSH1 0x0 CODECOPY PUSH1 0x0 RETURN INVALID PUSH1 0x80 PUSH1 0x40 MSTORE PUSH1 0x4 CALLDATASIZE LT PUSH2 0x2E8 JUMPI PUSH1 0x0 CALLDATALOAD PUSH1 0xE0 SHR DUP1 PUSH4 0x7F2E6CCB GT PUSH2 0x190 JUMPI DUP1 PUSH4 0xBA414B10 GT PUSH2 0xDC JUMPI DUP1 PUSH4 0xDBAC26E9 GT PUSH2 0x95 JUMPI DUP1 PUSH4 0xE59602FA GT PUSH2 0x6F JUMPI DUP1 PUSH4 0xE59602FA EQ PUSH2 0xB24 JUMPI DUP1 PUSH4 0xE6BE4A72 EQ PUSH2 0xB4D JUMPI DUP1 PUSH4 0xF2FDE38B EQ PUSH2 0xB76 JUMPI DUP1 PUSH4 0xF7E53337 EQ PUSH2 0xB9F JUMPI PUSH2 0x2EF JUMP JUMPDEST DUP1 PUSH4 0xDBAC26E9 EQ PUSH2 0xA7F JUMPI DUP1 PUSH4 0xDD3A1F76 EQ PUSH2 0xABC JUMPI DUP1 PUSH4 0xDD62ED3E EQ PUSH2 0xAE7 JUMPI PUSH2 0x2EF JUMP JUMPDEST DUP1 PUSH4 0xBA414B10 EQ PUSH2 0x995 JUMPI DUP1 PUSH4 0xC00F04D1 EQ PUSH2 0x9BE JUMPI DUP1 PUSH4 0xC410AB5E EQ PUSH2 0x9E7 JUMPI DUP1 PUSH4 0xC51ABC59 EQ PUSH2 0xA12 JUMPI DUP1 PUSH4 0xCE831ED5 EQ PUSH2 0xA3D JUMPI DUP1 PUSH4 0xD8020A18 EQ PUSH2 0xA54 JUMPI PUSH2 0x2EF JUMP JUMPDEST DUP1 PUSH4 0x9EC4BE41 GT PUSH2 0x149 JUMPI DUP1 PUSH4 0xA9059CBB GT PUSH2 0x123 JUMPI DUP1 PUSH4 0xA9059CBB EQ PUSH2 0x8C7 JUMPI DUP1 PUSH4 0xAAA00B99 EQ PUSH2 0x904 JUMPI DUP1 PUSH4 0xB62496F5 EQ PUSH2 0x92F JUMPI DUP1 PUSH4 0xB7925F7A EQ PUSH2 0x96C JUMPI PUSH2 0x2EF JUMP JUMPDEST DUP1 PUSH4 0x9EC4BE41 EQ PUSH2 0x84A JUMPI DUP1 PUSH4 0xA562564A EQ PUSH2 0x873 JUMPI DUP1 PUSH4 0xA56D37F9 EQ PUSH2 0x89E JUMPI PUSH2 0x2EF JUMP JUMPDEST DUP1 PUSH4 0x7F2E6CCB EQ PUSH2 0x74A JUMPI DUP1 PUSH4 0x8D38A127 EQ PUSH2 0x775 JUMPI DUP1 PUSH4 0x8DA5CB5B EQ PUSH2 0x7A0 JUMPI DUP1 PUSH4 0x8EA5220F EQ PUSH2 0x7CB JUMPI DUP1 PUSH4 0x95D89B41 EQ PUSH2 0x7F6 JUMPI DUP1 PUSH4 0x9A7A23D6 EQ PUSH2 0x821 JUMPI PUSH2 0x2EF JUMP JUMPDEST DUP1 PUSH4 0x4FE47F70 GT PUSH2 0x24F JUMPI DUP1 PUSH4 0x6DBFF43B GT PUSH2 0x208 JUMPI DUP1 PUSH4 0x715018A6 GT PUSH2 0x1E2 JUMPI DUP1 PUSH4 0x715018A6 EQ PUSH2 0x6A0 JUMPI DUP1 PUSH4 0x75F0A874 EQ PUSH2 0x6B7 JUMPI DUP1 PUSH4 0x768DC710 EQ PUSH2 0x6E2 JUMPI DUP1 PUSH4 0x7AAB5D9B EQ PUSH2 0x71F JUMPI PUSH2 0x2EF JUMP JUMPDEST DUP1 PUSH4 0x6DBFF43B EQ PUSH2 0x60F JUMPI DUP1 PUSH4 0x6DDD1713 EQ PUSH2 0x638 JUMPI DUP1 PUSH4 0x70A08231 EQ PUSH2 0x663 JUMPI PUSH2 0x2EF JUMP JUMPDEST DUP1 PUSH4 0x4FE47F70 EQ PUSH2 0x513 JUMPI DUP1 PUSH4 0x549FB8BF EQ PUSH2 0x53C JUMPI DUP1 PUSH4 0x5D098B38 EQ PUSH2 0x567 JUMPI DUP1 PUSH4 0x5F48F393 EQ PUSH2 0x590 JUMPI DUP1 PUSH4 0x6612E66F EQ PUSH2 0x5BB JUMPI DUP1 PUSH4 0x67B34E01 EQ PUSH2 0x5E4 JUMPI PUSH2 0x2EF JUMP JUMPDEST DUP1 PUSH4 0x1F53AC02 GT PUSH2 0x2A1 JUMPI DUP1 PUSH4 0x1F53AC02 EQ PUSH2 0x403 JUMPI DUP1 PUSH4 0x23B872DD EQ PUSH2 0x42C JUMPI DUP1 PUSH4 0x2D4ED650 EQ PUSH2 0x469 JUMPI DUP1 PUSH4 0x3048A281 EQ PUSH2 0x492 JUMPI DUP1 PUSH4 0x313CE567 EQ PUSH2 0x4BD JUMPI DUP1 PUSH4 0x4BF28FD0 EQ PUSH2 0x4E8 JUMPI PUSH2 0x2EF JUMP JUMPDEST DUP1 PUSH4 0x3FD2A45 EQ PUSH2 0x2F1 JUMPI DUP1 PUSH4 0x6FDDE03 EQ PUSH2 0x31C JUMPI DUP1 PUSH4 0x7A212BE EQ PUSH2 0x347 JUMPI DUP1 PUSH4 0x95EA7B3 EQ PUSH2 0x370 JUMPI DUP1 PUSH4 0x1694505E EQ PUSH2 0x3AD JUMPI DUP1 PUSH4 0x18160DDD EQ PUSH2 0x3D8 JUMPI PUSH2 0x2EF JUMP JUMPDEST CALLDATASIZE PUSH2 0x2EF JUMPI STOP JUMPDEST STOP JUMPDEST CALLVALUE DUP1 ISZERO PUSH2 0x2FD JUMPI PUSH1 0x0 DUP1 REVERT JUMPDEST POP PUSH2 0x306 PUSH2 0xBCA JUMP JUMPDEST PUSH1 0x40 MLOAD PUSH2 0x313 SWAP2 SWAP1 PUSH2 0x309C JUMP JUMPDEST PUSH1 0x40 MLOAD DUP1 SWAP2 SUB SWAP1 RETURN JUMPDEST CALLVALUE DUP1 ISZERO PUSH2 0x328 JUMPI PUSH1 0x0 DUP1 REVERT JUMPDEST POP PUSH2 0x331 PUSH2 0xBD0 JUMP JUMPDEST PUSH1 0x40 MLOAD PUSH2 0x33E SWAP2 SWAP1 PUSH2 0x3147 JUMP JUMPDEST PUSH1 0x40 MLOAD DUP1 SWAP2 SUB SWAP1 RETURN JUMPDEST CALLVALUE DUP1 ISZERO PUSH2 0x353 JUMPI PUSH1 0x0 DUP1 REVERT JUMPDEST POP PUSH2 0x36E PUSH1 0x4 DUP1 CALLDATASIZE SUB DUP2 ADD SWAP1 PUSH2 0x369 SWAP2 SWAP1 PUSH2 0x31A9 JUMP JUMPDEST PUSH2 0xC0D JUMP JUMPDEST STOP JUMPDEST CALLVALUE DUP1 ISZERO PUSH2 0x37C JUMPI PUSH1 0x0 DUP1 REVERT JUMPDEST POP PUSH2 0x397 PUSH1 0x4 DUP1 CALLDATASIZE SUB DUP2 ADD SWAP1 PUSH2 0x392 SWAP2 SWAP1 PUSH2 0x3202 JUMP JUMPDEST PUSH2 0xC1F JUMP JUMPDEST PUSH1 0x40 MLOAD PUSH2 0x3A4 SWAP2 SWAP1 PUSH2 0x325D JUMP JUMPDEST PUSH1 0x40 MLOAD DUP1 SWAP2 SUB SWAP1 RETURN JUMPDEST CALLVALUE DUP1 ISZERO PUSH2 0x3B9 JUMPI PUSH1 0x0 DUP1 REVERT JUMPDEST POP PUSH2 0x3C2 PUSH2 0xC36 JUMP JUMPDEST PUSH1 0x40 MLOAD PUSH2 0x3CF SWAP2 SWAP1 PUSH2 0x32D7 JUMP JUMPDEST PUSH1 0x40 MLOAD DUP1 SWAP2 SUB SWAP1 RETURN JUMPDEST CALLVALUE DUP1 ISZERO PUSH2 0x3E4 JUMPI PUSH1 0x0 DUP1 REVERT JUMPDEST POP PUSH2 0x3ED PUSH2 0xC5C JUMP JUMPDEST PUSH1 0x40 MLOAD PUSH2 0x3FA SWAP2 SWAP1 PUSH2 0x3301 JUMP JUMPDEST PUSH1 0x40 MLOAD DUP1 SWAP2 SUB SWAP1 RETURN JUMPDEST CALLVALUE DUP1 ISZERO PUSH2 0x40F JUMPI PUSH1 0x0 DUP1 REVERT JUMPDEST POP PUSH2 0x42A PUSH1 0x4 DUP1 CALLDATASIZE SUB DUP2 ADD SWAP1 PUSH2 0x425 SWAP2 SWAP1 PUSH2 0x331C JUMP JUMPDEST PUSH2 0xC66 JUMP JUMPDEST STOP JUMPDEST CALLVALUE DUP1 ISZERO PUSH2 0x438 JUMPI PUSH1 0x0 DUP1 REVERT JUMPDEST POP PUSH2 0x453 PUSH1 0x4 DUP1 CALLDATASIZE SUB DUP2 ADD SWAP1 PUSH2 0x44E SWAP2 SWAP1 PUSH2 0x3349 JUMP JUMPDEST PUSH2 0xD21 JUMP JUMPDEST PUSH1 0x40 MLOAD PUSH2 0x460 SWAP2 SWAP1 PUSH2 0x325D JUMP JUMPDEST PUSH1 0x40 MLOAD DUP1 SWAP2 SUB SWAP1 RETURN JUMPDEST CALLVALUE DUP1 ISZERO PUSH2 0x475 JUMPI PUSH1 0x0 DUP1 REVERT JUMPDEST POP PUSH2 0x490 PUSH1 0x4 DUP1 CALLDATASIZE SUB DUP2 ADD SWAP1 PUSH2 0x48B SWAP2 SWAP1 PUSH2 0x31A9 JUMP JUMPDEST PUSH2 0xD49 JUMP JUMPDEST STOP JUMPDEST CALLVALUE DUP1 ISZERO PUSH2 0x49E JUMPI PUSH1 0x0 DUP1 REVERT JUMPDEST POP PUSH2 0x4A7 PUSH2 0xDA1 JUMP JUMPDEST PUSH1 0x40 MLOAD PUSH2 0x4B4 SWAP2 SWAP1 PUSH2 0x3301 JUMP JUMPDEST PUSH1 0x40 MLOAD DUP1 SWAP2 SUB SWAP1 RETURN JUMPDEST CALLVALUE DUP1 ISZERO PUSH2 0x4C9 JUMPI PUSH1 0x0 DUP1 REVERT JUMPDEST POP PUSH2 0x4D2 PUSH2 0xDA7 JUMP JUMPDEST PUSH1 0x40 MLOAD PUSH2 0x4DF SWAP2 SWAP1 PUSH2 0x33B8 JUMP JUMPDEST PUSH1 0x40 MLOAD DUP1 SWAP2 SUB SWAP1 RETURN JUMPDEST CALLVALUE DUP1 ISZERO PUSH2 0x4F4 JUMPI PUSH1 0x0 DUP1 REVERT JUMPDEST POP PUSH2 0x4FD PUSH2 0xDB0 JUMP JUMPDEST PUSH1 0x40 MLOAD PUSH2 0x50A SWAP2 SWAP1 PUSH2 0x309C JUMP JUMPDEST PUSH1 0x40 MLOAD DUP1 SWAP2 SUB SWAP1 RETURN JUMPDEST CALLVALUE DUP1 ISZERO PUSH2 0x51F JUMPI PUSH1 0x0 DUP1 REVERT JUMPDEST POP PUSH2 0x53A PUSH1 0x4 DUP1 CALLDATASIZE SUB DUP2 ADD SWAP1 PUSH2 0x535 SWAP2 SWAP1 PUSH2 0x31A9 JUMP JUMPDEST PUSH2 0xDD6 JUMP JUMPDEST STOP JUMPDEST CALLVALUE DUP1 ISZERO PUSH2 0x548 JUMPI PUSH1 0x0 DUP1 REVERT JUMPDEST POP PUSH2 0x551 PUSH2 0xDE8 JUMP JUMPDEST PUSH1 0x40 MLOAD PUSH2 0x55E SWAP2 SWAP1 PUSH2 0x3301 JUMP JUMPDEST PUSH1 0x40 MLOAD DUP1 SWAP2 SUB SWAP1 RETURN JUMPDEST CALLVALUE DUP1 ISZERO PUSH2 0x573 JUMPI PUSH1 0x0 DUP1 REVERT JUMPDEST POP PUSH2 0x58E PUSH1 0x4 DUP1 CALLDATASIZE SUB DUP2 ADD SWAP1 PUSH2 0x589 SWAP2 SWAP1 PUSH2 0x331C JUMP JUMPDEST PUSH2 0xDEE JUMP JUMPDEST STOP JUMPDEST CALLVALUE DUP1 ISZERO PUSH2 0x59C JUMPI PUSH1 0x0 DUP1 REVERT JUMPDEST POP PUSH2 0x5A5 PUSH2 0xEA9 JUMP JUMPDEST PUSH1 0x40 MLOAD PUSH2 0x5B2 SWAP2 SWAP1 PUSH2 0x3301 JUMP JUMPDEST PUSH1 0x40 MLOAD DUP1 SWAP2 SUB SWAP1 RETURN JUMPDEST CALLVALUE DUP1 ISZERO PUSH2 0x5C7 JUMPI PUSH1 0x0 DUP1 REVERT JUMPDEST POP PUSH2 0x5E2 PUSH1 0x4 DUP1 CALLDATASIZE SUB DUP2 ADD SWAP1 PUSH2 0x5DD SWAP2 SWAP1 PUSH2 0x33FF JUMP JUMPDEST PUSH2 0xEAF JUMP JUMPDEST STOP JUMPDEST CALLVALUE DUP1 ISZERO PUSH2 0x5F0 JUMPI PUSH1 0x0 DUP1 REVERT JUMPDEST POP PUSH2 0x5F9 PUSH2 0xF12 JUMP JUMPDEST PUSH1 0x40 MLOAD PUSH2 0x606 SWAP2 SWAP1 PUSH2 0x3301 JUMP JUMPDEST PUSH1 0x40 MLOAD DUP1 SWAP2 SUB SWAP1 RETURN JUMPDEST CALLVALUE DUP1 ISZERO PUSH2 0x61B JUMPI PUSH1 0x0 DUP1 REVERT JUMPDEST POP PUSH2 0x636 PUSH1 0x4 DUP1 CALLDATASIZE SUB DUP2 ADD SWAP1 PUSH2 0x631 SWAP2 SWAP1 PUSH2 0x31A9 JUMP JUMPDEST PUSH2 0xF18 JUMP JUMPDEST STOP JUMPDEST CALLVALUE DUP1 ISZERO PUSH2 0x644 JUMPI PUSH1 0x0 DUP1 REVERT JUMPDEST POP PUSH2 0x64D PUSH2 0xFFF JUMP JUMPDEST PUSH1 0x40 MLOAD PUSH2 0x65A SWAP2 SWAP1 PUSH2 0x325D JUMP JUMPDEST PUSH1 0x40 MLOAD DUP1 SWAP2 SUB SWAP1 RETURN JUMPDEST CALLVALUE DUP1 ISZERO PUSH2 0x66F JUMPI PUSH1 0x0 DUP1 REVERT JUMPDEST POP PUSH2 0x68A PUSH1 0x4 DUP1 CALLDATASIZE SUB DUP2 ADD SWAP1 PUSH2 0x685 SWAP2 SWAP1 PUSH2 0x331C JUMP JUMPDEST PUSH2 0x1012 JUMP JUMPDEST PUSH1 0x40 MLOAD PUSH2 0x697 SWAP2 SWAP1 PUSH2 0x3301 JUMP JUMPDEST PUSH1 0x40 MLOAD DUP1 SWAP2 SUB SWAP1 RETURN JUMPDEST CALLVALUE DUP1 ISZERO PUSH2 0x6AC JUMPI PUSH1 0x0 DUP1 REVERT JUMPDEST POP PUSH2 0x6B5 PUSH2 0x105B JUMP JUMPDEST STOP JUMPDEST CALLVALUE DUP1 ISZERO PUSH2 0x6C3 JUMPI PUSH1 0x0 DUP1 REVERT JUMPDEST POP PUSH2 0x6CC PUSH2 0x106F JUMP JUMPDEST PUSH1 0x40 MLOAD PUSH2 0x6D9 SWAP2 SWAP1 PUSH2 0x309C JUMP JUMPDEST PUSH1 0x40 MLOAD DUP1 SWAP2 SUB SWAP1 RETURN JUMPDEST CALLVALUE DUP1 ISZERO PUSH2 0x6EE JUMPI PUSH1 0x0 DUP1 REVERT JUMPDEST POP PUSH2 0x709 PUSH1 0x4 DUP1 CALLDATASIZE SUB DUP2 ADD SWAP1 PUSH2 0x704 SWAP2 SWAP1 PUSH2 0x331C JUMP JUMPDEST PUSH2 0x1095 JUMP JUMPDEST PUSH1 0x40 MLOAD PUSH2 0x716 SWAP2 SWAP1 PUSH2 0x325D JUMP JUMPDEST PUSH1 0x40 MLOAD DUP1 SWAP2 SUB SWAP1 RETURN JUMPDEST CALLVALUE DUP1 ISZERO PUSH2 0x72B JUMPI PUSH1 0x0 DUP1 REVERT JUMPDEST POP PUSH2 0x734 PUSH2 0x10B5 JUMP JUMPDEST PUSH1 0x40 MLOAD PUSH2 0x741 SWAP2 SWAP1 PUSH2 0x325D JUMP JUMPDEST PUSH1 0x40 MLOAD DUP1 SWAP2 SUB SWAP1 RETURN JUMPDEST CALLVALUE DUP1 ISZERO PUSH2 0x756 JUMPI PUSH1 0x0 DUP1 REVERT JUMPDEST POP PUSH2 0x75F PUSH2 0x10C8 JUMP JUMPDEST PUSH1 0x40 MLOAD PUSH2 0x76C SWAP2 SWAP1 PUSH2 0x3301 JUMP JUMPDEST PUSH1 0x40 MLOAD DUP1 SWAP2 SUB SWAP1 RETURN JUMPDEST CALLVALUE DUP1 ISZERO PUSH2 0x781 JUMPI PUSH1 0x0 DUP1 REVERT JUMPDEST POP PUSH2 0x78A PUSH2 0x10CE JUMP JUMPDEST PUSH1 0x40 MLOAD PUSH2 0x797 SWAP2 SWAP1 PUSH2 0x325D JUMP JUMPDEST PUSH1 0x40 MLOAD DUP1 SWAP2 SUB SWAP1 RETURN JUMPDEST CALLVALUE DUP1 ISZERO PUSH2 0x7AC JUMPI PUSH1 0x0 DUP1 REVERT JUMPDEST POP PUSH2 0x7B5 PUSH2 0x10E5 JUMP JUMPDEST PUSH1 0x40 MLOAD PUSH2 0x7C2 SWAP2 SWAP1 PUSH2 0x309C JUMP JUMPDEST PUSH1 0x40 MLOAD DUP1 SWAP2 SUB SWAP1 RETURN JUMPDEST CALLVALUE DUP1 ISZERO PUSH2 0x7D7 JUMPI PUSH1 0x0 DUP1 REVERT JUMPDEST POP PUSH2 0x7E0 PUSH2 0x110E JUMP JUMPDEST PUSH1 0x40 MLOAD PUSH2 0x7ED SWAP2 SWAP1 PUSH2 0x309C JUMP JUMPDEST PUSH1 0x40 MLOAD DUP1 SWAP2 SUB SWAP1 RETURN JUMPDEST CALLVALUE DUP1 ISZERO PUSH2 0x802 JUMPI PUSH1 0x0 DUP1 REVERT JUMPDEST POP PUSH2 0x80B PUSH2 0x1134 JUMP JUMPDEST PUSH1 0x40 MLOAD PUSH2 0x818 SWAP2 SWAP1 PUSH2 0x3147 JUMP JUMPDEST PUSH1 0x40 MLOAD DUP1 SWAP2 SUB SWAP1 RETURN JUMPDEST CALLVALUE DUP1 ISZERO PUSH2 0x82D JUMPI PUSH1 0x0 DUP1 REVERT JUMPDEST POP PUSH2 0x848 PUSH1 0x4 DUP1 CALLDATASIZE SUB DUP2 ADD SWAP1 PUSH2 0x843 SWAP2 SWAP1 PUSH2 0x33FF JUMP JUMPDEST PUSH2 0x1171 JUMP JUMPDEST STOP JUMPDEST CALLVALUE DUP1 ISZERO PUSH2 0x856 JUMPI PUSH1 0x0 DUP1 REVERT JUMPDEST POP PUSH2 0x871 PUSH1 0x4 DUP1 CALLDATASIZE SUB DUP2 ADD SWAP1 PUSH2 0x86C SWAP2 SWAP1 PUSH2 0x31A9 JUMP JUMPDEST PUSH2 0x1217 JUMP JUMPDEST STOP JUMPDEST CALLVALUE DUP1 ISZERO PUSH2 0x87F JUMPI PUSH1 0x0 DUP1 REVERT JUMPDEST POP PUSH2 0x888 PUSH2 0x12FE JUMP JUMPDEST PUSH1 0x40 MLOAD PUSH2 0x895 SWAP2 SWAP1 PUSH2 0x3301 JUMP JUMPDEST PUSH1 0x40 MLOAD DUP1 SWAP2 SUB SWAP1 RETURN JUMPDEST CALLVALUE DUP1 ISZERO PUSH2 0x8AA JUMPI PUSH1 0x0 DUP1 REVERT JUMPDEST POP PUSH2 0x8C5 PUSH1 0x4 DUP1 CALLDATASIZE SUB DUP2 ADD SWAP1 PUSH2 0x8C0 SWAP2 SWAP1 PUSH2 0x31A9 JUMP JUMPDEST PUSH2 0x1304 JUMP JUMPDEST STOP JUMPDEST CALLVALUE DUP1 ISZERO PUSH2 0x8D3 JUMPI PUSH1 0x0 DUP1 REVERT JUMPDEST POP PUSH2 0x8EE PUSH1 0x4 DUP1 CALLDATASIZE SUB DUP2 ADD SWAP1 PUSH2 0x8E9 SWAP2 SWAP1 PUSH2 0x3202 JUMP JUMPDEST PUSH2 0x13EB JUMP JUMPDEST PUSH1 0x40 MLOAD PUSH2 0x8FB SWAP2 SWAP1 PUSH2 0x325D JUMP JUMPDEST PUSH1 0x40 MLOAD DUP1 SWAP2 SUB SWAP1 RETURN JUMPDEST CALLVALUE DUP1 ISZERO PUSH2 0x910 JUMPI PUSH1 0x0 DUP1 REVERT JUMPDEST POP PUSH2 0x919 PUSH2 0x1407 JUMP JUMPDEST PUSH1 0x40 MLOAD PUSH2 0x926 SWAP2 SWAP1 PUSH2 0x3301 JUMP JUMPDEST PUSH1 0x40 MLOAD DUP1 SWAP2 SUB SWAP1 RETURN JUMPDEST CALLVALUE DUP1 ISZERO PUSH2 0x93B JUMPI PUSH1 0x0 DUP1 REVERT JUMPDEST POP PUSH2 0x956 PUSH1 0x4 DUP1 CALLDATASIZE SUB DUP2 ADD SWAP1 PUSH2 0x951 SWAP2 SWAP1 PUSH2 0x331C JUMP JUMPDEST PUSH2 0x140D JUMP JUMPDEST PUSH1 0x40 MLOAD PUSH2 0x963 SWAP2 SWAP1 PUSH2 0x325D JUMP JUMPDEST PUSH1 0x40 MLOAD DUP1 SWAP2 SUB SWAP1 RETURN JUMPDEST CALLVALUE DUP1 ISZERO PUSH2 0x978 JUMPI PUSH1 0x0 DUP1 REVERT JUMPDEST POP PUSH2 0x993 PUSH1 0x4 DUP1 CALLDATASIZE SUB DUP2 ADD SWAP1 PUSH2 0x98E SWAP2 SWAP1 PUSH2 0x31A9 JUMP JUMPDEST PUSH2 0x142D JUMP JUMPDEST STOP JUMPDEST CALLVALUE DUP1 ISZERO PUSH2 0x9A1 JUMPI PUSH1 0x0 DUP1 REVERT JUMPDEST POP PUSH2 0x9BC PUSH1 0x4 DUP1 CALLDATASIZE SUB DUP2 ADD SWAP1 PUSH2 0x9B7 SWAP2 SWAP1 PUSH2 0x34A4 JUMP JUMPDEST PUSH2 0x143F JUMP JUMPDEST STOP JUMPDEST CALLVALUE DUP1 ISZERO PUSH2 0x9CA JUMPI PUSH1 0x0 DUP1 REVERT JUMPDEST POP PUSH2 0x9E5 PUSH1 0x4 DUP1 CALLDATASIZE SUB DUP2 ADD SWAP1 PUSH2 0x9E0 SWAP2 SWAP1 PUSH2 0x3504 JUMP JUMPDEST PUSH2 0x151C JUMP JUMPDEST STOP JUMPDEST CALLVALUE DUP1 ISZERO PUSH2 0x9F3 JUMPI PUSH1 0x0 DUP1 REVERT JUMPDEST POP PUSH2 0x9FC PUSH2 0x1541 JUMP JUMPDEST PUSH1 0x40 MLOAD PUSH2 0xA09 SWAP2 SWAP1 PUSH2 0x3301 JUMP JUMPDEST PUSH1 0x40 MLOAD DUP1 SWAP2 SUB SWAP1 RETURN JUMPDEST CALLVALUE DUP1 ISZERO PUSH2 0xA1E JUMPI PUSH1 0x0 DUP1 REVERT JUMPDEST POP PUSH2 0xA27 PUSH2 0x1547 JUMP JUMPDEST PUSH1 0x40 MLOAD PUSH2 0xA34 SWAP2 SWAP1 PUSH2 0x3301 JUMP JUMPDEST PUSH1 0x40 MLOAD DUP1 SWAP2 SUB SWAP1 RETURN JUMPDEST CALLVALUE DUP1 ISZERO PUSH2 0xA49 JUMPI PUSH1 0x0 DUP1 REVERT JUMPDEST POP PUSH2 0xA52 PUSH2 0x154D JUMP JUMPDEST STOP JUMPDEST CALLVALUE DUP1 ISZERO PUSH2 0xA60 JUMPI PUSH1 0x0 DUP1 REVERT JUMPDEST POP PUSH2 0xA69 PUSH2 0x159E JUMP JUMPDEST PUSH1 0x40 MLOAD PUSH2 0xA76 SWAP2 SWAP1 PUSH2 0x3301 JUMP JUMPDEST PUSH1 0x40 MLOAD DUP1 SWAP2 SUB SWAP1 RETURN JUMPDEST CALLVALUE DUP1 ISZERO PUSH2 0xA8B JUMPI PUSH1 0x0 DUP1 REVERT JUMPDEST POP PUSH2 0xAA6 PUSH1 0x4 DUP1 CALLDATASIZE SUB DUP2 ADD SWAP1 PUSH2 0xAA1 SWAP2 SWAP1 PUSH2 0x331C JUMP JUMPDEST PUSH2 0x15A4 JUMP JUMPDEST PUSH1 0x40 MLOAD PUSH2 0xAB3 SWAP2 SWAP1 PUSH2 0x325D JUMP JUMPDEST PUSH1 0x40 MLOAD DUP1 SWAP2 SUB SWAP1 RETURN JUMPDEST CALLVALUE DUP1 ISZERO PUSH2 0xAC8 JUMPI PUSH1 0x0 DUP1 REVERT JUMPDEST POP PUSH2 0xAD1 PUSH2 0x15C4 JUMP JUMPDEST PUSH1 0x40 MLOAD PUSH2 0xADE SWAP2 SWAP1 PUSH2 0x3301 JUMP JUMPDEST PUSH1 0x40 MLOAD DUP1 SWAP2 SUB SWAP1 RETURN JUMPDEST CALLVALUE DUP1 ISZERO PUSH2 0xAF3 JUMPI PUSH1 0x0 DUP1 REVERT JUMPDEST POP PUSH2 0xB0E PUSH1 0x4 DUP1 CALLDATASIZE SUB DUP2 ADD SWAP1 PUSH2 0xB09 SWAP2 SWAP1 PUSH2 0x3531 JUMP JUMPDEST PUSH2 0x15CA JUMP JUMPDEST PUSH1 0x40 MLOAD PUSH2 0xB1B SWAP2 SWAP1 PUSH2 0x3301 JUMP JUMPDEST PUSH1 0x40 MLOAD DUP1 SWAP2 SUB SWAP1 RETURN JUMPDEST CALLVALUE DUP1 ISZERO PUSH2 0xB30 JUMPI PUSH1 0x0 DUP1 REVERT JUMPDEST POP PUSH2 0xB4B PUSH1 0x4 DUP1 CALLDATASIZE SUB DUP2 ADD SWAP1 PUSH2 0xB46 SWAP2 SWAP1 PUSH2 0x31A9 JUMP JUMPDEST PUSH2 0x1651 JUMP JUMPDEST STOP JUMPDEST CALLVALUE DUP1 ISZERO PUSH2 0xB59 JUMPI PUSH1 0x0 DUP1 REVERT JUMPDEST POP PUSH2 0xB74 PUSH1 0x4 DUP1 CALLDATASIZE SUB DUP2 ADD SWAP1 PUSH2 0xB6F SWAP2 SWAP1 PUSH2 0x3202 JUMP JUMPDEST PUSH2 0x16A9 JUMP JUMPDEST STOP JUMPDEST CALLVALUE DUP1 ISZERO PUSH2 0xB82 JUMPI PUSH1 0x0 DUP1 REVERT JUMPDEST POP PUSH2 0xB9D PUSH1 0x4 DUP1 CALLDATASIZE SUB DUP2 ADD SWAP1 PUSH2 0xB98 SWAP2 SWAP1 PUSH2 0x331C JUMP JUMPDEST PUSH2 0x1884 JUMP JUMPDEST STOP JUMPDEST CALLVALUE DUP1 ISZERO PUSH2 0xBAB JUMPI PUSH1 0x0 DUP1 REVERT JUMPDEST POP PUSH2 0xBB4 PUSH2 0x1907 JUMP JUMPDEST PUSH1 0x40 MLOAD PUSH2 0xBC1 SWAP2 SWAP1 PUSH2 0x3301 JUMP JUMPDEST PUSH1 0x40 MLOAD DUP1 SWAP2 SUB SWAP1 RETURN JUMPDEST PUSH2 0xDEAD DUP2 JUMP JUMPDEST PUSH1 0x60 PUSH1 0x40 MLOAD DUP1 PUSH1 0x40 ADD PUSH1 0x40 MSTORE DUP1 PUSH1 0x3 DUP2 MSTORE PUSH1 0x20 ADD PUSH32 0x58595A0000000000000000000000000000000000000000000000000000000000 DUP2 MSTORE POP SWAP1 POP SWAP1 JUMP JUMPDEST PUSH2 0xC15 PUSH2 0x190D JUMP JUMPDEST DUP1 PUSH1 0x16 DUP2 SWAP1 SSTORE POP POP JUMP JUMPDEST PUSH1 0x0 PUSH2 0xC2C CALLER DUP5 DUP5 PUSH2 0x198B JUMP JUMPDEST PUSH1 0x1 SWAP1 POP SWAP3 SWAP2 POP POP JUMP JUMPDEST PUSH1 0x17 PUSH1 0x0 SWAP1 SLOAD SWAP1 PUSH2 0x100 EXP SWAP1 DIV PUSH20 0xFFFFFFFFFFFFFFFFFFFFFFFFFFFFFFFFFFFFFFFF AND DUP2 JUMP JUMPDEST PUSH1 0x0 PUSH1 0x1 SLOAD SWAP1 POP SWAP1 JUMP JUMPDEST PUSH2 0xC6E PUSH2 0x190D JUMP JUMPDEST PUSH1 0x0 PUSH20 0xFFFFFFFFFFFFFFFFFFFFFFFFFFFFFFFFFFFFFFFF AND DUP2 PUSH20 0xFFFFFFFFFFFFFFFFFFFFFFFFFFFFFFFFFFFFFFFF AND SUB PUSH2 0xCDD JUMPI PUSH1 0x40 MLOAD PUSH32 0x8C379A000000000000000000000000000000000000000000000000000000000 DUP2 MSTORE PUSH1 0x4 ADD PUSH2 0xCD4 SWAP1 PUSH2 0x35E3 JUMP JUMPDEST PUSH1 0x40 MLOAD DUP1 SWAP2 SUB SWAP1 REVERT JUMPDEST DUP1 PUSH1 0xC PUSH1 0x0 PUSH2 0x100 EXP DUP2 SLOAD DUP2 PUSH20 0xFFFFFFFFFFFFFFFFFFFFFFFFFFFFFFFFFFFFFFFF MUL NOT AND SWAP1 DUP4 PUSH20 0xFFFFFFFFFFFFFFFFFFFFFFFFFFFFFFFFFFFFFFFF AND MUL OR SWAP1 SSTORE POP POP JUMP JUMPDEST PUSH1 0x0 DUP1 CALLER SWAP1 POP PUSH2 0xD32 DUP6 DUP3 DUP6 PUSH2 0x1B54 JUMP JUMPDEST PUSH2 0xD3D DUP6 DUP6 DUP6 PUSH2 0x1BE0 JUMP JUMPDEST PUSH1 0x1 SWAP2 POP POP SWAP4 SWAP3 POP POP POP JUMP JUMPDEST PUSH2 0xD51 PUSH2 0x190D JUMP JUMPDEST PUSH3 0x186A0 DUP2 GT ISZERO PUSH2 0xD97 JUMPI PUSH1 0x40 MLOAD PUSH32 0x8C379A000000000000000000000000000000000000000000000000000000000 DUP2 MSTORE PUSH1 0x4 ADD PUSH2 0xD8E SWAP1 PUSH2 0x3675 JUMP JUMPDEST PUSH1 0x40 MLOAD DUP1 SWAP2 SUB SWAP1 REVERT JUMPDEST DUP1 PUSH1 0x15 DUP2 SWAP1 SSTORE POP POP JUMP JUMPDEST PUSH1 0x10 SLOAD DUP2 JUMP JUMPDEST PUSH1 0x0 PUSH1 0x12 SWAP1 POP SWAP1 JUMP JUMPDEST PUSH1 0x18 PUSH1 0x0 SWAP1 SLOAD SWAP1 PUSH2 0x100 EXP SWAP1 DIV PUSH20 0xFFFFFFFFFFFFFFFFFFFFFFFFFFFFFFFFFFFFFFFF AND DUP2 JUMP JUMPDEST PUSH2 0xDDE PUSH2 0x190D JUMP JUMPDEST DUP1 PUSH1 0x2 DUP2 SWAP1 SSTORE POP POP JUMP JUMPDEST PUSH1 0xF SLOAD DUP2 JUMP JUMPDEST PUSH2 0xDF6 PUSH2 0x190D JUMP JUMPDEST PUSH1 0x0 PUSH20 0xFFFFFFFFFFFFFFFFFFFFFFFFFFFFFFFFFFFFFFFF AND DUP2 PUSH20 0xFFFFFFFFFFFFFFFFFFFFFFFFFFFFFFFFFFFFFFFF AND SUB PUSH2 0xE65 JUMPI PUSH1 0x40 MLOAD PUSH32 0x8C379A000000000000000000000000000000000000000000000000000000000 DUP2 MSTORE PUSH1 0x4 ADD PUSH2 0xE5C SWAP1 PUSH2 0x3707 JUMP JUMPDEST PUSH1 0x40 MLOAD DUP1 SWAP2 SUB SWAP1 REVERT JUMPDEST DUP1 PUSH1 0xB PUSH1 0x0 PUSH2 0x100 EXP DUP2 SLOAD DUP2 PUSH20 0xFFFFFFFFFFFFFFFFFFFFFFFFFFFFFFFFFFFFFFFF MUL NOT AND SWAP1 DUP4 PUSH20 0xFFFFFFFFFFFFFFFFFFFFFFFFFFFFFFFFFFFFFFFF AND MUL OR SWAP1 SSTORE POP POP JUMP JUMPDEST PUSH1 0x2 SLOAD DUP2 JUMP JUMPDEST PUSH2 0xEB7 PUSH2 0x190D JUMP JUMPDEST DUP1 PUSH1 0x7 PUSH1 0x0 DUP5 PUSH20 0xFFFFFFFFFFFFFFFFFFFFFFFFFFFFFFFFFFFFFFFF AND PUSH20 0xFFFFFFFFFFFFFFFFFFFFFFFFFFFFFFFFFFFFFFFF AND DUP2 MSTORE PUSH1 0x20 ADD SWAP1 DUP2 MSTORE PUSH1 0x20 ADD PUSH1 0x0 KECCAK256 PUSH1 0x0 PUSH2 0x100 EXP DUP2 SLOAD DUP2 PUSH1 0xFF MUL NOT AND SWAP1 DUP4 ISZERO ISZERO MUL OR SWAP1 SSTORE POP POP POP JUMP JUMPDEST PUSH1 0x16 SLOAD DUP2 JUMP JUMPDEST PUSH2 0xF20 PUSH2 0x190D JUMP JUMPDEST PUSH3 0x186A0 DUP2 GT ISZERO PUSH2 0xF66 JUMPI PUSH1 0x40 MLOAD PUSH32 0x8C379A000000000000000000000000000000000000000000000000000000000 DUP2 MSTORE PUSH1 0x4 ADD PUSH2 0xF5D SWAP1 PUSH2 0x3675 JUMP JUMPDEST PUSH1 0x40 MLOAD DUP1 SWAP2 SUB SWAP1 REVERT JUMPDEST DUP1 PUSH1 0xF DUP2 SWAP1 SSTORE POP PUSH1 0xF SLOAD PUSH1 0xE SLOAD PUSH1 0xD SLOAD PUSH2 0xF80 SWAP2 SWAP1 PUSH2 0x3756 JUMP JUMPDEST PUSH2 0xF8A SWAP2 SWAP1 PUSH2 0x3756 JUMP JUMPDEST PUSH1 0x14 DUP2 SWAP1 SSTORE POP PUSH1 0x14 SLOAD PUSH3 0x186A0 PUSH1 0xD SLOAD PUSH2 0xFA4 SWAP2 SWAP1 PUSH2 0x378A JUMP JUMPDEST PUSH2 0xFAE SWAP2 SWAP1 PUSH2 0x37FB JUMP JUMPDEST PUSH1 0x11 DUP2 SWAP1 SSTORE POP PUSH1 0x14 SLOAD PUSH3 0x186A0 PUSH1 0xE SLOAD PUSH2 0xFC8 SWAP2 SWAP1 PUSH2 0x378A JUMP JUMPDEST PUSH2 0xFD2 SWAP2 SWAP1 PUSH2 0x37FB JUMP JUMPDEST PUSH1 0x12 DUP2 SWAP1 SSTORE POP PUSH1 0x14 SLOAD PUSH3 0x186A0 PUSH1 0xF SLOAD PUSH2 0xFEC SWAP2 SWAP1 PUSH2 0x378A JUMP JUMPDEST PUSH2 0xFF6 SWAP2 SWAP1 PUSH2 0x37FB JUMP JUMPDEST PUSH1 0x13 DUP2 SWAP1 SSTORE POP POP JUMP JUMPDEST PUSH1 0x18 PUSH1 0x15 SWAP1 SLOAD SWAP1 PUSH2 0x100 EXP SWAP1 DIV PUSH1 0xFF AND DUP2 JUMP JUMPDEST PUSH1 0x0 PUSH1 0x3 PUSH1 0x0 DUP4 PUSH20 0xFFFFFFFFFFFFFFFFFFFFFFFFFFFFFFFFFFFFFFFF AND PUSH20 0xFFFFFFFFFFFFFFFFFFFFFFFFFFFFFFFFFFFFFFFF AND DUP2 MSTORE PUSH1 0x20 ADD SWAP1 DUP2 MSTORE PUSH1 0x20 ADD PUSH1 0x0 KECCAK256 SLOAD SWAP1 POP SWAP2 SWAP1 POP JUMP JUMPDEST PUSH2 0x1063 PUSH2 0x190D JUMP JUMPDEST PUSH2 0x106D PUSH1 0x0 PUSH2 0x25EF JUMP JUMPDEST JUMP JUMPDEST PUSH1 0xB PUSH1 0x0 SWAP1 SLOAD SWAP1 PUSH2 0x100 EXP SWAP1 DIV PUSH20 0xFFFFFFFFFFFFFFFFFFFFFFFFFFFFFFFFFFFFFFFF AND DUP2 JUMP JUMPDEST PUSH1 0x7 PUSH1 0x20 MSTORE DUP1 PUSH1 0x0 MSTORE PUSH1 0x40 PUSH1 0x0 KECCAK256 PUSH1 0x0 SWAP2 POP SLOAD SWAP1 PUSH2 0x100 EXP SWAP1 DIV PUSH1 0xFF AND DUP2 JUMP JUMPDEST PUSH1 0x8 PUSH1 0x0 SWAP1 SLOAD SWAP1 PUSH2 0x100 EXP SWAP1 DIV PUSH1 0xFF AND DUP2 JUMP JUMPDEST PUSH1 0x14 SLOAD DUP2 JUMP JUMPDEST PUSH1 0x0 PUSH1 0x8 PUSH1 0x0 SWAP1 SLOAD SWAP1 PUSH2 0x100 EXP SWAP1 DIV PUSH1 0xFF AND SWAP1 POP SWAP1 JUMP JUMPDEST PUSH1 0x0 DUP1 PUSH1 0x0 SWAP1 SLOAD SWAP1 PUSH2 0x100 EXP SWAP1 DIV PUSH20 0xFFFFFFFFFFFFFFFFFFFFFFFFFFFFFFFFFFFFFFFF AND SWAP1 POP SWAP1 JUMP JUMPDEST PUSH1 0xC PUSH1 0x0 SWAP1 SLOAD SWAP1 PUSH2 0x100 EXP SWAP1 DIV PUSH20 0xFFFFFFFFFFFFFFFFFFFFFFFFFFFFFFFFFFFFFFFF AND DUP2 JUMP JUMPDEST PUSH1 0x60 PUSH1 0x40 MLOAD DUP1 PUSH1 0x40 ADD PUSH1 0x40 MSTORE DUP1 PUSH1 0x3 DUP2 MSTORE PUSH1 0x20 ADD PUSH32 0x58595A0000000000000000000000000000000000000000000000000000000000 DUP2 MSTORE POP SWAP1 POP SWAP1 JUMP JUMPDEST PUSH2 0x1179 PUSH2 0x190D JUMP JUMPDEST PUSH1 0x18 PUSH1 0x0 SWAP1 SLOAD SWAP1 PUSH2 0x100 EXP SWAP1 DIV PUSH20 0xFFFFFFFFFFFFFFFFFFFFFFFFFFFFFFFFFFFFFFFF AND PUSH20 0xFFFFFFFFFFFFFFFFFFFFFFFFFFFFFFFFFFFFFFFF AND DUP3 PUSH20 0xFFFFFFFFFFFFFFFFFFFFFFFFFFFFFFFFFFFFFFFF AND SUB PUSH2 0x1209 JUMPI PUSH1 0x40 MLOAD PUSH32 0x8C379A000000000000000000000000000000000000000000000000000000000 DUP2 MSTORE PUSH1 0x4 ADD PUSH2 0x1200 SWAP1 PUSH2 0x389E JUMP JUMPDEST PUSH1 0x40 MLOAD DUP1 SWAP2 SUB SWAP1 REVERT JUMPDEST PUSH2 0x1213 DUP3 DUP3 PUSH2 0x26B3 JUMP JUMPDEST POP POP JUMP JUMPDEST PUSH2 0x121F PUSH2 0x190D JUMP JUMPDEST PUSH3 0x186A0 DUP2 GT ISZERO PUSH2 0x1265 JUMPI PUSH1 0x40 MLOAD PUSH32 0x8C379A000000000000000000000000000000000000000000000000000000000 DUP2 MSTORE PUSH1 0x4 ADD PUSH2 0x125C SWAP1 PUSH2 0x3675 JUMP JUMPDEST PUSH1 0x40 MLOAD DUP1 SWAP2 SUB SWAP1 REVERT JUMPDEST DUP1 PUSH1 0xE DUP2 SWAP1 SSTORE POP PUSH1 0xF SLOAD PUSH1 0xE SLOAD PUSH1 0xD SLOAD PUSH2 0x127F SWAP2 SWAP1 PUSH2 0x3756 JUMP JUMPDEST PUSH2 0x1289 SWAP2 SWAP1 PUSH2 0x3756 JUMP JUMPDEST PUSH1 0x14 DUP2 SWAP1 SSTORE POP PUSH1 0x14 SLOAD PUSH3 0x186A0 PUSH1 0xD SLOAD PUSH2 0x12A3 SWAP2 SWAP1 PUSH2 0x378A JUMP JUMPDEST PUSH2 0x12AD SWAP2 SWAP1 PUSH2 0x37FB JUMP JUMPDEST PUSH1 0x11 DUP2 SWAP1 SSTORE POP PUSH1 0x14 SLOAD PUSH3 0x186A0 PUSH1 0xE SLOAD PUSH2 0x12C7 SWAP2 SWAP1 PUSH2 0x378A JUMP JUMPDEST PUSH2 0x12D1 SWAP2 SWAP1 PUSH2 0x37FB JUMP JUMPDEST PUSH1 0x12 DUP2 SWAP1 SSTORE POP PUSH1 0x14 SLOAD PUSH3 0x186A0 PUSH1 0xF SLOAD PUSH2 0x12EB SWAP2 SWAP1 PUSH2 0x378A JUMP JUMPDEST PUSH2 0x12F5 SWAP2 SWAP1 PUSH2 0x37FB JUMP JUMPDEST PUSH1 0x13 DUP2 SWAP1 SSTORE POP POP JUMP JUMPDEST PUSH1 0xE SLOAD DUP2 JUMP JUMPDEST PUSH2 0x130C PUSH2 0x190D JUMP JUMPDEST PUSH3 0x186A0 DUP2 GT ISZERO PUSH2 0x1352 JUMPI PUSH1 0x40 MLOAD PUSH32 0x8C379A000000000000000000000000000000000000000000000000000000000 DUP2 MSTORE PUSH1 0x4 ADD PUSH2 0x1349 SWAP1 PUSH2 0x3675 JUMP JUMPDEST PUSH1 0x40 MLOAD DUP1 SWAP2 SUB SWAP1 REVERT JUMPDEST DUP1 PUSH1 0xD DUP2 SWAP1 SSTORE POP PUSH1 0xF SLOAD PUSH1 0xE SLOAD PUSH1 0xD SLOAD PUSH2 0x136C SWAP2 SWAP1 PUSH2 0x3756 JUMP JUMPDEST PUSH2 0x1376 SWAP2 SWAP1 PUSH2 0x3756 JUMP JUMPDEST PUSH1 0x14 DUP2 SWAP1 SSTORE POP PUSH1 0x14 SLOAD PUSH3 0x186A0 PUSH1 0xD SLOAD PUSH2 0x1390 SWAP2 SWAP1 PUSH2 0x378A JUMP JUMPDEST PUSH2 0x139A SWAP2 SWAP1 PUSH2 0x37FB JUMP JUMPDEST PUSH1 0x11 DUP2 SWAP1 SSTORE POP PUSH1 0x14 SLOAD PUSH3 0x186A0 PUSH1 0xE SLOAD PUSH2 0x13B4 SWAP2 SWAP1 PUSH2 0x378A JUMP JUMPDEST PUSH2 0x13BE SWAP2 SWAP1 PUSH2 0x37FB JUMP JUMPDEST PUSH1 0x12 DUP2 SWAP1 SSTORE POP PUSH1 0x14 SLOAD PUSH3 0x186A0 PUSH1 0xF SLOAD PUSH2 0x13D8 SWAP2 SWAP1 PUSH2 0x378A JUMP JUMPDEST PUSH2 0x13E2 SWAP2 SWAP1 PUSH2 0x37FB JUMP JUMPDEST PUSH1 0x13 DUP2 SWAP1 SSTORE POP POP JUMP JUMPDEST PUSH1 0x0 DUP1 CALLER SWAP1 POP PUSH2 0x13FC DUP2 DUP6 DUP6 PUSH2 0x1BE0 JUMP JUMPDEST PUSH1 0x1 SWAP2 POP POP SWAP3 SWAP2 POP POP JUMP JUMPDEST PUSH1 0x12 SLOAD DUP2 JUMP JUMPDEST PUSH1 0x6 PUSH1 0x20 MSTORE DUP1 PUSH1 0x0 MSTORE PUSH1 0x40 PUSH1 0x0 KECCAK256 PUSH1 0x0 SWAP2 POP SLOAD SWAP1 PUSH2 0x100 EXP SWAP1 DIV PUSH1 0xFF AND DUP2 JUMP JUMPDEST PUSH2 0x1435 PUSH2 0x190D JUMP JUMPDEST DUP1 PUSH1 0xA DUP2 SWAP1 SSTORE POP POP JUMP JUMPDEST PUSH2 0x1447 PUSH2 0x190D JUMP JUMPDEST PUSH1 0x0 PUSH2 0x1451 PUSH2 0x10E5 JUMP JUMPDEST SWAP1 POP PUSH1 0x0 JUMPDEST DUP5 DUP5 SWAP1 POP DUP2 LT ISZERO PUSH2 0x1515 JUMPI PUSH1 0x0 DUP6 DUP6 DUP4 DUP2 DUP2 LT PUSH2 0x1476 JUMPI PUSH2 0x1475 PUSH2 0x38BE JUMP JUMPDEST JUMPDEST SWAP1 POP PUSH1 0x20 MUL ADD PUSH1 0x20 DUP2 ADD SWAP1 PUSH2 0x148B SWAP2 SWAP1 PUSH2 0x331C JUMP JUMPDEST SWAP1 POP PUSH1 0x0 PUSH20 0xFFFFFFFFFFFFFFFFFFFFFFFFFFFFFFFFFFFFFFFF AND DUP2 PUSH20 0xFFFFFFFFFFFFFFFFFFFFFFFFFFFFFFFFFFFFFFFF AND SUB PUSH2 0x14FC JUMPI PUSH1 0x40 MLOAD PUSH32 0x8C379A000000000000000000000000000000000000000000000000000000000 DUP2 MSTORE PUSH1 0x4 ADD PUSH2 0x14F3 SWAP1 PUSH2 0x395F JUMP JUMPDEST PUSH1 0x40 MLOAD DUP1 SWAP2 SUB SWAP1 REVERT JUMPDEST PUSH2 0x1507 DUP4 DUP3 DUP7 PUSH2 0x270E JUMP JUMPDEST POP DUP1 DUP1 PUSH1 0x1 ADD SWAP2 POP POP PUSH2 0x1456 JUMP JUMPDEST POP POP POP POP POP JUMP JUMPDEST PUSH2 0x1524 PUSH2 0x190D JUMP JUMPDEST DUP1 PUSH1 0x8 PUSH1 0x0 PUSH2 0x100 EXP DUP2 SLOAD DUP2 PUSH1 0xFF MUL NOT AND SWAP1 DUP4 ISZERO ISZERO MUL OR SWAP1 SSTORE POP POP JUMP JUMPDEST PUSH1 0xD SLOAD DUP2 JUMP JUMPDEST PUSH1 0xA SLOAD DUP2 JUMP JUMPDEST PUSH2 0x1555 PUSH2 0x190D JUMP JUMPDEST CALLER PUSH20 0xFFFFFFFFFFFFFFFFFFFFFFFFFFFFFFFFFFFFFFFF AND PUSH2 0x8FC SELFBALANCE SWAP1 DUP2 ISZERO MUL SWAP1 PUSH1 0x40 MLOAD PUSH1 0x0 PUSH1 0x40 MLOAD DUP1 DUP4 SUB DUP2 DUP6 DUP9 DUP9 CALL SWAP4 POP POP POP POP ISZERO DUP1 ISZERO PUSH2 0x159B JUMPI RETURNDATASIZE PUSH1 0x0 DUP1 RETURNDATACOPY RETURNDATASIZE PUSH1 0x0 REVERT JUMPDEST POP JUMP JUMPDEST PUSH1 0x15 SLOAD DUP2 JUMP JUMPDEST PUSH1 0x5 PUSH1 0x20 MSTORE DUP1 PUSH1 0x0 MSTORE PUSH1 0x40 PUSH1 0x0 KECCAK256 PUSH1 0x0 SWAP2 POP SLOAD SWAP1 PUSH2 0x100 EXP SWAP1 DIV PUSH1 0xFF AND DUP2 JUMP JUMPDEST PUSH1 0x13 SLOAD DUP2 JUMP JUMPDEST PUSH1 0x0 PUSH1 0x4 PUSH1 0x0 DUP5 PUSH20 0xFFFFFFFFFFFFFFFFFFFFFFFFFFFFFFFFFFFFFFFF AND PUSH20 0xFFFFFFFFFFFFFFFFFFFFFFFFFFFFFFFFFFFFFFFF AND DUP2 MSTORE PUSH1 0x20 ADD SWAP1 DUP2 MSTORE PUSH1 0x20 ADD PUSH1 0x0 KECCAK256 PUSH1 0x0 DUP4 PUSH20 0xFFFFFFFFFFFFFFFFFFFFFFFFFFFFFFFFFFFFFFFF AND PUSH20 0xFFFFFFFFFFFFFFFFFFFFFFFFFFFFFFFFFFFFFFFF AND DUP2 MSTORE PUSH1 0x20 ADD SWAP1 DUP2 MSTORE PUSH1 0x20 ADD PUSH1 0x0 KECCAK256 SLOAD SWAP1 POP SWAP3 SWAP2 POP POP JUMP JUMPDEST PUSH2 0x1659 PUSH2 0x190D JUMP JUMPDEST PUSH3 0x186A0 DUP2 GT ISZERO PUSH2 0x169F JUMPI PUSH1 0x40 MLOAD PUSH32 0x8C379A000000000000000000000000000000000000000000000000000000000 DUP2 MSTORE PUSH1 0x4 ADD PUSH2 0x1696 SWAP1 PUSH2 0x3675 JUMP JUMPDEST PUSH1 0x40 MLOAD DUP1 SWAP2 SUB SWAP1 REVERT JUMPDEST DUP1 PUSH1 0x10 DUP2 SWAP1 SSTORE POP POP JUMP JUMPDEST PUSH2 0x16B1 PUSH2 0x190D JUMP JUMPDEST ADDRESS PUSH20 0xFFFFFFFFFFFFFFFFFFFFFFFFFFFFFFFFFFFFFFFF AND DUP3 PUSH20 0xFFFFFFFFFFFFFFFFFFFFFFFFFFFFFFFFFFFFFFFF AND SUB PUSH2 0x171F JUMPI PUSH1 0x40 MLOAD PUSH32 0x8C379A000000000000000000000000000000000000000000000000000000000 DUP2 MSTORE PUSH1 0x4 ADD PUSH2 0x1716 SWAP1 PUSH2 0x39F1 JUMP JUMPDEST PUSH1 0x40 MLOAD DUP1 SWAP2 SUB SWAP1 REVERT JUMPDEST PUSH1 0x0 DUP3 PUSH20 0xFFFFFFFFFFFFFFFFFFFFFFFFFFFFFFFFFFFFFFFF AND PUSH4 0x70A08231 ADDRESS PUSH1 0x40 MLOAD DUP3 PUSH4 0xFFFFFFFF AND PUSH1 0xE0 SHL DUP2 MSTORE PUSH1 0x4 ADD PUSH2 0x175A SWAP2 SWAP1 PUSH2 0x309C JUMP JUMPDEST PUSH1 0x20 PUSH1 0x40 MLOAD DUP1 DUP4 SUB DUP2 DUP7 GAS STATICCALL ISZERO DUP1 ISZERO PUSH2 0x1777 JUMPI RETURNDATASIZE PUSH1 0x0 DUP1 RETURNDATACOPY RETURNDATASIZE PUSH1 0x0 REVERT JUMPDEST POP POP POP POP PUSH1 0x40 MLOAD RETURNDATASIZE PUSH1 0x1F NOT PUSH1 0x1F DUP3 ADD AND DUP3 ADD DUP1 PUSH1 0x40 MSTORE POP DUP2 ADD SWAP1 PUSH2 0x179B SWAP2 SWAP1 PUSH2 0x3A26 JUMP JUMPDEST SWAP1 POP PUSH1 0x0 PUSH3 0x186A0 DUP4 DUP4 PUSH2 0x17AF SWAP2 SWAP1 PUSH2 0x378A JUMP JUMPDEST PUSH2 0x17B9 SWAP2 SWAP1 PUSH2 0x37FB JUMP JUMPDEST SWAP1 POP PUSH1 0x0 DUP5 PUSH20 0xFFFFFFFFFFFFFFFFFFFFFFFFFFFFFFFFFFFFFFFF AND PUSH4 0xA9059CBB CALLER DUP5 PUSH1 0x40 MLOAD DUP4 PUSH4 0xFFFFFFFF AND PUSH1 0xE0 SHL DUP2 MSTORE PUSH1 0x4 ADD PUSH2 0x17F8 SWAP3 SWAP2 SWAP1 PUSH2 0x3A53 JUMP JUMPDEST PUSH1 0x20 PUSH1 0x40 MLOAD DUP1 DUP4 SUB DUP2 PUSH1 0x0 DUP8 GAS CALL ISZERO DUP1 ISZERO PUSH2 0x1817 JUMPI RETURNDATASIZE PUSH1 0x0 DUP1 RETURNDATACOPY RETURNDATASIZE PUSH1 0x0 REVERT JUMPDEST POP POP POP POP PUSH1 0x40 MLOAD RETURNDATASIZE PUSH1 0x1F NOT PUSH1 0x1F DUP3 ADD AND DUP3 ADD DUP1 PUSH1 0x40 MSTORE POP DUP2 ADD SWAP1 PUSH2 0x183B SWAP2 SWAP1 PUSH2 0x3A91 JUMP JUMPDEST SWAP1 POP DUP1 PUSH2 0x187D JUMPI PUSH1 0x40 MLOAD PUSH32 0x8C379A000000000000000000000000000000000000000000000000000000000 DUP2 MSTORE PUSH1 0x4 ADD PUSH2 0x1874 SWAP1 PUSH2 0x3B0A JUMP JUMPDEST PUSH1 0x40 MLOAD DUP1 SWAP2 SUB SWAP1 REVERT JUMPDEST POP POP POP POP POP JUMP JUMPDEST PUSH2 0x188C PUSH2 0x190D JUMP JUMPDEST PUSH1 0x0 PUSH20 0xFFFFFFFFFFFFFFFFFFFFFFFFFFFFFFFFFFFFFFFF AND DUP2 PUSH20 0xFFFFFFFFFFFFFFFFFFFFFFFFFFFFFFFFFFFFFFFF AND SUB PUSH2 0x18FB JUMPI PUSH1 0x40 MLOAD PUSH32 0x8C379A000000000000000000000000000000000000000000000000000000000 DUP2 MSTORE PUSH1 0x4 ADD PUSH2 0x18F2 SWAP1 PUSH2 0x3B9C JUMP JUMPDEST PUSH1 0x40 MLOAD DUP1 SWAP2 SUB SWAP1 REVERT JUMPDEST PUSH2 0x1904 DUP2 PUSH2 0x25EF JUMP JUMPDEST POP JUMP JUMPDEST PUSH1 0x11 SLOAD DUP2 JUMP JUMPDEST PUSH2 0x1915 PUSH2 0x2893 JUMP JUMPDEST PUSH20 0xFFFFFFFFFFFFFFFFFFFFFFFFFFFFFFFFFFFFFFFF AND PUSH2 0x1933 PUSH2 0x10E5 JUMP JUMPDEST PUSH20 0xFFFFFFFFFFFFFFFFFFFFFFFFFFFFFFFFFFFFFFFF AND EQ PUSH2 0x1989 JUMPI PUSH1 0x40 MLOAD PUSH32 0x8C379A000000000000000000000000000000000000000000000000000000000 DUP2 MSTORE PUSH1 0x4 ADD PUSH2 0x1980 SWAP1 PUSH2 0x3C08 JUMP JUMPDEST PUSH1 0x40 MLOAD DUP1 SWAP2 SUB SWAP1 REVERT JUMPDEST JUMP JUMPDEST PUSH1 0x0 PUSH20 0xFFFFFFFFFFFFFFFFFFFFFFFFFFFFFFFFFFFFFFFF AND DUP4 PUSH20 0xFFFFFFFFFFFFFFFFFFFFFFFFFFFFFFFFFFFFFFFF AND SUB PUSH2 0x19FA JUMPI PUSH1 0x40 MLOAD PUSH32 0x8C379A000000000000000000000000000000000000000000000000000000000 DUP2 MSTORE PUSH1 0x4 ADD PUSH2 0x19F1 SWAP1 PUSH2 0x3C9A JUMP JUMPDEST PUSH1 0x40 MLOAD DUP1 SWAP2 SUB SWAP1 REVERT JUMPDEST PUSH1 0x0 PUSH20 0xFFFFFFFFFFFFFFFFFFFFFFFFFFFFFFFFFFFFFFFF AND DUP3 PUSH20 0xFFFFFFFFFFFFFFFFFFFFFFFFFFFFFFFFFFFFFFFF AND SUB PUSH2 0x1A69 JUMPI PUSH1 0x40 MLOAD PUSH32 0x8C379A000000000000000000000000000000000000000000000000000000000 DUP2 MSTORE PUSH1 0x4 ADD PUSH2 0x1A60 SWAP1 PUSH2 0x3D2C JUMP JUMPDEST PUSH1 0x40 MLOAD DUP1 SWAP2 SUB SWAP1 REVERT JUMPDEST DUP1 PUSH1 0x4 PUSH1 0x0 DUP6 PUSH20 0xFFFFFFFFFFFFFFFFFFFFFFFFFFFFFFFFFFFFFFFF AND PUSH20 0xFFFFFFFFFFFFFFFFFFFFFFFFFFFFFFFFFFFFFFFF AND DUP2 MSTORE PUSH1 0x20 ADD SWAP1 DUP2 MSTORE PUSH1 0x20 ADD PUSH1 0x0 KECCAK256 PUSH1 0x0 DUP5 PUSH20 0xFFFFFFFFFFFFFFFFFFFFFFFFFFFFFFFFFFFFFFFF AND PUSH20 0xFFFFFFFFFFFFFFFFFFFFFFFFFFFFFFFFFFFFFFFF AND DUP2 MSTORE PUSH1 0x20 ADD SWAP1 DUP2 MSTORE PUSH1 0x20 ADD PUSH1 0x0 KECCAK256 DUP2 SWAP1 SSTORE POP DUP2 PUSH20 0xFFFFFFFFFFFFFFFFFFFFFFFFFFFFFFFFFFFFFFFF AND DUP4 PUSH20 0xFFFFFFFFFFFFFFFFFFFFFFFFFFFFFFFFFFFFFFFF AND PUSH32 0x8C5BE1E5EBEC7D5BD14F71427D1E84F3DD0314C0F7B2291E5B200AC8C7C3B925 DUP4 PUSH1 0x40 MLOAD PUSH2 0x1B47 SWAP2 SWAP1 PUSH2 0x3301 JUMP JUMPDEST PUSH1 0x40 MLOAD DUP1 SWAP2 SUB SWAP1 LOG3 POP POP POP JUMP JUMPDEST PUSH1 0x0 PUSH2 0x1B60 DUP5 DUP5 PUSH2 0x15CA JUMP JUMPDEST SWAP1 POP PUSH32 0xFFFFFFFFFFFFFFFFFFFFFFFFFFFFFFFFFFFFFFFFFFFFFFFFFFFFFFFFFFFFFFFF DUP2 EQ PUSH2 0x1BDA JUMPI DUP2 DUP2 LT ISZERO PUSH2 0x1BCC JUMPI PUSH1 0x40 MLOAD PUSH32 0x8C379A000000000000000000000000000000000000000000000000000000000 DUP2 MSTORE PUSH1 0x4 ADD PUSH2 0x1BC3 SWAP1 PUSH2 0x3D98 JUMP JUMPDEST PUSH1 0x40 MLOAD DUP1 SWAP2 SUB SWAP1 REVERT JUMPDEST PUSH2 0x1BD9 DUP5 DUP5 DUP5 DUP5 SUB PUSH2 0x198B JUMP JUMPDEST JUMPDEST POP POP POP POP JUMP JUMPDEST PUSH1 0x0 PUSH20 0xFFFFFFFFFFFFFFFFFFFFFFFFFFFFFFFFFFFFFFFF AND DUP4 PUSH20 0xFFFFFFFFFFFFFFFFFFFFFFFFFFFFFFFFFFFFFFFF AND SUB PUSH2 0x1C4F JUMPI PUSH1 0x40 MLOAD PUSH32 0x8C379A000000000000000000000000000000000000000000000000000000000 DUP2 MSTORE PUSH1 0x4 ADD PUSH2 0x1C46 SWAP1 PUSH2 0x3E2A JUMP JUMPDEST PUSH1 0x40 MLOAD DUP1 SWAP2 SUB SWAP1 REVERT JUMPDEST PUSH1 0x0 PUSH20 0xFFFFFFFFFFFFFFFFFFFFFFFFFFFFFFFFFFFFFFFF AND DUP3 PUSH20 0xFFFFFFFFFFFFFFFFFFFFFFFFFFFFFFFFFFFFFFFF AND SUB PUSH2 0x1CBE JUMPI PUSH1 0x40 MLOAD PUSH32 0x8C379A000000000000000000000000000000000000000000000000000000000 DUP2 MSTORE PUSH1 0x4 ADD PUSH2 0x1CB5 SWAP1 PUSH2 0x395F JUMP JUMPDEST PUSH1 0x40 MLOAD DUP1 SWAP2 SUB SWAP1 REVERT JUMPDEST PUSH1 0x0 DUP2 GT PUSH2 0x1D01 JUMPI PUSH1 0x40 MLOAD PUSH32 0x8C379A000000000000000000000000000000000000000000000000000000000 DUP2 MSTORE PUSH1 0x4 ADD PUSH2 0x1CF8 SWAP1 PUSH2 0x3EBC JUMP JUMPDEST PUSH1 0x40 MLOAD DUP1 SWAP2 SUB SWAP1 REVERT JUMPDEST PUSH1 0x5 PUSH1 0x0 DUP5 PUSH20 0xFFFFFFFFFFFFFFFFFFFFFFFFFFFFFFFFFFFFFFFF AND PUSH20 0xFFFFFFFFFFFFFFFFFFFFFFFFFFFFFFFFFFFFFFFF AND DUP2 MSTORE PUSH1 0x20 ADD SWAP1 DUP2 MSTORE PUSH1 0x20 ADD PUSH1 0x0 KECCAK256 PUSH1 0x0 SWAP1 SLOAD SWAP1 PUSH2 0x100 EXP SWAP1 DIV PUSH1 0xFF AND ISZERO PUSH2 0x1D8E JUMPI PUSH1 0x40 MLOAD PUSH32 0x8C379A000000000000000000000000000000000000000000000000000000000 DUP2 MSTORE PUSH1 0x4 ADD PUSH2 0x1D85 SWAP1 PUSH2 0x3F28 JUMP JUMPDEST PUSH1 0x40 MLOAD DUP1 SWAP2 SUB SWAP1 REVERT JUMPDEST PUSH1 0x5 PUSH1 0x0 DUP4 PUSH20 0xFFFFFFFFFFFFFFFFFFFFFFFFFFFFFFFFFFFFFFFF AND PUSH20 0xFFFFFFFFFFFFFFFFFFFFFFFFFFFFFFFFFFFFFFFF AND DUP2 MSTORE PUSH1 0x20 ADD SWAP1 DUP2 MSTORE PUSH1 0x20 ADD PUSH1 0x0 KECCAK256 PUSH1 0x0 SWAP1 SLOAD SWAP1 PUSH2 0x100 EXP SWAP1 DIV PUSH1 0xFF AND ISZERO PUSH2 0x1E1B JUMPI PUSH1 0x40 MLOAD PUSH32 0x8C379A000000000000000000000000000000000000000000000000000000000 DUP2 MSTORE PUSH1 0x4 ADD PUSH2 0x1E12 SWAP1 PUSH2 0x3F94 JUMP JUMPDEST PUSH1 0x40 MLOAD DUP1 SWAP2 SUB SWAP1 REVERT JUMPDEST PUSH2 0x1E23 PUSH2 0x10E5 JUMP JUMPDEST PUSH20 0xFFFFFFFFFFFFFFFFFFFFFFFFFFFFFFFFFFFFFFFF AND DUP4 PUSH20 0xFFFFFFFFFFFFFFFFFFFFFFFFFFFFFFFFFFFFFFFF AND EQ DUP1 PUSH2 0x1E8E JUMPI POP PUSH2 0x1E5F PUSH2 0x10E5 JUMP JUMPDEST PUSH20 0xFFFFFFFFFFFFFFFFFFFFFFFFFFFFFFFFFFFFFFFF AND DUP3 PUSH20 0xFFFFFFFFFFFFFFFFFFFFFFFFFFFFFFFFFFFFFFFF AND EQ JUMPDEST DUP1 PUSH2 0x1EC4 JUMPI POP ADDRESS PUSH20 0xFFFFFFFFFFFFFFFFFFFFFFFFFFFFFFFFFFFFFFFF AND DUP4 PUSH20 0xFFFFFFFFFFFFFFFFFFFFFFFFFFFFFFFFFFFFFFFF AND EQ JUMPDEST ISZERO PUSH2 0x1F45 JUMPI PUSH1 0x0 PUSH1 0x9 SLOAD EQ DUP1 ISZERO PUSH2 0x1F28 JUMPI POP PUSH1 0x18 PUSH1 0x0 SWAP1 SLOAD SWAP1 PUSH2 0x100 EXP SWAP1 DIV PUSH20 0xFFFFFFFFFFFFFFFFFFFFFFFFFFFFFFFFFFFFFFFF AND PUSH20 0xFFFFFFFFFFFFFFFFFFFFFFFFFFFFFFFFFFFFFFFF AND DUP3 PUSH20 0xFFFFFFFFFFFFFFFFFFFFFFFFFFFFFFFFFFFFFFFF AND EQ JUMPDEST ISZERO PUSH2 0x1F35 JUMPI NUMBER PUSH1 0x9 DUP2 SWAP1 SSTORE POP JUMPDEST PUSH2 0x1F40 DUP4 DUP4 DUP4 PUSH2 0x270E JUMP JUMPDEST PUSH2 0x25EA JUMP JUMPDEST PUSH1 0x8 PUSH1 0x0 SWAP1 SLOAD SWAP1 PUSH2 0x100 EXP SWAP1 DIV PUSH1 0xFF AND PUSH2 0x1F94 JUMPI PUSH1 0x40 MLOAD PUSH32 0x8C379A000000000000000000000000000000000000000000000000000000000 DUP2 MSTORE PUSH1 0x4 ADD PUSH2 0x1F8B SWAP1 PUSH2 0x4000 JUMP JUMPDEST PUSH1 0x40 MLOAD DUP1 SWAP2 SUB SWAP1 REVERT JUMPDEST PUSH1 0xA SLOAD PUSH1 0x9 SLOAD PUSH2 0x1FA4 SWAP2 SWAP1 PUSH2 0x3756 JUMP JUMPDEST NUMBER GT PUSH2 0x2007 JUMPI PUSH1 0x1 PUSH1 0x5 PUSH1 0x0 DUP5 PUSH20 0xFFFFFFFFFFFFFFFFFFFFFFFFFFFFFFFFFFFFFFFF AND PUSH20 0xFFFFFFFFFFFFFFFFFFFFFFFFFFFFFFFFFFFFFFFF AND DUP2 MSTORE PUSH1 0x20 ADD SWAP1 DUP2 MSTORE PUSH1 0x20 ADD PUSH1 0x0 KECCAK256 PUSH1 0x0 PUSH2 0x100 EXP DUP2 SLOAD DUP2 PUSH1 0xFF MUL NOT AND SWAP1 DUP4 ISZERO ISZERO MUL OR SWAP1 SSTORE POP PUSH2 0x25EA JUMP JUMPDEST PUSH1 0x0 PUSH1 0x18 PUSH1 0x0 SWAP1 SLOAD SWAP1 PUSH2 0x100 EXP SWAP1 DIV PUSH20 0xFFFFFFFFFFFFFFFFFFFFFFFFFFFFFFFFFFFFFFFF AND PUSH20 0xFFFFFFFFFFFFFFFFFFFFFFFFFFFFFFFFFFFFFFFF AND DUP5 PUSH20 0xFFFFFFFFFFFFFFFFFFFFFFFFFFFFFFFFFFFFFFFF AND EQ SWAP1 POP PUSH1 0x0 PUSH1 0x18 PUSH1 0x0 SWAP1 SLOAD SWAP1 PUSH2 0x100 EXP SWAP1 DIV PUSH20 0xFFFFFFFFFFFFFFFFFFFFFFFFFFFFFFFFFFFFFFFF AND PUSH20 0xFFFFFFFFFFFFFFFFFFFFFFFFFFFFFFFFFFFFFFFF AND DUP5 PUSH20 0xFFFFFFFFFFFFFFFFFFFFFFFFFFFFFFFFFFFFFFFF AND EQ SWAP1 POP PUSH1 0x0 DUP1 PUSH1 0x0 DUP1 PUSH1 0x0 PUSH2 0x20C2 ADDRESS PUSH2 0x1012 JUMP JUMPDEST SWAP1 POP PUSH1 0x0 PUSH1 0x16 SLOAD DUP3 LT ISZERO SWAP1 POP DUP1 DUP1 ISZERO PUSH2 0x20E7 JUMPI POP PUSH1 0x18 PUSH1 0x15 SWAP1 SLOAD SWAP1 PUSH2 0x100 EXP SWAP1 DIV PUSH1 0xFF AND JUMPDEST DUP1 ISZERO PUSH2 0x2100 JUMPI POP PUSH1 0x18 PUSH1 0x14 SWAP1 SLOAD SWAP1 PUSH2 0x100 EXP SWAP1 DIV PUSH1 0xFF AND ISZERO JUMPDEST DUP1 ISZERO PUSH2 0x2156 JUMPI POP PUSH1 0x6 PUSH1 0x0 DUP13 PUSH20 0xFFFFFFFFFFFFFFFFFFFFFFFFFFFFFFFFFFFFFFFF AND PUSH20 0xFFFFFFFFFFFFFFFFFFFFFFFFFFFFFFFFFFFFFFFF AND DUP2 MSTORE PUSH1 0x20 ADD SWAP1 DUP2 MSTORE PUSH1 0x20 ADD PUSH1 0x0 KECCAK256 PUSH1 0x0 SWAP1 SLOAD SWAP1 PUSH2 0x100 EXP SWAP1 DIV PUSH1 0xFF AND ISZERO JUMPDEST DUP1 ISZERO PUSH2 0x21AC JUMPI POP PUSH1 0x7 PUSH1 0x0 DUP13 PUSH20 0xFFFFFFFFFFFFFFFFFFFFFFFFFFFFFFFFFFFFFFFF AND PUSH20 0xFFFFFFFFFFFFFFFFFFFFFFFFFFFFFFFFFFFFFFFF AND DUP2 MSTORE PUSH1 0x20 ADD SWAP1 DUP2 MSTORE PUSH1 0x20 ADD PUSH1 0x0 KECCAK256 PUSH1 0x0 SWAP1 SLOAD SWAP1 PUSH2 0x100 EXP SWAP1 DIV PUSH1 0xFF AND ISZERO JUMPDEST DUP1 ISZERO PUSH2 0x2202 JUMPI POP PUSH1 0x7 PUSH1 0x0 DUP12 PUSH20 0xFFFFFFFFFFFFFFFFFFFFFFFFFFFFFFFFFFFFFFFF AND PUSH20 0xFFFFFFFFFFFFFFFFFFFFFFFFFFFFFFFFFFFFFFFF AND DUP2 MSTORE PUSH1 0x20 ADD SWAP1 DUP2 MSTORE PUSH1 0x20 ADD PUSH1 0x0 KECCAK256 PUSH1 0x0 SWAP1 SLOAD SWAP1 PUSH2 0x100 EXP SWAP1 DIV PUSH1 0xFF AND ISZERO JUMPDEST ISZERO PUSH2 0x2246 JUMPI PUSH1 0x1 PUSH1 0x18 PUSH1 0x14 PUSH2 0x100 EXP DUP2 SLOAD DUP2 PUSH1 0xFF MUL NOT AND SWAP1 DUP4 ISZERO ISZERO MUL OR SWAP1 SSTORE POP PUSH2 0x222A PUSH2 0x289B JUMP JUMPDEST PUSH1 0x0 PUSH1 0x18 PUSH1 0x14 PUSH2 0x100 EXP DUP2 SLOAD DUP2 PUSH1 0xFF MUL NOT AND SWAP1 DUP4 ISZERO ISZERO MUL OR SWAP1 SSTORE POP JUMPDEST PUSH1 0x0 PUSH1 0x18 PUSH1 0x14 SWAP1 SLOAD SWAP1 PUSH2 0x100 EXP SWAP1 DIV PUSH1 0xFF AND ISZERO SWAP1 POP PUSH1 0x7 PUSH1 0x0 DUP14 PUSH20 0xFFFFFFFFFFFFFFFFFFFFFFFFFFFFFFFFFFFFFFFF AND PUSH20 0xFFFFFFFFFFFFFFFFFFFFFFFFFFFFFFFFFFFFFFFF AND DUP2 MSTORE PUSH1 0x20 ADD SWAP1 DUP2 MSTORE PUSH1 0x20 ADD PUSH1 0x0 KECCAK256 PUSH1 0x0 SWAP1 SLOAD SWAP1 PUSH2 0x100 EXP SWAP1 DIV PUSH1 0xFF AND DUP1 PUSH2 0x22FC JUMPI POP PUSH1 0x7 PUSH1 0x0 DUP13 PUSH20 0xFFFFFFFFFFFFFFFFFFFFFFFFFFFFFFFFFFFFFFFF AND PUSH20 0xFFFFFFFFFFFFFFFFFFFFFFFFFFFFFFFFFFFFFFFF AND DUP2 MSTORE PUSH1 0x20 ADD SWAP1 DUP2 MSTORE PUSH1 0x20 ADD PUSH1 0x0 KECCAK256 PUSH1 0x0 SWAP1 SLOAD SWAP1 PUSH2 0x100 EXP SWAP1 DIV PUSH1 0xFF AND JUMPDEST ISZERO PUSH2 0x2306 JUMPI PUSH1 0x0 SWAP1 POP JUMPDEST PUSH1 0x0 DUP2 ISZERO PUSH2 0x25D4 JUMPI PUSH1 0x6 PUSH1 0x0 DUP15 PUSH20 0xFFFFFFFFFFFFFFFFFFFFFFFFFFFFFFFFFFFFFFFF AND PUSH20 0xFFFFFFFFFFFFFFFFFFFFFFFFFFFFFFFFFFFFFFFF AND DUP2 MSTORE PUSH1 0x20 ADD SWAP1 DUP2 MSTORE PUSH1 0x20 ADD PUSH1 0x0 KECCAK256 PUSH1 0x0 SWAP1 SLOAD SWAP1 PUSH2 0x100 EXP SWAP1 DIV PUSH1 0xFF AND DUP1 ISZERO PUSH2 0x2364 JUMPI POP DUP10 JUMPDEST ISZERO PUSH2 0x246B JUMPI PUSH1 0x7 PUSH1 0x0 DUP14 PUSH20 0xFFFFFFFFFFFFFFFFFFFFFFFFFFFFFFFFFFFFFFFF AND PUSH20 0xFFFFFFFFFFFFFFFFFFFFFFFFFFFFFFFFFFFFFFFF AND DUP2 MSTORE PUSH1 0x20 ADD SWAP1 DUP2 MSTORE PUSH1 0x20 ADD PUSH1 0x0 KECCAK256 PUSH1 0x0 SWAP1 SLOAD SWAP1 PUSH2 0x100 EXP SWAP1 DIV PUSH1 0xFF AND PUSH2 0x244D JUMPI PUSH1 0x2 SLOAD DUP12 GT ISZERO PUSH2 0x23FF JUMPI PUSH1 0x40 MLOAD PUSH32 0x8C379A000000000000000000000000000000000000000000000000000000000 DUP2 MSTORE PUSH1 0x4 ADD PUSH2 0x23F6 SWAP1 PUSH2 0x406C JUMP JUMPDEST PUSH1 0x40 MLOAD DUP1 SWAP2 SUB SWAP1 REVERT JUMPDEST PUSH2 0x240B DUP12 PUSH1 0xD SLOAD PUSH2 0x2B10 JUMP JUMPDEST SWAP6 POP PUSH2 0x2419 DUP12 PUSH1 0xF SLOAD PUSH2 0x2B10 JUMP JUMPDEST SWAP8 POP PUSH2 0x2427 DUP12 PUSH1 0x10 SLOAD PUSH2 0x2B10 JUMP JUMPDEST SWAP7 POP PUSH2 0x2434 DUP14 ADDRESS DUP11 PUSH2 0x270E JUMP JUMPDEST PUSH2 0x243F DUP14 ADDRESS DUP9 PUSH2 0x270E JUMP JUMPDEST PUSH2 0x244C DUP14 PUSH2 0xDEAD DUP10 PUSH2 0x2B34 JUMP JUMPDEST JUMPDEST DUP7 DUP9 DUP8 PUSH2 0x245A SWAP2 SWAP1 PUSH2 0x3756 JUMP JUMPDEST PUSH2 0x2464 SWAP2 SWAP1 PUSH2 0x3756 JUMP JUMPDEST SWAP1 POP PUSH2 0x25C5 JUMP JUMPDEST PUSH1 0x6 PUSH1 0x0 DUP14 PUSH20 0xFFFFFFFFFFFFFFFFFFFFFFFFFFFFFFFFFFFFFFFF AND PUSH20 0xFFFFFFFFFFFFFFFFFFFFFFFFFFFFFFFFFFFFFFFF AND DUP2 MSTORE PUSH1 0x20 ADD SWAP1 DUP2 MSTORE PUSH1 0x20 ADD PUSH1 0x0 KECCAK256 PUSH1 0x0 SWAP1 SLOAD SWAP1 PUSH2 0x100 EXP SWAP1 DIV PUSH1 0xFF AND DUP1 ISZERO PUSH2 0x24C1 JUMPI POP DUP9 JUMPDEST ISZERO PUSH2 0x25C4 JUMPI PUSH1 0x7 PUSH1 0x0 DUP15 PUSH20 0xFFFFFFFFFFFFFFFFFFFFFFFFFFFFFFFFFFFFFFFF AND PUSH20 0xFFFFFFFFFFFFFFFFFFFFFFFFFFFFFFFFFFFFFFFF AND DUP2 MSTORE PUSH1 0x20 ADD SWAP1 DUP2 MSTORE PUSH1 0x20 ADD PUSH1 0x0 KECCAK256 PUSH1 0x0 SWAP1 SLOAD SWAP1 PUSH2 0x100 EXP SWAP1 DIV PUSH1 0xFF AND PUSH2 0x25AA JUMPI PUSH1 0x2 SLOAD DUP12 GT ISZERO PUSH2 0x255C JUMPI PUSH1 0x40 MLOAD PUSH32 0x8C379A000000000000000000000000000000000000000000000000000000000 DUP2 MSTORE PUSH1 0x4 ADD PUSH2 0x2553 SWAP1 PUSH2 0x40D8 JUMP JUMPDEST PUSH1 0x40 MLOAD DUP1 SWAP2 SUB SWAP1 REVERT JUMPDEST PUSH2 0x2568 DUP12 PUSH1 0xE SLOAD PUSH2 0x2B10 JUMP JUMPDEST SWAP5 POP PUSH2 0x2576 DUP12 PUSH1 0xF SLOAD PUSH2 0x2B10 JUMP JUMPDEST SWAP8 POP PUSH2 0x2584 DUP12 PUSH1 0x10 SLOAD PUSH2 0x2B10 JUMP JUMPDEST SWAP7 POP PUSH2 0x2591 DUP14 ADDRESS DUP8 PUSH2 0x270E JUMP JUMPDEST PUSH2 0x259C DUP14 ADDRESS DUP11 PUSH2 0x270E JUMP JUMPDEST PUSH2 0x25A9 DUP14 PUSH2 0xDEAD DUP10 PUSH2 0x2B34 JUMP JUMPDEST JUMPDEST DUP7 DUP9 DUP7 PUSH2 0x25B7 SWAP2 SWAP1 PUSH2 0x3756 JUMP JUMPDEST PUSH2 0x25C1 SWAP2 SWAP1 PUSH2 0x3756 JUMP JUMPDEST SWAP1 POP JUMPDEST JUMPDEST DUP1 DUP12 PUSH2 0x25D1 SWAP2 SWAP1 PUSH2 0x40F8 JUMP JUMPDEST SWAP11 POP JUMPDEST PUSH2 0x25DF DUP14 DUP14 DUP14 PUSH2 0x270E JUMP JUMPDEST POP POP POP POP POP POP POP POP POP POP JUMPDEST POP POP POP JUMP JUMPDEST PUSH1 0x0 DUP1 PUSH1 0x0 SWAP1 SLOAD SWAP1 PUSH2 0x100 EXP SWAP1 DIV PUSH20 0xFFFFFFFFFFFFFFFFFFFFFFFFFFFFFFFFFFFFFFFF AND SWAP1 POP DUP2 PUSH1 0x0 DUP1 PUSH2 0x100 EXP DUP2 SLOAD DUP2 PUSH20 0xFFFFFFFFFFFFFFFFFFFFFFFFFFFFFFFFFFFFFFFF MUL NOT AND SWAP1 DUP4 PUSH20 0xFFFFFFFFFFFFFFFFFFFFFFFFFFFFFFFFFFFFFFFF AND MUL OR SWAP1 SSTORE POP DUP2 PUSH20 0xFFFFFFFFFFFFFFFFFFFFFFFFFFFFFFFFFFFFFFFF AND DUP2 PUSH20 0xFFFFFFFFFFFFFFFFFFFFFFFFFFFFFFFFFFFFFFFF AND PUSH32 0x8BE0079C531659141344CD1FD0A4F28419497F9722A3DAAFE3B4186F6B6457E0 PUSH1 0x40 MLOAD PUSH1 0x40 MLOAD DUP1 SWAP2 SUB SWAP1 LOG3 POP POP JUMP JUMPDEST DUP1 PUSH1 0x6 PUSH1 0x0 DUP5 PUSH20 0xFFFFFFFFFFFFFFFFFFFFFFFFFFFFFFFFFFFFFFFF AND PUSH20 0xFFFFFFFFFFFFFFFFFFFFFFFFFFFFFFFFFFFFFFFF AND DUP2 MSTORE PUSH1 0x20 ADD SWAP1 DUP2 MSTORE PUSH1 0x20 ADD PUSH1 0x0 KECCAK256 PUSH1 0x0 PUSH2 0x100 EXP DUP2 SLOAD DUP2 PUSH1 0xFF MUL NOT AND SWAP1 DUP4 ISZERO ISZERO MUL OR SWAP1 SSTORE POP POP POP JUMP JUMPDEST PUSH1 0x0 PUSH1 0x3 PUSH1 0x0 DUP6 PUSH20 0xFFFFFFFFFFFFFFFFFFFFFFFFFFFFFFFFFFFFFFFF AND PUSH20 0xFFFFFFFFFFFFFFFFFFFFFFFFFFFFFFFFFFFFFFFF AND DUP2 MSTORE PUSH1 0x20 ADD SWAP1 DUP2 MSTORE PUSH1 0x20 ADD PUSH1 0x0 KECCAK256 SLOAD SWAP1 POP DUP2 DUP2 LT ISZERO PUSH2 0x2795 JUMPI PUSH1 0x40 MLOAD PUSH32 0x8C379A000000000000000000000000000000000000000000000000000000000 DUP2 MSTORE PUSH1 0x4 ADD PUSH2 0x278C SWAP1 PUSH2 0x419E JUMP JUMPDEST PUSH1 0x40 MLOAD DUP1 SWAP2 SUB SWAP1 REVERT JUMPDEST DUP2 DUP2 SUB PUSH1 0x3 PUSH1 0x0 DUP7 PUSH20 0xFFFFFFFFFFFFFFFFFFFFFFFFFFFFFFFFFFFFFFFF AND PUSH20 0xFFFFFFFFFFFFFFFFFFFFFFFFFFFFFFFFFFFFFFFF AND DUP2 MSTORE PUSH1 0x20 ADD SWAP1 DUP2 MSTORE PUSH1 0x20 ADD PUSH1 0x0 KECCAK256 DUP2 SWAP1 SSTORE POP DUP2 PUSH1 0x3 PUSH1 0x0 DUP6 PUSH20 0xFFFFFFFFFFFFFFFFFFFFFFFFFFFFFFFFFFFFFFFF AND PUSH20 0xFFFFFFFFFFFFFFFFFFFFFFFFFFFFFFFFFFFFFFFF AND DUP2 MSTORE PUSH1 0x20 ADD SWAP1 DUP2 MSTORE PUSH1 0x20 ADD PUSH1 0x0 KECCAK256 PUSH1 0x0 DUP3 DUP3 SLOAD ADD SWAP3 POP POP DUP2 SWAP1 SSTORE POP DUP3 PUSH20 0xFFFFFFFFFFFFFFFFFFFFFFFFFFFFFFFFFFFFFFFF AND DUP5 PUSH20 0xFFFFFFFFFFFFFFFFFFFFFFFFFFFFFFFFFFFFFFFF AND PUSH32 0xDDF252AD1BE2C89B69C2B068FC378DAA952BA7F163C4A11628F55A4DF523B3EF DUP5 PUSH1 0x40 MLOAD PUSH2 0x2885 SWAP2 SWAP1 PUSH2 0x3301 JUMP JUMPDEST PUSH1 0x40 MLOAD DUP1 SWAP2 SUB SWAP1 LOG3 POP POP POP POP JUMP JUMPDEST PUSH1 0x0 CALLER SWAP1 POP SWAP1 JUMP JUMPDEST PUSH1 0x0 PUSH2 0x28A6 ADDRESS PUSH2 0x1012 JUMP JUMPDEST SWAP1 POP PUSH1 0x16 SLOAD DUP2 LT PUSH2 0x2B0D JUMPI PUSH1 0x0 PUSH3 0x30D40 PUSH1 0x13 SLOAD DUP4 PUSH2 0x28C5 SWAP2 SWAP1 PUSH2 0x378A JUMP JUMPDEST PUSH2 0x28CF SWAP2 SWAP1 PUSH2 0x37FB JUMP JUMPDEST SWAP1 POP PUSH1 0x0 DUP2 PUSH3 0x186A0 PUSH1 0x13 SLOAD DUP6 PUSH2 0x28E6 SWAP2 SWAP1 PUSH2 0x378A JUMP JUMPDEST PUSH2 0x28F0 SWAP2 SWAP1 PUSH2 0x37FB JUMP JUMPDEST PUSH2 0x28FA SWAP2 SWAP1 PUSH2 0x40F8 JUMP JUMPDEST SWAP1 POP PUSH1 0x0 DUP3 DUP5 PUSH2 0x290A SWAP2 SWAP1 PUSH2 0x40F8 JUMP JUMPDEST SWAP1 POP PUSH1 0x0 SELFBALANCE SWAP1 POP PUSH2 0x291A DUP3 PUSH2 0x2D3A JUMP JUMPDEST PUSH1 0x0 DUP2 SELFBALANCE PUSH2 0x2928 SWAP2 SWAP1 PUSH2 0x40F8 JUMP JUMPDEST SWAP1 POP PUSH1 0x0 DUP1 PUSH1 0x0 PUSH3 0x186A0 PUSH1 0x11 SLOAD DUP6 PUSH2 0x2941 SWAP2 SWAP1 PUSH2 0x378A JUMP JUMPDEST PUSH2 0x294B SWAP2 SWAP1 PUSH2 0x37FB JUMP JUMPDEST SWAP1 POP PUSH1 0x0 PUSH3 0x186A0 PUSH1 0x12 SLOAD DUP7 PUSH2 0x2961 SWAP2 SWAP1 PUSH2 0x378A JUMP JUMPDEST PUSH2 0x296B SWAP2 SWAP1 PUSH2 0x37FB JUMP JUMPDEST SWAP1 POP PUSH1 0x0 DUP2 DUP4 PUSH2 0x297B SWAP2 SWAP1 PUSH2 0x3756 JUMP JUMPDEST SWAP1 POP DUP2 DUP4 DUP8 PUSH2 0x298A SWAP2 SWAP1 PUSH2 0x40F8 JUMP JUMPDEST PUSH2 0x2994 SWAP2 SWAP1 PUSH2 0x40F8 JUMP JUMPDEST SWAP6 POP PUSH1 0x0 PUSH3 0x186A0 PUSH1 0x15 SLOAD DUP4 PUSH2 0x29AA SWAP2 SWAP1 PUSH2 0x378A JUMP JUMPDEST PUSH2 0x29B4 SWAP2 SWAP1 PUSH2 0x37FB JUMP JUMPDEST SWAP1 POP PUSH1 0x0 DUP2 DUP4 PUSH2 0x29C4 SWAP2 SWAP1 PUSH2 0x40F8 JUMP JUMPDEST SWAP1 POP PUSH1 0xB PUSH1 0x0 SWAP1 SLOAD SWAP1 PUSH2 0x100 EXP SWAP1 DIV PUSH20 0xFFFFFFFFFFFFFFFFFFFFFFFFFFFFFFFFFFFFFFFF AND PUSH20 0xFFFFFFFFFFFFFFFFFFFFFFFFFFFFFFFFFFFFFFFF AND DUP3 PUSH2 0x88B8 SWAP1 PUSH1 0x40 MLOAD PUSH2 0x2A10 SWAP1 PUSH2 0x41EF JUMP JUMPDEST PUSH1 0x0 PUSH1 0x40 MLOAD DUP1 DUP4 SUB DUP2 DUP6 DUP9 DUP9 CALL SWAP4 POP POP POP POP RETURNDATASIZE DUP1 PUSH1 0x0 DUP2 EQ PUSH2 0x2A4E JUMPI PUSH1 0x40 MLOAD SWAP2 POP PUSH1 0x1F NOT PUSH1 0x3F RETURNDATASIZE ADD AND DUP3 ADD PUSH1 0x40 MSTORE RETURNDATASIZE DUP3 MSTORE RETURNDATASIZE PUSH1 0x0 PUSH1 0x20 DUP5 ADD RETURNDATACOPY PUSH2 0x2A53 JUMP JUMPDEST PUSH1 0x60 SWAP2 POP JUMPDEST POP POP DUP1 SWAP8 POP POP PUSH1 0xC PUSH1 0x0 SWAP1 SLOAD SWAP1 PUSH2 0x100 EXP SWAP1 DIV PUSH20 0xFFFFFFFFFFFFFFFFFFFFFFFFFFFFFFFFFFFFFFFF AND PUSH20 0xFFFFFFFFFFFFFFFFFFFFFFFFFFFFFFFFFFFFFFFF AND DUP2 PUSH2 0x88B8 SWAP1 PUSH1 0x40 MLOAD PUSH2 0x2AA3 SWAP1 PUSH2 0x41EF JUMP JUMPDEST PUSH1 0x0 PUSH1 0x40 MLOAD DUP1 DUP4 SUB DUP2 DUP6 DUP9 DUP9 CALL SWAP4 POP POP POP POP RETURNDATASIZE DUP1 PUSH1 0x0 DUP2 EQ PUSH2 0x2AE1 JUMPI PUSH1 0x40 MLOAD SWAP2 POP PUSH1 0x1F NOT PUSH1 0x3F RETURNDATASIZE ADD AND DUP3 ADD PUSH1 0x40 MSTORE RETURNDATASIZE DUP3 MSTORE RETURNDATASIZE PUSH1 0x0 PUSH1 0x20 DUP5 ADD RETURNDATACOPY PUSH2 0x2AE6 JUMP JUMPDEST PUSH1 0x60 SWAP2 POP JUMPDEST POP POP DUP1 SWAP7 POP POP PUSH1 0x0 DUP9 GT ISZERO PUSH2 0x2B00 JUMPI PUSH2 0x2AFF DUP12 DUP10 PUSH2 0x2F7D JUMP JUMPDEST JUMPDEST POP POP POP POP POP POP POP POP POP POP POP POP JUMPDEST POP JUMP JUMPDEST PUSH1 0x0 PUSH3 0x186A0 DUP3 DUP5 PUSH2 0x2B22 SWAP2 SWAP1 PUSH2 0x378A JUMP JUMPDEST PUSH2 0x2B2C SWAP2 SWAP1 PUSH2 0x37FB JUMP JUMPDEST SWAP1 POP SWAP3 SWAP2 POP POP JUMP JUMPDEST PUSH1 0x0 PUSH20 0xFFFFFFFFFFFFFFFFFFFFFFFFFFFFFFFFFFFFFFFF AND DUP4 PUSH20 0xFFFFFFFFFFFFFFFFFFFFFFFFFFFFFFFFFFFFFFFF AND SUB PUSH2 0x2BA3 JUMPI PUSH1 0x40 MLOAD PUSH32 0x8C379A000000000000000000000000000000000000000000000000000000000 DUP2 MSTORE PUSH1 0x4 ADD PUSH2 0x2B9A SWAP1 PUSH2 0x4276 JUMP JUMPDEST PUSH1 0x40 MLOAD DUP1 SWAP2 SUB SWAP1 REVERT JUMPDEST DUP1 PUSH1 0x3 PUSH1 0x0 DUP6 PUSH20 0xFFFFFFFFFFFFFFFFFFFFFFFFFFFFFFFFFFFFFFFF AND PUSH20 0xFFFFFFFFFFFFFFFFFFFFFFFFFFFFFFFFFFFFFFFF AND DUP2 MSTORE PUSH1 0x20 ADD SWAP1 DUP2 MSTORE PUSH1 0x20 ADD PUSH1 0x0 KECCAK256 SLOAD LT ISZERO PUSH2 0x2C25 JUMPI PUSH1 0x40 MLOAD PUSH32 0x8C379A000000000000000000000000000000000000000000000000000000000 DUP2 MSTORE PUSH1 0x4 ADD PUSH2 0x2C1C SWAP1 PUSH2 0x4308 JUMP JUMPDEST PUSH1 0x40 MLOAD DUP1 SWAP2 SUB SWAP1 REVERT JUMPDEST DUP1 PUSH1 0x3 PUSH1 0x0 DUP6 PUSH20 0xFFFFFFFFFFFFFFFFFFFFFFFFFFFFFFFFFFFFFFFF AND PUSH20 0xFFFFFFFFFFFFFFFFFFFFFFFFFFFFFFFFFFFFFFFF AND DUP2 MSTORE PUSH1 0x20 ADD SWAP1 DUP2 MSTORE PUSH1 0x20 ADD PUSH1 0x0 KECCAK256 PUSH1 0x0 DUP3 DUP3 SLOAD SUB SWAP3 POP POP DUP2 SWAP1 SSTORE POP DUP1 PUSH1 0x3 PUSH1 0x0 DUP5 PUSH20 0xFFFFFFFFFFFFFFFFFFFFFFFFFFFFFFFFFFFFFFFF AND PUSH20 0xFFFFFFFFFFFFFFFFFFFFFFFFFFFFFFFFFFFFFFFF AND DUP2 MSTORE PUSH1 0x20 ADD SWAP1 DUP2 MSTORE PUSH1 0x20 ADD PUSH1 0x0 KECCAK256 PUSH1 0x0 DUP3 DUP3 SLOAD ADD SWAP3 POP POP DUP2 SWAP1 SSTORE POP DUP1 PUSH1 0x1 PUSH1 0x0 DUP3 DUP3 SLOAD SUB SWAP3 POP POP DUP2 SWAP1 SSTORE POP PUSH1 0x0 PUSH20 0xFFFFFFFFFFFFFFFFFFFFFFFFFFFFFFFFFFFFFFFF AND DUP4 PUSH20 0xFFFFFFFFFFFFFFFFFFFFFFFFFFFFFFFFFFFFFFFF AND PUSH32 0xDDF252AD1BE2C89B69C2B068FC378DAA952BA7F163C4A11628F55A4DF523B3EF DUP4 PUSH1 0x40 MLOAD PUSH2 0x2D2D SWAP2 SWAP1 PUSH2 0x3301 JUMP JUMPDEST PUSH1 0x40 MLOAD DUP1 SWAP2 SUB SWAP1 LOG3 POP POP POP JUMP JUMPDEST PUSH1 0x0 PUSH1 0x2 PUSH8 0xFFFFFFFFFFFFFFFF DUP2 GT ISZERO PUSH2 0x2D57 JUMPI PUSH2 0x2D56 PUSH2 0x4328 JUMP JUMPDEST JUMPDEST PUSH1 0x40 MLOAD SWAP1 DUP1 DUP3 MSTORE DUP1 PUSH1 0x20 MUL PUSH1 0x20 ADD DUP3 ADD PUSH1 0x40 MSTORE DUP1 ISZERO PUSH2 0x2D85 JUMPI DUP2 PUSH1 0x20 ADD PUSH1 0x20 DUP3 MUL DUP1 CALLDATASIZE DUP4 CALLDATACOPY DUP1 DUP3 ADD SWAP2 POP POP SWAP1 POP JUMPDEST POP SWAP1 POP ADDRESS DUP2 PUSH1 0x0 DUP2 MLOAD DUP2 LT PUSH2 0x2D9D JUMPI PUSH2 0x2D9C PUSH2 0x38BE JUMP JUMPDEST JUMPDEST PUSH1 0x20 MUL PUSH1 0x20 ADD ADD SWAP1 PUSH20 0xFFFFFFFFFFFFFFFFFFFFFFFFFFFFFFFFFFFFFFFF AND SWAP1 DUP2 PUSH20 0xFFFFFFFFFFFFFFFFFFFFFFFFFFFFFFFFFFFFFFFF AND DUP2 MSTORE POP POP PUSH1 0x17 PUSH1 0x0 SWAP1 SLOAD SWAP1 PUSH2 0x100 EXP SWAP1 DIV PUSH20 0xFFFFFFFFFFFFFFFFFFFFFFFFFFFFFFFFFFFFFFFF AND PUSH20 0xFFFFFFFFFFFFFFFFFFFFFFFFFFFFFFFFFFFFFFFF AND PUSH4 0xAD5C4648 PUSH1 0x40 MLOAD DUP2 PUSH4 0xFFFFFFFF AND PUSH1 0xE0 SHL DUP2 MSTORE PUSH1 0x4 ADD PUSH1 0x20 PUSH1 0x40 MLOAD DUP1 DUP4 SUB DUP2 DUP7 GAS STATICCALL ISZERO DUP1 ISZERO PUSH2 0x2E44 JUMPI RETURNDATASIZE PUSH1 0x0 DUP1 RETURNDATACOPY RETURNDATASIZE PUSH1 0x0 REVERT JUMPDEST POP POP POP POP PUSH1 0x40 MLOAD RETURNDATASIZE PUSH1 0x1F NOT PUSH1 0x1F DUP3 ADD AND DUP3 ADD DUP1 PUSH1 0x40 MSTORE POP DUP2 ADD SWAP1 PUSH2 0x2E68 SWAP2 SWAP1 PUSH2 0x436C JUMP JUMPDEST DUP2 PUSH1 0x1 DUP2 MLOAD DUP2 LT PUSH2 0x2E7C JUMPI PUSH2 0x2E7B PUSH2 0x38BE JUMP JUMPDEST JUMPDEST PUSH1 0x20 MUL PUSH1 0x20 ADD ADD SWAP1 PUSH20 0xFFFFFFFFFFFFFFFFFFFFFFFFFFFFFFFFFFFFFFFF AND SWAP1 DUP2 PUSH20 0xFFFFFFFFFFFFFFFFFFFFFFFFFFFFFFFFFFFFFFFF AND DUP2 MSTORE POP POP PUSH2 0x2EE3 ADDRESS PUSH1 0x17 PUSH1 0x0 SWAP1 SLOAD SWAP1 PUSH2 0x100 EXP SWAP1 DIV PUSH20 0xFFFFFFFFFFFFFFFFFFFFFFFFFFFFFFFFFFFFFFFF AND DUP5 PUSH2 0x198B JUMP JUMPDEST PUSH1 0x17 PUSH1 0x0 SWAP1 SLOAD SWAP1 PUSH2 0x100 EXP SWAP1 DIV PUSH20 0xFFFFFFFFFFFFFFFFFFFFFFFFFFFFFFFFFFFFFFFF AND PUSH20 0xFFFFFFFFFFFFFFFFFFFFFFFFFFFFFFFFFFFFFFFF AND PUSH4 0x791AC947 DUP4 PUSH1 0x0 DUP5 ADDRESS TIMESTAMP PUSH1 0x40 MLOAD DUP7 PUSH4 0xFFFFFFFF AND PUSH1 0xE0 SHL DUP2 MSTORE PUSH1 0x4 ADD PUSH2 0x2F47 SWAP6 SWAP5 SWAP4 SWAP3 SWAP2 SWAP1 PUSH2 0x4492 JUMP JUMPDEST PUSH1 0x0 PUSH1 0x40 MLOAD DUP1 DUP4 SUB DUP2 PUSH1 0x0 DUP8 DUP1 EXTCODESIZE ISZERO DUP1 ISZERO PUSH2 0x2F61 JUMPI PUSH1 0x0 DUP1 REVERT JUMPDEST POP GAS CALL ISZERO DUP1 ISZERO PUSH2 0x2F75 JUMPI RETURNDATASIZE PUSH1 0x0 DUP1 RETURNDATACOPY RETURNDATASIZE PUSH1 0x0 REVERT JUMPDEST POP POP POP POP POP POP JUMP JUMPDEST PUSH2 0x2FAA ADDRESS PUSH1 0x17 PUSH1 0x0 SWAP1 SLOAD SWAP1 PUSH2 0x100 EXP SWAP1 DIV PUSH20 0xFFFFFFFFFFFFFFFFFFFFFFFFFFFFFFFFFFFFFFFF AND DUP5 PUSH2 0x198B JUMP JUMPDEST PUSH1 0x17 PUSH1 0x0 SWAP1 SLOAD SWAP1 PUSH2 0x100 EXP SWAP1 DIV PUSH20 0xFFFFFFFFFFFFFFFFFFFFFFFFFFFFFFFFFFFFFFFF AND PUSH20 0xFFFFFFFFFFFFFFFFFFFFFFFFFFFFFFFFFFFFFFFF AND PUSH4 0xF305D719 DUP3 ADDRESS DUP6 PUSH1 0x0 DUP1 ADDRESS TIMESTAMP PUSH1 0x40 MLOAD DUP9 PUSH4 0xFFFFFFFF AND PUSH1 0xE0 SHL DUP2 MSTORE PUSH1 0x4 ADD PUSH2 0x3011 SWAP7 SWAP6 SWAP5 SWAP4 SWAP3 SWAP2 SWAP1 PUSH2 0x44EC JUMP JUMPDEST PUSH1 0x60 PUSH1 0x40 MLOAD DUP1 DUP4 SUB DUP2 DUP6 DUP9 GAS CALL ISZERO DUP1 ISZERO PUSH2 0x302F JUMPI RETURNDATASIZE PUSH1 0x0 DUP1 RETURNDATACOPY RETURNDATASIZE PUSH1 0x0 REVERT JUMPDEST POP POP POP POP POP PUSH1 0x40 MLOAD RETURNDATASIZE PUSH1 0x1F NOT PUSH1 0x1F DUP3 ADD AND DUP3 ADD DUP1 PUSH1 0x40 MSTORE POP DUP2 ADD SWAP1 PUSH2 0x3054 SWAP2 SWAP1 PUSH2 0x454D JUMP JUMPDEST POP POP POP POP POP JUMP JUMPDEST PUSH1 0x0 PUSH20 0xFFFFFFFFFFFFFFFFFFFFFFFFFFFFFFFFFFFFFFFF DUP3 AND SWAP1 POP SWAP2 SWAP1 POP JUMP JUMPDEST PUSH1 0x0 PUSH2 0x3086 DUP3 PUSH2 0x305B JUMP JUMPDEST SWAP1 POP SWAP2 SWAP1 POP JUMP JUMPDEST PUSH2 0x3096 DUP2 PUSH2 0x307B JUMP JUMPDEST DUP3 MSTORE POP POP JUMP JUMPDEST PUSH1 0x0 PUSH1 0x20 DUP3 ADD SWAP1 POP PUSH2 0x30B1 PUSH1 0x0 DUP4 ADD DUP5 PUSH2 0x308D JUMP JUMPDEST SWAP3 SWAP2 POP POP JUMP JUMPDEST PUSH1 0x0 DUP2 MLOAD SWAP1 POP SWAP2 SWAP1 POP JUMP JUMPDEST PUSH1 0x0 DUP3 DUP3 MSTORE PUSH1 0x20 DUP3 ADD SWAP1 POP SWAP3 SWAP2 POP POP JUMP JUMPDEST PUSH1 0x0 JUMPDEST DUP4 DUP2 LT ISZERO PUSH2 0x30F1 JUMPI DUP1 DUP3 ADD MLOAD DUP2 DUP5 ADD MSTORE PUSH1 0x20 DUP2 ADD SWAP1 POP PUSH2 0x30D6 JUMP JUMPDEST PUSH1 0x0 DUP5 DUP5 ADD MSTORE POP POP POP POP JUMP JUMPDEST PUSH1 0x0 PUSH1 0x1F NOT PUSH1 0x1F DUP4 ADD AND SWAP1 POP SWAP2 SWAP1 POP JUMP JUMPDEST PUSH1 0x0 PUSH2 0x3119 DUP3 PUSH2 0x30B7 JUMP JUMPDEST PUSH2 0x3123 DUP2 DUP6 PUSH2 0x30C2 JUMP JUMPDEST SWAP4 POP PUSH2 0x3133 DUP2 DUP6 PUSH1 0x20 DUP7 ADD PUSH2 0x30D3 JUMP JUMPDEST PUSH2 0x313C DUP2 PUSH2 0x30FD JUMP JUMPDEST DUP5 ADD SWAP2 POP POP SWAP3 SWAP2 POP POP JUMP JUMPDEST PUSH1 0x0 PUSH1 0x20 DUP3 ADD SWAP1 POP DUP2 DUP2 SUB PUSH1 0x0 DUP4 ADD MSTORE PUSH2 0x3161 DUP2 DUP5 PUSH2 0x310E JUMP JUMPDEST SWAP1 POP SWAP3 SWAP2 POP POP JUMP JUMPDEST PUSH1 0x0 DUP1 REVERT JUMPDEST PUSH1 0x0 DUP1 REVERT JUMPDEST PUSH1 0x0 DUP2 SWAP1 POP SWAP2 SWAP1 POP JUMP JUMPDEST PUSH2 0x3186 DUP2 PUSH2 0x3173 JUMP JUMPDEST DUP2 EQ PUSH2 0x3191 JUMPI PUSH1 0x0 DUP1 REVERT JUMPDEST POP JUMP JUMPDEST PUSH1 0x0 DUP2 CALLDATALOAD SWAP1 POP PUSH2 0x31A3 DUP2 PUSH2 0x317D JUMP JUMPDEST SWAP3 SWAP2 POP POP JUMP JUMPDEST PUSH1 0x0 PUSH1 0x20 DUP3 DUP5 SUB SLT ISZERO PUSH2 0x31BF JUMPI PUSH2 0x31BE PUSH2 0x3169 JUMP JUMPDEST JUMPDEST PUSH1 0x0 PUSH2 0x31CD DUP5 DUP3 DUP6 ADD PUSH2 0x3194 JUMP JUMPDEST SWAP2 POP POP SWAP3 SWAP2 POP POP JUMP JUMPDEST PUSH2 0x31DF DUP2 PUSH2 0x307B JUMP JUMPDEST DUP2 EQ PUSH2 0x31EA JUMPI PUSH1 0x0 DUP1 REVERT JUMPDEST POP JUMP JUMPDEST PUSH1 0x0 DUP2 CALLDATALOAD SWAP1 POP PUSH2 0x31FC DUP2 PUSH2 0x31D6 JUMP JUMPDEST SWAP3 SWAP2 POP POP JUMP JUMPDEST PUSH1 0x0 DUP1 PUSH1 0x40 DUP4 DUP6 SUB SLT ISZERO PUSH2 0x3219 JUMPI PUSH2 0x3218 PUSH2 0x3169 JUMP JUMPDEST JUMPDEST PUSH1 0x0 PUSH2 0x3227 DUP6 DUP3 DUP7 ADD PUSH2 0x31ED JUMP JUMPDEST SWAP3 POP POP PUSH1 0x20 PUSH2 0x3238 DUP6 DUP3 DUP7 ADD PUSH2 0x3194 JUMP JUMPDEST SWAP2 POP POP SWAP3 POP SWAP3 SWAP1 POP JUMP JUMPDEST PUSH1 0x0 DUP2 ISZERO ISZERO SWAP1 POP SWAP2 SWAP1 POP JUMP JUMPDEST PUSH2 0x3257 DUP2 PUSH2 0x3242 JUMP JUMPDEST DUP3 MSTORE POP POP JUMP JUMPDEST PUSH1 0x0 PUSH1 0x20 DUP3 ADD SWAP1 POP PUSH2 0x3272 PUSH1 0x0 DUP4 ADD DUP5 PUSH2 0x324E JUMP JUMPDEST SWAP3 SWAP2 POP POP JUMP JUMPDEST PUSH1 0x0 DUP2 SWAP1 POP SWAP2 SWAP1 POP JUMP JUMPDEST PUSH1 0x0 PUSH2 0x329D PUSH2 0x3298 PUSH2 0x3293 DUP5 PUSH2 0x305B JUMP JUMPDEST PUSH2 0x3278 JUMP JUMPDEST PUSH2 0x305B JUMP JUMPDEST SWAP1 POP SWAP2 SWAP1 POP JUMP JUMPDEST PUSH1 0x0 PUSH2 0x32AF DUP3 PUSH2 0x3282 JUMP JUMPDEST SWAP1 POP SWAP2 SWAP1 POP JUMP JUMPDEST PUSH1 0x0 PUSH2 0x32C1 DUP3 PUSH2 0x32A4 JUMP JUMPDEST SWAP1 POP SWAP2 SWAP1 POP JUMP JUMPDEST PUSH2 0x32D1 DUP2 PUSH2 0x32B6 JUMP JUMPDEST DUP3 MSTORE POP POP JUMP JUMPDEST PUSH1 0x0 PUSH1 0x20 DUP3 ADD SWAP1 POP PUSH2 0x32EC PUSH1 0x0 DUP4 ADD DUP5 PUSH2 0x32C8 JUMP JUMPDEST SWAP3 SWAP2 POP POP JUMP JUMPDEST PUSH2 0x32FB DUP2 PUSH2 0x3173 JUMP JUMPDEST DUP3 MSTORE POP POP JUMP JUMPDEST PUSH1 0x0 PUSH1 0x20 DUP3 ADD SWAP1 POP PUSH2 0x3316 PUSH1 0x0 DUP4 ADD DUP5 PUSH2 0x32F2 JUMP JUMPDEST SWAP3 SWAP2 POP POP JUMP JUMPDEST PUSH1 0x0 PUSH1 0x20 DUP3 DUP5 SUB SLT ISZERO PUSH2 0x3332 JUMPI PUSH2 0x3331 PUSH2 0x3169 JUMP JUMPDEST JUMPDEST PUSH1 0x0 PUSH2 0x3340 DUP5 DUP3 DUP6 ADD PUSH2 0x31ED JUMP JUMPDEST SWAP2 POP POP SWAP3 SWAP2 POP POP JUMP JUMPDEST PUSH1 0x0 DUP1 PUSH1 0x0 PUSH1 0x60 DUP5 DUP7 SUB SLT ISZERO PUSH2 0x3362 JUMPI PUSH2 0x3361 PUSH2 0x3169 JUMP JUMPDEST JUMPDEST PUSH1 0x0 PUSH2 0x3370 DUP7 DUP3 DUP8 ADD PUSH2 0x31ED JUMP JUMPDEST SWAP4 POP POP PUSH1 0x20 PUSH2 0x3381 DUP7 DUP3 DUP8 ADD PUSH2 0x31ED JUMP JUMPDEST SWAP3 POP POP PUSH1 0x40 PUSH2 0x3392 DUP7 DUP3 DUP8 ADD PUSH2 0x3194 JUMP JUMPDEST SWAP2 POP POP SWAP3 POP SWAP3 POP SWAP3 JUMP JUMPDEST PUSH1 0x0 PUSH1 0xFF DUP3 AND SWAP1 POP SWAP2 SWAP1 POP JUMP JUMPDEST PUSH2 0x33B2 DUP2 PUSH2 0x339C JUMP JUMPDEST DUP3 MSTORE POP POP JUMP JUMPDEST PUSH1 0x0 PUSH1 0x20 DUP3 ADD SWAP1 POP PUSH2 0x33CD PUSH1 0x0 DUP4 ADD DUP5 PUSH2 0x33A9 JUMP JUMPDEST SWAP3 SWAP2 POP POP JUMP JUMPDEST PUSH2 0x33DC DUP2 PUSH2 0x3242 JUMP JUMPDEST DUP2 EQ PUSH2 0x33E7 JUMPI PUSH1 0x0 DUP1 REVERT JUMPDEST POP JUMP JUMPDEST PUSH1 0x0 DUP2 CALLDATALOAD SWAP1 POP PUSH2 0x33F9 DUP2 PUSH2 0x33D3 JUMP JUMPDEST SWAP3 SWAP2 POP POP JUMP JUMPDEST PUSH1 0x0 DUP1 PUSH1 0x40 DUP4 DUP6 SUB SLT ISZERO PUSH2 0x3416 JUMPI PUSH2 0x3415 PUSH2 0x3169 JUMP JUMPDEST JUMPDEST PUSH1 0x0 PUSH2 0x3424 DUP6 DUP3 DUP7 ADD PUSH2 0x31ED JUMP JUMPDEST SWAP3 POP POP PUSH1 0x20 PUSH2 0x3435 DUP6 DUP3 DUP7 ADD PUSH2 0x33EA JUMP JUMPDEST SWAP2 POP POP SWAP3 POP SWAP3 SWAP1 POP JUMP JUMPDEST PUSH1 0x0 DUP1 REVERT JUMPDEST PUSH1 0x0 DUP1 REVERT JUMPDEST PUSH1 0x0 DUP1 REVERT JUMPDEST PUSH1 0x0 DUP1 DUP4 PUSH1 0x1F DUP5 ADD SLT PUSH2 0x3464 JUMPI PUSH2 0x3463 PUSH2 0x343F JUMP JUMPDEST JUMPDEST DUP3 CALLDATALOAD SWAP1 POP PUSH8 0xFFFFFFFFFFFFFFFF DUP2 GT ISZERO PUSH2 0x3481 JUMPI PUSH2 0x3480 PUSH2 0x3444 JUMP JUMPDEST JUMPDEST PUSH1 0x20 DUP4 ADD SWAP2 POP DUP4 PUSH1 0x20 DUP3 MUL DUP4 ADD GT ISZERO PUSH2 0x349D JUMPI PUSH2 0x349C PUSH2 0x3449 JUMP JUMPDEST JUMPDEST SWAP3 POP SWAP3 SWAP1 POP JUMP JUMPDEST PUSH1 0x0 DUP1 PUSH1 0x0 PUSH1 0x40 DUP5 DUP7 SUB SLT ISZERO PUSH2 0x34BD JUMPI PUSH2 0x34BC PUSH2 0x3169 JUMP JUMPDEST JUMPDEST PUSH1 0x0 DUP5 ADD CALLDATALOAD PUSH8 0xFFFFFFFFFFFFFFFF DUP2 GT ISZERO PUSH2 0x34DB JUMPI PUSH2 0x34DA PUSH2 0x316E JUMP JUMPDEST JUMPDEST PUSH2 0x34E7 DUP7 DUP3 DUP8 ADD PUSH2 0x344E JUMP JUMPDEST SWAP4 POP SWAP4 POP POP PUSH1 0x20 PUSH2 0x34FA DUP7 DUP3 DUP8 ADD PUSH2 0x3194 JUMP JUMPDEST SWAP2 POP POP SWAP3 POP SWAP3 POP SWAP3 JUMP JUMPDEST PUSH1 0x0 PUSH1 0x20 DUP3 DUP5 SUB SLT ISZERO PUSH2 0x351A JUMPI PUSH2 0x3519 PUSH2 0x3169 JUMP JUMPDEST JUMPDEST PUSH1 0x0 PUSH2 0x3528 DUP5 DUP3 DUP6 ADD PUSH2 0x33EA JUMP JUMPDEST SWAP2 POP POP SWAP3 SWAP2 POP POP JUMP JUMPDEST PUSH1 0x0 DUP1 PUSH1 0x40 DUP4 DUP6 SUB SLT ISZERO PUSH2 0x3548 JUMPI PUSH2 0x3547 PUSH2 0x3169 JUMP JUMPDEST JUMPDEST PUSH1 0x0 PUSH2 0x3556 DUP6 DUP3 DUP7 ADD PUSH2 0x31ED JUMP JUMPDEST SWAP3 POP POP PUSH1 0x20 PUSH2 0x3567 DUP6 DUP3 DUP7 ADD PUSH2 0x31ED JUMP JUMPDEST SWAP2 POP POP SWAP3 POP SWAP3 SWAP1 POP JUMP JUMPDEST PUSH32 0x4465762077616C6C65742063616E6E6F74206265207A65726F20616464726573 PUSH1 0x0 DUP3 ADD MSTORE PUSH32 0x7300000000000000000000000000000000000000000000000000000000000000 PUSH1 0x20 DUP3 ADD MSTORE POP JUMP JUMPDEST PUSH1 0x0 PUSH2 0x35CD PUSH1 0x21 DUP4 PUSH2 0x30C2 JUMP JUMPDEST SWAP2 POP PUSH2 0x35D8 DUP3 PUSH2 0x3571 JUMP JUMPDEST PUSH1 0x40 DUP3 ADD SWAP1 POP SWAP2 SWAP1 POP JUMP JUMPDEST PUSH1 0x0 PUSH1 0x20 DUP3 ADD SWAP1 POP DUP2 DUP2 SUB PUSH1 0x0 DUP4 ADD MSTORE PUSH2 0x35FC DUP2 PUSH2 0x35C0 JUMP JUMPDEST SWAP1 POP SWAP2 SWAP1 POP JUMP JUMPDEST PUSH32 0x5461782070657263656E746167652063616E6E6F742065786365656420313030 PUSH1 0x0 DUP3 ADD MSTORE PUSH32 0x2500000000000000000000000000000000000000000000000000000000000000 PUSH1 0x20 DUP3 ADD MSTORE POP JUMP JUMPDEST PUSH1 0x0 PUSH2 0x365F PUSH1 0x21 DUP4 PUSH2 0x30C2 JUMP JUMPDEST SWAP2 POP PUSH2 0x366A DUP3 PUSH2 0x3603 JUMP JUMPDEST PUSH1 0x40 DUP3 ADD SWAP1 POP SWAP2 SWAP1 POP JUMP JUMPDEST PUSH1 0x0 PUSH1 0x20 DUP3 ADD SWAP1 POP DUP2 DUP2 SUB PUSH1 0x0 DUP4 ADD MSTORE PUSH2 0x368E DUP2 PUSH2 0x3652 JUMP JUMPDEST SWAP1 POP SWAP2 SWAP1 POP JUMP JUMPDEST PUSH32 0x4D61726B6574696E672077616C6C65742063616E6E6F74206265207A65726F20 PUSH1 0x0 DUP3 ADD MSTORE PUSH32 0x6164647265737300000000000000000000000000000000000000000000000000 PUSH1 0x20 DUP3 ADD MSTORE POP JUMP JUMPDEST PUSH1 0x0 PUSH2 0x36F1 PUSH1 0x27 DUP4 PUSH2 0x30C2 JUMP JUMPDEST SWAP2 POP PUSH2 0x36FC DUP3 PUSH2 0x3695 JUMP JUMPDEST PUSH1 0x40 DUP3 ADD SWAP1 POP SWAP2 SWAP1 POP JUMP JUMPDEST PUSH1 0x0 PUSH1 0x20 DUP3 ADD SWAP1 POP DUP2 DUP2 SUB PUSH1 0x0 DUP4 ADD MSTORE PUSH2 0x3720 DUP2 PUSH2 0x36E4 JUMP JUMPDEST SWAP1 POP SWAP2 SWAP1 POP JUMP JUMPDEST PUSH32 0x4E487B7100000000000000000000000000000000000000000000000000000000 PUSH1 0x0 MSTORE PUSH1 0x11 PUSH1 0x4 MSTORE PUSH1 0x24 PUSH1 0x0 REVERT JUMPDEST PUSH1 0x0 PUSH2 0x3761 DUP3 PUSH2 0x3173 JUMP JUMPDEST SWAP2 POP PUSH2 0x376C DUP4 PUSH2 0x3173 JUMP JUMPDEST SWAP3 POP DUP3 DUP3 ADD SWAP1 POP DUP1 DUP3 GT ISZERO PUSH2 0x3784 JUMPI PUSH2 0x3783 PUSH2 0x3727 JUMP JUMPDEST JUMPDEST SWAP3 SWAP2 POP POP JUMP JUMPDEST PUSH1 0x0 PUSH2 0x3795 DUP3 PUSH2 0x3173 JUMP JUMPDEST SWAP2 POP PUSH2 0x37A0 DUP4 PUSH2 0x3173 JUMP JUMPDEST SWAP3 POP DUP3 DUP3 MUL PUSH2 0x37AE DUP2 PUSH2 0x3173 JUMP JUMPDEST SWAP2 POP DUP3 DUP3 DIV DUP5 EQ DUP4 ISZERO OR PUSH2 0x37C5 JUMPI PUSH2 0x37C4 PUSH2 0x3727 JUMP JUMPDEST JUMPDEST POP SWAP3 SWAP2 POP POP JUMP JUMPDEST PUSH32 0x4E487B7100000000000000000000000000000000000000000000000000000000 PUSH1 0x0 MSTORE PUSH1 0x12 PUSH1 0x4 MSTORE PUSH1 0x24 PUSH1 0x0 REVERT JUMPDEST PUSH1 0x0 PUSH2 0x3806 DUP3 PUSH2 0x3173 JUMP JUMPDEST SWAP2 POP PUSH2 0x3811 DUP4 PUSH2 0x3173 JUMP JUMPDEST SWAP3 POP DUP3 PUSH2 0x3821 JUMPI PUSH2 0x3820 PUSH2 0x37CC JUMP JUMPDEST JUMPDEST DUP3 DUP3 DIV SWAP1 POP SWAP3 SWAP2 POP POP JUMP JUMPDEST PUSH32 0x54686520706169722063616E6E6F742062652072656D6F7665642066726F6D20 PUSH1 0x0 DUP3 ADD MSTORE PUSH32 0x6175746F6D617465644D61726B65744D616B6572506169727300000000000000 PUSH1 0x20 DUP3 ADD MSTORE POP JUMP JUMPDEST PUSH1 0x0 PUSH2 0x3888 PUSH1 0x39 DUP4 PUSH2 0x30C2 JUMP JUMPDEST SWAP2 POP PUSH2 0x3893 DUP3 PUSH2 0x382C JUMP JUMPDEST PUSH1 0x40 DUP3 ADD SWAP1 POP SWAP2 SWAP1 POP JUMP JUMPDEST PUSH1 0x0 PUSH1 0x20 DUP3 ADD SWAP1 POP DUP2 DUP2 SUB PUSH1 0x0 DUP4 ADD MSTORE PUSH2 0x38B7 DUP2 PUSH2 0x387B JUMP JUMPDEST SWAP1 POP SWAP2 SWAP1 POP JUMP JUMPDEST PUSH32 0x4E487B7100000000000000000000000000000000000000000000000000000000 PUSH1 0x0 MSTORE PUSH1 0x32 PUSH1 0x4 MSTORE PUSH1 0x24 PUSH1 0x0 REVERT JUMPDEST PUSH32 0x45524332303A207472616E7366657220746F20746865207A65726F2061646472 PUSH1 0x0 DUP3 ADD MSTORE PUSH32 0x6573730000000000000000000000000000000000000000000000000000000000 PUSH1 0x20 DUP3 ADD MSTORE POP JUMP JUMPDEST PUSH1 0x0 PUSH2 0x3949 PUSH1 0x23 DUP4 PUSH2 0x30C2 JUMP JUMPDEST SWAP2 POP PUSH2 0x3954 DUP3 PUSH2 0x38ED JUMP JUMPDEST PUSH1 0x40 DUP3 ADD SWAP1 POP SWAP2 SWAP1 POP JUMP JUMPDEST PUSH1 0x0 PUSH1 0x20 DUP3 ADD SWAP1 POP DUP2 DUP2 SUB PUSH1 0x0 DUP4 ADD MSTORE PUSH2 0x3978 DUP2 PUSH2 0x393C JUMP JUMPDEST SWAP1 POP SWAP2 SWAP1 POP JUMP JUMPDEST PUSH32 0x4F776E65722063616E277420636C61696D20636F6E747261637427732062616C PUSH1 0x0 DUP3 ADD MSTORE PUSH32 0x616E6365206F6620697473206F776E20746F6B656E7300000000000000000000 PUSH1 0x20 DUP3 ADD MSTORE POP JUMP JUMPDEST PUSH1 0x0 PUSH2 0x39DB PUSH1 0x36 DUP4 PUSH2 0x30C2 JUMP JUMPDEST SWAP2 POP PUSH2 0x39E6 DUP3 PUSH2 0x397F JUMP JUMPDEST PUSH1 0x40 DUP3 ADD SWAP1 POP SWAP2 SWAP1 POP JUMP JUMPDEST PUSH1 0x0 PUSH1 0x20 DUP3 ADD SWAP1 POP DUP2 DUP2 SUB PUSH1 0x0 DUP4 ADD MSTORE PUSH2 0x3A0A DUP2 PUSH2 0x39CE JUMP JUMPDEST SWAP1 POP SWAP2 SWAP1 POP JUMP JUMPDEST PUSH1 0x0 DUP2 MLOAD SWAP1 POP PUSH2 0x3A20 DUP2 PUSH2 0x317D JUMP JUMPDEST SWAP3 SWAP2 POP POP JUMP JUMPDEST PUSH1 0x0 PUSH1 0x20 DUP3 DUP5 SUB SLT ISZERO PUSH2 0x3A3C JUMPI PUSH2 0x3A3B PUSH2 0x3169 JUMP JUMPDEST JUMPDEST PUSH1 0x0 PUSH2 0x3A4A DUP5 DUP3 DUP6 ADD PUSH2 0x3A11 JUMP JUMPDEST SWAP2 POP POP SWAP3 SWAP2 POP POP JUMP JUMPDEST PUSH1 0x0 PUSH1 0x40 DUP3 ADD SWAP1 POP PUSH2 0x3A68 PUSH1 0x0 DUP4 ADD DUP6 PUSH2 0x308D JUMP JUMPDEST PUSH2 0x3A75 PUSH1 0x20 DUP4 ADD DUP5 PUSH2 0x32F2 JUMP JUMPDEST SWAP4 SWAP3 POP POP POP JUMP JUMPDEST PUSH1 0x0 DUP2 MLOAD SWAP1 POP PUSH2 0x3A8B DUP2 PUSH2 0x33D3 JUMP JUMPDEST SWAP3 SWAP2 POP POP JUMP JUMPDEST PUSH1 0x0 PUSH1 0x20 DUP3 DUP5 SUB SLT ISZERO PUSH2 0x3AA7 JUMPI PUSH2 0x3AA6 PUSH2 0x3169 JUMP JUMPDEST JUMPDEST PUSH1 0x0 PUSH2 0x3AB5 DUP5 DUP3 DUP6 ADD PUSH2 0x3A7C JUMP JUMPDEST SWAP2 POP POP SWAP3 SWAP2 POP POP JUMP JUMPDEST PUSH32 0x5472616E73666572206661696C65640000000000000000000000000000000000 PUSH1 0x0 DUP3 ADD MSTORE POP JUMP JUMPDEST PUSH1 0x0 PUSH2 0x3AF4 PUSH1 0xF DUP4 PUSH2 0x30C2 JUMP JUMPDEST SWAP2 POP PUSH2 0x3AFF DUP3 PUSH2 0x3ABE JUMP JUMPDEST PUSH1 0x20 DUP3 ADD SWAP1 POP SWAP2 SWAP1 POP JUMP JUMPDEST PUSH1 0x0 PUSH1 0x20 DUP3 ADD SWAP1 POP DUP2 DUP2 SUB PUSH1 0x0 DUP4 ADD MSTORE PUSH2 0x3B23 DUP2 PUSH2 0x3AE7 JUMP JUMPDEST SWAP1 POP SWAP2 SWAP1 POP JUMP JUMPDEST PUSH32 0x4F776E61626C653A206E6577206F776E657220697320746865207A65726F2061 PUSH1 0x0 DUP3 ADD MSTORE PUSH32 0x6464726573730000000000000000000000000000000000000000000000000000 PUSH1 0x20 DUP3 ADD MSTORE POP JUMP JUMPDEST PUSH1 0x0 PUSH2 0x3B86 PUSH1 0x26 DUP4 PUSH2 0x30C2 JUMP JUMPDEST SWAP2 POP PUSH2 0x3B91 DUP3 PUSH2 0x3B2A JUMP JUMPDEST PUSH1 0x40 DUP3 ADD SWAP1 POP SWAP2 SWAP1 POP JUMP JUMPDEST PUSH1 0x0 PUSH1 0x20 DUP3 ADD SWAP1 POP DUP2 DUP2 SUB PUSH1 0x0 DUP4 ADD MSTORE PUSH2 0x3BB5 DUP2 PUSH2 0x3B79 JUMP JUMPDEST SWAP1 POP SWAP2 SWAP1 POP JUMP JUMPDEST PUSH32 0x4F776E61626C653A2063616C6C6572206973206E6F7420746865206F776E6572 PUSH1 0x0 DUP3 ADD MSTORE POP JUMP JUMPDEST PUSH1 0x0 PUSH2 0x3BF2 PUSH1 0x20 DUP4 PUSH2 0x30C2 JUMP JUMPDEST SWAP2 POP PUSH2 0x3BFD DUP3 PUSH2 0x3BBC JUMP JUMPDEST PUSH1 0x20 DUP3 ADD SWAP1 POP SWAP2 SWAP1 POP JUMP JUMPDEST PUSH1 0x0 PUSH1 0x20 DUP3 ADD SWAP1 POP DUP2 DUP2 SUB PUSH1 0x0 DUP4 ADD MSTORE PUSH2 0x3C21 DUP2 PUSH2 0x3BE5 JUMP JUMPDEST SWAP1 POP SWAP2 SWAP1 POP JUMP JUMPDEST PUSH32 0x45524332303A20617070726F76652066726F6D20746865207A65726F20616464 PUSH1 0x0 DUP3 ADD MSTORE PUSH32 0x7265737300000000000000000000000000000000000000000000000000000000 PUSH1 0x20 DUP3 ADD MSTORE POP JUMP JUMPDEST PUSH1 0x0 PUSH2 0x3C84 PUSH1 0x24 DUP4 PUSH2 0x30C2 JUMP JUMPDEST SWAP2 POP PUSH2 0x3C8F DUP3 PUSH2 0x3C28 JUMP JUMPDEST PUSH1 0x40 DUP3 ADD SWAP1 POP SWAP2 SWAP1 POP JUMP JUMPDEST PUSH1 0x0 PUSH1 0x20 DUP3 ADD SWAP1 POP DUP2 DUP2 SUB PUSH1 0x0 DUP4 ADD MSTORE PUSH2 0x3CB3 DUP2 PUSH2 0x3C77 JUMP JUMPDEST SWAP1 POP SWAP2 SWAP1 POP JUMP JUMPDEST PUSH32 0x45524332303A20617070726F766520746F20746865207A65726F206164647265 PUSH1 0x0 DUP3 ADD MSTORE PUSH32 0x7373000000000000000000000000000000000000000000000000000000000000 PUSH1 0x20 DUP3 ADD MSTORE POP JUMP JUMPDEST PUSH1 0x0 PUSH2 0x3D16 PUSH1 0x22 DUP4 PUSH2 0x30C2 JUMP JUMPDEST SWAP2 POP PUSH2 0x3D21 DUP3 PUSH2 0x3CBA JUMP JUMPDEST PUSH1 0x40 DUP3 ADD SWAP1 POP SWAP2 SWAP1 POP JUMP JUMPDEST PUSH1 0x0 PUSH1 0x20 DUP3 ADD SWAP1 POP DUP2 DUP2 SUB PUSH1 0x0 DUP4 ADD MSTORE PUSH2 0x3D45 DUP2 PUSH2 0x3D09 JUMP JUMPDEST SWAP1 POP SWAP2 SWAP1 POP JUMP JUMPDEST PUSH32 0x45524332303A20696E73756666696369656E7420616C6C6F77616E6365000000 PUSH1 0x0 DUP3 ADD MSTORE POP JUMP JUMPDEST PUSH1 0x0 PUSH2 0x3D82 PUSH1 0x1D DUP4 PUSH2 0x30C2 JUMP JUMPDEST SWAP2 POP PUSH2 0x3D8D DUP3 PUSH2 0x3D4C JUMP JUMPDEST PUSH1 0x20 DUP3 ADD SWAP1 POP SWAP2 SWAP1 POP JUMP JUMPDEST PUSH1 0x0 PUSH1 0x20 DUP3 ADD SWAP1 POP DUP2 DUP2 SUB PUSH1 0x0 DUP4 ADD MSTORE PUSH2 0x3DB1 DUP2 PUSH2 0x3D75 JUMP JUMPDEST SWAP1 POP SWAP2 SWAP1 POP JUMP JUMPDEST PUSH32 0x45524332303A207472616E736665722066726F6D20746865207A65726F206164 PUSH1 0x0 DUP3 ADD MSTORE PUSH32 0x6472657373000000000000000000000000000000000000000000000000000000 PUSH1 0x20 DUP3 ADD MSTORE POP JUMP JUMPDEST PUSH1 0x0 PUSH2 0x3E14 PUSH1 0x25 DUP4 PUSH2 0x30C2 JUMP JUMPDEST SWAP2 POP PUSH2 0x3E1F DUP3 PUSH2 0x3DB8 JUMP JUMPDEST PUSH1 0x40 DUP3 ADD SWAP1 POP SWAP2 SWAP1 POP JUMP JUMPDEST PUSH1 0x0 PUSH1 0x20 DUP3 ADD SWAP1 POP DUP2 DUP2 SUB PUSH1 0x0 DUP4 ADD MSTORE PUSH2 0x3E43 DUP2 PUSH2 0x3E07 JUMP JUMPDEST SWAP1 POP SWAP2 SWAP1 POP JUMP JUMPDEST PUSH32 0x5472616E7366657220616D6F756E74206D757374206265206772656174657220 PUSH1 0x0 DUP3 ADD MSTORE PUSH32 0x7468616E207A65726F0000000000000000000000000000000000000000000000 PUSH1 0x20 DUP3 ADD MSTORE POP JUMP JUMPDEST PUSH1 0x0 PUSH2 0x3EA6 PUSH1 0x29 DUP4 PUSH2 0x30C2 JUMP JUMPDEST SWAP2 POP PUSH2 0x3EB1 DUP3 PUSH2 0x3E4A JUMP JUMPDEST PUSH1 0x40 DUP3 ADD SWAP1 POP SWAP2 SWAP1 POP JUMP JUMPDEST PUSH1 0x0 PUSH1 0x20 DUP3 ADD SWAP1 POP DUP2 DUP2 SUB PUSH1 0x0 DUP4 ADD MSTORE PUSH2 0x3ED5 DUP2 PUSH2 0x3E99 JUMP JUMPDEST SWAP1 POP SWAP2 SWAP1 POP JUMP JUMPDEST PUSH32 0x53656E64657220697320626C61636B6C69737465640000000000000000000000 PUSH1 0x0 DUP3 ADD MSTORE POP JUMP JUMPDEST PUSH1 0x0 PUSH2 0x3F12 PUSH1 0x15 DUP4 PUSH2 0x30C2 JUMP JUMPDEST SWAP2 POP PUSH2 0x3F1D DUP3 PUSH2 0x3EDC JUMP JUMPDEST PUSH1 0x20 DUP3 ADD SWAP1 POP SWAP2 SWAP1 POP JUMP JUMPDEST PUSH1 0x0 PUSH1 0x20 DUP3 ADD SWAP1 POP DUP2 DUP2 SUB PUSH1 0x0 DUP4 ADD MSTORE PUSH2 0x3F41 DUP2 PUSH2 0x3F05 JUMP JUMPDEST SWAP1 POP SWAP2 SWAP1 POP JUMP JUMPDEST PUSH32 0x526563697069656E7420697320626C61636B6C69737465640000000000000000 PUSH1 0x0 DUP3 ADD MSTORE POP JUMP JUMPDEST PUSH1 0x0 PUSH2 0x3F7E PUSH1 0x18 DUP4 PUSH2 0x30C2 JUMP JUMPDEST SWAP2 POP PUSH2 0x3F89 DUP3 PUSH2 0x3F48 JUMP JUMPDEST PUSH1 0x20 DUP3 ADD SWAP1 POP SWAP2 SWAP1 POP JUMP JUMPDEST PUSH1 0x0 PUSH1 0x20 DUP3 ADD SWAP1 POP DUP2 DUP2 SUB PUSH1 0x0 DUP4 ADD MSTORE PUSH2 0x3FAD DUP2 PUSH2 0x3F71 JUMP JUMPDEST SWAP1 POP SWAP2 SWAP1 POP JUMP JUMPDEST PUSH32 0x54726164696E672069732064697361626C656400000000000000000000000000 PUSH1 0x0 DUP3 ADD MSTORE POP JUMP JUMPDEST PUSH1 0x0 PUSH2 0x3FEA PUSH1 0x13 DUP4 PUSH2 0x30C2 JUMP JUMPDEST SWAP2 POP PUSH2 0x3FF5 DUP3 PUSH2 0x3FB4 JUMP JUMPDEST PUSH1 0x20 DUP3 ADD SWAP1 POP SWAP2 SWAP1 POP JUMP JUMPDEST PUSH1 0x0 PUSH1 0x20 DUP3 ADD SWAP1 POP DUP2 DUP2 SUB PUSH1 0x0 DUP4 ADD MSTORE PUSH2 0x4019 DUP2 PUSH2 0x3FDD JUMP JUMPDEST SWAP1 POP SWAP2 SWAP1 POP JUMP JUMPDEST PUSH32 0x43616E6E6F7420627579206D6F7265207468616E206D6178206C696D69740000 PUSH1 0x0 DUP3 ADD MSTORE POP JUMP JUMPDEST PUSH1 0x0 PUSH2 0x4056 PUSH1 0x1E DUP4 PUSH2 0x30C2 JUMP JUMPDEST SWAP2 POP PUSH2 0x4061 DUP3 PUSH2 0x4020 JUMP JUMPDEST PUSH1 0x20 DUP3 ADD SWAP1 POP SWAP2 SWAP1 POP JUMP JUMPDEST PUSH1 0x0 PUSH1 0x20 DUP3 ADD SWAP1 POP DUP2 DUP2 SUB PUSH1 0x0 DUP4 ADD MSTORE PUSH2 0x4085 DUP2 PUSH2 0x4049 JUMP JUMPDEST SWAP1 POP SWAP2 SWAP1 POP JUMP JUMPDEST PUSH32 0x43616E6E6F742073656C6C206D6F7265207468616E206D6178206C696D697400 PUSH1 0x0 DUP3 ADD MSTORE POP JUMP JUMPDEST PUSH1 0x0 PUSH2 0x40C2 PUSH1 0x1F DUP4 PUSH2 0x30C2 JUMP JUMPDEST SWAP2 POP PUSH2 0x40CD DUP3 PUSH2 0x408C JUMP JUMPDEST PUSH1 0x20 DUP3 ADD SWAP1 POP SWAP2 SWAP1 POP JUMP JUMPDEST PUSH1 0x0 PUSH1 0x20 DUP3 ADD SWAP1 POP DUP2 DUP2 SUB PUSH1 0x0 DUP4 ADD MSTORE PUSH2 0x40F1 DUP2 PUSH2 0x40B5 JUMP JUMPDEST SWAP1 POP SWAP2 SWAP1 POP JUMP JUMPDEST PUSH1 0x0 PUSH2 0x4103 DUP3 PUSH2 0x3173 JUMP JUMPDEST SWAP2 POP PUSH2 0x410E DUP4 PUSH2 0x3173 JUMP JUMPDEST SWAP3 POP DUP3 DUP3 SUB SWAP1 POP DUP2 DUP2 GT ISZERO PUSH2 0x4126 JUMPI PUSH2 0x4125 PUSH2 0x3727 JUMP JUMPDEST JUMPDEST SWAP3 SWAP2 POP POP JUMP JUMPDEST PUSH32 0x45524332303A207472616E7366657220616D6F756E7420657863656564732062 PUSH1 0x0 DUP3 ADD MSTORE PUSH32 0x616C616E63650000000000000000000000000000000000000000000000000000 PUSH1 0x20 DUP3 ADD MSTORE POP JUMP JUMPDEST PUSH1 0x0 PUSH2 0x4188 PUSH1 0x26 DUP4 PUSH2 0x30C2 JUMP JUMPDEST SWAP2 POP PUSH2 0x4193 DUP3 PUSH2 0x412C JUMP JUMPDEST PUSH1 0x40 DUP3 ADD SWAP1 POP SWAP2 SWAP1 POP JUMP JUMPDEST PUSH1 0x0 PUSH1 0x20 DUP3 ADD SWAP1 POP DUP2 DUP2 SUB PUSH1 0x0 DUP4 ADD MSTORE PUSH2 0x41B7 DUP2 PUSH2 0x417B JUMP JUMPDEST SWAP1 POP SWAP2 SWAP1 POP JUMP JUMPDEST PUSH1 0x0 DUP2 SWAP1 POP SWAP3 SWAP2 POP POP JUMP JUMPDEST POP JUMP JUMPDEST PUSH1 0x0 PUSH2 0x41D9 PUSH1 0x0 DUP4 PUSH2 0x41BE JUMP JUMPDEST SWAP2 POP PUSH2 0x41E4 DUP3 PUSH2 0x41C9 JUMP JUMPDEST PUSH1 0x0 DUP3 ADD SWAP1 POP SWAP2 SWAP1 POP JUMP JUMPDEST PUSH1 0x0 PUSH2 0x41FA DUP3 PUSH2 0x41CC JUMP JUMPDEST SWAP2 POP DUP2 SWAP1 POP SWAP2 SWAP1 POP JUMP JUMPDEST PUSH32 0x45524332303A206275726E2066726F6D20746865207A65726F20616464726573 PUSH1 0x0 DUP3 ADD MSTORE PUSH32 0x7300000000000000000000000000000000000000000000000000000000000000 PUSH1 0x20 DUP3 ADD MSTORE POP JUMP JUMPDEST PUSH1 0x0 PUSH2 0x4260 PUSH1 0x21 DUP4 PUSH2 0x30C2 JUMP JUMPDEST SWAP2 POP PUSH2 0x426B DUP3 PUSH2 0x4204 JUMP JUMPDEST PUSH1 0x40 DUP3 ADD SWAP1 POP SWAP2 SWAP1 POP JUMP JUMPDEST PUSH1 0x0 PUSH1 0x20 DUP3 ADD SWAP1 POP DUP2 DUP2 SUB PUSH1 0x0 DUP4 ADD MSTORE PUSH2 0x428F DUP2 PUSH2 0x4253 JUMP JUMPDEST SWAP1 POP SWAP2 SWAP1 POP JUMP JUMPDEST PUSH32 0x45524332303A206275726E20616D6F756E7420657863656564732062616C616E PUSH1 0x0 DUP3 ADD MSTORE PUSH32 0x6365000000000000000000000000000000000000000000000000000000000000 PUSH1 0x20 DUP3 ADD MSTORE POP JUMP JUMPDEST PUSH1 0x0 PUSH2 0x42F2 PUSH1 0x22 DUP4 PUSH2 0x30C2 JUMP JUMPDEST SWAP2 POP PUSH2 0x42FD DUP3 PUSH2 0x4296 JUMP JUMPDEST PUSH1 0x40 DUP3 ADD SWAP1 POP SWAP2 SWAP1 POP JUMP JUMPDEST PUSH1 0x0 PUSH1 0x20 DUP3 ADD SWAP1 POP DUP2 DUP2 SUB PUSH1 0x0 DUP4 ADD MSTORE PUSH2 0x4321 DUP2 PUSH2 0x42E5 JUMP JUMPDEST SWAP1 POP SWAP2 SWAP1 POP JUMP JUMPDEST PUSH32 0x4E487B7100000000000000000000000000000000000000000000000000000000 PUSH1 0x0 MSTORE PUSH1 0x41 PUSH1 0x4 MSTORE PUSH1 0x24 PUSH1 0x0 REVERT JUMPDEST PUSH1 0x0 DUP2 MLOAD SWAP1 POP PUSH2 0x4366 DUP2 PUSH2 0x31D6 JUMP JUMPDEST SWAP3 SWAP2 POP POP JUMP JUMPDEST PUSH1 0x0 PUSH1 0x20 DUP3 DUP5 SUB SLT ISZERO PUSH2 0x4382 JUMPI PUSH2 0x4381 PUSH2 0x3169 JUMP JUMPDEST JUMPDEST PUSH1 0x0 PUSH2 0x4390 DUP5 DUP3 DUP6 ADD PUSH2 0x4357 JUMP JUMPDEST SWAP2 POP POP SWAP3 SWAP2 POP POP JUMP JUMPDEST PUSH1 0x0 DUP2 SWAP1 POP SWAP2 SWAP1 POP JUMP JUMPDEST PUSH1 0x0 PUSH2 0x43BE PUSH2 0x43B9 PUSH2 0x43B4 DUP5 PUSH2 0x4399 JUMP JUMPDEST PUSH2 0x3278 JUMP JUMPDEST PUSH2 0x3173 JUMP JUMPDEST SWAP1 POP SWAP2 SWAP1 POP JUMP JUMPDEST PUSH2 0x43CE DUP2 PUSH2 0x43A3 JUMP JUMPDEST DUP3 MSTORE POP POP JUMP JUMPDEST PUSH1 0x0 DUP2 MLOAD SWAP1 POP SWAP2 SWAP1 POP JUMP JUMPDEST PUSH1 0x0 DUP3 DUP3 MSTORE PUSH1 0x20 DUP3 ADD SWAP1 POP SWAP3 SWAP2 POP POP JUMP JUMPDEST PUSH1 0x0 DUP2 SWAP1 POP PUSH1 0x20 DUP3 ADD SWAP1 POP SWAP2 SWAP1 POP JUMP JUMPDEST PUSH2 0x4409 DUP2 PUSH2 0x307B JUMP JUMPDEST DUP3 MSTORE POP POP JUMP JUMPDEST PUSH1 0x0 PUSH2 0x441B DUP4 DUP4 PUSH2 0x4400 JUMP JUMPDEST PUSH1 0x20 DUP4 ADD SWAP1 POP SWAP3 SWAP2 POP POP JUMP JUMPDEST PUSH1 0x0 PUSH1 0x20 DUP3 ADD SWAP1 POP SWAP2 SWAP1 POP JUMP JUMPDEST PUSH1 0x0 PUSH2 0x443F DUP3 PUSH2 0x43D4 JUMP JUMPDEST PUSH2 0x4449 DUP2 DUP6 PUSH2 0x43DF JUMP JUMPDEST SWAP4 POP PUSH2 0x4454 DUP4 PUSH2 0x43F0 JUMP JUMPDEST DUP1 PUSH1 0x0 JUMPDEST DUP4 DUP2 LT ISZERO PUSH2 0x4485 JUMPI DUP2 MLOAD PUSH2 0x446C DUP9 DUP3 PUSH2 0x440F JUMP JUMPDEST SWAP8 POP PUSH2 0x4477 DUP4 PUSH2 0x4427 JUMP JUMPDEST SWAP3 POP POP PUSH1 0x1 DUP2 ADD SWAP1 POP PUSH2 0x4458 JUMP JUMPDEST POP DUP6 SWAP4 POP POP POP POP SWAP3 SWAP2 POP POP JUMP JUMPDEST PUSH1 0x0 PUSH1 0xA0 DUP3 ADD SWAP1 POP PUSH2 0x44A7 PUSH1 0x0 DUP4 ADD DUP9 PUSH2 0x32F2 JUMP JUMPDEST PUSH2 0x44B4 PUSH1 0x20 DUP4 ADD DUP8 PUSH2 0x43C5 JUMP JUMPDEST DUP2 DUP2 SUB PUSH1 0x40 DUP4 ADD MSTORE PUSH2 0x44C6 DUP2 DUP7 PUSH2 0x4434 JUMP JUMPDEST SWAP1 POP PUSH2 0x44D5 PUSH1 0x60 DUP4 ADD DUP6 PUSH2 0x308D JUMP JUMPDEST PUSH2 0x44E2 PUSH1 0x80 DUP4 ADD DUP5 PUSH2 0x32F2 JUMP JUMPDEST SWAP7 SWAP6 POP POP POP POP POP POP JUMP JUMPDEST PUSH1 0x0 PUSH1 0xC0 DUP3 ADD SWAP1 POP PUSH2 0x4501 PUSH1 0x0 DUP4 ADD DUP10 PUSH2 0x308D JUMP JUMPDEST PUSH2 0x450E PUSH1 0x20 DUP4 ADD DUP9 PUSH2 0x32F2 JUMP JUMPDEST PUSH2 0x451B PUSH1 0x40 DUP4 ADD DUP8 PUSH2 0x43C5 JUMP JUMPDEST PUSH2 0x4528 PUSH1 0x60 DUP4 ADD DUP7 PUSH2 0x43C5 JUMP JUMPDEST PUSH2 0x4535 PUSH1 0x80 DUP4 ADD DUP6 PUSH2 0x308D JUMP JUMPDEST PUSH2 0x4542 PUSH1 0xA0 DUP4 ADD DUP5 PUSH2 0x32F2 JUMP JUMPDEST SWAP8 SWAP7 POP POP POP POP POP POP POP JUMP JUMPDEST PUSH1 0x0 DUP1 PUSH1 0x0 PUSH1 0x60 DUP5 DUP7 SUB SLT ISZERO PUSH2 0x4566 JUMPI PUSH2 0x4565 PUSH2 0x3169 JUMP JUMPDEST JUMPDEST PUSH1 0x0 PUSH2 0x4574 DUP7 DUP3 DUP8 ADD PUSH2 0x3A11 JUMP JUMPDEST SWAP4 POP POP PUSH1 0x20 PUSH2 0x4585 DUP7 DUP3 DUP8 ADD PUSH2 0x3A11 JUMP JUMPDEST SWAP3 POP POP PUSH1 0x40 PUSH2 0x4596 DUP7 DUP3 DUP8 ADD PUSH2 0x3A11 JUMP JUMPDEST SWAP2 POP POP SWAP3 POP SWAP3 POP SWAP3 JUMP INVALID LOG2 PUSH5 0x6970667358 0x22 SLT KECCAK256 0xEF 0xC8 0xA9 DUP8 SLT CALLCODE 0xBA 0xD4 STATICCALL SDIV SDIV 0x4F BYTE PUSH15 0xB47EC993AF5F39BD36A4A20E31B086 0x4A CALLDATASIZE SHR PUSH5 0x736F6C6343 STOP ADDMOD SGT STOP CALLER "
				},
				"gasEstimates": {
					"creation": {
						"codeDepositCost": "3575600",
						"executionCost": "infinite",
						"totalCost": "infinite"
					},
					"external": {
						"": "264",
						"DEAD()": "425",
						"TransferEx(address[],uint256)": "infinite",
						"_burnTaxPercentage()": "2541",
						"_buyTaxPercentage()": "2518",
						"_buyTaxShare()": "2561",
						"_isExcludedFromFee(address)": "2956",
						"_liquidityTaxPercentage()": "2497",
						"_liquidityTaxShare()": "2518",
						"_sellTaxPercentage()": "2519",
						"_sellTaxShare()": "2518",
						"_taxThreshold()": "2585",
						"_totalTaxPercent()": "2475",
						"_uniswapPair()": "2670",
						"allowance(address,address)": "infinite",
						"approve(address,uint256)": "infinite",
						"automatedMarketMakerPairs(address)": "2956",
						"balanceOf(address)": "2953",
						"blacklisted(address)": "2912",
						"decimals()": "477",
						"devWallet()": "2626",
						"enableTrade(bool)": "27010",
						"isTradeEnabled()": "2547",
						"marketingPercent()": "2584",
						"marketingWallet()": "2603",
						"maxAmount()": "2541",
						"name()": "infinite",
						"numBlocksForBlacklist()": "2540",
						"owner()": "2612",
						"recoverETHfromContract()": "infinite",
						"recoverTokensFromContract(address,uint256)": "infinite",
						"renounceOwnership()": "30465",
						"setAutomatedMarketMakerPair(address,bool)": "29616",
						"setBurnTaxPercentage(uint256)": "24876",
						"setBuyTaxPercentage(uint256)": "infinite",
						"setDevWallet(address)": "27067",
						"setExcludedFromFee(address,bool)": "27389",
						"setLiquidityTaxPercentage(uint256)": "infinite",
						"setMarketingPercentage(uint256)": "24900",
						"setMarketingWallet(address)": "27111",
						"setMaxAmount(uint256)": "24830",
						"setNumberOfBlocksForBlacklist(uint256)": "24917",
						"setSellTaxPercentage(uint256)": "infinite",
						"setTaxThreshold(uint256)": "24875",
						"swapEnabled()": "2611",
						"symbol()": "infinite",
						"totalSupply()": "2594",
						"trade_open()": "2604",
						"transfer(address,uint256)": "infinite",
						"transferFrom(address,address,uint256)": "infinite",
						"transferOwnership(address)": "30854",
						"uniswapV2Router()": "infinite"
					},
					"internal": {
						"_approve(address,address,uint256)": "infinite",
						"_burnTokens(address,address,uint256)": "infinite",
						"_calculateTax(uint256,uint256)": "infinite",
						"_setAutomatedMarketMakerPair(address,bool)": "24376",
						"_spendAllowance(address,address,uint256)": "infinite",
						"_transfer(address,address,uint256)": "infinite",
						"_transferTokens(address,address,uint256)": "infinite",
						"addLiquidity(uint256,uint256)": "infinite",
						"swapAndLiquify()": "infinite",
						"swapTokensForEth(uint256)": "infinite"
					}
				},
				"methodIdentifiers": {
					"DEAD()": "03fd2a45",
					"TransferEx(address[],uint256)": "ba414b10",
					"_burnTaxPercentage()": "3048a281",
					"_buyTaxPercentage()": "c410ab5e",
					"_buyTaxShare()": "f7e53337",
					"_isExcludedFromFee(address)": "768dc710",
					"_liquidityTaxPercentage()": "549fb8bf",
					"_liquidityTaxShare()": "dd3a1f76",
					"_sellTaxPercentage()": "a562564a",
					"_sellTaxShare()": "aaa00b99",
					"_taxThreshold()": "67b34e01",
					"_totalTaxPercent()": "7f2e6ccb",
					"_uniswapPair()": "4bf28fd0",
					"allowance(address,address)": "dd62ed3e",
					"approve(address,uint256)": "095ea7b3",
					"automatedMarketMakerPairs(address)": "b62496f5",
					"balanceOf(address)": "70a08231",
					"blacklisted(address)": "dbac26e9",
					"decimals()": "313ce567",
					"devWallet()": "8ea5220f",
					"enableTrade(bool)": "c00f04d1",
					"isTradeEnabled()": "8d38a127",
					"marketingPercent()": "d8020a18",
					"marketingWallet()": "75f0a874",
					"maxAmount()": "5f48f393",
					"name()": "06fdde03",
					"numBlocksForBlacklist()": "c51abc59",
					"owner()": "8da5cb5b",
					"recoverETHfromContract()": "ce831ed5",
					"recoverTokensFromContract(address,uint256)": "e6be4a72",
					"renounceOwnership()": "715018a6",
					"setAutomatedMarketMakerPair(address,bool)": "9a7a23d6",
					"setBurnTaxPercentage(uint256)": "e59602fa",
					"setBuyTaxPercentage(uint256)": "a56d37f9",
					"setDevWallet(address)": "1f53ac02",
					"setExcludedFromFee(address,bool)": "6612e66f",
					"setLiquidityTaxPercentage(uint256)": "6dbff43b",
					"setMarketingPercentage(uint256)": "2d4ed650",
					"setMarketingWallet(address)": "5d098b38",
					"setMaxAmount(uint256)": "4fe47f70",
					"setNumberOfBlocksForBlacklist(uint256)": "b7925f7a",
					"setSellTaxPercentage(uint256)": "9ec4be41",
					"setTaxThreshold(uint256)": "07a212be",
					"swapEnabled()": "6ddd1713",
					"symbol()": "95d89b41",
					"totalSupply()": "18160ddd",
					"trade_open()": "7aab5d9b",
					"transfer(address,uint256)": "a9059cbb",
					"transferFrom(address,address,uint256)": "23b872dd",
					"transferOwnership(address)": "f2fde38b",
					"uniswapV2Router()": "1694505e"
				}
			},
			"storageLayout": {
				"storage": [
					{
						"astId": 26,
						"contract": "t.sol:XYZToken",
						"label": "_owner",
						"offset": 0,
						"slot": "0",
						"type": "t_address"
					},
					{
						"astId": 441,
						"contract": "t.sol:XYZToken",
						"label": "_totalSupply",
						"offset": 0,
						"slot": "1",
						"type": "t_uint256"
					},
					{
						"astId": 451,
						"contract": "t.sol:XYZToken",
						"label": "maxAmount",
						"offset": 0,
						"slot": "2",
						"type": "t_uint256"
					},
					{
						"astId": 455,
						"contract": "t.sol:XYZToken",
						"label": "_balances",
						"offset": 0,
						"slot": "3",
						"type": "t_mapping(t_address,t_uint256)"
					},
					{
						"astId": 461,
						"contract": "t.sol:XYZToken",
						"label": "_allowances",
						"offset": 0,
						"slot": "4",
						"type": "t_mapping(t_address,t_mapping(t_address,t_uint256))"
					},
					{
						"astId": 465,
						"contract": "t.sol:XYZToken",
						"label": "blacklisted",
						"offset": 0,
						"slot": "5",
						"type": "t_mapping(t_address,t_bool)"
					},
					{
						"astId": 469,
						"contract": "t.sol:XYZToken",
						"label": "automatedMarketMakerPairs",
						"offset": 0,
						"slot": "6",
						"type": "t_mapping(t_address,t_bool)"
					},
					{
						"astId": 473,
						"contract": "t.sol:XYZToken",
						"label": "_isExcludedFromFee",
						"offset": 0,
						"slot": "7",
						"type": "t_mapping(t_address,t_bool)"
					},
					{
						"astId": 475,
						"contract": "t.sol:XYZToken",
						"label": "trade_open",
						"offset": 0,
						"slot": "8",
						"type": "t_bool"
					},
					{
						"astId": 477,
						"contract": "t.sol:XYZToken",
						"label": "currentBlockNumber",
						"offset": 0,
						"slot": "9",
						"type": "t_uint256"
					},
					{
						"astId": 480,
						"contract": "t.sol:XYZToken",
						"label": "numBlocksForBlacklist",
						"offset": 0,
						"slot": "10",
						"type": "t_uint256"
					},
					{
						"astId": 482,
						"contract": "t.sol:XYZToken",
						"label": "marketingWallet",
						"offset": 0,
						"slot": "11",
						"type": "t_address"
					},
					{
						"astId": 484,
						"contract": "t.sol:XYZToken",
						"label": "devWallet",
						"offset": 0,
						"slot": "12",
						"type": "t_address"
					},
					{
						"astId": 490,
						"contract": "t.sol:XYZToken",
						"label": "_buyTaxPercentage",
						"offset": 0,
						"slot": "13",
						"type": "t_uint256"
					},
					{
						"astId": 493,
						"contract": "t.sol:XYZToken",
						"label": "_sellTaxPercentage",
						"offset": 0,
						"slot": "14",
						"type": "t_uint256"
					},
					{
						"astId": 496,
						"contract": "t.sol:XYZToken",
						"label": "_liquidityTaxPercentage",
						"offset": 0,
						"slot": "15",
						"type": "t_uint256"
					},
					{
						"astId": 499,
						"contract": "t.sol:XYZToken",
						"label": "_burnTaxPercentage",
						"offset": 0,
						"slot": "16",
						"type": "t_uint256"
					},
					{
						"astId": 502,
						"contract": "t.sol:XYZToken",
						"label": "_buyTaxShare",
						"offset": 0,
						"slot": "17",
						"type": "t_uint256"
					},
					{
						"astId": 505,
						"contract": "t.sol:XYZToken",
						"label": "_sellTaxShare",
						"offset": 0,
						"slot": "18",
						"type": "t_uint256"
					},
					{
						"astId": 508,
						"contract": "t.sol:XYZToken",
						"label": "_liquidityTaxShare",
						"offset": 0,
						"slot": "19",
						"type": "t_uint256"
					},
					{
						"astId": 510,
						"contract": "t.sol:XYZToken",
						"label": "_totalTaxPercent",
						"offset": 0,
						"slot": "20",
						"type": "t_uint256"
					},
					{
						"astId": 513,
						"contract": "t.sol:XYZToken",
						"label": "marketingPercent",
						"offset": 0,
						"slot": "21",
						"type": "t_uint256"
					},
					{
						"astId": 523,
						"contract": "t.sol:XYZToken",
						"label": "_taxThreshold",
						"offset": 0,
						"slot": "22",
						"type": "t_uint256"
					},
					{
						"astId": 526,
						"contract": "t.sol:XYZToken",
						"label": "uniswapV2Router",
						"offset": 0,
						"slot": "23",
						"type": "t_contract(IUniswapV2Router02)420"
					},
					{
						"astId": 528,
						"contract": "t.sol:XYZToken",
						"label": "_uniswapPair",
						"offset": 0,
						"slot": "24",
						"type": "t_address"
					},
					{
						"astId": 530,
						"contract": "t.sol:XYZToken",
						"label": "swapping",
						"offset": 20,
						"slot": "24",
						"type": "t_bool"
					},
					{
						"astId": 533,
						"contract": "t.sol:XYZToken",
						"label": "swapEnabled",
						"offset": 21,
						"slot": "24",
						"type": "t_bool"
					}
				],
				"types": {
					"t_address": {
						"encoding": "inplace",
						"label": "address",
						"numberOfBytes": "20"
					},
					"t_bool": {
						"encoding": "inplace",
						"label": "bool",
						"numberOfBytes": "1"
					},
					"t_contract(IUniswapV2Router02)420": {
						"encoding": "inplace",
						"label": "contract IUniswapV2Router02",
						"numberOfBytes": "20"
					},
					"t_mapping(t_address,t_bool)": {
						"encoding": "mapping",
						"key": "t_address",
						"label": "mapping(address => bool)",
						"numberOfBytes": "32",
						"value": "t_bool"
					},
					"t_mapping(t_address,t_mapping(t_address,t_uint256))": {
						"encoding": "mapping",
						"key": "t_address",
						"label": "mapping(address => mapping(address => uint256))",
						"numberOfBytes": "32",
						"value": "t_mapping(t_address,t_uint256)"
					},
					"t_mapping(t_address,t_uint256)": {
						"encoding": "mapping",
						"key": "t_address",
						"label": "mapping(address => uint256)",
						"numberOfBytes": "32",
						"value": "t_uint256"
					},
					"t_uint256": {
						"encoding": "inplace",
						"label": "uint256",
						"numberOfBytes": "32"
					}
				}
			},
			"userdoc": {
				"kind": "user",
				"methods": {},
				"version": 1
			}
		}
	}
}