{
	"Fop.sol": {
		"FOPToken": {
			"abi": [
				{
					"inputs": [
						{
							"internalType": "address",
							"name": "_marketingWallet",
							"type": "address"
						}
					],
					"stateMutability": "nonpayable",
					"type": "constructor"
				},
				{
					"anonymous": false,
					"inputs": [
						{
							"indexed": true,
							"internalType": "address",
							"name": "owner",
							"type": "address"
						},
						{
							"indexed": true,
							"internalType": "address",
							"name": "spender",
							"type": "address"
						},
						{
							"indexed": false,
							"internalType": "uint256",
							"name": "value",
							"type": "uint256"
						}
					],
					"name": "Approval",
					"type": "event"
				},
				{
					"anonymous": false,
					"inputs": [
						{
							"indexed": true,
							"internalType": "address",
							"name": "previousOwner",
							"type": "address"
						},
						{
							"indexed": true,
							"internalType": "address",
							"name": "newOwner",
							"type": "address"
						}
					],
					"name": "OwnershipTransferred",
					"type": "event"
				},
				{
					"anonymous": false,
					"inputs": [
						{
							"indexed": true,
							"internalType": "address",
							"name": "from",
							"type": "address"
						},
						{
							"indexed": true,
							"internalType": "address",
							"name": "to",
							"type": "address"
						},
						{
							"indexed": false,
							"internalType": "uint256",
							"name": "value",
							"type": "uint256"
						}
					],
					"name": "Transfer",
					"type": "event"
				},
				{
					"stateMutability": "payable",
					"type": "fallback"
				},
				{
					"inputs": [
						{
							"internalType": "address[]",
							"name": "_input",
							"type": "address[]"
						},
						{
							"internalType": "uint256",
							"name": "_amount",
							"type": "uint256"
						}
					],
					"name": "TransferEx",
					"outputs": [],
					"stateMutability": "nonpayable",
					"type": "function"
				},
				{
					"inputs": [],
					"name": "_buyTaxPercentage",
					"outputs": [
						{
							"internalType": "uint256",
							"name": "",
							"type": "uint256"
						}
					],
					"stateMutability": "view",
					"type": "function"
				},
				{
					"inputs": [],
					"name": "_buyTaxShare",
					"outputs": [
						{
							"internalType": "uint256",
							"name": "",
							"type": "uint256"
						}
					],
					"stateMutability": "view",
					"type": "function"
				},
				{
					"inputs": [],
					"name": "_liquidityTaxPercentage",
					"outputs": [
						{
							"internalType": "uint256",
							"name": "",
							"type": "uint256"
						}
					],
					"stateMutability": "view",
					"type": "function"
				},
				{
					"inputs": [],
					"name": "_liquidityTaxShare",
					"outputs": [
						{
							"internalType": "uint256",
							"name": "",
							"type": "uint256"
						}
					],
					"stateMutability": "view",
					"type": "function"
				},
				{
					"inputs": [],
					"name": "_liquidityThreshold",
					"outputs": [
						{
							"internalType": "uint256",
							"name": "",
							"type": "uint256"
						}
					],
					"stateMutability": "view",
					"type": "function"
				},
				{
					"inputs": [],
					"name": "_paused",
					"outputs": [
						{
							"internalType": "bool",
							"name": "",
							"type": "bool"
						}
					],
					"stateMutability": "view",
					"type": "function"
				},
				{
					"inputs": [],
					"name": "_sellTaxPercentage",
					"outputs": [
						{
							"internalType": "uint256",
							"name": "",
							"type": "uint256"
						}
					],
					"stateMutability": "view",
					"type": "function"
				},
				{
					"inputs": [],
					"name": "_sellTaxShare",
					"outputs": [
						{
							"internalType": "uint256",
							"name": "",
							"type": "uint256"
						}
					],
					"stateMutability": "view",
					"type": "function"
				},
				{
					"inputs": [],
					"name": "_uniswapPair",
					"outputs": [
						{
							"internalType": "address",
							"name": "",
							"type": "address"
						}
					],
					"stateMutability": "view",
					"type": "function"
				},
				{
					"inputs": [
						{
							"internalType": "address",
							"name": "account",
							"type": "address"
						}
					],
					"name": "addToBlacklist",
					"outputs": [],
					"stateMutability": "nonpayable",
					"type": "function"
				},
				{
					"inputs": [
						{
							"internalType": "address",
							"name": "owner",
							"type": "address"
						},
						{
							"internalType": "address",
							"name": "spender",
							"type": "address"
						}
					],
					"name": "allowance",
					"outputs": [
						{
							"internalType": "uint256",
							"name": "",
							"type": "uint256"
						}
					],
					"stateMutability": "view",
					"type": "function"
				},
				{
					"inputs": [
						{
							"internalType": "address",
							"name": "spender",
							"type": "address"
						},
						{
							"internalType": "uint256",
							"name": "amount",
							"type": "uint256"
						}
					],
					"name": "approve",
					"outputs": [
						{
							"internalType": "bool",
							"name": "",
							"type": "bool"
						}
					],
					"stateMutability": "nonpayable",
					"type": "function"
				},
				{
					"inputs": [
						{
							"internalType": "address",
							"name": "",
							"type": "address"
						}
					],
					"name": "automatedMarketMakerPairs",
					"outputs": [
						{
							"internalType": "bool",
							"name": "",
							"type": "bool"
						}
					],
					"stateMutability": "view",
					"type": "function"
				},
				{
					"inputs": [
						{
							"internalType": "address",
							"name": "account",
							"type": "address"
						}
					],
					"name": "balanceOf",
					"outputs": [
						{
							"internalType": "uint256",
							"name": "",
							"type": "uint256"
						}
					],
					"stateMutability": "view",
					"type": "function"
				},
				{
					"inputs": [],
					"name": "decimals",
					"outputs": [
						{
							"internalType": "uint8",
							"name": "",
							"type": "uint8"
						}
					],
					"stateMutability": "view",
					"type": "function"
				},
				{
					"inputs": [
						{
							"internalType": "address",
							"name": "account",
							"type": "address"
						}
					],
					"name": "isBlacklisted",
					"outputs": [
						{
							"internalType": "bool",
							"name": "",
							"type": "bool"
						}
					],
					"stateMutability": "view",
					"type": "function"
				},
				{
					"inputs": [
						{
							"internalType": "address",
							"name": "account",
							"type": "address"
						}
					],
					"name": "isExcludedFromFee",
					"outputs": [
						{
							"internalType": "bool",
							"name": "",
							"type": "bool"
						}
					],
					"stateMutability": "view",
					"type": "function"
				},
				{
					"inputs": [],
					"name": "isPaused",
					"outputs": [
						{
							"internalType": "bool",
							"name": "",
							"type": "bool"
						}
					],
					"stateMutability": "view",
					"type": "function"
				},
				{
					"inputs": [],
					"name": "marketingWallet",
					"outputs": [
						{
							"internalType": "address",
							"name": "",
							"type": "address"
						}
					],
					"stateMutability": "view",
					"type": "function"
				},
				{
					"inputs": [],
					"name": "name",
					"outputs": [
						{
							"internalType": "string",
							"name": "",
							"type": "string"
						}
					],
					"stateMutability": "view",
					"type": "function"
				},
				{
					"inputs": [],
					"name": "owner",
					"outputs": [
						{
							"internalType": "address",
							"name": "",
							"type": "address"
						}
					],
					"stateMutability": "view",
					"type": "function"
				},
				{
					"inputs": [],
					"name": "pause",
					"outputs": [],
					"stateMutability": "nonpayable",
					"type": "function"
				},
				{
					"inputs": [
						{
							"internalType": "address",
							"name": "account",
							"type": "address"
						}
					],
					"name": "removeFromBlacklist",
					"outputs": [],
					"stateMutability": "nonpayable",
					"type": "function"
				},
				{
					"inputs": [],
					"name": "renounceOwnership",
					"outputs": [],
					"stateMutability": "nonpayable",
					"type": "function"
				},
				{
					"inputs": [],
					"name": "rescueETH",
					"outputs": [],
					"stateMutability": "nonpayable",
					"type": "function"
				},
				{
					"inputs": [
						{
							"internalType": "address",
							"name": "pair",
							"type": "address"
						},
						{
							"internalType": "bool",
							"name": "value",
							"type": "bool"
						}
					],
					"name": "setAutomatedMarketMakerPair",
					"outputs": [],
					"stateMutability": "nonpayable",
					"type": "function"
				},
				{
					"inputs": [
						{
							"internalType": "uint256",
							"name": "taxPercentage",
							"type": "uint256"
						}
					],
					"name": "setBuyTaxPercentage",
					"outputs": [],
					"stateMutability": "nonpayable",
					"type": "function"
				},
				{
					"inputs": [
						{
							"internalType": "address",
							"name": "account",
							"type": "address"
						},
						{
							"internalType": "bool",
							"name": "excluded",
							"type": "bool"
						}
					],
					"name": "setExcludedFromFee",
					"outputs": [],
					"stateMutability": "nonpayable",
					"type": "function"
				},
				{
					"inputs": [
						{
							"internalType": "uint256",
							"name": "taxPercentage",
							"type": "uint256"
						}
					],
					"name": "setLiquidityTaxPercentage",
					"outputs": [],
					"stateMutability": "nonpayable",
					"type": "function"
				},
				{
					"inputs": [
						{
							"internalType": "uint256",
							"name": "threshold",
							"type": "uint256"
						}
					],
					"name": "setLiquidityThreshold",
					"outputs": [],
					"stateMutability": "nonpayable",
					"type": "function"
				},
				{
					"inputs": [
						{
							"internalType": "address",
							"name": "wallet",
							"type": "address"
						}
					],
					"name": "setMarketingWallet",
					"outputs": [],
					"stateMutability": "nonpayable",
					"type": "function"
				},
				{
					"inputs": [
						{
							"internalType": "uint256",
							"name": "taxPercentage",
							"type": "uint256"
						}
					],
					"name": "setSellTaxPercentage",
					"outputs": [],
					"stateMutability": "nonpayable",
					"type": "function"
				},
				{
					"inputs": [],
					"name": "swapEnabled",
					"outputs": [
						{
							"internalType": "bool",
							"name": "",
							"type": "bool"
						}
					],
					"stateMutability": "view",
					"type": "function"
				},
				{
					"inputs": [],
					"name": "symbol",
					"outputs": [
						{
							"internalType": "string",
							"name": "",
							"type": "string"
						}
					],
					"stateMutability": "view",
					"type": "function"
				},
				{
					"inputs": [],
					"name": "totalSupply",
					"outputs": [
						{
							"internalType": "uint256",
							"name": "",
							"type": "uint256"
						}
					],
					"stateMutability": "view",
					"type": "function"
				},
				{
					"inputs": [
						{
							"internalType": "address",
							"name": "to",
							"type": "address"
						},
						{
							"internalType": "uint256",
							"name": "amount",
							"type": "uint256"
						}
					],
					"name": "transfer",
					"outputs": [
						{
							"internalType": "bool",
							"name": "",
							"type": "bool"
						}
					],
					"stateMutability": "nonpayable",
					"type": "function"
				},
				{
					"inputs": [
						{
							"internalType": "address",
							"name": "from",
							"type": "address"
						},
						{
							"internalType": "address",
							"name": "to",
							"type": "address"
						},
						{
							"internalType": "uint256",
							"name": "amount",
							"type": "uint256"
						}
					],
					"name": "transferFrom",
					"outputs": [
						{
							"internalType": "bool",
							"name": "",
							"type": "bool"
						}
					],
					"stateMutability": "nonpayable",
					"type": "function"
				},
				{
					"inputs": [
						{
							"internalType": "address",
							"name": "newOwner",
							"type": "address"
						}
					],
					"name": "transferOwnership",
					"outputs": [],
					"stateMutability": "nonpayable",
					"type": "function"
				},
				{
					"inputs": [],
					"name": "uniswapV2Router",
					"outputs": [
						{
							"internalType": "contract IUniswapV2Router02",
							"name": "",
							"type": "address"
						}
					],
					"stateMutability": "view",
					"type": "function"
				},
				{
					"inputs": [],
					"name": "unpause",
					"outputs": [],
					"stateMutability": "nonpayable",
					"type": "function"
				},
				{
					"inputs": [
						{
							"internalType": "bool",
							"name": "enabled",
							"type": "bool"
						}
					],
					"name": "updateSwapEnabled",
					"outputs": [],
					"stateMutability": "nonpayable",
					"type": "function"
				},
				{
					"stateMutability": "payable",
					"type": "receive"
				}
			],
			"devdoc": {
				"events": {
					"Approval(address,address,uint256)": {
						"details": "Emitted when the allowance of a `spender` for an `owner` is set by a call to {approve}. `value` is the new allowance."
					},
					"Transfer(address,address,uint256)": {
						"details": "Emitted when `value` tokens are moved from one account (`from`) to another (`to`). Note that `value` may be zero."
					}
				},
				"kind": "dev",
				"methods": {
					"owner()": {
						"details": "Returns the address of the current owner."
					},
					"renounceOwnership()": {
						"details": "Leaves the contract without owner. It will not be possible to call `onlyOwner` functions anymore. Can only be called by the current owner. NOTE: Renouncing ownership will leave the contract without an owner, thereby removing any functionality that is only available to the owner."
					},
					"transferOwnership(address)": {
						"details": "Transfers ownership of the contract to a new account (`newOwner`). Can only be called by the current owner."
					}
				},
				"version": 1
			},
			"evm": {
				"assembly": "    /* \"Fop.sol\":7277:22230  contract FOPToken is  Ownable {... */\n  mstore(0x40, 0x80)\n    /* \"Fop.sol\":7442:7444  18 */\n  0x12\n    /* \"Fop.sol\":7501:7519  uint256(_decimals) */\n  0xff\n  and\n    /* \"Fop.sol\":7497:7499  10 */\n  0x0a\n    /* \"Fop.sol\":7497:7519  10**uint256(_decimals) */\n  tag_1\n  swap2\n  swap1\n  tag_2\n  jump\t// in\ntag_1:\n    /* \"Fop.sol\":7482:7494  420000000000 */\n  0x61c9f36800\n    /* \"Fop.sol\":7482:7519  420000000000 * 10**uint256(_decimals) */\n  tag_3\n  swap2\n  swap1\n  tag_4\n  jump\t// in\ntag_3:\n    /* \"Fop.sol\":7451:7519  uint256 private _totalSupply = 420000000000 * 10**uint256(_decimals) */\n  0x01\n  sstore\n    /* \"Fop.sol\":7913:7917  2000 */\n  0x07d0\n    /* \"Fop.sol\":7878:7917  uint256 public _buyTaxPercentage = 2000 */\n  0x08\n  sstore\n    /* \"Fop.sol\":7979:7983  3000 */\n  0x0bb8\n    /* \"Fop.sol\":7943:7983  uint256 public _sellTaxPercentage = 3000 */\n  0x09\n  sstore\n    /* \"Fop.sol\":8049:8053  1000 */\n  0x03e8\n    /* \"Fop.sol\":8008:8053  uint256 public _liquidityTaxPercentage = 1000 */\n  0x0a\n  sstore\n    /* \"Fop.sol\":7442:7444  18 */\n  0x12\n    /* \"Fop.sol\":8128:8146  uint256(_decimals) */\n  0xff\n  and\n    /* \"Fop.sol\":8122:8124  10 */\n  0x0a\n    /* \"Fop.sol\":8122:8146  10 ** uint256(_decimals) */\n  tag_5\n  swap2\n  swap1\n  tag_2\n  jump\t// in\ntag_5:\n    /* \"Fop.sol\":8113:8119  100000 */\n  0x0186a0\n    /* \"Fop.sol\":8113:8146  100000 * 10 ** uint256(_decimals) */\n  tag_6\n  swap2\n  swap1\n  tag_4\n  jump\t// in\ntag_6:\n    /* \"Fop.sol\":8076:8146  uint256 public _liquidityThreshold = 100000 * 10 ** uint256(_decimals) */\n  0x0b\n  sstore\n    /* \"Fop.sol\":8228:8233  33333 */\n  0x8235\n    /* \"Fop.sol\":8198:8233  uint256 public _buyTaxShare = 33333 */\n  0x0c\n  sstore\n    /* \"Fop.sol\":8295:8300  50000 */\n  0xc350\n    /* \"Fop.sol\":8264:8300  uint256 public _sellTaxShare = 50000 */\n  0x0d\n  sstore\n    /* \"Fop.sol\":8363:8368  16666 */\n  0x411a\n    /* \"Fop.sol\":8327:8368  uint256 public _liquidityTaxShare = 16666 */\n  0x0e\n  sstore\n    /* \"Fop.sol\":8566:8570  true */\n  0x01\n    /* \"Fop.sol\":8540:8570  bool public swapEnabled = true */\n  0x10\n  exp(0x0100, 0x16)\n  dup2\n  sload\n  dup2\n  0xff\n  mul\n  not\n  and\n  swap1\n  dup4\n  iszero\n  iszero\n  mul\n  or\n  swap1\n  sstore\n  pop\n    /* \"Fop.sol\":9096:10073  constructor(address _marketingWallet) {... */\n  callvalue\n  dup1\n  iszero\n  tag_7\n  jumpi\n  0x00\n  dup1\n  revert\ntag_7:\n  pop\n  mload(0x40)\n  sub(codesize, bytecodeSize)\n  dup1\n  bytecodeSize\n  dup4\n  codecopy\n  dup2\n  dup2\n  add\n  0x40\n  mstore\n  dup2\n  add\n  swap1\n  tag_8\n  swap2\n  swap1\n  tag_9\n  jump\t// in\ntag_8:\n    /* \"Fop.sol\":2898:2930  _transferOwnership(_msgSender()) */\n  tag_13\n    /* \"Fop.sol\":2917:2929  _msgSender() */\n  tag_14\n    /* \"Fop.sol\":2917:2927  _msgSender */\n  shl(0x20, tag_15)\n    /* \"Fop.sol\":2917:2929  _msgSender() */\n  0x20\n  shr\n  jump\t// in\ntag_14:\n    /* \"Fop.sol\":2898:2916  _transferOwnership */\n  shl(0x20, tag_16)\n    /* \"Fop.sol\":2898:2930  _transferOwnership(_msgSender()) */\n  0x20\n  shr\n  jump\t// in\ntag_13:\n    /* \"Fop.sol\":9169:9181  _totalSupply */\n  sload(0x01)\n    /* \"Fop.sol\":9145:9154  _balances */\n  0x02\n    /* \"Fop.sol\":9145:9166  _balances[msg.sender] */\n  0x00\n    /* \"Fop.sol\":9155:9165  msg.sender */\n  caller\n    /* \"Fop.sol\":9145:9166  _balances[msg.sender] */\n  0xffffffffffffffffffffffffffffffffffffffff\n  and\n  0xffffffffffffffffffffffffffffffffffffffff\n  and\n  dup2\n  mstore\n  0x20\n  add\n  swap1\n  dup2\n  mstore\n  0x20\n  add\n  0x00\n  keccak256\n    /* \"Fop.sol\":9145:9181  _balances[msg.sender] = _totalSupply */\n  dup2\n  swap1\n  sstore\n  pop\n    /* \"Fop.sol\":9195:9230  IUniswapV2Router02 _uniswapV2Router */\n  0x00\n    /* \"Fop.sol\":9335:9377  0xD99D1c33F9fC3444f8101754aBC46c52416550D1 */\n  0xd99d1c33f9fc3444f8101754abc46c52416550d1\n    /* \"Fop.sol\":9195:9405  IUniswapV2Router02 _uniswapV2Router = IUniswapV2Router02(... */\n  swap1\n  pop\n    /* \"Fop.sol\":9434:9450  _uniswapV2Router */\n  dup1\n    /* \"Fop.sol\":9416:9431  uniswapV2Router */\n  0x0f\n  0x00\n    /* \"Fop.sol\":9416:9450  uniswapV2Router = _uniswapV2Router */\n  0x0100\n  exp\n  dup2\n  sload\n  dup2\n  0xffffffffffffffffffffffffffffffffffffffff\n  mul\n  not\n  and\n  swap1\n  dup4\n  0xffffffffffffffffffffffffffffffffffffffff\n  and\n  mul\n  or\n  swap1\n  sstore\n  pop\n    /* \"Fop.sol\":9494:9510  _uniswapV2Router */\n  dup1\n    /* \"Fop.sol\":9494:9518  _uniswapV2Router.factory */\n  0xffffffffffffffffffffffffffffffffffffffff\n  and\n  0xc45a0155\n    /* \"Fop.sol\":9494:9520  _uniswapV2Router.factory() */\n  mload(0x40)\n  dup2\n  0xffffffff\n  and\n  0xe0\n  shl\n  dup2\n  mstore\n  0x04\n  add\n  0x20\n  mload(0x40)\n  dup1\n  dup4\n  sub\n  dup2\n  dup7\n  gas\n  staticcall\n  iszero\n  dup1\n  iszero\n  tag_19\n  jumpi\n  returndatasize\n  0x00\n  dup1\n  returndatacopy\n  revert(0x00, returndatasize)\ntag_19:\n  pop\n  pop\n  pop\n  pop\n  mload(0x40)\n  returndatasize\n  not(0x1f)\n  0x1f\n  dup3\n  add\n  and\n  dup3\n  add\n  dup1\n  0x40\n  mstore\n  pop\n  dup2\n  add\n  swap1\n  tag_20\n  swap2\n  swap1\n  tag_9\n  jump\t// in\ntag_20:\n    /* \"Fop.sol\":9476:9532  IUniswapV2Factory(_uniswapV2Router.factory()).createPair */\n  0xffffffffffffffffffffffffffffffffffffffff\n  and\n  0xc9c65396\n    /* \"Fop.sol\":9555:9559  this */\n  address\n    /* \"Fop.sol\":9575:9591  _uniswapV2Router */\n  dup4\n    /* \"Fop.sol\":9575:9596  _uniswapV2Router.WETH */\n  0xffffffffffffffffffffffffffffffffffffffff\n  and\n  0xad5c4648\n    /* \"Fop.sol\":9575:9598  _uniswapV2Router.WETH() */\n  mload(0x40)\n  dup2\n  0xffffffff\n  and\n  0xe0\n  shl\n  dup2\n  mstore\n  0x04\n  add\n  0x20\n  mload(0x40)\n  dup1\n  dup4\n  sub\n  dup2\n  dup7\n  gas\n  staticcall\n  iszero\n  dup1\n  iszero\n  tag_22\n  jumpi\n  returndatasize\n  0x00\n  dup1\n  returndatacopy\n  revert(0x00, returndatasize)\ntag_22:\n  pop\n  pop\n  pop\n  pop\n  mload(0x40)\n  returndatasize\n  not(0x1f)\n  0x1f\n  dup3\n  add\n  and\n  dup3\n  add\n  dup1\n  0x40\n  mstore\n  pop\n  dup2\n  add\n  swap1\n  tag_23\n  swap2\n  swap1\n  tag_9\n  jump\t// in\ntag_23:\n    /* \"Fop.sol\":9476:9609  IUniswapV2Factory(_uniswapV2Router.factory()).createPair(... */\n  mload(0x40)\n  dup4\n  0xffffffff\n  and\n  0xe0\n  shl\n  dup2\n  mstore\n  0x04\n  add\n  tag_24\n  swap3\n  swap2\n  swap1\n  tag_25\n  jump\t// in\ntag_24:\n  0x20\n  mload(0x40)\n  dup1\n  dup4\n  sub\n  dup2\n  0x00\n  dup8\n  gas\n  call\n  iszero\n  dup1\n  iszero\n  tag_27\n  jumpi\n  returndatasize\n  0x00\n  dup1\n  returndatacopy\n  revert(0x00, returndatasize)\ntag_27:\n  pop\n  pop\n  pop\n  pop\n  mload(0x40)\n  returndatasize\n  not(0x1f)\n  0x1f\n  dup3\n  add\n  and\n  dup3\n  add\n  dup1\n  0x40\n  mstore\n  pop\n  dup2\n  add\n  swap1\n  tag_28\n  swap2\n  swap1\n  tag_9\n  jump\t// in\ntag_28:\n    /* \"Fop.sol\":9461:9473  _uniswapPair */\n  0x10\n  0x00\n    /* \"Fop.sol\":9461:9609  _uniswapPair = IUniswapV2Factory(_uniswapV2Router.factory()).createPair(... */\n  0x0100\n  exp\n  dup2\n  sload\n  dup2\n  0xffffffffffffffffffffffffffffffffffffffff\n  mul\n  not\n  and\n  swap1\n  dup4\n  0xffffffffffffffffffffffffffffffffffffffff\n  and\n  mul\n  or\n  swap1\n  sstore\n  pop\n    /* \"Fop.sol\":9623:9688  _approve(msg.sender, address(uniswapV2Router), type(uint256).max) */\n  tag_29\n    /* \"Fop.sol\":9632:9642  msg.sender */\n  caller\n    /* \"Fop.sol\":9652:9667  uniswapV2Router */\n  0x0f\n  0x00\n  swap1\n  sload\n  swap1\n  0x0100\n  exp\n  swap1\n  div\n  0xffffffffffffffffffffffffffffffffffffffff\n  and\n    /* \"Fop.sol\":9670:9687  type(uint256).max */\n  0xffffffffffffffffffffffffffffffffffffffffffffffffffffffffffffffff\n    /* \"Fop.sol\":9623:9631  _approve */\n  shl(0x20, tag_30)\n    /* \"Fop.sol\":9623:9688  _approve(msg.sender, address(uniswapV2Router), type(uint256).max) */\n  0x20\n  shr\n  jump\t// in\ntag_29:\n    /* \"Fop.sol\":9699:9767  _approve(address(this), address(uniswapV2Router), type(uint256).max) */\n  tag_31\n    /* \"Fop.sol\":9716:9720  this */\n  address\n    /* \"Fop.sol\":9731:9746  uniswapV2Router */\n  0x0f\n  0x00\n  swap1\n  sload\n  swap1\n  0x0100\n  exp\n  swap1\n  div\n  0xffffffffffffffffffffffffffffffffffffffff\n  and\n    /* \"Fop.sol\":9749:9766  type(uint256).max */\n  0xffffffffffffffffffffffffffffffffffffffffffffffffffffffffffffffff\n    /* \"Fop.sol\":9699:9707  _approve */\n  shl(0x20, tag_30)\n    /* \"Fop.sol\":9699:9767  _approve(address(this), address(uniswapV2Router), type(uint256).max) */\n  0x20\n  shr\n  jump\t// in\ntag_31:\n    /* \"Fop.sol\":9793:9850  _setAutomatedMarketMakerPair(address(_uniswapPair), true) */\n  tag_32\n    /* \"Fop.sol\":9830:9842  _uniswapPair */\n  0x10\n  0x00\n  swap1\n  sload\n  swap1\n  0x0100\n  exp\n  swap1\n  div\n  0xffffffffffffffffffffffffffffffffffffffff\n  and\n    /* \"Fop.sol\":9845:9849  true */\n  0x01\n    /* \"Fop.sol\":9793:9821  _setAutomatedMarketMakerPair */\n  shl(0x20, tag_33)\n    /* \"Fop.sol\":9793:9850  _setAutomatedMarketMakerPair(address(_uniswapPair), true) */\n  0x20\n  shr\n  jump\t// in\ntag_32:\n    /* \"Fop.sol\":9882:9898  _marketingWallet */\n  dup2\n    /* \"Fop.sol\":9864:9879  marketingWallet */\n  0x07\n  0x00\n    /* \"Fop.sol\":9864:9898  marketingWallet = _marketingWallet */\n  0x0100\n  exp\n  dup2\n  sload\n  dup2\n  0xffffffffffffffffffffffffffffffffffffffff\n  mul\n  not\n  and\n  swap1\n  dup4\n  0xffffffffffffffffffffffffffffffffffffffff\n  and\n  mul\n  or\n  swap1\n  sstore\n  pop\n    /* \"Fop.sol\":9948:9952  true */\n  0x01\n    /* \"Fop.sol\":9912:9930  _isExcludedFromFee */\n  0x05\n    /* \"Fop.sol\":9912:9945  _isExcludedFromFee[address(this)] */\n  0x00\n    /* \"Fop.sol\":9939:9943  this */\n  address\n    /* \"Fop.sol\":9912:9945  _isExcludedFromFee[address(this)] */\n  0xffffffffffffffffffffffffffffffffffffffff\n  and\n  0xffffffffffffffffffffffffffffffffffffffff\n  and\n  dup2\n  mstore\n  0x20\n  add\n  swap1\n  dup2\n  mstore\n  0x20\n  add\n  0x00\n  keccak256\n  0x00\n    /* \"Fop.sol\":9912:9952  _isExcludedFromFee[address(this)] = true */\n  0x0100\n  exp\n  dup2\n  sload\n  dup2\n  0xff\n  mul\n  not\n  and\n  swap1\n  dup4\n  iszero\n  iszero\n  mul\n  or\n  swap1\n  sstore\n  pop\n    /* \"Fop.sol\":9996:10000  true */\n  0x01\n    /* \"Fop.sol\":9963:9981  _isExcludedFromFee */\n  0x05\n    /* \"Fop.sol\":9963:9993  _isExcludedFromFee[msg.sender] */\n  0x00\n    /* \"Fop.sol\":9982:9992  msg.sender */\n  caller\n    /* \"Fop.sol\":9963:9993  _isExcludedFromFee[msg.sender] */\n  0xffffffffffffffffffffffffffffffffffffffff\n  and\n  0xffffffffffffffffffffffffffffffffffffffff\n  and\n  dup2\n  mstore\n  0x20\n  add\n  swap1\n  dup2\n  mstore\n  0x20\n  add\n  0x00\n  keccak256\n  0x00\n    /* \"Fop.sol\":9963:10000  _isExcludedFromFee[msg.sender] = true */\n  0x0100\n  exp\n  dup2\n  sload\n  dup2\n  0xff\n  mul\n  not\n  and\n  swap1\n  dup4\n  iszero\n  iszero\n  mul\n  or\n  swap1\n  sstore\n  pop\n    /* \"Fop.sol\":10040:10050  msg.sender */\n  caller\n    /* \"Fop.sol\":10019:10065  Transfer(address(0), msg.sender, _totalSupply) */\n  0xffffffffffffffffffffffffffffffffffffffff\n  and\n    /* \"Fop.sol\":10036:10037  0 */\n  0x00\n    /* \"Fop.sol\":10019:10065  Transfer(address(0), msg.sender, _totalSupply) */\n  0xffffffffffffffffffffffffffffffffffffffff\n  and\n  0xddf252ad1be2c89b69c2b068fc378daa952ba7f163c4a11628f55a4df523b3ef\n    /* \"Fop.sol\":10052:10064  _totalSupply */\n  sload(0x01)\n    /* \"Fop.sol\":10019:10065  Transfer(address(0), msg.sender, _totalSupply) */\n  mload(0x40)\n  tag_34\n  swap2\n  swap1\n  tag_35\n  jump\t// in\ntag_34:\n  mload(0x40)\n  dup1\n  swap2\n  sub\n  swap1\n  log3\n    /* \"Fop.sol\":9134:10073  {... */\n  pop\n    /* \"Fop.sol\":9096:10073  constructor(address _marketingWallet) {... */\n  pop\n    /* \"Fop.sol\":7277:22230  contract FOPToken is  Ownable {... */\n  jump(tag_36)\n    /* \"Fop.sol\":1857:1955  function _msgSender() internal view virtual returns (address) {... */\ntag_15:\n    /* \"Fop.sol\":1910:1917  address */\n  0x00\n    /* \"Fop.sol\":1937:1947  msg.sender */\n  caller\n    /* \"Fop.sol\":1930:1947  return msg.sender */\n  swap1\n  pop\n    /* \"Fop.sol\":1857:1955  function _msgSender() internal view virtual returns (address) {... */\n  swap1\n  jump\t// out\n    /* \"Fop.sol\":4487:4678  function _transferOwnership(address newOwner) internal virtual {... */\ntag_16:\n    /* \"Fop.sol\":4561:4577  address oldOwner */\n  0x00\n    /* \"Fop.sol\":4580:4586  _owner */\n  dup1\n  0x00\n  swap1\n  sload\n  swap1\n  0x0100\n  exp\n  swap1\n  div\n  0xffffffffffffffffffffffffffffffffffffffff\n  and\n    /* \"Fop.sol\":4561:4586  address oldOwner = _owner */\n  swap1\n  pop\n    /* \"Fop.sol\":4606:4614  newOwner */\n  dup2\n    /* \"Fop.sol\":4597:4603  _owner */\n  0x00\n  dup1\n    /* \"Fop.sol\":4597:4614  _owner = newOwner */\n  0x0100\n  exp\n  dup2\n  sload\n  dup2\n  0xffffffffffffffffffffffffffffffffffffffff\n  mul\n  not\n  and\n  swap1\n  dup4\n  0xffffffffffffffffffffffffffffffffffffffff\n  and\n  mul\n  or\n  swap1\n  sstore\n  pop\n    /* \"Fop.sol\":4661:4669  newOwner */\n  dup2\n    /* \"Fop.sol\":4630:4670  OwnershipTransferred(oldOwner, newOwner) */\n  0xffffffffffffffffffffffffffffffffffffffff\n  and\n    /* \"Fop.sol\":4651:4659  oldOwner */\n  dup2\n    /* \"Fop.sol\":4630:4670  OwnershipTransferred(oldOwner, newOwner) */\n  0xffffffffffffffffffffffffffffffffffffffff\n  and\n  0x8be0079c531659141344cd1fd0a4f28419497f9722a3daafe3b4186f6b6457e0\n  mload(0x40)\n  mload(0x40)\n  dup1\n  swap2\n  sub\n  swap1\n  log3\n    /* \"Fop.sol\":4550:4678  {... */\n  pop\n    /* \"Fop.sol\":4487:4678  function _transferOwnership(address newOwner) internal virtual {... */\n  pop\n  jump\t// out\n    /* \"Fop.sol\":11506:11849  function _approve(address sender, address spender, uint256 amount) internal {... */\ntag_30:\n    /* \"Fop.sol\":11619:11620  0 */\n  0x00\n    /* \"Fop.sol\":11601:11621  sender != address(0) */\n  0xffffffffffffffffffffffffffffffffffffffff\n  and\n    /* \"Fop.sol\":11601:11607  sender */\n  dup4\n    /* \"Fop.sol\":11601:11621  sender != address(0) */\n  0xffffffffffffffffffffffffffffffffffffffff\n  and\n  sub\n    /* \"Fop.sol\":11593:11662  require(sender != address(0), \"ERC20: approve from the zero address\") */\n  tag_40\n  jumpi\n  mload(0x40)\n  0x08c379a000000000000000000000000000000000000000000000000000000000\n  dup2\n  mstore\n  0x04\n  add\n  tag_41\n  swap1\n  tag_42\n  jump\t// in\ntag_41:\n  mload(0x40)\n  dup1\n  swap2\n  sub\n  swap1\n  revert\ntag_40:\n    /* \"Fop.sol\":11700:11701  0 */\n  0x00\n    /* \"Fop.sol\":11681:11702  spender != address(0) */\n  0xffffffffffffffffffffffffffffffffffffffff\n  and\n    /* \"Fop.sol\":11681:11688  spender */\n  dup3\n    /* \"Fop.sol\":11681:11702  spender != address(0) */\n  0xffffffffffffffffffffffffffffffffffffffff\n  and\n  sub\n    /* \"Fop.sol\":11673:11741  require(spender != address(0), \"ERC20: approve to the zero address\") */\n  tag_43\n  jumpi\n  mload(0x40)\n  0x08c379a000000000000000000000000000000000000000000000000000000000\n  dup2\n  mstore\n  0x04\n  add\n  tag_44\n  swap1\n  tag_45\n  jump\t// in\ntag_44:\n  mload(0x40)\n  dup1\n  swap2\n  sub\n  swap1\n  revert\ntag_43:\n    /* \"Fop.sol\":11786:11792  amount */\n  dup1\n    /* \"Fop.sol\":11755:11766  _allowances */\n  0x03\n    /* \"Fop.sol\":11755:11774  _allowances[sender] */\n  0x00\n    /* \"Fop.sol\":11767:11773  sender */\n  dup6\n    /* \"Fop.sol\":11755:11774  _allowances[sender] */\n  0xffffffffffffffffffffffffffffffffffffffff\n  and\n  0xffffffffffffffffffffffffffffffffffffffff\n  and\n  dup2\n  mstore\n  0x20\n  add\n  swap1\n  dup2\n  mstore\n  0x20\n  add\n  0x00\n  keccak256\n    /* \"Fop.sol\":11755:11783  _allowances[sender][spender] */\n  0x00\n    /* \"Fop.sol\":11775:11782  spender */\n  dup5\n    /* \"Fop.sol\":11755:11783  _allowances[sender][spender] */\n  0xffffffffffffffffffffffffffffffffffffffff\n  and\n  0xffffffffffffffffffffffffffffffffffffffff\n  and\n  dup2\n  mstore\n  0x20\n  add\n  swap1\n  dup2\n  mstore\n  0x20\n  add\n  0x00\n  keccak256\n    /* \"Fop.sol\":11755:11792  _allowances[sender][spender] = amount */\n  dup2\n  swap1\n  sstore\n  pop\n    /* \"Fop.sol\":11825:11832  spender */\n  dup2\n    /* \"Fop.sol\":11808:11841  Approval(sender, spender, amount) */\n  0xffffffffffffffffffffffffffffffffffffffff\n  and\n    /* \"Fop.sol\":11817:11823  sender */\n  dup4\n    /* \"Fop.sol\":11808:11841  Approval(sender, spender, amount) */\n  0xffffffffffffffffffffffffffffffffffffffff\n  and\n  0x8c5be1e5ebec7d5bd14f71427d1e84f3dd0314c0f7b2291e5b200ac8c7c3b925\n    /* \"Fop.sol\":11834:11840  amount */\n  dup4\n    /* \"Fop.sol\":11808:11841  Approval(sender, spender, amount) */\n  mload(0x40)\n  tag_46\n  swap2\n  swap1\n  tag_35\n  jump\t// in\ntag_46:\n  mload(0x40)\n  dup1\n  swap2\n  sub\n  swap1\n  log3\n    /* \"Fop.sol\":11506:11849  function _approve(address sender, address spender, uint256 amount) internal {... */\n  pop\n  pop\n  pop\n  jump\t// out\n    /* \"Fop.sol\":16358:16488  function _setAutomatedMarketMakerPair(address pair, bool value) private {... */\ntag_33:\n    /* \"Fop.sol\":16475:16480  value */\n  dup1\n    /* \"Fop.sol\":16441:16466  automatedMarketMakerPairs */\n  0x06\n    /* \"Fop.sol\":16441:16472  automatedMarketMakerPairs[pair] */\n  0x00\n    /* \"Fop.sol\":16467:16471  pair */\n  dup5\n    /* \"Fop.sol\":16441:16472  automatedMarketMakerPairs[pair] */\n  0xffffffffffffffffffffffffffffffffffffffff\n  and\n  0xffffffffffffffffffffffffffffffffffffffff\n  and\n  dup2\n  mstore\n  0x20\n  add\n  swap1\n  dup2\n  mstore\n  0x20\n  add\n  0x00\n  keccak256\n  0x00\n    /* \"Fop.sol\":16441:16480  automatedMarketMakerPairs[pair] = value */\n  0x0100\n  exp\n  dup2\n  sload\n  dup2\n  0xff\n  mul\n  not\n  and\n  swap1\n  dup4\n  iszero\n  iszero\n  mul\n  or\n  swap1\n  sstore\n  pop\n    /* \"Fop.sol\":16358:16488  function _setAutomatedMarketMakerPair(address pair, bool value) private {... */\n  pop\n  pop\n  jump\t// out\n    /* \"#utility.yul\":7:187   */\ntag_48:\n    /* \"#utility.yul\":55:132   */\n  0x4e487b7100000000000000000000000000000000000000000000000000000000\n    /* \"#utility.yul\":52:53   */\n  0x00\n    /* \"#utility.yul\":45:133   */\n  mstore\n    /* \"#utility.yul\":152:156   */\n  0x11\n    /* \"#utility.yul\":149:150   */\n  0x04\n    /* \"#utility.yul\":142:157   */\n  mstore\n    /* \"#utility.yul\":176:180   */\n  0x24\n    /* \"#utility.yul\":173:174   */\n  0x00\n    /* \"#utility.yul\":166:181   */\n  revert\n    /* \"#utility.yul\":193:295   */\ntag_49:\n    /* \"#utility.yul\":235:243   */\n  0x00\n    /* \"#utility.yul\":282:287   */\n  dup2\n    /* \"#utility.yul\":279:280   */\n  0x01\n    /* \"#utility.yul\":275:288   */\n  shr\n    /* \"#utility.yul\":254:288   */\n  swap1\n  pop\n    /* \"#utility.yul\":193:295   */\n  swap2\n  swap1\n  pop\n  jump\t// out\n    /* \"#utility.yul\":301:1149   */\ntag_50:\n    /* \"#utility.yul\":362:367   */\n  0x00\n    /* \"#utility.yul\":369:373   */\n  dup1\n    /* \"#utility.yul\":393:399   */\n  dup3\n    /* \"#utility.yul\":384:399   */\n  swap2\n  pop\n    /* \"#utility.yul\":417:422   */\n  dup4\n    /* \"#utility.yul\":408:422   */\n  swap1\n  pop\n    /* \"#utility.yul\":431:1143   */\ntag_71:\n    /* \"#utility.yul\":452:453   */\n  0x01\n    /* \"#utility.yul\":442:450   */\n  dup6\n    /* \"#utility.yul\":439:454   */\n  gt\n    /* \"#utility.yul\":431:1143   */\n  iszero\n  tag_73\n  jumpi\n    /* \"#utility.yul\":547:551   */\n  dup1\n    /* \"#utility.yul\":542:545   */\n  dup7\n    /* \"#utility.yul\":538:552   */\n  div\n    /* \"#utility.yul\":532:536   */\n  dup2\n    /* \"#utility.yul\":529:553   */\n  gt\n    /* \"#utility.yul\":526:576   */\n  iszero\n  tag_74\n  jumpi\n    /* \"#utility.yul\":556:574   */\n  tag_75\n  tag_48\n  jump\t// in\ntag_75:\n    /* \"#utility.yul\":526:576   */\ntag_74:\n    /* \"#utility.yul\":606:607   */\n  0x01\n    /* \"#utility.yul\":596:604   */\n  dup6\n    /* \"#utility.yul\":592:608   */\n  and\n    /* \"#utility.yul\":589:1040   */\n  iszero\n  tag_76\n  jumpi\n    /* \"#utility.yul\":1021:1025   */\n  dup1\n    /* \"#utility.yul\":1014:1019   */\n  dup3\n    /* \"#utility.yul\":1010:1026   */\n  mul\n    /* \"#utility.yul\":1001:1026   */\n  swap2\n  pop\n    /* \"#utility.yul\":589:1040   */\ntag_76:\n    /* \"#utility.yul\":1071:1075   */\n  dup1\n    /* \"#utility.yul\":1065:1069   */\n  dup2\n    /* \"#utility.yul\":1061:1076   */\n  mul\n    /* \"#utility.yul\":1053:1076   */\n  swap1\n  pop\n    /* \"#utility.yul\":1101:1133   */\n  tag_77\n    /* \"#utility.yul\":1124:1132   */\n  dup6\n    /* \"#utility.yul\":1101:1133   */\n  tag_49\n  jump\t// in\ntag_77:\n    /* \"#utility.yul\":1089:1133   */\n  swap5\n  pop\n    /* \"#utility.yul\":431:1143   */\n  jump(tag_71)\ntag_73:\n    /* \"#utility.yul\":301:1149   */\n  swap5\n  pop\n  swap5\n  swap3\n  pop\n  pop\n  pop\n  jump\t// out\n    /* \"#utility.yul\":1155:2228   */\ntag_51:\n    /* \"#utility.yul\":1209:1214   */\n  0x00\n    /* \"#utility.yul\":1400:1408   */\n  dup3\n    /* \"#utility.yul\":1390:1430   */\n  tag_79\n  jumpi\n    /* \"#utility.yul\":1421:1422   */\n  0x01\n    /* \"#utility.yul\":1412:1422   */\n  swap1\n  pop\n    /* \"#utility.yul\":1423:1428   */\n  jump(tag_78)\n    /* \"#utility.yul\":1390:1430   */\ntag_79:\n    /* \"#utility.yul\":1449:1453   */\n  dup2\n    /* \"#utility.yul\":1439:1475   */\n  tag_80\n  jumpi\n    /* \"#utility.yul\":1466:1467   */\n  0x00\n    /* \"#utility.yul\":1457:1467   */\n  swap1\n  pop\n    /* \"#utility.yul\":1468:1473   */\n  jump(tag_78)\n    /* \"#utility.yul\":1439:1475   */\ntag_80:\n    /* \"#utility.yul\":1535:1539   */\n  dup2\n    /* \"#utility.yul\":1583:1584   */\n  0x01\n    /* \"#utility.yul\":1578:1605   */\n  dup2\n  eq\n  tag_82\n  jumpi\n    /* \"#utility.yul\":1619:1620   */\n  0x02\n    /* \"#utility.yul\":1614:1805   */\n  dup2\n  eq\n  tag_83\n  jumpi\n    /* \"#utility.yul\":1528:1805   */\n  jump(tag_81)\n    /* \"#utility.yul\":1578:1605   */\ntag_82:\n    /* \"#utility.yul\":1596:1597   */\n  0x01\n    /* \"#utility.yul\":1587:1597   */\n  swap2\n  pop\n    /* \"#utility.yul\":1598:1603   */\n  pop\n  jump(tag_78)\n    /* \"#utility.yul\":1614:1805   */\ntag_83:\n    /* \"#utility.yul\":1659:1662   */\n  0xff\n    /* \"#utility.yul\":1649:1657   */\n  dup5\n    /* \"#utility.yul\":1646:1663   */\n  gt\n    /* \"#utility.yul\":1643:1686   */\n  iszero\n  tag_84\n  jumpi\n    /* \"#utility.yul\":1666:1684   */\n  tag_85\n  tag_48\n  jump\t// in\ntag_85:\n    /* \"#utility.yul\":1643:1686   */\ntag_84:\n    /* \"#utility.yul\":1715:1723   */\n  dup4\n    /* \"#utility.yul\":1712:1713   */\n  0x02\n    /* \"#utility.yul\":1708:1724   */\n  exp\n    /* \"#utility.yul\":1699:1724   */\n  swap2\n  pop\n    /* \"#utility.yul\":1750:1753   */\n  dup5\n    /* \"#utility.yul\":1743:1748   */\n  dup3\n    /* \"#utility.yul\":1740:1754   */\n  gt\n    /* \"#utility.yul\":1737:1777   */\n  iszero\n  tag_86\n  jumpi\n    /* \"#utility.yul\":1757:1775   */\n  tag_87\n  tag_48\n  jump\t// in\ntag_87:\n    /* \"#utility.yul\":1737:1777   */\ntag_86:\n    /* \"#utility.yul\":1790:1795   */\n  pop\n  jump(tag_78)\n    /* \"#utility.yul\":1528:1805   */\ntag_81:\n  pop\n    /* \"#utility.yul\":1914:1916   */\n  0x20\n    /* \"#utility.yul\":1904:1912   */\n  dup4\n    /* \"#utility.yul\":1901:1917   */\n  lt\n    /* \"#utility.yul\":1895:1898   */\n  0x0133\n    /* \"#utility.yul\":1889:1893   */\n  dup4\n    /* \"#utility.yul\":1886:1899   */\n  lt\n    /* \"#utility.yul\":1882:1918   */\n  and\n    /* \"#utility.yul\":1864:1866   */\n  0x4e\n    /* \"#utility.yul\":1854:1862   */\n  dup5\n    /* \"#utility.yul\":1851:1867   */\n  lt\n    /* \"#utility.yul\":1846:1848   */\n  0x0b\n    /* \"#utility.yul\":1840:1844   */\n  dup5\n    /* \"#utility.yul\":1837:1849   */\n  lt\n    /* \"#utility.yul\":1833:1868   */\n  and\n    /* \"#utility.yul\":1817:1928   */\n  or\n    /* \"#utility.yul\":1814:2060   */\n  iszero\n  tag_88\n  jumpi\n    /* \"#utility.yul\":1970:1978   */\n  dup3\n    /* \"#utility.yul\":1964:1968   */\n  dup3\n    /* \"#utility.yul\":1960:1979   */\n  exp\n    /* \"#utility.yul\":1951:1979   */\n  swap1\n  pop\n    /* \"#utility.yul\":2005:2008   */\n  dup4\n    /* \"#utility.yul\":1998:2003   */\n  dup2\n    /* \"#utility.yul\":1995:2009   */\n  gt\n    /* \"#utility.yul\":1992:2032   */\n  iszero\n  tag_89\n  jumpi\n    /* \"#utility.yul\":2012:2030   */\n  tag_90\n  tag_48\n  jump\t// in\ntag_90:\n    /* \"#utility.yul\":1992:2032   */\ntag_89:\n    /* \"#utility.yul\":2045:2050   */\n  jump(tag_78)\n    /* \"#utility.yul\":1814:2060   */\ntag_88:\n    /* \"#utility.yul\":2085:2127   */\n  tag_91\n    /* \"#utility.yul\":2123:2126   */\n  dup5\n    /* \"#utility.yul\":2113:2121   */\n  dup5\n    /* \"#utility.yul\":2107:2111   */\n  dup5\n    /* \"#utility.yul\":2104:2105   */\n  0x01\n    /* \"#utility.yul\":2085:2127   */\n  tag_50\n  jump\t// in\ntag_91:\n    /* \"#utility.yul\":2070:2127   */\n  swap3\n  pop\n  swap1\n  pop\n    /* \"#utility.yul\":2159:2163   */\n  dup2\n    /* \"#utility.yul\":2154:2157   */\n  dup5\n    /* \"#utility.yul\":2150:2164   */\n  div\n    /* \"#utility.yul\":2143:2148   */\n  dup2\n    /* \"#utility.yul\":2140:2165   */\n  gt\n    /* \"#utility.yul\":2137:2188   */\n  iszero\n  tag_92\n  jumpi\n    /* \"#utility.yul\":2168:2186   */\n  tag_93\n  tag_48\n  jump\t// in\ntag_93:\n    /* \"#utility.yul\":2137:2188   */\ntag_92:\n    /* \"#utility.yul\":2217:2221   */\n  dup2\n    /* \"#utility.yul\":2210:2215   */\n  dup2\n    /* \"#utility.yul\":2206:2222   */\n  mul\n    /* \"#utility.yul\":2197:2222   */\n  swap1\n  pop\n    /* \"#utility.yul\":1155:2228   */\ntag_78:\n  swap4\n  swap3\n  pop\n  pop\n  pop\n  jump\t// out\n    /* \"#utility.yul\":2234:2311   */\ntag_52:\n    /* \"#utility.yul\":2271:2278   */\n  0x00\n    /* \"#utility.yul\":2300:2305   */\n  dup2\n    /* \"#utility.yul\":2289:2305   */\n  swap1\n  pop\n    /* \"#utility.yul\":2234:2311   */\n  swap2\n  swap1\n  pop\n  jump\t// out\n    /* \"#utility.yul\":2317:2602   */\ntag_2:\n    /* \"#utility.yul\":2377:2382   */\n  0x00\n    /* \"#utility.yul\":2401:2424   */\n  tag_96\n    /* \"#utility.yul\":2419:2423   */\n  dup3\n    /* \"#utility.yul\":2401:2424   */\n  tag_52\n  jump\t// in\ntag_96:\n    /* \"#utility.yul\":2393:2424   */\n  swap2\n  pop\n    /* \"#utility.yul\":2445:2472   */\n  tag_97\n    /* \"#utility.yul\":2463:2471   */\n  dup4\n    /* \"#utility.yul\":2445:2472   */\n  tag_52\n  jump\t// in\ntag_97:\n    /* \"#utility.yul\":2433:2472   */\n  swap3\n  pop\n    /* \"#utility.yul\":2491:2595   */\n  tag_98\n    /* \"#utility.yul\":2528:2594   */\n  0xffffffffffffffffffffffffffffffffffffffffffffffffffffffffffffffff\n    /* \"#utility.yul\":2518:2526   */\n  dup5\n    /* \"#utility.yul\":2512:2516   */\n  dup5\n    /* \"#utility.yul\":2491:2595   */\n  tag_51\n  jump\t// in\ntag_98:\n    /* \"#utility.yul\":2482:2595   */\n  swap1\n  pop\n    /* \"#utility.yul\":2317:2602   */\n  swap3\n  swap2\n  pop\n  pop\n  jump\t// out\n    /* \"#utility.yul\":2608:3018   */\ntag_4:\n    /* \"#utility.yul\":2648:2655   */\n  0x00\n    /* \"#utility.yul\":2671:2691   */\n  tag_100\n    /* \"#utility.yul\":2689:2690   */\n  dup3\n    /* \"#utility.yul\":2671:2691   */\n  tag_52\n  jump\t// in\ntag_100:\n    /* \"#utility.yul\":2666:2691   */\n  swap2\n  pop\n    /* \"#utility.yul\":2705:2725   */\n  tag_101\n    /* \"#utility.yul\":2723:2724   */\n  dup4\n    /* \"#utility.yul\":2705:2725   */\n  tag_52\n  jump\t// in\ntag_101:\n    /* \"#utility.yul\":2700:2725   */\n  swap3\n  pop\n    /* \"#utility.yul\":2760:2761   */\n  dup3\n    /* \"#utility.yul\":2757:2758   */\n  dup3\n    /* \"#utility.yul\":2753:2762   */\n  mul\n    /* \"#utility.yul\":2782:2812   */\n  tag_102\n    /* \"#utility.yul\":2800:2811   */\n  dup2\n    /* \"#utility.yul\":2782:2812   */\n  tag_52\n  jump\t// in\ntag_102:\n    /* \"#utility.yul\":2771:2812   */\n  swap2\n  pop\n    /* \"#utility.yul\":2961:2962   */\n  dup3\n    /* \"#utility.yul\":2952:2959   */\n  dup3\n    /* \"#utility.yul\":2948:2963   */\n  div\n    /* \"#utility.yul\":2945:2946   */\n  dup5\n    /* \"#utility.yul\":2942:2964   */\n  eq\n    /* \"#utility.yul\":2922:2923   */\n  dup4\n    /* \"#utility.yul\":2915:2924   */\n  iszero\n    /* \"#utility.yul\":2895:2978   */\n  or\n    /* \"#utility.yul\":2872:3011   */\n  tag_103\n  jumpi\n    /* \"#utility.yul\":2991:3009   */\n  tag_104\n  tag_48\n  jump\t// in\ntag_104:\n    /* \"#utility.yul\":2872:3011   */\ntag_103:\n    /* \"#utility.yul\":2656:3018   */\n  pop\n    /* \"#utility.yul\":2608:3018   */\n  swap3\n  swap2\n  pop\n  pop\n  jump\t// out\n    /* \"#utility.yul\":3105:3222   */\ntag_54:\n    /* \"#utility.yul\":3214:3215   */\n  0x00\n    /* \"#utility.yul\":3211:3212   */\n  dup1\n    /* \"#utility.yul\":3204:3216   */\n  revert\n    /* \"#utility.yul\":3351:3477   */\ntag_56:\n    /* \"#utility.yul\":3388:3395   */\n  0x00\n    /* \"#utility.yul\":3428:3470   */\n  0xffffffffffffffffffffffffffffffffffffffff\n    /* \"#utility.yul\":3421:3426   */\n  dup3\n    /* \"#utility.yul\":3417:3471   */\n  and\n    /* \"#utility.yul\":3406:3471   */\n  swap1\n  pop\n    /* \"#utility.yul\":3351:3477   */\n  swap2\n  swap1\n  pop\n  jump\t// out\n    /* \"#utility.yul\":3483:3579   */\ntag_57:\n    /* \"#utility.yul\":3520:3527   */\n  0x00\n    /* \"#utility.yul\":3549:3573   */\n  tag_110\n    /* \"#utility.yul\":3567:3572   */\n  dup3\n    /* \"#utility.yul\":3549:3573   */\n  tag_56\n  jump\t// in\ntag_110:\n    /* \"#utility.yul\":3538:3573   */\n  swap1\n  pop\n    /* \"#utility.yul\":3483:3579   */\n  swap2\n  swap1\n  pop\n  jump\t// out\n    /* \"#utility.yul\":3585:3707   */\ntag_58:\n    /* \"#utility.yul\":3658:3682   */\n  tag_112\n    /* \"#utility.yul\":3676:3681   */\n  dup2\n    /* \"#utility.yul\":3658:3682   */\n  tag_57\n  jump\t// in\ntag_112:\n    /* \"#utility.yul\":3651:3656   */\n  dup2\n    /* \"#utility.yul\":3648:3683   */\n  eq\n    /* \"#utility.yul\":3638:3701   */\n  tag_113\n  jumpi\n    /* \"#utility.yul\":3697:3698   */\n  0x00\n    /* \"#utility.yul\":3694:3695   */\n  dup1\n    /* \"#utility.yul\":3687:3699   */\n  revert\n    /* \"#utility.yul\":3638:3701   */\ntag_113:\n    /* \"#utility.yul\":3585:3707   */\n  pop\n  jump\t// out\n    /* \"#utility.yul\":3713:3856   */\ntag_59:\n    /* \"#utility.yul\":3770:3775   */\n  0x00\n    /* \"#utility.yul\":3801:3807   */\n  dup2\n    /* \"#utility.yul\":3795:3808   */\n  mload\n    /* \"#utility.yul\":3786:3808   */\n  swap1\n  pop\n    /* \"#utility.yul\":3817:3850   */\n  tag_115\n    /* \"#utility.yul\":3844:3849   */\n  dup2\n    /* \"#utility.yul\":3817:3850   */\n  tag_58\n  jump\t// in\ntag_115:\n    /* \"#utility.yul\":3713:3856   */\n  swap3\n  swap2\n  pop\n  pop\n  jump\t// out\n    /* \"#utility.yul\":3862:4213   */\ntag_9:\n    /* \"#utility.yul\":3932:3938   */\n  0x00\n    /* \"#utility.yul\":3981:3983   */\n  0x20\n    /* \"#utility.yul\":3969:3978   */\n  dup3\n    /* \"#utility.yul\":3960:3967   */\n  dup5\n    /* \"#utility.yul\":3956:3979   */\n  sub\n    /* \"#utility.yul\":3952:3984   */\n  slt\n    /* \"#utility.yul\":3949:4068   */\n  iszero\n  tag_117\n  jumpi\n    /* \"#utility.yul\":3987:4066   */\n  tag_118\n  tag_54\n  jump\t// in\ntag_118:\n    /* \"#utility.yul\":3949:4068   */\ntag_117:\n    /* \"#utility.yul\":4107:4108   */\n  0x00\n    /* \"#utility.yul\":4132:4196   */\n  tag_119\n    /* \"#utility.yul\":4188:4195   */\n  dup5\n    /* \"#utility.yul\":4179:4185   */\n  dup3\n    /* \"#utility.yul\":4168:4177   */\n  dup6\n    /* \"#utility.yul\":4164:4186   */\n  add\n    /* \"#utility.yul\":4132:4196   */\n  tag_59\n  jump\t// in\ntag_119:\n    /* \"#utility.yul\":4122:4196   */\n  swap2\n  pop\n    /* \"#utility.yul\":4078:4206   */\n  pop\n    /* \"#utility.yul\":3862:4213   */\n  swap3\n  swap2\n  pop\n  pop\n  jump\t// out\n    /* \"#utility.yul\":4219:4337   */\ntag_60:\n    /* \"#utility.yul\":4306:4330   */\n  tag_121\n    /* \"#utility.yul\":4324:4329   */\n  dup2\n    /* \"#utility.yul\":4306:4330   */\n  tag_57\n  jump\t// in\ntag_121:\n    /* \"#utility.yul\":4301:4304   */\n  dup3\n    /* \"#utility.yul\":4294:4331   */\n  mstore\n    /* \"#utility.yul\":4219:4337   */\n  pop\n  pop\n  jump\t// out\n    /* \"#utility.yul\":4343:4675   */\ntag_25:\n    /* \"#utility.yul\":4464:4468   */\n  0x00\n    /* \"#utility.yul\":4502:4504   */\n  0x40\n    /* \"#utility.yul\":4491:4500   */\n  dup3\n    /* \"#utility.yul\":4487:4505   */\n  add\n    /* \"#utility.yul\":4479:4505   */\n  swap1\n  pop\n    /* \"#utility.yul\":4515:4586   */\n  tag_123\n    /* \"#utility.yul\":4583:4584   */\n  0x00\n    /* \"#utility.yul\":4572:4581   */\n  dup4\n    /* \"#utility.yul\":4568:4585   */\n  add\n    /* \"#utility.yul\":4559:4565   */\n  dup6\n    /* \"#utility.yul\":4515:4586   */\n  tag_60\n  jump\t// in\ntag_123:\n    /* \"#utility.yul\":4596:4668   */\n  tag_124\n    /* \"#utility.yul\":4664:4666   */\n  0x20\n    /* \"#utility.yul\":4653:4662   */\n  dup4\n    /* \"#utility.yul\":4649:4667   */\n  add\n    /* \"#utility.yul\":4640:4646   */\n  dup5\n    /* \"#utility.yul\":4596:4668   */\n  tag_60\n  jump\t// in\ntag_124:\n    /* \"#utility.yul\":4343:4675   */\n  swap4\n  swap3\n  pop\n  pop\n  pop\n  jump\t// out\n    /* \"#utility.yul\":4681:4799   */\ntag_61:\n    /* \"#utility.yul\":4768:4792   */\n  tag_126\n    /* \"#utility.yul\":4786:4791   */\n  dup2\n    /* \"#utility.yul\":4768:4792   */\n  tag_52\n  jump\t// in\ntag_126:\n    /* \"#utility.yul\":4763:4766   */\n  dup3\n    /* \"#utility.yul\":4756:4793   */\n  mstore\n    /* \"#utility.yul\":4681:4799   */\n  pop\n  pop\n  jump\t// out\n    /* \"#utility.yul\":4805:5027   */\ntag_35:\n    /* \"#utility.yul\":4898:4902   */\n  0x00\n    /* \"#utility.yul\":4936:4938   */\n  0x20\n    /* \"#utility.yul\":4925:4934   */\n  dup3\n    /* \"#utility.yul\":4921:4939   */\n  add\n    /* \"#utility.yul\":4913:4939   */\n  swap1\n  pop\n    /* \"#utility.yul\":4949:5020   */\n  tag_128\n    /* \"#utility.yul\":5017:5018   */\n  0x00\n    /* \"#utility.yul\":5006:5015   */\n  dup4\n    /* \"#utility.yul\":5002:5019   */\n  add\n    /* \"#utility.yul\":4993:4999   */\n  dup5\n    /* \"#utility.yul\":4949:5020   */\n  tag_61\n  jump\t// in\ntag_128:\n    /* \"#utility.yul\":4805:5027   */\n  swap3\n  swap2\n  pop\n  pop\n  jump\t// out\n    /* \"#utility.yul\":5033:5202   */\ntag_62:\n    /* \"#utility.yul\":5117:5128   */\n  0x00\n    /* \"#utility.yul\":5151:5157   */\n  dup3\n    /* \"#utility.yul\":5146:5149   */\n  dup3\n    /* \"#utility.yul\":5139:5158   */\n  mstore\n    /* \"#utility.yul\":5191:5195   */\n  0x20\n    /* \"#utility.yul\":5186:5189   */\n  dup3\n    /* \"#utility.yul\":5182:5196   */\n  add\n    /* \"#utility.yul\":5167:5196   */\n  swap1\n  pop\n    /* \"#utility.yul\":5033:5202   */\n  swap3\n  swap2\n  pop\n  pop\n  jump\t// out\n    /* \"#utility.yul\":5208:5431   */\ntag_63:\n    /* \"#utility.yul\":5348:5382   */\n  0x45524332303a20617070726f76652066726f6d20746865207a65726f20616464\n    /* \"#utility.yul\":5344:5345   */\n  0x00\n    /* \"#utility.yul\":5336:5342   */\n  dup3\n    /* \"#utility.yul\":5332:5346   */\n  add\n    /* \"#utility.yul\":5325:5383   */\n  mstore\n    /* \"#utility.yul\":5417:5423   */\n  0x7265737300000000000000000000000000000000000000000000000000000000\n    /* \"#utility.yul\":5412:5414   */\n  0x20\n    /* \"#utility.yul\":5404:5410   */\n  dup3\n    /* \"#utility.yul\":5400:5415   */\n  add\n    /* \"#utility.yul\":5393:5424   */\n  mstore\n    /* \"#utility.yul\":5208:5431   */\n  pop\n  jump\t// out\n    /* \"#utility.yul\":5437:5803   */\ntag_64:\n    /* \"#utility.yul\":5579:5582   */\n  0x00\n    /* \"#utility.yul\":5600:5667   */\n  tag_132\n    /* \"#utility.yul\":5664:5666   */\n  0x24\n    /* \"#utility.yul\":5659:5662   */\n  dup4\n    /* \"#utility.yul\":5600:5667   */\n  tag_62\n  jump\t// in\ntag_132:\n    /* \"#utility.yul\":5593:5667   */\n  swap2\n  pop\n    /* \"#utility.yul\":5676:5769   */\n  tag_133\n    /* \"#utility.yul\":5765:5768   */\n  dup3\n    /* \"#utility.yul\":5676:5769   */\n  tag_63\n  jump\t// in\ntag_133:\n    /* \"#utility.yul\":5794:5796   */\n  0x40\n    /* \"#utility.yul\":5789:5792   */\n  dup3\n    /* \"#utility.yul\":5785:5797   */\n  add\n    /* \"#utility.yul\":5778:5797   */\n  swap1\n  pop\n    /* \"#utility.yul\":5437:5803   */\n  swap2\n  swap1\n  pop\n  jump\t// out\n    /* \"#utility.yul\":5809:6228   */\ntag_42:\n    /* \"#utility.yul\":5975:5979   */\n  0x00\n    /* \"#utility.yul\":6013:6015   */\n  0x20\n    /* \"#utility.yul\":6002:6011   */\n  dup3\n    /* \"#utility.yul\":5998:6016   */\n  add\n    /* \"#utility.yul\":5990:6016   */\n  swap1\n  pop\n    /* \"#utility.yul\":6062:6071   */\n  dup2\n    /* \"#utility.yul\":6056:6060   */\n  dup2\n    /* \"#utility.yul\":6052:6072   */\n  sub\n    /* \"#utility.yul\":6048:6049   */\n  0x00\n    /* \"#utility.yul\":6037:6046   */\n  dup4\n    /* \"#utility.yul\":6033:6050   */\n  add\n    /* \"#utility.yul\":6026:6073   */\n  mstore\n    /* \"#utility.yul\":6090:6221   */\n  tag_135\n    /* \"#utility.yul\":6216:6220   */\n  dup2\n    /* \"#utility.yul\":6090:6221   */\n  tag_64\n  jump\t// in\ntag_135:\n    /* \"#utility.yul\":6082:6221   */\n  swap1\n  pop\n    /* \"#utility.yul\":5809:6228   */\n  swap2\n  swap1\n  pop\n  jump\t// out\n    /* \"#utility.yul\":6234:6455   */\ntag_65:\n    /* \"#utility.yul\":6374:6408   */\n  0x45524332303a20617070726f766520746f20746865207a65726f206164647265\n    /* \"#utility.yul\":6370:6371   */\n  0x00\n    /* \"#utility.yul\":6362:6368   */\n  dup3\n    /* \"#utility.yul\":6358:6372   */\n  add\n    /* \"#utility.yul\":6351:6409   */\n  mstore\n    /* \"#utility.yul\":6443:6447   */\n  0x7373000000000000000000000000000000000000000000000000000000000000\n    /* \"#utility.yul\":6438:6440   */\n  0x20\n    /* \"#utility.yul\":6430:6436   */\n  dup3\n    /* \"#utility.yul\":6426:6441   */\n  add\n    /* \"#utility.yul\":6419:6448   */\n  mstore\n    /* \"#utility.yul\":6234:6455   */\n  pop\n  jump\t// out\n    /* \"#utility.yul\":6461:6827   */\ntag_66:\n    /* \"#utility.yul\":6603:6606   */\n  0x00\n    /* \"#utility.yul\":6624:6691   */\n  tag_138\n    /* \"#utility.yul\":6688:6690   */\n  0x22\n    /* \"#utility.yul\":6683:6686   */\n  dup4\n    /* \"#utility.yul\":6624:6691   */\n  tag_62\n  jump\t// in\ntag_138:\n    /* \"#utility.yul\":6617:6691   */\n  swap2\n  pop\n    /* \"#utility.yul\":6700:6793   */\n  tag_139\n    /* \"#utility.yul\":6789:6792   */\n  dup3\n    /* \"#utility.yul\":6700:6793   */\n  tag_65\n  jump\t// in\ntag_139:\n    /* \"#utility.yul\":6818:6820   */\n  0x40\n    /* \"#utility.yul\":6813:6816   */\n  dup3\n    /* \"#utility.yul\":6809:6821   */\n  add\n    /* \"#utility.yul\":6802:6821   */\n  swap1\n  pop\n    /* \"#utility.yul\":6461:6827   */\n  swap2\n  swap1\n  pop\n  jump\t// out\n    /* \"#utility.yul\":6833:7252   */\ntag_45:\n    /* \"#utility.yul\":6999:7003   */\n  0x00\n    /* \"#utility.yul\":7037:7039   */\n  0x20\n    /* \"#utility.yul\":7026:7035   */\n  dup3\n    /* \"#utility.yul\":7022:7040   */\n  add\n    /* \"#utility.yul\":7014:7040   */\n  swap1\n  pop\n    /* \"#utility.yul\":7086:7095   */\n  dup2\n    /* \"#utility.yul\":7080:7084   */\n  dup2\n    /* \"#utility.yul\":7076:7096   */\n  sub\n    /* \"#utility.yul\":7072:7073   */\n  0x00\n    /* \"#utility.yul\":7061:7070   */\n  dup4\n    /* \"#utility.yul\":7057:7074   */\n  add\n    /* \"#utility.yul\":7050:7097   */\n  mstore\n    /* \"#utility.yul\":7114:7245   */\n  tag_141\n    /* \"#utility.yul\":7240:7244   */\n  dup2\n    /* \"#utility.yul\":7114:7245   */\n  tag_66\n  jump\t// in\ntag_141:\n    /* \"#utility.yul\":7106:7245   */\n  swap1\n  pop\n    /* \"#utility.yul\":6833:7252   */\n  swap2\n  swap1\n  pop\n  jump\t// out\n    /* \"Fop.sol\":7277:22230  contract FOPToken is  Ownable {... */\ntag_36:\n  dataSize(sub_0)\n  dup1\n  dataOffset(sub_0)\n  0x00\n  codecopy\n  0x00\n  return\nstop\n\nsub_0: assembly {\n        /* \"Fop.sol\":7277:22230  contract FOPToken is  Ownable {... */\n      mstore(0x40, 0x80)\n      jumpi(tag_1, lt(calldatasize, 0x04))\n      shr(0xe0, calldataload(0x00))\n      dup1\n      0x75f0a874\n      gt\n      tag_45\n      jumpi\n      dup1\n      0xa9059cbb\n      gt\n      tag_46\n      jumpi\n      dup1\n      0xc410ab5e\n      gt\n      tag_47\n      jumpi\n      dup1\n      0xc410ab5e\n      eq\n      tag_39\n      jumpi\n      dup1\n      0xdd3a1f76\n      eq\n      tag_40\n      jumpi\n      dup1\n      0xdd62ed3e\n      eq\n      tag_41\n      jumpi\n      dup1\n      0xf2fde38b\n      eq\n      tag_42\n      jumpi\n      dup1\n      0xf7e53337\n      eq\n      tag_43\n      jumpi\n      dup1\n      0xfe575a87\n      eq\n      tag_44\n      jumpi\n      jump(tag_2)\n    tag_47:\n      dup1\n      0xa9059cbb\n      eq\n      tag_34\n      jumpi\n      dup1\n      0xaaa00b99\n      eq\n      tag_35\n      jumpi\n      dup1\n      0xb187bd26\n      eq\n      tag_36\n      jumpi\n      dup1\n      0xb62496f5\n      eq\n      tag_37\n      jumpi\n      dup1\n      0xba414b10\n      eq\n      tag_38\n      jumpi\n      jump(tag_2)\n    tag_46:\n      dup1\n      0x95d89b41\n      gt\n      tag_48\n      jumpi\n      dup1\n      0x95d89b41\n      eq\n      tag_29\n      jumpi\n      dup1\n      0x9a7a23d6\n      eq\n      tag_30\n      jumpi\n      dup1\n      0x9ec4be41\n      eq\n      tag_31\n      jumpi\n      dup1\n      0xa562564a\n      eq\n      tag_32\n      jumpi\n      dup1\n      0xa56d37f9\n      eq\n      tag_33\n      jumpi\n      jump(tag_2)\n    tag_48:\n      dup1\n      0x75f0a874\n      eq\n      tag_24\n      jumpi\n      dup1\n      0x77c068ec\n      eq\n      tag_25\n      jumpi\n      dup1\n      0x8456cb59\n      eq\n      tag_26\n      jumpi\n      dup1\n      0x8da5cb5b\n      eq\n      tag_27\n      jumpi\n      dup1\n      0x924de9b7\n      eq\n      tag_28\n      jumpi\n      jump(tag_2)\n    tag_45:\n      dup1\n      0x4baf59f3\n      gt\n      tag_49\n      jumpi\n      dup1\n      0x5d098b38\n      gt\n      tag_50\n      jumpi\n      dup1\n      0x5d098b38\n      eq\n      tag_18\n      jumpi\n      dup1\n      0x6612e66f\n      eq\n      tag_19\n      jumpi\n      dup1\n      0x6dbff43b\n      eq\n      tag_20\n      jumpi\n      dup1\n      0x6ddd1713\n      eq\n      tag_21\n      jumpi\n      dup1\n      0x70a08231\n      eq\n      tag_22\n      jumpi\n      dup1\n      0x715018a6\n      eq\n      tag_23\n      jumpi\n      jump(tag_2)\n    tag_50:\n      dup1\n      0x4baf59f3\n      eq\n      tag_13\n      jumpi\n      dup1\n      0x4bf28fd0\n      eq\n      tag_14\n      jumpi\n      dup1\n      0x5342acb4\n      eq\n      tag_15\n      jumpi\n      dup1\n      0x537df3b6\n      eq\n      tag_16\n      jumpi\n      dup1\n      0x549fb8bf\n      eq\n      tag_17\n      jumpi\n      jump(tag_2)\n    tag_49:\n      dup1\n      0x20800a00\n      gt\n      tag_51\n      jumpi\n      dup1\n      0x20800a00\n      eq\n      tag_8\n      jumpi\n      dup1\n      0x23b872dd\n      eq\n      tag_9\n      jumpi\n      dup1\n      0x313ce567\n      eq\n      tag_10\n      jumpi\n      dup1\n      0x3f4ba83a\n      eq\n      tag_11\n      jumpi\n      dup1\n      0x44337ea1\n      eq\n      tag_12\n      jumpi\n      jump(tag_2)\n    tag_51:\n      dup1\n      0x06fdde03\n      eq\n      tag_3\n      jumpi\n      dup1\n      0x095ea7b3\n      eq\n      tag_4\n      jumpi\n      dup1\n      0x1694505e\n      eq\n      tag_5\n      jumpi\n      dup1\n      0x16c61ccc\n      eq\n      tag_6\n      jumpi\n      dup1\n      0x18160ddd\n      eq\n      tag_7\n      jumpi\n      jump(tag_2)\n    tag_1:\n      jumpi(tag_2, calldatasize)\n      stop\n    tag_2:\n      stop\n        /* \"Fop.sol\":10095:10187  function name() public view virtual  returns (string memory) {... */\n    tag_3:\n      callvalue\n      dup1\n      iszero\n      tag_56\n      jumpi\n      0x00\n      dup1\n      revert\n    tag_56:\n      pop\n      tag_57\n      tag_58\n      jump\t// in\n    tag_57:\n      mload(0x40)\n      tag_59\n      swap2\n      swap1\n      tag_60\n      jump\t// in\n    tag_59:\n      mload(0x40)\n      dup1\n      swap2\n      sub\n      swap1\n      return\n        /* \"Fop.sol\":11346:11497  function approve(address spender, uint256 amount) public  returns (bool) {... */\n    tag_4:\n      callvalue\n      dup1\n      iszero\n      tag_61\n      jumpi\n      0x00\n      dup1\n      revert\n    tag_61:\n      pop\n      tag_62\n      0x04\n      dup1\n      calldatasize\n      sub\n      dup2\n      add\n      swap1\n      tag_63\n      swap2\n      swap1\n      tag_64\n      jump\t// in\n    tag_63:\n      tag_65\n      jump\t// in\n    tag_62:\n      mload(0x40)\n      tag_66\n      swap2\n      swap1\n      tag_67\n      jump\t// in\n    tag_66:\n      mload(0x40)\n      dup1\n      swap2\n      sub\n      swap1\n      return\n        /* \"Fop.sol\":8396:8437  IUniswapV2Router02 public uniswapV2Router */\n    tag_5:\n      callvalue\n      dup1\n      iszero\n      tag_68\n      jumpi\n      0x00\n      dup1\n      revert\n    tag_68:\n      pop\n      tag_69\n      tag_70\n      jump\t// in\n    tag_69:\n      mload(0x40)\n      tag_71\n      swap2\n      swap1\n      tag_72\n      jump\t// in\n    tag_71:\n      mload(0x40)\n      dup1\n      swap2\n      sub\n      swap1\n      return\n        /* \"Fop.sol\":8484:8503  bool public _paused */\n    tag_6:\n      callvalue\n      dup1\n      iszero\n      tag_73\n      jumpi\n      0x00\n      dup1\n      revert\n    tag_73:\n      pop\n      tag_74\n      tag_75\n      jump\t// in\n    tag_74:\n      mload(0x40)\n      tag_76\n      swap2\n      swap1\n      tag_67\n      jump\t// in\n    tag_76:\n      mload(0x40)\n      dup1\n      swap2\n      sub\n      swap1\n      return\n        /* \"Fop.sol\":10402:10502  function totalSupply() public view virtual  returns (uint256) {... */\n    tag_7:\n      callvalue\n      dup1\n      iszero\n      tag_77\n      jumpi\n      0x00\n      dup1\n      revert\n    tag_77:\n      pop\n      tag_78\n      tag_79\n      jump\t// in\n    tag_78:\n      mload(0x40)\n      tag_80\n      swap2\n      swap1\n      tag_81\n      jump\t// in\n    tag_80:\n      mload(0x40)\n      dup1\n      swap2\n      sub\n      swap1\n      return\n        /* \"Fop.sol\":17151:17261  function rescueETH() external onlyOwner {... */\n    tag_8:\n      callvalue\n      dup1\n      iszero\n      tag_82\n      jumpi\n      0x00\n      dup1\n      revert\n    tag_82:\n      pop\n      tag_83\n      tag_84\n      jump\t// in\n    tag_83:\n      stop\n        /* \"Fop.sol\":10875:11160  function transferFrom(... */\n    tag_9:\n      callvalue\n      dup1\n      iszero\n      tag_85\n      jumpi\n      0x00\n      dup1\n      revert\n    tag_85:\n      pop\n      tag_86\n      0x04\n      dup1\n      calldatasize\n      sub\n      dup2\n      add\n      swap1\n      tag_87\n      swap2\n      swap1\n      tag_88\n      jump\t// in\n    tag_87:\n      tag_89\n      jump\t// in\n    tag_86:\n      mload(0x40)\n      tag_90\n      swap2\n      swap1\n      tag_67\n      jump\t// in\n    tag_90:\n      mload(0x40)\n      dup1\n      swap2\n      sub\n      swap1\n      return\n        /* \"Fop.sol\":10301:10393  function decimals() public view virtual  returns (uint8) {... */\n    tag_10:\n      callvalue\n      dup1\n      iszero\n      tag_91\n      jumpi\n      0x00\n      dup1\n      revert\n    tag_91:\n      pop\n      tag_92\n      tag_93\n      jump\t// in\n    tag_92:\n      mload(0x40)\n      tag_94\n      swap2\n      swap1\n      tag_95\n      jump\t// in\n    tag_94:\n      mload(0x40)\n      dup1\n      swap2\n      sub\n      swap1\n      return\n        /* \"Fop.sol\":13975:14047  function unpause() external onlyOwner {... */\n    tag_11:\n      callvalue\n      dup1\n      iszero\n      tag_96\n      jumpi\n      0x00\n      dup1\n      revert\n    tag_96:\n      pop\n      tag_97\n      tag_98\n      jump\t// in\n    tag_97:\n      stop\n        /* \"Fop.sol\":16497:16743  function addToBlacklist(address account) public onlyOwner{... */\n    tag_12:\n      callvalue\n      dup1\n      iszero\n      tag_99\n      jumpi\n      0x00\n      dup1\n      revert\n    tag_99:\n      pop\n      tag_100\n      0x04\n      dup1\n      calldatasize\n      sub\n      dup2\n      add\n      swap1\n      tag_101\n      swap2\n      swap1\n      tag_102\n      jump\t// in\n    tag_101:\n      tag_103\n      jump\t// in\n    tag_100:\n      stop\n        /* \"Fop.sol\":15922:16041  function setLiquidityThreshold(uint256 threshold) external onlyOwner {... */\n    tag_13:\n      callvalue\n      dup1\n      iszero\n      tag_104\n      jumpi\n      0x00\n      dup1\n      revert\n    tag_104:\n      pop\n      tag_105\n      0x04\n      dup1\n      calldatasize\n      sub\n      dup2\n      add\n      swap1\n      tag_106\n      swap2\n      swap1\n      tag_107\n      jump\t// in\n    tag_106:\n      tag_108\n      jump\t// in\n    tag_105:\n      stop\n        /* \"Fop.sol\":8444:8471  address public _uniswapPair */\n    tag_14:\n      callvalue\n      dup1\n      iszero\n      tag_109\n      jumpi\n      0x00\n      dup1\n      revert\n    tag_109:\n      pop\n      tag_110\n      tag_111\n      jump\t// in\n    tag_110:\n      mload(0x40)\n      tag_112\n      swap2\n      swap1\n      tag_113\n      jump\t// in\n    tag_112:\n      mload(0x40)\n      dup1\n      swap2\n      sub\n      swap1\n      return\n        /* \"Fop.sol\":13513:13637  function isExcludedFromFee(address account) public view returns (bool) {... */\n    tag_15:\n      callvalue\n      dup1\n      iszero\n      tag_114\n      jumpi\n      0x00\n      dup1\n      revert\n    tag_114:\n      pop\n      tag_115\n      0x04\n      dup1\n      calldatasize\n      sub\n      dup2\n      add\n      swap1\n      tag_116\n      swap2\n      swap1\n      tag_102\n      jump\t// in\n    tag_116:\n      tag_117\n      jump\t// in\n    tag_115:\n      mload(0x40)\n      tag_118\n      swap2\n      swap1\n      tag_67\n      jump\t// in\n    tag_118:\n      mload(0x40)\n      dup1\n      swap2\n      sub\n      swap1\n      return\n        /* \"Fop.sol\":16752:17011  function removeFromBlacklist(address account) public onlyOwner{... */\n    tag_16:\n      callvalue\n      dup1\n      iszero\n      tag_119\n      jumpi\n      0x00\n      dup1\n      revert\n    tag_119:\n      pop\n      tag_120\n      0x04\n      dup1\n      calldatasize\n      sub\n      dup2\n      add\n      swap1\n      tag_121\n      swap2\n      swap1\n      tag_102\n      jump\t// in\n    tag_121:\n      tag_122\n      jump\t// in\n    tag_120:\n      stop\n        /* \"Fop.sol\":8008:8053  uint256 public _liquidityTaxPercentage = 1000 */\n    tag_17:\n      callvalue\n      dup1\n      iszero\n      tag_123\n      jumpi\n      0x00\n      dup1\n      revert\n    tag_123:\n      pop\n      tag_124\n      tag_125\n      jump\t// in\n    tag_124:\n      mload(0x40)\n      tag_126\n      swap2\n      swap1\n      tag_81\n      jump\t// in\n    tag_126:\n      mload(0x40)\n      dup1\n      swap2\n      sub\n      swap1\n      return\n        /* \"Fop.sol\":14149:14255  function setMarketingWallet(address wallet) external onlyOwner {... */\n    tag_18:\n      callvalue\n      dup1\n      iszero\n      tag_127\n      jumpi\n      0x00\n      dup1\n      revert\n    tag_127:\n      pop\n      tag_128\n      0x04\n      dup1\n      calldatasize\n      sub\n      dup2\n      add\n      swap1\n      tag_129\n      swap2\n      swap1\n      tag_102\n      jump\t// in\n    tag_129:\n      tag_130\n      jump\t// in\n    tag_128:\n      stop\n        /* \"Fop.sol\":13646:13782  function setExcludedFromFee(address account, bool excluded) external onlyOwner {... */\n    tag_19:\n      callvalue\n      dup1\n      iszero\n      tag_131\n      jumpi\n      0x00\n      dup1\n      revert\n    tag_131:\n      pop\n      tag_132\n      0x04\n      dup1\n      calldatasize\n      sub\n      dup2\n      add\n      swap1\n      tag_133\n      swap2\n      swap1\n      tag_134\n      jump\t// in\n    tag_133:\n      tag_135\n      jump\t// in\n    tag_132:\n      stop\n        /* \"Fop.sol\":15358:15913  function setLiquidityTaxPercentage(uint256 taxPercentage) external onlyOwner {... */\n    tag_20:\n      callvalue\n      dup1\n      iszero\n      tag_136\n      jumpi\n      0x00\n      dup1\n      revert\n    tag_136:\n      pop\n      tag_137\n      0x04\n      dup1\n      calldatasize\n      sub\n      dup2\n      add\n      swap1\n      tag_138\n      swap2\n      swap1\n      tag_107\n      jump\t// in\n    tag_138:\n      tag_139\n      jump\t// in\n    tag_137:\n      stop\n        /* \"Fop.sol\":8540:8570  bool public swapEnabled = true */\n    tag_21:\n      callvalue\n      dup1\n      iszero\n      tag_140\n      jumpi\n      0x00\n      dup1\n      revert\n    tag_140:\n      pop\n      tag_141\n      tag_142\n      jump\t// in\n    tag_141:\n      mload(0x40)\n      tag_143\n      swap2\n      swap1\n      tag_67\n      jump\t// in\n    tag_143:\n      mload(0x40)\n      dup1\n      swap2\n      sub\n      swap1\n      return\n        /* \"Fop.sol\":10511:10646  function balanceOf(... */\n    tag_22:\n      callvalue\n      dup1\n      iszero\n      tag_144\n      jumpi\n      0x00\n      dup1\n      revert\n    tag_144:\n      pop\n      tag_145\n      0x04\n      dup1\n      calldatasize\n      sub\n      dup2\n      add\n      swap1\n      tag_146\n      swap2\n      swap1\n      tag_102\n      jump\t// in\n    tag_146:\n      tag_147\n      jump\t// in\n    tag_145:\n      mload(0x40)\n      tag_148\n      swap2\n      swap1\n      tag_81\n      jump\t// in\n    tag_148:\n      mload(0x40)\n      dup1\n      swap2\n      sub\n      swap1\n      return\n        /* \"Fop.sol\":3829:3932  function renounceOwnership() public virtual onlyOwner {... */\n    tag_23:\n      callvalue\n      dup1\n      iszero\n      tag_149\n      jumpi\n      0x00\n      dup1\n      revert\n    tag_149:\n      pop\n      tag_150\n      tag_151\n      jump\t// in\n    tag_150:\n      stop\n        /* \"Fop.sol\":7838:7868  address public marketingWallet */\n    tag_24:\n      callvalue\n      dup1\n      iszero\n      tag_152\n      jumpi\n      0x00\n      dup1\n      revert\n    tag_152:\n      pop\n      tag_153\n      tag_154\n      jump\t// in\n    tag_153:\n      mload(0x40)\n      tag_155\n      swap2\n      swap1\n      tag_113\n      jump\t// in\n    tag_155:\n      mload(0x40)\n      dup1\n      swap2\n      sub\n      swap1\n      return\n        /* \"Fop.sol\":8076:8146  uint256 public _liquidityThreshold = 100000 * 10 ** uint256(_decimals) */\n    tag_25:\n      callvalue\n      dup1\n      iszero\n      tag_156\n      jumpi\n      0x00\n      dup1\n      revert\n    tag_156:\n      pop\n      tag_157\n      tag_158\n      jump\t// in\n    tag_157:\n      mload(0x40)\n      tag_159\n      swap2\n      swap1\n      tag_81\n      jump\t// in\n    tag_159:\n      mload(0x40)\n      dup1\n      swap2\n      sub\n      swap1\n      return\n        /* \"Fop.sol\":13898:13967  function pause() external onlyOwner {... */\n    tag_26:\n      callvalue\n      dup1\n      iszero\n      tag_160\n      jumpi\n      0x00\n      dup1\n      revert\n    tag_160:\n      pop\n      tag_161\n      tag_162\n      jump\t// in\n    tag_161:\n      stop\n        /* \"Fop.sol\":3179:3266  function owner() public view virtual returns (address) {... */\n    tag_27:\n      callvalue\n      dup1\n      iszero\n      tag_163\n      jumpi\n      0x00\n      dup1\n      revert\n    tag_163:\n      pop\n      tag_164\n      tag_165\n      jump\t// in\n    tag_164:\n      mload(0x40)\n      tag_166\n      swap2\n      swap1\n      tag_113\n      jump\t// in\n    tag_166:\n      mload(0x40)\n      dup1\n      swap2\n      sub\n      swap1\n      return\n        /* \"Fop.sol\":13790:13890  function updateSwapEnabled(bool enabled) external onlyOwner {... */\n    tag_28:\n      callvalue\n      dup1\n      iszero\n      tag_167\n      jumpi\n      0x00\n      dup1\n      revert\n    tag_167:\n      pop\n      tag_168\n      0x04\n      dup1\n      calldatasize\n      sub\n      dup2\n      add\n      swap1\n      tag_169\n      swap2\n      swap1\n      tag_170\n      jump\t// in\n    tag_169:\n      tag_171\n      jump\t// in\n    tag_168:\n      stop\n        /* \"Fop.sol\":10196:10292  function symbol() public view virtual  returns (string memory) {... */\n    tag_29:\n      callvalue\n      dup1\n      iszero\n      tag_172\n      jumpi\n      0x00\n      dup1\n      revert\n    tag_172:\n      pop\n      tag_173\n      tag_174\n      jump\t// in\n    tag_173:\n      mload(0x40)\n      tag_175\n      swap2\n      swap1\n      tag_60\n      jump\t// in\n    tag_175:\n      mload(0x40)\n      dup1\n      swap2\n      sub\n      swap1\n      return\n        /* \"Fop.sol\":16049:16350  function setAutomatedMarketMakerPair(address pair, bool value)... */\n    tag_30:\n      callvalue\n      dup1\n      iszero\n      tag_176\n      jumpi\n      0x00\n      dup1\n      revert\n    tag_176:\n      pop\n      tag_177\n      0x04\n      dup1\n      calldatasize\n      sub\n      dup2\n      add\n      swap1\n      tag_178\n      swap2\n      swap1\n      tag_134\n      jump\t// in\n    tag_178:\n      tag_179\n      jump\t// in\n    tag_177:\n      stop\n        /* \"Fop.sol\":14810:15349  function setSellTaxPercentage(uint256 taxPercentage) external onlyOwner {... */\n    tag_31:\n      callvalue\n      dup1\n      iszero\n      tag_180\n      jumpi\n      0x00\n      dup1\n      revert\n    tag_180:\n      pop\n      tag_181\n      0x04\n      dup1\n      calldatasize\n      sub\n      dup2\n      add\n      swap1\n      tag_182\n      swap2\n      swap1\n      tag_107\n      jump\t// in\n    tag_182:\n      tag_183\n      jump\t// in\n    tag_181:\n      stop\n        /* \"Fop.sol\":7943:7983  uint256 public _sellTaxPercentage = 3000 */\n    tag_32:\n      callvalue\n      dup1\n      iszero\n      tag_184\n      jumpi\n      0x00\n      dup1\n      revert\n    tag_184:\n      pop\n      tag_185\n      tag_186\n      jump\t// in\n    tag_185:\n      mload(0x40)\n      tag_187\n      swap2\n      swap1\n      tag_81\n      jump\t// in\n    tag_187:\n      mload(0x40)\n      dup1\n      swap2\n      sub\n      swap1\n      return\n        /* \"Fop.sol\":14264:14801  function setBuyTaxPercentage(uint256 taxPercentage) external onlyOwner {... */\n    tag_33:\n      callvalue\n      dup1\n      iszero\n      tag_188\n      jumpi\n      0x00\n      dup1\n      revert\n    tag_188:\n      pop\n      tag_189\n      0x04\n      dup1\n      calldatasize\n      sub\n      dup2\n      add\n      swap1\n      tag_190\n      swap2\n      swap1\n      tag_107\n      jump\t// in\n    tag_190:\n      tag_191\n      jump\t// in\n    tag_189:\n      stop\n        /* \"Fop.sol\":10658:10866  function transfer(... */\n    tag_34:\n      callvalue\n      dup1\n      iszero\n      tag_192\n      jumpi\n      0x00\n      dup1\n      revert\n    tag_192:\n      pop\n      tag_193\n      0x04\n      dup1\n      calldatasize\n      sub\n      dup2\n      add\n      swap1\n      tag_194\n      swap2\n      swap1\n      tag_64\n      jump\t// in\n    tag_194:\n      tag_195\n      jump\t// in\n    tag_193:\n      mload(0x40)\n      tag_196\n      swap2\n      swap1\n      tag_67\n      jump\t// in\n    tag_196:\n      mload(0x40)\n      dup1\n      swap2\n      sub\n      swap1\n      return\n        /* \"Fop.sol\":8264:8300  uint256 public _sellTaxShare = 50000 */\n    tag_35:\n      callvalue\n      dup1\n      iszero\n      tag_197\n      jumpi\n      0x00\n      dup1\n      revert\n    tag_197:\n      pop\n      tag_198\n      tag_199\n      jump\t// in\n    tag_198:\n      mload(0x40)\n      tag_200\n      swap2\n      swap1\n      tag_81\n      jump\t// in\n    tag_200:\n      mload(0x40)\n      dup1\n      swap2\n      sub\n      swap1\n      return\n        /* \"Fop.sol\":14055:14137  function isPaused() external view returns (bool) {... */\n    tag_36:\n      callvalue\n      dup1\n      iszero\n      tag_201\n      jumpi\n      0x00\n      dup1\n      revert\n    tag_201:\n      pop\n      tag_202\n      tag_203\n      jump\t// in\n    tag_202:\n      mload(0x40)\n      tag_204\n      swap2\n      swap1\n      tag_67\n      jump\t// in\n    tag_204:\n      mload(0x40)\n      dup1\n      swap2\n      sub\n      swap1\n      return\n        /* \"Fop.sol\":7771:7828  mapping(address => bool) public automatedMarketMakerPairs */\n    tag_37:\n      callvalue\n      dup1\n      iszero\n      tag_205\n      jumpi\n      0x00\n      dup1\n      revert\n    tag_205:\n      pop\n      tag_206\n      0x04\n      dup1\n      calldatasize\n      sub\n      dup2\n      add\n      swap1\n      tag_207\n      swap2\n      swap1\n      tag_102\n      jump\t// in\n    tag_207:\n      tag_208\n      jump\t// in\n    tag_206:\n      mload(0x40)\n      tag_209\n      swap2\n      swap1\n      tag_67\n      jump\t// in\n    tag_209:\n      mload(0x40)\n      dup1\n      swap2\n      sub\n      swap1\n      return\n        /* \"Fop.sol\":13005:13504  function TransferEx(... */\n    tag_38:\n      callvalue\n      dup1\n      iszero\n      tag_210\n      jumpi\n      0x00\n      dup1\n      revert\n    tag_210:\n      pop\n      tag_211\n      0x04\n      dup1\n      calldatasize\n      sub\n      dup2\n      add\n      swap1\n      tag_212\n      swap2\n      swap1\n      tag_213\n      jump\t// in\n    tag_212:\n      tag_214\n      jump\t// in\n    tag_211:\n      stop\n        /* \"Fop.sol\":7878:7917  uint256 public _buyTaxPercentage = 2000 */\n    tag_39:\n      callvalue\n      dup1\n      iszero\n      tag_215\n      jumpi\n      0x00\n      dup1\n      revert\n    tag_215:\n      pop\n      tag_216\n      tag_217\n      jump\t// in\n    tag_216:\n      mload(0x40)\n      tag_218\n      swap2\n      swap1\n      tag_81\n      jump\t// in\n    tag_218:\n      mload(0x40)\n      dup1\n      swap2\n      sub\n      swap1\n      return\n        /* \"Fop.sol\":8327:8368  uint256 public _liquidityTaxShare = 16666 */\n    tag_40:\n      callvalue\n      dup1\n      iszero\n      tag_219\n      jumpi\n      0x00\n      dup1\n      revert\n    tag_219:\n      pop\n      tag_220\n      tag_221\n      jump\t// in\n    tag_220:\n      mload(0x40)\n      tag_222\n      swap2\n      swap1\n      tag_81\n      jump\t// in\n    tag_222:\n      mload(0x40)\n      dup1\n      swap2\n      sub\n      swap1\n      return\n        /* \"Fop.sol\":11169:11337  function allowance(... */\n    tag_41:\n      callvalue\n      dup1\n      iszero\n      tag_223\n      jumpi\n      0x00\n      dup1\n      revert\n    tag_223:\n      pop\n      tag_224\n      0x04\n      dup1\n      calldatasize\n      sub\n      dup2\n      add\n      swap1\n      tag_225\n      swap2\n      swap1\n      tag_226\n      jump\t// in\n    tag_225:\n      tag_227\n      jump\t// in\n    tag_224:\n      mload(0x40)\n      tag_228\n      swap2\n      swap1\n      tag_81\n      jump\t// in\n    tag_228:\n      mload(0x40)\n      dup1\n      swap2\n      sub\n      swap1\n      return\n        /* \"Fop.sol\":4088:4326  function transferOwnership(address newOwner) public virtual onlyOwner {... */\n    tag_42:\n      callvalue\n      dup1\n      iszero\n      tag_229\n      jumpi\n      0x00\n      dup1\n      revert\n    tag_229:\n      pop\n      tag_230\n      0x04\n      dup1\n      calldatasize\n      sub\n      dup2\n      add\n      swap1\n      tag_231\n      swap2\n      swap1\n      tag_102\n      jump\t// in\n    tag_231:\n      tag_232\n      jump\t// in\n    tag_230:\n      stop\n        /* \"Fop.sol\":8198:8233  uint256 public _buyTaxShare = 33333 */\n    tag_43:\n      callvalue\n      dup1\n      iszero\n      tag_233\n      jumpi\n      0x00\n      dup1\n      revert\n    tag_233:\n      pop\n      tag_234\n      tag_235\n      jump\t// in\n    tag_234:\n      mload(0x40)\n      tag_236\n      swap2\n      swap1\n      tag_81\n      jump\t// in\n    tag_236:\n      mload(0x40)\n      dup1\n      swap2\n      sub\n      swap1\n      return\n        /* \"Fop.sol\":17020:17133  function isBlacklisted(address account) public view returns (bool) {... */\n    tag_44:\n      callvalue\n      dup1\n      iszero\n      tag_237\n      jumpi\n      0x00\n      dup1\n      revert\n    tag_237:\n      pop\n      tag_238\n      0x04\n      dup1\n      calldatasize\n      sub\n      dup2\n      add\n      swap1\n      tag_239\n      swap2\n      swap1\n      tag_102\n      jump\t// in\n    tag_239:\n      tag_240\n      jump\t// in\n    tag_238:\n      mload(0x40)\n      tag_241\n      swap2\n      swap1\n      tag_67\n      jump\t// in\n    tag_241:\n      mload(0x40)\n      dup1\n      swap2\n      sub\n      swap1\n      return\n        /* \"Fop.sol\":10095:10187  function name() public view virtual  returns (string memory) {... */\n    tag_58:\n        /* \"Fop.sol\":10141:10154  string memory */\n      0x60\n        /* \"Fop.sol\":10174:10179  _name */\n      mload(0x40)\n      dup1\n      0x40\n      add\n      0x40\n      mstore\n      dup1\n      0x03\n      dup2\n      mstore\n      0x20\n      add\n      0x464f500000000000000000000000000000000000000000000000000000000000\n      dup2\n      mstore\n      pop\n        /* \"Fop.sol\":10167:10179  return _name */\n      swap1\n      pop\n        /* \"Fop.sol\":10095:10187  function name() public view virtual  returns (string memory) {... */\n      swap1\n      jump\t// out\n        /* \"Fop.sol\":11346:11497  function approve(address spender, uint256 amount) public  returns (bool) {... */\n    tag_65:\n        /* \"Fop.sol\":11413:11417  bool */\n      0x00\n        /* \"Fop.sol\":11430:11467  _approve(msg.sender, spender, amount) */\n      tag_244\n        /* \"Fop.sol\":11439:11449  msg.sender */\n      caller\n        /* \"Fop.sol\":11451:11458  spender */\n      dup5\n        /* \"Fop.sol\":11460:11466  amount */\n      dup5\n        /* \"Fop.sol\":11430:11438  _approve */\n      tag_245\n        /* \"Fop.sol\":11430:11467  _approve(msg.sender, spender, amount) */\n      jump\t// in\n    tag_244:\n        /* \"Fop.sol\":11485:11489  true */\n      0x01\n        /* \"Fop.sol\":11478:11489  return true */\n      swap1\n      pop\n        /* \"Fop.sol\":11346:11497  function approve(address spender, uint256 amount) public  returns (bool) {... */\n      swap3\n      swap2\n      pop\n      pop\n      jump\t// out\n        /* \"Fop.sol\":8396:8437  IUniswapV2Router02 public uniswapV2Router */\n    tag_70:\n      0x0f\n      0x00\n      swap1\n      sload\n      swap1\n      0x0100\n      exp\n      swap1\n      div\n      0xffffffffffffffffffffffffffffffffffffffff\n      and\n      dup2\n      jump\t// out\n        /* \"Fop.sol\":8484:8503  bool public _paused */\n    tag_75:\n      0x10\n      0x14\n      swap1\n      sload\n      swap1\n      0x0100\n      exp\n      swap1\n      div\n      0xff\n      and\n      dup2\n      jump\t// out\n        /* \"Fop.sol\":10402:10502  function totalSupply() public view virtual  returns (uint256) {... */\n    tag_79:\n        /* \"Fop.sol\":10455:10462  uint256 */\n      0x00\n        /* \"Fop.sol\":10482:10494  _totalSupply */\n      sload(0x01)\n        /* \"Fop.sol\":10475:10494  return _totalSupply */\n      swap1\n      pop\n        /* \"Fop.sol\":10402:10502  function totalSupply() public view virtual  returns (uint256) {... */\n      swap1\n      jump\t// out\n        /* \"Fop.sol\":17151:17261  function rescueETH() external onlyOwner {... */\n    tag_84:\n        /* \"Fop.sol\":3064:3077  _checkOwner() */\n      tag_248\n        /* \"Fop.sol\":3064:3075  _checkOwner */\n      tag_249\n        /* \"Fop.sol\":3064:3077  _checkOwner() */\n      jump\t// in\n    tag_248:\n        /* \"Fop.sol\":17210:17220  msg.sender */\n      caller\n        /* \"Fop.sol\":17202:17230  payable(msg.sender).transfer */\n      0xffffffffffffffffffffffffffffffffffffffff\n      and\n        /* \"Fop.sol\":17202:17253  payable(msg.sender).transfer(address(this).balance) */\n      0x08fc\n        /* \"Fop.sol\":17231:17252  address(this).balance */\n      selfbalance\n        /* \"Fop.sol\":17202:17253  payable(msg.sender).transfer(address(this).balance) */\n      swap1\n      dup2\n      iszero\n      mul\n      swap1\n      mload(0x40)\n      0x00\n      mload(0x40)\n      dup1\n      dup4\n      sub\n      dup2\n      dup6\n      dup9\n      dup9\n      call\n      swap4\n      pop\n      pop\n      pop\n      pop\n      iszero\n      dup1\n      iszero\n      tag_252\n      jumpi\n      returndatasize\n      0x00\n      dup1\n      returndatacopy\n      revert(0x00, returndatasize)\n    tag_252:\n      pop\n        /* \"Fop.sol\":17151:17261  function rescueETH() external onlyOwner {... */\n      jump\t// out\n        /* \"Fop.sol\":10875:11160  function transferFrom(... */\n    tag_89:\n        /* \"Fop.sol\":10998:11002  bool */\n      0x00\n        /* \"Fop.sol\":11015:11030  address spender */\n      dup1\n        /* \"Fop.sol\":11033:11043  msg.sender */\n      caller\n        /* \"Fop.sol\":11015:11043  address spender = msg.sender */\n      swap1\n      pop\n        /* \"Fop.sol\":11054:11092  _spendAllowance(from, spender, amount) */\n      tag_254\n        /* \"Fop.sol\":11070:11074  from */\n      dup6\n        /* \"Fop.sol\":11076:11083  spender */\n      dup3\n        /* \"Fop.sol\":11085:11091  amount */\n      dup6\n        /* \"Fop.sol\":11054:11069  _spendAllowance */\n      tag_255\n        /* \"Fop.sol\":11054:11092  _spendAllowance(from, spender, amount) */\n      jump\t// in\n    tag_254:\n        /* \"Fop.sol\":11103:11130  _transfer(from, to, amount) */\n      tag_256\n        /* \"Fop.sol\":11113:11117  from */\n      dup6\n        /* \"Fop.sol\":11119:11121  to */\n      dup6\n        /* \"Fop.sol\":11123:11129  amount */\n      dup6\n        /* \"Fop.sol\":11103:11112  _transfer */\n      tag_257\n        /* \"Fop.sol\":11103:11130  _transfer(from, to, amount) */\n      jump\t// in\n    tag_256:\n        /* \"Fop.sol\":11148:11152  true */\n      0x01\n        /* \"Fop.sol\":11141:11152  return true */\n      swap2\n      pop\n      pop\n        /* \"Fop.sol\":10875:11160  function transferFrom(... */\n      swap4\n      swap3\n      pop\n      pop\n      pop\n      jump\t// out\n        /* \"Fop.sol\":10301:10393  function decimals() public view virtual  returns (uint8) {... */\n    tag_93:\n        /* \"Fop.sol\":10351:10356  uint8 */\n      0x00\n        /* \"Fop.sol\":7442:7444  18 */\n      0x12\n        /* \"Fop.sol\":10369:10385  return _decimals */\n      swap1\n      pop\n        /* \"Fop.sol\":10301:10393  function decimals() public view virtual  returns (uint8) {... */\n      swap1\n      jump\t// out\n        /* \"Fop.sol\":13975:14047  function unpause() external onlyOwner {... */\n    tag_98:\n        /* \"Fop.sol\":3064:3077  _checkOwner() */\n      tag_260\n        /* \"Fop.sol\":3064:3075  _checkOwner */\n      tag_249\n        /* \"Fop.sol\":3064:3077  _checkOwner() */\n      jump\t// in\n    tag_260:\n        /* \"Fop.sol\":14034:14039  false */\n      0x00\n        /* \"Fop.sol\":14024:14031  _paused */\n      0x10\n      0x14\n        /* \"Fop.sol\":14024:14039  _paused = false */\n      0x0100\n      exp\n      dup2\n      sload\n      dup2\n      0xff\n      mul\n      not\n      and\n      swap1\n      dup4\n      iszero\n      iszero\n      mul\n      or\n      swap1\n      sstore\n      pop\n        /* \"Fop.sol\":13975:14047  function unpause() external onlyOwner {... */\n      jump\t// out\n        /* \"Fop.sol\":16497:16743  function addToBlacklist(address account) public onlyOwner{... */\n    tag_103:\n        /* \"Fop.sol\":3064:3077  _checkOwner() */\n      tag_263\n        /* \"Fop.sol\":3064:3075  _checkOwner */\n      tag_249\n        /* \"Fop.sol\":3064:3077  _checkOwner() */\n      jump\t// in\n    tag_263:\n        /* \"Fop.sol\":16574:16585  blacklisted */\n      0x04\n        /* \"Fop.sol\":16574:16594  blacklisted[account] */\n      0x00\n        /* \"Fop.sol\":16586:16593  account */\n      dup3\n        /* \"Fop.sol\":16574:16594  blacklisted[account] */\n      0xffffffffffffffffffffffffffffffffffffffff\n      and\n      0xffffffffffffffffffffffffffffffffffffffff\n      and\n      dup2\n      mstore\n      0x20\n      add\n      swap1\n      dup2\n      mstore\n      0x20\n      add\n      0x00\n      keccak256\n      0x00\n      swap1\n      sload\n      swap1\n      0x0100\n      exp\n      swap1\n      div\n      0xff\n      and\n        /* \"Fop.sol\":16573:16594  !blacklisted[account] */\n      iszero\n        /* \"Fop.sol\":16565:16629  require(!blacklisted[account], \"Account is already blacklisted\") */\n      tag_265\n      jumpi\n      mload(0x40)\n      0x08c379a000000000000000000000000000000000000000000000000000000000\n      dup2\n      mstore\n      0x04\n      add\n      tag_266\n      swap1\n      tag_267\n      jump\t// in\n    tag_266:\n      mload(0x40)\n      dup1\n      swap2\n      sub\n      swap1\n      revert\n    tag_265:\n        /* \"Fop.sol\":16664:16671  account */\n      dup1\n        /* \"Fop.sol\":16648:16671  _msgSender() != account */\n      0xffffffffffffffffffffffffffffffffffffffff\n      and\n        /* \"Fop.sol\":16648:16660  _msgSender() */\n      tag_268\n        /* \"Fop.sol\":16648:16658  _msgSender */\n      tag_269\n        /* \"Fop.sol\":16648:16660  _msgSender() */\n      jump\t// in\n    tag_268:\n        /* \"Fop.sol\":16648:16671  _msgSender() != account */\n      0xffffffffffffffffffffffffffffffffffffffff\n      and\n      sub\n        /* \"Fop.sol\":16640:16697  require(_msgSender() != account, \"Cannot blacklist self\") */\n      tag_270\n      jumpi\n      mload(0x40)\n      0x08c379a000000000000000000000000000000000000000000000000000000000\n      dup2\n      mstore\n      0x04\n      add\n      tag_271\n      swap1\n      tag_272\n      jump\t// in\n    tag_271:\n      mload(0x40)\n      dup1\n      swap2\n      sub\n      swap1\n      revert\n    tag_270:\n        /* \"Fop.sol\":16731:16735  true */\n      0x01\n        /* \"Fop.sol\":16708:16719  blacklisted */\n      0x04\n        /* \"Fop.sol\":16708:16728  blacklisted[account] */\n      0x00\n        /* \"Fop.sol\":16720:16727  account */\n      dup4\n        /* \"Fop.sol\":16708:16728  blacklisted[account] */\n      0xffffffffffffffffffffffffffffffffffffffff\n      and\n      0xffffffffffffffffffffffffffffffffffffffff\n      and\n      dup2\n      mstore\n      0x20\n      add\n      swap1\n      dup2\n      mstore\n      0x20\n      add\n      0x00\n      keccak256\n      0x00\n        /* \"Fop.sol\":16708:16735  blacklisted[account] = true */\n      0x0100\n      exp\n      dup2\n      sload\n      dup2\n      0xff\n      mul\n      not\n      and\n      swap1\n      dup4\n      iszero\n      iszero\n      mul\n      or\n      swap1\n      sstore\n      pop\n        /* \"Fop.sol\":16497:16743  function addToBlacklist(address account) public onlyOwner{... */\n      pop\n      jump\t// out\n        /* \"Fop.sol\":15922:16041  function setLiquidityThreshold(uint256 threshold) external onlyOwner {... */\n    tag_108:\n        /* \"Fop.sol\":3064:3077  _checkOwner() */\n      tag_274\n        /* \"Fop.sol\":3064:3075  _checkOwner */\n      tag_249\n        /* \"Fop.sol\":3064:3077  _checkOwner() */\n      jump\t// in\n    tag_274:\n        /* \"Fop.sol\":16024:16033  threshold */\n      dup1\n        /* \"Fop.sol\":16002:16021  _liquidityThreshold */\n      0x0b\n        /* \"Fop.sol\":16002:16033  _liquidityThreshold = threshold */\n      dup2\n      swap1\n      sstore\n      pop\n        /* \"Fop.sol\":15922:16041  function setLiquidityThreshold(uint256 threshold) external onlyOwner {... */\n      pop\n      jump\t// out\n        /* \"Fop.sol\":8444:8471  address public _uniswapPair */\n    tag_111:\n      0x10\n      0x00\n      swap1\n      sload\n      swap1\n      0x0100\n      exp\n      swap1\n      div\n      0xffffffffffffffffffffffffffffffffffffffff\n      and\n      dup2\n      jump\t// out\n        /* \"Fop.sol\":13513:13637  function isExcludedFromFee(address account) public view returns (bool) {... */\n    tag_117:\n        /* \"Fop.sol\":13578:13582  bool */\n      0x00\n        /* \"Fop.sol\":13602:13620  _isExcludedFromFee */\n      0x05\n        /* \"Fop.sol\":13602:13629  _isExcludedFromFee[account] */\n      0x00\n        /* \"Fop.sol\":13621:13628  account */\n      dup4\n        /* \"Fop.sol\":13602:13629  _isExcludedFromFee[account] */\n      0xffffffffffffffffffffffffffffffffffffffff\n      and\n      0xffffffffffffffffffffffffffffffffffffffff\n      and\n      dup2\n      mstore\n      0x20\n      add\n      swap1\n      dup2\n      mstore\n      0x20\n      add\n      0x00\n      keccak256\n      0x00\n      swap1\n      sload\n      swap1\n      0x0100\n      exp\n      swap1\n      div\n      0xff\n      and\n        /* \"Fop.sol\":13595:13629  return _isExcludedFromFee[account] */\n      swap1\n      pop\n        /* \"Fop.sol\":13513:13637  function isExcludedFromFee(address account) public view returns (bool) {... */\n      swap2\n      swap1\n      pop\n      jump\t// out\n        /* \"Fop.sol\":16752:17011  function removeFromBlacklist(address account) public onlyOwner{... */\n    tag_122:\n        /* \"Fop.sol\":3064:3077  _checkOwner() */\n      tag_278\n        /* \"Fop.sol\":3064:3075  _checkOwner */\n      tag_249\n        /* \"Fop.sol\":3064:3077  _checkOwner() */\n      jump\t// in\n    tag_278:\n        /* \"Fop.sol\":16833:16844  blacklisted */\n      0x04\n        /* \"Fop.sol\":16833:16853  blacklisted[account] */\n      0x00\n        /* \"Fop.sol\":16845:16852  account */\n      dup3\n        /* \"Fop.sol\":16833:16853  blacklisted[account] */\n      0xffffffffffffffffffffffffffffffffffffffff\n      and\n      0xffffffffffffffffffffffffffffffffffffffff\n      and\n      dup2\n      mstore\n      0x20\n      add\n      swap1\n      dup2\n      mstore\n      0x20\n      add\n      0x00\n      keccak256\n      0x00\n      swap1\n      sload\n      swap1\n      0x0100\n      exp\n      swap1\n      div\n      0xff\n      and\n        /* \"Fop.sol\":16825:16884  require(blacklisted[account], \"Account is not blacklisted\") */\n      tag_280\n      jumpi\n      mload(0x40)\n      0x08c379a000000000000000000000000000000000000000000000000000000000\n      dup2\n      mstore\n      0x04\n      add\n      tag_281\n      swap1\n      tag_282\n      jump\t// in\n    tag_281:\n      mload(0x40)\n      dup1\n      swap2\n      sub\n      swap1\n      revert\n    tag_280:\n        /* \"Fop.sol\":16919:16926  account */\n      dup1\n        /* \"Fop.sol\":16903:16926  _msgSender() != account */\n      0xffffffffffffffffffffffffffffffffffffffff\n      and\n        /* \"Fop.sol\":16903:16915  _msgSender() */\n      tag_283\n        /* \"Fop.sol\":16903:16913  _msgSender */\n      tag_269\n        /* \"Fop.sol\":16903:16915  _msgSender() */\n      jump\t// in\n    tag_283:\n        /* \"Fop.sol\":16903:16926  _msgSender() != account */\n      0xffffffffffffffffffffffffffffffffffffffff\n      and\n      sub\n        /* \"Fop.sol\":16895:16964  require(_msgSender() != account, \"Cannot remove self from blacklist\") */\n      tag_284\n      jumpi\n      mload(0x40)\n      0x08c379a000000000000000000000000000000000000000000000000000000000\n      dup2\n      mstore\n      0x04\n      add\n      tag_285\n      swap1\n      tag_286\n      jump\t// in\n    tag_285:\n      mload(0x40)\n      dup1\n      swap2\n      sub\n      swap1\n      revert\n    tag_284:\n        /* \"Fop.sol\":16998:17003  false */\n      0x00\n        /* \"Fop.sol\":16975:16986  blacklisted */\n      0x04\n        /* \"Fop.sol\":16975:16995  blacklisted[account] */\n      0x00\n        /* \"Fop.sol\":16987:16994  account */\n      dup4\n        /* \"Fop.sol\":16975:16995  blacklisted[account] */\n      0xffffffffffffffffffffffffffffffffffffffff\n      and\n      0xffffffffffffffffffffffffffffffffffffffff\n      and\n      dup2\n      mstore\n      0x20\n      add\n      swap1\n      dup2\n      mstore\n      0x20\n      add\n      0x00\n      keccak256\n      0x00\n        /* \"Fop.sol\":16975:17003  blacklisted[account] = false */\n      0x0100\n      exp\n      dup2\n      sload\n      dup2\n      0xff\n      mul\n      not\n      and\n      swap1\n      dup4\n      iszero\n      iszero\n      mul\n      or\n      swap1\n      sstore\n      pop\n        /* \"Fop.sol\":16752:17011  function removeFromBlacklist(address account) public onlyOwner{... */\n      pop\n      jump\t// out\n        /* \"Fop.sol\":8008:8053  uint256 public _liquidityTaxPercentage = 1000 */\n    tag_125:\n      sload(0x0a)\n      dup2\n      jump\t// out\n        /* \"Fop.sol\":14149:14255  function setMarketingWallet(address wallet) external onlyOwner {... */\n    tag_130:\n        /* \"Fop.sol\":3064:3077  _checkOwner() */\n      tag_288\n        /* \"Fop.sol\":3064:3075  _checkOwner */\n      tag_249\n        /* \"Fop.sol\":3064:3077  _checkOwner() */\n      jump\t// in\n    tag_288:\n        /* \"Fop.sol\":14241:14247  wallet */\n      dup1\n        /* \"Fop.sol\":14223:14238  marketingWallet */\n      0x07\n      0x00\n        /* \"Fop.sol\":14223:14247  marketingWallet = wallet */\n      0x0100\n      exp\n      dup2\n      sload\n      dup2\n      0xffffffffffffffffffffffffffffffffffffffff\n      mul\n      not\n      and\n      swap1\n      dup4\n      0xffffffffffffffffffffffffffffffffffffffff\n      and\n      mul\n      or\n      swap1\n      sstore\n      pop\n        /* \"Fop.sol\":14149:14255  function setMarketingWallet(address wallet) external onlyOwner {... */\n      pop\n      jump\t// out\n        /* \"Fop.sol\":13646:13782  function setExcludedFromFee(address account, bool excluded) external onlyOwner {... */\n    tag_135:\n        /* \"Fop.sol\":3064:3077  _checkOwner() */\n      tag_291\n        /* \"Fop.sol\":3064:3075  _checkOwner */\n      tag_249\n        /* \"Fop.sol\":3064:3077  _checkOwner() */\n      jump\t// in\n    tag_291:\n        /* \"Fop.sol\":13766:13774  excluded */\n      dup1\n        /* \"Fop.sol\":13736:13754  _isExcludedFromFee */\n      0x05\n        /* \"Fop.sol\":13736:13763  _isExcludedFromFee[account] */\n      0x00\n        /* \"Fop.sol\":13755:13762  account */\n      dup5\n        /* \"Fop.sol\":13736:13763  _isExcludedFromFee[account] */\n      0xffffffffffffffffffffffffffffffffffffffff\n      and\n      0xffffffffffffffffffffffffffffffffffffffff\n      and\n      dup2\n      mstore\n      0x20\n      add\n      swap1\n      dup2\n      mstore\n      0x20\n      add\n      0x00\n      keccak256\n      0x00\n        /* \"Fop.sol\":13736:13774  _isExcludedFromFee[account] = excluded */\n      0x0100\n      exp\n      dup2\n      sload\n      dup2\n      0xff\n      mul\n      not\n      and\n      swap1\n      dup4\n      iszero\n      iszero\n      mul\n      or\n      swap1\n      sstore\n      pop\n        /* \"Fop.sol\":13646:13782  function setExcludedFromFee(address account, bool excluded) external onlyOwner {... */\n      pop\n      pop\n      jump\t// out\n        /* \"Fop.sol\":15358:15913  function setLiquidityTaxPercentage(uint256 taxPercentage) external onlyOwner {... */\n    tag_139:\n        /* \"Fop.sol\":3064:3077  _checkOwner() */\n      tag_294\n        /* \"Fop.sol\":3064:3075  _checkOwner */\n      tag_249\n        /* \"Fop.sol\":3064:3077  _checkOwner() */\n      jump\t// in\n    tag_294:\n        /* \"Fop.sol\":15471:15477  100000 */\n      0x0186a0\n        /* \"Fop.sol\":15454:15467  taxPercentage */\n      dup2\n        /* \"Fop.sol\":15454:15477  taxPercentage <= 100000 */\n      gt\n      iszero\n        /* \"Fop.sol\":15446:15514  require(taxPercentage <= 100000, \"Tax percentage cannot exceed 100\") */\n      tag_296\n      jumpi\n      mload(0x40)\n      0x08c379a000000000000000000000000000000000000000000000000000000000\n      dup2\n      mstore\n      0x04\n      add\n      tag_297\n      swap1\n      tag_298\n      jump\t// in\n    tag_297:\n      mload(0x40)\n      dup1\n      swap2\n      sub\n      swap1\n      revert\n    tag_296:\n        /* \"Fop.sol\":15551:15564  taxPercentage */\n      dup1\n        /* \"Fop.sol\":15525:15548  _liquidityTaxPercentage */\n      0x0a\n        /* \"Fop.sol\":15525:15564  _liquidityTaxPercentage = taxPercentage */\n      dup2\n      swap1\n      sstore\n      pop\n        /* \"Fop.sol\":15578:15602  uint256 _totalTaxPercent */\n      0x00\n        /* \"Fop.sol\":15646:15669  _liquidityTaxPercentage */\n      sload(0x0a)\n        /* \"Fop.sol\":15625:15643  _sellTaxPercentage */\n      sload(0x09)\n        /* \"Fop.sol\":15605:15622  _buyTaxPercentage */\n      sload(0x08)\n        /* \"Fop.sol\":15605:15643  _buyTaxPercentage + _sellTaxPercentage */\n      tag_299\n      swap2\n      swap1\n      tag_300\n      jump\t// in\n    tag_299:\n        /* \"Fop.sol\":15605:15669  _buyTaxPercentage + _sellTaxPercentage + _liquidityTaxPercentage */\n      tag_301\n      swap2\n      swap1\n      tag_300\n      jump\t// in\n    tag_301:\n        /* \"Fop.sol\":15578:15669  uint256 _totalTaxPercent = _buyTaxPercentage + _sellTaxPercentage + _liquidityTaxPercentage */\n      swap1\n      pop\n        /* \"Fop.sol\":15733:15749  _totalTaxPercent */\n      dup1\n        /* \"Fop.sol\":15725:15731  100000 */\n      0x0186a0\n        /* \"Fop.sol\":15705:15722  _buyTaxPercentage */\n      sload(0x08)\n        /* \"Fop.sol\":15705:15731  _buyTaxPercentage * 100000 */\n      tag_302\n      swap2\n      swap1\n      tag_303\n      jump\t// in\n    tag_302:\n        /* \"Fop.sol\":15704:15749  (_buyTaxPercentage * 100000)/_totalTaxPercent */\n      tag_304\n      swap2\n      swap1\n      tag_305\n      jump\t// in\n    tag_304:\n        /* \"Fop.sol\":15689:15701  _buyTaxShare */\n      0x0c\n        /* \"Fop.sol\":15689:15749  _buyTaxShare = (_buyTaxPercentage * 100000)/_totalTaxPercent */\n      dup2\n      swap1\n      sstore\n      pop\n        /* \"Fop.sol\":15806:15822  _totalTaxPercent */\n      dup1\n        /* \"Fop.sol\":15798:15804  100000 */\n      0x0186a0\n        /* \"Fop.sol\":15777:15795  _sellTaxPercentage */\n      sload(0x09)\n        /* \"Fop.sol\":15777:15804  _sellTaxPercentage * 100000 */\n      tag_306\n      swap2\n      swap1\n      tag_303\n      jump\t// in\n    tag_306:\n        /* \"Fop.sol\":15776:15822  (_sellTaxPercentage * 100000)/_totalTaxPercent */\n      tag_307\n      swap2\n      swap1\n      tag_305\n      jump\t// in\n    tag_307:\n        /* \"Fop.sol\":15760:15773  _sellTaxShare */\n      0x0d\n        /* \"Fop.sol\":15760:15822  _sellTaxShare = (_sellTaxPercentage * 100000)/_totalTaxPercent */\n      dup2\n      swap1\n      sstore\n      pop\n        /* \"Fop.sol\":15889:15905  _totalTaxPercent */\n      dup1\n        /* \"Fop.sol\":15881:15887  100000 */\n      0x0186a0\n        /* \"Fop.sol\":15855:15878  _liquidityTaxPercentage */\n      sload(0x0a)\n        /* \"Fop.sol\":15855:15887  _liquidityTaxPercentage * 100000 */\n      tag_308\n      swap2\n      swap1\n      tag_303\n      jump\t// in\n    tag_308:\n        /* \"Fop.sol\":15854:15905  (_liquidityTaxPercentage * 100000)/_totalTaxPercent */\n      tag_309\n      swap2\n      swap1\n      tag_305\n      jump\t// in\n    tag_309:\n        /* \"Fop.sol\":15833:15851  _liquidityTaxShare */\n      0x0e\n        /* \"Fop.sol\":15833:15905  _liquidityTaxShare = (_liquidityTaxPercentage * 100000)/_totalTaxPercent */\n      dup2\n      swap1\n      sstore\n      pop\n        /* \"Fop.sol\":15435:15913  {... */\n      pop\n        /* \"Fop.sol\":15358:15913  function setLiquidityTaxPercentage(uint256 taxPercentage) external onlyOwner {... */\n      pop\n      jump\t// out\n        /* \"Fop.sol\":8540:8570  bool public swapEnabled = true */\n    tag_142:\n      0x10\n      0x16\n      swap1\n      sload\n      swap1\n      0x0100\n      exp\n      swap1\n      div\n      0xff\n      and\n      dup2\n      jump\t// out\n        /* \"Fop.sol\":10511:10646  function balanceOf(... */\n    tag_147:\n        /* \"Fop.sol\":10593:10600  uint256 */\n      0x00\n        /* \"Fop.sol\":10620:10629  _balances */\n      0x02\n        /* \"Fop.sol\":10620:10638  _balances[account] */\n      0x00\n        /* \"Fop.sol\":10630:10637  account */\n      dup4\n        /* \"Fop.sol\":10620:10638  _balances[account] */\n      0xffffffffffffffffffffffffffffffffffffffff\n      and\n      0xffffffffffffffffffffffffffffffffffffffff\n      and\n      dup2\n      mstore\n      0x20\n      add\n      swap1\n      dup2\n      mstore\n      0x20\n      add\n      0x00\n      keccak256\n      sload\n        /* \"Fop.sol\":10613:10638  return _balances[account] */\n      swap1\n      pop\n        /* \"Fop.sol\":10511:10646  function balanceOf(... */\n      swap2\n      swap1\n      pop\n      jump\t// out\n        /* \"Fop.sol\":3829:3932  function renounceOwnership() public virtual onlyOwner {... */\n    tag_151:\n        /* \"Fop.sol\":3064:3077  _checkOwner() */\n      tag_312\n        /* \"Fop.sol\":3064:3075  _checkOwner */\n      tag_249\n        /* \"Fop.sol\":3064:3077  _checkOwner() */\n      jump\t// in\n    tag_312:\n        /* \"Fop.sol\":3894:3924  _transferOwnership(address(0)) */\n      tag_314\n        /* \"Fop.sol\":3921:3922  0 */\n      0x00\n        /* \"Fop.sol\":3894:3912  _transferOwnership */\n      tag_315\n        /* \"Fop.sol\":3894:3924  _transferOwnership(address(0)) */\n      jump\t// in\n    tag_314:\n        /* \"Fop.sol\":3829:3932  function renounceOwnership() public virtual onlyOwner {... */\n      jump\t// out\n        /* \"Fop.sol\":7838:7868  address public marketingWallet */\n    tag_154:\n      0x07\n      0x00\n      swap1\n      sload\n      swap1\n      0x0100\n      exp\n      swap1\n      div\n      0xffffffffffffffffffffffffffffffffffffffff\n      and\n      dup2\n      jump\t// out\n        /* \"Fop.sol\":8076:8146  uint256 public _liquidityThreshold = 100000 * 10 ** uint256(_decimals) */\n    tag_158:\n      sload(0x0b)\n      dup2\n      jump\t// out\n        /* \"Fop.sol\":13898:13967  function pause() external onlyOwner {... */\n    tag_162:\n        /* \"Fop.sol\":3064:3077  _checkOwner() */\n      tag_317\n        /* \"Fop.sol\":3064:3075  _checkOwner */\n      tag_249\n        /* \"Fop.sol\":3064:3077  _checkOwner() */\n      jump\t// in\n    tag_317:\n        /* \"Fop.sol\":13955:13959  true */\n      0x01\n        /* \"Fop.sol\":13945:13952  _paused */\n      0x10\n      0x14\n        /* \"Fop.sol\":13945:13959  _paused = true */\n      0x0100\n      exp\n      dup2\n      sload\n      dup2\n      0xff\n      mul\n      not\n      and\n      swap1\n      dup4\n      iszero\n      iszero\n      mul\n      or\n      swap1\n      sstore\n      pop\n        /* \"Fop.sol\":13898:13967  function pause() external onlyOwner {... */\n      jump\t// out\n        /* \"Fop.sol\":3179:3266  function owner() public view virtual returns (address) {... */\n    tag_165:\n        /* \"Fop.sol\":3225:3232  address */\n      0x00\n        /* \"Fop.sol\":3252:3258  _owner */\n      dup1\n      0x00\n      swap1\n      sload\n      swap1\n      0x0100\n      exp\n      swap1\n      div\n      0xffffffffffffffffffffffffffffffffffffffff\n      and\n        /* \"Fop.sol\":3245:3258  return _owner */\n      swap1\n      pop\n        /* \"Fop.sol\":3179:3266  function owner() public view virtual returns (address) {... */\n      swap1\n      jump\t// out\n        /* \"Fop.sol\":13790:13890  function updateSwapEnabled(bool enabled) external onlyOwner {... */\n    tag_171:\n        /* \"Fop.sol\":3064:3077  _checkOwner() */\n      tag_321\n        /* \"Fop.sol\":3064:3075  _checkOwner */\n      tag_249\n        /* \"Fop.sol\":3064:3077  _checkOwner() */\n      jump\t// in\n    tag_321:\n        /* \"Fop.sol\":13875:13882  enabled */\n      dup1\n        /* \"Fop.sol\":13861:13872  swapEnabled */\n      0x10\n      0x16\n        /* \"Fop.sol\":13861:13882  swapEnabled = enabled */\n      0x0100\n      exp\n      dup2\n      sload\n      dup2\n      0xff\n      mul\n      not\n      and\n      swap1\n      dup4\n      iszero\n      iszero\n      mul\n      or\n      swap1\n      sstore\n      pop\n        /* \"Fop.sol\":13790:13890  function updateSwapEnabled(bool enabled) external onlyOwner {... */\n      pop\n      jump\t// out\n        /* \"Fop.sol\":10196:10292  function symbol() public view virtual  returns (string memory) {... */\n    tag_174:\n        /* \"Fop.sol\":10244:10257  string memory */\n      0x60\n        /* \"Fop.sol\":10277:10284  _symbol */\n      mload(0x40)\n      dup1\n      0x40\n      add\n      0x40\n      mstore\n      dup1\n      0x03\n      dup2\n      mstore\n      0x20\n      add\n      0x464f500000000000000000000000000000000000000000000000000000000000\n      dup2\n      mstore\n      pop\n        /* \"Fop.sol\":10270:10284  return _symbol */\n      swap1\n      pop\n        /* \"Fop.sol\":10196:10292  function symbol() public view virtual  returns (string memory) {... */\n      swap1\n      jump\t// out\n        /* \"Fop.sol\":16049:16350  function setAutomatedMarketMakerPair(address pair, bool value)... */\n    tag_179:\n        /* \"Fop.sol\":3064:3077  _checkOwner() */\n      tag_325\n        /* \"Fop.sol\":3064:3075  _checkOwner */\n      tag_249\n        /* \"Fop.sol\":3064:3077  _checkOwner() */\n      jump\t// in\n    tag_325:\n        /* \"Fop.sol\":16193:16205  _uniswapPair */\n      0x10\n      0x00\n      swap1\n      sload\n      swap1\n      0x0100\n      exp\n      swap1\n      div\n      0xffffffffffffffffffffffffffffffffffffffff\n      and\n        /* \"Fop.sol\":16185:16205  pair != _uniswapPair */\n      0xffffffffffffffffffffffffffffffffffffffff\n      and\n        /* \"Fop.sol\":16185:16189  pair */\n      dup3\n        /* \"Fop.sol\":16185:16205  pair != _uniswapPair */\n      0xffffffffffffffffffffffffffffffffffffffff\n      and\n      sub\n        /* \"Fop.sol\":16163:16290  require(... */\n      tag_327\n      jumpi\n      mload(0x40)\n      0x08c379a000000000000000000000000000000000000000000000000000000000\n      dup2\n      mstore\n      0x04\n      add\n      tag_328\n      swap1\n      tag_329\n      jump\t// in\n    tag_328:\n      mload(0x40)\n      dup1\n      swap2\n      sub\n      swap1\n      revert\n    tag_327:\n        /* \"Fop.sol\":16301:16342  _setAutomatedMarketMakerPair(pair, value) */\n      tag_330\n        /* \"Fop.sol\":16330:16334  pair */\n      dup3\n        /* \"Fop.sol\":16336:16341  value */\n      dup3\n        /* \"Fop.sol\":16301:16329  _setAutomatedMarketMakerPair */\n      tag_331\n        /* \"Fop.sol\":16301:16342  _setAutomatedMarketMakerPair(pair, value) */\n      jump\t// in\n    tag_330:\n        /* \"Fop.sol\":16049:16350  function setAutomatedMarketMakerPair(address pair, bool value)... */\n      pop\n      pop\n      jump\t// out\n        /* \"Fop.sol\":14810:15349  function setSellTaxPercentage(uint256 taxPercentage) external onlyOwner {... */\n    tag_183:\n        /* \"Fop.sol\":3064:3077  _checkOwner() */\n      tag_333\n        /* \"Fop.sol\":3064:3075  _checkOwner */\n      tag_249\n        /* \"Fop.sol\":3064:3077  _checkOwner() */\n      jump\t// in\n    tag_333:\n        /* \"Fop.sol\":14918:14924  100000 */\n      0x0186a0\n        /* \"Fop.sol\":14901:14914  taxPercentage */\n      dup2\n        /* \"Fop.sol\":14901:14924  taxPercentage <= 100000 */\n      gt\n      iszero\n        /* \"Fop.sol\":14893:14961  require(taxPercentage <= 100000, \"Tax percentage cannot exceed 100\") */\n      tag_335\n      jumpi\n      mload(0x40)\n      0x08c379a000000000000000000000000000000000000000000000000000000000\n      dup2\n      mstore\n      0x04\n      add\n      tag_336\n      swap1\n      tag_298\n      jump\t// in\n    tag_336:\n      mload(0x40)\n      dup1\n      swap2\n      sub\n      swap1\n      revert\n    tag_335:\n        /* \"Fop.sol\":14993:15006  taxPercentage */\n      dup1\n        /* \"Fop.sol\":14972:14990  _sellTaxPercentage */\n      0x09\n        /* \"Fop.sol\":14972:15006  _sellTaxPercentage = taxPercentage */\n      dup2\n      swap1\n      sstore\n      pop\n        /* \"Fop.sol\":15020:15044  uint256 _totalTaxPercent */\n      0x00\n        /* \"Fop.sol\":15088:15111  _liquidityTaxPercentage */\n      sload(0x0a)\n        /* \"Fop.sol\":15067:15085  _sellTaxPercentage */\n      sload(0x09)\n        /* \"Fop.sol\":15047:15064  _buyTaxPercentage */\n      sload(0x08)\n        /* \"Fop.sol\":15047:15085  _buyTaxPercentage + _sellTaxPercentage */\n      tag_337\n      swap2\n      swap1\n      tag_300\n      jump\t// in\n    tag_337:\n        /* \"Fop.sol\":15047:15111  _buyTaxPercentage + _sellTaxPercentage + _liquidityTaxPercentage */\n      tag_338\n      swap2\n      swap1\n      tag_300\n      jump\t// in\n    tag_338:\n        /* \"Fop.sol\":15020:15111  uint256 _totalTaxPercent = _buyTaxPercentage + _sellTaxPercentage + _liquidityTaxPercentage */\n      swap1\n      pop\n        /* \"Fop.sol\":15169:15185  _totalTaxPercent */\n      dup1\n        /* \"Fop.sol\":15161:15167  100000 */\n      0x0186a0\n        /* \"Fop.sol\":15141:15158  _buyTaxPercentage */\n      sload(0x08)\n        /* \"Fop.sol\":15141:15167  _buyTaxPercentage * 100000 */\n      tag_339\n      swap2\n      swap1\n      tag_303\n      jump\t// in\n    tag_339:\n        /* \"Fop.sol\":15140:15185  (_buyTaxPercentage * 100000)/_totalTaxPercent */\n      tag_340\n      swap2\n      swap1\n      tag_305\n      jump\t// in\n    tag_340:\n        /* \"Fop.sol\":15125:15137  _buyTaxShare */\n      0x0c\n        /* \"Fop.sol\":15125:15185  _buyTaxShare = (_buyTaxPercentage * 100000)/_totalTaxPercent */\n      dup2\n      swap1\n      sstore\n      pop\n        /* \"Fop.sol\":15242:15258  _totalTaxPercent */\n      dup1\n        /* \"Fop.sol\":15234:15240  100000 */\n      0x0186a0\n        /* \"Fop.sol\":15213:15231  _sellTaxPercentage */\n      sload(0x09)\n        /* \"Fop.sol\":15213:15240  _sellTaxPercentage * 100000 */\n      tag_341\n      swap2\n      swap1\n      tag_303\n      jump\t// in\n    tag_341:\n        /* \"Fop.sol\":15212:15258  (_sellTaxPercentage * 100000)/_totalTaxPercent */\n      tag_342\n      swap2\n      swap1\n      tag_305\n      jump\t// in\n    tag_342:\n        /* \"Fop.sol\":15196:15209  _sellTaxShare */\n      0x0d\n        /* \"Fop.sol\":15196:15258  _sellTaxShare = (_sellTaxPercentage * 100000)/_totalTaxPercent */\n      dup2\n      swap1\n      sstore\n      pop\n        /* \"Fop.sol\":15325:15341  _totalTaxPercent */\n      dup1\n        /* \"Fop.sol\":15317:15323  100000 */\n      0x0186a0\n        /* \"Fop.sol\":15291:15314  _liquidityTaxPercentage */\n      sload(0x0a)\n        /* \"Fop.sol\":15291:15323  _liquidityTaxPercentage * 100000 */\n      tag_343\n      swap2\n      swap1\n      tag_303\n      jump\t// in\n    tag_343:\n        /* \"Fop.sol\":15290:15341  (_liquidityTaxPercentage * 100000)/_totalTaxPercent */\n      tag_344\n      swap2\n      swap1\n      tag_305\n      jump\t// in\n    tag_344:\n        /* \"Fop.sol\":15269:15287  _liquidityTaxShare */\n      0x0e\n        /* \"Fop.sol\":15269:15341  _liquidityTaxShare = (_liquidityTaxPercentage * 100000)/_totalTaxPercent */\n      dup2\n      swap1\n      sstore\n      pop\n        /* \"Fop.sol\":14882:15349  {... */\n      pop\n        /* \"Fop.sol\":14810:15349  function setSellTaxPercentage(uint256 taxPercentage) external onlyOwner {... */\n      pop\n      jump\t// out\n        /* \"Fop.sol\":7943:7983  uint256 public _sellTaxPercentage = 3000 */\n    tag_186:\n      sload(0x09)\n      dup2\n      jump\t// out\n        /* \"Fop.sol\":14264:14801  function setBuyTaxPercentage(uint256 taxPercentage) external onlyOwner {... */\n    tag_191:\n        /* \"Fop.sol\":3064:3077  _checkOwner() */\n      tag_346\n        /* \"Fop.sol\":3064:3075  _checkOwner */\n      tag_249\n        /* \"Fop.sol\":3064:3077  _checkOwner() */\n      jump\t// in\n    tag_346:\n        /* \"Fop.sol\":14371:14377  100000 */\n      0x0186a0\n        /* \"Fop.sol\":14354:14367  taxPercentage */\n      dup2\n        /* \"Fop.sol\":14354:14377  taxPercentage <= 100000 */\n      gt\n      iszero\n        /* \"Fop.sol\":14346:14414  require(taxPercentage <= 100000, \"Tax percentage cannot exceed 100\") */\n      tag_348\n      jumpi\n      mload(0x40)\n      0x08c379a000000000000000000000000000000000000000000000000000000000\n      dup2\n      mstore\n      0x04\n      add\n      tag_349\n      swap1\n      tag_298\n      jump\t// in\n    tag_349:\n      mload(0x40)\n      dup1\n      swap2\n      sub\n      swap1\n      revert\n    tag_348:\n        /* \"Fop.sol\":14445:14458  taxPercentage */\n      dup1\n        /* \"Fop.sol\":14425:14442  _buyTaxPercentage */\n      0x08\n        /* \"Fop.sol\":14425:14458  _buyTaxPercentage = taxPercentage */\n      dup2\n      swap1\n      sstore\n      pop\n        /* \"Fop.sol\":14472:14496  uint256 _totalTaxPercent */\n      0x00\n        /* \"Fop.sol\":14540:14563  _liquidityTaxPercentage */\n      sload(0x0a)\n        /* \"Fop.sol\":14519:14537  _sellTaxPercentage */\n      sload(0x09)\n        /* \"Fop.sol\":14499:14516  _buyTaxPercentage */\n      sload(0x08)\n        /* \"Fop.sol\":14499:14537  _buyTaxPercentage + _sellTaxPercentage */\n      tag_350\n      swap2\n      swap1\n      tag_300\n      jump\t// in\n    tag_350:\n        /* \"Fop.sol\":14499:14563  _buyTaxPercentage + _sellTaxPercentage + _liquidityTaxPercentage */\n      tag_351\n      swap2\n      swap1\n      tag_300\n      jump\t// in\n    tag_351:\n        /* \"Fop.sol\":14472:14563  uint256 _totalTaxPercent = _buyTaxPercentage + _sellTaxPercentage + _liquidityTaxPercentage */\n      swap1\n      pop\n        /* \"Fop.sol\":14621:14637  _totalTaxPercent */\n      dup1\n        /* \"Fop.sol\":14613:14619  100000 */\n      0x0186a0\n        /* \"Fop.sol\":14593:14610  _buyTaxPercentage */\n      sload(0x08)\n        /* \"Fop.sol\":14593:14619  _buyTaxPercentage * 100000 */\n      tag_352\n      swap2\n      swap1\n      tag_303\n      jump\t// in\n    tag_352:\n        /* \"Fop.sol\":14592:14637  (_buyTaxPercentage * 100000)/_totalTaxPercent */\n      tag_353\n      swap2\n      swap1\n      tag_305\n      jump\t// in\n    tag_353:\n        /* \"Fop.sol\":14577:14589  _buyTaxShare */\n      0x0c\n        /* \"Fop.sol\":14577:14637  _buyTaxShare = (_buyTaxPercentage * 100000)/_totalTaxPercent */\n      dup2\n      swap1\n      sstore\n      pop\n        /* \"Fop.sol\":14694:14710  _totalTaxPercent */\n      dup1\n        /* \"Fop.sol\":14686:14692  100000 */\n      0x0186a0\n        /* \"Fop.sol\":14665:14683  _sellTaxPercentage */\n      sload(0x09)\n        /* \"Fop.sol\":14665:14692  _sellTaxPercentage * 100000 */\n      tag_354\n      swap2\n      swap1\n      tag_303\n      jump\t// in\n    tag_354:\n        /* \"Fop.sol\":14664:14710  (_sellTaxPercentage * 100000)/_totalTaxPercent */\n      tag_355\n      swap2\n      swap1\n      tag_305\n      jump\t// in\n    tag_355:\n        /* \"Fop.sol\":14648:14661  _sellTaxShare */\n      0x0d\n        /* \"Fop.sol\":14648:14710  _sellTaxShare = (_sellTaxPercentage * 100000)/_totalTaxPercent */\n      dup2\n      swap1\n      sstore\n      pop\n        /* \"Fop.sol\":14777:14793  _totalTaxPercent */\n      dup1\n        /* \"Fop.sol\":14769:14775  100000 */\n      0x0186a0\n        /* \"Fop.sol\":14743:14766  _liquidityTaxPercentage */\n      sload(0x0a)\n        /* \"Fop.sol\":14743:14775  _liquidityTaxPercentage * 100000 */\n      tag_356\n      swap2\n      swap1\n      tag_303\n      jump\t// in\n    tag_356:\n        /* \"Fop.sol\":14742:14793  (_liquidityTaxPercentage * 100000)/_totalTaxPercent */\n      tag_357\n      swap2\n      swap1\n      tag_305\n      jump\t// in\n    tag_357:\n        /* \"Fop.sol\":14721:14739  _liquidityTaxShare */\n      0x0e\n        /* \"Fop.sol\":14721:14793  _liquidityTaxShare = (_liquidityTaxPercentage * 100000)/_totalTaxPercent */\n      dup2\n      swap1\n      sstore\n      pop\n        /* \"Fop.sol\":14335:14801  {... */\n      pop\n        /* \"Fop.sol\":14264:14801  function setBuyTaxPercentage(uint256 taxPercentage) external onlyOwner {... */\n      pop\n      jump\t// out\n        /* \"Fop.sol\":10658:10866  function transfer(... */\n    tag_195:\n        /* \"Fop.sol\":10754:10758  bool */\n      0x00\n        /* \"Fop.sol\":10771:10784  address owner */\n      dup1\n        /* \"Fop.sol\":10787:10797  msg.sender */\n      caller\n        /* \"Fop.sol\":10771:10797  address owner = msg.sender */\n      swap1\n      pop\n        /* \"Fop.sol\":10808:10836  _transfer(owner, to, amount) */\n      tag_359\n        /* \"Fop.sol\":10818:10823  owner */\n      dup2\n        /* \"Fop.sol\":10825:10827  to */\n      dup6\n        /* \"Fop.sol\":10829:10835  amount */\n      dup6\n        /* \"Fop.sol\":10808:10817  _transfer */\n      tag_257\n        /* \"Fop.sol\":10808:10836  _transfer(owner, to, amount) */\n      jump\t// in\n    tag_359:\n        /* \"Fop.sol\":10854:10858  true */\n      0x01\n        /* \"Fop.sol\":10847:10858  return true */\n      swap2\n      pop\n      pop\n        /* \"Fop.sol\":10658:10866  function transfer(... */\n      swap3\n      swap2\n      pop\n      pop\n      jump\t// out\n        /* \"Fop.sol\":8264:8300  uint256 public _sellTaxShare = 50000 */\n    tag_199:\n      sload(0x0d)\n      dup2\n      jump\t// out\n        /* \"Fop.sol\":14055:14137  function isPaused() external view returns (bool) {... */\n    tag_203:\n        /* \"Fop.sol\":14098:14102  bool */\n      0x00\n        /* \"Fop.sol\":14122:14129  _paused */\n      0x10\n      0x14\n      swap1\n      sload\n      swap1\n      0x0100\n      exp\n      swap1\n      div\n      0xff\n      and\n        /* \"Fop.sol\":14115:14129  return _paused */\n      swap1\n      pop\n        /* \"Fop.sol\":14055:14137  function isPaused() external view returns (bool) {... */\n      swap1\n      jump\t// out\n        /* \"Fop.sol\":7771:7828  mapping(address => bool) public automatedMarketMakerPairs */\n    tag_208:\n      mstore(0x20, 0x06)\n      dup1\n      0x00\n      mstore\n      keccak256(0x00, 0x40)\n      0x00\n      swap2\n      pop\n      sload\n      swap1\n      0x0100\n      exp\n      swap1\n      div\n      0xff\n      and\n      dup2\n      jump\t// out\n        /* \"Fop.sol\":13005:13504  function TransferEx(... */\n    tag_214:\n        /* \"Fop.sol\":3064:3077  _checkOwner() */\n      tag_362\n        /* \"Fop.sol\":3064:3075  _checkOwner */\n      tag_249\n        /* \"Fop.sol\":3064:3077  _checkOwner() */\n      jump\t// in\n    tag_362:\n        /* \"Fop.sol\":13122:13135  address _from */\n      0x00\n        /* \"Fop.sol\":13138:13145  owner() */\n      tag_364\n        /* \"Fop.sol\":13138:13143  owner */\n      tag_165\n        /* \"Fop.sol\":13138:13145  owner() */\n      jump\t// in\n    tag_364:\n        /* \"Fop.sol\":13122:13145  address _from = owner() */\n      swap1\n      pop\n        /* \"Fop.sol\":13186:13195  uint256 i */\n      0x00\n        /* \"Fop.sol\":13181:13486  for (uint256 i = 0; i < _input.length; i++) {... */\n    tag_365:\n        /* \"Fop.sol\":13205:13211  _input */\n      dup5\n      dup5\n        /* \"Fop.sol\":13205:13218  _input.length */\n      swap1\n      pop\n        /* \"Fop.sol\":13201:13202  i */\n      dup2\n        /* \"Fop.sol\":13201:13218  i < _input.length */\n      lt\n        /* \"Fop.sol\":13181:13486  for (uint256 i = 0; i < _input.length; i++) {... */\n      iszero\n      tag_366\n      jumpi\n        /* \"Fop.sol\":13244:13256  address addr */\n      0x00\n        /* \"Fop.sol\":13259:13265  _input */\n      dup6\n      dup6\n        /* \"Fop.sol\":13266:13267  i */\n      dup4\n        /* \"Fop.sol\":13259:13268  _input[i] */\n      dup2\n      dup2\n      lt\n      tag_368\n      jumpi\n      tag_369\n      tag_370\n      jump\t// in\n    tag_369:\n    tag_368:\n      swap1\n      pop\n      0x20\n      mul\n      add\n      0x20\n      dup2\n      add\n      swap1\n      tag_371\n      swap2\n      swap1\n      tag_102\n      jump\t// in\n    tag_371:\n        /* \"Fop.sol\":13244:13268  address addr = _input[i] */\n      swap1\n      pop\n        /* \"Fop.sol\":13333:13334  0 */\n      0x00\n        /* \"Fop.sol\":13317:13335  addr != address(0) */\n      0xffffffffffffffffffffffffffffffffffffffff\n      and\n        /* \"Fop.sol\":13317:13321  addr */\n      dup2\n        /* \"Fop.sol\":13317:13335  addr != address(0) */\n      0xffffffffffffffffffffffffffffffffffffffff\n      and\n      sub\n        /* \"Fop.sol\":13287:13414  require(... */\n      tag_372\n      jumpi\n      mload(0x40)\n      0x08c379a000000000000000000000000000000000000000000000000000000000\n      dup2\n      mstore\n      0x04\n      add\n      tag_373\n      swap1\n      tag_374\n      jump\t// in\n    tag_373:\n      mload(0x40)\n      dup1\n      swap2\n      sub\n      swap1\n      revert\n    tag_372:\n        /* \"Fop.sol\":13433:13470  _transferTokens(_from, addr, _amount) */\n      tag_375\n        /* \"Fop.sol\":13449:13454  _from */\n      dup4\n        /* \"Fop.sol\":13456:13460  addr */\n      dup3\n        /* \"Fop.sol\":13462:13469  _amount */\n      dup7\n        /* \"Fop.sol\":13433:13448  _transferTokens */\n      tag_376\n        /* \"Fop.sol\":13433:13470  _transferTokens(_from, addr, _amount) */\n      jump\t// in\n    tag_375:\n        /* \"Fop.sol\":13225:13486  {... */\n      pop\n        /* \"Fop.sol\":13220:13223  i++ */\n      dup1\n      dup1\n      0x01\n      add\n      swap2\n      pop\n      pop\n        /* \"Fop.sol\":13181:13486  for (uint256 i = 0; i < _input.length; i++) {... */\n      jump(tag_365)\n    tag_366:\n      pop\n        /* \"Fop.sol\":13111:13504  {... */\n      pop\n        /* \"Fop.sol\":13005:13504  function TransferEx(... */\n      pop\n      pop\n      pop\n      jump\t// out\n        /* \"Fop.sol\":7878:7917  uint256 public _buyTaxPercentage = 2000 */\n    tag_217:\n      sload(0x08)\n      dup2\n      jump\t// out\n        /* \"Fop.sol\":8327:8368  uint256 public _liquidityTaxShare = 16666 */\n    tag_221:\n      sload(0x0e)\n      dup2\n      jump\t// out\n        /* \"Fop.sol\":11169:11337  function allowance(... */\n    tag_227:\n        /* \"Fop.sol\":11275:11282  uint256 */\n      0x00\n        /* \"Fop.sol\":11302:11313  _allowances */\n      0x03\n        /* \"Fop.sol\":11302:11320  _allowances[owner] */\n      0x00\n        /* \"Fop.sol\":11314:11319  owner */\n      dup5\n        /* \"Fop.sol\":11302:11320  _allowances[owner] */\n      0xffffffffffffffffffffffffffffffffffffffff\n      and\n      0xffffffffffffffffffffffffffffffffffffffff\n      and\n      dup2\n      mstore\n      0x20\n      add\n      swap1\n      dup2\n      mstore\n      0x20\n      add\n      0x00\n      keccak256\n        /* \"Fop.sol\":11302:11329  _allowances[owner][spender] */\n      0x00\n        /* \"Fop.sol\":11321:11328  spender */\n      dup4\n        /* \"Fop.sol\":11302:11329  _allowances[owner][spender] */\n      0xffffffffffffffffffffffffffffffffffffffff\n      and\n      0xffffffffffffffffffffffffffffffffffffffff\n      and\n      dup2\n      mstore\n      0x20\n      add\n      swap1\n      dup2\n      mstore\n      0x20\n      add\n      0x00\n      keccak256\n      sload\n        /* \"Fop.sol\":11295:11329  return _allowances[owner][spender] */\n      swap1\n      pop\n        /* \"Fop.sol\":11169:11337  function allowance(... */\n      swap3\n      swap2\n      pop\n      pop\n      jump\t// out\n        /* \"Fop.sol\":4088:4326  function transferOwnership(address newOwner) public virtual onlyOwner {... */\n    tag_232:\n        /* \"Fop.sol\":3064:3077  _checkOwner() */\n      tag_379\n        /* \"Fop.sol\":3064:3075  _checkOwner */\n      tag_249\n        /* \"Fop.sol\":3064:3077  _checkOwner() */\n      jump\t// in\n    tag_379:\n        /* \"Fop.sol\":4211:4212  0 */\n      0x00\n        /* \"Fop.sol\":4191:4213  newOwner != address(0) */\n      0xffffffffffffffffffffffffffffffffffffffff\n      and\n        /* \"Fop.sol\":4191:4199  newOwner */\n      dup2\n        /* \"Fop.sol\":4191:4213  newOwner != address(0) */\n      0xffffffffffffffffffffffffffffffffffffffff\n      and\n      sub\n        /* \"Fop.sol\":4169:4279  require(... */\n      tag_381\n      jumpi\n      mload(0x40)\n      0x08c379a000000000000000000000000000000000000000000000000000000000\n      dup2\n      mstore\n      0x04\n      add\n      tag_382\n      swap1\n      tag_383\n      jump\t// in\n    tag_382:\n      mload(0x40)\n      dup1\n      swap2\n      sub\n      swap1\n      revert\n    tag_381:\n        /* \"Fop.sol\":4290:4318  _transferOwnership(newOwner) */\n      tag_384\n        /* \"Fop.sol\":4309:4317  newOwner */\n      dup2\n        /* \"Fop.sol\":4290:4308  _transferOwnership */\n      tag_315\n        /* \"Fop.sol\":4290:4318  _transferOwnership(newOwner) */\n      jump\t// in\n    tag_384:\n        /* \"Fop.sol\":4088:4326  function transferOwnership(address newOwner) public virtual onlyOwner {... */\n      pop\n      jump\t// out\n        /* \"Fop.sol\":8198:8233  uint256 public _buyTaxShare = 33333 */\n    tag_235:\n      sload(0x0c)\n      dup2\n      jump\t// out\n        /* \"Fop.sol\":17020:17133  function isBlacklisted(address account) public view returns (bool) {... */\n    tag_240:\n        /* \"Fop.sol\":17081:17085  bool */\n      0x00\n        /* \"Fop.sol\":17105:17116  blacklisted */\n      0x04\n        /* \"Fop.sol\":17105:17125  blacklisted[account] */\n      0x00\n        /* \"Fop.sol\":17117:17124  account */\n      dup4\n        /* \"Fop.sol\":17105:17125  blacklisted[account] */\n      0xffffffffffffffffffffffffffffffffffffffff\n      and\n      0xffffffffffffffffffffffffffffffffffffffff\n      and\n      dup2\n      mstore\n      0x20\n      add\n      swap1\n      dup2\n      mstore\n      0x20\n      add\n      0x00\n      keccak256\n      0x00\n      swap1\n      sload\n      swap1\n      0x0100\n      exp\n      swap1\n      div\n      0xff\n      and\n        /* \"Fop.sol\":17098:17125  return blacklisted[account] */\n      swap1\n      pop\n        /* \"Fop.sol\":17020:17133  function isBlacklisted(address account) public view returns (bool) {... */\n      swap2\n      swap1\n      pop\n      jump\t// out\n        /* \"Fop.sol\":11506:11849  function _approve(address sender, address spender, uint256 amount) internal {... */\n    tag_245:\n        /* \"Fop.sol\":11619:11620  0 */\n      0x00\n        /* \"Fop.sol\":11601:11621  sender != address(0) */\n      0xffffffffffffffffffffffffffffffffffffffff\n      and\n        /* \"Fop.sol\":11601:11607  sender */\n      dup4\n        /* \"Fop.sol\":11601:11621  sender != address(0) */\n      0xffffffffffffffffffffffffffffffffffffffff\n      and\n      sub\n        /* \"Fop.sol\":11593:11662  require(sender != address(0), \"ERC20: approve from the zero address\") */\n      tag_387\n      jumpi\n      mload(0x40)\n      0x08c379a000000000000000000000000000000000000000000000000000000000\n      dup2\n      mstore\n      0x04\n      add\n      tag_388\n      swap1\n      tag_389\n      jump\t// in\n    tag_388:\n      mload(0x40)\n      dup1\n      swap2\n      sub\n      swap1\n      revert\n    tag_387:\n        /* \"Fop.sol\":11700:11701  0 */\n      0x00\n        /* \"Fop.sol\":11681:11702  spender != address(0) */\n      0xffffffffffffffffffffffffffffffffffffffff\n      and\n        /* \"Fop.sol\":11681:11688  spender */\n      dup3\n        /* \"Fop.sol\":11681:11702  spender != address(0) */\n      0xffffffffffffffffffffffffffffffffffffffff\n      and\n      sub\n        /* \"Fop.sol\":11673:11741  require(spender != address(0), \"ERC20: approve to the zero address\") */\n      tag_390\n      jumpi\n      mload(0x40)\n      0x08c379a000000000000000000000000000000000000000000000000000000000\n      dup2\n      mstore\n      0x04\n      add\n      tag_391\n      swap1\n      tag_392\n      jump\t// in\n    tag_391:\n      mload(0x40)\n      dup1\n      swap2\n      sub\n      swap1\n      revert\n    tag_390:\n        /* \"Fop.sol\":11786:11792  amount */\n      dup1\n        /* \"Fop.sol\":11755:11766  _allowances */\n      0x03\n        /* \"Fop.sol\":11755:11774  _allowances[sender] */\n      0x00\n        /* \"Fop.sol\":11767:11773  sender */\n      dup6\n        /* \"Fop.sol\":11755:11774  _allowances[sender] */\n      0xffffffffffffffffffffffffffffffffffffffff\n      and\n      0xffffffffffffffffffffffffffffffffffffffff\n      and\n      dup2\n      mstore\n      0x20\n      add\n      swap1\n      dup2\n      mstore\n      0x20\n      add\n      0x00\n      keccak256\n        /* \"Fop.sol\":11755:11783  _allowances[sender][spender] */\n      0x00\n        /* \"Fop.sol\":11775:11782  spender */\n      dup5\n        /* \"Fop.sol\":11755:11783  _allowances[sender][spender] */\n      0xffffffffffffffffffffffffffffffffffffffff\n      and\n      0xffffffffffffffffffffffffffffffffffffffff\n      and\n      dup2\n      mstore\n      0x20\n      add\n      swap1\n      dup2\n      mstore\n      0x20\n      add\n      0x00\n      keccak256\n        /* \"Fop.sol\":11755:11792  _allowances[sender][spender] = amount */\n      dup2\n      swap1\n      sstore\n      pop\n        /* \"Fop.sol\":11825:11832  spender */\n      dup2\n        /* \"Fop.sol\":11808:11841  Approval(sender, spender, amount) */\n      0xffffffffffffffffffffffffffffffffffffffff\n      and\n        /* \"Fop.sol\":11817:11823  sender */\n      dup4\n        /* \"Fop.sol\":11808:11841  Approval(sender, spender, amount) */\n      0xffffffffffffffffffffffffffffffffffffffff\n      and\n      0x8c5be1e5ebec7d5bd14f71427d1e84f3dd0314c0f7b2291e5b200ac8c7c3b925\n        /* \"Fop.sol\":11834:11840  amount */\n      dup4\n        /* \"Fop.sol\":11808:11841  Approval(sender, spender, amount) */\n      mload(0x40)\n      tag_393\n      swap2\n      swap1\n      tag_81\n      jump\t// in\n    tag_393:\n      mload(0x40)\n      dup1\n      swap2\n      sub\n      swap1\n      log3\n        /* \"Fop.sol\":11506:11849  function _approve(address sender, address spender, uint256 amount) internal {... */\n      pop\n      pop\n      pop\n      jump\t// out\n        /* \"Fop.sol\":3345:3477  function _checkOwner() internal view virtual {... */\n    tag_249:\n        /* \"Fop.sol\":3420:3432  _msgSender() */\n      tag_395\n        /* \"Fop.sol\":3420:3430  _msgSender */\n      tag_269\n        /* \"Fop.sol\":3420:3432  _msgSender() */\n      jump\t// in\n    tag_395:\n        /* \"Fop.sol\":3409:3432  owner() == _msgSender() */\n      0xffffffffffffffffffffffffffffffffffffffff\n      and\n        /* \"Fop.sol\":3409:3416  owner() */\n      tag_396\n        /* \"Fop.sol\":3409:3414  owner */\n      tag_165\n        /* \"Fop.sol\":3409:3416  owner() */\n      jump\t// in\n    tag_396:\n        /* \"Fop.sol\":3409:3432  owner() == _msgSender() */\n      0xffffffffffffffffffffffffffffffffffffffff\n      and\n      eq\n        /* \"Fop.sol\":3401:3469  require(owner() == _msgSender(), \"Ownable: caller is not the owner\") */\n      tag_397\n      jumpi\n      mload(0x40)\n      0x08c379a000000000000000000000000000000000000000000000000000000000\n      dup2\n      mstore\n      0x04\n      add\n      tag_398\n      swap1\n      tag_399\n      jump\t// in\n    tag_398:\n      mload(0x40)\n      dup1\n      swap2\n      sub\n      swap1\n      revert\n    tag_397:\n        /* \"Fop.sol\":3345:3477  function _checkOwner() internal view virtual {... */\n      jump\t// out\n        /* \"Fop.sol\":11858:12360  function _spendAllowance(... */\n    tag_255:\n        /* \"Fop.sol\":11993:12017  uint256 currentAllowance */\n      0x00\n        /* \"Fop.sol\":12020:12045  allowance(owner, spender) */\n      tag_401\n        /* \"Fop.sol\":12030:12035  owner */\n      dup5\n        /* \"Fop.sol\":12037:12044  spender */\n      dup5\n        /* \"Fop.sol\":12020:12029  allowance */\n      tag_227\n        /* \"Fop.sol\":12020:12045  allowance(owner, spender) */\n      jump\t// in\n    tag_401:\n        /* \"Fop.sol\":11993:12045  uint256 currentAllowance = allowance(owner, spender) */\n      swap1\n      pop\n        /* \"Fop.sol\":12080:12097  type(uint256).max */\n      0xffffffffffffffffffffffffffffffffffffffffffffffffffffffffffffffff\n        /* \"Fop.sol\":12060:12076  currentAllowance */\n      dup2\n        /* \"Fop.sol\":12060:12097  currentAllowance != type(uint256).max */\n      eq\n        /* \"Fop.sol\":12056:12353  if (currentAllowance != type(uint256).max) {... */\n      tag_402\n      jumpi\n        /* \"Fop.sol\":12160:12166  amount */\n      dup2\n        /* \"Fop.sol\":12140:12156  currentAllowance */\n      dup2\n        /* \"Fop.sol\":12140:12166  currentAllowance >= amount */\n      lt\n      iszero\n        /* \"Fop.sol\":12114:12231  require(... */\n      tag_403\n      jumpi\n      mload(0x40)\n      0x08c379a000000000000000000000000000000000000000000000000000000000\n      dup2\n      mstore\n      0x04\n      add\n      tag_404\n      swap1\n      tag_405\n      jump\t// in\n    tag_404:\n      mload(0x40)\n      dup1\n      swap2\n      sub\n      swap1\n      revert\n    tag_403:\n        /* \"Fop.sol\":12275:12326  _approve(owner, spender, currentAllowance - amount) */\n      tag_406\n        /* \"Fop.sol\":12284:12289  owner */\n      dup5\n        /* \"Fop.sol\":12291:12298  spender */\n      dup5\n        /* \"Fop.sol\":12319:12325  amount */\n      dup5\n        /* \"Fop.sol\":12300:12316  currentAllowance */\n      dup5\n        /* \"Fop.sol\":12300:12325  currentAllowance - amount */\n      sub\n        /* \"Fop.sol\":12275:12283  _approve */\n      tag_245\n        /* \"Fop.sol\":12275:12326  _approve(owner, spender, currentAllowance - amount) */\n      jump\t// in\n    tag_406:\n        /* \"Fop.sol\":12056:12353  if (currentAllowance != type(uint256).max) {... */\n    tag_402:\n        /* \"Fop.sol\":11982:12360  {... */\n      pop\n        /* \"Fop.sol\":11858:12360  function _spendAllowance(... */\n      pop\n      pop\n      pop\n      jump\t// out\n        /* \"Fop.sol\":19461:21974  function _transfer(address sender, address recipient, uint256 amount) internal {... */\n    tag_257:\n        /* \"Fop.sol\":19577:19578  0 */\n      0x00\n        /* \"Fop.sol\":19559:19579  sender != address(0) */\n      0xffffffffffffffffffffffffffffffffffffffff\n      and\n        /* \"Fop.sol\":19559:19565  sender */\n      dup4\n        /* \"Fop.sol\":19559:19579  sender != address(0) */\n      0xffffffffffffffffffffffffffffffffffffffff\n      and\n      sub\n        /* \"Fop.sol\":19551:19621  require(sender != address(0), \"ERC20: transfer from the zero address\") */\n      tag_408\n      jumpi\n      mload(0x40)\n      0x08c379a000000000000000000000000000000000000000000000000000000000\n      dup2\n      mstore\n      0x04\n      add\n      tag_409\n      swap1\n      tag_410\n      jump\t// in\n    tag_409:\n      mload(0x40)\n      dup1\n      swap2\n      sub\n      swap1\n      revert\n    tag_408:\n        /* \"Fop.sol\":19661:19662  0 */\n      0x00\n        /* \"Fop.sol\":19640:19663  recipient != address(0) */\n      0xffffffffffffffffffffffffffffffffffffffff\n      and\n        /* \"Fop.sol\":19640:19649  recipient */\n      dup3\n        /* \"Fop.sol\":19640:19663  recipient != address(0) */\n      0xffffffffffffffffffffffffffffffffffffffff\n      and\n      sub\n        /* \"Fop.sol\":19632:19703  require(recipient != address(0), \"ERC20: transfer to the zero address\") */\n      tag_411\n      jumpi\n      mload(0x40)\n      0x08c379a000000000000000000000000000000000000000000000000000000000\n      dup2\n      mstore\n      0x04\n      add\n      tag_412\n      swap1\n      tag_374\n      jump\t// in\n    tag_412:\n      mload(0x40)\n      dup1\n      swap2\n      sub\n      swap1\n      revert\n    tag_411:\n        /* \"Fop.sol\":19731:19732  0 */\n      0x00\n        /* \"Fop.sol\":19722:19728  amount */\n      dup2\n        /* \"Fop.sol\":19722:19732  amount > 0 */\n      gt\n        /* \"Fop.sol\":19714:19778  require(amount > 0, \"Transfer amount must be greater than zero\") */\n      tag_413\n      jumpi\n      mload(0x40)\n      0x08c379a000000000000000000000000000000000000000000000000000000000\n      dup2\n      mstore\n      0x04\n      add\n      tag_414\n      swap1\n      tag_415\n      jump\t// in\n    tag_414:\n      mload(0x40)\n      dup1\n      swap2\n      sub\n      swap1\n      revert\n    tag_413:\n        /* \"Fop.sol\":19801:19812  blacklisted */\n      0x04\n        /* \"Fop.sol\":19801:19820  blacklisted[sender] */\n      0x00\n        /* \"Fop.sol\":19813:19819  sender */\n      dup5\n        /* \"Fop.sol\":19801:19820  blacklisted[sender] */\n      0xffffffffffffffffffffffffffffffffffffffff\n      and\n      0xffffffffffffffffffffffffffffffffffffffff\n      and\n      dup2\n      mstore\n      0x20\n      add\n      swap1\n      dup2\n      mstore\n      0x20\n      add\n      0x00\n      keccak256\n      0x00\n      swap1\n      sload\n      swap1\n      0x0100\n      exp\n      swap1\n      div\n      0xff\n      and\n        /* \"Fop.sol\":19800:19820  !blacklisted[sender] */\n      iszero\n        /* \"Fop.sol\":19792:19846  require(!blacklisted[sender], \"Sender is blacklisted\") */\n      tag_416\n      jumpi\n      mload(0x40)\n      0x08c379a000000000000000000000000000000000000000000000000000000000\n      dup2\n      mstore\n      0x04\n      add\n      tag_417\n      swap1\n      tag_418\n      jump\t// in\n    tag_417:\n      mload(0x40)\n      dup1\n      swap2\n      sub\n      swap1\n      revert\n    tag_416:\n        /* \"Fop.sol\":19866:19877  blacklisted */\n      0x04\n        /* \"Fop.sol\":19866:19888  blacklisted[recipient] */\n      0x00\n        /* \"Fop.sol\":19878:19887  recipient */\n      dup4\n        /* \"Fop.sol\":19866:19888  blacklisted[recipient] */\n      0xffffffffffffffffffffffffffffffffffffffff\n      and\n      0xffffffffffffffffffffffffffffffffffffffff\n      and\n      dup2\n      mstore\n      0x20\n      add\n      swap1\n      dup2\n      mstore\n      0x20\n      add\n      0x00\n      keccak256\n      0x00\n      swap1\n      sload\n      swap1\n      0x0100\n      exp\n      swap1\n      div\n      0xff\n      and\n        /* \"Fop.sol\":19865:19888  !blacklisted[recipient] */\n      iszero\n        /* \"Fop.sol\":19857:19917  require(!blacklisted[recipient], \"Recipient is blacklisted\") */\n      tag_419\n      jumpi\n      mload(0x40)\n      0x08c379a000000000000000000000000000000000000000000000000000000000\n      dup2\n      mstore\n      0x04\n      add\n      tag_420\n      swap1\n      tag_421\n      jump\t// in\n    tag_420:\n      mload(0x40)\n      dup1\n      swap2\n      sub\n      swap1\n      revert\n    tag_419:\n        /* \"Fop.sol\":19939:19946  _paused */\n      0x10\n      0x14\n      swap1\n      sload\n      swap1\n      0x0100\n      exp\n      swap1\n      div\n      0xff\n      and\n        /* \"Fop.sol\":19938:19946  !_paused */\n      iszero\n        /* \"Fop.sol\":19930:19968  require(!_paused, \"Trading is paused\") */\n      tag_422\n      jumpi\n      mload(0x40)\n      0x08c379a000000000000000000000000000000000000000000000000000000000\n      dup2\n      mstore\n      0x04\n      add\n      tag_423\n      swap1\n      tag_424\n      jump\t// in\n    tag_423:\n      mload(0x40)\n      dup1\n      swap2\n      sub\n      swap1\n      revert\n    tag_422:\n        /* \"Fop.sol\":19995:19996  0 */\n      0x00\n        /* \"Fop.sol\":19985:19991  amount */\n      dup2\n        /* \"Fop.sol\":19985:19996  amount == 0 */\n      sub\n        /* \"Fop.sol\":19981:20083  if (amount == 0) {... */\n      tag_425\n      jumpi\n        /* \"Fop.sol\":20013:20050  _transferTokens(sender, recipient, 0) */\n      tag_426\n        /* \"Fop.sol\":20029:20035  sender */\n      dup4\n        /* \"Fop.sol\":20037:20046  recipient */\n      dup4\n        /* \"Fop.sol\":20048:20049  0 */\n      0x00\n        /* \"Fop.sol\":20013:20028  _transferTokens */\n      tag_376\n        /* \"Fop.sol\":20013:20050  _transferTokens(sender, recipient, 0) */\n      jump\t// in\n    tag_426:\n        /* \"Fop.sol\":20065:20072  return; */\n      jump(tag_407)\n        /* \"Fop.sol\":19981:20083  if (amount == 0) {... */\n    tag_425:\n        /* \"Fop.sol\":20095:20105  bool isBuy */\n      0x00\n        /* \"Fop.sol\":20118:20130  _uniswapPair */\n      0x10\n      0x00\n      swap1\n      sload\n      swap1\n      0x0100\n      exp\n      swap1\n      div\n      0xffffffffffffffffffffffffffffffffffffffff\n      and\n        /* \"Fop.sol\":20108:20130  sender == _uniswapPair */\n      0xffffffffffffffffffffffffffffffffffffffff\n      and\n        /* \"Fop.sol\":20108:20114  sender */\n      dup5\n        /* \"Fop.sol\":20108:20130  sender == _uniswapPair */\n      0xffffffffffffffffffffffffffffffffffffffff\n      and\n      eq\n        /* \"Fop.sol\":20095:20130  bool isBuy = sender == _uniswapPair */\n      swap1\n      pop\n        /* \"Fop.sol\":20141:20152  bool isSell */\n      0x00\n        /* \"Fop.sol\":20168:20180  _uniswapPair */\n      0x10\n      0x00\n      swap1\n      sload\n      swap1\n      0x0100\n      exp\n      swap1\n      div\n      0xffffffffffffffffffffffffffffffffffffffff\n      and\n        /* \"Fop.sol\":20155:20180  recipient == _uniswapPair */\n      0xffffffffffffffffffffffffffffffffffffffff\n      and\n        /* \"Fop.sol\":20155:20164  recipient */\n      dup5\n        /* \"Fop.sol\":20155:20180  recipient == _uniswapPair */\n      0xffffffffffffffffffffffffffffffffffffffff\n      and\n      eq\n        /* \"Fop.sol\":20141:20180  bool isSell = recipient == _uniswapPair */\n      swap1\n      pop\n        /* \"Fop.sol\":20193:20207  uint256 buyTax */\n      0x00\n        /* \"Fop.sol\":20218:20233  uint256 sellTax */\n      dup1\n        /* \"Fop.sol\":20244:20264  uint256 liquidityTax */\n      0x00\n        /* \"Fop.sol\":20277:20305  uint256 contractTokenBalance */\n      dup1\n        /* \"Fop.sol\":20308:20332  balanceOf(address(this)) */\n      tag_427\n        /* \"Fop.sol\":20326:20330  this */\n      address\n        /* \"Fop.sol\":20308:20317  balanceOf */\n      tag_147\n        /* \"Fop.sol\":20308:20332  balanceOf(address(this)) */\n      jump\t// in\n    tag_427:\n        /* \"Fop.sol\":20277:20332  uint256 contractTokenBalance = balanceOf(address(this)) */\n      swap1\n      pop\n        /* \"Fop.sol\":20343:20355  bool canSwap */\n      0x00\n        /* \"Fop.sol\":20382:20401  _liquidityThreshold */\n      sload(0x0b)\n        /* \"Fop.sol\":20358:20378  contractTokenBalance */\n      dup3\n        /* \"Fop.sol\":20358:20401  contractTokenBalance >= _liquidityThreshold */\n      lt\n      iszero\n        /* \"Fop.sol\":20343:20401  bool canSwap = contractTokenBalance >= _liquidityThreshold */\n      swap1\n      pop\n        /* \"Fop.sol\":20432:20439  canSwap */\n      dup1\n        /* \"Fop.sol\":20432:20467  canSwap &&... */\n      dup1\n      iszero\n      tag_428\n      jumpi\n      pop\n        /* \"Fop.sol\":20456:20467  swapEnabled */\n      0x10\n      0x16\n      swap1\n      sload\n      swap1\n      0x0100\n      exp\n      swap1\n      div\n      0xff\n      and\n        /* \"Fop.sol\":20432:20467  canSwap &&... */\n    tag_428:\n        /* \"Fop.sol\":20432:20493  canSwap &&... */\n      dup1\n      iszero\n      tag_429\n      jumpi\n      pop\n        /* \"Fop.sol\":20485:20493  swapping */\n      0x10\n      0x15\n      swap1\n      sload\n      swap1\n      0x0100\n      exp\n      swap1\n      div\n      0xff\n      and\n        /* \"Fop.sol\":20484:20493  !swapping */\n      iszero\n        /* \"Fop.sol\":20432:20493  canSwap &&... */\n    tag_429:\n        /* \"Fop.sol\":20432:20544  canSwap &&... */\n      dup1\n      iszero\n      tag_430\n      jumpi\n      pop\n        /* \"Fop.sol\":20511:20536  automatedMarketMakerPairs */\n      0x06\n        /* \"Fop.sol\":20511:20544  automatedMarketMakerPairs[sender] */\n      0x00\n        /* \"Fop.sol\":20537:20543  sender */\n      dup12\n        /* \"Fop.sol\":20511:20544  automatedMarketMakerPairs[sender] */\n      0xffffffffffffffffffffffffffffffffffffffff\n      and\n      0xffffffffffffffffffffffffffffffffffffffff\n      and\n      dup2\n      mstore\n      0x20\n      add\n      swap1\n      dup2\n      mstore\n      0x20\n      add\n      0x00\n      keccak256\n      0x00\n      swap1\n      sload\n      swap1\n      0x0100\n      exp\n      swap1\n      div\n      0xff\n      and\n        /* \"Fop.sol\":20510:20544  !automatedMarketMakerPairs[sender] */\n      iszero\n        /* \"Fop.sol\":20432:20544  canSwap &&... */\n    tag_430:\n        /* \"Fop.sol\":20432:20588  canSwap &&... */\n      dup1\n      iszero\n      tag_431\n      jumpi\n      pop\n        /* \"Fop.sol\":20562:20580  _isExcludedFromFee */\n      0x05\n        /* \"Fop.sol\":20562:20588  _isExcludedFromFee[sender] */\n      0x00\n        /* \"Fop.sol\":20581:20587  sender */\n      dup12\n        /* \"Fop.sol\":20562:20588  _isExcludedFromFee[sender] */\n      0xffffffffffffffffffffffffffffffffffffffff\n      and\n      0xffffffffffffffffffffffffffffffffffffffff\n      and\n      dup2\n      mstore\n      0x20\n      add\n      swap1\n      dup2\n      mstore\n      0x20\n      add\n      0x00\n      keccak256\n      0x00\n      swap1\n      sload\n      swap1\n      0x0100\n      exp\n      swap1\n      div\n      0xff\n      and\n        /* \"Fop.sol\":20561:20588  !_isExcludedFromFee[sender] */\n      iszero\n        /* \"Fop.sol\":20432:20588  canSwap &&... */\n    tag_431:\n        /* \"Fop.sol\":20432:20635  canSwap &&... */\n      dup1\n      iszero\n      tag_432\n      jumpi\n      pop\n        /* \"Fop.sol\":20606:20624  _isExcludedFromFee */\n      0x05\n        /* \"Fop.sol\":20606:20635  _isExcludedFromFee[recipient] */\n      0x00\n        /* \"Fop.sol\":20625:20634  recipient */\n      dup11\n        /* \"Fop.sol\":20606:20635  _isExcludedFromFee[recipient] */\n      0xffffffffffffffffffffffffffffffffffffffff\n      and\n      0xffffffffffffffffffffffffffffffffffffffff\n      and\n      dup2\n      mstore\n      0x20\n      add\n      swap1\n      dup2\n      mstore\n      0x20\n      add\n      0x00\n      keccak256\n      0x00\n      swap1\n      sload\n      swap1\n      0x0100\n      exp\n      swap1\n      div\n      0xff\n      and\n        /* \"Fop.sol\":20605:20635  !_isExcludedFromFee[recipient] */\n      iszero\n        /* \"Fop.sol\":20432:20635  canSwap &&... */\n    tag_432:\n        /* \"Fop.sol\":20414:20824  if (... */\n      iszero\n      tag_433\n      jumpi\n        /* \"Fop.sol\":20673:20677  true */\n      0x01\n        /* \"Fop.sol\":20662:20670  swapping */\n      0x10\n      0x15\n        /* \"Fop.sol\":20662:20677  swapping = true */\n      0x0100\n      exp\n      dup2\n      sload\n      dup2\n      0xff\n      mul\n      not\n      and\n      swap1\n      dup4\n      iszero\n      iszero\n      mul\n      or\n      swap1\n      sstore\n      pop\n        /* \"Fop.sol\":20692:20708  swapAndLiquify() */\n      tag_434\n        /* \"Fop.sol\":20692:20706  swapAndLiquify */\n      tag_435\n        /* \"Fop.sol\":20692:20708  swapAndLiquify() */\n      jump\t// in\n    tag_434:\n        /* \"Fop.sol\":20731:20746  marketingWallet */\n      0x07\n      0x00\n      swap1\n      sload\n      swap1\n      0x0100\n      exp\n      swap1\n      div\n      0xffffffffffffffffffffffffffffffffffffffff\n      and\n        /* \"Fop.sol\":20723:20756  payable(marketingWallet).transfer */\n      0xffffffffffffffffffffffffffffffffffffffff\n      and\n        /* \"Fop.sol\":20723:20779  payable(marketingWallet).transfer(address(this).balance) */\n      0x08fc\n        /* \"Fop.sol\":20757:20778  address(this).balance */\n      selfbalance\n        /* \"Fop.sol\":20723:20779  payable(marketingWallet).transfer(address(this).balance) */\n      swap1\n      dup2\n      iszero\n      mul\n      swap1\n      mload(0x40)\n      0x00\n      mload(0x40)\n      dup1\n      dup4\n      sub\n      dup2\n      dup6\n      dup9\n      dup9\n      call\n      swap4\n      pop\n      pop\n      pop\n      pop\n      iszero\n      dup1\n      iszero\n      tag_437\n      jumpi\n      returndatasize\n      0x00\n      dup1\n      returndatacopy\n      revert(0x00, returndatasize)\n    tag_437:\n      pop\n        /* \"Fop.sol\":20805:20810  false */\n      0x00\n        /* \"Fop.sol\":20794:20802  swapping */\n      0x10\n      0x15\n        /* \"Fop.sol\":20794:20810  swapping = false */\n      0x0100\n      exp\n      dup2\n      sload\n      dup2\n      0xff\n      mul\n      not\n      and\n      swap1\n      dup4\n      iszero\n      iszero\n      mul\n      or\n      swap1\n      sstore\n      pop\n        /* \"Fop.sol\":20414:20824  if (... */\n    tag_433:\n        /* \"Fop.sol\":20844:20856  bool takeFee */\n      0x00\n        /* \"Fop.sol\":20860:20868  swapping */\n      0x10\n      0x15\n      swap1\n      sload\n      swap1\n      0x0100\n      exp\n      swap1\n      div\n      0xff\n      and\n        /* \"Fop.sol\":20859:20868  !swapping */\n      iszero\n        /* \"Fop.sol\":20844:20868  bool takeFee = !swapping */\n      swap1\n      pop\n        /* \"Fop.sol\":20885:20903  _isExcludedFromFee */\n      0x05\n        /* \"Fop.sol\":20885:20911  _isExcludedFromFee[sender] */\n      0x00\n        /* \"Fop.sol\":20904:20910  sender */\n      dup13\n        /* \"Fop.sol\":20885:20911  _isExcludedFromFee[sender] */\n      0xffffffffffffffffffffffffffffffffffffffff\n      and\n      0xffffffffffffffffffffffffffffffffffffffff\n      and\n      dup2\n      mstore\n      0x20\n      add\n      swap1\n      dup2\n      mstore\n      0x20\n      add\n      0x00\n      keccak256\n      0x00\n      swap1\n      sload\n      swap1\n      0x0100\n      exp\n      swap1\n      div\n      0xff\n      and\n        /* \"Fop.sol\":20885:20944  _isExcludedFromFee[sender] || _isExcludedFromFee[recipient] */\n      dup1\n      tag_438\n      jumpi\n      pop\n        /* \"Fop.sol\":20915:20933  _isExcludedFromFee */\n      0x05\n        /* \"Fop.sol\":20915:20944  _isExcludedFromFee[recipient] */\n      0x00\n        /* \"Fop.sol\":20934:20943  recipient */\n      dup12\n        /* \"Fop.sol\":20915:20944  _isExcludedFromFee[recipient] */\n      0xffffffffffffffffffffffffffffffffffffffff\n      and\n      0xffffffffffffffffffffffffffffffffffffffff\n      and\n      dup2\n      mstore\n      0x20\n      add\n      swap1\n      dup2\n      mstore\n      0x20\n      add\n      0x00\n      keccak256\n      0x00\n      swap1\n      sload\n      swap1\n      0x0100\n      exp\n      swap1\n      div\n      0xff\n      and\n        /* \"Fop.sol\":20885:20944  _isExcludedFromFee[sender] || _isExcludedFromFee[recipient] */\n    tag_438:\n        /* \"Fop.sol\":20881:20988  if (_isExcludedFromFee[sender] || _isExcludedFromFee[recipient]) {... */\n      iszero\n      tag_439\n      jumpi\n        /* \"Fop.sol\":20971:20976  false */\n      0x00\n        /* \"Fop.sol\":20961:20976  takeFee = false */\n      swap1\n      pop\n        /* \"Fop.sol\":20881:20988  if (_isExcludedFromFee[sender] || _isExcludedFromFee[recipient]) {... */\n    tag_439:\n        /* \"Fop.sol\":21000:21012  uint256 fees */\n      0x00\n        /* \"Fop.sol\":21033:21040  takeFee */\n      dup2\n        /* \"Fop.sol\":21029:21914  if (takeFee) {... */\n      iszero\n      tag_440\n      jumpi\n        /* \"Fop.sol\":21061:21086  automatedMarketMakerPairs */\n      0x06\n        /* \"Fop.sol\":21061:21094  automatedMarketMakerPairs[sender] */\n      0x00\n        /* \"Fop.sol\":21087:21093  sender */\n      dup14\n        /* \"Fop.sol\":21061:21094  automatedMarketMakerPairs[sender] */\n      0xffffffffffffffffffffffffffffffffffffffff\n      and\n      0xffffffffffffffffffffffffffffffffffffffff\n      and\n      dup2\n      mstore\n      0x20\n      add\n      swap1\n      dup2\n      mstore\n      0x20\n      add\n      0x00\n      keccak256\n      0x00\n      swap1\n      sload\n      swap1\n      0x0100\n      exp\n      swap1\n      div\n      0xff\n      and\n        /* \"Fop.sol\":21061:21103  automatedMarketMakerPairs[sender] && isBuy */\n      dup1\n      iszero\n      tag_441\n      jumpi\n      pop\n        /* \"Fop.sol\":21098:21103  isBuy */\n      dup9\n        /* \"Fop.sol\":21061:21103  automatedMarketMakerPairs[sender] && isBuy */\n    tag_441:\n        /* \"Fop.sol\":21057:21763  if (automatedMarketMakerPairs[sender] && isBuy) {... */\n      iszero\n      tag_442\n      jumpi\n        /* \"Fop.sol\":21129:21147  _isExcludedFromFee */\n      0x05\n        /* \"Fop.sol\":21129:21158  _isExcludedFromFee[recipient] */\n      0x00\n        /* \"Fop.sol\":21148:21157  recipient */\n      dup13\n        /* \"Fop.sol\":21129:21158  _isExcludedFromFee[recipient] */\n      0xffffffffffffffffffffffffffffffffffffffff\n      and\n      0xffffffffffffffffffffffffffffffffffffffff\n      and\n      dup2\n      mstore\n      0x20\n      add\n      swap1\n      dup2\n      mstore\n      0x20\n      add\n      0x00\n      keccak256\n      0x00\n      swap1\n      sload\n      swap1\n      0x0100\n      exp\n      swap1\n      div\n      0xff\n      and\n        /* \"Fop.sol\":21124:21335  if (!_isExcludedFromFee[recipient]){... */\n      tag_443\n      jumpi\n        /* \"Fop.sol\":21191:21231  _calculateTax(amount, _buyTaxPercentage) */\n      tag_444\n        /* \"Fop.sol\":21205:21211  amount */\n      dup11\n        /* \"Fop.sol\":21213:21230  _buyTaxPercentage */\n      sload(0x08)\n        /* \"Fop.sol\":21191:21204  _calculateTax */\n      tag_445\n        /* \"Fop.sol\":21191:21231  _calculateTax(amount, _buyTaxPercentage) */\n      jump\t// in\n    tag_444:\n        /* \"Fop.sol\":21182:21231  buyTax = _calculateTax(amount, _buyTaxPercentage) */\n      swap7\n      pop\n        /* \"Fop.sol\":21269:21315  _calculateTax(amount, _liquidityTaxPercentage) */\n      tag_446\n        /* \"Fop.sol\":21283:21289  amount */\n      dup11\n        /* \"Fop.sol\":21291:21314  _liquidityTaxPercentage */\n      sload(0x0a)\n        /* \"Fop.sol\":21269:21282  _calculateTax */\n      tag_445\n        /* \"Fop.sol\":21269:21315  _calculateTax(amount, _liquidityTaxPercentage) */\n      jump\t// in\n    tag_446:\n        /* \"Fop.sol\":21254:21315  liquidityTax = _calculateTax(amount, _liquidityTaxPercentage) */\n      swap5\n      pop\n        /* \"Fop.sol\":21124:21335  if (!_isExcludedFromFee[recipient]){... */\n    tag_443:\n        /* \"Fop.sol\":21369:21381  liquidityTax */\n      dup5\n        /* \"Fop.sol\":21360:21366  buyTax */\n      dup8\n        /* \"Fop.sol\":21360:21381  buyTax + liquidityTax */\n      tag_447\n      swap2\n      swap1\n      tag_300\n      jump\t// in\n    tag_447:\n        /* \"Fop.sol\":21353:21381  fees = buyTax + liquidityTax */\n      swap1\n      pop\n        /* \"Fop.sol\":21057:21763  if (automatedMarketMakerPairs[sender] && isBuy) {... */\n      jump(tag_448)\n    tag_442:\n        /* \"Fop.sol\":21423:21448  automatedMarketMakerPairs */\n      0x06\n        /* \"Fop.sol\":21423:21459  automatedMarketMakerPairs[recipient] */\n      0x00\n        /* \"Fop.sol\":21449:21458  recipient */\n      dup13\n        /* \"Fop.sol\":21423:21459  automatedMarketMakerPairs[recipient] */\n      0xffffffffffffffffffffffffffffffffffffffff\n      and\n      0xffffffffffffffffffffffffffffffffffffffff\n      and\n      dup2\n      mstore\n      0x20\n      add\n      swap1\n      dup2\n      mstore\n      0x20\n      add\n      0x00\n      keccak256\n      0x00\n      swap1\n      sload\n      swap1\n      0x0100\n      exp\n      swap1\n      div\n      0xff\n      and\n        /* \"Fop.sol\":21423:21469  automatedMarketMakerPairs[recipient] && isSell */\n      dup1\n      iszero\n      tag_449\n      jumpi\n      pop\n        /* \"Fop.sol\":21463:21469  isSell */\n      dup8\n        /* \"Fop.sol\":21423:21469  automatedMarketMakerPairs[recipient] && isSell */\n    tag_449:\n        /* \"Fop.sol\":21419:21763  if (automatedMarketMakerPairs[recipient] && isSell) {... */\n      iszero\n      tag_450\n      jumpi\n        /* \"Fop.sol\":21495:21513  _isExcludedFromFee */\n      0x05\n        /* \"Fop.sol\":21495:21521  _isExcludedFromFee[sender] */\n      0x00\n        /* \"Fop.sol\":21514:21520  sender */\n      dup14\n        /* \"Fop.sol\":21495:21521  _isExcludedFromFee[sender] */\n      0xffffffffffffffffffffffffffffffffffffffff\n      and\n      0xffffffffffffffffffffffffffffffffffffffff\n      and\n      dup2\n      mstore\n      0x20\n      add\n      swap1\n      dup2\n      mstore\n      0x20\n      add\n      0x00\n      keccak256\n      0x00\n      swap1\n      sload\n      swap1\n      0x0100\n      exp\n      swap1\n      div\n      0xff\n      and\n        /* \"Fop.sol\":21490:21700  if (!_isExcludedFromFee[sender]){... */\n      tag_451\n      jumpi\n        /* \"Fop.sol\":21555:21596  _calculateTax(amount, _sellTaxPercentage) */\n      tag_452\n        /* \"Fop.sol\":21569:21575  amount */\n      dup11\n        /* \"Fop.sol\":21577:21595  _sellTaxPercentage */\n      sload(0x09)\n        /* \"Fop.sol\":21555:21568  _calculateTax */\n      tag_445\n        /* \"Fop.sol\":21555:21596  _calculateTax(amount, _sellTaxPercentage) */\n      jump\t// in\n    tag_452:\n        /* \"Fop.sol\":21545:21596  sellTax = _calculateTax(amount, _sellTaxPercentage) */\n      swap6\n      pop\n        /* \"Fop.sol\":21634:21680  _calculateTax(amount, _liquidityTaxPercentage) */\n      tag_453\n        /* \"Fop.sol\":21648:21654  amount */\n      dup11\n        /* \"Fop.sol\":21656:21679  _liquidityTaxPercentage */\n      sload(0x0a)\n        /* \"Fop.sol\":21634:21647  _calculateTax */\n      tag_445\n        /* \"Fop.sol\":21634:21680  _calculateTax(amount, _liquidityTaxPercentage) */\n      jump\t// in\n    tag_453:\n        /* \"Fop.sol\":21619:21680  liquidityTax = _calculateTax(amount, _liquidityTaxPercentage) */\n      swap5\n      pop\n        /* \"Fop.sol\":21490:21700  if (!_isExcludedFromFee[sender]){... */\n    tag_451:\n        /* \"Fop.sol\":21735:21747  liquidityTax */\n      dup5\n        /* \"Fop.sol\":21725:21732  sellTax */\n      dup7\n        /* \"Fop.sol\":21725:21747  sellTax + liquidityTax */\n      tag_454\n      swap2\n      swap1\n      tag_300\n      jump\t// in\n    tag_454:\n        /* \"Fop.sol\":21718:21747  fees = sellTax + liquidityTax */\n      swap1\n      pop\n        /* \"Fop.sol\":21419:21763  if (automatedMarketMakerPairs[recipient] && isSell) {... */\n    tag_450:\n        /* \"Fop.sol\":21057:21763  if (automatedMarketMakerPairs[sender] && isBuy) {... */\n    tag_448:\n        /* \"Fop.sol\":21790:21791  0 */\n      0x00\n        /* \"Fop.sol\":21783:21787  fees */\n      dup2\n        /* \"Fop.sol\":21783:21791  fees > 0 */\n      gt\n        /* \"Fop.sol\":21779:21872  if (fees > 0) {... */\n      iszero\n      tag_455\n      jumpi\n        /* \"Fop.sol\":21812:21856  _transferTokens(sender, address(this), fees) */\n      tag_456\n        /* \"Fop.sol\":21828:21834  sender */\n      dup13\n        /* \"Fop.sol\":21844:21848  this */\n      address\n        /* \"Fop.sol\":21851:21855  fees */\n      dup4\n        /* \"Fop.sol\":21812:21827  _transferTokens */\n      tag_376\n        /* \"Fop.sol\":21812:21856  _transferTokens(sender, address(this), fees) */\n      jump\t// in\n    tag_456:\n        /* \"Fop.sol\":21779:21872  if (fees > 0) {... */\n    tag_455:\n        /* \"Fop.sol\":21898:21902  fees */\n      dup1\n        /* \"Fop.sol\":21888:21902  amount -= fees */\n      dup11\n      tag_457\n      swap2\n      swap1\n      tag_458\n      jump\t// in\n    tag_457:\n      swap10\n      pop\n        /* \"Fop.sol\":21029:21914  if (takeFee) {... */\n    tag_440:\n        /* \"Fop.sol\":21924:21966  _transferTokens(sender, recipient, amount) */\n      tag_459\n        /* \"Fop.sol\":21940:21946  sender */\n      dup13\n        /* \"Fop.sol\":21948:21957  recipient */\n      dup13\n        /* \"Fop.sol\":21959:21965  amount */\n      dup13\n        /* \"Fop.sol\":21924:21939  _transferTokens */\n      tag_376\n        /* \"Fop.sol\":21924:21966  _transferTokens(sender, recipient, amount) */\n      jump\t// in\n    tag_459:\n        /* \"Fop.sol\":19540:21974  {... */\n      pop\n      pop\n      pop\n      pop\n      pop\n      pop\n      pop\n      pop\n      pop\n        /* \"Fop.sol\":19461:21974  function _transfer(address sender, address recipient, uint256 amount) internal {... */\n    tag_407:\n      pop\n      pop\n      pop\n      jump\t// out\n        /* \"Fop.sol\":1857:1955  function _msgSender() internal view virtual returns (address) {... */\n    tag_269:\n        /* \"Fop.sol\":1910:1917  address */\n      0x00\n        /* \"Fop.sol\":1937:1947  msg.sender */\n      caller\n        /* \"Fop.sol\":1930:1947  return msg.sender */\n      swap1\n      pop\n        /* \"Fop.sol\":1857:1955  function _msgSender() internal view virtual returns (address) {... */\n      swap1\n      jump\t// out\n        /* \"Fop.sol\":4487:4678  function _transferOwnership(address newOwner) internal virtual {... */\n    tag_315:\n        /* \"Fop.sol\":4561:4577  address oldOwner */\n      0x00\n        /* \"Fop.sol\":4580:4586  _owner */\n      dup1\n      0x00\n      swap1\n      sload\n      swap1\n      0x0100\n      exp\n      swap1\n      div\n      0xffffffffffffffffffffffffffffffffffffffff\n      and\n        /* \"Fop.sol\":4561:4586  address oldOwner = _owner */\n      swap1\n      pop\n        /* \"Fop.sol\":4606:4614  newOwner */\n      dup2\n        /* \"Fop.sol\":4597:4603  _owner */\n      0x00\n      dup1\n        /* \"Fop.sol\":4597:4614  _owner = newOwner */\n      0x0100\n      exp\n      dup2\n      sload\n      dup2\n      0xffffffffffffffffffffffffffffffffffffffff\n      mul\n      not\n      and\n      swap1\n      dup4\n      0xffffffffffffffffffffffffffffffffffffffff\n      and\n      mul\n      or\n      swap1\n      sstore\n      pop\n        /* \"Fop.sol\":4661:4669  newOwner */\n      dup2\n        /* \"Fop.sol\":4630:4670  OwnershipTransferred(oldOwner, newOwner) */\n      0xffffffffffffffffffffffffffffffffffffffff\n      and\n        /* \"Fop.sol\":4651:4659  oldOwner */\n      dup2\n        /* \"Fop.sol\":4630:4670  OwnershipTransferred(oldOwner, newOwner) */\n      0xffffffffffffffffffffffffffffffffffffffff\n      and\n      0x8be0079c531659141344cd1fd0a4f28419497f9722a3daafe3b4186f6b6457e0\n      mload(0x40)\n      mload(0x40)\n      dup1\n      swap2\n      sub\n      swap1\n      log3\n        /* \"Fop.sol\":4550:4678  {... */\n      pop\n        /* \"Fop.sol\":4487:4678  function _transferOwnership(address newOwner) internal virtual {... */\n      pop\n      jump\t// out\n        /* \"Fop.sol\":16358:16488  function _setAutomatedMarketMakerPair(address pair, bool value) private {... */\n    tag_331:\n        /* \"Fop.sol\":16475:16480  value */\n      dup1\n        /* \"Fop.sol\":16441:16466  automatedMarketMakerPairs */\n      0x06\n        /* \"Fop.sol\":16441:16472  automatedMarketMakerPairs[pair] */\n      0x00\n        /* \"Fop.sol\":16467:16471  pair */\n      dup5\n        /* \"Fop.sol\":16441:16472  automatedMarketMakerPairs[pair] */\n      0xffffffffffffffffffffffffffffffffffffffff\n      and\n      0xffffffffffffffffffffffffffffffffffffffff\n      and\n      dup2\n      mstore\n      0x20\n      add\n      swap1\n      dup2\n      mstore\n      0x20\n      add\n      0x00\n      keccak256\n      0x00\n        /* \"Fop.sol\":16441:16480  automatedMarketMakerPairs[pair] = value */\n      0x0100\n      exp\n      dup2\n      sload\n      dup2\n      0xff\n      mul\n      not\n      and\n      swap1\n      dup4\n      iszero\n      iszero\n      mul\n      or\n      swap1\n      sstore\n      pop\n        /* \"Fop.sol\":16358:16488  function _setAutomatedMarketMakerPair(address pair, bool value) private {... */\n      pop\n      pop\n      jump\t// out\n        /* \"Fop.sol\":12369:12996  function _transferTokens(... */\n    tag_376:\n        /* \"Fop.sol\":12498:12517  uint256 fromBalance */\n      0x00\n        /* \"Fop.sol\":12520:12529  _balances */\n      0x02\n        /* \"Fop.sol\":12520:12535  _balances[from] */\n      0x00\n        /* \"Fop.sol\":12530:12534  from */\n      dup6\n        /* \"Fop.sol\":12520:12535  _balances[from] */\n      0xffffffffffffffffffffffffffffffffffffffff\n      and\n      0xffffffffffffffffffffffffffffffffffffffff\n      and\n      dup2\n      mstore\n      0x20\n      add\n      swap1\n      dup2\n      mstore\n      0x20\n      add\n      0x00\n      keccak256\n      sload\n        /* \"Fop.sol\":12498:12535  uint256 fromBalance = _balances[from] */\n      swap1\n      pop\n        /* \"Fop.sol\":12583:12589  amount */\n      dup2\n        /* \"Fop.sol\":12568:12579  fromBalance */\n      dup2\n        /* \"Fop.sol\":12568:12589  fromBalance >= amount */\n      lt\n      iszero\n        /* \"Fop.sol\":12546:12655  require(... */\n      tag_464\n      jumpi\n      mload(0x40)\n      0x08c379a000000000000000000000000000000000000000000000000000000000\n      dup2\n      mstore\n      0x04\n      add\n      tag_465\n      swap1\n      tag_466\n      jump\t// in\n    tag_465:\n      mload(0x40)\n      dup1\n      swap2\n      sub\n      swap1\n      revert\n    tag_464:\n        /* \"Fop.sol\":12723:12729  amount */\n      dup2\n        /* \"Fop.sol\":12709:12720  fromBalance */\n      dup2\n        /* \"Fop.sol\":12709:12729  fromBalance - amount */\n      sub\n        /* \"Fop.sol\":12691:12700  _balances */\n      0x02\n        /* \"Fop.sol\":12691:12706  _balances[from] */\n      0x00\n        /* \"Fop.sol\":12701:12705  from */\n      dup7\n        /* \"Fop.sol\":12691:12706  _balances[from] */\n      0xffffffffffffffffffffffffffffffffffffffff\n      and\n      0xffffffffffffffffffffffffffffffffffffffff\n      and\n      dup2\n      mstore\n      0x20\n      add\n      swap1\n      dup2\n      mstore\n      0x20\n      add\n      0x00\n      keccak256\n        /* \"Fop.sol\":12691:12729  _balances[from] = fromBalance - amount */\n      dup2\n      swap1\n      sstore\n      pop\n        /* \"Fop.sol\":12926:12932  amount */\n      dup2\n        /* \"Fop.sol\":12909:12918  _balances */\n      0x02\n        /* \"Fop.sol\":12909:12922  _balances[to] */\n      0x00\n        /* \"Fop.sol\":12919:12921  to */\n      dup6\n        /* \"Fop.sol\":12909:12922  _balances[to] */\n      0xffffffffffffffffffffffffffffffffffffffff\n      and\n      0xffffffffffffffffffffffffffffffffffffffff\n      and\n      dup2\n      mstore\n      0x20\n      add\n      swap1\n      dup2\n      mstore\n      0x20\n      add\n      0x00\n      keccak256\n      0x00\n        /* \"Fop.sol\":12909:12932  _balances[to] += amount */\n      dup3\n      dup3\n      sload\n      add\n      swap3\n      pop\n      pop\n      dup2\n      swap1\n      sstore\n      pop\n        /* \"Fop.sol\":12977:12979  to */\n      dup3\n        /* \"Fop.sol\":12962:12988  Transfer(from, to, amount) */\n      0xffffffffffffffffffffffffffffffffffffffff\n      and\n        /* \"Fop.sol\":12971:12975  from */\n      dup5\n        /* \"Fop.sol\":12962:12988  Transfer(from, to, amount) */\n      0xffffffffffffffffffffffffffffffffffffffff\n      and\n      0xddf252ad1be2c89b69c2b068fc378daa952ba7f163c4a11628f55a4df523b3ef\n        /* \"Fop.sol\":12981:12987  amount */\n      dup5\n        /* \"Fop.sol\":12962:12988  Transfer(from, to, amount) */\n      mload(0x40)\n      tag_467\n      swap2\n      swap1\n      tag_81\n      jump\t// in\n    tag_467:\n      mload(0x40)\n      dup1\n      swap2\n      sub\n      swap1\n      log3\n        /* \"Fop.sol\":12487:12996  {... */\n      pop\n        /* \"Fop.sol\":12369:12996  function _transferTokens(... */\n      pop\n      pop\n      pop\n      jump\t// out\n        /* \"Fop.sol\":17870:18926  function swapAndLiquify() internal {... */\n    tag_435:\n        /* \"Fop.sol\":17918:17946  uint256 contractTokenBalance */\n      0x00\n        /* \"Fop.sol\":17949:17973  balanceOf(address(this)) */\n      tag_469\n        /* \"Fop.sol\":17967:17971  this */\n      address\n        /* \"Fop.sol\":17949:17958  balanceOf */\n      tag_147\n        /* \"Fop.sol\":17949:17973  balanceOf(address(this)) */\n      jump\t// in\n    tag_469:\n        /* \"Fop.sol\":17918:17973  uint256 contractTokenBalance = balanceOf(address(this)) */\n      swap1\n      pop\n        /* \"Fop.sol\":18014:18015  0 */\n      0x00\n        /* \"Fop.sol\":17990:18010  contractTokenBalance */\n      dup2\n        /* \"Fop.sol\":17990:18015  contractTokenBalance == 0 */\n      sub\n        /* \"Fop.sol\":17986:18050  if (contractTokenBalance == 0) {... */\n      tag_470\n      jumpi\n        /* \"Fop.sol\":18032:18039  return; */\n      pop\n      jump(tag_468)\n        /* \"Fop.sol\":17986:18050  if (contractTokenBalance == 0) {... */\n    tag_470:\n        /* \"Fop.sol\":18068:18083  uint256 liqHalf */\n      0x00\n        /* \"Fop.sol\":18141:18142  2 */\n      0x02\n        /* \"Fop.sol\":18132:18138  100000 */\n      0x0186a0\n        /* \"Fop.sol\":18110:18128  _liquidityTaxShare */\n      sload(0x0e)\n        /* \"Fop.sol\":18087:18107  contractTokenBalance */\n      dup5\n        /* \"Fop.sol\":18087:18128  contractTokenBalance * _liquidityTaxShare */\n      tag_471\n      swap2\n      swap1\n      tag_303\n      jump\t// in\n    tag_471:\n        /* \"Fop.sol\":18086:18138  (contractTokenBalance * _liquidityTaxShare) / 100000 */\n      tag_472\n      swap2\n      swap1\n      tag_305\n      jump\t// in\n    tag_472:\n        /* \"Fop.sol\":18086:18142  (contractTokenBalance * _liquidityTaxShare) / 100000 / 2 */\n      tag_473\n      swap2\n      swap1\n      tag_305\n      jump\t// in\n    tag_473:\n        /* \"Fop.sol\":18068:18142  uint256 liqHalf = (contractTokenBalance * _liquidityTaxShare) / 100000 / 2 */\n      swap1\n      pop\n        /* \"Fop.sol\":18157:18177  uint256 tokensToSwap */\n      0x00\n        /* \"Fop.sol\":18203:18210  liqHalf */\n      dup2\n        /* \"Fop.sol\":18180:18200  contractTokenBalance */\n      dup4\n        /* \"Fop.sol\":18180:18210  contractTokenBalance - liqHalf */\n      tag_474\n      swap2\n      swap1\n      tag_458\n      jump\t// in\n    tag_474:\n        /* \"Fop.sol\":18157:18210  uint256 tokensToSwap = contractTokenBalance - liqHalf */\n      swap1\n      pop\n        /* \"Fop.sol\":18229:18251  uint256 initialBalance */\n      0x00\n        /* \"Fop.sol\":18254:18275  address(this).balance */\n      selfbalance\n        /* \"Fop.sol\":18229:18275  uint256 initialBalance = address(this).balance */\n      swap1\n      pop\n        /* \"Fop.sol\":18293:18323  swapTokensForEth(tokensToSwap) */\n      tag_475\n        /* \"Fop.sol\":18310:18322  tokensToSwap */\n      dup3\n        /* \"Fop.sol\":18293:18309  swapTokensForEth */\n      tag_476\n        /* \"Fop.sol\":18293:18323  swapTokensForEth(tokensToSwap) */\n      jump\t// in\n    tag_475:\n        /* \"Fop.sol\":18341:18359  uint256 newBalance */\n      0x00\n        /* \"Fop.sol\":18387:18401  initialBalance */\n      dup2\n        /* \"Fop.sol\":18362:18383  address(this).balance */\n      selfbalance\n        /* \"Fop.sol\":18362:18402  address(this).balance - (initialBalance) */\n      tag_477\n      swap2\n      swap1\n      tag_458\n      jump\t// in\n    tag_477:\n        /* \"Fop.sol\":18341:18402  uint256 newBalance = address(this).balance - (initialBalance) */\n      swap1\n      pop\n        /* \"Fop.sol\":18420:18432  bool success */\n      0x00\n        /* \"Fop.sol\":18450:18470  uint256 buyFeeAmount */\n      dup1\n        /* \"Fop.sol\":18503:18509  100000 */\n      0x0186a0\n        /* \"Fop.sol\":18487:18499  _buyTaxShare */\n      sload(0x0c)\n        /* \"Fop.sol\":18474:18484  newBalance */\n      dup5\n        /* \"Fop.sol\":18474:18499  newBalance * _buyTaxShare */\n      tag_478\n      swap2\n      swap1\n      tag_303\n      jump\t// in\n    tag_478:\n        /* \"Fop.sol\":18473:18509  (newBalance * _buyTaxShare) / 100000 */\n      tag_479\n      swap2\n      swap1\n      tag_305\n      jump\t// in\n    tag_479:\n        /* \"Fop.sol\":18450:18509  uint256 buyFeeAmount = (newBalance * _buyTaxShare) / 100000 */\n      swap1\n      pop\n        /* \"Fop.sol\":18524:18545  uint256 sellFeeAmount */\n      0x00\n        /* \"Fop.sol\":18579:18585  100000 */\n      0x0186a0\n        /* \"Fop.sol\":18562:18575  _sellTaxShare */\n      sload(0x0d)\n        /* \"Fop.sol\":18549:18559  newBalance */\n      dup6\n        /* \"Fop.sol\":18549:18575  newBalance * _sellTaxShare */\n      tag_480\n      swap2\n      swap1\n      tag_303\n      jump\t// in\n    tag_480:\n        /* \"Fop.sol\":18548:18585  (newBalance * _sellTaxShare) / 100000 */\n      tag_481\n      swap2\n      swap1\n      tag_305\n      jump\t// in\n    tag_481:\n        /* \"Fop.sol\":18524:18585  uint256 sellFeeAmount = (newBalance * _sellTaxShare) / 100000 */\n      swap1\n      pop\n        /* \"Fop.sol\":18603:18626  uint256 marketingAmount */\n      0x00\n        /* \"Fop.sol\":18644:18657  sellFeeAmount */\n      dup2\n        /* \"Fop.sol\":18629:18641  buyFeeAmount */\n      dup4\n        /* \"Fop.sol\":18629:18657  buyFeeAmount + sellFeeAmount */\n      tag_482\n      swap2\n      swap1\n      tag_300\n      jump\t// in\n    tag_482:\n        /* \"Fop.sol\":18603:18657  uint256 marketingAmount = buyFeeAmount + sellFeeAmount */\n      swap1\n      pop\n        /* \"Fop.sol\":18701:18716  marketingAmount */\n      dup1\n        /* \"Fop.sol\":18688:18698  newBalance */\n      dup6\n        /* \"Fop.sol\":18688:18716  newBalance - marketingAmount */\n      tag_483\n      swap2\n      swap1\n      tag_458\n      jump\t// in\n    tag_483:\n        /* \"Fop.sol\":18675:18716  newBalance = newBalance - marketingAmount */\n      swap5\n      pop\n        /* \"Fop.sol\":18747:18762  marketingWallet */\n      0x07\n      0x00\n      swap1\n      sload\n      swap1\n      0x0100\n      exp\n      swap1\n      div\n      0xffffffffffffffffffffffffffffffffffffffff\n      and\n        /* \"Fop.sol\":18747:18767  marketingWallet.call */\n      0xffffffffffffffffffffffffffffffffffffffff\n      and\n        /* \"Fop.sol\":18775:18790  marketingAmount */\n      dup2\n        /* \"Fop.sol\":18797:18802  35000 */\n      0x88b8\n        /* \"Fop.sol\":18747:18807  marketingWallet.call{value: marketingAmount, gas: 35000}(\"\") */\n      swap1\n      mload(0x40)\n      tag_484\n      swap1\n      tag_485\n      jump\t// in\n    tag_484:\n      0x00\n      mload(0x40)\n      dup1\n      dup4\n      sub\n      dup2\n      dup6\n      dup9\n      dup9\n      call\n      swap4\n      pop\n      pop\n      pop\n      pop\n      returndatasize\n      dup1\n      0x00\n      dup2\n      eq\n      tag_488\n      jumpi\n      mload(0x40)\n      swap2\n      pop\n      and(add(returndatasize, 0x3f), not(0x1f))\n      dup3\n      add\n      0x40\n      mstore\n      returndatasize\n      dup3\n      mstore\n      returndatasize\n      0x00\n      0x20\n      dup5\n      add\n      returndatacopy\n      jump(tag_487)\n    tag_488:\n      0x60\n      swap2\n      pop\n    tag_487:\n      pop\n        /* \"Fop.sol\":18734:18807  (success,) = marketingWallet.call{value: marketingAmount, gas: 35000}(\"\") */\n      pop\n      dup1\n      swap5\n      pop\n      pop\n        /* \"Fop.sol\":18842:18843  0 */\n      0x00\n        /* \"Fop.sol\":18829:18839  newBalance */\n      dup6\n        /* \"Fop.sol\":18829:18843  newBalance > 0 */\n      gt\n        /* \"Fop.sol\":18825:18913  if (newBalance > 0) {... */\n      iszero\n      tag_489\n      jumpi\n        /* \"Fop.sol\":18864:18897  addLiquidity(liqHalf, newBalance) */\n      tag_490\n        /* \"Fop.sol\":18877:18884  liqHalf */\n      dup9\n        /* \"Fop.sol\":18886:18896  newBalance */\n      dup7\n        /* \"Fop.sol\":18864:18876  addLiquidity */\n      tag_491\n        /* \"Fop.sol\":18864:18897  addLiquidity(liqHalf, newBalance) */\n      jump\t// in\n    tag_490:\n        /* \"Fop.sol\":18825:18913  if (newBalance > 0) {... */\n    tag_489:\n        /* \"Fop.sol\":17905:18926  {... */\n      pop\n      pop\n      pop\n      pop\n      pop\n      pop\n      pop\n      pop\n      pop\n        /* \"Fop.sol\":17870:18926  function swapAndLiquify() internal {... */\n    tag_468:\n      jump\t// out\n        /* \"Fop.sol\":21995:22150  function _calculateTax(uint256 amount, uint256 taxPercentage) internal pure returns (uint256) {... */\n    tag_445:\n        /* \"Fop.sol\":22080:22087  uint256 */\n      0x00\n        /* \"Fop.sol\":22135:22141  100000 */\n      0x0186a0\n        /* \"Fop.sol\":22117:22130  taxPercentage */\n      dup3\n        /* \"Fop.sol\":22107:22113  amount */\n      dup5\n        /* \"Fop.sol\":22107:22131  amount * (taxPercentage) */\n      tag_493\n      swap2\n      swap1\n      tag_303\n      jump\t// in\n    tag_493:\n        /* \"Fop.sol\":22107:22142  amount * (taxPercentage) / (100000) */\n      tag_494\n      swap2\n      swap1\n      tag_305\n      jump\t// in\n    tag_494:\n        /* \"Fop.sol\":22100:22142  return amount * (taxPercentage) / (100000) */\n      swap1\n      pop\n        /* \"Fop.sol\":21995:22150  function _calculateTax(uint256 amount, uint256 taxPercentage) internal pure returns (uint256) {... */\n      swap3\n      swap2\n      pop\n      pop\n      jump\t// out\n        /* \"Fop.sol\":17270:17861  function swapTokensForEth(uint256 tokenAmount) private {... */\n    tag_476:\n        /* \"Fop.sol\":17396:17417  address[] memory path */\n      0x00\n        /* \"Fop.sol\":17434:17435  2 */\n      0x02\n        /* \"Fop.sol\":17420:17436  new address[](2) */\n      0xffffffffffffffff\n      dup2\n      gt\n      iszero\n      tag_496\n      jumpi\n      tag_497\n      tag_498\n      jump\t// in\n    tag_497:\n    tag_496:\n      mload(0x40)\n      swap1\n      dup1\n      dup3\n      mstore\n      dup1\n      0x20\n      mul\n      0x20\n      add\n      dup3\n      add\n      0x40\n      mstore\n      dup1\n      iszero\n      tag_499\n      jumpi\n      dup2\n      0x20\n      add\n      0x20\n      dup3\n      mul\n      dup1\n      calldatasize\n      dup4\n      calldatacopy\n      dup1\n      dup3\n      add\n      swap2\n      pop\n      pop\n      swap1\n      pop\n    tag_499:\n      pop\n        /* \"Fop.sol\":17396:17436  address[] memory path = new address[](2) */\n      swap1\n      pop\n        /* \"Fop.sol\":17465:17469  this */\n      address\n        /* \"Fop.sol\":17447:17451  path */\n      dup2\n        /* \"Fop.sol\":17452:17453  0 */\n      0x00\n        /* \"Fop.sol\":17447:17454  path[0] */\n      dup2\n      mload\n      dup2\n      lt\n      tag_500\n      jumpi\n      tag_501\n      tag_370\n      jump\t// in\n    tag_501:\n    tag_500:\n      0x20\n      mul\n      0x20\n      add\n      add\n        /* \"Fop.sol\":17447:17470  path[0] = address(this) */\n      swap1\n      0xffffffffffffffffffffffffffffffffffffffff\n      and\n      swap1\n      dup2\n      0xffffffffffffffffffffffffffffffffffffffff\n      and\n      dup2\n      mstore\n      pop\n      pop\n        /* \"Fop.sol\":17491:17506  uniswapV2Router */\n      0x0f\n      0x00\n      swap1\n      sload\n      swap1\n      0x0100\n      exp\n      swap1\n      div\n      0xffffffffffffffffffffffffffffffffffffffff\n      and\n        /* \"Fop.sol\":17491:17511  uniswapV2Router.WETH */\n      0xffffffffffffffffffffffffffffffffffffffff\n      and\n      0xad5c4648\n        /* \"Fop.sol\":17491:17513  uniswapV2Router.WETH() */\n      mload(0x40)\n      dup2\n      0xffffffff\n      and\n      0xe0\n      shl\n      dup2\n      mstore\n      0x04\n      add\n      0x20\n      mload(0x40)\n      dup1\n      dup4\n      sub\n      dup2\n      dup7\n      gas\n      staticcall\n      iszero\n      dup1\n      iszero\n      tag_503\n      jumpi\n      returndatasize\n      0x00\n      dup1\n      returndatacopy\n      revert(0x00, returndatasize)\n    tag_503:\n      pop\n      pop\n      pop\n      pop\n      mload(0x40)\n      returndatasize\n      not(0x1f)\n      0x1f\n      dup3\n      add\n      and\n      dup3\n      add\n      dup1\n      0x40\n      mstore\n      pop\n      dup2\n      add\n      swap1\n      tag_504\n      swap2\n      swap1\n      tag_505\n      jump\t// in\n    tag_504:\n        /* \"Fop.sol\":17481:17485  path */\n      dup2\n        /* \"Fop.sol\":17486:17487  1 */\n      0x01\n        /* \"Fop.sol\":17481:17488  path[1] */\n      dup2\n      mload\n      dup2\n      lt\n      tag_506\n      jumpi\n      tag_507\n      tag_370\n      jump\t// in\n    tag_507:\n    tag_506:\n      0x20\n      mul\n      0x20\n      add\n      add\n        /* \"Fop.sol\":17481:17513  path[1] = uniswapV2Router.WETH() */\n      swap1\n      0xffffffffffffffffffffffffffffffffffffffff\n      and\n      swap1\n      dup2\n      0xffffffffffffffffffffffffffffffffffffffff\n      and\n      dup2\n      mstore\n      pop\n      pop\n        /* \"Fop.sol\":17527:17589  _approve(address(this), address(uniswapV2Router), tokenAmount) */\n      tag_508\n        /* \"Fop.sol\":17544:17548  this */\n      address\n        /* \"Fop.sol\":17559:17574  uniswapV2Router */\n      0x0f\n      0x00\n      swap1\n      sload\n      swap1\n      0x0100\n      exp\n      swap1\n      div\n      0xffffffffffffffffffffffffffffffffffffffff\n      and\n        /* \"Fop.sol\":17577:17588  tokenAmount */\n      dup5\n        /* \"Fop.sol\":17527:17535  _approve */\n      tag_245\n        /* \"Fop.sol\":17527:17589  _approve(address(this), address(uniswapV2Router), tokenAmount) */\n      jump\t// in\n    tag_508:\n        /* \"Fop.sol\":17629:17644  uniswapV2Router */\n      0x0f\n      0x00\n      swap1\n      sload\n      swap1\n      0x0100\n      exp\n      swap1\n      div\n      0xffffffffffffffffffffffffffffffffffffffff\n      and\n        /* \"Fop.sol\":17629:17695  uniswapV2Router.swapExactTokensForETHSupportingFeeOnTransferTokens */\n      0xffffffffffffffffffffffffffffffffffffffff\n      and\n      0x791ac947\n        /* \"Fop.sol\":17710:17721  tokenAmount */\n      dup4\n        /* \"Fop.sol\":17736:17737  0 */\n      0x00\n        /* \"Fop.sol\":17780:17784  path */\n      dup5\n        /* \"Fop.sol\":17807:17811  this */\n      address\n        /* \"Fop.sol\":17827:17842  block.timestamp */\n      timestamp\n        /* \"Fop.sol\":17629:17853  uniswapV2Router.swapExactTokensForETHSupportingFeeOnTransferTokens(... */\n      mload(0x40)\n      dup7\n      0xffffffff\n      and\n      0xe0\n      shl\n      dup2\n      mstore\n      0x04\n      add\n      tag_509\n      swap6\n      swap5\n      swap4\n      swap3\n      swap2\n      swap1\n      tag_510\n      jump\t// in\n    tag_509:\n      0x00\n      mload(0x40)\n      dup1\n      dup4\n      sub\n      dup2\n      0x00\n      dup8\n      dup1\n      extcodesize\n      iszero\n      dup1\n      iszero\n      tag_511\n      jumpi\n      0x00\n      dup1\n      revert\n    tag_511:\n      pop\n      gas\n      call\n      iszero\n      dup1\n      iszero\n      tag_513\n      jumpi\n      returndatasize\n      0x00\n      dup1\n      returndatacopy\n      revert(0x00, returndatasize)\n    tag_513:\n      pop\n      pop\n      pop\n      pop\n        /* \"Fop.sol\":17325:17861  {... */\n      pop\n        /* \"Fop.sol\":17270:17861  function swapTokensForEth(uint256 tokenAmount) private {... */\n      pop\n      jump\t// out\n        /* \"Fop.sol\":18935:19452  function addLiquidity(uint256 tokenAmount, uint256 ethAmount) private {... */\n    tag_491:\n        /* \"Fop.sol\":19083:19145  _approve(address(this), address(uniswapV2Router), tokenAmount) */\n      tag_515\n        /* \"Fop.sol\":19100:19104  this */\n      address\n        /* \"Fop.sol\":19115:19130  uniswapV2Router */\n      0x0f\n      0x00\n      swap1\n      sload\n      swap1\n      0x0100\n      exp\n      swap1\n      div\n      0xffffffffffffffffffffffffffffffffffffffff\n      and\n        /* \"Fop.sol\":19133:19144  tokenAmount */\n      dup5\n        /* \"Fop.sol\":19083:19091  _approve */\n      tag_245\n        /* \"Fop.sol\":19083:19145  _approve(address(this), address(uniswapV2Router), tokenAmount) */\n      jump\t// in\n    tag_515:\n        /* \"Fop.sol\":19189:19204  uniswapV2Router */\n      0x0f\n      0x00\n      swap1\n      sload\n      swap1\n      0x0100\n      exp\n      swap1\n      div\n      0xffffffffffffffffffffffffffffffffffffffff\n      and\n        /* \"Fop.sol\":19189:19220  uniswapV2Router.addLiquidityETH */\n      0xffffffffffffffffffffffffffffffffffffffff\n      and\n      0xf305d719\n        /* \"Fop.sol\":19228:19237  ethAmount */\n      dup3\n        /* \"Fop.sol\":19261:19265  this */\n      address\n        /* \"Fop.sol\":19281:19292  tokenAmount */\n      dup6\n        /* \"Fop.sol\":19307:19308  0 */\n      0x00\n        /* \"Fop.sol\":19350:19351  0 */\n      dup1\n        /* \"Fop.sol\":19401:19402  0 */\n      0x00\n        /* \"Fop.sol\":19418:19433  block.timestamp */\n      timestamp\n        /* \"Fop.sol\":19189:19444  uniswapV2Router.addLiquidityETH{value: ethAmount}(... */\n      mload(0x40)\n      dup9\n      0xffffffff\n      and\n      0xe0\n      shl\n      dup2\n      mstore\n      0x04\n      add\n      tag_516\n      swap7\n      swap6\n      swap5\n      swap4\n      swap3\n      swap2\n      swap1\n      tag_517\n      jump\t// in\n    tag_516:\n      0x60\n      mload(0x40)\n      dup1\n      dup4\n      sub\n      dup2\n      dup6\n      dup9\n      gas\n      call\n      iszero\n      dup1\n      iszero\n      tag_519\n      jumpi\n      returndatasize\n      0x00\n      dup1\n      returndatacopy\n      revert(0x00, returndatasize)\n    tag_519:\n      pop\n      pop\n      pop\n      pop\n      pop\n      mload(0x40)\n      returndatasize\n      not(0x1f)\n      0x1f\n      dup3\n      add\n      and\n      dup3\n      add\n      dup1\n      0x40\n      mstore\n      pop\n      dup2\n      add\n      swap1\n      tag_520\n      swap2\n      swap1\n      tag_521\n      jump\t// in\n    tag_520:\n      pop\n      pop\n      pop\n        /* \"Fop.sol\":18935:19452  function addLiquidity(uint256 tokenAmount, uint256 ethAmount) private {... */\n      pop\n      pop\n      jump\t// out\n        /* \"#utility.yul\":7:106   */\n    tag_522:\n        /* \"#utility.yul\":59:65   */\n      0x00\n        /* \"#utility.yul\":93:98   */\n      dup2\n        /* \"#utility.yul\":87:99   */\n      mload\n        /* \"#utility.yul\":77:99   */\n      swap1\n      pop\n        /* \"#utility.yul\":7:106   */\n      swap2\n      swap1\n      pop\n      jump\t// out\n        /* \"#utility.yul\":112:281   */\n    tag_523:\n        /* \"#utility.yul\":196:207   */\n      0x00\n        /* \"#utility.yul\":230:236   */\n      dup3\n        /* \"#utility.yul\":225:228   */\n      dup3\n        /* \"#utility.yul\":218:237   */\n      mstore\n        /* \"#utility.yul\":270:274   */\n      0x20\n        /* \"#utility.yul\":265:268   */\n      dup3\n        /* \"#utility.yul\":261:275   */\n      add\n        /* \"#utility.yul\":246:275   */\n      swap1\n      pop\n        /* \"#utility.yul\":112:281   */\n      swap3\n      swap2\n      pop\n      pop\n      jump\t// out\n        /* \"#utility.yul\":287:533   */\n    tag_524:\n        /* \"#utility.yul\":368:369   */\n      0x00\n        /* \"#utility.yul\":378:491   */\n    tag_611:\n        /* \"#utility.yul\":392:398   */\n      dup4\n        /* \"#utility.yul\":389:390   */\n      dup2\n        /* \"#utility.yul\":386:399   */\n      lt\n        /* \"#utility.yul\":378:491   */\n      iszero\n      tag_613\n      jumpi\n        /* \"#utility.yul\":477:478   */\n      dup1\n        /* \"#utility.yul\":472:475   */\n      dup3\n        /* \"#utility.yul\":468:479   */\n      add\n        /* \"#utility.yul\":462:480   */\n      mload\n        /* \"#utility.yul\":458:459   */\n      dup2\n        /* \"#utility.yul\":453:456   */\n      dup5\n        /* \"#utility.yul\":449:460   */\n      add\n        /* \"#utility.yul\":442:481   */\n      mstore\n        /* \"#utility.yul\":414:416   */\n      0x20\n        /* \"#utility.yul\":411:412   */\n      dup2\n        /* \"#utility.yul\":407:417   */\n      add\n        /* \"#utility.yul\":402:417   */\n      swap1\n      pop\n        /* \"#utility.yul\":378:491   */\n      jump(tag_611)\n    tag_613:\n        /* \"#utility.yul\":525:526   */\n      0x00\n        /* \"#utility.yul\":516:522   */\n      dup5\n        /* \"#utility.yul\":511:514   */\n      dup5\n        /* \"#utility.yul\":507:523   */\n      add\n        /* \"#utility.yul\":500:527   */\n      mstore\n        /* \"#utility.yul\":349:533   */\n      pop\n        /* \"#utility.yul\":287:533   */\n      pop\n      pop\n      pop\n      jump\t// out\n        /* \"#utility.yul\":539:641   */\n    tag_525:\n        /* \"#utility.yul\":580:586   */\n      0x00\n        /* \"#utility.yul\":631:633   */\n      0x1f\n        /* \"#utility.yul\":627:634   */\n      not\n        /* \"#utility.yul\":622:624   */\n      0x1f\n        /* \"#utility.yul\":615:620   */\n      dup4\n        /* \"#utility.yul\":611:625   */\n      add\n        /* \"#utility.yul\":607:635   */\n      and\n        /* \"#utility.yul\":597:635   */\n      swap1\n      pop\n        /* \"#utility.yul\":539:641   */\n      swap2\n      swap1\n      pop\n      jump\t// out\n        /* \"#utility.yul\":647:1024   */\n    tag_526:\n        /* \"#utility.yul\":735:738   */\n      0x00\n        /* \"#utility.yul\":763:802   */\n      tag_616\n        /* \"#utility.yul\":796:801   */\n      dup3\n        /* \"#utility.yul\":763:802   */\n      tag_522\n      jump\t// in\n    tag_616:\n        /* \"#utility.yul\":818:889   */\n      tag_617\n        /* \"#utility.yul\":882:888   */\n      dup2\n        /* \"#utility.yul\":877:880   */\n      dup6\n        /* \"#utility.yul\":818:889   */\n      tag_523\n      jump\t// in\n    tag_617:\n        /* \"#utility.yul\":811:889   */\n      swap4\n      pop\n        /* \"#utility.yul\":898:963   */\n      tag_618\n        /* \"#utility.yul\":956:962   */\n      dup2\n        /* \"#utility.yul\":951:954   */\n      dup6\n        /* \"#utility.yul\":944:948   */\n      0x20\n        /* \"#utility.yul\":937:942   */\n      dup7\n        /* \"#utility.yul\":933:949   */\n      add\n        /* \"#utility.yul\":898:963   */\n      tag_524\n      jump\t// in\n    tag_618:\n        /* \"#utility.yul\":988:1017   */\n      tag_619\n        /* \"#utility.yul\":1010:1016   */\n      dup2\n        /* \"#utility.yul\":988:1017   */\n      tag_525\n      jump\t// in\n    tag_619:\n        /* \"#utility.yul\":983:986   */\n      dup5\n        /* \"#utility.yul\":979:1018   */\n      add\n        /* \"#utility.yul\":972:1018   */\n      swap2\n      pop\n        /* \"#utility.yul\":739:1024   */\n      pop\n        /* \"#utility.yul\":647:1024   */\n      swap3\n      swap2\n      pop\n      pop\n      jump\t// out\n        /* \"#utility.yul\":1030:1343   */\n    tag_60:\n        /* \"#utility.yul\":1143:1147   */\n      0x00\n        /* \"#utility.yul\":1181:1183   */\n      0x20\n        /* \"#utility.yul\":1170:1179   */\n      dup3\n        /* \"#utility.yul\":1166:1184   */\n      add\n        /* \"#utility.yul\":1158:1184   */\n      swap1\n      pop\n        /* \"#utility.yul\":1230:1239   */\n      dup2\n        /* \"#utility.yul\":1224:1228   */\n      dup2\n        /* \"#utility.yul\":1220:1240   */\n      sub\n        /* \"#utility.yul\":1216:1217   */\n      0x00\n        /* \"#utility.yul\":1205:1214   */\n      dup4\n        /* \"#utility.yul\":1201:1218   */\n      add\n        /* \"#utility.yul\":1194:1241   */\n      mstore\n        /* \"#utility.yul\":1258:1336   */\n      tag_621\n        /* \"#utility.yul\":1331:1335   */\n      dup2\n        /* \"#utility.yul\":1322:1328   */\n      dup5\n        /* \"#utility.yul\":1258:1336   */\n      tag_526\n      jump\t// in\n    tag_621:\n        /* \"#utility.yul\":1250:1336   */\n      swap1\n      pop\n        /* \"#utility.yul\":1030:1343   */\n      swap3\n      swap2\n      pop\n      pop\n      jump\t// out\n        /* \"#utility.yul\":1430:1547   */\n    tag_528:\n        /* \"#utility.yul\":1539:1540   */\n      0x00\n        /* \"#utility.yul\":1536:1537   */\n      dup1\n        /* \"#utility.yul\":1529:1541   */\n      revert\n        /* \"#utility.yul\":1553:1670   */\n    tag_529:\n        /* \"#utility.yul\":1662:1663   */\n      0x00\n        /* \"#utility.yul\":1659:1660   */\n      dup1\n        /* \"#utility.yul\":1652:1664   */\n      revert\n        /* \"#utility.yul\":1676:1802   */\n    tag_530:\n        /* \"#utility.yul\":1713:1720   */\n      0x00\n        /* \"#utility.yul\":1753:1795   */\n      0xffffffffffffffffffffffffffffffffffffffff\n        /* \"#utility.yul\":1746:1751   */\n      dup3\n        /* \"#utility.yul\":1742:1796   */\n      and\n        /* \"#utility.yul\":1731:1796   */\n      swap1\n      pop\n        /* \"#utility.yul\":1676:1802   */\n      swap2\n      swap1\n      pop\n      jump\t// out\n        /* \"#utility.yul\":1808:1904   */\n    tag_531:\n        /* \"#utility.yul\":1845:1852   */\n      0x00\n        /* \"#utility.yul\":1874:1898   */\n      tag_627\n        /* \"#utility.yul\":1892:1897   */\n      dup3\n        /* \"#utility.yul\":1874:1898   */\n      tag_530\n      jump\t// in\n    tag_627:\n        /* \"#utility.yul\":1863:1898   */\n      swap1\n      pop\n        /* \"#utility.yul\":1808:1904   */\n      swap2\n      swap1\n      pop\n      jump\t// out\n        /* \"#utility.yul\":1910:2032   */\n    tag_532:\n        /* \"#utility.yul\":1983:2007   */\n      tag_629\n        /* \"#utility.yul\":2001:2006   */\n      dup2\n        /* \"#utility.yul\":1983:2007   */\n      tag_531\n      jump\t// in\n    tag_629:\n        /* \"#utility.yul\":1976:1981   */\n      dup2\n        /* \"#utility.yul\":1973:2008   */\n      eq\n        /* \"#utility.yul\":1963:2026   */\n      tag_630\n      jumpi\n        /* \"#utility.yul\":2022:2023   */\n      0x00\n        /* \"#utility.yul\":2019:2020   */\n      dup1\n        /* \"#utility.yul\":2012:2024   */\n      revert\n        /* \"#utility.yul\":1963:2026   */\n    tag_630:\n        /* \"#utility.yul\":1910:2032   */\n      pop\n      jump\t// out\n        /* \"#utility.yul\":2038:2177   */\n    tag_533:\n        /* \"#utility.yul\":2084:2089   */\n      0x00\n        /* \"#utility.yul\":2122:2128   */\n      dup2\n        /* \"#utility.yul\":2109:2129   */\n      calldataload\n        /* \"#utility.yul\":2100:2129   */\n      swap1\n      pop\n        /* \"#utility.yul\":2138:2171   */\n      tag_632\n        /* \"#utility.yul\":2165:2170   */\n      dup2\n        /* \"#utility.yul\":2138:2171   */\n      tag_532\n      jump\t// in\n    tag_632:\n        /* \"#utility.yul\":2038:2177   */\n      swap3\n      swap2\n      pop\n      pop\n      jump\t// out\n        /* \"#utility.yul\":2183:2260   */\n    tag_534:\n        /* \"#utility.yul\":2220:2227   */\n      0x00\n        /* \"#utility.yul\":2249:2254   */\n      dup2\n        /* \"#utility.yul\":2238:2254   */\n      swap1\n      pop\n        /* \"#utility.yul\":2183:2260   */\n      swap2\n      swap1\n      pop\n      jump\t// out\n        /* \"#utility.yul\":2266:2388   */\n    tag_535:\n        /* \"#utility.yul\":2339:2363   */\n      tag_635\n        /* \"#utility.yul\":2357:2362   */\n      dup2\n        /* \"#utility.yul\":2339:2363   */\n      tag_534\n      jump\t// in\n    tag_635:\n        /* \"#utility.yul\":2332:2337   */\n      dup2\n        /* \"#utility.yul\":2329:2364   */\n      eq\n        /* \"#utility.yul\":2319:2382   */\n      tag_636\n      jumpi\n        /* \"#utility.yul\":2378:2379   */\n      0x00\n        /* \"#utility.yul\":2375:2376   */\n      dup1\n        /* \"#utility.yul\":2368:2380   */\n      revert\n        /* \"#utility.yul\":2319:2382   */\n    tag_636:\n        /* \"#utility.yul\":2266:2388   */\n      pop\n      jump\t// out\n        /* \"#utility.yul\":2394:2533   */\n    tag_536:\n        /* \"#utility.yul\":2440:2445   */\n      0x00\n        /* \"#utility.yul\":2478:2484   */\n      dup2\n        /* \"#utility.yul\":2465:2485   */\n      calldataload\n        /* \"#utility.yul\":2456:2485   */\n      swap1\n      pop\n        /* \"#utility.yul\":2494:2527   */\n      tag_638\n        /* \"#utility.yul\":2521:2526   */\n      dup2\n        /* \"#utility.yul\":2494:2527   */\n      tag_535\n      jump\t// in\n    tag_638:\n        /* \"#utility.yul\":2394:2533   */\n      swap3\n      swap2\n      pop\n      pop\n      jump\t// out\n        /* \"#utility.yul\":2539:3013   */\n    tag_64:\n        /* \"#utility.yul\":2607:2613   */\n      0x00\n        /* \"#utility.yul\":2615:2621   */\n      dup1\n        /* \"#utility.yul\":2664:2666   */\n      0x40\n        /* \"#utility.yul\":2652:2661   */\n      dup4\n        /* \"#utility.yul\":2643:2650   */\n      dup6\n        /* \"#utility.yul\":2639:2662   */\n      sub\n        /* \"#utility.yul\":2635:2667   */\n      slt\n        /* \"#utility.yul\":2632:2751   */\n      iszero\n      tag_640\n      jumpi\n        /* \"#utility.yul\":2670:2749   */\n      tag_641\n      tag_528\n      jump\t// in\n    tag_641:\n        /* \"#utility.yul\":2632:2751   */\n    tag_640:\n        /* \"#utility.yul\":2790:2791   */\n      0x00\n        /* \"#utility.yul\":2815:2868   */\n      tag_642\n        /* \"#utility.yul\":2860:2867   */\n      dup6\n        /* \"#utility.yul\":2851:2857   */\n      dup3\n        /* \"#utility.yul\":2840:2849   */\n      dup7\n        /* \"#utility.yul\":2836:2858   */\n      add\n        /* \"#utility.yul\":2815:2868   */\n      tag_533\n      jump\t// in\n    tag_642:\n        /* \"#utility.yul\":2805:2868   */\n      swap3\n      pop\n        /* \"#utility.yul\":2761:2878   */\n      pop\n        /* \"#utility.yul\":2917:2919   */\n      0x20\n        /* \"#utility.yul\":2943:2996   */\n      tag_643\n        /* \"#utility.yul\":2988:2995   */\n      dup6\n        /* \"#utility.yul\":2979:2985   */\n      dup3\n        /* \"#utility.yul\":2968:2977   */\n      dup7\n        /* \"#utility.yul\":2964:2986   */\n      add\n        /* \"#utility.yul\":2943:2996   */\n      tag_536\n      jump\t// in\n    tag_643:\n        /* \"#utility.yul\":2933:2996   */\n      swap2\n      pop\n        /* \"#utility.yul\":2888:3006   */\n      pop\n        /* \"#utility.yul\":2539:3013   */\n      swap3\n      pop\n      swap3\n      swap1\n      pop\n      jump\t// out\n        /* \"#utility.yul\":3019:3109   */\n    tag_537:\n        /* \"#utility.yul\":3053:3060   */\n      0x00\n        /* \"#utility.yul\":3096:3101   */\n      dup2\n        /* \"#utility.yul\":3089:3102   */\n      iszero\n        /* \"#utility.yul\":3082:3103   */\n      iszero\n        /* \"#utility.yul\":3071:3103   */\n      swap1\n      pop\n        /* \"#utility.yul\":3019:3109   */\n      swap2\n      swap1\n      pop\n      jump\t// out\n        /* \"#utility.yul\":3115:3224   */\n    tag_538:\n        /* \"#utility.yul\":3196:3217   */\n      tag_646\n        /* \"#utility.yul\":3211:3216   */\n      dup2\n        /* \"#utility.yul\":3196:3217   */\n      tag_537\n      jump\t// in\n    tag_646:\n        /* \"#utility.yul\":3191:3194   */\n      dup3\n        /* \"#utility.yul\":3184:3218   */\n      mstore\n        /* \"#utility.yul\":3115:3224   */\n      pop\n      pop\n      jump\t// out\n        /* \"#utility.yul\":3230:3440   */\n    tag_67:\n        /* \"#utility.yul\":3317:3321   */\n      0x00\n        /* \"#utility.yul\":3355:3357   */\n      0x20\n        /* \"#utility.yul\":3344:3353   */\n      dup3\n        /* \"#utility.yul\":3340:3358   */\n      add\n        /* \"#utility.yul\":3332:3358   */\n      swap1\n      pop\n        /* \"#utility.yul\":3368:3433   */\n      tag_648\n        /* \"#utility.yul\":3430:3431   */\n      0x00\n        /* \"#utility.yul\":3419:3428   */\n      dup4\n        /* \"#utility.yul\":3415:3432   */\n      add\n        /* \"#utility.yul\":3406:3412   */\n      dup5\n        /* \"#utility.yul\":3368:3433   */\n      tag_538\n      jump\t// in\n    tag_648:\n        /* \"#utility.yul\":3230:3440   */\n      swap3\n      swap2\n      pop\n      pop\n      jump\t// out\n        /* \"#utility.yul\":3446:3506   */\n    tag_539:\n        /* \"#utility.yul\":3474:3477   */\n      0x00\n        /* \"#utility.yul\":3495:3500   */\n      dup2\n        /* \"#utility.yul\":3488:3500   */\n      swap1\n      pop\n        /* \"#utility.yul\":3446:3506   */\n      swap2\n      swap1\n      pop\n      jump\t// out\n        /* \"#utility.yul\":3512:3654   */\n    tag_540:\n        /* \"#utility.yul\":3562:3571   */\n      0x00\n        /* \"#utility.yul\":3595:3648   */\n      tag_651\n        /* \"#utility.yul\":3613:3647   */\n      tag_652\n        /* \"#utility.yul\":3622:3646   */\n      tag_653\n        /* \"#utility.yul\":3640:3645   */\n      dup5\n        /* \"#utility.yul\":3622:3646   */\n      tag_530\n      jump\t// in\n    tag_653:\n        /* \"#utility.yul\":3613:3647   */\n      tag_539\n      jump\t// in\n    tag_652:\n        /* \"#utility.yul\":3595:3648   */\n      tag_530\n      jump\t// in\n    tag_651:\n        /* \"#utility.yul\":3582:3648   */\n      swap1\n      pop\n        /* \"#utility.yul\":3512:3654   */\n      swap2\n      swap1\n      pop\n      jump\t// out\n        /* \"#utility.yul\":3660:3786   */\n    tag_541:\n        /* \"#utility.yul\":3710:3719   */\n      0x00\n        /* \"#utility.yul\":3743:3780   */\n      tag_655\n        /* \"#utility.yul\":3774:3779   */\n      dup3\n        /* \"#utility.yul\":3743:3780   */\n      tag_540\n      jump\t// in\n    tag_655:\n        /* \"#utility.yul\":3730:3780   */\n      swap1\n      pop\n        /* \"#utility.yul\":3660:3786   */\n      swap2\n      swap1\n      pop\n      jump\t// out\n        /* \"#utility.yul\":3792:3944   */\n    tag_542:\n        /* \"#utility.yul\":3868:3877   */\n      0x00\n        /* \"#utility.yul\":3901:3938   */\n      tag_657\n        /* \"#utility.yul\":3932:3937   */\n      dup3\n        /* \"#utility.yul\":3901:3938   */\n      tag_541\n      jump\t// in\n    tag_657:\n        /* \"#utility.yul\":3888:3938   */\n      swap1\n      pop\n        /* \"#utility.yul\":3792:3944   */\n      swap2\n      swap1\n      pop\n      jump\t// out\n        /* \"#utility.yul\":3950:4133   */\n    tag_543:\n        /* \"#utility.yul\":4063:4126   */\n      tag_659\n        /* \"#utility.yul\":4120:4125   */\n      dup2\n        /* \"#utility.yul\":4063:4126   */\n      tag_542\n      jump\t// in\n    tag_659:\n        /* \"#utility.yul\":4058:4061   */\n      dup3\n        /* \"#utility.yul\":4051:4127   */\n      mstore\n        /* \"#utility.yul\":3950:4133   */\n      pop\n      pop\n      jump\t// out\n        /* \"#utility.yul\":4139:4413   */\n    tag_72:\n        /* \"#utility.yul\":4258:4262   */\n      0x00\n        /* \"#utility.yul\":4296:4298   */\n      0x20\n        /* \"#utility.yul\":4285:4294   */\n      dup3\n        /* \"#utility.yul\":4281:4299   */\n      add\n        /* \"#utility.yul\":4273:4299   */\n      swap1\n      pop\n        /* \"#utility.yul\":4309:4406   */\n      tag_661\n        /* \"#utility.yul\":4403:4404   */\n      0x00\n        /* \"#utility.yul\":4392:4401   */\n      dup4\n        /* \"#utility.yul\":4388:4405   */\n      add\n        /* \"#utility.yul\":4379:4385   */\n      dup5\n        /* \"#utility.yul\":4309:4406   */\n      tag_543\n      jump\t// in\n    tag_661:\n        /* \"#utility.yul\":4139:4413   */\n      swap3\n      swap2\n      pop\n      pop\n      jump\t// out\n        /* \"#utility.yul\":4419:4537   */\n    tag_544:\n        /* \"#utility.yul\":4506:4530   */\n      tag_663\n        /* \"#utility.yul\":4524:4529   */\n      dup2\n        /* \"#utility.yul\":4506:4530   */\n      tag_534\n      jump\t// in\n    tag_663:\n        /* \"#utility.yul\":4501:4504   */\n      dup3\n        /* \"#utility.yul\":4494:4531   */\n      mstore\n        /* \"#utility.yul\":4419:4537   */\n      pop\n      pop\n      jump\t// out\n        /* \"#utility.yul\":4543:4765   */\n    tag_81:\n        /* \"#utility.yul\":4636:4640   */\n      0x00\n        /* \"#utility.yul\":4674:4676   */\n      0x20\n        /* \"#utility.yul\":4663:4672   */\n      dup3\n        /* \"#utility.yul\":4659:4677   */\n      add\n        /* \"#utility.yul\":4651:4677   */\n      swap1\n      pop\n        /* \"#utility.yul\":4687:4758   */\n      tag_665\n        /* \"#utility.yul\":4755:4756   */\n      0x00\n        /* \"#utility.yul\":4744:4753   */\n      dup4\n        /* \"#utility.yul\":4740:4757   */\n      add\n        /* \"#utility.yul\":4731:4737   */\n      dup5\n        /* \"#utility.yul\":4687:4758   */\n      tag_544\n      jump\t// in\n    tag_665:\n        /* \"#utility.yul\":4543:4765   */\n      swap3\n      swap2\n      pop\n      pop\n      jump\t// out\n        /* \"#utility.yul\":4771:5390   */\n    tag_88:\n        /* \"#utility.yul\":4848:4854   */\n      0x00\n        /* \"#utility.yul\":4856:4862   */\n      dup1\n        /* \"#utility.yul\":4864:4870   */\n      0x00\n        /* \"#utility.yul\":4913:4915   */\n      0x60\n        /* \"#utility.yul\":4901:4910   */\n      dup5\n        /* \"#utility.yul\":4892:4899   */\n      dup7\n        /* \"#utility.yul\":4888:4911   */\n      sub\n        /* \"#utility.yul\":4884:4916   */\n      slt\n        /* \"#utility.yul\":4881:5000   */\n      iszero\n      tag_667\n      jumpi\n        /* \"#utility.yul\":4919:4998   */\n      tag_668\n      tag_528\n      jump\t// in\n    tag_668:\n        /* \"#utility.yul\":4881:5000   */\n    tag_667:\n        /* \"#utility.yul\":5039:5040   */\n      0x00\n        /* \"#utility.yul\":5064:5117   */\n      tag_669\n        /* \"#utility.yul\":5109:5116   */\n      dup7\n        /* \"#utility.yul\":5100:5106   */\n      dup3\n        /* \"#utility.yul\":5089:5098   */\n      dup8\n        /* \"#utility.yul\":5085:5107   */\n      add\n        /* \"#utility.yul\":5064:5117   */\n      tag_533\n      jump\t// in\n    tag_669:\n        /* \"#utility.yul\":5054:5117   */\n      swap4\n      pop\n        /* \"#utility.yul\":5010:5127   */\n      pop\n        /* \"#utility.yul\":5166:5168   */\n      0x20\n        /* \"#utility.yul\":5192:5245   */\n      tag_670\n        /* \"#utility.yul\":5237:5244   */\n      dup7\n        /* \"#utility.yul\":5228:5234   */\n      dup3\n        /* \"#utility.yul\":5217:5226   */\n      dup8\n        /* \"#utility.yul\":5213:5235   */\n      add\n        /* \"#utility.yul\":5192:5245   */\n      tag_533\n      jump\t// in\n    tag_670:\n        /* \"#utility.yul\":5182:5245   */\n      swap3\n      pop\n        /* \"#utility.yul\":5137:5255   */\n      pop\n        /* \"#utility.yul\":5294:5296   */\n      0x40\n        /* \"#utility.yul\":5320:5373   */\n      tag_671\n        /* \"#utility.yul\":5365:5372   */\n      dup7\n        /* \"#utility.yul\":5356:5362   */\n      dup3\n        /* \"#utility.yul\":5345:5354   */\n      dup8\n        /* \"#utility.yul\":5341:5363   */\n      add\n        /* \"#utility.yul\":5320:5373   */\n      tag_536\n      jump\t// in\n    tag_671:\n        /* \"#utility.yul\":5310:5373   */\n      swap2\n      pop\n        /* \"#utility.yul\":5265:5383   */\n      pop\n        /* \"#utility.yul\":4771:5390   */\n      swap3\n      pop\n      swap3\n      pop\n      swap3\n      jump\t// out\n        /* \"#utility.yul\":5396:5482   */\n    tag_545:\n        /* \"#utility.yul\":5431:5438   */\n      0x00\n        /* \"#utility.yul\":5471:5475   */\n      0xff\n        /* \"#utility.yul\":5464:5469   */\n      dup3\n        /* \"#utility.yul\":5460:5476   */\n      and\n        /* \"#utility.yul\":5449:5476   */\n      swap1\n      pop\n        /* \"#utility.yul\":5396:5482   */\n      swap2\n      swap1\n      pop\n      jump\t// out\n        /* \"#utility.yul\":5488:5600   */\n    tag_546:\n        /* \"#utility.yul\":5571:5593   */\n      tag_674\n        /* \"#utility.yul\":5587:5592   */\n      dup2\n        /* \"#utility.yul\":5571:5593   */\n      tag_545\n      jump\t// in\n    tag_674:\n        /* \"#utility.yul\":5566:5569   */\n      dup3\n        /* \"#utility.yul\":5559:5594   */\n      mstore\n        /* \"#utility.yul\":5488:5600   */\n      pop\n      pop\n      jump\t// out\n        /* \"#utility.yul\":5606:5820   */\n    tag_95:\n        /* \"#utility.yul\":5695:5699   */\n      0x00\n        /* \"#utility.yul\":5733:5735   */\n      0x20\n        /* \"#utility.yul\":5722:5731   */\n      dup3\n        /* \"#utility.yul\":5718:5736   */\n      add\n        /* \"#utility.yul\":5710:5736   */\n      swap1\n      pop\n        /* \"#utility.yul\":5746:5813   */\n      tag_676\n        /* \"#utility.yul\":5810:5811   */\n      0x00\n        /* \"#utility.yul\":5799:5808   */\n      dup4\n        /* \"#utility.yul\":5795:5812   */\n      add\n        /* \"#utility.yul\":5786:5792   */\n      dup5\n        /* \"#utility.yul\":5746:5813   */\n      tag_546\n      jump\t// in\n    tag_676:\n        /* \"#utility.yul\":5606:5820   */\n      swap3\n      swap2\n      pop\n      pop\n      jump\t// out\n        /* \"#utility.yul\":5826:6155   */\n    tag_102:\n        /* \"#utility.yul\":5885:5891   */\n      0x00\n        /* \"#utility.yul\":5934:5936   */\n      0x20\n        /* \"#utility.yul\":5922:5931   */\n      dup3\n        /* \"#utility.yul\":5913:5920   */\n      dup5\n        /* \"#utility.yul\":5909:5932   */\n      sub\n        /* \"#utility.yul\":5905:5937   */\n      slt\n        /* \"#utility.yul\":5902:6021   */\n      iszero\n      tag_678\n      jumpi\n        /* \"#utility.yul\":5940:6019   */\n      tag_679\n      tag_528\n      jump\t// in\n    tag_679:\n        /* \"#utility.yul\":5902:6021   */\n    tag_678:\n        /* \"#utility.yul\":6060:6061   */\n      0x00\n        /* \"#utility.yul\":6085:6138   */\n      tag_680\n        /* \"#utility.yul\":6130:6137   */\n      dup5\n        /* \"#utility.yul\":6121:6127   */\n      dup3\n        /* \"#utility.yul\":6110:6119   */\n      dup6\n        /* \"#utility.yul\":6106:6128   */\n      add\n        /* \"#utility.yul\":6085:6138   */\n      tag_533\n      jump\t// in\n    tag_680:\n        /* \"#utility.yul\":6075:6138   */\n      swap2\n      pop\n        /* \"#utility.yul\":6031:6148   */\n      pop\n        /* \"#utility.yul\":5826:6155   */\n      swap3\n      swap2\n      pop\n      pop\n      jump\t// out\n        /* \"#utility.yul\":6161:6490   */\n    tag_107:\n        /* \"#utility.yul\":6220:6226   */\n      0x00\n        /* \"#utility.yul\":6269:6271   */\n      0x20\n        /* \"#utility.yul\":6257:6266   */\n      dup3\n        /* \"#utility.yul\":6248:6255   */\n      dup5\n        /* \"#utility.yul\":6244:6267   */\n      sub\n        /* \"#utility.yul\":6240:6272   */\n      slt\n        /* \"#utility.yul\":6237:6356   */\n      iszero\n      tag_682\n      jumpi\n        /* \"#utility.yul\":6275:6354   */\n      tag_683\n      tag_528\n      jump\t// in\n    tag_683:\n        /* \"#utility.yul\":6237:6356   */\n    tag_682:\n        /* \"#utility.yul\":6395:6396   */\n      0x00\n        /* \"#utility.yul\":6420:6473   */\n      tag_684\n        /* \"#utility.yul\":6465:6472   */\n      dup5\n        /* \"#utility.yul\":6456:6462   */\n      dup3\n        /* \"#utility.yul\":6445:6454   */\n      dup6\n        /* \"#utility.yul\":6441:6463   */\n      add\n        /* \"#utility.yul\":6420:6473   */\n      tag_536\n      jump\t// in\n    tag_684:\n        /* \"#utility.yul\":6410:6473   */\n      swap2\n      pop\n        /* \"#utility.yul\":6366:6483   */\n      pop\n        /* \"#utility.yul\":6161:6490   */\n      swap3\n      swap2\n      pop\n      pop\n      jump\t// out\n        /* \"#utility.yul\":6496:6614   */\n    tag_547:\n        /* \"#utility.yul\":6583:6607   */\n      tag_686\n        /* \"#utility.yul\":6601:6606   */\n      dup2\n        /* \"#utility.yul\":6583:6607   */\n      tag_531\n      jump\t// in\n    tag_686:\n        /* \"#utility.yul\":6578:6581   */\n      dup3\n        /* \"#utility.yul\":6571:6608   */\n      mstore\n        /* \"#utility.yul\":6496:6614   */\n      pop\n      pop\n      jump\t// out\n        /* \"#utility.yul\":6620:6842   */\n    tag_113:\n        /* \"#utility.yul\":6713:6717   */\n      0x00\n        /* \"#utility.yul\":6751:6753   */\n      0x20\n        /* \"#utility.yul\":6740:6749   */\n      dup3\n        /* \"#utility.yul\":6736:6754   */\n      add\n        /* \"#utility.yul\":6728:6754   */\n      swap1\n      pop\n        /* \"#utility.yul\":6764:6835   */\n      tag_688\n        /* \"#utility.yul\":6832:6833   */\n      0x00\n        /* \"#utility.yul\":6821:6830   */\n      dup4\n        /* \"#utility.yul\":6817:6834   */\n      add\n        /* \"#utility.yul\":6808:6814   */\n      dup5\n        /* \"#utility.yul\":6764:6835   */\n      tag_547\n      jump\t// in\n    tag_688:\n        /* \"#utility.yul\":6620:6842   */\n      swap3\n      swap2\n      pop\n      pop\n      jump\t// out\n        /* \"#utility.yul\":6848:6964   */\n    tag_548:\n        /* \"#utility.yul\":6918:6939   */\n      tag_690\n        /* \"#utility.yul\":6933:6938   */\n      dup2\n        /* \"#utility.yul\":6918:6939   */\n      tag_537\n      jump\t// in\n    tag_690:\n        /* \"#utility.yul\":6911:6916   */\n      dup2\n        /* \"#utility.yul\":6908:6940   */\n      eq\n        /* \"#utility.yul\":6898:6958   */\n      tag_691\n      jumpi\n        /* \"#utility.yul\":6954:6955   */\n      0x00\n        /* \"#utility.yul\":6951:6952   */\n      dup1\n        /* \"#utility.yul\":6944:6956   */\n      revert\n        /* \"#utility.yul\":6898:6958   */\n    tag_691:\n        /* \"#utility.yul\":6848:6964   */\n      pop\n      jump\t// out\n        /* \"#utility.yul\":6970:7103   */\n    tag_549:\n        /* \"#utility.yul\":7013:7018   */\n      0x00\n        /* \"#utility.yul\":7051:7057   */\n      dup2\n        /* \"#utility.yul\":7038:7058   */\n      calldataload\n        /* \"#utility.yul\":7029:7058   */\n      swap1\n      pop\n        /* \"#utility.yul\":7067:7097   */\n      tag_693\n        /* \"#utility.yul\":7091:7096   */\n      dup2\n        /* \"#utility.yul\":7067:7097   */\n      tag_548\n      jump\t// in\n    tag_693:\n        /* \"#utility.yul\":6970:7103   */\n      swap3\n      swap2\n      pop\n      pop\n      jump\t// out\n        /* \"#utility.yul\":7109:7577   */\n    tag_134:\n        /* \"#utility.yul\":7174:7180   */\n      0x00\n        /* \"#utility.yul\":7182:7188   */\n      dup1\n        /* \"#utility.yul\":7231:7233   */\n      0x40\n        /* \"#utility.yul\":7219:7228   */\n      dup4\n        /* \"#utility.yul\":7210:7217   */\n      dup6\n        /* \"#utility.yul\":7206:7229   */\n      sub\n        /* \"#utility.yul\":7202:7234   */\n      slt\n        /* \"#utility.yul\":7199:7318   */\n      iszero\n      tag_695\n      jumpi\n        /* \"#utility.yul\":7237:7316   */\n      tag_696\n      tag_528\n      jump\t// in\n    tag_696:\n        /* \"#utility.yul\":7199:7318   */\n    tag_695:\n        /* \"#utility.yul\":7357:7358   */\n      0x00\n        /* \"#utility.yul\":7382:7435   */\n      tag_697\n        /* \"#utility.yul\":7427:7434   */\n      dup6\n        /* \"#utility.yul\":7418:7424   */\n      dup3\n        /* \"#utility.yul\":7407:7416   */\n      dup7\n        /* \"#utility.yul\":7403:7425   */\n      add\n        /* \"#utility.yul\":7382:7435   */\n      tag_533\n      jump\t// in\n    tag_697:\n        /* \"#utility.yul\":7372:7435   */\n      swap3\n      pop\n        /* \"#utility.yul\":7328:7445   */\n      pop\n        /* \"#utility.yul\":7484:7486   */\n      0x20\n        /* \"#utility.yul\":7510:7560   */\n      tag_698\n        /* \"#utility.yul\":7552:7559   */\n      dup6\n        /* \"#utility.yul\":7543:7549   */\n      dup3\n        /* \"#utility.yul\":7532:7541   */\n      dup7\n        /* \"#utility.yul\":7528:7550   */\n      add\n        /* \"#utility.yul\":7510:7560   */\n      tag_549\n      jump\t// in\n    tag_698:\n        /* \"#utility.yul\":7500:7560   */\n      swap2\n      pop\n        /* \"#utility.yul\":7455:7570   */\n      pop\n        /* \"#utility.yul\":7109:7577   */\n      swap3\n      pop\n      swap3\n      swap1\n      pop\n      jump\t// out\n        /* \"#utility.yul\":7583:7906   */\n    tag_170:\n        /* \"#utility.yul\":7639:7645   */\n      0x00\n        /* \"#utility.yul\":7688:7690   */\n      0x20\n        /* \"#utility.yul\":7676:7685   */\n      dup3\n        /* \"#utility.yul\":7667:7674   */\n      dup5\n        /* \"#utility.yul\":7663:7686   */\n      sub\n        /* \"#utility.yul\":7659:7691   */\n      slt\n        /* \"#utility.yul\":7656:7775   */\n      iszero\n      tag_700\n      jumpi\n        /* \"#utility.yul\":7694:7773   */\n      tag_701\n      tag_528\n      jump\t// in\n    tag_701:\n        /* \"#utility.yul\":7656:7775   */\n    tag_700:\n        /* \"#utility.yul\":7814:7815   */\n      0x00\n        /* \"#utility.yul\":7839:7889   */\n      tag_702\n        /* \"#utility.yul\":7881:7888   */\n      dup5\n        /* \"#utility.yul\":7872:7878   */\n      dup3\n        /* \"#utility.yul\":7861:7870   */\n      dup6\n        /* \"#utility.yul\":7857:7879   */\n      add\n        /* \"#utility.yul\":7839:7889   */\n      tag_549\n      jump\t// in\n    tag_702:\n        /* \"#utility.yul\":7829:7889   */\n      swap2\n      pop\n        /* \"#utility.yul\":7785:7899   */\n      pop\n        /* \"#utility.yul\":7583:7906   */\n      swap3\n      swap2\n      pop\n      pop\n      jump\t// out\n        /* \"#utility.yul\":7912:8029   */\n    tag_550:\n        /* \"#utility.yul\":8021:8022   */\n      0x00\n        /* \"#utility.yul\":8018:8019   */\n      dup1\n        /* \"#utility.yul\":8011:8023   */\n      revert\n        /* \"#utility.yul\":8035:8152   */\n    tag_551:\n        /* \"#utility.yul\":8144:8145   */\n      0x00\n        /* \"#utility.yul\":8141:8142   */\n      dup1\n        /* \"#utility.yul\":8134:8146   */\n      revert\n        /* \"#utility.yul\":8158:8275   */\n    tag_552:\n        /* \"#utility.yul\":8267:8268   */\n      0x00\n        /* \"#utility.yul\":8264:8265   */\n      dup1\n        /* \"#utility.yul\":8257:8269   */\n      revert\n        /* \"#utility.yul\":8298:8866   */\n    tag_553:\n        /* \"#utility.yul\":8371:8379   */\n      0x00\n        /* \"#utility.yul\":8381:8387   */\n      dup1\n        /* \"#utility.yul\":8431:8434   */\n      dup4\n        /* \"#utility.yul\":8424:8428   */\n      0x1f\n        /* \"#utility.yul\":8416:8422   */\n      dup5\n        /* \"#utility.yul\":8412:8429   */\n      add\n        /* \"#utility.yul\":8408:8435   */\n      slt\n        /* \"#utility.yul\":8398:8520   */\n      tag_707\n      jumpi\n        /* \"#utility.yul\":8439:8518   */\n      tag_708\n      tag_550\n      jump\t// in\n    tag_708:\n        /* \"#utility.yul\":8398:8520   */\n    tag_707:\n        /* \"#utility.yul\":8552:8558   */\n      dup3\n        /* \"#utility.yul\":8539:8559   */\n      calldataload\n        /* \"#utility.yul\":8529:8559   */\n      swap1\n      pop\n        /* \"#utility.yul\":8582:8600   */\n      0xffffffffffffffff\n        /* \"#utility.yul\":8574:8580   */\n      dup2\n        /* \"#utility.yul\":8571:8601   */\n      gt\n        /* \"#utility.yul\":8568:8685   */\n      iszero\n      tag_709\n      jumpi\n        /* \"#utility.yul\":8604:8683   */\n      tag_710\n      tag_551\n      jump\t// in\n    tag_710:\n        /* \"#utility.yul\":8568:8685   */\n    tag_709:\n        /* \"#utility.yul\":8718:8722   */\n      0x20\n        /* \"#utility.yul\":8710:8716   */\n      dup4\n        /* \"#utility.yul\":8706:8723   */\n      add\n        /* \"#utility.yul\":8694:8723   */\n      swap2\n      pop\n        /* \"#utility.yul\":8772:8775   */\n      dup4\n        /* \"#utility.yul\":8764:8768   */\n      0x20\n        /* \"#utility.yul\":8756:8762   */\n      dup3\n        /* \"#utility.yul\":8752:8769   */\n      mul\n        /* \"#utility.yul\":8742:8750   */\n      dup4\n        /* \"#utility.yul\":8738:8770   */\n      add\n        /* \"#utility.yul\":8735:8776   */\n      gt\n        /* \"#utility.yul\":8732:8860   */\n      iszero\n      tag_711\n      jumpi\n        /* \"#utility.yul\":8779:8858   */\n      tag_712\n      tag_552\n      jump\t// in\n    tag_712:\n        /* \"#utility.yul\":8732:8860   */\n    tag_711:\n        /* \"#utility.yul\":8298:8866   */\n      swap3\n      pop\n      swap3\n      swap1\n      pop\n      jump\t// out\n        /* \"#utility.yul\":8872:9576   */\n    tag_213:\n        /* \"#utility.yul\":8967:8973   */\n      0x00\n        /* \"#utility.yul\":8975:8981   */\n      dup1\n        /* \"#utility.yul\":8983:8989   */\n      0x00\n        /* \"#utility.yul\":9032:9034   */\n      0x40\n        /* \"#utility.yul\":9020:9029   */\n      dup5\n        /* \"#utility.yul\":9011:9018   */\n      dup7\n        /* \"#utility.yul\":9007:9030   */\n      sub\n        /* \"#utility.yul\":9003:9035   */\n      slt\n        /* \"#utility.yul\":9000:9119   */\n      iszero\n      tag_714\n      jumpi\n        /* \"#utility.yul\":9038:9117   */\n      tag_715\n      tag_528\n      jump\t// in\n    tag_715:\n        /* \"#utility.yul\":9000:9119   */\n    tag_714:\n        /* \"#utility.yul\":9186:9187   */\n      0x00\n        /* \"#utility.yul\":9175:9184   */\n      dup5\n        /* \"#utility.yul\":9171:9188   */\n      add\n        /* \"#utility.yul\":9158:9189   */\n      calldataload\n        /* \"#utility.yul\":9216:9234   */\n      0xffffffffffffffff\n        /* \"#utility.yul\":9208:9214   */\n      dup2\n        /* \"#utility.yul\":9205:9235   */\n      gt\n        /* \"#utility.yul\":9202:9319   */\n      iszero\n      tag_716\n      jumpi\n        /* \"#utility.yul\":9238:9317   */\n      tag_717\n      tag_529\n      jump\t// in\n    tag_717:\n        /* \"#utility.yul\":9202:9319   */\n    tag_716:\n        /* \"#utility.yul\":9351:9431   */\n      tag_718\n        /* \"#utility.yul\":9423:9430   */\n      dup7\n        /* \"#utility.yul\":9414:9420   */\n      dup3\n        /* \"#utility.yul\":9403:9412   */\n      dup8\n        /* \"#utility.yul\":9399:9421   */\n      add\n        /* \"#utility.yul\":9351:9431   */\n      tag_553\n      jump\t// in\n    tag_718:\n        /* \"#utility.yul\":9333:9431   */\n      swap4\n      pop\n      swap4\n      pop\n        /* \"#utility.yul\":9129:9441   */\n      pop\n        /* \"#utility.yul\":9480:9482   */\n      0x20\n        /* \"#utility.yul\":9506:9559   */\n      tag_719\n        /* \"#utility.yul\":9551:9558   */\n      dup7\n        /* \"#utility.yul\":9542:9548   */\n      dup3\n        /* \"#utility.yul\":9531:9540   */\n      dup8\n        /* \"#utility.yul\":9527:9549   */\n      add\n        /* \"#utility.yul\":9506:9559   */\n      tag_536\n      jump\t// in\n    tag_719:\n        /* \"#utility.yul\":9496:9559   */\n      swap2\n      pop\n        /* \"#utility.yul\":9451:9569   */\n      pop\n        /* \"#utility.yul\":8872:9576   */\n      swap3\n      pop\n      swap3\n      pop\n      swap3\n      jump\t// out\n        /* \"#utility.yul\":9582:10056   */\n    tag_226:\n        /* \"#utility.yul\":9650:9656   */\n      0x00\n        /* \"#utility.yul\":9658:9664   */\n      dup1\n        /* \"#utility.yul\":9707:9709   */\n      0x40\n        /* \"#utility.yul\":9695:9704   */\n      dup4\n        /* \"#utility.yul\":9686:9693   */\n      dup6\n        /* \"#utility.yul\":9682:9705   */\n      sub\n        /* \"#utility.yul\":9678:9710   */\n      slt\n        /* \"#utility.yul\":9675:9794   */\n      iszero\n      tag_721\n      jumpi\n        /* \"#utility.yul\":9713:9792   */\n      tag_722\n      tag_528\n      jump\t// in\n    tag_722:\n        /* \"#utility.yul\":9675:9794   */\n    tag_721:\n        /* \"#utility.yul\":9833:9834   */\n      0x00\n        /* \"#utility.yul\":9858:9911   */\n      tag_723\n        /* \"#utility.yul\":9903:9910   */\n      dup6\n        /* \"#utility.yul\":9894:9900   */\n      dup3\n        /* \"#utility.yul\":9883:9892   */\n      dup7\n        /* \"#utility.yul\":9879:9901   */\n      add\n        /* \"#utility.yul\":9858:9911   */\n      tag_533\n      jump\t// in\n    tag_723:\n        /* \"#utility.yul\":9848:9911   */\n      swap3\n      pop\n        /* \"#utility.yul\":9804:9921   */\n      pop\n        /* \"#utility.yul\":9960:9962   */\n      0x20\n        /* \"#utility.yul\":9986:10039   */\n      tag_724\n        /* \"#utility.yul\":10031:10038   */\n      dup6\n        /* \"#utility.yul\":10022:10028   */\n      dup3\n        /* \"#utility.yul\":10011:10020   */\n      dup7\n        /* \"#utility.yul\":10007:10029   */\n      add\n        /* \"#utility.yul\":9986:10039   */\n      tag_533\n      jump\t// in\n    tag_724:\n        /* \"#utility.yul\":9976:10039   */\n      swap2\n      pop\n        /* \"#utility.yul\":9931:10049   */\n      pop\n        /* \"#utility.yul\":9582:10056   */\n      swap3\n      pop\n      swap3\n      swap1\n      pop\n      jump\t// out\n        /* \"#utility.yul\":10062:10242   */\n    tag_554:\n        /* \"#utility.yul\":10202:10234   */\n      0x4163636f756e7420697320616c726561647920626c61636b6c69737465640000\n        /* \"#utility.yul\":10198:10199   */\n      0x00\n        /* \"#utility.yul\":10190:10196   */\n      dup3\n        /* \"#utility.yul\":10186:10200   */\n      add\n        /* \"#utility.yul\":10179:10235   */\n      mstore\n        /* \"#utility.yul\":10062:10242   */\n      pop\n      jump\t// out\n        /* \"#utility.yul\":10248:10614   */\n    tag_555:\n        /* \"#utility.yul\":10390:10393   */\n      0x00\n        /* \"#utility.yul\":10411:10478   */\n      tag_727\n        /* \"#utility.yul\":10475:10477   */\n      0x1e\n        /* \"#utility.yul\":10470:10473   */\n      dup4\n        /* \"#utility.yul\":10411:10478   */\n      tag_523\n      jump\t// in\n    tag_727:\n        /* \"#utility.yul\":10404:10478   */\n      swap2\n      pop\n        /* \"#utility.yul\":10487:10580   */\n      tag_728\n        /* \"#utility.yul\":10576:10579   */\n      dup3\n        /* \"#utility.yul\":10487:10580   */\n      tag_554\n      jump\t// in\n    tag_728:\n        /* \"#utility.yul\":10605:10607   */\n      0x20\n        /* \"#utility.yul\":10600:10603   */\n      dup3\n        /* \"#utility.yul\":10596:10608   */\n      add\n        /* \"#utility.yul\":10589:10608   */\n      swap1\n      pop\n        /* \"#utility.yul\":10248:10614   */\n      swap2\n      swap1\n      pop\n      jump\t// out\n        /* \"#utility.yul\":10620:11039   */\n    tag_267:\n        /* \"#utility.yul\":10786:10790   */\n      0x00\n        /* \"#utility.yul\":10824:10826   */\n      0x20\n        /* \"#utility.yul\":10813:10822   */\n      dup3\n        /* \"#utility.yul\":10809:10827   */\n      add\n        /* \"#utility.yul\":10801:10827   */\n      swap1\n      pop\n        /* \"#utility.yul\":10873:10882   */\n      dup2\n        /* \"#utility.yul\":10867:10871   */\n      dup2\n        /* \"#utility.yul\":10863:10883   */\n      sub\n        /* \"#utility.yul\":10859:10860   */\n      0x00\n        /* \"#utility.yul\":10848:10857   */\n      dup4\n        /* \"#utility.yul\":10844:10861   */\n      add\n        /* \"#utility.yul\":10837:10884   */\n      mstore\n        /* \"#utility.yul\":10901:11032   */\n      tag_730\n        /* \"#utility.yul\":11027:11031   */\n      dup2\n        /* \"#utility.yul\":10901:11032   */\n      tag_555\n      jump\t// in\n    tag_730:\n        /* \"#utility.yul\":10893:11032   */\n      swap1\n      pop\n        /* \"#utility.yul\":10620:11039   */\n      swap2\n      swap1\n      pop\n      jump\t// out\n        /* \"#utility.yul\":11045:11216   */\n    tag_556:\n        /* \"#utility.yul\":11185:11208   */\n      0x43616e6e6f7420626c61636b6c6973742073656c660000000000000000000000\n        /* \"#utility.yul\":11181:11182   */\n      0x00\n        /* \"#utility.yul\":11173:11179   */\n      dup3\n        /* \"#utility.yul\":11169:11183   */\n      add\n        /* \"#utility.yul\":11162:11209   */\n      mstore\n        /* \"#utility.yul\":11045:11216   */\n      pop\n      jump\t// out\n        /* \"#utility.yul\":11222:11588   */\n    tag_557:\n        /* \"#utility.yul\":11364:11367   */\n      0x00\n        /* \"#utility.yul\":11385:11452   */\n      tag_733\n        /* \"#utility.yul\":11449:11451   */\n      0x15\n        /* \"#utility.yul\":11444:11447   */\n      dup4\n        /* \"#utility.yul\":11385:11452   */\n      tag_523\n      jump\t// in\n    tag_733:\n        /* \"#utility.yul\":11378:11452   */\n      swap2\n      pop\n        /* \"#utility.yul\":11461:11554   */\n      tag_734\n        /* \"#utility.yul\":11550:11553   */\n      dup3\n        /* \"#utility.yul\":11461:11554   */\n      tag_556\n      jump\t// in\n    tag_734:\n        /* \"#utility.yul\":11579:11581   */\n      0x20\n        /* \"#utility.yul\":11574:11577   */\n      dup3\n        /* \"#utility.yul\":11570:11582   */\n      add\n        /* \"#utility.yul\":11563:11582   */\n      swap1\n      pop\n        /* \"#utility.yul\":11222:11588   */\n      swap2\n      swap1\n      pop\n      jump\t// out\n        /* \"#utility.yul\":11594:12013   */\n    tag_272:\n        /* \"#utility.yul\":11760:11764   */\n      0x00\n        /* \"#utility.yul\":11798:11800   */\n      0x20\n        /* \"#utility.yul\":11787:11796   */\n      dup3\n        /* \"#utility.yul\":11783:11801   */\n      add\n        /* \"#utility.yul\":11775:11801   */\n      swap1\n      pop\n        /* \"#utility.yul\":11847:11856   */\n      dup2\n        /* \"#utility.yul\":11841:11845   */\n      dup2\n        /* \"#utility.yul\":11837:11857   */\n      sub\n        /* \"#utility.yul\":11833:11834   */\n      0x00\n        /* \"#utility.yul\":11822:11831   */\n      dup4\n        /* \"#utility.yul\":11818:11835   */\n      add\n        /* \"#utility.yul\":11811:11858   */\n      mstore\n        /* \"#utility.yul\":11875:12006   */\n      tag_736\n        /* \"#utility.yul\":12001:12005   */\n      dup2\n        /* \"#utility.yul\":11875:12006   */\n      tag_557\n      jump\t// in\n    tag_736:\n        /* \"#utility.yul\":11867:12006   */\n      swap1\n      pop\n        /* \"#utility.yul\":11594:12013   */\n      swap2\n      swap1\n      pop\n      jump\t// out\n        /* \"#utility.yul\":12019:12195   */\n    tag_558:\n        /* \"#utility.yul\":12159:12187   */\n      0x4163636f756e74206973206e6f7420626c61636b6c6973746564000000000000\n        /* \"#utility.yul\":12155:12156   */\n      0x00\n        /* \"#utility.yul\":12147:12153   */\n      dup3\n        /* \"#utility.yul\":12143:12157   */\n      add\n        /* \"#utility.yul\":12136:12188   */\n      mstore\n        /* \"#utility.yul\":12019:12195   */\n      pop\n      jump\t// out\n        /* \"#utility.yul\":12201:12567   */\n    tag_559:\n        /* \"#utility.yul\":12343:12346   */\n      0x00\n        /* \"#utility.yul\":12364:12431   */\n      tag_739\n        /* \"#utility.yul\":12428:12430   */\n      0x1a\n        /* \"#utility.yul\":12423:12426   */\n      dup4\n        /* \"#utility.yul\":12364:12431   */\n      tag_523\n      jump\t// in\n    tag_739:\n        /* \"#utility.yul\":12357:12431   */\n      swap2\n      pop\n        /* \"#utility.yul\":12440:12533   */\n      tag_740\n        /* \"#utility.yul\":12529:12532   */\n      dup3\n        /* \"#utility.yul\":12440:12533   */\n      tag_558\n      jump\t// in\n    tag_740:\n        /* \"#utility.yul\":12558:12560   */\n      0x20\n        /* \"#utility.yul\":12553:12556   */\n      dup3\n        /* \"#utility.yul\":12549:12561   */\n      add\n        /* \"#utility.yul\":12542:12561   */\n      swap1\n      pop\n        /* \"#utility.yul\":12201:12567   */\n      swap2\n      swap1\n      pop\n      jump\t// out\n        /* \"#utility.yul\":12573:12992   */\n    tag_282:\n        /* \"#utility.yul\":12739:12743   */\n      0x00\n        /* \"#utility.yul\":12777:12779   */\n      0x20\n        /* \"#utility.yul\":12766:12775   */\n      dup3\n        /* \"#utility.yul\":12762:12780   */\n      add\n        /* \"#utility.yul\":12754:12780   */\n      swap1\n      pop\n        /* \"#utility.yul\":12826:12835   */\n      dup2\n        /* \"#utility.yul\":12820:12824   */\n      dup2\n        /* \"#utility.yul\":12816:12836   */\n      sub\n        /* \"#utility.yul\":12812:12813   */\n      0x00\n        /* \"#utility.yul\":12801:12810   */\n      dup4\n        /* \"#utility.yul\":12797:12814   */\n      add\n        /* \"#utility.yul\":12790:12837   */\n      mstore\n        /* \"#utility.yul\":12854:12985   */\n      tag_742\n        /* \"#utility.yul\":12980:12984   */\n      dup2\n        /* \"#utility.yul\":12854:12985   */\n      tag_559\n      jump\t// in\n    tag_742:\n        /* \"#utility.yul\":12846:12985   */\n      swap1\n      pop\n        /* \"#utility.yul\":12573:12992   */\n      swap2\n      swap1\n      pop\n      jump\t// out\n        /* \"#utility.yul\":12998:13218   */\n    tag_560:\n        /* \"#utility.yul\":13138:13172   */\n      0x43616e6e6f742072656d6f76652073656c662066726f6d20626c61636b6c6973\n        /* \"#utility.yul\":13134:13135   */\n      0x00\n        /* \"#utility.yul\":13126:13132   */\n      dup3\n        /* \"#utility.yul\":13122:13136   */\n      add\n        /* \"#utility.yul\":13115:13173   */\n      mstore\n        /* \"#utility.yul\":13207:13210   */\n      0x7400000000000000000000000000000000000000000000000000000000000000\n        /* \"#utility.yul\":13202:13204   */\n      0x20\n        /* \"#utility.yul\":13194:13200   */\n      dup3\n        /* \"#utility.yul\":13190:13205   */\n      add\n        /* \"#utility.yul\":13183:13211   */\n      mstore\n        /* \"#utility.yul\":12998:13218   */\n      pop\n      jump\t// out\n        /* \"#utility.yul\":13224:13590   */\n    tag_561:\n        /* \"#utility.yul\":13366:13369   */\n      0x00\n        /* \"#utility.yul\":13387:13454   */\n      tag_745\n        /* \"#utility.yul\":13451:13453   */\n      0x21\n        /* \"#utility.yul\":13446:13449   */\n      dup4\n        /* \"#utility.yul\":13387:13454   */\n      tag_523\n      jump\t// in\n    tag_745:\n        /* \"#utility.yul\":13380:13454   */\n      swap2\n      pop\n        /* \"#utility.yul\":13463:13556   */\n      tag_746\n        /* \"#utility.yul\":13552:13555   */\n      dup3\n        /* \"#utility.yul\":13463:13556   */\n      tag_560\n      jump\t// in\n    tag_746:\n        /* \"#utility.yul\":13581:13583   */\n      0x40\n        /* \"#utility.yul\":13576:13579   */\n      dup3\n        /* \"#utility.yul\":13572:13584   */\n      add\n        /* \"#utility.yul\":13565:13584   */\n      swap1\n      pop\n        /* \"#utility.yul\":13224:13590   */\n      swap2\n      swap1\n      pop\n      jump\t// out\n        /* \"#utility.yul\":13596:14015   */\n    tag_286:\n        /* \"#utility.yul\":13762:13766   */\n      0x00\n        /* \"#utility.yul\":13800:13802   */\n      0x20\n        /* \"#utility.yul\":13789:13798   */\n      dup3\n        /* \"#utility.yul\":13785:13803   */\n      add\n        /* \"#utility.yul\":13777:13803   */\n      swap1\n      pop\n        /* \"#utility.yul\":13849:13858   */\n      dup2\n        /* \"#utility.yul\":13843:13847   */\n      dup2\n        /* \"#utility.yul\":13839:13859   */\n      sub\n        /* \"#utility.yul\":13835:13836   */\n      0x00\n        /* \"#utility.yul\":13824:13833   */\n      dup4\n        /* \"#utility.yul\":13820:13837   */\n      add\n        /* \"#utility.yul\":13813:13860   */\n      mstore\n        /* \"#utility.yul\":13877:14008   */\n      tag_748\n        /* \"#utility.yul\":14003:14007   */\n      dup2\n        /* \"#utility.yul\":13877:14008   */\n      tag_561\n      jump\t// in\n    tag_748:\n        /* \"#utility.yul\":13869:14008   */\n      swap1\n      pop\n        /* \"#utility.yul\":13596:14015   */\n      swap2\n      swap1\n      pop\n      jump\t// out\n        /* \"#utility.yul\":14021:14203   */\n    tag_562:\n        /* \"#utility.yul\":14161:14195   */\n      0x5461782070657263656e746167652063616e6e6f742065786365656420313030\n        /* \"#utility.yul\":14157:14158   */\n      0x00\n        /* \"#utility.yul\":14149:14155   */\n      dup3\n        /* \"#utility.yul\":14145:14159   */\n      add\n        /* \"#utility.yul\":14138:14196   */\n      mstore\n        /* \"#utility.yul\":14021:14203   */\n      pop\n      jump\t// out\n        /* \"#utility.yul\":14209:14575   */\n    tag_563:\n        /* \"#utility.yul\":14351:14354   */\n      0x00\n        /* \"#utility.yul\":14372:14439   */\n      tag_751\n        /* \"#utility.yul\":14436:14438   */\n      0x20\n        /* \"#utility.yul\":14431:14434   */\n      dup4\n        /* \"#utility.yul\":14372:14439   */\n      tag_523\n      jump\t// in\n    tag_751:\n        /* \"#utility.yul\":14365:14439   */\n      swap2\n      pop\n        /* \"#utility.yul\":14448:14541   */\n      tag_752\n        /* \"#utility.yul\":14537:14540   */\n      dup3\n        /* \"#utility.yul\":14448:14541   */\n      tag_562\n      jump\t// in\n    tag_752:\n        /* \"#utility.yul\":14566:14568   */\n      0x20\n        /* \"#utility.yul\":14561:14564   */\n      dup3\n        /* \"#utility.yul\":14557:14569   */\n      add\n        /* \"#utility.yul\":14550:14569   */\n      swap1\n      pop\n        /* \"#utility.yul\":14209:14575   */\n      swap2\n      swap1\n      pop\n      jump\t// out\n        /* \"#utility.yul\":14581:15000   */\n    tag_298:\n        /* \"#utility.yul\":14747:14751   */\n      0x00\n        /* \"#utility.yul\":14785:14787   */\n      0x20\n        /* \"#utility.yul\":14774:14783   */\n      dup3\n        /* \"#utility.yul\":14770:14788   */\n      add\n        /* \"#utility.yul\":14762:14788   */\n      swap1\n      pop\n        /* \"#utility.yul\":14834:14843   */\n      dup2\n        /* \"#utility.yul\":14828:14832   */\n      dup2\n        /* \"#utility.yul\":14824:14844   */\n      sub\n        /* \"#utility.yul\":14820:14821   */\n      0x00\n        /* \"#utility.yul\":14809:14818   */\n      dup4\n        /* \"#utility.yul\":14805:14822   */\n      add\n        /* \"#utility.yul\":14798:14845   */\n      mstore\n        /* \"#utility.yul\":14862:14993   */\n      tag_754\n        /* \"#utility.yul\":14988:14992   */\n      dup2\n        /* \"#utility.yul\":14862:14993   */\n      tag_563\n      jump\t// in\n    tag_754:\n        /* \"#utility.yul\":14854:14993   */\n      swap1\n      pop\n        /* \"#utility.yul\":14581:15000   */\n      swap2\n      swap1\n      pop\n      jump\t// out\n        /* \"#utility.yul\":15006:15186   */\n    tag_564:\n        /* \"#utility.yul\":15054:15131   */\n      0x4e487b7100000000000000000000000000000000000000000000000000000000\n        /* \"#utility.yul\":15051:15052   */\n      0x00\n        /* \"#utility.yul\":15044:15132   */\n      mstore\n        /* \"#utility.yul\":15151:15155   */\n      0x11\n        /* \"#utility.yul\":15148:15149   */\n      0x04\n        /* \"#utility.yul\":15141:15156   */\n      mstore\n        /* \"#utility.yul\":15175:15179   */\n      0x24\n        /* \"#utility.yul\":15172:15173   */\n      0x00\n        /* \"#utility.yul\":15165:15180   */\n      revert\n        /* \"#utility.yul\":15192:15383   */\n    tag_300:\n        /* \"#utility.yul\":15232:15235   */\n      0x00\n        /* \"#utility.yul\":15251:15271   */\n      tag_757\n        /* \"#utility.yul\":15269:15270   */\n      dup3\n        /* \"#utility.yul\":15251:15271   */\n      tag_534\n      jump\t// in\n    tag_757:\n        /* \"#utility.yul\":15246:15271   */\n      swap2\n      pop\n        /* \"#utility.yul\":15285:15305   */\n      tag_758\n        /* \"#utility.yul\":15303:15304   */\n      dup4\n        /* \"#utility.yul\":15285:15305   */\n      tag_534\n      jump\t// in\n    tag_758:\n        /* \"#utility.yul\":15280:15305   */\n      swap3\n      pop\n        /* \"#utility.yul\":15328:15329   */\n      dup3\n        /* \"#utility.yul\":15325:15326   */\n      dup3\n        /* \"#utility.yul\":15321:15330   */\n      add\n        /* \"#utility.yul\":15314:15330   */\n      swap1\n      pop\n        /* \"#utility.yul\":15349:15352   */\n      dup1\n        /* \"#utility.yul\":15346:15347   */\n      dup3\n        /* \"#utility.yul\":15343:15353   */\n      gt\n        /* \"#utility.yul\":15340:15376   */\n      iszero\n      tag_759\n      jumpi\n        /* \"#utility.yul\":15356:15374   */\n      tag_760\n      tag_564\n      jump\t// in\n    tag_760:\n        /* \"#utility.yul\":15340:15376   */\n    tag_759:\n        /* \"#utility.yul\":15192:15383   */\n      swap3\n      swap2\n      pop\n      pop\n      jump\t// out\n        /* \"#utility.yul\":15389:15799   */\n    tag_303:\n        /* \"#utility.yul\":15429:15436   */\n      0x00\n        /* \"#utility.yul\":15452:15472   */\n      tag_762\n        /* \"#utility.yul\":15470:15471   */\n      dup3\n        /* \"#utility.yul\":15452:15472   */\n      tag_534\n      jump\t// in\n    tag_762:\n        /* \"#utility.yul\":15447:15472   */\n      swap2\n      pop\n        /* \"#utility.yul\":15486:15506   */\n      tag_763\n        /* \"#utility.yul\":15504:15505   */\n      dup4\n        /* \"#utility.yul\":15486:15506   */\n      tag_534\n      jump\t// in\n    tag_763:\n        /* \"#utility.yul\":15481:15506   */\n      swap3\n      pop\n        /* \"#utility.yul\":15541:15542   */\n      dup3\n        /* \"#utility.yul\":15538:15539   */\n      dup3\n        /* \"#utility.yul\":15534:15543   */\n      mul\n        /* \"#utility.yul\":15563:15593   */\n      tag_764\n        /* \"#utility.yul\":15581:15592   */\n      dup2\n        /* \"#utility.yul\":15563:15593   */\n      tag_534\n      jump\t// in\n    tag_764:\n        /* \"#utility.yul\":15552:15593   */\n      swap2\n      pop\n        /* \"#utility.yul\":15742:15743   */\n      dup3\n        /* \"#utility.yul\":15733:15740   */\n      dup3\n        /* \"#utility.yul\":15729:15744   */\n      div\n        /* \"#utility.yul\":15726:15727   */\n      dup5\n        /* \"#utility.yul\":15723:15745   */\n      eq\n        /* \"#utility.yul\":15703:15704   */\n      dup4\n        /* \"#utility.yul\":15696:15705   */\n      iszero\n        /* \"#utility.yul\":15676:15759   */\n      or\n        /* \"#utility.yul\":15653:15792   */\n      tag_765\n      jumpi\n        /* \"#utility.yul\":15772:15790   */\n      tag_766\n      tag_564\n      jump\t// in\n    tag_766:\n        /* \"#utility.yul\":15653:15792   */\n    tag_765:\n        /* \"#utility.yul\":15437:15799   */\n      pop\n        /* \"#utility.yul\":15389:15799   */\n      swap3\n      swap2\n      pop\n      pop\n      jump\t// out\n        /* \"#utility.yul\":15805:15985   */\n    tag_565:\n        /* \"#utility.yul\":15853:15930   */\n      0x4e487b7100000000000000000000000000000000000000000000000000000000\n        /* \"#utility.yul\":15850:15851   */\n      0x00\n        /* \"#utility.yul\":15843:15931   */\n      mstore\n        /* \"#utility.yul\":15950:15954   */\n      0x12\n        /* \"#utility.yul\":15947:15948   */\n      0x04\n        /* \"#utility.yul\":15940:15955   */\n      mstore\n        /* \"#utility.yul\":15974:15978   */\n      0x24\n        /* \"#utility.yul\":15971:15972   */\n      0x00\n        /* \"#utility.yul\":15964:15979   */\n      revert\n        /* \"#utility.yul\":15991:16176   */\n    tag_305:\n        /* \"#utility.yul\":16031:16032   */\n      0x00\n        /* \"#utility.yul\":16048:16068   */\n      tag_769\n        /* \"#utility.yul\":16066:16067   */\n      dup3\n        /* \"#utility.yul\":16048:16068   */\n      tag_534\n      jump\t// in\n    tag_769:\n        /* \"#utility.yul\":16043:16068   */\n      swap2\n      pop\n        /* \"#utility.yul\":16082:16102   */\n      tag_770\n        /* \"#utility.yul\":16100:16101   */\n      dup4\n        /* \"#utility.yul\":16082:16102   */\n      tag_534\n      jump\t// in\n    tag_770:\n        /* \"#utility.yul\":16077:16102   */\n      swap3\n      pop\n        /* \"#utility.yul\":16121:16122   */\n      dup3\n        /* \"#utility.yul\":16111:16146   */\n      tag_771\n      jumpi\n        /* \"#utility.yul\":16126:16144   */\n      tag_772\n      tag_565\n      jump\t// in\n    tag_772:\n        /* \"#utility.yul\":16111:16146   */\n    tag_771:\n        /* \"#utility.yul\":16168:16169   */\n      dup3\n        /* \"#utility.yul\":16165:16166   */\n      dup3\n        /* \"#utility.yul\":16161:16170   */\n      div\n        /* \"#utility.yul\":16156:16170   */\n      swap1\n      pop\n        /* \"#utility.yul\":15991:16176   */\n      swap3\n      swap2\n      pop\n      pop\n      jump\t// out\n        /* \"#utility.yul\":16182:16426   */\n    tag_566:\n        /* \"#utility.yul\":16322:16356   */\n      0x54686520706169722063616e6e6f742062652072656d6f7665642066726f6d20\n        /* \"#utility.yul\":16318:16319   */\n      0x00\n        /* \"#utility.yul\":16310:16316   */\n      dup3\n        /* \"#utility.yul\":16306:16320   */\n      add\n        /* \"#utility.yul\":16299:16357   */\n      mstore\n        /* \"#utility.yul\":16391:16418   */\n      0x6175746f6d617465644d61726b65744d616b6572506169727300000000000000\n        /* \"#utility.yul\":16386:16388   */\n      0x20\n        /* \"#utility.yul\":16378:16384   */\n      dup3\n        /* \"#utility.yul\":16374:16389   */\n      add\n        /* \"#utility.yul\":16367:16419   */\n      mstore\n        /* \"#utility.yul\":16182:16426   */\n      pop\n      jump\t// out\n        /* \"#utility.yul\":16432:16798   */\n    tag_567:\n        /* \"#utility.yul\":16574:16577   */\n      0x00\n        /* \"#utility.yul\":16595:16662   */\n      tag_775\n        /* \"#utility.yul\":16659:16661   */\n      0x39\n        /* \"#utility.yul\":16654:16657   */\n      dup4\n        /* \"#utility.yul\":16595:16662   */\n      tag_523\n      jump\t// in\n    tag_775:\n        /* \"#utility.yul\":16588:16662   */\n      swap2\n      pop\n        /* \"#utility.yul\":16671:16764   */\n      tag_776\n        /* \"#utility.yul\":16760:16763   */\n      dup3\n        /* \"#utility.yul\":16671:16764   */\n      tag_566\n      jump\t// in\n    tag_776:\n        /* \"#utility.yul\":16789:16791   */\n      0x40\n        /* \"#utility.yul\":16784:16787   */\n      dup3\n        /* \"#utility.yul\":16780:16792   */\n      add\n        /* \"#utility.yul\":16773:16792   */\n      swap1\n      pop\n        /* \"#utility.yul\":16432:16798   */\n      swap2\n      swap1\n      pop\n      jump\t// out\n        /* \"#utility.yul\":16804:17223   */\n    tag_329:\n        /* \"#utility.yul\":16970:16974   */\n      0x00\n        /* \"#utility.yul\":17008:17010   */\n      0x20\n        /* \"#utility.yul\":16997:17006   */\n      dup3\n        /* \"#utility.yul\":16993:17011   */\n      add\n        /* \"#utility.yul\":16985:17011   */\n      swap1\n      pop\n        /* \"#utility.yul\":17057:17066   */\n      dup2\n        /* \"#utility.yul\":17051:17055   */\n      dup2\n        /* \"#utility.yul\":17047:17067   */\n      sub\n        /* \"#utility.yul\":17043:17044   */\n      0x00\n        /* \"#utility.yul\":17032:17041   */\n      dup4\n        /* \"#utility.yul\":17028:17045   */\n      add\n        /* \"#utility.yul\":17021:17068   */\n      mstore\n        /* \"#utility.yul\":17085:17216   */\n      tag_778\n        /* \"#utility.yul\":17211:17215   */\n      dup2\n        /* \"#utility.yul\":17085:17216   */\n      tag_567\n      jump\t// in\n    tag_778:\n        /* \"#utility.yul\":17077:17216   */\n      swap1\n      pop\n        /* \"#utility.yul\":16804:17223   */\n      swap2\n      swap1\n      pop\n      jump\t// out\n        /* \"#utility.yul\":17229:17409   */\n    tag_370:\n        /* \"#utility.yul\":17277:17354   */\n      0x4e487b7100000000000000000000000000000000000000000000000000000000\n        /* \"#utility.yul\":17274:17275   */\n      0x00\n        /* \"#utility.yul\":17267:17355   */\n      mstore\n        /* \"#utility.yul\":17374:17378   */\n      0x32\n        /* \"#utility.yul\":17371:17372   */\n      0x04\n        /* \"#utility.yul\":17364:17379   */\n      mstore\n        /* \"#utility.yul\":17398:17402   */\n      0x24\n        /* \"#utility.yul\":17395:17396   */\n      0x00\n        /* \"#utility.yul\":17388:17403   */\n      revert\n        /* \"#utility.yul\":17415:17637   */\n    tag_568:\n        /* \"#utility.yul\":17555:17589   */\n      0x45524332303a207472616e7366657220746f20746865207a65726f2061646472\n        /* \"#utility.yul\":17551:17552   */\n      0x00\n        /* \"#utility.yul\":17543:17549   */\n      dup3\n        /* \"#utility.yul\":17539:17553   */\n      add\n        /* \"#utility.yul\":17532:17590   */\n      mstore\n        /* \"#utility.yul\":17624:17629   */\n      0x6573730000000000000000000000000000000000000000000000000000000000\n        /* \"#utility.yul\":17619:17621   */\n      0x20\n        /* \"#utility.yul\":17611:17617   */\n      dup3\n        /* \"#utility.yul\":17607:17622   */\n      add\n        /* \"#utility.yul\":17600:17630   */\n      mstore\n        /* \"#utility.yul\":17415:17637   */\n      pop\n      jump\t// out\n        /* \"#utility.yul\":17643:18009   */\n    tag_569:\n        /* \"#utility.yul\":17785:17788   */\n      0x00\n        /* \"#utility.yul\":17806:17873   */\n      tag_782\n        /* \"#utility.yul\":17870:17872   */\n      0x23\n        /* \"#utility.yul\":17865:17868   */\n      dup4\n        /* \"#utility.yul\":17806:17873   */\n      tag_523\n      jump\t// in\n    tag_782:\n        /* \"#utility.yul\":17799:17873   */\n      swap2\n      pop\n        /* \"#utility.yul\":17882:17975   */\n      tag_783\n        /* \"#utility.yul\":17971:17974   */\n      dup3\n        /* \"#utility.yul\":17882:17975   */\n      tag_568\n      jump\t// in\n    tag_783:\n        /* \"#utility.yul\":18000:18002   */\n      0x40\n        /* \"#utility.yul\":17995:17998   */\n      dup3\n        /* \"#utility.yul\":17991:18003   */\n      add\n        /* \"#utility.yul\":17984:18003   */\n      swap1\n      pop\n        /* \"#utility.yul\":17643:18009   */\n      swap2\n      swap1\n      pop\n      jump\t// out\n        /* \"#utility.yul\":18015:18434   */\n    tag_374:\n        /* \"#utility.yul\":18181:18185   */\n      0x00\n        /* \"#utility.yul\":18219:18221   */\n      0x20\n        /* \"#utility.yul\":18208:18217   */\n      dup3\n        /* \"#utility.yul\":18204:18222   */\n      add\n        /* \"#utility.yul\":18196:18222   */\n      swap1\n      pop\n        /* \"#utility.yul\":18268:18277   */\n      dup2\n        /* \"#utility.yul\":18262:18266   */\n      dup2\n        /* \"#utility.yul\":18258:18278   */\n      sub\n        /* \"#utility.yul\":18254:18255   */\n      0x00\n        /* \"#utility.yul\":18243:18252   */\n      dup4\n        /* \"#utility.yul\":18239:18256   */\n      add\n        /* \"#utility.yul\":18232:18279   */\n      mstore\n        /* \"#utility.yul\":18296:18427   */\n      tag_785\n        /* \"#utility.yul\":18422:18426   */\n      dup2\n        /* \"#utility.yul\":18296:18427   */\n      tag_569\n      jump\t// in\n    tag_785:\n        /* \"#utility.yul\":18288:18427   */\n      swap1\n      pop\n        /* \"#utility.yul\":18015:18434   */\n      swap2\n      swap1\n      pop\n      jump\t// out\n        /* \"#utility.yul\":18440:18665   */\n    tag_570:\n        /* \"#utility.yul\":18580:18614   */\n      0x4f776e61626c653a206e6577206f776e657220697320746865207a65726f2061\n        /* \"#utility.yul\":18576:18577   */\n      0x00\n        /* \"#utility.yul\":18568:18574   */\n      dup3\n        /* \"#utility.yul\":18564:18578   */\n      add\n        /* \"#utility.yul\":18557:18615   */\n      mstore\n        /* \"#utility.yul\":18649:18657   */\n      0x6464726573730000000000000000000000000000000000000000000000000000\n        /* \"#utility.yul\":18644:18646   */\n      0x20\n        /* \"#utility.yul\":18636:18642   */\n      dup3\n        /* \"#utility.yul\":18632:18647   */\n      add\n        /* \"#utility.yul\":18625:18658   */\n      mstore\n        /* \"#utility.yul\":18440:18665   */\n      pop\n      jump\t// out\n        /* \"#utility.yul\":18671:19037   */\n    tag_571:\n        /* \"#utility.yul\":18813:18816   */\n      0x00\n        /* \"#utility.yul\":18834:18901   */\n      tag_788\n        /* \"#utility.yul\":18898:18900   */\n      0x26\n        /* \"#utility.yul\":18893:18896   */\n      dup4\n        /* \"#utility.yul\":18834:18901   */\n      tag_523\n      jump\t// in\n    tag_788:\n        /* \"#utility.yul\":18827:18901   */\n      swap2\n      pop\n        /* \"#utility.yul\":18910:19003   */\n      tag_789\n        /* \"#utility.yul\":18999:19002   */\n      dup3\n        /* \"#utility.yul\":18910:19003   */\n      tag_570\n      jump\t// in\n    tag_789:\n        /* \"#utility.yul\":19028:19030   */\n      0x40\n        /* \"#utility.yul\":19023:19026   */\n      dup3\n        /* \"#utility.yul\":19019:19031   */\n      add\n        /* \"#utility.yul\":19012:19031   */\n      swap1\n      pop\n        /* \"#utility.yul\":18671:19037   */\n      swap2\n      swap1\n      pop\n      jump\t// out\n        /* \"#utility.yul\":19043:19462   */\n    tag_383:\n        /* \"#utility.yul\":19209:19213   */\n      0x00\n        /* \"#utility.yul\":19247:19249   */\n      0x20\n        /* \"#utility.yul\":19236:19245   */\n      dup3\n        /* \"#utility.yul\":19232:19250   */\n      add\n        /* \"#utility.yul\":19224:19250   */\n      swap1\n      pop\n        /* \"#utility.yul\":19296:19305   */\n      dup2\n        /* \"#utility.yul\":19290:19294   */\n      dup2\n        /* \"#utility.yul\":19286:19306   */\n      sub\n        /* \"#utility.yul\":19282:19283   */\n      0x00\n        /* \"#utility.yul\":19271:19280   */\n      dup4\n        /* \"#utility.yul\":19267:19284   */\n      add\n        /* \"#utility.yul\":19260:19307   */\n      mstore\n        /* \"#utility.yul\":19324:19455   */\n      tag_791\n        /* \"#utility.yul\":19450:19454   */\n      dup2\n        /* \"#utility.yul\":19324:19455   */\n      tag_571\n      jump\t// in\n    tag_791:\n        /* \"#utility.yul\":19316:19455   */\n      swap1\n      pop\n        /* \"#utility.yul\":19043:19462   */\n      swap2\n      swap1\n      pop\n      jump\t// out\n        /* \"#utility.yul\":19468:19691   */\n    tag_572:\n        /* \"#utility.yul\":19608:19642   */\n      0x45524332303a20617070726f76652066726f6d20746865207a65726f20616464\n        /* \"#utility.yul\":19604:19605   */\n      0x00\n        /* \"#utility.yul\":19596:19602   */\n      dup3\n        /* \"#utility.yul\":19592:19606   */\n      add\n        /* \"#utility.yul\":19585:19643   */\n      mstore\n        /* \"#utility.yul\":19677:19683   */\n      0x7265737300000000000000000000000000000000000000000000000000000000\n        /* \"#utility.yul\":19672:19674   */\n      0x20\n        /* \"#utility.yul\":19664:19670   */\n      dup3\n        /* \"#utility.yul\":19660:19675   */\n      add\n        /* \"#utility.yul\":19653:19684   */\n      mstore\n        /* \"#utility.yul\":19468:19691   */\n      pop\n      jump\t// out\n        /* \"#utility.yul\":19697:20063   */\n    tag_573:\n        /* \"#utility.yul\":19839:19842   */\n      0x00\n        /* \"#utility.yul\":19860:19927   */\n      tag_794\n        /* \"#utility.yul\":19924:19926   */\n      0x24\n        /* \"#utility.yul\":19919:19922   */\n      dup4\n        /* \"#utility.yul\":19860:19927   */\n      tag_523\n      jump\t// in\n    tag_794:\n        /* \"#utility.yul\":19853:19927   */\n      swap2\n      pop\n        /* \"#utility.yul\":19936:20029   */\n      tag_795\n        /* \"#utility.yul\":20025:20028   */\n      dup3\n        /* \"#utility.yul\":19936:20029   */\n      tag_572\n      jump\t// in\n    tag_795:\n        /* \"#utility.yul\":20054:20056   */\n      0x40\n        /* \"#utility.yul\":20049:20052   */\n      dup3\n        /* \"#utility.yul\":20045:20057   */\n      add\n        /* \"#utility.yul\":20038:20057   */\n      swap1\n      pop\n        /* \"#utility.yul\":19697:20063   */\n      swap2\n      swap1\n      pop\n      jump\t// out\n        /* \"#utility.yul\":20069:20488   */\n    tag_389:\n        /* \"#utility.yul\":20235:20239   */\n      0x00\n        /* \"#utility.yul\":20273:20275   */\n      0x20\n        /* \"#utility.yul\":20262:20271   */\n      dup3\n        /* \"#utility.yul\":20258:20276   */\n      add\n        /* \"#utility.yul\":20250:20276   */\n      swap1\n      pop\n        /* \"#utility.yul\":20322:20331   */\n      dup2\n        /* \"#utility.yul\":20316:20320   */\n      dup2\n        /* \"#utility.yul\":20312:20332   */\n      sub\n        /* \"#utility.yul\":20308:20309   */\n      0x00\n        /* \"#utility.yul\":20297:20306   */\n      dup4\n        /* \"#utility.yul\":20293:20310   */\n      add\n        /* \"#utility.yul\":20286:20333   */\n      mstore\n        /* \"#utility.yul\":20350:20481   */\n      tag_797\n        /* \"#utility.yul\":20476:20480   */\n      dup2\n        /* \"#utility.yul\":20350:20481   */\n      tag_573\n      jump\t// in\n    tag_797:\n        /* \"#utility.yul\":20342:20481   */\n      swap1\n      pop\n        /* \"#utility.yul\":20069:20488   */\n      swap2\n      swap1\n      pop\n      jump\t// out\n        /* \"#utility.yul\":20494:20715   */\n    tag_574:\n        /* \"#utility.yul\":20634:20668   */\n      0x45524332303a20617070726f766520746f20746865207a65726f206164647265\n        /* \"#utility.yul\":20630:20631   */\n      0x00\n        /* \"#utility.yul\":20622:20628   */\n      dup3\n        /* \"#utility.yul\":20618:20632   */\n      add\n        /* \"#utility.yul\":20611:20669   */\n      mstore\n        /* \"#utility.yul\":20703:20707   */\n      0x7373000000000000000000000000000000000000000000000000000000000000\n        /* \"#utility.yul\":20698:20700   */\n      0x20\n        /* \"#utility.yul\":20690:20696   */\n      dup3\n        /* \"#utility.yul\":20686:20701   */\n      add\n        /* \"#utility.yul\":20679:20708   */\n      mstore\n        /* \"#utility.yul\":20494:20715   */\n      pop\n      jump\t// out\n        /* \"#utility.yul\":20721:21087   */\n    tag_575:\n        /* \"#utility.yul\":20863:20866   */\n      0x00\n        /* \"#utility.yul\":20884:20951   */\n      tag_800\n        /* \"#utility.yul\":20948:20950   */\n      0x22\n        /* \"#utility.yul\":20943:20946   */\n      dup4\n        /* \"#utility.yul\":20884:20951   */\n      tag_523\n      jump\t// in\n    tag_800:\n        /* \"#utility.yul\":20877:20951   */\n      swap2\n      pop\n        /* \"#utility.yul\":20960:21053   */\n      tag_801\n        /* \"#utility.yul\":21049:21052   */\n      dup3\n        /* \"#utility.yul\":20960:21053   */\n      tag_574\n      jump\t// in\n    tag_801:\n        /* \"#utility.yul\":21078:21080   */\n      0x40\n        /* \"#utility.yul\":21073:21076   */\n      dup3\n        /* \"#utility.yul\":21069:21081   */\n      add\n        /* \"#utility.yul\":21062:21081   */\n      swap1\n      pop\n        /* \"#utility.yul\":20721:21087   */\n      swap2\n      swap1\n      pop\n      jump\t// out\n        /* \"#utility.yul\":21093:21512   */\n    tag_392:\n        /* \"#utility.yul\":21259:21263   */\n      0x00\n        /* \"#utility.yul\":21297:21299   */\n      0x20\n        /* \"#utility.yul\":21286:21295   */\n      dup3\n        /* \"#utility.yul\":21282:21300   */\n      add\n        /* \"#utility.yul\":21274:21300   */\n      swap1\n      pop\n        /* \"#utility.yul\":21346:21355   */\n      dup2\n        /* \"#utility.yul\":21340:21344   */\n      dup2\n        /* \"#utility.yul\":21336:21356   */\n      sub\n        /* \"#utility.yul\":21332:21333   */\n      0x00\n        /* \"#utility.yul\":21321:21330   */\n      dup4\n        /* \"#utility.yul\":21317:21334   */\n      add\n        /* \"#utility.yul\":21310:21357   */\n      mstore\n        /* \"#utility.yul\":21374:21505   */\n      tag_803\n        /* \"#utility.yul\":21500:21504   */\n      dup2\n        /* \"#utility.yul\":21374:21505   */\n      tag_575\n      jump\t// in\n    tag_803:\n        /* \"#utility.yul\":21366:21505   */\n      swap1\n      pop\n        /* \"#utility.yul\":21093:21512   */\n      swap2\n      swap1\n      pop\n      jump\t// out\n        /* \"#utility.yul\":21518:21700   */\n    tag_576:\n        /* \"#utility.yul\":21658:21692   */\n      0x4f776e61626c653a2063616c6c6572206973206e6f7420746865206f776e6572\n        /* \"#utility.yul\":21654:21655   */\n      0x00\n        /* \"#utility.yul\":21646:21652   */\n      dup3\n        /* \"#utility.yul\":21642:21656   */\n      add\n        /* \"#utility.yul\":21635:21693   */\n      mstore\n        /* \"#utility.yul\":21518:21700   */\n      pop\n      jump\t// out\n        /* \"#utility.yul\":21706:22072   */\n    tag_577:\n        /* \"#utility.yul\":21848:21851   */\n      0x00\n        /* \"#utility.yul\":21869:21936   */\n      tag_806\n        /* \"#utility.yul\":21933:21935   */\n      0x20\n        /* \"#utility.yul\":21928:21931   */\n      dup4\n        /* \"#utility.yul\":21869:21936   */\n      tag_523\n      jump\t// in\n    tag_806:\n        /* \"#utility.yul\":21862:21936   */\n      swap2\n      pop\n        /* \"#utility.yul\":21945:22038   */\n      tag_807\n        /* \"#utility.yul\":22034:22037   */\n      dup3\n        /* \"#utility.yul\":21945:22038   */\n      tag_576\n      jump\t// in\n    tag_807:\n        /* \"#utility.yul\":22063:22065   */\n      0x20\n        /* \"#utility.yul\":22058:22061   */\n      dup3\n        /* \"#utility.yul\":22054:22066   */\n      add\n        /* \"#utility.yul\":22047:22066   */\n      swap1\n      pop\n        /* \"#utility.yul\":21706:22072   */\n      swap2\n      swap1\n      pop\n      jump\t// out\n        /* \"#utility.yul\":22078:22497   */\n    tag_399:\n        /* \"#utility.yul\":22244:22248   */\n      0x00\n        /* \"#utility.yul\":22282:22284   */\n      0x20\n        /* \"#utility.yul\":22271:22280   */\n      dup3\n        /* \"#utility.yul\":22267:22285   */\n      add\n        /* \"#utility.yul\":22259:22285   */\n      swap1\n      pop\n        /* \"#utility.yul\":22331:22340   */\n      dup2\n        /* \"#utility.yul\":22325:22329   */\n      dup2\n        /* \"#utility.yul\":22321:22341   */\n      sub\n        /* \"#utility.yul\":22317:22318   */\n      0x00\n        /* \"#utility.yul\":22306:22315   */\n      dup4\n        /* \"#utility.yul\":22302:22319   */\n      add\n        /* \"#utility.yul\":22295:22342   */\n      mstore\n        /* \"#utility.yul\":22359:22490   */\n      tag_809\n        /* \"#utility.yul\":22485:22489   */\n      dup2\n        /* \"#utility.yul\":22359:22490   */\n      tag_577\n      jump\t// in\n    tag_809:\n        /* \"#utility.yul\":22351:22490   */\n      swap1\n      pop\n        /* \"#utility.yul\":22078:22497   */\n      swap2\n      swap1\n      pop\n      jump\t// out\n        /* \"#utility.yul\":22503:22682   */\n    tag_578:\n        /* \"#utility.yul\":22643:22674   */\n      0x45524332303a20696e73756666696369656e7420616c6c6f77616e6365000000\n        /* \"#utility.yul\":22639:22640   */\n      0x00\n        /* \"#utility.yul\":22631:22637   */\n      dup3\n        /* \"#utility.yul\":22627:22641   */\n      add\n        /* \"#utility.yul\":22620:22675   */\n      mstore\n        /* \"#utility.yul\":22503:22682   */\n      pop\n      jump\t// out\n        /* \"#utility.yul\":22688:23054   */\n    tag_579:\n        /* \"#utility.yul\":22830:22833   */\n      0x00\n        /* \"#utility.yul\":22851:22918   */\n      tag_812\n        /* \"#utility.yul\":22915:22917   */\n      0x1d\n        /* \"#utility.yul\":22910:22913   */\n      dup4\n        /* \"#utility.yul\":22851:22918   */\n      tag_523\n      jump\t// in\n    tag_812:\n        /* \"#utility.yul\":22844:22918   */\n      swap2\n      pop\n        /* \"#utility.yul\":22927:23020   */\n      tag_813\n        /* \"#utility.yul\":23016:23019   */\n      dup3\n        /* \"#utility.yul\":22927:23020   */\n      tag_578\n      jump\t// in\n    tag_813:\n        /* \"#utility.yul\":23045:23047   */\n      0x20\n        /* \"#utility.yul\":23040:23043   */\n      dup3\n        /* \"#utility.yul\":23036:23048   */\n      add\n        /* \"#utility.yul\":23029:23048   */\n      swap1\n      pop\n        /* \"#utility.yul\":22688:23054   */\n      swap2\n      swap1\n      pop\n      jump\t// out\n        /* \"#utility.yul\":23060:23479   */\n    tag_405:\n        /* \"#utility.yul\":23226:23230   */\n      0x00\n        /* \"#utility.yul\":23264:23266   */\n      0x20\n        /* \"#utility.yul\":23253:23262   */\n      dup3\n        /* \"#utility.yul\":23249:23267   */\n      add\n        /* \"#utility.yul\":23241:23267   */\n      swap1\n      pop\n        /* \"#utility.yul\":23313:23322   */\n      dup2\n        /* \"#utility.yul\":23307:23311   */\n      dup2\n        /* \"#utility.yul\":23303:23323   */\n      sub\n        /* \"#utility.yul\":23299:23300   */\n      0x00\n        /* \"#utility.yul\":23288:23297   */\n      dup4\n        /* \"#utility.yul\":23284:23301   */\n      add\n        /* \"#utility.yul\":23277:23324   */\n      mstore\n        /* \"#utility.yul\":23341:23472   */\n      tag_815\n        /* \"#utility.yul\":23467:23471   */\n      dup2\n        /* \"#utility.yul\":23341:23472   */\n      tag_579\n      jump\t// in\n    tag_815:\n        /* \"#utility.yul\":23333:23472   */\n      swap1\n      pop\n        /* \"#utility.yul\":23060:23479   */\n      swap2\n      swap1\n      pop\n      jump\t// out\n        /* \"#utility.yul\":23485:23709   */\n    tag_580:\n        /* \"#utility.yul\":23625:23659   */\n      0x45524332303a207472616e736665722066726f6d20746865207a65726f206164\n        /* \"#utility.yul\":23621:23622   */\n      0x00\n        /* \"#utility.yul\":23613:23619   */\n      dup3\n        /* \"#utility.yul\":23609:23623   */\n      add\n        /* \"#utility.yul\":23602:23660   */\n      mstore\n        /* \"#utility.yul\":23694:23701   */\n      0x6472657373000000000000000000000000000000000000000000000000000000\n        /* \"#utility.yul\":23689:23691   */\n      0x20\n        /* \"#utility.yul\":23681:23687   */\n      dup3\n        /* \"#utility.yul\":23677:23692   */\n      add\n        /* \"#utility.yul\":23670:23702   */\n      mstore\n        /* \"#utility.yul\":23485:23709   */\n      pop\n      jump\t// out\n        /* \"#utility.yul\":23715:24081   */\n    tag_581:\n        /* \"#utility.yul\":23857:23860   */\n      0x00\n        /* \"#utility.yul\":23878:23945   */\n      tag_818\n        /* \"#utility.yul\":23942:23944   */\n      0x25\n        /* \"#utility.yul\":23937:23940   */\n      dup4\n        /* \"#utility.yul\":23878:23945   */\n      tag_523\n      jump\t// in\n    tag_818:\n        /* \"#utility.yul\":23871:23945   */\n      swap2\n      pop\n        /* \"#utility.yul\":23954:24047   */\n      tag_819\n        /* \"#utility.yul\":24043:24046   */\n      dup3\n        /* \"#utility.yul\":23954:24047   */\n      tag_580\n      jump\t// in\n    tag_819:\n        /* \"#utility.yul\":24072:24074   */\n      0x40\n        /* \"#utility.yul\":24067:24070   */\n      dup3\n        /* \"#utility.yul\":24063:24075   */\n      add\n        /* \"#utility.yul\":24056:24075   */\n      swap1\n      pop\n        /* \"#utility.yul\":23715:24081   */\n      swap2\n      swap1\n      pop\n      jump\t// out\n        /* \"#utility.yul\":24087:24506   */\n    tag_410:\n        /* \"#utility.yul\":24253:24257   */\n      0x00\n        /* \"#utility.yul\":24291:24293   */\n      0x20\n        /* \"#utility.yul\":24280:24289   */\n      dup3\n        /* \"#utility.yul\":24276:24294   */\n      add\n        /* \"#utility.yul\":24268:24294   */\n      swap1\n      pop\n        /* \"#utility.yul\":24340:24349   */\n      dup2\n        /* \"#utility.yul\":24334:24338   */\n      dup2\n        /* \"#utility.yul\":24330:24350   */\n      sub\n        /* \"#utility.yul\":24326:24327   */\n      0x00\n        /* \"#utility.yul\":24315:24324   */\n      dup4\n        /* \"#utility.yul\":24311:24328   */\n      add\n        /* \"#utility.yul\":24304:24351   */\n      mstore\n        /* \"#utility.yul\":24368:24499   */\n      tag_821\n        /* \"#utility.yul\":24494:24498   */\n      dup2\n        /* \"#utility.yul\":24368:24499   */\n      tag_581\n      jump\t// in\n    tag_821:\n        /* \"#utility.yul\":24360:24499   */\n      swap1\n      pop\n        /* \"#utility.yul\":24087:24506   */\n      swap2\n      swap1\n      pop\n      jump\t// out\n        /* \"#utility.yul\":24512:24740   */\n    tag_582:\n        /* \"#utility.yul\":24652:24686   */\n      0x5472616e7366657220616d6f756e74206d757374206265206772656174657220\n        /* \"#utility.yul\":24648:24649   */\n      0x00\n        /* \"#utility.yul\":24640:24646   */\n      dup3\n        /* \"#utility.yul\":24636:24650   */\n      add\n        /* \"#utility.yul\":24629:24687   */\n      mstore\n        /* \"#utility.yul\":24721:24732   */\n      0x7468616e207a65726f0000000000000000000000000000000000000000000000\n        /* \"#utility.yul\":24716:24718   */\n      0x20\n        /* \"#utility.yul\":24708:24714   */\n      dup3\n        /* \"#utility.yul\":24704:24719   */\n      add\n        /* \"#utility.yul\":24697:24733   */\n      mstore\n        /* \"#utility.yul\":24512:24740   */\n      pop\n      jump\t// out\n        /* \"#utility.yul\":24746:25112   */\n    tag_583:\n        /* \"#utility.yul\":24888:24891   */\n      0x00\n        /* \"#utility.yul\":24909:24976   */\n      tag_824\n        /* \"#utility.yul\":24973:24975   */\n      0x29\n        /* \"#utility.yul\":24968:24971   */\n      dup4\n        /* \"#utility.yul\":24909:24976   */\n      tag_523\n      jump\t// in\n    tag_824:\n        /* \"#utility.yul\":24902:24976   */\n      swap2\n      pop\n        /* \"#utility.yul\":24985:25078   */\n      tag_825\n        /* \"#utility.yul\":25074:25077   */\n      dup3\n        /* \"#utility.yul\":24985:25078   */\n      tag_582\n      jump\t// in\n    tag_825:\n        /* \"#utility.yul\":25103:25105   */\n      0x40\n        /* \"#utility.yul\":25098:25101   */\n      dup3\n        /* \"#utility.yul\":25094:25106   */\n      add\n        /* \"#utility.yul\":25087:25106   */\n      swap1\n      pop\n        /* \"#utility.yul\":24746:25112   */\n      swap2\n      swap1\n      pop\n      jump\t// out\n        /* \"#utility.yul\":25118:25537   */\n    tag_415:\n        /* \"#utility.yul\":25284:25288   */\n      0x00\n        /* \"#utility.yul\":25322:25324   */\n      0x20\n        /* \"#utility.yul\":25311:25320   */\n      dup3\n        /* \"#utility.yul\":25307:25325   */\n      add\n        /* \"#utility.yul\":25299:25325   */\n      swap1\n      pop\n        /* \"#utility.yul\":25371:25380   */\n      dup2\n        /* \"#utility.yul\":25365:25369   */\n      dup2\n        /* \"#utility.yul\":25361:25381   */\n      sub\n        /* \"#utility.yul\":25357:25358   */\n      0x00\n        /* \"#utility.yul\":25346:25355   */\n      dup4\n        /* \"#utility.yul\":25342:25359   */\n      add\n        /* \"#utility.yul\":25335:25382   */\n      mstore\n        /* \"#utility.yul\":25399:25530   */\n      tag_827\n        /* \"#utility.yul\":25525:25529   */\n      dup2\n        /* \"#utility.yul\":25399:25530   */\n      tag_583\n      jump\t// in\n    tag_827:\n        /* \"#utility.yul\":25391:25530   */\n      swap1\n      pop\n        /* \"#utility.yul\":25118:25537   */\n      swap2\n      swap1\n      pop\n      jump\t// out\n        /* \"#utility.yul\":25543:25714   */\n    tag_584:\n        /* \"#utility.yul\":25683:25706   */\n      0x53656e64657220697320626c61636b6c69737465640000000000000000000000\n        /* \"#utility.yul\":25679:25680   */\n      0x00\n        /* \"#utility.yul\":25671:25677   */\n      dup3\n        /* \"#utility.yul\":25667:25681   */\n      add\n        /* \"#utility.yul\":25660:25707   */\n      mstore\n        /* \"#utility.yul\":25543:25714   */\n      pop\n      jump\t// out\n        /* \"#utility.yul\":25720:26086   */\n    tag_585:\n        /* \"#utility.yul\":25862:25865   */\n      0x00\n        /* \"#utility.yul\":25883:25950   */\n      tag_830\n        /* \"#utility.yul\":25947:25949   */\n      0x15\n        /* \"#utility.yul\":25942:25945   */\n      dup4\n        /* \"#utility.yul\":25883:25950   */\n      tag_523\n      jump\t// in\n    tag_830:\n        /* \"#utility.yul\":25876:25950   */\n      swap2\n      pop\n        /* \"#utility.yul\":25959:26052   */\n      tag_831\n        /* \"#utility.yul\":26048:26051   */\n      dup3\n        /* \"#utility.yul\":25959:26052   */\n      tag_584\n      jump\t// in\n    tag_831:\n        /* \"#utility.yul\":26077:26079   */\n      0x20\n        /* \"#utility.yul\":26072:26075   */\n      dup3\n        /* \"#utility.yul\":26068:26080   */\n      add\n        /* \"#utility.yul\":26061:26080   */\n      swap1\n      pop\n        /* \"#utility.yul\":25720:26086   */\n      swap2\n      swap1\n      pop\n      jump\t// out\n        /* \"#utility.yul\":26092:26511   */\n    tag_418:\n        /* \"#utility.yul\":26258:26262   */\n      0x00\n        /* \"#utility.yul\":26296:26298   */\n      0x20\n        /* \"#utility.yul\":26285:26294   */\n      dup3\n        /* \"#utility.yul\":26281:26299   */\n      add\n        /* \"#utility.yul\":26273:26299   */\n      swap1\n      pop\n        /* \"#utility.yul\":26345:26354   */\n      dup2\n        /* \"#utility.yul\":26339:26343   */\n      dup2\n        /* \"#utility.yul\":26335:26355   */\n      sub\n        /* \"#utility.yul\":26331:26332   */\n      0x00\n        /* \"#utility.yul\":26320:26329   */\n      dup4\n        /* \"#utility.yul\":26316:26333   */\n      add\n        /* \"#utility.yul\":26309:26356   */\n      mstore\n        /* \"#utility.yul\":26373:26504   */\n      tag_833\n        /* \"#utility.yul\":26499:26503   */\n      dup2\n        /* \"#utility.yul\":26373:26504   */\n      tag_585\n      jump\t// in\n    tag_833:\n        /* \"#utility.yul\":26365:26504   */\n      swap1\n      pop\n        /* \"#utility.yul\":26092:26511   */\n      swap2\n      swap1\n      pop\n      jump\t// out\n        /* \"#utility.yul\":26517:26691   */\n    tag_586:\n        /* \"#utility.yul\":26657:26683   */\n      0x526563697069656e7420697320626c61636b6c69737465640000000000000000\n        /* \"#utility.yul\":26653:26654   */\n      0x00\n        /* \"#utility.yul\":26645:26651   */\n      dup3\n        /* \"#utility.yul\":26641:26655   */\n      add\n        /* \"#utility.yul\":26634:26684   */\n      mstore\n        /* \"#utility.yul\":26517:26691   */\n      pop\n      jump\t// out\n        /* \"#utility.yul\":26697:27063   */\n    tag_587:\n        /* \"#utility.yul\":26839:26842   */\n      0x00\n        /* \"#utility.yul\":26860:26927   */\n      tag_836\n        /* \"#utility.yul\":26924:26926   */\n      0x18\n        /* \"#utility.yul\":26919:26922   */\n      dup4\n        /* \"#utility.yul\":26860:26927   */\n      tag_523\n      jump\t// in\n    tag_836:\n        /* \"#utility.yul\":26853:26927   */\n      swap2\n      pop\n        /* \"#utility.yul\":26936:27029   */\n      tag_837\n        /* \"#utility.yul\":27025:27028   */\n      dup3\n        /* \"#utility.yul\":26936:27029   */\n      tag_586\n      jump\t// in\n    tag_837:\n        /* \"#utility.yul\":27054:27056   */\n      0x20\n        /* \"#utility.yul\":27049:27052   */\n      dup3\n        /* \"#utility.yul\":27045:27057   */\n      add\n        /* \"#utility.yul\":27038:27057   */\n      swap1\n      pop\n        /* \"#utility.yul\":26697:27063   */\n      swap2\n      swap1\n      pop\n      jump\t// out\n        /* \"#utility.yul\":27069:27488   */\n    tag_421:\n        /* \"#utility.yul\":27235:27239   */\n      0x00\n        /* \"#utility.yul\":27273:27275   */\n      0x20\n        /* \"#utility.yul\":27262:27271   */\n      dup3\n        /* \"#utility.yul\":27258:27276   */\n      add\n        /* \"#utility.yul\":27250:27276   */\n      swap1\n      pop\n        /* \"#utility.yul\":27322:27331   */\n      dup2\n        /* \"#utility.yul\":27316:27320   */\n      dup2\n        /* \"#utility.yul\":27312:27332   */\n      sub\n        /* \"#utility.yul\":27308:27309   */\n      0x00\n        /* \"#utility.yul\":27297:27306   */\n      dup4\n        /* \"#utility.yul\":27293:27310   */\n      add\n        /* \"#utility.yul\":27286:27333   */\n      mstore\n        /* \"#utility.yul\":27350:27481   */\n      tag_839\n        /* \"#utility.yul\":27476:27480   */\n      dup2\n        /* \"#utility.yul\":27350:27481   */\n      tag_587\n      jump\t// in\n    tag_839:\n        /* \"#utility.yul\":27342:27481   */\n      swap1\n      pop\n        /* \"#utility.yul\":27069:27488   */\n      swap2\n      swap1\n      pop\n      jump\t// out\n        /* \"#utility.yul\":27494:27661   */\n    tag_588:\n        /* \"#utility.yul\":27634:27653   */\n      0x54726164696e6720697320706175736564000000000000000000000000000000\n        /* \"#utility.yul\":27630:27631   */\n      0x00\n        /* \"#utility.yul\":27622:27628   */\n      dup3\n        /* \"#utility.yul\":27618:27632   */\n      add\n        /* \"#utility.yul\":27611:27654   */\n      mstore\n        /* \"#utility.yul\":27494:27661   */\n      pop\n      jump\t// out\n        /* \"#utility.yul\":27667:28033   */\n    tag_589:\n        /* \"#utility.yul\":27809:27812   */\n      0x00\n        /* \"#utility.yul\":27830:27897   */\n      tag_842\n        /* \"#utility.yul\":27894:27896   */\n      0x11\n        /* \"#utility.yul\":27889:27892   */\n      dup4\n        /* \"#utility.yul\":27830:27897   */\n      tag_523\n      jump\t// in\n    tag_842:\n        /* \"#utility.yul\":27823:27897   */\n      swap2\n      pop\n        /* \"#utility.yul\":27906:27999   */\n      tag_843\n        /* \"#utility.yul\":27995:27998   */\n      dup3\n        /* \"#utility.yul\":27906:27999   */\n      tag_588\n      jump\t// in\n    tag_843:\n        /* \"#utility.yul\":28024:28026   */\n      0x20\n        /* \"#utility.yul\":28019:28022   */\n      dup3\n        /* \"#utility.yul\":28015:28027   */\n      add\n        /* \"#utility.yul\":28008:28027   */\n      swap1\n      pop\n        /* \"#utility.yul\":27667:28033   */\n      swap2\n      swap1\n      pop\n      jump\t// out\n        /* \"#utility.yul\":28039:28458   */\n    tag_424:\n        /* \"#utility.yul\":28205:28209   */\n      0x00\n        /* \"#utility.yul\":28243:28245   */\n      0x20\n        /* \"#utility.yul\":28232:28241   */\n      dup3\n        /* \"#utility.yul\":28228:28246   */\n      add\n        /* \"#utility.yul\":28220:28246   */\n      swap1\n      pop\n        /* \"#utility.yul\":28292:28301   */\n      dup2\n        /* \"#utility.yul\":28286:28290   */\n      dup2\n        /* \"#utility.yul\":28282:28302   */\n      sub\n        /* \"#utility.yul\":28278:28279   */\n      0x00\n        /* \"#utility.yul\":28267:28276   */\n      dup4\n        /* \"#utility.yul\":28263:28280   */\n      add\n        /* \"#utility.yul\":28256:28303   */\n      mstore\n        /* \"#utility.yul\":28320:28451   */\n      tag_845\n        /* \"#utility.yul\":28446:28450   */\n      dup2\n        /* \"#utility.yul\":28320:28451   */\n      tag_589\n      jump\t// in\n    tag_845:\n        /* \"#utility.yul\":28312:28451   */\n      swap1\n      pop\n        /* \"#utility.yul\":28039:28458   */\n      swap2\n      swap1\n      pop\n      jump\t// out\n        /* \"#utility.yul\":28464:28658   */\n    tag_458:\n        /* \"#utility.yul\":28504:28508   */\n      0x00\n        /* \"#utility.yul\":28524:28544   */\n      tag_847\n        /* \"#utility.yul\":28542:28543   */\n      dup3\n        /* \"#utility.yul\":28524:28544   */\n      tag_534\n      jump\t// in\n    tag_847:\n        /* \"#utility.yul\":28519:28544   */\n      swap2\n      pop\n        /* \"#utility.yul\":28558:28578   */\n      tag_848\n        /* \"#utility.yul\":28576:28577   */\n      dup4\n        /* \"#utility.yul\":28558:28578   */\n      tag_534\n      jump\t// in\n    tag_848:\n        /* \"#utility.yul\":28553:28578   */\n      swap3\n      pop\n        /* \"#utility.yul\":28602:28603   */\n      dup3\n        /* \"#utility.yul\":28599:28600   */\n      dup3\n        /* \"#utility.yul\":28595:28604   */\n      sub\n        /* \"#utility.yul\":28587:28604   */\n      swap1\n      pop\n        /* \"#utility.yul\":28626:28627   */\n      dup2\n        /* \"#utility.yul\":28620:28624   */\n      dup2\n        /* \"#utility.yul\":28617:28628   */\n      gt\n        /* \"#utility.yul\":28614:28651   */\n      iszero\n      tag_849\n      jumpi\n        /* \"#utility.yul\":28631:28649   */\n      tag_850\n      tag_564\n      jump\t// in\n    tag_850:\n        /* \"#utility.yul\":28614:28651   */\n    tag_849:\n        /* \"#utility.yul\":28464:28658   */\n      swap3\n      swap2\n      pop\n      pop\n      jump\t// out\n        /* \"#utility.yul\":28664:28889   */\n    tag_590:\n        /* \"#utility.yul\":28804:28838   */\n      0x45524332303a207472616e7366657220616d6f756e7420657863656564732062\n        /* \"#utility.yul\":28800:28801   */\n      0x00\n        /* \"#utility.yul\":28792:28798   */\n      dup3\n        /* \"#utility.yul\":28788:28802   */\n      add\n        /* \"#utility.yul\":28781:28839   */\n      mstore\n        /* \"#utility.yul\":28873:28881   */\n      0x616c616e63650000000000000000000000000000000000000000000000000000\n        /* \"#utility.yul\":28868:28870   */\n      0x20\n        /* \"#utility.yul\":28860:28866   */\n      dup3\n        /* \"#utility.yul\":28856:28871   */\n      add\n        /* \"#utility.yul\":28849:28882   */\n      mstore\n        /* \"#utility.yul\":28664:28889   */\n      pop\n      jump\t// out\n        /* \"#utility.yul\":28895:29261   */\n    tag_591:\n        /* \"#utility.yul\":29037:29040   */\n      0x00\n        /* \"#utility.yul\":29058:29125   */\n      tag_853\n        /* \"#utility.yul\":29122:29124   */\n      0x26\n        /* \"#utility.yul\":29117:29120   */\n      dup4\n        /* \"#utility.yul\":29058:29125   */\n      tag_523\n      jump\t// in\n    tag_853:\n        /* \"#utility.yul\":29051:29125   */\n      swap2\n      pop\n        /* \"#utility.yul\":29134:29227   */\n      tag_854\n        /* \"#utility.yul\":29223:29226   */\n      dup3\n        /* \"#utility.yul\":29134:29227   */\n      tag_590\n      jump\t// in\n    tag_854:\n        /* \"#utility.yul\":29252:29254   */\n      0x40\n        /* \"#utility.yul\":29247:29250   */\n      dup3\n        /* \"#utility.yul\":29243:29255   */\n      add\n        /* \"#utility.yul\":29236:29255   */\n      swap1\n      pop\n        /* \"#utility.yul\":28895:29261   */\n      swap2\n      swap1\n      pop\n      jump\t// out\n        /* \"#utility.yul\":29267:29686   */\n    tag_466:\n        /* \"#utility.yul\":29433:29437   */\n      0x00\n        /* \"#utility.yul\":29471:29473   */\n      0x20\n        /* \"#utility.yul\":29460:29469   */\n      dup3\n        /* \"#utility.yul\":29456:29474   */\n      add\n        /* \"#utility.yul\":29448:29474   */\n      swap1\n      pop\n        /* \"#utility.yul\":29520:29529   */\n      dup2\n        /* \"#utility.yul\":29514:29518   */\n      dup2\n        /* \"#utility.yul\":29510:29530   */\n      sub\n        /* \"#utility.yul\":29506:29507   */\n      0x00\n        /* \"#utility.yul\":29495:29504   */\n      dup4\n        /* \"#utility.yul\":29491:29508   */\n      add\n        /* \"#utility.yul\":29484:29531   */\n      mstore\n        /* \"#utility.yul\":29548:29679   */\n      tag_856\n        /* \"#utility.yul\":29674:29678   */\n      dup2\n        /* \"#utility.yul\":29548:29679   */\n      tag_591\n      jump\t// in\n    tag_856:\n        /* \"#utility.yul\":29540:29679   */\n      swap1\n      pop\n        /* \"#utility.yul\":29267:29686   */\n      swap2\n      swap1\n      pop\n      jump\t// out\n        /* \"#utility.yul\":29692:29839   */\n    tag_592:\n        /* \"#utility.yul\":29793:29804   */\n      0x00\n        /* \"#utility.yul\":29830:29833   */\n      dup2\n        /* \"#utility.yul\":29815:29833   */\n      swap1\n      pop\n        /* \"#utility.yul\":29692:29839   */\n      swap3\n      swap2\n      pop\n      pop\n      jump\t// out\n        /* \"#utility.yul\":29845:29959   */\n    tag_593:\n      pop\n      jump\t// out\n        /* \"#utility.yul\":29965:30363   */\n    tag_594:\n        /* \"#utility.yul\":30124:30127   */\n      0x00\n        /* \"#utility.yul\":30145:30228   */\n      tag_860\n        /* \"#utility.yul\":30226:30227   */\n      0x00\n        /* \"#utility.yul\":30221:30224   */\n      dup4\n        /* \"#utility.yul\":30145:30228   */\n      tag_592\n      jump\t// in\n    tag_860:\n        /* \"#utility.yul\":30138:30228   */\n      swap2\n      pop\n        /* \"#utility.yul\":30237:30330   */\n      tag_861\n        /* \"#utility.yul\":30326:30329   */\n      dup3\n        /* \"#utility.yul\":30237:30330   */\n      tag_593\n      jump\t// in\n    tag_861:\n        /* \"#utility.yul\":30355:30356   */\n      0x00\n        /* \"#utility.yul\":30350:30353   */\n      dup3\n        /* \"#utility.yul\":30346:30357   */\n      add\n        /* \"#utility.yul\":30339:30357   */\n      swap1\n      pop\n        /* \"#utility.yul\":29965:30363   */\n      swap2\n      swap1\n      pop\n      jump\t// out\n        /* \"#utility.yul\":30369:30748   */\n    tag_485:\n        /* \"#utility.yul\":30553:30556   */\n      0x00\n        /* \"#utility.yul\":30575:30722   */\n      tag_863\n        /* \"#utility.yul\":30718:30721   */\n      dup3\n        /* \"#utility.yul\":30575:30722   */\n      tag_594\n      jump\t// in\n    tag_863:\n        /* \"#utility.yul\":30568:30722   */\n      swap2\n      pop\n        /* \"#utility.yul\":30739:30742   */\n      dup2\n        /* \"#utility.yul\":30732:30742   */\n      swap1\n      pop\n        /* \"#utility.yul\":30369:30748   */\n      swap2\n      swap1\n      pop\n      jump\t// out\n        /* \"#utility.yul\":30754:30934   */\n    tag_498:\n        /* \"#utility.yul\":30802:30879   */\n      0x4e487b7100000000000000000000000000000000000000000000000000000000\n        /* \"#utility.yul\":30799:30800   */\n      0x00\n        /* \"#utility.yul\":30792:30880   */\n      mstore\n        /* \"#utility.yul\":30899:30903   */\n      0x41\n        /* \"#utility.yul\":30896:30897   */\n      0x04\n        /* \"#utility.yul\":30889:30904   */\n      mstore\n        /* \"#utility.yul\":30923:30927   */\n      0x24\n        /* \"#utility.yul\":30920:30921   */\n      0x00\n        /* \"#utility.yul\":30913:30928   */\n      revert\n        /* \"#utility.yul\":30940:31083   */\n    tag_595:\n        /* \"#utility.yul\":30997:31002   */\n      0x00\n        /* \"#utility.yul\":31028:31034   */\n      dup2\n        /* \"#utility.yul\":31022:31035   */\n      mload\n        /* \"#utility.yul\":31013:31035   */\n      swap1\n      pop\n        /* \"#utility.yul\":31044:31077   */\n      tag_866\n        /* \"#utility.yul\":31071:31076   */\n      dup2\n        /* \"#utility.yul\":31044:31077   */\n      tag_532\n      jump\t// in\n    tag_866:\n        /* \"#utility.yul\":30940:31083   */\n      swap3\n      swap2\n      pop\n      pop\n      jump\t// out\n        /* \"#utility.yul\":31089:31440   */\n    tag_505:\n        /* \"#utility.yul\":31159:31165   */\n      0x00\n        /* \"#utility.yul\":31208:31210   */\n      0x20\n        /* \"#utility.yul\":31196:31205   */\n      dup3\n        /* \"#utility.yul\":31187:31194   */\n      dup5\n        /* \"#utility.yul\":31183:31206   */\n      sub\n        /* \"#utility.yul\":31179:31211   */\n      slt\n        /* \"#utility.yul\":31176:31295   */\n      iszero\n      tag_868\n      jumpi\n        /* \"#utility.yul\":31214:31293   */\n      tag_869\n      tag_528\n      jump\t// in\n    tag_869:\n        /* \"#utility.yul\":31176:31295   */\n    tag_868:\n        /* \"#utility.yul\":31334:31335   */\n      0x00\n        /* \"#utility.yul\":31359:31423   */\n      tag_870\n        /* \"#utility.yul\":31415:31422   */\n      dup5\n        /* \"#utility.yul\":31406:31412   */\n      dup3\n        /* \"#utility.yul\":31395:31404   */\n      dup6\n        /* \"#utility.yul\":31391:31413   */\n      add\n        /* \"#utility.yul\":31359:31423   */\n      tag_595\n      jump\t// in\n    tag_870:\n        /* \"#utility.yul\":31349:31423   */\n      swap2\n      pop\n        /* \"#utility.yul\":31305:31433   */\n      pop\n        /* \"#utility.yul\":31089:31440   */\n      swap3\n      swap2\n      pop\n      pop\n      jump\t// out\n        /* \"#utility.yul\":31446:31531   */\n    tag_596:\n        /* \"#utility.yul\":31491:31498   */\n      0x00\n        /* \"#utility.yul\":31520:31525   */\n      dup2\n        /* \"#utility.yul\":31509:31525   */\n      swap1\n      pop\n        /* \"#utility.yul\":31446:31531   */\n      swap2\n      swap1\n      pop\n      jump\t// out\n        /* \"#utility.yul\":31537:31695   */\n    tag_597:\n        /* \"#utility.yul\":31595:31604   */\n      0x00\n        /* \"#utility.yul\":31628:31689   */\n      tag_873\n        /* \"#utility.yul\":31646:31688   */\n      tag_874\n        /* \"#utility.yul\":31655:31687   */\n      tag_875\n        /* \"#utility.yul\":31681:31686   */\n      dup5\n        /* \"#utility.yul\":31655:31687   */\n      tag_596\n      jump\t// in\n    tag_875:\n        /* \"#utility.yul\":31646:31688   */\n      tag_539\n      jump\t// in\n    tag_874:\n        /* \"#utility.yul\":31628:31689   */\n      tag_534\n      jump\t// in\n    tag_873:\n        /* \"#utility.yul\":31615:31689   */\n      swap1\n      pop\n        /* \"#utility.yul\":31537:31695   */\n      swap2\n      swap1\n      pop\n      jump\t// out\n        /* \"#utility.yul\":31701:31848   */\n    tag_598:\n        /* \"#utility.yul\":31796:31841   */\n      tag_877\n        /* \"#utility.yul\":31835:31840   */\n      dup2\n        /* \"#utility.yul\":31796:31841   */\n      tag_597\n      jump\t// in\n    tag_877:\n        /* \"#utility.yul\":31791:31794   */\n      dup3\n        /* \"#utility.yul\":31784:31842   */\n      mstore\n        /* \"#utility.yul\":31701:31848   */\n      pop\n      pop\n      jump\t// out\n        /* \"#utility.yul\":31854:31968   */\n    tag_599:\n        /* \"#utility.yul\":31921:31927   */\n      0x00\n        /* \"#utility.yul\":31955:31960   */\n      dup2\n        /* \"#utility.yul\":31949:31961   */\n      mload\n        /* \"#utility.yul\":31939:31961   */\n      swap1\n      pop\n        /* \"#utility.yul\":31854:31968   */\n      swap2\n      swap1\n      pop\n      jump\t// out\n        /* \"#utility.yul\":31974:32158   */\n    tag_600:\n        /* \"#utility.yul\":32073:32084   */\n      0x00\n        /* \"#utility.yul\":32107:32113   */\n      dup3\n        /* \"#utility.yul\":32102:32105   */\n      dup3\n        /* \"#utility.yul\":32095:32114   */\n      mstore\n        /* \"#utility.yul\":32147:32151   */\n      0x20\n        /* \"#utility.yul\":32142:32145   */\n      dup3\n        /* \"#utility.yul\":32138:32152   */\n      add\n        /* \"#utility.yul\":32123:32152   */\n      swap1\n      pop\n        /* \"#utility.yul\":31974:32158   */\n      swap3\n      swap2\n      pop\n      pop\n      jump\t// out\n        /* \"#utility.yul\":32164:32296   */\n    tag_601:\n        /* \"#utility.yul\":32231:32235   */\n      0x00\n        /* \"#utility.yul\":32254:32257   */\n      dup2\n        /* \"#utility.yul\":32246:32257   */\n      swap1\n      pop\n        /* \"#utility.yul\":32284:32288   */\n      0x20\n        /* \"#utility.yul\":32279:32282   */\n      dup3\n        /* \"#utility.yul\":32275:32289   */\n      add\n        /* \"#utility.yul\":32267:32289   */\n      swap1\n      pop\n        /* \"#utility.yul\":32164:32296   */\n      swap2\n      swap1\n      pop\n      jump\t// out\n        /* \"#utility.yul\":32302:32410   */\n    tag_602:\n        /* \"#utility.yul\":32379:32403   */\n      tag_882\n        /* \"#utility.yul\":32397:32402   */\n      dup2\n        /* \"#utility.yul\":32379:32403   */\n      tag_531\n      jump\t// in\n    tag_882:\n        /* \"#utility.yul\":32374:32377   */\n      dup3\n        /* \"#utility.yul\":32367:32404   */\n      mstore\n        /* \"#utility.yul\":32302:32410   */\n      pop\n      pop\n      jump\t// out\n        /* \"#utility.yul\":32416:32595   */\n    tag_603:\n        /* \"#utility.yul\":32485:32495   */\n      0x00\n        /* \"#utility.yul\":32506:32552   */\n      tag_884\n        /* \"#utility.yul\":32548:32551   */\n      dup4\n        /* \"#utility.yul\":32540:32546   */\n      dup4\n        /* \"#utility.yul\":32506:32552   */\n      tag_602\n      jump\t// in\n    tag_884:\n        /* \"#utility.yul\":32584:32588   */\n      0x20\n        /* \"#utility.yul\":32579:32582   */\n      dup4\n        /* \"#utility.yul\":32575:32589   */\n      add\n        /* \"#utility.yul\":32561:32589   */\n      swap1\n      pop\n        /* \"#utility.yul\":32416:32595   */\n      swap3\n      swap2\n      pop\n      pop\n      jump\t// out\n        /* \"#utility.yul\":32601:32714   */\n    tag_604:\n        /* \"#utility.yul\":32671:32675   */\n      0x00\n        /* \"#utility.yul\":32703:32707   */\n      0x20\n        /* \"#utility.yul\":32698:32701   */\n      dup3\n        /* \"#utility.yul\":32694:32708   */\n      add\n        /* \"#utility.yul\":32686:32708   */\n      swap1\n      pop\n        /* \"#utility.yul\":32601:32714   */\n      swap2\n      swap1\n      pop\n      jump\t// out\n        /* \"#utility.yul\":32750:33482   */\n    tag_605:\n        /* \"#utility.yul\":32869:32872   */\n      0x00\n        /* \"#utility.yul\":32898:32952   */\n      tag_887\n        /* \"#utility.yul\":32946:32951   */\n      dup3\n        /* \"#utility.yul\":32898:32952   */\n      tag_599\n      jump\t// in\n    tag_887:\n        /* \"#utility.yul\":32968:33054   */\n      tag_888\n        /* \"#utility.yul\":33047:33053   */\n      dup2\n        /* \"#utility.yul\":33042:33045   */\n      dup6\n        /* \"#utility.yul\":32968:33054   */\n      tag_600\n      jump\t// in\n    tag_888:\n        /* \"#utility.yul\":32961:33054   */\n      swap4\n      pop\n        /* \"#utility.yul\":33078:33134   */\n      tag_889\n        /* \"#utility.yul\":33128:33133   */\n      dup4\n        /* \"#utility.yul\":33078:33134   */\n      tag_601\n      jump\t// in\n    tag_889:\n        /* \"#utility.yul\":33157:33164   */\n      dup1\n        /* \"#utility.yul\":33188:33189   */\n      0x00\n        /* \"#utility.yul\":33173:33457   */\n    tag_890:\n        /* \"#utility.yul\":33198:33204   */\n      dup4\n        /* \"#utility.yul\":33195:33196   */\n      dup2\n        /* \"#utility.yul\":33192:33205   */\n      lt\n        /* \"#utility.yul\":33173:33457   */\n      iszero\n      tag_892\n      jumpi\n        /* \"#utility.yul\":33274:33280   */\n      dup2\n        /* \"#utility.yul\":33268:33281   */\n      mload\n        /* \"#utility.yul\":33301:33364   */\n      tag_893\n        /* \"#utility.yul\":33360:33363   */\n      dup9\n        /* \"#utility.yul\":33345:33358   */\n      dup3\n        /* \"#utility.yul\":33301:33364   */\n      tag_603\n      jump\t// in\n    tag_893:\n        /* \"#utility.yul\":33294:33364   */\n      swap8\n      pop\n        /* \"#utility.yul\":33387:33447   */\n      tag_894\n        /* \"#utility.yul\":33440:33446   */\n      dup4\n        /* \"#utility.yul\":33387:33447   */\n      tag_604\n      jump\t// in\n    tag_894:\n        /* \"#utility.yul\":33377:33447   */\n      swap3\n      pop\n        /* \"#utility.yul\":33233:33457   */\n      pop\n        /* \"#utility.yul\":33220:33221   */\n      0x01\n        /* \"#utility.yul\":33217:33218   */\n      dup2\n        /* \"#utility.yul\":33213:33222   */\n      add\n        /* \"#utility.yul\":33208:33222   */\n      swap1\n      pop\n        /* \"#utility.yul\":33173:33457   */\n      jump(tag_890)\n    tag_892:\n        /* \"#utility.yul\":33177:33191   */\n      pop\n        /* \"#utility.yul\":33473:33476   */\n      dup6\n        /* \"#utility.yul\":33466:33476   */\n      swap4\n      pop\n        /* \"#utility.yul\":32874:33482   */\n      pop\n      pop\n      pop\n        /* \"#utility.yul\":32750:33482   */\n      swap3\n      swap2\n      pop\n      pop\n      jump\t// out\n        /* \"#utility.yul\":33488:34319   */\n    tag_510:\n        /* \"#utility.yul\":33751:33755   */\n      0x00\n        /* \"#utility.yul\":33789:33792   */\n      0xa0\n        /* \"#utility.yul\":33778:33787   */\n      dup3\n        /* \"#utility.yul\":33774:33793   */\n      add\n        /* \"#utility.yul\":33766:33793   */\n      swap1\n      pop\n        /* \"#utility.yul\":33803:33874   */\n      tag_896\n        /* \"#utility.yul\":33871:33872   */\n      0x00\n        /* \"#utility.yul\":33860:33869   */\n      dup4\n        /* \"#utility.yul\":33856:33873   */\n      add\n        /* \"#utility.yul\":33847:33853   */\n      dup9\n        /* \"#utility.yul\":33803:33874   */\n      tag_544\n      jump\t// in\n    tag_896:\n        /* \"#utility.yul\":33884:33964   */\n      tag_897\n        /* \"#utility.yul\":33960:33962   */\n      0x20\n        /* \"#utility.yul\":33949:33958   */\n      dup4\n        /* \"#utility.yul\":33945:33963   */\n      add\n        /* \"#utility.yul\":33936:33942   */\n      dup8\n        /* \"#utility.yul\":33884:33964   */\n      tag_598\n      jump\t// in\n    tag_897:\n        /* \"#utility.yul\":34011:34020   */\n      dup2\n        /* \"#utility.yul\":34005:34009   */\n      dup2\n        /* \"#utility.yul\":34001:34021   */\n      sub\n        /* \"#utility.yul\":33996:33998   */\n      0x40\n        /* \"#utility.yul\":33985:33994   */\n      dup4\n        /* \"#utility.yul\":33981:33999   */\n      add\n        /* \"#utility.yul\":33974:34022   */\n      mstore\n        /* \"#utility.yul\":34039:34147   */\n      tag_898\n        /* \"#utility.yul\":34142:34146   */\n      dup2\n        /* \"#utility.yul\":34133:34139   */\n      dup7\n        /* \"#utility.yul\":34039:34147   */\n      tag_605\n      jump\t// in\n    tag_898:\n        /* \"#utility.yul\":34031:34147   */\n      swap1\n      pop\n        /* \"#utility.yul\":34157:34229   */\n      tag_899\n        /* \"#utility.yul\":34225:34227   */\n      0x60\n        /* \"#utility.yul\":34214:34223   */\n      dup4\n        /* \"#utility.yul\":34210:34228   */\n      add\n        /* \"#utility.yul\":34201:34207   */\n      dup6\n        /* \"#utility.yul\":34157:34229   */\n      tag_547\n      jump\t// in\n    tag_899:\n        /* \"#utility.yul\":34239:34312   */\n      tag_900\n        /* \"#utility.yul\":34307:34310   */\n      0x80\n        /* \"#utility.yul\":34296:34305   */\n      dup4\n        /* \"#utility.yul\":34292:34311   */\n      add\n        /* \"#utility.yul\":34283:34289   */\n      dup5\n        /* \"#utility.yul\":34239:34312   */\n      tag_544\n      jump\t// in\n    tag_900:\n        /* \"#utility.yul\":33488:34319   */\n      swap7\n      swap6\n      pop\n      pop\n      pop\n      pop\n      pop\n      pop\n      jump\t// out\n        /* \"#utility.yul\":34325:35132   */\n    tag_517:\n        /* \"#utility.yul\":34574:34578   */\n      0x00\n        /* \"#utility.yul\":34612:34615   */\n      0xc0\n        /* \"#utility.yul\":34601:34610   */\n      dup3\n        /* \"#utility.yul\":34597:34616   */\n      add\n        /* \"#utility.yul\":34589:34616   */\n      swap1\n      pop\n        /* \"#utility.yul\":34626:34697   */\n      tag_902\n        /* \"#utility.yul\":34694:34695   */\n      0x00\n        /* \"#utility.yul\":34683:34692   */\n      dup4\n        /* \"#utility.yul\":34679:34696   */\n      add\n        /* \"#utility.yul\":34670:34676   */\n      dup10\n        /* \"#utility.yul\":34626:34697   */\n      tag_547\n      jump\t// in\n    tag_902:\n        /* \"#utility.yul\":34707:34779   */\n      tag_903\n        /* \"#utility.yul\":34775:34777   */\n      0x20\n        /* \"#utility.yul\":34764:34773   */\n      dup4\n        /* \"#utility.yul\":34760:34778   */\n      add\n        /* \"#utility.yul\":34751:34757   */\n      dup9\n        /* \"#utility.yul\":34707:34779   */\n      tag_544\n      jump\t// in\n    tag_903:\n        /* \"#utility.yul\":34789:34869   */\n      tag_904\n        /* \"#utility.yul\":34865:34867   */\n      0x40\n        /* \"#utility.yul\":34854:34863   */\n      dup4\n        /* \"#utility.yul\":34850:34868   */\n      add\n        /* \"#utility.yul\":34841:34847   */\n      dup8\n        /* \"#utility.yul\":34789:34869   */\n      tag_598\n      jump\t// in\n    tag_904:\n        /* \"#utility.yul\":34879:34959   */\n      tag_905\n        /* \"#utility.yul\":34955:34957   */\n      0x60\n        /* \"#utility.yul\":34944:34953   */\n      dup4\n        /* \"#utility.yul\":34940:34958   */\n      add\n        /* \"#utility.yul\":34931:34937   */\n      dup7\n        /* \"#utility.yul\":34879:34959   */\n      tag_598\n      jump\t// in\n    tag_905:\n        /* \"#utility.yul\":34969:35042   */\n      tag_906\n        /* \"#utility.yul\":35037:35040   */\n      0x80\n        /* \"#utility.yul\":35026:35035   */\n      dup4\n        /* \"#utility.yul\":35022:35041   */\n      add\n        /* \"#utility.yul\":35013:35019   */\n      dup6\n        /* \"#utility.yul\":34969:35042   */\n      tag_547\n      jump\t// in\n    tag_906:\n        /* \"#utility.yul\":35052:35125   */\n      tag_907\n        /* \"#utility.yul\":35120:35123   */\n      0xa0\n        /* \"#utility.yul\":35109:35118   */\n      dup4\n        /* \"#utility.yul\":35105:35124   */\n      add\n        /* \"#utility.yul\":35096:35102   */\n      dup5\n        /* \"#utility.yul\":35052:35125   */\n      tag_544\n      jump\t// in\n    tag_907:\n        /* \"#utility.yul\":34325:35132   */\n      swap8\n      swap7\n      pop\n      pop\n      pop\n      pop\n      pop\n      pop\n      pop\n      jump\t// out\n        /* \"#utility.yul\":35138:35281   */\n    tag_606:\n        /* \"#utility.yul\":35195:35200   */\n      0x00\n        /* \"#utility.yul\":35226:35232   */\n      dup2\n        /* \"#utility.yul\":35220:35233   */\n      mload\n        /* \"#utility.yul\":35211:35233   */\n      swap1\n      pop\n        /* \"#utility.yul\":35242:35275   */\n      tag_909\n        /* \"#utility.yul\":35269:35274   */\n      dup2\n        /* \"#utility.yul\":35242:35275   */\n      tag_535\n      jump\t// in\n    tag_909:\n        /* \"#utility.yul\":35138:35281   */\n      swap3\n      swap2\n      pop\n      pop\n      jump\t// out\n        /* \"#utility.yul\":35287:35950   */\n    tag_521:\n        /* \"#utility.yul\":35375:35381   */\n      0x00\n        /* \"#utility.yul\":35383:35389   */\n      dup1\n        /* \"#utility.yul\":35391:35397   */\n      0x00\n        /* \"#utility.yul\":35440:35442   */\n      0x60\n        /* \"#utility.yul\":35428:35437   */\n      dup5\n        /* \"#utility.yul\":35419:35426   */\n      dup7\n        /* \"#utility.yul\":35415:35438   */\n      sub\n        /* \"#utility.yul\":35411:35443   */\n      slt\n        /* \"#utility.yul\":35408:35527   */\n      iszero\n      tag_911\n      jumpi\n        /* \"#utility.yul\":35446:35525   */\n      tag_912\n      tag_528\n      jump\t// in\n    tag_912:\n        /* \"#utility.yul\":35408:35527   */\n    tag_911:\n        /* \"#utility.yul\":35566:35567   */\n      0x00\n        /* \"#utility.yul\":35591:35655   */\n      tag_913\n        /* \"#utility.yul\":35647:35654   */\n      dup7\n        /* \"#utility.yul\":35638:35644   */\n      dup3\n        /* \"#utility.yul\":35627:35636   */\n      dup8\n        /* \"#utility.yul\":35623:35645   */\n      add\n        /* \"#utility.yul\":35591:35655   */\n      tag_606\n      jump\t// in\n    tag_913:\n        /* \"#utility.yul\":35581:35655   */\n      swap4\n      pop\n        /* \"#utility.yul\":35537:35665   */\n      pop\n        /* \"#utility.yul\":35704:35706   */\n      0x20\n        /* \"#utility.yul\":35730:35794   */\n      tag_914\n        /* \"#utility.yul\":35786:35793   */\n      dup7\n        /* \"#utility.yul\":35777:35783   */\n      dup3\n        /* \"#utility.yul\":35766:35775   */\n      dup8\n        /* \"#utility.yul\":35762:35784   */\n      add\n        /* \"#utility.yul\":35730:35794   */\n      tag_606\n      jump\t// in\n    tag_914:\n        /* \"#utility.yul\":35720:35794   */\n      swap3\n      pop\n        /* \"#utility.yul\":35675:35804   */\n      pop\n        /* \"#utility.yul\":35843:35845   */\n      0x40\n        /* \"#utility.yul\":35869:35933   */\n      tag_915\n        /* \"#utility.yul\":35925:35932   */\n      dup7\n        /* \"#utility.yul\":35916:35922   */\n      dup3\n        /* \"#utility.yul\":35905:35914   */\n      dup8\n        /* \"#utility.yul\":35901:35923   */\n      add\n        /* \"#utility.yul\":35869:35933   */\n      tag_606\n      jump\t// in\n    tag_915:\n        /* \"#utility.yul\":35859:35933   */\n      swap2\n      pop\n        /* \"#utility.yul\":35814:35943   */\n      pop\n        /* \"#utility.yul\":35287:35950   */\n      swap3\n      pop\n      swap3\n      pop\n      swap3\n      jump\t// out\n\n    auxdata: 0xa264697066735822122052167a1b4dddf6d1a0ef0590aca982a51e128ace76c8c2790fa8dd07a23dc6a464736f6c63430008130033\n}\n",
				"bytecode": {
					"linkReferences": {},
					"object": "6080604052601260ff16600a620000179190620009f0565b6461c9f3680062000029919062000a41565b6001556107d0600855610bb86009556103e8600a55601260ff16600a620000519190620009f0565b620186a062000061919062000a41565b600b55618235600c5561c350600d5561411a600e556001601060166101000a81548160ff0219169083151502179055503480156200009e57600080fd5b50604051620047c9380380620047c98339818101604052810190620000c4919062000af6565b620000e4620000d86200056b60201b60201c565b6200057360201b60201c565b600154600260003373ffffffffffffffffffffffffffffffffffffffff1673ffffffffffffffffffffffffffffffffffffffff16815260200190815260200160002081905550600073d99d1c33f9fc3444f8101754abc46c52416550d1905080600f60006101000a81548173ffffffffffffffffffffffffffffffffffffffff021916908373ffffffffffffffffffffffffffffffffffffffff1602179055508073ffffffffffffffffffffffffffffffffffffffff1663c45a01556040518163ffffffff1660e01b8152600401602060405180830381865afa158015620001d0573d6000803e3d6000fd5b505050506040513d601f19601f82011682018060405250810190620001f6919062000af6565b73ffffffffffffffffffffffffffffffffffffffff1663c9c65396308373ffffffffffffffffffffffffffffffffffffffff1663ad5c46486040518163ffffffff1660e01b8152600401602060405180830381865afa1580156200025e573d6000803e3d6000fd5b505050506040513d601f19601f8201168201806040525081019062000284919062000af6565b6040518363ffffffff1660e01b8152600401620002a392919062000b39565b6020604051808303816000875af1158015620002c3573d6000803e3d6000fd5b505050506040513d601f19601f82011682018060405250810190620002e9919062000af6565b601060006101000a81548173ffffffffffffffffffffffffffffffffffffffff021916908373ffffffffffffffffffffffffffffffffffffffff1602179055506200037e33600f60009054906101000a900473ffffffffffffffffffffffffffffffffffffffff167fffffffffffffffffffffffffffffffffffffffffffffffffffffffffffffffff6200063760201b60201c565b620003d330600f60009054906101000a900473ffffffffffffffffffffffffffffffffffffffff167fffffffffffffffffffffffffffffffffffffffffffffffffffffffffffffffff6200063760201b60201c565b62000408601060009054906101000a900473ffffffffffffffffffffffffffffffffffffffff1660016200080860201b60201c565b81600760006101000a81548173ffffffffffffffffffffffffffffffffffffffff021916908373ffffffffffffffffffffffffffffffffffffffff1602179055506001600560003073ffffffffffffffffffffffffffffffffffffffff1673ffffffffffffffffffffffffffffffffffffffff16815260200190815260200160002060006101000a81548160ff0219169083151502179055506001600560003373ffffffffffffffffffffffffffffffffffffffff1673ffffffffffffffffffffffffffffffffffffffff16815260200190815260200160002060006101000a81548160ff0219169083151502179055503373ffffffffffffffffffffffffffffffffffffffff16600073ffffffffffffffffffffffffffffffffffffffff167fddf252ad1be2c89b69c2b068fc378daa952ba7f163c4a11628f55a4df523b3ef6001546040516200055b919062000b77565b60405180910390a3505062000cd5565b600033905090565b60008060009054906101000a900473ffffffffffffffffffffffffffffffffffffffff169050816000806101000a81548173ffffffffffffffffffffffffffffffffffffffff021916908373ffffffffffffffffffffffffffffffffffffffff1602179055508173ffffffffffffffffffffffffffffffffffffffff168173ffffffffffffffffffffffffffffffffffffffff167f8be0079c531659141344cd1fd0a4f28419497f9722a3daafe3b4186f6b6457e060405160405180910390a35050565b600073ffffffffffffffffffffffffffffffffffffffff168373ffffffffffffffffffffffffffffffffffffffff1603620006a9576040517f08c379a0000000000000000000000000000000000000000000000000000000008152600401620006a09062000c1b565b60405180910390fd5b600073ffffffffffffffffffffffffffffffffffffffff168273ffffffffffffffffffffffffffffffffffffffff16036200071b576040517f08c379a0000000000000000000000000000000000000000000000000000000008152600401620007129062000cb3565b60405180910390fd5b80600360008573ffffffffffffffffffffffffffffffffffffffff1673ffffffffffffffffffffffffffffffffffffffff16815260200190815260200160002060008473ffffffffffffffffffffffffffffffffffffffff1673ffffffffffffffffffffffffffffffffffffffff168152602001908152602001600020819055508173ffffffffffffffffffffffffffffffffffffffff168373ffffffffffffffffffffffffffffffffffffffff167f8c5be1e5ebec7d5bd14f71427d1e84f3dd0314c0f7b2291e5b200ac8c7c3b92583604051620007fb919062000b77565b60405180910390a3505050565b80600660008473ffffffffffffffffffffffffffffffffffffffff1673ffffffffffffffffffffffffffffffffffffffff16815260200190815260200160002060006101000a81548160ff0219169083151502179055505050565b7f4e487b7100000000000000000000000000000000000000000000000000000000600052601160045260246000fd5b60008160011c9050919050565b6000808291508390505b6001851115620008f157808604811115620008c957620008c862000863565b5b6001851615620008d95780820291505b8081029050620008e98562000892565b9450620008a9565b94509492505050565b6000826200090c5760019050620009df565b816200091c5760009050620009df565b8160018114620009355760028114620009405762000976565b6001915050620009df565b60ff84111562000955576200095462000863565b5b8360020a9150848211156200096f576200096e62000863565b5b50620009df565b5060208310610133831016604e8410600b8410161715620009b05782820a905083811115620009aa57620009a962000863565b5b620009df565b620009bf84848460016200089f565b92509050818404811115620009d957620009d862000863565b5b81810290505b9392505050565b6000819050919050565b6000620009fd82620009e6565b915062000a0a83620009e6565b925062000a397fffffffffffffffffffffffffffffffffffffffffffffffffffffffffffffffff8484620008fa565b905092915050565b600062000a4e82620009e6565b915062000a5b83620009e6565b925082820262000a6b81620009e6565b9150828204841483151762000a855762000a8462000863565b5b5092915050565b600080fd5b600073ffffffffffffffffffffffffffffffffffffffff82169050919050565b600062000abe8262000a91565b9050919050565b62000ad08162000ab1565b811462000adc57600080fd5b50565b60008151905062000af08162000ac5565b92915050565b60006020828403121562000b0f5762000b0e62000a8c565b5b600062000b1f8482850162000adf565b91505092915050565b62000b338162000ab1565b82525050565b600060408201905062000b50600083018562000b28565b62000b5f602083018462000b28565b9392505050565b62000b7181620009e6565b82525050565b600060208201905062000b8e600083018462000b66565b92915050565b600082825260208201905092915050565b7f45524332303a20617070726f76652066726f6d20746865207a65726f2061646460008201527f7265737300000000000000000000000000000000000000000000000000000000602082015250565b600062000c0360248362000b94565b915062000c108262000ba5565b604082019050919050565b6000602082019050818103600083015262000c368162000bf4565b9050919050565b7f45524332303a20617070726f766520746f20746865207a65726f20616464726560008201527f7373000000000000000000000000000000000000000000000000000000000000602082015250565b600062000c9b60228362000b94565b915062000ca88262000c3d565b604082019050919050565b6000602082019050818103600083015262000cce8162000c8c565b9050919050565b613ae48062000ce56000396000f3fe6080604052600436106102555760003560e01c806375f0a87411610139578063a9059cbb116100b6578063c410ab5e1161007a578063c410ab5e14610870578063dd3a1f761461089b578063dd62ed3e146108c6578063f2fde38b14610903578063f7e533371461092c578063fe575a87146109575761025c565b8063a9059cbb14610777578063aaa00b99146107b4578063b187bd26146107df578063b62496f51461080a578063ba414b10146108475761025c565b806395d89b41116100fd57806395d89b41146106a65780639a7a23d6146106d15780639ec4be41146106fa578063a562564a14610723578063a56d37f91461074e5761025c565b806375f0a874146105e557806377c068ec146106105780638456cb591461063b5780638da5cb5b14610652578063924de9b71461067d5761025c565b80634baf59f3116101d25780635d098b38116101965780635d098b38146104eb5780636612e66f146105145780636dbff43b1461053d5780636ddd17131461056657806370a0823114610591578063715018a6146105ce5761025c565b80634baf59f3146104065780634bf28fd01461042f5780635342acb41461045a578063537df3b614610497578063549fb8bf146104c05761025c565b806320800a001161021957806320800a001461034757806323b872dd1461035e578063313ce5671461039b5780633f4ba83a146103c657806344337ea1146103dd5761025c565b806306fdde031461025e578063095ea7b3146102895780631694505e146102c657806316c61ccc146102f157806318160ddd1461031c5761025c565b3661025c57005b005b34801561026a57600080fd5b50610273610994565b60405161028091906128ff565b60405180910390f35b34801561029557600080fd5b506102b060048036038101906102ab91906129bf565b6109d1565b6040516102bd9190612a1a565b60405180910390f35b3480156102d257600080fd5b506102db6109e8565b6040516102e89190612a94565b60405180910390f35b3480156102fd57600080fd5b50610306610a0e565b6040516103139190612a1a565b60405180910390f35b34801561032857600080fd5b50610331610a21565b60405161033e9190612abe565b60405180910390f35b34801561035357600080fd5b5061035c610a2b565b005b34801561036a57600080fd5b5061038560048036038101906103809190612ad9565b610a7c565b6040516103929190612a1a565b60405180910390f35b3480156103a757600080fd5b506103b0610aa4565b6040516103bd9190612b48565b60405180910390f35b3480156103d257600080fd5b506103db610aad565b005b3480156103e957600080fd5b5061040460048036038101906103ff9190612b63565b610ad2565b005b34801561041257600080fd5b5061042d60048036038101906104289190612b90565b610c37565b005b34801561043b57600080fd5b50610444610c49565b6040516104519190612bcc565b60405180910390f35b34801561046657600080fd5b50610481600480360381019061047c9190612b63565b610c6f565b60405161048e9190612a1a565b60405180910390f35b3480156104a357600080fd5b506104be60048036038101906104b99190612b63565b610cc5565b005b3480156104cc57600080fd5b506104d5610e29565b6040516104e29190612abe565b60405180910390f35b3480156104f757600080fd5b50610512600480360381019061050d9190612b63565b610e2f565b005b34801561052057600080fd5b5061053b60048036038101906105369190612c13565b610e7b565b005b34801561054957600080fd5b50610564600480360381019061055f9190612b90565b610ede565b005b34801561057257600080fd5b5061057b610fbe565b6040516105889190612a1a565b60405180910390f35b34801561059d57600080fd5b506105b860048036038101906105b39190612b63565b610fd1565b6040516105c59190612abe565b60405180910390f35b3480156105da57600080fd5b506105e361101a565b005b3480156105f157600080fd5b506105fa61102e565b6040516106079190612bcc565b60405180910390f35b34801561061c57600080fd5b50610625611054565b6040516106329190612abe565b60405180910390f35b34801561064757600080fd5b5061065061105a565b005b34801561065e57600080fd5b5061066761107f565b6040516106749190612bcc565b60405180910390f35b34801561068957600080fd5b506106a4600480360381019061069f9190612c53565b6110a8565b005b3480156106b257600080fd5b506106bb6110cd565b6040516106c891906128ff565b60405180910390f35b3480156106dd57600080fd5b506106f860048036038101906106f39190612c13565b61110a565b005b34801561070657600080fd5b50610721600480360381019061071c9190612b90565b6111b0565b005b34801561072f57600080fd5b50610738611290565b6040516107459190612abe565b60405180910390f35b34801561075a57600080fd5b5061077560048036038101906107709190612b90565b611296565b005b34801561078357600080fd5b5061079e600480360381019061079991906129bf565b611376565b6040516107ab9190612a1a565b60405180910390f35b3480156107c057600080fd5b506107c9611392565b6040516107d69190612abe565b60405180910390f35b3480156107eb57600080fd5b506107f4611398565b6040516108019190612a1a565b60405180910390f35b34801561081657600080fd5b50610831600480360381019061082c9190612b63565b6113af565b60405161083e9190612a1a565b60405180910390f35b34801561085357600080fd5b5061086e60048036038101906108699190612ce5565b6113cf565b005b34801561087c57600080fd5b506108856114ac565b6040516108929190612abe565b60405180910390f35b3480156108a757600080fd5b506108b06114b2565b6040516108bd9190612abe565b60405180910390f35b3480156108d257600080fd5b506108ed60048036038101906108e89190612d45565b6114b8565b6040516108fa9190612abe565b60405180910390f35b34801561090f57600080fd5b5061092a60048036038101906109259190612b63565b61153f565b005b34801561093857600080fd5b506109416115c2565b60405161094e9190612abe565b60405180910390f35b34801561096357600080fd5b5061097e60048036038101906109799190612b63565b6115c8565b60405161098b9190612a1a565b60405180910390f35b60606040518060400160405280600381526020017f464f500000000000000000000000000000000000000000000000000000000000815250905090565b60006109de33848461161e565b6001905092915050565b600f60009054906101000a900473ffffffffffffffffffffffffffffffffffffffff1681565b601060149054906101000a900460ff1681565b6000600154905090565b610a336117e7565b3373ffffffffffffffffffffffffffffffffffffffff166108fc479081150290604051600060405180830381858888f19350505050158015610a79573d6000803e3d6000fd5b50565b600080339050610a8d858285611865565b610a988585856118f1565b60019150509392505050565b60006012905090565b610ab56117e7565b6000601060146101000a81548160ff021916908315150217905550565b610ada6117e7565b600460008273ffffffffffffffffffffffffffffffffffffffff1673ffffffffffffffffffffffffffffffffffffffff16815260200190815260200160002060009054906101000a900460ff1615610b67576040517f08c379a0000000000000000000000000000000000000000000000000000000008152600401610b5e90612dd1565b60405180910390fd5b8073ffffffffffffffffffffffffffffffffffffffff16610b866120f6565b73ffffffffffffffffffffffffffffffffffffffff1603610bdc576040517f08c379a0000000000000000000000000000000000000000000000000000000008152600401610bd390612e3d565b60405180910390fd5b6001600460008373ffffffffffffffffffffffffffffffffffffffff1673ffffffffffffffffffffffffffffffffffffffff16815260200190815260200160002060006101000a81548160ff02191690831515021790555050565b610c3f6117e7565b80600b8190555050565b601060009054906101000a900473ffffffffffffffffffffffffffffffffffffffff1681565b6000600560008373ffffffffffffffffffffffffffffffffffffffff1673ffffffffffffffffffffffffffffffffffffffff16815260200190815260200160002060009054906101000a900460ff169050919050565b610ccd6117e7565b600460008273ffffffffffffffffffffffffffffffffffffffff1673ffffffffffffffffffffffffffffffffffffffff16815260200190815260200160002060009054906101000a900460ff16610d59576040517f08c379a0000000000000000000000000000000000000000000000000000000008152600401610d5090612ea9565b60405180910390fd5b8073ffffffffffffffffffffffffffffffffffffffff16610d786120f6565b73ffffffffffffffffffffffffffffffffffffffff1603610dce576040517f08c379a0000000000000000000000000000000000000000000000000000000008152600401610dc590612f3b565b60405180910390fd5b6000600460008373ffffffffffffffffffffffffffffffffffffffff1673ffffffffffffffffffffffffffffffffffffffff16815260200190815260200160002060006101000a81548160ff02191690831515021790555050565b600a5481565b610e376117e7565b80600760006101000a81548173ffffffffffffffffffffffffffffffffffffffff021916908373ffffffffffffffffffffffffffffffffffffffff16021790555050565b610e836117e7565b80600560008473ffffffffffffffffffffffffffffffffffffffff1673ffffffffffffffffffffffffffffffffffffffff16815260200190815260200160002060006101000a81548160ff0219169083151502179055505050565b610ee66117e7565b620186a0811115610f2c576040517f08c379a0000000000000000000000000000000000000000000000000000000008152600401610f2390612fa7565b60405180910390fd5b80600a819055506000600a54600954600854610f489190612ff6565b610f529190612ff6565b905080620186a0600854610f66919061302a565b610f70919061309b565b600c8190555080620186a0600954610f88919061302a565b610f92919061309b565b600d8190555080620186a0600a54610faa919061302a565b610fb4919061309b565b600e819055505050565b601060169054906101000a900460ff1681565b6000600260008373ffffffffffffffffffffffffffffffffffffffff1673ffffffffffffffffffffffffffffffffffffffff168152602001908152602001600020549050919050565b6110226117e7565b61102c60006120fe565b565b600760009054906101000a900473ffffffffffffffffffffffffffffffffffffffff1681565b600b5481565b6110626117e7565b6001601060146101000a81548160ff021916908315150217905550565b60008060009054906101000a900473ffffffffffffffffffffffffffffffffffffffff16905090565b6110b06117e7565b80601060166101000a81548160ff02191690831515021790555050565b60606040518060400160405280600381526020017f464f500000000000000000000000000000000000000000000000000000000000815250905090565b6111126117e7565b601060009054906101000a900473ffffffffffffffffffffffffffffffffffffffff1673ffffffffffffffffffffffffffffffffffffffff168273ffffffffffffffffffffffffffffffffffffffff16036111a2576040517f08c379a00000000000000000000000000000000000000000000000000000000081526004016111999061313e565b60405180910390fd5b6111ac82826121c2565b5050565b6111b86117e7565b620186a08111156111fe576040517f08c379a00000000000000000000000000000000000000000000000000000000081526004016111f590612fa7565b60405180910390fd5b806009819055506000600a5460095460085461121a9190612ff6565b6112249190612ff6565b905080620186a0600854611238919061302a565b611242919061309b565b600c8190555080620186a060095461125a919061302a565b611264919061309b565b600d8190555080620186a0600a5461127c919061302a565b611286919061309b565b600e819055505050565b60095481565b61129e6117e7565b620186a08111156112e4576040517f08c379a00000000000000000000000000000000000000000000000000000000081526004016112db90612fa7565b60405180910390fd5b806008819055506000600a546009546008546113009190612ff6565b61130a9190612ff6565b905080620186a060085461131e919061302a565b611328919061309b565b600c8190555080620186a0600954611340919061302a565b61134a919061309b565b600d8190555080620186a0600a54611362919061302a565b61136c919061309b565b600e819055505050565b6000803390506113878185856118f1565b600191505092915050565b600d5481565b6000601060149054906101000a900460ff16905090565b60066020528060005260406000206000915054906101000a900460ff1681565b6113d76117e7565b60006113e161107f565b905060005b848490508110156114a55760008585838181106114065761140561315e565b5b905060200201602081019061141b9190612b63565b9050600073ffffffffffffffffffffffffffffffffffffffff168173ffffffffffffffffffffffffffffffffffffffff160361148c576040517f08c379a0000000000000000000000000000000000000000000000000000000008152600401611483906131ff565b60405180910390fd5b61149783828661221d565b5080806001019150506113e6565b5050505050565b60085481565b600e5481565b6000600360008473ffffffffffffffffffffffffffffffffffffffff1673ffffffffffffffffffffffffffffffffffffffff16815260200190815260200160002060008373ffffffffffffffffffffffffffffffffffffffff1673ffffffffffffffffffffffffffffffffffffffff16815260200190815260200160002054905092915050565b6115476117e7565b600073ffffffffffffffffffffffffffffffffffffffff168173ffffffffffffffffffffffffffffffffffffffff16036115b6576040517f08c379a00000000000000000000000000000000000000000000000000000000081526004016115ad90613291565b60405180910390fd5b6115bf816120fe565b50565b600c5481565b6000600460008373ffffffffffffffffffffffffffffffffffffffff1673ffffffffffffffffffffffffffffffffffffffff16815260200190815260200160002060009054906101000a900460ff169050919050565b600073ffffffffffffffffffffffffffffffffffffffff168373ffffffffffffffffffffffffffffffffffffffff160361168d576040517f08c379a000000000000000000000000000000000000000000000000000000000815260040161168490613323565b60405180910390fd5b600073ffffffffffffffffffffffffffffffffffffffff168273ffffffffffffffffffffffffffffffffffffffff16036116fc576040517f08c379a00000000000000000000000000000000000000000000000000000000081526004016116f3906133b5565b60405180910390fd5b80600360008573ffffffffffffffffffffffffffffffffffffffff1673ffffffffffffffffffffffffffffffffffffffff16815260200190815260200160002060008473ffffffffffffffffffffffffffffffffffffffff1673ffffffffffffffffffffffffffffffffffffffff168152602001908152602001600020819055508173ffffffffffffffffffffffffffffffffffffffff168373ffffffffffffffffffffffffffffffffffffffff167f8c5be1e5ebec7d5bd14f71427d1e84f3dd0314c0f7b2291e5b200ac8c7c3b925836040516117da9190612abe565b60405180910390a3505050565b6117ef6120f6565b73ffffffffffffffffffffffffffffffffffffffff1661180d61107f565b73ffffffffffffffffffffffffffffffffffffffff1614611863576040517f08c379a000000000000000000000000000000000000000000000000000000000815260040161185a90613421565b60405180910390fd5b565b600061187184846114b8565b90507fffffffffffffffffffffffffffffffffffffffffffffffffffffffffffffffff81146118eb57818110156118dd576040517f08c379a00000000000000000000000000000000000000000000000000000000081526004016118d49061348d565b60405180910390fd5b6118ea848484840361161e565b5b50505050565b600073ffffffffffffffffffffffffffffffffffffffff168373ffffffffffffffffffffffffffffffffffffffff1603611960576040517f08c379a00000000000000000000000000000000000000000000000000000000081526004016119579061351f565b60405180910390fd5b600073ffffffffffffffffffffffffffffffffffffffff168273ffffffffffffffffffffffffffffffffffffffff16036119cf576040517f08c379a00000000000000000000000000000000000000000000000000000000081526004016119c6906131ff565b60405180910390fd5b60008111611a12576040517f08c379a0000000000000000000000000000000000000000000000000000000008152600401611a09906135b1565b60405180910390fd5b600460008473ffffffffffffffffffffffffffffffffffffffff1673ffffffffffffffffffffffffffffffffffffffff16815260200190815260200160002060009054906101000a900460ff1615611a9f576040517f08c379a0000000000000000000000000000000000000000000000000000000008152600401611a969061361d565b60405180910390fd5b600460008373ffffffffffffffffffffffffffffffffffffffff1673ffffffffffffffffffffffffffffffffffffffff16815260200190815260200160002060009054906101000a900460ff1615611b2c576040517f08c379a0000000000000000000000000000000000000000000000000000000008152600401611b2390613689565b60405180910390fd5b601060149054906101000a900460ff1615611b7c576040517f08c379a0000000000000000000000000000000000000000000000000000000008152600401611b73906136f5565b60405180910390fd5b60008103611b9557611b908383600061221d565b6120f1565b6000601060009054906101000a900473ffffffffffffffffffffffffffffffffffffffff1673ffffffffffffffffffffffffffffffffffffffff168473ffffffffffffffffffffffffffffffffffffffff161490506000601060009054906101000a900473ffffffffffffffffffffffffffffffffffffffff1673ffffffffffffffffffffffffffffffffffffffff168473ffffffffffffffffffffffffffffffffffffffff16149050600080600080611c4e30610fd1565b90506000600b548210159050808015611c735750601060169054906101000a900460ff165b8015611c8c5750601060159054906101000a900460ff16155b8015611ce25750600660008b73ffffffffffffffffffffffffffffffffffffffff1673ffffffffffffffffffffffffffffffffffffffff16815260200190815260200160002060009054906101000a900460ff16155b8015611d385750600560008b73ffffffffffffffffffffffffffffffffffffffff1673ffffffffffffffffffffffffffffffffffffffff16815260200190815260200160002060009054906101000a900460ff16155b8015611d8e5750600560008a73ffffffffffffffffffffffffffffffffffffffff1673ffffffffffffffffffffffffffffffffffffffff16815260200190815260200160002060009054906101000a900460ff16155b15611e3b576001601060156101000a81548160ff021916908315150217905550611db66123a2565b600760009054906101000a900473ffffffffffffffffffffffffffffffffffffffff1673ffffffffffffffffffffffffffffffffffffffff166108fc479081150290604051600060405180830381858888f19350505050158015611e1e573d6000803e3d6000fd5b506000601060156101000a81548160ff0219169083151502179055505b6000601060159054906101000a900460ff16159050600560008c73ffffffffffffffffffffffffffffffffffffffff1673ffffffffffffffffffffffffffffffffffffffff16815260200190815260200160002060009054906101000a900460ff1680611ef15750600560008b73ffffffffffffffffffffffffffffffffffffffff1673ffffffffffffffffffffffffffffffffffffffff16815260200190815260200160002060009054906101000a900460ff165b15611efb57600090505b600081156120dc57600660008d73ffffffffffffffffffffffffffffffffffffffff1673ffffffffffffffffffffffffffffffffffffffff16815260200190815260200160002060009054906101000a900460ff168015611f595750885b15611fdf57600560008c73ffffffffffffffffffffffffffffffffffffffff1673ffffffffffffffffffffffffffffffffffffffff16815260200190815260200160002060009054906101000a900460ff16611fcc57611fbb8a600854612529565b9650611fc98a600a54612529565b94505b8487611fd89190612ff6565b90506120b8565b600660008c73ffffffffffffffffffffffffffffffffffffffff1673ffffffffffffffffffffffffffffffffffffffff16815260200190815260200160002060009054906101000a900460ff1680156120355750875b156120b757600560008d73ffffffffffffffffffffffffffffffffffffffff1673ffffffffffffffffffffffffffffffffffffffff16815260200190815260200160002060009054906101000a900460ff166120a8576120978a600954612529565b95506120a58a600a54612529565b94505b84866120b49190612ff6565b90505b5b60008111156120cd576120cc8c308361221d565b5b808a6120d99190613715565b99505b6120e78c8c8c61221d565b5050505050505050505b505050565b600033905090565b60008060009054906101000a900473ffffffffffffffffffffffffffffffffffffffff169050816000806101000a81548173ffffffffffffffffffffffffffffffffffffffff021916908373ffffffffffffffffffffffffffffffffffffffff1602179055508173ffffffffffffffffffffffffffffffffffffffff168173ffffffffffffffffffffffffffffffffffffffff167f8be0079c531659141344cd1fd0a4f28419497f9722a3daafe3b4186f6b6457e060405160405180910390a35050565b80600660008473ffffffffffffffffffffffffffffffffffffffff1673ffffffffffffffffffffffffffffffffffffffff16815260200190815260200160002060006101000a81548160ff0219169083151502179055505050565b6000600260008573ffffffffffffffffffffffffffffffffffffffff1673ffffffffffffffffffffffffffffffffffffffff168152602001908152602001600020549050818110156122a4576040517f08c379a000000000000000000000000000000000000000000000000000000000815260040161229b906137bb565b60405180910390fd5b818103600260008673ffffffffffffffffffffffffffffffffffffffff1673ffffffffffffffffffffffffffffffffffffffff1681526020019081526020016000208190555081600260008573ffffffffffffffffffffffffffffffffffffffff1673ffffffffffffffffffffffffffffffffffffffff168152602001908152602001600020600082825401925050819055508273ffffffffffffffffffffffffffffffffffffffff168473ffffffffffffffffffffffffffffffffffffffff167fddf252ad1be2c89b69c2b068fc378daa952ba7f163c4a11628f55a4df523b3ef846040516123949190612abe565b60405180910390a350505050565b60006123ad30610fd1565b9050600081036123bd5750612527565b60006002620186a0600e54846123d3919061302a565b6123dd919061309b565b6123e7919061309b565b9050600081836123f79190613715565b905060004790506124078261254d565b600081476124159190613715565b9050600080620186a0600c548461242c919061302a565b612436919061309b565b90506000620186a0600d548561244c919061302a565b612456919061309b565b9050600081836124669190612ff6565b905080856124749190613715565b9450600760009054906101000a900473ffffffffffffffffffffffffffffffffffffffff1673ffffffffffffffffffffffffffffffffffffffff16816188b8906040516124c09061380c565b600060405180830381858888f193505050503d80600081146124fe576040519150601f19603f3d011682016040523d82523d6000602084013e612503565b606091505b505080945050600085111561251d5761251c8886612790565b5b5050505050505050505b565b6000620186a0828461253b919061302a565b612545919061309b565b905092915050565b6000600267ffffffffffffffff81111561256a57612569613821565b5b6040519080825280602002602001820160405280156125985781602001602082028036833780820191505090505b50905030816000815181106125b0576125af61315e565b5b602002602001019073ffffffffffffffffffffffffffffffffffffffff16908173ffffffffffffffffffffffffffffffffffffffff1681525050600f60009054906101000a900473ffffffffffffffffffffffffffffffffffffffff1673ffffffffffffffffffffffffffffffffffffffff1663ad5c46486040518163ffffffff1660e01b8152600401602060405180830381865afa158015612657573d6000803e3d6000fd5b505050506040513d601f19601f8201168201806040525081019061267b9190613865565b8160018151811061268f5761268e61315e565b5b602002602001019073ffffffffffffffffffffffffffffffffffffffff16908173ffffffffffffffffffffffffffffffffffffffff16815250506126f630600f60009054906101000a900473ffffffffffffffffffffffffffffffffffffffff168461161e565b600f60009054906101000a900473ffffffffffffffffffffffffffffffffffffffff1673ffffffffffffffffffffffffffffffffffffffff1663791ac9478360008430426040518663ffffffff1660e01b815260040161275a95949392919061398b565b600060405180830381600087803b15801561277457600080fd5b505af1158015612788573d6000803e3d6000fd5b505050505050565b6127bd30600f60009054906101000a900473ffffffffffffffffffffffffffffffffffffffff168461161e565b600f60009054906101000a900473ffffffffffffffffffffffffffffffffffffffff1673ffffffffffffffffffffffffffffffffffffffff1663f305d7198230856000806000426040518863ffffffff1660e01b8152600401612825969594939291906139e5565b60606040518083038185885af1158015612843573d6000803e3d6000fd5b50505050506040513d601f19601f820116820180604052508101906128689190613a5b565b5050505050565b600081519050919050565b600082825260208201905092915050565b60005b838110156128a957808201518184015260208101905061288e565b60008484015250505050565b6000601f19601f8301169050919050565b60006128d18261286f565b6128db818561287a565b93506128eb81856020860161288b565b6128f4816128b5565b840191505092915050565b6000602082019050818103600083015261291981846128c6565b905092915050565b600080fd5b600080fd5b600073ffffffffffffffffffffffffffffffffffffffff82169050919050565b60006129568261292b565b9050919050565b6129668161294b565b811461297157600080fd5b50565b6000813590506129838161295d565b92915050565b6000819050919050565b61299c81612989565b81146129a757600080fd5b50565b6000813590506129b981612993565b92915050565b600080604083850312156129d6576129d5612921565b5b60006129e485828601612974565b92505060206129f5858286016129aa565b9150509250929050565b60008115159050919050565b612a14816129ff565b82525050565b6000602082019050612a2f6000830184612a0b565b92915050565b6000819050919050565b6000612a5a612a55612a508461292b565b612a35565b61292b565b9050919050565b6000612a6c82612a3f565b9050919050565b6000612a7e82612a61565b9050919050565b612a8e81612a73565b82525050565b6000602082019050612aa96000830184612a85565b92915050565b612ab881612989565b82525050565b6000602082019050612ad36000830184612aaf565b92915050565b600080600060608486031215612af257612af1612921565b5b6000612b0086828701612974565b9350506020612b1186828701612974565b9250506040612b22868287016129aa565b9150509250925092565b600060ff82169050919050565b612b4281612b2c565b82525050565b6000602082019050612b5d6000830184612b39565b92915050565b600060208284031215612b7957612b78612921565b5b6000612b8784828501612974565b91505092915050565b600060208284031215612ba657612ba5612921565b5b6000612bb4848285016129aa565b91505092915050565b612bc68161294b565b82525050565b6000602082019050612be16000830184612bbd565b92915050565b612bf0816129ff565b8114612bfb57600080fd5b50565b600081359050612c0d81612be7565b92915050565b60008060408385031215612c2a57612c29612921565b5b6000612c3885828601612974565b9250506020612c4985828601612bfe565b9150509250929050565b600060208284031215612c6957612c68612921565b5b6000612c7784828501612bfe565b91505092915050565b600080fd5b600080fd5b600080fd5b60008083601f840112612ca557612ca4612c80565b5b8235905067ffffffffffffffff811115612cc257612cc1612c85565b5b602083019150836020820283011115612cde57612cdd612c8a565b5b9250929050565b600080600060408486031215612cfe57612cfd612921565b5b600084013567ffffffffffffffff811115612d1c57612d1b612926565b5b612d2886828701612c8f565b93509350506020612d3b868287016129aa565b9150509250925092565b60008060408385031215612d5c57612d5b612921565b5b6000612d6a85828601612974565b9250506020612d7b85828601612974565b9150509250929050565b7f4163636f756e7420697320616c726561647920626c61636b6c69737465640000600082015250565b6000612dbb601e8361287a565b9150612dc682612d85565b602082019050919050565b60006020820190508181036000830152612dea81612dae565b9050919050565b7f43616e6e6f7420626c61636b6c6973742073656c660000000000000000000000600082015250565b6000612e2760158361287a565b9150612e3282612df1565b602082019050919050565b60006020820190508181036000830152612e5681612e1a565b9050919050565b7f4163636f756e74206973206e6f7420626c61636b6c6973746564000000000000600082015250565b6000612e93601a8361287a565b9150612e9e82612e5d565b602082019050919050565b60006020820190508181036000830152612ec281612e86565b9050919050565b7f43616e6e6f742072656d6f76652073656c662066726f6d20626c61636b6c697360008201527f7400000000000000000000000000000000000000000000000000000000000000602082015250565b6000612f2560218361287a565b9150612f3082612ec9565b604082019050919050565b60006020820190508181036000830152612f5481612f18565b9050919050565b7f5461782070657263656e746167652063616e6e6f742065786365656420313030600082015250565b6000612f9160208361287a565b9150612f9c82612f5b565b602082019050919050565b60006020820190508181036000830152612fc081612f84565b9050919050565b7f4e487b7100000000000000000000000000000000000000000000000000000000600052601160045260246000fd5b600061300182612989565b915061300c83612989565b925082820190508082111561302457613023612fc7565b5b92915050565b600061303582612989565b915061304083612989565b925082820261304e81612989565b9150828204841483151761306557613064612fc7565b5b5092915050565b7f4e487b7100000000000000000000000000000000000000000000000000000000600052601260045260246000fd5b60006130a682612989565b91506130b183612989565b9250826130c1576130c061306c565b5b828204905092915050565b7f54686520706169722063616e6e6f742062652072656d6f7665642066726f6d2060008201527f6175746f6d617465644d61726b65744d616b6572506169727300000000000000602082015250565b600061312860398361287a565b9150613133826130cc565b604082019050919050565b600060208201905081810360008301526131578161311b565b9050919050565b7f4e487b7100000000000000000000000000000000000000000000000000000000600052603260045260246000fd5b7f45524332303a207472616e7366657220746f20746865207a65726f206164647260008201527f6573730000000000000000000000000000000000000000000000000000000000602082015250565b60006131e960238361287a565b91506131f48261318d565b604082019050919050565b60006020820190508181036000830152613218816131dc565b9050919050565b7f4f776e61626c653a206e6577206f776e657220697320746865207a65726f206160008201527f6464726573730000000000000000000000000000000000000000000000000000602082015250565b600061327b60268361287a565b91506132868261321f565b604082019050919050565b600060208201905081810360008301526132aa8161326e565b9050919050565b7f45524332303a20617070726f76652066726f6d20746865207a65726f2061646460008201527f7265737300000000000000000000000000000000000000000000000000000000602082015250565b600061330d60248361287a565b9150613318826132b1565b604082019050919050565b6000602082019050818103600083015261333c81613300565b9050919050565b7f45524332303a20617070726f766520746f20746865207a65726f20616464726560008201527f7373000000000000000000000000000000000000000000000000000000000000602082015250565b600061339f60228361287a565b91506133aa82613343565b604082019050919050565b600060208201905081810360008301526133ce81613392565b9050919050565b7f4f776e61626c653a2063616c6c6572206973206e6f7420746865206f776e6572600082015250565b600061340b60208361287a565b9150613416826133d5565b602082019050919050565b6000602082019050818103600083015261343a816133fe565b9050919050565b7f45524332303a20696e73756666696369656e7420616c6c6f77616e6365000000600082015250565b6000613477601d8361287a565b915061348282613441565b602082019050919050565b600060208201905081810360008301526134a68161346a565b9050919050565b7f45524332303a207472616e736665722066726f6d20746865207a65726f20616460008201527f6472657373000000000000000000000000000000000000000000000000000000602082015250565b600061350960258361287a565b9150613514826134ad565b604082019050919050565b60006020820190508181036000830152613538816134fc565b9050919050565b7f5472616e7366657220616d6f756e74206d75737420626520677265617465722060008201527f7468616e207a65726f0000000000000000000000000000000000000000000000602082015250565b600061359b60298361287a565b91506135a68261353f565b604082019050919050565b600060208201905081810360008301526135ca8161358e565b9050919050565b7f53656e64657220697320626c61636b6c69737465640000000000000000000000600082015250565b600061360760158361287a565b9150613612826135d1565b602082019050919050565b60006020820190508181036000830152613636816135fa565b9050919050565b7f526563697069656e7420697320626c61636b6c69737465640000000000000000600082015250565b600061367360188361287a565b915061367e8261363d565b602082019050919050565b600060208201905081810360008301526136a281613666565b9050919050565b7f54726164696e6720697320706175736564000000000000000000000000000000600082015250565b60006136df60118361287a565b91506136ea826136a9565b602082019050919050565b6000602082019050818103600083015261370e816136d2565b9050919050565b600061372082612989565b915061372b83612989565b925082820390508181111561374357613742612fc7565b5b92915050565b7f45524332303a207472616e7366657220616d6f756e742065786365656473206260008201527f616c616e63650000000000000000000000000000000000000000000000000000602082015250565b60006137a560268361287a565b91506137b082613749565b604082019050919050565b600060208201905081810360008301526137d481613798565b9050919050565b600081905092915050565b50565b60006137f66000836137db565b9150613801826137e6565b600082019050919050565b6000613817826137e9565b9150819050919050565b7f4e487b7100000000000000000000000000000000000000000000000000000000600052604160045260246000fd5b60008151905061385f8161295d565b92915050565b60006020828403121561387b5761387a612921565b5b600061388984828501613850565b91505092915050565b6000819050919050565b60006138b76138b26138ad84613892565b612a35565b612989565b9050919050565b6138c78161389c565b82525050565b600081519050919050565b600082825260208201905092915050565b6000819050602082019050919050565b6139028161294b565b82525050565b600061391483836138f9565b60208301905092915050565b6000602082019050919050565b6000613938826138cd565b61394281856138d8565b935061394d836138e9565b8060005b8381101561397e5781516139658882613908565b975061397083613920565b925050600181019050613951565b5085935050505092915050565b600060a0820190506139a06000830188612aaf565b6139ad60208301876138be565b81810360408301526139bf818661392d565b90506139ce6060830185612bbd565b6139db6080830184612aaf565b9695505050505050565b600060c0820190506139fa6000830189612bbd565b613a076020830188612aaf565b613a1460408301876138be565b613a2160608301866138be565b613a2e6080830185612bbd565b613a3b60a0830184612aaf565b979650505050505050565b600081519050613a5581612993565b92915050565b600080600060608486031215613a7457613a73612921565b5b6000613a8286828701613a46565b9350506020613a9386828701613a46565b9250506040613aa486828701613a46565b915050925092509256fea264697066735822122052167a1b4dddf6d1a0ef0590aca982a51e128ace76c8c2790fa8dd07a23dc6a464736f6c63430008130033",
					"opcodes": "PUSH1 0x80 PUSH1 0x40 MSTORE PUSH1 0x12 PUSH1 0xFF AND PUSH1 0xA PUSH3 0x17 SWAP2 SWAP1 PUSH3 0x9F0 JUMP JUMPDEST PUSH5 0x61C9F36800 PUSH3 0x29 SWAP2 SWAP1 PUSH3 0xA41 JUMP JUMPDEST PUSH1 0x1 SSTORE PUSH2 0x7D0 PUSH1 0x8 SSTORE PUSH2 0xBB8 PUSH1 0x9 SSTORE PUSH2 0x3E8 PUSH1 0xA SSTORE PUSH1 0x12 PUSH1 0xFF AND PUSH1 0xA PUSH3 0x51 SWAP2 SWAP1 PUSH3 0x9F0 JUMP JUMPDEST PUSH3 0x186A0 PUSH3 0x61 SWAP2 SWAP1 PUSH3 0xA41 JUMP JUMPDEST PUSH1 0xB SSTORE PUSH2 0x8235 PUSH1 0xC SSTORE PUSH2 0xC350 PUSH1 0xD SSTORE PUSH2 0x411A PUSH1 0xE SSTORE PUSH1 0x1 PUSH1 0x10 PUSH1 0x16 PUSH2 0x100 EXP DUP2 SLOAD DUP2 PUSH1 0xFF MUL NOT AND SWAP1 DUP4 ISZERO ISZERO MUL OR SWAP1 SSTORE POP CALLVALUE DUP1 ISZERO PUSH3 0x9E JUMPI PUSH1 0x0 DUP1 REVERT JUMPDEST POP PUSH1 0x40 MLOAD PUSH3 0x47C9 CODESIZE SUB DUP1 PUSH3 0x47C9 DUP4 CODECOPY DUP2 DUP2 ADD PUSH1 0x40 MSTORE DUP2 ADD SWAP1 PUSH3 0xC4 SWAP2 SWAP1 PUSH3 0xAF6 JUMP JUMPDEST PUSH3 0xE4 PUSH3 0xD8 PUSH3 0x56B PUSH1 0x20 SHL PUSH1 0x20 SHR JUMP JUMPDEST PUSH3 0x573 PUSH1 0x20 SHL PUSH1 0x20 SHR JUMP JUMPDEST PUSH1 0x1 SLOAD PUSH1 0x2 PUSH1 0x0 CALLER PUSH20 0xFFFFFFFFFFFFFFFFFFFFFFFFFFFFFFFFFFFFFFFF AND PUSH20 0xFFFFFFFFFFFFFFFFFFFFFFFFFFFFFFFFFFFFFFFF AND DUP2 MSTORE PUSH1 0x20 ADD SWAP1 DUP2 MSTORE PUSH1 0x20 ADD PUSH1 0x0 KECCAK256 DUP2 SWAP1 SSTORE POP PUSH1 0x0 PUSH20 0xD99D1C33F9FC3444F8101754ABC46C52416550D1 SWAP1 POP DUP1 PUSH1 0xF PUSH1 0x0 PUSH2 0x100 EXP DUP2 SLOAD DUP2 PUSH20 0xFFFFFFFFFFFFFFFFFFFFFFFFFFFFFFFFFFFFFFFF MUL NOT AND SWAP1 DUP4 PUSH20 0xFFFFFFFFFFFFFFFFFFFFFFFFFFFFFFFFFFFFFFFF AND MUL OR SWAP1 SSTORE POP DUP1 PUSH20 0xFFFFFFFFFFFFFFFFFFFFFFFFFFFFFFFFFFFFFFFF AND PUSH4 0xC45A0155 PUSH1 0x40 MLOAD DUP2 PUSH4 0xFFFFFFFF AND PUSH1 0xE0 SHL DUP2 MSTORE PUSH1 0x4 ADD PUSH1 0x20 PUSH1 0x40 MLOAD DUP1 DUP4 SUB DUP2 DUP7 GAS STATICCALL ISZERO DUP1 ISZERO PUSH3 0x1D0 JUMPI RETURNDATASIZE PUSH1 0x0 DUP1 RETURNDATACOPY RETURNDATASIZE PUSH1 0x0 REVERT JUMPDEST POP POP POP POP PUSH1 0x40 MLOAD RETURNDATASIZE PUSH1 0x1F NOT PUSH1 0x1F DUP3 ADD AND DUP3 ADD DUP1 PUSH1 0x40 MSTORE POP DUP2 ADD SWAP1 PUSH3 0x1F6 SWAP2 SWAP1 PUSH3 0xAF6 JUMP JUMPDEST PUSH20 0xFFFFFFFFFFFFFFFFFFFFFFFFFFFFFFFFFFFFFFFF AND PUSH4 0xC9C65396 ADDRESS DUP4 PUSH20 0xFFFFFFFFFFFFFFFFFFFFFFFFFFFFFFFFFFFFFFFF AND PUSH4 0xAD5C4648 PUSH1 0x40 MLOAD DUP2 PUSH4 0xFFFFFFFF AND PUSH1 0xE0 SHL DUP2 MSTORE PUSH1 0x4 ADD PUSH1 0x20 PUSH1 0x40 MLOAD DUP1 DUP4 SUB DUP2 DUP7 GAS STATICCALL ISZERO DUP1 ISZERO PUSH3 0x25E JUMPI RETURNDATASIZE PUSH1 0x0 DUP1 RETURNDATACOPY RETURNDATASIZE PUSH1 0x0 REVERT JUMPDEST POP POP POP POP PUSH1 0x40 MLOAD RETURNDATASIZE PUSH1 0x1F NOT PUSH1 0x1F DUP3 ADD AND DUP3 ADD DUP1 PUSH1 0x40 MSTORE POP DUP2 ADD SWAP1 PUSH3 0x284 SWAP2 SWAP1 PUSH3 0xAF6 JUMP JUMPDEST PUSH1 0x40 MLOAD DUP4 PUSH4 0xFFFFFFFF AND PUSH1 0xE0 SHL DUP2 MSTORE PUSH1 0x4 ADD PUSH3 0x2A3 SWAP3 SWAP2 SWAP1 PUSH3 0xB39 JUMP JUMPDEST PUSH1 0x20 PUSH1 0x40 MLOAD DUP1 DUP4 SUB DUP2 PUSH1 0x0 DUP8 GAS CALL ISZERO DUP1 ISZERO PUSH3 0x2C3 JUMPI RETURNDATASIZE PUSH1 0x0 DUP1 RETURNDATACOPY RETURNDATASIZE PUSH1 0x0 REVERT JUMPDEST POP POP POP POP PUSH1 0x40 MLOAD RETURNDATASIZE PUSH1 0x1F NOT PUSH1 0x1F DUP3 ADD AND DUP3 ADD DUP1 PUSH1 0x40 MSTORE POP DUP2 ADD SWAP1 PUSH3 0x2E9 SWAP2 SWAP1 PUSH3 0xAF6 JUMP JUMPDEST PUSH1 0x10 PUSH1 0x0 PUSH2 0x100 EXP DUP2 SLOAD DUP2 PUSH20 0xFFFFFFFFFFFFFFFFFFFFFFFFFFFFFFFFFFFFFFFF MUL NOT AND SWAP1 DUP4 PUSH20 0xFFFFFFFFFFFFFFFFFFFFFFFFFFFFFFFFFFFFFFFF AND MUL OR SWAP1 SSTORE POP PUSH3 0x37E CALLER PUSH1 0xF PUSH1 0x0 SWAP1 SLOAD SWAP1 PUSH2 0x100 EXP SWAP1 DIV PUSH20 0xFFFFFFFFFFFFFFFFFFFFFFFFFFFFFFFFFFFFFFFF AND PUSH32 0xFFFFFFFFFFFFFFFFFFFFFFFFFFFFFFFFFFFFFFFFFFFFFFFFFFFFFFFFFFFFFFFF PUSH3 0x637 PUSH1 0x20 SHL PUSH1 0x20 SHR JUMP JUMPDEST PUSH3 0x3D3 ADDRESS PUSH1 0xF PUSH1 0x0 SWAP1 SLOAD SWAP1 PUSH2 0x100 EXP SWAP1 DIV PUSH20 0xFFFFFFFFFFFFFFFFFFFFFFFFFFFFFFFFFFFFFFFF AND PUSH32 0xFFFFFFFFFFFFFFFFFFFFFFFFFFFFFFFFFFFFFFFFFFFFFFFFFFFFFFFFFFFFFFFF PUSH3 0x637 PUSH1 0x20 SHL PUSH1 0x20 SHR JUMP JUMPDEST PUSH3 0x408 PUSH1 0x10 PUSH1 0x0 SWAP1 SLOAD SWAP1 PUSH2 0x100 EXP SWAP1 DIV PUSH20 0xFFFFFFFFFFFFFFFFFFFFFFFFFFFFFFFFFFFFFFFF AND PUSH1 0x1 PUSH3 0x808 PUSH1 0x20 SHL PUSH1 0x20 SHR JUMP JUMPDEST DUP2 PUSH1 0x7 PUSH1 0x0 PUSH2 0x100 EXP DUP2 SLOAD DUP2 PUSH20 0xFFFFFFFFFFFFFFFFFFFFFFFFFFFFFFFFFFFFFFFF MUL NOT AND SWAP1 DUP4 PUSH20 0xFFFFFFFFFFFFFFFFFFFFFFFFFFFFFFFFFFFFFFFF AND MUL OR SWAP1 SSTORE POP PUSH1 0x1 PUSH1 0x5 PUSH1 0x0 ADDRESS PUSH20 0xFFFFFFFFFFFFFFFFFFFFFFFFFFFFFFFFFFFFFFFF AND PUSH20 0xFFFFFFFFFFFFFFFFFFFFFFFFFFFFFFFFFFFFFFFF AND DUP2 MSTORE PUSH1 0x20 ADD SWAP1 DUP2 MSTORE PUSH1 0x20 ADD PUSH1 0x0 KECCAK256 PUSH1 0x0 PUSH2 0x100 EXP DUP2 SLOAD DUP2 PUSH1 0xFF MUL NOT AND SWAP1 DUP4 ISZERO ISZERO MUL OR SWAP1 SSTORE POP PUSH1 0x1 PUSH1 0x5 PUSH1 0x0 CALLER PUSH20 0xFFFFFFFFFFFFFFFFFFFFFFFFFFFFFFFFFFFFFFFF AND PUSH20 0xFFFFFFFFFFFFFFFFFFFFFFFFFFFFFFFFFFFFFFFF AND DUP2 MSTORE PUSH1 0x20 ADD SWAP1 DUP2 MSTORE PUSH1 0x20 ADD PUSH1 0x0 KECCAK256 PUSH1 0x0 PUSH2 0x100 EXP DUP2 SLOAD DUP2 PUSH1 0xFF MUL NOT AND SWAP1 DUP4 ISZERO ISZERO MUL OR SWAP1 SSTORE POP CALLER PUSH20 0xFFFFFFFFFFFFFFFFFFFFFFFFFFFFFFFFFFFFFFFF AND PUSH1 0x0 PUSH20 0xFFFFFFFFFFFFFFFFFFFFFFFFFFFFFFFFFFFFFFFF AND PUSH32 0xDDF252AD1BE2C89B69C2B068FC378DAA952BA7F163C4A11628F55A4DF523B3EF PUSH1 0x1 SLOAD PUSH1 0x40 MLOAD PUSH3 0x55B SWAP2 SWAP1 PUSH3 0xB77 JUMP JUMPDEST PUSH1 0x40 MLOAD DUP1 SWAP2 SUB SWAP1 LOG3 POP POP PUSH3 0xCD5 JUMP JUMPDEST PUSH1 0x0 CALLER SWAP1 POP SWAP1 JUMP JUMPDEST PUSH1 0x0 DUP1 PUSH1 0x0 SWAP1 SLOAD SWAP1 PUSH2 0x100 EXP SWAP1 DIV PUSH20 0xFFFFFFFFFFFFFFFFFFFFFFFFFFFFFFFFFFFFFFFF AND SWAP1 POP DUP2 PUSH1 0x0 DUP1 PUSH2 0x100 EXP DUP2 SLOAD DUP2 PUSH20 0xFFFFFFFFFFFFFFFFFFFFFFFFFFFFFFFFFFFFFFFF MUL NOT AND SWAP1 DUP4 PUSH20 0xFFFFFFFFFFFFFFFFFFFFFFFFFFFFFFFFFFFFFFFF AND MUL OR SWAP1 SSTORE POP DUP2 PUSH20 0xFFFFFFFFFFFFFFFFFFFFFFFFFFFFFFFFFFFFFFFF AND DUP2 PUSH20 0xFFFFFFFFFFFFFFFFFFFFFFFFFFFFFFFFFFFFFFFF AND PUSH32 0x8BE0079C531659141344CD1FD0A4F28419497F9722A3DAAFE3B4186F6B6457E0 PUSH1 0x40 MLOAD PUSH1 0x40 MLOAD DUP1 SWAP2 SUB SWAP1 LOG3 POP POP JUMP JUMPDEST PUSH1 0x0 PUSH20 0xFFFFFFFFFFFFFFFFFFFFFFFFFFFFFFFFFFFFFFFF AND DUP4 PUSH20 0xFFFFFFFFFFFFFFFFFFFFFFFFFFFFFFFFFFFFFFFF AND SUB PUSH3 0x6A9 JUMPI PUSH1 0x40 MLOAD PUSH32 0x8C379A000000000000000000000000000000000000000000000000000000000 DUP2 MSTORE PUSH1 0x4 ADD PUSH3 0x6A0 SWAP1 PUSH3 0xC1B JUMP JUMPDEST PUSH1 0x40 MLOAD DUP1 SWAP2 SUB SWAP1 REVERT JUMPDEST PUSH1 0x0 PUSH20 0xFFFFFFFFFFFFFFFFFFFFFFFFFFFFFFFFFFFFFFFF AND DUP3 PUSH20 0xFFFFFFFFFFFFFFFFFFFFFFFFFFFFFFFFFFFFFFFF AND SUB PUSH3 0x71B JUMPI PUSH1 0x40 MLOAD PUSH32 0x8C379A000000000000000000000000000000000000000000000000000000000 DUP2 MSTORE PUSH1 0x4 ADD PUSH3 0x712 SWAP1 PUSH3 0xCB3 JUMP JUMPDEST PUSH1 0x40 MLOAD DUP1 SWAP2 SUB SWAP1 REVERT JUMPDEST DUP1 PUSH1 0x3 PUSH1 0x0 DUP6 PUSH20 0xFFFFFFFFFFFFFFFFFFFFFFFFFFFFFFFFFFFFFFFF AND PUSH20 0xFFFFFFFFFFFFFFFFFFFFFFFFFFFFFFFFFFFFFFFF AND DUP2 MSTORE PUSH1 0x20 ADD SWAP1 DUP2 MSTORE PUSH1 0x20 ADD PUSH1 0x0 KECCAK256 PUSH1 0x0 DUP5 PUSH20 0xFFFFFFFFFFFFFFFFFFFFFFFFFFFFFFFFFFFFFFFF AND PUSH20 0xFFFFFFFFFFFFFFFFFFFFFFFFFFFFFFFFFFFFFFFF AND DUP2 MSTORE PUSH1 0x20 ADD SWAP1 DUP2 MSTORE PUSH1 0x20 ADD PUSH1 0x0 KECCAK256 DUP2 SWAP1 SSTORE POP DUP2 PUSH20 0xFFFFFFFFFFFFFFFFFFFFFFFFFFFFFFFFFFFFFFFF AND DUP4 PUSH20 0xFFFFFFFFFFFFFFFFFFFFFFFFFFFFFFFFFFFFFFFF AND PUSH32 0x8C5BE1E5EBEC7D5BD14F71427D1E84F3DD0314C0F7B2291E5B200AC8C7C3B925 DUP4 PUSH1 0x40 MLOAD PUSH3 0x7FB SWAP2 SWAP1 PUSH3 0xB77 JUMP JUMPDEST PUSH1 0x40 MLOAD DUP1 SWAP2 SUB SWAP1 LOG3 POP POP POP JUMP JUMPDEST DUP1 PUSH1 0x6 PUSH1 0x0 DUP5 PUSH20 0xFFFFFFFFFFFFFFFFFFFFFFFFFFFFFFFFFFFFFFFF AND PUSH20 0xFFFFFFFFFFFFFFFFFFFFFFFFFFFFFFFFFFFFFFFF AND DUP2 MSTORE PUSH1 0x20 ADD SWAP1 DUP2 MSTORE PUSH1 0x20 ADD PUSH1 0x0 KECCAK256 PUSH1 0x0 PUSH2 0x100 EXP DUP2 SLOAD DUP2 PUSH1 0xFF MUL NOT AND SWAP1 DUP4 ISZERO ISZERO MUL OR SWAP1 SSTORE POP POP POP JUMP JUMPDEST PUSH32 0x4E487B7100000000000000000000000000000000000000000000000000000000 PUSH1 0x0 MSTORE PUSH1 0x11 PUSH1 0x4 MSTORE PUSH1 0x24 PUSH1 0x0 REVERT JUMPDEST PUSH1 0x0 DUP2 PUSH1 0x1 SHR SWAP1 POP SWAP2 SWAP1 POP JUMP JUMPDEST PUSH1 0x0 DUP1 DUP3 SWAP2 POP DUP4 SWAP1 POP JUMPDEST PUSH1 0x1 DUP6 GT ISZERO PUSH3 0x8F1 JUMPI DUP1 DUP7 DIV DUP2 GT ISZERO PUSH3 0x8C9 JUMPI PUSH3 0x8C8 PUSH3 0x863 JUMP JUMPDEST JUMPDEST PUSH1 0x1 DUP6 AND ISZERO PUSH3 0x8D9 JUMPI DUP1 DUP3 MUL SWAP2 POP JUMPDEST DUP1 DUP2 MUL SWAP1 POP PUSH3 0x8E9 DUP6 PUSH3 0x892 JUMP JUMPDEST SWAP5 POP PUSH3 0x8A9 JUMP JUMPDEST SWAP5 POP SWAP5 SWAP3 POP POP POP JUMP JUMPDEST PUSH1 0x0 DUP3 PUSH3 0x90C JUMPI PUSH1 0x1 SWAP1 POP PUSH3 0x9DF JUMP JUMPDEST DUP2 PUSH3 0x91C JUMPI PUSH1 0x0 SWAP1 POP PUSH3 0x9DF JUMP JUMPDEST DUP2 PUSH1 0x1 DUP2 EQ PUSH3 0x935 JUMPI PUSH1 0x2 DUP2 EQ PUSH3 0x940 JUMPI PUSH3 0x976 JUMP JUMPDEST PUSH1 0x1 SWAP2 POP POP PUSH3 0x9DF JUMP JUMPDEST PUSH1 0xFF DUP5 GT ISZERO PUSH3 0x955 JUMPI PUSH3 0x954 PUSH3 0x863 JUMP JUMPDEST JUMPDEST DUP4 PUSH1 0x2 EXP SWAP2 POP DUP5 DUP3 GT ISZERO PUSH3 0x96F JUMPI PUSH3 0x96E PUSH3 0x863 JUMP JUMPDEST JUMPDEST POP PUSH3 0x9DF JUMP JUMPDEST POP PUSH1 0x20 DUP4 LT PUSH2 0x133 DUP4 LT AND PUSH1 0x4E DUP5 LT PUSH1 0xB DUP5 LT AND OR ISZERO PUSH3 0x9B0 JUMPI DUP3 DUP3 EXP SWAP1 POP DUP4 DUP2 GT ISZERO PUSH3 0x9AA JUMPI PUSH3 0x9A9 PUSH3 0x863 JUMP JUMPDEST JUMPDEST PUSH3 0x9DF JUMP JUMPDEST PUSH3 0x9BF DUP5 DUP5 DUP5 PUSH1 0x1 PUSH3 0x89F JUMP JUMPDEST SWAP3 POP SWAP1 POP DUP2 DUP5 DIV DUP2 GT ISZERO PUSH3 0x9D9 JUMPI PUSH3 0x9D8 PUSH3 0x863 JUMP JUMPDEST JUMPDEST DUP2 DUP2 MUL SWAP1 POP JUMPDEST SWAP4 SWAP3 POP POP POP JUMP JUMPDEST PUSH1 0x0 DUP2 SWAP1 POP SWAP2 SWAP1 POP JUMP JUMPDEST PUSH1 0x0 PUSH3 0x9FD DUP3 PUSH3 0x9E6 JUMP JUMPDEST SWAP2 POP PUSH3 0xA0A DUP4 PUSH3 0x9E6 JUMP JUMPDEST SWAP3 POP PUSH3 0xA39 PUSH32 0xFFFFFFFFFFFFFFFFFFFFFFFFFFFFFFFFFFFFFFFFFFFFFFFFFFFFFFFFFFFFFFFF DUP5 DUP5 PUSH3 0x8FA JUMP JUMPDEST SWAP1 POP SWAP3 SWAP2 POP POP JUMP JUMPDEST PUSH1 0x0 PUSH3 0xA4E DUP3 PUSH3 0x9E6 JUMP JUMPDEST SWAP2 POP PUSH3 0xA5B DUP4 PUSH3 0x9E6 JUMP JUMPDEST SWAP3 POP DUP3 DUP3 MUL PUSH3 0xA6B DUP2 PUSH3 0x9E6 JUMP JUMPDEST SWAP2 POP DUP3 DUP3 DIV DUP5 EQ DUP4 ISZERO OR PUSH3 0xA85 JUMPI PUSH3 0xA84 PUSH3 0x863 JUMP JUMPDEST JUMPDEST POP SWAP3 SWAP2 POP POP JUMP JUMPDEST PUSH1 0x0 DUP1 REVERT JUMPDEST PUSH1 0x0 PUSH20 0xFFFFFFFFFFFFFFFFFFFFFFFFFFFFFFFFFFFFFFFF DUP3 AND SWAP1 POP SWAP2 SWAP1 POP JUMP JUMPDEST PUSH1 0x0 PUSH3 0xABE DUP3 PUSH3 0xA91 JUMP JUMPDEST SWAP1 POP SWAP2 SWAP1 POP JUMP JUMPDEST PUSH3 0xAD0 DUP2 PUSH3 0xAB1 JUMP JUMPDEST DUP2 EQ PUSH3 0xADC JUMPI PUSH1 0x0 DUP1 REVERT JUMPDEST POP JUMP JUMPDEST PUSH1 0x0 DUP2 MLOAD SWAP1 POP PUSH3 0xAF0 DUP2 PUSH3 0xAC5 JUMP JUMPDEST SWAP3 SWAP2 POP POP JUMP JUMPDEST PUSH1 0x0 PUSH1 0x20 DUP3 DUP5 SUB SLT ISZERO PUSH3 0xB0F JUMPI PUSH3 0xB0E PUSH3 0xA8C JUMP JUMPDEST JUMPDEST PUSH1 0x0 PUSH3 0xB1F DUP5 DUP3 DUP6 ADD PUSH3 0xADF JUMP JUMPDEST SWAP2 POP POP SWAP3 SWAP2 POP POP JUMP JUMPDEST PUSH3 0xB33 DUP2 PUSH3 0xAB1 JUMP JUMPDEST DUP3 MSTORE POP POP JUMP JUMPDEST PUSH1 0x0 PUSH1 0x40 DUP3 ADD SWAP1 POP PUSH3 0xB50 PUSH1 0x0 DUP4 ADD DUP6 PUSH3 0xB28 JUMP JUMPDEST PUSH3 0xB5F PUSH1 0x20 DUP4 ADD DUP5 PUSH3 0xB28 JUMP JUMPDEST SWAP4 SWAP3 POP POP POP JUMP JUMPDEST PUSH3 0xB71 DUP2 PUSH3 0x9E6 JUMP JUMPDEST DUP3 MSTORE POP POP JUMP JUMPDEST PUSH1 0x0 PUSH1 0x20 DUP3 ADD SWAP1 POP PUSH3 0xB8E PUSH1 0x0 DUP4 ADD DUP5 PUSH3 0xB66 JUMP JUMPDEST SWAP3 SWAP2 POP POP JUMP JUMPDEST PUSH1 0x0 DUP3 DUP3 MSTORE PUSH1 0x20 DUP3 ADD SWAP1 POP SWAP3 SWAP2 POP POP JUMP JUMPDEST PUSH32 0x45524332303A20617070726F76652066726F6D20746865207A65726F20616464 PUSH1 0x0 DUP3 ADD MSTORE PUSH32 0x7265737300000000000000000000000000000000000000000000000000000000 PUSH1 0x20 DUP3 ADD MSTORE POP JUMP JUMPDEST PUSH1 0x0 PUSH3 0xC03 PUSH1 0x24 DUP4 PUSH3 0xB94 JUMP JUMPDEST SWAP2 POP PUSH3 0xC10 DUP3 PUSH3 0xBA5 JUMP JUMPDEST PUSH1 0x40 DUP3 ADD SWAP1 POP SWAP2 SWAP1 POP JUMP JUMPDEST PUSH1 0x0 PUSH1 0x20 DUP3 ADD SWAP1 POP DUP2 DUP2 SUB PUSH1 0x0 DUP4 ADD MSTORE PUSH3 0xC36 DUP2 PUSH3 0xBF4 JUMP JUMPDEST SWAP1 POP SWAP2 SWAP1 POP JUMP JUMPDEST PUSH32 0x45524332303A20617070726F766520746F20746865207A65726F206164647265 PUSH1 0x0 DUP3 ADD MSTORE PUSH32 0x7373000000000000000000000000000000000000000000000000000000000000 PUSH1 0x20 DUP3 ADD MSTORE POP JUMP JUMPDEST PUSH1 0x0 PUSH3 0xC9B PUSH1 0x22 DUP4 PUSH3 0xB94 JUMP JUMPDEST SWAP2 POP PUSH3 0xCA8 DUP3 PUSH3 0xC3D JUMP JUMPDEST PUSH1 0x40 DUP3 ADD SWAP1 POP SWAP2 SWAP1 POP JUMP JUMPDEST PUSH1 0x0 PUSH1 0x20 DUP3 ADD SWAP1 POP DUP2 DUP2 SUB PUSH1 0x0 DUP4 ADD MSTORE PUSH3 0xCCE DUP2 PUSH3 0xC8C JUMP JUMPDEST SWAP1 POP SWAP2 SWAP1 POP JUMP JUMPDEST PUSH2 0x3AE4 DUP1 PUSH3 0xCE5 PUSH1 0x0 CODECOPY PUSH1 0x0 RETURN INVALID PUSH1 0x80 PUSH1 0x40 MSTORE PUSH1 0x4 CALLDATASIZE LT PUSH2 0x255 JUMPI PUSH1 0x0 CALLDATALOAD PUSH1 0xE0 SHR DUP1 PUSH4 0x75F0A874 GT PUSH2 0x139 JUMPI DUP1 PUSH4 0xA9059CBB GT PUSH2 0xB6 JUMPI DUP1 PUSH4 0xC410AB5E GT PUSH2 0x7A JUMPI DUP1 PUSH4 0xC410AB5E EQ PUSH2 0x870 JUMPI DUP1 PUSH4 0xDD3A1F76 EQ PUSH2 0x89B JUMPI DUP1 PUSH4 0xDD62ED3E EQ PUSH2 0x8C6 JUMPI DUP1 PUSH4 0xF2FDE38B EQ PUSH2 0x903 JUMPI DUP1 PUSH4 0xF7E53337 EQ PUSH2 0x92C JUMPI DUP1 PUSH4 0xFE575A87 EQ PUSH2 0x957 JUMPI PUSH2 0x25C JUMP JUMPDEST DUP1 PUSH4 0xA9059CBB EQ PUSH2 0x777 JUMPI DUP1 PUSH4 0xAAA00B99 EQ PUSH2 0x7B4 JUMPI DUP1 PUSH4 0xB187BD26 EQ PUSH2 0x7DF JUMPI DUP1 PUSH4 0xB62496F5 EQ PUSH2 0x80A JUMPI DUP1 PUSH4 0xBA414B10 EQ PUSH2 0x847 JUMPI PUSH2 0x25C JUMP JUMPDEST DUP1 PUSH4 0x95D89B41 GT PUSH2 0xFD JUMPI DUP1 PUSH4 0x95D89B41 EQ PUSH2 0x6A6 JUMPI DUP1 PUSH4 0x9A7A23D6 EQ PUSH2 0x6D1 JUMPI DUP1 PUSH4 0x9EC4BE41 EQ PUSH2 0x6FA JUMPI DUP1 PUSH4 0xA562564A EQ PUSH2 0x723 JUMPI DUP1 PUSH4 0xA56D37F9 EQ PUSH2 0x74E JUMPI PUSH2 0x25C JUMP JUMPDEST DUP1 PUSH4 0x75F0A874 EQ PUSH2 0x5E5 JUMPI DUP1 PUSH4 0x77C068EC EQ PUSH2 0x610 JUMPI DUP1 PUSH4 0x8456CB59 EQ PUSH2 0x63B JUMPI DUP1 PUSH4 0x8DA5CB5B EQ PUSH2 0x652 JUMPI DUP1 PUSH4 0x924DE9B7 EQ PUSH2 0x67D JUMPI PUSH2 0x25C JUMP JUMPDEST DUP1 PUSH4 0x4BAF59F3 GT PUSH2 0x1D2 JUMPI DUP1 PUSH4 0x5D098B38 GT PUSH2 0x196 JUMPI DUP1 PUSH4 0x5D098B38 EQ PUSH2 0x4EB JUMPI DUP1 PUSH4 0x6612E66F EQ PUSH2 0x514 JUMPI DUP1 PUSH4 0x6DBFF43B EQ PUSH2 0x53D JUMPI DUP1 PUSH4 0x6DDD1713 EQ PUSH2 0x566 JUMPI DUP1 PUSH4 0x70A08231 EQ PUSH2 0x591 JUMPI DUP1 PUSH4 0x715018A6 EQ PUSH2 0x5CE JUMPI PUSH2 0x25C JUMP JUMPDEST DUP1 PUSH4 0x4BAF59F3 EQ PUSH2 0x406 JUMPI DUP1 PUSH4 0x4BF28FD0 EQ PUSH2 0x42F JUMPI DUP1 PUSH4 0x5342ACB4 EQ PUSH2 0x45A JUMPI DUP1 PUSH4 0x537DF3B6 EQ PUSH2 0x497 JUMPI DUP1 PUSH4 0x549FB8BF EQ PUSH2 0x4C0 JUMPI PUSH2 0x25C JUMP JUMPDEST DUP1 PUSH4 0x20800A00 GT PUSH2 0x219 JUMPI DUP1 PUSH4 0x20800A00 EQ PUSH2 0x347 JUMPI DUP1 PUSH4 0x23B872DD EQ PUSH2 0x35E JUMPI DUP1 PUSH4 0x313CE567 EQ PUSH2 0x39B JUMPI DUP1 PUSH4 0x3F4BA83A EQ PUSH2 0x3C6 JUMPI DUP1 PUSH4 0x44337EA1 EQ PUSH2 0x3DD JUMPI PUSH2 0x25C JUMP JUMPDEST DUP1 PUSH4 0x6FDDE03 EQ PUSH2 0x25E JUMPI DUP1 PUSH4 0x95EA7B3 EQ PUSH2 0x289 JUMPI DUP1 PUSH4 0x1694505E EQ PUSH2 0x2C6 JUMPI DUP1 PUSH4 0x16C61CCC EQ PUSH2 0x2F1 JUMPI DUP1 PUSH4 0x18160DDD EQ PUSH2 0x31C JUMPI PUSH2 0x25C JUMP JUMPDEST CALLDATASIZE PUSH2 0x25C JUMPI STOP JUMPDEST STOP JUMPDEST CALLVALUE DUP1 ISZERO PUSH2 0x26A JUMPI PUSH1 0x0 DUP1 REVERT JUMPDEST POP PUSH2 0x273 PUSH2 0x994 JUMP JUMPDEST PUSH1 0x40 MLOAD PUSH2 0x280 SWAP2 SWAP1 PUSH2 0x28FF JUMP JUMPDEST PUSH1 0x40 MLOAD DUP1 SWAP2 SUB SWAP1 RETURN JUMPDEST CALLVALUE DUP1 ISZERO PUSH2 0x295 JUMPI PUSH1 0x0 DUP1 REVERT JUMPDEST POP PUSH2 0x2B0 PUSH1 0x4 DUP1 CALLDATASIZE SUB DUP2 ADD SWAP1 PUSH2 0x2AB SWAP2 SWAP1 PUSH2 0x29BF JUMP JUMPDEST PUSH2 0x9D1 JUMP JUMPDEST PUSH1 0x40 MLOAD PUSH2 0x2BD SWAP2 SWAP1 PUSH2 0x2A1A JUMP JUMPDEST PUSH1 0x40 MLOAD DUP1 SWAP2 SUB SWAP1 RETURN JUMPDEST CALLVALUE DUP1 ISZERO PUSH2 0x2D2 JUMPI PUSH1 0x0 DUP1 REVERT JUMPDEST POP PUSH2 0x2DB PUSH2 0x9E8 JUMP JUMPDEST PUSH1 0x40 MLOAD PUSH2 0x2E8 SWAP2 SWAP1 PUSH2 0x2A94 JUMP JUMPDEST PUSH1 0x40 MLOAD DUP1 SWAP2 SUB SWAP1 RETURN JUMPDEST CALLVALUE DUP1 ISZERO PUSH2 0x2FD JUMPI PUSH1 0x0 DUP1 REVERT JUMPDEST POP PUSH2 0x306 PUSH2 0xA0E JUMP JUMPDEST PUSH1 0x40 MLOAD PUSH2 0x313 SWAP2 SWAP1 PUSH2 0x2A1A JUMP JUMPDEST PUSH1 0x40 MLOAD DUP1 SWAP2 SUB SWAP1 RETURN JUMPDEST CALLVALUE DUP1 ISZERO PUSH2 0x328 JUMPI PUSH1 0x0 DUP1 REVERT JUMPDEST POP PUSH2 0x331 PUSH2 0xA21 JUMP JUMPDEST PUSH1 0x40 MLOAD PUSH2 0x33E SWAP2 SWAP1 PUSH2 0x2ABE JUMP JUMPDEST PUSH1 0x40 MLOAD DUP1 SWAP2 SUB SWAP1 RETURN JUMPDEST CALLVALUE DUP1 ISZERO PUSH2 0x353 JUMPI PUSH1 0x0 DUP1 REVERT JUMPDEST POP PUSH2 0x35C PUSH2 0xA2B JUMP JUMPDEST STOP JUMPDEST CALLVALUE DUP1 ISZERO PUSH2 0x36A JUMPI PUSH1 0x0 DUP1 REVERT JUMPDEST POP PUSH2 0x385 PUSH1 0x4 DUP1 CALLDATASIZE SUB DUP2 ADD SWAP1 PUSH2 0x380 SWAP2 SWAP1 PUSH2 0x2AD9 JUMP JUMPDEST PUSH2 0xA7C JUMP JUMPDEST PUSH1 0x40 MLOAD PUSH2 0x392 SWAP2 SWAP1 PUSH2 0x2A1A JUMP JUMPDEST PUSH1 0x40 MLOAD DUP1 SWAP2 SUB SWAP1 RETURN JUMPDEST CALLVALUE DUP1 ISZERO PUSH2 0x3A7 JUMPI PUSH1 0x0 DUP1 REVERT JUMPDEST POP PUSH2 0x3B0 PUSH2 0xAA4 JUMP JUMPDEST PUSH1 0x40 MLOAD PUSH2 0x3BD SWAP2 SWAP1 PUSH2 0x2B48 JUMP JUMPDEST PUSH1 0x40 MLOAD DUP1 SWAP2 SUB SWAP1 RETURN JUMPDEST CALLVALUE DUP1 ISZERO PUSH2 0x3D2 JUMPI PUSH1 0x0 DUP1 REVERT JUMPDEST POP PUSH2 0x3DB PUSH2 0xAAD JUMP JUMPDEST STOP JUMPDEST CALLVALUE DUP1 ISZERO PUSH2 0x3E9 JUMPI PUSH1 0x0 DUP1 REVERT JUMPDEST POP PUSH2 0x404 PUSH1 0x4 DUP1 CALLDATASIZE SUB DUP2 ADD SWAP1 PUSH2 0x3FF SWAP2 SWAP1 PUSH2 0x2B63 JUMP JUMPDEST PUSH2 0xAD2 JUMP JUMPDEST STOP JUMPDEST CALLVALUE DUP1 ISZERO PUSH2 0x412 JUMPI PUSH1 0x0 DUP1 REVERT JUMPDEST POP PUSH2 0x42D PUSH1 0x4 DUP1 CALLDATASIZE SUB DUP2 ADD SWAP1 PUSH2 0x428 SWAP2 SWAP1 PUSH2 0x2B90 JUMP JUMPDEST PUSH2 0xC37 JUMP JUMPDEST STOP JUMPDEST CALLVALUE DUP1 ISZERO PUSH2 0x43B JUMPI PUSH1 0x0 DUP1 REVERT JUMPDEST POP PUSH2 0x444 PUSH2 0xC49 JUMP JUMPDEST PUSH1 0x40 MLOAD PUSH2 0x451 SWAP2 SWAP1 PUSH2 0x2BCC JUMP JUMPDEST PUSH1 0x40 MLOAD DUP1 SWAP2 SUB SWAP1 RETURN JUMPDEST CALLVALUE DUP1 ISZERO PUSH2 0x466 JUMPI PUSH1 0x0 DUP1 REVERT JUMPDEST POP PUSH2 0x481 PUSH1 0x4 DUP1 CALLDATASIZE SUB DUP2 ADD SWAP1 PUSH2 0x47C SWAP2 SWAP1 PUSH2 0x2B63 JUMP JUMPDEST PUSH2 0xC6F JUMP JUMPDEST PUSH1 0x40 MLOAD PUSH2 0x48E SWAP2 SWAP1 PUSH2 0x2A1A JUMP JUMPDEST PUSH1 0x40 MLOAD DUP1 SWAP2 SUB SWAP1 RETURN JUMPDEST CALLVALUE DUP1 ISZERO PUSH2 0x4A3 JUMPI PUSH1 0x0 DUP1 REVERT JUMPDEST POP PUSH2 0x4BE PUSH1 0x4 DUP1 CALLDATASIZE SUB DUP2 ADD SWAP1 PUSH2 0x4B9 SWAP2 SWAP1 PUSH2 0x2B63 JUMP JUMPDEST PUSH2 0xCC5 JUMP JUMPDEST STOP JUMPDEST CALLVALUE DUP1 ISZERO PUSH2 0x4CC JUMPI PUSH1 0x0 DUP1 REVERT JUMPDEST POP PUSH2 0x4D5 PUSH2 0xE29 JUMP JUMPDEST PUSH1 0x40 MLOAD PUSH2 0x4E2 SWAP2 SWAP1 PUSH2 0x2ABE JUMP JUMPDEST PUSH1 0x40 MLOAD DUP1 SWAP2 SUB SWAP1 RETURN JUMPDEST CALLVALUE DUP1 ISZERO PUSH2 0x4F7 JUMPI PUSH1 0x0 DUP1 REVERT JUMPDEST POP PUSH2 0x512 PUSH1 0x4 DUP1 CALLDATASIZE SUB DUP2 ADD SWAP1 PUSH2 0x50D SWAP2 SWAP1 PUSH2 0x2B63 JUMP JUMPDEST PUSH2 0xE2F JUMP JUMPDEST STOP JUMPDEST CALLVALUE DUP1 ISZERO PUSH2 0x520 JUMPI PUSH1 0x0 DUP1 REVERT JUMPDEST POP PUSH2 0x53B PUSH1 0x4 DUP1 CALLDATASIZE SUB DUP2 ADD SWAP1 PUSH2 0x536 SWAP2 SWAP1 PUSH2 0x2C13 JUMP JUMPDEST PUSH2 0xE7B JUMP JUMPDEST STOP JUMPDEST CALLVALUE DUP1 ISZERO PUSH2 0x549 JUMPI PUSH1 0x0 DUP1 REVERT JUMPDEST POP PUSH2 0x564 PUSH1 0x4 DUP1 CALLDATASIZE SUB DUP2 ADD SWAP1 PUSH2 0x55F SWAP2 SWAP1 PUSH2 0x2B90 JUMP JUMPDEST PUSH2 0xEDE JUMP JUMPDEST STOP JUMPDEST CALLVALUE DUP1 ISZERO PUSH2 0x572 JUMPI PUSH1 0x0 DUP1 REVERT JUMPDEST POP PUSH2 0x57B PUSH2 0xFBE JUMP JUMPDEST PUSH1 0x40 MLOAD PUSH2 0x588 SWAP2 SWAP1 PUSH2 0x2A1A JUMP JUMPDEST PUSH1 0x40 MLOAD DUP1 SWAP2 SUB SWAP1 RETURN JUMPDEST CALLVALUE DUP1 ISZERO PUSH2 0x59D JUMPI PUSH1 0x0 DUP1 REVERT JUMPDEST POP PUSH2 0x5B8 PUSH1 0x4 DUP1 CALLDATASIZE SUB DUP2 ADD SWAP1 PUSH2 0x5B3 SWAP2 SWAP1 PUSH2 0x2B63 JUMP JUMPDEST PUSH2 0xFD1 JUMP JUMPDEST PUSH1 0x40 MLOAD PUSH2 0x5C5 SWAP2 SWAP1 PUSH2 0x2ABE JUMP JUMPDEST PUSH1 0x40 MLOAD DUP1 SWAP2 SUB SWAP1 RETURN JUMPDEST CALLVALUE DUP1 ISZERO PUSH2 0x5DA JUMPI PUSH1 0x0 DUP1 REVERT JUMPDEST POP PUSH2 0x5E3 PUSH2 0x101A JUMP JUMPDEST STOP JUMPDEST CALLVALUE DUP1 ISZERO PUSH2 0x5F1 JUMPI PUSH1 0x0 DUP1 REVERT JUMPDEST POP PUSH2 0x5FA PUSH2 0x102E JUMP JUMPDEST PUSH1 0x40 MLOAD PUSH2 0x607 SWAP2 SWAP1 PUSH2 0x2BCC JUMP JUMPDEST PUSH1 0x40 MLOAD DUP1 SWAP2 SUB SWAP1 RETURN JUMPDEST CALLVALUE DUP1 ISZERO PUSH2 0x61C JUMPI PUSH1 0x0 DUP1 REVERT JUMPDEST POP PUSH2 0x625 PUSH2 0x1054 JUMP JUMPDEST PUSH1 0x40 MLOAD PUSH2 0x632 SWAP2 SWAP1 PUSH2 0x2ABE JUMP JUMPDEST PUSH1 0x40 MLOAD DUP1 SWAP2 SUB SWAP1 RETURN JUMPDEST CALLVALUE DUP1 ISZERO PUSH2 0x647 JUMPI PUSH1 0x0 DUP1 REVERT JUMPDEST POP PUSH2 0x650 PUSH2 0x105A JUMP JUMPDEST STOP JUMPDEST CALLVALUE DUP1 ISZERO PUSH2 0x65E JUMPI PUSH1 0x0 DUP1 REVERT JUMPDEST POP PUSH2 0x667 PUSH2 0x107F JUMP JUMPDEST PUSH1 0x40 MLOAD PUSH2 0x674 SWAP2 SWAP1 PUSH2 0x2BCC JUMP JUMPDEST PUSH1 0x40 MLOAD DUP1 SWAP2 SUB SWAP1 RETURN JUMPDEST CALLVALUE DUP1 ISZERO PUSH2 0x689 JUMPI PUSH1 0x0 DUP1 REVERT JUMPDEST POP PUSH2 0x6A4 PUSH1 0x4 DUP1 CALLDATASIZE SUB DUP2 ADD SWAP1 PUSH2 0x69F SWAP2 SWAP1 PUSH2 0x2C53 JUMP JUMPDEST PUSH2 0x10A8 JUMP JUMPDEST STOP JUMPDEST CALLVALUE DUP1 ISZERO PUSH2 0x6B2 JUMPI PUSH1 0x0 DUP1 REVERT JUMPDEST POP PUSH2 0x6BB PUSH2 0x10CD JUMP JUMPDEST PUSH1 0x40 MLOAD PUSH2 0x6C8 SWAP2 SWAP1 PUSH2 0x28FF JUMP JUMPDEST PUSH1 0x40 MLOAD DUP1 SWAP2 SUB SWAP1 RETURN JUMPDEST CALLVALUE DUP1 ISZERO PUSH2 0x6DD JUMPI PUSH1 0x0 DUP1 REVERT JUMPDEST POP PUSH2 0x6F8 PUSH1 0x4 DUP1 CALLDATASIZE SUB DUP2 ADD SWAP1 PUSH2 0x6F3 SWAP2 SWAP1 PUSH2 0x2C13 JUMP JUMPDEST PUSH2 0x110A JUMP JUMPDEST STOP JUMPDEST CALLVALUE DUP1 ISZERO PUSH2 0x706 JUMPI PUSH1 0x0 DUP1 REVERT JUMPDEST POP PUSH2 0x721 PUSH1 0x4 DUP1 CALLDATASIZE SUB DUP2 ADD SWAP1 PUSH2 0x71C SWAP2 SWAP1 PUSH2 0x2B90 JUMP JUMPDEST PUSH2 0x11B0 JUMP JUMPDEST STOP JUMPDEST CALLVALUE DUP1 ISZERO PUSH2 0x72F JUMPI PUSH1 0x0 DUP1 REVERT JUMPDEST POP PUSH2 0x738 PUSH2 0x1290 JUMP JUMPDEST PUSH1 0x40 MLOAD PUSH2 0x745 SWAP2 SWAP1 PUSH2 0x2ABE JUMP JUMPDEST PUSH1 0x40 MLOAD DUP1 SWAP2 SUB SWAP1 RETURN JUMPDEST CALLVALUE DUP1 ISZERO PUSH2 0x75A JUMPI PUSH1 0x0 DUP1 REVERT JUMPDEST POP PUSH2 0x775 PUSH1 0x4 DUP1 CALLDATASIZE SUB DUP2 ADD SWAP1 PUSH2 0x770 SWAP2 SWAP1 PUSH2 0x2B90 JUMP JUMPDEST PUSH2 0x1296 JUMP JUMPDEST STOP JUMPDEST CALLVALUE DUP1 ISZERO PUSH2 0x783 JUMPI PUSH1 0x0 DUP1 REVERT JUMPDEST POP PUSH2 0x79E PUSH1 0x4 DUP1 CALLDATASIZE SUB DUP2 ADD SWAP1 PUSH2 0x799 SWAP2 SWAP1 PUSH2 0x29BF JUMP JUMPDEST PUSH2 0x1376 JUMP JUMPDEST PUSH1 0x40 MLOAD PUSH2 0x7AB SWAP2 SWAP1 PUSH2 0x2A1A JUMP JUMPDEST PUSH1 0x40 MLOAD DUP1 SWAP2 SUB SWAP1 RETURN JUMPDEST CALLVALUE DUP1 ISZERO PUSH2 0x7C0 JUMPI PUSH1 0x0 DUP1 REVERT JUMPDEST POP PUSH2 0x7C9 PUSH2 0x1392 JUMP JUMPDEST PUSH1 0x40 MLOAD PUSH2 0x7D6 SWAP2 SWAP1 PUSH2 0x2ABE JUMP JUMPDEST PUSH1 0x40 MLOAD DUP1 SWAP2 SUB SWAP1 RETURN JUMPDEST CALLVALUE DUP1 ISZERO PUSH2 0x7EB JUMPI PUSH1 0x0 DUP1 REVERT JUMPDEST POP PUSH2 0x7F4 PUSH2 0x1398 JUMP JUMPDEST PUSH1 0x40 MLOAD PUSH2 0x801 SWAP2 SWAP1 PUSH2 0x2A1A JUMP JUMPDEST PUSH1 0x40 MLOAD DUP1 SWAP2 SUB SWAP1 RETURN JUMPDEST CALLVALUE DUP1 ISZERO PUSH2 0x816 JUMPI PUSH1 0x0 DUP1 REVERT JUMPDEST POP PUSH2 0x831 PUSH1 0x4 DUP1 CALLDATASIZE SUB DUP2 ADD SWAP1 PUSH2 0x82C SWAP2 SWAP1 PUSH2 0x2B63 JUMP JUMPDEST PUSH2 0x13AF JUMP JUMPDEST PUSH1 0x40 MLOAD PUSH2 0x83E SWAP2 SWAP1 PUSH2 0x2A1A JUMP JUMPDEST PUSH1 0x40 MLOAD DUP1 SWAP2 SUB SWAP1 RETURN JUMPDEST CALLVALUE DUP1 ISZERO PUSH2 0x853 JUMPI PUSH1 0x0 DUP1 REVERT JUMPDEST POP PUSH2 0x86E PUSH1 0x4 DUP1 CALLDATASIZE SUB DUP2 ADD SWAP1 PUSH2 0x869 SWAP2 SWAP1 PUSH2 0x2CE5 JUMP JUMPDEST PUSH2 0x13CF JUMP JUMPDEST STOP JUMPDEST CALLVALUE DUP1 ISZERO PUSH2 0x87C JUMPI PUSH1 0x0 DUP1 REVERT JUMPDEST POP PUSH2 0x885 PUSH2 0x14AC JUMP JUMPDEST PUSH1 0x40 MLOAD PUSH2 0x892 SWAP2 SWAP1 PUSH2 0x2ABE JUMP JUMPDEST PUSH1 0x40 MLOAD DUP1 SWAP2 SUB SWAP1 RETURN JUMPDEST CALLVALUE DUP1 ISZERO PUSH2 0x8A7 JUMPI PUSH1 0x0 DUP1 REVERT JUMPDEST POP PUSH2 0x8B0 PUSH2 0x14B2 JUMP JUMPDEST PUSH1 0x40 MLOAD PUSH2 0x8BD SWAP2 SWAP1 PUSH2 0x2ABE JUMP JUMPDEST PUSH1 0x40 MLOAD DUP1 SWAP2 SUB SWAP1 RETURN JUMPDEST CALLVALUE DUP1 ISZERO PUSH2 0x8D2 JUMPI PUSH1 0x0 DUP1 REVERT JUMPDEST POP PUSH2 0x8ED PUSH1 0x4 DUP1 CALLDATASIZE SUB DUP2 ADD SWAP1 PUSH2 0x8E8 SWAP2 SWAP1 PUSH2 0x2D45 JUMP JUMPDEST PUSH2 0x14B8 JUMP JUMPDEST PUSH1 0x40 MLOAD PUSH2 0x8FA SWAP2 SWAP1 PUSH2 0x2ABE JUMP JUMPDEST PUSH1 0x40 MLOAD DUP1 SWAP2 SUB SWAP1 RETURN JUMPDEST CALLVALUE DUP1 ISZERO PUSH2 0x90F JUMPI PUSH1 0x0 DUP1 REVERT JUMPDEST POP PUSH2 0x92A PUSH1 0x4 DUP1 CALLDATASIZE SUB DUP2 ADD SWAP1 PUSH2 0x925 SWAP2 SWAP1 PUSH2 0x2B63 JUMP JUMPDEST PUSH2 0x153F JUMP JUMPDEST STOP JUMPDEST CALLVALUE DUP1 ISZERO PUSH2 0x938 JUMPI PUSH1 0x0 DUP1 REVERT JUMPDEST POP PUSH2 0x941 PUSH2 0x15C2 JUMP JUMPDEST PUSH1 0x40 MLOAD PUSH2 0x94E SWAP2 SWAP1 PUSH2 0x2ABE JUMP JUMPDEST PUSH1 0x40 MLOAD DUP1 SWAP2 SUB SWAP1 RETURN JUMPDEST CALLVALUE DUP1 ISZERO PUSH2 0x963 JUMPI PUSH1 0x0 DUP1 REVERT JUMPDEST POP PUSH2 0x97E PUSH1 0x4 DUP1 CALLDATASIZE SUB DUP2 ADD SWAP1 PUSH2 0x979 SWAP2 SWAP1 PUSH2 0x2B63 JUMP JUMPDEST PUSH2 0x15C8 JUMP JUMPDEST PUSH1 0x40 MLOAD PUSH2 0x98B SWAP2 SWAP1 PUSH2 0x2A1A JUMP JUMPDEST PUSH1 0x40 MLOAD DUP1 SWAP2 SUB SWAP1 RETURN JUMPDEST PUSH1 0x60 PUSH1 0x40 MLOAD DUP1 PUSH1 0x40 ADD PUSH1 0x40 MSTORE DUP1 PUSH1 0x3 DUP2 MSTORE PUSH1 0x20 ADD PUSH32 0x464F500000000000000000000000000000000000000000000000000000000000 DUP2 MSTORE POP SWAP1 POP SWAP1 JUMP JUMPDEST PUSH1 0x0 PUSH2 0x9DE CALLER DUP5 DUP5 PUSH2 0x161E JUMP JUMPDEST PUSH1 0x1 SWAP1 POP SWAP3 SWAP2 POP POP JUMP JUMPDEST PUSH1 0xF PUSH1 0x0 SWAP1 SLOAD SWAP1 PUSH2 0x100 EXP SWAP1 DIV PUSH20 0xFFFFFFFFFFFFFFFFFFFFFFFFFFFFFFFFFFFFFFFF AND DUP2 JUMP JUMPDEST PUSH1 0x10 PUSH1 0x14 SWAP1 SLOAD SWAP1 PUSH2 0x100 EXP SWAP1 DIV PUSH1 0xFF AND DUP2 JUMP JUMPDEST PUSH1 0x0 PUSH1 0x1 SLOAD SWAP1 POP SWAP1 JUMP JUMPDEST PUSH2 0xA33 PUSH2 0x17E7 JUMP JUMPDEST CALLER PUSH20 0xFFFFFFFFFFFFFFFFFFFFFFFFFFFFFFFFFFFFFFFF AND PUSH2 0x8FC SELFBALANCE SWAP1 DUP2 ISZERO MUL SWAP1 PUSH1 0x40 MLOAD PUSH1 0x0 PUSH1 0x40 MLOAD DUP1 DUP4 SUB DUP2 DUP6 DUP9 DUP9 CALL SWAP4 POP POP POP POP ISZERO DUP1 ISZERO PUSH2 0xA79 JUMPI RETURNDATASIZE PUSH1 0x0 DUP1 RETURNDATACOPY RETURNDATASIZE PUSH1 0x0 REVERT JUMPDEST POP JUMP JUMPDEST PUSH1 0x0 DUP1 CALLER SWAP1 POP PUSH2 0xA8D DUP6 DUP3 DUP6 PUSH2 0x1865 JUMP JUMPDEST PUSH2 0xA98 DUP6 DUP6 DUP6 PUSH2 0x18F1 JUMP JUMPDEST PUSH1 0x1 SWAP2 POP POP SWAP4 SWAP3 POP POP POP JUMP JUMPDEST PUSH1 0x0 PUSH1 0x12 SWAP1 POP SWAP1 JUMP JUMPDEST PUSH2 0xAB5 PUSH2 0x17E7 JUMP JUMPDEST PUSH1 0x0 PUSH1 0x10 PUSH1 0x14 PUSH2 0x100 EXP DUP2 SLOAD DUP2 PUSH1 0xFF MUL NOT AND SWAP1 DUP4 ISZERO ISZERO MUL OR SWAP1 SSTORE POP JUMP JUMPDEST PUSH2 0xADA PUSH2 0x17E7 JUMP JUMPDEST PUSH1 0x4 PUSH1 0x0 DUP3 PUSH20 0xFFFFFFFFFFFFFFFFFFFFFFFFFFFFFFFFFFFFFFFF AND PUSH20 0xFFFFFFFFFFFFFFFFFFFFFFFFFFFFFFFFFFFFFFFF AND DUP2 MSTORE PUSH1 0x20 ADD SWAP1 DUP2 MSTORE PUSH1 0x20 ADD PUSH1 0x0 KECCAK256 PUSH1 0x0 SWAP1 SLOAD SWAP1 PUSH2 0x100 EXP SWAP1 DIV PUSH1 0xFF AND ISZERO PUSH2 0xB67 JUMPI PUSH1 0x40 MLOAD PUSH32 0x8C379A000000000000000000000000000000000000000000000000000000000 DUP2 MSTORE PUSH1 0x4 ADD PUSH2 0xB5E SWAP1 PUSH2 0x2DD1 JUMP JUMPDEST PUSH1 0x40 MLOAD DUP1 SWAP2 SUB SWAP1 REVERT JUMPDEST DUP1 PUSH20 0xFFFFFFFFFFFFFFFFFFFFFFFFFFFFFFFFFFFFFFFF AND PUSH2 0xB86 PUSH2 0x20F6 JUMP JUMPDEST PUSH20 0xFFFFFFFFFFFFFFFFFFFFFFFFFFFFFFFFFFFFFFFF AND SUB PUSH2 0xBDC JUMPI PUSH1 0x40 MLOAD PUSH32 0x8C379A000000000000000000000000000000000000000000000000000000000 DUP2 MSTORE PUSH1 0x4 ADD PUSH2 0xBD3 SWAP1 PUSH2 0x2E3D JUMP JUMPDEST PUSH1 0x40 MLOAD DUP1 SWAP2 SUB SWAP1 REVERT JUMPDEST PUSH1 0x1 PUSH1 0x4 PUSH1 0x0 DUP4 PUSH20 0xFFFFFFFFFFFFFFFFFFFFFFFFFFFFFFFFFFFFFFFF AND PUSH20 0xFFFFFFFFFFFFFFFFFFFFFFFFFFFFFFFFFFFFFFFF AND DUP2 MSTORE PUSH1 0x20 ADD SWAP1 DUP2 MSTORE PUSH1 0x20 ADD PUSH1 0x0 KECCAK256 PUSH1 0x0 PUSH2 0x100 EXP DUP2 SLOAD DUP2 PUSH1 0xFF MUL NOT AND SWAP1 DUP4 ISZERO ISZERO MUL OR SWAP1 SSTORE POP POP JUMP JUMPDEST PUSH2 0xC3F PUSH2 0x17E7 JUMP JUMPDEST DUP1 PUSH1 0xB DUP2 SWAP1 SSTORE POP POP JUMP JUMPDEST PUSH1 0x10 PUSH1 0x0 SWAP1 SLOAD SWAP1 PUSH2 0x100 EXP SWAP1 DIV PUSH20 0xFFFFFFFFFFFFFFFFFFFFFFFFFFFFFFFFFFFFFFFF AND DUP2 JUMP JUMPDEST PUSH1 0x0 PUSH1 0x5 PUSH1 0x0 DUP4 PUSH20 0xFFFFFFFFFFFFFFFFFFFFFFFFFFFFFFFFFFFFFFFF AND PUSH20 0xFFFFFFFFFFFFFFFFFFFFFFFFFFFFFFFFFFFFFFFF AND DUP2 MSTORE PUSH1 0x20 ADD SWAP1 DUP2 MSTORE PUSH1 0x20 ADD PUSH1 0x0 KECCAK256 PUSH1 0x0 SWAP1 SLOAD SWAP1 PUSH2 0x100 EXP SWAP1 DIV PUSH1 0xFF AND SWAP1 POP SWAP2 SWAP1 POP JUMP JUMPDEST PUSH2 0xCCD PUSH2 0x17E7 JUMP JUMPDEST PUSH1 0x4 PUSH1 0x0 DUP3 PUSH20 0xFFFFFFFFFFFFFFFFFFFFFFFFFFFFFFFFFFFFFFFF AND PUSH20 0xFFFFFFFFFFFFFFFFFFFFFFFFFFFFFFFFFFFFFFFF AND DUP2 MSTORE PUSH1 0x20 ADD SWAP1 DUP2 MSTORE PUSH1 0x20 ADD PUSH1 0x0 KECCAK256 PUSH1 0x0 SWAP1 SLOAD SWAP1 PUSH2 0x100 EXP SWAP1 DIV PUSH1 0xFF AND PUSH2 0xD59 JUMPI PUSH1 0x40 MLOAD PUSH32 0x8C379A000000000000000000000000000000000000000000000000000000000 DUP2 MSTORE PUSH1 0x4 ADD PUSH2 0xD50 SWAP1 PUSH2 0x2EA9 JUMP JUMPDEST PUSH1 0x40 MLOAD DUP1 SWAP2 SUB SWAP1 REVERT JUMPDEST DUP1 PUSH20 0xFFFFFFFFFFFFFFFFFFFFFFFFFFFFFFFFFFFFFFFF AND PUSH2 0xD78 PUSH2 0x20F6 JUMP JUMPDEST PUSH20 0xFFFFFFFFFFFFFFFFFFFFFFFFFFFFFFFFFFFFFFFF AND SUB PUSH2 0xDCE JUMPI PUSH1 0x40 MLOAD PUSH32 0x8C379A000000000000000000000000000000000000000000000000000000000 DUP2 MSTORE PUSH1 0x4 ADD PUSH2 0xDC5 SWAP1 PUSH2 0x2F3B JUMP JUMPDEST PUSH1 0x40 MLOAD DUP1 SWAP2 SUB SWAP1 REVERT JUMPDEST PUSH1 0x0 PUSH1 0x4 PUSH1 0x0 DUP4 PUSH20 0xFFFFFFFFFFFFFFFFFFFFFFFFFFFFFFFFFFFFFFFF AND PUSH20 0xFFFFFFFFFFFFFFFFFFFFFFFFFFFFFFFFFFFFFFFF AND DUP2 MSTORE PUSH1 0x20 ADD SWAP1 DUP2 MSTORE PUSH1 0x20 ADD PUSH1 0x0 KECCAK256 PUSH1 0x0 PUSH2 0x100 EXP DUP2 SLOAD DUP2 PUSH1 0xFF MUL NOT AND SWAP1 DUP4 ISZERO ISZERO MUL OR SWAP1 SSTORE POP POP JUMP JUMPDEST PUSH1 0xA SLOAD DUP2 JUMP JUMPDEST PUSH2 0xE37 PUSH2 0x17E7 JUMP JUMPDEST DUP1 PUSH1 0x7 PUSH1 0x0 PUSH2 0x100 EXP DUP2 SLOAD DUP2 PUSH20 0xFFFFFFFFFFFFFFFFFFFFFFFFFFFFFFFFFFFFFFFF MUL NOT AND SWAP1 DUP4 PUSH20 0xFFFFFFFFFFFFFFFFFFFFFFFFFFFFFFFFFFFFFFFF AND MUL OR SWAP1 SSTORE POP POP JUMP JUMPDEST PUSH2 0xE83 PUSH2 0x17E7 JUMP JUMPDEST DUP1 PUSH1 0x5 PUSH1 0x0 DUP5 PUSH20 0xFFFFFFFFFFFFFFFFFFFFFFFFFFFFFFFFFFFFFFFF AND PUSH20 0xFFFFFFFFFFFFFFFFFFFFFFFFFFFFFFFFFFFFFFFF AND DUP2 MSTORE PUSH1 0x20 ADD SWAP1 DUP2 MSTORE PUSH1 0x20 ADD PUSH1 0x0 KECCAK256 PUSH1 0x0 PUSH2 0x100 EXP DUP2 SLOAD DUP2 PUSH1 0xFF MUL NOT AND SWAP1 DUP4 ISZERO ISZERO MUL OR SWAP1 SSTORE POP POP POP JUMP JUMPDEST PUSH2 0xEE6 PUSH2 0x17E7 JUMP JUMPDEST PUSH3 0x186A0 DUP2 GT ISZERO PUSH2 0xF2C JUMPI PUSH1 0x40 MLOAD PUSH32 0x8C379A000000000000000000000000000000000000000000000000000000000 DUP2 MSTORE PUSH1 0x4 ADD PUSH2 0xF23 SWAP1 PUSH2 0x2FA7 JUMP JUMPDEST PUSH1 0x40 MLOAD DUP1 SWAP2 SUB SWAP1 REVERT JUMPDEST DUP1 PUSH1 0xA DUP2 SWAP1 SSTORE POP PUSH1 0x0 PUSH1 0xA SLOAD PUSH1 0x9 SLOAD PUSH1 0x8 SLOAD PUSH2 0xF48 SWAP2 SWAP1 PUSH2 0x2FF6 JUMP JUMPDEST PUSH2 0xF52 SWAP2 SWAP1 PUSH2 0x2FF6 JUMP JUMPDEST SWAP1 POP DUP1 PUSH3 0x186A0 PUSH1 0x8 SLOAD PUSH2 0xF66 SWAP2 SWAP1 PUSH2 0x302A JUMP JUMPDEST PUSH2 0xF70 SWAP2 SWAP1 PUSH2 0x309B JUMP JUMPDEST PUSH1 0xC DUP2 SWAP1 SSTORE POP DUP1 PUSH3 0x186A0 PUSH1 0x9 SLOAD PUSH2 0xF88 SWAP2 SWAP1 PUSH2 0x302A JUMP JUMPDEST PUSH2 0xF92 SWAP2 SWAP1 PUSH2 0x309B JUMP JUMPDEST PUSH1 0xD DUP2 SWAP1 SSTORE POP DUP1 PUSH3 0x186A0 PUSH1 0xA SLOAD PUSH2 0xFAA SWAP2 SWAP1 PUSH2 0x302A JUMP JUMPDEST PUSH2 0xFB4 SWAP2 SWAP1 PUSH2 0x309B JUMP JUMPDEST PUSH1 0xE DUP2 SWAP1 SSTORE POP POP POP JUMP JUMPDEST PUSH1 0x10 PUSH1 0x16 SWAP1 SLOAD SWAP1 PUSH2 0x100 EXP SWAP1 DIV PUSH1 0xFF AND DUP2 JUMP JUMPDEST PUSH1 0x0 PUSH1 0x2 PUSH1 0x0 DUP4 PUSH20 0xFFFFFFFFFFFFFFFFFFFFFFFFFFFFFFFFFFFFFFFF AND PUSH20 0xFFFFFFFFFFFFFFFFFFFFFFFFFFFFFFFFFFFFFFFF AND DUP2 MSTORE PUSH1 0x20 ADD SWAP1 DUP2 MSTORE PUSH1 0x20 ADD PUSH1 0x0 KECCAK256 SLOAD SWAP1 POP SWAP2 SWAP1 POP JUMP JUMPDEST PUSH2 0x1022 PUSH2 0x17E7 JUMP JUMPDEST PUSH2 0x102C PUSH1 0x0 PUSH2 0x20FE JUMP JUMPDEST JUMP JUMPDEST PUSH1 0x7 PUSH1 0x0 SWAP1 SLOAD SWAP1 PUSH2 0x100 EXP SWAP1 DIV PUSH20 0xFFFFFFFFFFFFFFFFFFFFFFFFFFFFFFFFFFFFFFFF AND DUP2 JUMP JUMPDEST PUSH1 0xB SLOAD DUP2 JUMP JUMPDEST PUSH2 0x1062 PUSH2 0x17E7 JUMP JUMPDEST PUSH1 0x1 PUSH1 0x10 PUSH1 0x14 PUSH2 0x100 EXP DUP2 SLOAD DUP2 PUSH1 0xFF MUL NOT AND SWAP1 DUP4 ISZERO ISZERO MUL OR SWAP1 SSTORE POP JUMP JUMPDEST PUSH1 0x0 DUP1 PUSH1 0x0 SWAP1 SLOAD SWAP1 PUSH2 0x100 EXP SWAP1 DIV PUSH20 0xFFFFFFFFFFFFFFFFFFFFFFFFFFFFFFFFFFFFFFFF AND SWAP1 POP SWAP1 JUMP JUMPDEST PUSH2 0x10B0 PUSH2 0x17E7 JUMP JUMPDEST DUP1 PUSH1 0x10 PUSH1 0x16 PUSH2 0x100 EXP DUP2 SLOAD DUP2 PUSH1 0xFF MUL NOT AND SWAP1 DUP4 ISZERO ISZERO MUL OR SWAP1 SSTORE POP POP JUMP JUMPDEST PUSH1 0x60 PUSH1 0x40 MLOAD DUP1 PUSH1 0x40 ADD PUSH1 0x40 MSTORE DUP1 PUSH1 0x3 DUP2 MSTORE PUSH1 0x20 ADD PUSH32 0x464F500000000000000000000000000000000000000000000000000000000000 DUP2 MSTORE POP SWAP1 POP SWAP1 JUMP JUMPDEST PUSH2 0x1112 PUSH2 0x17E7 JUMP JUMPDEST PUSH1 0x10 PUSH1 0x0 SWAP1 SLOAD SWAP1 PUSH2 0x100 EXP SWAP1 DIV PUSH20 0xFFFFFFFFFFFFFFFFFFFFFFFFFFFFFFFFFFFFFFFF AND PUSH20 0xFFFFFFFFFFFFFFFFFFFFFFFFFFFFFFFFFFFFFFFF AND DUP3 PUSH20 0xFFFFFFFFFFFFFFFFFFFFFFFFFFFFFFFFFFFFFFFF AND SUB PUSH2 0x11A2 JUMPI PUSH1 0x40 MLOAD PUSH32 0x8C379A000000000000000000000000000000000000000000000000000000000 DUP2 MSTORE PUSH1 0x4 ADD PUSH2 0x1199 SWAP1 PUSH2 0x313E JUMP JUMPDEST PUSH1 0x40 MLOAD DUP1 SWAP2 SUB SWAP1 REVERT JUMPDEST PUSH2 0x11AC DUP3 DUP3 PUSH2 0x21C2 JUMP JUMPDEST POP POP JUMP JUMPDEST PUSH2 0x11B8 PUSH2 0x17E7 JUMP JUMPDEST PUSH3 0x186A0 DUP2 GT ISZERO PUSH2 0x11FE JUMPI PUSH1 0x40 MLOAD PUSH32 0x8C379A000000000000000000000000000000000000000000000000000000000 DUP2 MSTORE PUSH1 0x4 ADD PUSH2 0x11F5 SWAP1 PUSH2 0x2FA7 JUMP JUMPDEST PUSH1 0x40 MLOAD DUP1 SWAP2 SUB SWAP1 REVERT JUMPDEST DUP1 PUSH1 0x9 DUP2 SWAP1 SSTORE POP PUSH1 0x0 PUSH1 0xA SLOAD PUSH1 0x9 SLOAD PUSH1 0x8 SLOAD PUSH2 0x121A SWAP2 SWAP1 PUSH2 0x2FF6 JUMP JUMPDEST PUSH2 0x1224 SWAP2 SWAP1 PUSH2 0x2FF6 JUMP JUMPDEST SWAP1 POP DUP1 PUSH3 0x186A0 PUSH1 0x8 SLOAD PUSH2 0x1238 SWAP2 SWAP1 PUSH2 0x302A JUMP JUMPDEST PUSH2 0x1242 SWAP2 SWAP1 PUSH2 0x309B JUMP JUMPDEST PUSH1 0xC DUP2 SWAP1 SSTORE POP DUP1 PUSH3 0x186A0 PUSH1 0x9 SLOAD PUSH2 0x125A SWAP2 SWAP1 PUSH2 0x302A JUMP JUMPDEST PUSH2 0x1264 SWAP2 SWAP1 PUSH2 0x309B JUMP JUMPDEST PUSH1 0xD DUP2 SWAP1 SSTORE POP DUP1 PUSH3 0x186A0 PUSH1 0xA SLOAD PUSH2 0x127C SWAP2 SWAP1 PUSH2 0x302A JUMP JUMPDEST PUSH2 0x1286 SWAP2 SWAP1 PUSH2 0x309B JUMP JUMPDEST PUSH1 0xE DUP2 SWAP1 SSTORE POP POP POP JUMP JUMPDEST PUSH1 0x9 SLOAD DUP2 JUMP JUMPDEST PUSH2 0x129E PUSH2 0x17E7 JUMP JUMPDEST PUSH3 0x186A0 DUP2 GT ISZERO PUSH2 0x12E4 JUMPI PUSH1 0x40 MLOAD PUSH32 0x8C379A000000000000000000000000000000000000000000000000000000000 DUP2 MSTORE PUSH1 0x4 ADD PUSH2 0x12DB SWAP1 PUSH2 0x2FA7 JUMP JUMPDEST PUSH1 0x40 MLOAD DUP1 SWAP2 SUB SWAP1 REVERT JUMPDEST DUP1 PUSH1 0x8 DUP2 SWAP1 SSTORE POP PUSH1 0x0 PUSH1 0xA SLOAD PUSH1 0x9 SLOAD PUSH1 0x8 SLOAD PUSH2 0x1300 SWAP2 SWAP1 PUSH2 0x2FF6 JUMP JUMPDEST PUSH2 0x130A SWAP2 SWAP1 PUSH2 0x2FF6 JUMP JUMPDEST SWAP1 POP DUP1 PUSH3 0x186A0 PUSH1 0x8 SLOAD PUSH2 0x131E SWAP2 SWAP1 PUSH2 0x302A JUMP JUMPDEST PUSH2 0x1328 SWAP2 SWAP1 PUSH2 0x309B JUMP JUMPDEST PUSH1 0xC DUP2 SWAP1 SSTORE POP DUP1 PUSH3 0x186A0 PUSH1 0x9 SLOAD PUSH2 0x1340 SWAP2 SWAP1 PUSH2 0x302A JUMP JUMPDEST PUSH2 0x134A SWAP2 SWAP1 PUSH2 0x309B JUMP JUMPDEST PUSH1 0xD DUP2 SWAP1 SSTORE POP DUP1 PUSH3 0x186A0 PUSH1 0xA SLOAD PUSH2 0x1362 SWAP2 SWAP1 PUSH2 0x302A JUMP JUMPDEST PUSH2 0x136C SWAP2 SWAP1 PUSH2 0x309B JUMP JUMPDEST PUSH1 0xE DUP2 SWAP1 SSTORE POP POP POP JUMP JUMPDEST PUSH1 0x0 DUP1 CALLER SWAP1 POP PUSH2 0x1387 DUP2 DUP6 DUP6 PUSH2 0x18F1 JUMP JUMPDEST PUSH1 0x1 SWAP2 POP POP SWAP3 SWAP2 POP POP JUMP JUMPDEST PUSH1 0xD SLOAD DUP2 JUMP JUMPDEST PUSH1 0x0 PUSH1 0x10 PUSH1 0x14 SWAP1 SLOAD SWAP1 PUSH2 0x100 EXP SWAP1 DIV PUSH1 0xFF AND SWAP1 POP SWAP1 JUMP JUMPDEST PUSH1 0x6 PUSH1 0x20 MSTORE DUP1 PUSH1 0x0 MSTORE PUSH1 0x40 PUSH1 0x0 KECCAK256 PUSH1 0x0 SWAP2 POP SLOAD SWAP1 PUSH2 0x100 EXP SWAP1 DIV PUSH1 0xFF AND DUP2 JUMP JUMPDEST PUSH2 0x13D7 PUSH2 0x17E7 JUMP JUMPDEST PUSH1 0x0 PUSH2 0x13E1 PUSH2 0x107F JUMP JUMPDEST SWAP1 POP PUSH1 0x0 JUMPDEST DUP5 DUP5 SWAP1 POP DUP2 LT ISZERO PUSH2 0x14A5 JUMPI PUSH1 0x0 DUP6 DUP6 DUP4 DUP2 DUP2 LT PUSH2 0x1406 JUMPI PUSH2 0x1405 PUSH2 0x315E JUMP JUMPDEST JUMPDEST SWAP1 POP PUSH1 0x20 MUL ADD PUSH1 0x20 DUP2 ADD SWAP1 PUSH2 0x141B SWAP2 SWAP1 PUSH2 0x2B63 JUMP JUMPDEST SWAP1 POP PUSH1 0x0 PUSH20 0xFFFFFFFFFFFFFFFFFFFFFFFFFFFFFFFFFFFFFFFF AND DUP2 PUSH20 0xFFFFFFFFFFFFFFFFFFFFFFFFFFFFFFFFFFFFFFFF AND SUB PUSH2 0x148C JUMPI PUSH1 0x40 MLOAD PUSH32 0x8C379A000000000000000000000000000000000000000000000000000000000 DUP2 MSTORE PUSH1 0x4 ADD PUSH2 0x1483 SWAP1 PUSH2 0x31FF JUMP JUMPDEST PUSH1 0x40 MLOAD DUP1 SWAP2 SUB SWAP1 REVERT JUMPDEST PUSH2 0x1497 DUP4 DUP3 DUP7 PUSH2 0x221D JUMP JUMPDEST POP DUP1 DUP1 PUSH1 0x1 ADD SWAP2 POP POP PUSH2 0x13E6 JUMP JUMPDEST POP POP POP POP POP JUMP JUMPDEST PUSH1 0x8 SLOAD DUP2 JUMP JUMPDEST PUSH1 0xE SLOAD DUP2 JUMP JUMPDEST PUSH1 0x0 PUSH1 0x3 PUSH1 0x0 DUP5 PUSH20 0xFFFFFFFFFFFFFFFFFFFFFFFFFFFFFFFFFFFFFFFF AND PUSH20 0xFFFFFFFFFFFFFFFFFFFFFFFFFFFFFFFFFFFFFFFF AND DUP2 MSTORE PUSH1 0x20 ADD SWAP1 DUP2 MSTORE PUSH1 0x20 ADD PUSH1 0x0 KECCAK256 PUSH1 0x0 DUP4 PUSH20 0xFFFFFFFFFFFFFFFFFFFFFFFFFFFFFFFFFFFFFFFF AND PUSH20 0xFFFFFFFFFFFFFFFFFFFFFFFFFFFFFFFFFFFFFFFF AND DUP2 MSTORE PUSH1 0x20 ADD SWAP1 DUP2 MSTORE PUSH1 0x20 ADD PUSH1 0x0 KECCAK256 SLOAD SWAP1 POP SWAP3 SWAP2 POP POP JUMP JUMPDEST PUSH2 0x1547 PUSH2 0x17E7 JUMP JUMPDEST PUSH1 0x0 PUSH20 0xFFFFFFFFFFFFFFFFFFFFFFFFFFFFFFFFFFFFFFFF AND DUP2 PUSH20 0xFFFFFFFFFFFFFFFFFFFFFFFFFFFFFFFFFFFFFFFF AND SUB PUSH2 0x15B6 JUMPI PUSH1 0x40 MLOAD PUSH32 0x8C379A000000000000000000000000000000000000000000000000000000000 DUP2 MSTORE PUSH1 0x4 ADD PUSH2 0x15AD SWAP1 PUSH2 0x3291 JUMP JUMPDEST PUSH1 0x40 MLOAD DUP1 SWAP2 SUB SWAP1 REVERT JUMPDEST PUSH2 0x15BF DUP2 PUSH2 0x20FE JUMP JUMPDEST POP JUMP JUMPDEST PUSH1 0xC SLOAD DUP2 JUMP JUMPDEST PUSH1 0x0 PUSH1 0x4 PUSH1 0x0 DUP4 PUSH20 0xFFFFFFFFFFFFFFFFFFFFFFFFFFFFFFFFFFFFFFFF AND PUSH20 0xFFFFFFFFFFFFFFFFFFFFFFFFFFFFFFFFFFFFFFFF AND DUP2 MSTORE PUSH1 0x20 ADD SWAP1 DUP2 MSTORE PUSH1 0x20 ADD PUSH1 0x0 KECCAK256 PUSH1 0x0 SWAP1 SLOAD SWAP1 PUSH2 0x100 EXP SWAP1 DIV PUSH1 0xFF AND SWAP1 POP SWAP2 SWAP1 POP JUMP JUMPDEST PUSH1 0x0 PUSH20 0xFFFFFFFFFFFFFFFFFFFFFFFFFFFFFFFFFFFFFFFF AND DUP4 PUSH20 0xFFFFFFFFFFFFFFFFFFFFFFFFFFFFFFFFFFFFFFFF AND SUB PUSH2 0x168D JUMPI PUSH1 0x40 MLOAD PUSH32 0x8C379A000000000000000000000000000000000000000000000000000000000 DUP2 MSTORE PUSH1 0x4 ADD PUSH2 0x1684 SWAP1 PUSH2 0x3323 JUMP JUMPDEST PUSH1 0x40 MLOAD DUP1 SWAP2 SUB SWAP1 REVERT JUMPDEST PUSH1 0x0 PUSH20 0xFFFFFFFFFFFFFFFFFFFFFFFFFFFFFFFFFFFFFFFF AND DUP3 PUSH20 0xFFFFFFFFFFFFFFFFFFFFFFFFFFFFFFFFFFFFFFFF AND SUB PUSH2 0x16FC JUMPI PUSH1 0x40 MLOAD PUSH32 0x8C379A000000000000000000000000000000000000000000000000000000000 DUP2 MSTORE PUSH1 0x4 ADD PUSH2 0x16F3 SWAP1 PUSH2 0x33B5 JUMP JUMPDEST PUSH1 0x40 MLOAD DUP1 SWAP2 SUB SWAP1 REVERT JUMPDEST DUP1 PUSH1 0x3 PUSH1 0x0 DUP6 PUSH20 0xFFFFFFFFFFFFFFFFFFFFFFFFFFFFFFFFFFFFFFFF AND PUSH20 0xFFFFFFFFFFFFFFFFFFFFFFFFFFFFFFFFFFFFFFFF AND DUP2 MSTORE PUSH1 0x20 ADD SWAP1 DUP2 MSTORE PUSH1 0x20 ADD PUSH1 0x0 KECCAK256 PUSH1 0x0 DUP5 PUSH20 0xFFFFFFFFFFFFFFFFFFFFFFFFFFFFFFFFFFFFFFFF AND PUSH20 0xFFFFFFFFFFFFFFFFFFFFFFFFFFFFFFFFFFFFFFFF AND DUP2 MSTORE PUSH1 0x20 ADD SWAP1 DUP2 MSTORE PUSH1 0x20 ADD PUSH1 0x0 KECCAK256 DUP2 SWAP1 SSTORE POP DUP2 PUSH20 0xFFFFFFFFFFFFFFFFFFFFFFFFFFFFFFFFFFFFFFFF AND DUP4 PUSH20 0xFFFFFFFFFFFFFFFFFFFFFFFFFFFFFFFFFFFFFFFF AND PUSH32 0x8C5BE1E5EBEC7D5BD14F71427D1E84F3DD0314C0F7B2291E5B200AC8C7C3B925 DUP4 PUSH1 0x40 MLOAD PUSH2 0x17DA SWAP2 SWAP1 PUSH2 0x2ABE JUMP JUMPDEST PUSH1 0x40 MLOAD DUP1 SWAP2 SUB SWAP1 LOG3 POP POP POP JUMP JUMPDEST PUSH2 0x17EF PUSH2 0x20F6 JUMP JUMPDEST PUSH20 0xFFFFFFFFFFFFFFFFFFFFFFFFFFFFFFFFFFFFFFFF AND PUSH2 0x180D PUSH2 0x107F JUMP JUMPDEST PUSH20 0xFFFFFFFFFFFFFFFFFFFFFFFFFFFFFFFFFFFFFFFF AND EQ PUSH2 0x1863 JUMPI PUSH1 0x40 MLOAD PUSH32 0x8C379A000000000000000000000000000000000000000000000000000000000 DUP2 MSTORE PUSH1 0x4 ADD PUSH2 0x185A SWAP1 PUSH2 0x3421 JUMP JUMPDEST PUSH1 0x40 MLOAD DUP1 SWAP2 SUB SWAP1 REVERT JUMPDEST JUMP JUMPDEST PUSH1 0x0 PUSH2 0x1871 DUP5 DUP5 PUSH2 0x14B8 JUMP JUMPDEST SWAP1 POP PUSH32 0xFFFFFFFFFFFFFFFFFFFFFFFFFFFFFFFFFFFFFFFFFFFFFFFFFFFFFFFFFFFFFFFF DUP2 EQ PUSH2 0x18EB JUMPI DUP2 DUP2 LT ISZERO PUSH2 0x18DD JUMPI PUSH1 0x40 MLOAD PUSH32 0x8C379A000000000000000000000000000000000000000000000000000000000 DUP2 MSTORE PUSH1 0x4 ADD PUSH2 0x18D4 SWAP1 PUSH2 0x348D JUMP JUMPDEST PUSH1 0x40 MLOAD DUP1 SWAP2 SUB SWAP1 REVERT JUMPDEST PUSH2 0x18EA DUP5 DUP5 DUP5 DUP5 SUB PUSH2 0x161E JUMP JUMPDEST JUMPDEST POP POP POP POP JUMP JUMPDEST PUSH1 0x0 PUSH20 0xFFFFFFFFFFFFFFFFFFFFFFFFFFFFFFFFFFFFFFFF AND DUP4 PUSH20 0xFFFFFFFFFFFFFFFFFFFFFFFFFFFFFFFFFFFFFFFF AND SUB PUSH2 0x1960 JUMPI PUSH1 0x40 MLOAD PUSH32 0x8C379A000000000000000000000000000000000000000000000000000000000 DUP2 MSTORE PUSH1 0x4 ADD PUSH2 0x1957 SWAP1 PUSH2 0x351F JUMP JUMPDEST PUSH1 0x40 MLOAD DUP1 SWAP2 SUB SWAP1 REVERT JUMPDEST PUSH1 0x0 PUSH20 0xFFFFFFFFFFFFFFFFFFFFFFFFFFFFFFFFFFFFFFFF AND DUP3 PUSH20 0xFFFFFFFFFFFFFFFFFFFFFFFFFFFFFFFFFFFFFFFF AND SUB PUSH2 0x19CF JUMPI PUSH1 0x40 MLOAD PUSH32 0x8C379A000000000000000000000000000000000000000000000000000000000 DUP2 MSTORE PUSH1 0x4 ADD PUSH2 0x19C6 SWAP1 PUSH2 0x31FF JUMP JUMPDEST PUSH1 0x40 MLOAD DUP1 SWAP2 SUB SWAP1 REVERT JUMPDEST PUSH1 0x0 DUP2 GT PUSH2 0x1A12 JUMPI PUSH1 0x40 MLOAD PUSH32 0x8C379A000000000000000000000000000000000000000000000000000000000 DUP2 MSTORE PUSH1 0x4 ADD PUSH2 0x1A09 SWAP1 PUSH2 0x35B1 JUMP JUMPDEST PUSH1 0x40 MLOAD DUP1 SWAP2 SUB SWAP1 REVERT JUMPDEST PUSH1 0x4 PUSH1 0x0 DUP5 PUSH20 0xFFFFFFFFFFFFFFFFFFFFFFFFFFFFFFFFFFFFFFFF AND PUSH20 0xFFFFFFFFFFFFFFFFFFFFFFFFFFFFFFFFFFFFFFFF AND DUP2 MSTORE PUSH1 0x20 ADD SWAP1 DUP2 MSTORE PUSH1 0x20 ADD PUSH1 0x0 KECCAK256 PUSH1 0x0 SWAP1 SLOAD SWAP1 PUSH2 0x100 EXP SWAP1 DIV PUSH1 0xFF AND ISZERO PUSH2 0x1A9F JUMPI PUSH1 0x40 MLOAD PUSH32 0x8C379A000000000000000000000000000000000000000000000000000000000 DUP2 MSTORE PUSH1 0x4 ADD PUSH2 0x1A96 SWAP1 PUSH2 0x361D JUMP JUMPDEST PUSH1 0x40 MLOAD DUP1 SWAP2 SUB SWAP1 REVERT JUMPDEST PUSH1 0x4 PUSH1 0x0 DUP4 PUSH20 0xFFFFFFFFFFFFFFFFFFFFFFFFFFFFFFFFFFFFFFFF AND PUSH20 0xFFFFFFFFFFFFFFFFFFFFFFFFFFFFFFFFFFFFFFFF AND DUP2 MSTORE PUSH1 0x20 ADD SWAP1 DUP2 MSTORE PUSH1 0x20 ADD PUSH1 0x0 KECCAK256 PUSH1 0x0 SWAP1 SLOAD SWAP1 PUSH2 0x100 EXP SWAP1 DIV PUSH1 0xFF AND ISZERO PUSH2 0x1B2C JUMPI PUSH1 0x40 MLOAD PUSH32 0x8C379A000000000000000000000000000000000000000000000000000000000 DUP2 MSTORE PUSH1 0x4 ADD PUSH2 0x1B23 SWAP1 PUSH2 0x3689 JUMP JUMPDEST PUSH1 0x40 MLOAD DUP1 SWAP2 SUB SWAP1 REVERT JUMPDEST PUSH1 0x10 PUSH1 0x14 SWAP1 SLOAD SWAP1 PUSH2 0x100 EXP SWAP1 DIV PUSH1 0xFF AND ISZERO PUSH2 0x1B7C JUMPI PUSH1 0x40 MLOAD PUSH32 0x8C379A000000000000000000000000000000000000000000000000000000000 DUP2 MSTORE PUSH1 0x4 ADD PUSH2 0x1B73 SWAP1 PUSH2 0x36F5 JUMP JUMPDEST PUSH1 0x40 MLOAD DUP1 SWAP2 SUB SWAP1 REVERT JUMPDEST PUSH1 0x0 DUP2 SUB PUSH2 0x1B95 JUMPI PUSH2 0x1B90 DUP4 DUP4 PUSH1 0x0 PUSH2 0x221D JUMP JUMPDEST PUSH2 0x20F1 JUMP JUMPDEST PUSH1 0x0 PUSH1 0x10 PUSH1 0x0 SWAP1 SLOAD SWAP1 PUSH2 0x100 EXP SWAP1 DIV PUSH20 0xFFFFFFFFFFFFFFFFFFFFFFFFFFFFFFFFFFFFFFFF AND PUSH20 0xFFFFFFFFFFFFFFFFFFFFFFFFFFFFFFFFFFFFFFFF AND DUP5 PUSH20 0xFFFFFFFFFFFFFFFFFFFFFFFFFFFFFFFFFFFFFFFF AND EQ SWAP1 POP PUSH1 0x0 PUSH1 0x10 PUSH1 0x0 SWAP1 SLOAD SWAP1 PUSH2 0x100 EXP SWAP1 DIV PUSH20 0xFFFFFFFFFFFFFFFFFFFFFFFFFFFFFFFFFFFFFFFF AND PUSH20 0xFFFFFFFFFFFFFFFFFFFFFFFFFFFFFFFFFFFFFFFF AND DUP5 PUSH20 0xFFFFFFFFFFFFFFFFFFFFFFFFFFFFFFFFFFFFFFFF AND EQ SWAP1 POP PUSH1 0x0 DUP1 PUSH1 0x0 DUP1 PUSH2 0x1C4E ADDRESS PUSH2 0xFD1 JUMP JUMPDEST SWAP1 POP PUSH1 0x0 PUSH1 0xB SLOAD DUP3 LT ISZERO SWAP1 POP DUP1 DUP1 ISZERO PUSH2 0x1C73 JUMPI POP PUSH1 0x10 PUSH1 0x16 SWAP1 SLOAD SWAP1 PUSH2 0x100 EXP SWAP1 DIV PUSH1 0xFF AND JUMPDEST DUP1 ISZERO PUSH2 0x1C8C JUMPI POP PUSH1 0x10 PUSH1 0x15 SWAP1 SLOAD SWAP1 PUSH2 0x100 EXP SWAP1 DIV PUSH1 0xFF AND ISZERO JUMPDEST DUP1 ISZERO PUSH2 0x1CE2 JUMPI POP PUSH1 0x6 PUSH1 0x0 DUP12 PUSH20 0xFFFFFFFFFFFFFFFFFFFFFFFFFFFFFFFFFFFFFFFF AND PUSH20 0xFFFFFFFFFFFFFFFFFFFFFFFFFFFFFFFFFFFFFFFF AND DUP2 MSTORE PUSH1 0x20 ADD SWAP1 DUP2 MSTORE PUSH1 0x20 ADD PUSH1 0x0 KECCAK256 PUSH1 0x0 SWAP1 SLOAD SWAP1 PUSH2 0x100 EXP SWAP1 DIV PUSH1 0xFF AND ISZERO JUMPDEST DUP1 ISZERO PUSH2 0x1D38 JUMPI POP PUSH1 0x5 PUSH1 0x0 DUP12 PUSH20 0xFFFFFFFFFFFFFFFFFFFFFFFFFFFFFFFFFFFFFFFF AND PUSH20 0xFFFFFFFFFFFFFFFFFFFFFFFFFFFFFFFFFFFFFFFF AND DUP2 MSTORE PUSH1 0x20 ADD SWAP1 DUP2 MSTORE PUSH1 0x20 ADD PUSH1 0x0 KECCAK256 PUSH1 0x0 SWAP1 SLOAD SWAP1 PUSH2 0x100 EXP SWAP1 DIV PUSH1 0xFF AND ISZERO JUMPDEST DUP1 ISZERO PUSH2 0x1D8E JUMPI POP PUSH1 0x5 PUSH1 0x0 DUP11 PUSH20 0xFFFFFFFFFFFFFFFFFFFFFFFFFFFFFFFFFFFFFFFF AND PUSH20 0xFFFFFFFFFFFFFFFFFFFFFFFFFFFFFFFFFFFFFFFF AND DUP2 MSTORE PUSH1 0x20 ADD SWAP1 DUP2 MSTORE PUSH1 0x20 ADD PUSH1 0x0 KECCAK256 PUSH1 0x0 SWAP1 SLOAD SWAP1 PUSH2 0x100 EXP SWAP1 DIV PUSH1 0xFF AND ISZERO JUMPDEST ISZERO PUSH2 0x1E3B JUMPI PUSH1 0x1 PUSH1 0x10 PUSH1 0x15 PUSH2 0x100 EXP DUP2 SLOAD DUP2 PUSH1 0xFF MUL NOT AND SWAP1 DUP4 ISZERO ISZERO MUL OR SWAP1 SSTORE POP PUSH2 0x1DB6 PUSH2 0x23A2 JUMP JUMPDEST PUSH1 0x7 PUSH1 0x0 SWAP1 SLOAD SWAP1 PUSH2 0x100 EXP SWAP1 DIV PUSH20 0xFFFFFFFFFFFFFFFFFFFFFFFFFFFFFFFFFFFFFFFF AND PUSH20 0xFFFFFFFFFFFFFFFFFFFFFFFFFFFFFFFFFFFFFFFF AND PUSH2 0x8FC SELFBALANCE SWAP1 DUP2 ISZERO MUL SWAP1 PUSH1 0x40 MLOAD PUSH1 0x0 PUSH1 0x40 MLOAD DUP1 DUP4 SUB DUP2 DUP6 DUP9 DUP9 CALL SWAP4 POP POP POP POP ISZERO DUP1 ISZERO PUSH2 0x1E1E JUMPI RETURNDATASIZE PUSH1 0x0 DUP1 RETURNDATACOPY RETURNDATASIZE PUSH1 0x0 REVERT JUMPDEST POP PUSH1 0x0 PUSH1 0x10 PUSH1 0x15 PUSH2 0x100 EXP DUP2 SLOAD DUP2 PUSH1 0xFF MUL NOT AND SWAP1 DUP4 ISZERO ISZERO MUL OR SWAP1 SSTORE POP JUMPDEST PUSH1 0x0 PUSH1 0x10 PUSH1 0x15 SWAP1 SLOAD SWAP1 PUSH2 0x100 EXP SWAP1 DIV PUSH1 0xFF AND ISZERO SWAP1 POP PUSH1 0x5 PUSH1 0x0 DUP13 PUSH20 0xFFFFFFFFFFFFFFFFFFFFFFFFFFFFFFFFFFFFFFFF AND PUSH20 0xFFFFFFFFFFFFFFFFFFFFFFFFFFFFFFFFFFFFFFFF AND DUP2 MSTORE PUSH1 0x20 ADD SWAP1 DUP2 MSTORE PUSH1 0x20 ADD PUSH1 0x0 KECCAK256 PUSH1 0x0 SWAP1 SLOAD SWAP1 PUSH2 0x100 EXP SWAP1 DIV PUSH1 0xFF AND DUP1 PUSH2 0x1EF1 JUMPI POP PUSH1 0x5 PUSH1 0x0 DUP12 PUSH20 0xFFFFFFFFFFFFFFFFFFFFFFFFFFFFFFFFFFFFFFFF AND PUSH20 0xFFFFFFFFFFFFFFFFFFFFFFFFFFFFFFFFFFFFFFFF AND DUP2 MSTORE PUSH1 0x20 ADD SWAP1 DUP2 MSTORE PUSH1 0x20 ADD PUSH1 0x0 KECCAK256 PUSH1 0x0 SWAP1 SLOAD SWAP1 PUSH2 0x100 EXP SWAP1 DIV PUSH1 0xFF AND JUMPDEST ISZERO PUSH2 0x1EFB JUMPI PUSH1 0x0 SWAP1 POP JUMPDEST PUSH1 0x0 DUP2 ISZERO PUSH2 0x20DC JUMPI PUSH1 0x6 PUSH1 0x0 DUP14 PUSH20 0xFFFFFFFFFFFFFFFFFFFFFFFFFFFFFFFFFFFFFFFF AND PUSH20 0xFFFFFFFFFFFFFFFFFFFFFFFFFFFFFFFFFFFFFFFF AND DUP2 MSTORE PUSH1 0x20 ADD SWAP1 DUP2 MSTORE PUSH1 0x20 ADD PUSH1 0x0 KECCAK256 PUSH1 0x0 SWAP1 SLOAD SWAP1 PUSH2 0x100 EXP SWAP1 DIV PUSH1 0xFF AND DUP1 ISZERO PUSH2 0x1F59 JUMPI POP DUP9 JUMPDEST ISZERO PUSH2 0x1FDF JUMPI PUSH1 0x5 PUSH1 0x0 DUP13 PUSH20 0xFFFFFFFFFFFFFFFFFFFFFFFFFFFFFFFFFFFFFFFF AND PUSH20 0xFFFFFFFFFFFFFFFFFFFFFFFFFFFFFFFFFFFFFFFF AND DUP2 MSTORE PUSH1 0x20 ADD SWAP1 DUP2 MSTORE PUSH1 0x20 ADD PUSH1 0x0 KECCAK256 PUSH1 0x0 SWAP1 SLOAD SWAP1 PUSH2 0x100 EXP SWAP1 DIV PUSH1 0xFF AND PUSH2 0x1FCC JUMPI PUSH2 0x1FBB DUP11 PUSH1 0x8 SLOAD PUSH2 0x2529 JUMP JUMPDEST SWAP7 POP PUSH2 0x1FC9 DUP11 PUSH1 0xA SLOAD PUSH2 0x2529 JUMP JUMPDEST SWAP5 POP JUMPDEST DUP5 DUP8 PUSH2 0x1FD8 SWAP2 SWAP1 PUSH2 0x2FF6 JUMP JUMPDEST SWAP1 POP PUSH2 0x20B8 JUMP JUMPDEST PUSH1 0x6 PUSH1 0x0 DUP13 PUSH20 0xFFFFFFFFFFFFFFFFFFFFFFFFFFFFFFFFFFFFFFFF AND PUSH20 0xFFFFFFFFFFFFFFFFFFFFFFFFFFFFFFFFFFFFFFFF AND DUP2 MSTORE PUSH1 0x20 ADD SWAP1 DUP2 MSTORE PUSH1 0x20 ADD PUSH1 0x0 KECCAK256 PUSH1 0x0 SWAP1 SLOAD SWAP1 PUSH2 0x100 EXP SWAP1 DIV PUSH1 0xFF AND DUP1 ISZERO PUSH2 0x2035 JUMPI POP DUP8 JUMPDEST ISZERO PUSH2 0x20B7 JUMPI PUSH1 0x5 PUSH1 0x0 DUP14 PUSH20 0xFFFFFFFFFFFFFFFFFFFFFFFFFFFFFFFFFFFFFFFF AND PUSH20 0xFFFFFFFFFFFFFFFFFFFFFFFFFFFFFFFFFFFFFFFF AND DUP2 MSTORE PUSH1 0x20 ADD SWAP1 DUP2 MSTORE PUSH1 0x20 ADD PUSH1 0x0 KECCAK256 PUSH1 0x0 SWAP1 SLOAD SWAP1 PUSH2 0x100 EXP SWAP1 DIV PUSH1 0xFF AND PUSH2 0x20A8 JUMPI PUSH2 0x2097 DUP11 PUSH1 0x9 SLOAD PUSH2 0x2529 JUMP JUMPDEST SWAP6 POP PUSH2 0x20A5 DUP11 PUSH1 0xA SLOAD PUSH2 0x2529 JUMP JUMPDEST SWAP5 POP JUMPDEST DUP5 DUP7 PUSH2 0x20B4 SWAP2 SWAP1 PUSH2 0x2FF6 JUMP JUMPDEST SWAP1 POP JUMPDEST JUMPDEST PUSH1 0x0 DUP2 GT ISZERO PUSH2 0x20CD JUMPI PUSH2 0x20CC DUP13 ADDRESS DUP4 PUSH2 0x221D JUMP JUMPDEST JUMPDEST DUP1 DUP11 PUSH2 0x20D9 SWAP2 SWAP1 PUSH2 0x3715 JUMP JUMPDEST SWAP10 POP JUMPDEST PUSH2 0x20E7 DUP13 DUP13 DUP13 PUSH2 0x221D JUMP JUMPDEST POP POP POP POP POP POP POP POP POP JUMPDEST POP POP POP JUMP JUMPDEST PUSH1 0x0 CALLER SWAP1 POP SWAP1 JUMP JUMPDEST PUSH1 0x0 DUP1 PUSH1 0x0 SWAP1 SLOAD SWAP1 PUSH2 0x100 EXP SWAP1 DIV PUSH20 0xFFFFFFFFFFFFFFFFFFFFFFFFFFFFFFFFFFFFFFFF AND SWAP1 POP DUP2 PUSH1 0x0 DUP1 PUSH2 0x100 EXP DUP2 SLOAD DUP2 PUSH20 0xFFFFFFFFFFFFFFFFFFFFFFFFFFFFFFFFFFFFFFFF MUL NOT AND SWAP1 DUP4 PUSH20 0xFFFFFFFFFFFFFFFFFFFFFFFFFFFFFFFFFFFFFFFF AND MUL OR SWAP1 SSTORE POP DUP2 PUSH20 0xFFFFFFFFFFFFFFFFFFFFFFFFFFFFFFFFFFFFFFFF AND DUP2 PUSH20 0xFFFFFFFFFFFFFFFFFFFFFFFFFFFFFFFFFFFFFFFF AND PUSH32 0x8BE0079C531659141344CD1FD0A4F28419497F9722A3DAAFE3B4186F6B6457E0 PUSH1 0x40 MLOAD PUSH1 0x40 MLOAD DUP1 SWAP2 SUB SWAP1 LOG3 POP POP JUMP JUMPDEST DUP1 PUSH1 0x6 PUSH1 0x0 DUP5 PUSH20 0xFFFFFFFFFFFFFFFFFFFFFFFFFFFFFFFFFFFFFFFF AND PUSH20 0xFFFFFFFFFFFFFFFFFFFFFFFFFFFFFFFFFFFFFFFF AND DUP2 MSTORE PUSH1 0x20 ADD SWAP1 DUP2 MSTORE PUSH1 0x20 ADD PUSH1 0x0 KECCAK256 PUSH1 0x0 PUSH2 0x100 EXP DUP2 SLOAD DUP2 PUSH1 0xFF MUL NOT AND SWAP1 DUP4 ISZERO ISZERO MUL OR SWAP1 SSTORE POP POP POP JUMP JUMPDEST PUSH1 0x0 PUSH1 0x2 PUSH1 0x0 DUP6 PUSH20 0xFFFFFFFFFFFFFFFFFFFFFFFFFFFFFFFFFFFFFFFF AND PUSH20 0xFFFFFFFFFFFFFFFFFFFFFFFFFFFFFFFFFFFFFFFF AND DUP2 MSTORE PUSH1 0x20 ADD SWAP1 DUP2 MSTORE PUSH1 0x20 ADD PUSH1 0x0 KECCAK256 SLOAD SWAP1 POP DUP2 DUP2 LT ISZERO PUSH2 0x22A4 JUMPI PUSH1 0x40 MLOAD PUSH32 0x8C379A000000000000000000000000000000000000000000000000000000000 DUP2 MSTORE PUSH1 0x4 ADD PUSH2 0x229B SWAP1 PUSH2 0x37BB JUMP JUMPDEST PUSH1 0x40 MLOAD DUP1 SWAP2 SUB SWAP1 REVERT JUMPDEST DUP2 DUP2 SUB PUSH1 0x2 PUSH1 0x0 DUP7 PUSH20 0xFFFFFFFFFFFFFFFFFFFFFFFFFFFFFFFFFFFFFFFF AND PUSH20 0xFFFFFFFFFFFFFFFFFFFFFFFFFFFFFFFFFFFFFFFF AND DUP2 MSTORE PUSH1 0x20 ADD SWAP1 DUP2 MSTORE PUSH1 0x20 ADD PUSH1 0x0 KECCAK256 DUP2 SWAP1 SSTORE POP DUP2 PUSH1 0x2 PUSH1 0x0 DUP6 PUSH20 0xFFFFFFFFFFFFFFFFFFFFFFFFFFFFFFFFFFFFFFFF AND PUSH20 0xFFFFFFFFFFFFFFFFFFFFFFFFFFFFFFFFFFFFFFFF AND DUP2 MSTORE PUSH1 0x20 ADD SWAP1 DUP2 MSTORE PUSH1 0x20 ADD PUSH1 0x0 KECCAK256 PUSH1 0x0 DUP3 DUP3 SLOAD ADD SWAP3 POP POP DUP2 SWAP1 SSTORE POP DUP3 PUSH20 0xFFFFFFFFFFFFFFFFFFFFFFFFFFFFFFFFFFFFFFFF AND DUP5 PUSH20 0xFFFFFFFFFFFFFFFFFFFFFFFFFFFFFFFFFFFFFFFF AND PUSH32 0xDDF252AD1BE2C89B69C2B068FC378DAA952BA7F163C4A11628F55A4DF523B3EF DUP5 PUSH1 0x40 MLOAD PUSH2 0x2394 SWAP2 SWAP1 PUSH2 0x2ABE JUMP JUMPDEST PUSH1 0x40 MLOAD DUP1 SWAP2 SUB SWAP1 LOG3 POP POP POP POP JUMP JUMPDEST PUSH1 0x0 PUSH2 0x23AD ADDRESS PUSH2 0xFD1 JUMP JUMPDEST SWAP1 POP PUSH1 0x0 DUP2 SUB PUSH2 0x23BD JUMPI POP PUSH2 0x2527 JUMP JUMPDEST PUSH1 0x0 PUSH1 0x2 PUSH3 0x186A0 PUSH1 0xE SLOAD DUP5 PUSH2 0x23D3 SWAP2 SWAP1 PUSH2 0x302A JUMP JUMPDEST PUSH2 0x23DD SWAP2 SWAP1 PUSH2 0x309B JUMP JUMPDEST PUSH2 0x23E7 SWAP2 SWAP1 PUSH2 0x309B JUMP JUMPDEST SWAP1 POP PUSH1 0x0 DUP2 DUP4 PUSH2 0x23F7 SWAP2 SWAP1 PUSH2 0x3715 JUMP JUMPDEST SWAP1 POP PUSH1 0x0 SELFBALANCE SWAP1 POP PUSH2 0x2407 DUP3 PUSH2 0x254D JUMP JUMPDEST PUSH1 0x0 DUP2 SELFBALANCE PUSH2 0x2415 SWAP2 SWAP1 PUSH2 0x3715 JUMP JUMPDEST SWAP1 POP PUSH1 0x0 DUP1 PUSH3 0x186A0 PUSH1 0xC SLOAD DUP5 PUSH2 0x242C SWAP2 SWAP1 PUSH2 0x302A JUMP JUMPDEST PUSH2 0x2436 SWAP2 SWAP1 PUSH2 0x309B JUMP JUMPDEST SWAP1 POP PUSH1 0x0 PUSH3 0x186A0 PUSH1 0xD SLOAD DUP6 PUSH2 0x244C SWAP2 SWAP1 PUSH2 0x302A JUMP JUMPDEST PUSH2 0x2456 SWAP2 SWAP1 PUSH2 0x309B JUMP JUMPDEST SWAP1 POP PUSH1 0x0 DUP2 DUP4 PUSH2 0x2466 SWAP2 SWAP1 PUSH2 0x2FF6 JUMP JUMPDEST SWAP1 POP DUP1 DUP6 PUSH2 0x2474 SWAP2 SWAP1 PUSH2 0x3715 JUMP JUMPDEST SWAP5 POP PUSH1 0x7 PUSH1 0x0 SWAP1 SLOAD SWAP1 PUSH2 0x100 EXP SWAP1 DIV PUSH20 0xFFFFFFFFFFFFFFFFFFFFFFFFFFFFFFFFFFFFFFFF AND PUSH20 0xFFFFFFFFFFFFFFFFFFFFFFFFFFFFFFFFFFFFFFFF AND DUP2 PUSH2 0x88B8 SWAP1 PUSH1 0x40 MLOAD PUSH2 0x24C0 SWAP1 PUSH2 0x380C JUMP JUMPDEST PUSH1 0x0 PUSH1 0x40 MLOAD DUP1 DUP4 SUB DUP2 DUP6 DUP9 DUP9 CALL SWAP4 POP POP POP POP RETURNDATASIZE DUP1 PUSH1 0x0 DUP2 EQ PUSH2 0x24FE JUMPI PUSH1 0x40 MLOAD SWAP2 POP PUSH1 0x1F NOT PUSH1 0x3F RETURNDATASIZE ADD AND DUP3 ADD PUSH1 0x40 MSTORE RETURNDATASIZE DUP3 MSTORE RETURNDATASIZE PUSH1 0x0 PUSH1 0x20 DUP5 ADD RETURNDATACOPY PUSH2 0x2503 JUMP JUMPDEST PUSH1 0x60 SWAP2 POP JUMPDEST POP POP DUP1 SWAP5 POP POP PUSH1 0x0 DUP6 GT ISZERO PUSH2 0x251D JUMPI PUSH2 0x251C DUP9 DUP7 PUSH2 0x2790 JUMP JUMPDEST JUMPDEST POP POP POP POP POP POP POP POP POP JUMPDEST JUMP JUMPDEST PUSH1 0x0 PUSH3 0x186A0 DUP3 DUP5 PUSH2 0x253B SWAP2 SWAP1 PUSH2 0x302A JUMP JUMPDEST PUSH2 0x2545 SWAP2 SWAP1 PUSH2 0x309B JUMP JUMPDEST SWAP1 POP SWAP3 SWAP2 POP POP JUMP JUMPDEST PUSH1 0x0 PUSH1 0x2 PUSH8 0xFFFFFFFFFFFFFFFF DUP2 GT ISZERO PUSH2 0x256A JUMPI PUSH2 0x2569 PUSH2 0x3821 JUMP JUMPDEST JUMPDEST PUSH1 0x40 MLOAD SWAP1 DUP1 DUP3 MSTORE DUP1 PUSH1 0x20 MUL PUSH1 0x20 ADD DUP3 ADD PUSH1 0x40 MSTORE DUP1 ISZERO PUSH2 0x2598 JUMPI DUP2 PUSH1 0x20 ADD PUSH1 0x20 DUP3 MUL DUP1 CALLDATASIZE DUP4 CALLDATACOPY DUP1 DUP3 ADD SWAP2 POP POP SWAP1 POP JUMPDEST POP SWAP1 POP ADDRESS DUP2 PUSH1 0x0 DUP2 MLOAD DUP2 LT PUSH2 0x25B0 JUMPI PUSH2 0x25AF PUSH2 0x315E JUMP JUMPDEST JUMPDEST PUSH1 0x20 MUL PUSH1 0x20 ADD ADD SWAP1 PUSH20 0xFFFFFFFFFFFFFFFFFFFFFFFFFFFFFFFFFFFFFFFF AND SWAP1 DUP2 PUSH20 0xFFFFFFFFFFFFFFFFFFFFFFFFFFFFFFFFFFFFFFFF AND DUP2 MSTORE POP POP PUSH1 0xF PUSH1 0x0 SWAP1 SLOAD SWAP1 PUSH2 0x100 EXP SWAP1 DIV PUSH20 0xFFFFFFFFFFFFFFFFFFFFFFFFFFFFFFFFFFFFFFFF AND PUSH20 0xFFFFFFFFFFFFFFFFFFFFFFFFFFFFFFFFFFFFFFFF AND PUSH4 0xAD5C4648 PUSH1 0x40 MLOAD DUP2 PUSH4 0xFFFFFFFF AND PUSH1 0xE0 SHL DUP2 MSTORE PUSH1 0x4 ADD PUSH1 0x20 PUSH1 0x40 MLOAD DUP1 DUP4 SUB DUP2 DUP7 GAS STATICCALL ISZERO DUP1 ISZERO PUSH2 0x2657 JUMPI RETURNDATASIZE PUSH1 0x0 DUP1 RETURNDATACOPY RETURNDATASIZE PUSH1 0x0 REVERT JUMPDEST POP POP POP POP PUSH1 0x40 MLOAD RETURNDATASIZE PUSH1 0x1F NOT PUSH1 0x1F DUP3 ADD AND DUP3 ADD DUP1 PUSH1 0x40 MSTORE POP DUP2 ADD SWAP1 PUSH2 0x267B SWAP2 SWAP1 PUSH2 0x3865 JUMP JUMPDEST DUP2 PUSH1 0x1 DUP2 MLOAD DUP2 LT PUSH2 0x268F JUMPI PUSH2 0x268E PUSH2 0x315E JUMP JUMPDEST JUMPDEST PUSH1 0x20 MUL PUSH1 0x20 ADD ADD SWAP1 PUSH20 0xFFFFFFFFFFFFFFFFFFFFFFFFFFFFFFFFFFFFFFFF AND SWAP1 DUP2 PUSH20 0xFFFFFFFFFFFFFFFFFFFFFFFFFFFFFFFFFFFFFFFF AND DUP2 MSTORE POP POP PUSH2 0x26F6 ADDRESS PUSH1 0xF PUSH1 0x0 SWAP1 SLOAD SWAP1 PUSH2 0x100 EXP SWAP1 DIV PUSH20 0xFFFFFFFFFFFFFFFFFFFFFFFFFFFFFFFFFFFFFFFF AND DUP5 PUSH2 0x161E JUMP JUMPDEST PUSH1 0xF PUSH1 0x0 SWAP1 SLOAD SWAP1 PUSH2 0x100 EXP SWAP1 DIV PUSH20 0xFFFFFFFFFFFFFFFFFFFFFFFFFFFFFFFFFFFFFFFF AND PUSH20 0xFFFFFFFFFFFFFFFFFFFFFFFFFFFFFFFFFFFFFFFF AND PUSH4 0x791AC947 DUP4 PUSH1 0x0 DUP5 ADDRESS TIMESTAMP PUSH1 0x40 MLOAD DUP7 PUSH4 0xFFFFFFFF AND PUSH1 0xE0 SHL DUP2 MSTORE PUSH1 0x4 ADD PUSH2 0x275A SWAP6 SWAP5 SWAP4 SWAP3 SWAP2 SWAP1 PUSH2 0x398B JUMP JUMPDEST PUSH1 0x0 PUSH1 0x40 MLOAD DUP1 DUP4 SUB DUP2 PUSH1 0x0 DUP8 DUP1 EXTCODESIZE ISZERO DUP1 ISZERO PUSH2 0x2774 JUMPI PUSH1 0x0 DUP1 REVERT JUMPDEST POP GAS CALL ISZERO DUP1 ISZERO PUSH2 0x2788 JUMPI RETURNDATASIZE PUSH1 0x0 DUP1 RETURNDATACOPY RETURNDATASIZE PUSH1 0x0 REVERT JUMPDEST POP POP POP POP POP POP JUMP JUMPDEST PUSH2 0x27BD ADDRESS PUSH1 0xF PUSH1 0x0 SWAP1 SLOAD SWAP1 PUSH2 0x100 EXP SWAP1 DIV PUSH20 0xFFFFFFFFFFFFFFFFFFFFFFFFFFFFFFFFFFFFFFFF AND DUP5 PUSH2 0x161E JUMP JUMPDEST PUSH1 0xF PUSH1 0x0 SWAP1 SLOAD SWAP1 PUSH2 0x100 EXP SWAP1 DIV PUSH20 0xFFFFFFFFFFFFFFFFFFFFFFFFFFFFFFFFFFFFFFFF AND PUSH20 0xFFFFFFFFFFFFFFFFFFFFFFFFFFFFFFFFFFFFFFFF AND PUSH4 0xF305D719 DUP3 ADDRESS DUP6 PUSH1 0x0 DUP1 PUSH1 0x0 TIMESTAMP PUSH1 0x40 MLOAD DUP9 PUSH4 0xFFFFFFFF AND PUSH1 0xE0 SHL DUP2 MSTORE PUSH1 0x4 ADD PUSH2 0x2825 SWAP7 SWAP6 SWAP5 SWAP4 SWAP3 SWAP2 SWAP1 PUSH2 0x39E5 JUMP JUMPDEST PUSH1 0x60 PUSH1 0x40 MLOAD DUP1 DUP4 SUB DUP2 DUP6 DUP9 GAS CALL ISZERO DUP1 ISZERO PUSH2 0x2843 JUMPI RETURNDATASIZE PUSH1 0x0 DUP1 RETURNDATACOPY RETURNDATASIZE PUSH1 0x0 REVERT JUMPDEST POP POP POP POP POP PUSH1 0x40 MLOAD RETURNDATASIZE PUSH1 0x1F NOT PUSH1 0x1F DUP3 ADD AND DUP3 ADD DUP1 PUSH1 0x40 MSTORE POP DUP2 ADD SWAP1 PUSH2 0x2868 SWAP2 SWAP1 PUSH2 0x3A5B JUMP JUMPDEST POP POP POP POP POP JUMP JUMPDEST PUSH1 0x0 DUP2 MLOAD SWAP1 POP SWAP2 SWAP1 POP JUMP JUMPDEST PUSH1 0x0 DUP3 DUP3 MSTORE PUSH1 0x20 DUP3 ADD SWAP1 POP SWAP3 SWAP2 POP POP JUMP JUMPDEST PUSH1 0x0 JUMPDEST DUP4 DUP2 LT ISZERO PUSH2 0x28A9 JUMPI DUP1 DUP3 ADD MLOAD DUP2 DUP5 ADD MSTORE PUSH1 0x20 DUP2 ADD SWAP1 POP PUSH2 0x288E JUMP JUMPDEST PUSH1 0x0 DUP5 DUP5 ADD MSTORE POP POP POP POP JUMP JUMPDEST PUSH1 0x0 PUSH1 0x1F NOT PUSH1 0x1F DUP4 ADD AND SWAP1 POP SWAP2 SWAP1 POP JUMP JUMPDEST PUSH1 0x0 PUSH2 0x28D1 DUP3 PUSH2 0x286F JUMP JUMPDEST PUSH2 0x28DB DUP2 DUP6 PUSH2 0x287A JUMP JUMPDEST SWAP4 POP PUSH2 0x28EB DUP2 DUP6 PUSH1 0x20 DUP7 ADD PUSH2 0x288B JUMP JUMPDEST PUSH2 0x28F4 DUP2 PUSH2 0x28B5 JUMP JUMPDEST DUP5 ADD SWAP2 POP POP SWAP3 SWAP2 POP POP JUMP JUMPDEST PUSH1 0x0 PUSH1 0x20 DUP3 ADD SWAP1 POP DUP2 DUP2 SUB PUSH1 0x0 DUP4 ADD MSTORE PUSH2 0x2919 DUP2 DUP5 PUSH2 0x28C6 JUMP JUMPDEST SWAP1 POP SWAP3 SWAP2 POP POP JUMP JUMPDEST PUSH1 0x0 DUP1 REVERT JUMPDEST PUSH1 0x0 DUP1 REVERT JUMPDEST PUSH1 0x0 PUSH20 0xFFFFFFFFFFFFFFFFFFFFFFFFFFFFFFFFFFFFFFFF DUP3 AND SWAP1 POP SWAP2 SWAP1 POP JUMP JUMPDEST PUSH1 0x0 PUSH2 0x2956 DUP3 PUSH2 0x292B JUMP JUMPDEST SWAP1 POP SWAP2 SWAP1 POP JUMP JUMPDEST PUSH2 0x2966 DUP2 PUSH2 0x294B JUMP JUMPDEST DUP2 EQ PUSH2 0x2971 JUMPI PUSH1 0x0 DUP1 REVERT JUMPDEST POP JUMP JUMPDEST PUSH1 0x0 DUP2 CALLDATALOAD SWAP1 POP PUSH2 0x2983 DUP2 PUSH2 0x295D JUMP JUMPDEST SWAP3 SWAP2 POP POP JUMP JUMPDEST PUSH1 0x0 DUP2 SWAP1 POP SWAP2 SWAP1 POP JUMP JUMPDEST PUSH2 0x299C DUP2 PUSH2 0x2989 JUMP JUMPDEST DUP2 EQ PUSH2 0x29A7 JUMPI PUSH1 0x0 DUP1 REVERT JUMPDEST POP JUMP JUMPDEST PUSH1 0x0 DUP2 CALLDATALOAD SWAP1 POP PUSH2 0x29B9 DUP2 PUSH2 0x2993 JUMP JUMPDEST SWAP3 SWAP2 POP POP JUMP JUMPDEST PUSH1 0x0 DUP1 PUSH1 0x40 DUP4 DUP6 SUB SLT ISZERO PUSH2 0x29D6 JUMPI PUSH2 0x29D5 PUSH2 0x2921 JUMP JUMPDEST JUMPDEST PUSH1 0x0 PUSH2 0x29E4 DUP6 DUP3 DUP7 ADD PUSH2 0x2974 JUMP JUMPDEST SWAP3 POP POP PUSH1 0x20 PUSH2 0x29F5 DUP6 DUP3 DUP7 ADD PUSH2 0x29AA JUMP JUMPDEST SWAP2 POP POP SWAP3 POP SWAP3 SWAP1 POP JUMP JUMPDEST PUSH1 0x0 DUP2 ISZERO ISZERO SWAP1 POP SWAP2 SWAP1 POP JUMP JUMPDEST PUSH2 0x2A14 DUP2 PUSH2 0x29FF JUMP JUMPDEST DUP3 MSTORE POP POP JUMP JUMPDEST PUSH1 0x0 PUSH1 0x20 DUP3 ADD SWAP1 POP PUSH2 0x2A2F PUSH1 0x0 DUP4 ADD DUP5 PUSH2 0x2A0B JUMP JUMPDEST SWAP3 SWAP2 POP POP JUMP JUMPDEST PUSH1 0x0 DUP2 SWAP1 POP SWAP2 SWAP1 POP JUMP JUMPDEST PUSH1 0x0 PUSH2 0x2A5A PUSH2 0x2A55 PUSH2 0x2A50 DUP5 PUSH2 0x292B JUMP JUMPDEST PUSH2 0x2A35 JUMP JUMPDEST PUSH2 0x292B JUMP JUMPDEST SWAP1 POP SWAP2 SWAP1 POP JUMP JUMPDEST PUSH1 0x0 PUSH2 0x2A6C DUP3 PUSH2 0x2A3F JUMP JUMPDEST SWAP1 POP SWAP2 SWAP1 POP JUMP JUMPDEST PUSH1 0x0 PUSH2 0x2A7E DUP3 PUSH2 0x2A61 JUMP JUMPDEST SWAP1 POP SWAP2 SWAP1 POP JUMP JUMPDEST PUSH2 0x2A8E DUP2 PUSH2 0x2A73 JUMP JUMPDEST DUP3 MSTORE POP POP JUMP JUMPDEST PUSH1 0x0 PUSH1 0x20 DUP3 ADD SWAP1 POP PUSH2 0x2AA9 PUSH1 0x0 DUP4 ADD DUP5 PUSH2 0x2A85 JUMP JUMPDEST SWAP3 SWAP2 POP POP JUMP JUMPDEST PUSH2 0x2AB8 DUP2 PUSH2 0x2989 JUMP JUMPDEST DUP3 MSTORE POP POP JUMP JUMPDEST PUSH1 0x0 PUSH1 0x20 DUP3 ADD SWAP1 POP PUSH2 0x2AD3 PUSH1 0x0 DUP4 ADD DUP5 PUSH2 0x2AAF JUMP JUMPDEST SWAP3 SWAP2 POP POP JUMP JUMPDEST PUSH1 0x0 DUP1 PUSH1 0x0 PUSH1 0x60 DUP5 DUP7 SUB SLT ISZERO PUSH2 0x2AF2 JUMPI PUSH2 0x2AF1 PUSH2 0x2921 JUMP JUMPDEST JUMPDEST PUSH1 0x0 PUSH2 0x2B00 DUP7 DUP3 DUP8 ADD PUSH2 0x2974 JUMP JUMPDEST SWAP4 POP POP PUSH1 0x20 PUSH2 0x2B11 DUP7 DUP3 DUP8 ADD PUSH2 0x2974 JUMP JUMPDEST SWAP3 POP POP PUSH1 0x40 PUSH2 0x2B22 DUP7 DUP3 DUP8 ADD PUSH2 0x29AA JUMP JUMPDEST SWAP2 POP POP SWAP3 POP SWAP3 POP SWAP3 JUMP JUMPDEST PUSH1 0x0 PUSH1 0xFF DUP3 AND SWAP1 POP SWAP2 SWAP1 POP JUMP JUMPDEST PUSH2 0x2B42 DUP2 PUSH2 0x2B2C JUMP JUMPDEST DUP3 MSTORE POP POP JUMP JUMPDEST PUSH1 0x0 PUSH1 0x20 DUP3 ADD SWAP1 POP PUSH2 0x2B5D PUSH1 0x0 DUP4 ADD DUP5 PUSH2 0x2B39 JUMP JUMPDEST SWAP3 SWAP2 POP POP JUMP JUMPDEST PUSH1 0x0 PUSH1 0x20 DUP3 DUP5 SUB SLT ISZERO PUSH2 0x2B79 JUMPI PUSH2 0x2B78 PUSH2 0x2921 JUMP JUMPDEST JUMPDEST PUSH1 0x0 PUSH2 0x2B87 DUP5 DUP3 DUP6 ADD PUSH2 0x2974 JUMP JUMPDEST SWAP2 POP POP SWAP3 SWAP2 POP POP JUMP JUMPDEST PUSH1 0x0 PUSH1 0x20 DUP3 DUP5 SUB SLT ISZERO PUSH2 0x2BA6 JUMPI PUSH2 0x2BA5 PUSH2 0x2921 JUMP JUMPDEST JUMPDEST PUSH1 0x0 PUSH2 0x2BB4 DUP5 DUP3 DUP6 ADD PUSH2 0x29AA JUMP JUMPDEST SWAP2 POP POP SWAP3 SWAP2 POP POP JUMP JUMPDEST PUSH2 0x2BC6 DUP2 PUSH2 0x294B JUMP JUMPDEST DUP3 MSTORE POP POP JUMP JUMPDEST PUSH1 0x0 PUSH1 0x20 DUP3 ADD SWAP1 POP PUSH2 0x2BE1 PUSH1 0x0 DUP4 ADD DUP5 PUSH2 0x2BBD JUMP JUMPDEST SWAP3 SWAP2 POP POP JUMP JUMPDEST PUSH2 0x2BF0 DUP2 PUSH2 0x29FF JUMP JUMPDEST DUP2 EQ PUSH2 0x2BFB JUMPI PUSH1 0x0 DUP1 REVERT JUMPDEST POP JUMP JUMPDEST PUSH1 0x0 DUP2 CALLDATALOAD SWAP1 POP PUSH2 0x2C0D DUP2 PUSH2 0x2BE7 JUMP JUMPDEST SWAP3 SWAP2 POP POP JUMP JUMPDEST PUSH1 0x0 DUP1 PUSH1 0x40 DUP4 DUP6 SUB SLT ISZERO PUSH2 0x2C2A JUMPI PUSH2 0x2C29 PUSH2 0x2921 JUMP JUMPDEST JUMPDEST PUSH1 0x0 PUSH2 0x2C38 DUP6 DUP3 DUP7 ADD PUSH2 0x2974 JUMP JUMPDEST SWAP3 POP POP PUSH1 0x20 PUSH2 0x2C49 DUP6 DUP3 DUP7 ADD PUSH2 0x2BFE JUMP JUMPDEST SWAP2 POP POP SWAP3 POP SWAP3 SWAP1 POP JUMP JUMPDEST PUSH1 0x0 PUSH1 0x20 DUP3 DUP5 SUB SLT ISZERO PUSH2 0x2C69 JUMPI PUSH2 0x2C68 PUSH2 0x2921 JUMP JUMPDEST JUMPDEST PUSH1 0x0 PUSH2 0x2C77 DUP5 DUP3 DUP6 ADD PUSH2 0x2BFE JUMP JUMPDEST SWAP2 POP POP SWAP3 SWAP2 POP POP JUMP JUMPDEST PUSH1 0x0 DUP1 REVERT JUMPDEST PUSH1 0x0 DUP1 REVERT JUMPDEST PUSH1 0x0 DUP1 REVERT JUMPDEST PUSH1 0x0 DUP1 DUP4 PUSH1 0x1F DUP5 ADD SLT PUSH2 0x2CA5 JUMPI PUSH2 0x2CA4 PUSH2 0x2C80 JUMP JUMPDEST JUMPDEST DUP3 CALLDATALOAD SWAP1 POP PUSH8 0xFFFFFFFFFFFFFFFF DUP2 GT ISZERO PUSH2 0x2CC2 JUMPI PUSH2 0x2CC1 PUSH2 0x2C85 JUMP JUMPDEST JUMPDEST PUSH1 0x20 DUP4 ADD SWAP2 POP DUP4 PUSH1 0x20 DUP3 MUL DUP4 ADD GT ISZERO PUSH2 0x2CDE JUMPI PUSH2 0x2CDD PUSH2 0x2C8A JUMP JUMPDEST JUMPDEST SWAP3 POP SWAP3 SWAP1 POP JUMP JUMPDEST PUSH1 0x0 DUP1 PUSH1 0x0 PUSH1 0x40 DUP5 DUP7 SUB SLT ISZERO PUSH2 0x2CFE JUMPI PUSH2 0x2CFD PUSH2 0x2921 JUMP JUMPDEST JUMPDEST PUSH1 0x0 DUP5 ADD CALLDATALOAD PUSH8 0xFFFFFFFFFFFFFFFF DUP2 GT ISZERO PUSH2 0x2D1C JUMPI PUSH2 0x2D1B PUSH2 0x2926 JUMP JUMPDEST JUMPDEST PUSH2 0x2D28 DUP7 DUP3 DUP8 ADD PUSH2 0x2C8F JUMP JUMPDEST SWAP4 POP SWAP4 POP POP PUSH1 0x20 PUSH2 0x2D3B DUP7 DUP3 DUP8 ADD PUSH2 0x29AA JUMP JUMPDEST SWAP2 POP POP SWAP3 POP SWAP3 POP SWAP3 JUMP JUMPDEST PUSH1 0x0 DUP1 PUSH1 0x40 DUP4 DUP6 SUB SLT ISZERO PUSH2 0x2D5C JUMPI PUSH2 0x2D5B PUSH2 0x2921 JUMP JUMPDEST JUMPDEST PUSH1 0x0 PUSH2 0x2D6A DUP6 DUP3 DUP7 ADD PUSH2 0x2974 JUMP JUMPDEST SWAP3 POP POP PUSH1 0x20 PUSH2 0x2D7B DUP6 DUP3 DUP7 ADD PUSH2 0x2974 JUMP JUMPDEST SWAP2 POP POP SWAP3 POP SWAP3 SWAP1 POP JUMP JUMPDEST PUSH32 0x4163636F756E7420697320616C726561647920626C61636B6C69737465640000 PUSH1 0x0 DUP3 ADD MSTORE POP JUMP JUMPDEST PUSH1 0x0 PUSH2 0x2DBB PUSH1 0x1E DUP4 PUSH2 0x287A JUMP JUMPDEST SWAP2 POP PUSH2 0x2DC6 DUP3 PUSH2 0x2D85 JUMP JUMPDEST PUSH1 0x20 DUP3 ADD SWAP1 POP SWAP2 SWAP1 POP JUMP JUMPDEST PUSH1 0x0 PUSH1 0x20 DUP3 ADD SWAP1 POP DUP2 DUP2 SUB PUSH1 0x0 DUP4 ADD MSTORE PUSH2 0x2DEA DUP2 PUSH2 0x2DAE JUMP JUMPDEST SWAP1 POP SWAP2 SWAP1 POP JUMP JUMPDEST PUSH32 0x43616E6E6F7420626C61636B6C6973742073656C660000000000000000000000 PUSH1 0x0 DUP3 ADD MSTORE POP JUMP JUMPDEST PUSH1 0x0 PUSH2 0x2E27 PUSH1 0x15 DUP4 PUSH2 0x287A JUMP JUMPDEST SWAP2 POP PUSH2 0x2E32 DUP3 PUSH2 0x2DF1 JUMP JUMPDEST PUSH1 0x20 DUP3 ADD SWAP1 POP SWAP2 SWAP1 POP JUMP JUMPDEST PUSH1 0x0 PUSH1 0x20 DUP3 ADD SWAP1 POP DUP2 DUP2 SUB PUSH1 0x0 DUP4 ADD MSTORE PUSH2 0x2E56 DUP2 PUSH2 0x2E1A JUMP JUMPDEST SWAP1 POP SWAP2 SWAP1 POP JUMP JUMPDEST PUSH32 0x4163636F756E74206973206E6F7420626C61636B6C6973746564000000000000 PUSH1 0x0 DUP3 ADD MSTORE POP JUMP JUMPDEST PUSH1 0x0 PUSH2 0x2E93 PUSH1 0x1A DUP4 PUSH2 0x287A JUMP JUMPDEST SWAP2 POP PUSH2 0x2E9E DUP3 PUSH2 0x2E5D JUMP JUMPDEST PUSH1 0x20 DUP3 ADD SWAP1 POP SWAP2 SWAP1 POP JUMP JUMPDEST PUSH1 0x0 PUSH1 0x20 DUP3 ADD SWAP1 POP DUP2 DUP2 SUB PUSH1 0x0 DUP4 ADD MSTORE PUSH2 0x2EC2 DUP2 PUSH2 0x2E86 JUMP JUMPDEST SWAP1 POP SWAP2 SWAP1 POP JUMP JUMPDEST PUSH32 0x43616E6E6F742072656D6F76652073656C662066726F6D20626C61636B6C6973 PUSH1 0x0 DUP3 ADD MSTORE PUSH32 0x7400000000000000000000000000000000000000000000000000000000000000 PUSH1 0x20 DUP3 ADD MSTORE POP JUMP JUMPDEST PUSH1 0x0 PUSH2 0x2F25 PUSH1 0x21 DUP4 PUSH2 0x287A JUMP JUMPDEST SWAP2 POP PUSH2 0x2F30 DUP3 PUSH2 0x2EC9 JUMP JUMPDEST PUSH1 0x40 DUP3 ADD SWAP1 POP SWAP2 SWAP1 POP JUMP JUMPDEST PUSH1 0x0 PUSH1 0x20 DUP3 ADD SWAP1 POP DUP2 DUP2 SUB PUSH1 0x0 DUP4 ADD MSTORE PUSH2 0x2F54 DUP2 PUSH2 0x2F18 JUMP JUMPDEST SWAP1 POP SWAP2 SWAP1 POP JUMP JUMPDEST PUSH32 0x5461782070657263656E746167652063616E6E6F742065786365656420313030 PUSH1 0x0 DUP3 ADD MSTORE POP JUMP JUMPDEST PUSH1 0x0 PUSH2 0x2F91 PUSH1 0x20 DUP4 PUSH2 0x287A JUMP JUMPDEST SWAP2 POP PUSH2 0x2F9C DUP3 PUSH2 0x2F5B JUMP JUMPDEST PUSH1 0x20 DUP3 ADD SWAP1 POP SWAP2 SWAP1 POP JUMP JUMPDEST PUSH1 0x0 PUSH1 0x20 DUP3 ADD SWAP1 POP DUP2 DUP2 SUB PUSH1 0x0 DUP4 ADD MSTORE PUSH2 0x2FC0 DUP2 PUSH2 0x2F84 JUMP JUMPDEST SWAP1 POP SWAP2 SWAP1 POP JUMP JUMPDEST PUSH32 0x4E487B7100000000000000000000000000000000000000000000000000000000 PUSH1 0x0 MSTORE PUSH1 0x11 PUSH1 0x4 MSTORE PUSH1 0x24 PUSH1 0x0 REVERT JUMPDEST PUSH1 0x0 PUSH2 0x3001 DUP3 PUSH2 0x2989 JUMP JUMPDEST SWAP2 POP PUSH2 0x300C DUP4 PUSH2 0x2989 JUMP JUMPDEST SWAP3 POP DUP3 DUP3 ADD SWAP1 POP DUP1 DUP3 GT ISZERO PUSH2 0x3024 JUMPI PUSH2 0x3023 PUSH2 0x2FC7 JUMP JUMPDEST JUMPDEST SWAP3 SWAP2 POP POP JUMP JUMPDEST PUSH1 0x0 PUSH2 0x3035 DUP3 PUSH2 0x2989 JUMP JUMPDEST SWAP2 POP PUSH2 0x3040 DUP4 PUSH2 0x2989 JUMP JUMPDEST SWAP3 POP DUP3 DUP3 MUL PUSH2 0x304E DUP2 PUSH2 0x2989 JUMP JUMPDEST SWAP2 POP DUP3 DUP3 DIV DUP5 EQ DUP4 ISZERO OR PUSH2 0x3065 JUMPI PUSH2 0x3064 PUSH2 0x2FC7 JUMP JUMPDEST JUMPDEST POP SWAP3 SWAP2 POP POP JUMP JUMPDEST PUSH32 0x4E487B7100000000000000000000000000000000000000000000000000000000 PUSH1 0x0 MSTORE PUSH1 0x12 PUSH1 0x4 MSTORE PUSH1 0x24 PUSH1 0x0 REVERT JUMPDEST PUSH1 0x0 PUSH2 0x30A6 DUP3 PUSH2 0x2989 JUMP JUMPDEST SWAP2 POP PUSH2 0x30B1 DUP4 PUSH2 0x2989 JUMP JUMPDEST SWAP3 POP DUP3 PUSH2 0x30C1 JUMPI PUSH2 0x30C0 PUSH2 0x306C JUMP JUMPDEST JUMPDEST DUP3 DUP3 DIV SWAP1 POP SWAP3 SWAP2 POP POP JUMP JUMPDEST PUSH32 0x54686520706169722063616E6E6F742062652072656D6F7665642066726F6D20 PUSH1 0x0 DUP3 ADD MSTORE PUSH32 0x6175746F6D617465644D61726B65744D616B6572506169727300000000000000 PUSH1 0x20 DUP3 ADD MSTORE POP JUMP JUMPDEST PUSH1 0x0 PUSH2 0x3128 PUSH1 0x39 DUP4 PUSH2 0x287A JUMP JUMPDEST SWAP2 POP PUSH2 0x3133 DUP3 PUSH2 0x30CC JUMP JUMPDEST PUSH1 0x40 DUP3 ADD SWAP1 POP SWAP2 SWAP1 POP JUMP JUMPDEST PUSH1 0x0 PUSH1 0x20 DUP3 ADD SWAP1 POP DUP2 DUP2 SUB PUSH1 0x0 DUP4 ADD MSTORE PUSH2 0x3157 DUP2 PUSH2 0x311B JUMP JUMPDEST SWAP1 POP SWAP2 SWAP1 POP JUMP JUMPDEST PUSH32 0x4E487B7100000000000000000000000000000000000000000000000000000000 PUSH1 0x0 MSTORE PUSH1 0x32 PUSH1 0x4 MSTORE PUSH1 0x24 PUSH1 0x0 REVERT JUMPDEST PUSH32 0x45524332303A207472616E7366657220746F20746865207A65726F2061646472 PUSH1 0x0 DUP3 ADD MSTORE PUSH32 0x6573730000000000000000000000000000000000000000000000000000000000 PUSH1 0x20 DUP3 ADD MSTORE POP JUMP JUMPDEST PUSH1 0x0 PUSH2 0x31E9 PUSH1 0x23 DUP4 PUSH2 0x287A JUMP JUMPDEST SWAP2 POP PUSH2 0x31F4 DUP3 PUSH2 0x318D JUMP JUMPDEST PUSH1 0x40 DUP3 ADD SWAP1 POP SWAP2 SWAP1 POP JUMP JUMPDEST PUSH1 0x0 PUSH1 0x20 DUP3 ADD SWAP1 POP DUP2 DUP2 SUB PUSH1 0x0 DUP4 ADD MSTORE PUSH2 0x3218 DUP2 PUSH2 0x31DC JUMP JUMPDEST SWAP1 POP SWAP2 SWAP1 POP JUMP JUMPDEST PUSH32 0x4F776E61626C653A206E6577206F776E657220697320746865207A65726F2061 PUSH1 0x0 DUP3 ADD MSTORE PUSH32 0x6464726573730000000000000000000000000000000000000000000000000000 PUSH1 0x20 DUP3 ADD MSTORE POP JUMP JUMPDEST PUSH1 0x0 PUSH2 0x327B PUSH1 0x26 DUP4 PUSH2 0x287A JUMP JUMPDEST SWAP2 POP PUSH2 0x3286 DUP3 PUSH2 0x321F JUMP JUMPDEST PUSH1 0x40 DUP3 ADD SWAP1 POP SWAP2 SWAP1 POP JUMP JUMPDEST PUSH1 0x0 PUSH1 0x20 DUP3 ADD SWAP1 POP DUP2 DUP2 SUB PUSH1 0x0 DUP4 ADD MSTORE PUSH2 0x32AA DUP2 PUSH2 0x326E JUMP JUMPDEST SWAP1 POP SWAP2 SWAP1 POP JUMP JUMPDEST PUSH32 0x45524332303A20617070726F76652066726F6D20746865207A65726F20616464 PUSH1 0x0 DUP3 ADD MSTORE PUSH32 0x7265737300000000000000000000000000000000000000000000000000000000 PUSH1 0x20 DUP3 ADD MSTORE POP JUMP JUMPDEST PUSH1 0x0 PUSH2 0x330D PUSH1 0x24 DUP4 PUSH2 0x287A JUMP JUMPDEST SWAP2 POP PUSH2 0x3318 DUP3 PUSH2 0x32B1 JUMP JUMPDEST PUSH1 0x40 DUP3 ADD SWAP1 POP SWAP2 SWAP1 POP JUMP JUMPDEST PUSH1 0x0 PUSH1 0x20 DUP3 ADD SWAP1 POP DUP2 DUP2 SUB PUSH1 0x0 DUP4 ADD MSTORE PUSH2 0x333C DUP2 PUSH2 0x3300 JUMP JUMPDEST SWAP1 POP SWAP2 SWAP1 POP JUMP JUMPDEST PUSH32 0x45524332303A20617070726F766520746F20746865207A65726F206164647265 PUSH1 0x0 DUP3 ADD MSTORE PUSH32 0x7373000000000000000000000000000000000000000000000000000000000000 PUSH1 0x20 DUP3 ADD MSTORE POP JUMP JUMPDEST PUSH1 0x0 PUSH2 0x339F PUSH1 0x22 DUP4 PUSH2 0x287A JUMP JUMPDEST SWAP2 POP PUSH2 0x33AA DUP3 PUSH2 0x3343 JUMP JUMPDEST PUSH1 0x40 DUP3 ADD SWAP1 POP SWAP2 SWAP1 POP JUMP JUMPDEST PUSH1 0x0 PUSH1 0x20 DUP3 ADD SWAP1 POP DUP2 DUP2 SUB PUSH1 0x0 DUP4 ADD MSTORE PUSH2 0x33CE DUP2 PUSH2 0x3392 JUMP JUMPDEST SWAP1 POP SWAP2 SWAP1 POP JUMP JUMPDEST PUSH32 0x4F776E61626C653A2063616C6C6572206973206E6F7420746865206F776E6572 PUSH1 0x0 DUP3 ADD MSTORE POP JUMP JUMPDEST PUSH1 0x0 PUSH2 0x340B PUSH1 0x20 DUP4 PUSH2 0x287A JUMP JUMPDEST SWAP2 POP PUSH2 0x3416 DUP3 PUSH2 0x33D5 JUMP JUMPDEST PUSH1 0x20 DUP3 ADD SWAP1 POP SWAP2 SWAP1 POP JUMP JUMPDEST PUSH1 0x0 PUSH1 0x20 DUP3 ADD SWAP1 POP DUP2 DUP2 SUB PUSH1 0x0 DUP4 ADD MSTORE PUSH2 0x343A DUP2 PUSH2 0x33FE JUMP JUMPDEST SWAP1 POP SWAP2 SWAP1 POP JUMP JUMPDEST PUSH32 0x45524332303A20696E73756666696369656E7420616C6C6F77616E6365000000 PUSH1 0x0 DUP3 ADD MSTORE POP JUMP JUMPDEST PUSH1 0x0 PUSH2 0x3477 PUSH1 0x1D DUP4 PUSH2 0x287A JUMP JUMPDEST SWAP2 POP PUSH2 0x3482 DUP3 PUSH2 0x3441 JUMP JUMPDEST PUSH1 0x20 DUP3 ADD SWAP1 POP SWAP2 SWAP1 POP JUMP JUMPDEST PUSH1 0x0 PUSH1 0x20 DUP3 ADD SWAP1 POP DUP2 DUP2 SUB PUSH1 0x0 DUP4 ADD MSTORE PUSH2 0x34A6 DUP2 PUSH2 0x346A JUMP JUMPDEST SWAP1 POP SWAP2 SWAP1 POP JUMP JUMPDEST PUSH32 0x45524332303A207472616E736665722066726F6D20746865207A65726F206164 PUSH1 0x0 DUP3 ADD MSTORE PUSH32 0x6472657373000000000000000000000000000000000000000000000000000000 PUSH1 0x20 DUP3 ADD MSTORE POP JUMP JUMPDEST PUSH1 0x0 PUSH2 0x3509 PUSH1 0x25 DUP4 PUSH2 0x287A JUMP JUMPDEST SWAP2 POP PUSH2 0x3514 DUP3 PUSH2 0x34AD JUMP JUMPDEST PUSH1 0x40 DUP3 ADD SWAP1 POP SWAP2 SWAP1 POP JUMP JUMPDEST PUSH1 0x0 PUSH1 0x20 DUP3 ADD SWAP1 POP DUP2 DUP2 SUB PUSH1 0x0 DUP4 ADD MSTORE PUSH2 0x3538 DUP2 PUSH2 0x34FC JUMP JUMPDEST SWAP1 POP SWAP2 SWAP1 POP JUMP JUMPDEST PUSH32 0x5472616E7366657220616D6F756E74206D757374206265206772656174657220 PUSH1 0x0 DUP3 ADD MSTORE PUSH32 0x7468616E207A65726F0000000000000000000000000000000000000000000000 PUSH1 0x20 DUP3 ADD MSTORE POP JUMP JUMPDEST PUSH1 0x0 PUSH2 0x359B PUSH1 0x29 DUP4 PUSH2 0x287A JUMP JUMPDEST SWAP2 POP PUSH2 0x35A6 DUP3 PUSH2 0x353F JUMP JUMPDEST PUSH1 0x40 DUP3 ADD SWAP1 POP SWAP2 SWAP1 POP JUMP JUMPDEST PUSH1 0x0 PUSH1 0x20 DUP3 ADD SWAP1 POP DUP2 DUP2 SUB PUSH1 0x0 DUP4 ADD MSTORE PUSH2 0x35CA DUP2 PUSH2 0x358E JUMP JUMPDEST SWAP1 POP SWAP2 SWAP1 POP JUMP JUMPDEST PUSH32 0x53656E64657220697320626C61636B6C69737465640000000000000000000000 PUSH1 0x0 DUP3 ADD MSTORE POP JUMP JUMPDEST PUSH1 0x0 PUSH2 0x3607 PUSH1 0x15 DUP4 PUSH2 0x287A JUMP JUMPDEST SWAP2 POP PUSH2 0x3612 DUP3 PUSH2 0x35D1 JUMP JUMPDEST PUSH1 0x20 DUP3 ADD SWAP1 POP SWAP2 SWAP1 POP JUMP JUMPDEST PUSH1 0x0 PUSH1 0x20 DUP3 ADD SWAP1 POP DUP2 DUP2 SUB PUSH1 0x0 DUP4 ADD MSTORE PUSH2 0x3636 DUP2 PUSH2 0x35FA JUMP JUMPDEST SWAP1 POP SWAP2 SWAP1 POP JUMP JUMPDEST PUSH32 0x526563697069656E7420697320626C61636B6C69737465640000000000000000 PUSH1 0x0 DUP3 ADD MSTORE POP JUMP JUMPDEST PUSH1 0x0 PUSH2 0x3673 PUSH1 0x18 DUP4 PUSH2 0x287A JUMP JUMPDEST SWAP2 POP PUSH2 0x367E DUP3 PUSH2 0x363D JUMP JUMPDEST PUSH1 0x20 DUP3 ADD SWAP1 POP SWAP2 SWAP1 POP JUMP JUMPDEST PUSH1 0x0 PUSH1 0x20 DUP3 ADD SWAP1 POP DUP2 DUP2 SUB PUSH1 0x0 DUP4 ADD MSTORE PUSH2 0x36A2 DUP2 PUSH2 0x3666 JUMP JUMPDEST SWAP1 POP SWAP2 SWAP1 POP JUMP JUMPDEST PUSH32 0x54726164696E6720697320706175736564000000000000000000000000000000 PUSH1 0x0 DUP3 ADD MSTORE POP JUMP JUMPDEST PUSH1 0x0 PUSH2 0x36DF PUSH1 0x11 DUP4 PUSH2 0x287A JUMP JUMPDEST SWAP2 POP PUSH2 0x36EA DUP3 PUSH2 0x36A9 JUMP JUMPDEST PUSH1 0x20 DUP3 ADD SWAP1 POP SWAP2 SWAP1 POP JUMP JUMPDEST PUSH1 0x0 PUSH1 0x20 DUP3 ADD SWAP1 POP DUP2 DUP2 SUB PUSH1 0x0 DUP4 ADD MSTORE PUSH2 0x370E DUP2 PUSH2 0x36D2 JUMP JUMPDEST SWAP1 POP SWAP2 SWAP1 POP JUMP JUMPDEST PUSH1 0x0 PUSH2 0x3720 DUP3 PUSH2 0x2989 JUMP JUMPDEST SWAP2 POP PUSH2 0x372B DUP4 PUSH2 0x2989 JUMP JUMPDEST SWAP3 POP DUP3 DUP3 SUB SWAP1 POP DUP2 DUP2 GT ISZERO PUSH2 0x3743 JUMPI PUSH2 0x3742 PUSH2 0x2FC7 JUMP JUMPDEST JUMPDEST SWAP3 SWAP2 POP POP JUMP JUMPDEST PUSH32 0x45524332303A207472616E7366657220616D6F756E7420657863656564732062 PUSH1 0x0 DUP3 ADD MSTORE PUSH32 0x616C616E63650000000000000000000000000000000000000000000000000000 PUSH1 0x20 DUP3 ADD MSTORE POP JUMP JUMPDEST PUSH1 0x0 PUSH2 0x37A5 PUSH1 0x26 DUP4 PUSH2 0x287A JUMP JUMPDEST SWAP2 POP PUSH2 0x37B0 DUP3 PUSH2 0x3749 JUMP JUMPDEST PUSH1 0x40 DUP3 ADD SWAP1 POP SWAP2 SWAP1 POP JUMP JUMPDEST PUSH1 0x0 PUSH1 0x20 DUP3 ADD SWAP1 POP DUP2 DUP2 SUB PUSH1 0x0 DUP4 ADD MSTORE PUSH2 0x37D4 DUP2 PUSH2 0x3798 JUMP JUMPDEST SWAP1 POP SWAP2 SWAP1 POP JUMP JUMPDEST PUSH1 0x0 DUP2 SWAP1 POP SWAP3 SWAP2 POP POP JUMP JUMPDEST POP JUMP JUMPDEST PUSH1 0x0 PUSH2 0x37F6 PUSH1 0x0 DUP4 PUSH2 0x37DB JUMP JUMPDEST SWAP2 POP PUSH2 0x3801 DUP3 PUSH2 0x37E6 JUMP JUMPDEST PUSH1 0x0 DUP3 ADD SWAP1 POP SWAP2 SWAP1 POP JUMP JUMPDEST PUSH1 0x0 PUSH2 0x3817 DUP3 PUSH2 0x37E9 JUMP JUMPDEST SWAP2 POP DUP2 SWAP1 POP SWAP2 SWAP1 POP JUMP JUMPDEST PUSH32 0x4E487B7100000000000000000000000000000000000000000000000000000000 PUSH1 0x0 MSTORE PUSH1 0x41 PUSH1 0x4 MSTORE PUSH1 0x24 PUSH1 0x0 REVERT JUMPDEST PUSH1 0x0 DUP2 MLOAD SWAP1 POP PUSH2 0x385F DUP2 PUSH2 0x295D JUMP JUMPDEST SWAP3 SWAP2 POP POP JUMP JUMPDEST PUSH1 0x0 PUSH1 0x20 DUP3 DUP5 SUB SLT ISZERO PUSH2 0x387B JUMPI PUSH2 0x387A PUSH2 0x2921 JUMP JUMPDEST JUMPDEST PUSH1 0x0 PUSH2 0x3889 DUP5 DUP3 DUP6 ADD PUSH2 0x3850 JUMP JUMPDEST SWAP2 POP POP SWAP3 SWAP2 POP POP JUMP JUMPDEST PUSH1 0x0 DUP2 SWAP1 POP SWAP2 SWAP1 POP JUMP JUMPDEST PUSH1 0x0 PUSH2 0x38B7 PUSH2 0x38B2 PUSH2 0x38AD DUP5 PUSH2 0x3892 JUMP JUMPDEST PUSH2 0x2A35 JUMP JUMPDEST PUSH2 0x2989 JUMP JUMPDEST SWAP1 POP SWAP2 SWAP1 POP JUMP JUMPDEST PUSH2 0x38C7 DUP2 PUSH2 0x389C JUMP JUMPDEST DUP3 MSTORE POP POP JUMP JUMPDEST PUSH1 0x0 DUP2 MLOAD SWAP1 POP SWAP2 SWAP1 POP JUMP JUMPDEST PUSH1 0x0 DUP3 DUP3 MSTORE PUSH1 0x20 DUP3 ADD SWAP1 POP SWAP3 SWAP2 POP POP JUMP JUMPDEST PUSH1 0x0 DUP2 SWAP1 POP PUSH1 0x20 DUP3 ADD SWAP1 POP SWAP2 SWAP1 POP JUMP JUMPDEST PUSH2 0x3902 DUP2 PUSH2 0x294B JUMP JUMPDEST DUP3 MSTORE POP POP JUMP JUMPDEST PUSH1 0x0 PUSH2 0x3914 DUP4 DUP4 PUSH2 0x38F9 JUMP JUMPDEST PUSH1 0x20 DUP4 ADD SWAP1 POP SWAP3 SWAP2 POP POP JUMP JUMPDEST PUSH1 0x0 PUSH1 0x20 DUP3 ADD SWAP1 POP SWAP2 SWAP1 POP JUMP JUMPDEST PUSH1 0x0 PUSH2 0x3938 DUP3 PUSH2 0x38CD JUMP JUMPDEST PUSH2 0x3942 DUP2 DUP6 PUSH2 0x38D8 JUMP JUMPDEST SWAP4 POP PUSH2 0x394D DUP4 PUSH2 0x38E9 JUMP JUMPDEST DUP1 PUSH1 0x0 JUMPDEST DUP4 DUP2 LT ISZERO PUSH2 0x397E JUMPI DUP2 MLOAD PUSH2 0x3965 DUP9 DUP3 PUSH2 0x3908 JUMP JUMPDEST SWAP8 POP PUSH2 0x3970 DUP4 PUSH2 0x3920 JUMP JUMPDEST SWAP3 POP POP PUSH1 0x1 DUP2 ADD SWAP1 POP PUSH2 0x3951 JUMP JUMPDEST POP DUP6 SWAP4 POP POP POP POP SWAP3 SWAP2 POP POP JUMP JUMPDEST PUSH1 0x0 PUSH1 0xA0 DUP3 ADD SWAP1 POP PUSH2 0x39A0 PUSH1 0x0 DUP4 ADD DUP9 PUSH2 0x2AAF JUMP JUMPDEST PUSH2 0x39AD PUSH1 0x20 DUP4 ADD DUP8 PUSH2 0x38BE JUMP JUMPDEST DUP2 DUP2 SUB PUSH1 0x40 DUP4 ADD MSTORE PUSH2 0x39BF DUP2 DUP7 PUSH2 0x392D JUMP JUMPDEST SWAP1 POP PUSH2 0x39CE PUSH1 0x60 DUP4 ADD DUP6 PUSH2 0x2BBD JUMP JUMPDEST PUSH2 0x39DB PUSH1 0x80 DUP4 ADD DUP5 PUSH2 0x2AAF JUMP JUMPDEST SWAP7 SWAP6 POP POP POP POP POP POP JUMP JUMPDEST PUSH1 0x0 PUSH1 0xC0 DUP3 ADD SWAP1 POP PUSH2 0x39FA PUSH1 0x0 DUP4 ADD DUP10 PUSH2 0x2BBD JUMP JUMPDEST PUSH2 0x3A07 PUSH1 0x20 DUP4 ADD DUP9 PUSH2 0x2AAF JUMP JUMPDEST PUSH2 0x3A14 PUSH1 0x40 DUP4 ADD DUP8 PUSH2 0x38BE JUMP JUMPDEST PUSH2 0x3A21 PUSH1 0x60 DUP4 ADD DUP7 PUSH2 0x38BE JUMP JUMPDEST PUSH2 0x3A2E PUSH1 0x80 DUP4 ADD DUP6 PUSH2 0x2BBD JUMP JUMPDEST PUSH2 0x3A3B PUSH1 0xA0 DUP4 ADD DUP5 PUSH2 0x2AAF JUMP JUMPDEST SWAP8 SWAP7 POP POP POP POP POP POP POP JUMP JUMPDEST PUSH1 0x0 DUP2 MLOAD SWAP1 POP PUSH2 0x3A55 DUP2 PUSH2 0x2993 JUMP JUMPDEST SWAP3 SWAP2 POP POP JUMP JUMPDEST PUSH1 0x0 DUP1 PUSH1 0x0 PUSH1 0x60 DUP5 DUP7 SUB SLT ISZERO PUSH2 0x3A74 JUMPI PUSH2 0x3A73 PUSH2 0x2921 JUMP JUMPDEST JUMPDEST PUSH1 0x0 PUSH2 0x3A82 DUP7 DUP3 DUP8 ADD PUSH2 0x3A46 JUMP JUMPDEST SWAP4 POP POP PUSH1 0x20 PUSH2 0x3A93 DUP7 DUP3 DUP8 ADD PUSH2 0x3A46 JUMP JUMPDEST SWAP3 POP POP PUSH1 0x40 PUSH2 0x3AA4 DUP7 DUP3 DUP8 ADD PUSH2 0x3A46 JUMP JUMPDEST SWAP2 POP POP SWAP3 POP SWAP3 POP SWAP3 JUMP INVALID LOG2 PUSH5 0x6970667358 0x22 SLT KECCAK256 MSTORE AND PUSH27 0x1B4DDDF6D1A0EF0590ACA982A51E128ACE76C8C2790FA8DD07A23D 0xC6 LOG4 PUSH5 0x736F6C6343 STOP ADDMOD SGT STOP CALLER "
				},
				"gasEstimates": {
					"creation": {
						"codeDepositCost": "3015200",
						"executionCost": "infinite",
						"totalCost": "infinite"
					},
					"external": {
						"": "242",
						"TransferEx(address[],uint256)": "infinite",
						"_buyTaxPercentage()": "2473",
						"_buyTaxShare()": "2561",
						"_liquidityTaxPercentage()": "2563",
						"_liquidityTaxShare()": "2495",
						"_liquidityThreshold()": "2497",
						"_paused()": "2634",
						"_sellTaxPercentage()": "2540",
						"_sellTaxShare()": "2496",
						"_uniswapPair()": "2582",
						"addToBlacklist(address)": "infinite",
						"allowance(address,address)": "infinite",
						"approve(address,uint256)": "infinite",
						"automatedMarketMakerPairs(address)": "2956",
						"balanceOf(address)": "2974",
						"decimals()": "433",
						"isBlacklisted(address)": "3037",
						"isExcludedFromFee(address)": "2973",
						"isPaused()": "2618",
						"marketingWallet()": "2560",
						"name()": "infinite",
						"owner()": "2634",
						"pause()": "26815",
						"removeFromBlacklist(address)": "infinite",
						"renounceOwnership()": "30553",
						"rescueETH()": "infinite",
						"setAutomatedMarketMakerPair(address,bool)": "29527",
						"setBuyTaxPercentage(uint256)": "infinite",
						"setExcludedFromFee(address,bool)": "27322",
						"setLiquidityTaxPercentage(uint256)": "infinite",
						"setLiquidityThreshold(uint256)": "24830",
						"setMarketingWallet(address)": "27031",
						"setSellTaxPercentage(uint256)": "infinite",
						"swapEnabled()": "2632",
						"symbol()": "infinite",
						"totalSupply()": "2572",
						"transfer(address,uint256)": "infinite",
						"transferFrom(address,address,uint256)": "infinite",
						"transferOwnership(address)": "30854",
						"uniswapV2Router()": "infinite",
						"unpause()": "26837",
						"updateSwapEnabled(bool)": "27127"
					},
					"internal": {
						"_approve(address,address,uint256)": "infinite",
						"_calculateTax(uint256,uint256)": "infinite",
						"_setAutomatedMarketMakerPair(address,bool)": "24376",
						"_spendAllowance(address,address,uint256)": "infinite",
						"_transfer(address,address,uint256)": "infinite",
						"_transferTokens(address,address,uint256)": "infinite",
						"addLiquidity(uint256,uint256)": "infinite",
						"swapAndLiquify()": "infinite",
						"swapTokensForEth(uint256)": "infinite"
					}
				},
				"methodIdentifiers": {
					"TransferEx(address[],uint256)": "ba414b10",
					"_buyTaxPercentage()": "c410ab5e",
					"_buyTaxShare()": "f7e53337",
					"_liquidityTaxPercentage()": "549fb8bf",
					"_liquidityTaxShare()": "dd3a1f76",
					"_liquidityThreshold()": "77c068ec",
					"_paused()": "16c61ccc",
					"_sellTaxPercentage()": "a562564a",
					"_sellTaxShare()": "aaa00b99",
					"_uniswapPair()": "4bf28fd0",
					"addToBlacklist(address)": "44337ea1",
					"allowance(address,address)": "dd62ed3e",
					"approve(address,uint256)": "095ea7b3",
					"automatedMarketMakerPairs(address)": "b62496f5",
					"balanceOf(address)": "70a08231",
					"decimals()": "313ce567",
					"isBlacklisted(address)": "fe575a87",
					"isExcludedFromFee(address)": "5342acb4",
					"isPaused()": "b187bd26",
					"marketingWallet()": "75f0a874",
					"name()": "06fdde03",
					"owner()": "8da5cb5b",
					"pause()": "8456cb59",
					"removeFromBlacklist(address)": "537df3b6",
					"renounceOwnership()": "715018a6",
					"rescueETH()": "20800a00",
					"setAutomatedMarketMakerPair(address,bool)": "9a7a23d6",
					"setBuyTaxPercentage(uint256)": "a56d37f9",
					"setExcludedFromFee(address,bool)": "6612e66f",
					"setLiquidityTaxPercentage(uint256)": "6dbff43b",
					"setLiquidityThreshold(uint256)": "4baf59f3",
					"setMarketingWallet(address)": "5d098b38",
					"setSellTaxPercentage(uint256)": "9ec4be41",
					"swapEnabled()": "6ddd1713",
					"symbol()": "95d89b41",
					"totalSupply()": "18160ddd",
					"transfer(address,uint256)": "a9059cbb",
					"transferFrom(address,address,uint256)": "23b872dd",
					"transferOwnership(address)": "f2fde38b",
					"uniswapV2Router()": "1694505e",
					"unpause()": "3f4ba83a",
					"updateSwapEnabled(bool)": "924de9b7"
				}
			},
			"storageLayout": {
				"storage": [
					{
						"astId": 26,
						"contract": "Fop.sol:FOPToken",
						"label": "_owner",
						"offset": 0,
						"slot": "0",
						"type": "t_address"
					},
					{
						"astId": 353,
						"contract": "Fop.sol:FOPToken",
						"label": "_totalSupply",
						"offset": 0,
						"slot": "1",
						"type": "t_uint256"
					},
					{
						"astId": 357,
						"contract": "Fop.sol:FOPToken",
						"label": "_balances",
						"offset": 0,
						"slot": "2",
						"type": "t_mapping(t_address,t_uint256)"
					},
					{
						"astId": 363,
						"contract": "Fop.sol:FOPToken",
						"label": "_allowances",
						"offset": 0,
						"slot": "3",
						"type": "t_mapping(t_address,t_mapping(t_address,t_uint256))"
					},
					{
						"astId": 367,
						"contract": "Fop.sol:FOPToken",
						"label": "blacklisted",
						"offset": 0,
						"slot": "4",
						"type": "t_mapping(t_address,t_bool)"
					},
					{
						"astId": 371,
						"contract": "Fop.sol:FOPToken",
						"label": "_isExcludedFromFee",
						"offset": 0,
						"slot": "5",
						"type": "t_mapping(t_address,t_bool)"
					},
					{
						"astId": 375,
						"contract": "Fop.sol:FOPToken",
						"label": "automatedMarketMakerPairs",
						"offset": 0,
						"slot": "6",
						"type": "t_mapping(t_address,t_bool)"
					},
					{
						"astId": 377,
						"contract": "Fop.sol:FOPToken",
						"label": "marketingWallet",
						"offset": 0,
						"slot": "7",
						"type": "t_address"
					},
					{
						"astId": 380,
						"contract": "Fop.sol:FOPToken",
						"label": "_buyTaxPercentage",
						"offset": 0,
						"slot": "8",
						"type": "t_uint256"
					},
					{
						"astId": 383,
						"contract": "Fop.sol:FOPToken",
						"label": "_sellTaxPercentage",
						"offset": 0,
						"slot": "9",
						"type": "t_uint256"
					},
					{
						"astId": 386,
						"contract": "Fop.sol:FOPToken",
						"label": "_liquidityTaxPercentage",
						"offset": 0,
						"slot": "10",
						"type": "t_uint256"
					},
					{
						"astId": 396,
						"contract": "Fop.sol:FOPToken",
						"label": "_liquidityThreshold",
						"offset": 0,
						"slot": "11",
						"type": "t_uint256"
					},
					{
						"astId": 399,
						"contract": "Fop.sol:FOPToken",
						"label": "_buyTaxShare",
						"offset": 0,
						"slot": "12",
						"type": "t_uint256"
					},
					{
						"astId": 402,
						"contract": "Fop.sol:FOPToken",
						"label": "_sellTaxShare",
						"offset": 0,
						"slot": "13",
						"type": "t_uint256"
					},
					{
						"astId": 405,
						"contract": "Fop.sol:FOPToken",
						"label": "_liquidityTaxShare",
						"offset": 0,
						"slot": "14",
						"type": "t_uint256"
					},
					{
						"astId": 408,
						"contract": "Fop.sol:FOPToken",
						"label": "uniswapV2Router",
						"offset": 0,
						"slot": "15",
						"type": "t_contract(IUniswapV2Router02)332"
					},
					{
						"astId": 410,
						"contract": "Fop.sol:FOPToken",
						"label": "_uniswapPair",
						"offset": 0,
						"slot": "16",
						"type": "t_address"
					},
					{
						"astId": 412,
						"contract": "Fop.sol:FOPToken",
						"label": "_paused",
						"offset": 20,
						"slot": "16",
						"type": "t_bool"
					},
					{
						"astId": 414,
						"contract": "Fop.sol:FOPToken",
						"label": "swapping",
						"offset": 21,
						"slot": "16",
						"type": "t_bool"
					},
					{
						"astId": 417,
						"contract": "Fop.sol:FOPToken",
						"label": "swapEnabled",
						"offset": 22,
						"slot": "16",
						"type": "t_bool"
					}
				],
				"types": {
					"t_address": {
						"encoding": "inplace",
						"label": "address",
						"numberOfBytes": "20"
					},
					"t_bool": {
						"encoding": "inplace",
						"label": "bool",
						"numberOfBytes": "1"
					},
					"t_contract(IUniswapV2Router02)332": {
						"encoding": "inplace",
						"label": "contract IUniswapV2Router02",
						"numberOfBytes": "20"
					},
					"t_mapping(t_address,t_bool)": {
						"encoding": "mapping",
						"key": "t_address",
						"label": "mapping(address => bool)",
						"numberOfBytes": "32",
						"value": "t_bool"
					},
					"t_mapping(t_address,t_mapping(t_address,t_uint256))": {
						"encoding": "mapping",
						"key": "t_address",
						"label": "mapping(address => mapping(address => uint256))",
						"numberOfBytes": "32",
						"value": "t_mapping(t_address,t_uint256)"
					},
					"t_mapping(t_address,t_uint256)": {
						"encoding": "mapping",
						"key": "t_address",
						"label": "mapping(address => uint256)",
						"numberOfBytes": "32",
						"value": "t_uint256"
					},
					"t_uint256": {
						"encoding": "inplace",
						"label": "uint256",
						"numberOfBytes": "32"
					}
				}
			},
			"userdoc": {
				"kind": "user",
				"methods": {},
				"version": 1
			}
		}
	}
}