{
	"Catch.sol": {
		"Ownable": {
			"abi": [
				{
					"inputs": [],
					"stateMutability": "nonpayable",
					"type": "constructor"
				},
				{
					"anonymous": false,
					"inputs": [
						{
							"indexed": false,
							"internalType": "address",
							"name": "owner",
							"type": "address"
						},
						{
							"indexed": false,
							"internalType": "address",
							"name": "newOwner",
							"type": "address"
						},
						{
							"indexed": false,
							"internalType": "uint256",
							"name": "lockTime",
							"type": "uint256"
						}
					],
					"name": "Locked",
					"type": "event"
				},
				{
					"anonymous": false,
					"inputs": [
						{
							"indexed": true,
							"internalType": "address",
							"name": "previousOwner",
							"type": "address"
						},
						{
							"indexed": true,
							"internalType": "address",
							"name": "newOwner",
							"type": "address"
						}
					],
					"name": "OwnershipTransferred",
					"type": "event"
				},
				{
					"inputs": [],
					"name": "geUnlockTime",
					"outputs": [
						{
							"internalType": "uint256",
							"name": "",
							"type": "uint256"
						}
					],
					"stateMutability": "view",
					"type": "function"
				},
				{
					"inputs": [
						{
							"internalType": "uint256",
							"name": "time",
							"type": "uint256"
						}
					],
					"name": "lock",
					"outputs": [],
					"stateMutability": "nonpayable",
					"type": "function"
				},
				{
					"inputs": [],
					"name": "owner",
					"outputs": [
						{
							"internalType": "address",
							"name": "",
							"type": "address"
						}
					],
					"stateMutability": "view",
					"type": "function"
				},
				{
					"inputs": [],
					"name": "renounceOwnership",
					"outputs": [],
					"stateMutability": "nonpayable",
					"type": "function"
				},
				{
					"inputs": [
						{
							"internalType": "address",
							"name": "newOwner",
							"type": "address"
						}
					],
					"name": "transferOwnership",
					"outputs": [],
					"stateMutability": "nonpayable",
					"type": "function"
				},
				{
					"inputs": [],
					"name": "unlock",
					"outputs": [],
					"stateMutability": "nonpayable",
					"type": "function"
				}
			],
			"devdoc": {
				"details": "Contract module which provides a basic access control mechanism, where there is an account (an owner) that can be granted exclusive access to specific functions. By default, the owner account will be the one that deploys the contract. This can later be changed with {transferOwnership}. This module is used through inheritance. It will make available the modifier `onlyOwner`, which can be applied to your functions to restrict their use to the owner.",
				"kind": "dev",
				"methods": {
					"constructor": {
						"details": "Initializes the contract setting the deployer as the initial owner."
					},
					"owner()": {
						"details": "Returns the address of the current owner."
					},
					"renounceOwnership()": {
						"details": "Leaves the contract without owner. It will not be possible to call `onlyOwner` functions anymore. Can only be called by the current owner. NOTE: Renouncing ownership will leave the contract without an owner, thereby removing any functionality that is only available to the owner."
					},
					"transferOwnership(address)": {
						"details": "Transfers ownership of the contract to a new account (`newOwner`). Can only be called by the current owner."
					}
				},
				"version": 1
			},
			"evm": {
				"assembly": "    /* \"Catch.sol\":4913:7514  contract Ownable is Context {... */\n  mstore(0x40, 0x80)\n    /* \"Catch.sol\":5308:5463  constructor ()  {... */\n  callvalue\n  dup1\n  iszero\n  tag_1\n  jumpi\n  0x00\n  dup1\n  revert\ntag_1:\n  pop\n    /* \"Catch.sol\":5335:5352  address msgSender */\n  0x00\n    /* \"Catch.sol\":5378:5396  _owner = msgSender */\n  dup1\n  sload\n  not(sub(shl(0xa0, 0x01), 0x01))\n  and\n    /* \"Catch.sol\":4139:4149  msg.sender */\n  caller\n    /* \"Catch.sol\":5378:5396  _owner = msgSender */\n  swap1\n  dup2\n  or\n  dup3\n  sstore\n    /* \"Catch.sol\":5412:5455  OwnershipTransferred(address(0), msgSender) */\n  mload(0x40)\n    /* \"Catch.sol\":4139:4149  msg.sender */\n  swap1\n  swap2\n  dup3\n  swap2\n    /* \"Catch.sol\":5412:5455  OwnershipTransferred(address(0), msgSender) */\n  0x8be0079c531659141344cd1fd0a4f28419497f9722a3daafe3b4186f6b6457e0\n  swap1\n    /* \"Catch.sol\":5335:5352  address msgSender */\n  dup3\n  swap1\n    /* \"Catch.sol\":5412:5455  OwnershipTransferred(address(0), msgSender) */\n  log3\n    /* \"Catch.sol\":5324:5463  {... */\n  pop\n    /* \"Catch.sol\":4913:7514  contract Ownable is Context {... */\n  dataSize(sub_0)\n  dup1\n  dataOffset(sub_0)\n  0x00\n  codecopy\n  0x00\n  return\nstop\n\nsub_0: assembly {\n        /* \"Catch.sol\":4913:7514  contract Ownable is Context {... */\n      mstore(0x40, 0x80)\n      callvalue\n      dup1\n      iszero\n      tag_1\n      jumpi\n      0x00\n      dup1\n      revert\n    tag_1:\n      pop\n      jumpi(tag_2, lt(calldatasize, 0x04))\n      shr(0xe0, calldataload(0x00))\n      dup1\n      0x715018a6\n      eq\n      tag_3\n      jumpi\n      dup1\n      0x8da5cb5b\n      eq\n      tag_4\n      jumpi\n      dup1\n      0xa69df4b5\n      eq\n      tag_5\n      jumpi\n      dup1\n      0xb6c52324\n      eq\n      tag_6\n      jumpi\n      dup1\n      0xdd467064\n      eq\n      tag_7\n      jumpi\n      dup1\n      0xf2fde38b\n      eq\n      tag_8\n      jumpi\n    tag_2:\n      0x00\n      dup1\n      revert\n        /* \"Catch.sol\":6187:6335  function renounceOwnership() public virtual onlyOwner {... */\n    tag_3:\n      tag_9\n      tag_10\n      jump\t// in\n    tag_9:\n      stop\n        /* \"Catch.sol\":5544:5623  function owner() public view returns (address) {... */\n    tag_4:\n        /* \"Catch.sol\":5582:5589  address */\n      0x00\n        /* \"Catch.sol\":5609:5615  _owner */\n      sload\n        /* \"Catch.sol\":5544:5623  function owner() public view returns (address) {... */\n      mload(0x40)\n      sub(shl(0xa0, 0x01), 0x01)\n        /* \"Catch.sol\":5609:5615  _owner */\n      swap1\n      swap2\n      and\n        /* \"#utility.yul\":160:211   */\n      dup2\n      mstore\n        /* \"#utility.yul\":148:150   */\n      0x20\n        /* \"#utility.yul\":133:151   */\n      add\n        /* \"Catch.sol\":5544:5623  function owner() public view returns (address) {... */\n    tag_13:\n      mload(0x40)\n      dup1\n      swap2\n      sub\n      swap1\n      return\n        /* \"Catch.sol\":7205:7511  function unlock() public virtual {... */\n    tag_5:\n      tag_9\n      tag_16\n      jump\t// in\n        /* \"Catch.sol\":6742:6831  function geUnlockTime() public view returns (uint256) {... */\n    tag_6:\n        /* \"Catch.sol\":6814:6823  _lockTime */\n      sload(0x02)\n        /* \"Catch.sol\":6742:6831  function geUnlockTime() public view returns (uint256) {... */\n      mload(0x40)\n        /* \"#utility.yul\":368:393   */\n      swap1\n      dup2\n      mstore\n        /* \"#utility.yul\":356:358   */\n      0x20\n        /* \"#utility.yul\":341:359   */\n      add\n        /* \"Catch.sol\":6742:6831  function geUnlockTime() public view returns (uint256) {... */\n      tag_13\n        /* \"#utility.yul\":222:399   */\n      jump\n        /* \"Catch.sol\":6907:7129  function lock(uint256 time) public virtual onlyOwner {... */\n    tag_7:\n      tag_9\n      tag_22\n      calldatasize\n      0x04\n      tag_23\n      jump\t// in\n    tag_22:\n      tag_24\n      jump\t// in\n        /* \"Catch.sol\":6490:6734  function transferOwnership(address newOwner) public virtual onlyOwner {... */\n    tag_8:\n      tag_9\n      tag_26\n      calldatasize\n      0x04\n      tag_27\n      jump\t// in\n    tag_26:\n      tag_28\n      jump\t// in\n        /* \"Catch.sol\":6187:6335  function renounceOwnership() public virtual onlyOwner {... */\n    tag_10:\n        /* \"Catch.sol\":5756:5762  _owner */\n      and(sub(shl(0xa0, 0x01), 0x01), sload(0x00))\n        /* \"Catch.sol\":4139:4149  msg.sender */\n      caller\n        /* \"Catch.sol\":5756:5778  _owner == _msgSender() */\n      eq\n        /* \"Catch.sol\":5748:5815  require(_owner == _msgSender(), \"Ownable: caller is not the owner\") */\n      tag_32\n      jumpi\n      mload(0x40)\n      shl(0xe5, 0x461bcd)\n      dup2\n      mstore\n      0x04\n      add\n      tag_33\n      swap1\n      tag_34\n      jump\t// in\n    tag_33:\n      mload(0x40)\n      dup1\n      swap2\n      sub\n      swap1\n      revert\n    tag_32:\n        /* \"Catch.sol\":6294:6295  0 */\n      0x00\n        /* \"Catch.sol\":6278:6284  _owner */\n      dup1\n      sload\n        /* \"Catch.sol\":6257:6297  OwnershipTransferred(_owner, address(0)) */\n      mload(0x40)\n      sub(shl(0xa0, 0x01), 0x01)\n        /* \"Catch.sol\":6278:6284  _owner */\n      swap1\n      swap2\n      and\n      swap1\n        /* \"Catch.sol\":6257:6297  OwnershipTransferred(_owner, address(0)) */\n      0x8be0079c531659141344cd1fd0a4f28419497f9722a3daafe3b4186f6b6457e0\n      swap1\n        /* \"Catch.sol\":6294:6295  0 */\n      dup4\n      swap1\n        /* \"Catch.sol\":6257:6297  OwnershipTransferred(_owner, address(0)) */\n      log3\n        /* \"Catch.sol\":6325:6326  0 */\n      0x00\n        /* \"Catch.sol\":6308:6327  _owner = address(0) */\n      dup1\n      sload\n      not(sub(shl(0xa0, 0x01), 0x01))\n      and\n      swap1\n      sstore\n        /* \"Catch.sol\":6187:6335  function renounceOwnership() public virtual onlyOwner {... */\n      jump\t// out\n        /* \"Catch.sol\":7205:7511  function unlock() public virtual {... */\n    tag_16:\n        /* \"Catch.sol\":7257:7271  _previousOwner */\n      and(sub(shl(0xa0, 0x01), 0x01), sload(0x01))\n        /* \"Catch.sol\":7275:7285  msg.sender */\n      caller\n        /* \"Catch.sol\":7257:7285  _previousOwner == msg.sender */\n      eq\n        /* \"Catch.sol\":7249:7326  require(_previousOwner == msg.sender, \"You do not have permission to unlock\") */\n      tag_38\n      jumpi\n      mload(0x40)\n      shl(0xe5, 0x461bcd)\n      dup2\n      mstore\n        /* \"#utility.yul\":1443:1445   */\n      0x20\n        /* \"Catch.sol\":7249:7326  require(_previousOwner == msg.sender, \"You do not have permission to unlock\") */\n      0x04\n      dup3\n      add\n        /* \"#utility.yul\":1425:1446   */\n      mstore\n        /* \"#utility.yul\":1482:1484   */\n      0x24\n        /* \"#utility.yul\":1462:1480   */\n      dup1\n      dup3\n      add\n        /* \"#utility.yul\":1455:1485   */\n      mstore\n        /* \"#utility.yul\":1521:1555   */\n      0x596f7520646f206e6f742068617665207065726d697373696f6e20746f20756e\n        /* \"#utility.yul\":1501:1519   */\n      0x44\n      dup3\n      add\n        /* \"#utility.yul\":1494:1556   */\n      mstore\n      shl(0xe0, 0x6c6f636b)\n        /* \"#utility.yul\":1572:1590   */\n      0x64\n      dup3\n      add\n        /* \"#utility.yul\":1565:1599   */\n      mstore\n        /* \"#utility.yul\":1616:1635   */\n      0x84\n      add\n        /* \"Catch.sol\":7249:7326  require(_previousOwner == msg.sender, \"You do not have permission to unlock\") */\n      tag_33\n        /* \"#utility.yul\":1241:1641   */\n      jump\n        /* \"Catch.sol\":7249:7326  require(_previousOwner == msg.sender, \"You do not have permission to unlock\") */\n    tag_38:\n        /* \"Catch.sol\":7363:7372  _lockTime */\n      sload(0x02)\n        /* \"Catch.sol\":7345:7360  block.timestamp */\n      timestamp\n        /* \"Catch.sol\":7345:7372  block.timestamp > _lockTime */\n      gt\n        /* \"Catch.sol\":7337:7409  require(block.timestamp > _lockTime , \"Contract is locked until 7 days\") */\n      tag_41\n      jumpi\n      mload(0x40)\n      shl(0xe5, 0x461bcd)\n      dup2\n      mstore\n        /* \"#utility.yul\":1848:1850   */\n      0x20\n        /* \"Catch.sol\":7337:7409  require(block.timestamp > _lockTime , \"Contract is locked until 7 days\") */\n      0x04\n      dup3\n      add\n        /* \"#utility.yul\":1830:1851   */\n      mstore\n        /* \"#utility.yul\":1887:1889   */\n      0x1f\n        /* \"#utility.yul\":1867:1885   */\n      0x24\n      dup3\n      add\n        /* \"#utility.yul\":1860:1890   */\n      mstore\n        /* \"#utility.yul\":1926:1959   */\n      0x436f6e7472616374206973206c6f636b656420756e74696c2037206461797300\n        /* \"#utility.yul\":1906:1924   */\n      0x44\n      dup3\n      add\n        /* \"#utility.yul\":1899:1960   */\n      mstore\n        /* \"#utility.yul\":1977:1995   */\n      0x64\n      add\n        /* \"Catch.sol\":7337:7409  require(block.timestamp > _lockTime , \"Contract is locked until 7 days\") */\n      tag_33\n        /* \"#utility.yul\":1646:2001   */\n      jump\n        /* \"Catch.sol\":7337:7409  require(block.timestamp > _lockTime , \"Contract is locked until 7 days\") */\n    tag_41:\n        /* \"Catch.sol\":7454:7468  _previousOwner */\n      sload(0x01)\n      0x00\n        /* \"Catch.sol\":7446:7452  _owner */\n      dup1\n      sload\n        /* \"Catch.sol\":7425:7469  OwnershipTransferred(_owner, _previousOwner) */\n      mload(0x40)\n      sub(shl(0xa0, 0x01), 0x01)\n        /* \"Catch.sol\":7454:7468  _previousOwner */\n      swap4\n      dup5\n      and\n      swap4\n        /* \"Catch.sol\":7446:7452  _owner */\n      swap1\n      swap2\n      and\n      swap2\n        /* \"Catch.sol\":7425:7469  OwnershipTransferred(_owner, _previousOwner) */\n      0x8be0079c531659141344cd1fd0a4f28419497f9722a3daafe3b4186f6b6457e0\n      swap2\n      log3\n        /* \"Catch.sol\":7489:7503  _previousOwner */\n      sload(0x01)\n      0x00\n        /* \"Catch.sol\":7480:7503  _owner = _previousOwner */\n      dup1\n      sload\n      not(sub(shl(0xa0, 0x01), 0x01))\n      and\n      sub(shl(0xa0, 0x01), 0x01)\n        /* \"Catch.sol\":7489:7503  _previousOwner */\n      swap1\n      swap3\n      and\n        /* \"Catch.sol\":7480:7503  _owner = _previousOwner */\n      swap2\n      swap1\n      swap2\n      or\n      swap1\n      sstore\n        /* \"Catch.sol\":7205:7511  function unlock() public virtual {... */\n      jump\t// out\n        /* \"Catch.sol\":6907:7129  function lock(uint256 time) public virtual onlyOwner {... */\n    tag_24:\n        /* \"Catch.sol\":5756:5762  _owner */\n      and(sub(shl(0xa0, 0x01), 0x01), sload(0x00))\n        /* \"Catch.sol\":4139:4149  msg.sender */\n      caller\n        /* \"Catch.sol\":5756:5778  _owner == _msgSender() */\n      eq\n        /* \"Catch.sol\":5748:5815  require(_owner == _msgSender(), \"Ownable: caller is not the owner\") */\n      tag_47\n      jumpi\n      mload(0x40)\n      shl(0xe5, 0x461bcd)\n      dup2\n      mstore\n      0x04\n      add\n      tag_33\n      swap1\n      tag_34\n      jump\t// in\n    tag_47:\n        /* \"Catch.sol\":6988:6994  _owner */\n      0x00\n      dup1\n      sload\n      0x01\n        /* \"Catch.sol\":6971:6994  _previousOwner = _owner */\n      dup1\n      sload\n      not(sub(shl(0xa0, 0x01), 0x01))\n      swap1\n      dup2\n      and\n      sub(shl(0xa0, 0x01), 0x01)\n        /* \"Catch.sol\":6988:6994  _owner */\n      dup5\n      and\n        /* \"Catch.sol\":6971:6994  _previousOwner = _owner */\n      or\n      swap1\n      swap2\n      sstore\n        /* \"Catch.sol\":7005:7024  _owner = address(0) */\n      and\n      swap1\n      sstore\n        /* \"Catch.sol\":7047:7069  block.timestamp + time */\n      tag_50\n        /* \"Catch.sol\":7065:7069  time */\n      dup2\n        /* \"Catch.sol\":7047:7062  block.timestamp */\n      timestamp\n        /* \"Catch.sol\":7047:7069  block.timestamp + time */\n      tag_51\n      jump\t// in\n    tag_50:\n        /* \"Catch.sol\":7035:7044  _lockTime */\n      0x02\n        /* \"Catch.sol\":7035:7069  _lockTime = block.timestamp + time */\n      dup2\n      swap1\n      sstore\n        /* \"Catch.sol\":7092:7098  _owner */\n      0x00\n      dup1\n      sload\n        /* \"Catch.sol\":7085:7121  Locked(_owner, address(0),_lockTime) */\n      0x40\n      dup1\n      mload\n      sub(shl(0xa0, 0x01), 0x01)\n        /* \"Catch.sol\":7092:7098  _owner */\n      swap1\n      swap3\n      and\n        /* \"#utility.yul\":2473:2507   */\n      dup3\n      mstore\n        /* \"#utility.yul\":2538:2540   */\n      0x20\n        /* \"#utility.yul\":2523:2541   */\n      dup3\n      add\n        /* \"#utility.yul\":2516:2559   */\n      swap3\n      swap1\n      swap3\n      mstore\n        /* \"#utility.yul\":2575:2593   */\n      dup1\n      dup3\n      add\n        /* \"#utility.yul\":2568:2602   */\n      swap3\n      swap1\n      swap3\n      mstore\n        /* \"Catch.sol\":7085:7121  Locked(_owner, address(0),_lockTime) */\n      mload\n      0x989eaa915cbb416ea3d6f9a63b1a3de51770c7674b11fe21ecdf76b4e1d13910\n      swap2\n      dup2\n      swap1\n      sub\n        /* \"#utility.yul\":2423:2425   */\n      0x60\n        /* \"Catch.sol\":7085:7121  Locked(_owner, address(0),_lockTime) */\n      add\n      swap1\n      log1\n        /* \"Catch.sol\":6907:7129  function lock(uint256 time) public virtual onlyOwner {... */\n      pop\n      jump\t// out\n        /* \"Catch.sol\":6490:6734  function transferOwnership(address newOwner) public virtual onlyOwner {... */\n    tag_28:\n        /* \"Catch.sol\":5756:5762  _owner */\n      and(sub(shl(0xa0, 0x01), 0x01), sload(0x00))\n        /* \"Catch.sol\":4139:4149  msg.sender */\n      caller\n        /* \"Catch.sol\":5756:5778  _owner == _msgSender() */\n      eq\n        /* \"Catch.sol\":5748:5815  require(_owner == _msgSender(), \"Ownable: caller is not the owner\") */\n      tag_56\n      jumpi\n      mload(0x40)\n      shl(0xe5, 0x461bcd)\n      dup2\n      mstore\n      0x04\n      add\n      tag_33\n      swap1\n      tag_34\n      jump\t// in\n    tag_56:\n      sub(shl(0xa0, 0x01), 0x01)\n        /* \"Catch.sol\":6579:6601  newOwner != address(0) */\n      dup2\n      and\n        /* \"Catch.sol\":6571:6644  require(newOwner != address(0), \"Ownable: new owner is the zero address\") */\n      tag_59\n      jumpi\n      mload(0x40)\n      shl(0xe5, 0x461bcd)\n      dup2\n      mstore\n        /* \"#utility.yul\":2815:2817   */\n      0x20\n        /* \"Catch.sol\":6571:6644  require(newOwner != address(0), \"Ownable: new owner is the zero address\") */\n      0x04\n      dup3\n      add\n        /* \"#utility.yul\":2797:2818   */\n      mstore\n        /* \"#utility.yul\":2854:2856   */\n      0x26\n        /* \"#utility.yul\":2834:2852   */\n      0x24\n      dup3\n      add\n        /* \"#utility.yul\":2827:2857   */\n      mstore\n        /* \"#utility.yul\":2893:2927   */\n      0x4f776e61626c653a206e6577206f776e657220697320746865207a65726f2061\n        /* \"#utility.yul\":2873:2891   */\n      0x44\n      dup3\n      add\n        /* \"#utility.yul\":2866:2928   */\n      mstore\n      shl(0xd0, 0x646472657373)\n        /* \"#utility.yul\":2944:2962   */\n      0x64\n      dup3\n      add\n        /* \"#utility.yul\":2937:2973   */\n      mstore\n        /* \"#utility.yul\":2990:3009   */\n      0x84\n      add\n        /* \"Catch.sol\":6571:6644  require(newOwner != address(0), \"Ownable: new owner is the zero address\") */\n      tag_33\n        /* \"#utility.yul\":2613:3015   */\n      jump\n        /* \"Catch.sol\":6571:6644  require(newOwner != address(0), \"Ownable: new owner is the zero address\") */\n    tag_59:\n        /* \"Catch.sol\":6681:6687  _owner */\n      0x00\n      dup1\n      sload\n        /* \"Catch.sol\":6660:6698  OwnershipTransferred(_owner, newOwner) */\n      mload(0x40)\n      sub(shl(0xa0, 0x01), 0x01)\n      dup1\n      dup6\n      and\n      swap4\n        /* \"Catch.sol\":6681:6687  _owner */\n      swap3\n      and\n      swap2\n        /* \"Catch.sol\":6660:6698  OwnershipTransferred(_owner, newOwner) */\n      0x8be0079c531659141344cd1fd0a4f28419497f9722a3daafe3b4186f6b6457e0\n      swap2\n      log3\n        /* \"Catch.sol\":6709:6715  _owner */\n      0x00\n        /* \"Catch.sol\":6709:6726  _owner = newOwner */\n      dup1\n      sload\n      not(sub(shl(0xa0, 0x01), 0x01))\n      and\n      sub(shl(0xa0, 0x01), 0x01)\n      swap3\n      swap1\n      swap3\n      and\n      swap2\n      swap1\n      swap2\n      or\n      swap1\n      sstore\n        /* \"Catch.sol\":6490:6734  function transferOwnership(address newOwner) public virtual onlyOwner {... */\n      jump\t// out\n        /* \"#utility.yul\":404:584   */\n    tag_23:\n        /* \"#utility.yul\":463:469   */\n      0x00\n        /* \"#utility.yul\":516:518   */\n      0x20\n        /* \"#utility.yul\":504:513   */\n      dup3\n        /* \"#utility.yul\":495:502   */\n      dup5\n        /* \"#utility.yul\":491:514   */\n      sub\n        /* \"#utility.yul\":487:519   */\n      slt\n        /* \"#utility.yul\":484:536   */\n      iszero\n      tag_67\n      jumpi\n        /* \"#utility.yul\":532:533   */\n      0x00\n        /* \"#utility.yul\":529:530   */\n      dup1\n        /* \"#utility.yul\":522:534   */\n      revert\n        /* \"#utility.yul\":484:536   */\n    tag_67:\n      pop\n        /* \"#utility.yul\":555:578   */\n      calldataload\n      swap2\n        /* \"#utility.yul\":404:584   */\n      swap1\n      pop\n      jump\t// out\n        /* \"#utility.yul\":589:875   */\n    tag_27:\n        /* \"#utility.yul\":648:654   */\n      0x00\n        /* \"#utility.yul\":701:703   */\n      0x20\n        /* \"#utility.yul\":689:698   */\n      dup3\n        /* \"#utility.yul\":680:687   */\n      dup5\n        /* \"#utility.yul\":676:699   */\n      sub\n        /* \"#utility.yul\":672:704   */\n      slt\n        /* \"#utility.yul\":669:721   */\n      iszero\n      tag_69\n      jumpi\n        /* \"#utility.yul\":717:718   */\n      0x00\n        /* \"#utility.yul\":714:715   */\n      dup1\n        /* \"#utility.yul\":707:719   */\n      revert\n        /* \"#utility.yul\":669:721   */\n    tag_69:\n        /* \"#utility.yul\":743:766   */\n      dup2\n      calldataload\n      sub(shl(0xa0, 0x01), 0x01)\n        /* \"#utility.yul\":795:826   */\n      dup2\n      and\n        /* \"#utility.yul\":785:827   */\n      dup2\n      eq\n        /* \"#utility.yul\":775:845   */\n      tag_70\n      jumpi\n        /* \"#utility.yul\":841:842   */\n      0x00\n        /* \"#utility.yul\":838:839   */\n      dup1\n        /* \"#utility.yul\":831:843   */\n      revert\n        /* \"#utility.yul\":775:845   */\n    tag_70:\n        /* \"#utility.yul\":864:869   */\n      swap4\n        /* \"#utility.yul\":589:875   */\n      swap3\n      pop\n      pop\n      pop\n      jump\t// out\n        /* \"#utility.yul\":880:1236   */\n    tag_34:\n        /* \"#utility.yul\":1082:1084   */\n      0x20\n        /* \"#utility.yul\":1064:1085   */\n      dup1\n      dup3\n      mstore\n        /* \"#utility.yul\":1101:1119   */\n      dup2\n      dup2\n      add\n        /* \"#utility.yul\":1094:1124   */\n      mstore\n        /* \"#utility.yul\":1160:1194   */\n      0x4f776e61626c653a2063616c6c6572206973206e6f7420746865206f776e6572\n        /* \"#utility.yul\":1155:1157   */\n      0x40\n        /* \"#utility.yul\":1140:1158   */\n      dup3\n      add\n        /* \"#utility.yul\":1133:1195   */\n      mstore\n        /* \"#utility.yul\":1227:1229   */\n      0x60\n        /* \"#utility.yul\":1212:1230   */\n      add\n      swap1\n        /* \"#utility.yul\":880:1236   */\n      jump\t// out\n        /* \"#utility.yul\":2006:2228   */\n    tag_51:\n        /* \"#utility.yul\":2071:2080   */\n      dup1\n      dup3\n      add\n        /* \"#utility.yul\":2092:2102   */\n      dup1\n      dup3\n      gt\n        /* \"#utility.yul\":2089:2222   */\n      iszero\n      tag_75\n      jumpi\n        /* \"#utility.yul\":2144:2154   */\n      0x4e487b71\n        /* \"#utility.yul\":2139:2142   */\n      0xe0\n        /* \"#utility.yul\":2135:2155   */\n      shl\n        /* \"#utility.yul\":2132:2133   */\n      0x00\n        /* \"#utility.yul\":2125:2156   */\n      mstore\n        /* \"#utility.yul\":2179:2183   */\n      0x11\n        /* \"#utility.yul\":2176:2177   */\n      0x04\n        /* \"#utility.yul\":2169:2184   */\n      mstore\n        /* \"#utility.yul\":2207:2211   */\n      0x24\n        /* \"#utility.yul\":2204:2205   */\n      0x00\n        /* \"#utility.yul\":2197:2212   */\n      revert\n        /* \"#utility.yul\":2089:2222   */\n    tag_75:\n        /* \"#utility.yul\":2006:2228   */\n      swap3\n      swap2\n      pop\n      pop\n      jump\t// out\n\n    auxdata: 0xa2646970667358221220c8d9bc143c16d891d8c644ea4eab06e16ef0c3bedcc8b0ed09073d3041f1b74e64736f6c63430008160033\n}\n",
				"bytecode": {
					"linkReferences": {},
					"object": "608060405234801561000f575f80fd5b505f80546001600160a01b031916339081178255604051909182917f8be0079c531659141344cd1fd0a4f28419497f9722a3daafe3b4186f6b6457e0908290a3506104c48061005d5f395ff3fe608060405234801561000f575f80fd5b5060043610610060575f3560e01c8063715018a6146100645780638da5cb5b1461006e578063a69df4b51461008d578063b6c5232414610095578063dd467064146100a6578063f2fde38b146100b9575b5f80fd5b61006c6100cc565b005b5f546040516001600160a01b0390911681526020015b60405180910390f35b61006c610146565b600254604051908152602001610084565b61006c6100b43660046103f0565b61025c565b61006c6100c7366004610407565b610309565b5f546001600160a01b031633146100fe5760405162461bcd60e51b81526004016100f590610434565b60405180910390fd5b5f80546040516001600160a01b03909116907f8be0079c531659141344cd1fd0a4f28419497f9722a3daafe3b4186f6b6457e0908390a35f80546001600160a01b0319169055565b6001546001600160a01b031633146101ac5760405162461bcd60e51b8152602060048201526024808201527f596f7520646f206e6f742068617665207065726d697373696f6e20746f20756e6044820152636c6f636b60e01b60648201526084016100f5565b60025442116101fd5760405162461bcd60e51b815260206004820152601f60248201527f436f6e7472616374206973206c6f636b656420756e74696c203720646179730060448201526064016100f5565b6001545f80546040516001600160a01b0393841693909116917f8be0079c531659141344cd1fd0a4f28419497f9722a3daafe3b4186f6b6457e091a36001545f80546001600160a01b0319166001600160a01b03909216919091179055565b5f546001600160a01b031633146102855760405162461bcd60e51b81526004016100f590610434565b5f8054600180546001600160a01b03199081166001600160a01b038416179091551690556102b38142610469565b60028190555f8054604080516001600160a01b039092168252602082019290925280820192909252517f989eaa915cbb416ea3d6f9a63b1a3de51770c7674b11fe21ecdf76b4e1d139109181900360600190a150565b5f546001600160a01b031633146103325760405162461bcd60e51b81526004016100f590610434565b6001600160a01b0381166103975760405162461bcd60e51b815260206004820152602660248201527f4f776e61626c653a206e6577206f776e657220697320746865207a65726f206160448201526564647265737360d01b60648201526084016100f5565b5f80546040516001600160a01b03808516939216917f8be0079c531659141344cd1fd0a4f28419497f9722a3daafe3b4186f6b6457e091a35f80546001600160a01b0319166001600160a01b0392909216919091179055565b5f60208284031215610400575f80fd5b5035919050565b5f60208284031215610417575f80fd5b81356001600160a01b038116811461042d575f80fd5b9392505050565b6020808252818101527f4f776e61626c653a2063616c6c6572206973206e6f7420746865206f776e6572604082015260600190565b8082018082111561048857634e487b7160e01b5f52601160045260245ffd5b9291505056fea2646970667358221220c8d9bc143c16d891d8c644ea4eab06e16ef0c3bedcc8b0ed09073d3041f1b74e64736f6c63430008160033",
					"opcodes": "PUSH1 0x80 PUSH1 0x40 MSTORE CALLVALUE DUP1 ISZERO PUSH2 0xF JUMPI PUSH0 DUP1 REVERT JUMPDEST POP PUSH0 DUP1 SLOAD PUSH1 0x1 PUSH1 0x1 PUSH1 0xA0 SHL SUB NOT AND CALLER SWAP1 DUP2 OR DUP3 SSTORE PUSH1 0x40 MLOAD SWAP1 SWAP2 DUP3 SWAP2 PUSH32 0x8BE0079C531659141344CD1FD0A4F28419497F9722A3DAAFE3B4186F6B6457E0 SWAP1 DUP3 SWAP1 LOG3 POP PUSH2 0x4C4 DUP1 PUSH2 0x5D PUSH0 CODECOPY PUSH0 RETURN INVALID PUSH1 0x80 PUSH1 0x40 MSTORE CALLVALUE DUP1 ISZERO PUSH2 0xF JUMPI PUSH0 DUP1 REVERT JUMPDEST POP PUSH1 0x4 CALLDATASIZE LT PUSH2 0x60 JUMPI PUSH0 CALLDATALOAD PUSH1 0xE0 SHR DUP1 PUSH4 0x715018A6 EQ PUSH2 0x64 JUMPI DUP1 PUSH4 0x8DA5CB5B EQ PUSH2 0x6E JUMPI DUP1 PUSH4 0xA69DF4B5 EQ PUSH2 0x8D JUMPI DUP1 PUSH4 0xB6C52324 EQ PUSH2 0x95 JUMPI DUP1 PUSH4 0xDD467064 EQ PUSH2 0xA6 JUMPI DUP1 PUSH4 0xF2FDE38B EQ PUSH2 0xB9 JUMPI JUMPDEST PUSH0 DUP1 REVERT JUMPDEST PUSH2 0x6C PUSH2 0xCC JUMP JUMPDEST STOP JUMPDEST PUSH0 SLOAD PUSH1 0x40 MLOAD PUSH1 0x1 PUSH1 0x1 PUSH1 0xA0 SHL SUB SWAP1 SWAP2 AND DUP2 MSTORE PUSH1 0x20 ADD JUMPDEST PUSH1 0x40 MLOAD DUP1 SWAP2 SUB SWAP1 RETURN JUMPDEST PUSH2 0x6C PUSH2 0x146 JUMP JUMPDEST PUSH1 0x2 SLOAD PUSH1 0x40 MLOAD SWAP1 DUP2 MSTORE PUSH1 0x20 ADD PUSH2 0x84 JUMP JUMPDEST PUSH2 0x6C PUSH2 0xB4 CALLDATASIZE PUSH1 0x4 PUSH2 0x3F0 JUMP JUMPDEST PUSH2 0x25C JUMP JUMPDEST PUSH2 0x6C PUSH2 0xC7 CALLDATASIZE PUSH1 0x4 PUSH2 0x407 JUMP JUMPDEST PUSH2 0x309 JUMP JUMPDEST PUSH0 SLOAD PUSH1 0x1 PUSH1 0x1 PUSH1 0xA0 SHL SUB AND CALLER EQ PUSH2 0xFE JUMPI PUSH1 0x40 MLOAD PUSH3 0x461BCD PUSH1 0xE5 SHL DUP2 MSTORE PUSH1 0x4 ADD PUSH2 0xF5 SWAP1 PUSH2 0x434 JUMP JUMPDEST PUSH1 0x40 MLOAD DUP1 SWAP2 SUB SWAP1 REVERT JUMPDEST PUSH0 DUP1 SLOAD PUSH1 0x40 MLOAD PUSH1 0x1 PUSH1 0x1 PUSH1 0xA0 SHL SUB SWAP1 SWAP2 AND SWAP1 PUSH32 0x8BE0079C531659141344CD1FD0A4F28419497F9722A3DAAFE3B4186F6B6457E0 SWAP1 DUP4 SWAP1 LOG3 PUSH0 DUP1 SLOAD PUSH1 0x1 PUSH1 0x1 PUSH1 0xA0 SHL SUB NOT AND SWAP1 SSTORE JUMP JUMPDEST PUSH1 0x1 SLOAD PUSH1 0x1 PUSH1 0x1 PUSH1 0xA0 SHL SUB AND CALLER EQ PUSH2 0x1AC JUMPI PUSH1 0x40 MLOAD PUSH3 0x461BCD PUSH1 0xE5 SHL DUP2 MSTORE PUSH1 0x20 PUSH1 0x4 DUP3 ADD MSTORE PUSH1 0x24 DUP1 DUP3 ADD MSTORE PUSH32 0x596F7520646F206E6F742068617665207065726D697373696F6E20746F20756E PUSH1 0x44 DUP3 ADD MSTORE PUSH4 0x6C6F636B PUSH1 0xE0 SHL PUSH1 0x64 DUP3 ADD MSTORE PUSH1 0x84 ADD PUSH2 0xF5 JUMP JUMPDEST PUSH1 0x2 SLOAD TIMESTAMP GT PUSH2 0x1FD JUMPI PUSH1 0x40 MLOAD PUSH3 0x461BCD PUSH1 0xE5 SHL DUP2 MSTORE PUSH1 0x20 PUSH1 0x4 DUP3 ADD MSTORE PUSH1 0x1F PUSH1 0x24 DUP3 ADD MSTORE PUSH32 0x436F6E7472616374206973206C6F636B656420756E74696C2037206461797300 PUSH1 0x44 DUP3 ADD MSTORE PUSH1 0x64 ADD PUSH2 0xF5 JUMP JUMPDEST PUSH1 0x1 SLOAD PUSH0 DUP1 SLOAD PUSH1 0x40 MLOAD PUSH1 0x1 PUSH1 0x1 PUSH1 0xA0 SHL SUB SWAP4 DUP5 AND SWAP4 SWAP1 SWAP2 AND SWAP2 PUSH32 0x8BE0079C531659141344CD1FD0A4F28419497F9722A3DAAFE3B4186F6B6457E0 SWAP2 LOG3 PUSH1 0x1 SLOAD PUSH0 DUP1 SLOAD PUSH1 0x1 PUSH1 0x1 PUSH1 0xA0 SHL SUB NOT AND PUSH1 0x1 PUSH1 0x1 PUSH1 0xA0 SHL SUB SWAP1 SWAP3 AND SWAP2 SWAP1 SWAP2 OR SWAP1 SSTORE JUMP JUMPDEST PUSH0 SLOAD PUSH1 0x1 PUSH1 0x1 PUSH1 0xA0 SHL SUB AND CALLER EQ PUSH2 0x285 JUMPI PUSH1 0x40 MLOAD PUSH3 0x461BCD PUSH1 0xE5 SHL DUP2 MSTORE PUSH1 0x4 ADD PUSH2 0xF5 SWAP1 PUSH2 0x434 JUMP JUMPDEST PUSH0 DUP1 SLOAD PUSH1 0x1 DUP1 SLOAD PUSH1 0x1 PUSH1 0x1 PUSH1 0xA0 SHL SUB NOT SWAP1 DUP2 AND PUSH1 0x1 PUSH1 0x1 PUSH1 0xA0 SHL SUB DUP5 AND OR SWAP1 SWAP2 SSTORE AND SWAP1 SSTORE PUSH2 0x2B3 DUP2 TIMESTAMP PUSH2 0x469 JUMP JUMPDEST PUSH1 0x2 DUP2 SWAP1 SSTORE PUSH0 DUP1 SLOAD PUSH1 0x40 DUP1 MLOAD PUSH1 0x1 PUSH1 0x1 PUSH1 0xA0 SHL SUB SWAP1 SWAP3 AND DUP3 MSTORE PUSH1 0x20 DUP3 ADD SWAP3 SWAP1 SWAP3 MSTORE DUP1 DUP3 ADD SWAP3 SWAP1 SWAP3 MSTORE MLOAD PUSH32 0x989EAA915CBB416EA3D6F9A63B1A3DE51770C7674B11FE21ECDF76B4E1D13910 SWAP2 DUP2 SWAP1 SUB PUSH1 0x60 ADD SWAP1 LOG1 POP JUMP JUMPDEST PUSH0 SLOAD PUSH1 0x1 PUSH1 0x1 PUSH1 0xA0 SHL SUB AND CALLER EQ PUSH2 0x332 JUMPI PUSH1 0x40 MLOAD PUSH3 0x461BCD PUSH1 0xE5 SHL DUP2 MSTORE PUSH1 0x4 ADD PUSH2 0xF5 SWAP1 PUSH2 0x434 JUMP JUMPDEST PUSH1 0x1 PUSH1 0x1 PUSH1 0xA0 SHL SUB DUP2 AND PUSH2 0x397 JUMPI PUSH1 0x40 MLOAD PUSH3 0x461BCD PUSH1 0xE5 SHL DUP2 MSTORE PUSH1 0x20 PUSH1 0x4 DUP3 ADD MSTORE PUSH1 0x26 PUSH1 0x24 DUP3 ADD MSTORE PUSH32 0x4F776E61626C653A206E6577206F776E657220697320746865207A65726F2061 PUSH1 0x44 DUP3 ADD MSTORE PUSH6 0x646472657373 PUSH1 0xD0 SHL PUSH1 0x64 DUP3 ADD MSTORE PUSH1 0x84 ADD PUSH2 0xF5 JUMP JUMPDEST PUSH0 DUP1 SLOAD PUSH1 0x40 MLOAD PUSH1 0x1 PUSH1 0x1 PUSH1 0xA0 SHL SUB DUP1 DUP6 AND SWAP4 SWAP3 AND SWAP2 PUSH32 0x8BE0079C531659141344CD1FD0A4F28419497F9722A3DAAFE3B4186F6B6457E0 SWAP2 LOG3 PUSH0 DUP1 SLOAD PUSH1 0x1 PUSH1 0x1 PUSH1 0xA0 SHL SUB NOT AND PUSH1 0x1 PUSH1 0x1 PUSH1 0xA0 SHL SUB SWAP3 SWAP1 SWAP3 AND SWAP2 SWAP1 SWAP2 OR SWAP1 SSTORE JUMP JUMPDEST PUSH0 PUSH1 0x20 DUP3 DUP5 SUB SLT ISZERO PUSH2 0x400 JUMPI PUSH0 DUP1 REVERT JUMPDEST POP CALLDATALOAD SWAP2 SWAP1 POP JUMP JUMPDEST PUSH0 PUSH1 0x20 DUP3 DUP5 SUB SLT ISZERO PUSH2 0x417 JUMPI PUSH0 DUP1 REVERT JUMPDEST DUP2 CALLDATALOAD PUSH1 0x1 PUSH1 0x1 PUSH1 0xA0 SHL SUB DUP2 AND DUP2 EQ PUSH2 0x42D JUMPI PUSH0 DUP1 REVERT JUMPDEST SWAP4 SWAP3 POP POP POP JUMP JUMPDEST PUSH1 0x20 DUP1 DUP3 MSTORE DUP2 DUP2 ADD MSTORE PUSH32 0x4F776E61626C653A2063616C6C6572206973206E6F7420746865206F776E6572 PUSH1 0x40 DUP3 ADD MSTORE PUSH1 0x60 ADD SWAP1 JUMP JUMPDEST DUP1 DUP3 ADD DUP1 DUP3 GT ISZERO PUSH2 0x488 JUMPI PUSH4 0x4E487B71 PUSH1 0xE0 SHL PUSH0 MSTORE PUSH1 0x11 PUSH1 0x4 MSTORE PUSH1 0x24 PUSH0 REVERT JUMPDEST SWAP3 SWAP2 POP POP JUMP INVALID LOG2 PUSH5 0x6970667358 0x22 SLT KECCAK256 0xC8 0xD9 0xBC EQ EXTCODECOPY AND 0xD8 SWAP2 0xD8 0xC6 PREVRANDAO 0xEA 0x4E 0xAB MOD 0xE1 PUSH15 0xF0C3BEDCC8B0ED09073D3041F1B74E PUSH5 0x736F6C6343 STOP ADDMOD AND STOP CALLER "
				},
				"gasEstimates": {
					"creation": {
						"codeDepositCost": "244000",
						"executionCost": "26057",
						"totalCost": "270057"
					},
					"external": {
						"geUnlockTime()": "2323",
						"lock(uint256)": "76826",
						"owner()": "2288",
						"renounceOwnership()": "30139",
						"transferOwnership(address)": "30448",
						"unlock()": "36554"
					}
				},
				"methodIdentifiers": {
					"geUnlockTime()": "b6c52324",
					"lock(uint256)": "dd467064",
					"owner()": "8da5cb5b",
					"renounceOwnership()": "715018a6",
					"transferOwnership(address)": "f2fde38b",
					"unlock()": "a69df4b5"
				}
			},
			"storageLayout": {
				"storage": [
					{
						"astId": 105,
						"contract": "Catch.sol:Ownable",
						"label": "_owner",
						"offset": 0,
						"slot": "0",
						"type": "t_address"
					},
					{
						"astId": 107,
						"contract": "Catch.sol:Ownable",
						"label": "_previousOwner",
						"offset": 0,
						"slot": "1",
						"type": "t_address"
					},
					{
						"astId": 109,
						"contract": "Catch.sol:Ownable",
						"label": "_lockTime",
						"offset": 0,
						"slot": "2",
						"type": "t_uint256"
					}
				],
				"types": {
					"t_address": {
						"encoding": "inplace",
						"label": "address",
						"numberOfBytes": "20"
					},
					"t_uint256": {
						"encoding": "inplace",
						"label": "uint256",
						"numberOfBytes": "32"
					}
				}
			},
			"userdoc": {
				"kind": "user",
				"methods": {},
				"version": 1
			}
		}
	}
}