{
	"Catch.sol": {
		"CATCH": {
			"abi": [
				{
					"inputs": [
						{
							"internalType": "address",
							"name": "_fundWallet",
							"type": "address"
						}
					],
					"stateMutability": "nonpayable",
					"type": "constructor"
				},
				{
					"anonymous": false,
					"inputs": [
						{
							"indexed": false,
							"internalType": "uint256",
							"name": "totalLiquidity",
							"type": "uint256"
						}
					],
					"name": "AddedLiquidity",
					"type": "event"
				},
				{
					"anonymous": false,
					"inputs": [
						{
							"indexed": true,
							"internalType": "address",
							"name": "owner",
							"type": "address"
						},
						{
							"indexed": true,
							"internalType": "address",
							"name": "spender",
							"type": "address"
						},
						{
							"indexed": false,
							"internalType": "uint256",
							"name": "value",
							"type": "uint256"
						}
					],
					"name": "Approval",
					"type": "event"
				},
				{
					"anonymous": false,
					"inputs": [
						{
							"indexed": false,
							"internalType": "uint256",
							"name": "totalCoinFund",
							"type": "uint256"
						}
					],
					"name": "CoinFund",
					"type": "event"
				},
				{
					"anonymous": false,
					"inputs": [
						{
							"indexed": false,
							"internalType": "address",
							"name": "wallet",
							"type": "address"
						}
					],
					"name": "FundWalletChange",
					"type": "event"
				},
				{
					"anonymous": false,
					"inputs": [
						{
							"indexed": false,
							"internalType": "address",
							"name": "owner",
							"type": "address"
						},
						{
							"indexed": false,
							"internalType": "address",
							"name": "newOwner",
							"type": "address"
						},
						{
							"indexed": false,
							"internalType": "uint256",
							"name": "lockTime",
							"type": "uint256"
						}
					],
					"name": "Locked",
					"type": "event"
				},
				{
					"anonymous": false,
					"inputs": [
						{
							"indexed": true,
							"internalType": "address",
							"name": "previousOwner",
							"type": "address"
						},
						{
							"indexed": true,
							"internalType": "address",
							"name": "newOwner",
							"type": "address"
						}
					],
					"name": "OwnershipTransferred",
					"type": "event"
				},
				{
					"anonymous": false,
					"inputs": [
						{
							"indexed": false,
							"internalType": "uint256",
							"name": "totalReflectFee",
							"type": "uint256"
						}
					],
					"name": "ReflectedFee",
					"type": "event"
				},
				{
					"anonymous": false,
					"inputs": [
						{
							"indexed": false,
							"internalType": "uint256",
							"name": "tokensSwapped",
							"type": "uint256"
						},
						{
							"indexed": false,
							"internalType": "uint256",
							"name": "ethReceived",
							"type": "uint256"
						},
						{
							"indexed": false,
							"internalType": "uint256",
							"name": "tokensIntoLiqudity",
							"type": "uint256"
						}
					],
					"name": "SwapAndLiquify",
					"type": "event"
				},
				{
					"anonymous": false,
					"inputs": [
						{
							"indexed": false,
							"internalType": "bool",
							"name": "enabled",
							"type": "bool"
						}
					],
					"name": "SwapAndLiquifyEnabledUpdated",
					"type": "event"
				},
				{
					"anonymous": false,
					"inputs": [
						{
							"indexed": false,
							"internalType": "uint256",
							"name": "amount",
							"type": "uint256"
						}
					],
					"name": "ThresholdUpdated",
					"type": "event"
				},
				{
					"anonymous": false,
					"inputs": [
						{
							"indexed": true,
							"internalType": "address",
							"name": "from",
							"type": "address"
						},
						{
							"indexed": true,
							"internalType": "address",
							"name": "to",
							"type": "address"
						},
						{
							"indexed": false,
							"internalType": "uint256",
							"name": "value",
							"type": "uint256"
						}
					],
					"name": "Transfer",
					"type": "event"
				},
				{
					"inputs": [
						{
							"internalType": "address",
							"name": "owner",
							"type": "address"
						},
						{
							"internalType": "address",
							"name": "spender",
							"type": "address"
						}
					],
					"name": "allowance",
					"outputs": [
						{
							"internalType": "uint256",
							"name": "",
							"type": "uint256"
						}
					],
					"stateMutability": "view",
					"type": "function"
				},
				{
					"inputs": [
						{
							"internalType": "address",
							"name": "spender",
							"type": "address"
						},
						{
							"internalType": "uint256",
							"name": "amount",
							"type": "uint256"
						}
					],
					"name": "approve",
					"outputs": [
						{
							"internalType": "bool",
							"name": "",
							"type": "bool"
						}
					],
					"stateMutability": "nonpayable",
					"type": "function"
				},
				{
					"inputs": [
						{
							"internalType": "address",
							"name": "account",
							"type": "address"
						}
					],
					"name": "balanceOf",
					"outputs": [
						{
							"internalType": "uint256",
							"name": "",
							"type": "uint256"
						}
					],
					"stateMutability": "view",
					"type": "function"
				},
				{
					"inputs": [],
					"name": "decimals",
					"outputs": [
						{
							"internalType": "uint8",
							"name": "",
							"type": "uint8"
						}
					],
					"stateMutability": "pure",
					"type": "function"
				},
				{
					"inputs": [
						{
							"internalType": "address",
							"name": "spender",
							"type": "address"
						},
						{
							"internalType": "uint256",
							"name": "subtractedValue",
							"type": "uint256"
						}
					],
					"name": "decreaseAllowance",
					"outputs": [
						{
							"internalType": "bool",
							"name": "",
							"type": "bool"
						}
					],
					"stateMutability": "nonpayable",
					"type": "function"
				},
				{
					"inputs": [
						{
							"internalType": "uint256",
							"name": "tAmount",
							"type": "uint256"
						}
					],
					"name": "deliver",
					"outputs": [],
					"stateMutability": "nonpayable",
					"type": "function"
				},
				{
					"inputs": [
						{
							"internalType": "address",
							"name": "account",
							"type": "address"
						}
					],
					"name": "excludeFromFee",
					"outputs": [],
					"stateMutability": "nonpayable",
					"type": "function"
				},
				{
					"inputs": [
						{
							"internalType": "address",
							"name": "account",
							"type": "address"
						}
					],
					"name": "excludeFromReward",
					"outputs": [],
					"stateMutability": "nonpayable",
					"type": "function"
				},
				{
					"inputs": [],
					"name": "fundWallet",
					"outputs": [
						{
							"internalType": "address",
							"name": "",
							"type": "address"
						}
					],
					"stateMutability": "view",
					"type": "function"
				},
				{
					"inputs": [],
					"name": "geUnlockTime",
					"outputs": [
						{
							"internalType": "uint256",
							"name": "",
							"type": "uint256"
						}
					],
					"stateMutability": "view",
					"type": "function"
				},
				{
					"inputs": [
						{
							"internalType": "address",
							"name": "account",
							"type": "address"
						}
					],
					"name": "includeInFee",
					"outputs": [],
					"stateMutability": "nonpayable",
					"type": "function"
				},
				{
					"inputs": [
						{
							"internalType": "address",
							"name": "account",
							"type": "address"
						}
					],
					"name": "includeInReward",
					"outputs": [],
					"stateMutability": "nonpayable",
					"type": "function"
				},
				{
					"inputs": [
						{
							"internalType": "address",
							"name": "spender",
							"type": "address"
						},
						{
							"internalType": "uint256",
							"name": "addedValue",
							"type": "uint256"
						}
					],
					"name": "increaseAllowance",
					"outputs": [
						{
							"internalType": "bool",
							"name": "",
							"type": "bool"
						}
					],
					"stateMutability": "nonpayable",
					"type": "function"
				},
				{
					"inputs": [
						{
							"internalType": "address",
							"name": "account",
							"type": "address"
						}
					],
					"name": "isExcludedFromFee",
					"outputs": [
						{
							"internalType": "bool",
							"name": "",
							"type": "bool"
						}
					],
					"stateMutability": "view",
					"type": "function"
				},
				{
					"inputs": [
						{
							"internalType": "address",
							"name": "account",
							"type": "address"
						}
					],
					"name": "isExcludedFromReward",
					"outputs": [
						{
							"internalType": "bool",
							"name": "",
							"type": "bool"
						}
					],
					"stateMutability": "view",
					"type": "function"
				},
				{
					"inputs": [
						{
							"internalType": "uint256",
							"name": "time",
							"type": "uint256"
						}
					],
					"name": "lock",
					"outputs": [],
					"stateMutability": "nonpayable",
					"type": "function"
				},
				{
					"inputs": [],
					"name": "name",
					"outputs": [
						{
							"internalType": "string",
							"name": "",
							"type": "string"
						}
					],
					"stateMutability": "pure",
					"type": "function"
				},
				{
					"inputs": [],
					"name": "owner",
					"outputs": [
						{
							"internalType": "address",
							"name": "",
							"type": "address"
						}
					],
					"stateMutability": "view",
					"type": "function"
				},
				{
					"inputs": [
						{
							"internalType": "uint256",
							"name": "tAmount",
							"type": "uint256"
						},
						{
							"internalType": "bool",
							"name": "deductTransferFee",
							"type": "bool"
						}
					],
					"name": "reflectionFromToken",
					"outputs": [
						{
							"internalType": "uint256",
							"name": "",
							"type": "uint256"
						}
					],
					"stateMutability": "view",
					"type": "function"
				},
				{
					"inputs": [],
					"name": "renounceOwnership",
					"outputs": [],
					"stateMutability": "nonpayable",
					"type": "function"
				},
				{
					"inputs": [
						{
							"internalType": "address",
							"name": "_fundWallet",
							"type": "address"
						}
					],
					"name": "setFundWallet",
					"outputs": [],
					"stateMutability": "nonpayable",
					"type": "function"
				},
				{
					"inputs": [
						{
							"internalType": "bool",
							"name": "_enabled",
							"type": "bool"
						}
					],
					"name": "setSwapAndLiquifyEnabled",
					"outputs": [],
					"stateMutability": "nonpayable",
					"type": "function"
				},
				{
					"inputs": [],
					"name": "swapAndLiquifyEnabled",
					"outputs": [
						{
							"internalType": "bool",
							"name": "",
							"type": "bool"
						}
					],
					"stateMutability": "view",
					"type": "function"
				},
				{
					"inputs": [],
					"name": "symbol",
					"outputs": [
						{
							"internalType": "string",
							"name": "",
							"type": "string"
						}
					],
					"stateMutability": "pure",
					"type": "function"
				},
				{
					"inputs": [
						{
							"internalType": "uint256",
							"name": "rAmount",
							"type": "uint256"
						}
					],
					"name": "tokenFromReflection",
					"outputs": [
						{
							"internalType": "uint256",
							"name": "",
							"type": "uint256"
						}
					],
					"stateMutability": "view",
					"type": "function"
				},
				{
					"inputs": [],
					"name": "totalFees",
					"outputs": [
						{
							"internalType": "uint256",
							"name": "",
							"type": "uint256"
						}
					],
					"stateMutability": "view",
					"type": "function"
				},
				{
					"inputs": [],
					"name": "totalSupply",
					"outputs": [
						{
							"internalType": "uint256",
							"name": "",
							"type": "uint256"
						}
					],
					"stateMutability": "view",
					"type": "function"
				},
				{
					"inputs": [
						{
							"internalType": "address",
							"name": "recipient",
							"type": "address"
						},
						{
							"internalType": "uint256",
							"name": "amount",
							"type": "uint256"
						}
					],
					"name": "transfer",
					"outputs": [
						{
							"internalType": "bool",
							"name": "",
							"type": "bool"
						}
					],
					"stateMutability": "nonpayable",
					"type": "function"
				},
				{
					"inputs": [
						{
							"internalType": "address",
							"name": "sender",
							"type": "address"
						},
						{
							"internalType": "address",
							"name": "recipient",
							"type": "address"
						},
						{
							"internalType": "uint256",
							"name": "amount",
							"type": "uint256"
						}
					],
					"name": "transferFrom",
					"outputs": [
						{
							"internalType": "bool",
							"name": "",
							"type": "bool"
						}
					],
					"stateMutability": "nonpayable",
					"type": "function"
				},
				{
					"inputs": [
						{
							"internalType": "address",
							"name": "newOwner",
							"type": "address"
						}
					],
					"name": "transferOwnership",
					"outputs": [],
					"stateMutability": "nonpayable",
					"type": "function"
				},
				{
					"inputs": [],
					"name": "uniswapV2Pair",
					"outputs": [
						{
							"internalType": "address",
							"name": "",
							"type": "address"
						}
					],
					"stateMutability": "view",
					"type": "function"
				},
				{
					"inputs": [],
					"name": "uniswapV2Router",
					"outputs": [
						{
							"internalType": "contract IUniswapV2Router02",
							"name": "",
							"type": "address"
						}
					],
					"stateMutability": "view",
					"type": "function"
				},
				{
					"inputs": [],
					"name": "unlock",
					"outputs": [],
					"stateMutability": "nonpayable",
					"type": "function"
				},
				{
					"inputs": [
						{
							"internalType": "uint256",
							"name": "_amount",
							"type": "uint256"
						}
					],
					"name": "updateThreshold",
					"outputs": [],
					"stateMutability": "nonpayable",
					"type": "function"
				},
				{
					"stateMutability": "payable",
					"type": "receive"
				}
			],
			"devdoc": {
				"events": {
					"Approval(address,address,uint256)": {
						"details": "Emitted when the allowance of a `spender` for an `owner` is set by a call to {approve}. `value` is the new allowance."
					},
					"Transfer(address,address,uint256)": {
						"details": "Emitted when `value` tokens are moved from one account (`from`) to another (`to`). Note that `value` may be zero."
					}
				},
				"kind": "dev",
				"methods": {
					"allowance(address,address)": {
						"details": "This function returns the current allowance set for the specified spender to spend tokens from the specified owner's account.",
						"params": {
							"owner": "The address of the owner whose allowance is being queried.",
							"spender": "The address of the spender for whom the allowance is queried."
						},
						"returns": {
							"_0": "The remaining allowance for the specified spender to spend tokens on behalf of the owner."
						}
					},
					"approve(address,uint256)": {
						"details": "This function sets or updates the allowance for a spender to spend tokens from the owner's account. If successful, it returns true.",
						"params": {
							"amount": "The amount of tokens to approve for spending.",
							"spender": "The address of the spender to be approved."
						},
						"returns": {
							"_0": "A boolean indicating the success of the approval operation."
						}
					},
					"balanceOf(address)": {
						"details": "This function returns the token balance of the specified account. If the account is excluded, it directly returns the token balance. If the account is not excluded, it converts the reflection balance to token balance using the current rate.",
						"params": {
							"account": "The address of the account whose token balance is being queried."
						},
						"returns": {
							"_0": "The token balance of the specified account."
						}
					},
					"constructor": {
						"details": "This constructor sets initial values and configures the contract.",
						"params": {
							"_fundWallet": "The address where funds will be sent."
						}
					},
					"decimals()": {
						"details": "This function returns the number of decimal places used to represent the token balances. It is commonly used to interpret the token amounts correctly in user interfaces.",
						"returns": {
							"_0": "The number of decimal places used in the token representation."
						}
					},
					"decreaseAllowance(address,uint256)": {
						"details": "This function decreases the allowance for the specified spender by the given value. It ensures that the allowance does not go below zero. If successful, it returns true.",
						"params": {
							"spender": "The address of the spender whose allowance is being reduced.",
							"subtractedValue": "The amount by which to reduce the allowance."
						},
						"returns": {
							"_0": "A boolean indicating the success of the operation."
						}
					},
					"deliver(uint256)": {
						"details": "This function is typically used to convert a portion of tokens into reflections and add them to a reward pool. Excluded addresses cannot call this function.",
						"params": {
							"tAmount": "The amount of tokens to be converted and added to reflections."
						}
					},
					"excludeFromFee(address)": {
						"details": "Transaction fees are often applied in decentralized finance (DeFi) projects to support various mechanisms like liquidity provision, rewards, or token burns.",
						"params": {
							"account": "The address to exclude from transaction fees."
						}
					},
					"excludeFromReward(address)": {
						"details": "Reflections are often used in tokenomics to distribute rewards to holders. This function excludes the specified address from receiving reflections.",
						"params": {
							"account": "The address to be excluded from earning reflections."
						}
					},
					"includeInFee(address)": {
						"details": "Transaction fees are often applied in decentralized finance (DeFi) projects to support various mechanisms like liquidity provision, rewards, or token burns.",
						"params": {
							"account": "The address to include in transaction fees."
						}
					},
					"includeInReward(address)": {
						"details": "External function for including an account in the reward distribution.",
						"params": {
							"account": "The address to be included in the reward distribution.  The function can only be called by the owner of the contract. Requires that the specified account is currently excluded. Iterates through the list of excluded accounts, finds the specified account, and removes it from the exclusion list. Resets the token balance of the specified account to 0 and updates the exclusion status. "
						}
					},
					"increaseAllowance(address,uint256)": {
						"details": "This function increases the allowance for the specified spender by the given value. It ensures that the updated allowance is correctly set. If successful, it returns true.",
						"params": {
							"addedValue": "The amount by which to increase the allowance.",
							"spender": "The address of the spender whose allowance is being increased."
						},
						"returns": {
							"_0": "A boolean indicating the success of the operation."
						}
					},
					"isExcludedFromReward(address)": {
						"details": "Excluded addresses do not receive reflections in certain tokenomics designs. This function returns true if the address is excluded, and false otherwise.",
						"params": {
							"account": "The address to check for exclusion from reflections."
						},
						"returns": {
							"_0": "A boolean indicating whether the address is excluded from earning reflections."
						}
					},
					"name()": {
						"details": "This function returns the name of the token, which is often used for identification. It is commonly displayed in user interfaces and provides a human-readable name for the token.",
						"returns": {
							"_0": "The name of the token."
						}
					},
					"owner()": {
						"details": "Returns the address of the current owner."
					},
					"reflectionFromToken(uint256,bool)": {
						"details": "Reflections are often used in tokenomics to calculate rewards or balances. This function converts a token amount to its corresponding reflection amount based on the current rate. Optionally, it deducts the transfer fee from the calculation.",
						"params": {
							"deductTransferFee": "A boolean indicating whether to deduct the transfer fee from the calculation.",
							"tAmount": "The token amount to be converted to reflections."
						},
						"returns": {
							"_0": "The equivalent reflection amount corresponding to the given token amount."
						}
					},
					"renounceOwnership()": {
						"details": "Leaves the contract without owner. It will not be possible to call `onlyOwner` functions anymore. Can only be called by the current owner. NOTE: Renouncing ownership will leave the contract without an owner, thereby removing any functionality that is only available to the owner."
					},
					"setFundWallet(address)": {
						"details": "Sets the address of the fund wallet.",
						"params": {
							"_fundWallet": "The new address to be set as the fund wallet. Requirements: - Only the contract owner can call this function. Emits a {FundWalletChange} event with the updated fund wallet address on successful execution."
						}
					},
					"setSwapAndLiquifyEnabled(bool)": {
						"details": "The swap and liquify feature is a mechanism often used in decentralized finance (DeFi) projects to automatically swap a portion of tokens for liquidity and add them to a liquidity pool.",
						"params": {
							"_enabled": "A boolean indicating whether to enable (true) or disable (false) the feature."
						}
					},
					"symbol()": {
						"details": "This function returns the symbol or ticker that represents the token. It is commonly used for identifying the token in user interfaces and exchanges.",
						"returns": {
							"_0": "The symbol or ticker of the token."
						}
					},
					"tokenFromReflection(uint256)": {
						"details": "Reflections are often used in tokenomics to calculate rewards or balances. This function converts a reflection amount to its corresponding token amount based on the current rate.",
						"params": {
							"rAmount": "The reflection amount to be converted to tokens."
						},
						"returns": {
							"_0": "The equivalent token amount corresponding to the given reflection amount."
						}
					},
					"totalFees()": {
						"details": "This function returns the cumulative sum of fees collected during transactions. The fees are often used for various purposes like liquidity provision, rewards, or burns.",
						"returns": {
							"_0": "The total amount of fees collected in tokens."
						}
					},
					"totalSupply()": {
						"details": "This function returns the total supply of tokens in circulation.",
						"returns": {
							"_0": "The total supply of tokens."
						}
					},
					"transfer(address,uint256)": {
						"details": "This function transfers tokens from the sender's account to the specified recipient. If successful, it returns true.",
						"params": {
							"amount": "The amount of tokens to be transferred.",
							"recipient": "The address of the recipient to whom tokens are being transferred."
						},
						"returns": {
							"_0": "A boolean indicating the success of the transfer operation."
						}
					},
					"transferFrom(address,address,uint256)": {
						"details": "This function allows a designated spender to transfer tokens from the sender's account to the recipient's account. It also ensures that the allowance is updated correctly. If successful, it returns true.",
						"params": {
							"amount": "The amount of tokens to be transferred.",
							"recipient": "The address to which tokens are being transferred.",
							"sender": "The address from which tokens are being transferred."
						},
						"returns": {
							"_0": "A boolean indicating the success of the transfer operation."
						}
					},
					"transferOwnership(address)": {
						"details": "Transfers ownership of the contract to a new account (`newOwner`). Can only be called by the current owner."
					},
					"updateThreshold(uint256)": {
						"details": "External function for updating the threshold amount required for triggering liquidity addition.",
						"params": {
							"_amount": "The new threshold amount.  The function can only be called by the owner of the contract. Requires that the provided threshold amount (_amount) is greater than 0. Updates the numTokensSellToAddToLiquidity with the new threshold amount."
						}
					}
				},
				"version": 1
			},
			"evm": {
				"assembly": "    /* \"Catch.sol\":13340:58954  contract CATCH is Context, IERC20, Ownable {... */\n  mstore(0x40, 0xc0)\n    /* \"Catch.sol\":13797:13816  90 * 10**6 * 10**18 */\n  0x4a723dc6b40b8a9a000000\n    /* \"Catch.sol\":13771:13816  uint256 private _tTotal = 90 * 10**6 * 10**18 */\n  0x09\n  dup2\n  swap1\n  sstore\n    /* \"Catch.sol\":13857:13870  MAX % _tTotal */\n  tag_1\n  swap1\n  not(0x00)\n  tag_2\n  jump\t// in\ntag_1:\n    /* \"Catch.sol\":13850:13871  MAX - (MAX % _tTotal) */\n  tag_3\n  swap1\n  not(0x00)\n  tag_4\n  jump\t// in\ntag_3:\n    /* \"Catch.sol\":13823:13872  uint256 private _rTotal = (MAX - (MAX % _tTotal)) */\n  0x0a\n  sstore\n    /* \"Catch.sol\":14199:14239  bool public swapAndLiquifyEnabled = true */\n  0x0c\n  dup1\n  sload\n  not(0xff00)\n  and\n  0x0100\n  or\n  swap1\n  sstore\n    /* \"Catch.sol\":14300:14318  1 * 10**2 * 10**18 */\n  0x056bc75e2d63100000\n    /* \"Catch.sol\":14252:14318  uint256 private numTokensSellToAddToLiquidity = 1 * 10**2 * 10**18 */\n  0x0d\n  sstore\n    /* \"Catch.sol\":15280:16053  constructor (address _fundWallet)  {... */\n  callvalue\n  dup1\n  iszero\n  tag_5\n  jumpi\n  0x00\n  dup1\n  revert\ntag_5:\n  pop\n  mload(0x40)\n  sub(codesize, bytecodeSize)\n  dup1\n  bytecodeSize\n  dup4\n  codecopy\n  dup2\n  add\n  0x40\n  dup2\n  swap1\n  mstore\n  tag_6\n  swap2\n  tag_7\n  jump\t// in\ntag_6:\n    /* \"Catch.sol\":5335:5352  address msgSender */\n  0x00\n    /* \"Catch.sol\":5378:5396  _owner = msgSender */\n  dup1\n  sload\n  not(sub(shl(0xa0, 0x01), 0x01))\n  and\n    /* \"Catch.sol\":4139:4149  msg.sender */\n  caller\n    /* \"Catch.sol\":5378:5396  _owner = msgSender */\n  swap1\n  dup2\n  or\n  dup3\n  sstore\n    /* \"Catch.sol\":5412:5455  OwnershipTransferred(address(0), msgSender) */\n  mload(0x40)\n    /* \"Catch.sol\":4139:4149  msg.sender */\n  swap1\n  swap2\n  dup3\n  swap2\n    /* \"Catch.sol\":5412:5455  OwnershipTransferred(address(0), msgSender) */\n  0x8be0079c531659141344cd1fd0a4f28419497f9722a3daafe3b4186f6b6457e0\n  swap1\n    /* \"Catch.sol\":5335:5352  address msgSender */\n  dup3\n  swap1\n    /* \"Catch.sol\":5412:5455  OwnershipTransferred(address(0), msgSender) */\n  log3\n  pop\n    /* \"Catch.sol\":15350:15357  _rTotal */\n  sload(0x0a)\n    /* \"Catch.sol\":4139:4149  msg.sender */\n  caller\n    /* \"Catch.sol\":15326:15347  _rOwned[_msgSender()] */\n  0x00\n  swap1\n  dup2\n  mstore\n    /* \"Catch.sol\":15326:15333  _rOwned */\n  0x03\n    /* \"Catch.sol\":15326:15347  _rOwned[_msgSender()] */\n  0x20\n  swap1\n  dup2\n  mstore\n  0x40\n  swap2\n  dup3\n  swap1\n  keccak256\n    /* \"Catch.sol\":15326:15357  _rOwned[_msgSender()] = _rTotal */\n  swap3\n  swap1\n  swap3\n  sstore\n    /* \"Catch.sol\":15368:15378  fundWallet */\n  0x12\n    /* \"Catch.sol\":15368:15392  fundWallet = _fundWallet */\n  dup1\n  sload\n  not(sub(shl(0xa0, 0x01), 0x01))\n  and\n  sub(shl(0xa0, 0x01), 0x01)\n  dup6\n  and\n  or\n  swap1\n  sstore\n    /* \"Catch.sol\":15628:15654  _uniswapV2Router.factory() */\n  dup1\n  mload\n  shl(0xe0, 0xc45a0155)\n  dup2\n  mstore\n  swap1\n  mload\n    /* \"Catch.sol\":15460:15502  0x10ED43C718714eb63d5aA57B78B54704E256024E */\n  0x10ed43c718714eb63d5aa57b78b54704e256024e\n  swap3\n  dup4\n  swap3\n    /* \"Catch.sol\":15628:15652  _uniswapV2Router.factory */\n  0xc45a0155\n  swap3\n    /* \"Catch.sol\":15628:15654  _uniswapV2Router.factory() */\n  0x04\n  dup1\n  dup4\n  add\n  swap4\n    /* \"Catch.sol\":15326:15347  _rOwned[_msgSender()] */\n  swap3\n    /* \"Catch.sol\":15628:15654  _uniswapV2Router.factory() */\n  dup3\n  swap1\n  sub\n  add\n  dup2\n    /* \"Catch.sol\":15460:15502  0x10ED43C718714eb63d5aA57B78B54704E256024E */\n  dup7\n    /* \"Catch.sol\":15628:15654  _uniswapV2Router.factory() */\n  gas\n  staticcall\n  iszero\n  dup1\n  iszero\n  tag_16\n  jumpi\n  returndatasize\n  0x00\n  dup1\n  returndatacopy\n  revert(0x00, returndatasize)\ntag_16:\n  pop\n  pop\n  pop\n  pop\n  mload(0x40)\n  returndatasize\n  not(0x1f)\n  0x1f\n  dup3\n  add\n  and\n  dup3\n  add\n  dup1\n  0x40\n  mstore\n  pop\n  dup2\n  add\n  swap1\n  tag_17\n  swap2\n  swap1\n  tag_7\n  jump\t// in\ntag_17:\n  sub(shl(0xa0, 0x01), 0x01)\n    /* \"Catch.sol\":15610:15680  IUniswapV2Factory(_uniswapV2Router.factory())... */\n  and\n  0xc9c65396\n    /* \"Catch.sol\":15689:15693  this */\n  address\n    /* \"Catch.sol\":15696:15712  _uniswapV2Router */\n  dup4\n  sub(shl(0xa0, 0x01), 0x01)\n    /* \"Catch.sol\":15696:15717  _uniswapV2Router.WETH */\n  and\n  0xad5c4648\n    /* \"Catch.sol\":15696:15719  _uniswapV2Router.WETH() */\n  mload(0x40)\n  dup2\n  0xffffffff\n  and\n  0xe0\n  shl\n  dup2\n  mstore\n  0x04\n  add\n  0x20\n  mload(0x40)\n  dup1\n  dup4\n  sub\n  dup2\n  dup7\n  gas\n  staticcall\n  iszero\n  dup1\n  iszero\n  tag_19\n  jumpi\n  returndatasize\n  0x00\n  dup1\n  returndatacopy\n  revert(0x00, returndatasize)\ntag_19:\n  pop\n  pop\n  pop\n  pop\n  mload(0x40)\n  returndatasize\n  not(0x1f)\n  0x1f\n  dup3\n  add\n  and\n  dup3\n  add\n  dup1\n  0x40\n  mstore\n  pop\n  dup2\n  add\n  swap1\n  tag_20\n  swap2\n  swap1\n  tag_7\n  jump\t// in\ntag_20:\n    /* \"Catch.sol\":15610:15720  IUniswapV2Factory(_uniswapV2Router.factory())... */\n  mload(0x40)\n  not(sub(shl(0xe0, 0x01), 0x01))\n  0xe0\n  dup6\n  swap1\n  shl\n  and\n  dup2\n  mstore\n  sub(shl(0xa0, 0x01), 0x01)\n    /* \"#utility.yul\":983:998   */\n  swap3\n  dup4\n  and\n    /* \"Catch.sol\":15610:15720  IUniswapV2Factory(_uniswapV2Router.factory())... */\n  0x04\n  dup3\n  add\n    /* \"#utility.yul\":965:999   */\n  mstore\n    /* \"#utility.yul\":1035:1050   */\n  swap2\n  and\n    /* \"#utility.yul\":1015:1033   */\n  0x24\n  dup3\n  add\n    /* \"#utility.yul\":1008:1051   */\n  mstore\n    /* \"#utility.yul\":900:918   */\n  0x44\n  add\n    /* \"Catch.sol\":15610:15720  IUniswapV2Factory(_uniswapV2Router.factory())... */\n  0x20\n  mload(0x40)\n  dup1\n  dup4\n  sub\n  dup2\n  0x00\n  dup8\n  gas\n  call\n  iszero\n  dup1\n  iszero\n  tag_24\n  jumpi\n  returndatasize\n  0x00\n  dup1\n  returndatacopy\n  revert(0x00, returndatasize)\ntag_24:\n  pop\n  pop\n  pop\n  pop\n  mload(0x40)\n  returndatasize\n  not(0x1f)\n  0x1f\n  dup3\n  add\n  and\n  dup3\n  add\n  dup1\n  0x40\n  mstore\n  pop\n  dup2\n  add\n  swap1\n  tag_25\n  swap2\n  swap1\n  tag_7\n  jump\t// in\ntag_25:\n  sub(shl(0xa0, 0x01), 0x01)\n    /* \"Catch.sol\":15594:15720  uniswapV2Pair = IUniswapV2Factory(_uniswapV2Router.factory())... */\n  swap1\n  dup2\n  and\n  0xa0\n  mstore\n    /* \"Catch.sol\":15784:15818  uniswapV2Router = _uniswapV2Router */\n  dup2\n  and\n  0x80\n  mstore\n    /* \"Catch.sol\":15921:15925  true */\n  0x01\n    /* \"Catch.sol\":15891:15909  _isExcludedFromFee */\n  0x06\n    /* \"Catch.sol\":15891:15918  _isExcludedFromFee[owner()] */\n  0x00\n    /* \"Catch.sol\":15910:15917  owner() */\n  tag_26\n    /* \"Catch.sol\":5582:5589  address */\n  0x00\n    /* \"Catch.sol\":5609:5615  _owner */\n  sload\n  sub(shl(0xa0, 0x01), 0x01)\n  and\n  swap1\n    /* \"Catch.sol\":5544:5623  function owner() public view returns (address) {... */\n  jump\n    /* \"Catch.sol\":15910:15917  owner() */\ntag_26:\n  sub(shl(0xa0, 0x01), 0x01)\n    /* \"Catch.sol\":15891:15918  _isExcludedFromFee[owner()] */\n  and\n  dup2\n  mstore\n  0x20\n  dup1\n  dup3\n  add\n  swap3\n  swap1\n  swap3\n  mstore\n  0x40\n  swap1\n  dup2\n  add\n  0x00\n  swap1\n  dup2\n  keccak256\n    /* \"Catch.sol\":15891:15925  _isExcludedFromFee[owner()] = true */\n  dup1\n  sload\n  swap5\n  iszero\n  iszero\n  not(0xff)\n  swap6\n  dup7\n  and\n  or\n  swap1\n  sstore\n    /* \"Catch.sol\":15963:15967  this */\n  address\n    /* \"Catch.sol\":15936:15969  _isExcludedFromFee[address(this)] */\n  dup2\n  mstore\n    /* \"Catch.sol\":15936:15954  _isExcludedFromFee */\n  0x06\n    /* \"Catch.sol\":15936:15969  _isExcludedFromFee[address(this)] */\n  swap1\n  swap3\n  mstore\n  swap1\n  keccak256\n    /* \"Catch.sol\":15936:15976  _isExcludedFromFee[address(this)] = true */\n  dup1\n  sload\n  swap1\n  swap2\n  and\n    /* \"Catch.sol\":15891:15925  _isExcludedFromFee[owner()] = true */\n  0x01\n    /* \"Catch.sol\":15936:15976  _isExcludedFromFee[address(this)] = true */\n  or\n  swap1\n  sstore\n    /* \"Catch.sol\":16023:16035  _msgSender() */\n  tag_28\n    /* \"Catch.sol\":4139:4149  msg.sender */\n  caller\n  swap1\n    /* \"Catch.sol\":4043:4158  function _msgSender() internal view virtual returns (address payable) {... */\n  jump\n    /* \"Catch.sol\":16023:16035  _msgSender() */\ntag_28:\n  sub(shl(0xa0, 0x01), 0x01)\n    /* \"Catch.sol\":16002:16045  Transfer(address(0), _msgSender(), _tTotal) */\n  and\n    /* \"Catch.sol\":16019:16020  0 */\n  0x00\n  sub(shl(0xa0, 0x01), 0x01)\n    /* \"Catch.sol\":16002:16045  Transfer(address(0), _msgSender(), _tTotal) */\n  and\n  0xddf252ad1be2c89b69c2b068fc378daa952ba7f163c4a11628f55a4df523b3ef\n    /* \"Catch.sol\":16037:16044  _tTotal */\n  sload(0x09)\n    /* \"Catch.sol\":16002:16045  Transfer(address(0), _msgSender(), _tTotal) */\n  mload(0x40)\n  tag_29\n  swap2\n    /* \"#utility.yul\":1208:1233   */\n  dup2\n  mstore\n    /* \"#utility.yul\":1196:1198   */\n  0x20\n    /* \"#utility.yul\":1181:1199   */\n  add\n  swap1\n    /* \"#utility.yul\":1062:1239   */\n  jump\n    /* \"Catch.sol\":16002:16045  Transfer(address(0), _msgSender(), _tTotal) */\ntag_29:\n  mload(0x40)\n  dup1\n  swap2\n  sub\n  swap1\n  log3\n    /* \"Catch.sol\":15315:16053  {... */\n  pop\n    /* \"Catch.sol\":15280:16053  constructor (address _fundWallet)  {... */\n  pop\n    /* \"Catch.sol\":13340:58954  contract CATCH is Context, IERC20, Ownable {... */\n  jump(tag_34)\n    /* \"#utility.yul\":14:223   */\ntag_2:\n    /* \"#utility.yul\":46:47   */\n  0x00\n    /* \"#utility.yul\":72:73   */\n  dup3\n    /* \"#utility.yul\":62:194   */\n  tag_36\n  jumpi\n    /* \"#utility.yul\":116:126   */\n  0x4e487b71\n    /* \"#utility.yul\":111:114   */\n  0xe0\n    /* \"#utility.yul\":107:127   */\n  shl\n    /* \"#utility.yul\":104:105   */\n  0x00\n    /* \"#utility.yul\":97:128   */\n  mstore\n    /* \"#utility.yul\":151:155   */\n  0x12\n    /* \"#utility.yul\":148:149   */\n  0x04\n    /* \"#utility.yul\":141:156   */\n  mstore\n    /* \"#utility.yul\":179:183   */\n  0x24\n    /* \"#utility.yul\":176:177   */\n  0x00\n    /* \"#utility.yul\":169:184   */\n  revert\n    /* \"#utility.yul\":62:194   */\ntag_36:\n  pop\n    /* \"#utility.yul\":208:217   */\n  mod\n  swap1\n    /* \"#utility.yul\":14:223   */\n  jump\t// out\n    /* \"#utility.yul\":228:453   */\ntag_4:\n    /* \"#utility.yul\":295:304   */\n  dup2\n  dup2\n  sub\n    /* \"#utility.yul\":316:327   */\n  dup2\n  dup2\n  gt\n    /* \"#utility.yul\":313:447   */\n  iszero\n  tag_38\n  jumpi\n    /* \"#utility.yul\":369:379   */\n  0x4e487b71\n    /* \"#utility.yul\":364:367   */\n  0xe0\n    /* \"#utility.yul\":360:380   */\n  shl\n    /* \"#utility.yul\":357:358   */\n  0x00\n    /* \"#utility.yul\":350:381   */\n  mstore\n    /* \"#utility.yul\":404:408   */\n  0x11\n    /* \"#utility.yul\":401:402   */\n  0x04\n    /* \"#utility.yul\":394:409   */\n  mstore\n    /* \"#utility.yul\":432:436   */\n  0x24\n    /* \"#utility.yul\":429:430   */\n  0x00\n    /* \"#utility.yul\":422:437   */\n  revert\n    /* \"#utility.yul\":313:447   */\ntag_38:\n    /* \"#utility.yul\":228:453   */\n  swap3\n  swap2\n  pop\n  pop\n  jump\t// out\n    /* \"#utility.yul\":458:748   */\ntag_7:\n    /* \"#utility.yul\":528:534   */\n  0x00\n    /* \"#utility.yul\":581:583   */\n  0x20\n    /* \"#utility.yul\":569:578   */\n  dup3\n    /* \"#utility.yul\":560:567   */\n  dup5\n    /* \"#utility.yul\":556:579   */\n  sub\n    /* \"#utility.yul\":552:584   */\n  slt\n    /* \"#utility.yul\":549:601   */\n  iszero\n  tag_40\n  jumpi\n    /* \"#utility.yul\":597:598   */\n  0x00\n    /* \"#utility.yul\":594:595   */\n  dup1\n    /* \"#utility.yul\":587:599   */\n  revert\n    /* \"#utility.yul\":549:601   */\ntag_40:\n    /* \"#utility.yul\":623:639   */\n  dup2\n  mload\n  sub(shl(0xa0, 0x01), 0x01)\n    /* \"#utility.yul\":668:699   */\n  dup2\n  and\n    /* \"#utility.yul\":658:700   */\n  dup2\n  eq\n    /* \"#utility.yul\":648:718   */\n  tag_41\n  jumpi\n    /* \"#utility.yul\":714:715   */\n  0x00\n    /* \"#utility.yul\":711:712   */\n  dup1\n    /* \"#utility.yul\":704:716   */\n  revert\n    /* \"#utility.yul\":648:718   */\ntag_41:\n    /* \"#utility.yul\":737:742   */\n  swap4\n    /* \"#utility.yul\":458:748   */\n  swap3\n  pop\n  pop\n  pop\n  jump\t// out\n    /* \"#utility.yul\":1062:1239   */\ntag_34:\n    /* \"Catch.sol\":13340:58954  contract CATCH is Context, IERC20, Ownable {... */\n  mload(0x80)\n  mload(0xa0)\n  codecopy(0x00, dataOffset(sub_0), dataSize(sub_0))\n  0x00\n  assignImmutable(\"0x5192c7f75669ca0287240345ac757ca313b6b35719d108d92e530d5617eb4a60\")\n  0x00\n  assignImmutable(\"0x3ad1041c7fca4b981ec9df1cdec68238bc49ef0c518c8c6bf20002aeca8bde61\")\n  return(0x00, dataSize(sub_0))\nstop\n\nsub_0: assembly {\n        /* \"Catch.sol\":13340:58954  contract CATCH is Context, IERC20, Ownable {... */\n      mstore(0x40, 0x80)\n      jumpi(tag_1, lt(calldatasize, 0x04))\n      shr(0xe0, calldataload(0x00))\n      dup1\n      0x55ce3b9a\n      gt\n      tag_37\n      jumpi\n      dup1\n      0xa69df4b5\n      gt\n      tag_38\n      jumpi\n      dup1\n      0xd7d7442f\n      gt\n      tag_39\n      jumpi\n      dup1\n      0xd7d7442f\n      eq\n      tag_32\n      jumpi\n      dup1\n      0xdd467064\n      eq\n      tag_33\n      jumpi\n      dup1\n      0xdd62ed3e\n      eq\n      tag_34\n      jumpi\n      dup1\n      0xea2f0b37\n      eq\n      tag_35\n      jumpi\n      dup1\n      0xf2fde38b\n      eq\n      tag_36\n      jumpi\n      0x00\n      dup1\n      revert\n    tag_39:\n      dup1\n      0xa69df4b5\n      eq\n      tag_28\n      jumpi\n      dup1\n      0xa9059cbb\n      eq\n      tag_29\n      jumpi\n      dup1\n      0xb6c52324\n      eq\n      tag_30\n      jumpi\n      dup1\n      0xc49b9a80\n      eq\n      tag_31\n      jumpi\n      0x00\n      dup1\n      revert\n    tag_38:\n      dup1\n      0x88f82020\n      gt\n      tag_40\n      jumpi\n      dup1\n      0x88f82020\n      eq\n      tag_24\n      jumpi\n      dup1\n      0x8da5cb5b\n      eq\n      tag_25\n      jumpi\n      dup1\n      0x95d89b41\n      eq\n      tag_26\n      jumpi\n      dup1\n      0xa457c2d7\n      eq\n      tag_27\n      jumpi\n      0x00\n      dup1\n      revert\n    tag_40:\n      dup1\n      0x55ce3b9a\n      eq\n      tag_20\n      jumpi\n      dup1\n      0x664a1ad6\n      eq\n      tag_21\n      jumpi\n      dup1\n      0x70a08231\n      eq\n      tag_22\n      jumpi\n      dup1\n      0x715018a6\n      eq\n      tag_23\n      jumpi\n      0x00\n      dup1\n      revert\n    tag_37:\n      dup1\n      0x3685d419\n      gt\n      tag_41\n      jumpi\n      dup1\n      0x4549b039\n      gt\n      tag_42\n      jumpi\n      dup1\n      0x4549b039\n      eq\n      tag_15\n      jumpi\n      dup1\n      0x49bd5a5e\n      eq\n      tag_16\n      jumpi\n      dup1\n      0x4a74bb02\n      eq\n      tag_17\n      jumpi\n      dup1\n      0x52390c02\n      eq\n      tag_18\n      jumpi\n      dup1\n      0x5342acb4\n      eq\n      tag_19\n      jumpi\n      0x00\n      dup1\n      revert\n    tag_42:\n      dup1\n      0x3685d419\n      eq\n      tag_11\n      jumpi\n      dup1\n      0x39509351\n      eq\n      tag_12\n      jumpi\n      dup1\n      0x3bd5d173\n      eq\n      tag_13\n      jumpi\n      dup1\n      0x437823ec\n      eq\n      tag_14\n      jumpi\n      0x00\n      dup1\n      revert\n    tag_41:\n      dup1\n      0x18160ddd\n      gt\n      tag_43\n      jumpi\n      dup1\n      0x18160ddd\n      eq\n      tag_7\n      jumpi\n      dup1\n      0x23b872dd\n      eq\n      tag_8\n      jumpi\n      dup1\n      0x2d838119\n      eq\n      tag_9\n      jumpi\n      dup1\n      0x313ce567\n      eq\n      tag_10\n      jumpi\n      0x00\n      dup1\n      revert\n    tag_43:\n      dup1\n      0x06fdde03\n      eq\n      tag_3\n      jumpi\n      dup1\n      0x095ea7b3\n      eq\n      tag_4\n      jumpi\n      dup1\n      0x13114a9d\n      eq\n      tag_5\n      jumpi\n      dup1\n      0x1694505e\n      eq\n      tag_6\n      jumpi\n      0x00\n      dup1\n      revert\n    tag_1:\n      jumpi(tag_2, calldatasize)\n      stop\n    tag_2:\n      0x00\n      dup1\n      revert\n        /* \"Catch.sol\":16362:16446  function name() external pure returns (string memory) {... */\n    tag_3:\n      callvalue\n      dup1\n      iszero\n      tag_46\n      jumpi\n      0x00\n      dup1\n      revert\n    tag_46:\n      pop\n        /* \"Catch.sol\":16434:16438  NAME */\n      0x40\n      dup1\n      mload\n      dup1\n      dup3\n      add\n      swap1\n      swap2\n      mstore\n      0x09\n      dup2\n      mstore\n      shl(0xb9, 0x31b0ba31b431b7b4b7)\n      0x20\n      dup3\n      add\n      mstore\n        /* \"Catch.sol\":16362:16446  function name() external pure returns (string memory) {... */\n    tag_47:\n      mload(0x40)\n      tag_49\n      swap2\n      swap1\n      tag_50\n      jump\t// in\n    tag_49:\n      mload(0x40)\n      dup1\n      swap2\n      sub\n      swap1\n      return\n        /* \"Catch.sol\":20116:20277  function approve(address spender, uint256 amount) public override returns (bool) {... */\n    tag_4:\n      callvalue\n      dup1\n      iszero\n      tag_51\n      jumpi\n      0x00\n      dup1\n      revert\n    tag_51:\n      pop\n      tag_52\n      tag_53\n      calldatasize\n      0x04\n      tag_54\n      jump\t// in\n    tag_53:\n      tag_55\n      jump\t// in\n    tag_52:\n      mload(0x40)\n        /* \"#utility.yul\":1188:1202   */\n      swap1\n      iszero\n        /* \"#utility.yul\":1181:1203   */\n      iszero\n        /* \"#utility.yul\":1163:1204   */\n      dup2\n      mstore\n        /* \"#utility.yul\":1151:1153   */\n      0x20\n        /* \"#utility.yul\":1136:1154   */\n      add\n        /* \"Catch.sol\":20116:20277  function approve(address spender, uint256 amount) public override returns (bool) {... */\n      tag_49\n        /* \"#utility.yul\":1023:1210   */\n      jump\n        /* \"Catch.sol\":23571:23660  function totalFees() external view returns (uint256) {... */\n    tag_5:\n      callvalue\n      dup1\n      iszero\n      tag_58\n      jumpi\n      0x00\n      dup1\n      revert\n    tag_58:\n      pop\n        /* \"Catch.sol\":23642:23652  _tFeeTotal */\n      sload(0x0b)\n        /* \"Catch.sol\":23571:23660  function totalFees() external view returns (uint256) {... */\n    tag_59:\n      mload(0x40)\n        /* \"#utility.yul\":1361:1386   */\n      swap1\n      dup2\n      mstore\n        /* \"#utility.yul\":1349:1351   */\n      0x20\n        /* \"#utility.yul\":1334:1352   */\n      add\n        /* \"Catch.sol\":23571:23660  function totalFees() external view returns (uint256) {... */\n      tag_49\n        /* \"#utility.yul\":1215:1392   */\n      jump\n        /* \"Catch.sol\":14062:14113  IUniswapV2Router02 public immutable uniswapV2Router */\n    tag_6:\n      callvalue\n      dup1\n      iszero\n      tag_63\n      jumpi\n      0x00\n      dup1\n      revert\n    tag_63:\n      pop\n      tag_64\n      immutable(\"0x3ad1041c7fca4b981ec9df1cdec68238bc49ef0c518c8c6bf20002aeca8bde61\")\n      dup2\n      jump\n    tag_64:\n      mload(0x40)\n      sub(shl(0xa0, 0x01), 0x01)\n        /* \"#utility.yul\":1587:1619   */\n      swap1\n      swap2\n      and\n        /* \"#utility.yul\":1569:1620   */\n      dup2\n      mstore\n        /* \"#utility.yul\":1557:1559   */\n      0x20\n        /* \"#utility.yul\":1542:1560   */\n      add\n        /* \"Catch.sol\":14062:14113  IUniswapV2Router02 public immutable uniswapV2Router */\n      tag_49\n        /* \"#utility.yul\":1397:1626   */\n      jump\n        /* \"Catch.sol\":17500:17597  function totalSupply() external view override returns (uint256) {... */\n    tag_7:\n      callvalue\n      dup1\n      iszero\n      tag_68\n      jumpi\n      0x00\n      dup1\n      revert\n    tag_68:\n      pop\n        /* \"Catch.sol\":17582:17589  _tTotal */\n      sload(0x09)\n        /* \"Catch.sol\":17500:17597  function totalSupply() external view override returns (uint256) {... */\n      jump(tag_59)\n        /* \"Catch.sol\":20905:21171  function transferFrom(address sender, address recipient, uint256 amount) external override returns (bool) {... */\n    tag_8:\n      callvalue\n      dup1\n      iszero\n      tag_72\n      jumpi\n      0x00\n      dup1\n      revert\n    tag_72:\n      pop\n      tag_52\n      tag_74\n      calldatasize\n      0x04\n      tag_75\n      jump\t// in\n    tag_74:\n      tag_76\n      jump\t// in\n        /* \"Catch.sol\":25952:26202  function tokenFromReflection(uint256 rAmount) public view returns(uint256) {... */\n    tag_9:\n      callvalue\n      dup1\n      iszero\n      tag_78\n      jumpi\n      0x00\n      dup1\n      revert\n    tag_78:\n      pop\n      tag_59\n      tag_80\n      calldatasize\n      0x04\n      tag_81\n      jump\t// in\n    tag_80:\n      tag_82\n      jump\t// in\n        /* \"Catch.sol\":17218:17302  function decimals() external pure returns (uint8) {... */\n    tag_10:\n      callvalue\n      dup1\n      iszero\n      tag_84\n      jumpi\n      0x00\n      dup1\n      revert\n    tag_84:\n      pop\n      mload(0x40)\n        /* \"Catch.sol\":14051:14053  18 */\n      0x12\n        /* \"#utility.yul\":2419:2455   */\n      dup2\n      mstore\n        /* \"#utility.yul\":2407:2409   */\n      0x20\n        /* \"#utility.yul\":2392:2410   */\n      add\n        /* \"Catch.sol\":17218:17302  function decimals() external pure returns (uint8) {... */\n      tag_49\n        /* \"#utility.yul\":2277:2461   */\n      jump\n        /* \"Catch.sol\":27596:28075  function includeInReward(address account) external onlyOwner() {... */\n    tag_11:\n      callvalue\n      dup1\n      iszero\n      tag_89\n      jumpi\n      0x00\n      dup1\n      revert\n    tag_89:\n      pop\n      tag_90\n      tag_91\n      calldatasize\n      0x04\n      tag_92\n      jump\t// in\n    tag_91:\n      tag_93\n      jump\t// in\n    tag_90:\n      stop\n        /* \"Catch.sol\":21693:21908  function increaseAllowance(address spender, uint256 addedValue) external virtual returns (bool) {... */\n    tag_12:\n      callvalue\n      dup1\n      iszero\n      tag_94\n      jumpi\n      0x00\n      dup1\n      revert\n    tag_94:\n      pop\n      tag_52\n      tag_96\n      calldatasize\n      0x04\n      tag_54\n      jump\t// in\n    tag_96:\n      tag_97\n      jump\t// in\n        /* \"Catch.sol\":24039:24398  function deliver(uint256 tAmount) external {... */\n    tag_13:\n      callvalue\n      dup1\n      iszero\n      tag_99\n      jumpi\n      0x00\n      dup1\n      revert\n    tag_99:\n      pop\n      tag_90\n      tag_101\n      calldatasize\n      0x04\n      tag_81\n      jump\t// in\n    tag_101:\n      tag_102\n      jump\t// in\n        /* \"Catch.sol\":30050:30238  function excludeFromFee(address account) external onlyOwner {... */\n    tag_14:\n      callvalue\n      dup1\n      iszero\n      tag_103\n      jumpi\n      0x00\n      dup1\n      revert\n    tag_103:\n      pop\n      tag_90\n      tag_105\n      calldatasize\n      0x04\n      tag_92\n      jump\t// in\n    tag_105:\n      tag_106\n      jump\t// in\n        /* \"Catch.sol\":25046:25476  function reflectionFromToken(uint256 tAmount, bool deductTransferFee) external view returns(uint256) {... */\n    tag_15:\n      callvalue\n      dup1\n      iszero\n      tag_107\n      jumpi\n      0x00\n      dup1\n      revert\n    tag_107:\n      pop\n      tag_59\n      tag_109\n      calldatasize\n      0x04\n      tag_110\n      jump\t// in\n    tag_109:\n      tag_111\n      jump\t// in\n        /* \"Catch.sol\":14120:14158  address public immutable uniswapV2Pair */\n    tag_16:\n      callvalue\n      dup1\n      iszero\n      tag_113\n      jumpi\n      0x00\n      dup1\n      revert\n    tag_113:\n      pop\n      tag_64\n      immutable(\"0x5192c7f75669ca0287240345ac757ca313b6b35719d108d92e530d5617eb4a60\")\n      dup2\n      jump\n        /* \"Catch.sol\":14199:14239  bool public swapAndLiquifyEnabled = true */\n    tag_17:\n      callvalue\n      dup1\n      iszero\n      tag_118\n      jumpi\n      0x00\n      dup1\n      revert\n    tag_118:\n      pop\n      sload(0x0c)\n      tag_52\n      swap1\n      0x0100\n      swap1\n      div\n      0xff\n      and\n      dup2\n      jump\n        /* \"Catch.sol\":26561:26896  function excludeFromReward(address account) external onlyOwner() {... */\n    tag_18:\n      callvalue\n      dup1\n      iszero\n      tag_122\n      jumpi\n      0x00\n      dup1\n      revert\n    tag_122:\n      pop\n      tag_90\n      tag_124\n      calldatasize\n      0x04\n      tag_92\n      jump\t// in\n    tag_124:\n      tag_125\n      jump\t// in\n        /* \"Catch.sol\":44051:44176  function isExcludedFromFee(address account) external view returns(bool) {... */\n    tag_19:\n      callvalue\n      dup1\n      iszero\n      tag_126\n      jumpi\n      0x00\n      dup1\n      revert\n    tag_126:\n      pop\n      tag_52\n      tag_128\n      calldatasize\n      0x04\n      tag_92\n      jump\t// in\n    tag_128:\n      sub(shl(0xa0, 0x01), 0x01)\n        /* \"Catch.sol\":44141:44168  _isExcludedFromFee[account] */\n      and\n        /* \"Catch.sol\":44117:44121  bool */\n      0x00\n        /* \"Catch.sol\":44141:44168  _isExcludedFromFee[account] */\n      swap1\n      dup2\n      mstore\n        /* \"Catch.sol\":44141:44159  _isExcludedFromFee */\n      0x06\n        /* \"Catch.sol\":44141:44168  _isExcludedFromFee[account] */\n      0x20\n      mstore\n      0x40\n      swap1\n      keccak256\n      sload\n      0xff\n      and\n      swap1\n        /* \"Catch.sol\":44051:44176  function isExcludedFromFee(address account) external view returns(bool) {... */\n      jump\n        /* \"Catch.sol\":31129:31345  function setFundWallet(address _fundWallet) external onlyOwner{... */\n    tag_20:\n      callvalue\n      dup1\n      iszero\n      tag_131\n      jumpi\n      0x00\n      dup1\n      revert\n    tag_131:\n      pop\n      tag_90\n      tag_133\n      calldatasize\n      0x04\n      tag_92\n      jump\t// in\n    tag_133:\n      tag_134\n      jump\t// in\n        /* \"Catch.sol\":14466:14491  address public fundWallet */\n    tag_21:\n      callvalue\n      dup1\n      iszero\n      tag_135\n      jumpi\n      0x00\n      dup1\n      revert\n    tag_135:\n      pop\n      sload(0x12)\n      tag_64\n      swap1\n      sub(shl(0xa0, 0x01), 0x01)\n      and\n      dup2\n      jump\n        /* \"Catch.sol\":18102:18324  function balanceOf(address account) public view override returns (uint256) {... */\n    tag_22:\n      callvalue\n      dup1\n      iszero\n      tag_139\n      jumpi\n      0x00\n      dup1\n      revert\n    tag_139:\n      pop\n      tag_59\n      tag_141\n      calldatasize\n      0x04\n      tag_92\n      jump\t// in\n    tag_141:\n      tag_142\n      jump\t// in\n        /* \"Catch.sol\":6187:6335  function renounceOwnership() public virtual onlyOwner {... */\n    tag_23:\n      callvalue\n      dup1\n      iszero\n      tag_144\n      jumpi\n      0x00\n      dup1\n      revert\n    tag_144:\n      pop\n      tag_90\n      tag_146\n      jump\t// in\n        /* \"Catch.sol\":23103:23225  function isExcludedFromReward(address account) external view returns (bool) {... */\n    tag_24:\n      callvalue\n      dup1\n      iszero\n      tag_147\n      jumpi\n      0x00\n      dup1\n      revert\n    tag_147:\n      pop\n      tag_52\n      tag_149\n      calldatasize\n      0x04\n      tag_92\n      jump\t// in\n    tag_149:\n      sub(shl(0xa0, 0x01), 0x01)\n        /* \"Catch.sol\":23197:23217  _isExcluded[account] */\n      and\n        /* \"Catch.sol\":23173:23177  bool */\n      0x00\n        /* \"Catch.sol\":23197:23217  _isExcluded[account] */\n      swap1\n      dup2\n      mstore\n        /* \"Catch.sol\":23197:23208  _isExcluded */\n      0x07\n        /* \"Catch.sol\":23197:23217  _isExcluded[account] */\n      0x20\n      mstore\n      0x40\n      swap1\n      keccak256\n      sload\n      0xff\n      and\n      swap1\n        /* \"Catch.sol\":23103:23225  function isExcludedFromReward(address account) external view returns (bool) {... */\n      jump\n        /* \"Catch.sol\":5544:5623  function owner() public view returns (address) {... */\n    tag_25:\n      callvalue\n      dup1\n      iszero\n      tag_152\n      jumpi\n      0x00\n      dup1\n      revert\n    tag_152:\n      pop\n        /* \"Catch.sol\":5582:5589  address */\n      0x00\n        /* \"Catch.sol\":5609:5615  _owner */\n      sload\n      sub(shl(0xa0, 0x01), 0x01)\n      and\n        /* \"Catch.sol\":5544:5623  function owner() public view returns (address) {... */\n      jump(tag_64)\n        /* \"Catch.sol\":16750:16838  function symbol() external pure returns (string memory) {... */\n    tag_26:\n      callvalue\n      dup1\n      iszero\n      tag_156\n      jumpi\n      0x00\n      dup1\n      revert\n    tag_156:\n      pop\n        /* \"Catch.sol\":16824:16830  SYMBOL */\n      0x40\n      dup1\n      mload\n      dup1\n      dup3\n      add\n      swap1\n      swap2\n      mstore\n      0x05\n      dup2\n      mstore\n      shl(0xdb, 0x08682a8869)\n      0x20\n      dup3\n      add\n      mstore\n        /* \"Catch.sol\":16750:16838  function symbol() external pure returns (string memory) {... */\n      jump(tag_47)\n        /* \"Catch.sol\":22427:22652  function decreaseAllowance(address spender, uint256 subtractedValue) external virtual returns (bool) {... */\n    tag_27:\n      callvalue\n      dup1\n      iszero\n      tag_160\n      jumpi\n      0x00\n      dup1\n      revert\n    tag_160:\n      pop\n      tag_52\n      tag_162\n      calldatasize\n      0x04\n      tag_54\n      jump\t// in\n    tag_162:\n      tag_163\n      jump\t// in\n        /* \"Catch.sol\":7205:7511  function unlock() public virtual {... */\n    tag_28:\n      callvalue\n      dup1\n      iszero\n      tag_165\n      jumpi\n      0x00\n      dup1\n      revert\n    tag_165:\n      pop\n      tag_90\n      tag_167\n      jump\t// in\n        /* \"Catch.sol\":18783:18952  function transfer(address recipient, uint256 amount) external override returns (bool) {... */\n    tag_29:\n      callvalue\n      dup1\n      iszero\n      tag_168\n      jumpi\n      0x00\n      dup1\n      revert\n    tag_168:\n      pop\n      tag_52\n      tag_170\n      calldatasize\n      0x04\n      tag_54\n      jump\t// in\n    tag_170:\n      tag_171\n      jump\t// in\n        /* \"Catch.sol\":6742:6831  function geUnlockTime() public view returns (uint256) {... */\n    tag_30:\n      callvalue\n      dup1\n      iszero\n      tag_173\n      jumpi\n      0x00\n      dup1\n      revert\n    tag_173:\n      pop\n        /* \"Catch.sol\":6814:6823  _lockTime */\n      sload(0x02)\n        /* \"Catch.sol\":6742:6831  function geUnlockTime() public view returns (uint256) {... */\n      jump(tag_59)\n        /* \"Catch.sol\":31873:32046  function setSwapAndLiquifyEnabled(bool _enabled) external onlyOwner {... */\n    tag_31:\n      callvalue\n      dup1\n      iszero\n      tag_177\n      jumpi\n      0x00\n      dup1\n      revert\n    tag_177:\n      pop\n      tag_90\n      tag_179\n      calldatasize\n      0x04\n      tag_180\n      jump\t// in\n    tag_179:\n      tag_181\n      jump\t// in\n        /* \"Catch.sol\":32650:32863  function updateThreshold(uint256 _amount) external onlyOwner {... */\n    tag_32:\n      callvalue\n      dup1\n      iszero\n      tag_182\n      jumpi\n      0x00\n      dup1\n      revert\n    tag_182:\n      pop\n      tag_90\n      tag_184\n      calldatasize\n      0x04\n      tag_81\n      jump\t// in\n    tag_184:\n      tag_185\n      jump\t// in\n        /* \"Catch.sol\":6907:7129  function lock(uint256 time) public virtual onlyOwner {... */\n    tag_33:\n      callvalue\n      dup1\n      iszero\n      tag_186\n      jumpi\n      0x00\n      dup1\n      revert\n    tag_186:\n      pop\n      tag_90\n      tag_188\n      calldatasize\n      0x04\n      tag_81\n      jump\t// in\n    tag_188:\n      tag_189\n      jump\t// in\n        /* \"Catch.sol\":19492:19637  function allowance(address owner, address spender) external view override returns (uint256) {... */\n    tag_34:\n      callvalue\n      dup1\n      iszero\n      tag_190\n      jumpi\n      0x00\n      dup1\n      revert\n    tag_190:\n      pop\n      tag_59\n      tag_192\n      calldatasize\n      0x04\n      tag_193\n      jump\t// in\n    tag_192:\n      sub(shl(0xa0, 0x01), 0x01)\n        /* \"Catch.sol\":19602:19620  _allowances[owner] */\n      swap2\n      dup3\n      and\n        /* \"Catch.sol\":19575:19582  uint256 */\n      0x00\n        /* \"Catch.sol\":19602:19620  _allowances[owner] */\n      swap1\n      dup2\n      mstore\n        /* \"Catch.sol\":19602:19613  _allowances */\n      0x05\n        /* \"Catch.sol\":19602:19620  _allowances[owner] */\n      0x20\n      swap1\n      dup2\n      mstore\n      0x40\n      dup1\n      dup4\n      keccak256\n        /* \"Catch.sol\":19602:19629  _allowances[owner][spender] */\n      swap4\n      swap1\n      swap5\n      and\n      dup3\n      mstore\n      swap2\n      swap1\n      swap2\n      mstore\n      keccak256\n      sload\n      swap1\n        /* \"Catch.sol\":19492:19637  function allowance(address owner, address spender) external view override returns (uint256) {... */\n      jump\n        /* \"Catch.sol\":30599:30783  function includeInFee(address account) external onlyOwner {... */\n    tag_35:\n      callvalue\n      dup1\n      iszero\n      tag_196\n      jumpi\n      0x00\n      dup1\n      revert\n    tag_196:\n      pop\n      tag_90\n      tag_198\n      calldatasize\n      0x04\n      tag_92\n      jump\t// in\n    tag_198:\n      tag_199\n      jump\t// in\n        /* \"Catch.sol\":6490:6734  function transferOwnership(address newOwner) public virtual onlyOwner {... */\n    tag_36:\n      callvalue\n      dup1\n      iszero\n      tag_200\n      jumpi\n      0x00\n      dup1\n      revert\n    tag_200:\n      pop\n      tag_90\n      tag_202\n      calldatasize\n      0x04\n      tag_92\n      jump\t// in\n    tag_202:\n      tag_203\n      jump\t// in\n        /* \"Catch.sol\":20116:20277  function approve(address spender, uint256 amount) public override returns (bool) {... */\n    tag_55:\n        /* \"Catch.sol\":20191:20195  bool */\n      0x00\n        /* \"Catch.sol\":20208:20247  _approve(_msgSender(), spender, amount) */\n      tag_206\n        /* \"Catch.sol\":4139:4149  msg.sender */\n      caller\n        /* \"Catch.sol\":20231:20238  spender */\n      dup5\n        /* \"Catch.sol\":20240:20246  amount */\n      dup5\n        /* \"Catch.sol\":20208:20216  _approve */\n      tag_209\n        /* \"Catch.sol\":20208:20247  _approve(_msgSender(), spender, amount) */\n      jump\t// in\n    tag_206:\n      pop\n        /* \"Catch.sol\":20265:20269  true */\n      0x01\n        /* \"Catch.sol\":20116:20277  function approve(address spender, uint256 amount) public override returns (bool) {... */\n    tag_205:\n      swap3\n      swap2\n      pop\n      pop\n      jump\t// out\n        /* \"Catch.sol\":20905:21171  function transferFrom(address sender, address recipient, uint256 amount) external override returns (bool) {... */\n    tag_76:\n        /* \"Catch.sol\":21005:21009  bool */\n      0x00\n        /* \"Catch.sol\":21022:21058  _transfer(sender, recipient, amount) */\n      tag_213\n        /* \"Catch.sol\":21032:21038  sender */\n      dup5\n        /* \"Catch.sol\":21040:21049  recipient */\n      dup5\n        /* \"Catch.sol\":21051:21057  amount */\n      dup5\n        /* \"Catch.sol\":21022:21031  _transfer */\n      tag_214\n        /* \"Catch.sol\":21022:21058  _transfer(sender, recipient, amount) */\n      jump\t// in\n    tag_213:\n      sub(shl(0xa0, 0x01), 0x01)\n        /* \"Catch.sol\":21100:21119  _allowances[sender] */\n      dup5\n      and\n      0x00\n      swap1\n      dup2\n      mstore\n        /* \"Catch.sol\":21100:21111  _allowances */\n      0x05\n        /* \"Catch.sol\":21100:21119  _allowances[sender] */\n      0x20\n      swap1\n      dup2\n      mstore\n      0x40\n      dup1\n      dup4\n      keccak256\n        /* \"Catch.sol\":4139:4149  msg.sender */\n      caller\n        /* \"Catch.sol\":21100:21133  _allowances[sender][_msgSender()] */\n      dup1\n      dup6\n      mstore\n      swap3\n      mstore\n      swap1\n      swap2\n      keccak256\n      sload\n        /* \"Catch.sol\":21069:21141  _approve(sender, _msgSender(), _allowances[sender][_msgSender()]-amount) */\n      tag_215\n      swap2\n        /* \"Catch.sol\":21078:21084  sender */\n      dup7\n      swap2\n        /* \"Catch.sol\":21100:21140  _allowances[sender][_msgSender()]-amount */\n      tag_218\n      swap1\n        /* \"Catch.sol\":21134:21140  amount */\n      dup7\n      swap1\n        /* \"Catch.sol\":21100:21140  _allowances[sender][_msgSender()]-amount */\n      tag_219\n      jump\t// in\n    tag_218:\n        /* \"Catch.sol\":21069:21077  _approve */\n      tag_209\n        /* \"Catch.sol\":21069:21141  _approve(sender, _msgSender(), _allowances[sender][_msgSender()]-amount) */\n      jump\t// in\n    tag_215:\n      pop\n        /* \"Catch.sol\":21159:21163  true */\n      0x01\n        /* \"Catch.sol\":20905:21171  function transferFrom(address sender, address recipient, uint256 amount) external override returns (bool) {... */\n      swap4\n      swap3\n      pop\n      pop\n      pop\n      jump\t// out\n        /* \"Catch.sol\":25952:26202  function tokenFromReflection(uint256 rAmount) public view returns(uint256) {... */\n    tag_82:\n        /* \"Catch.sol\":26018:26025  uint256 */\n      0x00\n        /* \"Catch.sol\":26057:26064  _rTotal */\n      sload(0x0a)\n        /* \"Catch.sol\":26046:26053  rAmount */\n      dup3\n        /* \"Catch.sol\":26046:26064  rAmount <= _rTotal */\n      gt\n      iszero\n        /* \"Catch.sol\":26038:26111  require(rAmount <= _rTotal, \"Amount must be less than total reflections\") */\n      tag_221\n      jumpi\n      mload(0x40)\n      shl(0xe5, 0x461bcd)\n      dup2\n      mstore\n        /* \"#utility.yul\":4389:4391   */\n      0x20\n        /* \"Catch.sol\":26038:26111  require(rAmount <= _rTotal, \"Amount must be less than total reflections\") */\n      0x04\n      dup3\n      add\n        /* \"#utility.yul\":4371:4392   */\n      mstore\n        /* \"#utility.yul\":4428:4430   */\n      0x2a\n        /* \"#utility.yul\":4408:4426   */\n      0x24\n      dup3\n      add\n        /* \"#utility.yul\":4401:4431   */\n      mstore\n        /* \"#utility.yul\":4467:4501   */\n      0x416d6f756e74206d757374206265206c657373207468616e20746f74616c2072\n        /* \"#utility.yul\":4447:4465   */\n      0x44\n      dup3\n      add\n        /* \"#utility.yul\":4440:4502   */\n      mstore\n      shl(0xb0, 0x65666c656374696f6e73)\n        /* \"#utility.yul\":4518:4536   */\n      0x64\n      dup3\n      add\n        /* \"#utility.yul\":4511:4551   */\n      mstore\n        /* \"#utility.yul\":4568:4587   */\n      0x84\n      add\n        /* \"Catch.sol\":26038:26111  require(rAmount <= _rTotal, \"Amount must be less than total reflections\") */\n    tag_222:\n      mload(0x40)\n      dup1\n      swap2\n      sub\n      swap1\n      revert\n    tag_221:\n        /* \"Catch.sol\":26122:26141  uint256 currentRate */\n      0x00\n        /* \"Catch.sol\":26145:26155  _getRate() */\n      tag_224\n        /* \"Catch.sol\":26145:26153  _getRate */\n      tag_225\n        /* \"Catch.sol\":26145:26155  _getRate() */\n      jump\t// in\n    tag_224:\n        /* \"Catch.sol\":26122:26155  uint256 currentRate =  _getRate() */\n      swap1\n      pop\n        /* \"Catch.sol\":26173:26194  rAmount / currentRate */\n      tag_226\n        /* \"Catch.sol\":26122:26155  uint256 currentRate =  _getRate() */\n      dup2\n        /* \"Catch.sol\":26173:26180  rAmount */\n      dup5\n        /* \"Catch.sol\":26173:26194  rAmount / currentRate */\n      tag_227\n      jump\t// in\n    tag_226:\n        /* \"Catch.sol\":26166:26194  return rAmount / currentRate */\n      swap4\n        /* \"Catch.sol\":25952:26202  function tokenFromReflection(uint256 rAmount) public view returns(uint256) {... */\n      swap3\n      pop\n      pop\n      pop\n      jump\t// out\n        /* \"Catch.sol\":27596:28075  function includeInReward(address account) external onlyOwner() {... */\n    tag_93:\n        /* \"Catch.sol\":5756:5762  _owner */\n      and(sub(shl(0xa0, 0x01), 0x01), sload(0x00))\n        /* \"Catch.sol\":4139:4149  msg.sender */\n      caller\n        /* \"Catch.sol\":5756:5778  _owner == _msgSender() */\n      eq\n        /* \"Catch.sol\":5748:5815  require(_owner == _msgSender(), \"Ownable: caller is not the owner\") */\n      tag_231\n      jumpi\n      mload(0x40)\n      shl(0xe5, 0x461bcd)\n      dup2\n      mstore\n      0x04\n      add\n      tag_222\n      swap1\n      tag_233\n      jump\t// in\n    tag_231:\n      sub(shl(0xa0, 0x01), 0x01)\n        /* \"Catch.sol\":27678:27698  _isExcluded[account] */\n      dup2\n      and\n      0x00\n      swap1\n      dup2\n      mstore\n        /* \"Catch.sol\":27678:27689  _isExcluded */\n      0x07\n        /* \"Catch.sol\":27678:27698  _isExcluded[account] */\n      0x20\n      mstore\n      0x40\n      swap1\n      keccak256\n      sload\n      0xff\n      and\n        /* \"Catch.sol\":27670:27730  require(_isExcluded[account], \"Account is already Included\") */\n      tag_235\n      jumpi\n      mload(0x40)\n      shl(0xe5, 0x461bcd)\n      dup2\n      mstore\n        /* \"#utility.yul\":5383:5385   */\n      0x20\n        /* \"Catch.sol\":27670:27730  require(_isExcluded[account], \"Account is already Included\") */\n      0x04\n      dup3\n      add\n        /* \"#utility.yul\":5365:5386   */\n      mstore\n        /* \"#utility.yul\":5422:5424   */\n      0x1b\n        /* \"#utility.yul\":5402:5420   */\n      0x24\n      dup3\n      add\n        /* \"#utility.yul\":5395:5425   */\n      mstore\n        /* \"#utility.yul\":5461:5490   */\n      0x4163636f756e7420697320616c726561647920496e636c756465640000000000\n        /* \"#utility.yul\":5441:5459   */\n      0x44\n      dup3\n      add\n        /* \"#utility.yul\":5434:5491   */\n      mstore\n        /* \"#utility.yul\":5508:5526   */\n      0x64\n      add\n        /* \"Catch.sol\":27670:27730  require(_isExcluded[account], \"Account is already Included\") */\n      tag_222\n        /* \"#utility.yul\":5181:5532   */\n      jump\n        /* \"Catch.sol\":27670:27730  require(_isExcluded[account], \"Account is already Included\") */\n    tag_235:\n        /* \"Catch.sol\":27746:27755  uint256 i */\n      0x00\n        /* \"Catch.sol\":27741:28068  for (uint256 i = 0; i < _excluded.length; i++) {... */\n    tag_238:\n        /* \"Catch.sol\":27765:27774  _excluded */\n      0x08\n        /* \"Catch.sol\":27765:27781  _excluded.length */\n      sload\n        /* \"Catch.sol\":27761:27781  i < _excluded.length */\n      dup2\n      lt\n        /* \"Catch.sol\":27741:28068  for (uint256 i = 0; i < _excluded.length; i++) {... */\n      iszero\n      tag_239\n      jumpi\n        /* \"Catch.sol\":27823:27830  account */\n      dup2\n      sub(shl(0xa0, 0x01), 0x01)\n        /* \"Catch.sol\":27807:27830  _excluded[i] == account */\n      and\n        /* \"Catch.sol\":27807:27816  _excluded */\n      0x08\n        /* \"Catch.sol\":27817:27818  i */\n      dup3\n        /* \"Catch.sol\":27807:27819  _excluded[i] */\n      dup2\n      sload\n      dup2\n      lt\n      tag_242\n      jumpi\n      tag_242\n      tag_243\n      jump\t// in\n    tag_242:\n      0x00\n      swap2\n      dup3\n      mstore\n      0x20\n      swap1\n      swap2\n      keccak256\n      add\n      sload\n      sub(shl(0xa0, 0x01), 0x01)\n      and\n        /* \"Catch.sol\":27807:27830  _excluded[i] == account */\n      sub\n        /* \"Catch.sol\":27803:28057  if (_excluded[i] == account) {... */\n      tag_245\n      jumpi\n        /* \"Catch.sol\":27866:27875  _excluded */\n      0x08\n        /* \"Catch.sol\":27876:27892  _excluded.length */\n      dup1\n      sload\n        /* \"Catch.sol\":27876:27896  _excluded.length - 1 */\n      tag_246\n      swap1\n        /* \"Catch.sol\":27895:27896  1 */\n      0x01\n      swap1\n        /* \"Catch.sol\":27876:27896  _excluded.length - 1 */\n      tag_219\n      jump\t// in\n    tag_246:\n        /* \"Catch.sol\":27866:27897  _excluded[_excluded.length - 1] */\n      dup2\n      sload\n      dup2\n      lt\n      tag_248\n      jumpi\n      tag_248\n      tag_243\n      jump\t// in\n    tag_248:\n      0x00\n      swap2\n      dup3\n      mstore\n      0x20\n      swap1\n      swap2\n      keccak256\n      add\n      sload\n        /* \"Catch.sol\":27851:27860  _excluded */\n      0x08\n        /* \"Catch.sol\":27851:27863  _excluded[i] */\n      dup1\n      sload\n      sub(shl(0xa0, 0x01), 0x01)\n        /* \"Catch.sol\":27866:27897  _excluded[_excluded.length - 1] */\n      swap1\n      swap3\n      and\n      swap2\n        /* \"Catch.sol\":27861:27862  i */\n      dup4\n      swap1\n        /* \"Catch.sol\":27851:27863  _excluded[i] */\n      dup2\n      lt\n      tag_251\n      jumpi\n      tag_251\n      tag_243\n      jump\t// in\n    tag_251:\n      0x00\n      swap2\n      dup3\n      mstore\n      0x20\n      dup1\n      dup4\n      keccak256\n      swap2\n      swap1\n      swap2\n      add\n        /* \"Catch.sol\":27851:27897  _excluded[i] = _excluded[_excluded.length - 1] */\n      dup1\n      sload\n      not(sub(shl(0xa0, 0x01), 0x01))\n      and\n      sub(shl(0xa0, 0x01), 0x01)\n      swap5\n      dup6\n      and\n      or\n      swap1\n      sstore\n        /* \"Catch.sol\":27916:27932  _tOwned[account] */\n      swap2\n      dup5\n      and\n      dup2\n      mstore\n        /* \"Catch.sol\":27916:27923  _tOwned */\n      0x04\n        /* \"Catch.sol\":27916:27932  _tOwned[account] */\n      dup3\n      mstore\n      0x40\n      dup1\n      dup3\n      keccak256\n        /* \"Catch.sol\":27916:27936  _tOwned[account] = 0 */\n      dup3\n      swap1\n      sstore\n        /* \"Catch.sol\":27955:27966  _isExcluded */\n      0x07\n        /* \"Catch.sol\":27955:27975  _isExcluded[account] */\n      swap1\n      swap3\n      mstore\n      keccak256\n        /* \"Catch.sol\":27955:27983  _isExcluded[account] = false */\n      dup1\n      sload\n      not(0xff)\n      and\n      swap1\n      sstore\n        /* \"Catch.sol\":28002:28011  _excluded */\n      0x08\n        /* \"Catch.sol\":28002:28017  _excluded.pop() */\n      dup1\n      sload\n      dup1\n      tag_254\n      jumpi\n      tag_254\n      tag_255\n      jump\t// in\n    tag_254:\n      0x00\n      dup3\n      dup2\n      mstore\n      0x20\n      swap1\n      keccak256\n      dup2\n      add\n      not(0x00)\n      swap1\n      dup2\n      add\n      dup1\n      sload\n      not(sub(shl(0xa0, 0x01), 0x01))\n      and\n      swap1\n      sstore\n      add\n      swap1\n      sstore\n        /* \"Catch.sol\":27741:28068  for (uint256 i = 0; i < _excluded.length; i++) {... */\n      pop\n        /* \"Catch.sol\":27596:28075  function includeInReward(address account) external onlyOwner() {... */\n      pop\n      jump\t// out\n        /* \"Catch.sol\":27803:28057  if (_excluded[i] == account) {... */\n    tag_245:\n        /* \"Catch.sol\":27783:27786  i++ */\n      0x01\n      add\n        /* \"Catch.sol\":27741:28068  for (uint256 i = 0; i < _excluded.length; i++) {... */\n      jump(tag_238)\n    tag_239:\n      pop\n        /* \"Catch.sol\":27596:28075  function includeInReward(address account) external onlyOwner() {... */\n      pop\n      jump\t// out\n        /* \"Catch.sol\":21693:21908  function increaseAllowance(address spender, uint256 addedValue) external virtual returns (bool) {... */\n    tag_97:\n        /* \"Catch.sol\":4139:4149  msg.sender */\n      caller\n        /* \"Catch.sol\":21783:21787  bool */\n      0x00\n        /* \"Catch.sol\":21832:21857  _allowances[_msgSender()] */\n      dup2\n      dup2\n      mstore\n        /* \"Catch.sol\":21832:21843  _allowances */\n      0x05\n        /* \"Catch.sol\":21832:21857  _allowances[_msgSender()] */\n      0x20\n      swap1\n      dup2\n      mstore\n      0x40\n      dup1\n      dup4\n      keccak256\n      sub(shl(0xa0, 0x01), 0x01)\n        /* \"Catch.sol\":21832:21866  _allowances[_msgSender()][spender] */\n      dup8\n      and\n      dup5\n      mstore\n      swap1\n      swap2\n      mstore\n      dup2\n      keccak256\n      sload\n        /* \"Catch.sol\":21783:21787  bool */\n      swap1\n      swap2\n        /* \"Catch.sol\":21800:21878  _approve(_msgSender(), spender, _allowances[_msgSender()][spender]+addedValue) */\n      tag_206\n      swap2\n        /* \"Catch.sol\":21823:21830  spender */\n      dup6\n      swap1\n        /* \"Catch.sol\":21832:21877  _allowances[_msgSender()][spender]+addedValue */\n      tag_218\n      swap1\n        /* \"Catch.sol\":21867:21877  addedValue */\n      dup7\n      swap1\n        /* \"Catch.sol\":21832:21877  _allowances[_msgSender()][spender]+addedValue */\n      tag_262\n      jump\t// in\n        /* \"Catch.sol\":24039:24398  function deliver(uint256 tAmount) external {... */\n    tag_102:\n        /* \"Catch.sol\":4139:4149  msg.sender */\n      caller\n        /* \"Catch.sol\":24093:24107  address sender */\n      0x00\n        /* \"Catch.sol\":24142:24161  _isExcluded[sender] */\n      dup2\n      dup2\n      mstore\n        /* \"Catch.sol\":24142:24153  _isExcluded */\n      0x07\n        /* \"Catch.sol\":24142:24161  _isExcluded[sender] */\n      0x20\n      mstore\n      0x40\n      swap1\n      keccak256\n      sload\n      0xff\n      and\n        /* \"Catch.sol\":24141:24161  !_isExcluded[sender] */\n      iszero\n        /* \"Catch.sol\":24133:24210  require(!_isExcluded[sender], \"Excluded addresses cannot call this function\") */\n      tag_265\n      jumpi\n      mload(0x40)\n      shl(0xe5, 0x461bcd)\n      dup2\n      mstore\n        /* \"#utility.yul\":6133:6135   */\n      0x20\n        /* \"Catch.sol\":24133:24210  require(!_isExcluded[sender], \"Excluded addresses cannot call this function\") */\n      0x04\n      dup3\n      add\n        /* \"#utility.yul\":6115:6136   */\n      mstore\n        /* \"#utility.yul\":6172:6174   */\n      0x2c\n        /* \"#utility.yul\":6152:6170   */\n      0x24\n      dup3\n      add\n        /* \"#utility.yul\":6145:6175   */\n      mstore\n        /* \"#utility.yul\":6211:6245   */\n      0x4578636c75646564206164647265737365732063616e6e6f742063616c6c2074\n        /* \"#utility.yul\":6191:6209   */\n      0x44\n      dup3\n      add\n        /* \"#utility.yul\":6184:6246   */\n      mstore\n      shl(0xa1, 0x3434b990333ab731ba34b7b7)\n        /* \"#utility.yul\":6262:6280   */\n      0x64\n      dup3\n      add\n        /* \"#utility.yul\":6255:6297   */\n      mstore\n        /* \"#utility.yul\":6314:6333   */\n      0x84\n      add\n        /* \"Catch.sol\":24133:24210  require(!_isExcluded[sender], \"Excluded addresses cannot call this function\") */\n      tag_222\n        /* \"#utility.yul\":5931:6339   */\n      jump\n        /* \"Catch.sol\":24133:24210  require(!_isExcluded[sender], \"Excluded addresses cannot call this function\") */\n    tag_265:\n        /* \"Catch.sol\":24222:24237  uint256 rAmount */\n      0x00\n        /* \"Catch.sol\":24242:24260  _getValue(tAmount) */\n      tag_268\n        /* \"Catch.sol\":24252:24259  tAmount */\n      dup4\n        /* \"Catch.sol\":24242:24251  _getValue */\n      tag_269\n        /* \"Catch.sol\":24242:24260  _getValue(tAmount) */\n      jump\t// in\n    tag_268:\n      pop\n      sub(shl(0xa0, 0x01), 0x01)\n        /* \"Catch.sol\":24289:24304  _rOwned[sender] */\n      dup4\n      and\n      0x00\n      swap1\n      dup2\n      mstore\n        /* \"Catch.sol\":24289:24296  _rOwned */\n      0x03\n        /* \"Catch.sol\":24289:24304  _rOwned[sender] */\n      0x20\n      mstore\n      0x40\n      swap1\n      keccak256\n      sload\n        /* \"Catch.sol\":24221:24260  (uint256 rAmount,) = _getValue(tAmount) */\n      swap1\n      swap2\n      pop\n        /* \"Catch.sol\":24289:24312  _rOwned[sender]-rAmount */\n      tag_270\n      swap1\n        /* \"Catch.sol\":24221:24260  (uint256 rAmount,) = _getValue(tAmount) */\n      dup3\n      swap1\n        /* \"Catch.sol\":24289:24312  _rOwned[sender]-rAmount */\n      tag_219\n      jump\t// in\n    tag_270:\n      sub(shl(0xa0, 0x01), 0x01)\n        /* \"Catch.sol\":24271:24286  _rOwned[sender] */\n      dup4\n      and\n      0x00\n      swap1\n      dup2\n      mstore\n        /* \"Catch.sol\":24271:24278  _rOwned */\n      0x03\n        /* \"Catch.sol\":24271:24286  _rOwned[sender] */\n      0x20\n      mstore\n      0x40\n      swap1\n      keccak256\n        /* \"Catch.sol\":24271:24312  _rOwned[sender] = _rOwned[sender]-rAmount */\n      sstore\n        /* \"Catch.sol\":24333:24340  _rTotal */\n      sload(0x0a)\n        /* \"Catch.sol\":24333:24348  _rTotal-rAmount */\n      tag_271\n      swap1\n        /* \"Catch.sol\":24341:24348  rAmount */\n      dup3\n      swap1\n        /* \"Catch.sol\":24333:24348  _rTotal-rAmount */\n      tag_219\n      jump\t// in\n    tag_271:\n        /* \"Catch.sol\":24323:24330  _rTotal */\n      0x0a\n        /* \"Catch.sol\":24323:24348  _rTotal = _rTotal-rAmount */\n      sstore\n        /* \"Catch.sol\":24372:24382  _tFeeTotal */\n      sload(0x0b)\n        /* \"Catch.sol\":24372:24390  _tFeeTotal+tAmount */\n      tag_272\n      swap1\n        /* \"Catch.sol\":24383:24390  tAmount */\n      dup5\n      swap1\n        /* \"Catch.sol\":24372:24390  _tFeeTotal+tAmount */\n      tag_262\n      jump\t// in\n    tag_272:\n        /* \"Catch.sol\":24359:24369  _tFeeTotal */\n      0x0b\n        /* \"Catch.sol\":24359:24390  _tFeeTotal = _tFeeTotal+tAmount */\n      sstore\n      pop\n      pop\n      pop\n        /* \"Catch.sol\":24039:24398  function deliver(uint256 tAmount) external {... */\n      jump\t// out\n        /* \"Catch.sol\":30050:30238  function excludeFromFee(address account) external onlyOwner {... */\n    tag_106:\n        /* \"Catch.sol\":5756:5762  _owner */\n      and(sub(shl(0xa0, 0x01), 0x01), sload(0x00))\n        /* \"Catch.sol\":4139:4149  msg.sender */\n      caller\n        /* \"Catch.sol\":5756:5778  _owner == _msgSender() */\n      eq\n        /* \"Catch.sol\":5748:5815  require(_owner == _msgSender(), \"Ownable: caller is not the owner\") */\n      tag_275\n      jumpi\n      mload(0x40)\n      shl(0xe5, 0x461bcd)\n      dup2\n      mstore\n      0x04\n      add\n      tag_222\n      swap1\n      tag_233\n      jump\t// in\n    tag_275:\n      sub(shl(0xa0, 0x01), 0x01)\n        /* \"Catch.sol\":30130:30157  _isExcludedFromFee[account] */\n      dup2\n      and\n      0x00\n      swap1\n      dup2\n      mstore\n        /* \"Catch.sol\":30130:30148  _isExcludedFromFee */\n      0x06\n        /* \"Catch.sol\":30130:30157  _isExcludedFromFee[account] */\n      0x20\n      mstore\n      0x40\n      swap1\n      keccak256\n      sload\n      0xff\n      and\n        /* \"Catch.sol\":30129:30157  !_isExcludedFromFee[account] */\n      iszero\n        /* \"Catch.sol\":30121:30185  require(!_isExcludedFromFee[account],\"Alreay excluded from fee\") */\n      tag_278\n      jumpi\n      mload(0x40)\n      shl(0xe5, 0x461bcd)\n      dup2\n      mstore\n        /* \"#utility.yul\":6546:6548   */\n      0x20\n        /* \"Catch.sol\":30121:30185  require(!_isExcludedFromFee[account],\"Alreay excluded from fee\") */\n      0x04\n      dup3\n      add\n        /* \"#utility.yul\":6528:6549   */\n      mstore\n        /* \"#utility.yul\":6585:6587   */\n      0x18\n        /* \"#utility.yul\":6565:6583   */\n      0x24\n      dup3\n      add\n        /* \"#utility.yul\":6558:6588   */\n      mstore\n        /* \"#utility.yul\":6624:6650   */\n      0x416c72656179206578636c756465642066726f6d206665650000000000000000\n        /* \"#utility.yul\":6604:6622   */\n      0x44\n      dup3\n      add\n        /* \"#utility.yul\":6597:6651   */\n      mstore\n        /* \"#utility.yul\":6668:6686   */\n      0x64\n      add\n        /* \"Catch.sol\":30121:30185  require(!_isExcludedFromFee[account],\"Alreay excluded from fee\") */\n      tag_222\n        /* \"#utility.yul\":6344:6692   */\n      jump\n        /* \"Catch.sol\":30121:30185  require(!_isExcludedFromFee[account],\"Alreay excluded from fee\") */\n    tag_278:\n      sub(shl(0xa0, 0x01), 0x01)\n        /* \"Catch.sol\":30196:30223  _isExcludedFromFee[account] */\n      and\n      0x00\n      swap1\n      dup2\n      mstore\n        /* \"Catch.sol\":30196:30214  _isExcludedFromFee */\n      0x06\n        /* \"Catch.sol\":30196:30223  _isExcludedFromFee[account] */\n      0x20\n      mstore\n      0x40\n      swap1\n      keccak256\n        /* \"Catch.sol\":30196:30230  _isExcludedFromFee[account] = true */\n      dup1\n      sload\n      not(0xff)\n      and\n        /* \"Catch.sol\":30226:30230  true */\n      0x01\n        /* \"Catch.sol\":30196:30230  _isExcludedFromFee[account] = true */\n      or\n      swap1\n      sstore\n        /* \"Catch.sol\":30050:30238  function excludeFromFee(address account) external onlyOwner {... */\n      jump\t// out\n        /* \"Catch.sol\":25046:25476  function reflectionFromToken(uint256 tAmount, bool deductTransferFee) external view returns(uint256) {... */\n    tag_111:\n        /* \"Catch.sol\":25138:25145  uint256 */\n      0x00\n        /* \"Catch.sol\":25177:25184  _tTotal */\n      sload(0x09)\n        /* \"Catch.sol\":25166:25173  tAmount */\n      dup4\n        /* \"Catch.sol\":25166:25184  tAmount <= _tTotal */\n      gt\n      iszero\n        /* \"Catch.sol\":25158:25220  require(tAmount <= _tTotal, \"Amount must be less than supply\") */\n      tag_282\n      jumpi\n      mload(0x40)\n      shl(0xe5, 0x461bcd)\n      dup2\n      mstore\n        /* \"#utility.yul\":6899:6901   */\n      0x20\n        /* \"Catch.sol\":25158:25220  require(tAmount <= _tTotal, \"Amount must be less than supply\") */\n      0x04\n      dup3\n      add\n        /* \"#utility.yul\":6881:6902   */\n      mstore\n        /* \"#utility.yul\":6938:6940   */\n      0x1f\n        /* \"#utility.yul\":6918:6936   */\n      0x24\n      dup3\n      add\n        /* \"#utility.yul\":6911:6941   */\n      mstore\n        /* \"#utility.yul\":6977:7010   */\n      0x416d6f756e74206d757374206265206c657373207468616e20737570706c7900\n        /* \"#utility.yul\":6957:6975   */\n      0x44\n      dup3\n      add\n        /* \"#utility.yul\":6950:7011   */\n      mstore\n        /* \"#utility.yul\":7028:7046   */\n      0x64\n      add\n        /* \"Catch.sol\":25158:25220  require(tAmount <= _tTotal, \"Amount must be less than supply\") */\n      tag_222\n        /* \"#utility.yul\":6697:7052   */\n      jump\n        /* \"Catch.sol\":25158:25220  require(tAmount <= _tTotal, \"Amount must be less than supply\") */\n    tag_282:\n        /* \"Catch.sol\":25236:25253  deductTransferFee */\n      dup2\n        /* \"Catch.sol\":25231:25469  if (!deductTransferFee) {... */\n      tag_285\n      jumpi\n        /* \"Catch.sol\":25271:25286  uint256 rAmount */\n      0x00\n        /* \"Catch.sol\":25291:25309  _getValue(tAmount) */\n      tag_286\n        /* \"Catch.sol\":25301:25308  tAmount */\n      dup5\n        /* \"Catch.sol\":25291:25300  _getValue */\n      tag_269\n        /* \"Catch.sol\":25291:25309  _getValue(tAmount) */\n      jump\t// in\n    tag_286:\n      pop\n        /* \"Catch.sol\":25270:25309  (uint256 rAmount,) = _getValue(tAmount) */\n      swap2\n      pop\n        /* \"Catch.sol\":25325:25339  return rAmount */\n      tag_205\n      swap1\n      pop\n      jump\n        /* \"Catch.sol\":25231:25469  if (!deductTransferFee) {... */\n    tag_285:\n        /* \"Catch.sol\":25374:25397  uint256 rTransferAmount */\n      0x00\n        /* \"Catch.sol\":25401:25419  _getValue(tAmount) */\n      tag_288\n        /* \"Catch.sol\":25411:25418  tAmount */\n      dup5\n        /* \"Catch.sol\":25401:25410  _getValue */\n      tag_269\n        /* \"Catch.sol\":25401:25419  _getValue(tAmount) */\n      jump\t// in\n    tag_288:\n        /* \"Catch.sol\":25372:25419  (,uint256 rTransferAmount) = _getValue(tAmount) */\n      swap3\n      pop\n        /* \"Catch.sol\":25435:25457  return rTransferAmount */\n      tag_205\n      swap2\n      pop\n      pop\n      jump\n        /* \"Catch.sol\":26561:26896  function excludeFromReward(address account) external onlyOwner() {... */\n    tag_125:\n        /* \"Catch.sol\":5756:5762  _owner */\n      and(sub(shl(0xa0, 0x01), 0x01), sload(0x00))\n        /* \"Catch.sol\":4139:4149  msg.sender */\n      caller\n        /* \"Catch.sol\":5756:5778  _owner == _msgSender() */\n      eq\n        /* \"Catch.sol\":5748:5815  require(_owner == _msgSender(), \"Ownable: caller is not the owner\") */\n      tag_291\n      jumpi\n      mload(0x40)\n      shl(0xe5, 0x461bcd)\n      dup2\n      mstore\n      0x04\n      add\n      tag_222\n      swap1\n      tag_233\n      jump\t// in\n    tag_291:\n      sub(shl(0xa0, 0x01), 0x01)\n        /* \"Catch.sol\":26646:26666  _isExcluded[account] */\n      dup2\n      and\n      0x00\n      swap1\n      dup2\n      mstore\n        /* \"Catch.sol\":26646:26657  _isExcluded */\n      0x07\n        /* \"Catch.sol\":26646:26666  _isExcluded[account] */\n      0x20\n      mstore\n      0x40\n      swap1\n      keccak256\n      sload\n      0xff\n      and\n        /* \"Catch.sol\":26645:26666  !_isExcluded[account] */\n      iszero\n        /* \"Catch.sol\":26637:26698  require(!_isExcluded[account], \"Account is already excluded\") */\n      tag_294\n      jumpi\n      mload(0x40)\n      shl(0xe5, 0x461bcd)\n      dup2\n      mstore\n        /* \"#utility.yul\":7259:7261   */\n      0x20\n        /* \"Catch.sol\":26637:26698  require(!_isExcluded[account], \"Account is already excluded\") */\n      0x04\n      dup3\n      add\n        /* \"#utility.yul\":7241:7262   */\n      mstore\n        /* \"#utility.yul\":7298:7300   */\n      0x1b\n        /* \"#utility.yul\":7278:7296   */\n      0x24\n      dup3\n      add\n        /* \"#utility.yul\":7271:7301   */\n      mstore\n        /* \"#utility.yul\":7337:7366   */\n      0x4163636f756e7420697320616c7265616479206578636c756465640000000000\n        /* \"#utility.yul\":7317:7335   */\n      0x44\n      dup3\n      add\n        /* \"#utility.yul\":7310:7367   */\n      mstore\n        /* \"#utility.yul\":7384:7402   */\n      0x64\n      add\n        /* \"Catch.sol\":26637:26698  require(!_isExcluded[account], \"Account is already excluded\") */\n      tag_222\n        /* \"#utility.yul\":7057:7408   */\n      jump\n        /* \"Catch.sol\":26637:26698  require(!_isExcluded[account], \"Account is already excluded\") */\n    tag_294:\n      sub(shl(0xa0, 0x01), 0x01)\n        /* \"Catch.sol\":26712:26728  _rOwned[account] */\n      dup2\n      and\n        /* \"Catch.sol\":26731:26732  0 */\n      0x00\n        /* \"Catch.sol\":26712:26728  _rOwned[account] */\n      swap1\n      dup2\n      mstore\n        /* \"Catch.sol\":26712:26719  _rOwned */\n      0x03\n        /* \"Catch.sol\":26712:26728  _rOwned[account] */\n      0x20\n      mstore\n      0x40\n      swap1\n      keccak256\n      sload\n        /* \"Catch.sol\":26712:26732  _rOwned[account] > 0 */\n      iszero\n        /* \"Catch.sol\":26709:26817  if(_rOwned[account] > 0) {... */\n      tag_297\n      jumpi\n      sub(shl(0xa0, 0x01), 0x01)\n        /* \"Catch.sol\":26788:26804  _rOwned[account] */\n      dup2\n      and\n      0x00\n      swap1\n      dup2\n      mstore\n        /* \"Catch.sol\":26788:26795  _rOwned */\n      0x03\n        /* \"Catch.sol\":26788:26804  _rOwned[account] */\n      0x20\n      mstore\n      0x40\n      swap1\n      keccak256\n      sload\n        /* \"Catch.sol\":26768:26805  tokenFromReflection(_rOwned[account]) */\n      tag_298\n      swap1\n        /* \"Catch.sol\":26768:26787  tokenFromReflection */\n      tag_82\n        /* \"Catch.sol\":26768:26805  tokenFromReflection(_rOwned[account]) */\n      jump\t// in\n    tag_298:\n      sub(shl(0xa0, 0x01), 0x01)\n        /* \"Catch.sol\":26749:26765  _tOwned[account] */\n      dup3\n      and\n      0x00\n      swap1\n      dup2\n      mstore\n        /* \"Catch.sol\":26749:26756  _tOwned */\n      0x04\n        /* \"Catch.sol\":26749:26765  _tOwned[account] */\n      0x20\n      mstore\n      0x40\n      swap1\n      keccak256\n        /* \"Catch.sol\":26749:26805  _tOwned[account] = tokenFromReflection(_rOwned[account]) */\n      sstore\n        /* \"Catch.sol\":26709:26817  if(_rOwned[account] > 0) {... */\n    tag_297:\n      sub(shl(0xa0, 0x01), 0x01)\n        /* \"Catch.sol\":26827:26847  _isExcluded[account] */\n      and\n      0x00\n      dup2\n      dup2\n      mstore\n        /* \"Catch.sol\":26827:26838  _isExcluded */\n      0x07\n        /* \"Catch.sol\":26827:26847  _isExcluded[account] */\n      0x20\n      mstore\n      0x40\n      dup2\n      keccak256\n        /* \"Catch.sol\":26827:26854  _isExcluded[account] = true */\n      dup1\n      sload\n      not(0xff)\n      and\n        /* \"Catch.sol\":26850:26854  true */\n      0x01\n        /* \"Catch.sol\":26827:26854  _isExcluded[account] = true */\n      swap1\n      dup2\n      or\n      swap1\n      swap2\n      sstore\n        /* \"Catch.sol\":26865:26874  _excluded */\n      0x08\n        /* \"Catch.sol\":26865:26888  _excluded.push(account) */\n      dup1\n      sload\n      swap2\n      dup3\n      add\n      dup2\n      sstore\n      swap1\n      swap2\n      mstore\n      0xf3f7a9fe364faab93b216da50a3214154f22a0a2b415b23a84c8169e8b636ee3\n      add\n      dup1\n      sload\n      not(sub(shl(0xa0, 0x01), 0x01))\n      and\n      swap1\n      swap2\n      or\n      swap1\n      sstore\n        /* \"Catch.sol\":26561:26896  function excludeFromReward(address account) external onlyOwner() {... */\n      jump\t// out\n        /* \"Catch.sol\":31129:31345  function setFundWallet(address _fundWallet) external onlyOwner{... */\n    tag_134:\n        /* \"Catch.sol\":5756:5762  _owner */\n      and(sub(shl(0xa0, 0x01), 0x01), sload(0x00))\n        /* \"Catch.sol\":4139:4149  msg.sender */\n      caller\n        /* \"Catch.sol\":5756:5778  _owner == _msgSender() */\n      eq\n        /* \"Catch.sol\":5748:5815  require(_owner == _msgSender(), \"Ownable: caller is not the owner\") */\n      tag_303\n      jumpi\n      mload(0x40)\n      shl(0xe5, 0x461bcd)\n      dup2\n      mstore\n      0x04\n      add\n      tag_222\n      swap1\n      tag_233\n      jump\t// in\n    tag_303:\n      sub(shl(0xa0, 0x01), 0x01)\n        /* \"Catch.sol\":31207:31232  _fundWallet != address(0) */\n      dup2\n      and\n        /* \"Catch.sol\":31199:31263  require(_fundWallet != address(0),\"Fund wallet can not be zero\") */\n      tag_306\n      jumpi\n      mload(0x40)\n      shl(0xe5, 0x461bcd)\n      dup2\n      mstore\n        /* \"#utility.yul\":7615:7617   */\n      0x20\n        /* \"Catch.sol\":31199:31263  require(_fundWallet != address(0),\"Fund wallet can not be zero\") */\n      0x04\n      dup3\n      add\n        /* \"#utility.yul\":7597:7618   */\n      mstore\n        /* \"#utility.yul\":7654:7656   */\n      0x1b\n        /* \"#utility.yul\":7634:7652   */\n      0x24\n      dup3\n      add\n        /* \"#utility.yul\":7627:7657   */\n      mstore\n        /* \"#utility.yul\":7693:7722   */\n      0x46756e642077616c6c65742063616e206e6f74206265207a65726f0000000000\n        /* \"#utility.yul\":7673:7691   */\n      0x44\n      dup3\n      add\n        /* \"#utility.yul\":7666:7723   */\n      mstore\n        /* \"#utility.yul\":7740:7758   */\n      0x64\n      add\n        /* \"Catch.sol\":31199:31263  require(_fundWallet != address(0),\"Fund wallet can not be zero\") */\n      tag_222\n        /* \"#utility.yul\":7413:7764   */\n      jump\n        /* \"Catch.sol\":31199:31263  require(_fundWallet != address(0),\"Fund wallet can not be zero\") */\n    tag_306:\n        /* \"Catch.sol\":31271:31281  fundWallet */\n      0x12\n        /* \"Catch.sol\":31271:31295  fundWallet = _fundWallet */\n      dup1\n      sload\n      not(sub(shl(0xa0, 0x01), 0x01))\n      and\n      sub(shl(0xa0, 0x01), 0x01)\n      dup4\n      and\n      swap1\n      dup2\n      or\n      swap1\n      swap2\n      sstore\n        /* \"Catch.sol\":31308:31337  FundWalletChange(_fundWallet) */\n      mload(0x40)\n        /* \"#utility.yul\":1569:1620   */\n      swap1\n      dup2\n      mstore\n        /* \"Catch.sol\":31308:31337  FundWalletChange(_fundWallet) */\n      0x4cb53cdee53f2d4e4e60769add356f6cbd911505806fd6c1eee38f5a6b8a2574\n      swap1\n        /* \"#utility.yul\":1557:1559   */\n      0x20\n        /* \"#utility.yul\":1542:1560   */\n      add\n        /* \"Catch.sol\":31308:31337  FundWalletChange(_fundWallet) */\n    tag_309:\n      mload(0x40)\n      dup1\n      swap2\n      sub\n      swap1\n      log1\n        /* \"Catch.sol\":31129:31345  function setFundWallet(address _fundWallet) external onlyOwner{... */\n      pop\n      jump\t// out\n        /* \"Catch.sol\":18102:18324  function balanceOf(address account) public view override returns (uint256) {... */\n    tag_142:\n      sub(shl(0xa0, 0x01), 0x01)\n        /* \"Catch.sol\":18192:18212  _isExcluded[account] */\n      dup2\n      and\n        /* \"Catch.sol\":18168:18175  uint256 */\n      0x00\n        /* \"Catch.sol\":18192:18212  _isExcluded[account] */\n      swap1\n      dup2\n      mstore\n        /* \"Catch.sol\":18192:18203  _isExcluded */\n      0x07\n        /* \"Catch.sol\":18192:18212  _isExcluded[account] */\n      0x20\n      mstore\n      0x40\n      dup2\n      keccak256\n      sload\n      0xff\n      and\n        /* \"Catch.sol\":18188:18237  if (_isExcluded[account]) return _tOwned[account] */\n      iszero\n      tag_311\n      jumpi\n      pop\n      sub(shl(0xa0, 0x01), 0x01)\n        /* \"Catch.sol\":18221:18237  _tOwned[account] */\n      and\n      0x00\n      swap1\n      dup2\n      mstore\n        /* \"Catch.sol\":18221:18228  _tOwned */\n      0x04\n        /* \"Catch.sol\":18221:18237  _tOwned[account] */\n      0x20\n      mstore\n      0x40\n      swap1\n      keccak256\n      sload\n      swap1\n        /* \"Catch.sol\":18102:18324  function balanceOf(address account) public view override returns (uint256) {... */\n      jump\t// out\n        /* \"Catch.sol\":18188:18237  if (_isExcluded[account]) return _tOwned[account] */\n    tag_311:\n      sub(shl(0xa0, 0x01), 0x01)\n        /* \"Catch.sol\":18285:18301  _rOwned[account] */\n      dup3\n      and\n      0x00\n      swap1\n      dup2\n      mstore\n        /* \"Catch.sol\":18285:18292  _rOwned */\n      0x03\n        /* \"Catch.sol\":18285:18301  _rOwned[account] */\n      0x20\n      mstore\n      0x40\n      swap1\n      keccak256\n      sload\n        /* \"Catch.sol\":18265:18302  tokenFromReflection(_rOwned[account]) */\n      tag_205\n      swap1\n        /* \"Catch.sol\":18265:18284  tokenFromReflection */\n      tag_82\n        /* \"Catch.sol\":18265:18302  tokenFromReflection(_rOwned[account]) */\n      jump\t// in\n        /* \"Catch.sol\":6187:6335  function renounceOwnership() public virtual onlyOwner {... */\n    tag_146:\n        /* \"Catch.sol\":5756:5762  _owner */\n      and(sub(shl(0xa0, 0x01), 0x01), sload(0x00))\n        /* \"Catch.sol\":4139:4149  msg.sender */\n      caller\n        /* \"Catch.sol\":5756:5778  _owner == _msgSender() */\n      eq\n        /* \"Catch.sol\":5748:5815  require(_owner == _msgSender(), \"Ownable: caller is not the owner\") */\n      tag_315\n      jumpi\n      mload(0x40)\n      shl(0xe5, 0x461bcd)\n      dup2\n      mstore\n      0x04\n      add\n      tag_222\n      swap1\n      tag_233\n      jump\t// in\n    tag_315:\n        /* \"Catch.sol\":6294:6295  0 */\n      0x00\n        /* \"Catch.sol\":6278:6284  _owner */\n      dup1\n      sload\n        /* \"Catch.sol\":6257:6297  OwnershipTransferred(_owner, address(0)) */\n      mload(0x40)\n      sub(shl(0xa0, 0x01), 0x01)\n        /* \"Catch.sol\":6278:6284  _owner */\n      swap1\n      swap2\n      and\n      swap1\n        /* \"Catch.sol\":6257:6297  OwnershipTransferred(_owner, address(0)) */\n      0x8be0079c531659141344cd1fd0a4f28419497f9722a3daafe3b4186f6b6457e0\n      swap1\n        /* \"Catch.sol\":6294:6295  0 */\n      dup4\n      swap1\n        /* \"Catch.sol\":6257:6297  OwnershipTransferred(_owner, address(0)) */\n      log3\n        /* \"Catch.sol\":6325:6326  0 */\n      0x00\n        /* \"Catch.sol\":6308:6327  _owner = address(0) */\n      dup1\n      sload\n      not(sub(shl(0xa0, 0x01), 0x01))\n      and\n      swap1\n      sstore\n        /* \"Catch.sol\":6187:6335  function renounceOwnership() public virtual onlyOwner {... */\n      jump\t// out\n        /* \"Catch.sol\":22427:22652  function decreaseAllowance(address spender, uint256 subtractedValue) external virtual returns (bool) {... */\n    tag_163:\n        /* \"Catch.sol\":4139:4149  msg.sender */\n      caller\n        /* \"Catch.sol\":22522:22526  bool */\n      0x00\n        /* \"Catch.sol\":22571:22596  _allowances[_msgSender()] */\n      dup2\n      dup2\n      mstore\n        /* \"Catch.sol\":22571:22582  _allowances */\n      0x05\n        /* \"Catch.sol\":22571:22596  _allowances[_msgSender()] */\n      0x20\n      swap1\n      dup2\n      mstore\n      0x40\n      dup1\n      dup4\n      keccak256\n      sub(shl(0xa0, 0x01), 0x01)\n        /* \"Catch.sol\":22571:22605  _allowances[_msgSender()][spender] */\n      dup8\n      and\n      dup5\n      mstore\n      swap1\n      swap2\n      mstore\n      dup2\n      keccak256\n      sload\n        /* \"Catch.sol\":22522:22526  bool */\n      swap1\n      swap2\n        /* \"Catch.sol\":22539:22622  _approve(_msgSender(), spender, _allowances[_msgSender()][spender]-subtractedValue) */\n      tag_206\n      swap2\n        /* \"Catch.sol\":22562:22569  spender */\n      dup6\n      swap1\n        /* \"Catch.sol\":22571:22621  _allowances[_msgSender()][spender]-subtractedValue */\n      tag_218\n      swap1\n        /* \"Catch.sol\":22606:22621  subtractedValue */\n      dup7\n      swap1\n        /* \"Catch.sol\":22571:22621  _allowances[_msgSender()][spender]-subtractedValue */\n      tag_219\n      jump\t// in\n        /* \"Catch.sol\":7205:7511  function unlock() public virtual {... */\n    tag_167:\n        /* \"Catch.sol\":7257:7271  _previousOwner */\n      and(sub(shl(0xa0, 0x01), 0x01), sload(0x01))\n        /* \"Catch.sol\":7275:7285  msg.sender */\n      caller\n        /* \"Catch.sol\":7257:7285  _previousOwner == msg.sender */\n      eq\n        /* \"Catch.sol\":7249:7326  require(_previousOwner == msg.sender, \"You do not have permission to unlock\") */\n      tag_327\n      jumpi\n      mload(0x40)\n      shl(0xe5, 0x461bcd)\n      dup2\n      mstore\n        /* \"#utility.yul\":7971:7973   */\n      0x20\n        /* \"Catch.sol\":7249:7326  require(_previousOwner == msg.sender, \"You do not have permission to unlock\") */\n      0x04\n      dup3\n      add\n        /* \"#utility.yul\":7953:7974   */\n      mstore\n        /* \"#utility.yul\":8010:8012   */\n      0x24\n        /* \"#utility.yul\":7990:8008   */\n      dup1\n      dup3\n      add\n        /* \"#utility.yul\":7983:8013   */\n      mstore\n        /* \"#utility.yul\":8049:8083   */\n      0x596f7520646f206e6f742068617665207065726d697373696f6e20746f20756e\n        /* \"#utility.yul\":8029:8047   */\n      0x44\n      dup3\n      add\n        /* \"#utility.yul\":8022:8084   */\n      mstore\n      shl(0xe0, 0x6c6f636b)\n        /* \"#utility.yul\":8100:8118   */\n      0x64\n      dup3\n      add\n        /* \"#utility.yul\":8093:8127   */\n      mstore\n        /* \"#utility.yul\":8144:8163   */\n      0x84\n      add\n        /* \"Catch.sol\":7249:7326  require(_previousOwner == msg.sender, \"You do not have permission to unlock\") */\n      tag_222\n        /* \"#utility.yul\":7769:8169   */\n      jump\n        /* \"Catch.sol\":7249:7326  require(_previousOwner == msg.sender, \"You do not have permission to unlock\") */\n    tag_327:\n        /* \"Catch.sol\":7363:7372  _lockTime */\n      sload(0x02)\n        /* \"Catch.sol\":7345:7360  block.timestamp */\n      timestamp\n        /* \"Catch.sol\":7345:7372  block.timestamp > _lockTime */\n      gt\n        /* \"Catch.sol\":7337:7409  require(block.timestamp > _lockTime , \"Contract is locked until 7 days\") */\n      tag_330\n      jumpi\n      mload(0x40)\n      shl(0xe5, 0x461bcd)\n      dup2\n      mstore\n        /* \"#utility.yul\":8376:8378   */\n      0x20\n        /* \"Catch.sol\":7337:7409  require(block.timestamp > _lockTime , \"Contract is locked until 7 days\") */\n      0x04\n      dup3\n      add\n        /* \"#utility.yul\":8358:8379   */\n      mstore\n        /* \"#utility.yul\":8415:8417   */\n      0x1f\n        /* \"#utility.yul\":8395:8413   */\n      0x24\n      dup3\n      add\n        /* \"#utility.yul\":8388:8418   */\n      mstore\n        /* \"#utility.yul\":8454:8487   */\n      0x436f6e7472616374206973206c6f636b656420756e74696c2037206461797300\n        /* \"#utility.yul\":8434:8452   */\n      0x44\n      dup3\n      add\n        /* \"#utility.yul\":8427:8488   */\n      mstore\n        /* \"#utility.yul\":8505:8523   */\n      0x64\n      add\n        /* \"Catch.sol\":7337:7409  require(block.timestamp > _lockTime , \"Contract is locked until 7 days\") */\n      tag_222\n        /* \"#utility.yul\":8174:8529   */\n      jump\n        /* \"Catch.sol\":7337:7409  require(block.timestamp > _lockTime , \"Contract is locked until 7 days\") */\n    tag_330:\n        /* \"Catch.sol\":7454:7468  _previousOwner */\n      sload(0x01)\n      0x00\n        /* \"Catch.sol\":7446:7452  _owner */\n      dup1\n      sload\n        /* \"Catch.sol\":7425:7469  OwnershipTransferred(_owner, _previousOwner) */\n      mload(0x40)\n      sub(shl(0xa0, 0x01), 0x01)\n        /* \"Catch.sol\":7454:7468  _previousOwner */\n      swap4\n      dup5\n      and\n      swap4\n        /* \"Catch.sol\":7446:7452  _owner */\n      swap1\n      swap2\n      and\n      swap2\n        /* \"Catch.sol\":7425:7469  OwnershipTransferred(_owner, _previousOwner) */\n      0x8be0079c531659141344cd1fd0a4f28419497f9722a3daafe3b4186f6b6457e0\n      swap2\n      log3\n        /* \"Catch.sol\":7489:7503  _previousOwner */\n      sload(0x01)\n      0x00\n        /* \"Catch.sol\":7480:7503  _owner = _previousOwner */\n      dup1\n      sload\n      not(sub(shl(0xa0, 0x01), 0x01))\n      and\n      sub(shl(0xa0, 0x01), 0x01)\n        /* \"Catch.sol\":7489:7503  _previousOwner */\n      swap1\n      swap3\n      and\n        /* \"Catch.sol\":7480:7503  _owner = _previousOwner */\n      swap2\n      swap1\n      swap2\n      or\n      swap1\n      sstore\n        /* \"Catch.sol\":7205:7511  function unlock() public virtual {... */\n      jump\t// out\n        /* \"Catch.sol\":18783:18952  function transfer(address recipient, uint256 amount) external override returns (bool) {... */\n    tag_171:\n        /* \"Catch.sol\":18863:18867  bool */\n      0x00\n        /* \"Catch.sol\":18880:18922  _transfer(_msgSender(), recipient, amount) */\n      tag_206\n        /* \"Catch.sol\":4139:4149  msg.sender */\n      caller\n        /* \"Catch.sol\":18904:18913  recipient */\n      dup5\n        /* \"Catch.sol\":18915:18921  amount */\n      dup5\n        /* \"Catch.sol\":18880:18889  _transfer */\n      tag_214\n        /* \"Catch.sol\":18880:18922  _transfer(_msgSender(), recipient, amount) */\n      jump\t// in\n        /* \"Catch.sol\":31873:32046  function setSwapAndLiquifyEnabled(bool _enabled) external onlyOwner {... */\n    tag_181:\n        /* \"Catch.sol\":5756:5762  _owner */\n      and(sub(shl(0xa0, 0x01), 0x01), sload(0x00))\n        /* \"Catch.sol\":4139:4149  msg.sender */\n      caller\n        /* \"Catch.sol\":5756:5778  _owner == _msgSender() */\n      eq\n        /* \"Catch.sol\":5748:5815  require(_owner == _msgSender(), \"Ownable: caller is not the owner\") */\n      tag_339\n      jumpi\n      mload(0x40)\n      shl(0xe5, 0x461bcd)\n      dup2\n      mstore\n      0x04\n      add\n      tag_222\n      swap1\n      tag_233\n      jump\t// in\n    tag_339:\n        /* \"Catch.sol\":31952:31973  swapAndLiquifyEnabled */\n      0x0c\n        /* \"Catch.sol\":31952:31984  swapAndLiquifyEnabled = _enabled */\n      dup1\n      sload\n      dup3\n      iszero\n      iszero\n      0x0100\n      mul\n      not(0xff00)\n      swap1\n      swap2\n      and\n      or\n      swap1\n      sstore\n        /* \"Catch.sol\":32000:32038  SwapAndLiquifyEnabledUpdated(_enabled) */\n      mload(0x40)\n      0x53726dfcaf90650aa7eb35524f4d3220f07413c8d6cb404cc8c18bf5591bc159\n      swap1\n      tag_309\n      swap1\n        /* \"Catch.sol\":31976:31984  _enabled */\n      dup4\n        /* \"#utility.yul\":1188:1202   */\n      iszero\n        /* \"#utility.yul\":1181:1203   */\n      iszero\n        /* \"#utility.yul\":1163:1204   */\n      dup2\n      mstore\n        /* \"#utility.yul\":1151:1153   */\n      0x20\n        /* \"#utility.yul\":1136:1154   */\n      add\n      swap1\n        /* \"#utility.yul\":1023:1210   */\n      jump\n        /* \"Catch.sol\":32650:32863  function updateThreshold(uint256 _amount) external onlyOwner {... */\n    tag_185:\n        /* \"Catch.sol\":5756:5762  _owner */\n      and(sub(shl(0xa0, 0x01), 0x01), sload(0x00))\n        /* \"Catch.sol\":4139:4149  msg.sender */\n      caller\n        /* \"Catch.sol\":5756:5778  _owner == _msgSender() */\n      eq\n        /* \"Catch.sol\":5748:5815  require(_owner == _msgSender(), \"Ownable: caller is not the owner\") */\n      tag_345\n      jumpi\n      mload(0x40)\n      shl(0xe5, 0x461bcd)\n      dup2\n      mstore\n      0x04\n      add\n      tag_222\n      swap1\n      tag_233\n      jump\t// in\n    tag_345:\n        /* \"Catch.sol\":32740:32741  0 */\n      0x00\n        /* \"Catch.sol\":32730:32737  _amount */\n      dup2\n        /* \"Catch.sol\":32730:32741  _amount > 0 */\n      gt\n        /* \"Catch.sol\":32722:32764  require(_amount > 0,\"amount is not valid\") */\n      tag_348\n      jumpi\n      mload(0x40)\n      shl(0xe5, 0x461bcd)\n      dup2\n      mstore\n        /* \"#utility.yul\":8736:8738   */\n      0x20\n        /* \"Catch.sol\":32722:32764  require(_amount > 0,\"amount is not valid\") */\n      0x04\n      dup3\n      add\n        /* \"#utility.yul\":8718:8739   */\n      mstore\n        /* \"#utility.yul\":8775:8777   */\n      0x13\n        /* \"#utility.yul\":8755:8773   */\n      0x24\n      dup3\n      add\n        /* \"#utility.yul\":8748:8778   */\n      mstore\n      shl(0x6a, 0x185b5bdd5b9d081a5cc81b9bdd081d985b1a59)\n        /* \"#utility.yul\":8794:8812   */\n      0x44\n      dup3\n      add\n        /* \"#utility.yul\":8787:8836   */\n      mstore\n        /* \"#utility.yul\":8853:8871   */\n      0x64\n      add\n        /* \"Catch.sol\":32722:32764  require(_amount > 0,\"amount is not valid\") */\n      tag_222\n        /* \"#utility.yul\":8534:8877   */\n      jump\n        /* \"Catch.sol\":32722:32764  require(_amount > 0,\"amount is not valid\") */\n    tag_348:\n        /* \"Catch.sol\":32775:32804  numTokensSellToAddToLiquidity */\n      0x0d\n        /* \"Catch.sol\":32775:32814  numTokensSellToAddToLiquidity = _amount */\n      dup2\n      swap1\n      sstore\n        /* \"Catch.sol\":32830:32855  ThresholdUpdated(_amount) */\n      mload(0x40)\n        /* \"#utility.yul\":1361:1386   */\n      dup2\n      dup2\n      mstore\n        /* \"Catch.sol\":32830:32855  ThresholdUpdated(_amount) */\n      0xadfa8ecb21b6962ebcd0adbd9ab985b7b4c5b5eb3b0dead683171565c7bfe171\n      swap1\n        /* \"#utility.yul\":1349:1351   */\n      0x20\n        /* \"#utility.yul\":1334:1352   */\n      add\n        /* \"Catch.sol\":32830:32855  ThresholdUpdated(_amount) */\n      tag_309\n        /* \"#utility.yul\":1215:1392   */\n      jump\n        /* \"Catch.sol\":6907:7129  function lock(uint256 time) public virtual onlyOwner {... */\n    tag_189:\n        /* \"Catch.sol\":5756:5762  _owner */\n      and(sub(shl(0xa0, 0x01), 0x01), sload(0x00))\n        /* \"Catch.sol\":4139:4149  msg.sender */\n      caller\n        /* \"Catch.sol\":5756:5778  _owner == _msgSender() */\n      eq\n        /* \"Catch.sol\":5748:5815  require(_owner == _msgSender(), \"Ownable: caller is not the owner\") */\n      tag_354\n      jumpi\n      mload(0x40)\n      shl(0xe5, 0x461bcd)\n      dup2\n      mstore\n      0x04\n      add\n      tag_222\n      swap1\n      tag_233\n      jump\t// in\n    tag_354:\n        /* \"Catch.sol\":6988:6994  _owner */\n      0x00\n      dup1\n      sload\n      0x01\n        /* \"Catch.sol\":6971:6994  _previousOwner = _owner */\n      dup1\n      sload\n      not(sub(shl(0xa0, 0x01), 0x01))\n      swap1\n      dup2\n      and\n      sub(shl(0xa0, 0x01), 0x01)\n        /* \"Catch.sol\":6988:6994  _owner */\n      dup5\n      and\n        /* \"Catch.sol\":6971:6994  _previousOwner = _owner */\n      or\n      swap1\n      swap2\n      sstore\n        /* \"Catch.sol\":7005:7024  _owner = address(0) */\n      and\n      swap1\n      sstore\n        /* \"Catch.sol\":7047:7069  block.timestamp + time */\n      tag_357\n        /* \"Catch.sol\":7065:7069  time */\n      dup2\n        /* \"Catch.sol\":7047:7062  block.timestamp */\n      timestamp\n        /* \"Catch.sol\":7047:7069  block.timestamp + time */\n      tag_262\n      jump\t// in\n    tag_357:\n        /* \"Catch.sol\":7035:7044  _lockTime */\n      0x02\n        /* \"Catch.sol\":7035:7069  _lockTime = block.timestamp + time */\n      dup2\n      swap1\n      sstore\n        /* \"Catch.sol\":7092:7098  _owner */\n      0x00\n      dup1\n      sload\n        /* \"Catch.sol\":7085:7121  Locked(_owner, address(0),_lockTime) */\n      0x40\n      dup1\n      mload\n      sub(shl(0xa0, 0x01), 0x01)\n        /* \"Catch.sol\":7092:7098  _owner */\n      swap1\n      swap3\n      and\n        /* \"#utility.yul\":9122:9156   */\n      dup3\n      mstore\n        /* \"#utility.yul\":9187:9189   */\n      0x20\n        /* \"#utility.yul\":9172:9190   */\n      dup3\n      add\n        /* \"#utility.yul\":9165:9208   */\n      swap3\n      swap1\n      swap3\n      mstore\n        /* \"#utility.yul\":9224:9242   */\n      swap1\n      dup2\n      add\n        /* \"#utility.yul\":9217:9251   */\n      swap2\n      swap1\n      swap2\n      mstore\n        /* \"Catch.sol\":7085:7121  Locked(_owner, address(0),_lockTime) */\n      0x989eaa915cbb416ea3d6f9a63b1a3de51770c7674b11fe21ecdf76b4e1d13910\n      swap1\n        /* \"#utility.yul\":9072:9074   */\n      0x60\n        /* \"#utility.yul\":9057:9075   */\n      add\n        /* \"Catch.sol\":7085:7121  Locked(_owner, address(0),_lockTime) */\n      tag_309\n        /* \"#utility.yul\":8882:9257   */\n      jump\n        /* \"Catch.sol\":30599:30783  function includeInFee(address account) external onlyOwner {... */\n    tag_199:\n        /* \"Catch.sol\":5756:5762  _owner */\n      and(sub(shl(0xa0, 0x01), 0x01), sload(0x00))\n        /* \"Catch.sol\":4139:4149  msg.sender */\n      caller\n        /* \"Catch.sol\":5756:5778  _owner == _msgSender() */\n      eq\n        /* \"Catch.sol\":5748:5815  require(_owner == _msgSender(), \"Ownable: caller is not the owner\") */\n      tag_363\n      jumpi\n      mload(0x40)\n      shl(0xe5, 0x461bcd)\n      dup2\n      mstore\n      0x04\n      add\n      tag_222\n      swap1\n      tag_233\n      jump\t// in\n    tag_363:\n      sub(shl(0xa0, 0x01), 0x01)\n        /* \"Catch.sol\":30676:30703  _isExcludedFromFee[account] */\n      dup2\n      and\n      0x00\n      swap1\n      dup2\n      mstore\n        /* \"Catch.sol\":30676:30694  _isExcludedFromFee */\n      0x06\n        /* \"Catch.sol\":30676:30703  _isExcludedFromFee[account] */\n      0x20\n      mstore\n      0x40\n      swap1\n      keccak256\n      sload\n      0xff\n      and\n        /* \"Catch.sol\":30668:30729  require(_isExcludedFromFee[account],\"Alreay included in fee\") */\n      tag_366\n      jumpi\n      mload(0x40)\n      shl(0xe5, 0x461bcd)\n      dup2\n      mstore\n        /* \"#utility.yul\":9464:9466   */\n      0x20\n        /* \"Catch.sol\":30668:30729  require(_isExcludedFromFee[account],\"Alreay included in fee\") */\n      0x04\n      dup3\n      add\n        /* \"#utility.yul\":9446:9467   */\n      mstore\n        /* \"#utility.yul\":9503:9505   */\n      0x16\n        /* \"#utility.yul\":9483:9501   */\n      0x24\n      dup3\n      add\n        /* \"#utility.yul\":9476:9506   */\n      mstore\n      shl(0x50, 0x416c7265617920696e636c7564656420696e20666565)\n        /* \"#utility.yul\":9522:9540   */\n      0x44\n      dup3\n      add\n        /* \"#utility.yul\":9515:9567   */\n      mstore\n        /* \"#utility.yul\":9584:9602   */\n      0x64\n      add\n        /* \"Catch.sol\":30668:30729  require(_isExcludedFromFee[account],\"Alreay included in fee\") */\n      tag_222\n        /* \"#utility.yul\":9262:9608   */\n      jump\n        /* \"Catch.sol\":30668:30729  require(_isExcludedFromFee[account],\"Alreay included in fee\") */\n    tag_366:\n      sub(shl(0xa0, 0x01), 0x01)\n        /* \"Catch.sol\":30740:30767  _isExcludedFromFee[account] */\n      and\n        /* \"Catch.sol\":30770:30775  false */\n      0x00\n        /* \"Catch.sol\":30740:30767  _isExcludedFromFee[account] */\n      swap1\n      dup2\n      mstore\n        /* \"Catch.sol\":30740:30758  _isExcludedFromFee */\n      0x06\n        /* \"Catch.sol\":30740:30767  _isExcludedFromFee[account] */\n      0x20\n      mstore\n      0x40\n      swap1\n      keccak256\n        /* \"Catch.sol\":30740:30775  _isExcludedFromFee[account] = false */\n      dup1\n      sload\n      not(0xff)\n      and\n      swap1\n      sstore\n        /* \"Catch.sol\":30599:30783  function includeInFee(address account) external onlyOwner {... */\n      jump\t// out\n        /* \"Catch.sol\":6490:6734  function transferOwnership(address newOwner) public virtual onlyOwner {... */\n    tag_203:\n        /* \"Catch.sol\":5756:5762  _owner */\n      and(sub(shl(0xa0, 0x01), 0x01), sload(0x00))\n        /* \"Catch.sol\":4139:4149  msg.sender */\n      caller\n        /* \"Catch.sol\":5756:5778  _owner == _msgSender() */\n      eq\n        /* \"Catch.sol\":5748:5815  require(_owner == _msgSender(), \"Ownable: caller is not the owner\") */\n      tag_371\n      jumpi\n      mload(0x40)\n      shl(0xe5, 0x461bcd)\n      dup2\n      mstore\n      0x04\n      add\n      tag_222\n      swap1\n      tag_233\n      jump\t// in\n    tag_371:\n      sub(shl(0xa0, 0x01), 0x01)\n        /* \"Catch.sol\":6579:6601  newOwner != address(0) */\n      dup2\n      and\n        /* \"Catch.sol\":6571:6644  require(newOwner != address(0), \"Ownable: new owner is the zero address\") */\n      tag_374\n      jumpi\n      mload(0x40)\n      shl(0xe5, 0x461bcd)\n      dup2\n      mstore\n        /* \"#utility.yul\":9815:9817   */\n      0x20\n        /* \"Catch.sol\":6571:6644  require(newOwner != address(0), \"Ownable: new owner is the zero address\") */\n      0x04\n      dup3\n      add\n        /* \"#utility.yul\":9797:9818   */\n      mstore\n        /* \"#utility.yul\":9854:9856   */\n      0x26\n        /* \"#utility.yul\":9834:9852   */\n      0x24\n      dup3\n      add\n        /* \"#utility.yul\":9827:9857   */\n      mstore\n        /* \"#utility.yul\":9893:9927   */\n      0x4f776e61626c653a206e6577206f776e657220697320746865207a65726f2061\n        /* \"#utility.yul\":9873:9891   */\n      0x44\n      dup3\n      add\n        /* \"#utility.yul\":9866:9928   */\n      mstore\n      shl(0xd0, 0x646472657373)\n        /* \"#utility.yul\":9944:9962   */\n      0x64\n      dup3\n      add\n        /* \"#utility.yul\":9937:9973   */\n      mstore\n        /* \"#utility.yul\":9990:10009   */\n      0x84\n      add\n        /* \"Catch.sol\":6571:6644  require(newOwner != address(0), \"Ownable: new owner is the zero address\") */\n      tag_222\n        /* \"#utility.yul\":9613:10015   */\n      jump\n        /* \"Catch.sol\":6571:6644  require(newOwner != address(0), \"Ownable: new owner is the zero address\") */\n    tag_374:\n        /* \"Catch.sol\":6681:6687  _owner */\n      0x00\n      dup1\n      sload\n        /* \"Catch.sol\":6660:6698  OwnershipTransferred(_owner, newOwner) */\n      mload(0x40)\n      sub(shl(0xa0, 0x01), 0x01)\n      dup1\n      dup6\n      and\n      swap4\n        /* \"Catch.sol\":6681:6687  _owner */\n      swap3\n      and\n      swap2\n        /* \"Catch.sol\":6660:6698  OwnershipTransferred(_owner, newOwner) */\n      0x8be0079c531659141344cd1fd0a4f28419497f9722a3daafe3b4186f6b6457e0\n      swap2\n      log3\n        /* \"Catch.sol\":6709:6715  _owner */\n      0x00\n        /* \"Catch.sol\":6709:6726  _owner = newOwner */\n      dup1\n      sload\n      not(sub(shl(0xa0, 0x01), 0x01))\n      and\n      sub(shl(0xa0, 0x01), 0x01)\n      swap3\n      swap1\n      swap3\n      and\n      swap2\n      swap1\n      swap2\n      or\n      swap1\n      sstore\n        /* \"Catch.sol\":6490:6734  function transferOwnership(address newOwner) public virtual onlyOwner {... */\n      jump\t// out\n        /* \"Catch.sol\":44852:45189  function _approve(address owner, address spender, uint256 amount) private {... */\n    tag_209:\n      sub(shl(0xa0, 0x01), 0x01)\n        /* \"Catch.sol\":44945:44964  owner != address(0) */\n      dup4\n      and\n        /* \"Catch.sol\":44937:45005  require(owner != address(0), \"ERC20: approve from the zero address\") */\n      tag_379\n      jumpi\n      mload(0x40)\n      shl(0xe5, 0x461bcd)\n      dup2\n      mstore\n        /* \"#utility.yul\":10222:10224   */\n      0x20\n        /* \"Catch.sol\":44937:45005  require(owner != address(0), \"ERC20: approve from the zero address\") */\n      0x04\n      dup3\n      add\n        /* \"#utility.yul\":10204:10225   */\n      mstore\n        /* \"#utility.yul\":10261:10263   */\n      0x24\n        /* \"#utility.yul\":10241:10259   */\n      dup1\n      dup3\n      add\n        /* \"#utility.yul\":10234:10264   */\n      mstore\n        /* \"#utility.yul\":10300:10334   */\n      0x45524332303a20617070726f76652066726f6d20746865207a65726f20616464\n        /* \"#utility.yul\":10280:10298   */\n      0x44\n      dup3\n      add\n        /* \"#utility.yul\":10273:10335   */\n      mstore\n      shl(0xe0, 0x72657373)\n        /* \"#utility.yul\":10351:10369   */\n      0x64\n      dup3\n      add\n        /* \"#utility.yul\":10344:10378   */\n      mstore\n        /* \"#utility.yul\":10395:10414   */\n      0x84\n      add\n        /* \"Catch.sol\":44937:45005  require(owner != address(0), \"ERC20: approve from the zero address\") */\n      tag_222\n        /* \"#utility.yul\":10020:10420   */\n      jump\n        /* \"Catch.sol\":44937:45005  require(owner != address(0), \"ERC20: approve from the zero address\") */\n    tag_379:\n      sub(shl(0xa0, 0x01), 0x01)\n        /* \"Catch.sol\":45024:45045  spender != address(0) */\n      dup3\n      and\n        /* \"Catch.sol\":45016:45084  require(spender != address(0), \"ERC20: approve to the zero address\") */\n      tag_382\n      jumpi\n      mload(0x40)\n      shl(0xe5, 0x461bcd)\n      dup2\n      mstore\n        /* \"#utility.yul\":10627:10629   */\n      0x20\n        /* \"Catch.sol\":45016:45084  require(spender != address(0), \"ERC20: approve to the zero address\") */\n      0x04\n      dup3\n      add\n        /* \"#utility.yul\":10609:10630   */\n      mstore\n        /* \"#utility.yul\":10666:10668   */\n      0x22\n        /* \"#utility.yul\":10646:10664   */\n      0x24\n      dup3\n      add\n        /* \"#utility.yul\":10639:10669   */\n      mstore\n        /* \"#utility.yul\":10705:10739   */\n      0x45524332303a20617070726f766520746f20746865207a65726f206164647265\n        /* \"#utility.yul\":10685:10703   */\n      0x44\n      dup3\n      add\n        /* \"#utility.yul\":10678:10740   */\n      mstore\n      shl(0xf0, 0x7373)\n        /* \"#utility.yul\":10756:10774   */\n      0x64\n      dup3\n      add\n        /* \"#utility.yul\":10749:10781   */\n      mstore\n        /* \"#utility.yul\":10798:10817   */\n      0x84\n      add\n        /* \"Catch.sol\":45016:45084  require(spender != address(0), \"ERC20: approve to the zero address\") */\n      tag_222\n        /* \"#utility.yul\":10425:10823   */\n      jump\n        /* \"Catch.sol\":45016:45084  require(spender != address(0), \"ERC20: approve to the zero address\") */\n    tag_382:\n      sub(shl(0xa0, 0x01), 0x01)\n        /* \"Catch.sol\":45097:45115  _allowances[owner] */\n      dup4\n      dup2\n      and\n      0x00\n      dup2\n      dup2\n      mstore\n        /* \"Catch.sol\":45097:45108  _allowances */\n      0x05\n        /* \"Catch.sol\":45097:45115  _allowances[owner] */\n      0x20\n      swap1\n      dup2\n      mstore\n      0x40\n      dup1\n      dup4\n      keccak256\n        /* \"Catch.sol\":45097:45124  _allowances[owner][spender] */\n      swap5\n      dup8\n      and\n      dup1\n      dup5\n      mstore\n      swap5\n      dup3\n      mstore\n      swap2\n      dup3\n      swap1\n      keccak256\n        /* \"Catch.sol\":45097:45133  _allowances[owner][spender] = amount */\n      dup6\n      swap1\n      sstore\n        /* \"Catch.sol\":45149:45181  Approval(owner, spender, amount) */\n      swap1\n      mload\n        /* \"#utility.yul\":1361:1386   */\n      dup5\n      dup2\n      mstore\n        /* \"Catch.sol\":45149:45181  Approval(owner, spender, amount) */\n      0x8c5be1e5ebec7d5bd14f71427d1e84f3dd0314c0f7b2291e5b200ac8c7c3b925\n      swap2\n        /* \"#utility.yul\":1334:1352   */\n      add\n        /* \"Catch.sol\":45149:45181  Approval(owner, spender, amount) */\n      mload(0x40)\n      dup1\n      swap2\n      sub\n      swap1\n      log3\n        /* \"Catch.sol\":44852:45189  function _approve(address owner, address spender, uint256 amount) private {... */\n      pop\n      pop\n      pop\n      jump\t// out\n        /* \"Catch.sol\":46317:47689  function _transfer( address from, address to, uint256 amount ) private {... */\n    tag_214:\n      sub(shl(0xa0, 0x01), 0x01)\n        /* \"Catch.sol\":46407:46425  from != address(0) */\n      dup4\n      and\n        /* \"Catch.sol\":46399:46467  require(from != address(0), \"ERC20: transfer from the zero address\") */\n      tag_387\n      jumpi\n      mload(0x40)\n      shl(0xe5, 0x461bcd)\n      dup2\n      mstore\n        /* \"#utility.yul\":11030:11032   */\n      0x20\n        /* \"Catch.sol\":46399:46467  require(from != address(0), \"ERC20: transfer from the zero address\") */\n      0x04\n      dup3\n      add\n        /* \"#utility.yul\":11012:11033   */\n      mstore\n        /* \"#utility.yul\":11069:11071   */\n      0x25\n        /* \"#utility.yul\":11049:11067   */\n      0x24\n      dup3\n      add\n        /* \"#utility.yul\":11042:11072   */\n      mstore\n        /* \"#utility.yul\":11108:11142   */\n      0x45524332303a207472616e736665722066726f6d20746865207a65726f206164\n        /* \"#utility.yul\":11088:11106   */\n      0x44\n      dup3\n      add\n        /* \"#utility.yul\":11081:11143   */\n      mstore\n      shl(0xd8, 0x6472657373)\n        /* \"#utility.yul\":11159:11177   */\n      0x64\n      dup3\n      add\n        /* \"#utility.yul\":11152:11187   */\n      mstore\n        /* \"#utility.yul\":11204:11223   */\n      0x84\n      add\n        /* \"Catch.sol\":46399:46467  require(from != address(0), \"ERC20: transfer from the zero address\") */\n      tag_222\n        /* \"#utility.yul\":10828:11229   */\n      jump\n        /* \"Catch.sol\":46399:46467  require(from != address(0), \"ERC20: transfer from the zero address\") */\n    tag_387:\n      sub(shl(0xa0, 0x01), 0x01)\n        /* \"Catch.sol\":46486:46502  to != address(0) */\n      dup3\n      and\n        /* \"Catch.sol\":46478:46542  require(to != address(0), \"ERC20: transfer to the zero address\") */\n      tag_390\n      jumpi\n      mload(0x40)\n      shl(0xe5, 0x461bcd)\n      dup2\n      mstore\n        /* \"#utility.yul\":11436:11438   */\n      0x20\n        /* \"Catch.sol\":46478:46542  require(to != address(0), \"ERC20: transfer to the zero address\") */\n      0x04\n      dup3\n      add\n        /* \"#utility.yul\":11418:11439   */\n      mstore\n        /* \"#utility.yul\":11475:11477   */\n      0x23\n        /* \"#utility.yul\":11455:11473   */\n      0x24\n      dup3\n      add\n        /* \"#utility.yul\":11448:11478   */\n      mstore\n        /* \"#utility.yul\":11514:11548   */\n      0x45524332303a207472616e7366657220746f20746865207a65726f2061646472\n        /* \"#utility.yul\":11494:11512   */\n      0x44\n      dup3\n      add\n        /* \"#utility.yul\":11487:11549   */\n      mstore\n      shl(0xe8, 0x657373)\n        /* \"#utility.yul\":11565:11583   */\n      0x64\n      dup3\n      add\n        /* \"#utility.yul\":11558:11591   */\n      mstore\n        /* \"#utility.yul\":11608:11627   */\n      0x84\n      add\n        /* \"Catch.sol\":46478:46542  require(to != address(0), \"ERC20: transfer to the zero address\") */\n      tag_222\n        /* \"#utility.yul\":11234:11633   */\n      jump\n        /* \"Catch.sol\":46478:46542  require(to != address(0), \"ERC20: transfer to the zero address\") */\n    tag_390:\n        /* \"Catch.sol\":46570:46571  0 */\n      0x00\n        /* \"Catch.sol\":46561:46567  amount */\n      dup2\n        /* \"Catch.sol\":46561:46571  amount > 0 */\n      gt\n        /* \"Catch.sol\":46553:46617  require(amount > 0, \"Transfer amount must be greater than zero\") */\n      tag_393\n      jumpi\n      mload(0x40)\n      shl(0xe5, 0x461bcd)\n      dup2\n      mstore\n        /* \"#utility.yul\":11840:11842   */\n      0x20\n        /* \"Catch.sol\":46553:46617  require(amount > 0, \"Transfer amount must be greater than zero\") */\n      0x04\n      dup3\n      add\n        /* \"#utility.yul\":11822:11843   */\n      mstore\n        /* \"#utility.yul\":11879:11881   */\n      0x29\n        /* \"#utility.yul\":11859:11877   */\n      0x24\n      dup3\n      add\n        /* \"#utility.yul\":11852:11882   */\n      mstore\n        /* \"#utility.yul\":11918:11952   */\n      0x5472616e7366657220616d6f756e74206d757374206265206772656174657220\n        /* \"#utility.yul\":11898:11916   */\n      0x44\n      dup3\n      add\n        /* \"#utility.yul\":11891:11953   */\n      mstore\n      shl(0xb8, 0x7468616e207a65726f)\n        /* \"#utility.yul\":11969:11987   */\n      0x64\n      dup3\n      add\n        /* \"#utility.yul\":11962:12001   */\n      mstore\n        /* \"#utility.yul\":12018:12037   */\n      0x84\n      add\n        /* \"Catch.sol\":46553:46617  require(amount > 0, \"Transfer amount must be greater than zero\") */\n      tag_222\n        /* \"#utility.yul\":11638:12043   */\n      jump\n        /* \"Catch.sol\":46553:46617  require(amount > 0, \"Transfer amount must be greater than zero\") */\n    tag_393:\n        /* \"Catch.sol\":46638:46666  uint256 contractTokenBalance */\n      0x00\n        /* \"Catch.sol\":46669:46693  balanceOf(address(this)) */\n      tag_396\n        /* \"Catch.sol\":46687:46691  this */\n      address\n        /* \"Catch.sol\":46669:46678  balanceOf */\n      tag_142\n        /* \"Catch.sol\":46669:46693  balanceOf(address(this)) */\n      jump\t// in\n    tag_396:\n        /* \"Catch.sol\":46765:46794  numTokensSellToAddToLiquidity */\n      sload(0x0d)\n        /* \"Catch.sol\":46638:46693  uint256 contractTokenBalance = balanceOf(address(this)) */\n      swap1\n      swap2\n      pop\n        /* \"Catch.sol\":46741:46794  contractTokenBalance >= numTokensSellToAddToLiquidity */\n      dup2\n      lt\n      dup1\n      iszero\n      swap1\n      dup2\n      swap1\n        /* \"Catch.sol\":46823:46876  overMinTokenBalance &&... */\n      tag_397\n      jumpi\n      pop\n        /* \"Catch.sol\":46860:46876  inSwapAndLiquify */\n      and(0xff, sload(0x0c))\n        /* \"Catch.sol\":46859:46876  !inSwapAndLiquify */\n      iszero\n        /* \"Catch.sol\":46823:46876  overMinTokenBalance &&... */\n    tag_397:\n        /* \"Catch.sol\":46823:46914  overMinTokenBalance &&... */\n      dup1\n      iszero\n      tag_398\n      jumpi\n      pop\n        /* \"Catch.sol\":46901:46914  uniswapV2Pair */\n      immutable(\"0x5192c7f75669ca0287240345ac757ca313b6b35719d108d92e530d5617eb4a60\")\n      sub(shl(0xa0, 0x01), 0x01)\n        /* \"Catch.sol\":46893:46914  from != uniswapV2Pair */\n      and\n        /* \"Catch.sol\":46893:46897  from */\n      dup6\n      sub(shl(0xa0, 0x01), 0x01)\n        /* \"Catch.sol\":46893:46914  from != uniswapV2Pair */\n      and\n      eq\n      iszero\n        /* \"Catch.sol\":46823:46914  overMinTokenBalance &&... */\n    tag_398:\n        /* \"Catch.sol\":46823:46952  overMinTokenBalance &&... */\n      dup1\n      iszero\n      tag_399\n      jumpi\n      pop\n        /* \"Catch.sol\":46931:46952  swapAndLiquifyEnabled */\n      sload(0x0c)\n      0x0100\n      swap1\n      div\n      0xff\n      and\n        /* \"Catch.sol\":46823:46952  overMinTokenBalance &&... */\n    tag_399:\n        /* \"Catch.sol\":46805:47123  if (... */\n      iszero\n      tag_401\n      jumpi\n        /* \"Catch.sol\":47002:47031  numTokensSellToAddToLiquidity */\n      sload(0x0d)\n        /* \"Catch.sol\":46979:47031  contractTokenBalance = numTokensSellToAddToLiquidity */\n      swap2\n      pop\n        /* \"Catch.sol\":47075:47111  swapAndLiquify(contractTokenBalance) */\n      tag_401\n        /* \"Catch.sol\":47090:47110  contractTokenBalance */\n      dup3\n        /* \"Catch.sol\":47075:47089  swapAndLiquify */\n      tag_402\n        /* \"Catch.sol\":47075:47111  swapAndLiquify(contractTokenBalance) */\n      jump\t// in\n    tag_401:\n      sub(shl(0xa0, 0x01), 0x01)\n        /* \"Catch.sol\":47331:47355  _isExcludedFromFee[from] */\n      dup6\n      and\n        /* \"Catch.sol\":47204:47216  bool takeFee */\n      0x00\n        /* \"Catch.sol\":47331:47355  _isExcludedFromFee[from] */\n      swap1\n      dup2\n      mstore\n        /* \"Catch.sol\":47331:47349  _isExcludedFromFee */\n      0x06\n        /* \"Catch.sol\":47331:47355  _isExcludedFromFee[from] */\n      0x20\n      mstore\n      0x40\n      swap1\n      keccak256\n      sload\n        /* \"Catch.sol\":47219:47223  true */\n      0x01\n      swap1\n        /* \"Catch.sol\":47331:47355  _isExcludedFromFee[from] */\n      0xff\n      and\n      dup1\n        /* \"Catch.sol\":47331:47381  _isExcludedFromFee[from] || _isExcludedFromFee[to] */\n      tag_403\n      jumpi\n      pop\n      sub(shl(0xa0, 0x01), 0x01)\n        /* \"Catch.sol\":47359:47381  _isExcludedFromFee[to] */\n      dup6\n      and\n      0x00\n      swap1\n      dup2\n      mstore\n        /* \"Catch.sol\":47359:47377  _isExcludedFromFee */\n      0x06\n        /* \"Catch.sol\":47359:47381  _isExcludedFromFee[to] */\n      0x20\n      mstore\n      0x40\n      swap1\n      keccak256\n      sload\n      0xff\n      and\n        /* \"Catch.sol\":47331:47381  _isExcludedFromFee[from] || _isExcludedFromFee[to] */\n    tag_403:\n        /* \"Catch.sol\":47328:47424  if(_isExcludedFromFee[from] || _isExcludedFromFee[to]){... */\n      iszero\n      tag_404\n      jumpi\n      pop\n        /* \"Catch.sol\":47407:47412  false */\n      0x00\n        /* \"Catch.sol\":47328:47424  if(_isExcludedFromFee[from] || _isExcludedFromFee[to]){... */\n    tag_404:\n        /* \"Catch.sol\":47518:47525  takeFee */\n      dup1\n        /* \"Catch.sol\":47515:47556  if(takeFee)... */\n      iszero\n      tag_406\n      jumpi\n        /* \"Catch.sol\":47536:47556  _sellBuyTax(from,to) */\n      tag_406\n        /* \"Catch.sol\":47548:47552  from */\n      dup7\n        /* \"Catch.sol\":47553:47555  to */\n      dup7\n        /* \"Catch.sol\":47536:47547  _sellBuyTax */\n      tag_407\n        /* \"Catch.sol\":47536:47556  _sellBuyTax(from,to) */\n      jump\t// in\n    tag_406:\n        /* \"Catch.sol\":47643:47681  _tokenTransfer(from,to,amount,takeFee) */\n      tag_408\n        /* \"Catch.sol\":47658:47662  from */\n      dup7\n        /* \"Catch.sol\":47663:47665  to */\n      dup7\n        /* \"Catch.sol\":47666:47672  amount */\n      dup7\n        /* \"Catch.sol\":47673:47680  takeFee */\n      dup5\n        /* \"Catch.sol\":47643:47657  _tokenTransfer */\n      tag_409\n        /* \"Catch.sol\":47643:47681  _tokenTransfer(from,to,amount,takeFee) */\n      jump\t// in\n    tag_408:\n        /* \"Catch.sol\":46388:47689  {... */\n      pop\n      pop\n      pop\n        /* \"Catch.sol\":46317:47689  function _transfer( address from, address to, uint256 amount ) private {... */\n      pop\n      pop\n      pop\n      jump\t// out\n        /* \"Catch.sol\":40340:40500  function _getRate() private view returns(uint256) {... */\n    tag_225:\n        /* \"Catch.sol\":40381:40388  uint256 */\n      0x00\n        /* \"Catch.sol\":40402:40417  uint256 rSupply */\n      dup1\n        /* \"Catch.sol\":40419:40434  uint256 tSupply */\n      0x00\n        /* \"Catch.sol\":40438:40457  _getCurrentSupply() */\n      tag_411\n        /* \"Catch.sol\":40438:40455  _getCurrentSupply */\n      tag_412\n        /* \"Catch.sol\":40438:40457  _getCurrentSupply() */\n      jump\t// in\n    tag_411:\n        /* \"Catch.sol\":40401:40457  (uint256 rSupply, uint256 tSupply) = _getCurrentSupply() */\n      swap1\n      swap3\n      pop\n      swap1\n      pop\n        /* \"Catch.sol\":40475:40492  rSupply / tSupply */\n      tag_413\n        /* \"Catch.sol\":40401:40457  (uint256 rSupply, uint256 tSupply) = _getCurrentSupply() */\n      dup2\n      dup4\n        /* \"Catch.sol\":40475:40492  rSupply / tSupply */\n      tag_227\n      jump\t// in\n    tag_413:\n        /* \"Catch.sol\":40468:40492  return rSupply / tSupply */\n      swap3\n      pop\n      pop\n      pop\n        /* \"Catch.sol\":40340:40500  function _getRate() private view returns(uint256) {... */\n      swap1\n      jump\t// out\n        /* \"Catch.sol\":36796:37152  function _getValue(uint256 tAmount) private view returns(uint256, uint256){... */\n    tag_269:\n        /* \"Catch.sol\":36853:36860  uint256 */\n      0x00\n        /* \"Catch.sol\":36862:36869  uint256 */\n      dup1\n        /* \"Catch.sol\":36884:36896  uint256 tFee */\n      0x00\n        /* \"Catch.sol\":36898:36916  uint256 tLiquidity */\n      dup1\n        /* \"Catch.sol\":36918:36940  uint256 tCoinOperation */\n      0x00\n        /* \"Catch.sol\":36942:36955  uint256 tBurn */\n      dup1\n        /* \"Catch.sol\":36959:36979  _getTValues(tAmount) */\n      tag_415\n        /* \"Catch.sol\":36971:36978  tAmount */\n      dup8\n        /* \"Catch.sol\":36959:36970  _getTValues */\n      tag_416\n        /* \"Catch.sol\":36959:36979  _getTValues(tAmount) */\n      jump\t// in\n    tag_415:\n        /* \"Catch.sol\":36881:36979  (, uint256 tFee, uint256 tLiquidity, uint256 tCoinOperation, uint256 tBurn) = _getTValues(tAmount) */\n      swap5\n      pop\n      swap5\n      pop\n      swap5\n      pop\n      swap5\n      pop\n      pop\n        /* \"Catch.sol\":36991:37006  uint256 rAmount */\n      0x00\n        /* \"Catch.sol\":37008:37031  uint256 rTransferAmount */\n      dup1\n        /* \"Catch.sol\":37036:37097  _getRValues(tAmount, tFee, tLiquidity, tCoinOperation, tBurn) */\n      tag_417\n        /* \"Catch.sol\":37048:37055  tAmount */\n      dup10\n        /* \"Catch.sol\":37057:37061  tFee */\n      dup8\n        /* \"Catch.sol\":37063:37073  tLiquidity */\n      dup8\n        /* \"Catch.sol\":37075:37089  tCoinOperation */\n      dup8\n        /* \"Catch.sol\":37091:37096  tBurn */\n      dup8\n        /* \"Catch.sol\":37036:37047  _getRValues */\n      tag_418\n        /* \"Catch.sol\":37036:37097  _getRValues(tAmount, tFee, tLiquidity, tCoinOperation, tBurn) */\n      jump\t// in\n    tag_417:\n      pop\n        /* \"Catch.sol\":36990:37097  (uint256 rAmount, uint256 rTransferAmount,) = _getRValues(tAmount, tFee, tLiquidity, tCoinOperation, tBurn) */\n      swap1\n      swap11\n      swap1\n      swap10\n      pop\n        /* \"Catch.sol\":36796:37152  function _getValue(uint256 tAmount) private view returns(uint256, uint256){... */\n      swap8\n      pop\n      pop\n      pop\n      pop\n      pop\n      pop\n      pop\n      pop\n      jump\t// out\n        /* \"Catch.sol\":50012:50983  function swapAndLiquify(uint256 contractTokenBalance) private lockTheSwap {... */\n    tag_402:\n        /* \"Catch.sol\":14965:14981  inSwapAndLiquify */\n      0x0c\n        /* \"Catch.sol\":14965:14988  inSwapAndLiquify = true */\n      dup1\n      sload\n      not(0xff)\n      and\n        /* \"Catch.sol\":14984:14988  true */\n      0x01\n        /* \"Catch.sol\":14965:14988  inSwapAndLiquify = true */\n      or\n      swap1\n      sstore\n        /* \"Catch.sol\":14965:14981  inSwapAndLiquify */\n      0x00\n        /* \"Catch.sol\":50163:50187  contractTokenBalance / 2 */\n      tag_421\n        /* \"Catch.sol\":50186:50187  2 */\n      0x02\n        /* \"Catch.sol\":50163:50183  contractTokenBalance */\n      dup4\n        /* \"Catch.sol\":50163:50187  contractTokenBalance / 2 */\n      tag_227\n      jump\t// in\n    tag_421:\n        /* \"Catch.sol\":50148:50187  uint256 half = contractTokenBalance / 2 */\n      swap1\n      pop\n        /* \"Catch.sol\":50198:50215  uint256 otherHalf */\n      0x00\n        /* \"Catch.sol\":50218:50245  contractTokenBalance - half */\n      tag_422\n        /* \"Catch.sol\":50148:50187  uint256 half = contractTokenBalance / 2 */\n      dup3\n        /* \"Catch.sol\":50218:50238  contractTokenBalance */\n      dup5\n        /* \"Catch.sol\":50218:50245  contractTokenBalance - half */\n      tag_219\n      jump\t// in\n    tag_422:\n        /* \"Catch.sol\":50198:50245  uint256 otherHalf = contractTokenBalance - half */\n      swap1\n      pop\n        /* \"Catch.sol\":50548:50569  address(this).balance */\n      selfbalance\n        /* \"Catch.sol\":50614:50636  swapTokensForEth(half) */\n      tag_423\n        /* \"Catch.sol\":50631:50635  half */\n      dup4\n        /* \"Catch.sol\":50614:50630  swapTokensForEth */\n      tag_424\n        /* \"Catch.sol\":50614:50636  swapTokensForEth(half) */\n      jump\t// in\n    tag_423:\n        /* \"Catch.sol\":50762:50780  uint256 newBalance */\n      0x00\n        /* \"Catch.sol\":50783:50821  address(this).balance - initialBalance */\n      tag_425\n        /* \"Catch.sol\":50807:50821  initialBalance */\n      dup3\n        /* \"Catch.sol\":50783:50804  address(this).balance */\n      selfbalance\n        /* \"Catch.sol\":50783:50821  address(this).balance - initialBalance */\n      tag_219\n      jump\t// in\n    tag_425:\n        /* \"Catch.sol\":50762:50821  uint256 newBalance = address(this).balance - initialBalance */\n      swap1\n      pop\n        /* \"Catch.sol\":50871:50906  addLiquidity(otherHalf, newBalance) */\n      tag_426\n        /* \"Catch.sol\":50884:50893  otherHalf */\n      dup4\n        /* \"Catch.sol\":50895:50905  newBalance */\n      dup3\n        /* \"Catch.sol\":50871:50883  addLiquidity */\n      tag_427\n        /* \"Catch.sol\":50871:50906  addLiquidity(otherHalf, newBalance) */\n      jump\t// in\n    tag_426:\n        /* \"Catch.sol\":50932:50975  SwapAndLiquify(half, newBalance, otherHalf) */\n      0x40\n      dup1\n      mload\n        /* \"#utility.yul\":12250:12275   */\n      dup6\n      dup2\n      mstore\n        /* \"#utility.yul\":12306:12308   */\n      0x20\n        /* \"#utility.yul\":12291:12309   */\n      dup2\n      add\n        /* \"#utility.yul\":12284:12318   */\n      dup4\n      swap1\n      mstore\n        /* \"#utility.yul\":12334:12352   */\n      swap1\n      dup2\n      add\n        /* \"#utility.yul\":12327:12361   */\n      dup5\n      swap1\n      mstore\n        /* \"Catch.sol\":50932:50975  SwapAndLiquify(half, newBalance, otherHalf) */\n      0x17bbfb9a6069321b6ded73bd96327c9e6b7212a5cd51ff219cd61370acafb561\n      swap1\n        /* \"#utility.yul\":12238:12240   */\n      0x60\n        /* \"#utility.yul\":12223:12241   */\n      add\n        /* \"Catch.sol\":50932:50975  SwapAndLiquify(half, newBalance, otherHalf) */\n      mload(0x40)\n      dup1\n      swap2\n      sub\n      swap1\n      log1\n      pop\n      pop\n        /* \"Catch.sol\":15011:15027  inSwapAndLiquify */\n      0x0c\n        /* \"Catch.sol\":15011:15035  inSwapAndLiquify = false */\n      dup1\n      sload\n      not(0xff)\n      and\n      swap1\n      sstore\n      pop\n      pop\n      pop\n        /* \"Catch.sol\":50012:50983  function swapAndLiquify(uint256 contractTokenBalance) private lockTheSwap {... */\n      jump\t// out\n        /* \"Catch.sol\":48420:49425  function _sellBuyTax(address from, address to) private {... */\n    tag_407:\n      sub(shl(0xa0, 0x01), 0x01)\n        /* \"Catch.sol\":48532:48553  from == uniswapV2Pair */\n      dup3\n      dup2\n      and\n        /* \"Catch.sol\":48540:48553  uniswapV2Pair */\n      immutable(\"0x5192c7f75669ca0287240345ac757ca313b6b35719d108d92e530d5617eb4a60\")\n        /* \"Catch.sol\":48532:48553  from == uniswapV2Pair */\n      dup3\n      and\n      swap1\n      dup2\n      eq\n      swap2\n        /* \"Catch.sol\":48578:48597  to == uniswapV2Pair */\n      dup4\n      and\n      eq\n        /* \"Catch.sol\":48661:48662  1 */\n      0x01\n      dup1\n      dup1\n        /* \"Catch.sol\":48519:48529  bool isBuy */\n      0x00\n        /* \"Catch.sol\":48819:48820  2 */\n      0x02\n        /* \"Catch.sol\":48661:48662  1 */\n      dup3\n        /* \"Catch.sol\":48819:48820  2 */\n      dup2\n        /* \"Catch.sol\":48661:48662  1 */\n      dup2\n        /* \"Catch.sol\":48925:49418  if (isBuy) {    ... */\n      dup10\n      iszero\n      tag_431\n      jumpi\n        /* \"Catch.sol\":48955:48961  refAmt */\n      0x0e\n        /* \"Catch.sol\":48955:48975  refAmt =   buyRefAmt */\n      dup9\n      swap1\n      sstore\n        /* \"Catch.sol\":48996:49009  coinOperation */\n      0x0f\n        /* \"Catch.sol\":48996:49028  coinOperation = buyCoinOperation */\n      dup8\n      swap1\n      sstore\n        /* \"Catch.sol\":49049:49057  liquidty */\n      0x10\n        /* \"Catch.sol\":49049:49072  liquidty = buyLiquidity */\n      dup7\n      swap1\n      sstore\n        /* \"Catch.sol\":49093:49097  burn */\n      0x11\n        /* \"Catch.sol\":49093:49107  burn = buyBurn */\n      dup6\n      swap1\n      sstore\n        /* \"Catch.sol\":48925:49418  if (isBuy) {    ... */\n      jump(tag_435)\n    tag_431:\n        /* \"Catch.sol\":49155:49161  isSell */\n      dup9\n        /* \"Catch.sol\":49151:49418  if (isSell) {... */\n      iszero\n      tag_433\n      jumpi\n        /* \"Catch.sol\":49178:49184  refAmt */\n      0x0e\n        /* \"Catch.sol\":49178:49199  refAmt =   sellRefAmt */\n      dup5\n      swap1\n      sstore\n        /* \"Catch.sol\":49219:49232  coinOperation */\n      0x0f\n        /* \"Catch.sol\":49219:49243  coinOperation = sellCoin */\n      dup4\n      swap1\n      sstore\n        /* \"Catch.sol\":49263:49271  liquidty */\n      0x10\n        /* \"Catch.sol\":49263:49281  liquidty = sellLiq */\n      dup3\n      swap1\n      sstore\n        /* \"Catch.sol\":49301:49305  burn */\n      0x11\n        /* \"Catch.sol\":49301:49316  burn = sellBurn */\n      dup2\n      swap1\n      sstore\n        /* \"Catch.sol\":49151:49418  if (isSell) {... */\n      jump(tag_435)\n    tag_433:\n        /* \"Catch.sol\":49388:49402  removeAllFee() */\n      tag_435\n        /* \"Catch.sol\":43942:43943  0 */\n      0x00\n        /* \"Catch.sol\":43931:43937  refAmt */\n      0x0e\n        /* \"Catch.sol\":43931:43943  refAmt =   0 */\n      dup2\n      swap1\n      sstore\n        /* \"Catch.sol\":43958:43971  coinOperation */\n      0x0f\n        /* \"Catch.sol\":43958:43975  coinOperation = 0 */\n      dup2\n      swap1\n      sstore\n        /* \"Catch.sol\":43990:43998  liquidty */\n      0x10\n        /* \"Catch.sol\":43990:44002  liquidty = 0 */\n      dup2\n      swap1\n      sstore\n        /* \"Catch.sol\":44017:44021  burn */\n      0x11\n        /* \"Catch.sol\":44017:44025  burn = 0 */\n      sstore\n        /* \"Catch.sol\":43887:44035  function removeAllFee() private {... */\n      jump\n        /* \"Catch.sol\":49388:49402  removeAllFee() */\n    tag_435:\n        /* \"Catch.sol\":48475:49425  {... */\n      pop\n      pop\n      pop\n      pop\n      pop\n      pop\n      pop\n      pop\n      pop\n      pop\n        /* \"Catch.sol\":48420:49425  function _sellBuyTax(address from, address to) private {... */\n      pop\n      pop\n      jump\t// out\n        /* \"Catch.sol\":53970:54762  function _tokenTransfer(address sender, address recipient, uint256 amount,bool takeFee) private {... */\n    tag_409:\n        /* \"Catch.sol\":54081:54088  takeFee */\n      dup1\n        /* \"Catch.sol\":54077:54117  if(!takeFee)... */\n      tag_439\n      jumpi\n        /* \"Catch.sol\":54103:54117  removeAllFee() */\n      tag_439\n        /* \"Catch.sol\":43942:43943  0 */\n      0x00\n        /* \"Catch.sol\":43931:43937  refAmt */\n      0x0e\n        /* \"Catch.sol\":43931:43943  refAmt =   0 */\n      dup2\n      swap1\n      sstore\n        /* \"Catch.sol\":43958:43971  coinOperation */\n      0x0f\n        /* \"Catch.sol\":43958:43975  coinOperation = 0 */\n      dup2\n      swap1\n      sstore\n        /* \"Catch.sol\":43990:43998  liquidty */\n      0x10\n        /* \"Catch.sol\":43990:44002  liquidty = 0 */\n      dup2\n      swap1\n      sstore\n        /* \"Catch.sol\":44017:44021  burn */\n      0x11\n        /* \"Catch.sol\":44017:44025  burn = 0 */\n      sstore\n        /* \"Catch.sol\":43887:44035  function removeAllFee() private {... */\n      jump\n        /* \"Catch.sol\":54103:54117  removeAllFee() */\n    tag_439:\n      sub(shl(0xa0, 0x01), 0x01)\n        /* \"Catch.sol\":54144:54163  _isExcluded[sender] */\n      dup5\n      and\n      0x00\n      swap1\n      dup2\n      mstore\n        /* \"Catch.sol\":54144:54155  _isExcluded */\n      0x07\n        /* \"Catch.sol\":54144:54163  _isExcluded[sender] */\n      0x20\n      mstore\n      0x40\n      swap1\n      keccak256\n      sload\n      0xff\n      and\n        /* \"Catch.sol\":54144:54190  _isExcluded[sender] && !_isExcluded[recipient] */\n      dup1\n      iszero\n      tag_440\n      jumpi\n      pop\n      sub(shl(0xa0, 0x01), 0x01)\n        /* \"Catch.sol\":54168:54190  _isExcluded[recipient] */\n      dup4\n      and\n      0x00\n      swap1\n      dup2\n      mstore\n        /* \"Catch.sol\":54168:54179  _isExcluded */\n      0x07\n        /* \"Catch.sol\":54168:54190  _isExcluded[recipient] */\n      0x20\n      mstore\n      0x40\n      swap1\n      keccak256\n      sload\n      0xff\n      and\n        /* \"Catch.sol\":54167:54190  !_isExcluded[recipient] */\n      iszero\n        /* \"Catch.sol\":54144:54190  _isExcluded[sender] && !_isExcluded[recipient] */\n    tag_440:\n        /* \"Catch.sol\":54140:54737  if (_isExcluded[sender] && !_isExcluded[recipient]) {... */\n      iszero\n      tag_441\n      jumpi\n        /* \"Catch.sol\":54207:54255  _transferFromExcluded(sender, recipient, amount) */\n      tag_442\n        /* \"Catch.sol\":54229:54235  sender */\n      dup5\n        /* \"Catch.sol\":54237:54246  recipient */\n      dup5\n        /* \"Catch.sol\":54248:54254  amount */\n      dup5\n        /* \"Catch.sol\":54207:54228  _transferFromExcluded */\n      tag_443\n        /* \"Catch.sol\":54207:54255  _transferFromExcluded(sender, recipient, amount) */\n      jump\t// in\n    tag_442:\n        /* \"Catch.sol\":54140:54737  if (_isExcluded[sender] && !_isExcluded[recipient]) {... */\n      jump(tag_460)\n    tag_441:\n      sub(shl(0xa0, 0x01), 0x01)\n        /* \"Catch.sol\":54278:54297  _isExcluded[sender] */\n      dup5\n      and\n      0x00\n      swap1\n      dup2\n      mstore\n        /* \"Catch.sol\":54278:54289  _isExcluded */\n      0x07\n        /* \"Catch.sol\":54278:54297  _isExcluded[sender] */\n      0x20\n      mstore\n      0x40\n      swap1\n      keccak256\n      sload\n      0xff\n      and\n        /* \"Catch.sol\":54277:54297  !_isExcluded[sender] */\n      iszero\n        /* \"Catch.sol\":54277:54323  !_isExcluded[sender] && _isExcluded[recipient] */\n      dup1\n      iszero\n      tag_445\n      jumpi\n      pop\n      sub(shl(0xa0, 0x01), 0x01)\n        /* \"Catch.sol\":54301:54323  _isExcluded[recipient] */\n      dup4\n      and\n      0x00\n      swap1\n      dup2\n      mstore\n        /* \"Catch.sol\":54301:54312  _isExcluded */\n      0x07\n        /* \"Catch.sol\":54301:54323  _isExcluded[recipient] */\n      0x20\n      mstore\n      0x40\n      swap1\n      keccak256\n      sload\n      0xff\n      and\n        /* \"Catch.sol\":54277:54323  !_isExcluded[sender] && _isExcluded[recipient] */\n    tag_445:\n        /* \"Catch.sol\":54273:54737  if (!_isExcluded[sender] && _isExcluded[recipient]) {... */\n      iszero\n      tag_446\n      jumpi\n        /* \"Catch.sol\":54340:54386  _transferToExcluded(sender, recipient, amount) */\n      tag_442\n        /* \"Catch.sol\":54360:54366  sender */\n      dup5\n        /* \"Catch.sol\":54368:54377  recipient */\n      dup5\n        /* \"Catch.sol\":54379:54385  amount */\n      dup5\n        /* \"Catch.sol\":54340:54359  _transferToExcluded */\n      tag_448\n        /* \"Catch.sol\":54340:54386  _transferToExcluded(sender, recipient, amount) */\n      jump\t// in\n        /* \"Catch.sol\":54273:54737  if (!_isExcluded[sender] && _isExcluded[recipient]) {... */\n    tag_446:\n      sub(shl(0xa0, 0x01), 0x01)\n        /* \"Catch.sol\":54409:54428  _isExcluded[sender] */\n      dup5\n      and\n      0x00\n      swap1\n      dup2\n      mstore\n        /* \"Catch.sol\":54409:54420  _isExcluded */\n      0x07\n        /* \"Catch.sol\":54409:54428  _isExcluded[sender] */\n      0x20\n      mstore\n      0x40\n      swap1\n      keccak256\n      sload\n      0xff\n      and\n        /* \"Catch.sol\":54408:54428  !_isExcluded[sender] */\n      iszero\n        /* \"Catch.sol\":54408:54455  !_isExcluded[sender] && !_isExcluded[recipient] */\n      dup1\n      iszero\n      tag_450\n      jumpi\n      pop\n      sub(shl(0xa0, 0x01), 0x01)\n        /* \"Catch.sol\":54433:54455  _isExcluded[recipient] */\n      dup4\n      and\n      0x00\n      swap1\n      dup2\n      mstore\n        /* \"Catch.sol\":54433:54444  _isExcluded */\n      0x07\n        /* \"Catch.sol\":54433:54455  _isExcluded[recipient] */\n      0x20\n      mstore\n      0x40\n      swap1\n      keccak256\n      sload\n      0xff\n      and\n        /* \"Catch.sol\":54432:54455  !_isExcluded[recipient] */\n      iszero\n        /* \"Catch.sol\":54408:54455  !_isExcluded[sender] && !_isExcluded[recipient] */\n    tag_450:\n        /* \"Catch.sol\":54404:54737  if (!_isExcluded[sender] && !_isExcluded[recipient]) {... */\n      iszero\n      tag_451\n      jumpi\n        /* \"Catch.sol\":54472:54516  _transferStandard(sender, recipient, amount) */\n      tag_442\n        /* \"Catch.sol\":54490:54496  sender */\n      dup5\n        /* \"Catch.sol\":54498:54507  recipient */\n      dup5\n        /* \"Catch.sol\":54509:54515  amount */\n      dup5\n        /* \"Catch.sol\":54472:54489  _transferStandard */\n      tag_453\n        /* \"Catch.sol\":54472:54516  _transferStandard(sender, recipient, amount) */\n      jump\t// in\n        /* \"Catch.sol\":54404:54737  if (!_isExcluded[sender] && !_isExcluded[recipient]) {... */\n    tag_451:\n      sub(shl(0xa0, 0x01), 0x01)\n        /* \"Catch.sol\":54538:54557  _isExcluded[sender] */\n      dup5\n      and\n      0x00\n      swap1\n      dup2\n      mstore\n        /* \"Catch.sol\":54538:54549  _isExcluded */\n      0x07\n        /* \"Catch.sol\":54538:54557  _isExcluded[sender] */\n      0x20\n      mstore\n      0x40\n      swap1\n      keccak256\n      sload\n      0xff\n      and\n        /* \"Catch.sol\":54538:54583  _isExcluded[sender] && _isExcluded[recipient] */\n      dup1\n      iszero\n      tag_455\n      jumpi\n      pop\n      sub(shl(0xa0, 0x01), 0x01)\n        /* \"Catch.sol\":54561:54583  _isExcluded[recipient] */\n      dup4\n      and\n      0x00\n      swap1\n      dup2\n      mstore\n        /* \"Catch.sol\":54561:54572  _isExcluded */\n      0x07\n        /* \"Catch.sol\":54561:54583  _isExcluded[recipient] */\n      0x20\n      mstore\n      0x40\n      swap1\n      keccak256\n      sload\n      0xff\n      and\n        /* \"Catch.sol\":54538:54583  _isExcluded[sender] && _isExcluded[recipient] */\n    tag_455:\n        /* \"Catch.sol\":54534:54737  if (_isExcluded[sender] && _isExcluded[recipient]) {... */\n      iszero\n      tag_456\n      jumpi\n        /* \"Catch.sol\":54600:54648  _transferBothExcluded(sender, recipient, amount) */\n      tag_442\n        /* \"Catch.sol\":54622:54628  sender */\n      dup5\n        /* \"Catch.sol\":54630:54639  recipient */\n      dup5\n        /* \"Catch.sol\":54641:54647  amount */\n      dup5\n        /* \"Catch.sol\":54600:54621  _transferBothExcluded */\n      tag_458\n        /* \"Catch.sol\":54600:54648  _transferBothExcluded(sender, recipient, amount) */\n      jump\t// in\n        /* \"Catch.sol\":54534:54737  if (_isExcluded[sender] && _isExcluded[recipient]) {... */\n    tag_456:\n        /* \"Catch.sol\":54681:54725  _transferStandard(sender, recipient, amount) */\n      tag_460\n        /* \"Catch.sol\":54699:54705  sender */\n      dup5\n        /* \"Catch.sol\":54707:54716  recipient */\n      dup5\n        /* \"Catch.sol\":54718:54724  amount */\n      dup5\n        /* \"Catch.sol\":54681:54698  _transferStandard */\n      tag_453\n        /* \"Catch.sol\":54681:54725  _transferStandard(sender, recipient, amount) */\n      jump\t// in\n    tag_460:\n        /* \"Catch.sol\":53970:54762  function _tokenTransfer(address sender, address recipient, uint256 amount,bool takeFee) private {... */\n      pop\n      pop\n      pop\n      pop\n      jump\t// out\n        /* \"Catch.sol\":40764:41316  function _getCurrentSupply() private view returns(uint256, uint256) {... */\n    tag_412:\n        /* \"Catch.sol\":40861:40868  _rTotal */\n      sload(0x0a)\n        /* \"Catch.sol\":40897:40904  _tTotal */\n      sload(0x09)\n        /* \"Catch.sol\":40814:40821  uint256 */\n      0x00\n      swap2\n      dup3\n      swap2\n      dup3\n        /* \"Catch.sol\":40921:41204  for (uint256 i = 0; i < _excluded.length; i++) {... */\n    tag_462:\n        /* \"Catch.sol\":40945:40954  _excluded */\n      0x08\n        /* \"Catch.sol\":40945:40961  _excluded.length */\n      sload\n        /* \"Catch.sol\":40941:40961  i < _excluded.length */\n      dup2\n      lt\n        /* \"Catch.sol\":40921:41204  for (uint256 i = 0; i < _excluded.length; i++) {... */\n      iszero\n      tag_463\n      jumpi\n        /* \"Catch.sol\":41011:41018  rSupply */\n      dup3\n        /* \"Catch.sol\":40987:40994  _rOwned */\n      0x03\n        /* \"Catch.sol\":40987:41008  _rOwned[_excluded[i]] */\n      0x00\n        /* \"Catch.sol\":40995:41004  _excluded */\n      0x08\n        /* \"Catch.sol\":41005:41006  i */\n      dup5\n        /* \"Catch.sol\":40995:41007  _excluded[i] */\n      dup2\n      sload\n      dup2\n      lt\n      tag_466\n      jumpi\n      tag_466\n      tag_243\n      jump\t// in\n    tag_466:\n      0x00\n      swap2\n      dup3\n      mstore\n      0x20\n      dup1\n      dup4\n      keccak256\n      swap1\n      swap2\n      add\n      sload\n      sub(shl(0xa0, 0x01), 0x01)\n      and\n        /* \"Catch.sol\":40987:41008  _rOwned[_excluded[i]] */\n      dup4\n      mstore\n      dup3\n      add\n      swap3\n      swap1\n      swap3\n      mstore\n      0x40\n      add\n      swap1\n      keccak256\n      sload\n        /* \"Catch.sol\":40987:41018  _rOwned[_excluded[i]] > rSupply */\n      gt\n      dup1\n        /* \"Catch.sol\":40987:41053  _rOwned[_excluded[i]] > rSupply || _tOwned[_excluded[i]] > tSupply */\n      tag_468\n      jumpi\n      pop\n        /* \"Catch.sol\":41046:41053  tSupply */\n      dup2\n        /* \"Catch.sol\":41022:41029  _tOwned */\n      0x04\n        /* \"Catch.sol\":41022:41043  _tOwned[_excluded[i]] */\n      0x00\n        /* \"Catch.sol\":41030:41039  _excluded */\n      0x08\n        /* \"Catch.sol\":41040:41041  i */\n      dup5\n        /* \"Catch.sol\":41030:41042  _excluded[i] */\n      dup2\n      sload\n      dup2\n      lt\n      tag_470\n      jumpi\n      tag_470\n      tag_243\n      jump\t// in\n    tag_470:\n      0x00\n      swap2\n      dup3\n      mstore\n      0x20\n      dup1\n      dup4\n      keccak256\n      swap1\n      swap2\n      add\n      sload\n      sub(shl(0xa0, 0x01), 0x01)\n      and\n        /* \"Catch.sol\":41022:41043  _tOwned[_excluded[i]] */\n      dup4\n      mstore\n      dup3\n      add\n      swap3\n      swap1\n      swap3\n      mstore\n      0x40\n      add\n      swap1\n      keccak256\n      sload\n        /* \"Catch.sol\":41022:41053  _tOwned[_excluded[i]] > tSupply */\n      gt\n        /* \"Catch.sol\":40987:41053  _rOwned[_excluded[i]] > rSupply || _tOwned[_excluded[i]] > tSupply */\n    tag_468:\n        /* \"Catch.sol\":40983:41080  if (_rOwned[_excluded[i]] > rSupply || _tOwned[_excluded[i]] > tSupply) return (_rTotal, _tTotal) */\n      iszero\n      tag_472\n      jumpi\n        /* \"Catch.sol\":41063:41070  _rTotal */\n      sload(0x0a)\n        /* \"Catch.sol\":41072:41079  _tTotal */\n      sload(0x09)\n        /* \"Catch.sol\":41055:41080  return (_rTotal, _tTotal) */\n      swap5\n      pop\n      swap5\n      pop\n      pop\n      pop\n      pop\n        /* \"Catch.sol\":40764:41316  function _getCurrentSupply() private view returns(uint256, uint256) {... */\n      swap1\n      swap2\n      jump\t// out\n        /* \"Catch.sol\":40983:41080  if (_rOwned[_excluded[i]] > rSupply || _tOwned[_excluded[i]] > tSupply) return (_rTotal, _tTotal) */\n    tag_472:\n        /* \"Catch.sol\":41115:41122  _rOwned */\n      0x03\n        /* \"Catch.sol\":41115:41136  _rOwned[_excluded[i]] */\n      0x00\n        /* \"Catch.sol\":41123:41132  _excluded */\n      0x08\n        /* \"Catch.sol\":41133:41134  i */\n      dup4\n        /* \"Catch.sol\":41123:41135  _excluded[i] */\n      dup2\n      sload\n      dup2\n      lt\n      tag_474\n      jumpi\n      tag_474\n      tag_243\n      jump\t// in\n    tag_474:\n      0x00\n      swap2\n      dup3\n      mstore\n      0x20\n      dup1\n      dup4\n      keccak256\n      swap1\n      swap2\n      add\n      sload\n      sub(shl(0xa0, 0x01), 0x01)\n      and\n        /* \"Catch.sol\":41115:41136  _rOwned[_excluded[i]] */\n      dup4\n      mstore\n      dup3\n      add\n      swap3\n      swap1\n      swap3\n      mstore\n      0x40\n      add\n      swap1\n      keccak256\n      sload\n        /* \"Catch.sol\":41105:41136  rSupply - _rOwned[_excluded[i]] */\n      tag_476\n      swap1\n        /* \"Catch.sol\":41105:41112  rSupply */\n      dup5\n        /* \"Catch.sol\":41105:41136  rSupply - _rOwned[_excluded[i]] */\n      tag_219\n      jump\t// in\n    tag_476:\n        /* \"Catch.sol\":41095:41136  rSupply = rSupply - _rOwned[_excluded[i]] */\n      swap3\n      pop\n        /* \"Catch.sol\":41171:41178  _tOwned */\n      0x04\n        /* \"Catch.sol\":41171:41192  _tOwned[_excluded[i]] */\n      0x00\n        /* \"Catch.sol\":41179:41188  _excluded */\n      0x08\n        /* \"Catch.sol\":41189:41190  i */\n      dup4\n        /* \"Catch.sol\":41179:41191  _excluded[i] */\n      dup2\n      sload\n      dup2\n      lt\n      tag_478\n      jumpi\n      tag_478\n      tag_243\n      jump\t// in\n    tag_478:\n      0x00\n      swap2\n      dup3\n      mstore\n      0x20\n      dup1\n      dup4\n      keccak256\n      swap1\n      swap2\n      add\n      sload\n      sub(shl(0xa0, 0x01), 0x01)\n      and\n        /* \"Catch.sol\":41171:41192  _tOwned[_excluded[i]] */\n      dup4\n      mstore\n      dup3\n      add\n      swap3\n      swap1\n      swap3\n      mstore\n      0x40\n      add\n      swap1\n      keccak256\n      sload\n        /* \"Catch.sol\":41161:41192  tSupply - _tOwned[_excluded[i]] */\n      tag_480\n      swap1\n        /* \"Catch.sol\":41161:41168  tSupply */\n      dup4\n        /* \"Catch.sol\":41161:41192  tSupply - _tOwned[_excluded[i]] */\n      tag_219\n      jump\t// in\n    tag_480:\n        /* \"Catch.sol\":41151:41192  tSupply = tSupply - _tOwned[_excluded[i]] */\n      swap2\n      pop\n        /* \"Catch.sol\":40963:40966  i++ */\n      0x01\n      add\n        /* \"Catch.sol\":40921:41204  for (uint256 i = 0; i < _excluded.length; i++) {... */\n      jump(tag_462)\n    tag_463:\n      pop\n        /* \"Catch.sol\":41238:41245  _tTotal */\n      sload(0x09)\n        /* \"Catch.sol\":41228:41235  _rTotal */\n      sload(0x0a)\n        /* \"Catch.sol\":41228:41245  _rTotal / _tTotal */\n      tag_481\n      swap2\n      swap1\n      tag_227\n      jump\t// in\n    tag_481:\n        /* \"Catch.sol\":41218:41225  rSupply */\n      dup3\n        /* \"Catch.sol\":41218:41245  rSupply < _rTotal / _tTotal */\n      lt\n        /* \"Catch.sol\":41214:41272  if (rSupply < _rTotal / _tTotal) return (_rTotal, _tTotal) */\n      iszero\n      tag_482\n      jumpi\n        /* \"Catch.sol\":41255:41262  _rTotal */\n      sload(0x0a)\n        /* \"Catch.sol\":41264:41271  _tTotal */\n      sload(0x09)\n        /* \"Catch.sol\":41247:41272  return (_rTotal, _tTotal) */\n      swap4\n      pop\n      swap4\n      pop\n      pop\n      pop\n        /* \"Catch.sol\":40764:41316  function _getCurrentSupply() private view returns(uint256, uint256) {... */\n      swap1\n      swap2\n      jump\t// out\n        /* \"Catch.sol\":41214:41272  if (rSupply < _rTotal / _tTotal) return (_rTotal, _tTotal) */\n    tag_482:\n        /* \"Catch.sol\":41291:41298  rSupply */\n      swap1\n      swap4\n        /* \"Catch.sol\":41300:41307  tSupply */\n      swap1\n      swap3\n      pop\n        /* \"Catch.sol\":40764:41316  function _getCurrentSupply() private view returns(uint256, uint256) {... */\n      swap1\n      pop\n      jump\t// out\n        /* \"Catch.sol\":37962:38509  function _getTValues(uint256 tAmount) private view returns (uint256, uint256, uint256, uint256, uint256) {... */\n    tag_416:\n        /* \"Catch.sol\":38022:38029  uint256 */\n      0x00\n        /* \"Catch.sol\":38031:38038  uint256 */\n      dup1\n        /* \"Catch.sol\":38040:38047  uint256 */\n      0x00\n        /* \"Catch.sol\":38049:38056  uint256 */\n      dup1\n        /* \"Catch.sol\":38058:38065  uint256 */\n      0x00\n        /* \"Catch.sol\":38078:38090  uint256 tFee */\n      dup1\n        /* \"Catch.sol\":38093:38117  calculateTaxFee(tAmount) */\n      tag_484\n        /* \"Catch.sol\":38109:38116  tAmount */\n      dup8\n        /* \"Catch.sol\":38093:38108  calculateTaxFee */\n      tag_485\n        /* \"Catch.sol\":38093:38117  calculateTaxFee(tAmount) */\n      jump\t// in\n    tag_484:\n        /* \"Catch.sol\":38078:38117  uint256 tFee = calculateTaxFee(tAmount) */\n      swap1\n      pop\n        /* \"Catch.sol\":38128:38146  uint256 tLiquidity */\n      0x00\n        /* \"Catch.sol\":38149:38179  calculateLiquidityFee(tAmount) */\n      tag_486\n        /* \"Catch.sol\":38171:38178  tAmount */\n      dup9\n        /* \"Catch.sol\":38149:38170  calculateLiquidityFee */\n      tag_487\n        /* \"Catch.sol\":38149:38179  calculateLiquidityFee(tAmount) */\n      jump\t// in\n    tag_486:\n        /* \"Catch.sol\":38128:38179  uint256 tLiquidity = calculateLiquidityFee(tAmount) */\n      swap1\n      pop\n        /* \"Catch.sol\":38190:38212  uint256 tCoinOperation */\n      0x00\n        /* \"Catch.sol\":38215:38250  calculateCoinOperartionTax(tAmount) */\n      tag_488\n        /* \"Catch.sol\":38242:38249  tAmount */\n      dup10\n        /* \"Catch.sol\":38215:38241  calculateCoinOperartionTax */\n      tag_489\n        /* \"Catch.sol\":38215:38250  calculateCoinOperartionTax(tAmount) */\n      jump\t// in\n    tag_488:\n        /* \"Catch.sol\":38190:38250  uint256 tCoinOperation = calculateCoinOperartionTax(tAmount) */\n      swap1\n      pop\n        /* \"Catch.sol\":38261:38274  uint256 tBurn */\n      0x00\n        /* \"Catch.sol\":38277:38302  calculateBurnTax(tAmount) */\n      tag_490\n        /* \"Catch.sol\":38294:38301  tAmount */\n      dup11\n        /* \"Catch.sol\":38277:38293  calculateBurnTax */\n      tag_491\n        /* \"Catch.sol\":38277:38302  calculateBurnTax(tAmount) */\n      jump\t// in\n    tag_490:\n        /* \"Catch.sol\":38261:38302  uint256 tBurn = calculateBurnTax(tAmount) */\n      swap1\n      pop\n        /* \"Catch.sol\":38313:38327  uint256 allTax */\n      0x00\n        /* \"Catch.sol\":38261:38302  uint256 tBurn = calculateBurnTax(tAmount) */\n      dup2\n        /* \"Catch.sol\":38350:38364  tCoinOperation */\n      dup4\n        /* \"Catch.sol\":38330:38347  tFee + tLiquidity */\n      tag_492\n        /* \"Catch.sol\":38337:38347  tLiquidity */\n      dup7\n        /* \"Catch.sol\":38330:38334  tFee */\n      dup9\n        /* \"Catch.sol\":38330:38347  tFee + tLiquidity */\n      tag_262\n      jump\t// in\n    tag_492:\n        /* \"Catch.sol\":38330:38364  tFee + tLiquidity + tCoinOperation */\n      tag_493\n      swap2\n      swap1\n      tag_262\n      jump\t// in\n    tag_493:\n        /* \"Catch.sol\":38330:38372  tFee + tLiquidity + tCoinOperation + tBurn */\n      tag_494\n      swap2\n      swap1\n      tag_262\n      jump\t// in\n    tag_494:\n        /* \"Catch.sol\":38313:38372  uint256 allTax = tFee + tLiquidity + tCoinOperation + tBurn */\n      swap1\n      pop\n        /* \"Catch.sol\":38383:38406  uint256 tTransferAmount */\n      0x00\n        /* \"Catch.sol\":38409:38425  tAmount - allTax */\n      tag_495\n        /* \"Catch.sol\":38313:38372  uint256 allTax = tFee + tLiquidity + tCoinOperation + tBurn */\n      dup3\n        /* \"Catch.sol\":38409:38416  tAmount */\n      dup14\n        /* \"Catch.sol\":38409:38425  tAmount - allTax */\n      tag_219\n      jump\t// in\n    tag_495:\n        /* \"Catch.sol\":38383:38425  uint256 tTransferAmount = tAmount - allTax */\n      swap13\n        /* \"Catch.sol\":38461:38465  tFee */\n      swap6\n      swap12\n      pop\n        /* \"Catch.sol\":38467:38477  tLiquidity */\n      swap4\n      swap10\n      pop\n        /* \"Catch.sol\":38479:38493  tCoinOperation */\n      swap2\n      swap8\n      pop\n      swap6\n      pop\n        /* \"Catch.sol\":37962:38509  function _getTValues(uint256 tAmount) private view returns (uint256, uint256, uint256, uint256, uint256) {... */\n      swap2\n      swap4\n      pop\n      pop\n      pop\n      pop\n      jump\t// out\n        /* \"Catch.sol\":39473:40117  function _getRValues(uint256 tAmount, uint256 tFee, uint256 tLiquidity, uint256 tCoinOperation, uint256 tBurn) private view returns (uint256, uint256, uint256) {... */\n    tag_418:\n        /* \"Catch.sol\":39606:39613  uint256 */\n      0x00\n        /* \"Catch.sol\":39615:39622  uint256 */\n      dup1\n        /* \"Catch.sol\":39624:39631  uint256 */\n      0x00\n        /* \"Catch.sol\":39644:39663  uint256 currentRate */\n      dup1\n        /* \"Catch.sol\":39666:39676  _getRate() */\n      tag_497\n        /* \"Catch.sol\":39666:39674  _getRate */\n      tag_225\n        /* \"Catch.sol\":39666:39676  _getRate() */\n      jump\t// in\n    tag_497:\n        /* \"Catch.sol\":39644:39676  uint256 currentRate = _getRate() */\n      swap1\n      pop\n        /* \"Catch.sol\":39687:39702  uint256 rAmount */\n      0x00\n        /* \"Catch.sol\":39705:39726  tAmount * currentRate */\n      tag_498\n        /* \"Catch.sol\":39644:39676  uint256 currentRate = _getRate() */\n      dup3\n        /* \"Catch.sol\":39705:39712  tAmount */\n      dup12\n        /* \"Catch.sol\":39705:39726  tAmount * currentRate */\n      tag_499\n      jump\t// in\n    tag_498:\n        /* \"Catch.sol\":39687:39726  uint256 rAmount = tAmount * currentRate */\n      swap1\n      pop\n        /* \"Catch.sol\":39737:39749  uint256 rFee */\n      0x00\n        /* \"Catch.sol\":39752:39770  tFee * currentRate */\n      tag_500\n        /* \"Catch.sol\":39759:39770  currentRate */\n      dup4\n        /* \"Catch.sol\":39752:39756  tFee */\n      dup12\n        /* \"Catch.sol\":39752:39770  tFee * currentRate */\n      tag_499\n      jump\t// in\n    tag_500:\n        /* \"Catch.sol\":39737:39770  uint256 rFee = tFee * currentRate */\n      swap1\n      pop\n        /* \"Catch.sol\":39781:39803  uint256 rCoinOperation */\n      0x00\n        /* \"Catch.sol\":39806:39834  tCoinOperation * currentRate */\n      tag_501\n        /* \"Catch.sol\":39823:39834  currentRate */\n      dup5\n        /* \"Catch.sol\":39806:39820  tCoinOperation */\n      dup11\n        /* \"Catch.sol\":39806:39834  tCoinOperation * currentRate */\n      tag_499\n      jump\t// in\n    tag_501:\n        /* \"Catch.sol\":39781:39834  uint256 rCoinOperation = tCoinOperation * currentRate */\n      swap1\n      pop\n        /* \"Catch.sol\":39845:39858  uint256 rBurn */\n      0x00\n        /* \"Catch.sol\":39861:39880  tBurn * currentRate */\n      tag_502\n        /* \"Catch.sol\":39869:39880  currentRate */\n      dup6\n        /* \"Catch.sol\":39861:39866  tBurn */\n      dup11\n        /* \"Catch.sol\":39861:39880  tBurn * currentRate */\n      tag_499\n      jump\t// in\n    tag_502:\n        /* \"Catch.sol\":39845:39880  uint256 rBurn = tBurn * currentRate */\n      swap1\n      pop\n        /* \"Catch.sol\":39891:39909  uint256 rLiquidity */\n      0x00\n        /* \"Catch.sol\":39912:39936  tLiquidity * currentRate */\n      tag_503\n        /* \"Catch.sol\":39925:39936  currentRate */\n      dup7\n        /* \"Catch.sol\":39912:39922  tLiquidity */\n      dup14\n        /* \"Catch.sol\":39912:39936  tLiquidity * currentRate */\n      tag_499\n      jump\t// in\n    tag_503:\n        /* \"Catch.sol\":39891:39936  uint256 rLiquidity = tLiquidity * currentRate */\n      swap1\n      pop\n        /* \"Catch.sol\":39947:39961  uint256 allTax */\n      0x00\n        /* \"Catch.sol\":39891:39936  uint256 rLiquidity = tLiquidity * currentRate */\n      dup2\n        /* \"Catch.sol\":39988:39993  rBurn */\n      dup4\n        /* \"Catch.sol\":39964:39985  rFee + rCoinOperation */\n      tag_504\n        /* \"Catch.sol\":39971:39985  rCoinOperation */\n      dup7\n        /* \"Catch.sol\":39964:39968  rFee */\n      dup9\n        /* \"Catch.sol\":39964:39985  rFee + rCoinOperation */\n      tag_262\n      jump\t// in\n    tag_504:\n        /* \"Catch.sol\":39964:39993  rFee + rCoinOperation + rBurn */\n      tag_505\n      swap2\n      swap1\n      tag_262\n      jump\t// in\n    tag_505:\n        /* \"Catch.sol\":39964:40006  rFee + rCoinOperation + rBurn + rLiquidity */\n      tag_506\n      swap2\n      swap1\n      tag_262\n      jump\t// in\n    tag_506:\n        /* \"Catch.sol\":39947:40006  uint256 allTax = rFee + rCoinOperation + rBurn + rLiquidity */\n      swap1\n      pop\n        /* \"Catch.sol\":40017:40040  uint256 rTransferAmount */\n      0x00\n        /* \"Catch.sol\":40043:40059  rAmount - allTax */\n      tag_507\n        /* \"Catch.sol\":39947:40006  uint256 allTax = rFee + rCoinOperation + rBurn + rLiquidity */\n      dup3\n        /* \"Catch.sol\":40043:40050  rAmount */\n      dup9\n        /* \"Catch.sol\":40043:40059  rAmount - allTax */\n      tag_219\n      jump\t// in\n    tag_507:\n        /* \"Catch.sol\":40078:40085  rAmount */\n      swap7\n      swap11\n      pop\n        /* \"Catch.sol\":40017:40059  uint256 rTransferAmount = rAmount - allTax */\n      swap6\n      swap9\n      pop\n        /* \"Catch.sol\":40104:40108  rFee */\n      swap4\n      swap7\n      pop\n      pop\n      pop\n      pop\n      pop\n      pop\n      pop\n        /* \"Catch.sol\":39473:40117  function _getRValues(uint256 tAmount, uint256 tFee, uint256 tLiquidity, uint256 tCoinOperation, uint256 tBurn) private view returns (uint256, uint256, uint256) {... */\n      swap6\n      pop\n      swap6\n      pop\n      swap6\n      swap3\n      pop\n      pop\n      pop\n      jump\t// out\n        /* \"Catch.sol\":51508:52097  function swapTokensForEth(uint256 tokenAmount) private {... */\n    tag_424:\n        /* \"Catch.sol\":51658:51674  new address[](2) */\n      0x40\n      dup1\n      mload\n        /* \"Catch.sol\":51672:51673  2 */\n      0x02\n        /* \"Catch.sol\":51658:51674  new address[](2) */\n      dup1\n      dup3\n      mstore\n      0x60\n      dup3\n      add\n      dup4\n      mstore\n        /* \"Catch.sol\":51634:51655  address[] memory path */\n      0x00\n      swap3\n        /* \"Catch.sol\":51658:51674  new address[](2) */\n      0x20\n      dup4\n      add\n      swap1\n      dup1\n      calldatasize\n      dup4\n      calldatacopy\n      add\n      swap1\n      pop\n      pop\n        /* \"Catch.sol\":51634:51674  address[] memory path = new address[](2) */\n      swap1\n      pop\n        /* \"Catch.sol\":51703:51707  this */\n      address\n        /* \"Catch.sol\":51685:51689  path */\n      dup2\n        /* \"Catch.sol\":51690:51691  0 */\n      0x00\n        /* \"Catch.sol\":51685:51692  path[0] */\n      dup2\n      mload\n      dup2\n      lt\n      tag_514\n      jumpi\n      tag_514\n      tag_243\n      jump\t// in\n    tag_514:\n      0x20\n      mul\n      0x20\n      add\n      add\n        /* \"Catch.sol\":51685:51708  path[0] = address(this) */\n      swap1\n      sub(shl(0xa0, 0x01), 0x01)\n      and\n      swap1\n      dup2\n      sub(shl(0xa0, 0x01), 0x01)\n      and\n      dup2\n      mstore\n      pop\n      pop\n        /* \"Catch.sol\":51729:51744  uniswapV2Router */\n      immutable(\"0x3ad1041c7fca4b981ec9df1cdec68238bc49ef0c518c8c6bf20002aeca8bde61\")\n      sub(shl(0xa0, 0x01), 0x01)\n        /* \"Catch.sol\":51729:51749  uniswapV2Router.WETH */\n      and\n      0xad5c4648\n        /* \"Catch.sol\":51729:51751  uniswapV2Router.WETH() */\n      mload(0x40)\n      dup2\n      0xffffffff\n      and\n      0xe0\n      shl\n      dup2\n      mstore\n      0x04\n      add\n      0x20\n      mload(0x40)\n      dup1\n      dup4\n      sub\n      dup2\n      dup7\n      gas\n      staticcall\n      iszero\n      dup1\n      iszero\n      tag_516\n      jumpi\n      returndatasize\n      0x00\n      dup1\n      returndatacopy\n      revert(0x00, returndatasize)\n    tag_516:\n      pop\n      pop\n      pop\n      pop\n      mload(0x40)\n      returndatasize\n      not(0x1f)\n      0x1f\n      dup3\n      add\n      and\n      dup3\n      add\n      dup1\n      0x40\n      mstore\n      pop\n      dup2\n      add\n      swap1\n      tag_517\n      swap2\n      swap1\n      tag_518\n      jump\t// in\n    tag_517:\n        /* \"Catch.sol\":51719:51723  path */\n      dup2\n        /* \"Catch.sol\":51724:51725  1 */\n      0x01\n        /* \"Catch.sol\":51719:51726  path[1] */\n      dup2\n      mload\n      dup2\n      lt\n      tag_520\n      jumpi\n      tag_520\n      tag_243\n      jump\t// in\n    tag_520:\n      0x20\n      mul\n      0x20\n      add\n      add\n        /* \"Catch.sol\":51719:51751  path[1] = uniswapV2Router.WETH() */\n      swap1\n      sub(shl(0xa0, 0x01), 0x01)\n      and\n      swap1\n      dup2\n      sub(shl(0xa0, 0x01), 0x01)\n      and\n      dup2\n      mstore\n      pop\n      pop\n        /* \"Catch.sol\":51764:51826  _approve(address(this), address(uniswapV2Router), tokenAmount) */\n      tag_521\n        /* \"Catch.sol\":51781:51785  this */\n      address\n        /* \"Catch.sol\":51796:51811  uniswapV2Router */\n      immutable(\"0x3ad1041c7fca4b981ec9df1cdec68238bc49ef0c518c8c6bf20002aeca8bde61\")\n        /* \"Catch.sol\":51814:51825  tokenAmount */\n      dup5\n        /* \"Catch.sol\":51764:51772  _approve */\n      tag_209\n        /* \"Catch.sol\":51764:51826  _approve(address(this), address(uniswapV2Router), tokenAmount) */\n      jump\t// in\n    tag_521:\n        /* \"Catch.sol\":51865:52089  uniswapV2Router.swapExactTokensForETHSupportingFeeOnTransferTokens(... */\n      mload(0x40)\n      shl(0xe0, 0x791ac947)\n      dup2\n      mstore\n      sub(shl(0xa0, 0x01), 0x01)\n        /* \"Catch.sol\":51865:51880  uniswapV2Router */\n      immutable(\"0x3ad1041c7fca4b981ec9df1cdec68238bc49ef0c518c8c6bf20002aeca8bde61\")\n        /* \"Catch.sol\":51865:51931  uniswapV2Router.swapExactTokensForETHSupportingFeeOnTransferTokens */\n      and\n      swap1\n      0x791ac947\n      swap1\n        /* \"Catch.sol\":51865:52089  uniswapV2Router.swapExactTokensForETHSupportingFeeOnTransferTokens(... */\n      tag_522\n      swap1\n        /* \"Catch.sol\":51946:51957  tokenAmount */\n      dup6\n      swap1\n        /* \"Catch.sol\":51972:51973  0 */\n      0x00\n      swap1\n        /* \"Catch.sol\":52016:52020  path */\n      dup7\n      swap1\n        /* \"Catch.sol\":52043:52047  this */\n      address\n      swap1\n        /* \"Catch.sol\":52063:52078  block.timestamp */\n      timestamp\n      swap1\n        /* \"Catch.sol\":51865:52089  uniswapV2Router.swapExactTokensForETHSupportingFeeOnTransferTokens(... */\n      0x04\n      add\n      tag_523\n      jump\t// in\n    tag_522:\n      0x00\n      mload(0x40)\n      dup1\n      dup4\n      sub\n      dup2\n      0x00\n      dup8\n      dup1\n      extcodesize\n      iszero\n      dup1\n      iszero\n      tag_524\n      jumpi\n      0x00\n      dup1\n      revert\n    tag_524:\n      pop\n      gas\n      call\n      iszero\n      dup1\n      iszero\n      tag_408\n      jumpi\n      returndatasize\n      0x00\n      dup1\n      returndatacopy\n      revert(0x00, returndatasize)\n        /* \"Catch.sol\":52728:53241  function addLiquidity(uint256 tokenAmount, uint256 ethAmount) private {... */\n    tag_427:\n        /* \"Catch.sol\":52876:52938  _approve(address(this), address(uniswapV2Router), tokenAmount) */\n      tag_528\n        /* \"Catch.sol\":52893:52897  this */\n      address\n        /* \"Catch.sol\":52908:52923  uniswapV2Router */\n      immutable(\"0x3ad1041c7fca4b981ec9df1cdec68238bc49ef0c518c8c6bf20002aeca8bde61\")\n        /* \"Catch.sol\":52926:52937  tokenAmount */\n      dup5\n        /* \"Catch.sol\":52876:52884  _approve */\n      tag_209\n        /* \"Catch.sol\":52876:52938  _approve(address(this), address(uniswapV2Router), tokenAmount) */\n      jump\t// in\n    tag_528:\n        /* \"Catch.sol\":52981:52996  uniswapV2Router */\n      immutable(\"0x3ad1041c7fca4b981ec9df1cdec68238bc49ef0c518c8c6bf20002aeca8bde61\")\n      sub(shl(0xa0, 0x01), 0x01)\n        /* \"Catch.sol\":52981:53012  uniswapV2Router.addLiquidityETH */\n      and\n      0xf305d719\n        /* \"Catch.sol\":53020:53029  ethAmount */\n      dup3\n        /* \"Catch.sol\":53053:53057  this */\n      address\n        /* \"Catch.sol\":53073:53084  tokenAmount */\n      dup6\n        /* \"Catch.sol\":53099:53100  0 */\n      0x00\n        /* \"Catch.sol\":53142:53143  0 */\n      dup1\n        /* \"Catch.sol\":53185:53192  owner() */\n      tag_529\n        /* \"Catch.sol\":5582:5589  address */\n      0x00\n        /* \"Catch.sol\":5609:5615  _owner */\n      sload\n      sub(shl(0xa0, 0x01), 0x01)\n      and\n      swap1\n        /* \"Catch.sol\":5544:5623  function owner() public view returns (address) {... */\n      jump\n        /* \"Catch.sol\":53185:53192  owner() */\n    tag_529:\n        /* \"Catch.sol\":52981:53233  uniswapV2Router.addLiquidityETH{value: ethAmount}(... */\n      mload(0x40)\n      0xe0\n      dup9\n      swap1\n      shl\n      not(sub(shl(0xe0, 0x01), 0x01))\n      and\n      dup2\n      mstore\n      sub(shl(0xa0, 0x01), 0x01)\n        /* \"#utility.yul\":14277:14292   */\n      swap6\n      dup7\n      and\n        /* \"Catch.sol\":52981:53233  uniswapV2Router.addLiquidityETH{value: ethAmount}(... */\n      0x04\n      dup3\n      add\n        /* \"#utility.yul\":14259:14293   */\n      mstore\n        /* \"#utility.yul\":14309:14327   */\n      0x24\n      dup2\n      add\n        /* \"#utility.yul\":14302:14336   */\n      swap5\n      swap1\n      swap5\n      mstore\n        /* \"#utility.yul\":14352:14370   */\n      0x44\n      dup5\n      add\n        /* \"#utility.yul\":14345:14379   */\n      swap3\n      swap1\n      swap3\n      mstore\n        /* \"#utility.yul\":14395:14413   */\n      0x64\n      dup4\n      add\n        /* \"#utility.yul\":14388:14422   */\n      mstore\n        /* \"#utility.yul\":14459:14474   */\n      swap1\n      swap2\n      and\n        /* \"#utility.yul\":14438:14457   */\n      0x84\n      dup3\n      add\n        /* \"#utility.yul\":14431:14475   */\n      mstore\n        /* \"Catch.sol\":53207:53222  block.timestamp */\n      timestamp\n        /* \"#utility.yul\":14491:14510   */\n      0xa4\n      dup3\n      add\n        /* \"#utility.yul\":14484:14519   */\n      mstore\n        /* \"#utility.yul\":14193:14212   */\n      0xc4\n      add\n        /* \"Catch.sol\":52981:53233  uniswapV2Router.addLiquidityETH{value: ethAmount}(... */\n      0x60\n      mload(0x40)\n      dup1\n      dup4\n      sub\n      dup2\n      dup6\n      dup9\n      gas\n      call\n      iszero\n      dup1\n      iszero\n      tag_533\n      jumpi\n      returndatasize\n      0x00\n      dup1\n      returndatacopy\n      revert(0x00, returndatasize)\n    tag_533:\n      pop\n      pop\n      pop\n      pop\n      pop\n      mload(0x40)\n      returndatasize\n      not(0x1f)\n      0x1f\n      dup3\n      add\n      and\n      dup3\n      add\n      dup1\n      0x40\n      mstore\n      pop\n      dup2\n      add\n      swap1\n      tag_534\n      swap2\n      swap1\n      tag_535\n      jump\t// in\n    tag_534:\n      pop\n      pop\n      pop\n        /* \"Catch.sol\":52728:53241  function addLiquidity(uint256 tokenAmount, uint256 ethAmount) private {... */\n      pop\n      pop\n      jump\t// out\n        /* \"Catch.sol\":58239:58951  function _transferFromExcluded(address sender, address recipient, uint256 tAmount) private {... */\n    tag_443:\n        /* \"Catch.sol\":58342:58365  uint256 tTransferAmount */\n      0x00\n        /* \"Catch.sol\":58367:58379  uint256 tFee */\n      dup1\n        /* \"Catch.sol\":58381:58399  uint256 tLiquidity */\n      0x00\n        /* \"Catch.sol\":58401:58423  uint256 tCoinOperation */\n      dup1\n        /* \"Catch.sol\":58425:58438  uint256 tBurn */\n      0x00\n        /* \"Catch.sol\":58442:58461  _getValues(tAmount) */\n      tag_538\n        /* \"Catch.sol\":58453:58460  tAmount */\n      dup7\n        /* \"Catch.sol\":58442:58452  _getValues */\n      tag_539\n        /* \"Catch.sol\":58442:58461  _getValues(tAmount) */\n      jump\t// in\n    tag_538:\n        /* \"Catch.sol\":58341:58461  (uint256 tTransferAmount, uint256 tFee, uint256 tLiquidity, uint256 tCoinOperation, uint256 tBurn) = _getValues(tAmount) */\n      swap5\n      pop\n      swap5\n      pop\n      swap5\n      pop\n      swap5\n      pop\n      swap5\n      pop\n        /* \"Catch.sol\":58473:58488  uint256 rAmount */\n      0x00\n        /* \"Catch.sol\":58490:58513  uint256 rTransferAmount */\n      dup1\n        /* \"Catch.sol\":58515:58527  uint256 rFee */\n      0x00\n        /* \"Catch.sol\":58531:58592  _getRValues(tAmount, tFee, tLiquidity, tCoinOperation, tBurn) */\n      tag_540\n        /* \"Catch.sol\":58543:58550  tAmount */\n      dup10\n        /* \"Catch.sol\":58552:58556  tFee */\n      dup9\n        /* \"Catch.sol\":58558:58568  tLiquidity */\n      dup9\n        /* \"Catch.sol\":58570:58584  tCoinOperation */\n      dup9\n        /* \"Catch.sol\":58586:58591  tBurn */\n      dup9\n        /* \"Catch.sol\":58531:58542  _getRValues */\n      tag_418\n        /* \"Catch.sol\":58531:58592  _getRValues(tAmount, tFee, tLiquidity, tCoinOperation, tBurn) */\n      jump\t// in\n    tag_540:\n      sub(shl(0xa0, 0x01), 0x01)\n        /* \"Catch.sol\":58621:58636  _tOwned[sender] */\n      dup15\n      and\n      0x00\n      swap1\n      dup2\n      mstore\n        /* \"Catch.sol\":58621:58628  _tOwned */\n      0x04\n        /* \"Catch.sol\":58621:58636  _tOwned[sender] */\n      0x20\n      mstore\n      0x40\n      swap1\n      keccak256\n      sload\n        /* \"Catch.sol\":58472:58592  (uint256 rAmount, uint256 rTransferAmount, uint256 rFee) = _getRValues(tAmount, tFee, tLiquidity, tCoinOperation, tBurn) */\n      swap3\n      swap6\n      pop\n      swap1\n      swap4\n      pop\n      swap2\n      pop\n        /* \"Catch.sol\":58621:58644  _tOwned[sender]-tAmount */\n      tag_541\n      swap1\n        /* \"Catch.sol\":58637:58644  tAmount */\n      dup11\n      swap1\n        /* \"Catch.sol\":58621:58644  _tOwned[sender]-tAmount */\n      tag_219\n      jump\t// in\n    tag_541:\n      sub(shl(0xa0, 0x01), 0x01)\n        /* \"Catch.sol\":58603:58618  _tOwned[sender] */\n      dup13\n      and\n      0x00\n      swap1\n      dup2\n      mstore\n        /* \"Catch.sol\":58603:58610  _tOwned */\n      0x04\n        /* \"Catch.sol\":58603:58618  _tOwned[sender] */\n      0x20\n      swap1\n      dup2\n      mstore\n      0x40\n      dup1\n      dup4\n      keccak256\n        /* \"Catch.sol\":58603:58644  _tOwned[sender] = _tOwned[sender]-tAmount */\n      swap4\n      swap1\n      swap4\n      sstore\n        /* \"Catch.sol\":58673:58680  _rOwned */\n      0x03\n        /* \"Catch.sol\":58673:58688  _rOwned[sender] */\n      swap1\n      mstore\n      keccak256\n      sload\n        /* \"Catch.sol\":58673:58696  _rOwned[sender]-rAmount */\n      tag_542\n      swap1\n        /* \"Catch.sol\":58689:58696  rAmount */\n      dup5\n      swap1\n        /* \"Catch.sol\":58673:58696  _rOwned[sender]-rAmount */\n      tag_219\n      jump\t// in\n    tag_542:\n      sub(shl(0xa0, 0x01), 0x01)\n        /* \"Catch.sol\":58655:58670  _rOwned[sender] */\n      dup1\n      dup14\n      and\n      0x00\n      swap1\n      dup2\n      mstore\n        /* \"Catch.sol\":58655:58662  _rOwned */\n      0x03\n        /* \"Catch.sol\":58655:58670  _rOwned[sender] */\n      0x20\n      mstore\n      0x40\n      dup1\n      dup3\n      keccak256\n        /* \"Catch.sol\":58655:58696  _rOwned[sender] = _rOwned[sender]-rAmount */\n      swap4\n      swap1\n      swap4\n      sstore\n        /* \"Catch.sol\":58728:58746  _rOwned[recipient] */\n      swap1\n      dup13\n      and\n      dup2\n      mstore\n      keccak256\n      sload\n        /* \"Catch.sol\":58728:58762  _rOwned[recipient]+rTransferAmount */\n      tag_543\n      swap1\n        /* \"Catch.sol\":58747:58762  rTransferAmount */\n      dup4\n      swap1\n        /* \"Catch.sol\":58728:58762  _rOwned[recipient]+rTransferAmount */\n      tag_262\n      jump\t// in\n    tag_543:\n      sub(shl(0xa0, 0x01), 0x01)\n        /* \"Catch.sol\":58707:58725  _rOwned[recipient] */\n      dup12\n      and\n      0x00\n      swap1\n      dup2\n      mstore\n        /* \"Catch.sol\":58707:58714  _rOwned */\n      0x03\n        /* \"Catch.sol\":58707:58725  _rOwned[recipient] */\n      0x20\n      mstore\n      0x40\n      swap1\n      keccak256\n        /* \"Catch.sol\":58707:58762  _rOwned[recipient] = _rOwned[recipient]+rTransferAmount */\n      sstore\n        /* \"Catch.sol\":58776:58802  _takeLiquidity(tLiquidity) */\n      tag_544\n        /* \"Catch.sol\":58791:58801  tLiquidity */\n      dup7\n        /* \"Catch.sol\":58776:58790  _takeLiquidity */\n      tag_545\n        /* \"Catch.sol\":58776:58802  _takeLiquidity(tLiquidity) */\n      jump\t// in\n    tag_544:\n        /* \"Catch.sol\":58813:58843  _reflectFee(rFee, tFee, tBurn) */\n      tag_546\n        /* \"Catch.sol\":58825:58829  rFee */\n      dup2\n        /* \"Catch.sol\":58831:58835  tFee */\n      dup9\n        /* \"Catch.sol\":58837:58842  tBurn */\n      dup7\n        /* \"Catch.sol\":58813:58824  _reflectFee */\n      tag_547\n        /* \"Catch.sol\":58813:58843  _reflectFee(rFee, tFee, tBurn) */\n      jump\t// in\n    tag_546:\n        /* \"Catch.sol\":58854:58883  _takeCoinFund(tCoinOperation) */\n      tag_548\n        /* \"Catch.sol\":58868:58882  tCoinOperation */\n      dup6\n        /* \"Catch.sol\":58854:58867  _takeCoinFund */\n      tag_549\n        /* \"Catch.sol\":58854:58883  _takeCoinFund(tCoinOperation) */\n      jump\t// in\n    tag_548:\n        /* \"Catch.sol\":58916:58925  recipient */\n      dup10\n      sub(shl(0xa0, 0x01), 0x01)\n        /* \"Catch.sol\":58899:58943  Transfer(sender, recipient, tTransferAmount) */\n      and\n        /* \"Catch.sol\":58908:58914  sender */\n      dup12\n      sub(shl(0xa0, 0x01), 0x01)\n        /* \"Catch.sol\":58899:58943  Transfer(sender, recipient, tTransferAmount) */\n      and\n      0xddf252ad1be2c89b69c2b068fc378daa952ba7f163c4a11628f55a4df523b3ef\n        /* \"Catch.sol\":58927:58942  tTransferAmount */\n      dup11\n        /* \"Catch.sol\":58899:58943  Transfer(sender, recipient, tTransferAmount) */\n      mload(0x40)\n      tag_550\n      swap2\n        /* \"#utility.yul\":1361:1386   */\n      dup2\n      mstore\n        /* \"#utility.yul\":1349:1351   */\n      0x20\n        /* \"#utility.yul\":1334:1352   */\n      add\n      swap1\n        /* \"#utility.yul\":1215:1392   */\n      jump\n        /* \"Catch.sol\":58899:58943  Transfer(sender, recipient, tTransferAmount) */\n    tag_550:\n      mload(0x40)\n      dup1\n      swap2\n      sub\n      swap1\n      log3\n        /* \"Catch.sol\":58330:58951  {... */\n      pop\n      pop\n      pop\n      pop\n      pop\n      pop\n      pop\n      pop\n        /* \"Catch.sol\":58239:58951  function _transferFromExcluded(address sender, address recipient, uint256 tAmount) private {... */\n      pop\n      pop\n      pop\n      jump\t// out\n        /* \"Catch.sol\":56800:57532  function _transferToExcluded(address sender, address recipient, uint256 tAmount) private {... */\n    tag_448:\n        /* \"Catch.sol\":56901:56924  uint256 tTransferAmount */\n      0x00\n        /* \"Catch.sol\":56926:56938  uint256 tFee */\n      dup1\n        /* \"Catch.sol\":56940:56958  uint256 tLiquidity */\n      0x00\n        /* \"Catch.sol\":56960:56982  uint256 tCoinOperation */\n      dup1\n        /* \"Catch.sol\":56984:56997  uint256 tBurn */\n      0x00\n        /* \"Catch.sol\":57001:57020  _getValues(tAmount) */\n      tag_552\n        /* \"Catch.sol\":57012:57019  tAmount */\n      dup7\n        /* \"Catch.sol\":57001:57011  _getValues */\n      tag_539\n        /* \"Catch.sol\":57001:57020  _getValues(tAmount) */\n      jump\t// in\n    tag_552:\n        /* \"Catch.sol\":56900:57020  (uint256 tTransferAmount, uint256 tFee, uint256 tLiquidity, uint256 tCoinOperation, uint256 tBurn) = _getValues(tAmount) */\n      swap5\n      pop\n      swap5\n      pop\n      swap5\n      pop\n      swap5\n      pop\n      swap5\n      pop\n        /* \"Catch.sol\":57032:57047  uint256 rAmount */\n      0x00\n        /* \"Catch.sol\":57049:57072  uint256 rTransferAmount */\n      dup1\n        /* \"Catch.sol\":57074:57086  uint256 rFee */\n      0x00\n        /* \"Catch.sol\":57090:57151  _getRValues(tAmount, tFee, tLiquidity, tCoinOperation, tBurn) */\n      tag_553\n        /* \"Catch.sol\":57102:57109  tAmount */\n      dup10\n        /* \"Catch.sol\":57111:57115  tFee */\n      dup9\n        /* \"Catch.sol\":57117:57127  tLiquidity */\n      dup9\n        /* \"Catch.sol\":57129:57143  tCoinOperation */\n      dup9\n        /* \"Catch.sol\":57145:57150  tBurn */\n      dup9\n        /* \"Catch.sol\":57090:57101  _getRValues */\n      tag_418\n        /* \"Catch.sol\":57090:57151  _getRValues(tAmount, tFee, tLiquidity, tCoinOperation, tBurn) */\n      jump\t// in\n    tag_553:\n      sub(shl(0xa0, 0x01), 0x01)\n        /* \"Catch.sol\":57180:57195  _rOwned[sender] */\n      dup15\n      and\n      0x00\n      swap1\n      dup2\n      mstore\n        /* \"Catch.sol\":57180:57187  _rOwned */\n      0x03\n        /* \"Catch.sol\":57180:57195  _rOwned[sender] */\n      0x20\n      mstore\n      0x40\n      swap1\n      keccak256\n      sload\n        /* \"Catch.sol\":57031:57151  (uint256 rAmount, uint256 rTransferAmount, uint256 rFee) = _getRValues(tAmount, tFee, tLiquidity, tCoinOperation, tBurn) */\n      swap3\n      swap6\n      pop\n      swap1\n      swap4\n      pop\n      swap2\n      pop\n        /* \"Catch.sol\":57180:57203  _rOwned[sender]-rAmount */\n      tag_554\n      swap1\n        /* \"Catch.sol\":57031:57151  (uint256 rAmount, uint256 rTransferAmount, uint256 rFee) = _getRValues(tAmount, tFee, tLiquidity, tCoinOperation, tBurn) */\n      dup5\n      swap1\n        /* \"Catch.sol\":57180:57203  _rOwned[sender]-rAmount */\n      tag_219\n      jump\t// in\n    tag_554:\n      sub(shl(0xa0, 0x01), 0x01)\n        /* \"Catch.sol\":57162:57177  _rOwned[sender] */\n      dup1\n      dup14\n      and\n      0x00\n      swap1\n      dup2\n      mstore\n        /* \"Catch.sol\":57162:57169  _rOwned */\n      0x03\n        /* \"Catch.sol\":57162:57177  _rOwned[sender] */\n      0x20\n      swap1\n      dup2\n      mstore\n      0x40\n      dup1\n      dup4\n      keccak256\n        /* \"Catch.sol\":57162:57203  _rOwned[sender] = _rOwned[sender]-rAmount */\n      swap5\n      swap1\n      swap5\n      sstore\n        /* \"Catch.sol\":57235:57253  _tOwned[recipient] */\n      swap2\n      dup14\n      and\n      dup2\n      mstore\n        /* \"Catch.sol\":57235:57242  _tOwned */\n      0x04\n        /* \"Catch.sol\":57235:57253  _tOwned[recipient] */\n      swap1\n      swap2\n      mstore\n      keccak256\n      sload\n        /* \"Catch.sol\":57235:57269  _tOwned[recipient]+tTransferAmount */\n      tag_555\n      swap1\n        /* \"Catch.sol\":57254:57269  tTransferAmount */\n      dup10\n      swap1\n        /* \"Catch.sol\":57235:57269  _tOwned[recipient]+tTransferAmount */\n      tag_262\n      jump\t// in\n    tag_555:\n      sub(shl(0xa0, 0x01), 0x01)\n        /* \"Catch.sol\":57214:57232  _tOwned[recipient] */\n      dup12\n      and\n      0x00\n      swap1\n      dup2\n      mstore\n        /* \"Catch.sol\":57214:57221  _tOwned */\n      0x04\n        /* \"Catch.sol\":57214:57232  _tOwned[recipient] */\n      0x20\n      swap1\n      dup2\n      mstore\n      0x40\n      dup1\n      dup4\n      keccak256\n        /* \"Catch.sol\":57214:57269  _tOwned[recipient] = _tOwned[recipient]+tTransferAmount */\n      swap4\n      swap1\n      swap4\n      sstore\n        /* \"Catch.sol\":57301:57308  _rOwned */\n      0x03\n        /* \"Catch.sol\":57301:57319  _rOwned[recipient] */\n      swap1\n      mstore\n      keccak256\n      sload\n        /* \"Catch.sol\":57301:57335  _rOwned[recipient]+rTransferAmount */\n      tag_543\n      swap1\n        /* \"Catch.sol\":57320:57335  rTransferAmount */\n      dup4\n      swap1\n        /* \"Catch.sol\":57301:57335  _rOwned[recipient]+rTransferAmount */\n      tag_262\n      jump\t// in\n        /* \"Catch.sol\":55439:56092  function _transferStandard(address sender, address recipient, uint256 tAmount) private {... */\n    tag_453:\n        /* \"Catch.sol\":55538:55561  uint256 tTransferAmount */\n      0x00\n        /* \"Catch.sol\":55563:55575  uint256 tFee */\n      dup1\n        /* \"Catch.sol\":55577:55595  uint256 tLiquidity */\n      0x00\n        /* \"Catch.sol\":55597:55619  uint256 tCoinOperation */\n      dup1\n        /* \"Catch.sol\":55621:55634  uint256 tBurn */\n      0x00\n        /* \"Catch.sol\":55638:55657  _getValues(tAmount) */\n      tag_562\n        /* \"Catch.sol\":55649:55656  tAmount */\n      dup7\n        /* \"Catch.sol\":55638:55648  _getValues */\n      tag_539\n        /* \"Catch.sol\":55638:55657  _getValues(tAmount) */\n      jump\t// in\n    tag_562:\n        /* \"Catch.sol\":55537:55657  (uint256 tTransferAmount, uint256 tFee, uint256 tLiquidity, uint256 tCoinOperation, uint256 tBurn) = _getValues(tAmount) */\n      swap5\n      pop\n      swap5\n      pop\n      swap5\n      pop\n      swap5\n      pop\n      swap5\n      pop\n        /* \"Catch.sol\":55669:55684  uint256 rAmount */\n      0x00\n        /* \"Catch.sol\":55686:55709  uint256 rTransferAmount */\n      dup1\n        /* \"Catch.sol\":55711:55723  uint256 rFee */\n      0x00\n        /* \"Catch.sol\":55727:55788  _getRValues(tAmount, tFee, tLiquidity, tCoinOperation, tBurn) */\n      tag_563\n        /* \"Catch.sol\":55739:55746  tAmount */\n      dup10\n        /* \"Catch.sol\":55748:55752  tFee */\n      dup9\n        /* \"Catch.sol\":55754:55764  tLiquidity */\n      dup9\n        /* \"Catch.sol\":55766:55780  tCoinOperation */\n      dup9\n        /* \"Catch.sol\":55782:55787  tBurn */\n      dup9\n        /* \"Catch.sol\":55727:55738  _getRValues */\n      tag_418\n        /* \"Catch.sol\":55727:55788  _getRValues(tAmount, tFee, tLiquidity, tCoinOperation, tBurn) */\n      jump\t// in\n    tag_563:\n      sub(shl(0xa0, 0x01), 0x01)\n        /* \"Catch.sol\":55817:55832  _rOwned[sender] */\n      dup15\n      and\n      0x00\n      swap1\n      dup2\n      mstore\n        /* \"Catch.sol\":55817:55824  _rOwned */\n      0x03\n        /* \"Catch.sol\":55817:55832  _rOwned[sender] */\n      0x20\n      mstore\n      0x40\n      swap1\n      keccak256\n      sload\n        /* \"Catch.sol\":55668:55788  (uint256 rAmount, uint256 rTransferAmount, uint256 rFee) = _getRValues(tAmount, tFee, tLiquidity, tCoinOperation, tBurn) */\n      swap3\n      swap6\n      pop\n      swap1\n      swap4\n      pop\n      swap2\n      pop\n        /* \"Catch.sol\":55817:55840  _rOwned[sender]-rAmount */\n      tag_542\n      swap1\n        /* \"Catch.sol\":55668:55788  (uint256 rAmount, uint256 rTransferAmount, uint256 rFee) = _getRValues(tAmount, tFee, tLiquidity, tCoinOperation, tBurn) */\n      dup5\n      swap1\n        /* \"Catch.sol\":55817:55840  _rOwned[sender]-rAmount */\n      tag_219\n      jump\t// in\n        /* \"Catch.sol\":28908:29691  function _transferBothExcluded(address sender, address recipient, uint256 tAmount) private {... */\n    tag_458:\n        /* \"Catch.sol\":29011:29034  uint256 tTransferAmount */\n      0x00\n        /* \"Catch.sol\":29036:29048  uint256 tFee */\n      dup1\n        /* \"Catch.sol\":29050:29068  uint256 tLiquidity */\n      0x00\n        /* \"Catch.sol\":29070:29092  uint256 tCoinOperation */\n      dup1\n        /* \"Catch.sol\":29094:29107  uint256 tBurn */\n      0x00\n        /* \"Catch.sol\":29111:29130  _getValues(tAmount) */\n      tag_571\n        /* \"Catch.sol\":29122:29129  tAmount */\n      dup7\n        /* \"Catch.sol\":29111:29121  _getValues */\n      tag_539\n        /* \"Catch.sol\":29111:29130  _getValues(tAmount) */\n      jump\t// in\n    tag_571:\n        /* \"Catch.sol\":29010:29130  (uint256 tTransferAmount, uint256 tFee, uint256 tLiquidity, uint256 tCoinOperation, uint256 tBurn) = _getValues(tAmount) */\n      swap5\n      pop\n      swap5\n      pop\n      swap5\n      pop\n      swap5\n      pop\n      swap5\n      pop\n        /* \"Catch.sol\":29142:29157  uint256 rAmount */\n      0x00\n        /* \"Catch.sol\":29159:29182  uint256 rTransferAmount */\n      dup1\n        /* \"Catch.sol\":29184:29196  uint256 rFee */\n      0x00\n        /* \"Catch.sol\":29200:29261  _getRValues(tAmount, tFee, tLiquidity, tCoinOperation, tBurn) */\n      tag_572\n        /* \"Catch.sol\":29212:29219  tAmount */\n      dup10\n        /* \"Catch.sol\":29221:29225  tFee */\n      dup9\n        /* \"Catch.sol\":29227:29237  tLiquidity */\n      dup9\n        /* \"Catch.sol\":29239:29253  tCoinOperation */\n      dup9\n        /* \"Catch.sol\":29255:29260  tBurn */\n      dup9\n        /* \"Catch.sol\":29200:29211  _getRValues */\n      tag_418\n        /* \"Catch.sol\":29200:29261  _getRValues(tAmount, tFee, tLiquidity, tCoinOperation, tBurn) */\n      jump\t// in\n    tag_572:\n      sub(shl(0xa0, 0x01), 0x01)\n        /* \"Catch.sol\":29290:29305  _tOwned[sender] */\n      dup15\n      and\n      0x00\n      swap1\n      dup2\n      mstore\n        /* \"Catch.sol\":29290:29297  _tOwned */\n      0x04\n        /* \"Catch.sol\":29290:29305  _tOwned[sender] */\n      0x20\n      mstore\n      0x40\n      swap1\n      keccak256\n      sload\n        /* \"Catch.sol\":29141:29261  (uint256 rAmount, uint256 rTransferAmount, uint256 rFee) = _getRValues(tAmount, tFee, tLiquidity, tCoinOperation, tBurn) */\n      swap3\n      swap6\n      pop\n      swap1\n      swap4\n      pop\n      swap2\n      pop\n        /* \"Catch.sol\":29290:29313  _tOwned[sender]-tAmount */\n      tag_573\n      swap1\n        /* \"Catch.sol\":29306:29313  tAmount */\n      dup11\n      swap1\n        /* \"Catch.sol\":29290:29313  _tOwned[sender]-tAmount */\n      tag_219\n      jump\t// in\n    tag_573:\n      sub(shl(0xa0, 0x01), 0x01)\n        /* \"Catch.sol\":29272:29287  _tOwned[sender] */\n      dup13\n      and\n      0x00\n      swap1\n      dup2\n      mstore\n        /* \"Catch.sol\":29272:29279  _tOwned */\n      0x04\n        /* \"Catch.sol\":29272:29287  _tOwned[sender] */\n      0x20\n      swap1\n      dup2\n      mstore\n      0x40\n      dup1\n      dup4\n      keccak256\n        /* \"Catch.sol\":29272:29313  _tOwned[sender] = _tOwned[sender]-tAmount */\n      swap4\n      swap1\n      swap4\n      sstore\n        /* \"Catch.sol\":29342:29349  _rOwned */\n      0x03\n        /* \"Catch.sol\":29342:29357  _rOwned[sender] */\n      swap1\n      mstore\n      keccak256\n      sload\n        /* \"Catch.sol\":29342:29365  _rOwned[sender]-rAmount */\n      tag_554\n      swap1\n        /* \"Catch.sol\":29358:29365  rAmount */\n      dup5\n      swap1\n        /* \"Catch.sol\":29342:29365  _rOwned[sender]-rAmount */\n      tag_219\n      jump\t// in\n        /* \"Catch.sol\":42180:42303  function calculateTaxFee(uint256 _amount) private view returns (uint256) {... */\n    tag_485:\n        /* \"Catch.sol\":42244:42251  uint256 */\n      0x00\n        /* \"Catch.sol\":42290:42295  10**2 */\n      0x64\n        /* \"Catch.sol\":42281:42287  refAmt */\n      sload(0x0e)\n        /* \"Catch.sol\":42271:42278  _amount */\n      dup4\n        /* \"Catch.sol\":42271:42287  _amount * refAmt */\n      tag_582\n      swap2\n      swap1\n      tag_499\n      jump\t// in\n    tag_582:\n        /* \"Catch.sol\":42271:42295  _amount * refAmt / 10**2 */\n      tag_205\n      swap2\n      swap1\n      tag_227\n      jump\t// in\n        /* \"Catch.sol\":42548:42679  function calculateLiquidityFee(uint256 _amount) private view returns (uint256) {... */\n    tag_487:\n        /* \"Catch.sol\":42618:42625  uint256 */\n      0x00\n        /* \"Catch.sol\":42666:42671  10**2 */\n      0x64\n        /* \"Catch.sol\":42655:42663  liquidty */\n      sload(0x10)\n        /* \"Catch.sol\":42645:42652  _amount */\n      dup4\n        /* \"Catch.sol\":42645:42663  _amount * liquidty */\n      tag_582\n      swap2\n      swap1\n      tag_499\n      jump\t// in\n        /* \"Catch.sol\":42945:43086  function calculateCoinOperartionTax(uint256 _amount) private view returns (uint256) {... */\n    tag_489:\n        /* \"Catch.sol\":43020:43027  uint256 */\n      0x00\n        /* \"Catch.sol\":43073:43078  10**2 */\n      0x64\n        /* \"Catch.sol\":43057:43070  coinOperation */\n      sload(0x0f)\n        /* \"Catch.sol\":43047:43054  _amount */\n      dup4\n        /* \"Catch.sol\":43047:43070  _amount * coinOperation */\n      tag_582\n      swap2\n      swap1\n      tag_499\n      jump\t// in\n        /* \"Catch.sol\":43395:43517  function calculateBurnTax(uint256 _amount) private view returns (uint256) {... */\n    tag_491:\n        /* \"Catch.sol\":43460:43467  uint256 */\n      0x00\n        /* \"Catch.sol\":43504:43509  10**2 */\n      0x64\n        /* \"Catch.sol\":43497:43501  burn */\n      sload(0x11)\n        /* \"Catch.sol\":43487:43494  _amount */\n      dup4\n        /* \"Catch.sol\":43487:43501  _amount * burn */\n      tag_582\n      swap2\n      swap1\n      tag_499\n      jump\t// in\n        /* \"Catch.sol\":35840:36162  function _getValues(uint256 tAmount) private view returns (uint256, uint256, uint256, uint256, uint256) {... */\n    tag_539:\n        /* \"Catch.sol\":35899:35906  uint256 */\n      0x00\n        /* \"Catch.sol\":35908:35915  uint256 */\n      dup1\n        /* \"Catch.sol\":35917:35924  uint256 */\n      0x00\n        /* \"Catch.sol\":35926:35933  uint256 */\n      dup1\n        /* \"Catch.sol\":35935:35942  uint256 */\n      0x00\n        /* \"Catch.sol\":35956:35979  uint256 tTransferAmount */\n      dup1\n        /* \"Catch.sol\":35981:35993  uint256 tFee */\n      0x00\n        /* \"Catch.sol\":35995:36013  uint256 tLiquidity */\n      dup1\n        /* \"Catch.sol\":36015:36037  uint256 tCoinOperation */\n      0x00\n        /* \"Catch.sol\":36039:36052  uint256 tBurn */\n      dup1\n        /* \"Catch.sol\":36056:36076  _getTValues(tAmount) */\n      tag_594\n        /* \"Catch.sol\":36068:36075  tAmount */\n      dup12\n        /* \"Catch.sol\":36056:36067  _getTValues */\n      tag_416\n        /* \"Catch.sol\":36056:36076  _getTValues(tAmount) */\n      jump\t// in\n    tag_594:\n        /* \"Catch.sol\":35955:36076  (uint256 tTransferAmount, uint256 tFee, uint256 tLiquidity, uint256 tCoinOperation, uint256 tBurn) = _getTValues(tAmount) */\n      swap4\n      swap16\n      swap3\n      swap15\n      pop\n      swap1\n      swap13\n      pop\n      swap11\n      pop\n      swap1\n      swap9\n      pop\n        /* \"Catch.sol\":35840:36162  function _getValues(uint256 tAmount) private view returns (uint256, uint256, uint256, uint256, uint256) {... */\n      swap7\n      pop\n      pop\n      pop\n      pop\n      pop\n      pop\n      pop\n      jump\t// out\n        /* \"Catch.sol\":41541:41932  function _takeLiquidity(uint256 tLiquidity) private {... */\n    tag_545:\n        /* \"Catch.sol\":41607:41626  uint256 currentRate */\n      0x00\n        /* \"Catch.sol\":41630:41640  _getRate() */\n      tag_596\n        /* \"Catch.sol\":41630:41638  _getRate */\n      tag_225\n        /* \"Catch.sol\":41630:41640  _getRate() */\n      jump\t// in\n    tag_596:\n        /* \"Catch.sol\":41607:41640  uint256 currentRate =  _getRate() */\n      swap1\n      pop\n        /* \"Catch.sol\":41651:41669  uint256 rLiquidity */\n      0x00\n        /* \"Catch.sol\":41672:41696  tLiquidity * currentRate */\n      tag_597\n        /* \"Catch.sol\":41607:41640  uint256 currentRate =  _getRate() */\n      dup3\n        /* \"Catch.sol\":41672:41682  tLiquidity */\n      dup5\n        /* \"Catch.sol\":41672:41696  tLiquidity * currentRate */\n      tag_499\n      jump\t// in\n    tag_597:\n        /* \"Catch.sol\":41748:41752  this */\n      address\n        /* \"Catch.sol\":41732:41754  _rOwned[address(this)] */\n      0x00\n      swap1\n      dup2\n      mstore\n        /* \"Catch.sol\":41732:41739  _rOwned */\n      0x03\n        /* \"Catch.sol\":41732:41754  _rOwned[address(this)] */\n      0x20\n      mstore\n      0x40\n      swap1\n      keccak256\n      sload\n        /* \"Catch.sol\":41651:41696  uint256 rLiquidity = tLiquidity * currentRate */\n      swap1\n      swap2\n      pop\n        /* \"Catch.sol\":41732:41767  _rOwned[address(this)] + rLiquidity */\n      tag_598\n      swap1\n        /* \"Catch.sol\":41651:41696  uint256 rLiquidity = tLiquidity * currentRate */\n      dup3\n      swap1\n        /* \"Catch.sol\":41732:41767  _rOwned[address(this)] + rLiquidity */\n      tag_262\n      jump\t// in\n    tag_598:\n        /* \"Catch.sol\":41723:41727  this */\n      address\n        /* \"Catch.sol\":41707:41729  _rOwned[address(this)] */\n      0x00\n      swap1\n      dup2\n      mstore\n        /* \"Catch.sol\":41707:41714  _rOwned */\n      0x03\n        /* \"Catch.sol\":41707:41729  _rOwned[address(this)] */\n      0x20\n      swap1\n      dup2\n      mstore\n      0x40\n      dup1\n      dup4\n      keccak256\n        /* \"Catch.sol\":41707:41767  _rOwned[address(this)] = _rOwned[address(this)] + rLiquidity */\n      swap4\n      swap1\n      swap4\n      sstore\n        /* \"Catch.sol\":41781:41792  _isExcluded */\n      0x07\n        /* \"Catch.sol\":41781:41807  _isExcluded[address(this)] */\n      swap1\n      mstore\n      keccak256\n      sload\n      0xff\n      and\n        /* \"Catch.sol\":41778:41882  if(_isExcluded[address(this)])... */\n      iszero\n      tag_599\n      jumpi\n        /* \"Catch.sol\":41863:41867  this */\n      address\n        /* \"Catch.sol\":41847:41869  _tOwned[address(this)] */\n      0x00\n      swap1\n      dup2\n      mstore\n        /* \"Catch.sol\":41847:41854  _tOwned */\n      0x04\n        /* \"Catch.sol\":41847:41869  _tOwned[address(this)] */\n      0x20\n      mstore\n      0x40\n      swap1\n      keccak256\n      sload\n        /* \"Catch.sol\":41847:41882  _tOwned[address(this)] + tLiquidity */\n      tag_600\n      swap1\n        /* \"Catch.sol\":41872:41882  tLiquidity */\n      dup5\n      swap1\n        /* \"Catch.sol\":41847:41882  _tOwned[address(this)] + tLiquidity */\n      tag_262\n      jump\t// in\n    tag_600:\n        /* \"Catch.sol\":41838:41842  this */\n      address\n        /* \"Catch.sol\":41822:41844  _tOwned[address(this)] */\n      0x00\n      swap1\n      dup2\n      mstore\n        /* \"Catch.sol\":41822:41829  _tOwned */\n      0x04\n        /* \"Catch.sol\":41822:41844  _tOwned[address(this)] */\n      0x20\n      mstore\n      0x40\n      swap1\n      keccak256\n        /* \"Catch.sol\":41822:41882  _tOwned[address(this)] = _tOwned[address(this)] + tLiquidity */\n      sstore\n        /* \"Catch.sol\":41778:41882  if(_isExcluded[address(this)])... */\n    tag_599:\n        /* \"Catch.sol\":41898:41924  AddedLiquidity(tLiquidity) */\n      mload(0x40)\n        /* \"#utility.yul\":1361:1386   */\n      dup4\n      dup2\n      mstore\n        /* \"Catch.sol\":41898:41924  AddedLiquidity(tLiquidity) */\n      0x3a8ab79f6d1537e459a1a8379f48a77e1ffd07dda4b16ea97074fdab5dd8bf34\n      swap1\n        /* \"#utility.yul\":1349:1351   */\n      0x20\n        /* \"#utility.yul\":1334:1352   */\n      add\n        /* \"Catch.sol\":41898:41924  AddedLiquidity(tLiquidity) */\n    tag_601:\n      mload(0x40)\n      dup1\n      swap2\n      sub\n      swap1\n      log1\n        /* \"Catch.sol\":41593:41932  {... */\n      pop\n      pop\n        /* \"Catch.sol\":41541:41932  function _takeLiquidity(uint256 tLiquidity) private {... */\n      pop\n      jump\t// out\n        /* \"Catch.sol\":33734:34078  function _reflectFee(uint256 rFee, uint256 tFee, uint256 tBurn) private {... */\n    tag_547:\n        /* \"Catch.sol\":33818:33837  uint256 currentRate */\n      0x00\n        /* \"Catch.sol\":33840:33850  _getRate() */\n      tag_603\n        /* \"Catch.sol\":33840:33848  _getRate */\n      tag_225\n        /* \"Catch.sol\":33840:33850  _getRate() */\n      jump\t// in\n    tag_603:\n        /* \"Catch.sol\":33818:33850  uint256 currentRate = _getRate() */\n      swap1\n      pop\n        /* \"Catch.sol\":33862:33875  uint256 rBurn */\n      0x00\n        /* \"Catch.sol\":33878:33897  tBurn * currentRate */\n      tag_604\n        /* \"Catch.sol\":33818:33850  uint256 currentRate = _getRate() */\n      dup3\n        /* \"Catch.sol\":33878:33883  tBurn */\n      dup5\n        /* \"Catch.sol\":33878:33897  tBurn * currentRate */\n      tag_499\n      jump\t// in\n    tag_604:\n        /* \"Catch.sol\":33862:33897  uint256 rBurn = tBurn * currentRate */\n      swap1\n      pop\n        /* \"Catch.sol\":33942:33947  rBurn */\n      dup1\n        /* \"Catch.sol\":33935:33939  rFee */\n      dup6\n        /* \"Catch.sol\":33925:33932  _rTotal */\n      sload(0x0a)\n        /* \"Catch.sol\":33925:33939  _rTotal - rFee */\n      tag_605\n      swap2\n      swap1\n      tag_219\n      jump\t// in\n    tag_605:\n        /* \"Catch.sol\":33925:33947  _rTotal - rFee - rBurn */\n      tag_606\n      swap2\n      swap1\n      tag_219\n      jump\t// in\n    tag_606:\n        /* \"Catch.sol\":33915:33922  _rTotal */\n      0x0a\n        /* \"Catch.sol\":33915:33947  _rTotal = _rTotal - rFee - rBurn */\n      sstore\n        /* \"Catch.sol\":33971:33981  _tFeeTotal */\n      sload(0x0b)\n        /* \"Catch.sol\":33971:33988  _tFeeTotal + tFee */\n      tag_607\n      swap1\n        /* \"Catch.sol\":33984:33988  tFee */\n      dup6\n      swap1\n        /* \"Catch.sol\":33971:33988  _tFeeTotal + tFee */\n      tag_262\n      jump\t// in\n    tag_607:\n        /* \"Catch.sol\":33958:33968  _tFeeTotal */\n      0x0b\n        /* \"Catch.sol\":33958:33988  _tFeeTotal = _tFeeTotal + tFee */\n      sstore\n        /* \"Catch.sol\":34011:34018  _tTotal */\n      sload(0x09)\n        /* \"Catch.sol\":34011:34026  _tTotal - tBurn */\n      tag_608\n      swap1\n        /* \"Catch.sol\":34021:34026  tBurn */\n      dup5\n      swap1\n        /* \"Catch.sol\":34011:34026  _tTotal - tBurn */\n      tag_219\n      jump\t// in\n    tag_608:\n        /* \"Catch.sol\":34001:34008  _tTotal */\n      0x09\n        /* \"Catch.sol\":34001:34026  _tTotal = _tTotal - tBurn */\n      sstore\n        /* \"Catch.sol\":34042:34060  ReflectedFee(tFee) */\n      mload(0x40)\n        /* \"#utility.yul\":1361:1386   */\n      dup5\n      dup2\n      mstore\n        /* \"Catch.sol\":34042:34060  ReflectedFee(tFee) */\n      0x56b5df500587465b57d8ce799cc562a294f136b75a13718c574d9d36bd828058\n      swap1\n        /* \"#utility.yul\":1349:1351   */\n      0x20\n        /* \"#utility.yul\":1334:1352   */\n      add\n        /* \"Catch.sol\":34042:34060  ReflectedFee(tFee) */\n      mload(0x40)\n      dup1\n      swap2\n      sub\n      swap1\n      log1\n        /* \"Catch.sol\":33806:34078  {... */\n      pop\n      pop\n        /* \"Catch.sol\":33734:34078  function _reflectFee(uint256 rFee, uint256 tFee, uint256 tBurn) private {... */\n      pop\n      pop\n      pop\n      jump\t// out\n        /* \"Catch.sol\":34715:35108  function _takeCoinFund(uint256 tCoinOperation) private {... */\n    tag_549:\n        /* \"Catch.sol\":34784:34803  uint256 currentRate */\n      0x00\n        /* \"Catch.sol\":34807:34817  _getRate() */\n      tag_611\n        /* \"Catch.sol\":34807:34815  _getRate */\n      tag_225\n        /* \"Catch.sol\":34807:34817  _getRate() */\n      jump\t// in\n    tag_611:\n        /* \"Catch.sol\":34784:34817  uint256 currentRate =  _getRate() */\n      swap1\n      pop\n        /* \"Catch.sol\":34828:34850  uint256 rCoinOperation */\n      0x00\n        /* \"Catch.sol\":34853:34881  tCoinOperation * currentRate */\n      tag_612\n        /* \"Catch.sol\":34784:34817  uint256 currentRate =  _getRate() */\n      dup3\n        /* \"Catch.sol\":34853:34867  tCoinOperation */\n      dup5\n        /* \"Catch.sol\":34853:34881  tCoinOperation * currentRate */\n      tag_499\n      jump\t// in\n    tag_612:\n        /* \"Catch.sol\":34922:34932  fundWallet */\n      and(sub(shl(0xa0, 0x01), 0x01), sload(0x12))\n        /* \"Catch.sol\":34914:34933  _rOwned[fundWallet] */\n      0x00\n      swap1\n      dup2\n      mstore\n        /* \"Catch.sol\":34914:34921  _rOwned */\n      0x03\n        /* \"Catch.sol\":34914:34933  _rOwned[fundWallet] */\n      0x20\n      mstore\n      0x40\n      swap1\n      keccak256\n      sload\n        /* \"Catch.sol\":34828:34881  uint256 rCoinOperation = tCoinOperation * currentRate */\n      swap1\n      swap2\n      pop\n        /* \"Catch.sol\":34914:34950  _rOwned[fundWallet] + rCoinOperation */\n      tag_613\n      swap1\n        /* \"Catch.sol\":34828:34881  uint256 rCoinOperation = tCoinOperation * currentRate */\n      dup3\n      swap1\n        /* \"Catch.sol\":34914:34950  _rOwned[fundWallet] + rCoinOperation */\n      tag_262\n      jump\t// in\n    tag_613:\n        /* \"Catch.sol\":34900:34910  fundWallet */\n      0x12\n      dup1\n      sload\n      sub(shl(0xa0, 0x01), 0x01)\n      swap1\n      dup2\n      and\n        /* \"Catch.sol\":34892:34911  _rOwned[fundWallet] */\n      0x00\n      swap1\n      dup2\n      mstore\n        /* \"Catch.sol\":34892:34899  _rOwned */\n      0x03\n        /* \"Catch.sol\":34892:34911  _rOwned[fundWallet] */\n      0x20\n      swap1\n      dup2\n      mstore\n      0x40\n      dup1\n      dup4\n      keccak256\n        /* \"Catch.sol\":34892:34950  _rOwned[fundWallet] = _rOwned[fundWallet] + rCoinOperation */\n      swap6\n      swap1\n      swap6\n      sstore\n        /* \"Catch.sol\":34976:34986  fundWallet */\n      swap3\n      sload\n      swap1\n      swap2\n      and\n        /* \"Catch.sol\":34964:34987  _isExcluded[fundWallet] */\n      dup2\n      mstore\n        /* \"Catch.sol\":34964:34975  _isExcluded */\n      0x07\n        /* \"Catch.sol\":34964:34987  _isExcluded[fundWallet] */\n      swap1\n      swap2\n      mstore\n      keccak256\n      sload\n      0xff\n      and\n        /* \"Catch.sol\":34961:35060  if(_isExcluded[fundWallet])... */\n      iszero\n      tag_614\n      jumpi\n        /* \"Catch.sol\":35032:35042  fundWallet */\n      and(sub(shl(0xa0, 0x01), 0x01), sload(0x12))\n        /* \"Catch.sol\":35024:35043  _tOwned[fundWallet] */\n      0x00\n      swap1\n      dup2\n      mstore\n        /* \"Catch.sol\":35024:35031  _tOwned */\n      0x04\n        /* \"Catch.sol\":35024:35043  _tOwned[fundWallet] */\n      0x20\n      mstore\n      0x40\n      swap1\n      keccak256\n      sload\n        /* \"Catch.sol\":35024:35060  _tOwned[fundWallet] + tCoinOperation */\n      tag_615\n      swap1\n        /* \"Catch.sol\":35046:35060  tCoinOperation */\n      dup5\n      swap1\n        /* \"Catch.sol\":35024:35060  _tOwned[fundWallet] + tCoinOperation */\n      tag_262\n      jump\t// in\n    tag_615:\n        /* \"Catch.sol\":35010:35020  fundWallet */\n      and(sub(shl(0xa0, 0x01), 0x01), sload(0x12))\n        /* \"Catch.sol\":35002:35021  _tOwned[fundWallet] */\n      0x00\n      swap1\n      dup2\n      mstore\n        /* \"Catch.sol\":35002:35009  _tOwned */\n      0x04\n        /* \"Catch.sol\":35002:35021  _tOwned[fundWallet] */\n      0x20\n      mstore\n      0x40\n      swap1\n      keccak256\n        /* \"Catch.sol\":35002:35060  _tOwned[fundWallet] = _tOwned[fundWallet] + tCoinOperation */\n      sstore\n        /* \"Catch.sol\":34961:35060  if(_isExcluded[fundWallet])... */\n    tag_614:\n        /* \"Catch.sol\":35076:35100  CoinFund(tCoinOperation) */\n      mload(0x40)\n        /* \"#utility.yul\":1361:1386   */\n      dup4\n      dup2\n      mstore\n        /* \"Catch.sol\":35076:35100  CoinFund(tCoinOperation) */\n      0x7a934c407238277f8cf36df7a2f4b5ef2eb3aa6190eeb615e32c02075a5730b0\n      swap1\n        /* \"#utility.yul\":1349:1351   */\n      0x20\n        /* \"#utility.yul\":1334:1352   */\n      add\n        /* \"Catch.sol\":35076:35100  CoinFund(tCoinOperation) */\n      tag_601\n        /* \"#utility.yul\":1215:1392   */\n      jump\n        /* \"#utility.yul\":14:562   */\n    tag_50:\n        /* \"#utility.yul\":126:130   */\n      0x00\n        /* \"#utility.yul\":155:157   */\n      0x20\n        /* \"#utility.yul\":184:186   */\n      dup1\n        /* \"#utility.yul\":173:182   */\n      dup4\n        /* \"#utility.yul\":166:187   */\n      mstore\n        /* \"#utility.yul\":216:222   */\n      dup4\n        /* \"#utility.yul\":210:223   */\n      mload\n        /* \"#utility.yul\":259:265   */\n      dup1\n        /* \"#utility.yul\":254:256   */\n      0x20\n        /* \"#utility.yul\":243:252   */\n      dup6\n        /* \"#utility.yul\":239:257   */\n      add\n        /* \"#utility.yul\":232:266   */\n      mstore\n        /* \"#utility.yul\":284:285   */\n      0x00\n        /* \"#utility.yul\":294:434   */\n    tag_622:\n        /* \"#utility.yul\":308:314   */\n      dup2\n        /* \"#utility.yul\":305:306   */\n      dup2\n        /* \"#utility.yul\":302:315   */\n      lt\n        /* \"#utility.yul\":294:434   */\n      iszero\n      tag_624\n      jumpi\n        /* \"#utility.yul\":403:417   */\n      dup6\n      dup2\n      add\n        /* \"#utility.yul\":399:422   */\n      dup4\n      add\n        /* \"#utility.yul\":393:423   */\n      mload\n        /* \"#utility.yul\":369:386   */\n      dup6\n      dup3\n      add\n        /* \"#utility.yul\":388:390   */\n      0x40\n        /* \"#utility.yul\":365:391   */\n      add\n        /* \"#utility.yul\":358:424   */\n      mstore\n        /* \"#utility.yul\":323:333   */\n      dup3\n      add\n        /* \"#utility.yul\":294:434   */\n      jump(tag_622)\n    tag_624:\n        /* \"#utility.yul\":298:301   */\n      pop\n        /* \"#utility.yul\":483:484   */\n      0x00\n        /* \"#utility.yul\":478:480   */\n      0x40\n        /* \"#utility.yul\":469:475   */\n      dup3\n        /* \"#utility.yul\":458:467   */\n      dup7\n        /* \"#utility.yul\":454:476   */\n      add\n        /* \"#utility.yul\":450:481   */\n      add\n        /* \"#utility.yul\":443:485   */\n      mstore\n        /* \"#utility.yul\":553:555   */\n      0x40\n        /* \"#utility.yul\":546:548   */\n      0x1f\n        /* \"#utility.yul\":542:549   */\n      not\n        /* \"#utility.yul\":537:539   */\n      0x1f\n        /* \"#utility.yul\":529:535   */\n      dup4\n        /* \"#utility.yul\":525:540   */\n      add\n        /* \"#utility.yul\":521:550   */\n      and\n        /* \"#utility.yul\":510:519   */\n      dup6\n        /* \"#utility.yul\":506:551   */\n      add\n        /* \"#utility.yul\":502:556   */\n      add\n        /* \"#utility.yul\":494:556   */\n      swap3\n      pop\n      pop\n      pop\n        /* \"#utility.yul\":14:562   */\n      swap3\n      swap2\n      pop\n      pop\n      jump\t// out\n        /* \"#utility.yul\":567:698   */\n    tag_617:\n      sub(shl(0xa0, 0x01), 0x01)\n        /* \"#utility.yul\":642:673   */\n      dup2\n      and\n        /* \"#utility.yul\":632:674   */\n      dup2\n      eq\n        /* \"#utility.yul\":622:692   */\n      tag_626\n      jumpi\n        /* \"#utility.yul\":688:689   */\n      0x00\n        /* \"#utility.yul\":685:686   */\n      dup1\n        /* \"#utility.yul\":678:690   */\n      revert\n        /* \"#utility.yul\":622:692   */\n    tag_626:\n        /* \"#utility.yul\":567:698   */\n      pop\n      jump\t// out\n        /* \"#utility.yul\":703:1018   */\n    tag_54:\n        /* \"#utility.yul\":771:777   */\n      0x00\n        /* \"#utility.yul\":779:785   */\n      dup1\n        /* \"#utility.yul\":832:834   */\n      0x40\n        /* \"#utility.yul\":820:829   */\n      dup4\n        /* \"#utility.yul\":811:818   */\n      dup6\n        /* \"#utility.yul\":807:830   */\n      sub\n        /* \"#utility.yul\":803:835   */\n      slt\n        /* \"#utility.yul\":800:852   */\n      iszero\n      tag_628\n      jumpi\n        /* \"#utility.yul\":848:849   */\n      0x00\n        /* \"#utility.yul\":845:846   */\n      dup1\n        /* \"#utility.yul\":838:850   */\n      revert\n        /* \"#utility.yul\":800:852   */\n    tag_628:\n        /* \"#utility.yul\":887:896   */\n      dup3\n        /* \"#utility.yul\":874:897   */\n      calldataload\n        /* \"#utility.yul\":906:937   */\n      tag_629\n        /* \"#utility.yul\":931:936   */\n      dup2\n        /* \"#utility.yul\":906:937   */\n      tag_617\n      jump\t// in\n    tag_629:\n        /* \"#utility.yul\":956:961   */\n      swap5\n        /* \"#utility.yul\":1008:1010   */\n      0x20\n        /* \"#utility.yul\":993:1011   */\n      swap4\n      swap1\n      swap4\n      add\n        /* \"#utility.yul\":980:1012   */\n      calldataload\n      swap4\n      pop\n      pop\n      pop\n        /* \"#utility.yul\":703:1018   */\n      jump\t// out\n        /* \"#utility.yul\":1631:2087   */\n    tag_75:\n        /* \"#utility.yul\":1708:1714   */\n      0x00\n        /* \"#utility.yul\":1716:1722   */\n      dup1\n        /* \"#utility.yul\":1724:1730   */\n      0x00\n        /* \"#utility.yul\":1777:1779   */\n      0x60\n        /* \"#utility.yul\":1765:1774   */\n      dup5\n        /* \"#utility.yul\":1756:1763   */\n      dup7\n        /* \"#utility.yul\":1752:1775   */\n      sub\n        /* \"#utility.yul\":1748:1780   */\n      slt\n        /* \"#utility.yul\":1745:1797   */\n      iszero\n      tag_634\n      jumpi\n        /* \"#utility.yul\":1793:1794   */\n      0x00\n        /* \"#utility.yul\":1790:1791   */\n      dup1\n        /* \"#utility.yul\":1783:1795   */\n      revert\n        /* \"#utility.yul\":1745:1797   */\n    tag_634:\n        /* \"#utility.yul\":1832:1841   */\n      dup4\n        /* \"#utility.yul\":1819:1842   */\n      calldataload\n        /* \"#utility.yul\":1851:1882   */\n      tag_635\n        /* \"#utility.yul\":1876:1881   */\n      dup2\n        /* \"#utility.yul\":1851:1882   */\n      tag_617\n      jump\t// in\n    tag_635:\n        /* \"#utility.yul\":1901:1906   */\n      swap3\n      pop\n        /* \"#utility.yul\":1958:1960   */\n      0x20\n        /* \"#utility.yul\":1943:1961   */\n      dup5\n      add\n        /* \"#utility.yul\":1930:1962   */\n      calldataload\n        /* \"#utility.yul\":1971:2004   */\n      tag_636\n        /* \"#utility.yul\":1930:1962   */\n      dup2\n        /* \"#utility.yul\":1971:2004   */\n      tag_617\n      jump\t// in\n    tag_636:\n        /* \"#utility.yul\":1631:2087   */\n      swap3\n      swap6\n        /* \"#utility.yul\":2023:2030   */\n      swap3\n      swap5\n      pop\n      pop\n      pop\n        /* \"#utility.yul\":2077:2079   */\n      0x40\n        /* \"#utility.yul\":2062:2080   */\n      swap2\n      swap1\n      swap2\n      add\n        /* \"#utility.yul\":2049:2081   */\n      calldataload\n      swap1\n        /* \"#utility.yul\":1631:2087   */\n      jump\t// out\n        /* \"#utility.yul\":2092:2272   */\n    tag_81:\n        /* \"#utility.yul\":2151:2157   */\n      0x00\n        /* \"#utility.yul\":2204:2206   */\n      0x20\n        /* \"#utility.yul\":2192:2201   */\n      dup3\n        /* \"#utility.yul\":2183:2190   */\n      dup5\n        /* \"#utility.yul\":2179:2202   */\n      sub\n        /* \"#utility.yul\":2175:2207   */\n      slt\n        /* \"#utility.yul\":2172:2224   */\n      iszero\n      tag_638\n      jumpi\n        /* \"#utility.yul\":2220:2221   */\n      0x00\n        /* \"#utility.yul\":2217:2218   */\n      dup1\n        /* \"#utility.yul\":2210:2222   */\n      revert\n        /* \"#utility.yul\":2172:2224   */\n    tag_638:\n      pop\n        /* \"#utility.yul\":2243:2266   */\n      calldataload\n      swap2\n        /* \"#utility.yul\":2092:2272   */\n      swap1\n      pop\n      jump\t// out\n        /* \"#utility.yul\":2466:2713   */\n    tag_92:\n        /* \"#utility.yul\":2525:2531   */\n      0x00\n        /* \"#utility.yul\":2578:2580   */\n      0x20\n        /* \"#utility.yul\":2566:2575   */\n      dup3\n        /* \"#utility.yul\":2557:2564   */\n      dup5\n        /* \"#utility.yul\":2553:2576   */\n      sub\n        /* \"#utility.yul\":2549:2581   */\n      slt\n        /* \"#utility.yul\":2546:2598   */\n      iszero\n      tag_641\n      jumpi\n        /* \"#utility.yul\":2594:2595   */\n      0x00\n        /* \"#utility.yul\":2591:2592   */\n      dup1\n        /* \"#utility.yul\":2584:2596   */\n      revert\n        /* \"#utility.yul\":2546:2598   */\n    tag_641:\n        /* \"#utility.yul\":2633:2642   */\n      dup2\n        /* \"#utility.yul\":2620:2643   */\n      calldataload\n        /* \"#utility.yul\":2652:2683   */\n      tag_226\n        /* \"#utility.yul\":2677:2682   */\n      dup2\n        /* \"#utility.yul\":2652:2683   */\n      tag_617\n      jump\t// in\n        /* \"#utility.yul\":2718:2878   */\n    tag_618:\n        /* \"#utility.yul\":2783:2803   */\n      dup1\n      calldataload\n        /* \"#utility.yul\":2839:2852   */\n      dup1\n      iszero\n        /* \"#utility.yul\":2832:2853   */\n      iszero\n        /* \"#utility.yul\":2822:2854   */\n      dup2\n      eq\n        /* \"#utility.yul\":2812:2872   */\n      tag_644\n      jumpi\n        /* \"#utility.yul\":2868:2869   */\n      0x00\n        /* \"#utility.yul\":2865:2866   */\n      dup1\n        /* \"#utility.yul\":2858:2870   */\n      revert\n        /* \"#utility.yul\":2812:2872   */\n    tag_644:\n        /* \"#utility.yul\":2718:2878   */\n      swap2\n      swap1\n      pop\n      jump\t// out\n        /* \"#utility.yul\":2883:3131   */\n    tag_110:\n        /* \"#utility.yul\":2948:2954   */\n      0x00\n        /* \"#utility.yul\":2956:2962   */\n      dup1\n        /* \"#utility.yul\":3009:3011   */\n      0x40\n        /* \"#utility.yul\":2997:3006   */\n      dup4\n        /* \"#utility.yul\":2988:2995   */\n      dup6\n        /* \"#utility.yul\":2984:3007   */\n      sub\n        /* \"#utility.yul\":2980:3012   */\n      slt\n        /* \"#utility.yul\":2977:3029   */\n      iszero\n      tag_646\n      jumpi\n        /* \"#utility.yul\":3025:3026   */\n      0x00\n        /* \"#utility.yul\":3022:3023   */\n      dup1\n        /* \"#utility.yul\":3015:3027   */\n      revert\n        /* \"#utility.yul\":2977:3029   */\n    tag_646:\n        /* \"#utility.yul\":3061:3070   */\n      dup3\n        /* \"#utility.yul\":3048:3071   */\n      calldataload\n        /* \"#utility.yul\":3038:3071   */\n      swap2\n      pop\n        /* \"#utility.yul\":3090:3125   */\n      tag_647\n        /* \"#utility.yul\":3121:3123   */\n      0x20\n        /* \"#utility.yul\":3110:3119   */\n      dup5\n        /* \"#utility.yul\":3106:3124   */\n      add\n        /* \"#utility.yul\":3090:3125   */\n      tag_618\n      jump\t// in\n    tag_647:\n        /* \"#utility.yul\":3080:3125   */\n      swap1\n      pop\n        /* \"#utility.yul\":2883:3131   */\n      swap3\n      pop\n      swap3\n      swap1\n      pop\n      jump\t// out\n        /* \"#utility.yul\":3344:3524   */\n    tag_180:\n        /* \"#utility.yul\":3400:3406   */\n      0x00\n        /* \"#utility.yul\":3453:3455   */\n      0x20\n        /* \"#utility.yul\":3441:3450   */\n      dup3\n        /* \"#utility.yul\":3432:3439   */\n      dup5\n        /* \"#utility.yul\":3428:3451   */\n      sub\n        /* \"#utility.yul\":3424:3456   */\n      slt\n        /* \"#utility.yul\":3421:3473   */\n      iszero\n      tag_650\n      jumpi\n        /* \"#utility.yul\":3469:3470   */\n      0x00\n        /* \"#utility.yul\":3466:3467   */\n      dup1\n        /* \"#utility.yul\":3459:3471   */\n      revert\n        /* \"#utility.yul\":3421:3473   */\n    tag_650:\n        /* \"#utility.yul\":3492:3518   */\n      tag_226\n        /* \"#utility.yul\":3508:3517   */\n      dup3\n        /* \"#utility.yul\":3492:3518   */\n      tag_618\n      jump\t// in\n        /* \"#utility.yul\":3529:3917   */\n    tag_193:\n        /* \"#utility.yul\":3597:3603   */\n      0x00\n        /* \"#utility.yul\":3605:3611   */\n      dup1\n        /* \"#utility.yul\":3658:3660   */\n      0x40\n        /* \"#utility.yul\":3646:3655   */\n      dup4\n        /* \"#utility.yul\":3637:3644   */\n      dup6\n        /* \"#utility.yul\":3633:3656   */\n      sub\n        /* \"#utility.yul\":3629:3661   */\n      slt\n        /* \"#utility.yul\":3626:3678   */\n      iszero\n      tag_653\n      jumpi\n        /* \"#utility.yul\":3674:3675   */\n      0x00\n        /* \"#utility.yul\":3671:3672   */\n      dup1\n        /* \"#utility.yul\":3664:3676   */\n      revert\n        /* \"#utility.yul\":3626:3678   */\n    tag_653:\n        /* \"#utility.yul\":3713:3722   */\n      dup3\n        /* \"#utility.yul\":3700:3723   */\n      calldataload\n        /* \"#utility.yul\":3732:3763   */\n      tag_654\n        /* \"#utility.yul\":3757:3762   */\n      dup2\n        /* \"#utility.yul\":3732:3763   */\n      tag_617\n      jump\t// in\n    tag_654:\n        /* \"#utility.yul\":3782:3787   */\n      swap2\n      pop\n        /* \"#utility.yul\":3839:3841   */\n      0x20\n        /* \"#utility.yul\":3824:3842   */\n      dup4\n      add\n        /* \"#utility.yul\":3811:3843   */\n      calldataload\n        /* \"#utility.yul\":3852:3885   */\n      tag_655\n        /* \"#utility.yul\":3811:3843   */\n      dup2\n        /* \"#utility.yul\":3852:3885   */\n      tag_617\n      jump\t// in\n    tag_655:\n        /* \"#utility.yul\":3904:3911   */\n      dup1\n        /* \"#utility.yul\":3894:3911   */\n      swap2\n      pop\n      pop\n        /* \"#utility.yul\":3529:3917   */\n      swap3\n      pop\n      swap3\n      swap1\n      pop\n      jump\t// out\n        /* \"#utility.yul\":3922:4049   */\n    tag_619:\n        /* \"#utility.yul\":3983:3993   */\n      0x4e487b71\n        /* \"#utility.yul\":3978:3981   */\n      0xe0\n        /* \"#utility.yul\":3974:3994   */\n      shl\n        /* \"#utility.yul\":3971:3972   */\n      0x00\n        /* \"#utility.yul\":3964:3995   */\n      mstore\n        /* \"#utility.yul\":4014:4018   */\n      0x11\n        /* \"#utility.yul\":4011:4012   */\n      0x04\n        /* \"#utility.yul\":4004:4019   */\n      mstore\n        /* \"#utility.yul\":4038:4042   */\n      0x24\n        /* \"#utility.yul\":4035:4036   */\n      0x00\n        /* \"#utility.yul\":4028:4043   */\n      revert\n        /* \"#utility.yul\":4054:4182   */\n    tag_219:\n        /* \"#utility.yul\":4121:4130   */\n      dup2\n      dup2\n      sub\n        /* \"#utility.yul\":4142:4153   */\n      dup2\n      dup2\n      gt\n        /* \"#utility.yul\":4139:4176   */\n      iszero\n      tag_205\n      jumpi\n        /* \"#utility.yul\":4156:4174   */\n      tag_205\n      tag_619\n      jump\t// in\n        /* \"#utility.yul\":4598:4815   */\n    tag_227:\n        /* \"#utility.yul\":4638:4639   */\n      0x00\n        /* \"#utility.yul\":4664:4665   */\n      dup3\n        /* \"#utility.yul\":4654:4786   */\n      tag_662\n      jumpi\n        /* \"#utility.yul\":4708:4718   */\n      0x4e487b71\n        /* \"#utility.yul\":4703:4706   */\n      0xe0\n        /* \"#utility.yul\":4699:4719   */\n      shl\n        /* \"#utility.yul\":4696:4697   */\n      0x00\n        /* \"#utility.yul\":4689:4720   */\n      mstore\n        /* \"#utility.yul\":4743:4747   */\n      0x12\n        /* \"#utility.yul\":4740:4741   */\n      0x04\n        /* \"#utility.yul\":4733:4748   */\n      mstore\n        /* \"#utility.yul\":4771:4775   */\n      0x24\n        /* \"#utility.yul\":4768:4769   */\n      0x00\n        /* \"#utility.yul\":4761:4776   */\n      revert\n        /* \"#utility.yul\":4654:4786   */\n    tag_662:\n      pop\n        /* \"#utility.yul\":4800:4809   */\n      div\n      swap1\n        /* \"#utility.yul\":4598:4815   */\n      jump\t// out\n        /* \"#utility.yul\":4820:5176   */\n    tag_233:\n        /* \"#utility.yul\":5022:5024   */\n      0x20\n        /* \"#utility.yul\":5004:5025   */\n      dup1\n      dup3\n      mstore\n        /* \"#utility.yul\":5041:5059   */\n      dup2\n      dup2\n      add\n        /* \"#utility.yul\":5034:5064   */\n      mstore\n        /* \"#utility.yul\":5100:5134   */\n      0x4f776e61626c653a2063616c6c6572206973206e6f7420746865206f776e6572\n        /* \"#utility.yul\":5095:5097   */\n      0x40\n        /* \"#utility.yul\":5080:5098   */\n      dup3\n      add\n        /* \"#utility.yul\":5073:5135   */\n      mstore\n        /* \"#utility.yul\":5167:5169   */\n      0x60\n        /* \"#utility.yul\":5152:5170   */\n      add\n      swap1\n        /* \"#utility.yul\":4820:5176   */\n      jump\t// out\n        /* \"#utility.yul\":5537:5664   */\n    tag_243:\n        /* \"#utility.yul\":5598:5608   */\n      0x4e487b71\n        /* \"#utility.yul\":5593:5596   */\n      0xe0\n        /* \"#utility.yul\":5589:5609   */\n      shl\n        /* \"#utility.yul\":5586:5587   */\n      0x00\n        /* \"#utility.yul\":5579:5610   */\n      mstore\n        /* \"#utility.yul\":5629:5633   */\n      0x32\n        /* \"#utility.yul\":5626:5627   */\n      0x04\n        /* \"#utility.yul\":5619:5634   */\n      mstore\n        /* \"#utility.yul\":5653:5657   */\n      0x24\n        /* \"#utility.yul\":5650:5651   */\n      0x00\n        /* \"#utility.yul\":5643:5658   */\n      revert\n        /* \"#utility.yul\":5669:5796   */\n    tag_255:\n        /* \"#utility.yul\":5730:5740   */\n      0x4e487b71\n        /* \"#utility.yul\":5725:5728   */\n      0xe0\n        /* \"#utility.yul\":5721:5741   */\n      shl\n        /* \"#utility.yul\":5718:5719   */\n      0x00\n        /* \"#utility.yul\":5711:5742   */\n      mstore\n        /* \"#utility.yul\":5761:5765   */\n      0x31\n        /* \"#utility.yul\":5758:5759   */\n      0x04\n        /* \"#utility.yul\":5751:5766   */\n      mstore\n        /* \"#utility.yul\":5785:5789   */\n      0x24\n        /* \"#utility.yul\":5782:5783   */\n      0x00\n        /* \"#utility.yul\":5775:5790   */\n      revert\n        /* \"#utility.yul\":5801:5926   */\n    tag_262:\n        /* \"#utility.yul\":5866:5875   */\n      dup1\n      dup3\n      add\n        /* \"#utility.yul\":5887:5897   */\n      dup1\n      dup3\n      gt\n        /* \"#utility.yul\":5884:5920   */\n      iszero\n      tag_205\n      jumpi\n        /* \"#utility.yul\":5900:5918   */\n      tag_205\n      tag_619\n      jump\t// in\n        /* \"#utility.yul\":12372:12540   */\n    tag_499:\n        /* \"#utility.yul\":12445:12454   */\n      dup1\n      dup3\n      mul\n        /* \"#utility.yul\":12476:12485   */\n      dup2\n      iszero\n        /* \"#utility.yul\":12493:12508   */\n      dup3\n      dup3\n      div\n        /* \"#utility.yul\":12487:12509   */\n      dup5\n      eq\n        /* \"#utility.yul\":12473:12510   */\n      or\n        /* \"#utility.yul\":12463:12534   */\n      tag_205\n      jumpi\n        /* \"#utility.yul\":12514:12532   */\n      tag_205\n      tag_619\n      jump\t// in\n        /* \"#utility.yul\":12677:12928   */\n    tag_518:\n        /* \"#utility.yul\":12747:12753   */\n      0x00\n        /* \"#utility.yul\":12800:12802   */\n      0x20\n        /* \"#utility.yul\":12788:12797   */\n      dup3\n        /* \"#utility.yul\":12779:12786   */\n      dup5\n        /* \"#utility.yul\":12775:12798   */\n      sub\n        /* \"#utility.yul\":12771:12803   */\n      slt\n        /* \"#utility.yul\":12768:12820   */\n      iszero\n      tag_692\n      jumpi\n        /* \"#utility.yul\":12816:12817   */\n      0x00\n        /* \"#utility.yul\":12813:12814   */\n      dup1\n        /* \"#utility.yul\":12806:12818   */\n      revert\n        /* \"#utility.yul\":12768:12820   */\n    tag_692:\n        /* \"#utility.yul\":12848:12857   */\n      dup2\n        /* \"#utility.yul\":12842:12858   */\n      mload\n        /* \"#utility.yul\":12867:12898   */\n      tag_226\n        /* \"#utility.yul\":12892:12897   */\n      dup2\n        /* \"#utility.yul\":12867:12898   */\n      tag_617\n      jump\t// in\n        /* \"#utility.yul\":12933:13913   */\n    tag_523:\n        /* \"#utility.yul\":13195:13199   */\n      0x00\n        /* \"#utility.yul\":13243:13246   */\n      0xa0\n        /* \"#utility.yul\":13232:13241   */\n      dup3\n        /* \"#utility.yul\":13228:13247   */\n      add\n        /* \"#utility.yul\":13274:13280   */\n      dup8\n        /* \"#utility.yul\":13263:13272   */\n      dup4\n        /* \"#utility.yul\":13256:13281   */\n      mstore\n        /* \"#utility.yul\":13300:13302   */\n      0x20\n        /* \"#utility.yul\":13338:13344   */\n      dup8\n        /* \"#utility.yul\":13333:13335   */\n      0x20\n        /* \"#utility.yul\":13322:13331   */\n      dup6\n        /* \"#utility.yul\":13318:13336   */\n      add\n        /* \"#utility.yul\":13311:13345   */\n      mstore\n        /* \"#utility.yul\":13381:13384   */\n      0xa0\n        /* \"#utility.yul\":13376:13378   */\n      0x40\n        /* \"#utility.yul\":13365:13374   */\n      dup6\n        /* \"#utility.yul\":13361:13379   */\n      add\n        /* \"#utility.yul\":13354:13385   */\n      mstore\n        /* \"#utility.yul\":13405:13411   */\n      dup2\n        /* \"#utility.yul\":13440:13446   */\n      dup8\n        /* \"#utility.yul\":13434:13447   */\n      mload\n        /* \"#utility.yul\":13471:13477   */\n      dup1\n        /* \"#utility.yul\":13463:13469   */\n      dup5\n        /* \"#utility.yul\":13456:13478   */\n      mstore\n        /* \"#utility.yul\":13509:13512   */\n      0xc0\n        /* \"#utility.yul\":13498:13507   */\n      dup7\n        /* \"#utility.yul\":13494:13513   */\n      add\n        /* \"#utility.yul\":13487:13513   */\n      swap2\n      pop\n        /* \"#utility.yul\":13548:13550   */\n      0x20\n        /* \"#utility.yul\":13540:13546   */\n      dup10\n        /* \"#utility.yul\":13536:13551   */\n      add\n        /* \"#utility.yul\":13522:13551   */\n      swap4\n      pop\n        /* \"#utility.yul\":13569:13570   */\n      0x00\n        /* \"#utility.yul\":13579:13774   */\n    tag_695:\n        /* \"#utility.yul\":13593:13599   */\n      dup2\n        /* \"#utility.yul\":13590:13591   */\n      dup2\n        /* \"#utility.yul\":13587:13600   */\n      lt\n        /* \"#utility.yul\":13579:13774   */\n      iszero\n      tag_697\n      jumpi\n        /* \"#utility.yul\":13658:13671   */\n      dup5\n      mload\n      sub(shl(0xa0, 0x01), 0x01)\n        /* \"#utility.yul\":13654:13693   */\n      and\n        /* \"#utility.yul\":13642:13694   */\n      dup4\n      mstore\n        /* \"#utility.yul\":13749:13764   */\n      swap4\n      dup4\n      add\n      swap4\n        /* \"#utility.yul\":13714:13726   */\n      swap2\n      dup4\n      add\n      swap2\n        /* \"#utility.yul\":13690:13691   */\n      0x01\n        /* \"#utility.yul\":13608:13617   */\n      add\n        /* \"#utility.yul\":13579:13774   */\n      jump(tag_695)\n    tag_697:\n      pop\n      pop\n      sub(shl(0xa0, 0x01), 0x01)\n        /* \"#utility.yul\":13830:13862   */\n      swap7\n      swap1\n      swap7\n      and\n        /* \"#utility.yul\":13825:13827   */\n      0x60\n        /* \"#utility.yul\":13810:13828   */\n      dup6\n      add\n        /* \"#utility.yul\":13803:13863   */\n      mstore\n      pop\n      pop\n      pop\n        /* \"#utility.yul\":13894:13897   */\n      0x80\n        /* \"#utility.yul\":13879:13898   */\n      add\n        /* \"#utility.yul\":13872:13907   */\n      mstore\n        /* \"#utility.yul\":13791:13794   */\n      swap4\n        /* \"#utility.yul\":12933:13913   */\n      swap3\n      pop\n      pop\n      pop\n      jump\t// out\n        /* \"#utility.yul\":14530:14836   */\n    tag_535:\n        /* \"#utility.yul\":14618:14624   */\n      0x00\n        /* \"#utility.yul\":14626:14632   */\n      dup1\n        /* \"#utility.yul\":14634:14640   */\n      0x00\n        /* \"#utility.yul\":14687:14689   */\n      0x60\n        /* \"#utility.yul\":14675:14684   */\n      dup5\n        /* \"#utility.yul\":14666:14673   */\n      dup7\n        /* \"#utility.yul\":14662:14685   */\n      sub\n        /* \"#utility.yul\":14658:14690   */\n      slt\n        /* \"#utility.yul\":14655:14707   */\n      iszero\n      tag_700\n      jumpi\n        /* \"#utility.yul\":14703:14704   */\n      0x00\n        /* \"#utility.yul\":14700:14701   */\n      dup1\n        /* \"#utility.yul\":14693:14705   */\n      revert\n        /* \"#utility.yul\":14655:14707   */\n    tag_700:\n        /* \"#utility.yul\":14732:14741   */\n      dup4\n        /* \"#utility.yul\":14726:14742   */\n      mload\n        /* \"#utility.yul\":14716:14742   */\n      swap3\n      pop\n        /* \"#utility.yul\":14782:14784   */\n      0x20\n        /* \"#utility.yul\":14771:14780   */\n      dup5\n        /* \"#utility.yul\":14767:14785   */\n      add\n        /* \"#utility.yul\":14761:14786   */\n      mload\n        /* \"#utility.yul\":14751:14786   */\n      swap2\n      pop\n        /* \"#utility.yul\":14826:14828   */\n      0x40\n        /* \"#utility.yul\":14815:14824   */\n      dup5\n        /* \"#utility.yul\":14811:14829   */\n      add\n        /* \"#utility.yul\":14805:14830   */\n      mload\n        /* \"#utility.yul\":14795:14830   */\n      swap1\n      pop\n        /* \"#utility.yul\":14530:14836   */\n      swap3\n      pop\n      swap3\n      pop\n      swap3\n      jump\t// out\n\n    auxdata: 0xa264697066735822122076a0d497a4662a28cd202f869e0c99435286ef796b046eab347edd0608debfe464736f6c63430008160033\n}\n",
				"bytecode": {
					"linkReferences": {},
					"object": "60c06040526a4a723dc6b40b8a9a000000600981905562000022905f196200030d565b6200002f905f196200032d565b600a55600c805461ff00191661010017905568056bc75e2d63100000600d553480156200005a575f80fd5b5060405162002b3538038062002b358339810160408190526200007d9162000353565b5f80546001600160a01b031916339081178255604051909182917f8be0079c531659141344cd1fd0a4f28419497f9722a3daafe3b4186f6b6457e0908290a350600a54335f9081526003602090815260409182902092909255601280546001600160a01b0319166001600160a01b038516179055805163c45a015560e01b815290517310ed43c718714eb63d5aa57b78b54704e256024e92839263c45a015592600480830193928290030181865afa1580156200013c573d5f803e3d5ffd5b505050506040513d601f19601f8201168201806040525081019062000162919062000353565b6001600160a01b031663c9c6539630836001600160a01b031663ad5c46486040518163ffffffff1660e01b8152600401602060405180830381865afa158015620001ae573d5f803e3d5ffd5b505050506040513d601f19601f82011682018060405250810190620001d4919062000353565b6040516001600160e01b031960e085901b1681526001600160a01b039283166004820152911660248201526044016020604051808303815f875af11580156200021f573d5f803e3d5ffd5b505050506040513d601f19601f8201168201806040525081019062000245919062000353565b6001600160a01b0390811660a0528116608052600160065f6200026f5f546001600160a01b031690565b6001600160a01b0316815260208082019290925260409081015f908120805494151560ff199586161790553081526006909252902080549091166001179055620002b63390565b6001600160a01b03165f6001600160a01b03167fddf252ad1be2c89b69c2b068fc378daa952ba7f163c4a11628f55a4df523b3ef600954604051620002fd91815260200190565b60405180910390a3505062000382565b5f826200032857634e487b7160e01b5f52601260045260245ffd5b500690565b818103818111156200034d57634e487b7160e01b5f52601160045260245ffd5b92915050565b5f6020828403121562000364575f80fd5b81516001600160a01b03811681146200037b575f80fd5b9392505050565b60805160a051612760620003d55f395f81816103f5015281816115ab015261177301525f81816102a001528181611c4b01528181611d0201528181611d3e01528181611daa0152611dd101526127605ff3fe6080604052600436106101f4575f3560e01c806355ce3b9a11610108578063a69df4b51161009d578063d7d7442f1161006d578063d7d7442f14610601578063dd46706414610620578063dd62ed3e1461063f578063ea2f0b3714610683578063f2fde38b146106a2575f80fd5b8063a69df4b51461059b578063a9059cbb146105af578063b6c52324146105ce578063c49b9a80146105e2575f80fd5b806388f82020116100d857806388f82020146104fc5780638da5cb5b1461053357806395d89b411461054f578063a457c2d71461057c575f80fd5b806355ce3b9a1461048b578063664a1ad6146104aa57806370a08231146104c9578063715018a6146104e8575f80fd5b80633685d419116101895780634549b039116101595780634549b039146103c557806349bd5a5e146103e45780634a74bb021461041757806352390c02146104355780635342acb414610454575f80fd5b80633685d4191461034757806339509351146103685780633bd5d17314610387578063437823ec146103a6575f80fd5b806318160ddd116101c457806318160ddd146102da57806323b872dd146102ee5780632d8381191461030d578063313ce5671461032c575f80fd5b806306fdde03146101ff578063095ea7b31461024257806313114a9d146102715780631694505e1461028f575f80fd5b366101fb57005b5f80fd5b34801561020a575f80fd5b5060408051808201909152600981526831b0ba31b431b7b4b760b91b60208201525b604051610239919061241b565b60405180910390f35b34801561024d575f80fd5b5061026161025c36600461247e565b6106c1565b6040519015158152602001610239565b34801561027c575f80fd5b50600b545b604051908152602001610239565b34801561029a575f80fd5b506102c27f000000000000000000000000000000000000000000000000000000000000000081565b6040516001600160a01b039091168152602001610239565b3480156102e5575f80fd5b50600954610281565b3480156102f9575f80fd5b506102616103083660046124a8565b6106d7565b348015610318575f80fd5b506102816103273660046124e6565b610727565b348015610337575f80fd5b5060405160128152602001610239565b348015610352575f80fd5b506103666103613660046124fd565b6107ae565b005b348015610373575f80fd5b5061026161038236600461247e565b610952565b348015610392575f80fd5b506103666103a13660046124e6565b610988565b3480156103b1575f80fd5b506103666103c03660046124fd565b610a6c565b3480156103d0575f80fd5b506102816103df36600461252c565b610b20565b3480156103ef575f80fd5b506102c27f000000000000000000000000000000000000000000000000000000000000000081565b348015610422575f80fd5b50600c5461026190610100900460ff1681565b348015610440575f80fd5b5061036661044f3660046124fd565b610ba0565b34801561045f575f80fd5b5061026161046e3660046124fd565b6001600160a01b03165f9081526006602052604090205460ff1690565b348015610496575f80fd5b506103666104a53660046124fd565b610ced565b3480156104b5575f80fd5b506012546102c2906001600160a01b031681565b3480156104d4575f80fd5b506102816104e33660046124fd565b610dc1565b3480156104f3575f80fd5b50610366610e1d565b348015610507575f80fd5b506102616105163660046124fd565b6001600160a01b03165f9081526007602052604090205460ff1690565b34801561053e575f80fd5b505f546001600160a01b03166102c2565b34801561055a575f80fd5b5060408051808201909152600581526408682a886960db1b602082015261022c565b348015610587575f80fd5b5061026161059636600461247e565b610e8e565b3480156105a6575f80fd5b50610366610ec4565b3480156105ba575f80fd5b506102616105c936600461247e565b610fda565b3480156105d9575f80fd5b50600254610281565b3480156105ed575f80fd5b506103666105fc366004612556565b610fe6565b34801561060c575f80fd5b5061036661061b3660046124e6565b611058565b34801561062b575f80fd5b5061036661063a3660046124e6565b6110fb565b34801561064a575f80fd5b5061028161065936600461256f565b6001600160a01b039182165f90815260056020908152604080832093909416825291909152205490565b34801561068e575f80fd5b5061036661069d3660046124fd565b6111a4565b3480156106ad575f80fd5b506103666106bc3660046124fd565b61124d565b5f6106cd338484611334565b5060015b92915050565b5f6106e3848484611457565b6001600160a01b0384165f9081526005602090815260408083203380855292529091205461071d9186916107189086906125ba565b611334565b5060019392505050565b5f600a548211156107925760405162461bcd60e51b815260206004820152602a60248201527f416d6f756e74206d757374206265206c657373207468616e20746f74616c207260448201526965666c656374696f6e7360b01b60648201526084015b60405180910390fd5b5f61079b611672565b90506107a781846125cd565b9392505050565b5f546001600160a01b031633146107d75760405162461bcd60e51b8152600401610789906125ec565b6001600160a01b0381165f9081526007602052604090205460ff1661083e5760405162461bcd60e51b815260206004820152601b60248201527f4163636f756e7420697320616c726561647920496e636c7564656400000000006044820152606401610789565b5f5b60085481101561094e57816001600160a01b03166008828154811061086757610867612621565b5f918252602090912001546001600160a01b0316036109465760088054610890906001906125ba565b815481106108a0576108a0612621565b5f91825260209091200154600880546001600160a01b0390921691839081106108cb576108cb612621565b5f91825260208083209190910180546001600160a01b0319166001600160a01b039485161790559184168152600482526040808220829055600790925220805460ff19169055600880548061092257610922612635565b5f8281526020902081015f1990810180546001600160a01b03191690550190555050565b600101610840565b5050565b335f8181526005602090815260408083206001600160a01b038716845290915281205490916106cd918590610718908690612649565b335f8181526007602052604090205460ff16156109fc5760405162461bcd60e51b815260206004820152602c60248201527f4578636c75646564206164647265737365732063616e6e6f742063616c6c207460448201526b3434b990333ab731ba34b7b760a11b6064820152608401610789565b5f610a0683611693565b506001600160a01b0383165f90815260036020526040902054909150610a2d9082906125ba565b6001600160a01b0383165f90815260036020526040902055600a54610a539082906125ba565b600a55600b54610a64908490612649565b600b55505050565b5f546001600160a01b03163314610a955760405162461bcd60e51b8152600401610789906125ec565b6001600160a01b0381165f9081526006602052604090205460ff1615610afd5760405162461bcd60e51b815260206004820152601860248201527f416c72656179206578636c756465642066726f6d2066656500000000000000006044820152606401610789565b6001600160a01b03165f908152600660205260409020805460ff19166001179055565b5f600954831115610b735760405162461bcd60e51b815260206004820152601f60248201527f416d6f756e74206d757374206265206c657373207468616e20737570706c79006044820152606401610789565b81610b8c575f610b8284611693565b5091506106d19050565b5f610b9684611693565b92506106d1915050565b5f546001600160a01b03163314610bc95760405162461bcd60e51b8152600401610789906125ec565b6001600160a01b0381165f9081526007602052604090205460ff1615610c315760405162461bcd60e51b815260206004820152601b60248201527f4163636f756e7420697320616c7265616479206578636c7564656400000000006044820152606401610789565b6001600160a01b0381165f9081526003602052604090205415610c88576001600160a01b0381165f90815260036020526040902054610c6f90610727565b6001600160a01b0382165f908152600460205260409020555b6001600160a01b03165f818152600760205260408120805460ff191660019081179091556008805491820181559091527ff3f7a9fe364faab93b216da50a3214154f22a0a2b415b23a84c8169e8b636ee30180546001600160a01b0319169091179055565b5f546001600160a01b03163314610d165760405162461bcd60e51b8152600401610789906125ec565b6001600160a01b038116610d6c5760405162461bcd60e51b815260206004820152601b60248201527f46756e642077616c6c65742063616e206e6f74206265207a65726f00000000006044820152606401610789565b601280546001600160a01b0319166001600160a01b0383169081179091556040519081527f4cb53cdee53f2d4e4e60769add356f6cbd911505806fd6c1eee38f5a6b8a2574906020015b60405180910390a150565b6001600160a01b0381165f9081526007602052604081205460ff1615610dfc57506001600160a01b03165f9081526004602052604090205490565b6001600160a01b0382165f908152600360205260409020546106d190610727565b5f546001600160a01b03163314610e465760405162461bcd60e51b8152600401610789906125ec565b5f80546040516001600160a01b03909116907f8be0079c531659141344cd1fd0a4f28419497f9722a3daafe3b4186f6b6457e0908390a35f80546001600160a01b0319169055565b335f8181526005602090815260408083206001600160a01b038716845290915281205490916106cd9185906107189086906125ba565b6001546001600160a01b03163314610f2a5760405162461bcd60e51b8152602060048201526024808201527f596f7520646f206e6f742068617665207065726d697373696f6e20746f20756e6044820152636c6f636b60e01b6064820152608401610789565b6002544211610f7b5760405162461bcd60e51b815260206004820152601f60248201527f436f6e7472616374206973206c6f636b656420756e74696c20372064617973006044820152606401610789565b6001545f80546040516001600160a01b0393841693909116917f8be0079c531659141344cd1fd0a4f28419497f9722a3daafe3b4186f6b6457e091a36001545f80546001600160a01b0319166001600160a01b03909216919091179055565b5f6106cd338484611457565b5f546001600160a01b0316331461100f5760405162461bcd60e51b8152600401610789906125ec565b600c80548215156101000261ff00199091161790556040517f53726dfcaf90650aa7eb35524f4d3220f07413c8d6cb404cc8c18bf5591bc15990610db690831515815260200190565b5f546001600160a01b031633146110815760405162461bcd60e51b8152600401610789906125ec565b5f81116110c65760405162461bcd60e51b8152602060048201526013602482015272185b5bdd5b9d081a5cc81b9bdd081d985b1a59606a1b6044820152606401610789565b600d8190556040518181527fadfa8ecb21b6962ebcd0adbd9ab985b7b4c5b5eb3b0dead683171565c7bfe17190602001610db6565b5f546001600160a01b031633146111245760405162461bcd60e51b8152600401610789906125ec565b5f8054600180546001600160a01b03199081166001600160a01b038416179091551690556111528142612649565b60028190555f8054604080516001600160a01b0390921682526020820192909252908101919091527f989eaa915cbb416ea3d6f9a63b1a3de51770c7674b11fe21ecdf76b4e1d1391090606001610db6565b5f546001600160a01b031633146111cd5760405162461bcd60e51b8152600401610789906125ec565b6001600160a01b0381165f9081526006602052604090205460ff1661122d5760405162461bcd60e51b8152602060048201526016602482015275416c7265617920696e636c7564656420696e2066656560501b6044820152606401610789565b6001600160a01b03165f908152600660205260409020805460ff19169055565b5f546001600160a01b031633146112765760405162461bcd60e51b8152600401610789906125ec565b6001600160a01b0381166112db5760405162461bcd60e51b815260206004820152602660248201527f4f776e61626c653a206e6577206f776e657220697320746865207a65726f206160448201526564647265737360d01b6064820152608401610789565b5f80546040516001600160a01b03808516939216917f8be0079c531659141344cd1fd0a4f28419497f9722a3daafe3b4186f6b6457e091a35f80546001600160a01b0319166001600160a01b0392909216919091179055565b6001600160a01b0383166113965760405162461bcd60e51b8152602060048201526024808201527f45524332303a20617070726f76652066726f6d20746865207a65726f206164646044820152637265737360e01b6064820152608401610789565b6001600160a01b0382166113f75760405162461bcd60e51b815260206004820152602260248201527f45524332303a20617070726f766520746f20746865207a65726f206164647265604482015261737360f01b6064820152608401610789565b6001600160a01b038381165f8181526005602090815260408083209487168084529482529182902085905590518481527f8c5be1e5ebec7d5bd14f71427d1e84f3dd0314c0f7b2291e5b200ac8c7c3b925910160405180910390a3505050565b6001600160a01b0383166114bb5760405162461bcd60e51b815260206004820152602560248201527f45524332303a207472616e736665722066726f6d20746865207a65726f206164604482015264647265737360d81b6064820152608401610789565b6001600160a01b03821661151d5760405162461bcd60e51b815260206004820152602360248201527f45524332303a207472616e7366657220746f20746865207a65726f206164647260448201526265737360e81b6064820152608401610789565b5f811161157e5760405162461bcd60e51b815260206004820152602960248201527f5472616e7366657220616d6f756e74206d7573742062652067726561746572206044820152687468616e207a65726f60b81b6064820152608401610789565b5f61158830610dc1565b600d54909150811080159081906115a25750600c5460ff16155b80156115e057507f00000000000000000000000000000000000000000000000000000000000000006001600160a01b0316856001600160a01b031614155b80156115f35750600c54610100900460ff165b1561160657600d549150611606826116cb565b6001600160a01b0385165f9081526006602052604090205460019060ff168061164657506001600160a01b0385165f9081526006602052604090205460ff165b1561164e57505f5b801561165e5761165e8686611766565b61166a86868684611809565b505050505050565b5f805f61167d611978565b909250905061168c81836125cd565b9250505090565b5f805f805f806116a287611ae8565b9450945094509450505f806116ba8987878787611b5f565b50909a909950975050505050505050565b600c805460ff191660011790555f6116e46002836125cd565b90505f6116f182846125ba565b9050476116fd83611bf6565b5f61170882476125ba565b90506117148382611da4565b60408051858152602081018390529081018490527f17bbfb9a6069321b6ded73bd96327c9e6b7212a5cd51ff219cd61370acafb5619060600160405180910390a15050600c805460ff19169055505050565b6001600160a01b038281167f0000000000000000000000000000000000000000000000000000000000000000821690811491831614600180805f600282818189156117c457600e889055600f879055601086905560118590556117fb565b88156117e357600e849055600f839055601082905560118190556117fb565b6117fb5f600e819055600f8190556010819055601155565b505050505050505050505050565b80611826576118265f600e819055600f8190556010819055601155565b6001600160a01b0384165f9081526007602052604090205460ff16801561186557506001600160a01b0383165f9081526007602052604090205460ff16155b1561187a57611875848484611ea6565b611972565b6001600160a01b0384165f9081526007602052604090205460ff161580156118b957506001600160a01b0383165f9081526007602052604090205460ff165b156118c957611875848484611fe6565b6001600160a01b0384165f9081526007602052604090205460ff1615801561190957506001600160a01b0383165f9081526007602052604090205460ff16155b156119195761187584848461209e565b6001600160a01b0384165f9081526007602052604090205460ff16801561195757506001600160a01b0383165f9081526007602052604090205460ff165b15611967576118758484846120f1565b61197284848461209e565b50505050565b600a546009545f918291825b600854811015611ab7578260035f600884815481106119a5576119a5612621565b5f9182526020808320909101546001600160a01b031683528201929092526040019020541180611a0d57508160045f600884815481106119e7576119e7612621565b5f9182526020808320909101546001600160a01b03168352820192909252604001902054115b15611a2357600a54600954945094505050509091565b60035f60088381548110611a3957611a39612621565b5f9182526020808320909101546001600160a01b03168352820192909252604001902054611a6790846125ba565b925060045f60088381548110611a7f57611a7f612621565b5f9182526020808320909101546001600160a01b03168352820192909252604001902054611aad90836125ba565b9150600101611984565b50600954600a54611ac891906125cd565b821015611adf57600a546009549350935050509091565b90939092509050565b5f805f805f80611af787612173565b90505f611b038861218e565b90505f611b0f8961219f565b90505f611b1b8a6121b0565b90505f8183611b2a8688612649565b611b349190612649565b611b3e9190612649565b90505f611b4b828d6125ba565b9c959b509399509197509550919350505050565b5f805f80611b6b611672565b90505f611b78828b61265c565b90505f611b85838b61265c565b90505f611b92848a61265c565b90505f611b9f858a61265c565b90505f611bac868d61265c565b90505f8183611bbb8688612649565b611bc59190612649565b611bcf9190612649565b90505f611bdc82886125ba565b969a50959850939650505050505050955095509592505050565b6040805160028082526060820183525f9260208301908036833701905050905030815f81518110611c2957611c29612621565b60200260200101906001600160a01b031690816001600160a01b0316815250507f00000000000000000000000000000000000000000000000000000000000000006001600160a01b031663ad5c46486040518163ffffffff1660e01b8152600401602060405180830381865afa158015611ca5573d5f803e3d5ffd5b505050506040513d601f19601f82011682018060405250810190611cc99190612673565b81600181518110611cdc57611cdc612621565b60200260200101906001600160a01b031690816001600160a01b031681525050611d27307f000000000000000000000000000000000000000000000000000000000000000084611334565b60405163791ac94760e01b81526001600160a01b037f0000000000000000000000000000000000000000000000000000000000000000169063791ac94790611d7b9085905f9086903090429060040161268e565b5f604051808303815f87803b158015611d92575f80fd5b505af115801561166a573d5f803e3d5ffd5b611dcf307f000000000000000000000000000000000000000000000000000000000000000084611334565b7f00000000000000000000000000000000000000000000000000000000000000006001600160a01b031663f305d7198230855f80611e145f546001600160a01b031690565b60405160e088901b6001600160e01b03191681526001600160a01b03958616600482015260248101949094526044840192909252606483015290911660848201524260a482015260c40160606040518083038185885af1158015611e7a573d5f803e3d5ffd5b50505050506040513d601f19601f82011682018060405250810190611e9f91906126ff565b5050505050565b5f805f805f611eb4866121c1565b945094509450945094505f805f611ece8988888888611b5f565b6001600160a01b038e165f908152600460205260409020549295509093509150611ef9908a906125ba565b6001600160a01b038c165f90815260046020908152604080832093909355600390522054611f289084906125ba565b6001600160a01b03808d165f9081526003602052604080822093909355908c1681522054611f57908390612649565b6001600160a01b038b165f90815260036020526040902055611f78866121eb565b611f838188866122a4565b611f8c85612334565b896001600160a01b03168b6001600160a01b03167fddf252ad1be2c89b69c2b068fc378daa952ba7f163c4a11628f55a4df523b3ef8a604051611fd191815260200190565b60405180910390a35050505050505050505050565b5f805f805f611ff4866121c1565b945094509450945094505f805f61200e8988888888611b5f565b6001600160a01b038e165f9081526003602052604090205492955090935091506120399084906125ba565b6001600160a01b03808d165f90815260036020908152604080832094909455918d1681526004909152205461206f908990612649565b6001600160a01b038b165f90815260046020908152604080832093909355600390522054611f57908390612649565b5f805f805f6120ac866121c1565b945094509450945094505f805f6120c68988888888611b5f565b6001600160a01b038e165f908152600360205260409020549295509093509150611f289084906125ba565b5f805f805f6120ff866121c1565b945094509450945094505f805f6121198988888888611b5f565b6001600160a01b038e165f908152600460205260409020549295509093509150612144908a906125ba565b6001600160a01b038c165f908152600460209081526040808320939093556003905220546120399084906125ba565b5f6064600e5483612184919061265c565b6106d191906125cd565b5f606460105483612184919061265c565b5f6064600f5483612184919061265c565b5f606460115483612184919061265c565b5f805f805f805f805f806121d48b611ae8565b939f929e50909c509a509098509650505050505050565b5f6121f4611672565b90505f612201828461265c565b305f9081526003602052604090205490915061221e908290612649565b305f9081526003602090815260408083209390935560079052205460ff161561226b57305f9081526004602052604090205461225b908490612649565b305f908152600460205260409020555b6040518381527f3a8ab79f6d1537e459a1a8379f48a77e1ffd07dda4b16ea97074fdab5dd8bf34906020015b60405180910390a1505050565b5f6122ad611672565b90505f6122ba828461265c565b90508085600a546122cb91906125ba565b6122d591906125ba565b600a55600b546122e6908590612649565b600b556009546122f79084906125ba565b6009556040518481527f56b5df500587465b57d8ce799cc562a294f136b75a13718c574d9d36bd8280589060200160405180910390a15050505050565b5f61233d611672565b90505f61234a828461265c565b6012546001600160a01b03165f90815260036020526040902054909150612372908290612649565b601280546001600160a01b039081165f90815260036020908152604080832095909555925490911681526007909152205460ff16156123eb576012546001600160a01b03165f908152600460205260409020546123d0908490612649565b6012546001600160a01b03165f908152600460205260409020555b6040518381527f7a934c407238277f8cf36df7a2f4b5ef2eb3aa6190eeb615e32c02075a5730b090602001612297565b5f602080835283518060208501525f5b818110156124475785810183015185820160400152820161242b565b505f604082860101526040601f19601f8301168501019250505092915050565b6001600160a01b038116811461247b575f80fd5b50565b5f806040838503121561248f575f80fd5b823561249a81612467565b946020939093013593505050565b5f805f606084860312156124ba575f80fd5b83356124c581612467565b925060208401356124d581612467565b929592945050506040919091013590565b5f602082840312156124f6575f80fd5b5035919050565b5f6020828403121561250d575f80fd5b81356107a781612467565b80358015158114612527575f80fd5b919050565b5f806040838503121561253d575f80fd5b8235915061254d60208401612518565b90509250929050565b5f60208284031215612566575f80fd5b6107a782612518565b5f8060408385031215612580575f80fd5b823561258b81612467565b9150602083013561259b81612467565b809150509250929050565b634e487b7160e01b5f52601160045260245ffd5b818103818111156106d1576106d16125a6565b5f826125e757634e487b7160e01b5f52601260045260245ffd5b500490565b6020808252818101527f4f776e61626c653a2063616c6c6572206973206e6f7420746865206f776e6572604082015260600190565b634e487b7160e01b5f52603260045260245ffd5b634e487b7160e01b5f52603160045260245ffd5b808201808211156106d1576106d16125a6565b80820281158282048414176106d1576106d16125a6565b5f60208284031215612683575f80fd5b81516107a781612467565b5f60a08201878352602087602085015260a0604085015281875180845260c0860191506020890193505f5b818110156126de5784516001600160a01b0316835293830193918301916001016126b9565b50506001600160a01b03969096166060850152505050608001529392505050565b5f805f60608486031215612711575f80fd5b835192506020840151915060408401519050925092509256fea264697066735822122076a0d497a4662a28cd202f869e0c99435286ef796b046eab347edd0608debfe464736f6c63430008160033",
					"opcodes": "PUSH1 0xC0 PUSH1 0x40 MSTORE PUSH11 0x4A723DC6B40B8A9A000000 PUSH1 0x9 DUP2 SWAP1 SSTORE PUSH3 0x22 SWAP1 PUSH0 NOT PUSH3 0x30D JUMP JUMPDEST PUSH3 0x2F SWAP1 PUSH0 NOT PUSH3 0x32D JUMP JUMPDEST PUSH1 0xA SSTORE PUSH1 0xC DUP1 SLOAD PUSH2 0xFF00 NOT AND PUSH2 0x100 OR SWAP1 SSTORE PUSH9 0x56BC75E2D63100000 PUSH1 0xD SSTORE CALLVALUE DUP1 ISZERO PUSH3 0x5A JUMPI PUSH0 DUP1 REVERT JUMPDEST POP PUSH1 0x40 MLOAD PUSH3 0x2B35 CODESIZE SUB DUP1 PUSH3 0x2B35 DUP4 CODECOPY DUP2 ADD PUSH1 0x40 DUP2 SWAP1 MSTORE PUSH3 0x7D SWAP2 PUSH3 0x353 JUMP JUMPDEST PUSH0 DUP1 SLOAD PUSH1 0x1 PUSH1 0x1 PUSH1 0xA0 SHL SUB NOT AND CALLER SWAP1 DUP2 OR DUP3 SSTORE PUSH1 0x40 MLOAD SWAP1 SWAP2 DUP3 SWAP2 PUSH32 0x8BE0079C531659141344CD1FD0A4F28419497F9722A3DAAFE3B4186F6B6457E0 SWAP1 DUP3 SWAP1 LOG3 POP PUSH1 0xA SLOAD CALLER PUSH0 SWAP1 DUP2 MSTORE PUSH1 0x3 PUSH1 0x20 SWAP1 DUP2 MSTORE PUSH1 0x40 SWAP2 DUP3 SWAP1 KECCAK256 SWAP3 SWAP1 SWAP3 SSTORE PUSH1 0x12 DUP1 SLOAD PUSH1 0x1 PUSH1 0x1 PUSH1 0xA0 SHL SUB NOT AND PUSH1 0x1 PUSH1 0x1 PUSH1 0xA0 SHL SUB DUP6 AND OR SWAP1 SSTORE DUP1 MLOAD PUSH4 0xC45A0155 PUSH1 0xE0 SHL DUP2 MSTORE SWAP1 MLOAD PUSH20 0x10ED43C718714EB63D5AA57B78B54704E256024E SWAP3 DUP4 SWAP3 PUSH4 0xC45A0155 SWAP3 PUSH1 0x4 DUP1 DUP4 ADD SWAP4 SWAP3 DUP3 SWAP1 SUB ADD DUP2 DUP7 GAS STATICCALL ISZERO DUP1 ISZERO PUSH3 0x13C JUMPI RETURNDATASIZE PUSH0 DUP1 RETURNDATACOPY RETURNDATASIZE PUSH0 REVERT JUMPDEST POP POP POP POP PUSH1 0x40 MLOAD RETURNDATASIZE PUSH1 0x1F NOT PUSH1 0x1F DUP3 ADD AND DUP3 ADD DUP1 PUSH1 0x40 MSTORE POP DUP2 ADD SWAP1 PUSH3 0x162 SWAP2 SWAP1 PUSH3 0x353 JUMP JUMPDEST PUSH1 0x1 PUSH1 0x1 PUSH1 0xA0 SHL SUB AND PUSH4 0xC9C65396 ADDRESS DUP4 PUSH1 0x1 PUSH1 0x1 PUSH1 0xA0 SHL SUB AND PUSH4 0xAD5C4648 PUSH1 0x40 MLOAD DUP2 PUSH4 0xFFFFFFFF AND PUSH1 0xE0 SHL DUP2 MSTORE PUSH1 0x4 ADD PUSH1 0x20 PUSH1 0x40 MLOAD DUP1 DUP4 SUB DUP2 DUP7 GAS STATICCALL ISZERO DUP1 ISZERO PUSH3 0x1AE JUMPI RETURNDATASIZE PUSH0 DUP1 RETURNDATACOPY RETURNDATASIZE PUSH0 REVERT JUMPDEST POP POP POP POP PUSH1 0x40 MLOAD RETURNDATASIZE PUSH1 0x1F NOT PUSH1 0x1F DUP3 ADD AND DUP3 ADD DUP1 PUSH1 0x40 MSTORE POP DUP2 ADD SWAP1 PUSH3 0x1D4 SWAP2 SWAP1 PUSH3 0x353 JUMP JUMPDEST PUSH1 0x40 MLOAD PUSH1 0x1 PUSH1 0x1 PUSH1 0xE0 SHL SUB NOT PUSH1 0xE0 DUP6 SWAP1 SHL AND DUP2 MSTORE PUSH1 0x1 PUSH1 0x1 PUSH1 0xA0 SHL SUB SWAP3 DUP4 AND PUSH1 0x4 DUP3 ADD MSTORE SWAP2 AND PUSH1 0x24 DUP3 ADD MSTORE PUSH1 0x44 ADD PUSH1 0x20 PUSH1 0x40 MLOAD DUP1 DUP4 SUB DUP2 PUSH0 DUP8 GAS CALL ISZERO DUP1 ISZERO PUSH3 0x21F JUMPI RETURNDATASIZE PUSH0 DUP1 RETURNDATACOPY RETURNDATASIZE PUSH0 REVERT JUMPDEST POP POP POP POP PUSH1 0x40 MLOAD RETURNDATASIZE PUSH1 0x1F NOT PUSH1 0x1F DUP3 ADD AND DUP3 ADD DUP1 PUSH1 0x40 MSTORE POP DUP2 ADD SWAP1 PUSH3 0x245 SWAP2 SWAP1 PUSH3 0x353 JUMP JUMPDEST PUSH1 0x1 PUSH1 0x1 PUSH1 0xA0 SHL SUB SWAP1 DUP2 AND PUSH1 0xA0 MSTORE DUP2 AND PUSH1 0x80 MSTORE PUSH1 0x1 PUSH1 0x6 PUSH0 PUSH3 0x26F PUSH0 SLOAD PUSH1 0x1 PUSH1 0x1 PUSH1 0xA0 SHL SUB AND SWAP1 JUMP JUMPDEST PUSH1 0x1 PUSH1 0x1 PUSH1 0xA0 SHL SUB AND DUP2 MSTORE PUSH1 0x20 DUP1 DUP3 ADD SWAP3 SWAP1 SWAP3 MSTORE PUSH1 0x40 SWAP1 DUP2 ADD PUSH0 SWAP1 DUP2 KECCAK256 DUP1 SLOAD SWAP5 ISZERO ISZERO PUSH1 0xFF NOT SWAP6 DUP7 AND OR SWAP1 SSTORE ADDRESS DUP2 MSTORE PUSH1 0x6 SWAP1 SWAP3 MSTORE SWAP1 KECCAK256 DUP1 SLOAD SWAP1 SWAP2 AND PUSH1 0x1 OR SWAP1 SSTORE PUSH3 0x2B6 CALLER SWAP1 JUMP JUMPDEST PUSH1 0x1 PUSH1 0x1 PUSH1 0xA0 SHL SUB AND PUSH0 PUSH1 0x1 PUSH1 0x1 PUSH1 0xA0 SHL SUB AND PUSH32 0xDDF252AD1BE2C89B69C2B068FC378DAA952BA7F163C4A11628F55A4DF523B3EF PUSH1 0x9 SLOAD PUSH1 0x40 MLOAD PUSH3 0x2FD SWAP2 DUP2 MSTORE PUSH1 0x20 ADD SWAP1 JUMP JUMPDEST PUSH1 0x40 MLOAD DUP1 SWAP2 SUB SWAP1 LOG3 POP POP PUSH3 0x382 JUMP JUMPDEST PUSH0 DUP3 PUSH3 0x328 JUMPI PUSH4 0x4E487B71 PUSH1 0xE0 SHL PUSH0 MSTORE PUSH1 0x12 PUSH1 0x4 MSTORE PUSH1 0x24 PUSH0 REVERT JUMPDEST POP MOD SWAP1 JUMP JUMPDEST DUP2 DUP2 SUB DUP2 DUP2 GT ISZERO PUSH3 0x34D JUMPI PUSH4 0x4E487B71 PUSH1 0xE0 SHL PUSH0 MSTORE PUSH1 0x11 PUSH1 0x4 MSTORE PUSH1 0x24 PUSH0 REVERT JUMPDEST SWAP3 SWAP2 POP POP JUMP JUMPDEST PUSH0 PUSH1 0x20 DUP3 DUP5 SUB SLT ISZERO PUSH3 0x364 JUMPI PUSH0 DUP1 REVERT JUMPDEST DUP2 MLOAD PUSH1 0x1 PUSH1 0x1 PUSH1 0xA0 SHL SUB DUP2 AND DUP2 EQ PUSH3 0x37B JUMPI PUSH0 DUP1 REVERT JUMPDEST SWAP4 SWAP3 POP POP POP JUMP JUMPDEST PUSH1 0x80 MLOAD PUSH1 0xA0 MLOAD PUSH2 0x2760 PUSH3 0x3D5 PUSH0 CODECOPY PUSH0 DUP2 DUP2 PUSH2 0x3F5 ADD MSTORE DUP2 DUP2 PUSH2 0x15AB ADD MSTORE PUSH2 0x1773 ADD MSTORE PUSH0 DUP2 DUP2 PUSH2 0x2A0 ADD MSTORE DUP2 DUP2 PUSH2 0x1C4B ADD MSTORE DUP2 DUP2 PUSH2 0x1D02 ADD MSTORE DUP2 DUP2 PUSH2 0x1D3E ADD MSTORE DUP2 DUP2 PUSH2 0x1DAA ADD MSTORE PUSH2 0x1DD1 ADD MSTORE PUSH2 0x2760 PUSH0 RETURN INVALID PUSH1 0x80 PUSH1 0x40 MSTORE PUSH1 0x4 CALLDATASIZE LT PUSH2 0x1F4 JUMPI PUSH0 CALLDATALOAD PUSH1 0xE0 SHR DUP1 PUSH4 0x55CE3B9A GT PUSH2 0x108 JUMPI DUP1 PUSH4 0xA69DF4B5 GT PUSH2 0x9D JUMPI DUP1 PUSH4 0xD7D7442F GT PUSH2 0x6D JUMPI DUP1 PUSH4 0xD7D7442F EQ PUSH2 0x601 JUMPI DUP1 PUSH4 0xDD467064 EQ PUSH2 0x620 JUMPI DUP1 PUSH4 0xDD62ED3E EQ PUSH2 0x63F JUMPI DUP1 PUSH4 0xEA2F0B37 EQ PUSH2 0x683 JUMPI DUP1 PUSH4 0xF2FDE38B EQ PUSH2 0x6A2 JUMPI PUSH0 DUP1 REVERT JUMPDEST DUP1 PUSH4 0xA69DF4B5 EQ PUSH2 0x59B JUMPI DUP1 PUSH4 0xA9059CBB EQ PUSH2 0x5AF JUMPI DUP1 PUSH4 0xB6C52324 EQ PUSH2 0x5CE JUMPI DUP1 PUSH4 0xC49B9A80 EQ PUSH2 0x5E2 JUMPI PUSH0 DUP1 REVERT JUMPDEST DUP1 PUSH4 0x88F82020 GT PUSH2 0xD8 JUMPI DUP1 PUSH4 0x88F82020 EQ PUSH2 0x4FC JUMPI DUP1 PUSH4 0x8DA5CB5B EQ PUSH2 0x533 JUMPI DUP1 PUSH4 0x95D89B41 EQ PUSH2 0x54F JUMPI DUP1 PUSH4 0xA457C2D7 EQ PUSH2 0x57C JUMPI PUSH0 DUP1 REVERT JUMPDEST DUP1 PUSH4 0x55CE3B9A EQ PUSH2 0x48B JUMPI DUP1 PUSH4 0x664A1AD6 EQ PUSH2 0x4AA JUMPI DUP1 PUSH4 0x70A08231 EQ PUSH2 0x4C9 JUMPI DUP1 PUSH4 0x715018A6 EQ PUSH2 0x4E8 JUMPI PUSH0 DUP1 REVERT JUMPDEST DUP1 PUSH4 0x3685D419 GT PUSH2 0x189 JUMPI DUP1 PUSH4 0x4549B039 GT PUSH2 0x159 JUMPI DUP1 PUSH4 0x4549B039 EQ PUSH2 0x3C5 JUMPI DUP1 PUSH4 0x49BD5A5E EQ PUSH2 0x3E4 JUMPI DUP1 PUSH4 0x4A74BB02 EQ PUSH2 0x417 JUMPI DUP1 PUSH4 0x52390C02 EQ PUSH2 0x435 JUMPI DUP1 PUSH4 0x5342ACB4 EQ PUSH2 0x454 JUMPI PUSH0 DUP1 REVERT JUMPDEST DUP1 PUSH4 0x3685D419 EQ PUSH2 0x347 JUMPI DUP1 PUSH4 0x39509351 EQ PUSH2 0x368 JUMPI DUP1 PUSH4 0x3BD5D173 EQ PUSH2 0x387 JUMPI DUP1 PUSH4 0x437823EC EQ PUSH2 0x3A6 JUMPI PUSH0 DUP1 REVERT JUMPDEST DUP1 PUSH4 0x18160DDD GT PUSH2 0x1C4 JUMPI DUP1 PUSH4 0x18160DDD EQ PUSH2 0x2DA JUMPI DUP1 PUSH4 0x23B872DD EQ PUSH2 0x2EE JUMPI DUP1 PUSH4 0x2D838119 EQ PUSH2 0x30D JUMPI DUP1 PUSH4 0x313CE567 EQ PUSH2 0x32C JUMPI PUSH0 DUP1 REVERT JUMPDEST DUP1 PUSH4 0x6FDDE03 EQ PUSH2 0x1FF JUMPI DUP1 PUSH4 0x95EA7B3 EQ PUSH2 0x242 JUMPI DUP1 PUSH4 0x13114A9D EQ PUSH2 0x271 JUMPI DUP1 PUSH4 0x1694505E EQ PUSH2 0x28F JUMPI PUSH0 DUP1 REVERT JUMPDEST CALLDATASIZE PUSH2 0x1FB JUMPI STOP JUMPDEST PUSH0 DUP1 REVERT JUMPDEST CALLVALUE DUP1 ISZERO PUSH2 0x20A JUMPI PUSH0 DUP1 REVERT JUMPDEST POP PUSH1 0x40 DUP1 MLOAD DUP1 DUP3 ADD SWAP1 SWAP2 MSTORE PUSH1 0x9 DUP2 MSTORE PUSH9 0x31B0BA31B431B7B4B7 PUSH1 0xB9 SHL PUSH1 0x20 DUP3 ADD MSTORE JUMPDEST PUSH1 0x40 MLOAD PUSH2 0x239 SWAP2 SWAP1 PUSH2 0x241B JUMP JUMPDEST PUSH1 0x40 MLOAD DUP1 SWAP2 SUB SWAP1 RETURN JUMPDEST CALLVALUE DUP1 ISZERO PUSH2 0x24D JUMPI PUSH0 DUP1 REVERT JUMPDEST POP PUSH2 0x261 PUSH2 0x25C CALLDATASIZE PUSH1 0x4 PUSH2 0x247E JUMP JUMPDEST PUSH2 0x6C1 JUMP JUMPDEST PUSH1 0x40 MLOAD SWAP1 ISZERO ISZERO DUP2 MSTORE PUSH1 0x20 ADD PUSH2 0x239 JUMP JUMPDEST CALLVALUE DUP1 ISZERO PUSH2 0x27C JUMPI PUSH0 DUP1 REVERT JUMPDEST POP PUSH1 0xB SLOAD JUMPDEST PUSH1 0x40 MLOAD SWAP1 DUP2 MSTORE PUSH1 0x20 ADD PUSH2 0x239 JUMP JUMPDEST CALLVALUE DUP1 ISZERO PUSH2 0x29A JUMPI PUSH0 DUP1 REVERT JUMPDEST POP PUSH2 0x2C2 PUSH32 0x0 DUP2 JUMP JUMPDEST PUSH1 0x40 MLOAD PUSH1 0x1 PUSH1 0x1 PUSH1 0xA0 SHL SUB SWAP1 SWAP2 AND DUP2 MSTORE PUSH1 0x20 ADD PUSH2 0x239 JUMP JUMPDEST CALLVALUE DUP1 ISZERO PUSH2 0x2E5 JUMPI PUSH0 DUP1 REVERT JUMPDEST POP PUSH1 0x9 SLOAD PUSH2 0x281 JUMP JUMPDEST CALLVALUE DUP1 ISZERO PUSH2 0x2F9 JUMPI PUSH0 DUP1 REVERT JUMPDEST POP PUSH2 0x261 PUSH2 0x308 CALLDATASIZE PUSH1 0x4 PUSH2 0x24A8 JUMP JUMPDEST PUSH2 0x6D7 JUMP JUMPDEST CALLVALUE DUP1 ISZERO PUSH2 0x318 JUMPI PUSH0 DUP1 REVERT JUMPDEST POP PUSH2 0x281 PUSH2 0x327 CALLDATASIZE PUSH1 0x4 PUSH2 0x24E6 JUMP JUMPDEST PUSH2 0x727 JUMP JUMPDEST CALLVALUE DUP1 ISZERO PUSH2 0x337 JUMPI PUSH0 DUP1 REVERT JUMPDEST POP PUSH1 0x40 MLOAD PUSH1 0x12 DUP2 MSTORE PUSH1 0x20 ADD PUSH2 0x239 JUMP JUMPDEST CALLVALUE DUP1 ISZERO PUSH2 0x352 JUMPI PUSH0 DUP1 REVERT JUMPDEST POP PUSH2 0x366 PUSH2 0x361 CALLDATASIZE PUSH1 0x4 PUSH2 0x24FD JUMP JUMPDEST PUSH2 0x7AE JUMP JUMPDEST STOP JUMPDEST CALLVALUE DUP1 ISZERO PUSH2 0x373 JUMPI PUSH0 DUP1 REVERT JUMPDEST POP PUSH2 0x261 PUSH2 0x382 CALLDATASIZE PUSH1 0x4 PUSH2 0x247E JUMP JUMPDEST PUSH2 0x952 JUMP JUMPDEST CALLVALUE DUP1 ISZERO PUSH2 0x392 JUMPI PUSH0 DUP1 REVERT JUMPDEST POP PUSH2 0x366 PUSH2 0x3A1 CALLDATASIZE PUSH1 0x4 PUSH2 0x24E6 JUMP JUMPDEST PUSH2 0x988 JUMP JUMPDEST CALLVALUE DUP1 ISZERO PUSH2 0x3B1 JUMPI PUSH0 DUP1 REVERT JUMPDEST POP PUSH2 0x366 PUSH2 0x3C0 CALLDATASIZE PUSH1 0x4 PUSH2 0x24FD JUMP JUMPDEST PUSH2 0xA6C JUMP JUMPDEST CALLVALUE DUP1 ISZERO PUSH2 0x3D0 JUMPI PUSH0 DUP1 REVERT JUMPDEST POP PUSH2 0x281 PUSH2 0x3DF CALLDATASIZE PUSH1 0x4 PUSH2 0x252C JUMP JUMPDEST PUSH2 0xB20 JUMP JUMPDEST CALLVALUE DUP1 ISZERO PUSH2 0x3EF JUMPI PUSH0 DUP1 REVERT JUMPDEST POP PUSH2 0x2C2 PUSH32 0x0 DUP2 JUMP JUMPDEST CALLVALUE DUP1 ISZERO PUSH2 0x422 JUMPI PUSH0 DUP1 REVERT JUMPDEST POP PUSH1 0xC SLOAD PUSH2 0x261 SWAP1 PUSH2 0x100 SWAP1 DIV PUSH1 0xFF AND DUP2 JUMP JUMPDEST CALLVALUE DUP1 ISZERO PUSH2 0x440 JUMPI PUSH0 DUP1 REVERT JUMPDEST POP PUSH2 0x366 PUSH2 0x44F CALLDATASIZE PUSH1 0x4 PUSH2 0x24FD JUMP JUMPDEST PUSH2 0xBA0 JUMP JUMPDEST CALLVALUE DUP1 ISZERO PUSH2 0x45F JUMPI PUSH0 DUP1 REVERT JUMPDEST POP PUSH2 0x261 PUSH2 0x46E CALLDATASIZE PUSH1 0x4 PUSH2 0x24FD JUMP JUMPDEST PUSH1 0x1 PUSH1 0x1 PUSH1 0xA0 SHL SUB AND PUSH0 SWAP1 DUP2 MSTORE PUSH1 0x6 PUSH1 0x20 MSTORE PUSH1 0x40 SWAP1 KECCAK256 SLOAD PUSH1 0xFF AND SWAP1 JUMP JUMPDEST CALLVALUE DUP1 ISZERO PUSH2 0x496 JUMPI PUSH0 DUP1 REVERT JUMPDEST POP PUSH2 0x366 PUSH2 0x4A5 CALLDATASIZE PUSH1 0x4 PUSH2 0x24FD JUMP JUMPDEST PUSH2 0xCED JUMP JUMPDEST CALLVALUE DUP1 ISZERO PUSH2 0x4B5 JUMPI PUSH0 DUP1 REVERT JUMPDEST POP PUSH1 0x12 SLOAD PUSH2 0x2C2 SWAP1 PUSH1 0x1 PUSH1 0x1 PUSH1 0xA0 SHL SUB AND DUP2 JUMP JUMPDEST CALLVALUE DUP1 ISZERO PUSH2 0x4D4 JUMPI PUSH0 DUP1 REVERT JUMPDEST POP PUSH2 0x281 PUSH2 0x4E3 CALLDATASIZE PUSH1 0x4 PUSH2 0x24FD JUMP JUMPDEST PUSH2 0xDC1 JUMP JUMPDEST CALLVALUE DUP1 ISZERO PUSH2 0x4F3 JUMPI PUSH0 DUP1 REVERT JUMPDEST POP PUSH2 0x366 PUSH2 0xE1D JUMP JUMPDEST CALLVALUE DUP1 ISZERO PUSH2 0x507 JUMPI PUSH0 DUP1 REVERT JUMPDEST POP PUSH2 0x261 PUSH2 0x516 CALLDATASIZE PUSH1 0x4 PUSH2 0x24FD JUMP JUMPDEST PUSH1 0x1 PUSH1 0x1 PUSH1 0xA0 SHL SUB AND PUSH0 SWAP1 DUP2 MSTORE PUSH1 0x7 PUSH1 0x20 MSTORE PUSH1 0x40 SWAP1 KECCAK256 SLOAD PUSH1 0xFF AND SWAP1 JUMP JUMPDEST CALLVALUE DUP1 ISZERO PUSH2 0x53E JUMPI PUSH0 DUP1 REVERT JUMPDEST POP PUSH0 SLOAD PUSH1 0x1 PUSH1 0x1 PUSH1 0xA0 SHL SUB AND PUSH2 0x2C2 JUMP JUMPDEST CALLVALUE DUP1 ISZERO PUSH2 0x55A JUMPI PUSH0 DUP1 REVERT JUMPDEST POP PUSH1 0x40 DUP1 MLOAD DUP1 DUP3 ADD SWAP1 SWAP2 MSTORE PUSH1 0x5 DUP2 MSTORE PUSH5 0x8682A8869 PUSH1 0xDB SHL PUSH1 0x20 DUP3 ADD MSTORE PUSH2 0x22C JUMP JUMPDEST CALLVALUE DUP1 ISZERO PUSH2 0x587 JUMPI PUSH0 DUP1 REVERT JUMPDEST POP PUSH2 0x261 PUSH2 0x596 CALLDATASIZE PUSH1 0x4 PUSH2 0x247E JUMP JUMPDEST PUSH2 0xE8E JUMP JUMPDEST CALLVALUE DUP1 ISZERO PUSH2 0x5A6 JUMPI PUSH0 DUP1 REVERT JUMPDEST POP PUSH2 0x366 PUSH2 0xEC4 JUMP JUMPDEST CALLVALUE DUP1 ISZERO PUSH2 0x5BA JUMPI PUSH0 DUP1 REVERT JUMPDEST POP PUSH2 0x261 PUSH2 0x5C9 CALLDATASIZE PUSH1 0x4 PUSH2 0x247E JUMP JUMPDEST PUSH2 0xFDA JUMP JUMPDEST CALLVALUE DUP1 ISZERO PUSH2 0x5D9 JUMPI PUSH0 DUP1 REVERT JUMPDEST POP PUSH1 0x2 SLOAD PUSH2 0x281 JUMP JUMPDEST CALLVALUE DUP1 ISZERO PUSH2 0x5ED JUMPI PUSH0 DUP1 REVERT JUMPDEST POP PUSH2 0x366 PUSH2 0x5FC CALLDATASIZE PUSH1 0x4 PUSH2 0x2556 JUMP JUMPDEST PUSH2 0xFE6 JUMP JUMPDEST CALLVALUE DUP1 ISZERO PUSH2 0x60C JUMPI PUSH0 DUP1 REVERT JUMPDEST POP PUSH2 0x366 PUSH2 0x61B CALLDATASIZE PUSH1 0x4 PUSH2 0x24E6 JUMP JUMPDEST PUSH2 0x1058 JUMP JUMPDEST CALLVALUE DUP1 ISZERO PUSH2 0x62B JUMPI PUSH0 DUP1 REVERT JUMPDEST POP PUSH2 0x366 PUSH2 0x63A CALLDATASIZE PUSH1 0x4 PUSH2 0x24E6 JUMP JUMPDEST PUSH2 0x10FB JUMP JUMPDEST CALLVALUE DUP1 ISZERO PUSH2 0x64A JUMPI PUSH0 DUP1 REVERT JUMPDEST POP PUSH2 0x281 PUSH2 0x659 CALLDATASIZE PUSH1 0x4 PUSH2 0x256F JUMP JUMPDEST PUSH1 0x1 PUSH1 0x1 PUSH1 0xA0 SHL SUB SWAP2 DUP3 AND PUSH0 SWAP1 DUP2 MSTORE PUSH1 0x5 PUSH1 0x20 SWAP1 DUP2 MSTORE PUSH1 0x40 DUP1 DUP4 KECCAK256 SWAP4 SWAP1 SWAP5 AND DUP3 MSTORE SWAP2 SWAP1 SWAP2 MSTORE KECCAK256 SLOAD SWAP1 JUMP JUMPDEST CALLVALUE DUP1 ISZERO PUSH2 0x68E JUMPI PUSH0 DUP1 REVERT JUMPDEST POP PUSH2 0x366 PUSH2 0x69D CALLDATASIZE PUSH1 0x4 PUSH2 0x24FD JUMP JUMPDEST PUSH2 0x11A4 JUMP JUMPDEST CALLVALUE DUP1 ISZERO PUSH2 0x6AD JUMPI PUSH0 DUP1 REVERT JUMPDEST POP PUSH2 0x366 PUSH2 0x6BC CALLDATASIZE PUSH1 0x4 PUSH2 0x24FD JUMP JUMPDEST PUSH2 0x124D JUMP JUMPDEST PUSH0 PUSH2 0x6CD CALLER DUP5 DUP5 PUSH2 0x1334 JUMP JUMPDEST POP PUSH1 0x1 JUMPDEST SWAP3 SWAP2 POP POP JUMP JUMPDEST PUSH0 PUSH2 0x6E3 DUP5 DUP5 DUP5 PUSH2 0x1457 JUMP JUMPDEST PUSH1 0x1 PUSH1 0x1 PUSH1 0xA0 SHL SUB DUP5 AND PUSH0 SWAP1 DUP2 MSTORE PUSH1 0x5 PUSH1 0x20 SWAP1 DUP2 MSTORE PUSH1 0x40 DUP1 DUP4 KECCAK256 CALLER DUP1 DUP6 MSTORE SWAP3 MSTORE SWAP1 SWAP2 KECCAK256 SLOAD PUSH2 0x71D SWAP2 DUP7 SWAP2 PUSH2 0x718 SWAP1 DUP7 SWAP1 PUSH2 0x25BA JUMP JUMPDEST PUSH2 0x1334 JUMP JUMPDEST POP PUSH1 0x1 SWAP4 SWAP3 POP POP POP JUMP JUMPDEST PUSH0 PUSH1 0xA SLOAD DUP3 GT ISZERO PUSH2 0x792 JUMPI PUSH1 0x40 MLOAD PUSH3 0x461BCD PUSH1 0xE5 SHL DUP2 MSTORE PUSH1 0x20 PUSH1 0x4 DUP3 ADD MSTORE PUSH1 0x2A PUSH1 0x24 DUP3 ADD MSTORE PUSH32 0x416D6F756E74206D757374206265206C657373207468616E20746F74616C2072 PUSH1 0x44 DUP3 ADD MSTORE PUSH10 0x65666C656374696F6E73 PUSH1 0xB0 SHL PUSH1 0x64 DUP3 ADD MSTORE PUSH1 0x84 ADD JUMPDEST PUSH1 0x40 MLOAD DUP1 SWAP2 SUB SWAP1 REVERT JUMPDEST PUSH0 PUSH2 0x79B PUSH2 0x1672 JUMP JUMPDEST SWAP1 POP PUSH2 0x7A7 DUP2 DUP5 PUSH2 0x25CD JUMP JUMPDEST SWAP4 SWAP3 POP POP POP JUMP JUMPDEST PUSH0 SLOAD PUSH1 0x1 PUSH1 0x1 PUSH1 0xA0 SHL SUB AND CALLER EQ PUSH2 0x7D7 JUMPI PUSH1 0x40 MLOAD PUSH3 0x461BCD PUSH1 0xE5 SHL DUP2 MSTORE PUSH1 0x4 ADD PUSH2 0x789 SWAP1 PUSH2 0x25EC JUMP JUMPDEST PUSH1 0x1 PUSH1 0x1 PUSH1 0xA0 SHL SUB DUP2 AND PUSH0 SWAP1 DUP2 MSTORE PUSH1 0x7 PUSH1 0x20 MSTORE PUSH1 0x40 SWAP1 KECCAK256 SLOAD PUSH1 0xFF AND PUSH2 0x83E JUMPI PUSH1 0x40 MLOAD PUSH3 0x461BCD PUSH1 0xE5 SHL DUP2 MSTORE PUSH1 0x20 PUSH1 0x4 DUP3 ADD MSTORE PUSH1 0x1B PUSH1 0x24 DUP3 ADD MSTORE PUSH32 0x4163636F756E7420697320616C726561647920496E636C756465640000000000 PUSH1 0x44 DUP3 ADD MSTORE PUSH1 0x64 ADD PUSH2 0x789 JUMP JUMPDEST PUSH0 JUMPDEST PUSH1 0x8 SLOAD DUP2 LT ISZERO PUSH2 0x94E JUMPI DUP2 PUSH1 0x1 PUSH1 0x1 PUSH1 0xA0 SHL SUB AND PUSH1 0x8 DUP3 DUP2 SLOAD DUP2 LT PUSH2 0x867 JUMPI PUSH2 0x867 PUSH2 0x2621 JUMP JUMPDEST PUSH0 SWAP2 DUP3 MSTORE PUSH1 0x20 SWAP1 SWAP2 KECCAK256 ADD SLOAD PUSH1 0x1 PUSH1 0x1 PUSH1 0xA0 SHL SUB AND SUB PUSH2 0x946 JUMPI PUSH1 0x8 DUP1 SLOAD PUSH2 0x890 SWAP1 PUSH1 0x1 SWAP1 PUSH2 0x25BA JUMP JUMPDEST DUP2 SLOAD DUP2 LT PUSH2 0x8A0 JUMPI PUSH2 0x8A0 PUSH2 0x2621 JUMP JUMPDEST PUSH0 SWAP2 DUP3 MSTORE PUSH1 0x20 SWAP1 SWAP2 KECCAK256 ADD SLOAD PUSH1 0x8 DUP1 SLOAD PUSH1 0x1 PUSH1 0x1 PUSH1 0xA0 SHL SUB SWAP1 SWAP3 AND SWAP2 DUP4 SWAP1 DUP2 LT PUSH2 0x8CB JUMPI PUSH2 0x8CB PUSH2 0x2621 JUMP JUMPDEST PUSH0 SWAP2 DUP3 MSTORE PUSH1 0x20 DUP1 DUP4 KECCAK256 SWAP2 SWAP1 SWAP2 ADD DUP1 SLOAD PUSH1 0x1 PUSH1 0x1 PUSH1 0xA0 SHL SUB NOT AND PUSH1 0x1 PUSH1 0x1 PUSH1 0xA0 SHL SUB SWAP5 DUP6 AND OR SWAP1 SSTORE SWAP2 DUP5 AND DUP2 MSTORE PUSH1 0x4 DUP3 MSTORE PUSH1 0x40 DUP1 DUP3 KECCAK256 DUP3 SWAP1 SSTORE PUSH1 0x7 SWAP1 SWAP3 MSTORE KECCAK256 DUP1 SLOAD PUSH1 0xFF NOT AND SWAP1 SSTORE PUSH1 0x8 DUP1 SLOAD DUP1 PUSH2 0x922 JUMPI PUSH2 0x922 PUSH2 0x2635 JUMP JUMPDEST PUSH0 DUP3 DUP2 MSTORE PUSH1 0x20 SWAP1 KECCAK256 DUP2 ADD PUSH0 NOT SWAP1 DUP2 ADD DUP1 SLOAD PUSH1 0x1 PUSH1 0x1 PUSH1 0xA0 SHL SUB NOT AND SWAP1 SSTORE ADD SWAP1 SSTORE POP POP JUMP JUMPDEST PUSH1 0x1 ADD PUSH2 0x840 JUMP JUMPDEST POP POP JUMP JUMPDEST CALLER PUSH0 DUP2 DUP2 MSTORE PUSH1 0x5 PUSH1 0x20 SWAP1 DUP2 MSTORE PUSH1 0x40 DUP1 DUP4 KECCAK256 PUSH1 0x1 PUSH1 0x1 PUSH1 0xA0 SHL SUB DUP8 AND DUP5 MSTORE SWAP1 SWAP2 MSTORE DUP2 KECCAK256 SLOAD SWAP1 SWAP2 PUSH2 0x6CD SWAP2 DUP6 SWAP1 PUSH2 0x718 SWAP1 DUP7 SWAP1 PUSH2 0x2649 JUMP JUMPDEST CALLER PUSH0 DUP2 DUP2 MSTORE PUSH1 0x7 PUSH1 0x20 MSTORE PUSH1 0x40 SWAP1 KECCAK256 SLOAD PUSH1 0xFF AND ISZERO PUSH2 0x9FC JUMPI PUSH1 0x40 MLOAD PUSH3 0x461BCD PUSH1 0xE5 SHL DUP2 MSTORE PUSH1 0x20 PUSH1 0x4 DUP3 ADD MSTORE PUSH1 0x2C PUSH1 0x24 DUP3 ADD MSTORE PUSH32 0x4578636C75646564206164647265737365732063616E6E6F742063616C6C2074 PUSH1 0x44 DUP3 ADD MSTORE PUSH12 0x3434B990333AB731BA34B7B7 PUSH1 0xA1 SHL PUSH1 0x64 DUP3 ADD MSTORE PUSH1 0x84 ADD PUSH2 0x789 JUMP JUMPDEST PUSH0 PUSH2 0xA06 DUP4 PUSH2 0x1693 JUMP JUMPDEST POP PUSH1 0x1 PUSH1 0x1 PUSH1 0xA0 SHL SUB DUP4 AND PUSH0 SWAP1 DUP2 MSTORE PUSH1 0x3 PUSH1 0x20 MSTORE PUSH1 0x40 SWAP1 KECCAK256 SLOAD SWAP1 SWAP2 POP PUSH2 0xA2D SWAP1 DUP3 SWAP1 PUSH2 0x25BA JUMP JUMPDEST PUSH1 0x1 PUSH1 0x1 PUSH1 0xA0 SHL SUB DUP4 AND PUSH0 SWAP1 DUP2 MSTORE PUSH1 0x3 PUSH1 0x20 MSTORE PUSH1 0x40 SWAP1 KECCAK256 SSTORE PUSH1 0xA SLOAD PUSH2 0xA53 SWAP1 DUP3 SWAP1 PUSH2 0x25BA JUMP JUMPDEST PUSH1 0xA SSTORE PUSH1 0xB SLOAD PUSH2 0xA64 SWAP1 DUP5 SWAP1 PUSH2 0x2649 JUMP JUMPDEST PUSH1 0xB SSTORE POP POP POP JUMP JUMPDEST PUSH0 SLOAD PUSH1 0x1 PUSH1 0x1 PUSH1 0xA0 SHL SUB AND CALLER EQ PUSH2 0xA95 JUMPI PUSH1 0x40 MLOAD PUSH3 0x461BCD PUSH1 0xE5 SHL DUP2 MSTORE PUSH1 0x4 ADD PUSH2 0x789 SWAP1 PUSH2 0x25EC JUMP JUMPDEST PUSH1 0x1 PUSH1 0x1 PUSH1 0xA0 SHL SUB DUP2 AND PUSH0 SWAP1 DUP2 MSTORE PUSH1 0x6 PUSH1 0x20 MSTORE PUSH1 0x40 SWAP1 KECCAK256 SLOAD PUSH1 0xFF AND ISZERO PUSH2 0xAFD JUMPI PUSH1 0x40 MLOAD PUSH3 0x461BCD PUSH1 0xE5 SHL DUP2 MSTORE PUSH1 0x20 PUSH1 0x4 DUP3 ADD MSTORE PUSH1 0x18 PUSH1 0x24 DUP3 ADD MSTORE PUSH32 0x416C72656179206578636C756465642066726F6D206665650000000000000000 PUSH1 0x44 DUP3 ADD MSTORE PUSH1 0x64 ADD PUSH2 0x789 JUMP JUMPDEST PUSH1 0x1 PUSH1 0x1 PUSH1 0xA0 SHL SUB AND PUSH0 SWAP1 DUP2 MSTORE PUSH1 0x6 PUSH1 0x20 MSTORE PUSH1 0x40 SWAP1 KECCAK256 DUP1 SLOAD PUSH1 0xFF NOT AND PUSH1 0x1 OR SWAP1 SSTORE JUMP JUMPDEST PUSH0 PUSH1 0x9 SLOAD DUP4 GT ISZERO PUSH2 0xB73 JUMPI PUSH1 0x40 MLOAD PUSH3 0x461BCD PUSH1 0xE5 SHL DUP2 MSTORE PUSH1 0x20 PUSH1 0x4 DUP3 ADD MSTORE PUSH1 0x1F PUSH1 0x24 DUP3 ADD MSTORE PUSH32 0x416D6F756E74206D757374206265206C657373207468616E20737570706C7900 PUSH1 0x44 DUP3 ADD MSTORE PUSH1 0x64 ADD PUSH2 0x789 JUMP JUMPDEST DUP2 PUSH2 0xB8C JUMPI PUSH0 PUSH2 0xB82 DUP5 PUSH2 0x1693 JUMP JUMPDEST POP SWAP2 POP PUSH2 0x6D1 SWAP1 POP JUMP JUMPDEST PUSH0 PUSH2 0xB96 DUP5 PUSH2 0x1693 JUMP JUMPDEST SWAP3 POP PUSH2 0x6D1 SWAP2 POP POP JUMP JUMPDEST PUSH0 SLOAD PUSH1 0x1 PUSH1 0x1 PUSH1 0xA0 SHL SUB AND CALLER EQ PUSH2 0xBC9 JUMPI PUSH1 0x40 MLOAD PUSH3 0x461BCD PUSH1 0xE5 SHL DUP2 MSTORE PUSH1 0x4 ADD PUSH2 0x789 SWAP1 PUSH2 0x25EC JUMP JUMPDEST PUSH1 0x1 PUSH1 0x1 PUSH1 0xA0 SHL SUB DUP2 AND PUSH0 SWAP1 DUP2 MSTORE PUSH1 0x7 PUSH1 0x20 MSTORE PUSH1 0x40 SWAP1 KECCAK256 SLOAD PUSH1 0xFF AND ISZERO PUSH2 0xC31 JUMPI PUSH1 0x40 MLOAD PUSH3 0x461BCD PUSH1 0xE5 SHL DUP2 MSTORE PUSH1 0x20 PUSH1 0x4 DUP3 ADD MSTORE PUSH1 0x1B PUSH1 0x24 DUP3 ADD MSTORE PUSH32 0x4163636F756E7420697320616C7265616479206578636C756465640000000000 PUSH1 0x44 DUP3 ADD MSTORE PUSH1 0x64 ADD PUSH2 0x789 JUMP JUMPDEST PUSH1 0x1 PUSH1 0x1 PUSH1 0xA0 SHL SUB DUP2 AND PUSH0 SWAP1 DUP2 MSTORE PUSH1 0x3 PUSH1 0x20 MSTORE PUSH1 0x40 SWAP1 KECCAK256 SLOAD ISZERO PUSH2 0xC88 JUMPI PUSH1 0x1 PUSH1 0x1 PUSH1 0xA0 SHL SUB DUP2 AND PUSH0 SWAP1 DUP2 MSTORE PUSH1 0x3 PUSH1 0x20 MSTORE PUSH1 0x40 SWAP1 KECCAK256 SLOAD PUSH2 0xC6F SWAP1 PUSH2 0x727 JUMP JUMPDEST PUSH1 0x1 PUSH1 0x1 PUSH1 0xA0 SHL SUB DUP3 AND PUSH0 SWAP1 DUP2 MSTORE PUSH1 0x4 PUSH1 0x20 MSTORE PUSH1 0x40 SWAP1 KECCAK256 SSTORE JUMPDEST PUSH1 0x1 PUSH1 0x1 PUSH1 0xA0 SHL SUB AND PUSH0 DUP2 DUP2 MSTORE PUSH1 0x7 PUSH1 0x20 MSTORE PUSH1 0x40 DUP2 KECCAK256 DUP1 SLOAD PUSH1 0xFF NOT AND PUSH1 0x1 SWAP1 DUP2 OR SWAP1 SWAP2 SSTORE PUSH1 0x8 DUP1 SLOAD SWAP2 DUP3 ADD DUP2 SSTORE SWAP1 SWAP2 MSTORE PUSH32 0xF3F7A9FE364FAAB93B216DA50A3214154F22A0A2B415B23A84C8169E8B636EE3 ADD DUP1 SLOAD PUSH1 0x1 PUSH1 0x1 PUSH1 0xA0 SHL SUB NOT AND SWAP1 SWAP2 OR SWAP1 SSTORE JUMP JUMPDEST PUSH0 SLOAD PUSH1 0x1 PUSH1 0x1 PUSH1 0xA0 SHL SUB AND CALLER EQ PUSH2 0xD16 JUMPI PUSH1 0x40 MLOAD PUSH3 0x461BCD PUSH1 0xE5 SHL DUP2 MSTORE PUSH1 0x4 ADD PUSH2 0x789 SWAP1 PUSH2 0x25EC JUMP JUMPDEST PUSH1 0x1 PUSH1 0x1 PUSH1 0xA0 SHL SUB DUP2 AND PUSH2 0xD6C JUMPI PUSH1 0x40 MLOAD PUSH3 0x461BCD PUSH1 0xE5 SHL DUP2 MSTORE PUSH1 0x20 PUSH1 0x4 DUP3 ADD MSTORE PUSH1 0x1B PUSH1 0x24 DUP3 ADD MSTORE PUSH32 0x46756E642077616C6C65742063616E206E6F74206265207A65726F0000000000 PUSH1 0x44 DUP3 ADD MSTORE PUSH1 0x64 ADD PUSH2 0x789 JUMP JUMPDEST PUSH1 0x12 DUP1 SLOAD PUSH1 0x1 PUSH1 0x1 PUSH1 0xA0 SHL SUB NOT AND PUSH1 0x1 PUSH1 0x1 PUSH1 0xA0 SHL SUB DUP4 AND SWAP1 DUP2 OR SWAP1 SWAP2 SSTORE PUSH1 0x40 MLOAD SWAP1 DUP2 MSTORE PUSH32 0x4CB53CDEE53F2D4E4E60769ADD356F6CBD911505806FD6C1EEE38F5A6B8A2574 SWAP1 PUSH1 0x20 ADD JUMPDEST PUSH1 0x40 MLOAD DUP1 SWAP2 SUB SWAP1 LOG1 POP JUMP JUMPDEST PUSH1 0x1 PUSH1 0x1 PUSH1 0xA0 SHL SUB DUP2 AND PUSH0 SWAP1 DUP2 MSTORE PUSH1 0x7 PUSH1 0x20 MSTORE PUSH1 0x40 DUP2 KECCAK256 SLOAD PUSH1 0xFF AND ISZERO PUSH2 0xDFC JUMPI POP PUSH1 0x1 PUSH1 0x1 PUSH1 0xA0 SHL SUB AND PUSH0 SWAP1 DUP2 MSTORE PUSH1 0x4 PUSH1 0x20 MSTORE PUSH1 0x40 SWAP1 KECCAK256 SLOAD SWAP1 JUMP JUMPDEST PUSH1 0x1 PUSH1 0x1 PUSH1 0xA0 SHL SUB DUP3 AND PUSH0 SWAP1 DUP2 MSTORE PUSH1 0x3 PUSH1 0x20 MSTORE PUSH1 0x40 SWAP1 KECCAK256 SLOAD PUSH2 0x6D1 SWAP1 PUSH2 0x727 JUMP JUMPDEST PUSH0 SLOAD PUSH1 0x1 PUSH1 0x1 PUSH1 0xA0 SHL SUB AND CALLER EQ PUSH2 0xE46 JUMPI PUSH1 0x40 MLOAD PUSH3 0x461BCD PUSH1 0xE5 SHL DUP2 MSTORE PUSH1 0x4 ADD PUSH2 0x789 SWAP1 PUSH2 0x25EC JUMP JUMPDEST PUSH0 DUP1 SLOAD PUSH1 0x40 MLOAD PUSH1 0x1 PUSH1 0x1 PUSH1 0xA0 SHL SUB SWAP1 SWAP2 AND SWAP1 PUSH32 0x8BE0079C531659141344CD1FD0A4F28419497F9722A3DAAFE3B4186F6B6457E0 SWAP1 DUP4 SWAP1 LOG3 PUSH0 DUP1 SLOAD PUSH1 0x1 PUSH1 0x1 PUSH1 0xA0 SHL SUB NOT AND SWAP1 SSTORE JUMP JUMPDEST CALLER PUSH0 DUP2 DUP2 MSTORE PUSH1 0x5 PUSH1 0x20 SWAP1 DUP2 MSTORE PUSH1 0x40 DUP1 DUP4 KECCAK256 PUSH1 0x1 PUSH1 0x1 PUSH1 0xA0 SHL SUB DUP8 AND DUP5 MSTORE SWAP1 SWAP2 MSTORE DUP2 KECCAK256 SLOAD SWAP1 SWAP2 PUSH2 0x6CD SWAP2 DUP6 SWAP1 PUSH2 0x718 SWAP1 DUP7 SWAP1 PUSH2 0x25BA JUMP JUMPDEST PUSH1 0x1 SLOAD PUSH1 0x1 PUSH1 0x1 PUSH1 0xA0 SHL SUB AND CALLER EQ PUSH2 0xF2A JUMPI PUSH1 0x40 MLOAD PUSH3 0x461BCD PUSH1 0xE5 SHL DUP2 MSTORE PUSH1 0x20 PUSH1 0x4 DUP3 ADD MSTORE PUSH1 0x24 DUP1 DUP3 ADD MSTORE PUSH32 0x596F7520646F206E6F742068617665207065726D697373696F6E20746F20756E PUSH1 0x44 DUP3 ADD MSTORE PUSH4 0x6C6F636B PUSH1 0xE0 SHL PUSH1 0x64 DUP3 ADD MSTORE PUSH1 0x84 ADD PUSH2 0x789 JUMP JUMPDEST PUSH1 0x2 SLOAD TIMESTAMP GT PUSH2 0xF7B JUMPI PUSH1 0x40 MLOAD PUSH3 0x461BCD PUSH1 0xE5 SHL DUP2 MSTORE PUSH1 0x20 PUSH1 0x4 DUP3 ADD MSTORE PUSH1 0x1F PUSH1 0x24 DUP3 ADD MSTORE PUSH32 0x436F6E7472616374206973206C6F636B656420756E74696C2037206461797300 PUSH1 0x44 DUP3 ADD MSTORE PUSH1 0x64 ADD PUSH2 0x789 JUMP JUMPDEST PUSH1 0x1 SLOAD PUSH0 DUP1 SLOAD PUSH1 0x40 MLOAD PUSH1 0x1 PUSH1 0x1 PUSH1 0xA0 SHL SUB SWAP4 DUP5 AND SWAP4 SWAP1 SWAP2 AND SWAP2 PUSH32 0x8BE0079C531659141344CD1FD0A4F28419497F9722A3DAAFE3B4186F6B6457E0 SWAP2 LOG3 PUSH1 0x1 SLOAD PUSH0 DUP1 SLOAD PUSH1 0x1 PUSH1 0x1 PUSH1 0xA0 SHL SUB NOT AND PUSH1 0x1 PUSH1 0x1 PUSH1 0xA0 SHL SUB SWAP1 SWAP3 AND SWAP2 SWAP1 SWAP2 OR SWAP1 SSTORE JUMP JUMPDEST PUSH0 PUSH2 0x6CD CALLER DUP5 DUP5 PUSH2 0x1457 JUMP JUMPDEST PUSH0 SLOAD PUSH1 0x1 PUSH1 0x1 PUSH1 0xA0 SHL SUB AND CALLER EQ PUSH2 0x100F JUMPI PUSH1 0x40 MLOAD PUSH3 0x461BCD PUSH1 0xE5 SHL DUP2 MSTORE PUSH1 0x4 ADD PUSH2 0x789 SWAP1 PUSH2 0x25EC JUMP JUMPDEST PUSH1 0xC DUP1 SLOAD DUP3 ISZERO ISZERO PUSH2 0x100 MUL PUSH2 0xFF00 NOT SWAP1 SWAP2 AND OR SWAP1 SSTORE PUSH1 0x40 MLOAD PUSH32 0x53726DFCAF90650AA7EB35524F4D3220F07413C8D6CB404CC8C18BF5591BC159 SWAP1 PUSH2 0xDB6 SWAP1 DUP4 ISZERO ISZERO DUP2 MSTORE PUSH1 0x20 ADD SWAP1 JUMP JUMPDEST PUSH0 SLOAD PUSH1 0x1 PUSH1 0x1 PUSH1 0xA0 SHL SUB AND CALLER EQ PUSH2 0x1081 JUMPI PUSH1 0x40 MLOAD PUSH3 0x461BCD PUSH1 0xE5 SHL DUP2 MSTORE PUSH1 0x4 ADD PUSH2 0x789 SWAP1 PUSH2 0x25EC JUMP JUMPDEST PUSH0 DUP2 GT PUSH2 0x10C6 JUMPI PUSH1 0x40 MLOAD PUSH3 0x461BCD PUSH1 0xE5 SHL DUP2 MSTORE PUSH1 0x20 PUSH1 0x4 DUP3 ADD MSTORE PUSH1 0x13 PUSH1 0x24 DUP3 ADD MSTORE PUSH19 0x185B5BDD5B9D081A5CC81B9BDD081D985B1A59 PUSH1 0x6A SHL PUSH1 0x44 DUP3 ADD MSTORE PUSH1 0x64 ADD PUSH2 0x789 JUMP JUMPDEST PUSH1 0xD DUP2 SWAP1 SSTORE PUSH1 0x40 MLOAD DUP2 DUP2 MSTORE PUSH32 0xADFA8ECB21B6962EBCD0ADBD9AB985B7B4C5B5EB3B0DEAD683171565C7BFE171 SWAP1 PUSH1 0x20 ADD PUSH2 0xDB6 JUMP JUMPDEST PUSH0 SLOAD PUSH1 0x1 PUSH1 0x1 PUSH1 0xA0 SHL SUB AND CALLER EQ PUSH2 0x1124 JUMPI PUSH1 0x40 MLOAD PUSH3 0x461BCD PUSH1 0xE5 SHL DUP2 MSTORE PUSH1 0x4 ADD PUSH2 0x789 SWAP1 PUSH2 0x25EC JUMP JUMPDEST PUSH0 DUP1 SLOAD PUSH1 0x1 DUP1 SLOAD PUSH1 0x1 PUSH1 0x1 PUSH1 0xA0 SHL SUB NOT SWAP1 DUP2 AND PUSH1 0x1 PUSH1 0x1 PUSH1 0xA0 SHL SUB DUP5 AND OR SWAP1 SWAP2 SSTORE AND SWAP1 SSTORE PUSH2 0x1152 DUP2 TIMESTAMP PUSH2 0x2649 JUMP JUMPDEST PUSH1 0x2 DUP2 SWAP1 SSTORE PUSH0 DUP1 SLOAD PUSH1 0x40 DUP1 MLOAD PUSH1 0x1 PUSH1 0x1 PUSH1 0xA0 SHL SUB SWAP1 SWAP3 AND DUP3 MSTORE PUSH1 0x20 DUP3 ADD SWAP3 SWAP1 SWAP3 MSTORE SWAP1 DUP2 ADD SWAP2 SWAP1 SWAP2 MSTORE PUSH32 0x989EAA915CBB416EA3D6F9A63B1A3DE51770C7674B11FE21ECDF76B4E1D13910 SWAP1 PUSH1 0x60 ADD PUSH2 0xDB6 JUMP JUMPDEST PUSH0 SLOAD PUSH1 0x1 PUSH1 0x1 PUSH1 0xA0 SHL SUB AND CALLER EQ PUSH2 0x11CD JUMPI PUSH1 0x40 MLOAD PUSH3 0x461BCD PUSH1 0xE5 SHL DUP2 MSTORE PUSH1 0x4 ADD PUSH2 0x789 SWAP1 PUSH2 0x25EC JUMP JUMPDEST PUSH1 0x1 PUSH1 0x1 PUSH1 0xA0 SHL SUB DUP2 AND PUSH0 SWAP1 DUP2 MSTORE PUSH1 0x6 PUSH1 0x20 MSTORE PUSH1 0x40 SWAP1 KECCAK256 SLOAD PUSH1 0xFF AND PUSH2 0x122D JUMPI PUSH1 0x40 MLOAD PUSH3 0x461BCD PUSH1 0xE5 SHL DUP2 MSTORE PUSH1 0x20 PUSH1 0x4 DUP3 ADD MSTORE PUSH1 0x16 PUSH1 0x24 DUP3 ADD MSTORE PUSH22 0x416C7265617920696E636C7564656420696E20666565 PUSH1 0x50 SHL PUSH1 0x44 DUP3 ADD MSTORE PUSH1 0x64 ADD PUSH2 0x789 JUMP JUMPDEST PUSH1 0x1 PUSH1 0x1 PUSH1 0xA0 SHL SUB AND PUSH0 SWAP1 DUP2 MSTORE PUSH1 0x6 PUSH1 0x20 MSTORE PUSH1 0x40 SWAP1 KECCAK256 DUP1 SLOAD PUSH1 0xFF NOT AND SWAP1 SSTORE JUMP JUMPDEST PUSH0 SLOAD PUSH1 0x1 PUSH1 0x1 PUSH1 0xA0 SHL SUB AND CALLER EQ PUSH2 0x1276 JUMPI PUSH1 0x40 MLOAD PUSH3 0x461BCD PUSH1 0xE5 SHL DUP2 MSTORE PUSH1 0x4 ADD PUSH2 0x789 SWAP1 PUSH2 0x25EC JUMP JUMPDEST PUSH1 0x1 PUSH1 0x1 PUSH1 0xA0 SHL SUB DUP2 AND PUSH2 0x12DB JUMPI PUSH1 0x40 MLOAD PUSH3 0x461BCD PUSH1 0xE5 SHL DUP2 MSTORE PUSH1 0x20 PUSH1 0x4 DUP3 ADD MSTORE PUSH1 0x26 PUSH1 0x24 DUP3 ADD MSTORE PUSH32 0x4F776E61626C653A206E6577206F776E657220697320746865207A65726F2061 PUSH1 0x44 DUP3 ADD MSTORE PUSH6 0x646472657373 PUSH1 0xD0 SHL PUSH1 0x64 DUP3 ADD MSTORE PUSH1 0x84 ADD PUSH2 0x789 JUMP JUMPDEST PUSH0 DUP1 SLOAD PUSH1 0x40 MLOAD PUSH1 0x1 PUSH1 0x1 PUSH1 0xA0 SHL SUB DUP1 DUP6 AND SWAP4 SWAP3 AND SWAP2 PUSH32 0x8BE0079C531659141344CD1FD0A4F28419497F9722A3DAAFE3B4186F6B6457E0 SWAP2 LOG3 PUSH0 DUP1 SLOAD PUSH1 0x1 PUSH1 0x1 PUSH1 0xA0 SHL SUB NOT AND PUSH1 0x1 PUSH1 0x1 PUSH1 0xA0 SHL SUB SWAP3 SWAP1 SWAP3 AND SWAP2 SWAP1 SWAP2 OR SWAP1 SSTORE JUMP JUMPDEST PUSH1 0x1 PUSH1 0x1 PUSH1 0xA0 SHL SUB DUP4 AND PUSH2 0x1396 JUMPI PUSH1 0x40 MLOAD PUSH3 0x461BCD PUSH1 0xE5 SHL DUP2 MSTORE PUSH1 0x20 PUSH1 0x4 DUP3 ADD MSTORE PUSH1 0x24 DUP1 DUP3 ADD MSTORE PUSH32 0x45524332303A20617070726F76652066726F6D20746865207A65726F20616464 PUSH1 0x44 DUP3 ADD MSTORE PUSH4 0x72657373 PUSH1 0xE0 SHL PUSH1 0x64 DUP3 ADD MSTORE PUSH1 0x84 ADD PUSH2 0x789 JUMP JUMPDEST PUSH1 0x1 PUSH1 0x1 PUSH1 0xA0 SHL SUB DUP3 AND PUSH2 0x13F7 JUMPI PUSH1 0x40 MLOAD PUSH3 0x461BCD PUSH1 0xE5 SHL DUP2 MSTORE PUSH1 0x20 PUSH1 0x4 DUP3 ADD MSTORE PUSH1 0x22 PUSH1 0x24 DUP3 ADD MSTORE PUSH32 0x45524332303A20617070726F766520746F20746865207A65726F206164647265 PUSH1 0x44 DUP3 ADD MSTORE PUSH2 0x7373 PUSH1 0xF0 SHL PUSH1 0x64 DUP3 ADD MSTORE PUSH1 0x84 ADD PUSH2 0x789 JUMP JUMPDEST PUSH1 0x1 PUSH1 0x1 PUSH1 0xA0 SHL SUB DUP4 DUP2 AND PUSH0 DUP2 DUP2 MSTORE PUSH1 0x5 PUSH1 0x20 SWAP1 DUP2 MSTORE PUSH1 0x40 DUP1 DUP4 KECCAK256 SWAP5 DUP8 AND DUP1 DUP5 MSTORE SWAP5 DUP3 MSTORE SWAP2 DUP3 SWAP1 KECCAK256 DUP6 SWAP1 SSTORE SWAP1 MLOAD DUP5 DUP2 MSTORE PUSH32 0x8C5BE1E5EBEC7D5BD14F71427D1E84F3DD0314C0F7B2291E5B200AC8C7C3B925 SWAP2 ADD PUSH1 0x40 MLOAD DUP1 SWAP2 SUB SWAP1 LOG3 POP POP POP JUMP JUMPDEST PUSH1 0x1 PUSH1 0x1 PUSH1 0xA0 SHL SUB DUP4 AND PUSH2 0x14BB JUMPI PUSH1 0x40 MLOAD PUSH3 0x461BCD PUSH1 0xE5 SHL DUP2 MSTORE PUSH1 0x20 PUSH1 0x4 DUP3 ADD MSTORE PUSH1 0x25 PUSH1 0x24 DUP3 ADD MSTORE PUSH32 0x45524332303A207472616E736665722066726F6D20746865207A65726F206164 PUSH1 0x44 DUP3 ADD MSTORE PUSH5 0x6472657373 PUSH1 0xD8 SHL PUSH1 0x64 DUP3 ADD MSTORE PUSH1 0x84 ADD PUSH2 0x789 JUMP JUMPDEST PUSH1 0x1 PUSH1 0x1 PUSH1 0xA0 SHL SUB DUP3 AND PUSH2 0x151D JUMPI PUSH1 0x40 MLOAD PUSH3 0x461BCD PUSH1 0xE5 SHL DUP2 MSTORE PUSH1 0x20 PUSH1 0x4 DUP3 ADD MSTORE PUSH1 0x23 PUSH1 0x24 DUP3 ADD MSTORE PUSH32 0x45524332303A207472616E7366657220746F20746865207A65726F2061646472 PUSH1 0x44 DUP3 ADD MSTORE PUSH3 0x657373 PUSH1 0xE8 SHL PUSH1 0x64 DUP3 ADD MSTORE PUSH1 0x84 ADD PUSH2 0x789 JUMP JUMPDEST PUSH0 DUP2 GT PUSH2 0x157E JUMPI PUSH1 0x40 MLOAD PUSH3 0x461BCD PUSH1 0xE5 SHL DUP2 MSTORE PUSH1 0x20 PUSH1 0x4 DUP3 ADD MSTORE PUSH1 0x29 PUSH1 0x24 DUP3 ADD MSTORE PUSH32 0x5472616E7366657220616D6F756E74206D757374206265206772656174657220 PUSH1 0x44 DUP3 ADD MSTORE PUSH9 0x7468616E207A65726F PUSH1 0xB8 SHL PUSH1 0x64 DUP3 ADD MSTORE PUSH1 0x84 ADD PUSH2 0x789 JUMP JUMPDEST PUSH0 PUSH2 0x1588 ADDRESS PUSH2 0xDC1 JUMP JUMPDEST PUSH1 0xD SLOAD SWAP1 SWAP2 POP DUP2 LT DUP1 ISZERO SWAP1 DUP2 SWAP1 PUSH2 0x15A2 JUMPI POP PUSH1 0xC SLOAD PUSH1 0xFF AND ISZERO JUMPDEST DUP1 ISZERO PUSH2 0x15E0 JUMPI POP PUSH32 0x0 PUSH1 0x1 PUSH1 0x1 PUSH1 0xA0 SHL SUB AND DUP6 PUSH1 0x1 PUSH1 0x1 PUSH1 0xA0 SHL SUB AND EQ ISZERO JUMPDEST DUP1 ISZERO PUSH2 0x15F3 JUMPI POP PUSH1 0xC SLOAD PUSH2 0x100 SWAP1 DIV PUSH1 0xFF AND JUMPDEST ISZERO PUSH2 0x1606 JUMPI PUSH1 0xD SLOAD SWAP2 POP PUSH2 0x1606 DUP3 PUSH2 0x16CB JUMP JUMPDEST PUSH1 0x1 PUSH1 0x1 PUSH1 0xA0 SHL SUB DUP6 AND PUSH0 SWAP1 DUP2 MSTORE PUSH1 0x6 PUSH1 0x20 MSTORE PUSH1 0x40 SWAP1 KECCAK256 SLOAD PUSH1 0x1 SWAP1 PUSH1 0xFF AND DUP1 PUSH2 0x1646 JUMPI POP PUSH1 0x1 PUSH1 0x1 PUSH1 0xA0 SHL SUB DUP6 AND PUSH0 SWAP1 DUP2 MSTORE PUSH1 0x6 PUSH1 0x20 MSTORE PUSH1 0x40 SWAP1 KECCAK256 SLOAD PUSH1 0xFF AND JUMPDEST ISZERO PUSH2 0x164E JUMPI POP PUSH0 JUMPDEST DUP1 ISZERO PUSH2 0x165E JUMPI PUSH2 0x165E DUP7 DUP7 PUSH2 0x1766 JUMP JUMPDEST PUSH2 0x166A DUP7 DUP7 DUP7 DUP5 PUSH2 0x1809 JUMP JUMPDEST POP POP POP POP POP POP JUMP JUMPDEST PUSH0 DUP1 PUSH0 PUSH2 0x167D PUSH2 0x1978 JUMP JUMPDEST SWAP1 SWAP3 POP SWAP1 POP PUSH2 0x168C DUP2 DUP4 PUSH2 0x25CD JUMP JUMPDEST SWAP3 POP POP POP SWAP1 JUMP JUMPDEST PUSH0 DUP1 PUSH0 DUP1 PUSH0 DUP1 PUSH2 0x16A2 DUP8 PUSH2 0x1AE8 JUMP JUMPDEST SWAP5 POP SWAP5 POP SWAP5 POP SWAP5 POP POP PUSH0 DUP1 PUSH2 0x16BA DUP10 DUP8 DUP8 DUP8 DUP8 PUSH2 0x1B5F JUMP JUMPDEST POP SWAP1 SWAP11 SWAP1 SWAP10 POP SWAP8 POP POP POP POP POP POP POP POP JUMP JUMPDEST PUSH1 0xC DUP1 SLOAD PUSH1 0xFF NOT AND PUSH1 0x1 OR SWAP1 SSTORE PUSH0 PUSH2 0x16E4 PUSH1 0x2 DUP4 PUSH2 0x25CD JUMP JUMPDEST SWAP1 POP PUSH0 PUSH2 0x16F1 DUP3 DUP5 PUSH2 0x25BA JUMP JUMPDEST SWAP1 POP SELFBALANCE PUSH2 0x16FD DUP4 PUSH2 0x1BF6 JUMP JUMPDEST PUSH0 PUSH2 0x1708 DUP3 SELFBALANCE PUSH2 0x25BA JUMP JUMPDEST SWAP1 POP PUSH2 0x1714 DUP4 DUP3 PUSH2 0x1DA4 JUMP JUMPDEST PUSH1 0x40 DUP1 MLOAD DUP6 DUP2 MSTORE PUSH1 0x20 DUP2 ADD DUP4 SWAP1 MSTORE SWAP1 DUP2 ADD DUP5 SWAP1 MSTORE PUSH32 0x17BBFB9A6069321B6DED73BD96327C9E6B7212A5CD51FF219CD61370ACAFB561 SWAP1 PUSH1 0x60 ADD PUSH1 0x40 MLOAD DUP1 SWAP2 SUB SWAP1 LOG1 POP POP PUSH1 0xC DUP1 SLOAD PUSH1 0xFF NOT AND SWAP1 SSTORE POP POP POP JUMP JUMPDEST PUSH1 0x1 PUSH1 0x1 PUSH1 0xA0 SHL SUB DUP3 DUP2 AND PUSH32 0x0 DUP3 AND SWAP1 DUP2 EQ SWAP2 DUP4 AND EQ PUSH1 0x1 DUP1 DUP1 PUSH0 PUSH1 0x2 DUP3 DUP2 DUP2 DUP10 ISZERO PUSH2 0x17C4 JUMPI PUSH1 0xE DUP9 SWAP1 SSTORE PUSH1 0xF DUP8 SWAP1 SSTORE PUSH1 0x10 DUP7 SWAP1 SSTORE PUSH1 0x11 DUP6 SWAP1 SSTORE PUSH2 0x17FB JUMP JUMPDEST DUP9 ISZERO PUSH2 0x17E3 JUMPI PUSH1 0xE DUP5 SWAP1 SSTORE PUSH1 0xF DUP4 SWAP1 SSTORE PUSH1 0x10 DUP3 SWAP1 SSTORE PUSH1 0x11 DUP2 SWAP1 SSTORE PUSH2 0x17FB JUMP JUMPDEST PUSH2 0x17FB PUSH0 PUSH1 0xE DUP2 SWAP1 SSTORE PUSH1 0xF DUP2 SWAP1 SSTORE PUSH1 0x10 DUP2 SWAP1 SSTORE PUSH1 0x11 SSTORE JUMP JUMPDEST POP POP POP POP POP POP POP POP POP POP POP POP JUMP JUMPDEST DUP1 PUSH2 0x1826 JUMPI PUSH2 0x1826 PUSH0 PUSH1 0xE DUP2 SWAP1 SSTORE PUSH1 0xF DUP2 SWAP1 SSTORE PUSH1 0x10 DUP2 SWAP1 SSTORE PUSH1 0x11 SSTORE JUMP JUMPDEST PUSH1 0x1 PUSH1 0x1 PUSH1 0xA0 SHL SUB DUP5 AND PUSH0 SWAP1 DUP2 MSTORE PUSH1 0x7 PUSH1 0x20 MSTORE PUSH1 0x40 SWAP1 KECCAK256 SLOAD PUSH1 0xFF AND DUP1 ISZERO PUSH2 0x1865 JUMPI POP PUSH1 0x1 PUSH1 0x1 PUSH1 0xA0 SHL SUB DUP4 AND PUSH0 SWAP1 DUP2 MSTORE PUSH1 0x7 PUSH1 0x20 MSTORE PUSH1 0x40 SWAP1 KECCAK256 SLOAD PUSH1 0xFF AND ISZERO JUMPDEST ISZERO PUSH2 0x187A JUMPI PUSH2 0x1875 DUP5 DUP5 DUP5 PUSH2 0x1EA6 JUMP JUMPDEST PUSH2 0x1972 JUMP JUMPDEST PUSH1 0x1 PUSH1 0x1 PUSH1 0xA0 SHL SUB DUP5 AND PUSH0 SWAP1 DUP2 MSTORE PUSH1 0x7 PUSH1 0x20 MSTORE PUSH1 0x40 SWAP1 KECCAK256 SLOAD PUSH1 0xFF AND ISZERO DUP1 ISZERO PUSH2 0x18B9 JUMPI POP PUSH1 0x1 PUSH1 0x1 PUSH1 0xA0 SHL SUB DUP4 AND PUSH0 SWAP1 DUP2 MSTORE PUSH1 0x7 PUSH1 0x20 MSTORE PUSH1 0x40 SWAP1 KECCAK256 SLOAD PUSH1 0xFF AND JUMPDEST ISZERO PUSH2 0x18C9 JUMPI PUSH2 0x1875 DUP5 DUP5 DUP5 PUSH2 0x1FE6 JUMP JUMPDEST PUSH1 0x1 PUSH1 0x1 PUSH1 0xA0 SHL SUB DUP5 AND PUSH0 SWAP1 DUP2 MSTORE PUSH1 0x7 PUSH1 0x20 MSTORE PUSH1 0x40 SWAP1 KECCAK256 SLOAD PUSH1 0xFF AND ISZERO DUP1 ISZERO PUSH2 0x1909 JUMPI POP PUSH1 0x1 PUSH1 0x1 PUSH1 0xA0 SHL SUB DUP4 AND PUSH0 SWAP1 DUP2 MSTORE PUSH1 0x7 PUSH1 0x20 MSTORE PUSH1 0x40 SWAP1 KECCAK256 SLOAD PUSH1 0xFF AND ISZERO JUMPDEST ISZERO PUSH2 0x1919 JUMPI PUSH2 0x1875 DUP5 DUP5 DUP5 PUSH2 0x209E JUMP JUMPDEST PUSH1 0x1 PUSH1 0x1 PUSH1 0xA0 SHL SUB DUP5 AND PUSH0 SWAP1 DUP2 MSTORE PUSH1 0x7 PUSH1 0x20 MSTORE PUSH1 0x40 SWAP1 KECCAK256 SLOAD PUSH1 0xFF AND DUP1 ISZERO PUSH2 0x1957 JUMPI POP PUSH1 0x1 PUSH1 0x1 PUSH1 0xA0 SHL SUB DUP4 AND PUSH0 SWAP1 DUP2 MSTORE PUSH1 0x7 PUSH1 0x20 MSTORE PUSH1 0x40 SWAP1 KECCAK256 SLOAD PUSH1 0xFF AND JUMPDEST ISZERO PUSH2 0x1967 JUMPI PUSH2 0x1875 DUP5 DUP5 DUP5 PUSH2 0x20F1 JUMP JUMPDEST PUSH2 0x1972 DUP5 DUP5 DUP5 PUSH2 0x209E JUMP JUMPDEST POP POP POP POP JUMP JUMPDEST PUSH1 0xA SLOAD PUSH1 0x9 SLOAD PUSH0 SWAP2 DUP3 SWAP2 DUP3 JUMPDEST PUSH1 0x8 SLOAD DUP2 LT ISZERO PUSH2 0x1AB7 JUMPI DUP3 PUSH1 0x3 PUSH0 PUSH1 0x8 DUP5 DUP2 SLOAD DUP2 LT PUSH2 0x19A5 JUMPI PUSH2 0x19A5 PUSH2 0x2621 JUMP JUMPDEST PUSH0 SWAP2 DUP3 MSTORE PUSH1 0x20 DUP1 DUP4 KECCAK256 SWAP1 SWAP2 ADD SLOAD PUSH1 0x1 PUSH1 0x1 PUSH1 0xA0 SHL SUB AND DUP4 MSTORE DUP3 ADD SWAP3 SWAP1 SWAP3 MSTORE PUSH1 0x40 ADD SWAP1 KECCAK256 SLOAD GT DUP1 PUSH2 0x1A0D JUMPI POP DUP2 PUSH1 0x4 PUSH0 PUSH1 0x8 DUP5 DUP2 SLOAD DUP2 LT PUSH2 0x19E7 JUMPI PUSH2 0x19E7 PUSH2 0x2621 JUMP JUMPDEST PUSH0 SWAP2 DUP3 MSTORE PUSH1 0x20 DUP1 DUP4 KECCAK256 SWAP1 SWAP2 ADD SLOAD PUSH1 0x1 PUSH1 0x1 PUSH1 0xA0 SHL SUB AND DUP4 MSTORE DUP3 ADD SWAP3 SWAP1 SWAP3 MSTORE PUSH1 0x40 ADD SWAP1 KECCAK256 SLOAD GT JUMPDEST ISZERO PUSH2 0x1A23 JUMPI PUSH1 0xA SLOAD PUSH1 0x9 SLOAD SWAP5 POP SWAP5 POP POP POP POP SWAP1 SWAP2 JUMP JUMPDEST PUSH1 0x3 PUSH0 PUSH1 0x8 DUP4 DUP2 SLOAD DUP2 LT PUSH2 0x1A39 JUMPI PUSH2 0x1A39 PUSH2 0x2621 JUMP JUMPDEST PUSH0 SWAP2 DUP3 MSTORE PUSH1 0x20 DUP1 DUP4 KECCAK256 SWAP1 SWAP2 ADD SLOAD PUSH1 0x1 PUSH1 0x1 PUSH1 0xA0 SHL SUB AND DUP4 MSTORE DUP3 ADD SWAP3 SWAP1 SWAP3 MSTORE PUSH1 0x40 ADD SWAP1 KECCAK256 SLOAD PUSH2 0x1A67 SWAP1 DUP5 PUSH2 0x25BA JUMP JUMPDEST SWAP3 POP PUSH1 0x4 PUSH0 PUSH1 0x8 DUP4 DUP2 SLOAD DUP2 LT PUSH2 0x1A7F JUMPI PUSH2 0x1A7F PUSH2 0x2621 JUMP JUMPDEST PUSH0 SWAP2 DUP3 MSTORE PUSH1 0x20 DUP1 DUP4 KECCAK256 SWAP1 SWAP2 ADD SLOAD PUSH1 0x1 PUSH1 0x1 PUSH1 0xA0 SHL SUB AND DUP4 MSTORE DUP3 ADD SWAP3 SWAP1 SWAP3 MSTORE PUSH1 0x40 ADD SWAP1 KECCAK256 SLOAD PUSH2 0x1AAD SWAP1 DUP4 PUSH2 0x25BA JUMP JUMPDEST SWAP2 POP PUSH1 0x1 ADD PUSH2 0x1984 JUMP JUMPDEST POP PUSH1 0x9 SLOAD PUSH1 0xA SLOAD PUSH2 0x1AC8 SWAP2 SWAP1 PUSH2 0x25CD JUMP JUMPDEST DUP3 LT ISZERO PUSH2 0x1ADF JUMPI PUSH1 0xA SLOAD PUSH1 0x9 SLOAD SWAP4 POP SWAP4 POP POP POP SWAP1 SWAP2 JUMP JUMPDEST SWAP1 SWAP4 SWAP1 SWAP3 POP SWAP1 POP JUMP JUMPDEST PUSH0 DUP1 PUSH0 DUP1 PUSH0 DUP1 PUSH2 0x1AF7 DUP8 PUSH2 0x2173 JUMP JUMPDEST SWAP1 POP PUSH0 PUSH2 0x1B03 DUP9 PUSH2 0x218E JUMP JUMPDEST SWAP1 POP PUSH0 PUSH2 0x1B0F DUP10 PUSH2 0x219F JUMP JUMPDEST SWAP1 POP PUSH0 PUSH2 0x1B1B DUP11 PUSH2 0x21B0 JUMP JUMPDEST SWAP1 POP PUSH0 DUP2 DUP4 PUSH2 0x1B2A DUP7 DUP9 PUSH2 0x2649 JUMP JUMPDEST PUSH2 0x1B34 SWAP2 SWAP1 PUSH2 0x2649 JUMP JUMPDEST PUSH2 0x1B3E SWAP2 SWAP1 PUSH2 0x2649 JUMP JUMPDEST SWAP1 POP PUSH0 PUSH2 0x1B4B DUP3 DUP14 PUSH2 0x25BA JUMP JUMPDEST SWAP13 SWAP6 SWAP12 POP SWAP4 SWAP10 POP SWAP2 SWAP8 POP SWAP6 POP SWAP2 SWAP4 POP POP POP POP JUMP JUMPDEST PUSH0 DUP1 PUSH0 DUP1 PUSH2 0x1B6B PUSH2 0x1672 JUMP JUMPDEST SWAP1 POP PUSH0 PUSH2 0x1B78 DUP3 DUP12 PUSH2 0x265C JUMP JUMPDEST SWAP1 POP PUSH0 PUSH2 0x1B85 DUP4 DUP12 PUSH2 0x265C JUMP JUMPDEST SWAP1 POP PUSH0 PUSH2 0x1B92 DUP5 DUP11 PUSH2 0x265C JUMP JUMPDEST SWAP1 POP PUSH0 PUSH2 0x1B9F DUP6 DUP11 PUSH2 0x265C JUMP JUMPDEST SWAP1 POP PUSH0 PUSH2 0x1BAC DUP7 DUP14 PUSH2 0x265C JUMP JUMPDEST SWAP1 POP PUSH0 DUP2 DUP4 PUSH2 0x1BBB DUP7 DUP9 PUSH2 0x2649 JUMP JUMPDEST PUSH2 0x1BC5 SWAP2 SWAP1 PUSH2 0x2649 JUMP JUMPDEST PUSH2 0x1BCF SWAP2 SWAP1 PUSH2 0x2649 JUMP JUMPDEST SWAP1 POP PUSH0 PUSH2 0x1BDC DUP3 DUP9 PUSH2 0x25BA JUMP JUMPDEST SWAP7 SWAP11 POP SWAP6 SWAP9 POP SWAP4 SWAP7 POP POP POP POP POP POP POP SWAP6 POP SWAP6 POP SWAP6 SWAP3 POP POP POP JUMP JUMPDEST PUSH1 0x40 DUP1 MLOAD PUSH1 0x2 DUP1 DUP3 MSTORE PUSH1 0x60 DUP3 ADD DUP4 MSTORE PUSH0 SWAP3 PUSH1 0x20 DUP4 ADD SWAP1 DUP1 CALLDATASIZE DUP4 CALLDATACOPY ADD SWAP1 POP POP SWAP1 POP ADDRESS DUP2 PUSH0 DUP2 MLOAD DUP2 LT PUSH2 0x1C29 JUMPI PUSH2 0x1C29 PUSH2 0x2621 JUMP JUMPDEST PUSH1 0x20 MUL PUSH1 0x20 ADD ADD SWAP1 PUSH1 0x1 PUSH1 0x1 PUSH1 0xA0 SHL SUB AND SWAP1 DUP2 PUSH1 0x1 PUSH1 0x1 PUSH1 0xA0 SHL SUB AND DUP2 MSTORE POP POP PUSH32 0x0 PUSH1 0x1 PUSH1 0x1 PUSH1 0xA0 SHL SUB AND PUSH4 0xAD5C4648 PUSH1 0x40 MLOAD DUP2 PUSH4 0xFFFFFFFF AND PUSH1 0xE0 SHL DUP2 MSTORE PUSH1 0x4 ADD PUSH1 0x20 PUSH1 0x40 MLOAD DUP1 DUP4 SUB DUP2 DUP7 GAS STATICCALL ISZERO DUP1 ISZERO PUSH2 0x1CA5 JUMPI RETURNDATASIZE PUSH0 DUP1 RETURNDATACOPY RETURNDATASIZE PUSH0 REVERT JUMPDEST POP POP POP POP PUSH1 0x40 MLOAD RETURNDATASIZE PUSH1 0x1F NOT PUSH1 0x1F DUP3 ADD AND DUP3 ADD DUP1 PUSH1 0x40 MSTORE POP DUP2 ADD SWAP1 PUSH2 0x1CC9 SWAP2 SWAP1 PUSH2 0x2673 JUMP JUMPDEST DUP2 PUSH1 0x1 DUP2 MLOAD DUP2 LT PUSH2 0x1CDC JUMPI PUSH2 0x1CDC PUSH2 0x2621 JUMP JUMPDEST PUSH1 0x20 MUL PUSH1 0x20 ADD ADD SWAP1 PUSH1 0x1 PUSH1 0x1 PUSH1 0xA0 SHL SUB AND SWAP1 DUP2 PUSH1 0x1 PUSH1 0x1 PUSH1 0xA0 SHL SUB AND DUP2 MSTORE POP POP PUSH2 0x1D27 ADDRESS PUSH32 0x0 DUP5 PUSH2 0x1334 JUMP JUMPDEST PUSH1 0x40 MLOAD PUSH4 0x791AC947 PUSH1 0xE0 SHL DUP2 MSTORE PUSH1 0x1 PUSH1 0x1 PUSH1 0xA0 SHL SUB PUSH32 0x0 AND SWAP1 PUSH4 0x791AC947 SWAP1 PUSH2 0x1D7B SWAP1 DUP6 SWAP1 PUSH0 SWAP1 DUP7 SWAP1 ADDRESS SWAP1 TIMESTAMP SWAP1 PUSH1 0x4 ADD PUSH2 0x268E JUMP JUMPDEST PUSH0 PUSH1 0x40 MLOAD DUP1 DUP4 SUB DUP2 PUSH0 DUP8 DUP1 EXTCODESIZE ISZERO DUP1 ISZERO PUSH2 0x1D92 JUMPI PUSH0 DUP1 REVERT JUMPDEST POP GAS CALL ISZERO DUP1 ISZERO PUSH2 0x166A JUMPI RETURNDATASIZE PUSH0 DUP1 RETURNDATACOPY RETURNDATASIZE PUSH0 REVERT JUMPDEST PUSH2 0x1DCF ADDRESS PUSH32 0x0 DUP5 PUSH2 0x1334 JUMP JUMPDEST PUSH32 0x0 PUSH1 0x1 PUSH1 0x1 PUSH1 0xA0 SHL SUB AND PUSH4 0xF305D719 DUP3 ADDRESS DUP6 PUSH0 DUP1 PUSH2 0x1E14 PUSH0 SLOAD PUSH1 0x1 PUSH1 0x1 PUSH1 0xA0 SHL SUB AND SWAP1 JUMP JUMPDEST PUSH1 0x40 MLOAD PUSH1 0xE0 DUP9 SWAP1 SHL PUSH1 0x1 PUSH1 0x1 PUSH1 0xE0 SHL SUB NOT AND DUP2 MSTORE PUSH1 0x1 PUSH1 0x1 PUSH1 0xA0 SHL SUB SWAP6 DUP7 AND PUSH1 0x4 DUP3 ADD MSTORE PUSH1 0x24 DUP2 ADD SWAP5 SWAP1 SWAP5 MSTORE PUSH1 0x44 DUP5 ADD SWAP3 SWAP1 SWAP3 MSTORE PUSH1 0x64 DUP4 ADD MSTORE SWAP1 SWAP2 AND PUSH1 0x84 DUP3 ADD MSTORE TIMESTAMP PUSH1 0xA4 DUP3 ADD MSTORE PUSH1 0xC4 ADD PUSH1 0x60 PUSH1 0x40 MLOAD DUP1 DUP4 SUB DUP2 DUP6 DUP9 GAS CALL ISZERO DUP1 ISZERO PUSH2 0x1E7A JUMPI RETURNDATASIZE PUSH0 DUP1 RETURNDATACOPY RETURNDATASIZE PUSH0 REVERT JUMPDEST POP POP POP POP POP PUSH1 0x40 MLOAD RETURNDATASIZE PUSH1 0x1F NOT PUSH1 0x1F DUP3 ADD AND DUP3 ADD DUP1 PUSH1 0x40 MSTORE POP DUP2 ADD SWAP1 PUSH2 0x1E9F SWAP2 SWAP1 PUSH2 0x26FF JUMP JUMPDEST POP POP POP POP POP JUMP JUMPDEST PUSH0 DUP1 PUSH0 DUP1 PUSH0 PUSH2 0x1EB4 DUP7 PUSH2 0x21C1 JUMP JUMPDEST SWAP5 POP SWAP5 POP SWAP5 POP SWAP5 POP SWAP5 POP PUSH0 DUP1 PUSH0 PUSH2 0x1ECE DUP10 DUP9 DUP9 DUP9 DUP9 PUSH2 0x1B5F JUMP JUMPDEST PUSH1 0x1 PUSH1 0x1 PUSH1 0xA0 SHL SUB DUP15 AND PUSH0 SWAP1 DUP2 MSTORE PUSH1 0x4 PUSH1 0x20 MSTORE PUSH1 0x40 SWAP1 KECCAK256 SLOAD SWAP3 SWAP6 POP SWAP1 SWAP4 POP SWAP2 POP PUSH2 0x1EF9 SWAP1 DUP11 SWAP1 PUSH2 0x25BA JUMP JUMPDEST PUSH1 0x1 PUSH1 0x1 PUSH1 0xA0 SHL SUB DUP13 AND PUSH0 SWAP1 DUP2 MSTORE PUSH1 0x4 PUSH1 0x20 SWAP1 DUP2 MSTORE PUSH1 0x40 DUP1 DUP4 KECCAK256 SWAP4 SWAP1 SWAP4 SSTORE PUSH1 0x3 SWAP1 MSTORE KECCAK256 SLOAD PUSH2 0x1F28 SWAP1 DUP5 SWAP1 PUSH2 0x25BA JUMP JUMPDEST PUSH1 0x1 PUSH1 0x1 PUSH1 0xA0 SHL SUB DUP1 DUP14 AND PUSH0 SWAP1 DUP2 MSTORE PUSH1 0x3 PUSH1 0x20 MSTORE PUSH1 0x40 DUP1 DUP3 KECCAK256 SWAP4 SWAP1 SWAP4 SSTORE SWAP1 DUP13 AND DUP2 MSTORE KECCAK256 SLOAD PUSH2 0x1F57 SWAP1 DUP4 SWAP1 PUSH2 0x2649 JUMP JUMPDEST PUSH1 0x1 PUSH1 0x1 PUSH1 0xA0 SHL SUB DUP12 AND PUSH0 SWAP1 DUP2 MSTORE PUSH1 0x3 PUSH1 0x20 MSTORE PUSH1 0x40 SWAP1 KECCAK256 SSTORE PUSH2 0x1F78 DUP7 PUSH2 0x21EB JUMP JUMPDEST PUSH2 0x1F83 DUP2 DUP9 DUP7 PUSH2 0x22A4 JUMP JUMPDEST PUSH2 0x1F8C DUP6 PUSH2 0x2334 JUMP JUMPDEST DUP10 PUSH1 0x1 PUSH1 0x1 PUSH1 0xA0 SHL SUB AND DUP12 PUSH1 0x1 PUSH1 0x1 PUSH1 0xA0 SHL SUB AND PUSH32 0xDDF252AD1BE2C89B69C2B068FC378DAA952BA7F163C4A11628F55A4DF523B3EF DUP11 PUSH1 0x40 MLOAD PUSH2 0x1FD1 SWAP2 DUP2 MSTORE PUSH1 0x20 ADD SWAP1 JUMP JUMPDEST PUSH1 0x40 MLOAD DUP1 SWAP2 SUB SWAP1 LOG3 POP POP POP POP POP POP POP POP POP POP POP JUMP JUMPDEST PUSH0 DUP1 PUSH0 DUP1 PUSH0 PUSH2 0x1FF4 DUP7 PUSH2 0x21C1 JUMP JUMPDEST SWAP5 POP SWAP5 POP SWAP5 POP SWAP5 POP SWAP5 POP PUSH0 DUP1 PUSH0 PUSH2 0x200E DUP10 DUP9 DUP9 DUP9 DUP9 PUSH2 0x1B5F JUMP JUMPDEST PUSH1 0x1 PUSH1 0x1 PUSH1 0xA0 SHL SUB DUP15 AND PUSH0 SWAP1 DUP2 MSTORE PUSH1 0x3 PUSH1 0x20 MSTORE PUSH1 0x40 SWAP1 KECCAK256 SLOAD SWAP3 SWAP6 POP SWAP1 SWAP4 POP SWAP2 POP PUSH2 0x2039 SWAP1 DUP5 SWAP1 PUSH2 0x25BA JUMP JUMPDEST PUSH1 0x1 PUSH1 0x1 PUSH1 0xA0 SHL SUB DUP1 DUP14 AND PUSH0 SWAP1 DUP2 MSTORE PUSH1 0x3 PUSH1 0x20 SWAP1 DUP2 MSTORE PUSH1 0x40 DUP1 DUP4 KECCAK256 SWAP5 SWAP1 SWAP5 SSTORE SWAP2 DUP14 AND DUP2 MSTORE PUSH1 0x4 SWAP1 SWAP2 MSTORE KECCAK256 SLOAD PUSH2 0x206F SWAP1 DUP10 SWAP1 PUSH2 0x2649 JUMP JUMPDEST PUSH1 0x1 PUSH1 0x1 PUSH1 0xA0 SHL SUB DUP12 AND PUSH0 SWAP1 DUP2 MSTORE PUSH1 0x4 PUSH1 0x20 SWAP1 DUP2 MSTORE PUSH1 0x40 DUP1 DUP4 KECCAK256 SWAP4 SWAP1 SWAP4 SSTORE PUSH1 0x3 SWAP1 MSTORE KECCAK256 SLOAD PUSH2 0x1F57 SWAP1 DUP4 SWAP1 PUSH2 0x2649 JUMP JUMPDEST PUSH0 DUP1 PUSH0 DUP1 PUSH0 PUSH2 0x20AC DUP7 PUSH2 0x21C1 JUMP JUMPDEST SWAP5 POP SWAP5 POP SWAP5 POP SWAP5 POP SWAP5 POP PUSH0 DUP1 PUSH0 PUSH2 0x20C6 DUP10 DUP9 DUP9 DUP9 DUP9 PUSH2 0x1B5F JUMP JUMPDEST PUSH1 0x1 PUSH1 0x1 PUSH1 0xA0 SHL SUB DUP15 AND PUSH0 SWAP1 DUP2 MSTORE PUSH1 0x3 PUSH1 0x20 MSTORE PUSH1 0x40 SWAP1 KECCAK256 SLOAD SWAP3 SWAP6 POP SWAP1 SWAP4 POP SWAP2 POP PUSH2 0x1F28 SWAP1 DUP5 SWAP1 PUSH2 0x25BA JUMP JUMPDEST PUSH0 DUP1 PUSH0 DUP1 PUSH0 PUSH2 0x20FF DUP7 PUSH2 0x21C1 JUMP JUMPDEST SWAP5 POP SWAP5 POP SWAP5 POP SWAP5 POP SWAP5 POP PUSH0 DUP1 PUSH0 PUSH2 0x2119 DUP10 DUP9 DUP9 DUP9 DUP9 PUSH2 0x1B5F JUMP JUMPDEST PUSH1 0x1 PUSH1 0x1 PUSH1 0xA0 SHL SUB DUP15 AND PUSH0 SWAP1 DUP2 MSTORE PUSH1 0x4 PUSH1 0x20 MSTORE PUSH1 0x40 SWAP1 KECCAK256 SLOAD SWAP3 SWAP6 POP SWAP1 SWAP4 POP SWAP2 POP PUSH2 0x2144 SWAP1 DUP11 SWAP1 PUSH2 0x25BA JUMP JUMPDEST PUSH1 0x1 PUSH1 0x1 PUSH1 0xA0 SHL SUB DUP13 AND PUSH0 SWAP1 DUP2 MSTORE PUSH1 0x4 PUSH1 0x20 SWAP1 DUP2 MSTORE PUSH1 0x40 DUP1 DUP4 KECCAK256 SWAP4 SWAP1 SWAP4 SSTORE PUSH1 0x3 SWAP1 MSTORE KECCAK256 SLOAD PUSH2 0x2039 SWAP1 DUP5 SWAP1 PUSH2 0x25BA JUMP JUMPDEST PUSH0 PUSH1 0x64 PUSH1 0xE SLOAD DUP4 PUSH2 0x2184 SWAP2 SWAP1 PUSH2 0x265C JUMP JUMPDEST PUSH2 0x6D1 SWAP2 SWAP1 PUSH2 0x25CD JUMP JUMPDEST PUSH0 PUSH1 0x64 PUSH1 0x10 SLOAD DUP4 PUSH2 0x2184 SWAP2 SWAP1 PUSH2 0x265C JUMP JUMPDEST PUSH0 PUSH1 0x64 PUSH1 0xF SLOAD DUP4 PUSH2 0x2184 SWAP2 SWAP1 PUSH2 0x265C JUMP JUMPDEST PUSH0 PUSH1 0x64 PUSH1 0x11 SLOAD DUP4 PUSH2 0x2184 SWAP2 SWAP1 PUSH2 0x265C JUMP JUMPDEST PUSH0 DUP1 PUSH0 DUP1 PUSH0 DUP1 PUSH0 DUP1 PUSH0 DUP1 PUSH2 0x21D4 DUP12 PUSH2 0x1AE8 JUMP JUMPDEST SWAP4 SWAP16 SWAP3 SWAP15 POP SWAP1 SWAP13 POP SWAP11 POP SWAP1 SWAP9 POP SWAP7 POP POP POP POP POP POP POP JUMP JUMPDEST PUSH0 PUSH2 0x21F4 PUSH2 0x1672 JUMP JUMPDEST SWAP1 POP PUSH0 PUSH2 0x2201 DUP3 DUP5 PUSH2 0x265C JUMP JUMPDEST ADDRESS PUSH0 SWAP1 DUP2 MSTORE PUSH1 0x3 PUSH1 0x20 MSTORE PUSH1 0x40 SWAP1 KECCAK256 SLOAD SWAP1 SWAP2 POP PUSH2 0x221E SWAP1 DUP3 SWAP1 PUSH2 0x2649 JUMP JUMPDEST ADDRESS PUSH0 SWAP1 DUP2 MSTORE PUSH1 0x3 PUSH1 0x20 SWAP1 DUP2 MSTORE PUSH1 0x40 DUP1 DUP4 KECCAK256 SWAP4 SWAP1 SWAP4 SSTORE PUSH1 0x7 SWAP1 MSTORE KECCAK256 SLOAD PUSH1 0xFF AND ISZERO PUSH2 0x226B JUMPI ADDRESS PUSH0 SWAP1 DUP2 MSTORE PUSH1 0x4 PUSH1 0x20 MSTORE PUSH1 0x40 SWAP1 KECCAK256 SLOAD PUSH2 0x225B SWAP1 DUP5 SWAP1 PUSH2 0x2649 JUMP JUMPDEST ADDRESS PUSH0 SWAP1 DUP2 MSTORE PUSH1 0x4 PUSH1 0x20 MSTORE PUSH1 0x40 SWAP1 KECCAK256 SSTORE JUMPDEST PUSH1 0x40 MLOAD DUP4 DUP2 MSTORE PUSH32 0x3A8AB79F6D1537E459A1A8379F48A77E1FFD07DDA4B16EA97074FDAB5DD8BF34 SWAP1 PUSH1 0x20 ADD JUMPDEST PUSH1 0x40 MLOAD DUP1 SWAP2 SUB SWAP1 LOG1 POP POP POP JUMP JUMPDEST PUSH0 PUSH2 0x22AD PUSH2 0x1672 JUMP JUMPDEST SWAP1 POP PUSH0 PUSH2 0x22BA DUP3 DUP5 PUSH2 0x265C JUMP JUMPDEST SWAP1 POP DUP1 DUP6 PUSH1 0xA SLOAD PUSH2 0x22CB SWAP2 SWAP1 PUSH2 0x25BA JUMP JUMPDEST PUSH2 0x22D5 SWAP2 SWAP1 PUSH2 0x25BA JUMP JUMPDEST PUSH1 0xA SSTORE PUSH1 0xB SLOAD PUSH2 0x22E6 SWAP1 DUP6 SWAP1 PUSH2 0x2649 JUMP JUMPDEST PUSH1 0xB SSTORE PUSH1 0x9 SLOAD PUSH2 0x22F7 SWAP1 DUP5 SWAP1 PUSH2 0x25BA JUMP JUMPDEST PUSH1 0x9 SSTORE PUSH1 0x40 MLOAD DUP5 DUP2 MSTORE PUSH32 0x56B5DF500587465B57D8CE799CC562A294F136B75A13718C574D9D36BD828058 SWAP1 PUSH1 0x20 ADD PUSH1 0x40 MLOAD DUP1 SWAP2 SUB SWAP1 LOG1 POP POP POP POP POP JUMP JUMPDEST PUSH0 PUSH2 0x233D PUSH2 0x1672 JUMP JUMPDEST SWAP1 POP PUSH0 PUSH2 0x234A DUP3 DUP5 PUSH2 0x265C JUMP JUMPDEST PUSH1 0x12 SLOAD PUSH1 0x1 PUSH1 0x1 PUSH1 0xA0 SHL SUB AND PUSH0 SWAP1 DUP2 MSTORE PUSH1 0x3 PUSH1 0x20 MSTORE PUSH1 0x40 SWAP1 KECCAK256 SLOAD SWAP1 SWAP2 POP PUSH2 0x2372 SWAP1 DUP3 SWAP1 PUSH2 0x2649 JUMP JUMPDEST PUSH1 0x12 DUP1 SLOAD PUSH1 0x1 PUSH1 0x1 PUSH1 0xA0 SHL SUB SWAP1 DUP2 AND PUSH0 SWAP1 DUP2 MSTORE PUSH1 0x3 PUSH1 0x20 SWAP1 DUP2 MSTORE PUSH1 0x40 DUP1 DUP4 KECCAK256 SWAP6 SWAP1 SWAP6 SSTORE SWAP3 SLOAD SWAP1 SWAP2 AND DUP2 MSTORE PUSH1 0x7 SWAP1 SWAP2 MSTORE KECCAK256 SLOAD PUSH1 0xFF AND ISZERO PUSH2 0x23EB JUMPI PUSH1 0x12 SLOAD PUSH1 0x1 PUSH1 0x1 PUSH1 0xA0 SHL SUB AND PUSH0 SWAP1 DUP2 MSTORE PUSH1 0x4 PUSH1 0x20 MSTORE PUSH1 0x40 SWAP1 KECCAK256 SLOAD PUSH2 0x23D0 SWAP1 DUP5 SWAP1 PUSH2 0x2649 JUMP JUMPDEST PUSH1 0x12 SLOAD PUSH1 0x1 PUSH1 0x1 PUSH1 0xA0 SHL SUB AND PUSH0 SWAP1 DUP2 MSTORE PUSH1 0x4 PUSH1 0x20 MSTORE PUSH1 0x40 SWAP1 KECCAK256 SSTORE JUMPDEST PUSH1 0x40 MLOAD DUP4 DUP2 MSTORE PUSH32 0x7A934C407238277F8CF36DF7A2F4B5EF2EB3AA6190EEB615E32C02075A5730B0 SWAP1 PUSH1 0x20 ADD PUSH2 0x2297 JUMP JUMPDEST PUSH0 PUSH1 0x20 DUP1 DUP4 MSTORE DUP4 MLOAD DUP1 PUSH1 0x20 DUP6 ADD MSTORE PUSH0 JUMPDEST DUP2 DUP2 LT ISZERO PUSH2 0x2447 JUMPI DUP6 DUP2 ADD DUP4 ADD MLOAD DUP6 DUP3 ADD PUSH1 0x40 ADD MSTORE DUP3 ADD PUSH2 0x242B JUMP JUMPDEST POP PUSH0 PUSH1 0x40 DUP3 DUP7 ADD ADD MSTORE PUSH1 0x40 PUSH1 0x1F NOT PUSH1 0x1F DUP4 ADD AND DUP6 ADD ADD SWAP3 POP POP POP SWAP3 SWAP2 POP POP JUMP JUMPDEST PUSH1 0x1 PUSH1 0x1 PUSH1 0xA0 SHL SUB DUP2 AND DUP2 EQ PUSH2 0x247B JUMPI PUSH0 DUP1 REVERT JUMPDEST POP JUMP JUMPDEST PUSH0 DUP1 PUSH1 0x40 DUP4 DUP6 SUB SLT ISZERO PUSH2 0x248F JUMPI PUSH0 DUP1 REVERT JUMPDEST DUP3 CALLDATALOAD PUSH2 0x249A DUP2 PUSH2 0x2467 JUMP JUMPDEST SWAP5 PUSH1 0x20 SWAP4 SWAP1 SWAP4 ADD CALLDATALOAD SWAP4 POP POP POP JUMP JUMPDEST PUSH0 DUP1 PUSH0 PUSH1 0x60 DUP5 DUP7 SUB SLT ISZERO PUSH2 0x24BA JUMPI PUSH0 DUP1 REVERT JUMPDEST DUP4 CALLDATALOAD PUSH2 0x24C5 DUP2 PUSH2 0x2467 JUMP JUMPDEST SWAP3 POP PUSH1 0x20 DUP5 ADD CALLDATALOAD PUSH2 0x24D5 DUP2 PUSH2 0x2467 JUMP JUMPDEST SWAP3 SWAP6 SWAP3 SWAP5 POP POP POP PUSH1 0x40 SWAP2 SWAP1 SWAP2 ADD CALLDATALOAD SWAP1 JUMP JUMPDEST PUSH0 PUSH1 0x20 DUP3 DUP5 SUB SLT ISZERO PUSH2 0x24F6 JUMPI PUSH0 DUP1 REVERT JUMPDEST POP CALLDATALOAD SWAP2 SWAP1 POP JUMP JUMPDEST PUSH0 PUSH1 0x20 DUP3 DUP5 SUB SLT ISZERO PUSH2 0x250D JUMPI PUSH0 DUP1 REVERT JUMPDEST DUP2 CALLDATALOAD PUSH2 0x7A7 DUP2 PUSH2 0x2467 JUMP JUMPDEST DUP1 CALLDATALOAD DUP1 ISZERO ISZERO DUP2 EQ PUSH2 0x2527 JUMPI PUSH0 DUP1 REVERT JUMPDEST SWAP2 SWAP1 POP JUMP JUMPDEST PUSH0 DUP1 PUSH1 0x40 DUP4 DUP6 SUB SLT ISZERO PUSH2 0x253D JUMPI PUSH0 DUP1 REVERT JUMPDEST DUP3 CALLDATALOAD SWAP2 POP PUSH2 0x254D PUSH1 0x20 DUP5 ADD PUSH2 0x2518 JUMP JUMPDEST SWAP1 POP SWAP3 POP SWAP3 SWAP1 POP JUMP JUMPDEST PUSH0 PUSH1 0x20 DUP3 DUP5 SUB SLT ISZERO PUSH2 0x2566 JUMPI PUSH0 DUP1 REVERT JUMPDEST PUSH2 0x7A7 DUP3 PUSH2 0x2518 JUMP JUMPDEST PUSH0 DUP1 PUSH1 0x40 DUP4 DUP6 SUB SLT ISZERO PUSH2 0x2580 JUMPI PUSH0 DUP1 REVERT JUMPDEST DUP3 CALLDATALOAD PUSH2 0x258B DUP2 PUSH2 0x2467 JUMP JUMPDEST SWAP2 POP PUSH1 0x20 DUP4 ADD CALLDATALOAD PUSH2 0x259B DUP2 PUSH2 0x2467 JUMP JUMPDEST DUP1 SWAP2 POP POP SWAP3 POP SWAP3 SWAP1 POP JUMP JUMPDEST PUSH4 0x4E487B71 PUSH1 0xE0 SHL PUSH0 MSTORE PUSH1 0x11 PUSH1 0x4 MSTORE PUSH1 0x24 PUSH0 REVERT JUMPDEST DUP2 DUP2 SUB DUP2 DUP2 GT ISZERO PUSH2 0x6D1 JUMPI PUSH2 0x6D1 PUSH2 0x25A6 JUMP JUMPDEST PUSH0 DUP3 PUSH2 0x25E7 JUMPI PUSH4 0x4E487B71 PUSH1 0xE0 SHL PUSH0 MSTORE PUSH1 0x12 PUSH1 0x4 MSTORE PUSH1 0x24 PUSH0 REVERT JUMPDEST POP DIV SWAP1 JUMP JUMPDEST PUSH1 0x20 DUP1 DUP3 MSTORE DUP2 DUP2 ADD MSTORE PUSH32 0x4F776E61626C653A2063616C6C6572206973206E6F7420746865206F776E6572 PUSH1 0x40 DUP3 ADD MSTORE PUSH1 0x60 ADD SWAP1 JUMP JUMPDEST PUSH4 0x4E487B71 PUSH1 0xE0 SHL PUSH0 MSTORE PUSH1 0x32 PUSH1 0x4 MSTORE PUSH1 0x24 PUSH0 REVERT JUMPDEST PUSH4 0x4E487B71 PUSH1 0xE0 SHL PUSH0 MSTORE PUSH1 0x31 PUSH1 0x4 MSTORE PUSH1 0x24 PUSH0 REVERT JUMPDEST DUP1 DUP3 ADD DUP1 DUP3 GT ISZERO PUSH2 0x6D1 JUMPI PUSH2 0x6D1 PUSH2 0x25A6 JUMP JUMPDEST DUP1 DUP3 MUL DUP2 ISZERO DUP3 DUP3 DIV DUP5 EQ OR PUSH2 0x6D1 JUMPI PUSH2 0x6D1 PUSH2 0x25A6 JUMP JUMPDEST PUSH0 PUSH1 0x20 DUP3 DUP5 SUB SLT ISZERO PUSH2 0x2683 JUMPI PUSH0 DUP1 REVERT JUMPDEST DUP2 MLOAD PUSH2 0x7A7 DUP2 PUSH2 0x2467 JUMP JUMPDEST PUSH0 PUSH1 0xA0 DUP3 ADD DUP8 DUP4 MSTORE PUSH1 0x20 DUP8 PUSH1 0x20 DUP6 ADD MSTORE PUSH1 0xA0 PUSH1 0x40 DUP6 ADD MSTORE DUP2 DUP8 MLOAD DUP1 DUP5 MSTORE PUSH1 0xC0 DUP7 ADD SWAP2 POP PUSH1 0x20 DUP10 ADD SWAP4 POP PUSH0 JUMPDEST DUP2 DUP2 LT ISZERO PUSH2 0x26DE JUMPI DUP5 MLOAD PUSH1 0x1 PUSH1 0x1 PUSH1 0xA0 SHL SUB AND DUP4 MSTORE SWAP4 DUP4 ADD SWAP4 SWAP2 DUP4 ADD SWAP2 PUSH1 0x1 ADD PUSH2 0x26B9 JUMP JUMPDEST POP POP PUSH1 0x1 PUSH1 0x1 PUSH1 0xA0 SHL SUB SWAP7 SWAP1 SWAP7 AND PUSH1 0x60 DUP6 ADD MSTORE POP POP POP PUSH1 0x80 ADD MSTORE SWAP4 SWAP3 POP POP POP JUMP JUMPDEST PUSH0 DUP1 PUSH0 PUSH1 0x60 DUP5 DUP7 SUB SLT ISZERO PUSH2 0x2711 JUMPI PUSH0 DUP1 REVERT JUMPDEST DUP4 MLOAD SWAP3 POP PUSH1 0x20 DUP5 ADD MLOAD SWAP2 POP PUSH1 0x40 DUP5 ADD MLOAD SWAP1 POP SWAP3 POP SWAP3 POP SWAP3 JUMP INVALID LOG2 PUSH5 0x6970667358 0x22 SLT KECCAK256 PUSH23 0xA0D497A4662A28CD202F869E0C99435286EF796B046EAB CALLVALUE PUSH31 0xDD0608DEBFE464736F6C634300081600330000000000000000000000000000 "
				},
				"gasEstimates": {
					"creation": {
						"codeDepositCost": "2016000",
						"executionCost": "infinite",
						"totalCost": "infinite"
					},
					"external": {
						"allowance(address,address)": "infinite",
						"approve(address,uint256)": "24656",
						"balanceOf(address)": "infinite",
						"decimals()": "288",
						"decreaseAllowance(address,uint256)": "infinite",
						"deliver(uint256)": "infinite",
						"excludeFromFee(address)": "29064",
						"excludeFromReward(address)": "infinite",
						"fundWallet()": "2404",
						"geUnlockTime()": "2380",
						"includeInFee(address)": "29053",
						"includeInReward(address)": "infinite",
						"increaseAllowance(address,uint256)": "infinite",
						"isExcludedFromFee(address)": "2673",
						"isExcludedFromReward(address)": "2585",
						"lock(uint256)": "76841",
						"name()": "infinite",
						"owner()": "2396",
						"reflectionFromToken(uint256,bool)": "infinite",
						"renounceOwnership()": "30273",
						"setFundWallet(address)": "27837",
						"setSwapAndLiquifyEnabled(bool)": "27865",
						"swapAndLiquifyEnabled()": "2409",
						"symbol()": "infinite",
						"tokenFromReflection(uint256)": "infinite",
						"totalFees()": "2371",
						"totalSupply()": "2337",
						"transfer(address,uint256)": "infinite",
						"transferFrom(address,address,uint256)": "infinite",
						"transferOwnership(address)": "30521",
						"uniswapV2Pair()": "infinite",
						"uniswapV2Router()": "infinite",
						"unlock()": "36577",
						"updateThreshold(uint256)": "25604"
					},
					"internal": {
						"_approve(address,address,uint256)": "infinite",
						"_getCurrentSupply()": "infinite",
						"_getRValues(uint256,uint256,uint256,uint256,uint256)": "infinite",
						"_getRate()": "infinite",
						"_getTValues(uint256)": "infinite",
						"_getValue(uint256)": "infinite",
						"_getValues(uint256)": "infinite",
						"_reflectFee(uint256,uint256,uint256)": "infinite",
						"_sellBuyTax(address,address)": "infinite",
						"_takeCoinFund(uint256)": "infinite",
						"_takeLiquidity(uint256)": "infinite",
						"_tokenTransfer(address,address,uint256,bool)": "infinite",
						"_transfer(address,address,uint256)": "infinite",
						"_transferBothExcluded(address,address,uint256)": "infinite",
						"_transferFromExcluded(address,address,uint256)": "infinite",
						"_transferStandard(address,address,uint256)": "infinite",
						"_transferToExcluded(address,address,uint256)": "infinite",
						"addLiquidity(uint256,uint256)": "infinite",
						"calculateBurnTax(uint256)": "infinite",
						"calculateCoinOperartionTax(uint256)": "infinite",
						"calculateLiquidityFee(uint256)": "infinite",
						"calculateTaxFee(uint256)": "infinite",
						"removeAllFee()": "infinite",
						"swapAndLiquify(uint256)": "infinite",
						"swapTokensForEth(uint256)": "infinite"
					}
				},
				"methodIdentifiers": {
					"allowance(address,address)": "dd62ed3e",
					"approve(address,uint256)": "095ea7b3",
					"balanceOf(address)": "70a08231",
					"decimals()": "313ce567",
					"decreaseAllowance(address,uint256)": "a457c2d7",
					"deliver(uint256)": "3bd5d173",
					"excludeFromFee(address)": "437823ec",
					"excludeFromReward(address)": "52390c02",
					"fundWallet()": "664a1ad6",
					"geUnlockTime()": "b6c52324",
					"includeInFee(address)": "ea2f0b37",
					"includeInReward(address)": "3685d419",
					"increaseAllowance(address,uint256)": "39509351",
					"isExcludedFromFee(address)": "5342acb4",
					"isExcludedFromReward(address)": "88f82020",
					"lock(uint256)": "dd467064",
					"name()": "06fdde03",
					"owner()": "8da5cb5b",
					"reflectionFromToken(uint256,bool)": "4549b039",
					"renounceOwnership()": "715018a6",
					"setFundWallet(address)": "55ce3b9a",
					"setSwapAndLiquifyEnabled(bool)": "c49b9a80",
					"swapAndLiquifyEnabled()": "4a74bb02",
					"symbol()": "95d89b41",
					"tokenFromReflection(uint256)": "2d838119",
					"totalFees()": "13114a9d",
					"totalSupply()": "18160ddd",
					"transfer(address,uint256)": "a9059cbb",
					"transferFrom(address,address,uint256)": "23b872dd",
					"transferOwnership(address)": "f2fde38b",
					"uniswapV2Pair()": "49bd5a5e",
					"uniswapV2Router()": "1694505e",
					"unlock()": "a69df4b5",
					"updateThreshold(uint256)": "d7d7442f"
				}
			},
			"storageLayout": {
				"storage": [
					{
						"astId": 105,
						"contract": "Catch.sol:CATCH",
						"label": "_owner",
						"offset": 0,
						"slot": "0",
						"type": "t_address"
					},
					{
						"astId": 107,
						"contract": "Catch.sol:CATCH",
						"label": "_previousOwner",
						"offset": 0,
						"slot": "1",
						"type": "t_address"
					},
					{
						"astId": 109,
						"contract": "Catch.sol:CATCH",
						"label": "_lockTime",
						"offset": 0,
						"slot": "2",
						"type": "t_uint256"
					},
					{
						"astId": 754,
						"contract": "Catch.sol:CATCH",
						"label": "_rOwned",
						"offset": 0,
						"slot": "3",
						"type": "t_mapping(t_address,t_uint256)"
					},
					{
						"astId": 758,
						"contract": "Catch.sol:CATCH",
						"label": "_tOwned",
						"offset": 0,
						"slot": "4",
						"type": "t_mapping(t_address,t_uint256)"
					},
					{
						"astId": 764,
						"contract": "Catch.sol:CATCH",
						"label": "_allowances",
						"offset": 0,
						"slot": "5",
						"type": "t_mapping(t_address,t_mapping(t_address,t_uint256))"
					},
					{
						"astId": 768,
						"contract": "Catch.sol:CATCH",
						"label": "_isExcludedFromFee",
						"offset": 0,
						"slot": "6",
						"type": "t_mapping(t_address,t_bool)"
					},
					{
						"astId": 772,
						"contract": "Catch.sol:CATCH",
						"label": "_isExcluded",
						"offset": 0,
						"slot": "7",
						"type": "t_mapping(t_address,t_bool)"
					},
					{
						"astId": 775,
						"contract": "Catch.sol:CATCH",
						"label": "_excluded",
						"offset": 0,
						"slot": "8",
						"type": "t_array(t_address)dyn_storage"
					},
					{
						"astId": 793,
						"contract": "Catch.sol:CATCH",
						"label": "_tTotal",
						"offset": 0,
						"slot": "9",
						"type": "t_uint256"
					},
					{
						"astId": 802,
						"contract": "Catch.sol:CATCH",
						"label": "_rTotal",
						"offset": 0,
						"slot": "10",
						"type": "t_uint256"
					},
					{
						"astId": 804,
						"contract": "Catch.sol:CATCH",
						"label": "_tFeeTotal",
						"offset": 0,
						"slot": "11",
						"type": "t_uint256"
					},
					{
						"astId": 820,
						"contract": "Catch.sol:CATCH",
						"label": "inSwapAndLiquify",
						"offset": 0,
						"slot": "12",
						"type": "t_bool"
					},
					{
						"astId": 823,
						"contract": "Catch.sol:CATCH",
						"label": "swapAndLiquifyEnabled",
						"offset": 1,
						"slot": "12",
						"type": "t_bool"
					},
					{
						"astId": 834,
						"contract": "Catch.sol:CATCH",
						"label": "numTokensSellToAddToLiquidity",
						"offset": 0,
						"slot": "13",
						"type": "t_uint256"
					},
					{
						"astId": 836,
						"contract": "Catch.sol:CATCH",
						"label": "refAmt",
						"offset": 0,
						"slot": "14",
						"type": "t_uint256"
					},
					{
						"astId": 838,
						"contract": "Catch.sol:CATCH",
						"label": "coinOperation",
						"offset": 0,
						"slot": "15",
						"type": "t_uint256"
					},
					{
						"astId": 840,
						"contract": "Catch.sol:CATCH",
						"label": "liquidty",
						"offset": 0,
						"slot": "16",
						"type": "t_uint256"
					},
					{
						"astId": 842,
						"contract": "Catch.sol:CATCH",
						"label": "burn",
						"offset": 0,
						"slot": "17",
						"type": "t_uint256"
					},
					{
						"astId": 844,
						"contract": "Catch.sol:CATCH",
						"label": "fundWallet",
						"offset": 0,
						"slot": "18",
						"type": "t_address"
					}
				],
				"types": {
					"t_address": {
						"encoding": "inplace",
						"label": "address",
						"numberOfBytes": "20"
					},
					"t_array(t_address)dyn_storage": {
						"base": "t_address",
						"encoding": "dynamic_array",
						"label": "address[]",
						"numberOfBytes": "32"
					},
					"t_bool": {
						"encoding": "inplace",
						"label": "bool",
						"numberOfBytes": "1"
					},
					"t_mapping(t_address,t_bool)": {
						"encoding": "mapping",
						"key": "t_address",
						"label": "mapping(address => bool)",
						"numberOfBytes": "32",
						"value": "t_bool"
					},
					"t_mapping(t_address,t_mapping(t_address,t_uint256))": {
						"encoding": "mapping",
						"key": "t_address",
						"label": "mapping(address => mapping(address => uint256))",
						"numberOfBytes": "32",
						"value": "t_mapping(t_address,t_uint256)"
					},
					"t_mapping(t_address,t_uint256)": {
						"encoding": "mapping",
						"key": "t_address",
						"label": "mapping(address => uint256)",
						"numberOfBytes": "32",
						"value": "t_uint256"
					},
					"t_uint256": {
						"encoding": "inplace",
						"label": "uint256",
						"numberOfBytes": "32"
					}
				}
			},
			"userdoc": {
				"kind": "user",
				"methods": {
					"allowance(address,address)": {
						"notice": "Retrieves the remaining allowance for a spender to spend tokens on behalf of an owner."
					},
					"approve(address,uint256)": {
						"notice": "Approves a spender to spend a specified amount of tokens on behalf of the owner."
					},
					"balanceOf(address)": {
						"notice": "Retrieves the token balance of a specified account."
					},
					"constructor": {
						"notice": "Contract constructor to initialize the token."
					},
					"decimals()": {
						"notice": "Retrieves the number of decimal places used in the token representation."
					},
					"decreaseAllowance(address,uint256)": {
						"notice": "Reduces the allowance granted to a spender by a specified amount."
					},
					"deliver(uint256)": {
						"notice": "Distributes the specified amount of tokens as reflections to the reward pool."
					},
					"excludeFromFee(address)": {
						"notice": "Grants the owner the ability to exclude an address from transaction fees."
					},
					"excludeFromReward(address)": {
						"notice": "Grants the owner the ability to exclude an address from earning reflections."
					},
					"includeInFee(address)": {
						"notice": "Grants the owner the ability to include an address in transaction fees."
					},
					"includeInReward(address)": {
						"notice": "Only the owner of the contract can call this function.Requires that the specified account is currently excluded."
					},
					"increaseAllowance(address,uint256)": {
						"notice": "Increases the allowance granted to a spender by a specified amount."
					},
					"isExcludedFromReward(address)": {
						"notice": "Checks if the specified address is excluded from earning reflections."
					},
					"name()": {
						"notice": "Retrieves the name of the token."
					},
					"reflectionFromToken(uint256,bool)": {
						"notice": "Converts the given token amount to its equivalent reflection amount."
					},
					"setSwapAndLiquifyEnabled(bool)": {
						"notice": "Allows the owner to enable or disable the swap and liquify feature."
					},
					"symbol()": {
						"notice": "Retrieves the symbol or ticker of the token."
					},
					"tokenFromReflection(uint256)": {
						"notice": "Converts the given reflection amount to its equivalent token amount."
					},
					"totalFees()": {
						"notice": "Retrieves the total amount of fees collected in tokens."
					},
					"totalSupply()": {
						"notice": "Retrieves the total supply of tokens."
					},
					"transfer(address,uint256)": {
						"notice": "Transfers a specified amount of tokens to a recipient."
					},
					"transferFrom(address,address,uint256)": {
						"notice": "Transfers tokens from one address to another on behalf of a third-party."
					},
					"updateThreshold(uint256)": {
						"notice": "Only the owner of the contract can call this function.Requires a positive _amount for successful execution."
					}
				},
				"version": 1
			}
		}
	}
}