{
	"data": {
		"bytecode": {
			"linkReferences": {},
			"object": "60c06040526a4a723dc6b40b8a9a000000600981905562000022905f196200030d565b6200002f905f196200032d565b600a55600c805461ff00191661010017905568056bc75e2d63100000600d553480156200005a575f80fd5b5060405162002b3538038062002b358339810160408190526200007d9162000353565b5f80546001600160a01b031916339081178255604051909182917f8be0079c531659141344cd1fd0a4f28419497f9722a3daafe3b4186f6b6457e0908290a350600a54335f9081526003602090815260409182902092909255601280546001600160a01b0319166001600160a01b038516179055805163c45a015560e01b815290517310ed43c718714eb63d5aa57b78b54704e256024e92839263c45a015592600480830193928290030181865afa1580156200013c573d5f803e3d5ffd5b505050506040513d601f19601f8201168201806040525081019062000162919062000353565b6001600160a01b031663c9c6539630836001600160a01b031663ad5c46486040518163ffffffff1660e01b8152600401602060405180830381865afa158015620001ae573d5f803e3d5ffd5b505050506040513d601f19601f82011682018060405250810190620001d4919062000353565b6040516001600160e01b031960e085901b1681526001600160a01b039283166004820152911660248201526044016020604051808303815f875af11580156200021f573d5f803e3d5ffd5b505050506040513d601f19601f8201168201806040525081019062000245919062000353565b6001600160a01b0390811660a0528116608052600160065f6200026f5f546001600160a01b031690565b6001600160a01b0316815260208082019290925260409081015f908120805494151560ff199586161790553081526006909252902080549091166001179055620002b63390565b6001600160a01b03165f6001600160a01b03167fddf252ad1be2c89b69c2b068fc378daa952ba7f163c4a11628f55a4df523b3ef600954604051620002fd91815260200190565b60405180910390a3505062000382565b5f826200032857634e487b7160e01b5f52601260045260245ffd5b500690565b818103818111156200034d57634e487b7160e01b5f52601160045260245ffd5b92915050565b5f6020828403121562000364575f80fd5b81516001600160a01b03811681146200037b575f80fd5b9392505050565b60805160a051612760620003d55f395f81816103f5015281816115ab015261177301525f81816102a001528181611c4b01528181611d0201528181611d3e01528181611daa0152611dd101526127605ff3fe6080604052600436106101f4575f3560e01c806355ce3b9a11610108578063a69df4b51161009d578063d7d7442f1161006d578063d7d7442f14610601578063dd46706414610620578063dd62ed3e1461063f578063ea2f0b3714610683578063f2fde38b146106a2575f80fd5b8063a69df4b51461059b578063a9059cbb146105af578063b6c52324146105ce578063c49b9a80146105e2575f80fd5b806388f82020116100d857806388f82020146104fc5780638da5cb5b1461053357806395d89b411461054f578063a457c2d71461057c575f80fd5b806355ce3b9a1461048b578063664a1ad6146104aa57806370a08231146104c9578063715018a6146104e8575f80fd5b80633685d419116101895780634549b039116101595780634549b039146103c557806349bd5a5e146103e45780634a74bb021461041757806352390c02146104355780635342acb414610454575f80fd5b80633685d4191461034757806339509351146103685780633bd5d17314610387578063437823ec146103a6575f80fd5b806318160ddd116101c457806318160ddd146102da57806323b872dd146102ee5780632d8381191461030d578063313ce5671461032c575f80fd5b806306fdde03146101ff578063095ea7b31461024257806313114a9d146102715780631694505e1461028f575f80fd5b366101fb57005b5f80fd5b34801561020a575f80fd5b5060408051808201909152600981526831b0ba31b431b7b4b760b91b60208201525b604051610239919061241b565b60405180910390f35b34801561024d575f80fd5b5061026161025c36600461247e565b6106c1565b6040519015158152602001610239565b34801561027c575f80fd5b50600b545b604051908152602001610239565b34801561029a575f80fd5b506102c27f000000000000000000000000000000000000000000000000000000000000000081565b6040516001600160a01b039091168152602001610239565b3480156102e5575f80fd5b50600954610281565b3480156102f9575f80fd5b506102616103083660046124a8565b6106d7565b348015610318575f80fd5b506102816103273660046124e6565b610727565b348015610337575f80fd5b5060405160128152602001610239565b348015610352575f80fd5b506103666103613660046124fd565b6107ae565b005b348015610373575f80fd5b5061026161038236600461247e565b610952565b348015610392575f80fd5b506103666103a13660046124e6565b610988565b3480156103b1575f80fd5b506103666103c03660046124fd565b610a6c565b3480156103d0575f80fd5b506102816103df36600461252c565b610b20565b3480156103ef575f80fd5b506102c27f000000000000000000000000000000000000000000000000000000000000000081565b348015610422575f80fd5b50600c5461026190610100900460ff1681565b348015610440575f80fd5b5061036661044f3660046124fd565b610ba0565b34801561045f575f80fd5b5061026161046e3660046124fd565b6001600160a01b03165f9081526006602052604090205460ff1690565b348015610496575f80fd5b506103666104a53660046124fd565b610ced565b3480156104b5575f80fd5b506012546102c2906001600160a01b031681565b3480156104d4575f80fd5b506102816104e33660046124fd565b610dc1565b3480156104f3575f80fd5b50610366610e1d565b348015610507575f80fd5b506102616105163660046124fd565b6001600160a01b03165f9081526007602052604090205460ff1690565b34801561053e575f80fd5b505f546001600160a01b03166102c2565b34801561055a575f80fd5b5060408051808201909152600581526408682a886960db1b602082015261022c565b348015610587575f80fd5b5061026161059636600461247e565b610e8e565b3480156105a6575f80fd5b50610366610ec4565b3480156105ba575f80fd5b506102616105c936600461247e565b610fda565b3480156105d9575f80fd5b50600254610281565b3480156105ed575f80fd5b506103666105fc366004612556565b610fe6565b34801561060c575f80fd5b5061036661061b3660046124e6565b611058565b34801561062b575f80fd5b5061036661063a3660046124e6565b6110fb565b34801561064a575f80fd5b5061028161065936600461256f565b6001600160a01b039182165f90815260056020908152604080832093909416825291909152205490565b34801561068e575f80fd5b5061036661069d3660046124fd565b6111a4565b3480156106ad575f80fd5b506103666106bc3660046124fd565b61124d565b5f6106cd338484611334565b5060015b92915050565b5f6106e3848484611457565b6001600160a01b0384165f9081526005602090815260408083203380855292529091205461071d9186916107189086906125ba565b611334565b5060019392505050565b5f600a548211156107925760405162461bcd60e51b815260206004820152602a60248201527f416d6f756e74206d757374206265206c657373207468616e20746f74616c207260448201526965666c656374696f6e7360b01b60648201526084015b60405180910390fd5b5f61079b611672565b90506107a781846125cd565b9392505050565b5f546001600160a01b031633146107d75760405162461bcd60e51b8152600401610789906125ec565b6001600160a01b0381165f9081526007602052604090205460ff1661083e5760405162461bcd60e51b815260206004820152601b60248201527f4163636f756e7420697320616c726561647920496e636c7564656400000000006044820152606401610789565b5f5b60085481101561094e57816001600160a01b03166008828154811061086757610867612621565b5f918252602090912001546001600160a01b0316036109465760088054610890906001906125ba565b815481106108a0576108a0612621565b5f91825260209091200154600880546001600160a01b0390921691839081106108cb576108cb612621565b5f91825260208083209190910180546001600160a01b0319166001600160a01b039485161790559184168152600482526040808220829055600790925220805460ff19169055600880548061092257610922612635565b5f8281526020902081015f1990810180546001600160a01b03191690550190555050565b600101610840565b5050565b335f8181526005602090815260408083206001600160a01b038716845290915281205490916106cd918590610718908690612649565b335f8181526007602052604090205460ff16156109fc5760405162461bcd60e51b815260206004820152602c60248201527f4578636c75646564206164647265737365732063616e6e6f742063616c6c207460448201526b3434b990333ab731ba34b7b760a11b6064820152608401610789565b5f610a0683611693565b506001600160a01b0383165f90815260036020526040902054909150610a2d9082906125ba565b6001600160a01b0383165f90815260036020526040902055600a54610a539082906125ba565b600a55600b54610a64908490612649565b600b55505050565b5f546001600160a01b03163314610a955760405162461bcd60e51b8152600401610789906125ec565b6001600160a01b0381165f9081526006602052604090205460ff1615610afd5760405162461bcd60e51b815260206004820152601860248201527f416c72656179206578636c756465642066726f6d2066656500000000000000006044820152606401610789565b6001600160a01b03165f908152600660205260409020805460ff19166001179055565b5f600954831115610b735760405162461bcd60e51b815260206004820152601f60248201527f416d6f756e74206d757374206265206c657373207468616e20737570706c79006044820152606401610789565b81610b8c575f610b8284611693565b5091506106d19050565b5f610b9684611693565b92506106d1915050565b5f546001600160a01b03163314610bc95760405162461bcd60e51b8152600401610789906125ec565b6001600160a01b0381165f9081526007602052604090205460ff1615610c315760405162461bcd60e51b815260206004820152601b60248201527f4163636f756e7420697320616c7265616479206578636c7564656400000000006044820152606401610789565b6001600160a01b0381165f9081526003602052604090205415610c88576001600160a01b0381165f90815260036020526040902054610c6f90610727565b6001600160a01b0382165f908152600460205260409020555b6001600160a01b03165f818152600760205260408120805460ff191660019081179091556008805491820181559091527ff3f7a9fe364faab93b216da50a3214154f22a0a2b415b23a84c8169e8b636ee30180546001600160a01b0319169091179055565b5f546001600160a01b03163314610d165760405162461bcd60e51b8152600401610789906125ec565b6001600160a01b038116610d6c5760405162461bcd60e51b815260206004820152601b60248201527f46756e642077616c6c65742063616e206e6f74206265207a65726f00000000006044820152606401610789565b601280546001600160a01b0319166001600160a01b0383169081179091556040519081527f4cb53cdee53f2d4e4e60769add356f6cbd911505806fd6c1eee38f5a6b8a2574906020015b60405180910390a150565b6001600160a01b0381165f9081526007602052604081205460ff1615610dfc57506001600160a01b03165f9081526004602052604090205490565b6001600160a01b0382165f908152600360205260409020546106d190610727565b5f546001600160a01b03163314610e465760405162461bcd60e51b8152600401610789906125ec565b5f80546040516001600160a01b03909116907f8be0079c531659141344cd1fd0a4f28419497f9722a3daafe3b4186f6b6457e0908390a35f80546001600160a01b0319169055565b335f8181526005602090815260408083206001600160a01b038716845290915281205490916106cd9185906107189086906125ba565b6001546001600160a01b03163314610f2a5760405162461bcd60e51b8152602060048201526024808201527f596f7520646f206e6f742068617665207065726d697373696f6e20746f20756e6044820152636c6f636b60e01b6064820152608401610789565b6002544211610f7b5760405162461bcd60e51b815260206004820152601f60248201527f436f6e7472616374206973206c6f636b656420756e74696c20372064617973006044820152606401610789565b6001545f80546040516001600160a01b0393841693909116917f8be0079c531659141344cd1fd0a4f28419497f9722a3daafe3b4186f6b6457e091a36001545f80546001600160a01b0319166001600160a01b03909216919091179055565b5f6106cd338484611457565b5f546001600160a01b0316331461100f5760405162461bcd60e51b8152600401610789906125ec565b600c80548215156101000261ff00199091161790556040517f53726dfcaf90650aa7eb35524f4d3220f07413c8d6cb404cc8c18bf5591bc15990610db690831515815260200190565b5f546001600160a01b031633146110815760405162461bcd60e51b8152600401610789906125ec565b5f81116110c65760405162461bcd60e51b8152602060048201526013602482015272185b5bdd5b9d081a5cc81b9bdd081d985b1a59606a1b6044820152606401610789565b600d8190556040518181527fadfa8ecb21b6962ebcd0adbd9ab985b7b4c5b5eb3b0dead683171565c7bfe17190602001610db6565b5f546001600160a01b031633146111245760405162461bcd60e51b8152600401610789906125ec565b5f8054600180546001600160a01b03199081166001600160a01b038416179091551690556111528142612649565b60028190555f8054604080516001600160a01b0390921682526020820192909252908101919091527f989eaa915cbb416ea3d6f9a63b1a3de51770c7674b11fe21ecdf76b4e1d1391090606001610db6565b5f546001600160a01b031633146111cd5760405162461bcd60e51b8152600401610789906125ec565b6001600160a01b0381165f9081526006602052604090205460ff1661122d5760405162461bcd60e51b8152602060048201526016602482015275416c7265617920696e636c7564656420696e2066656560501b6044820152606401610789565b6001600160a01b03165f908152600660205260409020805460ff19169055565b5f546001600160a01b031633146112765760405162461bcd60e51b8152600401610789906125ec565b6001600160a01b0381166112db5760405162461bcd60e51b815260206004820152602660248201527f4f776e61626c653a206e6577206f776e657220697320746865207a65726f206160448201526564647265737360d01b6064820152608401610789565b5f80546040516001600160a01b03808516939216917f8be0079c531659141344cd1fd0a4f28419497f9722a3daafe3b4186f6b6457e091a35f80546001600160a01b0319166001600160a01b0392909216919091179055565b6001600160a01b0383166113965760405162461bcd60e51b8152602060048201526024808201527f45524332303a20617070726f76652066726f6d20746865207a65726f206164646044820152637265737360e01b6064820152608401610789565b6001600160a01b0382166113f75760405162461bcd60e51b815260206004820152602260248201527f45524332303a20617070726f766520746f20746865207a65726f206164647265604482015261737360f01b6064820152608401610789565b6001600160a01b038381165f8181526005602090815260408083209487168084529482529182902085905590518481527f8c5be1e5ebec7d5bd14f71427d1e84f3dd0314c0f7b2291e5b200ac8c7c3b925910160405180910390a3505050565b6001600160a01b0383166114bb5760405162461bcd60e51b815260206004820152602560248201527f45524332303a207472616e736665722066726f6d20746865207a65726f206164604482015264647265737360d81b6064820152608401610789565b6001600160a01b03821661151d5760405162461bcd60e51b815260206004820152602360248201527f45524332303a207472616e7366657220746f20746865207a65726f206164647260448201526265737360e81b6064820152608401610789565b5f811161157e5760405162461bcd60e51b815260206004820152602960248201527f5472616e7366657220616d6f756e74206d7573742062652067726561746572206044820152687468616e207a65726f60b81b6064820152608401610789565b5f61158830610dc1565b600d54909150811080159081906115a25750600c5460ff16155b80156115e057507f00000000000000000000000000000000000000000000000000000000000000006001600160a01b0316856001600160a01b031614155b80156115f35750600c54610100900460ff165b1561160657600d549150611606826116cb565b6001600160a01b0385165f9081526006602052604090205460019060ff168061164657506001600160a01b0385165f9081526006602052604090205460ff165b1561164e57505f5b801561165e5761165e8686611766565b61166a86868684611809565b505050505050565b5f805f61167d611978565b909250905061168c81836125cd565b9250505090565b5f805f805f806116a287611ae8565b9450945094509450505f806116ba8987878787611b5f565b50909a909950975050505050505050565b600c805460ff191660011790555f6116e46002836125cd565b90505f6116f182846125ba565b9050476116fd83611bf6565b5f61170882476125ba565b90506117148382611da4565b60408051858152602081018390529081018490527f17bbfb9a6069321b6ded73bd96327c9e6b7212a5cd51ff219cd61370acafb5619060600160405180910390a15050600c805460ff19169055505050565b6001600160a01b038281167f0000000000000000000000000000000000000000000000000000000000000000821690811491831614600180805f600282818189156117c457600e889055600f879055601086905560118590556117fb565b88156117e357600e849055600f839055601082905560118190556117fb565b6117fb5f600e819055600f8190556010819055601155565b505050505050505050505050565b80611826576118265f600e819055600f8190556010819055601155565b6001600160a01b0384165f9081526007602052604090205460ff16801561186557506001600160a01b0383165f9081526007602052604090205460ff16155b1561187a57611875848484611ea6565b611972565b6001600160a01b0384165f9081526007602052604090205460ff161580156118b957506001600160a01b0383165f9081526007602052604090205460ff165b156118c957611875848484611fe6565b6001600160a01b0384165f9081526007602052604090205460ff1615801561190957506001600160a01b0383165f9081526007602052604090205460ff16155b156119195761187584848461209e565b6001600160a01b0384165f9081526007602052604090205460ff16801561195757506001600160a01b0383165f9081526007602052604090205460ff165b15611967576118758484846120f1565b61197284848461209e565b50505050565b600a546009545f918291825b600854811015611ab7578260035f600884815481106119a5576119a5612621565b5f9182526020808320909101546001600160a01b031683528201929092526040019020541180611a0d57508160045f600884815481106119e7576119e7612621565b5f9182526020808320909101546001600160a01b03168352820192909252604001902054115b15611a2357600a54600954945094505050509091565b60035f60088381548110611a3957611a39612621565b5f9182526020808320909101546001600160a01b03168352820192909252604001902054611a6790846125ba565b925060045f60088381548110611a7f57611a7f612621565b5f9182526020808320909101546001600160a01b03168352820192909252604001902054611aad90836125ba565b9150600101611984565b50600954600a54611ac891906125cd565b821015611adf57600a546009549350935050509091565b90939092509050565b5f805f805f80611af787612173565b90505f611b038861218e565b90505f611b0f8961219f565b90505f611b1b8a6121b0565b90505f8183611b2a8688612649565b611b349190612649565b611b3e9190612649565b90505f611b4b828d6125ba565b9c959b509399509197509550919350505050565b5f805f80611b6b611672565b90505f611b78828b61265c565b90505f611b85838b61265c565b90505f611b92848a61265c565b90505f611b9f858a61265c565b90505f611bac868d61265c565b90505f8183611bbb8688612649565b611bc59190612649565b611bcf9190612649565b90505f611bdc82886125ba565b969a50959850939650505050505050955095509592505050565b6040805160028082526060820183525f9260208301908036833701905050905030815f81518110611c2957611c29612621565b60200260200101906001600160a01b031690816001600160a01b0316815250507f00000000000000000000000000000000000000000000000000000000000000006001600160a01b031663ad5c46486040518163ffffffff1660e01b8152600401602060405180830381865afa158015611ca5573d5f803e3d5ffd5b505050506040513d601f19601f82011682018060405250810190611cc99190612673565b81600181518110611cdc57611cdc612621565b60200260200101906001600160a01b031690816001600160a01b031681525050611d27307f000000000000000000000000000000000000000000000000000000000000000084611334565b60405163791ac94760e01b81526001600160a01b037f0000000000000000000000000000000000000000000000000000000000000000169063791ac94790611d7b9085905f9086903090429060040161268e565b5f604051808303815f87803b158015611d92575f80fd5b505af115801561166a573d5f803e3d5ffd5b611dcf307f000000000000000000000000000000000000000000000000000000000000000084611334565b7f00000000000000000000000000000000000000000000000000000000000000006001600160a01b031663f305d7198230855f80611e145f546001600160a01b031690565b60405160e088901b6001600160e01b03191681526001600160a01b03958616600482015260248101949094526044840192909252606483015290911660848201524260a482015260c40160606040518083038185885af1158015611e7a573d5f803e3d5ffd5b50505050506040513d601f19601f82011682018060405250810190611e9f91906126ff565b5050505050565b5f805f805f611eb4866121c1565b945094509450945094505f805f611ece8988888888611b5f565b6001600160a01b038e165f908152600460205260409020549295509093509150611ef9908a906125ba565b6001600160a01b038c165f90815260046020908152604080832093909355600390522054611f289084906125ba565b6001600160a01b03808d165f9081526003602052604080822093909355908c1681522054611f57908390612649565b6001600160a01b038b165f90815260036020526040902055611f78866121eb565b611f838188866122a4565b611f8c85612334565b896001600160a01b03168b6001600160a01b03167fddf252ad1be2c89b69c2b068fc378daa952ba7f163c4a11628f55a4df523b3ef8a604051611fd191815260200190565b60405180910390a35050505050505050505050565b5f805f805f611ff4866121c1565b945094509450945094505f805f61200e8988888888611b5f565b6001600160a01b038e165f9081526003602052604090205492955090935091506120399084906125ba565b6001600160a01b03808d165f90815260036020908152604080832094909455918d1681526004909152205461206f908990612649565b6001600160a01b038b165f90815260046020908152604080832093909355600390522054611f57908390612649565b5f805f805f6120ac866121c1565b945094509450945094505f805f6120c68988888888611b5f565b6001600160a01b038e165f908152600360205260409020549295509093509150611f289084906125ba565b5f805f805f6120ff866121c1565b945094509450945094505f805f6121198988888888611b5f565b6001600160a01b038e165f908152600460205260409020549295509093509150612144908a906125ba565b6001600160a01b038c165f908152600460209081526040808320939093556003905220546120399084906125ba565b5f6064600e5483612184919061265c565b6106d191906125cd565b5f606460105483612184919061265c565b5f6064600f5483612184919061265c565b5f606460115483612184919061265c565b5f805f805f805f805f806121d48b611ae8565b939f929e50909c509a509098509650505050505050565b5f6121f4611672565b90505f612201828461265c565b305f9081526003602052604090205490915061221e908290612649565b305f9081526003602090815260408083209390935560079052205460ff161561226b57305f9081526004602052604090205461225b908490612649565b305f908152600460205260409020555b6040518381527f3a8ab79f6d1537e459a1a8379f48a77e1ffd07dda4b16ea97074fdab5dd8bf34906020015b60405180910390a1505050565b5f6122ad611672565b90505f6122ba828461265c565b90508085600a546122cb91906125ba565b6122d591906125ba565b600a55600b546122e6908590612649565b600b556009546122f79084906125ba565b6009556040518481527f56b5df500587465b57d8ce799cc562a294f136b75a13718c574d9d36bd8280589060200160405180910390a15050505050565b5f61233d611672565b90505f61234a828461265c565b6012546001600160a01b03165f90815260036020526040902054909150612372908290612649565b601280546001600160a01b039081165f90815260036020908152604080832095909555925490911681526007909152205460ff16156123eb576012546001600160a01b03165f908152600460205260409020546123d0908490612649565b6012546001600160a01b03165f908152600460205260409020555b6040518381527f7a934c407238277f8cf36df7a2f4b5ef2eb3aa6190eeb615e32c02075a5730b090602001612297565b5f602080835283518060208501525f5b818110156124475785810183015185820160400152820161242b565b505f604082860101526040601f19601f8301168501019250505092915050565b6001600160a01b038116811461247b575f80fd5b50565b5f806040838503121561248f575f80fd5b823561249a81612467565b946020939093013593505050565b5f805f606084860312156124ba575f80fd5b83356124c581612467565b925060208401356124d581612467565b929592945050506040919091013590565b5f602082840312156124f6575f80fd5b5035919050565b5f6020828403121561250d575f80fd5b81356107a781612467565b80358015158114612527575f80fd5b919050565b5f806040838503121561253d575f80fd5b8235915061254d60208401612518565b90509250929050565b5f60208284031215612566575f80fd5b6107a782612518565b5f8060408385031215612580575f80fd5b823561258b81612467565b9150602083013561259b81612467565b809150509250929050565b634e487b7160e01b5f52601160045260245ffd5b818103818111156106d1576106d16125a6565b5f826125e757634e487b7160e01b5f52601260045260245ffd5b500490565b6020808252818101527f4f776e61626c653a2063616c6c6572206973206e6f7420746865206f776e6572604082015260600190565b634e487b7160e01b5f52603260045260245ffd5b634e487b7160e01b5f52603160045260245ffd5b808201808211156106d1576106d16125a6565b80820281158282048414176106d1576106d16125a6565b5f60208284031215612683575f80fd5b81516107a781612467565b5f60a08201878352602087602085015260a0604085015281875180845260c0860191506020890193505f5b818110156126de5784516001600160a01b0316835293830193918301916001016126b9565b50506001600160a01b03969096166060850152505050608001529392505050565b5f805f60608486031215612711575f80fd5b835192506020840151915060408401519050925092509256fea264697066735822122076a0d497a4662a28cd202f869e0c99435286ef796b046eab347edd0608debfe464736f6c63430008160033",
			"opcodes": "PUSH1 0xC0 PUSH1 0x40 MSTORE PUSH11 0x4A723DC6B40B8A9A000000 PUSH1 0x9 DUP2 SWAP1 SSTORE PUSH3 0x22 SWAP1 PUSH0 NOT PUSH3 0x30D JUMP JUMPDEST PUSH3 0x2F SWAP1 PUSH0 NOT PUSH3 0x32D JUMP JUMPDEST PUSH1 0xA SSTORE PUSH1 0xC DUP1 SLOAD PUSH2 0xFF00 NOT AND PUSH2 0x100 OR SWAP1 SSTORE PUSH9 0x56BC75E2D63100000 PUSH1 0xD SSTORE CALLVALUE DUP1 ISZERO PUSH3 0x5A JUMPI PUSH0 DUP1 REVERT JUMPDEST POP PUSH1 0x40 MLOAD PUSH3 0x2B35 CODESIZE SUB DUP1 PUSH3 0x2B35 DUP4 CODECOPY DUP2 ADD PUSH1 0x40 DUP2 SWAP1 MSTORE PUSH3 0x7D SWAP2 PUSH3 0x353 JUMP JUMPDEST PUSH0 DUP1 SLOAD PUSH1 0x1 PUSH1 0x1 PUSH1 0xA0 SHL SUB NOT AND CALLER SWAP1 DUP2 OR DUP3 SSTORE PUSH1 0x40 MLOAD SWAP1 SWAP2 DUP3 SWAP2 PUSH32 0x8BE0079C531659141344CD1FD0A4F28419497F9722A3DAAFE3B4186F6B6457E0 SWAP1 DUP3 SWAP1 LOG3 POP PUSH1 0xA SLOAD CALLER PUSH0 SWAP1 DUP2 MSTORE PUSH1 0x3 PUSH1 0x20 SWAP1 DUP2 MSTORE PUSH1 0x40 SWAP2 DUP3 SWAP1 KECCAK256 SWAP3 SWAP1 SWAP3 SSTORE PUSH1 0x12 DUP1 SLOAD PUSH1 0x1 PUSH1 0x1 PUSH1 0xA0 SHL SUB NOT AND PUSH1 0x1 PUSH1 0x1 PUSH1 0xA0 SHL SUB DUP6 AND OR SWAP1 SSTORE DUP1 MLOAD PUSH4 0xC45A0155 PUSH1 0xE0 SHL DUP2 MSTORE SWAP1 MLOAD PUSH20 0x10ED43C718714EB63D5AA57B78B54704E256024E SWAP3 DUP4 SWAP3 PUSH4 0xC45A0155 SWAP3 PUSH1 0x4 DUP1 DUP4 ADD SWAP4 SWAP3 DUP3 SWAP1 SUB ADD DUP2 DUP7 GAS STATICCALL ISZERO DUP1 ISZERO PUSH3 0x13C JUMPI RETURNDATASIZE PUSH0 DUP1 RETURNDATACOPY RETURNDATASIZE PUSH0 REVERT JUMPDEST POP POP POP POP PUSH1 0x40 MLOAD RETURNDATASIZE PUSH1 0x1F NOT PUSH1 0x1F DUP3 ADD AND DUP3 ADD DUP1 PUSH1 0x40 MSTORE POP DUP2 ADD SWAP1 PUSH3 0x162 SWAP2 SWAP1 PUSH3 0x353 JUMP JUMPDEST PUSH1 0x1 PUSH1 0x1 PUSH1 0xA0 SHL SUB AND PUSH4 0xC9C65396 ADDRESS DUP4 PUSH1 0x1 PUSH1 0x1 PUSH1 0xA0 SHL SUB AND PUSH4 0xAD5C4648 PUSH1 0x40 MLOAD DUP2 PUSH4 0xFFFFFFFF AND PUSH1 0xE0 SHL DUP2 MSTORE PUSH1 0x4 ADD PUSH1 0x20 PUSH1 0x40 MLOAD DUP1 DUP4 SUB DUP2 DUP7 GAS STATICCALL ISZERO DUP1 ISZERO PUSH3 0x1AE JUMPI RETURNDATASIZE PUSH0 DUP1 RETURNDATACOPY RETURNDATASIZE PUSH0 REVERT JUMPDEST POP POP POP POP PUSH1 0x40 MLOAD RETURNDATASIZE PUSH1 0x1F NOT PUSH1 0x1F DUP3 ADD AND DUP3 ADD DUP1 PUSH1 0x40 MSTORE POP DUP2 ADD SWAP1 PUSH3 0x1D4 SWAP2 SWAP1 PUSH3 0x353 JUMP JUMPDEST PUSH1 0x40 MLOAD PUSH1 0x1 PUSH1 0x1 PUSH1 0xE0 SHL SUB NOT PUSH1 0xE0 DUP6 SWAP1 SHL AND DUP2 MSTORE PUSH1 0x1 PUSH1 0x1 PUSH1 0xA0 SHL SUB SWAP3 DUP4 AND PUSH1 0x4 DUP3 ADD MSTORE SWAP2 AND PUSH1 0x24 DUP3 ADD MSTORE PUSH1 0x44 ADD PUSH1 0x20 PUSH1 0x40 MLOAD DUP1 DUP4 SUB DUP2 PUSH0 DUP8 GAS CALL ISZERO DUP1 ISZERO PUSH3 0x21F JUMPI RETURNDATASIZE PUSH0 DUP1 RETURNDATACOPY RETURNDATASIZE PUSH0 REVERT JUMPDEST POP POP POP POP PUSH1 0x40 MLOAD RETURNDATASIZE PUSH1 0x1F NOT PUSH1 0x1F DUP3 ADD AND DUP3 ADD DUP1 PUSH1 0x40 MSTORE POP DUP2 ADD SWAP1 PUSH3 0x245 SWAP2 SWAP1 PUSH3 0x353 JUMP JUMPDEST PUSH1 0x1 PUSH1 0x1 PUSH1 0xA0 SHL SUB SWAP1 DUP2 AND PUSH1 0xA0 MSTORE DUP2 AND PUSH1 0x80 MSTORE PUSH1 0x1 PUSH1 0x6 PUSH0 PUSH3 0x26F PUSH0 SLOAD PUSH1 0x1 PUSH1 0x1 PUSH1 0xA0 SHL SUB AND SWAP1 JUMP JUMPDEST PUSH1 0x1 PUSH1 0x1 PUSH1 0xA0 SHL SUB AND DUP2 MSTORE PUSH1 0x20 DUP1 DUP3 ADD SWAP3 SWAP1 SWAP3 MSTORE PUSH1 0x40 SWAP1 DUP2 ADD PUSH0 SWAP1 DUP2 KECCAK256 DUP1 SLOAD SWAP5 ISZERO ISZERO PUSH1 0xFF NOT SWAP6 DUP7 AND OR SWAP1 SSTORE ADDRESS DUP2 MSTORE PUSH1 0x6 SWAP1 SWAP3 MSTORE SWAP1 KECCAK256 DUP1 SLOAD SWAP1 SWAP2 AND PUSH1 0x1 OR SWAP1 SSTORE PUSH3 0x2B6 CALLER SWAP1 JUMP JUMPDEST PUSH1 0x1 PUSH1 0x1 PUSH1 0xA0 SHL SUB AND PUSH0 PUSH1 0x1 PUSH1 0x1 PUSH1 0xA0 SHL SUB AND PUSH32 0xDDF252AD1BE2C89B69C2B068FC378DAA952BA7F163C4A11628F55A4DF523B3EF PUSH1 0x9 SLOAD PUSH1 0x40 MLOAD PUSH3 0x2FD SWAP2 DUP2 MSTORE PUSH1 0x20 ADD SWAP1 JUMP JUMPDEST PUSH1 0x40 MLOAD DUP1 SWAP2 SUB SWAP1 LOG3 POP POP PUSH3 0x382 JUMP JUMPDEST PUSH0 DUP3 PUSH3 0x328 JUMPI PUSH4 0x4E487B71 PUSH1 0xE0 SHL PUSH0 MSTORE PUSH1 0x12 PUSH1 0x4 MSTORE PUSH1 0x24 PUSH0 REVERT JUMPDEST POP MOD SWAP1 JUMP JUMPDEST DUP2 DUP2 SUB DUP2 DUP2 GT ISZERO PUSH3 0x34D JUMPI PUSH4 0x4E487B71 PUSH1 0xE0 SHL PUSH0 MSTORE PUSH1 0x11 PUSH1 0x4 MSTORE PUSH1 0x24 PUSH0 REVERT JUMPDEST SWAP3 SWAP2 POP POP JUMP JUMPDEST PUSH0 PUSH1 0x20 DUP3 DUP5 SUB SLT ISZERO PUSH3 0x364 JUMPI PUSH0 DUP1 REVERT JUMPDEST DUP2 MLOAD PUSH1 0x1 PUSH1 0x1 PUSH1 0xA0 SHL SUB DUP2 AND DUP2 EQ PUSH3 0x37B JUMPI PUSH0 DUP1 REVERT JUMPDEST SWAP4 SWAP3 POP POP POP JUMP JUMPDEST PUSH1 0x80 MLOAD PUSH1 0xA0 MLOAD PUSH2 0x2760 PUSH3 0x3D5 PUSH0 CODECOPY PUSH0 DUP2 DUP2 PUSH2 0x3F5 ADD MSTORE DUP2 DUP2 PUSH2 0x15AB ADD MSTORE PUSH2 0x1773 ADD MSTORE PUSH0 DUP2 DUP2 PUSH2 0x2A0 ADD MSTORE DUP2 DUP2 PUSH2 0x1C4B ADD MSTORE DUP2 DUP2 PUSH2 0x1D02 ADD MSTORE DUP2 DUP2 PUSH2 0x1D3E ADD MSTORE DUP2 DUP2 PUSH2 0x1DAA ADD MSTORE PUSH2 0x1DD1 ADD MSTORE PUSH2 0x2760 PUSH0 RETURN INVALID PUSH1 0x80 PUSH1 0x40 MSTORE PUSH1 0x4 CALLDATASIZE LT PUSH2 0x1F4 JUMPI PUSH0 CALLDATALOAD PUSH1 0xE0 SHR DUP1 PUSH4 0x55CE3B9A GT PUSH2 0x108 JUMPI DUP1 PUSH4 0xA69DF4B5 GT PUSH2 0x9D JUMPI DUP1 PUSH4 0xD7D7442F GT PUSH2 0x6D JUMPI DUP1 PUSH4 0xD7D7442F EQ PUSH2 0x601 JUMPI DUP1 PUSH4 0xDD467064 EQ PUSH2 0x620 JUMPI DUP1 PUSH4 0xDD62ED3E EQ PUSH2 0x63F JUMPI DUP1 PUSH4 0xEA2F0B37 EQ PUSH2 0x683 JUMPI DUP1 PUSH4 0xF2FDE38B EQ PUSH2 0x6A2 JUMPI PUSH0 DUP1 REVERT JUMPDEST DUP1 PUSH4 0xA69DF4B5 EQ PUSH2 0x59B JUMPI DUP1 PUSH4 0xA9059CBB EQ PUSH2 0x5AF JUMPI DUP1 PUSH4 0xB6C52324 EQ PUSH2 0x5CE JUMPI DUP1 PUSH4 0xC49B9A80 EQ PUSH2 0x5E2 JUMPI PUSH0 DUP1 REVERT JUMPDEST DUP1 PUSH4 0x88F82020 GT PUSH2 0xD8 JUMPI DUP1 PUSH4 0x88F82020 EQ PUSH2 0x4FC JUMPI DUP1 PUSH4 0x8DA5CB5B EQ PUSH2 0x533 JUMPI DUP1 PUSH4 0x95D89B41 EQ PUSH2 0x54F JUMPI DUP1 PUSH4 0xA457C2D7 EQ PUSH2 0x57C JUMPI PUSH0 DUP1 REVERT JUMPDEST DUP1 PUSH4 0x55CE3B9A EQ PUSH2 0x48B JUMPI DUP1 PUSH4 0x664A1AD6 EQ PUSH2 0x4AA JUMPI DUP1 PUSH4 0x70A08231 EQ PUSH2 0x4C9 JUMPI DUP1 PUSH4 0x715018A6 EQ PUSH2 0x4E8 JUMPI PUSH0 DUP1 REVERT JUMPDEST DUP1 PUSH4 0x3685D419 GT PUSH2 0x189 JUMPI DUP1 PUSH4 0x4549B039 GT PUSH2 0x159 JUMPI DUP1 PUSH4 0x4549B039 EQ PUSH2 0x3C5 JUMPI DUP1 PUSH4 0x49BD5A5E EQ PUSH2 0x3E4 JUMPI DUP1 PUSH4 0x4A74BB02 EQ PUSH2 0x417 JUMPI DUP1 PUSH4 0x52390C02 EQ PUSH2 0x435 JUMPI DUP1 PUSH4 0x5342ACB4 EQ PUSH2 0x454 JUMPI PUSH0 DUP1 REVERT JUMPDEST DUP1 PUSH4 0x3685D419 EQ PUSH2 0x347 JUMPI DUP1 PUSH4 0x39509351 EQ PUSH2 0x368 JUMPI DUP1 PUSH4 0x3BD5D173 EQ PUSH2 0x387 JUMPI DUP1 PUSH4 0x437823EC EQ PUSH2 0x3A6 JUMPI PUSH0 DUP1 REVERT JUMPDEST DUP1 PUSH4 0x18160DDD GT PUSH2 0x1C4 JUMPI DUP1 PUSH4 0x18160DDD EQ PUSH2 0x2DA JUMPI DUP1 PUSH4 0x23B872DD EQ PUSH2 0x2EE JUMPI DUP1 PUSH4 0x2D838119 EQ PUSH2 0x30D JUMPI DUP1 PUSH4 0x313CE567 EQ PUSH2 0x32C JUMPI PUSH0 DUP1 REVERT JUMPDEST DUP1 PUSH4 0x6FDDE03 EQ PUSH2 0x1FF JUMPI DUP1 PUSH4 0x95EA7B3 EQ PUSH2 0x242 JUMPI DUP1 PUSH4 0x13114A9D EQ PUSH2 0x271 JUMPI DUP1 PUSH4 0x1694505E EQ PUSH2 0x28F JUMPI PUSH0 DUP1 REVERT JUMPDEST CALLDATASIZE PUSH2 0x1FB JUMPI STOP JUMPDEST PUSH0 DUP1 REVERT JUMPDEST CALLVALUE DUP1 ISZERO PUSH2 0x20A JUMPI PUSH0 DUP1 REVERT JUMPDEST POP PUSH1 0x40 DUP1 MLOAD DUP1 DUP3 ADD SWAP1 SWAP2 MSTORE PUSH1 0x9 DUP2 MSTORE PUSH9 0x31B0BA31B431B7B4B7 PUSH1 0xB9 SHL PUSH1 0x20 DUP3 ADD MSTORE JUMPDEST PUSH1 0x40 MLOAD PUSH2 0x239 SWAP2 SWAP1 PUSH2 0x241B JUMP JUMPDEST PUSH1 0x40 MLOAD DUP1 SWAP2 SUB SWAP1 RETURN JUMPDEST CALLVALUE DUP1 ISZERO PUSH2 0x24D JUMPI PUSH0 DUP1 REVERT JUMPDEST POP PUSH2 0x261 PUSH2 0x25C CALLDATASIZE PUSH1 0x4 PUSH2 0x247E JUMP JUMPDEST PUSH2 0x6C1 JUMP JUMPDEST PUSH1 0x40 MLOAD SWAP1 ISZERO ISZERO DUP2 MSTORE PUSH1 0x20 ADD PUSH2 0x239 JUMP JUMPDEST CALLVALUE DUP1 ISZERO PUSH2 0x27C JUMPI PUSH0 DUP1 REVERT JUMPDEST POP PUSH1 0xB SLOAD JUMPDEST PUSH1 0x40 MLOAD SWAP1 DUP2 MSTORE PUSH1 0x20 ADD PUSH2 0x239 JUMP JUMPDEST CALLVALUE DUP1 ISZERO PUSH2 0x29A JUMPI PUSH0 DUP1 REVERT JUMPDEST POP PUSH2 0x2C2 PUSH32 0x0 DUP2 JUMP JUMPDEST PUSH1 0x40 MLOAD PUSH1 0x1 PUSH1 0x1 PUSH1 0xA0 SHL SUB SWAP1 SWAP2 AND DUP2 MSTORE PUSH1 0x20 ADD PUSH2 0x239 JUMP JUMPDEST CALLVALUE DUP1 ISZERO PUSH2 0x2E5 JUMPI PUSH0 DUP1 REVERT JUMPDEST POP PUSH1 0x9 SLOAD PUSH2 0x281 JUMP JUMPDEST CALLVALUE DUP1 ISZERO PUSH2 0x2F9 JUMPI PUSH0 DUP1 REVERT JUMPDEST POP PUSH2 0x261 PUSH2 0x308 CALLDATASIZE PUSH1 0x4 PUSH2 0x24A8 JUMP JUMPDEST PUSH2 0x6D7 JUMP JUMPDEST CALLVALUE DUP1 ISZERO PUSH2 0x318 JUMPI PUSH0 DUP1 REVERT JUMPDEST POP PUSH2 0x281 PUSH2 0x327 CALLDATASIZE PUSH1 0x4 PUSH2 0x24E6 JUMP JUMPDEST PUSH2 0x727 JUMP JUMPDEST CALLVALUE DUP1 ISZERO PUSH2 0x337 JUMPI PUSH0 DUP1 REVERT JUMPDEST POP PUSH1 0x40 MLOAD PUSH1 0x12 DUP2 MSTORE PUSH1 0x20 ADD PUSH2 0x239 JUMP JUMPDEST CALLVALUE DUP1 ISZERO PUSH2 0x352 JUMPI PUSH0 DUP1 REVERT JUMPDEST POP PUSH2 0x366 PUSH2 0x361 CALLDATASIZE PUSH1 0x4 PUSH2 0x24FD JUMP JUMPDEST PUSH2 0x7AE JUMP JUMPDEST STOP JUMPDEST CALLVALUE DUP1 ISZERO PUSH2 0x373 JUMPI PUSH0 DUP1 REVERT JUMPDEST POP PUSH2 0x261 PUSH2 0x382 CALLDATASIZE PUSH1 0x4 PUSH2 0x247E JUMP JUMPDEST PUSH2 0x952 JUMP JUMPDEST CALLVALUE DUP1 ISZERO PUSH2 0x392 JUMPI PUSH0 DUP1 REVERT JUMPDEST POP PUSH2 0x366 PUSH2 0x3A1 CALLDATASIZE PUSH1 0x4 PUSH2 0x24E6 JUMP JUMPDEST PUSH2 0x988 JUMP JUMPDEST CALLVALUE DUP1 ISZERO PUSH2 0x3B1 JUMPI PUSH0 DUP1 REVERT JUMPDEST POP PUSH2 0x366 PUSH2 0x3C0 CALLDATASIZE PUSH1 0x4 PUSH2 0x24FD JUMP JUMPDEST PUSH2 0xA6C JUMP JUMPDEST CALLVALUE DUP1 ISZERO PUSH2 0x3D0 JUMPI PUSH0 DUP1 REVERT JUMPDEST POP PUSH2 0x281 PUSH2 0x3DF CALLDATASIZE PUSH1 0x4 PUSH2 0x252C JUMP JUMPDEST PUSH2 0xB20 JUMP JUMPDEST CALLVALUE DUP1 ISZERO PUSH2 0x3EF JUMPI PUSH0 DUP1 REVERT JUMPDEST POP PUSH2 0x2C2 PUSH32 0x0 DUP2 JUMP JUMPDEST CALLVALUE DUP1 ISZERO PUSH2 0x422 JUMPI PUSH0 DUP1 REVERT JUMPDEST POP PUSH1 0xC SLOAD PUSH2 0x261 SWAP1 PUSH2 0x100 SWAP1 DIV PUSH1 0xFF AND DUP2 JUMP JUMPDEST CALLVALUE DUP1 ISZERO PUSH2 0x440 JUMPI PUSH0 DUP1 REVERT JUMPDEST POP PUSH2 0x366 PUSH2 0x44F CALLDATASIZE PUSH1 0x4 PUSH2 0x24FD JUMP JUMPDEST PUSH2 0xBA0 JUMP JUMPDEST CALLVALUE DUP1 ISZERO PUSH2 0x45F JUMPI PUSH0 DUP1 REVERT JUMPDEST POP PUSH2 0x261 PUSH2 0x46E CALLDATASIZE PUSH1 0x4 PUSH2 0x24FD JUMP JUMPDEST PUSH1 0x1 PUSH1 0x1 PUSH1 0xA0 SHL SUB AND PUSH0 SWAP1 DUP2 MSTORE PUSH1 0x6 PUSH1 0x20 MSTORE PUSH1 0x40 SWAP1 KECCAK256 SLOAD PUSH1 0xFF AND SWAP1 JUMP JUMPDEST CALLVALUE DUP1 ISZERO PUSH2 0x496 JUMPI PUSH0 DUP1 REVERT JUMPDEST POP PUSH2 0x366 PUSH2 0x4A5 CALLDATASIZE PUSH1 0x4 PUSH2 0x24FD JUMP JUMPDEST PUSH2 0xCED JUMP JUMPDEST CALLVALUE DUP1 ISZERO PUSH2 0x4B5 JUMPI PUSH0 DUP1 REVERT JUMPDEST POP PUSH1 0x12 SLOAD PUSH2 0x2C2 SWAP1 PUSH1 0x1 PUSH1 0x1 PUSH1 0xA0 SHL SUB AND DUP2 JUMP JUMPDEST CALLVALUE DUP1 ISZERO PUSH2 0x4D4 JUMPI PUSH0 DUP1 REVERT JUMPDEST POP PUSH2 0x281 PUSH2 0x4E3 CALLDATASIZE PUSH1 0x4 PUSH2 0x24FD JUMP JUMPDEST PUSH2 0xDC1 JUMP JUMPDEST CALLVALUE DUP1 ISZERO PUSH2 0x4F3 JUMPI PUSH0 DUP1 REVERT JUMPDEST POP PUSH2 0x366 PUSH2 0xE1D JUMP JUMPDEST CALLVALUE DUP1 ISZERO PUSH2 0x507 JUMPI PUSH0 DUP1 REVERT JUMPDEST POP PUSH2 0x261 PUSH2 0x516 CALLDATASIZE PUSH1 0x4 PUSH2 0x24FD JUMP JUMPDEST PUSH1 0x1 PUSH1 0x1 PUSH1 0xA0 SHL SUB AND PUSH0 SWAP1 DUP2 MSTORE PUSH1 0x7 PUSH1 0x20 MSTORE PUSH1 0x40 SWAP1 KECCAK256 SLOAD PUSH1 0xFF AND SWAP1 JUMP JUMPDEST CALLVALUE DUP1 ISZERO PUSH2 0x53E JUMPI PUSH0 DUP1 REVERT JUMPDEST POP PUSH0 SLOAD PUSH1 0x1 PUSH1 0x1 PUSH1 0xA0 SHL SUB AND PUSH2 0x2C2 JUMP JUMPDEST CALLVALUE DUP1 ISZERO PUSH2 0x55A JUMPI PUSH0 DUP1 REVERT JUMPDEST POP PUSH1 0x40 DUP1 MLOAD DUP1 DUP3 ADD SWAP1 SWAP2 MSTORE PUSH1 0x5 DUP2 MSTORE PUSH5 0x8682A8869 PUSH1 0xDB SHL PUSH1 0x20 DUP3 ADD MSTORE PUSH2 0x22C JUMP JUMPDEST CALLVALUE DUP1 ISZERO PUSH2 0x587 JUMPI PUSH0 DUP1 REVERT JUMPDEST POP PUSH2 0x261 PUSH2 0x596 CALLDATASIZE PUSH1 0x4 PUSH2 0x247E JUMP JUMPDEST PUSH2 0xE8E JUMP JUMPDEST CALLVALUE DUP1 ISZERO PUSH2 0x5A6 JUMPI PUSH0 DUP1 REVERT JUMPDEST POP PUSH2 0x366 PUSH2 0xEC4 JUMP JUMPDEST CALLVALUE DUP1 ISZERO PUSH2 0x5BA JUMPI PUSH0 DUP1 REVERT JUMPDEST POP PUSH2 0x261 PUSH2 0x5C9 CALLDATASIZE PUSH1 0x4 PUSH2 0x247E JUMP JUMPDEST PUSH2 0xFDA JUMP JUMPDEST CALLVALUE DUP1 ISZERO PUSH2 0x5D9 JUMPI PUSH0 DUP1 REVERT JUMPDEST POP PUSH1 0x2 SLOAD PUSH2 0x281 JUMP JUMPDEST CALLVALUE DUP1 ISZERO PUSH2 0x5ED JUMPI PUSH0 DUP1 REVERT JUMPDEST POP PUSH2 0x366 PUSH2 0x5FC CALLDATASIZE PUSH1 0x4 PUSH2 0x2556 JUMP JUMPDEST PUSH2 0xFE6 JUMP JUMPDEST CALLVALUE DUP1 ISZERO PUSH2 0x60C JUMPI PUSH0 DUP1 REVERT JUMPDEST POP PUSH2 0x366 PUSH2 0x61B CALLDATASIZE PUSH1 0x4 PUSH2 0x24E6 JUMP JUMPDEST PUSH2 0x1058 JUMP JUMPDEST CALLVALUE DUP1 ISZERO PUSH2 0x62B JUMPI PUSH0 DUP1 REVERT JUMPDEST POP PUSH2 0x366 PUSH2 0x63A CALLDATASIZE PUSH1 0x4 PUSH2 0x24E6 JUMP JUMPDEST PUSH2 0x10FB JUMP JUMPDEST CALLVALUE DUP1 ISZERO PUSH2 0x64A JUMPI PUSH0 DUP1 REVERT JUMPDEST POP PUSH2 0x281 PUSH2 0x659 CALLDATASIZE PUSH1 0x4 PUSH2 0x256F JUMP JUMPDEST PUSH1 0x1 PUSH1 0x1 PUSH1 0xA0 SHL SUB SWAP2 DUP3 AND PUSH0 SWAP1 DUP2 MSTORE PUSH1 0x5 PUSH1 0x20 SWAP1 DUP2 MSTORE PUSH1 0x40 DUP1 DUP4 KECCAK256 SWAP4 SWAP1 SWAP5 AND DUP3 MSTORE SWAP2 SWAP1 SWAP2 MSTORE KECCAK256 SLOAD SWAP1 JUMP JUMPDEST CALLVALUE DUP1 ISZERO PUSH2 0x68E JUMPI PUSH0 DUP1 REVERT JUMPDEST POP PUSH2 0x366 PUSH2 0x69D CALLDATASIZE PUSH1 0x4 PUSH2 0x24FD JUMP JUMPDEST PUSH2 0x11A4 JUMP JUMPDEST CALLVALUE DUP1 ISZERO PUSH2 0x6AD JUMPI PUSH0 DUP1 REVERT JUMPDEST POP PUSH2 0x366 PUSH2 0x6BC CALLDATASIZE PUSH1 0x4 PUSH2 0x24FD JUMP JUMPDEST PUSH2 0x124D JUMP JUMPDEST PUSH0 PUSH2 0x6CD CALLER DUP5 DUP5 PUSH2 0x1334 JUMP JUMPDEST POP PUSH1 0x1 JUMPDEST SWAP3 SWAP2 POP POP JUMP JUMPDEST PUSH0 PUSH2 0x6E3 DUP5 DUP5 DUP5 PUSH2 0x1457 JUMP JUMPDEST PUSH1 0x1 PUSH1 0x1 PUSH1 0xA0 SHL SUB DUP5 AND PUSH0 SWAP1 DUP2 MSTORE PUSH1 0x5 PUSH1 0x20 SWAP1 DUP2 MSTORE PUSH1 0x40 DUP1 DUP4 KECCAK256 CALLER DUP1 DUP6 MSTORE SWAP3 MSTORE SWAP1 SWAP2 KECCAK256 SLOAD PUSH2 0x71D SWAP2 DUP7 SWAP2 PUSH2 0x718 SWAP1 DUP7 SWAP1 PUSH2 0x25BA JUMP JUMPDEST PUSH2 0x1334 JUMP JUMPDEST POP PUSH1 0x1 SWAP4 SWAP3 POP POP POP JUMP JUMPDEST PUSH0 PUSH1 0xA SLOAD DUP3 GT ISZERO PUSH2 0x792 JUMPI PUSH1 0x40 MLOAD PUSH3 0x461BCD PUSH1 0xE5 SHL DUP2 MSTORE PUSH1 0x20 PUSH1 0x4 DUP3 ADD MSTORE PUSH1 0x2A PUSH1 0x24 DUP3 ADD MSTORE PUSH32 0x416D6F756E74206D757374206265206C657373207468616E20746F74616C2072 PUSH1 0x44 DUP3 ADD MSTORE PUSH10 0x65666C656374696F6E73 PUSH1 0xB0 SHL PUSH1 0x64 DUP3 ADD MSTORE PUSH1 0x84 ADD JUMPDEST PUSH1 0x40 MLOAD DUP1 SWAP2 SUB SWAP1 REVERT JUMPDEST PUSH0 PUSH2 0x79B PUSH2 0x1672 JUMP JUMPDEST SWAP1 POP PUSH2 0x7A7 DUP2 DUP5 PUSH2 0x25CD JUMP JUMPDEST SWAP4 SWAP3 POP POP POP JUMP JUMPDEST PUSH0 SLOAD PUSH1 0x1 PUSH1 0x1 PUSH1 0xA0 SHL SUB AND CALLER EQ PUSH2 0x7D7 JUMPI PUSH1 0x40 MLOAD PUSH3 0x461BCD PUSH1 0xE5 SHL DUP2 MSTORE PUSH1 0x4 ADD PUSH2 0x789 SWAP1 PUSH2 0x25EC JUMP JUMPDEST PUSH1 0x1 PUSH1 0x1 PUSH1 0xA0 SHL SUB DUP2 AND PUSH0 SWAP1 DUP2 MSTORE PUSH1 0x7 PUSH1 0x20 MSTORE PUSH1 0x40 SWAP1 KECCAK256 SLOAD PUSH1 0xFF AND PUSH2 0x83E JUMPI PUSH1 0x40 MLOAD PUSH3 0x461BCD PUSH1 0xE5 SHL DUP2 MSTORE PUSH1 0x20 PUSH1 0x4 DUP3 ADD MSTORE PUSH1 0x1B PUSH1 0x24 DUP3 ADD MSTORE PUSH32 0x4163636F756E7420697320616C726561647920496E636C756465640000000000 PUSH1 0x44 DUP3 ADD MSTORE PUSH1 0x64 ADD PUSH2 0x789 JUMP JUMPDEST PUSH0 JUMPDEST PUSH1 0x8 SLOAD DUP2 LT ISZERO PUSH2 0x94E JUMPI DUP2 PUSH1 0x1 PUSH1 0x1 PUSH1 0xA0 SHL SUB AND PUSH1 0x8 DUP3 DUP2 SLOAD DUP2 LT PUSH2 0x867 JUMPI PUSH2 0x867 PUSH2 0x2621 JUMP JUMPDEST PUSH0 SWAP2 DUP3 MSTORE PUSH1 0x20 SWAP1 SWAP2 KECCAK256 ADD SLOAD PUSH1 0x1 PUSH1 0x1 PUSH1 0xA0 SHL SUB AND SUB PUSH2 0x946 JUMPI PUSH1 0x8 DUP1 SLOAD PUSH2 0x890 SWAP1 PUSH1 0x1 SWAP1 PUSH2 0x25BA JUMP JUMPDEST DUP2 SLOAD DUP2 LT PUSH2 0x8A0 JUMPI PUSH2 0x8A0 PUSH2 0x2621 JUMP JUMPDEST PUSH0 SWAP2 DUP3 MSTORE PUSH1 0x20 SWAP1 SWAP2 KECCAK256 ADD SLOAD PUSH1 0x8 DUP1 SLOAD PUSH1 0x1 PUSH1 0x1 PUSH1 0xA0 SHL SUB SWAP1 SWAP3 AND SWAP2 DUP4 SWAP1 DUP2 LT PUSH2 0x8CB JUMPI PUSH2 0x8CB PUSH2 0x2621 JUMP JUMPDEST PUSH0 SWAP2 DUP3 MSTORE PUSH1 0x20 DUP1 DUP4 KECCAK256 SWAP2 SWAP1 SWAP2 ADD DUP1 SLOAD PUSH1 0x1 PUSH1 0x1 PUSH1 0xA0 SHL SUB NOT AND PUSH1 0x1 PUSH1 0x1 PUSH1 0xA0 SHL SUB SWAP5 DUP6 AND OR SWAP1 SSTORE SWAP2 DUP5 AND DUP2 MSTORE PUSH1 0x4 DUP3 MSTORE PUSH1 0x40 DUP1 DUP3 KECCAK256 DUP3 SWAP1 SSTORE PUSH1 0x7 SWAP1 SWAP3 MSTORE KECCAK256 DUP1 SLOAD PUSH1 0xFF NOT AND SWAP1 SSTORE PUSH1 0x8 DUP1 SLOAD DUP1 PUSH2 0x922 JUMPI PUSH2 0x922 PUSH2 0x2635 JUMP JUMPDEST PUSH0 DUP3 DUP2 MSTORE PUSH1 0x20 SWAP1 KECCAK256 DUP2 ADD PUSH0 NOT SWAP1 DUP2 ADD DUP1 SLOAD PUSH1 0x1 PUSH1 0x1 PUSH1 0xA0 SHL SUB NOT AND SWAP1 SSTORE ADD SWAP1 SSTORE POP POP JUMP JUMPDEST PUSH1 0x1 ADD PUSH2 0x840 JUMP JUMPDEST POP POP JUMP JUMPDEST CALLER PUSH0 DUP2 DUP2 MSTORE PUSH1 0x5 PUSH1 0x20 SWAP1 DUP2 MSTORE PUSH1 0x40 DUP1 DUP4 KECCAK256 PUSH1 0x1 PUSH1 0x1 PUSH1 0xA0 SHL SUB DUP8 AND DUP5 MSTORE SWAP1 SWAP2 MSTORE DUP2 KECCAK256 SLOAD SWAP1 SWAP2 PUSH2 0x6CD SWAP2 DUP6 SWAP1 PUSH2 0x718 SWAP1 DUP7 SWAP1 PUSH2 0x2649 JUMP JUMPDEST CALLER PUSH0 DUP2 DUP2 MSTORE PUSH1 0x7 PUSH1 0x20 MSTORE PUSH1 0x40 SWAP1 KECCAK256 SLOAD PUSH1 0xFF AND ISZERO PUSH2 0x9FC JUMPI PUSH1 0x40 MLOAD PUSH3 0x461BCD PUSH1 0xE5 SHL DUP2 MSTORE PUSH1 0x20 PUSH1 0x4 DUP3 ADD MSTORE PUSH1 0x2C PUSH1 0x24 DUP3 ADD MSTORE PUSH32 0x4578636C75646564206164647265737365732063616E6E6F742063616C6C2074 PUSH1 0x44 DUP3 ADD MSTORE PUSH12 0x3434B990333AB731BA34B7B7 PUSH1 0xA1 SHL PUSH1 0x64 DUP3 ADD MSTORE PUSH1 0x84 ADD PUSH2 0x789 JUMP JUMPDEST PUSH0 PUSH2 0xA06 DUP4 PUSH2 0x1693 JUMP JUMPDEST POP PUSH1 0x1 PUSH1 0x1 PUSH1 0xA0 SHL SUB DUP4 AND PUSH0 SWAP1 DUP2 MSTORE PUSH1 0x3 PUSH1 0x20 MSTORE PUSH1 0x40 SWAP1 KECCAK256 SLOAD SWAP1 SWAP2 POP PUSH2 0xA2D SWAP1 DUP3 SWAP1 PUSH2 0x25BA JUMP JUMPDEST PUSH1 0x1 PUSH1 0x1 PUSH1 0xA0 SHL SUB DUP4 AND PUSH0 SWAP1 DUP2 MSTORE PUSH1 0x3 PUSH1 0x20 MSTORE PUSH1 0x40 SWAP1 KECCAK256 SSTORE PUSH1 0xA SLOAD PUSH2 0xA53 SWAP1 DUP3 SWAP1 PUSH2 0x25BA JUMP JUMPDEST PUSH1 0xA SSTORE PUSH1 0xB SLOAD PUSH2 0xA64 SWAP1 DUP5 SWAP1 PUSH2 0x2649 JUMP JUMPDEST PUSH1 0xB SSTORE POP POP POP JUMP JUMPDEST PUSH0 SLOAD PUSH1 0x1 PUSH1 0x1 PUSH1 0xA0 SHL SUB AND CALLER EQ PUSH2 0xA95 JUMPI PUSH1 0x40 MLOAD PUSH3 0x461BCD PUSH1 0xE5 SHL DUP2 MSTORE PUSH1 0x4 ADD PUSH2 0x789 SWAP1 PUSH2 0x25EC JUMP JUMPDEST PUSH1 0x1 PUSH1 0x1 PUSH1 0xA0 SHL SUB DUP2 AND PUSH0 SWAP1 DUP2 MSTORE PUSH1 0x6 PUSH1 0x20 MSTORE PUSH1 0x40 SWAP1 KECCAK256 SLOAD PUSH1 0xFF AND ISZERO PUSH2 0xAFD JUMPI PUSH1 0x40 MLOAD PUSH3 0x461BCD PUSH1 0xE5 SHL DUP2 MSTORE PUSH1 0x20 PUSH1 0x4 DUP3 ADD MSTORE PUSH1 0x18 PUSH1 0x24 DUP3 ADD MSTORE PUSH32 0x416C72656179206578636C756465642066726F6D206665650000000000000000 PUSH1 0x44 DUP3 ADD MSTORE PUSH1 0x64 ADD PUSH2 0x789 JUMP JUMPDEST PUSH1 0x1 PUSH1 0x1 PUSH1 0xA0 SHL SUB AND PUSH0 SWAP1 DUP2 MSTORE PUSH1 0x6 PUSH1 0x20 MSTORE PUSH1 0x40 SWAP1 KECCAK256 DUP1 SLOAD PUSH1 0xFF NOT AND PUSH1 0x1 OR SWAP1 SSTORE JUMP JUMPDEST PUSH0 PUSH1 0x9 SLOAD DUP4 GT ISZERO PUSH2 0xB73 JUMPI PUSH1 0x40 MLOAD PUSH3 0x461BCD PUSH1 0xE5 SHL DUP2 MSTORE PUSH1 0x20 PUSH1 0x4 DUP3 ADD MSTORE PUSH1 0x1F PUSH1 0x24 DUP3 ADD MSTORE PUSH32 0x416D6F756E74206D757374206265206C657373207468616E20737570706C7900 PUSH1 0x44 DUP3 ADD MSTORE PUSH1 0x64 ADD PUSH2 0x789 JUMP JUMPDEST DUP2 PUSH2 0xB8C JUMPI PUSH0 PUSH2 0xB82 DUP5 PUSH2 0x1693 JUMP JUMPDEST POP SWAP2 POP PUSH2 0x6D1 SWAP1 POP JUMP JUMPDEST PUSH0 PUSH2 0xB96 DUP5 PUSH2 0x1693 JUMP JUMPDEST SWAP3 POP PUSH2 0x6D1 SWAP2 POP POP JUMP JUMPDEST PUSH0 SLOAD PUSH1 0x1 PUSH1 0x1 PUSH1 0xA0 SHL SUB AND CALLER EQ PUSH2 0xBC9 JUMPI PUSH1 0x40 MLOAD PUSH3 0x461BCD PUSH1 0xE5 SHL DUP2 MSTORE PUSH1 0x4 ADD PUSH2 0x789 SWAP1 PUSH2 0x25EC JUMP JUMPDEST PUSH1 0x1 PUSH1 0x1 PUSH1 0xA0 SHL SUB DUP2 AND PUSH0 SWAP1 DUP2 MSTORE PUSH1 0x7 PUSH1 0x20 MSTORE PUSH1 0x40 SWAP1 KECCAK256 SLOAD PUSH1 0xFF AND ISZERO PUSH2 0xC31 JUMPI PUSH1 0x40 MLOAD PUSH3 0x461BCD PUSH1 0xE5 SHL DUP2 MSTORE PUSH1 0x20 PUSH1 0x4 DUP3 ADD MSTORE PUSH1 0x1B PUSH1 0x24 DUP3 ADD MSTORE PUSH32 0x4163636F756E7420697320616C7265616479206578636C756465640000000000 PUSH1 0x44 DUP3 ADD MSTORE PUSH1 0x64 ADD PUSH2 0x789 JUMP JUMPDEST PUSH1 0x1 PUSH1 0x1 PUSH1 0xA0 SHL SUB DUP2 AND PUSH0 SWAP1 DUP2 MSTORE PUSH1 0x3 PUSH1 0x20 MSTORE PUSH1 0x40 SWAP1 KECCAK256 SLOAD ISZERO PUSH2 0xC88 JUMPI PUSH1 0x1 PUSH1 0x1 PUSH1 0xA0 SHL SUB DUP2 AND PUSH0 SWAP1 DUP2 MSTORE PUSH1 0x3 PUSH1 0x20 MSTORE PUSH1 0x40 SWAP1 KECCAK256 SLOAD PUSH2 0xC6F SWAP1 PUSH2 0x727 JUMP JUMPDEST PUSH1 0x1 PUSH1 0x1 PUSH1 0xA0 SHL SUB DUP3 AND PUSH0 SWAP1 DUP2 MSTORE PUSH1 0x4 PUSH1 0x20 MSTORE PUSH1 0x40 SWAP1 KECCAK256 SSTORE JUMPDEST PUSH1 0x1 PUSH1 0x1 PUSH1 0xA0 SHL SUB AND PUSH0 DUP2 DUP2 MSTORE PUSH1 0x7 PUSH1 0x20 MSTORE PUSH1 0x40 DUP2 KECCAK256 DUP1 SLOAD PUSH1 0xFF NOT AND PUSH1 0x1 SWAP1 DUP2 OR SWAP1 SWAP2 SSTORE PUSH1 0x8 DUP1 SLOAD SWAP2 DUP3 ADD DUP2 SSTORE SWAP1 SWAP2 MSTORE PUSH32 0xF3F7A9FE364FAAB93B216DA50A3214154F22A0A2B415B23A84C8169E8B636EE3 ADD DUP1 SLOAD PUSH1 0x1 PUSH1 0x1 PUSH1 0xA0 SHL SUB NOT AND SWAP1 SWAP2 OR SWAP1 SSTORE JUMP JUMPDEST PUSH0 SLOAD PUSH1 0x1 PUSH1 0x1 PUSH1 0xA0 SHL SUB AND CALLER EQ PUSH2 0xD16 JUMPI PUSH1 0x40 MLOAD PUSH3 0x461BCD PUSH1 0xE5 SHL DUP2 MSTORE PUSH1 0x4 ADD PUSH2 0x789 SWAP1 PUSH2 0x25EC JUMP JUMPDEST PUSH1 0x1 PUSH1 0x1 PUSH1 0xA0 SHL SUB DUP2 AND PUSH2 0xD6C JUMPI PUSH1 0x40 MLOAD PUSH3 0x461BCD PUSH1 0xE5 SHL DUP2 MSTORE PUSH1 0x20 PUSH1 0x4 DUP3 ADD MSTORE PUSH1 0x1B PUSH1 0x24 DUP3 ADD MSTORE PUSH32 0x46756E642077616C6C65742063616E206E6F74206265207A65726F0000000000 PUSH1 0x44 DUP3 ADD MSTORE PUSH1 0x64 ADD PUSH2 0x789 JUMP JUMPDEST PUSH1 0x12 DUP1 SLOAD PUSH1 0x1 PUSH1 0x1 PUSH1 0xA0 SHL SUB NOT AND PUSH1 0x1 PUSH1 0x1 PUSH1 0xA0 SHL SUB DUP4 AND SWAP1 DUP2 OR SWAP1 SWAP2 SSTORE PUSH1 0x40 MLOAD SWAP1 DUP2 MSTORE PUSH32 0x4CB53CDEE53F2D4E4E60769ADD356F6CBD911505806FD6C1EEE38F5A6B8A2574 SWAP1 PUSH1 0x20 ADD JUMPDEST PUSH1 0x40 MLOAD DUP1 SWAP2 SUB SWAP1 LOG1 POP JUMP JUMPDEST PUSH1 0x1 PUSH1 0x1 PUSH1 0xA0 SHL SUB DUP2 AND PUSH0 SWAP1 DUP2 MSTORE PUSH1 0x7 PUSH1 0x20 MSTORE PUSH1 0x40 DUP2 KECCAK256 SLOAD PUSH1 0xFF AND ISZERO PUSH2 0xDFC JUMPI POP PUSH1 0x1 PUSH1 0x1 PUSH1 0xA0 SHL SUB AND PUSH0 SWAP1 DUP2 MSTORE PUSH1 0x4 PUSH1 0x20 MSTORE PUSH1 0x40 SWAP1 KECCAK256 SLOAD SWAP1 JUMP JUMPDEST PUSH1 0x1 PUSH1 0x1 PUSH1 0xA0 SHL SUB DUP3 AND PUSH0 SWAP1 DUP2 MSTORE PUSH1 0x3 PUSH1 0x20 MSTORE PUSH1 0x40 SWAP1 KECCAK256 SLOAD PUSH2 0x6D1 SWAP1 PUSH2 0x727 JUMP JUMPDEST PUSH0 SLOAD PUSH1 0x1 PUSH1 0x1 PUSH1 0xA0 SHL SUB AND CALLER EQ PUSH2 0xE46 JUMPI PUSH1 0x40 MLOAD PUSH3 0x461BCD PUSH1 0xE5 SHL DUP2 MSTORE PUSH1 0x4 ADD PUSH2 0x789 SWAP1 PUSH2 0x25EC JUMP JUMPDEST PUSH0 DUP1 SLOAD PUSH1 0x40 MLOAD PUSH1 0x1 PUSH1 0x1 PUSH1 0xA0 SHL SUB SWAP1 SWAP2 AND SWAP1 PUSH32 0x8BE0079C531659141344CD1FD0A4F28419497F9722A3DAAFE3B4186F6B6457E0 SWAP1 DUP4 SWAP1 LOG3 PUSH0 DUP1 SLOAD PUSH1 0x1 PUSH1 0x1 PUSH1 0xA0 SHL SUB NOT AND SWAP1 SSTORE JUMP JUMPDEST CALLER PUSH0 DUP2 DUP2 MSTORE PUSH1 0x5 PUSH1 0x20 SWAP1 DUP2 MSTORE PUSH1 0x40 DUP1 DUP4 KECCAK256 PUSH1 0x1 PUSH1 0x1 PUSH1 0xA0 SHL SUB DUP8 AND DUP5 MSTORE SWAP1 SWAP2 MSTORE DUP2 KECCAK256 SLOAD SWAP1 SWAP2 PUSH2 0x6CD SWAP2 DUP6 SWAP1 PUSH2 0x718 SWAP1 DUP7 SWAP1 PUSH2 0x25BA JUMP JUMPDEST PUSH1 0x1 SLOAD PUSH1 0x1 PUSH1 0x1 PUSH1 0xA0 SHL SUB AND CALLER EQ PUSH2 0xF2A JUMPI PUSH1 0x40 MLOAD PUSH3 0x461BCD PUSH1 0xE5 SHL DUP2 MSTORE PUSH1 0x20 PUSH1 0x4 DUP3 ADD MSTORE PUSH1 0x24 DUP1 DUP3 ADD MSTORE PUSH32 0x596F7520646F206E6F742068617665207065726D697373696F6E20746F20756E PUSH1 0x44 DUP3 ADD MSTORE PUSH4 0x6C6F636B PUSH1 0xE0 SHL PUSH1 0x64 DUP3 ADD MSTORE PUSH1 0x84 ADD PUSH2 0x789 JUMP JUMPDEST PUSH1 0x2 SLOAD TIMESTAMP GT PUSH2 0xF7B JUMPI PUSH1 0x40 MLOAD PUSH3 0x461BCD PUSH1 0xE5 SHL DUP2 MSTORE PUSH1 0x20 PUSH1 0x4 DUP3 ADD MSTORE PUSH1 0x1F PUSH1 0x24 DUP3 ADD MSTORE PUSH32 0x436F6E7472616374206973206C6F636B656420756E74696C2037206461797300 PUSH1 0x44 DUP3 ADD MSTORE PUSH1 0x64 ADD PUSH2 0x789 JUMP JUMPDEST PUSH1 0x1 SLOAD PUSH0 DUP1 SLOAD PUSH1 0x40 MLOAD PUSH1 0x1 PUSH1 0x1 PUSH1 0xA0 SHL SUB SWAP4 DUP5 AND SWAP4 SWAP1 SWAP2 AND SWAP2 PUSH32 0x8BE0079C531659141344CD1FD0A4F28419497F9722A3DAAFE3B4186F6B6457E0 SWAP2 LOG3 PUSH1 0x1 SLOAD PUSH0 DUP1 SLOAD PUSH1 0x1 PUSH1 0x1 PUSH1 0xA0 SHL SUB NOT AND PUSH1 0x1 PUSH1 0x1 PUSH1 0xA0 SHL SUB SWAP1 SWAP3 AND SWAP2 SWAP1 SWAP2 OR SWAP1 SSTORE JUMP JUMPDEST PUSH0 PUSH2 0x6CD CALLER DUP5 DUP5 PUSH2 0x1457 JUMP JUMPDEST PUSH0 SLOAD PUSH1 0x1 PUSH1 0x1 PUSH1 0xA0 SHL SUB AND CALLER EQ PUSH2 0x100F JUMPI PUSH1 0x40 MLOAD PUSH3 0x461BCD PUSH1 0xE5 SHL DUP2 MSTORE PUSH1 0x4 ADD PUSH2 0x789 SWAP1 PUSH2 0x25EC JUMP JUMPDEST PUSH1 0xC DUP1 SLOAD DUP3 ISZERO ISZERO PUSH2 0x100 MUL PUSH2 0xFF00 NOT SWAP1 SWAP2 AND OR SWAP1 SSTORE PUSH1 0x40 MLOAD PUSH32 0x53726DFCAF90650AA7EB35524F4D3220F07413C8D6CB404CC8C18BF5591BC159 SWAP1 PUSH2 0xDB6 SWAP1 DUP4 ISZERO ISZERO DUP2 MSTORE PUSH1 0x20 ADD SWAP1 JUMP JUMPDEST PUSH0 SLOAD PUSH1 0x1 PUSH1 0x1 PUSH1 0xA0 SHL SUB AND CALLER EQ PUSH2 0x1081 JUMPI PUSH1 0x40 MLOAD PUSH3 0x461BCD PUSH1 0xE5 SHL DUP2 MSTORE PUSH1 0x4 ADD PUSH2 0x789 SWAP1 PUSH2 0x25EC JUMP JUMPDEST PUSH0 DUP2 GT PUSH2 0x10C6 JUMPI PUSH1 0x40 MLOAD PUSH3 0x461BCD PUSH1 0xE5 SHL DUP2 MSTORE PUSH1 0x20 PUSH1 0x4 DUP3 ADD MSTORE PUSH1 0x13 PUSH1 0x24 DUP3 ADD MSTORE PUSH19 0x185B5BDD5B9D081A5CC81B9BDD081D985B1A59 PUSH1 0x6A SHL PUSH1 0x44 DUP3 ADD MSTORE PUSH1 0x64 ADD PUSH2 0x789 JUMP JUMPDEST PUSH1 0xD DUP2 SWAP1 SSTORE PUSH1 0x40 MLOAD DUP2 DUP2 MSTORE PUSH32 0xADFA8ECB21B6962EBCD0ADBD9AB985B7B4C5B5EB3B0DEAD683171565C7BFE171 SWAP1 PUSH1 0x20 ADD PUSH2 0xDB6 JUMP JUMPDEST PUSH0 SLOAD PUSH1 0x1 PUSH1 0x1 PUSH1 0xA0 SHL SUB AND CALLER EQ PUSH2 0x1124 JUMPI PUSH1 0x40 MLOAD PUSH3 0x461BCD PUSH1 0xE5 SHL DUP2 MSTORE PUSH1 0x4 ADD PUSH2 0x789 SWAP1 PUSH2 0x25EC JUMP JUMPDEST PUSH0 DUP1 SLOAD PUSH1 0x1 DUP1 SLOAD PUSH1 0x1 PUSH1 0x1 PUSH1 0xA0 SHL SUB NOT SWAP1 DUP2 AND PUSH1 0x1 PUSH1 0x1 PUSH1 0xA0 SHL SUB DUP5 AND OR SWAP1 SWAP2 SSTORE AND SWAP1 SSTORE PUSH2 0x1152 DUP2 TIMESTAMP PUSH2 0x2649 JUMP JUMPDEST PUSH1 0x2 DUP2 SWAP1 SSTORE PUSH0 DUP1 SLOAD PUSH1 0x40 DUP1 MLOAD PUSH1 0x1 PUSH1 0x1 PUSH1 0xA0 SHL SUB SWAP1 SWAP3 AND DUP3 MSTORE PUSH1 0x20 DUP3 ADD SWAP3 SWAP1 SWAP3 MSTORE SWAP1 DUP2 ADD SWAP2 SWAP1 SWAP2 MSTORE PUSH32 0x989EAA915CBB416EA3D6F9A63B1A3DE51770C7674B11FE21ECDF76B4E1D13910 SWAP1 PUSH1 0x60 ADD PUSH2 0xDB6 JUMP JUMPDEST PUSH0 SLOAD PUSH1 0x1 PUSH1 0x1 PUSH1 0xA0 SHL SUB AND CALLER EQ PUSH2 0x11CD JUMPI PUSH1 0x40 MLOAD PUSH3 0x461BCD PUSH1 0xE5 SHL DUP2 MSTORE PUSH1 0x4 ADD PUSH2 0x789 SWAP1 PUSH2 0x25EC JUMP JUMPDEST PUSH1 0x1 PUSH1 0x1 PUSH1 0xA0 SHL SUB DUP2 AND PUSH0 SWAP1 DUP2 MSTORE PUSH1 0x6 PUSH1 0x20 MSTORE PUSH1 0x40 SWAP1 KECCAK256 SLOAD PUSH1 0xFF AND PUSH2 0x122D JUMPI PUSH1 0x40 MLOAD PUSH3 0x461BCD PUSH1 0xE5 SHL DUP2 MSTORE PUSH1 0x20 PUSH1 0x4 DUP3 ADD MSTORE PUSH1 0x16 PUSH1 0x24 DUP3 ADD MSTORE PUSH22 0x416C7265617920696E636C7564656420696E20666565 PUSH1 0x50 SHL PUSH1 0x44 DUP3 ADD MSTORE PUSH1 0x64 ADD PUSH2 0x789 JUMP JUMPDEST PUSH1 0x1 PUSH1 0x1 PUSH1 0xA0 SHL SUB AND PUSH0 SWAP1 DUP2 MSTORE PUSH1 0x6 PUSH1 0x20 MSTORE PUSH1 0x40 SWAP1 KECCAK256 DUP1 SLOAD PUSH1 0xFF NOT AND SWAP1 SSTORE JUMP JUMPDEST PUSH0 SLOAD PUSH1 0x1 PUSH1 0x1 PUSH1 0xA0 SHL SUB AND CALLER EQ PUSH2 0x1276 JUMPI PUSH1 0x40 MLOAD PUSH3 0x461BCD PUSH1 0xE5 SHL DUP2 MSTORE PUSH1 0x4 ADD PUSH2 0x789 SWAP1 PUSH2 0x25EC JUMP JUMPDEST PUSH1 0x1 PUSH1 0x1 PUSH1 0xA0 SHL SUB DUP2 AND PUSH2 0x12DB JUMPI PUSH1 0x40 MLOAD PUSH3 0x461BCD PUSH1 0xE5 SHL DUP2 MSTORE PUSH1 0x20 PUSH1 0x4 DUP3 ADD MSTORE PUSH1 0x26 PUSH1 0x24 DUP3 ADD MSTORE PUSH32 0x4F776E61626C653A206E6577206F776E657220697320746865207A65726F2061 PUSH1 0x44 DUP3 ADD MSTORE PUSH6 0x646472657373 PUSH1 0xD0 SHL PUSH1 0x64 DUP3 ADD MSTORE PUSH1 0x84 ADD PUSH2 0x789 JUMP JUMPDEST PUSH0 DUP1 SLOAD PUSH1 0x40 MLOAD PUSH1 0x1 PUSH1 0x1 PUSH1 0xA0 SHL SUB DUP1 DUP6 AND SWAP4 SWAP3 AND SWAP2 PUSH32 0x8BE0079C531659141344CD1FD0A4F28419497F9722A3DAAFE3B4186F6B6457E0 SWAP2 LOG3 PUSH0 DUP1 SLOAD PUSH1 0x1 PUSH1 0x1 PUSH1 0xA0 SHL SUB NOT AND PUSH1 0x1 PUSH1 0x1 PUSH1 0xA0 SHL SUB SWAP3 SWAP1 SWAP3 AND SWAP2 SWAP1 SWAP2 OR SWAP1 SSTORE JUMP JUMPDEST PUSH1 0x1 PUSH1 0x1 PUSH1 0xA0 SHL SUB DUP4 AND PUSH2 0x1396 JUMPI PUSH1 0x40 MLOAD PUSH3 0x461BCD PUSH1 0xE5 SHL DUP2 MSTORE PUSH1 0x20 PUSH1 0x4 DUP3 ADD MSTORE PUSH1 0x24 DUP1 DUP3 ADD MSTORE PUSH32 0x45524332303A20617070726F76652066726F6D20746865207A65726F20616464 PUSH1 0x44 DUP3 ADD MSTORE PUSH4 0x72657373 PUSH1 0xE0 SHL PUSH1 0x64 DUP3 ADD MSTORE PUSH1 0x84 ADD PUSH2 0x789 JUMP JUMPDEST PUSH1 0x1 PUSH1 0x1 PUSH1 0xA0 SHL SUB DUP3 AND PUSH2 0x13F7 JUMPI PUSH1 0x40 MLOAD PUSH3 0x461BCD PUSH1 0xE5 SHL DUP2 MSTORE PUSH1 0x20 PUSH1 0x4 DUP3 ADD MSTORE PUSH1 0x22 PUSH1 0x24 DUP3 ADD MSTORE PUSH32 0x45524332303A20617070726F766520746F20746865207A65726F206164647265 PUSH1 0x44 DUP3 ADD MSTORE PUSH2 0x7373 PUSH1 0xF0 SHL PUSH1 0x64 DUP3 ADD MSTORE PUSH1 0x84 ADD PUSH2 0x789 JUMP JUMPDEST PUSH1 0x1 PUSH1 0x1 PUSH1 0xA0 SHL SUB DUP4 DUP2 AND PUSH0 DUP2 DUP2 MSTORE PUSH1 0x5 PUSH1 0x20 SWAP1 DUP2 MSTORE PUSH1 0x40 DUP1 DUP4 KECCAK256 SWAP5 DUP8 AND DUP1 DUP5 MSTORE SWAP5 DUP3 MSTORE SWAP2 DUP3 SWAP1 KECCAK256 DUP6 SWAP1 SSTORE SWAP1 MLOAD DUP5 DUP2 MSTORE PUSH32 0x8C5BE1E5EBEC7D5BD14F71427D1E84F3DD0314C0F7B2291E5B200AC8C7C3B925 SWAP2 ADD PUSH1 0x40 MLOAD DUP1 SWAP2 SUB SWAP1 LOG3 POP POP POP JUMP JUMPDEST PUSH1 0x1 PUSH1 0x1 PUSH1 0xA0 SHL SUB DUP4 AND PUSH2 0x14BB JUMPI PUSH1 0x40 MLOAD PUSH3 0x461BCD PUSH1 0xE5 SHL DUP2 MSTORE PUSH1 0x20 PUSH1 0x4 DUP3 ADD MSTORE PUSH1 0x25 PUSH1 0x24 DUP3 ADD MSTORE PUSH32 0x45524332303A207472616E736665722066726F6D20746865207A65726F206164 PUSH1 0x44 DUP3 ADD MSTORE PUSH5 0x6472657373 PUSH1 0xD8 SHL PUSH1 0x64 DUP3 ADD MSTORE PUSH1 0x84 ADD PUSH2 0x789 JUMP JUMPDEST PUSH1 0x1 PUSH1 0x1 PUSH1 0xA0 SHL SUB DUP3 AND PUSH2 0x151D JUMPI PUSH1 0x40 MLOAD PUSH3 0x461BCD PUSH1 0xE5 SHL DUP2 MSTORE PUSH1 0x20 PUSH1 0x4 DUP3 ADD MSTORE PUSH1 0x23 PUSH1 0x24 DUP3 ADD MSTORE PUSH32 0x45524332303A207472616E7366657220746F20746865207A65726F2061646472 PUSH1 0x44 DUP3 ADD MSTORE PUSH3 0x657373 PUSH1 0xE8 SHL PUSH1 0x64 DUP3 ADD MSTORE PUSH1 0x84 ADD PUSH2 0x789 JUMP JUMPDEST PUSH0 DUP2 GT PUSH2 0x157E JUMPI PUSH1 0x40 MLOAD PUSH3 0x461BCD PUSH1 0xE5 SHL DUP2 MSTORE PUSH1 0x20 PUSH1 0x4 DUP3 ADD MSTORE PUSH1 0x29 PUSH1 0x24 DUP3 ADD MSTORE PUSH32 0x5472616E7366657220616D6F756E74206D757374206265206772656174657220 PUSH1 0x44 DUP3 ADD MSTORE PUSH9 0x7468616E207A65726F PUSH1 0xB8 SHL PUSH1 0x64 DUP3 ADD MSTORE PUSH1 0x84 ADD PUSH2 0x789 JUMP JUMPDEST PUSH0 PUSH2 0x1588 ADDRESS PUSH2 0xDC1 JUMP JUMPDEST PUSH1 0xD SLOAD SWAP1 SWAP2 POP DUP2 LT DUP1 ISZERO SWAP1 DUP2 SWAP1 PUSH2 0x15A2 JUMPI POP PUSH1 0xC SLOAD PUSH1 0xFF AND ISZERO JUMPDEST DUP1 ISZERO PUSH2 0x15E0 JUMPI POP PUSH32 0x0 PUSH1 0x1 PUSH1 0x1 PUSH1 0xA0 SHL SUB AND DUP6 PUSH1 0x1 PUSH1 0x1 PUSH1 0xA0 SHL SUB AND EQ ISZERO JUMPDEST DUP1 ISZERO PUSH2 0x15F3 JUMPI POP PUSH1 0xC SLOAD PUSH2 0x100 SWAP1 DIV PUSH1 0xFF AND JUMPDEST ISZERO PUSH2 0x1606 JUMPI PUSH1 0xD SLOAD SWAP2 POP PUSH2 0x1606 DUP3 PUSH2 0x16CB JUMP JUMPDEST PUSH1 0x1 PUSH1 0x1 PUSH1 0xA0 SHL SUB DUP6 AND PUSH0 SWAP1 DUP2 MSTORE PUSH1 0x6 PUSH1 0x20 MSTORE PUSH1 0x40 SWAP1 KECCAK256 SLOAD PUSH1 0x1 SWAP1 PUSH1 0xFF AND DUP1 PUSH2 0x1646 JUMPI POP PUSH1 0x1 PUSH1 0x1 PUSH1 0xA0 SHL SUB DUP6 AND PUSH0 SWAP1 DUP2 MSTORE PUSH1 0x6 PUSH1 0x20 MSTORE PUSH1 0x40 SWAP1 KECCAK256 SLOAD PUSH1 0xFF AND JUMPDEST ISZERO PUSH2 0x164E JUMPI POP PUSH0 JUMPDEST DUP1 ISZERO PUSH2 0x165E JUMPI PUSH2 0x165E DUP7 DUP7 PUSH2 0x1766 JUMP JUMPDEST PUSH2 0x166A DUP7 DUP7 DUP7 DUP5 PUSH2 0x1809 JUMP JUMPDEST POP POP POP POP POP POP JUMP JUMPDEST PUSH0 DUP1 PUSH0 PUSH2 0x167D PUSH2 0x1978 JUMP JUMPDEST SWAP1 SWAP3 POP SWAP1 POP PUSH2 0x168C DUP2 DUP4 PUSH2 0x25CD JUMP JUMPDEST SWAP3 POP POP POP SWAP1 JUMP JUMPDEST PUSH0 DUP1 PUSH0 DUP1 PUSH0 DUP1 PUSH2 0x16A2 DUP8 PUSH2 0x1AE8 JUMP JUMPDEST SWAP5 POP SWAP5 POP SWAP5 POP SWAP5 POP POP PUSH0 DUP1 PUSH2 0x16BA DUP10 DUP8 DUP8 DUP8 DUP8 PUSH2 0x1B5F JUMP JUMPDEST POP SWAP1 SWAP11 SWAP1 SWAP10 POP SWAP8 POP POP POP POP POP POP POP POP JUMP JUMPDEST PUSH1 0xC DUP1 SLOAD PUSH1 0xFF NOT AND PUSH1 0x1 OR SWAP1 SSTORE PUSH0 PUSH2 0x16E4 PUSH1 0x2 DUP4 PUSH2 0x25CD JUMP JUMPDEST SWAP1 POP PUSH0 PUSH2 0x16F1 DUP3 DUP5 PUSH2 0x25BA JUMP JUMPDEST SWAP1 POP SELFBALANCE PUSH2 0x16FD DUP4 PUSH2 0x1BF6 JUMP JUMPDEST PUSH0 PUSH2 0x1708 DUP3 SELFBALANCE PUSH2 0x25BA JUMP JUMPDEST SWAP1 POP PUSH2 0x1714 DUP4 DUP3 PUSH2 0x1DA4 JUMP JUMPDEST PUSH1 0x40 DUP1 MLOAD DUP6 DUP2 MSTORE PUSH1 0x20 DUP2 ADD DUP4 SWAP1 MSTORE SWAP1 DUP2 ADD DUP5 SWAP1 MSTORE PUSH32 0x17BBFB9A6069321B6DED73BD96327C9E6B7212A5CD51FF219CD61370ACAFB561 SWAP1 PUSH1 0x60 ADD PUSH1 0x40 MLOAD DUP1 SWAP2 SUB SWAP1 LOG1 POP POP PUSH1 0xC DUP1 SLOAD PUSH1 0xFF NOT AND SWAP1 SSTORE POP POP POP JUMP JUMPDEST PUSH1 0x1 PUSH1 0x1 PUSH1 0xA0 SHL SUB DUP3 DUP2 AND PUSH32 0x0 DUP3 AND SWAP1 DUP2 EQ SWAP2 DUP4 AND EQ PUSH1 0x1 DUP1 DUP1 PUSH0 PUSH1 0x2 DUP3 DUP2 DUP2 DUP10 ISZERO PUSH2 0x17C4 JUMPI PUSH1 0xE DUP9 SWAP1 SSTORE PUSH1 0xF DUP8 SWAP1 SSTORE PUSH1 0x10 DUP7 SWAP1 SSTORE PUSH1 0x11 DUP6 SWAP1 SSTORE PUSH2 0x17FB JUMP JUMPDEST DUP9 ISZERO PUSH2 0x17E3 JUMPI PUSH1 0xE DUP5 SWAP1 SSTORE PUSH1 0xF DUP4 SWAP1 SSTORE PUSH1 0x10 DUP3 SWAP1 SSTORE PUSH1 0x11 DUP2 SWAP1 SSTORE PUSH2 0x17FB JUMP JUMPDEST PUSH2 0x17FB PUSH0 PUSH1 0xE DUP2 SWAP1 SSTORE PUSH1 0xF DUP2 SWAP1 SSTORE PUSH1 0x10 DUP2 SWAP1 SSTORE PUSH1 0x11 SSTORE JUMP JUMPDEST POP POP POP POP POP POP POP POP POP POP POP POP JUMP JUMPDEST DUP1 PUSH2 0x1826 JUMPI PUSH2 0x1826 PUSH0 PUSH1 0xE DUP2 SWAP1 SSTORE PUSH1 0xF DUP2 SWAP1 SSTORE PUSH1 0x10 DUP2 SWAP1 SSTORE PUSH1 0x11 SSTORE JUMP JUMPDEST PUSH1 0x1 PUSH1 0x1 PUSH1 0xA0 SHL SUB DUP5 AND PUSH0 SWAP1 DUP2 MSTORE PUSH1 0x7 PUSH1 0x20 MSTORE PUSH1 0x40 SWAP1 KECCAK256 SLOAD PUSH1 0xFF AND DUP1 ISZERO PUSH2 0x1865 JUMPI POP PUSH1 0x1 PUSH1 0x1 PUSH1 0xA0 SHL SUB DUP4 AND PUSH0 SWAP1 DUP2 MSTORE PUSH1 0x7 PUSH1 0x20 MSTORE PUSH1 0x40 SWAP1 KECCAK256 SLOAD PUSH1 0xFF AND ISZERO JUMPDEST ISZERO PUSH2 0x187A JUMPI PUSH2 0x1875 DUP5 DUP5 DUP5 PUSH2 0x1EA6 JUMP JUMPDEST PUSH2 0x1972 JUMP JUMPDEST PUSH1 0x1 PUSH1 0x1 PUSH1 0xA0 SHL SUB DUP5 AND PUSH0 SWAP1 DUP2 MSTORE PUSH1 0x7 PUSH1 0x20 MSTORE PUSH1 0x40 SWAP1 KECCAK256 SLOAD PUSH1 0xFF AND ISZERO DUP1 ISZERO PUSH2 0x18B9 JUMPI POP PUSH1 0x1 PUSH1 0x1 PUSH1 0xA0 SHL SUB DUP4 AND PUSH0 SWAP1 DUP2 MSTORE PUSH1 0x7 PUSH1 0x20 MSTORE PUSH1 0x40 SWAP1 KECCAK256 SLOAD PUSH1 0xFF AND JUMPDEST ISZERO PUSH2 0x18C9 JUMPI PUSH2 0x1875 DUP5 DUP5 DUP5 PUSH2 0x1FE6 JUMP JUMPDEST PUSH1 0x1 PUSH1 0x1 PUSH1 0xA0 SHL SUB DUP5 AND PUSH0 SWAP1 DUP2 MSTORE PUSH1 0x7 PUSH1 0x20 MSTORE PUSH1 0x40 SWAP1 KECCAK256 SLOAD PUSH1 0xFF AND ISZERO DUP1 ISZERO PUSH2 0x1909 JUMPI POP PUSH1 0x1 PUSH1 0x1 PUSH1 0xA0 SHL SUB DUP4 AND PUSH0 SWAP1 DUP2 MSTORE PUSH1 0x7 PUSH1 0x20 MSTORE PUSH1 0x40 SWAP1 KECCAK256 SLOAD PUSH1 0xFF AND ISZERO JUMPDEST ISZERO PUSH2 0x1919 JUMPI PUSH2 0x1875 DUP5 DUP5 DUP5 PUSH2 0x209E JUMP JUMPDEST PUSH1 0x1 PUSH1 0x1 PUSH1 0xA0 SHL SUB DUP5 AND PUSH0 SWAP1 DUP2 MSTORE PUSH1 0x7 PUSH1 0x20 MSTORE PUSH1 0x40 SWAP1 KECCAK256 SLOAD PUSH1 0xFF AND DUP1 ISZERO PUSH2 0x1957 JUMPI POP PUSH1 0x1 PUSH1 0x1 PUSH1 0xA0 SHL SUB DUP4 AND PUSH0 SWAP1 DUP2 MSTORE PUSH1 0x7 PUSH1 0x20 MSTORE PUSH1 0x40 SWAP1 KECCAK256 SLOAD PUSH1 0xFF AND JUMPDEST ISZERO PUSH2 0x1967 JUMPI PUSH2 0x1875 DUP5 DUP5 DUP5 PUSH2 0x20F1 JUMP JUMPDEST PUSH2 0x1972 DUP5 DUP5 DUP5 PUSH2 0x209E JUMP JUMPDEST POP POP POP POP JUMP JUMPDEST PUSH1 0xA SLOAD PUSH1 0x9 SLOAD PUSH0 SWAP2 DUP3 SWAP2 DUP3 JUMPDEST PUSH1 0x8 SLOAD DUP2 LT ISZERO PUSH2 0x1AB7 JUMPI DUP3 PUSH1 0x3 PUSH0 PUSH1 0x8 DUP5 DUP2 SLOAD DUP2 LT PUSH2 0x19A5 JUMPI PUSH2 0x19A5 PUSH2 0x2621 JUMP JUMPDEST PUSH0 SWAP2 DUP3 MSTORE PUSH1 0x20 DUP1 DUP4 KECCAK256 SWAP1 SWAP2 ADD SLOAD PUSH1 0x1 PUSH1 0x1 PUSH1 0xA0 SHL SUB AND DUP4 MSTORE DUP3 ADD SWAP3 SWAP1 SWAP3 MSTORE PUSH1 0x40 ADD SWAP1 KECCAK256 SLOAD GT DUP1 PUSH2 0x1A0D JUMPI POP DUP2 PUSH1 0x4 PUSH0 PUSH1 0x8 DUP5 DUP2 SLOAD DUP2 LT PUSH2 0x19E7 JUMPI PUSH2 0x19E7 PUSH2 0x2621 JUMP JUMPDEST PUSH0 SWAP2 DUP3 MSTORE PUSH1 0x20 DUP1 DUP4 KECCAK256 SWAP1 SWAP2 ADD SLOAD PUSH1 0x1 PUSH1 0x1 PUSH1 0xA0 SHL SUB AND DUP4 MSTORE DUP3 ADD SWAP3 SWAP1 SWAP3 MSTORE PUSH1 0x40 ADD SWAP1 KECCAK256 SLOAD GT JUMPDEST ISZERO PUSH2 0x1A23 JUMPI PUSH1 0xA SLOAD PUSH1 0x9 SLOAD SWAP5 POP SWAP5 POP POP POP POP SWAP1 SWAP2 JUMP JUMPDEST PUSH1 0x3 PUSH0 PUSH1 0x8 DUP4 DUP2 SLOAD DUP2 LT PUSH2 0x1A39 JUMPI PUSH2 0x1A39 PUSH2 0x2621 JUMP JUMPDEST PUSH0 SWAP2 DUP3 MSTORE PUSH1 0x20 DUP1 DUP4 KECCAK256 SWAP1 SWAP2 ADD SLOAD PUSH1 0x1 PUSH1 0x1 PUSH1 0xA0 SHL SUB AND DUP4 MSTORE DUP3 ADD SWAP3 SWAP1 SWAP3 MSTORE PUSH1 0x40 ADD SWAP1 KECCAK256 SLOAD PUSH2 0x1A67 SWAP1 DUP5 PUSH2 0x25BA JUMP JUMPDEST SWAP3 POP PUSH1 0x4 PUSH0 PUSH1 0x8 DUP4 DUP2 SLOAD DUP2 LT PUSH2 0x1A7F JUMPI PUSH2 0x1A7F PUSH2 0x2621 JUMP JUMPDEST PUSH0 SWAP2 DUP3 MSTORE PUSH1 0x20 DUP1 DUP4 KECCAK256 SWAP1 SWAP2 ADD SLOAD PUSH1 0x1 PUSH1 0x1 PUSH1 0xA0 SHL SUB AND DUP4 MSTORE DUP3 ADD SWAP3 SWAP1 SWAP3 MSTORE PUSH1 0x40 ADD SWAP1 KECCAK256 SLOAD PUSH2 0x1AAD SWAP1 DUP4 PUSH2 0x25BA JUMP JUMPDEST SWAP2 POP PUSH1 0x1 ADD PUSH2 0x1984 JUMP JUMPDEST POP PUSH1 0x9 SLOAD PUSH1 0xA SLOAD PUSH2 0x1AC8 SWAP2 SWAP1 PUSH2 0x25CD JUMP JUMPDEST DUP3 LT ISZERO PUSH2 0x1ADF JUMPI PUSH1 0xA SLOAD PUSH1 0x9 SLOAD SWAP4 POP SWAP4 POP POP POP SWAP1 SWAP2 JUMP JUMPDEST SWAP1 SWAP4 SWAP1 SWAP3 POP SWAP1 POP JUMP JUMPDEST PUSH0 DUP1 PUSH0 DUP1 PUSH0 DUP1 PUSH2 0x1AF7 DUP8 PUSH2 0x2173 JUMP JUMPDEST SWAP1 POP PUSH0 PUSH2 0x1B03 DUP9 PUSH2 0x218E JUMP JUMPDEST SWAP1 POP PUSH0 PUSH2 0x1B0F DUP10 PUSH2 0x219F JUMP JUMPDEST SWAP1 POP PUSH0 PUSH2 0x1B1B DUP11 PUSH2 0x21B0 JUMP JUMPDEST SWAP1 POP PUSH0 DUP2 DUP4 PUSH2 0x1B2A DUP7 DUP9 PUSH2 0x2649 JUMP JUMPDEST PUSH2 0x1B34 SWAP2 SWAP1 PUSH2 0x2649 JUMP JUMPDEST PUSH2 0x1B3E SWAP2 SWAP1 PUSH2 0x2649 JUMP JUMPDEST SWAP1 POP PUSH0 PUSH2 0x1B4B DUP3 DUP14 PUSH2 0x25BA JUMP JUMPDEST SWAP13 SWAP6 SWAP12 POP SWAP4 SWAP10 POP SWAP2 SWAP8 POP SWAP6 POP SWAP2 SWAP4 POP POP POP POP JUMP JUMPDEST PUSH0 DUP1 PUSH0 DUP1 PUSH2 0x1B6B PUSH2 0x1672 JUMP JUMPDEST SWAP1 POP PUSH0 PUSH2 0x1B78 DUP3 DUP12 PUSH2 0x265C JUMP JUMPDEST SWAP1 POP PUSH0 PUSH2 0x1B85 DUP4 DUP12 PUSH2 0x265C JUMP JUMPDEST SWAP1 POP PUSH0 PUSH2 0x1B92 DUP5 DUP11 PUSH2 0x265C JUMP JUMPDEST SWAP1 POP PUSH0 PUSH2 0x1B9F DUP6 DUP11 PUSH2 0x265C JUMP JUMPDEST SWAP1 POP PUSH0 PUSH2 0x1BAC DUP7 DUP14 PUSH2 0x265C JUMP JUMPDEST SWAP1 POP PUSH0 DUP2 DUP4 PUSH2 0x1BBB DUP7 DUP9 PUSH2 0x2649 JUMP JUMPDEST PUSH2 0x1BC5 SWAP2 SWAP1 PUSH2 0x2649 JUMP JUMPDEST PUSH2 0x1BCF SWAP2 SWAP1 PUSH2 0x2649 JUMP JUMPDEST SWAP1 POP PUSH0 PUSH2 0x1BDC DUP3 DUP9 PUSH2 0x25BA JUMP JUMPDEST SWAP7 SWAP11 POP SWAP6 SWAP9 POP SWAP4 SWAP7 POP POP POP POP POP POP POP SWAP6 POP SWAP6 POP SWAP6 SWAP3 POP POP POP JUMP JUMPDEST PUSH1 0x40 DUP1 MLOAD PUSH1 0x2 DUP1 DUP3 MSTORE PUSH1 0x60 DUP3 ADD DUP4 MSTORE PUSH0 SWAP3 PUSH1 0x20 DUP4 ADD SWAP1 DUP1 CALLDATASIZE DUP4 CALLDATACOPY ADD SWAP1 POP POP SWAP1 POP ADDRESS DUP2 PUSH0 DUP2 MLOAD DUP2 LT PUSH2 0x1C29 JUMPI PUSH2 0x1C29 PUSH2 0x2621 JUMP JUMPDEST PUSH1 0x20 MUL PUSH1 0x20 ADD ADD SWAP1 PUSH1 0x1 PUSH1 0x1 PUSH1 0xA0 SHL SUB AND SWAP1 DUP2 PUSH1 0x1 PUSH1 0x1 PUSH1 0xA0 SHL SUB AND DUP2 MSTORE POP POP PUSH32 0x0 PUSH1 0x1 PUSH1 0x1 PUSH1 0xA0 SHL SUB AND PUSH4 0xAD5C4648 PUSH1 0x40 MLOAD DUP2 PUSH4 0xFFFFFFFF AND PUSH1 0xE0 SHL DUP2 MSTORE PUSH1 0x4 ADD PUSH1 0x20 PUSH1 0x40 MLOAD DUP1 DUP4 SUB DUP2 DUP7 GAS STATICCALL ISZERO DUP1 ISZERO PUSH2 0x1CA5 JUMPI RETURNDATASIZE PUSH0 DUP1 RETURNDATACOPY RETURNDATASIZE PUSH0 REVERT JUMPDEST POP POP POP POP PUSH1 0x40 MLOAD RETURNDATASIZE PUSH1 0x1F NOT PUSH1 0x1F DUP3 ADD AND DUP3 ADD DUP1 PUSH1 0x40 MSTORE POP DUP2 ADD SWAP1 PUSH2 0x1CC9 SWAP2 SWAP1 PUSH2 0x2673 JUMP JUMPDEST DUP2 PUSH1 0x1 DUP2 MLOAD DUP2 LT PUSH2 0x1CDC JUMPI PUSH2 0x1CDC PUSH2 0x2621 JUMP JUMPDEST PUSH1 0x20 MUL PUSH1 0x20 ADD ADD SWAP1 PUSH1 0x1 PUSH1 0x1 PUSH1 0xA0 SHL SUB AND SWAP1 DUP2 PUSH1 0x1 PUSH1 0x1 PUSH1 0xA0 SHL SUB AND DUP2 MSTORE POP POP PUSH2 0x1D27 ADDRESS PUSH32 0x0 DUP5 PUSH2 0x1334 JUMP JUMPDEST PUSH1 0x40 MLOAD PUSH4 0x791AC947 PUSH1 0xE0 SHL DUP2 MSTORE PUSH1 0x1 PUSH1 0x1 PUSH1 0xA0 SHL SUB PUSH32 0x0 AND SWAP1 PUSH4 0x791AC947 SWAP1 PUSH2 0x1D7B SWAP1 DUP6 SWAP1 PUSH0 SWAP1 DUP7 SWAP1 ADDRESS SWAP1 TIMESTAMP SWAP1 PUSH1 0x4 ADD PUSH2 0x268E JUMP JUMPDEST PUSH0 PUSH1 0x40 MLOAD DUP1 DUP4 SUB DUP2 PUSH0 DUP8 DUP1 EXTCODESIZE ISZERO DUP1 ISZERO PUSH2 0x1D92 JUMPI PUSH0 DUP1 REVERT JUMPDEST POP GAS CALL ISZERO DUP1 ISZERO PUSH2 0x166A JUMPI RETURNDATASIZE PUSH0 DUP1 RETURNDATACOPY RETURNDATASIZE PUSH0 REVERT JUMPDEST PUSH2 0x1DCF ADDRESS PUSH32 0x0 DUP5 PUSH2 0x1334 JUMP JUMPDEST PUSH32 0x0 PUSH1 0x1 PUSH1 0x1 PUSH1 0xA0 SHL SUB AND PUSH4 0xF305D719 DUP3 ADDRESS DUP6 PUSH0 DUP1 PUSH2 0x1E14 PUSH0 SLOAD PUSH1 0x1 PUSH1 0x1 PUSH1 0xA0 SHL SUB AND SWAP1 JUMP JUMPDEST PUSH1 0x40 MLOAD PUSH1 0xE0 DUP9 SWAP1 SHL PUSH1 0x1 PUSH1 0x1 PUSH1 0xE0 SHL SUB NOT AND DUP2 MSTORE PUSH1 0x1 PUSH1 0x1 PUSH1 0xA0 SHL SUB SWAP6 DUP7 AND PUSH1 0x4 DUP3 ADD MSTORE PUSH1 0x24 DUP2 ADD SWAP5 SWAP1 SWAP5 MSTORE PUSH1 0x44 DUP5 ADD SWAP3 SWAP1 SWAP3 MSTORE PUSH1 0x64 DUP4 ADD MSTORE SWAP1 SWAP2 AND PUSH1 0x84 DUP3 ADD MSTORE TIMESTAMP PUSH1 0xA4 DUP3 ADD MSTORE PUSH1 0xC4 ADD PUSH1 0x60 PUSH1 0x40 MLOAD DUP1 DUP4 SUB DUP2 DUP6 DUP9 GAS CALL ISZERO DUP1 ISZERO PUSH2 0x1E7A JUMPI RETURNDATASIZE PUSH0 DUP1 RETURNDATACOPY RETURNDATASIZE PUSH0 REVERT JUMPDEST POP POP POP POP POP PUSH1 0x40 MLOAD RETURNDATASIZE PUSH1 0x1F NOT PUSH1 0x1F DUP3 ADD AND DUP3 ADD DUP1 PUSH1 0x40 MSTORE POP DUP2 ADD SWAP1 PUSH2 0x1E9F SWAP2 SWAP1 PUSH2 0x26FF JUMP JUMPDEST POP POP POP POP POP JUMP JUMPDEST PUSH0 DUP1 PUSH0 DUP1 PUSH0 PUSH2 0x1EB4 DUP7 PUSH2 0x21C1 JUMP JUMPDEST SWAP5 POP SWAP5 POP SWAP5 POP SWAP5 POP SWAP5 POP PUSH0 DUP1 PUSH0 PUSH2 0x1ECE DUP10 DUP9 DUP9 DUP9 DUP9 PUSH2 0x1B5F JUMP JUMPDEST PUSH1 0x1 PUSH1 0x1 PUSH1 0xA0 SHL SUB DUP15 AND PUSH0 SWAP1 DUP2 MSTORE PUSH1 0x4 PUSH1 0x20 MSTORE PUSH1 0x40 SWAP1 KECCAK256 SLOAD SWAP3 SWAP6 POP SWAP1 SWAP4 POP SWAP2 POP PUSH2 0x1EF9 SWAP1 DUP11 SWAP1 PUSH2 0x25BA JUMP JUMPDEST PUSH1 0x1 PUSH1 0x1 PUSH1 0xA0 SHL SUB DUP13 AND PUSH0 SWAP1 DUP2 MSTORE PUSH1 0x4 PUSH1 0x20 SWAP1 DUP2 MSTORE PUSH1 0x40 DUP1 DUP4 KECCAK256 SWAP4 SWAP1 SWAP4 SSTORE PUSH1 0x3 SWAP1 MSTORE KECCAK256 SLOAD PUSH2 0x1F28 SWAP1 DUP5 SWAP1 PUSH2 0x25BA JUMP JUMPDEST PUSH1 0x1 PUSH1 0x1 PUSH1 0xA0 SHL SUB DUP1 DUP14 AND PUSH0 SWAP1 DUP2 MSTORE PUSH1 0x3 PUSH1 0x20 MSTORE PUSH1 0x40 DUP1 DUP3 KECCAK256 SWAP4 SWAP1 SWAP4 SSTORE SWAP1 DUP13 AND DUP2 MSTORE KECCAK256 SLOAD PUSH2 0x1F57 SWAP1 DUP4 SWAP1 PUSH2 0x2649 JUMP JUMPDEST PUSH1 0x1 PUSH1 0x1 PUSH1 0xA0 SHL SUB DUP12 AND PUSH0 SWAP1 DUP2 MSTORE PUSH1 0x3 PUSH1 0x20 MSTORE PUSH1 0x40 SWAP1 KECCAK256 SSTORE PUSH2 0x1F78 DUP7 PUSH2 0x21EB JUMP JUMPDEST PUSH2 0x1F83 DUP2 DUP9 DUP7 PUSH2 0x22A4 JUMP JUMPDEST PUSH2 0x1F8C DUP6 PUSH2 0x2334 JUMP JUMPDEST DUP10 PUSH1 0x1 PUSH1 0x1 PUSH1 0xA0 SHL SUB AND DUP12 PUSH1 0x1 PUSH1 0x1 PUSH1 0xA0 SHL SUB AND PUSH32 0xDDF252AD1BE2C89B69C2B068FC378DAA952BA7F163C4A11628F55A4DF523B3EF DUP11 PUSH1 0x40 MLOAD PUSH2 0x1FD1 SWAP2 DUP2 MSTORE PUSH1 0x20 ADD SWAP1 JUMP JUMPDEST PUSH1 0x40 MLOAD DUP1 SWAP2 SUB SWAP1 LOG3 POP POP POP POP POP POP POP POP POP POP POP JUMP JUMPDEST PUSH0 DUP1 PUSH0 DUP1 PUSH0 PUSH2 0x1FF4 DUP7 PUSH2 0x21C1 JUMP JUMPDEST SWAP5 POP SWAP5 POP SWAP5 POP SWAP5 POP SWAP5 POP PUSH0 DUP1 PUSH0 PUSH2 0x200E DUP10 DUP9 DUP9 DUP9 DUP9 PUSH2 0x1B5F JUMP JUMPDEST PUSH1 0x1 PUSH1 0x1 PUSH1 0xA0 SHL SUB DUP15 AND PUSH0 SWAP1 DUP2 MSTORE PUSH1 0x3 PUSH1 0x20 MSTORE PUSH1 0x40 SWAP1 KECCAK256 SLOAD SWAP3 SWAP6 POP SWAP1 SWAP4 POP SWAP2 POP PUSH2 0x2039 SWAP1 DUP5 SWAP1 PUSH2 0x25BA JUMP JUMPDEST PUSH1 0x1 PUSH1 0x1 PUSH1 0xA0 SHL SUB DUP1 DUP14 AND PUSH0 SWAP1 DUP2 MSTORE PUSH1 0x3 PUSH1 0x20 SWAP1 DUP2 MSTORE PUSH1 0x40 DUP1 DUP4 KECCAK256 SWAP5 SWAP1 SWAP5 SSTORE SWAP2 DUP14 AND DUP2 MSTORE PUSH1 0x4 SWAP1 SWAP2 MSTORE KECCAK256 SLOAD PUSH2 0x206F SWAP1 DUP10 SWAP1 PUSH2 0x2649 JUMP JUMPDEST PUSH1 0x1 PUSH1 0x1 PUSH1 0xA0 SHL SUB DUP12 AND PUSH0 SWAP1 DUP2 MSTORE PUSH1 0x4 PUSH1 0x20 SWAP1 DUP2 MSTORE PUSH1 0x40 DUP1 DUP4 KECCAK256 SWAP4 SWAP1 SWAP4 SSTORE PUSH1 0x3 SWAP1 MSTORE KECCAK256 SLOAD PUSH2 0x1F57 SWAP1 DUP4 SWAP1 PUSH2 0x2649 JUMP JUMPDEST PUSH0 DUP1 PUSH0 DUP1 PUSH0 PUSH2 0x20AC DUP7 PUSH2 0x21C1 JUMP JUMPDEST SWAP5 POP SWAP5 POP SWAP5 POP SWAP5 POP SWAP5 POP PUSH0 DUP1 PUSH0 PUSH2 0x20C6 DUP10 DUP9 DUP9 DUP9 DUP9 PUSH2 0x1B5F JUMP JUMPDEST PUSH1 0x1 PUSH1 0x1 PUSH1 0xA0 SHL SUB DUP15 AND PUSH0 SWAP1 DUP2 MSTORE PUSH1 0x3 PUSH1 0x20 MSTORE PUSH1 0x40 SWAP1 KECCAK256 SLOAD SWAP3 SWAP6 POP SWAP1 SWAP4 POP SWAP2 POP PUSH2 0x1F28 SWAP1 DUP5 SWAP1 PUSH2 0x25BA JUMP JUMPDEST PUSH0 DUP1 PUSH0 DUP1 PUSH0 PUSH2 0x20FF DUP7 PUSH2 0x21C1 JUMP JUMPDEST SWAP5 POP SWAP5 POP SWAP5 POP SWAP5 POP SWAP5 POP PUSH0 DUP1 PUSH0 PUSH2 0x2119 DUP10 DUP9 DUP9 DUP9 DUP9 PUSH2 0x1B5F JUMP JUMPDEST PUSH1 0x1 PUSH1 0x1 PUSH1 0xA0 SHL SUB DUP15 AND PUSH0 SWAP1 DUP2 MSTORE PUSH1 0x4 PUSH1 0x20 MSTORE PUSH1 0x40 SWAP1 KECCAK256 SLOAD SWAP3 SWAP6 POP SWAP1 SWAP4 POP SWAP2 POP PUSH2 0x2144 SWAP1 DUP11 SWAP1 PUSH2 0x25BA JUMP JUMPDEST PUSH1 0x1 PUSH1 0x1 PUSH1 0xA0 SHL SUB DUP13 AND PUSH0 SWAP1 DUP2 MSTORE PUSH1 0x4 PUSH1 0x20 SWAP1 DUP2 MSTORE PUSH1 0x40 DUP1 DUP4 KECCAK256 SWAP4 SWAP1 SWAP4 SSTORE PUSH1 0x3 SWAP1 MSTORE KECCAK256 SLOAD PUSH2 0x2039 SWAP1 DUP5 SWAP1 PUSH2 0x25BA JUMP JUMPDEST PUSH0 PUSH1 0x64 PUSH1 0xE SLOAD DUP4 PUSH2 0x2184 SWAP2 SWAP1 PUSH2 0x265C JUMP JUMPDEST PUSH2 0x6D1 SWAP2 SWAP1 PUSH2 0x25CD JUMP JUMPDEST PUSH0 PUSH1 0x64 PUSH1 0x10 SLOAD DUP4 PUSH2 0x2184 SWAP2 SWAP1 PUSH2 0x265C JUMP JUMPDEST PUSH0 PUSH1 0x64 PUSH1 0xF SLOAD DUP4 PUSH2 0x2184 SWAP2 SWAP1 PUSH2 0x265C JUMP JUMPDEST PUSH0 PUSH1 0x64 PUSH1 0x11 SLOAD DUP4 PUSH2 0x2184 SWAP2 SWAP1 PUSH2 0x265C JUMP JUMPDEST PUSH0 DUP1 PUSH0 DUP1 PUSH0 DUP1 PUSH0 DUP1 PUSH0 DUP1 PUSH2 0x21D4 DUP12 PUSH2 0x1AE8 JUMP JUMPDEST SWAP4 SWAP16 SWAP3 SWAP15 POP SWAP1 SWAP13 POP SWAP11 POP SWAP1 SWAP9 POP SWAP7 POP POP POP POP POP POP POP JUMP JUMPDEST PUSH0 PUSH2 0x21F4 PUSH2 0x1672 JUMP JUMPDEST SWAP1 POP PUSH0 PUSH2 0x2201 DUP3 DUP5 PUSH2 0x265C JUMP JUMPDEST ADDRESS PUSH0 SWAP1 DUP2 MSTORE PUSH1 0x3 PUSH1 0x20 MSTORE PUSH1 0x40 SWAP1 KECCAK256 SLOAD SWAP1 SWAP2 POP PUSH2 0x221E SWAP1 DUP3 SWAP1 PUSH2 0x2649 JUMP JUMPDEST ADDRESS PUSH0 SWAP1 DUP2 MSTORE PUSH1 0x3 PUSH1 0x20 SWAP1 DUP2 MSTORE PUSH1 0x40 DUP1 DUP4 KECCAK256 SWAP4 SWAP1 SWAP4 SSTORE PUSH1 0x7 SWAP1 MSTORE KECCAK256 SLOAD PUSH1 0xFF AND ISZERO PUSH2 0x226B JUMPI ADDRESS PUSH0 SWAP1 DUP2 MSTORE PUSH1 0x4 PUSH1 0x20 MSTORE PUSH1 0x40 SWAP1 KECCAK256 SLOAD PUSH2 0x225B SWAP1 DUP5 SWAP1 PUSH2 0x2649 JUMP JUMPDEST ADDRESS PUSH0 SWAP1 DUP2 MSTORE PUSH1 0x4 PUSH1 0x20 MSTORE PUSH1 0x40 SWAP1 KECCAK256 SSTORE JUMPDEST PUSH1 0x40 MLOAD DUP4 DUP2 MSTORE PUSH32 0x3A8AB79F6D1537E459A1A8379F48A77E1FFD07DDA4B16EA97074FDAB5DD8BF34 SWAP1 PUSH1 0x20 ADD JUMPDEST PUSH1 0x40 MLOAD DUP1 SWAP2 SUB SWAP1 LOG1 POP POP POP JUMP JUMPDEST PUSH0 PUSH2 0x22AD PUSH2 0x1672 JUMP JUMPDEST SWAP1 POP PUSH0 PUSH2 0x22BA DUP3 DUP5 PUSH2 0x265C JUMP JUMPDEST SWAP1 POP DUP1 DUP6 PUSH1 0xA SLOAD PUSH2 0x22CB SWAP2 SWAP1 PUSH2 0x25BA JUMP JUMPDEST PUSH2 0x22D5 SWAP2 SWAP1 PUSH2 0x25BA JUMP JUMPDEST PUSH1 0xA SSTORE PUSH1 0xB SLOAD PUSH2 0x22E6 SWAP1 DUP6 SWAP1 PUSH2 0x2649 JUMP JUMPDEST PUSH1 0xB SSTORE PUSH1 0x9 SLOAD PUSH2 0x22F7 SWAP1 DUP5 SWAP1 PUSH2 0x25BA JUMP JUMPDEST PUSH1 0x9 SSTORE PUSH1 0x40 MLOAD DUP5 DUP2 MSTORE PUSH32 0x56B5DF500587465B57D8CE799CC562A294F136B75A13718C574D9D36BD828058 SWAP1 PUSH1 0x20 ADD PUSH1 0x40 MLOAD DUP1 SWAP2 SUB SWAP1 LOG1 POP POP POP POP POP JUMP JUMPDEST PUSH0 PUSH2 0x233D PUSH2 0x1672 JUMP JUMPDEST SWAP1 POP PUSH0 PUSH2 0x234A DUP3 DUP5 PUSH2 0x265C JUMP JUMPDEST PUSH1 0x12 SLOAD PUSH1 0x1 PUSH1 0x1 PUSH1 0xA0 SHL SUB AND PUSH0 SWAP1 DUP2 MSTORE PUSH1 0x3 PUSH1 0x20 MSTORE PUSH1 0x40 SWAP1 KECCAK256 SLOAD SWAP1 SWAP2 POP PUSH2 0x2372 SWAP1 DUP3 SWAP1 PUSH2 0x2649 JUMP JUMPDEST PUSH1 0x12 DUP1 SLOAD PUSH1 0x1 PUSH1 0x1 PUSH1 0xA0 SHL SUB SWAP1 DUP2 AND PUSH0 SWAP1 DUP2 MSTORE PUSH1 0x3 PUSH1 0x20 SWAP1 DUP2 MSTORE PUSH1 0x40 DUP1 DUP4 KECCAK256 SWAP6 SWAP1 SWAP6 SSTORE SWAP3 SLOAD SWAP1 SWAP2 AND DUP2 MSTORE PUSH1 0x7 SWAP1 SWAP2 MSTORE KECCAK256 SLOAD PUSH1 0xFF AND ISZERO PUSH2 0x23EB JUMPI PUSH1 0x12 SLOAD PUSH1 0x1 PUSH1 0x1 PUSH1 0xA0 SHL SUB AND PUSH0 SWAP1 DUP2 MSTORE PUSH1 0x4 PUSH1 0x20 MSTORE PUSH1 0x40 SWAP1 KECCAK256 SLOAD PUSH2 0x23D0 SWAP1 DUP5 SWAP1 PUSH2 0x2649 JUMP JUMPDEST PUSH1 0x12 SLOAD PUSH1 0x1 PUSH1 0x1 PUSH1 0xA0 SHL SUB AND PUSH0 SWAP1 DUP2 MSTORE PUSH1 0x4 PUSH1 0x20 MSTORE PUSH1 0x40 SWAP1 KECCAK256 SSTORE JUMPDEST PUSH1 0x40 MLOAD DUP4 DUP2 MSTORE PUSH32 0x7A934C407238277F8CF36DF7A2F4B5EF2EB3AA6190EEB615E32C02075A5730B0 SWAP1 PUSH1 0x20 ADD PUSH2 0x2297 JUMP JUMPDEST PUSH0 PUSH1 0x20 DUP1 DUP4 MSTORE DUP4 MLOAD DUP1 PUSH1 0x20 DUP6 ADD MSTORE PUSH0 JUMPDEST DUP2 DUP2 LT ISZERO PUSH2 0x2447 JUMPI DUP6 DUP2 ADD DUP4 ADD MLOAD DUP6 DUP3 ADD PUSH1 0x40 ADD MSTORE DUP3 ADD PUSH2 0x242B JUMP JUMPDEST POP PUSH0 PUSH1 0x40 DUP3 DUP7 ADD ADD MSTORE PUSH1 0x40 PUSH1 0x1F NOT PUSH1 0x1F DUP4 ADD AND DUP6 ADD ADD SWAP3 POP POP POP SWAP3 SWAP2 POP POP JUMP JUMPDEST PUSH1 0x1 PUSH1 0x1 PUSH1 0xA0 SHL SUB DUP2 AND DUP2 EQ PUSH2 0x247B JUMPI PUSH0 DUP1 REVERT JUMPDEST POP JUMP JUMPDEST PUSH0 DUP1 PUSH1 0x40 DUP4 DUP6 SUB SLT ISZERO PUSH2 0x248F JUMPI PUSH0 DUP1 REVERT JUMPDEST DUP3 CALLDATALOAD PUSH2 0x249A DUP2 PUSH2 0x2467 JUMP JUMPDEST SWAP5 PUSH1 0x20 SWAP4 SWAP1 SWAP4 ADD CALLDATALOAD SWAP4 POP POP POP JUMP JUMPDEST PUSH0 DUP1 PUSH0 PUSH1 0x60 DUP5 DUP7 SUB SLT ISZERO PUSH2 0x24BA JUMPI PUSH0 DUP1 REVERT JUMPDEST DUP4 CALLDATALOAD PUSH2 0x24C5 DUP2 PUSH2 0x2467 JUMP JUMPDEST SWAP3 POP PUSH1 0x20 DUP5 ADD CALLDATALOAD PUSH2 0x24D5 DUP2 PUSH2 0x2467 JUMP JUMPDEST SWAP3 SWAP6 SWAP3 SWAP5 POP POP POP PUSH1 0x40 SWAP2 SWAP1 SWAP2 ADD CALLDATALOAD SWAP1 JUMP JUMPDEST PUSH0 PUSH1 0x20 DUP3 DUP5 SUB SLT ISZERO PUSH2 0x24F6 JUMPI PUSH0 DUP1 REVERT JUMPDEST POP CALLDATALOAD SWAP2 SWAP1 POP JUMP JUMPDEST PUSH0 PUSH1 0x20 DUP3 DUP5 SUB SLT ISZERO PUSH2 0x250D JUMPI PUSH0 DUP1 REVERT JUMPDEST DUP2 CALLDATALOAD PUSH2 0x7A7 DUP2 PUSH2 0x2467 JUMP JUMPDEST DUP1 CALLDATALOAD DUP1 ISZERO ISZERO DUP2 EQ PUSH2 0x2527 JUMPI PUSH0 DUP1 REVERT JUMPDEST SWAP2 SWAP1 POP JUMP JUMPDEST PUSH0 DUP1 PUSH1 0x40 DUP4 DUP6 SUB SLT ISZERO PUSH2 0x253D JUMPI PUSH0 DUP1 REVERT JUMPDEST DUP3 CALLDATALOAD SWAP2 POP PUSH2 0x254D PUSH1 0x20 DUP5 ADD PUSH2 0x2518 JUMP JUMPDEST SWAP1 POP SWAP3 POP SWAP3 SWAP1 POP JUMP JUMPDEST PUSH0 PUSH1 0x20 DUP3 DUP5 SUB SLT ISZERO PUSH2 0x2566 JUMPI PUSH0 DUP1 REVERT JUMPDEST PUSH2 0x7A7 DUP3 PUSH2 0x2518 JUMP JUMPDEST PUSH0 DUP1 PUSH1 0x40 DUP4 DUP6 SUB SLT ISZERO PUSH2 0x2580 JUMPI PUSH0 DUP1 REVERT JUMPDEST DUP3 CALLDATALOAD PUSH2 0x258B DUP2 PUSH2 0x2467 JUMP JUMPDEST SWAP2 POP PUSH1 0x20 DUP4 ADD CALLDATALOAD PUSH2 0x259B DUP2 PUSH2 0x2467 JUMP JUMPDEST DUP1 SWAP2 POP POP SWAP3 POP SWAP3 SWAP1 POP JUMP JUMPDEST PUSH4 0x4E487B71 PUSH1 0xE0 SHL PUSH0 MSTORE PUSH1 0x11 PUSH1 0x4 MSTORE PUSH1 0x24 PUSH0 REVERT JUMPDEST DUP2 DUP2 SUB DUP2 DUP2 GT ISZERO PUSH2 0x6D1 JUMPI PUSH2 0x6D1 PUSH2 0x25A6 JUMP JUMPDEST PUSH0 DUP3 PUSH2 0x25E7 JUMPI PUSH4 0x4E487B71 PUSH1 0xE0 SHL PUSH0 MSTORE PUSH1 0x12 PUSH1 0x4 MSTORE PUSH1 0x24 PUSH0 REVERT JUMPDEST POP DIV SWAP1 JUMP JUMPDEST PUSH1 0x20 DUP1 DUP3 MSTORE DUP2 DUP2 ADD MSTORE PUSH32 0x4F776E61626C653A2063616C6C6572206973206E6F7420746865206F776E6572 PUSH1 0x40 DUP3 ADD MSTORE PUSH1 0x60 ADD SWAP1 JUMP JUMPDEST PUSH4 0x4E487B71 PUSH1 0xE0 SHL PUSH0 MSTORE PUSH1 0x32 PUSH1 0x4 MSTORE PUSH1 0x24 PUSH0 REVERT JUMPDEST PUSH4 0x4E487B71 PUSH1 0xE0 SHL PUSH0 MSTORE PUSH1 0x31 PUSH1 0x4 MSTORE PUSH1 0x24 PUSH0 REVERT JUMPDEST DUP1 DUP3 ADD DUP1 DUP3 GT ISZERO PUSH2 0x6D1 JUMPI PUSH2 0x6D1 PUSH2 0x25A6 JUMP JUMPDEST DUP1 DUP3 MUL DUP2 ISZERO DUP3 DUP3 DIV DUP5 EQ OR PUSH2 0x6D1 JUMPI PUSH2 0x6D1 PUSH2 0x25A6 JUMP JUMPDEST PUSH0 PUSH1 0x20 DUP3 DUP5 SUB SLT ISZERO PUSH2 0x2683 JUMPI PUSH0 DUP1 REVERT JUMPDEST DUP2 MLOAD PUSH2 0x7A7 DUP2 PUSH2 0x2467 JUMP JUMPDEST PUSH0 PUSH1 0xA0 DUP3 ADD DUP8 DUP4 MSTORE PUSH1 0x20 DUP8 PUSH1 0x20 DUP6 ADD MSTORE PUSH1 0xA0 PUSH1 0x40 DUP6 ADD MSTORE DUP2 DUP8 MLOAD DUP1 DUP5 MSTORE PUSH1 0xC0 DUP7 ADD SWAP2 POP PUSH1 0x20 DUP10 ADD SWAP4 POP PUSH0 JUMPDEST DUP2 DUP2 LT ISZERO PUSH2 0x26DE JUMPI DUP5 MLOAD PUSH1 0x1 PUSH1 0x1 PUSH1 0xA0 SHL SUB AND DUP4 MSTORE SWAP4 DUP4 ADD SWAP4 SWAP2 DUP4 ADD SWAP2 PUSH1 0x1 ADD PUSH2 0x26B9 JUMP JUMPDEST POP POP PUSH1 0x1 PUSH1 0x1 PUSH1 0xA0 SHL SUB SWAP7 SWAP1 SWAP7 AND PUSH1 0x60 DUP6 ADD MSTORE POP POP POP PUSH1 0x80 ADD MSTORE SWAP4 SWAP3 POP POP POP JUMP JUMPDEST PUSH0 DUP1 PUSH0 PUSH1 0x60 DUP5 DUP7 SUB SLT ISZERO PUSH2 0x2711 JUMPI PUSH0 DUP1 REVERT JUMPDEST DUP4 MLOAD SWAP3 POP PUSH1 0x20 DUP5 ADD MLOAD SWAP2 POP PUSH1 0x40 DUP5 ADD MLOAD SWAP1 POP SWAP3 POP SWAP3 POP SWAP3 JUMP INVALID LOG2 PUSH5 0x6970667358 0x22 SLT KECCAK256 PUSH23 0xA0D497A4662A28CD202F869E0C99435286EF796B046EAB CALLVALUE PUSH31 0xDD0608DEBFE464736F6C634300081600330000000000000000000000000000 "
		},
		"gasEstimates": {
			"creation": {
				"codeDepositCost": "2016000",
				"executionCost": "infinite",
				"totalCost": "infinite"
			},
			"external": {
				"allowance(address,address)": "infinite",
				"approve(address,uint256)": "24656",
				"balanceOf(address)": "infinite",
				"decimals()": "288",
				"decreaseAllowance(address,uint256)": "infinite",
				"deliver(uint256)": "infinite",
				"excludeFromFee(address)": "29064",
				"excludeFromReward(address)": "infinite",
				"fundWallet()": "2404",
				"geUnlockTime()": "2380",
				"includeInFee(address)": "29053",
				"includeInReward(address)": "infinite",
				"increaseAllowance(address,uint256)": "infinite",
				"isExcludedFromFee(address)": "2673",
				"isExcludedFromReward(address)": "2585",
				"lock(uint256)": "76841",
				"name()": "infinite",
				"owner()": "2396",
				"reflectionFromToken(uint256,bool)": "infinite",
				"renounceOwnership()": "30273",
				"setFundWallet(address)": "27837",
				"setSwapAndLiquifyEnabled(bool)": "27865",
				"swapAndLiquifyEnabled()": "2409",
				"symbol()": "infinite",
				"tokenFromReflection(uint256)": "infinite",
				"totalFees()": "2371",
				"totalSupply()": "2337",
				"transfer(address,uint256)": "infinite",
				"transferFrom(address,address,uint256)": "infinite",
				"transferOwnership(address)": "30521",
				"uniswapV2Pair()": "infinite",
				"uniswapV2Router()": "infinite",
				"unlock()": "36577",
				"updateThreshold(uint256)": "25604"
			},
			"internal": {
				"_approve(address,address,uint256)": "infinite",
				"_getCurrentSupply()": "infinite",
				"_getRValues(uint256,uint256,uint256,uint256,uint256)": "infinite",
				"_getRate()": "infinite",
				"_getTValues(uint256)": "infinite",
				"_getValue(uint256)": "infinite",
				"_getValues(uint256)": "infinite",
				"_reflectFee(uint256,uint256,uint256)": "infinite",
				"_sellBuyTax(address,address)": "infinite",
				"_takeCoinFund(uint256)": "infinite",
				"_takeLiquidity(uint256)": "infinite",
				"_tokenTransfer(address,address,uint256,bool)": "infinite",
				"_transfer(address,address,uint256)": "infinite",
				"_transferBothExcluded(address,address,uint256)": "infinite",
				"_transferFromExcluded(address,address,uint256)": "infinite",
				"_transferStandard(address,address,uint256)": "infinite",
				"_transferToExcluded(address,address,uint256)": "infinite",
				"addLiquidity(uint256,uint256)": "infinite",
				"calculateBurnTax(uint256)": "infinite",
				"calculateCoinOperartionTax(uint256)": "infinite",
				"calculateLiquidityFee(uint256)": "infinite",
				"calculateTaxFee(uint256)": "infinite",
				"removeAllFee()": "infinite",
				"swapAndLiquify(uint256)": "infinite",
				"swapTokensForEth(uint256)": "infinite"
			}
		},
		"methodIdentifiers": {
			"allowance(address,address)": "dd62ed3e",
			"approve(address,uint256)": "095ea7b3",
			"balanceOf(address)": "70a08231",
			"decimals()": "313ce567",
			"decreaseAllowance(address,uint256)": "a457c2d7",
			"deliver(uint256)": "3bd5d173",
			"excludeFromFee(address)": "437823ec",
			"excludeFromReward(address)": "52390c02",
			"fundWallet()": "664a1ad6",
			"geUnlockTime()": "b6c52324",
			"includeInFee(address)": "ea2f0b37",
			"includeInReward(address)": "3685d419",
			"increaseAllowance(address,uint256)": "39509351",
			"isExcludedFromFee(address)": "5342acb4",
			"isExcludedFromReward(address)": "88f82020",
			"lock(uint256)": "dd467064",
			"name()": "06fdde03",
			"owner()": "8da5cb5b",
			"reflectionFromToken(uint256,bool)": "4549b039",
			"renounceOwnership()": "715018a6",
			"setFundWallet(address)": "55ce3b9a",
			"setSwapAndLiquifyEnabled(bool)": "c49b9a80",
			"swapAndLiquifyEnabled()": "4a74bb02",
			"symbol()": "95d89b41",
			"tokenFromReflection(uint256)": "2d838119",
			"totalFees()": "13114a9d",
			"totalSupply()": "18160ddd",
			"transfer(address,uint256)": "a9059cbb",
			"transferFrom(address,address,uint256)": "23b872dd",
			"transferOwnership(address)": "f2fde38b",
			"uniswapV2Pair()": "49bd5a5e",
			"uniswapV2Router()": "1694505e",
			"unlock()": "a69df4b5",
			"updateThreshold(uint256)": "d7d7442f"
		}
	},
	"abi": [
		{
			"inputs": [
				{
					"internalType": "address",
					"name": "_fundWallet",
					"type": "address"
				}
			],
			"stateMutability": "nonpayable",
			"type": "constructor"
		},
		{
			"anonymous": false,
			"inputs": [
				{
					"indexed": false,
					"internalType": "uint256",
					"name": "totalLiquidity",
					"type": "uint256"
				}
			],
			"name": "AddedLiquidity",
			"type": "event"
		},
		{
			"anonymous": false,
			"inputs": [
				{
					"indexed": true,
					"internalType": "address",
					"name": "owner",
					"type": "address"
				},
				{
					"indexed": true,
					"internalType": "address",
					"name": "spender",
					"type": "address"
				},
				{
					"indexed": false,
					"internalType": "uint256",
					"name": "value",
					"type": "uint256"
				}
			],
			"name": "Approval",
			"type": "event"
		},
		{
			"anonymous": false,
			"inputs": [
				{
					"indexed": false,
					"internalType": "uint256",
					"name": "totalCoinFund",
					"type": "uint256"
				}
			],
			"name": "CoinFund",
			"type": "event"
		},
		{
			"anonymous": false,
			"inputs": [
				{
					"indexed": false,
					"internalType": "address",
					"name": "wallet",
					"type": "address"
				}
			],
			"name": "FundWalletChange",
			"type": "event"
		},
		{
			"anonymous": false,
			"inputs": [
				{
					"indexed": false,
					"internalType": "address",
					"name": "owner",
					"type": "address"
				},
				{
					"indexed": false,
					"internalType": "address",
					"name": "newOwner",
					"type": "address"
				},
				{
					"indexed": false,
					"internalType": "uint256",
					"name": "lockTime",
					"type": "uint256"
				}
			],
			"name": "Locked",
			"type": "event"
		},
		{
			"anonymous": false,
			"inputs": [
				{
					"indexed": true,
					"internalType": "address",
					"name": "previousOwner",
					"type": "address"
				},
				{
					"indexed": true,
					"internalType": "address",
					"name": "newOwner",
					"type": "address"
				}
			],
			"name": "OwnershipTransferred",
			"type": "event"
		},
		{
			"anonymous": false,
			"inputs": [
				{
					"indexed": false,
					"internalType": "uint256",
					"name": "totalReflectFee",
					"type": "uint256"
				}
			],
			"name": "ReflectedFee",
			"type": "event"
		},
		{
			"anonymous": false,
			"inputs": [
				{
					"indexed": false,
					"internalType": "uint256",
					"name": "tokensSwapped",
					"type": "uint256"
				},
				{
					"indexed": false,
					"internalType": "uint256",
					"name": "ethReceived",
					"type": "uint256"
				},
				{
					"indexed": false,
					"internalType": "uint256",
					"name": "tokensIntoLiqudity",
					"type": "uint256"
				}
			],
			"name": "SwapAndLiquify",
			"type": "event"
		},
		{
			"anonymous": false,
			"inputs": [
				{
					"indexed": false,
					"internalType": "bool",
					"name": "enabled",
					"type": "bool"
				}
			],
			"name": "SwapAndLiquifyEnabledUpdated",
			"type": "event"
		},
		{
			"anonymous": false,
			"inputs": [
				{
					"indexed": false,
					"internalType": "uint256",
					"name": "amount",
					"type": "uint256"
				}
			],
			"name": "ThresholdUpdated",
			"type": "event"
		},
		{
			"anonymous": false,
			"inputs": [
				{
					"indexed": true,
					"internalType": "address",
					"name": "from",
					"type": "address"
				},
				{
					"indexed": true,
					"internalType": "address",
					"name": "to",
					"type": "address"
				},
				{
					"indexed": false,
					"internalType": "uint256",
					"name": "value",
					"type": "uint256"
				}
			],
			"name": "Transfer",
			"type": "event"
		},
		{
			"inputs": [
				{
					"internalType": "address",
					"name": "owner",
					"type": "address"
				},
				{
					"internalType": "address",
					"name": "spender",
					"type": "address"
				}
			],
			"name": "allowance",
			"outputs": [
				{
					"internalType": "uint256",
					"name": "",
					"type": "uint256"
				}
			],
			"stateMutability": "view",
			"type": "function"
		},
		{
			"inputs": [
				{
					"internalType": "address",
					"name": "spender",
					"type": "address"
				},
				{
					"internalType": "uint256",
					"name": "amount",
					"type": "uint256"
				}
			],
			"name": "approve",
			"outputs": [
				{
					"internalType": "bool",
					"name": "",
					"type": "bool"
				}
			],
			"stateMutability": "nonpayable",
			"type": "function"
		},
		{
			"inputs": [
				{
					"internalType": "address",
					"name": "account",
					"type": "address"
				}
			],
			"name": "balanceOf",
			"outputs": [
				{
					"internalType": "uint256",
					"name": "",
					"type": "uint256"
				}
			],
			"stateMutability": "view",
			"type": "function"
		},
		{
			"inputs": [],
			"name": "decimals",
			"outputs": [
				{
					"internalType": "uint8",
					"name": "",
					"type": "uint8"
				}
			],
			"stateMutability": "pure",
			"type": "function"
		},
		{
			"inputs": [
				{
					"internalType": "address",
					"name": "spender",
					"type": "address"
				},
				{
					"internalType": "uint256",
					"name": "subtractedValue",
					"type": "uint256"
				}
			],
			"name": "decreaseAllowance",
			"outputs": [
				{
					"internalType": "bool",
					"name": "",
					"type": "bool"
				}
			],
			"stateMutability": "nonpayable",
			"type": "function"
		},
		{
			"inputs": [
				{
					"internalType": "uint256",
					"name": "tAmount",
					"type": "uint256"
				}
			],
			"name": "deliver",
			"outputs": [],
			"stateMutability": "nonpayable",
			"type": "function"
		},
		{
			"inputs": [
				{
					"internalType": "address",
					"name": "account",
					"type": "address"
				}
			],
			"name": "excludeFromFee",
			"outputs": [],
			"stateMutability": "nonpayable",
			"type": "function"
		},
		{
			"inputs": [
				{
					"internalType": "address",
					"name": "account",
					"type": "address"
				}
			],
			"name": "excludeFromReward",
			"outputs": [],
			"stateMutability": "nonpayable",
			"type": "function"
		},
		{
			"inputs": [],
			"name": "fundWallet",
			"outputs": [
				{
					"internalType": "address",
					"name": "",
					"type": "address"
				}
			],
			"stateMutability": "view",
			"type": "function"
		},
		{
			"inputs": [],
			"name": "geUnlockTime",
			"outputs": [
				{
					"internalType": "uint256",
					"name": "",
					"type": "uint256"
				}
			],
			"stateMutability": "view",
			"type": "function"
		},
		{
			"inputs": [
				{
					"internalType": "address",
					"name": "account",
					"type": "address"
				}
			],
			"name": "includeInFee",
			"outputs": [],
			"stateMutability": "nonpayable",
			"type": "function"
		},
		{
			"inputs": [
				{
					"internalType": "address",
					"name": "account",
					"type": "address"
				}
			],
			"name": "includeInReward",
			"outputs": [],
			"stateMutability": "nonpayable",
			"type": "function"
		},
		{
			"inputs": [
				{
					"internalType": "address",
					"name": "spender",
					"type": "address"
				},
				{
					"internalType": "uint256",
					"name": "addedValue",
					"type": "uint256"
				}
			],
			"name": "increaseAllowance",
			"outputs": [
				{
					"internalType": "bool",
					"name": "",
					"type": "bool"
				}
			],
			"stateMutability": "nonpayable",
			"type": "function"
		},
		{
			"inputs": [
				{
					"internalType": "address",
					"name": "account",
					"type": "address"
				}
			],
			"name": "isExcludedFromFee",
			"outputs": [
				{
					"internalType": "bool",
					"name": "",
					"type": "bool"
				}
			],
			"stateMutability": "view",
			"type": "function"
		},
		{
			"inputs": [
				{
					"internalType": "address",
					"name": "account",
					"type": "address"
				}
			],
			"name": "isExcludedFromReward",
			"outputs": [
				{
					"internalType": "bool",
					"name": "",
					"type": "bool"
				}
			],
			"stateMutability": "view",
			"type": "function"
		},
		{
			"inputs": [
				{
					"internalType": "uint256",
					"name": "time",
					"type": "uint256"
				}
			],
			"name": "lock",
			"outputs": [],
			"stateMutability": "nonpayable",
			"type": "function"
		},
		{
			"inputs": [],
			"name": "name",
			"outputs": [
				{
					"internalType": "string",
					"name": "",
					"type": "string"
				}
			],
			"stateMutability": "pure",
			"type": "function"
		},
		{
			"inputs": [],
			"name": "owner",
			"outputs": [
				{
					"internalType": "address",
					"name": "",
					"type": "address"
				}
			],
			"stateMutability": "view",
			"type": "function"
		},
		{
			"inputs": [
				{
					"internalType": "uint256",
					"name": "tAmount",
					"type": "uint256"
				},
				{
					"internalType": "bool",
					"name": "deductTransferFee",
					"type": "bool"
				}
			],
			"name": "reflectionFromToken",
			"outputs": [
				{
					"internalType": "uint256",
					"name": "",
					"type": "uint256"
				}
			],
			"stateMutability": "view",
			"type": "function"
		},
		{
			"inputs": [],
			"name": "renounceOwnership",
			"outputs": [],
			"stateMutability": "nonpayable",
			"type": "function"
		},
		{
			"inputs": [
				{
					"internalType": "address",
					"name": "_fundWallet",
					"type": "address"
				}
			],
			"name": "setFundWallet",
			"outputs": [],
			"stateMutability": "nonpayable",
			"type": "function"
		},
		{
			"inputs": [
				{
					"internalType": "bool",
					"name": "_enabled",
					"type": "bool"
				}
			],
			"name": "setSwapAndLiquifyEnabled",
			"outputs": [],
			"stateMutability": "nonpayable",
			"type": "function"
		},
		{
			"inputs": [],
			"name": "swapAndLiquifyEnabled",
			"outputs": [
				{
					"internalType": "bool",
					"name": "",
					"type": "bool"
				}
			],
			"stateMutability": "view",
			"type": "function"
		},
		{
			"inputs": [],
			"name": "symbol",
			"outputs": [
				{
					"internalType": "string",
					"name": "",
					"type": "string"
				}
			],
			"stateMutability": "pure",
			"type": "function"
		},
		{
			"inputs": [
				{
					"internalType": "uint256",
					"name": "rAmount",
					"type": "uint256"
				}
			],
			"name": "tokenFromReflection",
			"outputs": [
				{
					"internalType": "uint256",
					"name": "",
					"type": "uint256"
				}
			],
			"stateMutability": "view",
			"type": "function"
		},
		{
			"inputs": [],
			"name": "totalFees",
			"outputs": [
				{
					"internalType": "uint256",
					"name": "",
					"type": "uint256"
				}
			],
			"stateMutability": "view",
			"type": "function"
		},
		{
			"inputs": [],
			"name": "totalSupply",
			"outputs": [
				{
					"internalType": "uint256",
					"name": "",
					"type": "uint256"
				}
			],
			"stateMutability": "view",
			"type": "function"
		},
		{
			"inputs": [
				{
					"internalType": "address",
					"name": "recipient",
					"type": "address"
				},
				{
					"internalType": "uint256",
					"name": "amount",
					"type": "uint256"
				}
			],
			"name": "transfer",
			"outputs": [
				{
					"internalType": "bool",
					"name": "",
					"type": "bool"
				}
			],
			"stateMutability": "nonpayable",
			"type": "function"
		},
		{
			"inputs": [
				{
					"internalType": "address",
					"name": "sender",
					"type": "address"
				},
				{
					"internalType": "address",
					"name": "recipient",
					"type": "address"
				},
				{
					"internalType": "uint256",
					"name": "amount",
					"type": "uint256"
				}
			],
			"name": "transferFrom",
			"outputs": [
				{
					"internalType": "bool",
					"name": "",
					"type": "bool"
				}
			],
			"stateMutability": "nonpayable",
			"type": "function"
		},
		{
			"inputs": [
				{
					"internalType": "address",
					"name": "newOwner",
					"type": "address"
				}
			],
			"name": "transferOwnership",
			"outputs": [],
			"stateMutability": "nonpayable",
			"type": "function"
		},
		{
			"inputs": [],
			"name": "uniswapV2Pair",
			"outputs": [
				{
					"internalType": "address",
					"name": "",
					"type": "address"
				}
			],
			"stateMutability": "view",
			"type": "function"
		},
		{
			"inputs": [],
			"name": "uniswapV2Router",
			"outputs": [
				{
					"internalType": "contract IUniswapV2Router02",
					"name": "",
					"type": "address"
				}
			],
			"stateMutability": "view",
			"type": "function"
		},
		{
			"inputs": [],
			"name": "unlock",
			"outputs": [],
			"stateMutability": "nonpayable",
			"type": "function"
		},
		{
			"inputs": [
				{
					"internalType": "uint256",
					"name": "_amount",
					"type": "uint256"
				}
			],
			"name": "updateThreshold",
			"outputs": [],
			"stateMutability": "nonpayable",
			"type": "function"
		},
		{
			"stateMutability": "payable",
			"type": "receive"
		}
	]
}