{
	"data": {
		"bytecode": {
			"linkReferences": {},
			"object": "6080604052601260ff16600a620000179190620009f0565b6461c9f3680062000029919062000a41565b6001556107d0600855610bb86009556103e8600a55601260ff16600a620000519190620009f0565b620186a062000061919062000a41565b600b55618235600c5561c350600d5561411a600e556001601060166101000a81548160ff0219169083151502179055503480156200009e57600080fd5b50604051620047c9380380620047c98339818101604052810190620000c4919062000af6565b620000e4620000d86200056b60201b60201c565b6200057360201b60201c565b600154600260003373ffffffffffffffffffffffffffffffffffffffff1673ffffffffffffffffffffffffffffffffffffffff16815260200190815260200160002081905550600073d99d1c33f9fc3444f8101754abc46c52416550d1905080600f60006101000a81548173ffffffffffffffffffffffffffffffffffffffff021916908373ffffffffffffffffffffffffffffffffffffffff1602179055508073ffffffffffffffffffffffffffffffffffffffff1663c45a01556040518163ffffffff1660e01b8152600401602060405180830381865afa158015620001d0573d6000803e3d6000fd5b505050506040513d601f19601f82011682018060405250810190620001f6919062000af6565b73ffffffffffffffffffffffffffffffffffffffff1663c9c65396308373ffffffffffffffffffffffffffffffffffffffff1663ad5c46486040518163ffffffff1660e01b8152600401602060405180830381865afa1580156200025e573d6000803e3d6000fd5b505050506040513d601f19601f8201168201806040525081019062000284919062000af6565b6040518363ffffffff1660e01b8152600401620002a392919062000b39565b6020604051808303816000875af1158015620002c3573d6000803e3d6000fd5b505050506040513d601f19601f82011682018060405250810190620002e9919062000af6565b601060006101000a81548173ffffffffffffffffffffffffffffffffffffffff021916908373ffffffffffffffffffffffffffffffffffffffff1602179055506200037e33600f60009054906101000a900473ffffffffffffffffffffffffffffffffffffffff167fffffffffffffffffffffffffffffffffffffffffffffffffffffffffffffffff6200063760201b60201c565b620003d330600f60009054906101000a900473ffffffffffffffffffffffffffffffffffffffff167fffffffffffffffffffffffffffffffffffffffffffffffffffffffffffffffff6200063760201b60201c565b62000408601060009054906101000a900473ffffffffffffffffffffffffffffffffffffffff1660016200080860201b60201c565b81600760006101000a81548173ffffffffffffffffffffffffffffffffffffffff021916908373ffffffffffffffffffffffffffffffffffffffff1602179055506001600560003073ffffffffffffffffffffffffffffffffffffffff1673ffffffffffffffffffffffffffffffffffffffff16815260200190815260200160002060006101000a81548160ff0219169083151502179055506001600560003373ffffffffffffffffffffffffffffffffffffffff1673ffffffffffffffffffffffffffffffffffffffff16815260200190815260200160002060006101000a81548160ff0219169083151502179055503373ffffffffffffffffffffffffffffffffffffffff16600073ffffffffffffffffffffffffffffffffffffffff167fddf252ad1be2c89b69c2b068fc378daa952ba7f163c4a11628f55a4df523b3ef6001546040516200055b919062000b77565b60405180910390a3505062000cd5565b600033905090565b60008060009054906101000a900473ffffffffffffffffffffffffffffffffffffffff169050816000806101000a81548173ffffffffffffffffffffffffffffffffffffffff021916908373ffffffffffffffffffffffffffffffffffffffff1602179055508173ffffffffffffffffffffffffffffffffffffffff168173ffffffffffffffffffffffffffffffffffffffff167f8be0079c531659141344cd1fd0a4f28419497f9722a3daafe3b4186f6b6457e060405160405180910390a35050565b600073ffffffffffffffffffffffffffffffffffffffff168373ffffffffffffffffffffffffffffffffffffffff1603620006a9576040517f08c379a0000000000000000000000000000000000000000000000000000000008152600401620006a09062000c1b565b60405180910390fd5b600073ffffffffffffffffffffffffffffffffffffffff168273ffffffffffffffffffffffffffffffffffffffff16036200071b576040517f08c379a0000000000000000000000000000000000000000000000000000000008152600401620007129062000cb3565b60405180910390fd5b80600360008573ffffffffffffffffffffffffffffffffffffffff1673ffffffffffffffffffffffffffffffffffffffff16815260200190815260200160002060008473ffffffffffffffffffffffffffffffffffffffff1673ffffffffffffffffffffffffffffffffffffffff168152602001908152602001600020819055508173ffffffffffffffffffffffffffffffffffffffff168373ffffffffffffffffffffffffffffffffffffffff167f8c5be1e5ebec7d5bd14f71427d1e84f3dd0314c0f7b2291e5b200ac8c7c3b92583604051620007fb919062000b77565b60405180910390a3505050565b80600660008473ffffffffffffffffffffffffffffffffffffffff1673ffffffffffffffffffffffffffffffffffffffff16815260200190815260200160002060006101000a81548160ff0219169083151502179055505050565b7f4e487b7100000000000000000000000000000000000000000000000000000000600052601160045260246000fd5b60008160011c9050919050565b6000808291508390505b6001851115620008f157808604811115620008c957620008c862000863565b5b6001851615620008d95780820291505b8081029050620008e98562000892565b9450620008a9565b94509492505050565b6000826200090c5760019050620009df565b816200091c5760009050620009df565b8160018114620009355760028114620009405762000976565b6001915050620009df565b60ff84111562000955576200095462000863565b5b8360020a9150848211156200096f576200096e62000863565b5b50620009df565b5060208310610133831016604e8410600b8410161715620009b05782820a905083811115620009aa57620009a962000863565b5b620009df565b620009bf84848460016200089f565b92509050818404811115620009d957620009d862000863565b5b81810290505b9392505050565b6000819050919050565b6000620009fd82620009e6565b915062000a0a83620009e6565b925062000a397fffffffffffffffffffffffffffffffffffffffffffffffffffffffffffffffff8484620008fa565b905092915050565b600062000a4e82620009e6565b915062000a5b83620009e6565b925082820262000a6b81620009e6565b9150828204841483151762000a855762000a8462000863565b5b5092915050565b600080fd5b600073ffffffffffffffffffffffffffffffffffffffff82169050919050565b600062000abe8262000a91565b9050919050565b62000ad08162000ab1565b811462000adc57600080fd5b50565b60008151905062000af08162000ac5565b92915050565b60006020828403121562000b0f5762000b0e62000a8c565b5b600062000b1f8482850162000adf565b91505092915050565b62000b338162000ab1565b82525050565b600060408201905062000b50600083018562000b28565b62000b5f602083018462000b28565b9392505050565b62000b7181620009e6565b82525050565b600060208201905062000b8e600083018462000b66565b92915050565b600082825260208201905092915050565b7f45524332303a20617070726f76652066726f6d20746865207a65726f2061646460008201527f7265737300000000000000000000000000000000000000000000000000000000602082015250565b600062000c0360248362000b94565b915062000c108262000ba5565b604082019050919050565b6000602082019050818103600083015262000c368162000bf4565b9050919050565b7f45524332303a20617070726f766520746f20746865207a65726f20616464726560008201527f7373000000000000000000000000000000000000000000000000000000000000602082015250565b600062000c9b60228362000b94565b915062000ca88262000c3d565b604082019050919050565b6000602082019050818103600083015262000cce8162000c8c565b9050919050565b613ae48062000ce56000396000f3fe6080604052600436106102555760003560e01c806375f0a87411610139578063a9059cbb116100b6578063c410ab5e1161007a578063c410ab5e14610870578063dd3a1f761461089b578063dd62ed3e146108c6578063f2fde38b14610903578063f7e533371461092c578063fe575a87146109575761025c565b8063a9059cbb14610777578063aaa00b99146107b4578063b187bd26146107df578063b62496f51461080a578063ba414b10146108475761025c565b806395d89b41116100fd57806395d89b41146106a65780639a7a23d6146106d15780639ec4be41146106fa578063a562564a14610723578063a56d37f91461074e5761025c565b806375f0a874146105e557806377c068ec146106105780638456cb591461063b5780638da5cb5b14610652578063924de9b71461067d5761025c565b80634baf59f3116101d25780635d098b38116101965780635d098b38146104eb5780636612e66f146105145780636dbff43b1461053d5780636ddd17131461056657806370a0823114610591578063715018a6146105ce5761025c565b80634baf59f3146104065780634bf28fd01461042f5780635342acb41461045a578063537df3b614610497578063549fb8bf146104c05761025c565b806320800a001161021957806320800a001461034757806323b872dd1461035e578063313ce5671461039b5780633f4ba83a146103c657806344337ea1146103dd5761025c565b806306fdde031461025e578063095ea7b3146102895780631694505e146102c657806316c61ccc146102f157806318160ddd1461031c5761025c565b3661025c57005b005b34801561026a57600080fd5b50610273610994565b60405161028091906128ff565b60405180910390f35b34801561029557600080fd5b506102b060048036038101906102ab91906129bf565b6109d1565b6040516102bd9190612a1a565b60405180910390f35b3480156102d257600080fd5b506102db6109e8565b6040516102e89190612a94565b60405180910390f35b3480156102fd57600080fd5b50610306610a0e565b6040516103139190612a1a565b60405180910390f35b34801561032857600080fd5b50610331610a21565b60405161033e9190612abe565b60405180910390f35b34801561035357600080fd5b5061035c610a2b565b005b34801561036a57600080fd5b5061038560048036038101906103809190612ad9565b610a7c565b6040516103929190612a1a565b60405180910390f35b3480156103a757600080fd5b506103b0610aa4565b6040516103bd9190612b48565b60405180910390f35b3480156103d257600080fd5b506103db610aad565b005b3480156103e957600080fd5b5061040460048036038101906103ff9190612b63565b610ad2565b005b34801561041257600080fd5b5061042d60048036038101906104289190612b90565b610c37565b005b34801561043b57600080fd5b50610444610c49565b6040516104519190612bcc565b60405180910390f35b34801561046657600080fd5b50610481600480360381019061047c9190612b63565b610c6f565b60405161048e9190612a1a565b60405180910390f35b3480156104a357600080fd5b506104be60048036038101906104b99190612b63565b610cc5565b005b3480156104cc57600080fd5b506104d5610e29565b6040516104e29190612abe565b60405180910390f35b3480156104f757600080fd5b50610512600480360381019061050d9190612b63565b610e2f565b005b34801561052057600080fd5b5061053b60048036038101906105369190612c13565b610e7b565b005b34801561054957600080fd5b50610564600480360381019061055f9190612b90565b610ede565b005b34801561057257600080fd5b5061057b610fbe565b6040516105889190612a1a565b60405180910390f35b34801561059d57600080fd5b506105b860048036038101906105b39190612b63565b610fd1565b6040516105c59190612abe565b60405180910390f35b3480156105da57600080fd5b506105e361101a565b005b3480156105f157600080fd5b506105fa61102e565b6040516106079190612bcc565b60405180910390f35b34801561061c57600080fd5b50610625611054565b6040516106329190612abe565b60405180910390f35b34801561064757600080fd5b5061065061105a565b005b34801561065e57600080fd5b5061066761107f565b6040516106749190612bcc565b60405180910390f35b34801561068957600080fd5b506106a4600480360381019061069f9190612c53565b6110a8565b005b3480156106b257600080fd5b506106bb6110cd565b6040516106c891906128ff565b60405180910390f35b3480156106dd57600080fd5b506106f860048036038101906106f39190612c13565b61110a565b005b34801561070657600080fd5b50610721600480360381019061071c9190612b90565b6111b0565b005b34801561072f57600080fd5b50610738611290565b6040516107459190612abe565b60405180910390f35b34801561075a57600080fd5b5061077560048036038101906107709190612b90565b611296565b005b34801561078357600080fd5b5061079e600480360381019061079991906129bf565b611376565b6040516107ab9190612a1a565b60405180910390f35b3480156107c057600080fd5b506107c9611392565b6040516107d69190612abe565b60405180910390f35b3480156107eb57600080fd5b506107f4611398565b6040516108019190612a1a565b60405180910390f35b34801561081657600080fd5b50610831600480360381019061082c9190612b63565b6113af565b60405161083e9190612a1a565b60405180910390f35b34801561085357600080fd5b5061086e60048036038101906108699190612ce5565b6113cf565b005b34801561087c57600080fd5b506108856114ac565b6040516108929190612abe565b60405180910390f35b3480156108a757600080fd5b506108b06114b2565b6040516108bd9190612abe565b60405180910390f35b3480156108d257600080fd5b506108ed60048036038101906108e89190612d45565b6114b8565b6040516108fa9190612abe565b60405180910390f35b34801561090f57600080fd5b5061092a60048036038101906109259190612b63565b61153f565b005b34801561093857600080fd5b506109416115c2565b60405161094e9190612abe565b60405180910390f35b34801561096357600080fd5b5061097e60048036038101906109799190612b63565b6115c8565b60405161098b9190612a1a565b60405180910390f35b60606040518060400160405280600381526020017f464f500000000000000000000000000000000000000000000000000000000000815250905090565b60006109de33848461161e565b6001905092915050565b600f60009054906101000a900473ffffffffffffffffffffffffffffffffffffffff1681565b601060149054906101000a900460ff1681565b6000600154905090565b610a336117e7565b3373ffffffffffffffffffffffffffffffffffffffff166108fc479081150290604051600060405180830381858888f19350505050158015610a79573d6000803e3d6000fd5b50565b600080339050610a8d858285611865565b610a988585856118f1565b60019150509392505050565b60006012905090565b610ab56117e7565b6000601060146101000a81548160ff021916908315150217905550565b610ada6117e7565b600460008273ffffffffffffffffffffffffffffffffffffffff1673ffffffffffffffffffffffffffffffffffffffff16815260200190815260200160002060009054906101000a900460ff1615610b67576040517f08c379a0000000000000000000000000000000000000000000000000000000008152600401610b5e90612dd1565b60405180910390fd5b8073ffffffffffffffffffffffffffffffffffffffff16610b866120f6565b73ffffffffffffffffffffffffffffffffffffffff1603610bdc576040517f08c379a0000000000000000000000000000000000000000000000000000000008152600401610bd390612e3d565b60405180910390fd5b6001600460008373ffffffffffffffffffffffffffffffffffffffff1673ffffffffffffffffffffffffffffffffffffffff16815260200190815260200160002060006101000a81548160ff02191690831515021790555050565b610c3f6117e7565b80600b8190555050565b601060009054906101000a900473ffffffffffffffffffffffffffffffffffffffff1681565b6000600560008373ffffffffffffffffffffffffffffffffffffffff1673ffffffffffffffffffffffffffffffffffffffff16815260200190815260200160002060009054906101000a900460ff169050919050565b610ccd6117e7565b600460008273ffffffffffffffffffffffffffffffffffffffff1673ffffffffffffffffffffffffffffffffffffffff16815260200190815260200160002060009054906101000a900460ff16610d59576040517f08c379a0000000000000000000000000000000000000000000000000000000008152600401610d5090612ea9565b60405180910390fd5b8073ffffffffffffffffffffffffffffffffffffffff16610d786120f6565b73ffffffffffffffffffffffffffffffffffffffff1603610dce576040517f08c379a0000000000000000000000000000000000000000000000000000000008152600401610dc590612f3b565b60405180910390fd5b6000600460008373ffffffffffffffffffffffffffffffffffffffff1673ffffffffffffffffffffffffffffffffffffffff16815260200190815260200160002060006101000a81548160ff02191690831515021790555050565b600a5481565b610e376117e7565b80600760006101000a81548173ffffffffffffffffffffffffffffffffffffffff021916908373ffffffffffffffffffffffffffffffffffffffff16021790555050565b610e836117e7565b80600560008473ffffffffffffffffffffffffffffffffffffffff1673ffffffffffffffffffffffffffffffffffffffff16815260200190815260200160002060006101000a81548160ff0219169083151502179055505050565b610ee66117e7565b620186a0811115610f2c576040517f08c379a0000000000000000000000000000000000000000000000000000000008152600401610f2390612fa7565b60405180910390fd5b80600a819055506000600a54600954600854610f489190612ff6565b610f529190612ff6565b905080620186a0600854610f66919061302a565b610f70919061309b565b600c8190555080620186a0600954610f88919061302a565b610f92919061309b565b600d8190555080620186a0600a54610faa919061302a565b610fb4919061309b565b600e819055505050565b601060169054906101000a900460ff1681565b6000600260008373ffffffffffffffffffffffffffffffffffffffff1673ffffffffffffffffffffffffffffffffffffffff168152602001908152602001600020549050919050565b6110226117e7565b61102c60006120fe565b565b600760009054906101000a900473ffffffffffffffffffffffffffffffffffffffff1681565b600b5481565b6110626117e7565b6001601060146101000a81548160ff021916908315150217905550565b60008060009054906101000a900473ffffffffffffffffffffffffffffffffffffffff16905090565b6110b06117e7565b80601060166101000a81548160ff02191690831515021790555050565b60606040518060400160405280600381526020017f464f500000000000000000000000000000000000000000000000000000000000815250905090565b6111126117e7565b601060009054906101000a900473ffffffffffffffffffffffffffffffffffffffff1673ffffffffffffffffffffffffffffffffffffffff168273ffffffffffffffffffffffffffffffffffffffff16036111a2576040517f08c379a00000000000000000000000000000000000000000000000000000000081526004016111999061313e565b60405180910390fd5b6111ac82826121c2565b5050565b6111b86117e7565b620186a08111156111fe576040517f08c379a00000000000000000000000000000000000000000000000000000000081526004016111f590612fa7565b60405180910390fd5b806009819055506000600a5460095460085461121a9190612ff6565b6112249190612ff6565b905080620186a0600854611238919061302a565b611242919061309b565b600c8190555080620186a060095461125a919061302a565b611264919061309b565b600d8190555080620186a0600a5461127c919061302a565b611286919061309b565b600e819055505050565b60095481565b61129e6117e7565b620186a08111156112e4576040517f08c379a00000000000000000000000000000000000000000000000000000000081526004016112db90612fa7565b60405180910390fd5b806008819055506000600a546009546008546113009190612ff6565b61130a9190612ff6565b905080620186a060085461131e919061302a565b611328919061309b565b600c8190555080620186a0600954611340919061302a565b61134a919061309b565b600d8190555080620186a0600a54611362919061302a565b61136c919061309b565b600e819055505050565b6000803390506113878185856118f1565b600191505092915050565b600d5481565b6000601060149054906101000a900460ff16905090565b60066020528060005260406000206000915054906101000a900460ff1681565b6113d76117e7565b60006113e161107f565b905060005b848490508110156114a55760008585838181106114065761140561315e565b5b905060200201602081019061141b9190612b63565b9050600073ffffffffffffffffffffffffffffffffffffffff168173ffffffffffffffffffffffffffffffffffffffff160361148c576040517f08c379a0000000000000000000000000000000000000000000000000000000008152600401611483906131ff565b60405180910390fd5b61149783828661221d565b5080806001019150506113e6565b5050505050565b60085481565b600e5481565b6000600360008473ffffffffffffffffffffffffffffffffffffffff1673ffffffffffffffffffffffffffffffffffffffff16815260200190815260200160002060008373ffffffffffffffffffffffffffffffffffffffff1673ffffffffffffffffffffffffffffffffffffffff16815260200190815260200160002054905092915050565b6115476117e7565b600073ffffffffffffffffffffffffffffffffffffffff168173ffffffffffffffffffffffffffffffffffffffff16036115b6576040517f08c379a00000000000000000000000000000000000000000000000000000000081526004016115ad90613291565b60405180910390fd5b6115bf816120fe565b50565b600c5481565b6000600460008373ffffffffffffffffffffffffffffffffffffffff1673ffffffffffffffffffffffffffffffffffffffff16815260200190815260200160002060009054906101000a900460ff169050919050565b600073ffffffffffffffffffffffffffffffffffffffff168373ffffffffffffffffffffffffffffffffffffffff160361168d576040517f08c379a000000000000000000000000000000000000000000000000000000000815260040161168490613323565b60405180910390fd5b600073ffffffffffffffffffffffffffffffffffffffff168273ffffffffffffffffffffffffffffffffffffffff16036116fc576040517f08c379a00000000000000000000000000000000000000000000000000000000081526004016116f3906133b5565b60405180910390fd5b80600360008573ffffffffffffffffffffffffffffffffffffffff1673ffffffffffffffffffffffffffffffffffffffff16815260200190815260200160002060008473ffffffffffffffffffffffffffffffffffffffff1673ffffffffffffffffffffffffffffffffffffffff168152602001908152602001600020819055508173ffffffffffffffffffffffffffffffffffffffff168373ffffffffffffffffffffffffffffffffffffffff167f8c5be1e5ebec7d5bd14f71427d1e84f3dd0314c0f7b2291e5b200ac8c7c3b925836040516117da9190612abe565b60405180910390a3505050565b6117ef6120f6565b73ffffffffffffffffffffffffffffffffffffffff1661180d61107f565b73ffffffffffffffffffffffffffffffffffffffff1614611863576040517f08c379a000000000000000000000000000000000000000000000000000000000815260040161185a90613421565b60405180910390fd5b565b600061187184846114b8565b90507fffffffffffffffffffffffffffffffffffffffffffffffffffffffffffffffff81146118eb57818110156118dd576040517f08c379a00000000000000000000000000000000000000000000000000000000081526004016118d49061348d565b60405180910390fd5b6118ea848484840361161e565b5b50505050565b600073ffffffffffffffffffffffffffffffffffffffff168373ffffffffffffffffffffffffffffffffffffffff1603611960576040517f08c379a00000000000000000000000000000000000000000000000000000000081526004016119579061351f565b60405180910390fd5b600073ffffffffffffffffffffffffffffffffffffffff168273ffffffffffffffffffffffffffffffffffffffff16036119cf576040517f08c379a00000000000000000000000000000000000000000000000000000000081526004016119c6906131ff565b60405180910390fd5b60008111611a12576040517f08c379a0000000000000000000000000000000000000000000000000000000008152600401611a09906135b1565b60405180910390fd5b600460008473ffffffffffffffffffffffffffffffffffffffff1673ffffffffffffffffffffffffffffffffffffffff16815260200190815260200160002060009054906101000a900460ff1615611a9f576040517f08c379a0000000000000000000000000000000000000000000000000000000008152600401611a969061361d565b60405180910390fd5b600460008373ffffffffffffffffffffffffffffffffffffffff1673ffffffffffffffffffffffffffffffffffffffff16815260200190815260200160002060009054906101000a900460ff1615611b2c576040517f08c379a0000000000000000000000000000000000000000000000000000000008152600401611b2390613689565b60405180910390fd5b601060149054906101000a900460ff1615611b7c576040517f08c379a0000000000000000000000000000000000000000000000000000000008152600401611b73906136f5565b60405180910390fd5b60008103611b9557611b908383600061221d565b6120f1565b6000601060009054906101000a900473ffffffffffffffffffffffffffffffffffffffff1673ffffffffffffffffffffffffffffffffffffffff168473ffffffffffffffffffffffffffffffffffffffff161490506000601060009054906101000a900473ffffffffffffffffffffffffffffffffffffffff1673ffffffffffffffffffffffffffffffffffffffff168473ffffffffffffffffffffffffffffffffffffffff16149050600080600080611c4e30610fd1565b90506000600b548210159050808015611c735750601060169054906101000a900460ff165b8015611c8c5750601060159054906101000a900460ff16155b8015611ce25750600660008b73ffffffffffffffffffffffffffffffffffffffff1673ffffffffffffffffffffffffffffffffffffffff16815260200190815260200160002060009054906101000a900460ff16155b8015611d385750600560008b73ffffffffffffffffffffffffffffffffffffffff1673ffffffffffffffffffffffffffffffffffffffff16815260200190815260200160002060009054906101000a900460ff16155b8015611d8e5750600560008a73ffffffffffffffffffffffffffffffffffffffff1673ffffffffffffffffffffffffffffffffffffffff16815260200190815260200160002060009054906101000a900460ff16155b15611e3b576001601060156101000a81548160ff021916908315150217905550611db66123a2565b600760009054906101000a900473ffffffffffffffffffffffffffffffffffffffff1673ffffffffffffffffffffffffffffffffffffffff166108fc479081150290604051600060405180830381858888f19350505050158015611e1e573d6000803e3d6000fd5b506000601060156101000a81548160ff0219169083151502179055505b6000601060159054906101000a900460ff16159050600560008c73ffffffffffffffffffffffffffffffffffffffff1673ffffffffffffffffffffffffffffffffffffffff16815260200190815260200160002060009054906101000a900460ff1680611ef15750600560008b73ffffffffffffffffffffffffffffffffffffffff1673ffffffffffffffffffffffffffffffffffffffff16815260200190815260200160002060009054906101000a900460ff165b15611efb57600090505b600081156120dc57600660008d73ffffffffffffffffffffffffffffffffffffffff1673ffffffffffffffffffffffffffffffffffffffff16815260200190815260200160002060009054906101000a900460ff168015611f595750885b15611fdf57600560008c73ffffffffffffffffffffffffffffffffffffffff1673ffffffffffffffffffffffffffffffffffffffff16815260200190815260200160002060009054906101000a900460ff16611fcc57611fbb8a600854612529565b9650611fc98a600a54612529565b94505b8487611fd89190612ff6565b90506120b8565b600660008c73ffffffffffffffffffffffffffffffffffffffff1673ffffffffffffffffffffffffffffffffffffffff16815260200190815260200160002060009054906101000a900460ff1680156120355750875b156120b757600560008d73ffffffffffffffffffffffffffffffffffffffff1673ffffffffffffffffffffffffffffffffffffffff16815260200190815260200160002060009054906101000a900460ff166120a8576120978a600954612529565b95506120a58a600a54612529565b94505b84866120b49190612ff6565b90505b5b60008111156120cd576120cc8c308361221d565b5b808a6120d99190613715565b99505b6120e78c8c8c61221d565b5050505050505050505b505050565b600033905090565b60008060009054906101000a900473ffffffffffffffffffffffffffffffffffffffff169050816000806101000a81548173ffffffffffffffffffffffffffffffffffffffff021916908373ffffffffffffffffffffffffffffffffffffffff1602179055508173ffffffffffffffffffffffffffffffffffffffff168173ffffffffffffffffffffffffffffffffffffffff167f8be0079c531659141344cd1fd0a4f28419497f9722a3daafe3b4186f6b6457e060405160405180910390a35050565b80600660008473ffffffffffffffffffffffffffffffffffffffff1673ffffffffffffffffffffffffffffffffffffffff16815260200190815260200160002060006101000a81548160ff0219169083151502179055505050565b6000600260008573ffffffffffffffffffffffffffffffffffffffff1673ffffffffffffffffffffffffffffffffffffffff168152602001908152602001600020549050818110156122a4576040517f08c379a000000000000000000000000000000000000000000000000000000000815260040161229b906137bb565b60405180910390fd5b818103600260008673ffffffffffffffffffffffffffffffffffffffff1673ffffffffffffffffffffffffffffffffffffffff1681526020019081526020016000208190555081600260008573ffffffffffffffffffffffffffffffffffffffff1673ffffffffffffffffffffffffffffffffffffffff168152602001908152602001600020600082825401925050819055508273ffffffffffffffffffffffffffffffffffffffff168473ffffffffffffffffffffffffffffffffffffffff167fddf252ad1be2c89b69c2b068fc378daa952ba7f163c4a11628f55a4df523b3ef846040516123949190612abe565b60405180910390a350505050565b60006123ad30610fd1565b9050600081036123bd5750612527565b60006002620186a0600e54846123d3919061302a565b6123dd919061309b565b6123e7919061309b565b9050600081836123f79190613715565b905060004790506124078261254d565b600081476124159190613715565b9050600080620186a0600c548461242c919061302a565b612436919061309b565b90506000620186a0600d548561244c919061302a565b612456919061309b565b9050600081836124669190612ff6565b905080856124749190613715565b9450600760009054906101000a900473ffffffffffffffffffffffffffffffffffffffff1673ffffffffffffffffffffffffffffffffffffffff16816188b8906040516124c09061380c565b600060405180830381858888f193505050503d80600081146124fe576040519150601f19603f3d011682016040523d82523d6000602084013e612503565b606091505b505080945050600085111561251d5761251c8886612790565b5b5050505050505050505b565b6000620186a0828461253b919061302a565b612545919061309b565b905092915050565b6000600267ffffffffffffffff81111561256a57612569613821565b5b6040519080825280602002602001820160405280156125985781602001602082028036833780820191505090505b50905030816000815181106125b0576125af61315e565b5b602002602001019073ffffffffffffffffffffffffffffffffffffffff16908173ffffffffffffffffffffffffffffffffffffffff1681525050600f60009054906101000a900473ffffffffffffffffffffffffffffffffffffffff1673ffffffffffffffffffffffffffffffffffffffff1663ad5c46486040518163ffffffff1660e01b8152600401602060405180830381865afa158015612657573d6000803e3d6000fd5b505050506040513d601f19601f8201168201806040525081019061267b9190613865565b8160018151811061268f5761268e61315e565b5b602002602001019073ffffffffffffffffffffffffffffffffffffffff16908173ffffffffffffffffffffffffffffffffffffffff16815250506126f630600f60009054906101000a900473ffffffffffffffffffffffffffffffffffffffff168461161e565b600f60009054906101000a900473ffffffffffffffffffffffffffffffffffffffff1673ffffffffffffffffffffffffffffffffffffffff1663791ac9478360008430426040518663ffffffff1660e01b815260040161275a95949392919061398b565b600060405180830381600087803b15801561277457600080fd5b505af1158015612788573d6000803e3d6000fd5b505050505050565b6127bd30600f60009054906101000a900473ffffffffffffffffffffffffffffffffffffffff168461161e565b600f60009054906101000a900473ffffffffffffffffffffffffffffffffffffffff1673ffffffffffffffffffffffffffffffffffffffff1663f305d7198230856000806000426040518863ffffffff1660e01b8152600401612825969594939291906139e5565b60606040518083038185885af1158015612843573d6000803e3d6000fd5b50505050506040513d601f19601f820116820180604052508101906128689190613a5b565b5050505050565b600081519050919050565b600082825260208201905092915050565b60005b838110156128a957808201518184015260208101905061288e565b60008484015250505050565b6000601f19601f8301169050919050565b60006128d18261286f565b6128db818561287a565b93506128eb81856020860161288b565b6128f4816128b5565b840191505092915050565b6000602082019050818103600083015261291981846128c6565b905092915050565b600080fd5b600080fd5b600073ffffffffffffffffffffffffffffffffffffffff82169050919050565b60006129568261292b565b9050919050565b6129668161294b565b811461297157600080fd5b50565b6000813590506129838161295d565b92915050565b6000819050919050565b61299c81612989565b81146129a757600080fd5b50565b6000813590506129b981612993565b92915050565b600080604083850312156129d6576129d5612921565b5b60006129e485828601612974565b92505060206129f5858286016129aa565b9150509250929050565b60008115159050919050565b612a14816129ff565b82525050565b6000602082019050612a2f6000830184612a0b565b92915050565b6000819050919050565b6000612a5a612a55612a508461292b565b612a35565b61292b565b9050919050565b6000612a6c82612a3f565b9050919050565b6000612a7e82612a61565b9050919050565b612a8e81612a73565b82525050565b6000602082019050612aa96000830184612a85565b92915050565b612ab881612989565b82525050565b6000602082019050612ad36000830184612aaf565b92915050565b600080600060608486031215612af257612af1612921565b5b6000612b0086828701612974565b9350506020612b1186828701612974565b9250506040612b22868287016129aa565b9150509250925092565b600060ff82169050919050565b612b4281612b2c565b82525050565b6000602082019050612b5d6000830184612b39565b92915050565b600060208284031215612b7957612b78612921565b5b6000612b8784828501612974565b91505092915050565b600060208284031215612ba657612ba5612921565b5b6000612bb4848285016129aa565b91505092915050565b612bc68161294b565b82525050565b6000602082019050612be16000830184612bbd565b92915050565b612bf0816129ff565b8114612bfb57600080fd5b50565b600081359050612c0d81612be7565b92915050565b60008060408385031215612c2a57612c29612921565b5b6000612c3885828601612974565b9250506020612c4985828601612bfe565b9150509250929050565b600060208284031215612c6957612c68612921565b5b6000612c7784828501612bfe565b91505092915050565b600080fd5b600080fd5b600080fd5b60008083601f840112612ca557612ca4612c80565b5b8235905067ffffffffffffffff811115612cc257612cc1612c85565b5b602083019150836020820283011115612cde57612cdd612c8a565b5b9250929050565b600080600060408486031215612cfe57612cfd612921565b5b600084013567ffffffffffffffff811115612d1c57612d1b612926565b5b612d2886828701612c8f565b93509350506020612d3b868287016129aa565b9150509250925092565b60008060408385031215612d5c57612d5b612921565b5b6000612d6a85828601612974565b9250506020612d7b85828601612974565b9150509250929050565b7f4163636f756e7420697320616c726561647920626c61636b6c69737465640000600082015250565b6000612dbb601e8361287a565b9150612dc682612d85565b602082019050919050565b60006020820190508181036000830152612dea81612dae565b9050919050565b7f43616e6e6f7420626c61636b6c6973742073656c660000000000000000000000600082015250565b6000612e2760158361287a565b9150612e3282612df1565b602082019050919050565b60006020820190508181036000830152612e5681612e1a565b9050919050565b7f4163636f756e74206973206e6f7420626c61636b6c6973746564000000000000600082015250565b6000612e93601a8361287a565b9150612e9e82612e5d565b602082019050919050565b60006020820190508181036000830152612ec281612e86565b9050919050565b7f43616e6e6f742072656d6f76652073656c662066726f6d20626c61636b6c697360008201527f7400000000000000000000000000000000000000000000000000000000000000602082015250565b6000612f2560218361287a565b9150612f3082612ec9565b604082019050919050565b60006020820190508181036000830152612f5481612f18565b9050919050565b7f5461782070657263656e746167652063616e6e6f742065786365656420313030600082015250565b6000612f9160208361287a565b9150612f9c82612f5b565b602082019050919050565b60006020820190508181036000830152612fc081612f84565b9050919050565b7f4e487b7100000000000000000000000000000000000000000000000000000000600052601160045260246000fd5b600061300182612989565b915061300c83612989565b925082820190508082111561302457613023612fc7565b5b92915050565b600061303582612989565b915061304083612989565b925082820261304e81612989565b9150828204841483151761306557613064612fc7565b5b5092915050565b7f4e487b7100000000000000000000000000000000000000000000000000000000600052601260045260246000fd5b60006130a682612989565b91506130b183612989565b9250826130c1576130c061306c565b5b828204905092915050565b7f54686520706169722063616e6e6f742062652072656d6f7665642066726f6d2060008201527f6175746f6d617465644d61726b65744d616b6572506169727300000000000000602082015250565b600061312860398361287a565b9150613133826130cc565b604082019050919050565b600060208201905081810360008301526131578161311b565b9050919050565b7f4e487b7100000000000000000000000000000000000000000000000000000000600052603260045260246000fd5b7f45524332303a207472616e7366657220746f20746865207a65726f206164647260008201527f6573730000000000000000000000000000000000000000000000000000000000602082015250565b60006131e960238361287a565b91506131f48261318d565b604082019050919050565b60006020820190508181036000830152613218816131dc565b9050919050565b7f4f776e61626c653a206e6577206f776e657220697320746865207a65726f206160008201527f6464726573730000000000000000000000000000000000000000000000000000602082015250565b600061327b60268361287a565b91506132868261321f565b604082019050919050565b600060208201905081810360008301526132aa8161326e565b9050919050565b7f45524332303a20617070726f76652066726f6d20746865207a65726f2061646460008201527f7265737300000000000000000000000000000000000000000000000000000000602082015250565b600061330d60248361287a565b9150613318826132b1565b604082019050919050565b6000602082019050818103600083015261333c81613300565b9050919050565b7f45524332303a20617070726f766520746f20746865207a65726f20616464726560008201527f7373000000000000000000000000000000000000000000000000000000000000602082015250565b600061339f60228361287a565b91506133aa82613343565b604082019050919050565b600060208201905081810360008301526133ce81613392565b9050919050565b7f4f776e61626c653a2063616c6c6572206973206e6f7420746865206f776e6572600082015250565b600061340b60208361287a565b9150613416826133d5565b602082019050919050565b6000602082019050818103600083015261343a816133fe565b9050919050565b7f45524332303a20696e73756666696369656e7420616c6c6f77616e6365000000600082015250565b6000613477601d8361287a565b915061348282613441565b602082019050919050565b600060208201905081810360008301526134a68161346a565b9050919050565b7f45524332303a207472616e736665722066726f6d20746865207a65726f20616460008201527f6472657373000000000000000000000000000000000000000000000000000000602082015250565b600061350960258361287a565b9150613514826134ad565b604082019050919050565b60006020820190508181036000830152613538816134fc565b9050919050565b7f5472616e7366657220616d6f756e74206d75737420626520677265617465722060008201527f7468616e207a65726f0000000000000000000000000000000000000000000000602082015250565b600061359b60298361287a565b91506135a68261353f565b604082019050919050565b600060208201905081810360008301526135ca8161358e565b9050919050565b7f53656e64657220697320626c61636b6c69737465640000000000000000000000600082015250565b600061360760158361287a565b9150613612826135d1565b602082019050919050565b60006020820190508181036000830152613636816135fa565b9050919050565b7f526563697069656e7420697320626c61636b6c69737465640000000000000000600082015250565b600061367360188361287a565b915061367e8261363d565b602082019050919050565b600060208201905081810360008301526136a281613666565b9050919050565b7f54726164696e6720697320706175736564000000000000000000000000000000600082015250565b60006136df60118361287a565b91506136ea826136a9565b602082019050919050565b6000602082019050818103600083015261370e816136d2565b9050919050565b600061372082612989565b915061372b83612989565b925082820390508181111561374357613742612fc7565b5b92915050565b7f45524332303a207472616e7366657220616d6f756e742065786365656473206260008201527f616c616e63650000000000000000000000000000000000000000000000000000602082015250565b60006137a560268361287a565b91506137b082613749565b604082019050919050565b600060208201905081810360008301526137d481613798565b9050919050565b600081905092915050565b50565b60006137f66000836137db565b9150613801826137e6565b600082019050919050565b6000613817826137e9565b9150819050919050565b7f4e487b7100000000000000000000000000000000000000000000000000000000600052604160045260246000fd5b60008151905061385f8161295d565b92915050565b60006020828403121561387b5761387a612921565b5b600061388984828501613850565b91505092915050565b6000819050919050565b60006138b76138b26138ad84613892565b612a35565b612989565b9050919050565b6138c78161389c565b82525050565b600081519050919050565b600082825260208201905092915050565b6000819050602082019050919050565b6139028161294b565b82525050565b600061391483836138f9565b60208301905092915050565b6000602082019050919050565b6000613938826138cd565b61394281856138d8565b935061394d836138e9565b8060005b8381101561397e5781516139658882613908565b975061397083613920565b925050600181019050613951565b5085935050505092915050565b600060a0820190506139a06000830188612aaf565b6139ad60208301876138be565b81810360408301526139bf818661392d565b90506139ce6060830185612bbd565b6139db6080830184612aaf565b9695505050505050565b600060c0820190506139fa6000830189612bbd565b613a076020830188612aaf565b613a1460408301876138be565b613a2160608301866138be565b613a2e6080830185612bbd565b613a3b60a0830184612aaf565b979650505050505050565b600081519050613a5581612993565b92915050565b600080600060608486031215613a7457613a73612921565b5b6000613a8286828701613a46565b9350506020613a9386828701613a46565b9250506040613aa486828701613a46565b915050925092509256fea264697066735822122052167a1b4dddf6d1a0ef0590aca982a51e128ace76c8c2790fa8dd07a23dc6a464736f6c63430008130033",
			"opcodes": "PUSH1 0x80 PUSH1 0x40 MSTORE PUSH1 0x12 PUSH1 0xFF AND PUSH1 0xA PUSH3 0x17 SWAP2 SWAP1 PUSH3 0x9F0 JUMP JUMPDEST PUSH5 0x61C9F36800 PUSH3 0x29 SWAP2 SWAP1 PUSH3 0xA41 JUMP JUMPDEST PUSH1 0x1 SSTORE PUSH2 0x7D0 PUSH1 0x8 SSTORE PUSH2 0xBB8 PUSH1 0x9 SSTORE PUSH2 0x3E8 PUSH1 0xA SSTORE PUSH1 0x12 PUSH1 0xFF AND PUSH1 0xA PUSH3 0x51 SWAP2 SWAP1 PUSH3 0x9F0 JUMP JUMPDEST PUSH3 0x186A0 PUSH3 0x61 SWAP2 SWAP1 PUSH3 0xA41 JUMP JUMPDEST PUSH1 0xB SSTORE PUSH2 0x8235 PUSH1 0xC SSTORE PUSH2 0xC350 PUSH1 0xD SSTORE PUSH2 0x411A PUSH1 0xE SSTORE PUSH1 0x1 PUSH1 0x10 PUSH1 0x16 PUSH2 0x100 EXP DUP2 SLOAD DUP2 PUSH1 0xFF MUL NOT AND SWAP1 DUP4 ISZERO ISZERO MUL OR SWAP1 SSTORE POP CALLVALUE DUP1 ISZERO PUSH3 0x9E JUMPI PUSH1 0x0 DUP1 REVERT JUMPDEST POP PUSH1 0x40 MLOAD PUSH3 0x47C9 CODESIZE SUB DUP1 PUSH3 0x47C9 DUP4 CODECOPY DUP2 DUP2 ADD PUSH1 0x40 MSTORE DUP2 ADD SWAP1 PUSH3 0xC4 SWAP2 SWAP1 PUSH3 0xAF6 JUMP JUMPDEST PUSH3 0xE4 PUSH3 0xD8 PUSH3 0x56B PUSH1 0x20 SHL PUSH1 0x20 SHR JUMP JUMPDEST PUSH3 0x573 PUSH1 0x20 SHL PUSH1 0x20 SHR JUMP JUMPDEST PUSH1 0x1 SLOAD PUSH1 0x2 PUSH1 0x0 CALLER PUSH20 0xFFFFFFFFFFFFFFFFFFFFFFFFFFFFFFFFFFFFFFFF AND PUSH20 0xFFFFFFFFFFFFFFFFFFFFFFFFFFFFFFFFFFFFFFFF AND DUP2 MSTORE PUSH1 0x20 ADD SWAP1 DUP2 MSTORE PUSH1 0x20 ADD PUSH1 0x0 KECCAK256 DUP2 SWAP1 SSTORE POP PUSH1 0x0 PUSH20 0xD99D1C33F9FC3444F8101754ABC46C52416550D1 SWAP1 POP DUP1 PUSH1 0xF PUSH1 0x0 PUSH2 0x100 EXP DUP2 SLOAD DUP2 PUSH20 0xFFFFFFFFFFFFFFFFFFFFFFFFFFFFFFFFFFFFFFFF MUL NOT AND SWAP1 DUP4 PUSH20 0xFFFFFFFFFFFFFFFFFFFFFFFFFFFFFFFFFFFFFFFF AND MUL OR SWAP1 SSTORE POP DUP1 PUSH20 0xFFFFFFFFFFFFFFFFFFFFFFFFFFFFFFFFFFFFFFFF AND PUSH4 0xC45A0155 PUSH1 0x40 MLOAD DUP2 PUSH4 0xFFFFFFFF AND PUSH1 0xE0 SHL DUP2 MSTORE PUSH1 0x4 ADD PUSH1 0x20 PUSH1 0x40 MLOAD DUP1 DUP4 SUB DUP2 DUP7 GAS STATICCALL ISZERO DUP1 ISZERO PUSH3 0x1D0 JUMPI RETURNDATASIZE PUSH1 0x0 DUP1 RETURNDATACOPY RETURNDATASIZE PUSH1 0x0 REVERT JUMPDEST POP POP POP POP PUSH1 0x40 MLOAD RETURNDATASIZE PUSH1 0x1F NOT PUSH1 0x1F DUP3 ADD AND DUP3 ADD DUP1 PUSH1 0x40 MSTORE POP DUP2 ADD SWAP1 PUSH3 0x1F6 SWAP2 SWAP1 PUSH3 0xAF6 JUMP JUMPDEST PUSH20 0xFFFFFFFFFFFFFFFFFFFFFFFFFFFFFFFFFFFFFFFF AND PUSH4 0xC9C65396 ADDRESS DUP4 PUSH20 0xFFFFFFFFFFFFFFFFFFFFFFFFFFFFFFFFFFFFFFFF AND PUSH4 0xAD5C4648 PUSH1 0x40 MLOAD DUP2 PUSH4 0xFFFFFFFF AND PUSH1 0xE0 SHL DUP2 MSTORE PUSH1 0x4 ADD PUSH1 0x20 PUSH1 0x40 MLOAD DUP1 DUP4 SUB DUP2 DUP7 GAS STATICCALL ISZERO DUP1 ISZERO PUSH3 0x25E JUMPI RETURNDATASIZE PUSH1 0x0 DUP1 RETURNDATACOPY RETURNDATASIZE PUSH1 0x0 REVERT JUMPDEST POP POP POP POP PUSH1 0x40 MLOAD RETURNDATASIZE PUSH1 0x1F NOT PUSH1 0x1F DUP3 ADD AND DUP3 ADD DUP1 PUSH1 0x40 MSTORE POP DUP2 ADD SWAP1 PUSH3 0x284 SWAP2 SWAP1 PUSH3 0xAF6 JUMP JUMPDEST PUSH1 0x40 MLOAD DUP4 PUSH4 0xFFFFFFFF AND PUSH1 0xE0 SHL DUP2 MSTORE PUSH1 0x4 ADD PUSH3 0x2A3 SWAP3 SWAP2 SWAP1 PUSH3 0xB39 JUMP JUMPDEST PUSH1 0x20 PUSH1 0x40 MLOAD DUP1 DUP4 SUB DUP2 PUSH1 0x0 DUP8 GAS CALL ISZERO DUP1 ISZERO PUSH3 0x2C3 JUMPI RETURNDATASIZE PUSH1 0x0 DUP1 RETURNDATACOPY RETURNDATASIZE PUSH1 0x0 REVERT JUMPDEST POP POP POP POP PUSH1 0x40 MLOAD RETURNDATASIZE PUSH1 0x1F NOT PUSH1 0x1F DUP3 ADD AND DUP3 ADD DUP1 PUSH1 0x40 MSTORE POP DUP2 ADD SWAP1 PUSH3 0x2E9 SWAP2 SWAP1 PUSH3 0xAF6 JUMP JUMPDEST PUSH1 0x10 PUSH1 0x0 PUSH2 0x100 EXP DUP2 SLOAD DUP2 PUSH20 0xFFFFFFFFFFFFFFFFFFFFFFFFFFFFFFFFFFFFFFFF MUL NOT AND SWAP1 DUP4 PUSH20 0xFFFFFFFFFFFFFFFFFFFFFFFFFFFFFFFFFFFFFFFF AND MUL OR SWAP1 SSTORE POP PUSH3 0x37E CALLER PUSH1 0xF PUSH1 0x0 SWAP1 SLOAD SWAP1 PUSH2 0x100 EXP SWAP1 DIV PUSH20 0xFFFFFFFFFFFFFFFFFFFFFFFFFFFFFFFFFFFFFFFF AND PUSH32 0xFFFFFFFFFFFFFFFFFFFFFFFFFFFFFFFFFFFFFFFFFFFFFFFFFFFFFFFFFFFFFFFF PUSH3 0x637 PUSH1 0x20 SHL PUSH1 0x20 SHR JUMP JUMPDEST PUSH3 0x3D3 ADDRESS PUSH1 0xF PUSH1 0x0 SWAP1 SLOAD SWAP1 PUSH2 0x100 EXP SWAP1 DIV PUSH20 0xFFFFFFFFFFFFFFFFFFFFFFFFFFFFFFFFFFFFFFFF AND PUSH32 0xFFFFFFFFFFFFFFFFFFFFFFFFFFFFFFFFFFFFFFFFFFFFFFFFFFFFFFFFFFFFFFFF PUSH3 0x637 PUSH1 0x20 SHL PUSH1 0x20 SHR JUMP JUMPDEST PUSH3 0x408 PUSH1 0x10 PUSH1 0x0 SWAP1 SLOAD SWAP1 PUSH2 0x100 EXP SWAP1 DIV PUSH20 0xFFFFFFFFFFFFFFFFFFFFFFFFFFFFFFFFFFFFFFFF AND PUSH1 0x1 PUSH3 0x808 PUSH1 0x20 SHL PUSH1 0x20 SHR JUMP JUMPDEST DUP2 PUSH1 0x7 PUSH1 0x0 PUSH2 0x100 EXP DUP2 SLOAD DUP2 PUSH20 0xFFFFFFFFFFFFFFFFFFFFFFFFFFFFFFFFFFFFFFFF MUL NOT AND SWAP1 DUP4 PUSH20 0xFFFFFFFFFFFFFFFFFFFFFFFFFFFFFFFFFFFFFFFF AND MUL OR SWAP1 SSTORE POP PUSH1 0x1 PUSH1 0x5 PUSH1 0x0 ADDRESS PUSH20 0xFFFFFFFFFFFFFFFFFFFFFFFFFFFFFFFFFFFFFFFF AND PUSH20 0xFFFFFFFFFFFFFFFFFFFFFFFFFFFFFFFFFFFFFFFF AND DUP2 MSTORE PUSH1 0x20 ADD SWAP1 DUP2 MSTORE PUSH1 0x20 ADD PUSH1 0x0 KECCAK256 PUSH1 0x0 PUSH2 0x100 EXP DUP2 SLOAD DUP2 PUSH1 0xFF MUL NOT AND SWAP1 DUP4 ISZERO ISZERO MUL OR SWAP1 SSTORE POP PUSH1 0x1 PUSH1 0x5 PUSH1 0x0 CALLER PUSH20 0xFFFFFFFFFFFFFFFFFFFFFFFFFFFFFFFFFFFFFFFF AND PUSH20 0xFFFFFFFFFFFFFFFFFFFFFFFFFFFFFFFFFFFFFFFF AND DUP2 MSTORE PUSH1 0x20 ADD SWAP1 DUP2 MSTORE PUSH1 0x20 ADD PUSH1 0x0 KECCAK256 PUSH1 0x0 PUSH2 0x100 EXP DUP2 SLOAD DUP2 PUSH1 0xFF MUL NOT AND SWAP1 DUP4 ISZERO ISZERO MUL OR SWAP1 SSTORE POP CALLER PUSH20 0xFFFFFFFFFFFFFFFFFFFFFFFFFFFFFFFFFFFFFFFF AND PUSH1 0x0 PUSH20 0xFFFFFFFFFFFFFFFFFFFFFFFFFFFFFFFFFFFFFFFF AND PUSH32 0xDDF252AD1BE2C89B69C2B068FC378DAA952BA7F163C4A11628F55A4DF523B3EF PUSH1 0x1 SLOAD PUSH1 0x40 MLOAD PUSH3 0x55B SWAP2 SWAP1 PUSH3 0xB77 JUMP JUMPDEST PUSH1 0x40 MLOAD DUP1 SWAP2 SUB SWAP1 LOG3 POP POP PUSH3 0xCD5 JUMP JUMPDEST PUSH1 0x0 CALLER SWAP1 POP SWAP1 JUMP JUMPDEST PUSH1 0x0 DUP1 PUSH1 0x0 SWAP1 SLOAD SWAP1 PUSH2 0x100 EXP SWAP1 DIV PUSH20 0xFFFFFFFFFFFFFFFFFFFFFFFFFFFFFFFFFFFFFFFF AND SWAP1 POP DUP2 PUSH1 0x0 DUP1 PUSH2 0x100 EXP DUP2 SLOAD DUP2 PUSH20 0xFFFFFFFFFFFFFFFFFFFFFFFFFFFFFFFFFFFFFFFF MUL NOT AND SWAP1 DUP4 PUSH20 0xFFFFFFFFFFFFFFFFFFFFFFFFFFFFFFFFFFFFFFFF AND MUL OR SWAP1 SSTORE POP DUP2 PUSH20 0xFFFFFFFFFFFFFFFFFFFFFFFFFFFFFFFFFFFFFFFF AND DUP2 PUSH20 0xFFFFFFFFFFFFFFFFFFFFFFFFFFFFFFFFFFFFFFFF AND PUSH32 0x8BE0079C531659141344CD1FD0A4F28419497F9722A3DAAFE3B4186F6B6457E0 PUSH1 0x40 MLOAD PUSH1 0x40 MLOAD DUP1 SWAP2 SUB SWAP1 LOG3 POP POP JUMP JUMPDEST PUSH1 0x0 PUSH20 0xFFFFFFFFFFFFFFFFFFFFFFFFFFFFFFFFFFFFFFFF AND DUP4 PUSH20 0xFFFFFFFFFFFFFFFFFFFFFFFFFFFFFFFFFFFFFFFF AND SUB PUSH3 0x6A9 JUMPI PUSH1 0x40 MLOAD PUSH32 0x8C379A000000000000000000000000000000000000000000000000000000000 DUP2 MSTORE PUSH1 0x4 ADD PUSH3 0x6A0 SWAP1 PUSH3 0xC1B JUMP JUMPDEST PUSH1 0x40 MLOAD DUP1 SWAP2 SUB SWAP1 REVERT JUMPDEST PUSH1 0x0 PUSH20 0xFFFFFFFFFFFFFFFFFFFFFFFFFFFFFFFFFFFFFFFF AND DUP3 PUSH20 0xFFFFFFFFFFFFFFFFFFFFFFFFFFFFFFFFFFFFFFFF AND SUB PUSH3 0x71B JUMPI PUSH1 0x40 MLOAD PUSH32 0x8C379A000000000000000000000000000000000000000000000000000000000 DUP2 MSTORE PUSH1 0x4 ADD PUSH3 0x712 SWAP1 PUSH3 0xCB3 JUMP JUMPDEST PUSH1 0x40 MLOAD DUP1 SWAP2 SUB SWAP1 REVERT JUMPDEST DUP1 PUSH1 0x3 PUSH1 0x0 DUP6 PUSH20 0xFFFFFFFFFFFFFFFFFFFFFFFFFFFFFFFFFFFFFFFF AND PUSH20 0xFFFFFFFFFFFFFFFFFFFFFFFFFFFFFFFFFFFFFFFF AND DUP2 MSTORE PUSH1 0x20 ADD SWAP1 DUP2 MSTORE PUSH1 0x20 ADD PUSH1 0x0 KECCAK256 PUSH1 0x0 DUP5 PUSH20 0xFFFFFFFFFFFFFFFFFFFFFFFFFFFFFFFFFFFFFFFF AND PUSH20 0xFFFFFFFFFFFFFFFFFFFFFFFFFFFFFFFFFFFFFFFF AND DUP2 MSTORE PUSH1 0x20 ADD SWAP1 DUP2 MSTORE PUSH1 0x20 ADD PUSH1 0x0 KECCAK256 DUP2 SWAP1 SSTORE POP DUP2 PUSH20 0xFFFFFFFFFFFFFFFFFFFFFFFFFFFFFFFFFFFFFFFF AND DUP4 PUSH20 0xFFFFFFFFFFFFFFFFFFFFFFFFFFFFFFFFFFFFFFFF AND PUSH32 0x8C5BE1E5EBEC7D5BD14F71427D1E84F3DD0314C0F7B2291E5B200AC8C7C3B925 DUP4 PUSH1 0x40 MLOAD PUSH3 0x7FB SWAP2 SWAP1 PUSH3 0xB77 JUMP JUMPDEST PUSH1 0x40 MLOAD DUP1 SWAP2 SUB SWAP1 LOG3 POP POP POP JUMP JUMPDEST DUP1 PUSH1 0x6 PUSH1 0x0 DUP5 PUSH20 0xFFFFFFFFFFFFFFFFFFFFFFFFFFFFFFFFFFFFFFFF AND PUSH20 0xFFFFFFFFFFFFFFFFFFFFFFFFFFFFFFFFFFFFFFFF AND DUP2 MSTORE PUSH1 0x20 ADD SWAP1 DUP2 MSTORE PUSH1 0x20 ADD PUSH1 0x0 KECCAK256 PUSH1 0x0 PUSH2 0x100 EXP DUP2 SLOAD DUP2 PUSH1 0xFF MUL NOT AND SWAP1 DUP4 ISZERO ISZERO MUL OR SWAP1 SSTORE POP POP POP JUMP JUMPDEST PUSH32 0x4E487B7100000000000000000000000000000000000000000000000000000000 PUSH1 0x0 MSTORE PUSH1 0x11 PUSH1 0x4 MSTORE PUSH1 0x24 PUSH1 0x0 REVERT JUMPDEST PUSH1 0x0 DUP2 PUSH1 0x1 SHR SWAP1 POP SWAP2 SWAP1 POP JUMP JUMPDEST PUSH1 0x0 DUP1 DUP3 SWAP2 POP DUP4 SWAP1 POP JUMPDEST PUSH1 0x1 DUP6 GT ISZERO PUSH3 0x8F1 JUMPI DUP1 DUP7 DIV DUP2 GT ISZERO PUSH3 0x8C9 JUMPI PUSH3 0x8C8 PUSH3 0x863 JUMP JUMPDEST JUMPDEST PUSH1 0x1 DUP6 AND ISZERO PUSH3 0x8D9 JUMPI DUP1 DUP3 MUL SWAP2 POP JUMPDEST DUP1 DUP2 MUL SWAP1 POP PUSH3 0x8E9 DUP6 PUSH3 0x892 JUMP JUMPDEST SWAP5 POP PUSH3 0x8A9 JUMP JUMPDEST SWAP5 POP SWAP5 SWAP3 POP POP POP JUMP JUMPDEST PUSH1 0x0 DUP3 PUSH3 0x90C JUMPI PUSH1 0x1 SWAP1 POP PUSH3 0x9DF JUMP JUMPDEST DUP2 PUSH3 0x91C JUMPI PUSH1 0x0 SWAP1 POP PUSH3 0x9DF JUMP JUMPDEST DUP2 PUSH1 0x1 DUP2 EQ PUSH3 0x935 JUMPI PUSH1 0x2 DUP2 EQ PUSH3 0x940 JUMPI PUSH3 0x976 JUMP JUMPDEST PUSH1 0x1 SWAP2 POP POP PUSH3 0x9DF JUMP JUMPDEST PUSH1 0xFF DUP5 GT ISZERO PUSH3 0x955 JUMPI PUSH3 0x954 PUSH3 0x863 JUMP JUMPDEST JUMPDEST DUP4 PUSH1 0x2 EXP SWAP2 POP DUP5 DUP3 GT ISZERO PUSH3 0x96F JUMPI PUSH3 0x96E PUSH3 0x863 JUMP JUMPDEST JUMPDEST POP PUSH3 0x9DF JUMP JUMPDEST POP PUSH1 0x20 DUP4 LT PUSH2 0x133 DUP4 LT AND PUSH1 0x4E DUP5 LT PUSH1 0xB DUP5 LT AND OR ISZERO PUSH3 0x9B0 JUMPI DUP3 DUP3 EXP SWAP1 POP DUP4 DUP2 GT ISZERO PUSH3 0x9AA JUMPI PUSH3 0x9A9 PUSH3 0x863 JUMP JUMPDEST JUMPDEST PUSH3 0x9DF JUMP JUMPDEST PUSH3 0x9BF DUP5 DUP5 DUP5 PUSH1 0x1 PUSH3 0x89F JUMP JUMPDEST SWAP3 POP SWAP1 POP DUP2 DUP5 DIV DUP2 GT ISZERO PUSH3 0x9D9 JUMPI PUSH3 0x9D8 PUSH3 0x863 JUMP JUMPDEST JUMPDEST DUP2 DUP2 MUL SWAP1 POP JUMPDEST SWAP4 SWAP3 POP POP POP JUMP JUMPDEST PUSH1 0x0 DUP2 SWAP1 POP SWAP2 SWAP1 POP JUMP JUMPDEST PUSH1 0x0 PUSH3 0x9FD DUP3 PUSH3 0x9E6 JUMP JUMPDEST SWAP2 POP PUSH3 0xA0A DUP4 PUSH3 0x9E6 JUMP JUMPDEST SWAP3 POP PUSH3 0xA39 PUSH32 0xFFFFFFFFFFFFFFFFFFFFFFFFFFFFFFFFFFFFFFFFFFFFFFFFFFFFFFFFFFFFFFFF DUP5 DUP5 PUSH3 0x8FA JUMP JUMPDEST SWAP1 POP SWAP3 SWAP2 POP POP JUMP JUMPDEST PUSH1 0x0 PUSH3 0xA4E DUP3 PUSH3 0x9E6 JUMP JUMPDEST SWAP2 POP PUSH3 0xA5B DUP4 PUSH3 0x9E6 JUMP JUMPDEST SWAP3 POP DUP3 DUP3 MUL PUSH3 0xA6B DUP2 PUSH3 0x9E6 JUMP JUMPDEST SWAP2 POP DUP3 DUP3 DIV DUP5 EQ DUP4 ISZERO OR PUSH3 0xA85 JUMPI PUSH3 0xA84 PUSH3 0x863 JUMP JUMPDEST JUMPDEST POP SWAP3 SWAP2 POP POP JUMP JUMPDEST PUSH1 0x0 DUP1 REVERT JUMPDEST PUSH1 0x0 PUSH20 0xFFFFFFFFFFFFFFFFFFFFFFFFFFFFFFFFFFFFFFFF DUP3 AND SWAP1 POP SWAP2 SWAP1 POP JUMP JUMPDEST PUSH1 0x0 PUSH3 0xABE DUP3 PUSH3 0xA91 JUMP JUMPDEST SWAP1 POP SWAP2 SWAP1 POP JUMP JUMPDEST PUSH3 0xAD0 DUP2 PUSH3 0xAB1 JUMP JUMPDEST DUP2 EQ PUSH3 0xADC JUMPI PUSH1 0x0 DUP1 REVERT JUMPDEST POP JUMP JUMPDEST PUSH1 0x0 DUP2 MLOAD SWAP1 POP PUSH3 0xAF0 DUP2 PUSH3 0xAC5 JUMP JUMPDEST SWAP3 SWAP2 POP POP JUMP JUMPDEST PUSH1 0x0 PUSH1 0x20 DUP3 DUP5 SUB SLT ISZERO PUSH3 0xB0F JUMPI PUSH3 0xB0E PUSH3 0xA8C JUMP JUMPDEST JUMPDEST PUSH1 0x0 PUSH3 0xB1F DUP5 DUP3 DUP6 ADD PUSH3 0xADF JUMP JUMPDEST SWAP2 POP POP SWAP3 SWAP2 POP POP JUMP JUMPDEST PUSH3 0xB33 DUP2 PUSH3 0xAB1 JUMP JUMPDEST DUP3 MSTORE POP POP JUMP JUMPDEST PUSH1 0x0 PUSH1 0x40 DUP3 ADD SWAP1 POP PUSH3 0xB50 PUSH1 0x0 DUP4 ADD DUP6 PUSH3 0xB28 JUMP JUMPDEST PUSH3 0xB5F PUSH1 0x20 DUP4 ADD DUP5 PUSH3 0xB28 JUMP JUMPDEST SWAP4 SWAP3 POP POP POP JUMP JUMPDEST PUSH3 0xB71 DUP2 PUSH3 0x9E6 JUMP JUMPDEST DUP3 MSTORE POP POP JUMP JUMPDEST PUSH1 0x0 PUSH1 0x20 DUP3 ADD SWAP1 POP PUSH3 0xB8E PUSH1 0x0 DUP4 ADD DUP5 PUSH3 0xB66 JUMP JUMPDEST SWAP3 SWAP2 POP POP JUMP JUMPDEST PUSH1 0x0 DUP3 DUP3 MSTORE PUSH1 0x20 DUP3 ADD SWAP1 POP SWAP3 SWAP2 POP POP JUMP JUMPDEST PUSH32 0x45524332303A20617070726F76652066726F6D20746865207A65726F20616464 PUSH1 0x0 DUP3 ADD MSTORE PUSH32 0x7265737300000000000000000000000000000000000000000000000000000000 PUSH1 0x20 DUP3 ADD MSTORE POP JUMP JUMPDEST PUSH1 0x0 PUSH3 0xC03 PUSH1 0x24 DUP4 PUSH3 0xB94 JUMP JUMPDEST SWAP2 POP PUSH3 0xC10 DUP3 PUSH3 0xBA5 JUMP JUMPDEST PUSH1 0x40 DUP3 ADD SWAP1 POP SWAP2 SWAP1 POP JUMP JUMPDEST PUSH1 0x0 PUSH1 0x20 DUP3 ADD SWAP1 POP DUP2 DUP2 SUB PUSH1 0x0 DUP4 ADD MSTORE PUSH3 0xC36 DUP2 PUSH3 0xBF4 JUMP JUMPDEST SWAP1 POP SWAP2 SWAP1 POP JUMP JUMPDEST PUSH32 0x45524332303A20617070726F766520746F20746865207A65726F206164647265 PUSH1 0x0 DUP3 ADD MSTORE PUSH32 0x7373000000000000000000000000000000000000000000000000000000000000 PUSH1 0x20 DUP3 ADD MSTORE POP JUMP JUMPDEST PUSH1 0x0 PUSH3 0xC9B PUSH1 0x22 DUP4 PUSH3 0xB94 JUMP JUMPDEST SWAP2 POP PUSH3 0xCA8 DUP3 PUSH3 0xC3D JUMP JUMPDEST PUSH1 0x40 DUP3 ADD SWAP1 POP SWAP2 SWAP1 POP JUMP JUMPDEST PUSH1 0x0 PUSH1 0x20 DUP3 ADD SWAP1 POP DUP2 DUP2 SUB PUSH1 0x0 DUP4 ADD MSTORE PUSH3 0xCCE DUP2 PUSH3 0xC8C JUMP JUMPDEST SWAP1 POP SWAP2 SWAP1 POP JUMP JUMPDEST PUSH2 0x3AE4 DUP1 PUSH3 0xCE5 PUSH1 0x0 CODECOPY PUSH1 0x0 RETURN INVALID PUSH1 0x80 PUSH1 0x40 MSTORE PUSH1 0x4 CALLDATASIZE LT PUSH2 0x255 JUMPI PUSH1 0x0 CALLDATALOAD PUSH1 0xE0 SHR DUP1 PUSH4 0x75F0A874 GT PUSH2 0x139 JUMPI DUP1 PUSH4 0xA9059CBB GT PUSH2 0xB6 JUMPI DUP1 PUSH4 0xC410AB5E GT PUSH2 0x7A JUMPI DUP1 PUSH4 0xC410AB5E EQ PUSH2 0x870 JUMPI DUP1 PUSH4 0xDD3A1F76 EQ PUSH2 0x89B JUMPI DUP1 PUSH4 0xDD62ED3E EQ PUSH2 0x8C6 JUMPI DUP1 PUSH4 0xF2FDE38B EQ PUSH2 0x903 JUMPI DUP1 PUSH4 0xF7E53337 EQ PUSH2 0x92C JUMPI DUP1 PUSH4 0xFE575A87 EQ PUSH2 0x957 JUMPI PUSH2 0x25C JUMP JUMPDEST DUP1 PUSH4 0xA9059CBB EQ PUSH2 0x777 JUMPI DUP1 PUSH4 0xAAA00B99 EQ PUSH2 0x7B4 JUMPI DUP1 PUSH4 0xB187BD26 EQ PUSH2 0x7DF JUMPI DUP1 PUSH4 0xB62496F5 EQ PUSH2 0x80A JUMPI DUP1 PUSH4 0xBA414B10 EQ PUSH2 0x847 JUMPI PUSH2 0x25C JUMP JUMPDEST DUP1 PUSH4 0x95D89B41 GT PUSH2 0xFD JUMPI DUP1 PUSH4 0x95D89B41 EQ PUSH2 0x6A6 JUMPI DUP1 PUSH4 0x9A7A23D6 EQ PUSH2 0x6D1 JUMPI DUP1 PUSH4 0x9EC4BE41 EQ PUSH2 0x6FA JUMPI DUP1 PUSH4 0xA562564A EQ PUSH2 0x723 JUMPI DUP1 PUSH4 0xA56D37F9 EQ PUSH2 0x74E JUMPI PUSH2 0x25C JUMP JUMPDEST DUP1 PUSH4 0x75F0A874 EQ PUSH2 0x5E5 JUMPI DUP1 PUSH4 0x77C068EC EQ PUSH2 0x610 JUMPI DUP1 PUSH4 0x8456CB59 EQ PUSH2 0x63B JUMPI DUP1 PUSH4 0x8DA5CB5B EQ PUSH2 0x652 JUMPI DUP1 PUSH4 0x924DE9B7 EQ PUSH2 0x67D JUMPI PUSH2 0x25C JUMP JUMPDEST DUP1 PUSH4 0x4BAF59F3 GT PUSH2 0x1D2 JUMPI DUP1 PUSH4 0x5D098B38 GT PUSH2 0x196 JUMPI DUP1 PUSH4 0x5D098B38 EQ PUSH2 0x4EB JUMPI DUP1 PUSH4 0x6612E66F EQ PUSH2 0x514 JUMPI DUP1 PUSH4 0x6DBFF43B EQ PUSH2 0x53D JUMPI DUP1 PUSH4 0x6DDD1713 EQ PUSH2 0x566 JUMPI DUP1 PUSH4 0x70A08231 EQ PUSH2 0x591 JUMPI DUP1 PUSH4 0x715018A6 EQ PUSH2 0x5CE JUMPI PUSH2 0x25C JUMP JUMPDEST DUP1 PUSH4 0x4BAF59F3 EQ PUSH2 0x406 JUMPI DUP1 PUSH4 0x4BF28FD0 EQ PUSH2 0x42F JUMPI DUP1 PUSH4 0x5342ACB4 EQ PUSH2 0x45A JUMPI DUP1 PUSH4 0x537DF3B6 EQ PUSH2 0x497 JUMPI DUP1 PUSH4 0x549FB8BF EQ PUSH2 0x4C0 JUMPI PUSH2 0x25C JUMP JUMPDEST DUP1 PUSH4 0x20800A00 GT PUSH2 0x219 JUMPI DUP1 PUSH4 0x20800A00 EQ PUSH2 0x347 JUMPI DUP1 PUSH4 0x23B872DD EQ PUSH2 0x35E JUMPI DUP1 PUSH4 0x313CE567 EQ PUSH2 0x39B JUMPI DUP1 PUSH4 0x3F4BA83A EQ PUSH2 0x3C6 JUMPI DUP1 PUSH4 0x44337EA1 EQ PUSH2 0x3DD JUMPI PUSH2 0x25C JUMP JUMPDEST DUP1 PUSH4 0x6FDDE03 EQ PUSH2 0x25E JUMPI DUP1 PUSH4 0x95EA7B3 EQ PUSH2 0x289 JUMPI DUP1 PUSH4 0x1694505E EQ PUSH2 0x2C6 JUMPI DUP1 PUSH4 0x16C61CCC EQ PUSH2 0x2F1 JUMPI DUP1 PUSH4 0x18160DDD EQ PUSH2 0x31C JUMPI PUSH2 0x25C JUMP JUMPDEST CALLDATASIZE PUSH2 0x25C JUMPI STOP JUMPDEST STOP JUMPDEST CALLVALUE DUP1 ISZERO PUSH2 0x26A JUMPI PUSH1 0x0 DUP1 REVERT JUMPDEST POP PUSH2 0x273 PUSH2 0x994 JUMP JUMPDEST PUSH1 0x40 MLOAD PUSH2 0x280 SWAP2 SWAP1 PUSH2 0x28FF JUMP JUMPDEST PUSH1 0x40 MLOAD DUP1 SWAP2 SUB SWAP1 RETURN JUMPDEST CALLVALUE DUP1 ISZERO PUSH2 0x295 JUMPI PUSH1 0x0 DUP1 REVERT JUMPDEST POP PUSH2 0x2B0 PUSH1 0x4 DUP1 CALLDATASIZE SUB DUP2 ADD SWAP1 PUSH2 0x2AB SWAP2 SWAP1 PUSH2 0x29BF JUMP JUMPDEST PUSH2 0x9D1 JUMP JUMPDEST PUSH1 0x40 MLOAD PUSH2 0x2BD SWAP2 SWAP1 PUSH2 0x2A1A JUMP JUMPDEST PUSH1 0x40 MLOAD DUP1 SWAP2 SUB SWAP1 RETURN JUMPDEST CALLVALUE DUP1 ISZERO PUSH2 0x2D2 JUMPI PUSH1 0x0 DUP1 REVERT JUMPDEST POP PUSH2 0x2DB PUSH2 0x9E8 JUMP JUMPDEST PUSH1 0x40 MLOAD PUSH2 0x2E8 SWAP2 SWAP1 PUSH2 0x2A94 JUMP JUMPDEST PUSH1 0x40 MLOAD DUP1 SWAP2 SUB SWAP1 RETURN JUMPDEST CALLVALUE DUP1 ISZERO PUSH2 0x2FD JUMPI PUSH1 0x0 DUP1 REVERT JUMPDEST POP PUSH2 0x306 PUSH2 0xA0E JUMP JUMPDEST PUSH1 0x40 MLOAD PUSH2 0x313 SWAP2 SWAP1 PUSH2 0x2A1A JUMP JUMPDEST PUSH1 0x40 MLOAD DUP1 SWAP2 SUB SWAP1 RETURN JUMPDEST CALLVALUE DUP1 ISZERO PUSH2 0x328 JUMPI PUSH1 0x0 DUP1 REVERT JUMPDEST POP PUSH2 0x331 PUSH2 0xA21 JUMP JUMPDEST PUSH1 0x40 MLOAD PUSH2 0x33E SWAP2 SWAP1 PUSH2 0x2ABE JUMP JUMPDEST PUSH1 0x40 MLOAD DUP1 SWAP2 SUB SWAP1 RETURN JUMPDEST CALLVALUE DUP1 ISZERO PUSH2 0x353 JUMPI PUSH1 0x0 DUP1 REVERT JUMPDEST POP PUSH2 0x35C PUSH2 0xA2B JUMP JUMPDEST STOP JUMPDEST CALLVALUE DUP1 ISZERO PUSH2 0x36A JUMPI PUSH1 0x0 DUP1 REVERT JUMPDEST POP PUSH2 0x385 PUSH1 0x4 DUP1 CALLDATASIZE SUB DUP2 ADD SWAP1 PUSH2 0x380 SWAP2 SWAP1 PUSH2 0x2AD9 JUMP JUMPDEST PUSH2 0xA7C JUMP JUMPDEST PUSH1 0x40 MLOAD PUSH2 0x392 SWAP2 SWAP1 PUSH2 0x2A1A JUMP JUMPDEST PUSH1 0x40 MLOAD DUP1 SWAP2 SUB SWAP1 RETURN JUMPDEST CALLVALUE DUP1 ISZERO PUSH2 0x3A7 JUMPI PUSH1 0x0 DUP1 REVERT JUMPDEST POP PUSH2 0x3B0 PUSH2 0xAA4 JUMP JUMPDEST PUSH1 0x40 MLOAD PUSH2 0x3BD SWAP2 SWAP1 PUSH2 0x2B48 JUMP JUMPDEST PUSH1 0x40 MLOAD DUP1 SWAP2 SUB SWAP1 RETURN JUMPDEST CALLVALUE DUP1 ISZERO PUSH2 0x3D2 JUMPI PUSH1 0x0 DUP1 REVERT JUMPDEST POP PUSH2 0x3DB PUSH2 0xAAD JUMP JUMPDEST STOP JUMPDEST CALLVALUE DUP1 ISZERO PUSH2 0x3E9 JUMPI PUSH1 0x0 DUP1 REVERT JUMPDEST POP PUSH2 0x404 PUSH1 0x4 DUP1 CALLDATASIZE SUB DUP2 ADD SWAP1 PUSH2 0x3FF SWAP2 SWAP1 PUSH2 0x2B63 JUMP JUMPDEST PUSH2 0xAD2 JUMP JUMPDEST STOP JUMPDEST CALLVALUE DUP1 ISZERO PUSH2 0x412 JUMPI PUSH1 0x0 DUP1 REVERT JUMPDEST POP PUSH2 0x42D PUSH1 0x4 DUP1 CALLDATASIZE SUB DUP2 ADD SWAP1 PUSH2 0x428 SWAP2 SWAP1 PUSH2 0x2B90 JUMP JUMPDEST PUSH2 0xC37 JUMP JUMPDEST STOP JUMPDEST CALLVALUE DUP1 ISZERO PUSH2 0x43B JUMPI PUSH1 0x0 DUP1 REVERT JUMPDEST POP PUSH2 0x444 PUSH2 0xC49 JUMP JUMPDEST PUSH1 0x40 MLOAD PUSH2 0x451 SWAP2 SWAP1 PUSH2 0x2BCC JUMP JUMPDEST PUSH1 0x40 MLOAD DUP1 SWAP2 SUB SWAP1 RETURN JUMPDEST CALLVALUE DUP1 ISZERO PUSH2 0x466 JUMPI PUSH1 0x0 DUP1 REVERT JUMPDEST POP PUSH2 0x481 PUSH1 0x4 DUP1 CALLDATASIZE SUB DUP2 ADD SWAP1 PUSH2 0x47C SWAP2 SWAP1 PUSH2 0x2B63 JUMP JUMPDEST PUSH2 0xC6F JUMP JUMPDEST PUSH1 0x40 MLOAD PUSH2 0x48E SWAP2 SWAP1 PUSH2 0x2A1A JUMP JUMPDEST PUSH1 0x40 MLOAD DUP1 SWAP2 SUB SWAP1 RETURN JUMPDEST CALLVALUE DUP1 ISZERO PUSH2 0x4A3 JUMPI PUSH1 0x0 DUP1 REVERT JUMPDEST POP PUSH2 0x4BE PUSH1 0x4 DUP1 CALLDATASIZE SUB DUP2 ADD SWAP1 PUSH2 0x4B9 SWAP2 SWAP1 PUSH2 0x2B63 JUMP JUMPDEST PUSH2 0xCC5 JUMP JUMPDEST STOP JUMPDEST CALLVALUE DUP1 ISZERO PUSH2 0x4CC JUMPI PUSH1 0x0 DUP1 REVERT JUMPDEST POP PUSH2 0x4D5 PUSH2 0xE29 JUMP JUMPDEST PUSH1 0x40 MLOAD PUSH2 0x4E2 SWAP2 SWAP1 PUSH2 0x2ABE JUMP JUMPDEST PUSH1 0x40 MLOAD DUP1 SWAP2 SUB SWAP1 RETURN JUMPDEST CALLVALUE DUP1 ISZERO PUSH2 0x4F7 JUMPI PUSH1 0x0 DUP1 REVERT JUMPDEST POP PUSH2 0x512 PUSH1 0x4 DUP1 CALLDATASIZE SUB DUP2 ADD SWAP1 PUSH2 0x50D SWAP2 SWAP1 PUSH2 0x2B63 JUMP JUMPDEST PUSH2 0xE2F JUMP JUMPDEST STOP JUMPDEST CALLVALUE DUP1 ISZERO PUSH2 0x520 JUMPI PUSH1 0x0 DUP1 REVERT JUMPDEST POP PUSH2 0x53B PUSH1 0x4 DUP1 CALLDATASIZE SUB DUP2 ADD SWAP1 PUSH2 0x536 SWAP2 SWAP1 PUSH2 0x2C13 JUMP JUMPDEST PUSH2 0xE7B JUMP JUMPDEST STOP JUMPDEST CALLVALUE DUP1 ISZERO PUSH2 0x549 JUMPI PUSH1 0x0 DUP1 REVERT JUMPDEST POP PUSH2 0x564 PUSH1 0x4 DUP1 CALLDATASIZE SUB DUP2 ADD SWAP1 PUSH2 0x55F SWAP2 SWAP1 PUSH2 0x2B90 JUMP JUMPDEST PUSH2 0xEDE JUMP JUMPDEST STOP JUMPDEST CALLVALUE DUP1 ISZERO PUSH2 0x572 JUMPI PUSH1 0x0 DUP1 REVERT JUMPDEST POP PUSH2 0x57B PUSH2 0xFBE JUMP JUMPDEST PUSH1 0x40 MLOAD PUSH2 0x588 SWAP2 SWAP1 PUSH2 0x2A1A JUMP JUMPDEST PUSH1 0x40 MLOAD DUP1 SWAP2 SUB SWAP1 RETURN JUMPDEST CALLVALUE DUP1 ISZERO PUSH2 0x59D JUMPI PUSH1 0x0 DUP1 REVERT JUMPDEST POP PUSH2 0x5B8 PUSH1 0x4 DUP1 CALLDATASIZE SUB DUP2 ADD SWAP1 PUSH2 0x5B3 SWAP2 SWAP1 PUSH2 0x2B63 JUMP JUMPDEST PUSH2 0xFD1 JUMP JUMPDEST PUSH1 0x40 MLOAD PUSH2 0x5C5 SWAP2 SWAP1 PUSH2 0x2ABE JUMP JUMPDEST PUSH1 0x40 MLOAD DUP1 SWAP2 SUB SWAP1 RETURN JUMPDEST CALLVALUE DUP1 ISZERO PUSH2 0x5DA JUMPI PUSH1 0x0 DUP1 REVERT JUMPDEST POP PUSH2 0x5E3 PUSH2 0x101A JUMP JUMPDEST STOP JUMPDEST CALLVALUE DUP1 ISZERO PUSH2 0x5F1 JUMPI PUSH1 0x0 DUP1 REVERT JUMPDEST POP PUSH2 0x5FA PUSH2 0x102E JUMP JUMPDEST PUSH1 0x40 MLOAD PUSH2 0x607 SWAP2 SWAP1 PUSH2 0x2BCC JUMP JUMPDEST PUSH1 0x40 MLOAD DUP1 SWAP2 SUB SWAP1 RETURN JUMPDEST CALLVALUE DUP1 ISZERO PUSH2 0x61C JUMPI PUSH1 0x0 DUP1 REVERT JUMPDEST POP PUSH2 0x625 PUSH2 0x1054 JUMP JUMPDEST PUSH1 0x40 MLOAD PUSH2 0x632 SWAP2 SWAP1 PUSH2 0x2ABE JUMP JUMPDEST PUSH1 0x40 MLOAD DUP1 SWAP2 SUB SWAP1 RETURN JUMPDEST CALLVALUE DUP1 ISZERO PUSH2 0x647 JUMPI PUSH1 0x0 DUP1 REVERT JUMPDEST POP PUSH2 0x650 PUSH2 0x105A JUMP JUMPDEST STOP JUMPDEST CALLVALUE DUP1 ISZERO PUSH2 0x65E JUMPI PUSH1 0x0 DUP1 REVERT JUMPDEST POP PUSH2 0x667 PUSH2 0x107F JUMP JUMPDEST PUSH1 0x40 MLOAD PUSH2 0x674 SWAP2 SWAP1 PUSH2 0x2BCC JUMP JUMPDEST PUSH1 0x40 MLOAD DUP1 SWAP2 SUB SWAP1 RETURN JUMPDEST CALLVALUE DUP1 ISZERO PUSH2 0x689 JUMPI PUSH1 0x0 DUP1 REVERT JUMPDEST POP PUSH2 0x6A4 PUSH1 0x4 DUP1 CALLDATASIZE SUB DUP2 ADD SWAP1 PUSH2 0x69F SWAP2 SWAP1 PUSH2 0x2C53 JUMP JUMPDEST PUSH2 0x10A8 JUMP JUMPDEST STOP JUMPDEST CALLVALUE DUP1 ISZERO PUSH2 0x6B2 JUMPI PUSH1 0x0 DUP1 REVERT JUMPDEST POP PUSH2 0x6BB PUSH2 0x10CD JUMP JUMPDEST PUSH1 0x40 MLOAD PUSH2 0x6C8 SWAP2 SWAP1 PUSH2 0x28FF JUMP JUMPDEST PUSH1 0x40 MLOAD DUP1 SWAP2 SUB SWAP1 RETURN JUMPDEST CALLVALUE DUP1 ISZERO PUSH2 0x6DD JUMPI PUSH1 0x0 DUP1 REVERT JUMPDEST POP PUSH2 0x6F8 PUSH1 0x4 DUP1 CALLDATASIZE SUB DUP2 ADD SWAP1 PUSH2 0x6F3 SWAP2 SWAP1 PUSH2 0x2C13 JUMP JUMPDEST PUSH2 0x110A JUMP JUMPDEST STOP JUMPDEST CALLVALUE DUP1 ISZERO PUSH2 0x706 JUMPI PUSH1 0x0 DUP1 REVERT JUMPDEST POP PUSH2 0x721 PUSH1 0x4 DUP1 CALLDATASIZE SUB DUP2 ADD SWAP1 PUSH2 0x71C SWAP2 SWAP1 PUSH2 0x2B90 JUMP JUMPDEST PUSH2 0x11B0 JUMP JUMPDEST STOP JUMPDEST CALLVALUE DUP1 ISZERO PUSH2 0x72F JUMPI PUSH1 0x0 DUP1 REVERT JUMPDEST POP PUSH2 0x738 PUSH2 0x1290 JUMP JUMPDEST PUSH1 0x40 MLOAD PUSH2 0x745 SWAP2 SWAP1 PUSH2 0x2ABE JUMP JUMPDEST PUSH1 0x40 MLOAD DUP1 SWAP2 SUB SWAP1 RETURN JUMPDEST CALLVALUE DUP1 ISZERO PUSH2 0x75A JUMPI PUSH1 0x0 DUP1 REVERT JUMPDEST POP PUSH2 0x775 PUSH1 0x4 DUP1 CALLDATASIZE SUB DUP2 ADD SWAP1 PUSH2 0x770 SWAP2 SWAP1 PUSH2 0x2B90 JUMP JUMPDEST PUSH2 0x1296 JUMP JUMPDEST STOP JUMPDEST CALLVALUE DUP1 ISZERO PUSH2 0x783 JUMPI PUSH1 0x0 DUP1 REVERT JUMPDEST POP PUSH2 0x79E PUSH1 0x4 DUP1 CALLDATASIZE SUB DUP2 ADD SWAP1 PUSH2 0x799 SWAP2 SWAP1 PUSH2 0x29BF JUMP JUMPDEST PUSH2 0x1376 JUMP JUMPDEST PUSH1 0x40 MLOAD PUSH2 0x7AB SWAP2 SWAP1 PUSH2 0x2A1A JUMP JUMPDEST PUSH1 0x40 MLOAD DUP1 SWAP2 SUB SWAP1 RETURN JUMPDEST CALLVALUE DUP1 ISZERO PUSH2 0x7C0 JUMPI PUSH1 0x0 DUP1 REVERT JUMPDEST POP PUSH2 0x7C9 PUSH2 0x1392 JUMP JUMPDEST PUSH1 0x40 MLOAD PUSH2 0x7D6 SWAP2 SWAP1 PUSH2 0x2ABE JUMP JUMPDEST PUSH1 0x40 MLOAD DUP1 SWAP2 SUB SWAP1 RETURN JUMPDEST CALLVALUE DUP1 ISZERO PUSH2 0x7EB JUMPI PUSH1 0x0 DUP1 REVERT JUMPDEST POP PUSH2 0x7F4 PUSH2 0x1398 JUMP JUMPDEST PUSH1 0x40 MLOAD PUSH2 0x801 SWAP2 SWAP1 PUSH2 0x2A1A JUMP JUMPDEST PUSH1 0x40 MLOAD DUP1 SWAP2 SUB SWAP1 RETURN JUMPDEST CALLVALUE DUP1 ISZERO PUSH2 0x816 JUMPI PUSH1 0x0 DUP1 REVERT JUMPDEST POP PUSH2 0x831 PUSH1 0x4 DUP1 CALLDATASIZE SUB DUP2 ADD SWAP1 PUSH2 0x82C SWAP2 SWAP1 PUSH2 0x2B63 JUMP JUMPDEST PUSH2 0x13AF JUMP JUMPDEST PUSH1 0x40 MLOAD PUSH2 0x83E SWAP2 SWAP1 PUSH2 0x2A1A JUMP JUMPDEST PUSH1 0x40 MLOAD DUP1 SWAP2 SUB SWAP1 RETURN JUMPDEST CALLVALUE DUP1 ISZERO PUSH2 0x853 JUMPI PUSH1 0x0 DUP1 REVERT JUMPDEST POP PUSH2 0x86E PUSH1 0x4 DUP1 CALLDATASIZE SUB DUP2 ADD SWAP1 PUSH2 0x869 SWAP2 SWAP1 PUSH2 0x2CE5 JUMP JUMPDEST PUSH2 0x13CF JUMP JUMPDEST STOP JUMPDEST CALLVALUE DUP1 ISZERO PUSH2 0x87C JUMPI PUSH1 0x0 DUP1 REVERT JUMPDEST POP PUSH2 0x885 PUSH2 0x14AC JUMP JUMPDEST PUSH1 0x40 MLOAD PUSH2 0x892 SWAP2 SWAP1 PUSH2 0x2ABE JUMP JUMPDEST PUSH1 0x40 MLOAD DUP1 SWAP2 SUB SWAP1 RETURN JUMPDEST CALLVALUE DUP1 ISZERO PUSH2 0x8A7 JUMPI PUSH1 0x0 DUP1 REVERT JUMPDEST POP PUSH2 0x8B0 PUSH2 0x14B2 JUMP JUMPDEST PUSH1 0x40 MLOAD PUSH2 0x8BD SWAP2 SWAP1 PUSH2 0x2ABE JUMP JUMPDEST PUSH1 0x40 MLOAD DUP1 SWAP2 SUB SWAP1 RETURN JUMPDEST CALLVALUE DUP1 ISZERO PUSH2 0x8D2 JUMPI PUSH1 0x0 DUP1 REVERT JUMPDEST POP PUSH2 0x8ED PUSH1 0x4 DUP1 CALLDATASIZE SUB DUP2 ADD SWAP1 PUSH2 0x8E8 SWAP2 SWAP1 PUSH2 0x2D45 JUMP JUMPDEST PUSH2 0x14B8 JUMP JUMPDEST PUSH1 0x40 MLOAD PUSH2 0x8FA SWAP2 SWAP1 PUSH2 0x2ABE JUMP JUMPDEST PUSH1 0x40 MLOAD DUP1 SWAP2 SUB SWAP1 RETURN JUMPDEST CALLVALUE DUP1 ISZERO PUSH2 0x90F JUMPI PUSH1 0x0 DUP1 REVERT JUMPDEST POP PUSH2 0x92A PUSH1 0x4 DUP1 CALLDATASIZE SUB DUP2 ADD SWAP1 PUSH2 0x925 SWAP2 SWAP1 PUSH2 0x2B63 JUMP JUMPDEST PUSH2 0x153F JUMP JUMPDEST STOP JUMPDEST CALLVALUE DUP1 ISZERO PUSH2 0x938 JUMPI PUSH1 0x0 DUP1 REVERT JUMPDEST POP PUSH2 0x941 PUSH2 0x15C2 JUMP JUMPDEST PUSH1 0x40 MLOAD PUSH2 0x94E SWAP2 SWAP1 PUSH2 0x2ABE JUMP JUMPDEST PUSH1 0x40 MLOAD DUP1 SWAP2 SUB SWAP1 RETURN JUMPDEST CALLVALUE DUP1 ISZERO PUSH2 0x963 JUMPI PUSH1 0x0 DUP1 REVERT JUMPDEST POP PUSH2 0x97E PUSH1 0x4 DUP1 CALLDATASIZE SUB DUP2 ADD SWAP1 PUSH2 0x979 SWAP2 SWAP1 PUSH2 0x2B63 JUMP JUMPDEST PUSH2 0x15C8 JUMP JUMPDEST PUSH1 0x40 MLOAD PUSH2 0x98B SWAP2 SWAP1 PUSH2 0x2A1A JUMP JUMPDEST PUSH1 0x40 MLOAD DUP1 SWAP2 SUB SWAP1 RETURN JUMPDEST PUSH1 0x60 PUSH1 0x40 MLOAD DUP1 PUSH1 0x40 ADD PUSH1 0x40 MSTORE DUP1 PUSH1 0x3 DUP2 MSTORE PUSH1 0x20 ADD PUSH32 0x464F500000000000000000000000000000000000000000000000000000000000 DUP2 MSTORE POP SWAP1 POP SWAP1 JUMP JUMPDEST PUSH1 0x0 PUSH2 0x9DE CALLER DUP5 DUP5 PUSH2 0x161E JUMP JUMPDEST PUSH1 0x1 SWAP1 POP SWAP3 SWAP2 POP POP JUMP JUMPDEST PUSH1 0xF PUSH1 0x0 SWAP1 SLOAD SWAP1 PUSH2 0x100 EXP SWAP1 DIV PUSH20 0xFFFFFFFFFFFFFFFFFFFFFFFFFFFFFFFFFFFFFFFF AND DUP2 JUMP JUMPDEST PUSH1 0x10 PUSH1 0x14 SWAP1 SLOAD SWAP1 PUSH2 0x100 EXP SWAP1 DIV PUSH1 0xFF AND DUP2 JUMP JUMPDEST PUSH1 0x0 PUSH1 0x1 SLOAD SWAP1 POP SWAP1 JUMP JUMPDEST PUSH2 0xA33 PUSH2 0x17E7 JUMP JUMPDEST CALLER PUSH20 0xFFFFFFFFFFFFFFFFFFFFFFFFFFFFFFFFFFFFFFFF AND PUSH2 0x8FC SELFBALANCE SWAP1 DUP2 ISZERO MUL SWAP1 PUSH1 0x40 MLOAD PUSH1 0x0 PUSH1 0x40 MLOAD DUP1 DUP4 SUB DUP2 DUP6 DUP9 DUP9 CALL SWAP4 POP POP POP POP ISZERO DUP1 ISZERO PUSH2 0xA79 JUMPI RETURNDATASIZE PUSH1 0x0 DUP1 RETURNDATACOPY RETURNDATASIZE PUSH1 0x0 REVERT JUMPDEST POP JUMP JUMPDEST PUSH1 0x0 DUP1 CALLER SWAP1 POP PUSH2 0xA8D DUP6 DUP3 DUP6 PUSH2 0x1865 JUMP JUMPDEST PUSH2 0xA98 DUP6 DUP6 DUP6 PUSH2 0x18F1 JUMP JUMPDEST PUSH1 0x1 SWAP2 POP POP SWAP4 SWAP3 POP POP POP JUMP JUMPDEST PUSH1 0x0 PUSH1 0x12 SWAP1 POP SWAP1 JUMP JUMPDEST PUSH2 0xAB5 PUSH2 0x17E7 JUMP JUMPDEST PUSH1 0x0 PUSH1 0x10 PUSH1 0x14 PUSH2 0x100 EXP DUP2 SLOAD DUP2 PUSH1 0xFF MUL NOT AND SWAP1 DUP4 ISZERO ISZERO MUL OR SWAP1 SSTORE POP JUMP JUMPDEST PUSH2 0xADA PUSH2 0x17E7 JUMP JUMPDEST PUSH1 0x4 PUSH1 0x0 DUP3 PUSH20 0xFFFFFFFFFFFFFFFFFFFFFFFFFFFFFFFFFFFFFFFF AND PUSH20 0xFFFFFFFFFFFFFFFFFFFFFFFFFFFFFFFFFFFFFFFF AND DUP2 MSTORE PUSH1 0x20 ADD SWAP1 DUP2 MSTORE PUSH1 0x20 ADD PUSH1 0x0 KECCAK256 PUSH1 0x0 SWAP1 SLOAD SWAP1 PUSH2 0x100 EXP SWAP1 DIV PUSH1 0xFF AND ISZERO PUSH2 0xB67 JUMPI PUSH1 0x40 MLOAD PUSH32 0x8C379A000000000000000000000000000000000000000000000000000000000 DUP2 MSTORE PUSH1 0x4 ADD PUSH2 0xB5E SWAP1 PUSH2 0x2DD1 JUMP JUMPDEST PUSH1 0x40 MLOAD DUP1 SWAP2 SUB SWAP1 REVERT JUMPDEST DUP1 PUSH20 0xFFFFFFFFFFFFFFFFFFFFFFFFFFFFFFFFFFFFFFFF AND PUSH2 0xB86 PUSH2 0x20F6 JUMP JUMPDEST PUSH20 0xFFFFFFFFFFFFFFFFFFFFFFFFFFFFFFFFFFFFFFFF AND SUB PUSH2 0xBDC JUMPI PUSH1 0x40 MLOAD PUSH32 0x8C379A000000000000000000000000000000000000000000000000000000000 DUP2 MSTORE PUSH1 0x4 ADD PUSH2 0xBD3 SWAP1 PUSH2 0x2E3D JUMP JUMPDEST PUSH1 0x40 MLOAD DUP1 SWAP2 SUB SWAP1 REVERT JUMPDEST PUSH1 0x1 PUSH1 0x4 PUSH1 0x0 DUP4 PUSH20 0xFFFFFFFFFFFFFFFFFFFFFFFFFFFFFFFFFFFFFFFF AND PUSH20 0xFFFFFFFFFFFFFFFFFFFFFFFFFFFFFFFFFFFFFFFF AND DUP2 MSTORE PUSH1 0x20 ADD SWAP1 DUP2 MSTORE PUSH1 0x20 ADD PUSH1 0x0 KECCAK256 PUSH1 0x0 PUSH2 0x100 EXP DUP2 SLOAD DUP2 PUSH1 0xFF MUL NOT AND SWAP1 DUP4 ISZERO ISZERO MUL OR SWAP1 SSTORE POP POP JUMP JUMPDEST PUSH2 0xC3F PUSH2 0x17E7 JUMP JUMPDEST DUP1 PUSH1 0xB DUP2 SWAP1 SSTORE POP POP JUMP JUMPDEST PUSH1 0x10 PUSH1 0x0 SWAP1 SLOAD SWAP1 PUSH2 0x100 EXP SWAP1 DIV PUSH20 0xFFFFFFFFFFFFFFFFFFFFFFFFFFFFFFFFFFFFFFFF AND DUP2 JUMP JUMPDEST PUSH1 0x0 PUSH1 0x5 PUSH1 0x0 DUP4 PUSH20 0xFFFFFFFFFFFFFFFFFFFFFFFFFFFFFFFFFFFFFFFF AND PUSH20 0xFFFFFFFFFFFFFFFFFFFFFFFFFFFFFFFFFFFFFFFF AND DUP2 MSTORE PUSH1 0x20 ADD SWAP1 DUP2 MSTORE PUSH1 0x20 ADD PUSH1 0x0 KECCAK256 PUSH1 0x0 SWAP1 SLOAD SWAP1 PUSH2 0x100 EXP SWAP1 DIV PUSH1 0xFF AND SWAP1 POP SWAP2 SWAP1 POP JUMP JUMPDEST PUSH2 0xCCD PUSH2 0x17E7 JUMP JUMPDEST PUSH1 0x4 PUSH1 0x0 DUP3 PUSH20 0xFFFFFFFFFFFFFFFFFFFFFFFFFFFFFFFFFFFFFFFF AND PUSH20 0xFFFFFFFFFFFFFFFFFFFFFFFFFFFFFFFFFFFFFFFF AND DUP2 MSTORE PUSH1 0x20 ADD SWAP1 DUP2 MSTORE PUSH1 0x20 ADD PUSH1 0x0 KECCAK256 PUSH1 0x0 SWAP1 SLOAD SWAP1 PUSH2 0x100 EXP SWAP1 DIV PUSH1 0xFF AND PUSH2 0xD59 JUMPI PUSH1 0x40 MLOAD PUSH32 0x8C379A000000000000000000000000000000000000000000000000000000000 DUP2 MSTORE PUSH1 0x4 ADD PUSH2 0xD50 SWAP1 PUSH2 0x2EA9 JUMP JUMPDEST PUSH1 0x40 MLOAD DUP1 SWAP2 SUB SWAP1 REVERT JUMPDEST DUP1 PUSH20 0xFFFFFFFFFFFFFFFFFFFFFFFFFFFFFFFFFFFFFFFF AND PUSH2 0xD78 PUSH2 0x20F6 JUMP JUMPDEST PUSH20 0xFFFFFFFFFFFFFFFFFFFFFFFFFFFFFFFFFFFFFFFF AND SUB PUSH2 0xDCE JUMPI PUSH1 0x40 MLOAD PUSH32 0x8C379A000000000000000000000000000000000000000000000000000000000 DUP2 MSTORE PUSH1 0x4 ADD PUSH2 0xDC5 SWAP1 PUSH2 0x2F3B JUMP JUMPDEST PUSH1 0x40 MLOAD DUP1 SWAP2 SUB SWAP1 REVERT JUMPDEST PUSH1 0x0 PUSH1 0x4 PUSH1 0x0 DUP4 PUSH20 0xFFFFFFFFFFFFFFFFFFFFFFFFFFFFFFFFFFFFFFFF AND PUSH20 0xFFFFFFFFFFFFFFFFFFFFFFFFFFFFFFFFFFFFFFFF AND DUP2 MSTORE PUSH1 0x20 ADD SWAP1 DUP2 MSTORE PUSH1 0x20 ADD PUSH1 0x0 KECCAK256 PUSH1 0x0 PUSH2 0x100 EXP DUP2 SLOAD DUP2 PUSH1 0xFF MUL NOT AND SWAP1 DUP4 ISZERO ISZERO MUL OR SWAP1 SSTORE POP POP JUMP JUMPDEST PUSH1 0xA SLOAD DUP2 JUMP JUMPDEST PUSH2 0xE37 PUSH2 0x17E7 JUMP JUMPDEST DUP1 PUSH1 0x7 PUSH1 0x0 PUSH2 0x100 EXP DUP2 SLOAD DUP2 PUSH20 0xFFFFFFFFFFFFFFFFFFFFFFFFFFFFFFFFFFFFFFFF MUL NOT AND SWAP1 DUP4 PUSH20 0xFFFFFFFFFFFFFFFFFFFFFFFFFFFFFFFFFFFFFFFF AND MUL OR SWAP1 SSTORE POP POP JUMP JUMPDEST PUSH2 0xE83 PUSH2 0x17E7 JUMP JUMPDEST DUP1 PUSH1 0x5 PUSH1 0x0 DUP5 PUSH20 0xFFFFFFFFFFFFFFFFFFFFFFFFFFFFFFFFFFFFFFFF AND PUSH20 0xFFFFFFFFFFFFFFFFFFFFFFFFFFFFFFFFFFFFFFFF AND DUP2 MSTORE PUSH1 0x20 ADD SWAP1 DUP2 MSTORE PUSH1 0x20 ADD PUSH1 0x0 KECCAK256 PUSH1 0x0 PUSH2 0x100 EXP DUP2 SLOAD DUP2 PUSH1 0xFF MUL NOT AND SWAP1 DUP4 ISZERO ISZERO MUL OR SWAP1 SSTORE POP POP POP JUMP JUMPDEST PUSH2 0xEE6 PUSH2 0x17E7 JUMP JUMPDEST PUSH3 0x186A0 DUP2 GT ISZERO PUSH2 0xF2C JUMPI PUSH1 0x40 MLOAD PUSH32 0x8C379A000000000000000000000000000000000000000000000000000000000 DUP2 MSTORE PUSH1 0x4 ADD PUSH2 0xF23 SWAP1 PUSH2 0x2FA7 JUMP JUMPDEST PUSH1 0x40 MLOAD DUP1 SWAP2 SUB SWAP1 REVERT JUMPDEST DUP1 PUSH1 0xA DUP2 SWAP1 SSTORE POP PUSH1 0x0 PUSH1 0xA SLOAD PUSH1 0x9 SLOAD PUSH1 0x8 SLOAD PUSH2 0xF48 SWAP2 SWAP1 PUSH2 0x2FF6 JUMP JUMPDEST PUSH2 0xF52 SWAP2 SWAP1 PUSH2 0x2FF6 JUMP JUMPDEST SWAP1 POP DUP1 PUSH3 0x186A0 PUSH1 0x8 SLOAD PUSH2 0xF66 SWAP2 SWAP1 PUSH2 0x302A JUMP JUMPDEST PUSH2 0xF70 SWAP2 SWAP1 PUSH2 0x309B JUMP JUMPDEST PUSH1 0xC DUP2 SWAP1 SSTORE POP DUP1 PUSH3 0x186A0 PUSH1 0x9 SLOAD PUSH2 0xF88 SWAP2 SWAP1 PUSH2 0x302A JUMP JUMPDEST PUSH2 0xF92 SWAP2 SWAP1 PUSH2 0x309B JUMP JUMPDEST PUSH1 0xD DUP2 SWAP1 SSTORE POP DUP1 PUSH3 0x186A0 PUSH1 0xA SLOAD PUSH2 0xFAA SWAP2 SWAP1 PUSH2 0x302A JUMP JUMPDEST PUSH2 0xFB4 SWAP2 SWAP1 PUSH2 0x309B JUMP JUMPDEST PUSH1 0xE DUP2 SWAP1 SSTORE POP POP POP JUMP JUMPDEST PUSH1 0x10 PUSH1 0x16 SWAP1 SLOAD SWAP1 PUSH2 0x100 EXP SWAP1 DIV PUSH1 0xFF AND DUP2 JUMP JUMPDEST PUSH1 0x0 PUSH1 0x2 PUSH1 0x0 DUP4 PUSH20 0xFFFFFFFFFFFFFFFFFFFFFFFFFFFFFFFFFFFFFFFF AND PUSH20 0xFFFFFFFFFFFFFFFFFFFFFFFFFFFFFFFFFFFFFFFF AND DUP2 MSTORE PUSH1 0x20 ADD SWAP1 DUP2 MSTORE PUSH1 0x20 ADD PUSH1 0x0 KECCAK256 SLOAD SWAP1 POP SWAP2 SWAP1 POP JUMP JUMPDEST PUSH2 0x1022 PUSH2 0x17E7 JUMP JUMPDEST PUSH2 0x102C PUSH1 0x0 PUSH2 0x20FE JUMP JUMPDEST JUMP JUMPDEST PUSH1 0x7 PUSH1 0x0 SWAP1 SLOAD SWAP1 PUSH2 0x100 EXP SWAP1 DIV PUSH20 0xFFFFFFFFFFFFFFFFFFFFFFFFFFFFFFFFFFFFFFFF AND DUP2 JUMP JUMPDEST PUSH1 0xB SLOAD DUP2 JUMP JUMPDEST PUSH2 0x1062 PUSH2 0x17E7 JUMP JUMPDEST PUSH1 0x1 PUSH1 0x10 PUSH1 0x14 PUSH2 0x100 EXP DUP2 SLOAD DUP2 PUSH1 0xFF MUL NOT AND SWAP1 DUP4 ISZERO ISZERO MUL OR SWAP1 SSTORE POP JUMP JUMPDEST PUSH1 0x0 DUP1 PUSH1 0x0 SWAP1 SLOAD SWAP1 PUSH2 0x100 EXP SWAP1 DIV PUSH20 0xFFFFFFFFFFFFFFFFFFFFFFFFFFFFFFFFFFFFFFFF AND SWAP1 POP SWAP1 JUMP JUMPDEST PUSH2 0x10B0 PUSH2 0x17E7 JUMP JUMPDEST DUP1 PUSH1 0x10 PUSH1 0x16 PUSH2 0x100 EXP DUP2 SLOAD DUP2 PUSH1 0xFF MUL NOT AND SWAP1 DUP4 ISZERO ISZERO MUL OR SWAP1 SSTORE POP POP JUMP JUMPDEST PUSH1 0x60 PUSH1 0x40 MLOAD DUP1 PUSH1 0x40 ADD PUSH1 0x40 MSTORE DUP1 PUSH1 0x3 DUP2 MSTORE PUSH1 0x20 ADD PUSH32 0x464F500000000000000000000000000000000000000000000000000000000000 DUP2 MSTORE POP SWAP1 POP SWAP1 JUMP JUMPDEST PUSH2 0x1112 PUSH2 0x17E7 JUMP JUMPDEST PUSH1 0x10 PUSH1 0x0 SWAP1 SLOAD SWAP1 PUSH2 0x100 EXP SWAP1 DIV PUSH20 0xFFFFFFFFFFFFFFFFFFFFFFFFFFFFFFFFFFFFFFFF AND PUSH20 0xFFFFFFFFFFFFFFFFFFFFFFFFFFFFFFFFFFFFFFFF AND DUP3 PUSH20 0xFFFFFFFFFFFFFFFFFFFFFFFFFFFFFFFFFFFFFFFF AND SUB PUSH2 0x11A2 JUMPI PUSH1 0x40 MLOAD PUSH32 0x8C379A000000000000000000000000000000000000000000000000000000000 DUP2 MSTORE PUSH1 0x4 ADD PUSH2 0x1199 SWAP1 PUSH2 0x313E JUMP JUMPDEST PUSH1 0x40 MLOAD DUP1 SWAP2 SUB SWAP1 REVERT JUMPDEST PUSH2 0x11AC DUP3 DUP3 PUSH2 0x21C2 JUMP JUMPDEST POP POP JUMP JUMPDEST PUSH2 0x11B8 PUSH2 0x17E7 JUMP JUMPDEST PUSH3 0x186A0 DUP2 GT ISZERO PUSH2 0x11FE JUMPI PUSH1 0x40 MLOAD PUSH32 0x8C379A000000000000000000000000000000000000000000000000000000000 DUP2 MSTORE PUSH1 0x4 ADD PUSH2 0x11F5 SWAP1 PUSH2 0x2FA7 JUMP JUMPDEST PUSH1 0x40 MLOAD DUP1 SWAP2 SUB SWAP1 REVERT JUMPDEST DUP1 PUSH1 0x9 DUP2 SWAP1 SSTORE POP PUSH1 0x0 PUSH1 0xA SLOAD PUSH1 0x9 SLOAD PUSH1 0x8 SLOAD PUSH2 0x121A SWAP2 SWAP1 PUSH2 0x2FF6 JUMP JUMPDEST PUSH2 0x1224 SWAP2 SWAP1 PUSH2 0x2FF6 JUMP JUMPDEST SWAP1 POP DUP1 PUSH3 0x186A0 PUSH1 0x8 SLOAD PUSH2 0x1238 SWAP2 SWAP1 PUSH2 0x302A JUMP JUMPDEST PUSH2 0x1242 SWAP2 SWAP1 PUSH2 0x309B JUMP JUMPDEST PUSH1 0xC DUP2 SWAP1 SSTORE POP DUP1 PUSH3 0x186A0 PUSH1 0x9 SLOAD PUSH2 0x125A SWAP2 SWAP1 PUSH2 0x302A JUMP JUMPDEST PUSH2 0x1264 SWAP2 SWAP1 PUSH2 0x309B JUMP JUMPDEST PUSH1 0xD DUP2 SWAP1 SSTORE POP DUP1 PUSH3 0x186A0 PUSH1 0xA SLOAD PUSH2 0x127C SWAP2 SWAP1 PUSH2 0x302A JUMP JUMPDEST PUSH2 0x1286 SWAP2 SWAP1 PUSH2 0x309B JUMP JUMPDEST PUSH1 0xE DUP2 SWAP1 SSTORE POP POP POP JUMP JUMPDEST PUSH1 0x9 SLOAD DUP2 JUMP JUMPDEST PUSH2 0x129E PUSH2 0x17E7 JUMP JUMPDEST PUSH3 0x186A0 DUP2 GT ISZERO PUSH2 0x12E4 JUMPI PUSH1 0x40 MLOAD PUSH32 0x8C379A000000000000000000000000000000000000000000000000000000000 DUP2 MSTORE PUSH1 0x4 ADD PUSH2 0x12DB SWAP1 PUSH2 0x2FA7 JUMP JUMPDEST PUSH1 0x40 MLOAD DUP1 SWAP2 SUB SWAP1 REVERT JUMPDEST DUP1 PUSH1 0x8 DUP2 SWAP1 SSTORE POP PUSH1 0x0 PUSH1 0xA SLOAD PUSH1 0x9 SLOAD PUSH1 0x8 SLOAD PUSH2 0x1300 SWAP2 SWAP1 PUSH2 0x2FF6 JUMP JUMPDEST PUSH2 0x130A SWAP2 SWAP1 PUSH2 0x2FF6 JUMP JUMPDEST SWAP1 POP DUP1 PUSH3 0x186A0 PUSH1 0x8 SLOAD PUSH2 0x131E SWAP2 SWAP1 PUSH2 0x302A JUMP JUMPDEST PUSH2 0x1328 SWAP2 SWAP1 PUSH2 0x309B JUMP JUMPDEST PUSH1 0xC DUP2 SWAP1 SSTORE POP DUP1 PUSH3 0x186A0 PUSH1 0x9 SLOAD PUSH2 0x1340 SWAP2 SWAP1 PUSH2 0x302A JUMP JUMPDEST PUSH2 0x134A SWAP2 SWAP1 PUSH2 0x309B JUMP JUMPDEST PUSH1 0xD DUP2 SWAP1 SSTORE POP DUP1 PUSH3 0x186A0 PUSH1 0xA SLOAD PUSH2 0x1362 SWAP2 SWAP1 PUSH2 0x302A JUMP JUMPDEST PUSH2 0x136C SWAP2 SWAP1 PUSH2 0x309B JUMP JUMPDEST PUSH1 0xE DUP2 SWAP1 SSTORE POP POP POP JUMP JUMPDEST PUSH1 0x0 DUP1 CALLER SWAP1 POP PUSH2 0x1387 DUP2 DUP6 DUP6 PUSH2 0x18F1 JUMP JUMPDEST PUSH1 0x1 SWAP2 POP POP SWAP3 SWAP2 POP POP JUMP JUMPDEST PUSH1 0xD SLOAD DUP2 JUMP JUMPDEST PUSH1 0x0 PUSH1 0x10 PUSH1 0x14 SWAP1 SLOAD SWAP1 PUSH2 0x100 EXP SWAP1 DIV PUSH1 0xFF AND SWAP1 POP SWAP1 JUMP JUMPDEST PUSH1 0x6 PUSH1 0x20 MSTORE DUP1 PUSH1 0x0 MSTORE PUSH1 0x40 PUSH1 0x0 KECCAK256 PUSH1 0x0 SWAP2 POP SLOAD SWAP1 PUSH2 0x100 EXP SWAP1 DIV PUSH1 0xFF AND DUP2 JUMP JUMPDEST PUSH2 0x13D7 PUSH2 0x17E7 JUMP JUMPDEST PUSH1 0x0 PUSH2 0x13E1 PUSH2 0x107F JUMP JUMPDEST SWAP1 POP PUSH1 0x0 JUMPDEST DUP5 DUP5 SWAP1 POP DUP2 LT ISZERO PUSH2 0x14A5 JUMPI PUSH1 0x0 DUP6 DUP6 DUP4 DUP2 DUP2 LT PUSH2 0x1406 JUMPI PUSH2 0x1405 PUSH2 0x315E JUMP JUMPDEST JUMPDEST SWAP1 POP PUSH1 0x20 MUL ADD PUSH1 0x20 DUP2 ADD SWAP1 PUSH2 0x141B SWAP2 SWAP1 PUSH2 0x2B63 JUMP JUMPDEST SWAP1 POP PUSH1 0x0 PUSH20 0xFFFFFFFFFFFFFFFFFFFFFFFFFFFFFFFFFFFFFFFF AND DUP2 PUSH20 0xFFFFFFFFFFFFFFFFFFFFFFFFFFFFFFFFFFFFFFFF AND SUB PUSH2 0x148C JUMPI PUSH1 0x40 MLOAD PUSH32 0x8C379A000000000000000000000000000000000000000000000000000000000 DUP2 MSTORE PUSH1 0x4 ADD PUSH2 0x1483 SWAP1 PUSH2 0x31FF JUMP JUMPDEST PUSH1 0x40 MLOAD DUP1 SWAP2 SUB SWAP1 REVERT JUMPDEST PUSH2 0x1497 DUP4 DUP3 DUP7 PUSH2 0x221D JUMP JUMPDEST POP DUP1 DUP1 PUSH1 0x1 ADD SWAP2 POP POP PUSH2 0x13E6 JUMP JUMPDEST POP POP POP POP POP JUMP JUMPDEST PUSH1 0x8 SLOAD DUP2 JUMP JUMPDEST PUSH1 0xE SLOAD DUP2 JUMP JUMPDEST PUSH1 0x0 PUSH1 0x3 PUSH1 0x0 DUP5 PUSH20 0xFFFFFFFFFFFFFFFFFFFFFFFFFFFFFFFFFFFFFFFF AND PUSH20 0xFFFFFFFFFFFFFFFFFFFFFFFFFFFFFFFFFFFFFFFF AND DUP2 MSTORE PUSH1 0x20 ADD SWAP1 DUP2 MSTORE PUSH1 0x20 ADD PUSH1 0x0 KECCAK256 PUSH1 0x0 DUP4 PUSH20 0xFFFFFFFFFFFFFFFFFFFFFFFFFFFFFFFFFFFFFFFF AND PUSH20 0xFFFFFFFFFFFFFFFFFFFFFFFFFFFFFFFFFFFFFFFF AND DUP2 MSTORE PUSH1 0x20 ADD SWAP1 DUP2 MSTORE PUSH1 0x20 ADD PUSH1 0x0 KECCAK256 SLOAD SWAP1 POP SWAP3 SWAP2 POP POP JUMP JUMPDEST PUSH2 0x1547 PUSH2 0x17E7 JUMP JUMPDEST PUSH1 0x0 PUSH20 0xFFFFFFFFFFFFFFFFFFFFFFFFFFFFFFFFFFFFFFFF AND DUP2 PUSH20 0xFFFFFFFFFFFFFFFFFFFFFFFFFFFFFFFFFFFFFFFF AND SUB PUSH2 0x15B6 JUMPI PUSH1 0x40 MLOAD PUSH32 0x8C379A000000000000000000000000000000000000000000000000000000000 DUP2 MSTORE PUSH1 0x4 ADD PUSH2 0x15AD SWAP1 PUSH2 0x3291 JUMP JUMPDEST PUSH1 0x40 MLOAD DUP1 SWAP2 SUB SWAP1 REVERT JUMPDEST PUSH2 0x15BF DUP2 PUSH2 0x20FE JUMP JUMPDEST POP JUMP JUMPDEST PUSH1 0xC SLOAD DUP2 JUMP JUMPDEST PUSH1 0x0 PUSH1 0x4 PUSH1 0x0 DUP4 PUSH20 0xFFFFFFFFFFFFFFFFFFFFFFFFFFFFFFFFFFFFFFFF AND PUSH20 0xFFFFFFFFFFFFFFFFFFFFFFFFFFFFFFFFFFFFFFFF AND DUP2 MSTORE PUSH1 0x20 ADD SWAP1 DUP2 MSTORE PUSH1 0x20 ADD PUSH1 0x0 KECCAK256 PUSH1 0x0 SWAP1 SLOAD SWAP1 PUSH2 0x100 EXP SWAP1 DIV PUSH1 0xFF AND SWAP1 POP SWAP2 SWAP1 POP JUMP JUMPDEST PUSH1 0x0 PUSH20 0xFFFFFFFFFFFFFFFFFFFFFFFFFFFFFFFFFFFFFFFF AND DUP4 PUSH20 0xFFFFFFFFFFFFFFFFFFFFFFFFFFFFFFFFFFFFFFFF AND SUB PUSH2 0x168D JUMPI PUSH1 0x40 MLOAD PUSH32 0x8C379A000000000000000000000000000000000000000000000000000000000 DUP2 MSTORE PUSH1 0x4 ADD PUSH2 0x1684 SWAP1 PUSH2 0x3323 JUMP JUMPDEST PUSH1 0x40 MLOAD DUP1 SWAP2 SUB SWAP1 REVERT JUMPDEST PUSH1 0x0 PUSH20 0xFFFFFFFFFFFFFFFFFFFFFFFFFFFFFFFFFFFFFFFF AND DUP3 PUSH20 0xFFFFFFFFFFFFFFFFFFFFFFFFFFFFFFFFFFFFFFFF AND SUB PUSH2 0x16FC JUMPI PUSH1 0x40 MLOAD PUSH32 0x8C379A000000000000000000000000000000000000000000000000000000000 DUP2 MSTORE PUSH1 0x4 ADD PUSH2 0x16F3 SWAP1 PUSH2 0x33B5 JUMP JUMPDEST PUSH1 0x40 MLOAD DUP1 SWAP2 SUB SWAP1 REVERT JUMPDEST DUP1 PUSH1 0x3 PUSH1 0x0 DUP6 PUSH20 0xFFFFFFFFFFFFFFFFFFFFFFFFFFFFFFFFFFFFFFFF AND PUSH20 0xFFFFFFFFFFFFFFFFFFFFFFFFFFFFFFFFFFFFFFFF AND DUP2 MSTORE PUSH1 0x20 ADD SWAP1 DUP2 MSTORE PUSH1 0x20 ADD PUSH1 0x0 KECCAK256 PUSH1 0x0 DUP5 PUSH20 0xFFFFFFFFFFFFFFFFFFFFFFFFFFFFFFFFFFFFFFFF AND PUSH20 0xFFFFFFFFFFFFFFFFFFFFFFFFFFFFFFFFFFFFFFFF AND DUP2 MSTORE PUSH1 0x20 ADD SWAP1 DUP2 MSTORE PUSH1 0x20 ADD PUSH1 0x0 KECCAK256 DUP2 SWAP1 SSTORE POP DUP2 PUSH20 0xFFFFFFFFFFFFFFFFFFFFFFFFFFFFFFFFFFFFFFFF AND DUP4 PUSH20 0xFFFFFFFFFFFFFFFFFFFFFFFFFFFFFFFFFFFFFFFF AND PUSH32 0x8C5BE1E5EBEC7D5BD14F71427D1E84F3DD0314C0F7B2291E5B200AC8C7C3B925 DUP4 PUSH1 0x40 MLOAD PUSH2 0x17DA SWAP2 SWAP1 PUSH2 0x2ABE JUMP JUMPDEST PUSH1 0x40 MLOAD DUP1 SWAP2 SUB SWAP1 LOG3 POP POP POP JUMP JUMPDEST PUSH2 0x17EF PUSH2 0x20F6 JUMP JUMPDEST PUSH20 0xFFFFFFFFFFFFFFFFFFFFFFFFFFFFFFFFFFFFFFFF AND PUSH2 0x180D PUSH2 0x107F JUMP JUMPDEST PUSH20 0xFFFFFFFFFFFFFFFFFFFFFFFFFFFFFFFFFFFFFFFF AND EQ PUSH2 0x1863 JUMPI PUSH1 0x40 MLOAD PUSH32 0x8C379A000000000000000000000000000000000000000000000000000000000 DUP2 MSTORE PUSH1 0x4 ADD PUSH2 0x185A SWAP1 PUSH2 0x3421 JUMP JUMPDEST PUSH1 0x40 MLOAD DUP1 SWAP2 SUB SWAP1 REVERT JUMPDEST JUMP JUMPDEST PUSH1 0x0 PUSH2 0x1871 DUP5 DUP5 PUSH2 0x14B8 JUMP JUMPDEST SWAP1 POP PUSH32 0xFFFFFFFFFFFFFFFFFFFFFFFFFFFFFFFFFFFFFFFFFFFFFFFFFFFFFFFFFFFFFFFF DUP2 EQ PUSH2 0x18EB JUMPI DUP2 DUP2 LT ISZERO PUSH2 0x18DD JUMPI PUSH1 0x40 MLOAD PUSH32 0x8C379A000000000000000000000000000000000000000000000000000000000 DUP2 MSTORE PUSH1 0x4 ADD PUSH2 0x18D4 SWAP1 PUSH2 0x348D JUMP JUMPDEST PUSH1 0x40 MLOAD DUP1 SWAP2 SUB SWAP1 REVERT JUMPDEST PUSH2 0x18EA DUP5 DUP5 DUP5 DUP5 SUB PUSH2 0x161E JUMP JUMPDEST JUMPDEST POP POP POP POP JUMP JUMPDEST PUSH1 0x0 PUSH20 0xFFFFFFFFFFFFFFFFFFFFFFFFFFFFFFFFFFFFFFFF AND DUP4 PUSH20 0xFFFFFFFFFFFFFFFFFFFFFFFFFFFFFFFFFFFFFFFF AND SUB PUSH2 0x1960 JUMPI PUSH1 0x40 MLOAD PUSH32 0x8C379A000000000000000000000000000000000000000000000000000000000 DUP2 MSTORE PUSH1 0x4 ADD PUSH2 0x1957 SWAP1 PUSH2 0x351F JUMP JUMPDEST PUSH1 0x40 MLOAD DUP1 SWAP2 SUB SWAP1 REVERT JUMPDEST PUSH1 0x0 PUSH20 0xFFFFFFFFFFFFFFFFFFFFFFFFFFFFFFFFFFFFFFFF AND DUP3 PUSH20 0xFFFFFFFFFFFFFFFFFFFFFFFFFFFFFFFFFFFFFFFF AND SUB PUSH2 0x19CF JUMPI PUSH1 0x40 MLOAD PUSH32 0x8C379A000000000000000000000000000000000000000000000000000000000 DUP2 MSTORE PUSH1 0x4 ADD PUSH2 0x19C6 SWAP1 PUSH2 0x31FF JUMP JUMPDEST PUSH1 0x40 MLOAD DUP1 SWAP2 SUB SWAP1 REVERT JUMPDEST PUSH1 0x0 DUP2 GT PUSH2 0x1A12 JUMPI PUSH1 0x40 MLOAD PUSH32 0x8C379A000000000000000000000000000000000000000000000000000000000 DUP2 MSTORE PUSH1 0x4 ADD PUSH2 0x1A09 SWAP1 PUSH2 0x35B1 JUMP JUMPDEST PUSH1 0x40 MLOAD DUP1 SWAP2 SUB SWAP1 REVERT JUMPDEST PUSH1 0x4 PUSH1 0x0 DUP5 PUSH20 0xFFFFFFFFFFFFFFFFFFFFFFFFFFFFFFFFFFFFFFFF AND PUSH20 0xFFFFFFFFFFFFFFFFFFFFFFFFFFFFFFFFFFFFFFFF AND DUP2 MSTORE PUSH1 0x20 ADD SWAP1 DUP2 MSTORE PUSH1 0x20 ADD PUSH1 0x0 KECCAK256 PUSH1 0x0 SWAP1 SLOAD SWAP1 PUSH2 0x100 EXP SWAP1 DIV PUSH1 0xFF AND ISZERO PUSH2 0x1A9F JUMPI PUSH1 0x40 MLOAD PUSH32 0x8C379A000000000000000000000000000000000000000000000000000000000 DUP2 MSTORE PUSH1 0x4 ADD PUSH2 0x1A96 SWAP1 PUSH2 0x361D JUMP JUMPDEST PUSH1 0x40 MLOAD DUP1 SWAP2 SUB SWAP1 REVERT JUMPDEST PUSH1 0x4 PUSH1 0x0 DUP4 PUSH20 0xFFFFFFFFFFFFFFFFFFFFFFFFFFFFFFFFFFFFFFFF AND PUSH20 0xFFFFFFFFFFFFFFFFFFFFFFFFFFFFFFFFFFFFFFFF AND DUP2 MSTORE PUSH1 0x20 ADD SWAP1 DUP2 MSTORE PUSH1 0x20 ADD PUSH1 0x0 KECCAK256 PUSH1 0x0 SWAP1 SLOAD SWAP1 PUSH2 0x100 EXP SWAP1 DIV PUSH1 0xFF AND ISZERO PUSH2 0x1B2C JUMPI PUSH1 0x40 MLOAD PUSH32 0x8C379A000000000000000000000000000000000000000000000000000000000 DUP2 MSTORE PUSH1 0x4 ADD PUSH2 0x1B23 SWAP1 PUSH2 0x3689 JUMP JUMPDEST PUSH1 0x40 MLOAD DUP1 SWAP2 SUB SWAP1 REVERT JUMPDEST PUSH1 0x10 PUSH1 0x14 SWAP1 SLOAD SWAP1 PUSH2 0x100 EXP SWAP1 DIV PUSH1 0xFF AND ISZERO PUSH2 0x1B7C JUMPI PUSH1 0x40 MLOAD PUSH32 0x8C379A000000000000000000000000000000000000000000000000000000000 DUP2 MSTORE PUSH1 0x4 ADD PUSH2 0x1B73 SWAP1 PUSH2 0x36F5 JUMP JUMPDEST PUSH1 0x40 MLOAD DUP1 SWAP2 SUB SWAP1 REVERT JUMPDEST PUSH1 0x0 DUP2 SUB PUSH2 0x1B95 JUMPI PUSH2 0x1B90 DUP4 DUP4 PUSH1 0x0 PUSH2 0x221D JUMP JUMPDEST PUSH2 0x20F1 JUMP JUMPDEST PUSH1 0x0 PUSH1 0x10 PUSH1 0x0 SWAP1 SLOAD SWAP1 PUSH2 0x100 EXP SWAP1 DIV PUSH20 0xFFFFFFFFFFFFFFFFFFFFFFFFFFFFFFFFFFFFFFFF AND PUSH20 0xFFFFFFFFFFFFFFFFFFFFFFFFFFFFFFFFFFFFFFFF AND DUP5 PUSH20 0xFFFFFFFFFFFFFFFFFFFFFFFFFFFFFFFFFFFFFFFF AND EQ SWAP1 POP PUSH1 0x0 PUSH1 0x10 PUSH1 0x0 SWAP1 SLOAD SWAP1 PUSH2 0x100 EXP SWAP1 DIV PUSH20 0xFFFFFFFFFFFFFFFFFFFFFFFFFFFFFFFFFFFFFFFF AND PUSH20 0xFFFFFFFFFFFFFFFFFFFFFFFFFFFFFFFFFFFFFFFF AND DUP5 PUSH20 0xFFFFFFFFFFFFFFFFFFFFFFFFFFFFFFFFFFFFFFFF AND EQ SWAP1 POP PUSH1 0x0 DUP1 PUSH1 0x0 DUP1 PUSH2 0x1C4E ADDRESS PUSH2 0xFD1 JUMP JUMPDEST SWAP1 POP PUSH1 0x0 PUSH1 0xB SLOAD DUP3 LT ISZERO SWAP1 POP DUP1 DUP1 ISZERO PUSH2 0x1C73 JUMPI POP PUSH1 0x10 PUSH1 0x16 SWAP1 SLOAD SWAP1 PUSH2 0x100 EXP SWAP1 DIV PUSH1 0xFF AND JUMPDEST DUP1 ISZERO PUSH2 0x1C8C JUMPI POP PUSH1 0x10 PUSH1 0x15 SWAP1 SLOAD SWAP1 PUSH2 0x100 EXP SWAP1 DIV PUSH1 0xFF AND ISZERO JUMPDEST DUP1 ISZERO PUSH2 0x1CE2 JUMPI POP PUSH1 0x6 PUSH1 0x0 DUP12 PUSH20 0xFFFFFFFFFFFFFFFFFFFFFFFFFFFFFFFFFFFFFFFF AND PUSH20 0xFFFFFFFFFFFFFFFFFFFFFFFFFFFFFFFFFFFFFFFF AND DUP2 MSTORE PUSH1 0x20 ADD SWAP1 DUP2 MSTORE PUSH1 0x20 ADD PUSH1 0x0 KECCAK256 PUSH1 0x0 SWAP1 SLOAD SWAP1 PUSH2 0x100 EXP SWAP1 DIV PUSH1 0xFF AND ISZERO JUMPDEST DUP1 ISZERO PUSH2 0x1D38 JUMPI POP PUSH1 0x5 PUSH1 0x0 DUP12 PUSH20 0xFFFFFFFFFFFFFFFFFFFFFFFFFFFFFFFFFFFFFFFF AND PUSH20 0xFFFFFFFFFFFFFFFFFFFFFFFFFFFFFFFFFFFFFFFF AND DUP2 MSTORE PUSH1 0x20 ADD SWAP1 DUP2 MSTORE PUSH1 0x20 ADD PUSH1 0x0 KECCAK256 PUSH1 0x0 SWAP1 SLOAD SWAP1 PUSH2 0x100 EXP SWAP1 DIV PUSH1 0xFF AND ISZERO JUMPDEST DUP1 ISZERO PUSH2 0x1D8E JUMPI POP PUSH1 0x5 PUSH1 0x0 DUP11 PUSH20 0xFFFFFFFFFFFFFFFFFFFFFFFFFFFFFFFFFFFFFFFF AND PUSH20 0xFFFFFFFFFFFFFFFFFFFFFFFFFFFFFFFFFFFFFFFF AND DUP2 MSTORE PUSH1 0x20 ADD SWAP1 DUP2 MSTORE PUSH1 0x20 ADD PUSH1 0x0 KECCAK256 PUSH1 0x0 SWAP1 SLOAD SWAP1 PUSH2 0x100 EXP SWAP1 DIV PUSH1 0xFF AND ISZERO JUMPDEST ISZERO PUSH2 0x1E3B JUMPI PUSH1 0x1 PUSH1 0x10 PUSH1 0x15 PUSH2 0x100 EXP DUP2 SLOAD DUP2 PUSH1 0xFF MUL NOT AND SWAP1 DUP4 ISZERO ISZERO MUL OR SWAP1 SSTORE POP PUSH2 0x1DB6 PUSH2 0x23A2 JUMP JUMPDEST PUSH1 0x7 PUSH1 0x0 SWAP1 SLOAD SWAP1 PUSH2 0x100 EXP SWAP1 DIV PUSH20 0xFFFFFFFFFFFFFFFFFFFFFFFFFFFFFFFFFFFFFFFF AND PUSH20 0xFFFFFFFFFFFFFFFFFFFFFFFFFFFFFFFFFFFFFFFF AND PUSH2 0x8FC SELFBALANCE SWAP1 DUP2 ISZERO MUL SWAP1 PUSH1 0x40 MLOAD PUSH1 0x0 PUSH1 0x40 MLOAD DUP1 DUP4 SUB DUP2 DUP6 DUP9 DUP9 CALL SWAP4 POP POP POP POP ISZERO DUP1 ISZERO PUSH2 0x1E1E JUMPI RETURNDATASIZE PUSH1 0x0 DUP1 RETURNDATACOPY RETURNDATASIZE PUSH1 0x0 REVERT JUMPDEST POP PUSH1 0x0 PUSH1 0x10 PUSH1 0x15 PUSH2 0x100 EXP DUP2 SLOAD DUP2 PUSH1 0xFF MUL NOT AND SWAP1 DUP4 ISZERO ISZERO MUL OR SWAP1 SSTORE POP JUMPDEST PUSH1 0x0 PUSH1 0x10 PUSH1 0x15 SWAP1 SLOAD SWAP1 PUSH2 0x100 EXP SWAP1 DIV PUSH1 0xFF AND ISZERO SWAP1 POP PUSH1 0x5 PUSH1 0x0 DUP13 PUSH20 0xFFFFFFFFFFFFFFFFFFFFFFFFFFFFFFFFFFFFFFFF AND PUSH20 0xFFFFFFFFFFFFFFFFFFFFFFFFFFFFFFFFFFFFFFFF AND DUP2 MSTORE PUSH1 0x20 ADD SWAP1 DUP2 MSTORE PUSH1 0x20 ADD PUSH1 0x0 KECCAK256 PUSH1 0x0 SWAP1 SLOAD SWAP1 PUSH2 0x100 EXP SWAP1 DIV PUSH1 0xFF AND DUP1 PUSH2 0x1EF1 JUMPI POP PUSH1 0x5 PUSH1 0x0 DUP12 PUSH20 0xFFFFFFFFFFFFFFFFFFFFFFFFFFFFFFFFFFFFFFFF AND PUSH20 0xFFFFFFFFFFFFFFFFFFFFFFFFFFFFFFFFFFFFFFFF AND DUP2 MSTORE PUSH1 0x20 ADD SWAP1 DUP2 MSTORE PUSH1 0x20 ADD PUSH1 0x0 KECCAK256 PUSH1 0x0 SWAP1 SLOAD SWAP1 PUSH2 0x100 EXP SWAP1 DIV PUSH1 0xFF AND JUMPDEST ISZERO PUSH2 0x1EFB JUMPI PUSH1 0x0 SWAP1 POP JUMPDEST PUSH1 0x0 DUP2 ISZERO PUSH2 0x20DC JUMPI PUSH1 0x6 PUSH1 0x0 DUP14 PUSH20 0xFFFFFFFFFFFFFFFFFFFFFFFFFFFFFFFFFFFFFFFF AND PUSH20 0xFFFFFFFFFFFFFFFFFFFFFFFFFFFFFFFFFFFFFFFF AND DUP2 MSTORE PUSH1 0x20 ADD SWAP1 DUP2 MSTORE PUSH1 0x20 ADD PUSH1 0x0 KECCAK256 PUSH1 0x0 SWAP1 SLOAD SWAP1 PUSH2 0x100 EXP SWAP1 DIV PUSH1 0xFF AND DUP1 ISZERO PUSH2 0x1F59 JUMPI POP DUP9 JUMPDEST ISZERO PUSH2 0x1FDF JUMPI PUSH1 0x5 PUSH1 0x0 DUP13 PUSH20 0xFFFFFFFFFFFFFFFFFFFFFFFFFFFFFFFFFFFFFFFF AND PUSH20 0xFFFFFFFFFFFFFFFFFFFFFFFFFFFFFFFFFFFFFFFF AND DUP2 MSTORE PUSH1 0x20 ADD SWAP1 DUP2 MSTORE PUSH1 0x20 ADD PUSH1 0x0 KECCAK256 PUSH1 0x0 SWAP1 SLOAD SWAP1 PUSH2 0x100 EXP SWAP1 DIV PUSH1 0xFF AND PUSH2 0x1FCC JUMPI PUSH2 0x1FBB DUP11 PUSH1 0x8 SLOAD PUSH2 0x2529 JUMP JUMPDEST SWAP7 POP PUSH2 0x1FC9 DUP11 PUSH1 0xA SLOAD PUSH2 0x2529 JUMP JUMPDEST SWAP5 POP JUMPDEST DUP5 DUP8 PUSH2 0x1FD8 SWAP2 SWAP1 PUSH2 0x2FF6 JUMP JUMPDEST SWAP1 POP PUSH2 0x20B8 JUMP JUMPDEST PUSH1 0x6 PUSH1 0x0 DUP13 PUSH20 0xFFFFFFFFFFFFFFFFFFFFFFFFFFFFFFFFFFFFFFFF AND PUSH20 0xFFFFFFFFFFFFFFFFFFFFFFFFFFFFFFFFFFFFFFFF AND DUP2 MSTORE PUSH1 0x20 ADD SWAP1 DUP2 MSTORE PUSH1 0x20 ADD PUSH1 0x0 KECCAK256 PUSH1 0x0 SWAP1 SLOAD SWAP1 PUSH2 0x100 EXP SWAP1 DIV PUSH1 0xFF AND DUP1 ISZERO PUSH2 0x2035 JUMPI POP DUP8 JUMPDEST ISZERO PUSH2 0x20B7 JUMPI PUSH1 0x5 PUSH1 0x0 DUP14 PUSH20 0xFFFFFFFFFFFFFFFFFFFFFFFFFFFFFFFFFFFFFFFF AND PUSH20 0xFFFFFFFFFFFFFFFFFFFFFFFFFFFFFFFFFFFFFFFF AND DUP2 MSTORE PUSH1 0x20 ADD SWAP1 DUP2 MSTORE PUSH1 0x20 ADD PUSH1 0x0 KECCAK256 PUSH1 0x0 SWAP1 SLOAD SWAP1 PUSH2 0x100 EXP SWAP1 DIV PUSH1 0xFF AND PUSH2 0x20A8 JUMPI PUSH2 0x2097 DUP11 PUSH1 0x9 SLOAD PUSH2 0x2529 JUMP JUMPDEST SWAP6 POP PUSH2 0x20A5 DUP11 PUSH1 0xA SLOAD PUSH2 0x2529 JUMP JUMPDEST SWAP5 POP JUMPDEST DUP5 DUP7 PUSH2 0x20B4 SWAP2 SWAP1 PUSH2 0x2FF6 JUMP JUMPDEST SWAP1 POP JUMPDEST JUMPDEST PUSH1 0x0 DUP2 GT ISZERO PUSH2 0x20CD JUMPI PUSH2 0x20CC DUP13 ADDRESS DUP4 PUSH2 0x221D JUMP JUMPDEST JUMPDEST DUP1 DUP11 PUSH2 0x20D9 SWAP2 SWAP1 PUSH2 0x3715 JUMP JUMPDEST SWAP10 POP JUMPDEST PUSH2 0x20E7 DUP13 DUP13 DUP13 PUSH2 0x221D JUMP JUMPDEST POP POP POP POP POP POP POP POP POP JUMPDEST POP POP POP JUMP JUMPDEST PUSH1 0x0 CALLER SWAP1 POP SWAP1 JUMP JUMPDEST PUSH1 0x0 DUP1 PUSH1 0x0 SWAP1 SLOAD SWAP1 PUSH2 0x100 EXP SWAP1 DIV PUSH20 0xFFFFFFFFFFFFFFFFFFFFFFFFFFFFFFFFFFFFFFFF AND SWAP1 POP DUP2 PUSH1 0x0 DUP1 PUSH2 0x100 EXP DUP2 SLOAD DUP2 PUSH20 0xFFFFFFFFFFFFFFFFFFFFFFFFFFFFFFFFFFFFFFFF MUL NOT AND SWAP1 DUP4 PUSH20 0xFFFFFFFFFFFFFFFFFFFFFFFFFFFFFFFFFFFFFFFF AND MUL OR SWAP1 SSTORE POP DUP2 PUSH20 0xFFFFFFFFFFFFFFFFFFFFFFFFFFFFFFFFFFFFFFFF AND DUP2 PUSH20 0xFFFFFFFFFFFFFFFFFFFFFFFFFFFFFFFFFFFFFFFF AND PUSH32 0x8BE0079C531659141344CD1FD0A4F28419497F9722A3DAAFE3B4186F6B6457E0 PUSH1 0x40 MLOAD PUSH1 0x40 MLOAD DUP1 SWAP2 SUB SWAP1 LOG3 POP POP JUMP JUMPDEST DUP1 PUSH1 0x6 PUSH1 0x0 DUP5 PUSH20 0xFFFFFFFFFFFFFFFFFFFFFFFFFFFFFFFFFFFFFFFF AND PUSH20 0xFFFFFFFFFFFFFFFFFFFFFFFFFFFFFFFFFFFFFFFF AND DUP2 MSTORE PUSH1 0x20 ADD SWAP1 DUP2 MSTORE PUSH1 0x20 ADD PUSH1 0x0 KECCAK256 PUSH1 0x0 PUSH2 0x100 EXP DUP2 SLOAD DUP2 PUSH1 0xFF MUL NOT AND SWAP1 DUP4 ISZERO ISZERO MUL OR SWAP1 SSTORE POP POP POP JUMP JUMPDEST PUSH1 0x0 PUSH1 0x2 PUSH1 0x0 DUP6 PUSH20 0xFFFFFFFFFFFFFFFFFFFFFFFFFFFFFFFFFFFFFFFF AND PUSH20 0xFFFFFFFFFFFFFFFFFFFFFFFFFFFFFFFFFFFFFFFF AND DUP2 MSTORE PUSH1 0x20 ADD SWAP1 DUP2 MSTORE PUSH1 0x20 ADD PUSH1 0x0 KECCAK256 SLOAD SWAP1 POP DUP2 DUP2 LT ISZERO PUSH2 0x22A4 JUMPI PUSH1 0x40 MLOAD PUSH32 0x8C379A000000000000000000000000000000000000000000000000000000000 DUP2 MSTORE PUSH1 0x4 ADD PUSH2 0x229B SWAP1 PUSH2 0x37BB JUMP JUMPDEST PUSH1 0x40 MLOAD DUP1 SWAP2 SUB SWAP1 REVERT JUMPDEST DUP2 DUP2 SUB PUSH1 0x2 PUSH1 0x0 DUP7 PUSH20 0xFFFFFFFFFFFFFFFFFFFFFFFFFFFFFFFFFFFFFFFF AND PUSH20 0xFFFFFFFFFFFFFFFFFFFFFFFFFFFFFFFFFFFFFFFF AND DUP2 MSTORE PUSH1 0x20 ADD SWAP1 DUP2 MSTORE PUSH1 0x20 ADD PUSH1 0x0 KECCAK256 DUP2 SWAP1 SSTORE POP DUP2 PUSH1 0x2 PUSH1 0x0 DUP6 PUSH20 0xFFFFFFFFFFFFFFFFFFFFFFFFFFFFFFFFFFFFFFFF AND PUSH20 0xFFFFFFFFFFFFFFFFFFFFFFFFFFFFFFFFFFFFFFFF AND DUP2 MSTORE PUSH1 0x20 ADD SWAP1 DUP2 MSTORE PUSH1 0x20 ADD PUSH1 0x0 KECCAK256 PUSH1 0x0 DUP3 DUP3 SLOAD ADD SWAP3 POP POP DUP2 SWAP1 SSTORE POP DUP3 PUSH20 0xFFFFFFFFFFFFFFFFFFFFFFFFFFFFFFFFFFFFFFFF AND DUP5 PUSH20 0xFFFFFFFFFFFFFFFFFFFFFFFFFFFFFFFFFFFFFFFF AND PUSH32 0xDDF252AD1BE2C89B69C2B068FC378DAA952BA7F163C4A11628F55A4DF523B3EF DUP5 PUSH1 0x40 MLOAD PUSH2 0x2394 SWAP2 SWAP1 PUSH2 0x2ABE JUMP JUMPDEST PUSH1 0x40 MLOAD DUP1 SWAP2 SUB SWAP1 LOG3 POP POP POP POP JUMP JUMPDEST PUSH1 0x0 PUSH2 0x23AD ADDRESS PUSH2 0xFD1 JUMP JUMPDEST SWAP1 POP PUSH1 0x0 DUP2 SUB PUSH2 0x23BD JUMPI POP PUSH2 0x2527 JUMP JUMPDEST PUSH1 0x0 PUSH1 0x2 PUSH3 0x186A0 PUSH1 0xE SLOAD DUP5 PUSH2 0x23D3 SWAP2 SWAP1 PUSH2 0x302A JUMP JUMPDEST PUSH2 0x23DD SWAP2 SWAP1 PUSH2 0x309B JUMP JUMPDEST PUSH2 0x23E7 SWAP2 SWAP1 PUSH2 0x309B JUMP JUMPDEST SWAP1 POP PUSH1 0x0 DUP2 DUP4 PUSH2 0x23F7 SWAP2 SWAP1 PUSH2 0x3715 JUMP JUMPDEST SWAP1 POP PUSH1 0x0 SELFBALANCE SWAP1 POP PUSH2 0x2407 DUP3 PUSH2 0x254D JUMP JUMPDEST PUSH1 0x0 DUP2 SELFBALANCE PUSH2 0x2415 SWAP2 SWAP1 PUSH2 0x3715 JUMP JUMPDEST SWAP1 POP PUSH1 0x0 DUP1 PUSH3 0x186A0 PUSH1 0xC SLOAD DUP5 PUSH2 0x242C SWAP2 SWAP1 PUSH2 0x302A JUMP JUMPDEST PUSH2 0x2436 SWAP2 SWAP1 PUSH2 0x309B JUMP JUMPDEST SWAP1 POP PUSH1 0x0 PUSH3 0x186A0 PUSH1 0xD SLOAD DUP6 PUSH2 0x244C SWAP2 SWAP1 PUSH2 0x302A JUMP JUMPDEST PUSH2 0x2456 SWAP2 SWAP1 PUSH2 0x309B JUMP JUMPDEST SWAP1 POP PUSH1 0x0 DUP2 DUP4 PUSH2 0x2466 SWAP2 SWAP1 PUSH2 0x2FF6 JUMP JUMPDEST SWAP1 POP DUP1 DUP6 PUSH2 0x2474 SWAP2 SWAP1 PUSH2 0x3715 JUMP JUMPDEST SWAP5 POP PUSH1 0x7 PUSH1 0x0 SWAP1 SLOAD SWAP1 PUSH2 0x100 EXP SWAP1 DIV PUSH20 0xFFFFFFFFFFFFFFFFFFFFFFFFFFFFFFFFFFFFFFFF AND PUSH20 0xFFFFFFFFFFFFFFFFFFFFFFFFFFFFFFFFFFFFFFFF AND DUP2 PUSH2 0x88B8 SWAP1 PUSH1 0x40 MLOAD PUSH2 0x24C0 SWAP1 PUSH2 0x380C JUMP JUMPDEST PUSH1 0x0 PUSH1 0x40 MLOAD DUP1 DUP4 SUB DUP2 DUP6 DUP9 DUP9 CALL SWAP4 POP POP POP POP RETURNDATASIZE DUP1 PUSH1 0x0 DUP2 EQ PUSH2 0x24FE JUMPI PUSH1 0x40 MLOAD SWAP2 POP PUSH1 0x1F NOT PUSH1 0x3F RETURNDATASIZE ADD AND DUP3 ADD PUSH1 0x40 MSTORE RETURNDATASIZE DUP3 MSTORE RETURNDATASIZE PUSH1 0x0 PUSH1 0x20 DUP5 ADD RETURNDATACOPY PUSH2 0x2503 JUMP JUMPDEST PUSH1 0x60 SWAP2 POP JUMPDEST POP POP DUP1 SWAP5 POP POP PUSH1 0x0 DUP6 GT ISZERO PUSH2 0x251D JUMPI PUSH2 0x251C DUP9 DUP7 PUSH2 0x2790 JUMP JUMPDEST JUMPDEST POP POP POP POP POP POP POP POP POP JUMPDEST JUMP JUMPDEST PUSH1 0x0 PUSH3 0x186A0 DUP3 DUP5 PUSH2 0x253B SWAP2 SWAP1 PUSH2 0x302A JUMP JUMPDEST PUSH2 0x2545 SWAP2 SWAP1 PUSH2 0x309B JUMP JUMPDEST SWAP1 POP SWAP3 SWAP2 POP POP JUMP JUMPDEST PUSH1 0x0 PUSH1 0x2 PUSH8 0xFFFFFFFFFFFFFFFF DUP2 GT ISZERO PUSH2 0x256A JUMPI PUSH2 0x2569 PUSH2 0x3821 JUMP JUMPDEST JUMPDEST PUSH1 0x40 MLOAD SWAP1 DUP1 DUP3 MSTORE DUP1 PUSH1 0x20 MUL PUSH1 0x20 ADD DUP3 ADD PUSH1 0x40 MSTORE DUP1 ISZERO PUSH2 0x2598 JUMPI DUP2 PUSH1 0x20 ADD PUSH1 0x20 DUP3 MUL DUP1 CALLDATASIZE DUP4 CALLDATACOPY DUP1 DUP3 ADD SWAP2 POP POP SWAP1 POP JUMPDEST POP SWAP1 POP ADDRESS DUP2 PUSH1 0x0 DUP2 MLOAD DUP2 LT PUSH2 0x25B0 JUMPI PUSH2 0x25AF PUSH2 0x315E JUMP JUMPDEST JUMPDEST PUSH1 0x20 MUL PUSH1 0x20 ADD ADD SWAP1 PUSH20 0xFFFFFFFFFFFFFFFFFFFFFFFFFFFFFFFFFFFFFFFF AND SWAP1 DUP2 PUSH20 0xFFFFFFFFFFFFFFFFFFFFFFFFFFFFFFFFFFFFFFFF AND DUP2 MSTORE POP POP PUSH1 0xF PUSH1 0x0 SWAP1 SLOAD SWAP1 PUSH2 0x100 EXP SWAP1 DIV PUSH20 0xFFFFFFFFFFFFFFFFFFFFFFFFFFFFFFFFFFFFFFFF AND PUSH20 0xFFFFFFFFFFFFFFFFFFFFFFFFFFFFFFFFFFFFFFFF AND PUSH4 0xAD5C4648 PUSH1 0x40 MLOAD DUP2 PUSH4 0xFFFFFFFF AND PUSH1 0xE0 SHL DUP2 MSTORE PUSH1 0x4 ADD PUSH1 0x20 PUSH1 0x40 MLOAD DUP1 DUP4 SUB DUP2 DUP7 GAS STATICCALL ISZERO DUP1 ISZERO PUSH2 0x2657 JUMPI RETURNDATASIZE PUSH1 0x0 DUP1 RETURNDATACOPY RETURNDATASIZE PUSH1 0x0 REVERT JUMPDEST POP POP POP POP PUSH1 0x40 MLOAD RETURNDATASIZE PUSH1 0x1F NOT PUSH1 0x1F DUP3 ADD AND DUP3 ADD DUP1 PUSH1 0x40 MSTORE POP DUP2 ADD SWAP1 PUSH2 0x267B SWAP2 SWAP1 PUSH2 0x3865 JUMP JUMPDEST DUP2 PUSH1 0x1 DUP2 MLOAD DUP2 LT PUSH2 0x268F JUMPI PUSH2 0x268E PUSH2 0x315E JUMP JUMPDEST JUMPDEST PUSH1 0x20 MUL PUSH1 0x20 ADD ADD SWAP1 PUSH20 0xFFFFFFFFFFFFFFFFFFFFFFFFFFFFFFFFFFFFFFFF AND SWAP1 DUP2 PUSH20 0xFFFFFFFFFFFFFFFFFFFFFFFFFFFFFFFFFFFFFFFF AND DUP2 MSTORE POP POP PUSH2 0x26F6 ADDRESS PUSH1 0xF PUSH1 0x0 SWAP1 SLOAD SWAP1 PUSH2 0x100 EXP SWAP1 DIV PUSH20 0xFFFFFFFFFFFFFFFFFFFFFFFFFFFFFFFFFFFFFFFF AND DUP5 PUSH2 0x161E JUMP JUMPDEST PUSH1 0xF PUSH1 0x0 SWAP1 SLOAD SWAP1 PUSH2 0x100 EXP SWAP1 DIV PUSH20 0xFFFFFFFFFFFFFFFFFFFFFFFFFFFFFFFFFFFFFFFF AND PUSH20 0xFFFFFFFFFFFFFFFFFFFFFFFFFFFFFFFFFFFFFFFF AND PUSH4 0x791AC947 DUP4 PUSH1 0x0 DUP5 ADDRESS TIMESTAMP PUSH1 0x40 MLOAD DUP7 PUSH4 0xFFFFFFFF AND PUSH1 0xE0 SHL DUP2 MSTORE PUSH1 0x4 ADD PUSH2 0x275A SWAP6 SWAP5 SWAP4 SWAP3 SWAP2 SWAP1 PUSH2 0x398B JUMP JUMPDEST PUSH1 0x0 PUSH1 0x40 MLOAD DUP1 DUP4 SUB DUP2 PUSH1 0x0 DUP8 DUP1 EXTCODESIZE ISZERO DUP1 ISZERO PUSH2 0x2774 JUMPI PUSH1 0x0 DUP1 REVERT JUMPDEST POP GAS CALL ISZERO DUP1 ISZERO PUSH2 0x2788 JUMPI RETURNDATASIZE PUSH1 0x0 DUP1 RETURNDATACOPY RETURNDATASIZE PUSH1 0x0 REVERT JUMPDEST POP POP POP POP POP POP JUMP JUMPDEST PUSH2 0x27BD ADDRESS PUSH1 0xF PUSH1 0x0 SWAP1 SLOAD SWAP1 PUSH2 0x100 EXP SWAP1 DIV PUSH20 0xFFFFFFFFFFFFFFFFFFFFFFFFFFFFFFFFFFFFFFFF AND DUP5 PUSH2 0x161E JUMP JUMPDEST PUSH1 0xF PUSH1 0x0 SWAP1 SLOAD SWAP1 PUSH2 0x100 EXP SWAP1 DIV PUSH20 0xFFFFFFFFFFFFFFFFFFFFFFFFFFFFFFFFFFFFFFFF AND PUSH20 0xFFFFFFFFFFFFFFFFFFFFFFFFFFFFFFFFFFFFFFFF AND PUSH4 0xF305D719 DUP3 ADDRESS DUP6 PUSH1 0x0 DUP1 PUSH1 0x0 TIMESTAMP PUSH1 0x40 MLOAD DUP9 PUSH4 0xFFFFFFFF AND PUSH1 0xE0 SHL DUP2 MSTORE PUSH1 0x4 ADD PUSH2 0x2825 SWAP7 SWAP6 SWAP5 SWAP4 SWAP3 SWAP2 SWAP1 PUSH2 0x39E5 JUMP JUMPDEST PUSH1 0x60 PUSH1 0x40 MLOAD DUP1 DUP4 SUB DUP2 DUP6 DUP9 GAS CALL ISZERO DUP1 ISZERO PUSH2 0x2843 JUMPI RETURNDATASIZE PUSH1 0x0 DUP1 RETURNDATACOPY RETURNDATASIZE PUSH1 0x0 REVERT JUMPDEST POP POP POP POP POP PUSH1 0x40 MLOAD RETURNDATASIZE PUSH1 0x1F NOT PUSH1 0x1F DUP3 ADD AND DUP3 ADD DUP1 PUSH1 0x40 MSTORE POP DUP2 ADD SWAP1 PUSH2 0x2868 SWAP2 SWAP1 PUSH2 0x3A5B JUMP JUMPDEST POP POP POP POP POP JUMP JUMPDEST PUSH1 0x0 DUP2 MLOAD SWAP1 POP SWAP2 SWAP1 POP JUMP JUMPDEST PUSH1 0x0 DUP3 DUP3 MSTORE PUSH1 0x20 DUP3 ADD SWAP1 POP SWAP3 SWAP2 POP POP JUMP JUMPDEST PUSH1 0x0 JUMPDEST DUP4 DUP2 LT ISZERO PUSH2 0x28A9 JUMPI DUP1 DUP3 ADD MLOAD DUP2 DUP5 ADD MSTORE PUSH1 0x20 DUP2 ADD SWAP1 POP PUSH2 0x288E JUMP JUMPDEST PUSH1 0x0 DUP5 DUP5 ADD MSTORE POP POP POP POP JUMP JUMPDEST PUSH1 0x0 PUSH1 0x1F NOT PUSH1 0x1F DUP4 ADD AND SWAP1 POP SWAP2 SWAP1 POP JUMP JUMPDEST PUSH1 0x0 PUSH2 0x28D1 DUP3 PUSH2 0x286F JUMP JUMPDEST PUSH2 0x28DB DUP2 DUP6 PUSH2 0x287A JUMP JUMPDEST SWAP4 POP PUSH2 0x28EB DUP2 DUP6 PUSH1 0x20 DUP7 ADD PUSH2 0x288B JUMP JUMPDEST PUSH2 0x28F4 DUP2 PUSH2 0x28B5 JUMP JUMPDEST DUP5 ADD SWAP2 POP POP SWAP3 SWAP2 POP POP JUMP JUMPDEST PUSH1 0x0 PUSH1 0x20 DUP3 ADD SWAP1 POP DUP2 DUP2 SUB PUSH1 0x0 DUP4 ADD MSTORE PUSH2 0x2919 DUP2 DUP5 PUSH2 0x28C6 JUMP JUMPDEST SWAP1 POP SWAP3 SWAP2 POP POP JUMP JUMPDEST PUSH1 0x0 DUP1 REVERT JUMPDEST PUSH1 0x0 DUP1 REVERT JUMPDEST PUSH1 0x0 PUSH20 0xFFFFFFFFFFFFFFFFFFFFFFFFFFFFFFFFFFFFFFFF DUP3 AND SWAP1 POP SWAP2 SWAP1 POP JUMP JUMPDEST PUSH1 0x0 PUSH2 0x2956 DUP3 PUSH2 0x292B JUMP JUMPDEST SWAP1 POP SWAP2 SWAP1 POP JUMP JUMPDEST PUSH2 0x2966 DUP2 PUSH2 0x294B JUMP JUMPDEST DUP2 EQ PUSH2 0x2971 JUMPI PUSH1 0x0 DUP1 REVERT JUMPDEST POP JUMP JUMPDEST PUSH1 0x0 DUP2 CALLDATALOAD SWAP1 POP PUSH2 0x2983 DUP2 PUSH2 0x295D JUMP JUMPDEST SWAP3 SWAP2 POP POP JUMP JUMPDEST PUSH1 0x0 DUP2 SWAP1 POP SWAP2 SWAP1 POP JUMP JUMPDEST PUSH2 0x299C DUP2 PUSH2 0x2989 JUMP JUMPDEST DUP2 EQ PUSH2 0x29A7 JUMPI PUSH1 0x0 DUP1 REVERT JUMPDEST POP JUMP JUMPDEST PUSH1 0x0 DUP2 CALLDATALOAD SWAP1 POP PUSH2 0x29B9 DUP2 PUSH2 0x2993 JUMP JUMPDEST SWAP3 SWAP2 POP POP JUMP JUMPDEST PUSH1 0x0 DUP1 PUSH1 0x40 DUP4 DUP6 SUB SLT ISZERO PUSH2 0x29D6 JUMPI PUSH2 0x29D5 PUSH2 0x2921 JUMP JUMPDEST JUMPDEST PUSH1 0x0 PUSH2 0x29E4 DUP6 DUP3 DUP7 ADD PUSH2 0x2974 JUMP JUMPDEST SWAP3 POP POP PUSH1 0x20 PUSH2 0x29F5 DUP6 DUP3 DUP7 ADD PUSH2 0x29AA JUMP JUMPDEST SWAP2 POP POP SWAP3 POP SWAP3 SWAP1 POP JUMP JUMPDEST PUSH1 0x0 DUP2 ISZERO ISZERO SWAP1 POP SWAP2 SWAP1 POP JUMP JUMPDEST PUSH2 0x2A14 DUP2 PUSH2 0x29FF JUMP JUMPDEST DUP3 MSTORE POP POP JUMP JUMPDEST PUSH1 0x0 PUSH1 0x20 DUP3 ADD SWAP1 POP PUSH2 0x2A2F PUSH1 0x0 DUP4 ADD DUP5 PUSH2 0x2A0B JUMP JUMPDEST SWAP3 SWAP2 POP POP JUMP JUMPDEST PUSH1 0x0 DUP2 SWAP1 POP SWAP2 SWAP1 POP JUMP JUMPDEST PUSH1 0x0 PUSH2 0x2A5A PUSH2 0x2A55 PUSH2 0x2A50 DUP5 PUSH2 0x292B JUMP JUMPDEST PUSH2 0x2A35 JUMP JUMPDEST PUSH2 0x292B JUMP JUMPDEST SWAP1 POP SWAP2 SWAP1 POP JUMP JUMPDEST PUSH1 0x0 PUSH2 0x2A6C DUP3 PUSH2 0x2A3F JUMP JUMPDEST SWAP1 POP SWAP2 SWAP1 POP JUMP JUMPDEST PUSH1 0x0 PUSH2 0x2A7E DUP3 PUSH2 0x2A61 JUMP JUMPDEST SWAP1 POP SWAP2 SWAP1 POP JUMP JUMPDEST PUSH2 0x2A8E DUP2 PUSH2 0x2A73 JUMP JUMPDEST DUP3 MSTORE POP POP JUMP JUMPDEST PUSH1 0x0 PUSH1 0x20 DUP3 ADD SWAP1 POP PUSH2 0x2AA9 PUSH1 0x0 DUP4 ADD DUP5 PUSH2 0x2A85 JUMP JUMPDEST SWAP3 SWAP2 POP POP JUMP JUMPDEST PUSH2 0x2AB8 DUP2 PUSH2 0x2989 JUMP JUMPDEST DUP3 MSTORE POP POP JUMP JUMPDEST PUSH1 0x0 PUSH1 0x20 DUP3 ADD SWAP1 POP PUSH2 0x2AD3 PUSH1 0x0 DUP4 ADD DUP5 PUSH2 0x2AAF JUMP JUMPDEST SWAP3 SWAP2 POP POP JUMP JUMPDEST PUSH1 0x0 DUP1 PUSH1 0x0 PUSH1 0x60 DUP5 DUP7 SUB SLT ISZERO PUSH2 0x2AF2 JUMPI PUSH2 0x2AF1 PUSH2 0x2921 JUMP JUMPDEST JUMPDEST PUSH1 0x0 PUSH2 0x2B00 DUP7 DUP3 DUP8 ADD PUSH2 0x2974 JUMP JUMPDEST SWAP4 POP POP PUSH1 0x20 PUSH2 0x2B11 DUP7 DUP3 DUP8 ADD PUSH2 0x2974 JUMP JUMPDEST SWAP3 POP POP PUSH1 0x40 PUSH2 0x2B22 DUP7 DUP3 DUP8 ADD PUSH2 0x29AA JUMP JUMPDEST SWAP2 POP POP SWAP3 POP SWAP3 POP SWAP3 JUMP JUMPDEST PUSH1 0x0 PUSH1 0xFF DUP3 AND SWAP1 POP SWAP2 SWAP1 POP JUMP JUMPDEST PUSH2 0x2B42 DUP2 PUSH2 0x2B2C JUMP JUMPDEST DUP3 MSTORE POP POP JUMP JUMPDEST PUSH1 0x0 PUSH1 0x20 DUP3 ADD SWAP1 POP PUSH2 0x2B5D PUSH1 0x0 DUP4 ADD DUP5 PUSH2 0x2B39 JUMP JUMPDEST SWAP3 SWAP2 POP POP JUMP JUMPDEST PUSH1 0x0 PUSH1 0x20 DUP3 DUP5 SUB SLT ISZERO PUSH2 0x2B79 JUMPI PUSH2 0x2B78 PUSH2 0x2921 JUMP JUMPDEST JUMPDEST PUSH1 0x0 PUSH2 0x2B87 DUP5 DUP3 DUP6 ADD PUSH2 0x2974 JUMP JUMPDEST SWAP2 POP POP SWAP3 SWAP2 POP POP JUMP JUMPDEST PUSH1 0x0 PUSH1 0x20 DUP3 DUP5 SUB SLT ISZERO PUSH2 0x2BA6 JUMPI PUSH2 0x2BA5 PUSH2 0x2921 JUMP JUMPDEST JUMPDEST PUSH1 0x0 PUSH2 0x2BB4 DUP5 DUP3 DUP6 ADD PUSH2 0x29AA JUMP JUMPDEST SWAP2 POP POP SWAP3 SWAP2 POP POP JUMP JUMPDEST PUSH2 0x2BC6 DUP2 PUSH2 0x294B JUMP JUMPDEST DUP3 MSTORE POP POP JUMP JUMPDEST PUSH1 0x0 PUSH1 0x20 DUP3 ADD SWAP1 POP PUSH2 0x2BE1 PUSH1 0x0 DUP4 ADD DUP5 PUSH2 0x2BBD JUMP JUMPDEST SWAP3 SWAP2 POP POP JUMP JUMPDEST PUSH2 0x2BF0 DUP2 PUSH2 0x29FF JUMP JUMPDEST DUP2 EQ PUSH2 0x2BFB JUMPI PUSH1 0x0 DUP1 REVERT JUMPDEST POP JUMP JUMPDEST PUSH1 0x0 DUP2 CALLDATALOAD SWAP1 POP PUSH2 0x2C0D DUP2 PUSH2 0x2BE7 JUMP JUMPDEST SWAP3 SWAP2 POP POP JUMP JUMPDEST PUSH1 0x0 DUP1 PUSH1 0x40 DUP4 DUP6 SUB SLT ISZERO PUSH2 0x2C2A JUMPI PUSH2 0x2C29 PUSH2 0x2921 JUMP JUMPDEST JUMPDEST PUSH1 0x0 PUSH2 0x2C38 DUP6 DUP3 DUP7 ADD PUSH2 0x2974 JUMP JUMPDEST SWAP3 POP POP PUSH1 0x20 PUSH2 0x2C49 DUP6 DUP3 DUP7 ADD PUSH2 0x2BFE JUMP JUMPDEST SWAP2 POP POP SWAP3 POP SWAP3 SWAP1 POP JUMP JUMPDEST PUSH1 0x0 PUSH1 0x20 DUP3 DUP5 SUB SLT ISZERO PUSH2 0x2C69 JUMPI PUSH2 0x2C68 PUSH2 0x2921 JUMP JUMPDEST JUMPDEST PUSH1 0x0 PUSH2 0x2C77 DUP5 DUP3 DUP6 ADD PUSH2 0x2BFE JUMP JUMPDEST SWAP2 POP POP SWAP3 SWAP2 POP POP JUMP JUMPDEST PUSH1 0x0 DUP1 REVERT JUMPDEST PUSH1 0x0 DUP1 REVERT JUMPDEST PUSH1 0x0 DUP1 REVERT JUMPDEST PUSH1 0x0 DUP1 DUP4 PUSH1 0x1F DUP5 ADD SLT PUSH2 0x2CA5 JUMPI PUSH2 0x2CA4 PUSH2 0x2C80 JUMP JUMPDEST JUMPDEST DUP3 CALLDATALOAD SWAP1 POP PUSH8 0xFFFFFFFFFFFFFFFF DUP2 GT ISZERO PUSH2 0x2CC2 JUMPI PUSH2 0x2CC1 PUSH2 0x2C85 JUMP JUMPDEST JUMPDEST PUSH1 0x20 DUP4 ADD SWAP2 POP DUP4 PUSH1 0x20 DUP3 MUL DUP4 ADD GT ISZERO PUSH2 0x2CDE JUMPI PUSH2 0x2CDD PUSH2 0x2C8A JUMP JUMPDEST JUMPDEST SWAP3 POP SWAP3 SWAP1 POP JUMP JUMPDEST PUSH1 0x0 DUP1 PUSH1 0x0 PUSH1 0x40 DUP5 DUP7 SUB SLT ISZERO PUSH2 0x2CFE JUMPI PUSH2 0x2CFD PUSH2 0x2921 JUMP JUMPDEST JUMPDEST PUSH1 0x0 DUP5 ADD CALLDATALOAD PUSH8 0xFFFFFFFFFFFFFFFF DUP2 GT ISZERO PUSH2 0x2D1C JUMPI PUSH2 0x2D1B PUSH2 0x2926 JUMP JUMPDEST JUMPDEST PUSH2 0x2D28 DUP7 DUP3 DUP8 ADD PUSH2 0x2C8F JUMP JUMPDEST SWAP4 POP SWAP4 POP POP PUSH1 0x20 PUSH2 0x2D3B DUP7 DUP3 DUP8 ADD PUSH2 0x29AA JUMP JUMPDEST SWAP2 POP POP SWAP3 POP SWAP3 POP SWAP3 JUMP JUMPDEST PUSH1 0x0 DUP1 PUSH1 0x40 DUP4 DUP6 SUB SLT ISZERO PUSH2 0x2D5C JUMPI PUSH2 0x2D5B PUSH2 0x2921 JUMP JUMPDEST JUMPDEST PUSH1 0x0 PUSH2 0x2D6A DUP6 DUP3 DUP7 ADD PUSH2 0x2974 JUMP JUMPDEST SWAP3 POP POP PUSH1 0x20 PUSH2 0x2D7B DUP6 DUP3 DUP7 ADD PUSH2 0x2974 JUMP JUMPDEST SWAP2 POP POP SWAP3 POP SWAP3 SWAP1 POP JUMP JUMPDEST PUSH32 0x4163636F756E7420697320616C726561647920626C61636B6C69737465640000 PUSH1 0x0 DUP3 ADD MSTORE POP JUMP JUMPDEST PUSH1 0x0 PUSH2 0x2DBB PUSH1 0x1E DUP4 PUSH2 0x287A JUMP JUMPDEST SWAP2 POP PUSH2 0x2DC6 DUP3 PUSH2 0x2D85 JUMP JUMPDEST PUSH1 0x20 DUP3 ADD SWAP1 POP SWAP2 SWAP1 POP JUMP JUMPDEST PUSH1 0x0 PUSH1 0x20 DUP3 ADD SWAP1 POP DUP2 DUP2 SUB PUSH1 0x0 DUP4 ADD MSTORE PUSH2 0x2DEA DUP2 PUSH2 0x2DAE JUMP JUMPDEST SWAP1 POP SWAP2 SWAP1 POP JUMP JUMPDEST PUSH32 0x43616E6E6F7420626C61636B6C6973742073656C660000000000000000000000 PUSH1 0x0 DUP3 ADD MSTORE POP JUMP JUMPDEST PUSH1 0x0 PUSH2 0x2E27 PUSH1 0x15 DUP4 PUSH2 0x287A JUMP JUMPDEST SWAP2 POP PUSH2 0x2E32 DUP3 PUSH2 0x2DF1 JUMP JUMPDEST PUSH1 0x20 DUP3 ADD SWAP1 POP SWAP2 SWAP1 POP JUMP JUMPDEST PUSH1 0x0 PUSH1 0x20 DUP3 ADD SWAP1 POP DUP2 DUP2 SUB PUSH1 0x0 DUP4 ADD MSTORE PUSH2 0x2E56 DUP2 PUSH2 0x2E1A JUMP JUMPDEST SWAP1 POP SWAP2 SWAP1 POP JUMP JUMPDEST PUSH32 0x4163636F756E74206973206E6F7420626C61636B6C6973746564000000000000 PUSH1 0x0 DUP3 ADD MSTORE POP JUMP JUMPDEST PUSH1 0x0 PUSH2 0x2E93 PUSH1 0x1A DUP4 PUSH2 0x287A JUMP JUMPDEST SWAP2 POP PUSH2 0x2E9E DUP3 PUSH2 0x2E5D JUMP JUMPDEST PUSH1 0x20 DUP3 ADD SWAP1 POP SWAP2 SWAP1 POP JUMP JUMPDEST PUSH1 0x0 PUSH1 0x20 DUP3 ADD SWAP1 POP DUP2 DUP2 SUB PUSH1 0x0 DUP4 ADD MSTORE PUSH2 0x2EC2 DUP2 PUSH2 0x2E86 JUMP JUMPDEST SWAP1 POP SWAP2 SWAP1 POP JUMP JUMPDEST PUSH32 0x43616E6E6F742072656D6F76652073656C662066726F6D20626C61636B6C6973 PUSH1 0x0 DUP3 ADD MSTORE PUSH32 0x7400000000000000000000000000000000000000000000000000000000000000 PUSH1 0x20 DUP3 ADD MSTORE POP JUMP JUMPDEST PUSH1 0x0 PUSH2 0x2F25 PUSH1 0x21 DUP4 PUSH2 0x287A JUMP JUMPDEST SWAP2 POP PUSH2 0x2F30 DUP3 PUSH2 0x2EC9 JUMP JUMPDEST PUSH1 0x40 DUP3 ADD SWAP1 POP SWAP2 SWAP1 POP JUMP JUMPDEST PUSH1 0x0 PUSH1 0x20 DUP3 ADD SWAP1 POP DUP2 DUP2 SUB PUSH1 0x0 DUP4 ADD MSTORE PUSH2 0x2F54 DUP2 PUSH2 0x2F18 JUMP JUMPDEST SWAP1 POP SWAP2 SWAP1 POP JUMP JUMPDEST PUSH32 0x5461782070657263656E746167652063616E6E6F742065786365656420313030 PUSH1 0x0 DUP3 ADD MSTORE POP JUMP JUMPDEST PUSH1 0x0 PUSH2 0x2F91 PUSH1 0x20 DUP4 PUSH2 0x287A JUMP JUMPDEST SWAP2 POP PUSH2 0x2F9C DUP3 PUSH2 0x2F5B JUMP JUMPDEST PUSH1 0x20 DUP3 ADD SWAP1 POP SWAP2 SWAP1 POP JUMP JUMPDEST PUSH1 0x0 PUSH1 0x20 DUP3 ADD SWAP1 POP DUP2 DUP2 SUB PUSH1 0x0 DUP4 ADD MSTORE PUSH2 0x2FC0 DUP2 PUSH2 0x2F84 JUMP JUMPDEST SWAP1 POP SWAP2 SWAP1 POP JUMP JUMPDEST PUSH32 0x4E487B7100000000000000000000000000000000000000000000000000000000 PUSH1 0x0 MSTORE PUSH1 0x11 PUSH1 0x4 MSTORE PUSH1 0x24 PUSH1 0x0 REVERT JUMPDEST PUSH1 0x0 PUSH2 0x3001 DUP3 PUSH2 0x2989 JUMP JUMPDEST SWAP2 POP PUSH2 0x300C DUP4 PUSH2 0x2989 JUMP JUMPDEST SWAP3 POP DUP3 DUP3 ADD SWAP1 POP DUP1 DUP3 GT ISZERO PUSH2 0x3024 JUMPI PUSH2 0x3023 PUSH2 0x2FC7 JUMP JUMPDEST JUMPDEST SWAP3 SWAP2 POP POP JUMP JUMPDEST PUSH1 0x0 PUSH2 0x3035 DUP3 PUSH2 0x2989 JUMP JUMPDEST SWAP2 POP PUSH2 0x3040 DUP4 PUSH2 0x2989 JUMP JUMPDEST SWAP3 POP DUP3 DUP3 MUL PUSH2 0x304E DUP2 PUSH2 0x2989 JUMP JUMPDEST SWAP2 POP DUP3 DUP3 DIV DUP5 EQ DUP4 ISZERO OR PUSH2 0x3065 JUMPI PUSH2 0x3064 PUSH2 0x2FC7 JUMP JUMPDEST JUMPDEST POP SWAP3 SWAP2 POP POP JUMP JUMPDEST PUSH32 0x4E487B7100000000000000000000000000000000000000000000000000000000 PUSH1 0x0 MSTORE PUSH1 0x12 PUSH1 0x4 MSTORE PUSH1 0x24 PUSH1 0x0 REVERT JUMPDEST PUSH1 0x0 PUSH2 0x30A6 DUP3 PUSH2 0x2989 JUMP JUMPDEST SWAP2 POP PUSH2 0x30B1 DUP4 PUSH2 0x2989 JUMP JUMPDEST SWAP3 POP DUP3 PUSH2 0x30C1 JUMPI PUSH2 0x30C0 PUSH2 0x306C JUMP JUMPDEST JUMPDEST DUP3 DUP3 DIV SWAP1 POP SWAP3 SWAP2 POP POP JUMP JUMPDEST PUSH32 0x54686520706169722063616E6E6F742062652072656D6F7665642066726F6D20 PUSH1 0x0 DUP3 ADD MSTORE PUSH32 0x6175746F6D617465644D61726B65744D616B6572506169727300000000000000 PUSH1 0x20 DUP3 ADD MSTORE POP JUMP JUMPDEST PUSH1 0x0 PUSH2 0x3128 PUSH1 0x39 DUP4 PUSH2 0x287A JUMP JUMPDEST SWAP2 POP PUSH2 0x3133 DUP3 PUSH2 0x30CC JUMP JUMPDEST PUSH1 0x40 DUP3 ADD SWAP1 POP SWAP2 SWAP1 POP JUMP JUMPDEST PUSH1 0x0 PUSH1 0x20 DUP3 ADD SWAP1 POP DUP2 DUP2 SUB PUSH1 0x0 DUP4 ADD MSTORE PUSH2 0x3157 DUP2 PUSH2 0x311B JUMP JUMPDEST SWAP1 POP SWAP2 SWAP1 POP JUMP JUMPDEST PUSH32 0x4E487B7100000000000000000000000000000000000000000000000000000000 PUSH1 0x0 MSTORE PUSH1 0x32 PUSH1 0x4 MSTORE PUSH1 0x24 PUSH1 0x0 REVERT JUMPDEST PUSH32 0x45524332303A207472616E7366657220746F20746865207A65726F2061646472 PUSH1 0x0 DUP3 ADD MSTORE PUSH32 0x6573730000000000000000000000000000000000000000000000000000000000 PUSH1 0x20 DUP3 ADD MSTORE POP JUMP JUMPDEST PUSH1 0x0 PUSH2 0x31E9 PUSH1 0x23 DUP4 PUSH2 0x287A JUMP JUMPDEST SWAP2 POP PUSH2 0x31F4 DUP3 PUSH2 0x318D JUMP JUMPDEST PUSH1 0x40 DUP3 ADD SWAP1 POP SWAP2 SWAP1 POP JUMP JUMPDEST PUSH1 0x0 PUSH1 0x20 DUP3 ADD SWAP1 POP DUP2 DUP2 SUB PUSH1 0x0 DUP4 ADD MSTORE PUSH2 0x3218 DUP2 PUSH2 0x31DC JUMP JUMPDEST SWAP1 POP SWAP2 SWAP1 POP JUMP JUMPDEST PUSH32 0x4F776E61626C653A206E6577206F776E657220697320746865207A65726F2061 PUSH1 0x0 DUP3 ADD MSTORE PUSH32 0x6464726573730000000000000000000000000000000000000000000000000000 PUSH1 0x20 DUP3 ADD MSTORE POP JUMP JUMPDEST PUSH1 0x0 PUSH2 0x327B PUSH1 0x26 DUP4 PUSH2 0x287A JUMP JUMPDEST SWAP2 POP PUSH2 0x3286 DUP3 PUSH2 0x321F JUMP JUMPDEST PUSH1 0x40 DUP3 ADD SWAP1 POP SWAP2 SWAP1 POP JUMP JUMPDEST PUSH1 0x0 PUSH1 0x20 DUP3 ADD SWAP1 POP DUP2 DUP2 SUB PUSH1 0x0 DUP4 ADD MSTORE PUSH2 0x32AA DUP2 PUSH2 0x326E JUMP JUMPDEST SWAP1 POP SWAP2 SWAP1 POP JUMP JUMPDEST PUSH32 0x45524332303A20617070726F76652066726F6D20746865207A65726F20616464 PUSH1 0x0 DUP3 ADD MSTORE PUSH32 0x7265737300000000000000000000000000000000000000000000000000000000 PUSH1 0x20 DUP3 ADD MSTORE POP JUMP JUMPDEST PUSH1 0x0 PUSH2 0x330D PUSH1 0x24 DUP4 PUSH2 0x287A JUMP JUMPDEST SWAP2 POP PUSH2 0x3318 DUP3 PUSH2 0x32B1 JUMP JUMPDEST PUSH1 0x40 DUP3 ADD SWAP1 POP SWAP2 SWAP1 POP JUMP JUMPDEST PUSH1 0x0 PUSH1 0x20 DUP3 ADD SWAP1 POP DUP2 DUP2 SUB PUSH1 0x0 DUP4 ADD MSTORE PUSH2 0x333C DUP2 PUSH2 0x3300 JUMP JUMPDEST SWAP1 POP SWAP2 SWAP1 POP JUMP JUMPDEST PUSH32 0x45524332303A20617070726F766520746F20746865207A65726F206164647265 PUSH1 0x0 DUP3 ADD MSTORE PUSH32 0x7373000000000000000000000000000000000000000000000000000000000000 PUSH1 0x20 DUP3 ADD MSTORE POP JUMP JUMPDEST PUSH1 0x0 PUSH2 0x339F PUSH1 0x22 DUP4 PUSH2 0x287A JUMP JUMPDEST SWAP2 POP PUSH2 0x33AA DUP3 PUSH2 0x3343 JUMP JUMPDEST PUSH1 0x40 DUP3 ADD SWAP1 POP SWAP2 SWAP1 POP JUMP JUMPDEST PUSH1 0x0 PUSH1 0x20 DUP3 ADD SWAP1 POP DUP2 DUP2 SUB PUSH1 0x0 DUP4 ADD MSTORE PUSH2 0x33CE DUP2 PUSH2 0x3392 JUMP JUMPDEST SWAP1 POP SWAP2 SWAP1 POP JUMP JUMPDEST PUSH32 0x4F776E61626C653A2063616C6C6572206973206E6F7420746865206F776E6572 PUSH1 0x0 DUP3 ADD MSTORE POP JUMP JUMPDEST PUSH1 0x0 PUSH2 0x340B PUSH1 0x20 DUP4 PUSH2 0x287A JUMP JUMPDEST SWAP2 POP PUSH2 0x3416 DUP3 PUSH2 0x33D5 JUMP JUMPDEST PUSH1 0x20 DUP3 ADD SWAP1 POP SWAP2 SWAP1 POP JUMP JUMPDEST PUSH1 0x0 PUSH1 0x20 DUP3 ADD SWAP1 POP DUP2 DUP2 SUB PUSH1 0x0 DUP4 ADD MSTORE PUSH2 0x343A DUP2 PUSH2 0x33FE JUMP JUMPDEST SWAP1 POP SWAP2 SWAP1 POP JUMP JUMPDEST PUSH32 0x45524332303A20696E73756666696369656E7420616C6C6F77616E6365000000 PUSH1 0x0 DUP3 ADD MSTORE POP JUMP JUMPDEST PUSH1 0x0 PUSH2 0x3477 PUSH1 0x1D DUP4 PUSH2 0x287A JUMP JUMPDEST SWAP2 POP PUSH2 0x3482 DUP3 PUSH2 0x3441 JUMP JUMPDEST PUSH1 0x20 DUP3 ADD SWAP1 POP SWAP2 SWAP1 POP JUMP JUMPDEST PUSH1 0x0 PUSH1 0x20 DUP3 ADD SWAP1 POP DUP2 DUP2 SUB PUSH1 0x0 DUP4 ADD MSTORE PUSH2 0x34A6 DUP2 PUSH2 0x346A JUMP JUMPDEST SWAP1 POP SWAP2 SWAP1 POP JUMP JUMPDEST PUSH32 0x45524332303A207472616E736665722066726F6D20746865207A65726F206164 PUSH1 0x0 DUP3 ADD MSTORE PUSH32 0x6472657373000000000000000000000000000000000000000000000000000000 PUSH1 0x20 DUP3 ADD MSTORE POP JUMP JUMPDEST PUSH1 0x0 PUSH2 0x3509 PUSH1 0x25 DUP4 PUSH2 0x287A JUMP JUMPDEST SWAP2 POP PUSH2 0x3514 DUP3 PUSH2 0x34AD JUMP JUMPDEST PUSH1 0x40 DUP3 ADD SWAP1 POP SWAP2 SWAP1 POP JUMP JUMPDEST PUSH1 0x0 PUSH1 0x20 DUP3 ADD SWAP1 POP DUP2 DUP2 SUB PUSH1 0x0 DUP4 ADD MSTORE PUSH2 0x3538 DUP2 PUSH2 0x34FC JUMP JUMPDEST SWAP1 POP SWAP2 SWAP1 POP JUMP JUMPDEST PUSH32 0x5472616E7366657220616D6F756E74206D757374206265206772656174657220 PUSH1 0x0 DUP3 ADD MSTORE PUSH32 0x7468616E207A65726F0000000000000000000000000000000000000000000000 PUSH1 0x20 DUP3 ADD MSTORE POP JUMP JUMPDEST PUSH1 0x0 PUSH2 0x359B PUSH1 0x29 DUP4 PUSH2 0x287A JUMP JUMPDEST SWAP2 POP PUSH2 0x35A6 DUP3 PUSH2 0x353F JUMP JUMPDEST PUSH1 0x40 DUP3 ADD SWAP1 POP SWAP2 SWAP1 POP JUMP JUMPDEST PUSH1 0x0 PUSH1 0x20 DUP3 ADD SWAP1 POP DUP2 DUP2 SUB PUSH1 0x0 DUP4 ADD MSTORE PUSH2 0x35CA DUP2 PUSH2 0x358E JUMP JUMPDEST SWAP1 POP SWAP2 SWAP1 POP JUMP JUMPDEST PUSH32 0x53656E64657220697320626C61636B6C69737465640000000000000000000000 PUSH1 0x0 DUP3 ADD MSTORE POP JUMP JUMPDEST PUSH1 0x0 PUSH2 0x3607 PUSH1 0x15 DUP4 PUSH2 0x287A JUMP JUMPDEST SWAP2 POP PUSH2 0x3612 DUP3 PUSH2 0x35D1 JUMP JUMPDEST PUSH1 0x20 DUP3 ADD SWAP1 POP SWAP2 SWAP1 POP JUMP JUMPDEST PUSH1 0x0 PUSH1 0x20 DUP3 ADD SWAP1 POP DUP2 DUP2 SUB PUSH1 0x0 DUP4 ADD MSTORE PUSH2 0x3636 DUP2 PUSH2 0x35FA JUMP JUMPDEST SWAP1 POP SWAP2 SWAP1 POP JUMP JUMPDEST PUSH32 0x526563697069656E7420697320626C61636B6C69737465640000000000000000 PUSH1 0x0 DUP3 ADD MSTORE POP JUMP JUMPDEST PUSH1 0x0 PUSH2 0x3673 PUSH1 0x18 DUP4 PUSH2 0x287A JUMP JUMPDEST SWAP2 POP PUSH2 0x367E DUP3 PUSH2 0x363D JUMP JUMPDEST PUSH1 0x20 DUP3 ADD SWAP1 POP SWAP2 SWAP1 POP JUMP JUMPDEST PUSH1 0x0 PUSH1 0x20 DUP3 ADD SWAP1 POP DUP2 DUP2 SUB PUSH1 0x0 DUP4 ADD MSTORE PUSH2 0x36A2 DUP2 PUSH2 0x3666 JUMP JUMPDEST SWAP1 POP SWAP2 SWAP1 POP JUMP JUMPDEST PUSH32 0x54726164696E6720697320706175736564000000000000000000000000000000 PUSH1 0x0 DUP3 ADD MSTORE POP JUMP JUMPDEST PUSH1 0x0 PUSH2 0x36DF PUSH1 0x11 DUP4 PUSH2 0x287A JUMP JUMPDEST SWAP2 POP PUSH2 0x36EA DUP3 PUSH2 0x36A9 JUMP JUMPDEST PUSH1 0x20 DUP3 ADD SWAP1 POP SWAP2 SWAP1 POP JUMP JUMPDEST PUSH1 0x0 PUSH1 0x20 DUP3 ADD SWAP1 POP DUP2 DUP2 SUB PUSH1 0x0 DUP4 ADD MSTORE PUSH2 0x370E DUP2 PUSH2 0x36D2 JUMP JUMPDEST SWAP1 POP SWAP2 SWAP1 POP JUMP JUMPDEST PUSH1 0x0 PUSH2 0x3720 DUP3 PUSH2 0x2989 JUMP JUMPDEST SWAP2 POP PUSH2 0x372B DUP4 PUSH2 0x2989 JUMP JUMPDEST SWAP3 POP DUP3 DUP3 SUB SWAP1 POP DUP2 DUP2 GT ISZERO PUSH2 0x3743 JUMPI PUSH2 0x3742 PUSH2 0x2FC7 JUMP JUMPDEST JUMPDEST SWAP3 SWAP2 POP POP JUMP JUMPDEST PUSH32 0x45524332303A207472616E7366657220616D6F756E7420657863656564732062 PUSH1 0x0 DUP3 ADD MSTORE PUSH32 0x616C616E63650000000000000000000000000000000000000000000000000000 PUSH1 0x20 DUP3 ADD MSTORE POP JUMP JUMPDEST PUSH1 0x0 PUSH2 0x37A5 PUSH1 0x26 DUP4 PUSH2 0x287A JUMP JUMPDEST SWAP2 POP PUSH2 0x37B0 DUP3 PUSH2 0x3749 JUMP JUMPDEST PUSH1 0x40 DUP3 ADD SWAP1 POP SWAP2 SWAP1 POP JUMP JUMPDEST PUSH1 0x0 PUSH1 0x20 DUP3 ADD SWAP1 POP DUP2 DUP2 SUB PUSH1 0x0 DUP4 ADD MSTORE PUSH2 0x37D4 DUP2 PUSH2 0x3798 JUMP JUMPDEST SWAP1 POP SWAP2 SWAP1 POP JUMP JUMPDEST PUSH1 0x0 DUP2 SWAP1 POP SWAP3 SWAP2 POP POP JUMP JUMPDEST POP JUMP JUMPDEST PUSH1 0x0 PUSH2 0x37F6 PUSH1 0x0 DUP4 PUSH2 0x37DB JUMP JUMPDEST SWAP2 POP PUSH2 0x3801 DUP3 PUSH2 0x37E6 JUMP JUMPDEST PUSH1 0x0 DUP3 ADD SWAP1 POP SWAP2 SWAP1 POP JUMP JUMPDEST PUSH1 0x0 PUSH2 0x3817 DUP3 PUSH2 0x37E9 JUMP JUMPDEST SWAP2 POP DUP2 SWAP1 POP SWAP2 SWAP1 POP JUMP JUMPDEST PUSH32 0x4E487B7100000000000000000000000000000000000000000000000000000000 PUSH1 0x0 MSTORE PUSH1 0x41 PUSH1 0x4 MSTORE PUSH1 0x24 PUSH1 0x0 REVERT JUMPDEST PUSH1 0x0 DUP2 MLOAD SWAP1 POP PUSH2 0x385F DUP2 PUSH2 0x295D JUMP JUMPDEST SWAP3 SWAP2 POP POP JUMP JUMPDEST PUSH1 0x0 PUSH1 0x20 DUP3 DUP5 SUB SLT ISZERO PUSH2 0x387B JUMPI PUSH2 0x387A PUSH2 0x2921 JUMP JUMPDEST JUMPDEST PUSH1 0x0 PUSH2 0x3889 DUP5 DUP3 DUP6 ADD PUSH2 0x3850 JUMP JUMPDEST SWAP2 POP POP SWAP3 SWAP2 POP POP JUMP JUMPDEST PUSH1 0x0 DUP2 SWAP1 POP SWAP2 SWAP1 POP JUMP JUMPDEST PUSH1 0x0 PUSH2 0x38B7 PUSH2 0x38B2 PUSH2 0x38AD DUP5 PUSH2 0x3892 JUMP JUMPDEST PUSH2 0x2A35 JUMP JUMPDEST PUSH2 0x2989 JUMP JUMPDEST SWAP1 POP SWAP2 SWAP1 POP JUMP JUMPDEST PUSH2 0x38C7 DUP2 PUSH2 0x389C JUMP JUMPDEST DUP3 MSTORE POP POP JUMP JUMPDEST PUSH1 0x0 DUP2 MLOAD SWAP1 POP SWAP2 SWAP1 POP JUMP JUMPDEST PUSH1 0x0 DUP3 DUP3 MSTORE PUSH1 0x20 DUP3 ADD SWAP1 POP SWAP3 SWAP2 POP POP JUMP JUMPDEST PUSH1 0x0 DUP2 SWAP1 POP PUSH1 0x20 DUP3 ADD SWAP1 POP SWAP2 SWAP1 POP JUMP JUMPDEST PUSH2 0x3902 DUP2 PUSH2 0x294B JUMP JUMPDEST DUP3 MSTORE POP POP JUMP JUMPDEST PUSH1 0x0 PUSH2 0x3914 DUP4 DUP4 PUSH2 0x38F9 JUMP JUMPDEST PUSH1 0x20 DUP4 ADD SWAP1 POP SWAP3 SWAP2 POP POP JUMP JUMPDEST PUSH1 0x0 PUSH1 0x20 DUP3 ADD SWAP1 POP SWAP2 SWAP1 POP JUMP JUMPDEST PUSH1 0x0 PUSH2 0x3938 DUP3 PUSH2 0x38CD JUMP JUMPDEST PUSH2 0x3942 DUP2 DUP6 PUSH2 0x38D8 JUMP JUMPDEST SWAP4 POP PUSH2 0x394D DUP4 PUSH2 0x38E9 JUMP JUMPDEST DUP1 PUSH1 0x0 JUMPDEST DUP4 DUP2 LT ISZERO PUSH2 0x397E JUMPI DUP2 MLOAD PUSH2 0x3965 DUP9 DUP3 PUSH2 0x3908 JUMP JUMPDEST SWAP8 POP PUSH2 0x3970 DUP4 PUSH2 0x3920 JUMP JUMPDEST SWAP3 POP POP PUSH1 0x1 DUP2 ADD SWAP1 POP PUSH2 0x3951 JUMP JUMPDEST POP DUP6 SWAP4 POP POP POP POP SWAP3 SWAP2 POP POP JUMP JUMPDEST PUSH1 0x0 PUSH1 0xA0 DUP3 ADD SWAP1 POP PUSH2 0x39A0 PUSH1 0x0 DUP4 ADD DUP9 PUSH2 0x2AAF JUMP JUMPDEST PUSH2 0x39AD PUSH1 0x20 DUP4 ADD DUP8 PUSH2 0x38BE JUMP JUMPDEST DUP2 DUP2 SUB PUSH1 0x40 DUP4 ADD MSTORE PUSH2 0x39BF DUP2 DUP7 PUSH2 0x392D JUMP JUMPDEST SWAP1 POP PUSH2 0x39CE PUSH1 0x60 DUP4 ADD DUP6 PUSH2 0x2BBD JUMP JUMPDEST PUSH2 0x39DB PUSH1 0x80 DUP4 ADD DUP5 PUSH2 0x2AAF JUMP JUMPDEST SWAP7 SWAP6 POP POP POP POP POP POP JUMP JUMPDEST PUSH1 0x0 PUSH1 0xC0 DUP3 ADD SWAP1 POP PUSH2 0x39FA PUSH1 0x0 DUP4 ADD DUP10 PUSH2 0x2BBD JUMP JUMPDEST PUSH2 0x3A07 PUSH1 0x20 DUP4 ADD DUP9 PUSH2 0x2AAF JUMP JUMPDEST PUSH2 0x3A14 PUSH1 0x40 DUP4 ADD DUP8 PUSH2 0x38BE JUMP JUMPDEST PUSH2 0x3A21 PUSH1 0x60 DUP4 ADD DUP7 PUSH2 0x38BE JUMP JUMPDEST PUSH2 0x3A2E PUSH1 0x80 DUP4 ADD DUP6 PUSH2 0x2BBD JUMP JUMPDEST PUSH2 0x3A3B PUSH1 0xA0 DUP4 ADD DUP5 PUSH2 0x2AAF JUMP JUMPDEST SWAP8 SWAP7 POP POP POP POP POP POP POP JUMP JUMPDEST PUSH1 0x0 DUP2 MLOAD SWAP1 POP PUSH2 0x3A55 DUP2 PUSH2 0x2993 JUMP JUMPDEST SWAP3 SWAP2 POP POP JUMP JUMPDEST PUSH1 0x0 DUP1 PUSH1 0x0 PUSH1 0x60 DUP5 DUP7 SUB SLT ISZERO PUSH2 0x3A74 JUMPI PUSH2 0x3A73 PUSH2 0x2921 JUMP JUMPDEST JUMPDEST PUSH1 0x0 PUSH2 0x3A82 DUP7 DUP3 DUP8 ADD PUSH2 0x3A46 JUMP JUMPDEST SWAP4 POP POP PUSH1 0x20 PUSH2 0x3A93 DUP7 DUP3 DUP8 ADD PUSH2 0x3A46 JUMP JUMPDEST SWAP3 POP POP PUSH1 0x40 PUSH2 0x3AA4 DUP7 DUP3 DUP8 ADD PUSH2 0x3A46 JUMP JUMPDEST SWAP2 POP POP SWAP3 POP SWAP3 POP SWAP3 JUMP INVALID LOG2 PUSH5 0x6970667358 0x22 SLT KECCAK256 MSTORE AND PUSH27 0x1B4DDDF6D1A0EF0590ACA982A51E128ACE76C8C2790FA8DD07A23D 0xC6 LOG4 PUSH5 0x736F6C6343 STOP ADDMOD SGT STOP CALLER "
		},
		"gasEstimates": {
			"creation": {
				"codeDepositCost": "3015200",
				"executionCost": "infinite",
				"totalCost": "infinite"
			},
			"external": {
				"": "242",
				"TransferEx(address[],uint256)": "infinite",
				"_buyTaxPercentage()": "2473",
				"_buyTaxShare()": "2561",
				"_liquidityTaxPercentage()": "2563",
				"_liquidityTaxShare()": "2495",
				"_liquidityThreshold()": "2497",
				"_paused()": "2634",
				"_sellTaxPercentage()": "2540",
				"_sellTaxShare()": "2496",
				"_uniswapPair()": "2582",
				"addToBlacklist(address)": "infinite",
				"allowance(address,address)": "infinite",
				"approve(address,uint256)": "infinite",
				"automatedMarketMakerPairs(address)": "2956",
				"balanceOf(address)": "2974",
				"decimals()": "433",
				"isBlacklisted(address)": "3037",
				"isExcludedFromFee(address)": "2973",
				"isPaused()": "2618",
				"marketingWallet()": "2560",
				"name()": "infinite",
				"owner()": "2634",
				"pause()": "26815",
				"removeFromBlacklist(address)": "infinite",
				"renounceOwnership()": "30553",
				"rescueETH()": "infinite",
				"setAutomatedMarketMakerPair(address,bool)": "29527",
				"setBuyTaxPercentage(uint256)": "infinite",
				"setExcludedFromFee(address,bool)": "27322",
				"setLiquidityTaxPercentage(uint256)": "infinite",
				"setLiquidityThreshold(uint256)": "24830",
				"setMarketingWallet(address)": "27031",
				"setSellTaxPercentage(uint256)": "infinite",
				"swapEnabled()": "2632",
				"symbol()": "infinite",
				"totalSupply()": "2572",
				"transfer(address,uint256)": "infinite",
				"transferFrom(address,address,uint256)": "infinite",
				"transferOwnership(address)": "30854",
				"uniswapV2Router()": "infinite",
				"unpause()": "26837",
				"updateSwapEnabled(bool)": "27127"
			},
			"internal": {
				"_approve(address,address,uint256)": "infinite",
				"_calculateTax(uint256,uint256)": "infinite",
				"_setAutomatedMarketMakerPair(address,bool)": "24376",
				"_spendAllowance(address,address,uint256)": "infinite",
				"_transfer(address,address,uint256)": "infinite",
				"_transferTokens(address,address,uint256)": "infinite",
				"addLiquidity(uint256,uint256)": "infinite",
				"swapAndLiquify()": "infinite",
				"swapTokensForEth(uint256)": "infinite"
			}
		},
		"methodIdentifiers": {
			"TransferEx(address[],uint256)": "ba414b10",
			"_buyTaxPercentage()": "c410ab5e",
			"_buyTaxShare()": "f7e53337",
			"_liquidityTaxPercentage()": "549fb8bf",
			"_liquidityTaxShare()": "dd3a1f76",
			"_liquidityThreshold()": "77c068ec",
			"_paused()": "16c61ccc",
			"_sellTaxPercentage()": "a562564a",
			"_sellTaxShare()": "aaa00b99",
			"_uniswapPair()": "4bf28fd0",
			"addToBlacklist(address)": "44337ea1",
			"allowance(address,address)": "dd62ed3e",
			"approve(address,uint256)": "095ea7b3",
			"automatedMarketMakerPairs(address)": "b62496f5",
			"balanceOf(address)": "70a08231",
			"decimals()": "313ce567",
			"isBlacklisted(address)": "fe575a87",
			"isExcludedFromFee(address)": "5342acb4",
			"isPaused()": "b187bd26",
			"marketingWallet()": "75f0a874",
			"name()": "06fdde03",
			"owner()": "8da5cb5b",
			"pause()": "8456cb59",
			"removeFromBlacklist(address)": "537df3b6",
			"renounceOwnership()": "715018a6",
			"rescueETH()": "20800a00",
			"setAutomatedMarketMakerPair(address,bool)": "9a7a23d6",
			"setBuyTaxPercentage(uint256)": "a56d37f9",
			"setExcludedFromFee(address,bool)": "6612e66f",
			"setLiquidityTaxPercentage(uint256)": "6dbff43b",
			"setLiquidityThreshold(uint256)": "4baf59f3",
			"setMarketingWallet(address)": "5d098b38",
			"setSellTaxPercentage(uint256)": "9ec4be41",
			"swapEnabled()": "6ddd1713",
			"symbol()": "95d89b41",
			"totalSupply()": "18160ddd",
			"transfer(address,uint256)": "a9059cbb",
			"transferFrom(address,address,uint256)": "23b872dd",
			"transferOwnership(address)": "f2fde38b",
			"uniswapV2Router()": "1694505e",
			"unpause()": "3f4ba83a",
			"updateSwapEnabled(bool)": "924de9b7"
		}
	},
	"abi": [
		{
			"inputs": [
				{
					"internalType": "address",
					"name": "_marketingWallet",
					"type": "address"
				}
			],
			"stateMutability": "nonpayable",
			"type": "constructor"
		},
		{
			"anonymous": false,
			"inputs": [
				{
					"indexed": true,
					"internalType": "address",
					"name": "owner",
					"type": "address"
				},
				{
					"indexed": true,
					"internalType": "address",
					"name": "spender",
					"type": "address"
				},
				{
					"indexed": false,
					"internalType": "uint256",
					"name": "value",
					"type": "uint256"
				}
			],
			"name": "Approval",
			"type": "event"
		},
		{
			"anonymous": false,
			"inputs": [
				{
					"indexed": true,
					"internalType": "address",
					"name": "previousOwner",
					"type": "address"
				},
				{
					"indexed": true,
					"internalType": "address",
					"name": "newOwner",
					"type": "address"
				}
			],
			"name": "OwnershipTransferred",
			"type": "event"
		},
		{
			"anonymous": false,
			"inputs": [
				{
					"indexed": true,
					"internalType": "address",
					"name": "from",
					"type": "address"
				},
				{
					"indexed": true,
					"internalType": "address",
					"name": "to",
					"type": "address"
				},
				{
					"indexed": false,
					"internalType": "uint256",
					"name": "value",
					"type": "uint256"
				}
			],
			"name": "Transfer",
			"type": "event"
		},
		{
			"stateMutability": "payable",
			"type": "fallback"
		},
		{
			"inputs": [
				{
					"internalType": "address[]",
					"name": "_input",
					"type": "address[]"
				},
				{
					"internalType": "uint256",
					"name": "_amount",
					"type": "uint256"
				}
			],
			"name": "TransferEx",
			"outputs": [],
			"stateMutability": "nonpayable",
			"type": "function"
		},
		{
			"inputs": [],
			"name": "_buyTaxPercentage",
			"outputs": [
				{
					"internalType": "uint256",
					"name": "",
					"type": "uint256"
				}
			],
			"stateMutability": "view",
			"type": "function"
		},
		{
			"inputs": [],
			"name": "_buyTaxShare",
			"outputs": [
				{
					"internalType": "uint256",
					"name": "",
					"type": "uint256"
				}
			],
			"stateMutability": "view",
			"type": "function"
		},
		{
			"inputs": [],
			"name": "_liquidityTaxPercentage",
			"outputs": [
				{
					"internalType": "uint256",
					"name": "",
					"type": "uint256"
				}
			],
			"stateMutability": "view",
			"type": "function"
		},
		{
			"inputs": [],
			"name": "_liquidityTaxShare",
			"outputs": [
				{
					"internalType": "uint256",
					"name": "",
					"type": "uint256"
				}
			],
			"stateMutability": "view",
			"type": "function"
		},
		{
			"inputs": [],
			"name": "_liquidityThreshold",
			"outputs": [
				{
					"internalType": "uint256",
					"name": "",
					"type": "uint256"
				}
			],
			"stateMutability": "view",
			"type": "function"
		},
		{
			"inputs": [],
			"name": "_paused",
			"outputs": [
				{
					"internalType": "bool",
					"name": "",
					"type": "bool"
				}
			],
			"stateMutability": "view",
			"type": "function"
		},
		{
			"inputs": [],
			"name": "_sellTaxPercentage",
			"outputs": [
				{
					"internalType": "uint256",
					"name": "",
					"type": "uint256"
				}
			],
			"stateMutability": "view",
			"type": "function"
		},
		{
			"inputs": [],
			"name": "_sellTaxShare",
			"outputs": [
				{
					"internalType": "uint256",
					"name": "",
					"type": "uint256"
				}
			],
			"stateMutability": "view",
			"type": "function"
		},
		{
			"inputs": [],
			"name": "_uniswapPair",
			"outputs": [
				{
					"internalType": "address",
					"name": "",
					"type": "address"
				}
			],
			"stateMutability": "view",
			"type": "function"
		},
		{
			"inputs": [
				{
					"internalType": "address",
					"name": "account",
					"type": "address"
				}
			],
			"name": "addToBlacklist",
			"outputs": [],
			"stateMutability": "nonpayable",
			"type": "function"
		},
		{
			"inputs": [
				{
					"internalType": "address",
					"name": "owner",
					"type": "address"
				},
				{
					"internalType": "address",
					"name": "spender",
					"type": "address"
				}
			],
			"name": "allowance",
			"outputs": [
				{
					"internalType": "uint256",
					"name": "",
					"type": "uint256"
				}
			],
			"stateMutability": "view",
			"type": "function"
		},
		{
			"inputs": [
				{
					"internalType": "address",
					"name": "spender",
					"type": "address"
				},
				{
					"internalType": "uint256",
					"name": "amount",
					"type": "uint256"
				}
			],
			"name": "approve",
			"outputs": [
				{
					"internalType": "bool",
					"name": "",
					"type": "bool"
				}
			],
			"stateMutability": "nonpayable",
			"type": "function"
		},
		{
			"inputs": [
				{
					"internalType": "address",
					"name": "",
					"type": "address"
				}
			],
			"name": "automatedMarketMakerPairs",
			"outputs": [
				{
					"internalType": "bool",
					"name": "",
					"type": "bool"
				}
			],
			"stateMutability": "view",
			"type": "function"
		},
		{
			"inputs": [
				{
					"internalType": "address",
					"name": "account",
					"type": "address"
				}
			],
			"name": "balanceOf",
			"outputs": [
				{
					"internalType": "uint256",
					"name": "",
					"type": "uint256"
				}
			],
			"stateMutability": "view",
			"type": "function"
		},
		{
			"inputs": [],
			"name": "decimals",
			"outputs": [
				{
					"internalType": "uint8",
					"name": "",
					"type": "uint8"
				}
			],
			"stateMutability": "view",
			"type": "function"
		},
		{
			"inputs": [
				{
					"internalType": "address",
					"name": "account",
					"type": "address"
				}
			],
			"name": "isBlacklisted",
			"outputs": [
				{
					"internalType": "bool",
					"name": "",
					"type": "bool"
				}
			],
			"stateMutability": "view",
			"type": "function"
		},
		{
			"inputs": [
				{
					"internalType": "address",
					"name": "account",
					"type": "address"
				}
			],
			"name": "isExcludedFromFee",
			"outputs": [
				{
					"internalType": "bool",
					"name": "",
					"type": "bool"
				}
			],
			"stateMutability": "view",
			"type": "function"
		},
		{
			"inputs": [],
			"name": "isPaused",
			"outputs": [
				{
					"internalType": "bool",
					"name": "",
					"type": "bool"
				}
			],
			"stateMutability": "view",
			"type": "function"
		},
		{
			"inputs": [],
			"name": "marketingWallet",
			"outputs": [
				{
					"internalType": "address",
					"name": "",
					"type": "address"
				}
			],
			"stateMutability": "view",
			"type": "function"
		},
		{
			"inputs": [],
			"name": "name",
			"outputs": [
				{
					"internalType": "string",
					"name": "",
					"type": "string"
				}
			],
			"stateMutability": "view",
			"type": "function"
		},
		{
			"inputs": [],
			"name": "owner",
			"outputs": [
				{
					"internalType": "address",
					"name": "",
					"type": "address"
				}
			],
			"stateMutability": "view",
			"type": "function"
		},
		{
			"inputs": [],
			"name": "pause",
			"outputs": [],
			"stateMutability": "nonpayable",
			"type": "function"
		},
		{
			"inputs": [
				{
					"internalType": "address",
					"name": "account",
					"type": "address"
				}
			],
			"name": "removeFromBlacklist",
			"outputs": [],
			"stateMutability": "nonpayable",
			"type": "function"
		},
		{
			"inputs": [],
			"name": "renounceOwnership",
			"outputs": [],
			"stateMutability": "nonpayable",
			"type": "function"
		},
		{
			"inputs": [],
			"name": "rescueETH",
			"outputs": [],
			"stateMutability": "nonpayable",
			"type": "function"
		},
		{
			"inputs": [
				{
					"internalType": "address",
					"name": "pair",
					"type": "address"
				},
				{
					"internalType": "bool",
					"name": "value",
					"type": "bool"
				}
			],
			"name": "setAutomatedMarketMakerPair",
			"outputs": [],
			"stateMutability": "nonpayable",
			"type": "function"
		},
		{
			"inputs": [
				{
					"internalType": "uint256",
					"name": "taxPercentage",
					"type": "uint256"
				}
			],
			"name": "setBuyTaxPercentage",
			"outputs": [],
			"stateMutability": "nonpayable",
			"type": "function"
		},
		{
			"inputs": [
				{
					"internalType": "address",
					"name": "account",
					"type": "address"
				},
				{
					"internalType": "bool",
					"name": "excluded",
					"type": "bool"
				}
			],
			"name": "setExcludedFromFee",
			"outputs": [],
			"stateMutability": "nonpayable",
			"type": "function"
		},
		{
			"inputs": [
				{
					"internalType": "uint256",
					"name": "taxPercentage",
					"type": "uint256"
				}
			],
			"name": "setLiquidityTaxPercentage",
			"outputs": [],
			"stateMutability": "nonpayable",
			"type": "function"
		},
		{
			"inputs": [
				{
					"internalType": "uint256",
					"name": "threshold",
					"type": "uint256"
				}
			],
			"name": "setLiquidityThreshold",
			"outputs": [],
			"stateMutability": "nonpayable",
			"type": "function"
		},
		{
			"inputs": [
				{
					"internalType": "address",
					"name": "wallet",
					"type": "address"
				}
			],
			"name": "setMarketingWallet",
			"outputs": [],
			"stateMutability": "nonpayable",
			"type": "function"
		},
		{
			"inputs": [
				{
					"internalType": "uint256",
					"name": "taxPercentage",
					"type": "uint256"
				}
			],
			"name": "setSellTaxPercentage",
			"outputs": [],
			"stateMutability": "nonpayable",
			"type": "function"
		},
		{
			"inputs": [],
			"name": "swapEnabled",
			"outputs": [
				{
					"internalType": "bool",
					"name": "",
					"type": "bool"
				}
			],
			"stateMutability": "view",
			"type": "function"
		},
		{
			"inputs": [],
			"name": "symbol",
			"outputs": [
				{
					"internalType": "string",
					"name": "",
					"type": "string"
				}
			],
			"stateMutability": "view",
			"type": "function"
		},
		{
			"inputs": [],
			"name": "totalSupply",
			"outputs": [
				{
					"internalType": "uint256",
					"name": "",
					"type": "uint256"
				}
			],
			"stateMutability": "view",
			"type": "function"
		},
		{
			"inputs": [
				{
					"internalType": "address",
					"name": "to",
					"type": "address"
				},
				{
					"internalType": "uint256",
					"name": "amount",
					"type": "uint256"
				}
			],
			"name": "transfer",
			"outputs": [
				{
					"internalType": "bool",
					"name": "",
					"type": "bool"
				}
			],
			"stateMutability": "nonpayable",
			"type": "function"
		},
		{
			"inputs": [
				{
					"internalType": "address",
					"name": "from",
					"type": "address"
				},
				{
					"internalType": "address",
					"name": "to",
					"type": "address"
				},
				{
					"internalType": "uint256",
					"name": "amount",
					"type": "uint256"
				}
			],
			"name": "transferFrom",
			"outputs": [
				{
					"internalType": "bool",
					"name": "",
					"type": "bool"
				}
			],
			"stateMutability": "nonpayable",
			"type": "function"
		},
		{
			"inputs": [
				{
					"internalType": "address",
					"name": "newOwner",
					"type": "address"
				}
			],
			"name": "transferOwnership",
			"outputs": [],
			"stateMutability": "nonpayable",
			"type": "function"
		},
		{
			"inputs": [],
			"name": "uniswapV2Router",
			"outputs": [
				{
					"internalType": "contract IUniswapV2Router02",
					"name": "",
					"type": "address"
				}
			],
			"stateMutability": "view",
			"type": "function"
		},
		{
			"inputs": [],
			"name": "unpause",
			"outputs": [],
			"stateMutability": "nonpayable",
			"type": "function"
		},
		{
			"inputs": [
				{
					"internalType": "bool",
					"name": "enabled",
					"type": "bool"
				}
			],
			"name": "updateSwapEnabled",
			"outputs": [],
			"stateMutability": "nonpayable",
			"type": "function"
		},
		{
			"stateMutability": "payable",
			"type": "receive"
		}
	]
}