{
	"data": {
		"bytecode": {
			"linkReferences": {},
			"object": "608060405234801561000f575f80fd5b506135288061001d5f395ff3fe60806040526004361061026d575f3560e01c80635880b8731161014a578063a9059cbb116100be578063dd62ed3e11610078578063dd62ed3e14610729578063ea2f0b371461076d578063f2cc0c181461078c578063f2fde38b146107ab578063f66608fe146107ca578063f84354f1146107de575f80fd5b8063a9059cbb14610657578063bcd6d44614610676578063c138ff6a14610695578063c204642c146106b4578063c49b9a80146106d3578063cba0e996146106f2575f80fd5b8063871363e91161010f578063871363e9146105c05780638980f11f146105d45780638da5cb5b146105f357806395d89b41146106105780639b2f821b14610624578063a457c2d714610638575f80fd5b80635880b8731461053a57806370a0823114610559578063715018a6146105785780637d1db4a51461058c57806385227388146105a1575f80fd5b806339509351116101e15780634549b039116101a65780634549b0391461047257806349bd5a5e146104915780634a74bb02146104b05780634cd88b76146104d05780634e71d92d146104ef5780635342acb414610503575f80fd5b806339509351146103e25780633b6b1961146104015780633bd5d173146104205780633c9f861d1461043f578063437823ec14610453575f80fd5b806318160ddd1161023257806318160ddd1461033a5780631decaadc1461034e57806323b872dd1461036f5780632c7de63d1461038e5780632d838119146103a2578063313ce567146103c1575f80fd5b806306fdde0314610278578063095ea7b3146102a257806313114a9d146102d157806315770f92146102ef5780631694505e14610303575f80fd5b3661027457005b5f80fd5b348015610283575f80fd5b5061028c6107fd565b6040516102999190612ebe565b60405180910390f35b3480156102ad575f80fd5b506102c16102bc366004612f1e565b61088d565b6040519015158152602001610299565b3480156102dc575f80fd5b5060a1545b604051908152602001610299565b3480156102fa575f80fd5b5060a2546102e1565b34801561030e575f80fd5b5060b054610322906001600160a01b031681565b6040516001600160a01b039091168152602001610299565b348015610345575f80fd5b50609f546102e1565b348015610359575f80fd5b5061036d610368366004612f48565b6108a3565b005b34801561037a575f80fd5b506102c1610389366004612f5f565b61097b565b348015610399575f80fd5b5061036d610a2a565b3480156103ad575f80fd5b506102e16103bc366004612f48565b610bf0565b3480156103cc575f80fd5b5060a65460405160ff9091168152602001610299565b3480156103ed575f80fd5b506102c16103fc366004612f1e565b610c72565b34801561040c575f80fd5b5061036d61041b366004612f48565b610ca8565b34801561042b575f80fd5b5061036d61043a366004612f48565b610d35565b34801561044a575f80fd5b5060aa546102e1565b34801561045e575f80fd5b5061036d61046d366004612f9d565b610e1d565b34801561047d575f80fd5b506102e161048c366004612fc5565b610e6a565b34801561049c575f80fd5b5060b154610322906001600160a01b031681565b3480156104bb575f80fd5b5060b1546102c190600160a81b900460ff1681565b3480156104db575f80fd5b5061036d6104ea366004613090565b610ef6565b3480156104fa575f80fd5b506102c161110c565b34801561050e575f80fd5b506102c161051d366004612f9d565b6001600160a01b03165f908152609a602052604090205460ff1690565b348015610545575f80fd5b5061036d610554366004612f48565b61120d565b348015610564575f80fd5b506102e1610573366004612f9d565b61129a565b348015610583575f80fd5b5061036d611331565b348015610597575f80fd5b506102e160a75481565b3480156105ac575f80fd5b5061036d6105bb366004612f9d565b6113a4565b3480156105cb575f80fd5b5060ae546102e1565b3480156105df575f80fd5b5061036d6105ee366004612f1e565b6113f0565b3480156105fe575f80fd5b506065546001600160a01b0316610322565b34801561061b575f80fd5b5061028c6114a9565b34801561062f575f80fd5b5060a8546102e1565b348015610643575f80fd5b506102c1610652366004612f1e565b6114b8565b348015610662575f80fd5b506102c1610671366004612f1e565b611552565b348015610681575f80fd5b5061036d610690366004612f48565b61155e565b3480156106a0575f80fd5b5061036d6106af366004612f9d565b6115eb565b3480156106bf575f80fd5b5061036d6106ce3660046130f0565b611615565b3480156106de575f80fd5b5061036d6106ed366004613164565b6117f8565b3480156106fd575f80fd5b506102c161070c366004612f9d565b6001600160a01b03165f908152609b602052604090205460ff1690565b348015610734575f80fd5b506102e161074336600461317f565b6001600160a01b039182165f90815260346020908152604080832093909416825291909152205490565b348015610778575f80fd5b5061036d610787366004612f9d565b61187a565b348015610797575f80fd5b5061036d6107a6366004612f9d565b6118c4565b3480156107b6575f80fd5b5061036d6107c5366004612f9d565b611a89565b3480156107d5575f80fd5b5060ab546102e1565b3480156107e9575f80fd5b5061036d6107f8366004612f9d565b611b73565b60606036805461080c906131ab565b80601f0160208091040260200160405190810160405280929190818152602001828054610838906131ab565b80156108835780601f1061085a57610100808354040283529160200191610883565b820191905f5260205f20905b81548152906001019060200180831161086657829003601f168201915b5050505050905090565b5f610899338484611d18565b5060015b92915050565b6065546001600160a01b031633146108d65760405162461bcd60e51b81526004016108cd906131e3565b60405180910390fd5b67016345785d8a000081101580156108f8575069021e19e0c9bab24000008111155b6109765760405162461bcd60e51b815260206004820152604360248201527f6e756d546f6b656e732073686f756c6420626520696e2031303030303030303060448201527f303030303030303030202d20313030303030303030303030303030303030303060648201526203030360ec1b608482015260a4016108cd565b60a855565b5f610987848484611e3b565b6001600160a01b0384165f90815260346020908152604080832033845290915290205482811015610a0b5760405162461bcd60e51b815260206004820152602860248201527f45524332303a207472616e7366657220616d6f756e74206578636565647320616044820152676c6c6f77616e636560c01b60648201526084016108cd565b610a1f8533610a1a868561322c565b611d18565b506001949350505050565b6065546001600160a01b03163314610a545760405162461bcd60e51b81526004016108cd906131e3565b60b1546001600160a01b031615610a69575f80fd5b60b05f9054906101000a90046001600160a01b03166001600160a01b031663c45a01556040518163ffffffff1660e01b8152600401602060405180830381865afa158015610ab9573d5f803e3d5ffd5b505050506040513d601f19601f82011682018060405250810190610add919061323f565b6001600160a01b031663c9c653963060b05f9054906101000a90046001600160a01b03166001600160a01b031663ad5c46486040518163ffffffff1660e01b8152600401602060405180830381865afa158015610b3c573d5f803e3d5ffd5b505050506040513d601f19601f82011682018060405250810190610b60919061323f565b6040516001600160e01b031960e085901b1681526001600160a01b039283166004820152911660248201526044016020604051808303815f875af1158015610baa573d5f803e3d5ffd5b505050506040513d601f19601f82011682018060405250810190610bce919061323f565b60b180546001600160a01b0319166001600160a01b0392909216919091179055565b5f60a054821115610c565760405162461bcd60e51b815260206004820152602a60248201527f416d6f756e74206d757374206265206c657373207468616e20746f74616c207260448201526965666c656374696f6e7360b01b60648201526084016108cd565b5f610c5f6120f1565b9050610c6b8382612112565b9392505050565b335f8181526034602090815260408083206001600160a01b03871684529091528120549091610899918590610a1a90869061325a565b6065546001600160a01b03163314610cd25760405162461bcd60e51b81526004016108cd906131e3565b60018110158015610ce45750600a8111155b610d305760405162461bcd60e51b815260206004820152601b60248201527f6275726e4665652073686f756c6420626520696e2031202d203130000000000060448201526064016108cd565b60ad55565b335f818152609b602052604090205460ff1615610da95760405162461bcd60e51b815260206004820152602c60248201527f4578636c75646564206164647265737365732063616e6e6f742063616c6c207460448201526b3434b990333ab731ba34b7b760a11b60648201526084016108cd565b5f610db38361211d565b5050506001600160a01b0386165f90815260976020526040902054939450610de093925084915050612170565b6001600160a01b0383165f9081526097602052604090205560a054610e059082612170565b60a05560a154610e15908461217b565b60a155505050565b6065546001600160a01b03163314610e475760405162461bcd60e51b81526004016108cd906131e3565b6001600160a01b03165f908152609a60205260409020805460ff19166001179055565b5f609f54831115610ebd5760405162461bcd60e51b815260206004820152601f60248201527f416d6f756e74206d757374206265206c657373207468616e20737570706c790060448201526064016108cd565b81610edc575f610ecc8461211d565b5094965061089d95505050505050565b5f610ee68461211d565b5093965061089d95505050505050565b5f54610100900460ff1680610f0d57505f5460ff16155b610f295760405162461bcd60e51b81526004016108cd9061326d565b5f54610100900460ff16158015610f49575f805461ffff19166101011790555b610f538383612186565b610f5b612200565b69152d02c7e14af680000060a3819055609f819055610f7b905f196132cf565b610f86905f1961322c565b60a05560a4610f95848261332d565b5060a5610fa2838261332d565b5060a6805460ff19166009179055600160ad81905560b25560a35460a75560a05460975f610fcd3390565b6001600160a01b0316815260208101919091526040015f9081209190915569021e19e0c9bab240000060a855600160ab81905560ac81905560ae81905560af81905590609a906110256065546001600160a01b031690565b6001600160a01b0316815260208082019290925260409081015f908120805494151560ff19958616179055308152609a90925290208054909116600117905560b080546001600160a01b0319167305ff2b0db69458a0750badebc4f9e13add608c7f90811790915560b1805460ff60a81b1916600160a81b1790556110a73390565b6001600160a01b03165f6001600160a01b03167fddf252ad1be2c89b69c2b068fc378daa952ba7f163c4a11628f55a4df523b3ef609f546040516110ed91815260200190565b60405180910390a3508015611107575f805461ff00191690555b505050565b6065545f906001600160a01b031633146111385760405162461bcd60e51b81526004016108cd906131e3565b47806111865760405162461bcd60e51b815260206004820152601760248201527f616d6f756e7420697320657175616c20746f207a65726f00000000000000000060448201526064016108cd565b6040515f90339083908381818185875af1925050503d805f81146111c5576040519150601f19603f3d011682016040523d82523d5f602084013e6111ca565b606091505b505090507f7a355715549cfe7c1cba26304350343fbddc4b4f72d3ce3e7c27117dd20b5cb8826040516111ff91815260200190565b60405180910390a191505090565b6065546001600160a01b031633146112375760405162461bcd60e51b81526004016108cd906131e3565b600181101580156112495750600a8111155b6112955760405162461bcd60e51b815260206004820152601a60248201527f7461784665652073686f756c6420626520696e2031202d20313000000000000060448201526064016108cd565b60ab55565b6001600160a01b0381165f908152609b602052604081205460ff16156112d557506001600160a01b03165f9081526098602052604090205490565b6001600160a01b0382165f908152609d602052604090205460ff161561131057506001600160a01b03165f9081526098602052604090205490565b6001600160a01b0382165f9081526097602052604090205461089d90610bf0565b6065546001600160a01b0316331461135b5760405162461bcd60e51b81526004016108cd906131e3565b6065546040515f916001600160a01b0316907f8be0079c531659141344cd1fd0a4f28419497f9722a3daafe3b4186f6b6457e0908390a3606580546001600160a01b0319169055565b6065546001600160a01b031633146113ce5760405162461bcd60e51b81526004016108cd906131e3565b60b080546001600160a01b0319166001600160a01b0392909216919091179055565b6065546001600160a01b0316331461141a5760405162461bcd60e51b81526004016108cd906131e3565b816001600160a01b031663a9059cbb61143b6065546001600160a01b031690565b6040516001600160e01b031960e084901b1681526001600160a01b039091166004820152602481018490526044016020604051808303815f875af1158015611485573d5f803e3d5ffd5b505050506040513d601f19601f8201168201806040525081019061110791906133e9565b60606037805461080c906131ab565b335f9081526034602090815260408083206001600160a01b0386168452909152812054828110156115395760405162461bcd60e51b815260206004820152602560248201527f45524332303a2064656372656173656420616c6c6f77616e63652062656c6f77604482015264207a65726f60d81b60648201526084016108cd565b6115483385610a1a868561322c565b5060019392505050565b5f610899338484611e3b565b6065546001600160a01b031633146115885760405162461bcd60e51b81526004016108cd906131e3565b6001811015801561159a5750600a8111155b6115e65760405162461bcd60e51b815260206004820181905260248201527f6c69717569646974794665652073686f756c6420626520696e2031202d20313060448201526064016108cd565b60ae55565b6065546001600160a01b03163314610bce5760405162461bcd60e51b81526004016108cd906131e3565b6065546001600160a01b0316331461163f5760405162461bcd60e51b81526004016108cd906131e3565b335f61164a8361211d565b509495506116829450611664935085925088915050612277565b6001600160a01b0384165f9081526097602052604090205490612170565b6001600160a01b0383165f908152609760205260408120919091555b848110156117f0576116f38260975f8989868181106116bf576116bf613404565b90506020020160208101906116d49190612f9d565b6001600160a01b0316815260208101919091526040015f20549061217b565b60975f88888581811061170857611708613404565b905060200201602081019061171d9190612f9d565b6001600160a01b03166001600160a01b031681526020019081526020015f2081905550609b5f87878481811061175557611755613404565b905060200201602081019061176a9190612f9d565b6001600160a01b0316815260208101919091526040015f205460ff16156117e8576117a48460985f8989868181106116bf576116bf613404565b60985f8888858181106117b9576117b9613404565b90506020020160208101906117ce9190612f9d565b6001600160a01b0316815260208101919091526040015f20555b60010161169e565b505050505050565b6065546001600160a01b031633146118225760405162461bcd60e51b81526004016108cd906131e3565b60b18054821515600160a81b0260ff60a81b199091161790556040517f53726dfcaf90650aa7eb35524f4d3220f07413c8d6cb404cc8c18bf5591bc1599061186f90831515815260200190565b60405180910390a150565b6065546001600160a01b031633146118a45760405162461bcd60e51b81526004016108cd906131e3565b6001600160a01b03165f908152609a60205260409020805460ff19169055565b6065546001600160a01b031633146118ee5760405162461bcd60e51b81526004016108cd906131e3565b6001600160a01b038116737a250d5630b4cf539739df2c5dacb4c659f2488d036119655760405162461bcd60e51b815260206004820152602260248201527f57652063616e206e6f74206578636c75646520556e697377617020726f757465604482015261391760f11b60648201526084016108cd565b6001600160a01b0381165f908152609b602052604090205460ff16156119cd5760405162461bcd60e51b815260206004820152601b60248201527f4163636f756e7420697320616c7265616479206578636c75646564000000000060448201526064016108cd565b6001600160a01b0381165f9081526097602052604090205415611a24576001600160a01b0381165f90815260976020526040902054611a0b90610bf0565b6001600160a01b0382165f908152609860205260409020555b6001600160a01b03165f818152609b60205260408120805460ff19166001908117909155609c805491820181559091527faf85b9071dfafeac1409d3f1d19bafc9bc7c37974cde8df0ee6168f0086e539c0180546001600160a01b0319169091179055565b6065546001600160a01b03163314611ab35760405162461bcd60e51b81526004016108cd906131e3565b6001600160a01b038116611b185760405162461bcd60e51b815260206004820152602660248201527f4f776e61626c653a206e6577206f776e657220697320746865207a65726f206160448201526564647265737360d01b60648201526084016108cd565b6065546040516001600160a01b038084169216907f8be0079c531659141344cd1fd0a4f28419497f9722a3daafe3b4186f6b6457e0905f90a3606580546001600160a01b0319166001600160a01b0392909216919091179055565b6065546001600160a01b03163314611b9d5760405162461bcd60e51b81526004016108cd906131e3565b6001600160a01b0381165f908152609b602052604090205460ff16611c045760405162461bcd60e51b815260206004820152601b60248201527f4163636f756e7420697320616c726561647920696e636c75646564000000000060448201526064016108cd565b5f5b609c54811015611d1457816001600160a01b0316609c8281548110611c2d57611c2d613404565b5f918252602090912001546001600160a01b031603611d0c57609c8054611c569060019061322c565b81548110611c6657611c66613404565b5f91825260209091200154609c80546001600160a01b039092169183908110611c9157611c91613404565b5f91825260208083209190910180546001600160a01b0319166001600160a01b039485161790559184168152609882526040808220829055609b90925220805460ff19169055609c805480611ce857611ce8613418565b5f8281526020902081015f1990810180546001600160a01b03191690550190555050565b600101611c06565b5050565b6001600160a01b038316611d7a5760405162461bcd60e51b8152602060048201526024808201527f45524332303a20617070726f76652066726f6d20746865207a65726f206164646044820152637265737360e01b60648201526084016108cd565b6001600160a01b038216611ddb5760405162461bcd60e51b815260206004820152602260248201527f45524332303a20617070726f766520746f20746865207a65726f206164647265604482015261737360f01b60648201526084016108cd565b6001600160a01b038381165f8181526034602090815260408083209487168084529482529182902085905590518481527f8c5be1e5ebec7d5bd14f71427d1e84f3dd0314c0f7b2291e5b200ac8c7c3b925910160405180910390a3505050565b6001600160a01b038316611e9f5760405162461bcd60e51b815260206004820152602560248201527f45524332303a207472616e736665722066726f6d20746865207a65726f206164604482015264647265737360d81b60648201526084016108cd565b6001600160a01b038216611f015760405162461bcd60e51b815260206004820152602360248201527f45524332303a207472616e7366657220746f20746865207a65726f206164647260448201526265737360e81b60648201526084016108cd565b5f8111611f625760405162461bcd60e51b815260206004820152602960248201527f5472616e7366657220616d6f756e74206d7573742062652067726561746572206044820152687468616e207a65726f60b81b60648201526084016108cd565b6065546001600160a01b03848116911614801590611f8e57506065546001600160a01b03838116911614155b15611ff65760a754811115611ff65760405162461bcd60e51b815260206004820152602860248201527f5472616e7366657220616d6f756e74206578636565647320746865206d6178546044820152673c20b6b7bab73a1760c11b60648201526084016108cd565b5f6120003061129a565b905060a7548110612010575060a7545b60a8548110801590819061202e575060b154600160a01b900460ff16155b8015612048575060b1546001600160a01b03868116911614155b801561205d575060b154600160a81b900460ff165b1561209d575f61206c8461211d565b5060a8549096509450505082841191505080156120895750818410155b156120915750805b61209a81612282565b50505b6001600160a01b0385165f908152609a602052604090205460019060ff16806120dd57506001600160a01b0385165f908152609a602052604090205460ff165b156120e557505f5b6117f086868684612326565b5f805f6120fc6124a1565b909250905061210b8282612112565b9250505090565b5f610c6b828461342c565b5f805f805f805f805f805f6121318c612610565b93509350935093505f805f6121508f87878761214b6120f1565b61265f565b919f509d509b509599509397509195509350505050919395979092949650565b5f610c6b828461322c565b5f610c6b828461325a565b5f54610100900460ff168061219d57505f5460ff16155b6121b95760405162461bcd60e51b81526004016108cd9061326d565b5f54610100900460ff161580156121d9575f805461ffff19166101011790555b6121e16126bc565b6121eb8383612721565b8015611107575f805461ff0019169055505050565b5f54610100900460ff168061221757505f5460ff16155b6122335760405162461bcd60e51b81526004016108cd9061326d565b5f54610100900460ff16158015612253575f805461ffff19166101011790555b61225b6126bc565b6122636127a3565b8015612274575f805461ff00191690555b50565b5f610c6b828461343f565b60b1805460ff60a01b1916600160a01b1790555f6122a1826002612112565b90505f6122ae8383612170565b9050476122ba8361284b565b5f6122c54783612170565b90506122d18382612993565b60408051858152602081018390529081018490527f17bbfb9a6069321b6ded73bd96327c9e6b7212a5cd51ff219cd61370acafb5619060600160405180910390a1505060b1805460ff60a01b19169055505050565b8061233357612333612a75565b6001600160a01b0384165f908152609b602052604090205460ff16801561237257506001600160a01b0383165f908152609b602052604090205460ff16155b1561238757612382848484612ab9565b61247f565b6001600160a01b0384165f908152609b602052604090205460ff161580156123c657506001600160a01b0383165f908152609b602052604090205460ff165b156123d657612382848484612bf6565b6001600160a01b0384165f908152609b602052604090205460ff1615801561241657506001600160a01b0383165f908152609b602052604090205460ff16155b1561242657612382848484612cad565b6001600160a01b0384165f908152609b602052604090205460ff16801561246457506001600160a01b0383165f908152609b602052604090205460ff165b1561247457612382848484612d01565b61247f848484612cad565b8061249b5761249b60ac5460ab5560af5460ae5560b25460ad55565b50505050565b60a054609f545f918291825b609c548110156125e0578260975f609c84815481106124ce576124ce613404565b5f9182526020808320909101546001600160a01b03168352820192909252604001902054118061253657508160985f609c848154811061251057612510613404565b5f9182526020808320909101546001600160a01b03168352820192909252604001902054115b1561254c5760a054609f54945094505050509091565b61259060975f609c848154811061256557612565613404565b5f9182526020808320909101546001600160a01b031683528201929092526040019020548490612170565b92506125d660985f609c84815481106125ab576125ab613404565b5f9182526020808320909101546001600160a01b031683528201929092526040019020548390612170565b91506001016124ad565b50609f5460a0546125f091612112565b8210156126075760a054609f549350935050509091565b90939092509050565b5f805f805f61261e86612d83565b90505f61262a87612da4565b90505f61263688612dbf565b90505f61264f8261264985818d89612170565b90612170565b9993985091965094509092505050565b5f80808061266d8986612277565b90505f61267a8987612277565b90505f6126878988612277565b90505f6126948989612277565b90505f6126a78261264985818989612170565b949d949c50929a509298505050505050505050565b5f54610100900460ff16806126d357505f5460ff16155b6126ef5760405162461bcd60e51b81526004016108cd9061326d565b5f54610100900460ff16158015612263575f805461ffff19166101011790558015612274575f805461ff001916905550565b5f54610100900460ff168061273857505f5460ff16155b6127545760405162461bcd60e51b81526004016108cd9061326d565b5f54610100900460ff16158015612774575f805461ffff19166101011790555b6036612780848261332d565b50603761278d838261332d565b508015611107575f805461ff0019169055505050565b5f54610100900460ff16806127ba57505f5460ff16155b6127d65760405162461bcd60e51b81526004016108cd9061326d565b5f54610100900460ff161580156127f6575f805461ffff19166101011790555b606580546001600160a01b0319163390811790915560405181905f907f8be0079c531659141344cd1fd0a4f28419497f9722a3daafe3b4186f6b6457e0908290a3508015612274575f805461ff001916905550565b6040805160028082526060820183525f9260208301908036833701905050905030815f8151811061287e5761287e613404565b6001600160a01b0392831660209182029290920181019190915260b054604080516315ab88c960e31b81529051919093169263ad5c46489260048083019391928290030181865afa1580156128d5573d5f803e3d5ffd5b505050506040513d601f19601f820116820180604052508101906128f9919061323f565b8160018151811061290c5761290c613404565b6001600160a01b03928316602091820292909201015260b0546129329130911684611d18565b60b05460405163791ac94760e01b81526001600160a01b039091169063791ac9479061296a9085905f90869030904290600401613456565b5f604051808303815f87803b158015612981575f80fd5b505af11580156117f0573d5f803e3d5ffd5b60b0546129ab9030906001600160a01b031684611d18565b60b0546001600160a01b031663f305d7198230855f806129d36065546001600160a01b031690565b60405160e088901b6001600160e01b03191681526001600160a01b03958616600482015260248101949094526044840192909252606483015290911660848201524260a482015260c40160606040518083038185885af1158015612a39573d5f803e3d5ffd5b50505050506040513d601f19601f82011682018060405250810190612a5e91906134c7565b505060a254612a6e91508361217b565b60a2555050565b60ab54158015612a85575060ae54155b8015612a91575060ad54155b15612a9857565b60ab805460ac5560ae805460af5560ad805460b2555f928390559082905555565b5f805f805f805f612ac98861211d565b9650965096509650965096509650612b0d8860985f8d6001600160a01b03166001600160a01b031681526020019081526020015f205461217090919063ffffffff16565b6001600160a01b038b165f90815260986020908152604080832093909355609790522054612b3b9088612170565b6001600160a01b03808c165f9081526097602052604080822093909355908b1681522054612b69908761217b565b6001600160a01b038a165f90815260976020526040902055612b8a81612dda565b612b948584612e5c565b612b9d82612e80565b886001600160a01b03168a6001600160a01b03167fddf252ad1be2c89b69c2b068fc378daa952ba7f163c4a11628f55a4df523b3ef86604051612be291815260200190565b60405180910390a350505050505050505050565b5f805f805f805f612c068861211d565b9650965096509650965096509650612c4a8760975f8d6001600160a01b03166001600160a01b031681526020019081526020015f205461217090919063ffffffff16565b6001600160a01b03808c165f90815260976020908152604080832094909455918c16815260989091522054612c7f908561217b565b6001600160a01b038a165f90815260986020908152604080832093909355609790522054612b69908761217b565b5f805f805f805f612cbd8861211d565b9650965096509650965096509650612b3b8760975f8d6001600160a01b03166001600160a01b031681526020019081526020015f205461217090919063ffffffff16565b5f805f805f805f612d118861211d565b9650965096509650965096509650612d558860985f8d6001600160a01b03166001600160a01b031681526020019081526020015f205461217090919063ffffffff16565b6001600160a01b038b165f90815260986020908152604080832093909355609790522054612c4a9088612170565b5f61089d6064612d9e60ab548561227790919063ffffffff16565b90612112565b5f61089d6064612d9e60ad548561227790919063ffffffff16565b5f61089d6064612d9e60ae548561227790919063ffffffff16565b5f612de36120f1565b90505f612df08383612277565b305f90815260976020526040902054909150612e0c908261217b565b305f90815260976020908152604080832093909355609b9052205460ff161561110757305f90815260986020526040902054612e48908461217b565b305f90815260986020526040902055505050565b60a054612e699083612170565b60a05560a154612e79908261217b565b60a1555050565b5f612e896120f1565b90505f612e968383612277565b60a054909150612ea69082612170565b60a05560aa54612eb6908461217b565b60aa55505050565b5f602080835283518060208501525f5b81811015612eea57858101830151858201604001528201612ece565b505f604082860101526040601f19601f8301168501019250505092915050565b6001600160a01b0381168114612274575f80fd5b5f8060408385031215612f2f575f80fd5b8235612f3a81612f0a565b946020939093013593505050565b5f60208284031215612f58575f80fd5b5035919050565b5f805f60608486031215612f71575f80fd5b8335612f7c81612f0a565b92506020840135612f8c81612f0a565b929592945050506040919091013590565b5f60208284031215612fad575f80fd5b8135610c6b81612f0a565b8015158114612274575f80fd5b5f8060408385031215612fd6575f80fd5b823591506020830135612fe881612fb8565b809150509250929050565b634e487b7160e01b5f52604160045260245ffd5b5f82601f830112613016575f80fd5b813567ffffffffffffffff8082111561303157613031612ff3565b604051601f8301601f19908116603f0116810190828211818310171561305957613059612ff3565b81604052838152866020858801011115613071575f80fd5b836020870160208301375f602085830101528094505050505092915050565b5f80604083850312156130a1575f80fd5b823567ffffffffffffffff808211156130b8575f80fd5b6130c486838701613007565b935060208501359150808211156130d9575f80fd5b506130e685828601613007565b9150509250929050565b5f805f60408486031215613102575f80fd5b833567ffffffffffffffff80821115613119575f80fd5b818601915086601f83011261312c575f80fd5b81358181111561313a575f80fd5b8760208260051b850101111561314e575f80fd5b6020928301989097509590910135949350505050565b5f60208284031215613174575f80fd5b8135610c6b81612fb8565b5f8060408385031215613190575f80fd5b823561319b81612f0a565b91506020830135612fe881612f0a565b600181811c908216806131bf57607f821691505b6020821081036131dd57634e487b7160e01b5f52602260045260245ffd5b50919050565b6020808252818101527f4f776e61626c653a2063616c6c6572206973206e6f7420746865206f776e6572604082015260600190565b634e487b7160e01b5f52601160045260245ffd5b8181038181111561089d5761089d613218565b5f6020828403121561324f575f80fd5b8151610c6b81612f0a565b8082018082111561089d5761089d613218565b6020808252602e908201527f496e697469616c697a61626c653a20636f6e747261637420697320616c72656160408201526d191e481a5b9a5d1a585b1a5e995960921b606082015260800190565b634e487b7160e01b5f52601260045260245ffd5b5f826132dd576132dd6132bb565b500690565b601f82111561110757805f5260205f20601f840160051c810160208510156133075750805b601f840160051c820191505b81811015613326575f8155600101613313565b5050505050565b815167ffffffffffffffff81111561334757613347612ff3565b61335b8161335584546131ab565b846132e2565b602080601f83116001811461338e575f84156133775750858301515b5f19600386901b1c1916600185901b1785556117f0565b5f85815260208120601f198616915b828110156133bc5788860151825594840194600190910190840161339d565b50858210156133d957878501515f19600388901b60f8161c191681555b5050505050600190811b01905550565b5f602082840312156133f9575f80fd5b8151610c6b81612fb8565b634e487b7160e01b5f52603260045260245ffd5b634e487b7160e01b5f52603160045260245ffd5b5f8261343a5761343a6132bb565b500490565b808202811582820484141761089d5761089d613218565b5f60a08201878352602087602085015260a0604085015281875180845260c0860191506020890193505f5b818110156134a65784516001600160a01b031683529383019391830191600101613481565b50506001600160a01b03969096166060850152505050608001529392505050565b5f805f606084860312156134d9575f80fd5b835192506020840151915060408401519050925092509256fea26469706673582212205b344417cc352f66262d29c9f543422c46a8733227b60d01509ccc6b8e9a95d664736f6c63430008170033",
			"opcodes": "PUSH1 0x80 PUSH1 0x40 MSTORE CALLVALUE DUP1 ISZERO PUSH2 0xF JUMPI PUSH0 DUP1 REVERT JUMPDEST POP PUSH2 0x3528 DUP1 PUSH2 0x1D PUSH0 CODECOPY PUSH0 RETURN INVALID PUSH1 0x80 PUSH1 0x40 MSTORE PUSH1 0x4 CALLDATASIZE LT PUSH2 0x26D JUMPI PUSH0 CALLDATALOAD PUSH1 0xE0 SHR DUP1 PUSH4 0x5880B873 GT PUSH2 0x14A JUMPI DUP1 PUSH4 0xA9059CBB GT PUSH2 0xBE JUMPI DUP1 PUSH4 0xDD62ED3E GT PUSH2 0x78 JUMPI DUP1 PUSH4 0xDD62ED3E EQ PUSH2 0x729 JUMPI DUP1 PUSH4 0xEA2F0B37 EQ PUSH2 0x76D JUMPI DUP1 PUSH4 0xF2CC0C18 EQ PUSH2 0x78C JUMPI DUP1 PUSH4 0xF2FDE38B EQ PUSH2 0x7AB JUMPI DUP1 PUSH4 0xF66608FE EQ PUSH2 0x7CA JUMPI DUP1 PUSH4 0xF84354F1 EQ PUSH2 0x7DE JUMPI PUSH0 DUP1 REVERT JUMPDEST DUP1 PUSH4 0xA9059CBB EQ PUSH2 0x657 JUMPI DUP1 PUSH4 0xBCD6D446 EQ PUSH2 0x676 JUMPI DUP1 PUSH4 0xC138FF6A EQ PUSH2 0x695 JUMPI DUP1 PUSH4 0xC204642C EQ PUSH2 0x6B4 JUMPI DUP1 PUSH4 0xC49B9A80 EQ PUSH2 0x6D3 JUMPI DUP1 PUSH4 0xCBA0E996 EQ PUSH2 0x6F2 JUMPI PUSH0 DUP1 REVERT JUMPDEST DUP1 PUSH4 0x871363E9 GT PUSH2 0x10F JUMPI DUP1 PUSH4 0x871363E9 EQ PUSH2 0x5C0 JUMPI DUP1 PUSH4 0x8980F11F EQ PUSH2 0x5D4 JUMPI DUP1 PUSH4 0x8DA5CB5B EQ PUSH2 0x5F3 JUMPI DUP1 PUSH4 0x95D89B41 EQ PUSH2 0x610 JUMPI DUP1 PUSH4 0x9B2F821B EQ PUSH2 0x624 JUMPI DUP1 PUSH4 0xA457C2D7 EQ PUSH2 0x638 JUMPI PUSH0 DUP1 REVERT JUMPDEST DUP1 PUSH4 0x5880B873 EQ PUSH2 0x53A JUMPI DUP1 PUSH4 0x70A08231 EQ PUSH2 0x559 JUMPI DUP1 PUSH4 0x715018A6 EQ PUSH2 0x578 JUMPI DUP1 PUSH4 0x7D1DB4A5 EQ PUSH2 0x58C JUMPI DUP1 PUSH4 0x85227388 EQ PUSH2 0x5A1 JUMPI PUSH0 DUP1 REVERT JUMPDEST DUP1 PUSH4 0x39509351 GT PUSH2 0x1E1 JUMPI DUP1 PUSH4 0x4549B039 GT PUSH2 0x1A6 JUMPI DUP1 PUSH4 0x4549B039 EQ PUSH2 0x472 JUMPI DUP1 PUSH4 0x49BD5A5E EQ PUSH2 0x491 JUMPI DUP1 PUSH4 0x4A74BB02 EQ PUSH2 0x4B0 JUMPI DUP1 PUSH4 0x4CD88B76 EQ PUSH2 0x4D0 JUMPI DUP1 PUSH4 0x4E71D92D EQ PUSH2 0x4EF JUMPI DUP1 PUSH4 0x5342ACB4 EQ PUSH2 0x503 JUMPI PUSH0 DUP1 REVERT JUMPDEST DUP1 PUSH4 0x39509351 EQ PUSH2 0x3E2 JUMPI DUP1 PUSH4 0x3B6B1961 EQ PUSH2 0x401 JUMPI DUP1 PUSH4 0x3BD5D173 EQ PUSH2 0x420 JUMPI DUP1 PUSH4 0x3C9F861D EQ PUSH2 0x43F JUMPI DUP1 PUSH4 0x437823EC EQ PUSH2 0x453 JUMPI PUSH0 DUP1 REVERT JUMPDEST DUP1 PUSH4 0x18160DDD GT PUSH2 0x232 JUMPI DUP1 PUSH4 0x18160DDD EQ PUSH2 0x33A JUMPI DUP1 PUSH4 0x1DECAADC EQ PUSH2 0x34E JUMPI DUP1 PUSH4 0x23B872DD EQ PUSH2 0x36F JUMPI DUP1 PUSH4 0x2C7DE63D EQ PUSH2 0x38E JUMPI DUP1 PUSH4 0x2D838119 EQ PUSH2 0x3A2 JUMPI DUP1 PUSH4 0x313CE567 EQ PUSH2 0x3C1 JUMPI PUSH0 DUP1 REVERT JUMPDEST DUP1 PUSH4 0x6FDDE03 EQ PUSH2 0x278 JUMPI DUP1 PUSH4 0x95EA7B3 EQ PUSH2 0x2A2 JUMPI DUP1 PUSH4 0x13114A9D EQ PUSH2 0x2D1 JUMPI DUP1 PUSH4 0x15770F92 EQ PUSH2 0x2EF JUMPI DUP1 PUSH4 0x1694505E EQ PUSH2 0x303 JUMPI PUSH0 DUP1 REVERT JUMPDEST CALLDATASIZE PUSH2 0x274 JUMPI STOP JUMPDEST PUSH0 DUP1 REVERT JUMPDEST CALLVALUE DUP1 ISZERO PUSH2 0x283 JUMPI PUSH0 DUP1 REVERT JUMPDEST POP PUSH2 0x28C PUSH2 0x7FD JUMP JUMPDEST PUSH1 0x40 MLOAD PUSH2 0x299 SWAP2 SWAP1 PUSH2 0x2EBE JUMP JUMPDEST PUSH1 0x40 MLOAD DUP1 SWAP2 SUB SWAP1 RETURN JUMPDEST CALLVALUE DUP1 ISZERO PUSH2 0x2AD JUMPI PUSH0 DUP1 REVERT JUMPDEST POP PUSH2 0x2C1 PUSH2 0x2BC CALLDATASIZE PUSH1 0x4 PUSH2 0x2F1E JUMP JUMPDEST PUSH2 0x88D JUMP JUMPDEST PUSH1 0x40 MLOAD SWAP1 ISZERO ISZERO DUP2 MSTORE PUSH1 0x20 ADD PUSH2 0x299 JUMP JUMPDEST CALLVALUE DUP1 ISZERO PUSH2 0x2DC JUMPI PUSH0 DUP1 REVERT JUMPDEST POP PUSH1 0xA1 SLOAD JUMPDEST PUSH1 0x40 MLOAD SWAP1 DUP2 MSTORE PUSH1 0x20 ADD PUSH2 0x299 JUMP JUMPDEST CALLVALUE DUP1 ISZERO PUSH2 0x2FA JUMPI PUSH0 DUP1 REVERT JUMPDEST POP PUSH1 0xA2 SLOAD PUSH2 0x2E1 JUMP JUMPDEST CALLVALUE DUP1 ISZERO PUSH2 0x30E JUMPI PUSH0 DUP1 REVERT JUMPDEST POP PUSH1 0xB0 SLOAD PUSH2 0x322 SWAP1 PUSH1 0x1 PUSH1 0x1 PUSH1 0xA0 SHL SUB AND DUP2 JUMP JUMPDEST PUSH1 0x40 MLOAD PUSH1 0x1 PUSH1 0x1 PUSH1 0xA0 SHL SUB SWAP1 SWAP2 AND DUP2 MSTORE PUSH1 0x20 ADD PUSH2 0x299 JUMP JUMPDEST CALLVALUE DUP1 ISZERO PUSH2 0x345 JUMPI PUSH0 DUP1 REVERT JUMPDEST POP PUSH1 0x9F SLOAD PUSH2 0x2E1 JUMP JUMPDEST CALLVALUE DUP1 ISZERO PUSH2 0x359 JUMPI PUSH0 DUP1 REVERT JUMPDEST POP PUSH2 0x36D PUSH2 0x368 CALLDATASIZE PUSH1 0x4 PUSH2 0x2F48 JUMP JUMPDEST PUSH2 0x8A3 JUMP JUMPDEST STOP JUMPDEST CALLVALUE DUP1 ISZERO PUSH2 0x37A JUMPI PUSH0 DUP1 REVERT JUMPDEST POP PUSH2 0x2C1 PUSH2 0x389 CALLDATASIZE PUSH1 0x4 PUSH2 0x2F5F JUMP JUMPDEST PUSH2 0x97B JUMP JUMPDEST CALLVALUE DUP1 ISZERO PUSH2 0x399 JUMPI PUSH0 DUP1 REVERT JUMPDEST POP PUSH2 0x36D PUSH2 0xA2A JUMP JUMPDEST CALLVALUE DUP1 ISZERO PUSH2 0x3AD JUMPI PUSH0 DUP1 REVERT JUMPDEST POP PUSH2 0x2E1 PUSH2 0x3BC CALLDATASIZE PUSH1 0x4 PUSH2 0x2F48 JUMP JUMPDEST PUSH2 0xBF0 JUMP JUMPDEST CALLVALUE DUP1 ISZERO PUSH2 0x3CC JUMPI PUSH0 DUP1 REVERT JUMPDEST POP PUSH1 0xA6 SLOAD PUSH1 0x40 MLOAD PUSH1 0xFF SWAP1 SWAP2 AND DUP2 MSTORE PUSH1 0x20 ADD PUSH2 0x299 JUMP JUMPDEST CALLVALUE DUP1 ISZERO PUSH2 0x3ED JUMPI PUSH0 DUP1 REVERT JUMPDEST POP PUSH2 0x2C1 PUSH2 0x3FC CALLDATASIZE PUSH1 0x4 PUSH2 0x2F1E JUMP JUMPDEST PUSH2 0xC72 JUMP JUMPDEST CALLVALUE DUP1 ISZERO PUSH2 0x40C JUMPI PUSH0 DUP1 REVERT JUMPDEST POP PUSH2 0x36D PUSH2 0x41B CALLDATASIZE PUSH1 0x4 PUSH2 0x2F48 JUMP JUMPDEST PUSH2 0xCA8 JUMP JUMPDEST CALLVALUE DUP1 ISZERO PUSH2 0x42B JUMPI PUSH0 DUP1 REVERT JUMPDEST POP PUSH2 0x36D PUSH2 0x43A CALLDATASIZE PUSH1 0x4 PUSH2 0x2F48 JUMP JUMPDEST PUSH2 0xD35 JUMP JUMPDEST CALLVALUE DUP1 ISZERO PUSH2 0x44A JUMPI PUSH0 DUP1 REVERT JUMPDEST POP PUSH1 0xAA SLOAD PUSH2 0x2E1 JUMP JUMPDEST CALLVALUE DUP1 ISZERO PUSH2 0x45E JUMPI PUSH0 DUP1 REVERT JUMPDEST POP PUSH2 0x36D PUSH2 0x46D CALLDATASIZE PUSH1 0x4 PUSH2 0x2F9D JUMP JUMPDEST PUSH2 0xE1D JUMP JUMPDEST CALLVALUE DUP1 ISZERO PUSH2 0x47D JUMPI PUSH0 DUP1 REVERT JUMPDEST POP PUSH2 0x2E1 PUSH2 0x48C CALLDATASIZE PUSH1 0x4 PUSH2 0x2FC5 JUMP JUMPDEST PUSH2 0xE6A JUMP JUMPDEST CALLVALUE DUP1 ISZERO PUSH2 0x49C JUMPI PUSH0 DUP1 REVERT JUMPDEST POP PUSH1 0xB1 SLOAD PUSH2 0x322 SWAP1 PUSH1 0x1 PUSH1 0x1 PUSH1 0xA0 SHL SUB AND DUP2 JUMP JUMPDEST CALLVALUE DUP1 ISZERO PUSH2 0x4BB JUMPI PUSH0 DUP1 REVERT JUMPDEST POP PUSH1 0xB1 SLOAD PUSH2 0x2C1 SWAP1 PUSH1 0x1 PUSH1 0xA8 SHL SWAP1 DIV PUSH1 0xFF AND DUP2 JUMP JUMPDEST CALLVALUE DUP1 ISZERO PUSH2 0x4DB JUMPI PUSH0 DUP1 REVERT JUMPDEST POP PUSH2 0x36D PUSH2 0x4EA CALLDATASIZE PUSH1 0x4 PUSH2 0x3090 JUMP JUMPDEST PUSH2 0xEF6 JUMP JUMPDEST CALLVALUE DUP1 ISZERO PUSH2 0x4FA JUMPI PUSH0 DUP1 REVERT JUMPDEST POP PUSH2 0x2C1 PUSH2 0x110C JUMP JUMPDEST CALLVALUE DUP1 ISZERO PUSH2 0x50E JUMPI PUSH0 DUP1 REVERT JUMPDEST POP PUSH2 0x2C1 PUSH2 0x51D CALLDATASIZE PUSH1 0x4 PUSH2 0x2F9D JUMP JUMPDEST PUSH1 0x1 PUSH1 0x1 PUSH1 0xA0 SHL SUB AND PUSH0 SWAP1 DUP2 MSTORE PUSH1 0x9A PUSH1 0x20 MSTORE PUSH1 0x40 SWAP1 KECCAK256 SLOAD PUSH1 0xFF AND SWAP1 JUMP JUMPDEST CALLVALUE DUP1 ISZERO PUSH2 0x545 JUMPI PUSH0 DUP1 REVERT JUMPDEST POP PUSH2 0x36D PUSH2 0x554 CALLDATASIZE PUSH1 0x4 PUSH2 0x2F48 JUMP JUMPDEST PUSH2 0x120D JUMP JUMPDEST CALLVALUE DUP1 ISZERO PUSH2 0x564 JUMPI PUSH0 DUP1 REVERT JUMPDEST POP PUSH2 0x2E1 PUSH2 0x573 CALLDATASIZE PUSH1 0x4 PUSH2 0x2F9D JUMP JUMPDEST PUSH2 0x129A JUMP JUMPDEST CALLVALUE DUP1 ISZERO PUSH2 0x583 JUMPI PUSH0 DUP1 REVERT JUMPDEST POP PUSH2 0x36D PUSH2 0x1331 JUMP JUMPDEST CALLVALUE DUP1 ISZERO PUSH2 0x597 JUMPI PUSH0 DUP1 REVERT JUMPDEST POP PUSH2 0x2E1 PUSH1 0xA7 SLOAD DUP2 JUMP JUMPDEST CALLVALUE DUP1 ISZERO PUSH2 0x5AC JUMPI PUSH0 DUP1 REVERT JUMPDEST POP PUSH2 0x36D PUSH2 0x5BB CALLDATASIZE PUSH1 0x4 PUSH2 0x2F9D JUMP JUMPDEST PUSH2 0x13A4 JUMP JUMPDEST CALLVALUE DUP1 ISZERO PUSH2 0x5CB JUMPI PUSH0 DUP1 REVERT JUMPDEST POP PUSH1 0xAE SLOAD PUSH2 0x2E1 JUMP JUMPDEST CALLVALUE DUP1 ISZERO PUSH2 0x5DF JUMPI PUSH0 DUP1 REVERT JUMPDEST POP PUSH2 0x36D PUSH2 0x5EE CALLDATASIZE PUSH1 0x4 PUSH2 0x2F1E JUMP JUMPDEST PUSH2 0x13F0 JUMP JUMPDEST CALLVALUE DUP1 ISZERO PUSH2 0x5FE JUMPI PUSH0 DUP1 REVERT JUMPDEST POP PUSH1 0x65 SLOAD PUSH1 0x1 PUSH1 0x1 PUSH1 0xA0 SHL SUB AND PUSH2 0x322 JUMP JUMPDEST CALLVALUE DUP1 ISZERO PUSH2 0x61B JUMPI PUSH0 DUP1 REVERT JUMPDEST POP PUSH2 0x28C PUSH2 0x14A9 JUMP JUMPDEST CALLVALUE DUP1 ISZERO PUSH2 0x62F JUMPI PUSH0 DUP1 REVERT JUMPDEST POP PUSH1 0xA8 SLOAD PUSH2 0x2E1 JUMP JUMPDEST CALLVALUE DUP1 ISZERO PUSH2 0x643 JUMPI PUSH0 DUP1 REVERT JUMPDEST POP PUSH2 0x2C1 PUSH2 0x652 CALLDATASIZE PUSH1 0x4 PUSH2 0x2F1E JUMP JUMPDEST PUSH2 0x14B8 JUMP JUMPDEST CALLVALUE DUP1 ISZERO PUSH2 0x662 JUMPI PUSH0 DUP1 REVERT JUMPDEST POP PUSH2 0x2C1 PUSH2 0x671 CALLDATASIZE PUSH1 0x4 PUSH2 0x2F1E JUMP JUMPDEST PUSH2 0x1552 JUMP JUMPDEST CALLVALUE DUP1 ISZERO PUSH2 0x681 JUMPI PUSH0 DUP1 REVERT JUMPDEST POP PUSH2 0x36D PUSH2 0x690 CALLDATASIZE PUSH1 0x4 PUSH2 0x2F48 JUMP JUMPDEST PUSH2 0x155E JUMP JUMPDEST CALLVALUE DUP1 ISZERO PUSH2 0x6A0 JUMPI PUSH0 DUP1 REVERT JUMPDEST POP PUSH2 0x36D PUSH2 0x6AF CALLDATASIZE PUSH1 0x4 PUSH2 0x2F9D JUMP JUMPDEST PUSH2 0x15EB JUMP JUMPDEST CALLVALUE DUP1 ISZERO PUSH2 0x6BF JUMPI PUSH0 DUP1 REVERT JUMPDEST POP PUSH2 0x36D PUSH2 0x6CE CALLDATASIZE PUSH1 0x4 PUSH2 0x30F0 JUMP JUMPDEST PUSH2 0x1615 JUMP JUMPDEST CALLVALUE DUP1 ISZERO PUSH2 0x6DE JUMPI PUSH0 DUP1 REVERT JUMPDEST POP PUSH2 0x36D PUSH2 0x6ED CALLDATASIZE PUSH1 0x4 PUSH2 0x3164 JUMP JUMPDEST PUSH2 0x17F8 JUMP JUMPDEST CALLVALUE DUP1 ISZERO PUSH2 0x6FD JUMPI PUSH0 DUP1 REVERT JUMPDEST POP PUSH2 0x2C1 PUSH2 0x70C CALLDATASIZE PUSH1 0x4 PUSH2 0x2F9D JUMP JUMPDEST PUSH1 0x1 PUSH1 0x1 PUSH1 0xA0 SHL SUB AND PUSH0 SWAP1 DUP2 MSTORE PUSH1 0x9B PUSH1 0x20 MSTORE PUSH1 0x40 SWAP1 KECCAK256 SLOAD PUSH1 0xFF AND SWAP1 JUMP JUMPDEST CALLVALUE DUP1 ISZERO PUSH2 0x734 JUMPI PUSH0 DUP1 REVERT JUMPDEST POP PUSH2 0x2E1 PUSH2 0x743 CALLDATASIZE PUSH1 0x4 PUSH2 0x317F JUMP JUMPDEST PUSH1 0x1 PUSH1 0x1 PUSH1 0xA0 SHL SUB SWAP2 DUP3 AND PUSH0 SWAP1 DUP2 MSTORE PUSH1 0x34 PUSH1 0x20 SWAP1 DUP2 MSTORE PUSH1 0x40 DUP1 DUP4 KECCAK256 SWAP4 SWAP1 SWAP5 AND DUP3 MSTORE SWAP2 SWAP1 SWAP2 MSTORE KECCAK256 SLOAD SWAP1 JUMP JUMPDEST CALLVALUE DUP1 ISZERO PUSH2 0x778 JUMPI PUSH0 DUP1 REVERT JUMPDEST POP PUSH2 0x36D PUSH2 0x787 CALLDATASIZE PUSH1 0x4 PUSH2 0x2F9D JUMP JUMPDEST PUSH2 0x187A JUMP JUMPDEST CALLVALUE DUP1 ISZERO PUSH2 0x797 JUMPI PUSH0 DUP1 REVERT JUMPDEST POP PUSH2 0x36D PUSH2 0x7A6 CALLDATASIZE PUSH1 0x4 PUSH2 0x2F9D JUMP JUMPDEST PUSH2 0x18C4 JUMP JUMPDEST CALLVALUE DUP1 ISZERO PUSH2 0x7B6 JUMPI PUSH0 DUP1 REVERT JUMPDEST POP PUSH2 0x36D PUSH2 0x7C5 CALLDATASIZE PUSH1 0x4 PUSH2 0x2F9D JUMP JUMPDEST PUSH2 0x1A89 JUMP JUMPDEST CALLVALUE DUP1 ISZERO PUSH2 0x7D5 JUMPI PUSH0 DUP1 REVERT JUMPDEST POP PUSH1 0xAB SLOAD PUSH2 0x2E1 JUMP JUMPDEST CALLVALUE DUP1 ISZERO PUSH2 0x7E9 JUMPI PUSH0 DUP1 REVERT JUMPDEST POP PUSH2 0x36D PUSH2 0x7F8 CALLDATASIZE PUSH1 0x4 PUSH2 0x2F9D JUMP JUMPDEST PUSH2 0x1B73 JUMP JUMPDEST PUSH1 0x60 PUSH1 0x36 DUP1 SLOAD PUSH2 0x80C SWAP1 PUSH2 0x31AB JUMP JUMPDEST DUP1 PUSH1 0x1F ADD PUSH1 0x20 DUP1 SWAP2 DIV MUL PUSH1 0x20 ADD PUSH1 0x40 MLOAD SWAP1 DUP2 ADD PUSH1 0x40 MSTORE DUP1 SWAP3 SWAP2 SWAP1 DUP2 DUP2 MSTORE PUSH1 0x20 ADD DUP3 DUP1 SLOAD PUSH2 0x838 SWAP1 PUSH2 0x31AB JUMP JUMPDEST DUP1 ISZERO PUSH2 0x883 JUMPI DUP1 PUSH1 0x1F LT PUSH2 0x85A JUMPI PUSH2 0x100 DUP1 DUP4 SLOAD DIV MUL DUP4 MSTORE SWAP2 PUSH1 0x20 ADD SWAP2 PUSH2 0x883 JUMP JUMPDEST DUP3 ADD SWAP2 SWAP1 PUSH0 MSTORE PUSH1 0x20 PUSH0 KECCAK256 SWAP1 JUMPDEST DUP2 SLOAD DUP2 MSTORE SWAP1 PUSH1 0x1 ADD SWAP1 PUSH1 0x20 ADD DUP1 DUP4 GT PUSH2 0x866 JUMPI DUP3 SWAP1 SUB PUSH1 0x1F AND DUP3 ADD SWAP2 JUMPDEST POP POP POP POP POP SWAP1 POP SWAP1 JUMP JUMPDEST PUSH0 PUSH2 0x899 CALLER DUP5 DUP5 PUSH2 0x1D18 JUMP JUMPDEST POP PUSH1 0x1 JUMPDEST SWAP3 SWAP2 POP POP JUMP JUMPDEST PUSH1 0x65 SLOAD PUSH1 0x1 PUSH1 0x1 PUSH1 0xA0 SHL SUB AND CALLER EQ PUSH2 0x8D6 JUMPI PUSH1 0x40 MLOAD PUSH3 0x461BCD PUSH1 0xE5 SHL DUP2 MSTORE PUSH1 0x4 ADD PUSH2 0x8CD SWAP1 PUSH2 0x31E3 JUMP JUMPDEST PUSH1 0x40 MLOAD DUP1 SWAP2 SUB SWAP1 REVERT JUMPDEST PUSH8 0x16345785D8A0000 DUP2 LT ISZERO DUP1 ISZERO PUSH2 0x8F8 JUMPI POP PUSH10 0x21E19E0C9BAB2400000 DUP2 GT ISZERO JUMPDEST PUSH2 0x976 JUMPI PUSH1 0x40 MLOAD PUSH3 0x461BCD PUSH1 0xE5 SHL DUP2 MSTORE PUSH1 0x20 PUSH1 0x4 DUP3 ADD MSTORE PUSH1 0x43 PUSH1 0x24 DUP3 ADD MSTORE PUSH32 0x6E756D546F6B656E732073686F756C6420626520696E20313030303030303030 PUSH1 0x44 DUP3 ADD MSTORE PUSH32 0x303030303030303030202D203130303030303030303030303030303030303030 PUSH1 0x64 DUP3 ADD MSTORE PUSH3 0x30303 PUSH1 0xEC SHL PUSH1 0x84 DUP3 ADD MSTORE PUSH1 0xA4 ADD PUSH2 0x8CD JUMP JUMPDEST PUSH1 0xA8 SSTORE JUMP JUMPDEST PUSH0 PUSH2 0x987 DUP5 DUP5 DUP5 PUSH2 0x1E3B JUMP JUMPDEST PUSH1 0x1 PUSH1 0x1 PUSH1 0xA0 SHL SUB DUP5 AND PUSH0 SWAP1 DUP2 MSTORE PUSH1 0x34 PUSH1 0x20 SWAP1 DUP2 MSTORE PUSH1 0x40 DUP1 DUP4 KECCAK256 CALLER DUP5 MSTORE SWAP1 SWAP2 MSTORE SWAP1 KECCAK256 SLOAD DUP3 DUP2 LT ISZERO PUSH2 0xA0B JUMPI PUSH1 0x40 MLOAD PUSH3 0x461BCD PUSH1 0xE5 SHL DUP2 MSTORE PUSH1 0x20 PUSH1 0x4 DUP3 ADD MSTORE PUSH1 0x28 PUSH1 0x24 DUP3 ADD MSTORE PUSH32 0x45524332303A207472616E7366657220616D6F756E7420657863656564732061 PUSH1 0x44 DUP3 ADD MSTORE PUSH8 0x6C6C6F77616E6365 PUSH1 0xC0 SHL PUSH1 0x64 DUP3 ADD MSTORE PUSH1 0x84 ADD PUSH2 0x8CD JUMP JUMPDEST PUSH2 0xA1F DUP6 CALLER PUSH2 0xA1A DUP7 DUP6 PUSH2 0x322C JUMP JUMPDEST PUSH2 0x1D18 JUMP JUMPDEST POP PUSH1 0x1 SWAP5 SWAP4 POP POP POP POP JUMP JUMPDEST PUSH1 0x65 SLOAD PUSH1 0x1 PUSH1 0x1 PUSH1 0xA0 SHL SUB AND CALLER EQ PUSH2 0xA54 JUMPI PUSH1 0x40 MLOAD PUSH3 0x461BCD PUSH1 0xE5 SHL DUP2 MSTORE PUSH1 0x4 ADD PUSH2 0x8CD SWAP1 PUSH2 0x31E3 JUMP JUMPDEST PUSH1 0xB1 SLOAD PUSH1 0x1 PUSH1 0x1 PUSH1 0xA0 SHL SUB AND ISZERO PUSH2 0xA69 JUMPI PUSH0 DUP1 REVERT JUMPDEST PUSH1 0xB0 PUSH0 SWAP1 SLOAD SWAP1 PUSH2 0x100 EXP SWAP1 DIV PUSH1 0x1 PUSH1 0x1 PUSH1 0xA0 SHL SUB AND PUSH1 0x1 PUSH1 0x1 PUSH1 0xA0 SHL SUB AND PUSH4 0xC45A0155 PUSH1 0x40 MLOAD DUP2 PUSH4 0xFFFFFFFF AND PUSH1 0xE0 SHL DUP2 MSTORE PUSH1 0x4 ADD PUSH1 0x20 PUSH1 0x40 MLOAD DUP1 DUP4 SUB DUP2 DUP7 GAS STATICCALL ISZERO DUP1 ISZERO PUSH2 0xAB9 JUMPI RETURNDATASIZE PUSH0 DUP1 RETURNDATACOPY RETURNDATASIZE PUSH0 REVERT JUMPDEST POP POP POP POP PUSH1 0x40 MLOAD RETURNDATASIZE PUSH1 0x1F NOT PUSH1 0x1F DUP3 ADD AND DUP3 ADD DUP1 PUSH1 0x40 MSTORE POP DUP2 ADD SWAP1 PUSH2 0xADD SWAP2 SWAP1 PUSH2 0x323F JUMP JUMPDEST PUSH1 0x1 PUSH1 0x1 PUSH1 0xA0 SHL SUB AND PUSH4 0xC9C65396 ADDRESS PUSH1 0xB0 PUSH0 SWAP1 SLOAD SWAP1 PUSH2 0x100 EXP SWAP1 DIV PUSH1 0x1 PUSH1 0x1 PUSH1 0xA0 SHL SUB AND PUSH1 0x1 PUSH1 0x1 PUSH1 0xA0 SHL SUB AND PUSH4 0xAD5C4648 PUSH1 0x40 MLOAD DUP2 PUSH4 0xFFFFFFFF AND PUSH1 0xE0 SHL DUP2 MSTORE PUSH1 0x4 ADD PUSH1 0x20 PUSH1 0x40 MLOAD DUP1 DUP4 SUB DUP2 DUP7 GAS STATICCALL ISZERO DUP1 ISZERO PUSH2 0xB3C JUMPI RETURNDATASIZE PUSH0 DUP1 RETURNDATACOPY RETURNDATASIZE PUSH0 REVERT JUMPDEST POP POP POP POP PUSH1 0x40 MLOAD RETURNDATASIZE PUSH1 0x1F NOT PUSH1 0x1F DUP3 ADD AND DUP3 ADD DUP1 PUSH1 0x40 MSTORE POP DUP2 ADD SWAP1 PUSH2 0xB60 SWAP2 SWAP1 PUSH2 0x323F JUMP JUMPDEST PUSH1 0x40 MLOAD PUSH1 0x1 PUSH1 0x1 PUSH1 0xE0 SHL SUB NOT PUSH1 0xE0 DUP6 SWAP1 SHL AND DUP2 MSTORE PUSH1 0x1 PUSH1 0x1 PUSH1 0xA0 SHL SUB SWAP3 DUP4 AND PUSH1 0x4 DUP3 ADD MSTORE SWAP2 AND PUSH1 0x24 DUP3 ADD MSTORE PUSH1 0x44 ADD PUSH1 0x20 PUSH1 0x40 MLOAD DUP1 DUP4 SUB DUP2 PUSH0 DUP8 GAS CALL ISZERO DUP1 ISZERO PUSH2 0xBAA JUMPI RETURNDATASIZE PUSH0 DUP1 RETURNDATACOPY RETURNDATASIZE PUSH0 REVERT JUMPDEST POP POP POP POP PUSH1 0x40 MLOAD RETURNDATASIZE PUSH1 0x1F NOT PUSH1 0x1F DUP3 ADD AND DUP3 ADD DUP1 PUSH1 0x40 MSTORE POP DUP2 ADD SWAP1 PUSH2 0xBCE SWAP2 SWAP1 PUSH2 0x323F JUMP JUMPDEST PUSH1 0xB1 DUP1 SLOAD PUSH1 0x1 PUSH1 0x1 PUSH1 0xA0 SHL SUB NOT AND PUSH1 0x1 PUSH1 0x1 PUSH1 0xA0 SHL SUB SWAP3 SWAP1 SWAP3 AND SWAP2 SWAP1 SWAP2 OR SWAP1 SSTORE JUMP JUMPDEST PUSH0 PUSH1 0xA0 SLOAD DUP3 GT ISZERO PUSH2 0xC56 JUMPI PUSH1 0x40 MLOAD PUSH3 0x461BCD PUSH1 0xE5 SHL DUP2 MSTORE PUSH1 0x20 PUSH1 0x4 DUP3 ADD MSTORE PUSH1 0x2A PUSH1 0x24 DUP3 ADD MSTORE PUSH32 0x416D6F756E74206D757374206265206C657373207468616E20746F74616C2072 PUSH1 0x44 DUP3 ADD MSTORE PUSH10 0x65666C656374696F6E73 PUSH1 0xB0 SHL PUSH1 0x64 DUP3 ADD MSTORE PUSH1 0x84 ADD PUSH2 0x8CD JUMP JUMPDEST PUSH0 PUSH2 0xC5F PUSH2 0x20F1 JUMP JUMPDEST SWAP1 POP PUSH2 0xC6B DUP4 DUP3 PUSH2 0x2112 JUMP JUMPDEST SWAP4 SWAP3 POP POP POP JUMP JUMPDEST CALLER PUSH0 DUP2 DUP2 MSTORE PUSH1 0x34 PUSH1 0x20 SWAP1 DUP2 MSTORE PUSH1 0x40 DUP1 DUP4 KECCAK256 PUSH1 0x1 PUSH1 0x1 PUSH1 0xA0 SHL SUB DUP8 AND DUP5 MSTORE SWAP1 SWAP2 MSTORE DUP2 KECCAK256 SLOAD SWAP1 SWAP2 PUSH2 0x899 SWAP2 DUP6 SWAP1 PUSH2 0xA1A SWAP1 DUP7 SWAP1 PUSH2 0x325A JUMP JUMPDEST PUSH1 0x65 SLOAD PUSH1 0x1 PUSH1 0x1 PUSH1 0xA0 SHL SUB AND CALLER EQ PUSH2 0xCD2 JUMPI PUSH1 0x40 MLOAD PUSH3 0x461BCD PUSH1 0xE5 SHL DUP2 MSTORE PUSH1 0x4 ADD PUSH2 0x8CD SWAP1 PUSH2 0x31E3 JUMP JUMPDEST PUSH1 0x1 DUP2 LT ISZERO DUP1 ISZERO PUSH2 0xCE4 JUMPI POP PUSH1 0xA DUP2 GT ISZERO JUMPDEST PUSH2 0xD30 JUMPI PUSH1 0x40 MLOAD PUSH3 0x461BCD PUSH1 0xE5 SHL DUP2 MSTORE PUSH1 0x20 PUSH1 0x4 DUP3 ADD MSTORE PUSH1 0x1B PUSH1 0x24 DUP3 ADD MSTORE PUSH32 0x6275726E4665652073686F756C6420626520696E2031202D2031300000000000 PUSH1 0x44 DUP3 ADD MSTORE PUSH1 0x64 ADD PUSH2 0x8CD JUMP JUMPDEST PUSH1 0xAD SSTORE JUMP JUMPDEST CALLER PUSH0 DUP2 DUP2 MSTORE PUSH1 0x9B PUSH1 0x20 MSTORE PUSH1 0x40 SWAP1 KECCAK256 SLOAD PUSH1 0xFF AND ISZERO PUSH2 0xDA9 JUMPI PUSH1 0x40 MLOAD PUSH3 0x461BCD PUSH1 0xE5 SHL DUP2 MSTORE PUSH1 0x20 PUSH1 0x4 DUP3 ADD MSTORE PUSH1 0x2C PUSH1 0x24 DUP3 ADD MSTORE PUSH32 0x4578636C75646564206164647265737365732063616E6E6F742063616C6C2074 PUSH1 0x44 DUP3 ADD MSTORE PUSH12 0x3434B990333AB731BA34B7B7 PUSH1 0xA1 SHL PUSH1 0x64 DUP3 ADD MSTORE PUSH1 0x84 ADD PUSH2 0x8CD JUMP JUMPDEST PUSH0 PUSH2 0xDB3 DUP4 PUSH2 0x211D JUMP JUMPDEST POP POP POP PUSH1 0x1 PUSH1 0x1 PUSH1 0xA0 SHL SUB DUP7 AND PUSH0 SWAP1 DUP2 MSTORE PUSH1 0x97 PUSH1 0x20 MSTORE PUSH1 0x40 SWAP1 KECCAK256 SLOAD SWAP4 SWAP5 POP PUSH2 0xDE0 SWAP4 SWAP3 POP DUP5 SWAP2 POP POP PUSH2 0x2170 JUMP JUMPDEST PUSH1 0x1 PUSH1 0x1 PUSH1 0xA0 SHL SUB DUP4 AND PUSH0 SWAP1 DUP2 MSTORE PUSH1 0x97 PUSH1 0x20 MSTORE PUSH1 0x40 SWAP1 KECCAK256 SSTORE PUSH1 0xA0 SLOAD PUSH2 0xE05 SWAP1 DUP3 PUSH2 0x2170 JUMP JUMPDEST PUSH1 0xA0 SSTORE PUSH1 0xA1 SLOAD PUSH2 0xE15 SWAP1 DUP5 PUSH2 0x217B JUMP JUMPDEST PUSH1 0xA1 SSTORE POP POP POP JUMP JUMPDEST PUSH1 0x65 SLOAD PUSH1 0x1 PUSH1 0x1 PUSH1 0xA0 SHL SUB AND CALLER EQ PUSH2 0xE47 JUMPI PUSH1 0x40 MLOAD PUSH3 0x461BCD PUSH1 0xE5 SHL DUP2 MSTORE PUSH1 0x4 ADD PUSH2 0x8CD SWAP1 PUSH2 0x31E3 JUMP JUMPDEST PUSH1 0x1 PUSH1 0x1 PUSH1 0xA0 SHL SUB AND PUSH0 SWAP1 DUP2 MSTORE PUSH1 0x9A PUSH1 0x20 MSTORE PUSH1 0x40 SWAP1 KECCAK256 DUP1 SLOAD PUSH1 0xFF NOT AND PUSH1 0x1 OR SWAP1 SSTORE JUMP JUMPDEST PUSH0 PUSH1 0x9F SLOAD DUP4 GT ISZERO PUSH2 0xEBD JUMPI PUSH1 0x40 MLOAD PUSH3 0x461BCD PUSH1 0xE5 SHL DUP2 MSTORE PUSH1 0x20 PUSH1 0x4 DUP3 ADD MSTORE PUSH1 0x1F PUSH1 0x24 DUP3 ADD MSTORE PUSH32 0x416D6F756E74206D757374206265206C657373207468616E20737570706C7900 PUSH1 0x44 DUP3 ADD MSTORE PUSH1 0x64 ADD PUSH2 0x8CD JUMP JUMPDEST DUP2 PUSH2 0xEDC JUMPI PUSH0 PUSH2 0xECC DUP5 PUSH2 0x211D JUMP JUMPDEST POP SWAP5 SWAP7 POP PUSH2 0x89D SWAP6 POP POP POP POP POP POP JUMP JUMPDEST PUSH0 PUSH2 0xEE6 DUP5 PUSH2 0x211D JUMP JUMPDEST POP SWAP4 SWAP7 POP PUSH2 0x89D SWAP6 POP POP POP POP POP POP JUMP JUMPDEST PUSH0 SLOAD PUSH2 0x100 SWAP1 DIV PUSH1 0xFF AND DUP1 PUSH2 0xF0D JUMPI POP PUSH0 SLOAD PUSH1 0xFF AND ISZERO JUMPDEST PUSH2 0xF29 JUMPI PUSH1 0x40 MLOAD PUSH3 0x461BCD PUSH1 0xE5 SHL DUP2 MSTORE PUSH1 0x4 ADD PUSH2 0x8CD SWAP1 PUSH2 0x326D JUMP JUMPDEST PUSH0 SLOAD PUSH2 0x100 SWAP1 DIV PUSH1 0xFF AND ISZERO DUP1 ISZERO PUSH2 0xF49 JUMPI PUSH0 DUP1 SLOAD PUSH2 0xFFFF NOT AND PUSH2 0x101 OR SWAP1 SSTORE JUMPDEST PUSH2 0xF53 DUP4 DUP4 PUSH2 0x2186 JUMP JUMPDEST PUSH2 0xF5B PUSH2 0x2200 JUMP JUMPDEST PUSH10 0x152D02C7E14AF6800000 PUSH1 0xA3 DUP2 SWAP1 SSTORE PUSH1 0x9F DUP2 SWAP1 SSTORE PUSH2 0xF7B SWAP1 PUSH0 NOT PUSH2 0x32CF JUMP JUMPDEST PUSH2 0xF86 SWAP1 PUSH0 NOT PUSH2 0x322C JUMP JUMPDEST PUSH1 0xA0 SSTORE PUSH1 0xA4 PUSH2 0xF95 DUP5 DUP3 PUSH2 0x332D JUMP JUMPDEST POP PUSH1 0xA5 PUSH2 0xFA2 DUP4 DUP3 PUSH2 0x332D JUMP JUMPDEST POP PUSH1 0xA6 DUP1 SLOAD PUSH1 0xFF NOT AND PUSH1 0x9 OR SWAP1 SSTORE PUSH1 0x1 PUSH1 0xAD DUP2 SWAP1 SSTORE PUSH1 0xB2 SSTORE PUSH1 0xA3 SLOAD PUSH1 0xA7 SSTORE PUSH1 0xA0 SLOAD PUSH1 0x97 PUSH0 PUSH2 0xFCD CALLER SWAP1 JUMP JUMPDEST PUSH1 0x1 PUSH1 0x1 PUSH1 0xA0 SHL SUB AND DUP2 MSTORE PUSH1 0x20 DUP2 ADD SWAP2 SWAP1 SWAP2 MSTORE PUSH1 0x40 ADD PUSH0 SWAP1 DUP2 KECCAK256 SWAP2 SWAP1 SWAP2 SSTORE PUSH10 0x21E19E0C9BAB2400000 PUSH1 0xA8 SSTORE PUSH1 0x1 PUSH1 0xAB DUP2 SWAP1 SSTORE PUSH1 0xAC DUP2 SWAP1 SSTORE PUSH1 0xAE DUP2 SWAP1 SSTORE PUSH1 0xAF DUP2 SWAP1 SSTORE SWAP1 PUSH1 0x9A SWAP1 PUSH2 0x1025 PUSH1 0x65 SLOAD PUSH1 0x1 PUSH1 0x1 PUSH1 0xA0 SHL SUB AND SWAP1 JUMP JUMPDEST PUSH1 0x1 PUSH1 0x1 PUSH1 0xA0 SHL SUB AND DUP2 MSTORE PUSH1 0x20 DUP1 DUP3 ADD SWAP3 SWAP1 SWAP3 MSTORE PUSH1 0x40 SWAP1 DUP2 ADD PUSH0 SWAP1 DUP2 KECCAK256 DUP1 SLOAD SWAP5 ISZERO ISZERO PUSH1 0xFF NOT SWAP6 DUP7 AND OR SWAP1 SSTORE ADDRESS DUP2 MSTORE PUSH1 0x9A SWAP1 SWAP3 MSTORE SWAP1 KECCAK256 DUP1 SLOAD SWAP1 SWAP2 AND PUSH1 0x1 OR SWAP1 SSTORE PUSH1 0xB0 DUP1 SLOAD PUSH1 0x1 PUSH1 0x1 PUSH1 0xA0 SHL SUB NOT AND PUSH20 0x5FF2B0DB69458A0750BADEBC4F9E13ADD608C7F SWAP1 DUP2 OR SWAP1 SWAP2 SSTORE PUSH1 0xB1 DUP1 SLOAD PUSH1 0xFF PUSH1 0xA8 SHL NOT AND PUSH1 0x1 PUSH1 0xA8 SHL OR SWAP1 SSTORE PUSH2 0x10A7 CALLER SWAP1 JUMP JUMPDEST PUSH1 0x1 PUSH1 0x1 PUSH1 0xA0 SHL SUB AND PUSH0 PUSH1 0x1 PUSH1 0x1 PUSH1 0xA0 SHL SUB AND PUSH32 0xDDF252AD1BE2C89B69C2B068FC378DAA952BA7F163C4A11628F55A4DF523B3EF PUSH1 0x9F SLOAD PUSH1 0x40 MLOAD PUSH2 0x10ED SWAP2 DUP2 MSTORE PUSH1 0x20 ADD SWAP1 JUMP JUMPDEST PUSH1 0x40 MLOAD DUP1 SWAP2 SUB SWAP1 LOG3 POP DUP1 ISZERO PUSH2 0x1107 JUMPI PUSH0 DUP1 SLOAD PUSH2 0xFF00 NOT AND SWAP1 SSTORE JUMPDEST POP POP POP JUMP JUMPDEST PUSH1 0x65 SLOAD PUSH0 SWAP1 PUSH1 0x1 PUSH1 0x1 PUSH1 0xA0 SHL SUB AND CALLER EQ PUSH2 0x1138 JUMPI PUSH1 0x40 MLOAD PUSH3 0x461BCD PUSH1 0xE5 SHL DUP2 MSTORE PUSH1 0x4 ADD PUSH2 0x8CD SWAP1 PUSH2 0x31E3 JUMP JUMPDEST SELFBALANCE DUP1 PUSH2 0x1186 JUMPI PUSH1 0x40 MLOAD PUSH3 0x461BCD PUSH1 0xE5 SHL DUP2 MSTORE PUSH1 0x20 PUSH1 0x4 DUP3 ADD MSTORE PUSH1 0x17 PUSH1 0x24 DUP3 ADD MSTORE PUSH32 0x616D6F756E7420697320657175616C20746F207A65726F000000000000000000 PUSH1 0x44 DUP3 ADD MSTORE PUSH1 0x64 ADD PUSH2 0x8CD JUMP JUMPDEST PUSH1 0x40 MLOAD PUSH0 SWAP1 CALLER SWAP1 DUP4 SWAP1 DUP4 DUP2 DUP2 DUP2 DUP6 DUP8 GAS CALL SWAP3 POP POP POP RETURNDATASIZE DUP1 PUSH0 DUP2 EQ PUSH2 0x11C5 JUMPI PUSH1 0x40 MLOAD SWAP2 POP PUSH1 0x1F NOT PUSH1 0x3F RETURNDATASIZE ADD AND DUP3 ADD PUSH1 0x40 MSTORE RETURNDATASIZE DUP3 MSTORE RETURNDATASIZE PUSH0 PUSH1 0x20 DUP5 ADD RETURNDATACOPY PUSH2 0x11CA JUMP JUMPDEST PUSH1 0x60 SWAP2 POP JUMPDEST POP POP SWAP1 POP PUSH32 0x7A355715549CFE7C1CBA26304350343FBDDC4B4F72D3CE3E7C27117DD20B5CB8 DUP3 PUSH1 0x40 MLOAD PUSH2 0x11FF SWAP2 DUP2 MSTORE PUSH1 0x20 ADD SWAP1 JUMP JUMPDEST PUSH1 0x40 MLOAD DUP1 SWAP2 SUB SWAP1 LOG1 SWAP2 POP POP SWAP1 JUMP JUMPDEST PUSH1 0x65 SLOAD PUSH1 0x1 PUSH1 0x1 PUSH1 0xA0 SHL SUB AND CALLER EQ PUSH2 0x1237 JUMPI PUSH1 0x40 MLOAD PUSH3 0x461BCD PUSH1 0xE5 SHL DUP2 MSTORE PUSH1 0x4 ADD PUSH2 0x8CD SWAP1 PUSH2 0x31E3 JUMP JUMPDEST PUSH1 0x1 DUP2 LT ISZERO DUP1 ISZERO PUSH2 0x1249 JUMPI POP PUSH1 0xA DUP2 GT ISZERO JUMPDEST PUSH2 0x1295 JUMPI PUSH1 0x40 MLOAD PUSH3 0x461BCD PUSH1 0xE5 SHL DUP2 MSTORE PUSH1 0x20 PUSH1 0x4 DUP3 ADD MSTORE PUSH1 0x1A PUSH1 0x24 DUP3 ADD MSTORE PUSH32 0x7461784665652073686F756C6420626520696E2031202D203130000000000000 PUSH1 0x44 DUP3 ADD MSTORE PUSH1 0x64 ADD PUSH2 0x8CD JUMP JUMPDEST PUSH1 0xAB SSTORE JUMP JUMPDEST PUSH1 0x1 PUSH1 0x1 PUSH1 0xA0 SHL SUB DUP2 AND PUSH0 SWAP1 DUP2 MSTORE PUSH1 0x9B PUSH1 0x20 MSTORE PUSH1 0x40 DUP2 KECCAK256 SLOAD PUSH1 0xFF AND ISZERO PUSH2 0x12D5 JUMPI POP PUSH1 0x1 PUSH1 0x1 PUSH1 0xA0 SHL SUB AND PUSH0 SWAP1 DUP2 MSTORE PUSH1 0x98 PUSH1 0x20 MSTORE PUSH1 0x40 SWAP1 KECCAK256 SLOAD SWAP1 JUMP JUMPDEST PUSH1 0x1 PUSH1 0x1 PUSH1 0xA0 SHL SUB DUP3 AND PUSH0 SWAP1 DUP2 MSTORE PUSH1 0x9D PUSH1 0x20 MSTORE PUSH1 0x40 SWAP1 KECCAK256 SLOAD PUSH1 0xFF AND ISZERO PUSH2 0x1310 JUMPI POP PUSH1 0x1 PUSH1 0x1 PUSH1 0xA0 SHL SUB AND PUSH0 SWAP1 DUP2 MSTORE PUSH1 0x98 PUSH1 0x20 MSTORE PUSH1 0x40 SWAP1 KECCAK256 SLOAD SWAP1 JUMP JUMPDEST PUSH1 0x1 PUSH1 0x1 PUSH1 0xA0 SHL SUB DUP3 AND PUSH0 SWAP1 DUP2 MSTORE PUSH1 0x97 PUSH1 0x20 MSTORE PUSH1 0x40 SWAP1 KECCAK256 SLOAD PUSH2 0x89D SWAP1 PUSH2 0xBF0 JUMP JUMPDEST PUSH1 0x65 SLOAD PUSH1 0x1 PUSH1 0x1 PUSH1 0xA0 SHL SUB AND CALLER EQ PUSH2 0x135B JUMPI PUSH1 0x40 MLOAD PUSH3 0x461BCD PUSH1 0xE5 SHL DUP2 MSTORE PUSH1 0x4 ADD PUSH2 0x8CD SWAP1 PUSH2 0x31E3 JUMP JUMPDEST PUSH1 0x65 SLOAD PUSH1 0x40 MLOAD PUSH0 SWAP2 PUSH1 0x1 PUSH1 0x1 PUSH1 0xA0 SHL SUB AND SWAP1 PUSH32 0x8BE0079C531659141344CD1FD0A4F28419497F9722A3DAAFE3B4186F6B6457E0 SWAP1 DUP4 SWAP1 LOG3 PUSH1 0x65 DUP1 SLOAD PUSH1 0x1 PUSH1 0x1 PUSH1 0xA0 SHL SUB NOT AND SWAP1 SSTORE JUMP JUMPDEST PUSH1 0x65 SLOAD PUSH1 0x1 PUSH1 0x1 PUSH1 0xA0 SHL SUB AND CALLER EQ PUSH2 0x13CE JUMPI PUSH1 0x40 MLOAD PUSH3 0x461BCD PUSH1 0xE5 SHL DUP2 MSTORE PUSH1 0x4 ADD PUSH2 0x8CD SWAP1 PUSH2 0x31E3 JUMP JUMPDEST PUSH1 0xB0 DUP1 SLOAD PUSH1 0x1 PUSH1 0x1 PUSH1 0xA0 SHL SUB NOT AND PUSH1 0x1 PUSH1 0x1 PUSH1 0xA0 SHL SUB SWAP3 SWAP1 SWAP3 AND SWAP2 SWAP1 SWAP2 OR SWAP1 SSTORE JUMP JUMPDEST PUSH1 0x65 SLOAD PUSH1 0x1 PUSH1 0x1 PUSH1 0xA0 SHL SUB AND CALLER EQ PUSH2 0x141A JUMPI PUSH1 0x40 MLOAD PUSH3 0x461BCD PUSH1 0xE5 SHL DUP2 MSTORE PUSH1 0x4 ADD PUSH2 0x8CD SWAP1 PUSH2 0x31E3 JUMP JUMPDEST DUP2 PUSH1 0x1 PUSH1 0x1 PUSH1 0xA0 SHL SUB AND PUSH4 0xA9059CBB PUSH2 0x143B PUSH1 0x65 SLOAD PUSH1 0x1 PUSH1 0x1 PUSH1 0xA0 SHL SUB AND SWAP1 JUMP JUMPDEST PUSH1 0x40 MLOAD PUSH1 0x1 PUSH1 0x1 PUSH1 0xE0 SHL SUB NOT PUSH1 0xE0 DUP5 SWAP1 SHL AND DUP2 MSTORE PUSH1 0x1 PUSH1 0x1 PUSH1 0xA0 SHL SUB SWAP1 SWAP2 AND PUSH1 0x4 DUP3 ADD MSTORE PUSH1 0x24 DUP2 ADD DUP5 SWAP1 MSTORE PUSH1 0x44 ADD PUSH1 0x20 PUSH1 0x40 MLOAD DUP1 DUP4 SUB DUP2 PUSH0 DUP8 GAS CALL ISZERO DUP1 ISZERO PUSH2 0x1485 JUMPI RETURNDATASIZE PUSH0 DUP1 RETURNDATACOPY RETURNDATASIZE PUSH0 REVERT JUMPDEST POP POP POP POP PUSH1 0x40 MLOAD RETURNDATASIZE PUSH1 0x1F NOT PUSH1 0x1F DUP3 ADD AND DUP3 ADD DUP1 PUSH1 0x40 MSTORE POP DUP2 ADD SWAP1 PUSH2 0x1107 SWAP2 SWAP1 PUSH2 0x33E9 JUMP JUMPDEST PUSH1 0x60 PUSH1 0x37 DUP1 SLOAD PUSH2 0x80C SWAP1 PUSH2 0x31AB JUMP JUMPDEST CALLER PUSH0 SWAP1 DUP2 MSTORE PUSH1 0x34 PUSH1 0x20 SWAP1 DUP2 MSTORE PUSH1 0x40 DUP1 DUP4 KECCAK256 PUSH1 0x1 PUSH1 0x1 PUSH1 0xA0 SHL SUB DUP7 AND DUP5 MSTORE SWAP1 SWAP2 MSTORE DUP2 KECCAK256 SLOAD DUP3 DUP2 LT ISZERO PUSH2 0x1539 JUMPI PUSH1 0x40 MLOAD PUSH3 0x461BCD PUSH1 0xE5 SHL DUP2 MSTORE PUSH1 0x20 PUSH1 0x4 DUP3 ADD MSTORE PUSH1 0x25 PUSH1 0x24 DUP3 ADD MSTORE PUSH32 0x45524332303A2064656372656173656420616C6C6F77616E63652062656C6F77 PUSH1 0x44 DUP3 ADD MSTORE PUSH5 0x207A65726F PUSH1 0xD8 SHL PUSH1 0x64 DUP3 ADD MSTORE PUSH1 0x84 ADD PUSH2 0x8CD JUMP JUMPDEST PUSH2 0x1548 CALLER DUP6 PUSH2 0xA1A DUP7 DUP6 PUSH2 0x322C JUMP JUMPDEST POP PUSH1 0x1 SWAP4 SWAP3 POP POP POP JUMP JUMPDEST PUSH0 PUSH2 0x899 CALLER DUP5 DUP5 PUSH2 0x1E3B JUMP JUMPDEST PUSH1 0x65 SLOAD PUSH1 0x1 PUSH1 0x1 PUSH1 0xA0 SHL SUB AND CALLER EQ PUSH2 0x1588 JUMPI PUSH1 0x40 MLOAD PUSH3 0x461BCD PUSH1 0xE5 SHL DUP2 MSTORE PUSH1 0x4 ADD PUSH2 0x8CD SWAP1 PUSH2 0x31E3 JUMP JUMPDEST PUSH1 0x1 DUP2 LT ISZERO DUP1 ISZERO PUSH2 0x159A JUMPI POP PUSH1 0xA DUP2 GT ISZERO JUMPDEST PUSH2 0x15E6 JUMPI PUSH1 0x40 MLOAD PUSH3 0x461BCD PUSH1 0xE5 SHL DUP2 MSTORE PUSH1 0x20 PUSH1 0x4 DUP3 ADD DUP2 SWAP1 MSTORE PUSH1 0x24 DUP3 ADD MSTORE PUSH32 0x6C69717569646974794665652073686F756C6420626520696E2031202D203130 PUSH1 0x44 DUP3 ADD MSTORE PUSH1 0x64 ADD PUSH2 0x8CD JUMP JUMPDEST PUSH1 0xAE SSTORE JUMP JUMPDEST PUSH1 0x65 SLOAD PUSH1 0x1 PUSH1 0x1 PUSH1 0xA0 SHL SUB AND CALLER EQ PUSH2 0xBCE JUMPI PUSH1 0x40 MLOAD PUSH3 0x461BCD PUSH1 0xE5 SHL DUP2 MSTORE PUSH1 0x4 ADD PUSH2 0x8CD SWAP1 PUSH2 0x31E3 JUMP JUMPDEST PUSH1 0x65 SLOAD PUSH1 0x1 PUSH1 0x1 PUSH1 0xA0 SHL SUB AND CALLER EQ PUSH2 0x163F JUMPI PUSH1 0x40 MLOAD PUSH3 0x461BCD PUSH1 0xE5 SHL DUP2 MSTORE PUSH1 0x4 ADD PUSH2 0x8CD SWAP1 PUSH2 0x31E3 JUMP JUMPDEST CALLER PUSH0 PUSH2 0x164A DUP4 PUSH2 0x211D JUMP JUMPDEST POP SWAP5 SWAP6 POP PUSH2 0x1682 SWAP5 POP PUSH2 0x1664 SWAP4 POP DUP6 SWAP3 POP DUP9 SWAP2 POP POP PUSH2 0x2277 JUMP JUMPDEST PUSH1 0x1 PUSH1 0x1 PUSH1 0xA0 SHL SUB DUP5 AND PUSH0 SWAP1 DUP2 MSTORE PUSH1 0x97 PUSH1 0x20 MSTORE PUSH1 0x40 SWAP1 KECCAK256 SLOAD SWAP1 PUSH2 0x2170 JUMP JUMPDEST PUSH1 0x1 PUSH1 0x1 PUSH1 0xA0 SHL SUB DUP4 AND PUSH0 SWAP1 DUP2 MSTORE PUSH1 0x97 PUSH1 0x20 MSTORE PUSH1 0x40 DUP2 KECCAK256 SWAP2 SWAP1 SWAP2 SSTORE JUMPDEST DUP5 DUP2 LT ISZERO PUSH2 0x17F0 JUMPI PUSH2 0x16F3 DUP3 PUSH1 0x97 PUSH0 DUP10 DUP10 DUP7 DUP2 DUP2 LT PUSH2 0x16BF JUMPI PUSH2 0x16BF PUSH2 0x3404 JUMP JUMPDEST SWAP1 POP PUSH1 0x20 MUL ADD PUSH1 0x20 DUP2 ADD SWAP1 PUSH2 0x16D4 SWAP2 SWAP1 PUSH2 0x2F9D JUMP JUMPDEST PUSH1 0x1 PUSH1 0x1 PUSH1 0xA0 SHL SUB AND DUP2 MSTORE PUSH1 0x20 DUP2 ADD SWAP2 SWAP1 SWAP2 MSTORE PUSH1 0x40 ADD PUSH0 KECCAK256 SLOAD SWAP1 PUSH2 0x217B JUMP JUMPDEST PUSH1 0x97 PUSH0 DUP9 DUP9 DUP6 DUP2 DUP2 LT PUSH2 0x1708 JUMPI PUSH2 0x1708 PUSH2 0x3404 JUMP JUMPDEST SWAP1 POP PUSH1 0x20 MUL ADD PUSH1 0x20 DUP2 ADD SWAP1 PUSH2 0x171D SWAP2 SWAP1 PUSH2 0x2F9D JUMP JUMPDEST PUSH1 0x1 PUSH1 0x1 PUSH1 0xA0 SHL SUB AND PUSH1 0x1 PUSH1 0x1 PUSH1 0xA0 SHL SUB AND DUP2 MSTORE PUSH1 0x20 ADD SWAP1 DUP2 MSTORE PUSH1 0x20 ADD PUSH0 KECCAK256 DUP2 SWAP1 SSTORE POP PUSH1 0x9B PUSH0 DUP8 DUP8 DUP5 DUP2 DUP2 LT PUSH2 0x1755 JUMPI PUSH2 0x1755 PUSH2 0x3404 JUMP JUMPDEST SWAP1 POP PUSH1 0x20 MUL ADD PUSH1 0x20 DUP2 ADD SWAP1 PUSH2 0x176A SWAP2 SWAP1 PUSH2 0x2F9D JUMP JUMPDEST PUSH1 0x1 PUSH1 0x1 PUSH1 0xA0 SHL SUB AND DUP2 MSTORE PUSH1 0x20 DUP2 ADD SWAP2 SWAP1 SWAP2 MSTORE PUSH1 0x40 ADD PUSH0 KECCAK256 SLOAD PUSH1 0xFF AND ISZERO PUSH2 0x17E8 JUMPI PUSH2 0x17A4 DUP5 PUSH1 0x98 PUSH0 DUP10 DUP10 DUP7 DUP2 DUP2 LT PUSH2 0x16BF JUMPI PUSH2 0x16BF PUSH2 0x3404 JUMP JUMPDEST PUSH1 0x98 PUSH0 DUP9 DUP9 DUP6 DUP2 DUP2 LT PUSH2 0x17B9 JUMPI PUSH2 0x17B9 PUSH2 0x3404 JUMP JUMPDEST SWAP1 POP PUSH1 0x20 MUL ADD PUSH1 0x20 DUP2 ADD SWAP1 PUSH2 0x17CE SWAP2 SWAP1 PUSH2 0x2F9D JUMP JUMPDEST PUSH1 0x1 PUSH1 0x1 PUSH1 0xA0 SHL SUB AND DUP2 MSTORE PUSH1 0x20 DUP2 ADD SWAP2 SWAP1 SWAP2 MSTORE PUSH1 0x40 ADD PUSH0 KECCAK256 SSTORE JUMPDEST PUSH1 0x1 ADD PUSH2 0x169E JUMP JUMPDEST POP POP POP POP POP POP JUMP JUMPDEST PUSH1 0x65 SLOAD PUSH1 0x1 PUSH1 0x1 PUSH1 0xA0 SHL SUB AND CALLER EQ PUSH2 0x1822 JUMPI PUSH1 0x40 MLOAD PUSH3 0x461BCD PUSH1 0xE5 SHL DUP2 MSTORE PUSH1 0x4 ADD PUSH2 0x8CD SWAP1 PUSH2 0x31E3 JUMP JUMPDEST PUSH1 0xB1 DUP1 SLOAD DUP3 ISZERO ISZERO PUSH1 0x1 PUSH1 0xA8 SHL MUL PUSH1 0xFF PUSH1 0xA8 SHL NOT SWAP1 SWAP2 AND OR SWAP1 SSTORE PUSH1 0x40 MLOAD PUSH32 0x53726DFCAF90650AA7EB35524F4D3220F07413C8D6CB404CC8C18BF5591BC159 SWAP1 PUSH2 0x186F SWAP1 DUP4 ISZERO ISZERO DUP2 MSTORE PUSH1 0x20 ADD SWAP1 JUMP JUMPDEST PUSH1 0x40 MLOAD DUP1 SWAP2 SUB SWAP1 LOG1 POP JUMP JUMPDEST PUSH1 0x65 SLOAD PUSH1 0x1 PUSH1 0x1 PUSH1 0xA0 SHL SUB AND CALLER EQ PUSH2 0x18A4 JUMPI PUSH1 0x40 MLOAD PUSH3 0x461BCD PUSH1 0xE5 SHL DUP2 MSTORE PUSH1 0x4 ADD PUSH2 0x8CD SWAP1 PUSH2 0x31E3 JUMP JUMPDEST PUSH1 0x1 PUSH1 0x1 PUSH1 0xA0 SHL SUB AND PUSH0 SWAP1 DUP2 MSTORE PUSH1 0x9A PUSH1 0x20 MSTORE PUSH1 0x40 SWAP1 KECCAK256 DUP1 SLOAD PUSH1 0xFF NOT AND SWAP1 SSTORE JUMP JUMPDEST PUSH1 0x65 SLOAD PUSH1 0x1 PUSH1 0x1 PUSH1 0xA0 SHL SUB AND CALLER EQ PUSH2 0x18EE JUMPI PUSH1 0x40 MLOAD PUSH3 0x461BCD PUSH1 0xE5 SHL DUP2 MSTORE PUSH1 0x4 ADD PUSH2 0x8CD SWAP1 PUSH2 0x31E3 JUMP JUMPDEST PUSH1 0x1 PUSH1 0x1 PUSH1 0xA0 SHL SUB DUP2 AND PUSH20 0x7A250D5630B4CF539739DF2C5DACB4C659F2488D SUB PUSH2 0x1965 JUMPI PUSH1 0x40 MLOAD PUSH3 0x461BCD PUSH1 0xE5 SHL DUP2 MSTORE PUSH1 0x20 PUSH1 0x4 DUP3 ADD MSTORE PUSH1 0x22 PUSH1 0x24 DUP3 ADD MSTORE PUSH32 0x57652063616E206E6F74206578636C75646520556E697377617020726F757465 PUSH1 0x44 DUP3 ADD MSTORE PUSH2 0x3917 PUSH1 0xF1 SHL PUSH1 0x64 DUP3 ADD MSTORE PUSH1 0x84 ADD PUSH2 0x8CD JUMP JUMPDEST PUSH1 0x1 PUSH1 0x1 PUSH1 0xA0 SHL SUB DUP2 AND PUSH0 SWAP1 DUP2 MSTORE PUSH1 0x9B PUSH1 0x20 MSTORE PUSH1 0x40 SWAP1 KECCAK256 SLOAD PUSH1 0xFF AND ISZERO PUSH2 0x19CD JUMPI PUSH1 0x40 MLOAD PUSH3 0x461BCD PUSH1 0xE5 SHL DUP2 MSTORE PUSH1 0x20 PUSH1 0x4 DUP3 ADD MSTORE PUSH1 0x1B PUSH1 0x24 DUP3 ADD MSTORE PUSH32 0x4163636F756E7420697320616C7265616479206578636C756465640000000000 PUSH1 0x44 DUP3 ADD MSTORE PUSH1 0x64 ADD PUSH2 0x8CD JUMP JUMPDEST PUSH1 0x1 PUSH1 0x1 PUSH1 0xA0 SHL SUB DUP2 AND PUSH0 SWAP1 DUP2 MSTORE PUSH1 0x97 PUSH1 0x20 MSTORE PUSH1 0x40 SWAP1 KECCAK256 SLOAD ISZERO PUSH2 0x1A24 JUMPI PUSH1 0x1 PUSH1 0x1 PUSH1 0xA0 SHL SUB DUP2 AND PUSH0 SWAP1 DUP2 MSTORE PUSH1 0x97 PUSH1 0x20 MSTORE PUSH1 0x40 SWAP1 KECCAK256 SLOAD PUSH2 0x1A0B SWAP1 PUSH2 0xBF0 JUMP JUMPDEST PUSH1 0x1 PUSH1 0x1 PUSH1 0xA0 SHL SUB DUP3 AND PUSH0 SWAP1 DUP2 MSTORE PUSH1 0x98 PUSH1 0x20 MSTORE PUSH1 0x40 SWAP1 KECCAK256 SSTORE JUMPDEST PUSH1 0x1 PUSH1 0x1 PUSH1 0xA0 SHL SUB AND PUSH0 DUP2 DUP2 MSTORE PUSH1 0x9B PUSH1 0x20 MSTORE PUSH1 0x40 DUP2 KECCAK256 DUP1 SLOAD PUSH1 0xFF NOT AND PUSH1 0x1 SWAP1 DUP2 OR SWAP1 SWAP2 SSTORE PUSH1 0x9C DUP1 SLOAD SWAP2 DUP3 ADD DUP2 SSTORE SWAP1 SWAP2 MSTORE PUSH32 0xAF85B9071DFAFEAC1409D3F1D19BAFC9BC7C37974CDE8DF0EE6168F0086E539C ADD DUP1 SLOAD PUSH1 0x1 PUSH1 0x1 PUSH1 0xA0 SHL SUB NOT AND SWAP1 SWAP2 OR SWAP1 SSTORE JUMP JUMPDEST PUSH1 0x65 SLOAD PUSH1 0x1 PUSH1 0x1 PUSH1 0xA0 SHL SUB AND CALLER EQ PUSH2 0x1AB3 JUMPI PUSH1 0x40 MLOAD PUSH3 0x461BCD PUSH1 0xE5 SHL DUP2 MSTORE PUSH1 0x4 ADD PUSH2 0x8CD SWAP1 PUSH2 0x31E3 JUMP JUMPDEST PUSH1 0x1 PUSH1 0x1 PUSH1 0xA0 SHL SUB DUP2 AND PUSH2 0x1B18 JUMPI PUSH1 0x40 MLOAD PUSH3 0x461BCD PUSH1 0xE5 SHL DUP2 MSTORE PUSH1 0x20 PUSH1 0x4 DUP3 ADD MSTORE PUSH1 0x26 PUSH1 0x24 DUP3 ADD MSTORE PUSH32 0x4F776E61626C653A206E6577206F776E657220697320746865207A65726F2061 PUSH1 0x44 DUP3 ADD MSTORE PUSH6 0x646472657373 PUSH1 0xD0 SHL PUSH1 0x64 DUP3 ADD MSTORE PUSH1 0x84 ADD PUSH2 0x8CD JUMP JUMPDEST PUSH1 0x65 SLOAD PUSH1 0x40 MLOAD PUSH1 0x1 PUSH1 0x1 PUSH1 0xA0 SHL SUB DUP1 DUP5 AND SWAP3 AND SWAP1 PUSH32 0x8BE0079C531659141344CD1FD0A4F28419497F9722A3DAAFE3B4186F6B6457E0 SWAP1 PUSH0 SWAP1 LOG3 PUSH1 0x65 DUP1 SLOAD PUSH1 0x1 PUSH1 0x1 PUSH1 0xA0 SHL SUB NOT AND PUSH1 0x1 PUSH1 0x1 PUSH1 0xA0 SHL SUB SWAP3 SWAP1 SWAP3 AND SWAP2 SWAP1 SWAP2 OR SWAP1 SSTORE JUMP JUMPDEST PUSH1 0x65 SLOAD PUSH1 0x1 PUSH1 0x1 PUSH1 0xA0 SHL SUB AND CALLER EQ PUSH2 0x1B9D JUMPI PUSH1 0x40 MLOAD PUSH3 0x461BCD PUSH1 0xE5 SHL DUP2 MSTORE PUSH1 0x4 ADD PUSH2 0x8CD SWAP1 PUSH2 0x31E3 JUMP JUMPDEST PUSH1 0x1 PUSH1 0x1 PUSH1 0xA0 SHL SUB DUP2 AND PUSH0 SWAP1 DUP2 MSTORE PUSH1 0x9B PUSH1 0x20 MSTORE PUSH1 0x40 SWAP1 KECCAK256 SLOAD PUSH1 0xFF AND PUSH2 0x1C04 JUMPI PUSH1 0x40 MLOAD PUSH3 0x461BCD PUSH1 0xE5 SHL DUP2 MSTORE PUSH1 0x20 PUSH1 0x4 DUP3 ADD MSTORE PUSH1 0x1B PUSH1 0x24 DUP3 ADD MSTORE PUSH32 0x4163636F756E7420697320616C726561647920696E636C756465640000000000 PUSH1 0x44 DUP3 ADD MSTORE PUSH1 0x64 ADD PUSH2 0x8CD JUMP JUMPDEST PUSH0 JUMPDEST PUSH1 0x9C SLOAD DUP2 LT ISZERO PUSH2 0x1D14 JUMPI DUP2 PUSH1 0x1 PUSH1 0x1 PUSH1 0xA0 SHL SUB AND PUSH1 0x9C DUP3 DUP2 SLOAD DUP2 LT PUSH2 0x1C2D JUMPI PUSH2 0x1C2D PUSH2 0x3404 JUMP JUMPDEST PUSH0 SWAP2 DUP3 MSTORE PUSH1 0x20 SWAP1 SWAP2 KECCAK256 ADD SLOAD PUSH1 0x1 PUSH1 0x1 PUSH1 0xA0 SHL SUB AND SUB PUSH2 0x1D0C JUMPI PUSH1 0x9C DUP1 SLOAD PUSH2 0x1C56 SWAP1 PUSH1 0x1 SWAP1 PUSH2 0x322C JUMP JUMPDEST DUP2 SLOAD DUP2 LT PUSH2 0x1C66 JUMPI PUSH2 0x1C66 PUSH2 0x3404 JUMP JUMPDEST PUSH0 SWAP2 DUP3 MSTORE PUSH1 0x20 SWAP1 SWAP2 KECCAK256 ADD SLOAD PUSH1 0x9C DUP1 SLOAD PUSH1 0x1 PUSH1 0x1 PUSH1 0xA0 SHL SUB SWAP1 SWAP3 AND SWAP2 DUP4 SWAP1 DUP2 LT PUSH2 0x1C91 JUMPI PUSH2 0x1C91 PUSH2 0x3404 JUMP JUMPDEST PUSH0 SWAP2 DUP3 MSTORE PUSH1 0x20 DUP1 DUP4 KECCAK256 SWAP2 SWAP1 SWAP2 ADD DUP1 SLOAD PUSH1 0x1 PUSH1 0x1 PUSH1 0xA0 SHL SUB NOT AND PUSH1 0x1 PUSH1 0x1 PUSH1 0xA0 SHL SUB SWAP5 DUP6 AND OR SWAP1 SSTORE SWAP2 DUP5 AND DUP2 MSTORE PUSH1 0x98 DUP3 MSTORE PUSH1 0x40 DUP1 DUP3 KECCAK256 DUP3 SWAP1 SSTORE PUSH1 0x9B SWAP1 SWAP3 MSTORE KECCAK256 DUP1 SLOAD PUSH1 0xFF NOT AND SWAP1 SSTORE PUSH1 0x9C DUP1 SLOAD DUP1 PUSH2 0x1CE8 JUMPI PUSH2 0x1CE8 PUSH2 0x3418 JUMP JUMPDEST PUSH0 DUP3 DUP2 MSTORE PUSH1 0x20 SWAP1 KECCAK256 DUP2 ADD PUSH0 NOT SWAP1 DUP2 ADD DUP1 SLOAD PUSH1 0x1 PUSH1 0x1 PUSH1 0xA0 SHL SUB NOT AND SWAP1 SSTORE ADD SWAP1 SSTORE POP POP JUMP JUMPDEST PUSH1 0x1 ADD PUSH2 0x1C06 JUMP JUMPDEST POP POP JUMP JUMPDEST PUSH1 0x1 PUSH1 0x1 PUSH1 0xA0 SHL SUB DUP4 AND PUSH2 0x1D7A JUMPI PUSH1 0x40 MLOAD PUSH3 0x461BCD PUSH1 0xE5 SHL DUP2 MSTORE PUSH1 0x20 PUSH1 0x4 DUP3 ADD MSTORE PUSH1 0x24 DUP1 DUP3 ADD MSTORE PUSH32 0x45524332303A20617070726F76652066726F6D20746865207A65726F20616464 PUSH1 0x44 DUP3 ADD MSTORE PUSH4 0x72657373 PUSH1 0xE0 SHL PUSH1 0x64 DUP3 ADD MSTORE PUSH1 0x84 ADD PUSH2 0x8CD JUMP JUMPDEST PUSH1 0x1 PUSH1 0x1 PUSH1 0xA0 SHL SUB DUP3 AND PUSH2 0x1DDB JUMPI PUSH1 0x40 MLOAD PUSH3 0x461BCD PUSH1 0xE5 SHL DUP2 MSTORE PUSH1 0x20 PUSH1 0x4 DUP3 ADD MSTORE PUSH1 0x22 PUSH1 0x24 DUP3 ADD MSTORE PUSH32 0x45524332303A20617070726F766520746F20746865207A65726F206164647265 PUSH1 0x44 DUP3 ADD MSTORE PUSH2 0x7373 PUSH1 0xF0 SHL PUSH1 0x64 DUP3 ADD MSTORE PUSH1 0x84 ADD PUSH2 0x8CD JUMP JUMPDEST PUSH1 0x1 PUSH1 0x1 PUSH1 0xA0 SHL SUB DUP4 DUP2 AND PUSH0 DUP2 DUP2 MSTORE PUSH1 0x34 PUSH1 0x20 SWAP1 DUP2 MSTORE PUSH1 0x40 DUP1 DUP4 KECCAK256 SWAP5 DUP8 AND DUP1 DUP5 MSTORE SWAP5 DUP3 MSTORE SWAP2 DUP3 SWAP1 KECCAK256 DUP6 SWAP1 SSTORE SWAP1 MLOAD DUP5 DUP2 MSTORE PUSH32 0x8C5BE1E5EBEC7D5BD14F71427D1E84F3DD0314C0F7B2291E5B200AC8C7C3B925 SWAP2 ADD PUSH1 0x40 MLOAD DUP1 SWAP2 SUB SWAP1 LOG3 POP POP POP JUMP JUMPDEST PUSH1 0x1 PUSH1 0x1 PUSH1 0xA0 SHL SUB DUP4 AND PUSH2 0x1E9F JUMPI PUSH1 0x40 MLOAD PUSH3 0x461BCD PUSH1 0xE5 SHL DUP2 MSTORE PUSH1 0x20 PUSH1 0x4 DUP3 ADD MSTORE PUSH1 0x25 PUSH1 0x24 DUP3 ADD MSTORE PUSH32 0x45524332303A207472616E736665722066726F6D20746865207A65726F206164 PUSH1 0x44 DUP3 ADD MSTORE PUSH5 0x6472657373 PUSH1 0xD8 SHL PUSH1 0x64 DUP3 ADD MSTORE PUSH1 0x84 ADD PUSH2 0x8CD JUMP JUMPDEST PUSH1 0x1 PUSH1 0x1 PUSH1 0xA0 SHL SUB DUP3 AND PUSH2 0x1F01 JUMPI PUSH1 0x40 MLOAD PUSH3 0x461BCD PUSH1 0xE5 SHL DUP2 MSTORE PUSH1 0x20 PUSH1 0x4 DUP3 ADD MSTORE PUSH1 0x23 PUSH1 0x24 DUP3 ADD MSTORE PUSH32 0x45524332303A207472616E7366657220746F20746865207A65726F2061646472 PUSH1 0x44 DUP3 ADD MSTORE PUSH3 0x657373 PUSH1 0xE8 SHL PUSH1 0x64 DUP3 ADD MSTORE PUSH1 0x84 ADD PUSH2 0x8CD JUMP JUMPDEST PUSH0 DUP2 GT PUSH2 0x1F62 JUMPI PUSH1 0x40 MLOAD PUSH3 0x461BCD PUSH1 0xE5 SHL DUP2 MSTORE PUSH1 0x20 PUSH1 0x4 DUP3 ADD MSTORE PUSH1 0x29 PUSH1 0x24 DUP3 ADD MSTORE PUSH32 0x5472616E7366657220616D6F756E74206D757374206265206772656174657220 PUSH1 0x44 DUP3 ADD MSTORE PUSH9 0x7468616E207A65726F PUSH1 0xB8 SHL PUSH1 0x64 DUP3 ADD MSTORE PUSH1 0x84 ADD PUSH2 0x8CD JUMP JUMPDEST PUSH1 0x65 SLOAD PUSH1 0x1 PUSH1 0x1 PUSH1 0xA0 SHL SUB DUP5 DUP2 AND SWAP2 AND EQ DUP1 ISZERO SWAP1 PUSH2 0x1F8E JUMPI POP PUSH1 0x65 SLOAD PUSH1 0x1 PUSH1 0x1 PUSH1 0xA0 SHL SUB DUP4 DUP2 AND SWAP2 AND EQ ISZERO JUMPDEST ISZERO PUSH2 0x1FF6 JUMPI PUSH1 0xA7 SLOAD DUP2 GT ISZERO PUSH2 0x1FF6 JUMPI PUSH1 0x40 MLOAD PUSH3 0x461BCD PUSH1 0xE5 SHL DUP2 MSTORE PUSH1 0x20 PUSH1 0x4 DUP3 ADD MSTORE PUSH1 0x28 PUSH1 0x24 DUP3 ADD MSTORE PUSH32 0x5472616E7366657220616D6F756E74206578636565647320746865206D617854 PUSH1 0x44 DUP3 ADD MSTORE PUSH8 0x3C20B6B7BAB73A17 PUSH1 0xC1 SHL PUSH1 0x64 DUP3 ADD MSTORE PUSH1 0x84 ADD PUSH2 0x8CD JUMP JUMPDEST PUSH0 PUSH2 0x2000 ADDRESS PUSH2 0x129A JUMP JUMPDEST SWAP1 POP PUSH1 0xA7 SLOAD DUP2 LT PUSH2 0x2010 JUMPI POP PUSH1 0xA7 SLOAD JUMPDEST PUSH1 0xA8 SLOAD DUP2 LT DUP1 ISZERO SWAP1 DUP2 SWAP1 PUSH2 0x202E JUMPI POP PUSH1 0xB1 SLOAD PUSH1 0x1 PUSH1 0xA0 SHL SWAP1 DIV PUSH1 0xFF AND ISZERO JUMPDEST DUP1 ISZERO PUSH2 0x2048 JUMPI POP PUSH1 0xB1 SLOAD PUSH1 0x1 PUSH1 0x1 PUSH1 0xA0 SHL SUB DUP7 DUP2 AND SWAP2 AND EQ ISZERO JUMPDEST DUP1 ISZERO PUSH2 0x205D JUMPI POP PUSH1 0xB1 SLOAD PUSH1 0x1 PUSH1 0xA8 SHL SWAP1 DIV PUSH1 0xFF AND JUMPDEST ISZERO PUSH2 0x209D JUMPI PUSH0 PUSH2 0x206C DUP5 PUSH2 0x211D JUMP JUMPDEST POP PUSH1 0xA8 SLOAD SWAP1 SWAP7 POP SWAP5 POP POP POP DUP3 DUP5 GT SWAP2 POP POP DUP1 ISZERO PUSH2 0x2089 JUMPI POP DUP2 DUP5 LT ISZERO JUMPDEST ISZERO PUSH2 0x2091 JUMPI POP DUP1 JUMPDEST PUSH2 0x209A DUP2 PUSH2 0x2282 JUMP JUMPDEST POP POP JUMPDEST PUSH1 0x1 PUSH1 0x1 PUSH1 0xA0 SHL SUB DUP6 AND PUSH0 SWAP1 DUP2 MSTORE PUSH1 0x9A PUSH1 0x20 MSTORE PUSH1 0x40 SWAP1 KECCAK256 SLOAD PUSH1 0x1 SWAP1 PUSH1 0xFF AND DUP1 PUSH2 0x20DD JUMPI POP PUSH1 0x1 PUSH1 0x1 PUSH1 0xA0 SHL SUB DUP6 AND PUSH0 SWAP1 DUP2 MSTORE PUSH1 0x9A PUSH1 0x20 MSTORE PUSH1 0x40 SWAP1 KECCAK256 SLOAD PUSH1 0xFF AND JUMPDEST ISZERO PUSH2 0x20E5 JUMPI POP PUSH0 JUMPDEST PUSH2 0x17F0 DUP7 DUP7 DUP7 DUP5 PUSH2 0x2326 JUMP JUMPDEST PUSH0 DUP1 PUSH0 PUSH2 0x20FC PUSH2 0x24A1 JUMP JUMPDEST SWAP1 SWAP3 POP SWAP1 POP PUSH2 0x210B DUP3 DUP3 PUSH2 0x2112 JUMP JUMPDEST SWAP3 POP POP POP SWAP1 JUMP JUMPDEST PUSH0 PUSH2 0xC6B DUP3 DUP5 PUSH2 0x342C JUMP JUMPDEST PUSH0 DUP1 PUSH0 DUP1 PUSH0 DUP1 PUSH0 DUP1 PUSH0 DUP1 PUSH0 PUSH2 0x2131 DUP13 PUSH2 0x2610 JUMP JUMPDEST SWAP4 POP SWAP4 POP SWAP4 POP SWAP4 POP PUSH0 DUP1 PUSH0 PUSH2 0x2150 DUP16 DUP8 DUP8 DUP8 PUSH2 0x214B PUSH2 0x20F1 JUMP JUMPDEST PUSH2 0x265F JUMP JUMPDEST SWAP2 SWAP16 POP SWAP14 POP SWAP12 POP SWAP6 SWAP10 POP SWAP4 SWAP8 POP SWAP2 SWAP6 POP SWAP4 POP POP POP POP SWAP2 SWAP4 SWAP6 SWAP8 SWAP1 SWAP3 SWAP5 SWAP7 POP JUMP JUMPDEST PUSH0 PUSH2 0xC6B DUP3 DUP5 PUSH2 0x322C JUMP JUMPDEST PUSH0 PUSH2 0xC6B DUP3 DUP5 PUSH2 0x325A JUMP JUMPDEST PUSH0 SLOAD PUSH2 0x100 SWAP1 DIV PUSH1 0xFF AND DUP1 PUSH2 0x219D JUMPI POP PUSH0 SLOAD PUSH1 0xFF AND ISZERO JUMPDEST PUSH2 0x21B9 JUMPI PUSH1 0x40 MLOAD PUSH3 0x461BCD PUSH1 0xE5 SHL DUP2 MSTORE PUSH1 0x4 ADD PUSH2 0x8CD SWAP1 PUSH2 0x326D JUMP JUMPDEST PUSH0 SLOAD PUSH2 0x100 SWAP1 DIV PUSH1 0xFF AND ISZERO DUP1 ISZERO PUSH2 0x21D9 JUMPI PUSH0 DUP1 SLOAD PUSH2 0xFFFF NOT AND PUSH2 0x101 OR SWAP1 SSTORE JUMPDEST PUSH2 0x21E1 PUSH2 0x26BC JUMP JUMPDEST PUSH2 0x21EB DUP4 DUP4 PUSH2 0x2721 JUMP JUMPDEST DUP1 ISZERO PUSH2 0x1107 JUMPI PUSH0 DUP1 SLOAD PUSH2 0xFF00 NOT AND SWAP1 SSTORE POP POP POP JUMP JUMPDEST PUSH0 SLOAD PUSH2 0x100 SWAP1 DIV PUSH1 0xFF AND DUP1 PUSH2 0x2217 JUMPI POP PUSH0 SLOAD PUSH1 0xFF AND ISZERO JUMPDEST PUSH2 0x2233 JUMPI PUSH1 0x40 MLOAD PUSH3 0x461BCD PUSH1 0xE5 SHL DUP2 MSTORE PUSH1 0x4 ADD PUSH2 0x8CD SWAP1 PUSH2 0x326D JUMP JUMPDEST PUSH0 SLOAD PUSH2 0x100 SWAP1 DIV PUSH1 0xFF AND ISZERO DUP1 ISZERO PUSH2 0x2253 JUMPI PUSH0 DUP1 SLOAD PUSH2 0xFFFF NOT AND PUSH2 0x101 OR SWAP1 SSTORE JUMPDEST PUSH2 0x225B PUSH2 0x26BC JUMP JUMPDEST PUSH2 0x2263 PUSH2 0x27A3 JUMP JUMPDEST DUP1 ISZERO PUSH2 0x2274 JUMPI PUSH0 DUP1 SLOAD PUSH2 0xFF00 NOT AND SWAP1 SSTORE JUMPDEST POP JUMP JUMPDEST PUSH0 PUSH2 0xC6B DUP3 DUP5 PUSH2 0x343F JUMP JUMPDEST PUSH1 0xB1 DUP1 SLOAD PUSH1 0xFF PUSH1 0xA0 SHL NOT AND PUSH1 0x1 PUSH1 0xA0 SHL OR SWAP1 SSTORE PUSH0 PUSH2 0x22A1 DUP3 PUSH1 0x2 PUSH2 0x2112 JUMP JUMPDEST SWAP1 POP PUSH0 PUSH2 0x22AE DUP4 DUP4 PUSH2 0x2170 JUMP JUMPDEST SWAP1 POP SELFBALANCE PUSH2 0x22BA DUP4 PUSH2 0x284B JUMP JUMPDEST PUSH0 PUSH2 0x22C5 SELFBALANCE DUP4 PUSH2 0x2170 JUMP JUMPDEST SWAP1 POP PUSH2 0x22D1 DUP4 DUP3 PUSH2 0x2993 JUMP JUMPDEST PUSH1 0x40 DUP1 MLOAD DUP6 DUP2 MSTORE PUSH1 0x20 DUP2 ADD DUP4 SWAP1 MSTORE SWAP1 DUP2 ADD DUP5 SWAP1 MSTORE PUSH32 0x17BBFB9A6069321B6DED73BD96327C9E6B7212A5CD51FF219CD61370ACAFB561 SWAP1 PUSH1 0x60 ADD PUSH1 0x40 MLOAD DUP1 SWAP2 SUB SWAP1 LOG1 POP POP PUSH1 0xB1 DUP1 SLOAD PUSH1 0xFF PUSH1 0xA0 SHL NOT AND SWAP1 SSTORE POP POP POP JUMP JUMPDEST DUP1 PUSH2 0x2333 JUMPI PUSH2 0x2333 PUSH2 0x2A75 JUMP JUMPDEST PUSH1 0x1 PUSH1 0x1 PUSH1 0xA0 SHL SUB DUP5 AND PUSH0 SWAP1 DUP2 MSTORE PUSH1 0x9B PUSH1 0x20 MSTORE PUSH1 0x40 SWAP1 KECCAK256 SLOAD PUSH1 0xFF AND DUP1 ISZERO PUSH2 0x2372 JUMPI POP PUSH1 0x1 PUSH1 0x1 PUSH1 0xA0 SHL SUB DUP4 AND PUSH0 SWAP1 DUP2 MSTORE PUSH1 0x9B PUSH1 0x20 MSTORE PUSH1 0x40 SWAP1 KECCAK256 SLOAD PUSH1 0xFF AND ISZERO JUMPDEST ISZERO PUSH2 0x2387 JUMPI PUSH2 0x2382 DUP5 DUP5 DUP5 PUSH2 0x2AB9 JUMP JUMPDEST PUSH2 0x247F JUMP JUMPDEST PUSH1 0x1 PUSH1 0x1 PUSH1 0xA0 SHL SUB DUP5 AND PUSH0 SWAP1 DUP2 MSTORE PUSH1 0x9B PUSH1 0x20 MSTORE PUSH1 0x40 SWAP1 KECCAK256 SLOAD PUSH1 0xFF AND ISZERO DUP1 ISZERO PUSH2 0x23C6 JUMPI POP PUSH1 0x1 PUSH1 0x1 PUSH1 0xA0 SHL SUB DUP4 AND PUSH0 SWAP1 DUP2 MSTORE PUSH1 0x9B PUSH1 0x20 MSTORE PUSH1 0x40 SWAP1 KECCAK256 SLOAD PUSH1 0xFF AND JUMPDEST ISZERO PUSH2 0x23D6 JUMPI PUSH2 0x2382 DUP5 DUP5 DUP5 PUSH2 0x2BF6 JUMP JUMPDEST PUSH1 0x1 PUSH1 0x1 PUSH1 0xA0 SHL SUB DUP5 AND PUSH0 SWAP1 DUP2 MSTORE PUSH1 0x9B PUSH1 0x20 MSTORE PUSH1 0x40 SWAP1 KECCAK256 SLOAD PUSH1 0xFF AND ISZERO DUP1 ISZERO PUSH2 0x2416 JUMPI POP PUSH1 0x1 PUSH1 0x1 PUSH1 0xA0 SHL SUB DUP4 AND PUSH0 SWAP1 DUP2 MSTORE PUSH1 0x9B PUSH1 0x20 MSTORE PUSH1 0x40 SWAP1 KECCAK256 SLOAD PUSH1 0xFF AND ISZERO JUMPDEST ISZERO PUSH2 0x2426 JUMPI PUSH2 0x2382 DUP5 DUP5 DUP5 PUSH2 0x2CAD JUMP JUMPDEST PUSH1 0x1 PUSH1 0x1 PUSH1 0xA0 SHL SUB DUP5 AND PUSH0 SWAP1 DUP2 MSTORE PUSH1 0x9B PUSH1 0x20 MSTORE PUSH1 0x40 SWAP1 KECCAK256 SLOAD PUSH1 0xFF AND DUP1 ISZERO PUSH2 0x2464 JUMPI POP PUSH1 0x1 PUSH1 0x1 PUSH1 0xA0 SHL SUB DUP4 AND PUSH0 SWAP1 DUP2 MSTORE PUSH1 0x9B PUSH1 0x20 MSTORE PUSH1 0x40 SWAP1 KECCAK256 SLOAD PUSH1 0xFF AND JUMPDEST ISZERO PUSH2 0x2474 JUMPI PUSH2 0x2382 DUP5 DUP5 DUP5 PUSH2 0x2D01 JUMP JUMPDEST PUSH2 0x247F DUP5 DUP5 DUP5 PUSH2 0x2CAD JUMP JUMPDEST DUP1 PUSH2 0x249B JUMPI PUSH2 0x249B PUSH1 0xAC SLOAD PUSH1 0xAB SSTORE PUSH1 0xAF SLOAD PUSH1 0xAE SSTORE PUSH1 0xB2 SLOAD PUSH1 0xAD SSTORE JUMP JUMPDEST POP POP POP POP JUMP JUMPDEST PUSH1 0xA0 SLOAD PUSH1 0x9F SLOAD PUSH0 SWAP2 DUP3 SWAP2 DUP3 JUMPDEST PUSH1 0x9C SLOAD DUP2 LT ISZERO PUSH2 0x25E0 JUMPI DUP3 PUSH1 0x97 PUSH0 PUSH1 0x9C DUP5 DUP2 SLOAD DUP2 LT PUSH2 0x24CE JUMPI PUSH2 0x24CE PUSH2 0x3404 JUMP JUMPDEST PUSH0 SWAP2 DUP3 MSTORE PUSH1 0x20 DUP1 DUP4 KECCAK256 SWAP1 SWAP2 ADD SLOAD PUSH1 0x1 PUSH1 0x1 PUSH1 0xA0 SHL SUB AND DUP4 MSTORE DUP3 ADD SWAP3 SWAP1 SWAP3 MSTORE PUSH1 0x40 ADD SWAP1 KECCAK256 SLOAD GT DUP1 PUSH2 0x2536 JUMPI POP DUP2 PUSH1 0x98 PUSH0 PUSH1 0x9C DUP5 DUP2 SLOAD DUP2 LT PUSH2 0x2510 JUMPI PUSH2 0x2510 PUSH2 0x3404 JUMP JUMPDEST PUSH0 SWAP2 DUP3 MSTORE PUSH1 0x20 DUP1 DUP4 KECCAK256 SWAP1 SWAP2 ADD SLOAD PUSH1 0x1 PUSH1 0x1 PUSH1 0xA0 SHL SUB AND DUP4 MSTORE DUP3 ADD SWAP3 SWAP1 SWAP3 MSTORE PUSH1 0x40 ADD SWAP1 KECCAK256 SLOAD GT JUMPDEST ISZERO PUSH2 0x254C JUMPI PUSH1 0xA0 SLOAD PUSH1 0x9F SLOAD SWAP5 POP SWAP5 POP POP POP POP SWAP1 SWAP2 JUMP JUMPDEST PUSH2 0x2590 PUSH1 0x97 PUSH0 PUSH1 0x9C DUP5 DUP2 SLOAD DUP2 LT PUSH2 0x2565 JUMPI PUSH2 0x2565 PUSH2 0x3404 JUMP JUMPDEST PUSH0 SWAP2 DUP3 MSTORE PUSH1 0x20 DUP1 DUP4 KECCAK256 SWAP1 SWAP2 ADD SLOAD PUSH1 0x1 PUSH1 0x1 PUSH1 0xA0 SHL SUB AND DUP4 MSTORE DUP3 ADD SWAP3 SWAP1 SWAP3 MSTORE PUSH1 0x40 ADD SWAP1 KECCAK256 SLOAD DUP5 SWAP1 PUSH2 0x2170 JUMP JUMPDEST SWAP3 POP PUSH2 0x25D6 PUSH1 0x98 PUSH0 PUSH1 0x9C DUP5 DUP2 SLOAD DUP2 LT PUSH2 0x25AB JUMPI PUSH2 0x25AB PUSH2 0x3404 JUMP JUMPDEST PUSH0 SWAP2 DUP3 MSTORE PUSH1 0x20 DUP1 DUP4 KECCAK256 SWAP1 SWAP2 ADD SLOAD PUSH1 0x1 PUSH1 0x1 PUSH1 0xA0 SHL SUB AND DUP4 MSTORE DUP3 ADD SWAP3 SWAP1 SWAP3 MSTORE PUSH1 0x40 ADD SWAP1 KECCAK256 SLOAD DUP4 SWAP1 PUSH2 0x2170 JUMP JUMPDEST SWAP2 POP PUSH1 0x1 ADD PUSH2 0x24AD JUMP JUMPDEST POP PUSH1 0x9F SLOAD PUSH1 0xA0 SLOAD PUSH2 0x25F0 SWAP2 PUSH2 0x2112 JUMP JUMPDEST DUP3 LT ISZERO PUSH2 0x2607 JUMPI PUSH1 0xA0 SLOAD PUSH1 0x9F SLOAD SWAP4 POP SWAP4 POP POP POP SWAP1 SWAP2 JUMP JUMPDEST SWAP1 SWAP4 SWAP1 SWAP3 POP SWAP1 POP JUMP JUMPDEST PUSH0 DUP1 PUSH0 DUP1 PUSH0 PUSH2 0x261E DUP7 PUSH2 0x2D83 JUMP JUMPDEST SWAP1 POP PUSH0 PUSH2 0x262A DUP8 PUSH2 0x2DA4 JUMP JUMPDEST SWAP1 POP PUSH0 PUSH2 0x2636 DUP9 PUSH2 0x2DBF JUMP JUMPDEST SWAP1 POP PUSH0 PUSH2 0x264F DUP3 PUSH2 0x2649 DUP6 DUP2 DUP14 DUP10 PUSH2 0x2170 JUMP JUMPDEST SWAP1 PUSH2 0x2170 JUMP JUMPDEST SWAP10 SWAP4 SWAP9 POP SWAP2 SWAP7 POP SWAP5 POP SWAP1 SWAP3 POP POP POP JUMP JUMPDEST PUSH0 DUP1 DUP1 DUP1 PUSH2 0x266D DUP10 DUP7 PUSH2 0x2277 JUMP JUMPDEST SWAP1 POP PUSH0 PUSH2 0x267A DUP10 DUP8 PUSH2 0x2277 JUMP JUMPDEST SWAP1 POP PUSH0 PUSH2 0x2687 DUP10 DUP9 PUSH2 0x2277 JUMP JUMPDEST SWAP1 POP PUSH0 PUSH2 0x2694 DUP10 DUP10 PUSH2 0x2277 JUMP JUMPDEST SWAP1 POP PUSH0 PUSH2 0x26A7 DUP3 PUSH2 0x2649 DUP6 DUP2 DUP10 DUP10 PUSH2 0x2170 JUMP JUMPDEST SWAP5 SWAP14 SWAP5 SWAP13 POP SWAP3 SWAP11 POP SWAP3 SWAP9 POP POP POP POP POP POP POP POP POP JUMP JUMPDEST PUSH0 SLOAD PUSH2 0x100 SWAP1 DIV PUSH1 0xFF AND DUP1 PUSH2 0x26D3 JUMPI POP PUSH0 SLOAD PUSH1 0xFF AND ISZERO JUMPDEST PUSH2 0x26EF JUMPI PUSH1 0x40 MLOAD PUSH3 0x461BCD PUSH1 0xE5 SHL DUP2 MSTORE PUSH1 0x4 ADD PUSH2 0x8CD SWAP1 PUSH2 0x326D JUMP JUMPDEST PUSH0 SLOAD PUSH2 0x100 SWAP1 DIV PUSH1 0xFF AND ISZERO DUP1 ISZERO PUSH2 0x2263 JUMPI PUSH0 DUP1 SLOAD PUSH2 0xFFFF NOT AND PUSH2 0x101 OR SWAP1 SSTORE DUP1 ISZERO PUSH2 0x2274 JUMPI PUSH0 DUP1 SLOAD PUSH2 0xFF00 NOT AND SWAP1 SSTORE POP JUMP JUMPDEST PUSH0 SLOAD PUSH2 0x100 SWAP1 DIV PUSH1 0xFF AND DUP1 PUSH2 0x2738 JUMPI POP PUSH0 SLOAD PUSH1 0xFF AND ISZERO JUMPDEST PUSH2 0x2754 JUMPI PUSH1 0x40 MLOAD PUSH3 0x461BCD PUSH1 0xE5 SHL DUP2 MSTORE PUSH1 0x4 ADD PUSH2 0x8CD SWAP1 PUSH2 0x326D JUMP JUMPDEST PUSH0 SLOAD PUSH2 0x100 SWAP1 DIV PUSH1 0xFF AND ISZERO DUP1 ISZERO PUSH2 0x2774 JUMPI PUSH0 DUP1 SLOAD PUSH2 0xFFFF NOT AND PUSH2 0x101 OR SWAP1 SSTORE JUMPDEST PUSH1 0x36 PUSH2 0x2780 DUP5 DUP3 PUSH2 0x332D JUMP JUMPDEST POP PUSH1 0x37 PUSH2 0x278D DUP4 DUP3 PUSH2 0x332D JUMP JUMPDEST POP DUP1 ISZERO PUSH2 0x1107 JUMPI PUSH0 DUP1 SLOAD PUSH2 0xFF00 NOT AND SWAP1 SSTORE POP POP POP JUMP JUMPDEST PUSH0 SLOAD PUSH2 0x100 SWAP1 DIV PUSH1 0xFF AND DUP1 PUSH2 0x27BA JUMPI POP PUSH0 SLOAD PUSH1 0xFF AND ISZERO JUMPDEST PUSH2 0x27D6 JUMPI PUSH1 0x40 MLOAD PUSH3 0x461BCD PUSH1 0xE5 SHL DUP2 MSTORE PUSH1 0x4 ADD PUSH2 0x8CD SWAP1 PUSH2 0x326D JUMP JUMPDEST PUSH0 SLOAD PUSH2 0x100 SWAP1 DIV PUSH1 0xFF AND ISZERO DUP1 ISZERO PUSH2 0x27F6 JUMPI PUSH0 DUP1 SLOAD PUSH2 0xFFFF NOT AND PUSH2 0x101 OR SWAP1 SSTORE JUMPDEST PUSH1 0x65 DUP1 SLOAD PUSH1 0x1 PUSH1 0x1 PUSH1 0xA0 SHL SUB NOT AND CALLER SWAP1 DUP2 OR SWAP1 SWAP2 SSTORE PUSH1 0x40 MLOAD DUP2 SWAP1 PUSH0 SWAP1 PUSH32 0x8BE0079C531659141344CD1FD0A4F28419497F9722A3DAAFE3B4186F6B6457E0 SWAP1 DUP3 SWAP1 LOG3 POP DUP1 ISZERO PUSH2 0x2274 JUMPI PUSH0 DUP1 SLOAD PUSH2 0xFF00 NOT AND SWAP1 SSTORE POP JUMP JUMPDEST PUSH1 0x40 DUP1 MLOAD PUSH1 0x2 DUP1 DUP3 MSTORE PUSH1 0x60 DUP3 ADD DUP4 MSTORE PUSH0 SWAP3 PUSH1 0x20 DUP4 ADD SWAP1 DUP1 CALLDATASIZE DUP4 CALLDATACOPY ADD SWAP1 POP POP SWAP1 POP ADDRESS DUP2 PUSH0 DUP2 MLOAD DUP2 LT PUSH2 0x287E JUMPI PUSH2 0x287E PUSH2 0x3404 JUMP JUMPDEST PUSH1 0x1 PUSH1 0x1 PUSH1 0xA0 SHL SUB SWAP3 DUP4 AND PUSH1 0x20 SWAP2 DUP3 MUL SWAP3 SWAP1 SWAP3 ADD DUP2 ADD SWAP2 SWAP1 SWAP2 MSTORE PUSH1 0xB0 SLOAD PUSH1 0x40 DUP1 MLOAD PUSH4 0x15AB88C9 PUSH1 0xE3 SHL DUP2 MSTORE SWAP1 MLOAD SWAP2 SWAP1 SWAP4 AND SWAP3 PUSH4 0xAD5C4648 SWAP3 PUSH1 0x4 DUP1 DUP4 ADD SWAP4 SWAP2 SWAP3 DUP3 SWAP1 SUB ADD DUP2 DUP7 GAS STATICCALL ISZERO DUP1 ISZERO PUSH2 0x28D5 JUMPI RETURNDATASIZE PUSH0 DUP1 RETURNDATACOPY RETURNDATASIZE PUSH0 REVERT JUMPDEST POP POP POP POP PUSH1 0x40 MLOAD RETURNDATASIZE PUSH1 0x1F NOT PUSH1 0x1F DUP3 ADD AND DUP3 ADD DUP1 PUSH1 0x40 MSTORE POP DUP2 ADD SWAP1 PUSH2 0x28F9 SWAP2 SWAP1 PUSH2 0x323F JUMP JUMPDEST DUP2 PUSH1 0x1 DUP2 MLOAD DUP2 LT PUSH2 0x290C JUMPI PUSH2 0x290C PUSH2 0x3404 JUMP JUMPDEST PUSH1 0x1 PUSH1 0x1 PUSH1 0xA0 SHL SUB SWAP3 DUP4 AND PUSH1 0x20 SWAP2 DUP3 MUL SWAP3 SWAP1 SWAP3 ADD ADD MSTORE PUSH1 0xB0 SLOAD PUSH2 0x2932 SWAP2 ADDRESS SWAP2 AND DUP5 PUSH2 0x1D18 JUMP JUMPDEST PUSH1 0xB0 SLOAD PUSH1 0x40 MLOAD PUSH4 0x791AC947 PUSH1 0xE0 SHL DUP2 MSTORE PUSH1 0x1 PUSH1 0x1 PUSH1 0xA0 SHL SUB SWAP1 SWAP2 AND SWAP1 PUSH4 0x791AC947 SWAP1 PUSH2 0x296A SWAP1 DUP6 SWAP1 PUSH0 SWAP1 DUP7 SWAP1 ADDRESS SWAP1 TIMESTAMP SWAP1 PUSH1 0x4 ADD PUSH2 0x3456 JUMP JUMPDEST PUSH0 PUSH1 0x40 MLOAD DUP1 DUP4 SUB DUP2 PUSH0 DUP8 DUP1 EXTCODESIZE ISZERO DUP1 ISZERO PUSH2 0x2981 JUMPI PUSH0 DUP1 REVERT JUMPDEST POP GAS CALL ISZERO DUP1 ISZERO PUSH2 0x17F0 JUMPI RETURNDATASIZE PUSH0 DUP1 RETURNDATACOPY RETURNDATASIZE PUSH0 REVERT JUMPDEST PUSH1 0xB0 SLOAD PUSH2 0x29AB SWAP1 ADDRESS SWAP1 PUSH1 0x1 PUSH1 0x1 PUSH1 0xA0 SHL SUB AND DUP5 PUSH2 0x1D18 JUMP JUMPDEST PUSH1 0xB0 SLOAD PUSH1 0x1 PUSH1 0x1 PUSH1 0xA0 SHL SUB AND PUSH4 0xF305D719 DUP3 ADDRESS DUP6 PUSH0 DUP1 PUSH2 0x29D3 PUSH1 0x65 SLOAD PUSH1 0x1 PUSH1 0x1 PUSH1 0xA0 SHL SUB AND SWAP1 JUMP JUMPDEST PUSH1 0x40 MLOAD PUSH1 0xE0 DUP9 SWAP1 SHL PUSH1 0x1 PUSH1 0x1 PUSH1 0xE0 SHL SUB NOT AND DUP2 MSTORE PUSH1 0x1 PUSH1 0x1 PUSH1 0xA0 SHL SUB SWAP6 DUP7 AND PUSH1 0x4 DUP3 ADD MSTORE PUSH1 0x24 DUP2 ADD SWAP5 SWAP1 SWAP5 MSTORE PUSH1 0x44 DUP5 ADD SWAP3 SWAP1 SWAP3 MSTORE PUSH1 0x64 DUP4 ADD MSTORE SWAP1 SWAP2 AND PUSH1 0x84 DUP3 ADD MSTORE TIMESTAMP PUSH1 0xA4 DUP3 ADD MSTORE PUSH1 0xC4 ADD PUSH1 0x60 PUSH1 0x40 MLOAD DUP1 DUP4 SUB DUP2 DUP6 DUP9 GAS CALL ISZERO DUP1 ISZERO PUSH2 0x2A39 JUMPI RETURNDATASIZE PUSH0 DUP1 RETURNDATACOPY RETURNDATASIZE PUSH0 REVERT JUMPDEST POP POP POP POP POP PUSH1 0x40 MLOAD RETURNDATASIZE PUSH1 0x1F NOT PUSH1 0x1F DUP3 ADD AND DUP3 ADD DUP1 PUSH1 0x40 MSTORE POP DUP2 ADD SWAP1 PUSH2 0x2A5E SWAP2 SWAP1 PUSH2 0x34C7 JUMP JUMPDEST POP POP PUSH1 0xA2 SLOAD PUSH2 0x2A6E SWAP2 POP DUP4 PUSH2 0x217B JUMP JUMPDEST PUSH1 0xA2 SSTORE POP POP JUMP JUMPDEST PUSH1 0xAB SLOAD ISZERO DUP1 ISZERO PUSH2 0x2A85 JUMPI POP PUSH1 0xAE SLOAD ISZERO JUMPDEST DUP1 ISZERO PUSH2 0x2A91 JUMPI POP PUSH1 0xAD SLOAD ISZERO JUMPDEST ISZERO PUSH2 0x2A98 JUMPI JUMP JUMPDEST PUSH1 0xAB DUP1 SLOAD PUSH1 0xAC SSTORE PUSH1 0xAE DUP1 SLOAD PUSH1 0xAF SSTORE PUSH1 0xAD DUP1 SLOAD PUSH1 0xB2 SSTORE PUSH0 SWAP3 DUP4 SWAP1 SSTORE SWAP1 DUP3 SWAP1 SSTORE SSTORE JUMP JUMPDEST PUSH0 DUP1 PUSH0 DUP1 PUSH0 DUP1 PUSH0 PUSH2 0x2AC9 DUP9 PUSH2 0x211D JUMP JUMPDEST SWAP7 POP SWAP7 POP SWAP7 POP SWAP7 POP SWAP7 POP SWAP7 POP SWAP7 POP PUSH2 0x2B0D DUP9 PUSH1 0x98 PUSH0 DUP14 PUSH1 0x1 PUSH1 0x1 PUSH1 0xA0 SHL SUB AND PUSH1 0x1 PUSH1 0x1 PUSH1 0xA0 SHL SUB AND DUP2 MSTORE PUSH1 0x20 ADD SWAP1 DUP2 MSTORE PUSH1 0x20 ADD PUSH0 KECCAK256 SLOAD PUSH2 0x2170 SWAP1 SWAP2 SWAP1 PUSH4 0xFFFFFFFF AND JUMP JUMPDEST PUSH1 0x1 PUSH1 0x1 PUSH1 0xA0 SHL SUB DUP12 AND PUSH0 SWAP1 DUP2 MSTORE PUSH1 0x98 PUSH1 0x20 SWAP1 DUP2 MSTORE PUSH1 0x40 DUP1 DUP4 KECCAK256 SWAP4 SWAP1 SWAP4 SSTORE PUSH1 0x97 SWAP1 MSTORE KECCAK256 SLOAD PUSH2 0x2B3B SWAP1 DUP9 PUSH2 0x2170 JUMP JUMPDEST PUSH1 0x1 PUSH1 0x1 PUSH1 0xA0 SHL SUB DUP1 DUP13 AND PUSH0 SWAP1 DUP2 MSTORE PUSH1 0x97 PUSH1 0x20 MSTORE PUSH1 0x40 DUP1 DUP3 KECCAK256 SWAP4 SWAP1 SWAP4 SSTORE SWAP1 DUP12 AND DUP2 MSTORE KECCAK256 SLOAD PUSH2 0x2B69 SWAP1 DUP8 PUSH2 0x217B JUMP JUMPDEST PUSH1 0x1 PUSH1 0x1 PUSH1 0xA0 SHL SUB DUP11 AND PUSH0 SWAP1 DUP2 MSTORE PUSH1 0x97 PUSH1 0x20 MSTORE PUSH1 0x40 SWAP1 KECCAK256 SSTORE PUSH2 0x2B8A DUP2 PUSH2 0x2DDA JUMP JUMPDEST PUSH2 0x2B94 DUP6 DUP5 PUSH2 0x2E5C JUMP JUMPDEST PUSH2 0x2B9D DUP3 PUSH2 0x2E80 JUMP JUMPDEST DUP9 PUSH1 0x1 PUSH1 0x1 PUSH1 0xA0 SHL SUB AND DUP11 PUSH1 0x1 PUSH1 0x1 PUSH1 0xA0 SHL SUB AND PUSH32 0xDDF252AD1BE2C89B69C2B068FC378DAA952BA7F163C4A11628F55A4DF523B3EF DUP7 PUSH1 0x40 MLOAD PUSH2 0x2BE2 SWAP2 DUP2 MSTORE PUSH1 0x20 ADD SWAP1 JUMP JUMPDEST PUSH1 0x40 MLOAD DUP1 SWAP2 SUB SWAP1 LOG3 POP POP POP POP POP POP POP POP POP POP JUMP JUMPDEST PUSH0 DUP1 PUSH0 DUP1 PUSH0 DUP1 PUSH0 PUSH2 0x2C06 DUP9 PUSH2 0x211D JUMP JUMPDEST SWAP7 POP SWAP7 POP SWAP7 POP SWAP7 POP SWAP7 POP SWAP7 POP SWAP7 POP PUSH2 0x2C4A DUP8 PUSH1 0x97 PUSH0 DUP14 PUSH1 0x1 PUSH1 0x1 PUSH1 0xA0 SHL SUB AND PUSH1 0x1 PUSH1 0x1 PUSH1 0xA0 SHL SUB AND DUP2 MSTORE PUSH1 0x20 ADD SWAP1 DUP2 MSTORE PUSH1 0x20 ADD PUSH0 KECCAK256 SLOAD PUSH2 0x2170 SWAP1 SWAP2 SWAP1 PUSH4 0xFFFFFFFF AND JUMP JUMPDEST PUSH1 0x1 PUSH1 0x1 PUSH1 0xA0 SHL SUB DUP1 DUP13 AND PUSH0 SWAP1 DUP2 MSTORE PUSH1 0x97 PUSH1 0x20 SWAP1 DUP2 MSTORE PUSH1 0x40 DUP1 DUP4 KECCAK256 SWAP5 SWAP1 SWAP5 SSTORE SWAP2 DUP13 AND DUP2 MSTORE PUSH1 0x98 SWAP1 SWAP2 MSTORE KECCAK256 SLOAD PUSH2 0x2C7F SWAP1 DUP6 PUSH2 0x217B JUMP JUMPDEST PUSH1 0x1 PUSH1 0x1 PUSH1 0xA0 SHL SUB DUP11 AND PUSH0 SWAP1 DUP2 MSTORE PUSH1 0x98 PUSH1 0x20 SWAP1 DUP2 MSTORE PUSH1 0x40 DUP1 DUP4 KECCAK256 SWAP4 SWAP1 SWAP4 SSTORE PUSH1 0x97 SWAP1 MSTORE KECCAK256 SLOAD PUSH2 0x2B69 SWAP1 DUP8 PUSH2 0x217B JUMP JUMPDEST PUSH0 DUP1 PUSH0 DUP1 PUSH0 DUP1 PUSH0 PUSH2 0x2CBD DUP9 PUSH2 0x211D JUMP JUMPDEST SWAP7 POP SWAP7 POP SWAP7 POP SWAP7 POP SWAP7 POP SWAP7 POP SWAP7 POP PUSH2 0x2B3B DUP8 PUSH1 0x97 PUSH0 DUP14 PUSH1 0x1 PUSH1 0x1 PUSH1 0xA0 SHL SUB AND PUSH1 0x1 PUSH1 0x1 PUSH1 0xA0 SHL SUB AND DUP2 MSTORE PUSH1 0x20 ADD SWAP1 DUP2 MSTORE PUSH1 0x20 ADD PUSH0 KECCAK256 SLOAD PUSH2 0x2170 SWAP1 SWAP2 SWAP1 PUSH4 0xFFFFFFFF AND JUMP JUMPDEST PUSH0 DUP1 PUSH0 DUP1 PUSH0 DUP1 PUSH0 PUSH2 0x2D11 DUP9 PUSH2 0x211D JUMP JUMPDEST SWAP7 POP SWAP7 POP SWAP7 POP SWAP7 POP SWAP7 POP SWAP7 POP SWAP7 POP PUSH2 0x2D55 DUP9 PUSH1 0x98 PUSH0 DUP14 PUSH1 0x1 PUSH1 0x1 PUSH1 0xA0 SHL SUB AND PUSH1 0x1 PUSH1 0x1 PUSH1 0xA0 SHL SUB AND DUP2 MSTORE PUSH1 0x20 ADD SWAP1 DUP2 MSTORE PUSH1 0x20 ADD PUSH0 KECCAK256 SLOAD PUSH2 0x2170 SWAP1 SWAP2 SWAP1 PUSH4 0xFFFFFFFF AND JUMP JUMPDEST PUSH1 0x1 PUSH1 0x1 PUSH1 0xA0 SHL SUB DUP12 AND PUSH0 SWAP1 DUP2 MSTORE PUSH1 0x98 PUSH1 0x20 SWAP1 DUP2 MSTORE PUSH1 0x40 DUP1 DUP4 KECCAK256 SWAP4 SWAP1 SWAP4 SSTORE PUSH1 0x97 SWAP1 MSTORE KECCAK256 SLOAD PUSH2 0x2C4A SWAP1 DUP9 PUSH2 0x2170 JUMP JUMPDEST PUSH0 PUSH2 0x89D PUSH1 0x64 PUSH2 0x2D9E PUSH1 0xAB SLOAD DUP6 PUSH2 0x2277 SWAP1 SWAP2 SWAP1 PUSH4 0xFFFFFFFF AND JUMP JUMPDEST SWAP1 PUSH2 0x2112 JUMP JUMPDEST PUSH0 PUSH2 0x89D PUSH1 0x64 PUSH2 0x2D9E PUSH1 0xAD SLOAD DUP6 PUSH2 0x2277 SWAP1 SWAP2 SWAP1 PUSH4 0xFFFFFFFF AND JUMP JUMPDEST PUSH0 PUSH2 0x89D PUSH1 0x64 PUSH2 0x2D9E PUSH1 0xAE SLOAD DUP6 PUSH2 0x2277 SWAP1 SWAP2 SWAP1 PUSH4 0xFFFFFFFF AND JUMP JUMPDEST PUSH0 PUSH2 0x2DE3 PUSH2 0x20F1 JUMP JUMPDEST SWAP1 POP PUSH0 PUSH2 0x2DF0 DUP4 DUP4 PUSH2 0x2277 JUMP JUMPDEST ADDRESS PUSH0 SWAP1 DUP2 MSTORE PUSH1 0x97 PUSH1 0x20 MSTORE PUSH1 0x40 SWAP1 KECCAK256 SLOAD SWAP1 SWAP2 POP PUSH2 0x2E0C SWAP1 DUP3 PUSH2 0x217B JUMP JUMPDEST ADDRESS PUSH0 SWAP1 DUP2 MSTORE PUSH1 0x97 PUSH1 0x20 SWAP1 DUP2 MSTORE PUSH1 0x40 DUP1 DUP4 KECCAK256 SWAP4 SWAP1 SWAP4 SSTORE PUSH1 0x9B SWAP1 MSTORE KECCAK256 SLOAD PUSH1 0xFF AND ISZERO PUSH2 0x1107 JUMPI ADDRESS PUSH0 SWAP1 DUP2 MSTORE PUSH1 0x98 PUSH1 0x20 MSTORE PUSH1 0x40 SWAP1 KECCAK256 SLOAD PUSH2 0x2E48 SWAP1 DUP5 PUSH2 0x217B JUMP JUMPDEST ADDRESS PUSH0 SWAP1 DUP2 MSTORE PUSH1 0x98 PUSH1 0x20 MSTORE PUSH1 0x40 SWAP1 KECCAK256 SSTORE POP POP POP JUMP JUMPDEST PUSH1 0xA0 SLOAD PUSH2 0x2E69 SWAP1 DUP4 PUSH2 0x2170 JUMP JUMPDEST PUSH1 0xA0 SSTORE PUSH1 0xA1 SLOAD PUSH2 0x2E79 SWAP1 DUP3 PUSH2 0x217B JUMP JUMPDEST PUSH1 0xA1 SSTORE POP POP JUMP JUMPDEST PUSH0 PUSH2 0x2E89 PUSH2 0x20F1 JUMP JUMPDEST SWAP1 POP PUSH0 PUSH2 0x2E96 DUP4 DUP4 PUSH2 0x2277 JUMP JUMPDEST PUSH1 0xA0 SLOAD SWAP1 SWAP2 POP PUSH2 0x2EA6 SWAP1 DUP3 PUSH2 0x2170 JUMP JUMPDEST PUSH1 0xA0 SSTORE PUSH1 0xAA SLOAD PUSH2 0x2EB6 SWAP1 DUP5 PUSH2 0x217B JUMP JUMPDEST PUSH1 0xAA SSTORE POP POP POP JUMP JUMPDEST PUSH0 PUSH1 0x20 DUP1 DUP4 MSTORE DUP4 MLOAD DUP1 PUSH1 0x20 DUP6 ADD MSTORE PUSH0 JUMPDEST DUP2 DUP2 LT ISZERO PUSH2 0x2EEA JUMPI DUP6 DUP2 ADD DUP4 ADD MLOAD DUP6 DUP3 ADD PUSH1 0x40 ADD MSTORE DUP3 ADD PUSH2 0x2ECE JUMP JUMPDEST POP PUSH0 PUSH1 0x40 DUP3 DUP7 ADD ADD MSTORE PUSH1 0x40 PUSH1 0x1F NOT PUSH1 0x1F DUP4 ADD AND DUP6 ADD ADD SWAP3 POP POP POP SWAP3 SWAP2 POP POP JUMP JUMPDEST PUSH1 0x1 PUSH1 0x1 PUSH1 0xA0 SHL SUB DUP2 AND DUP2 EQ PUSH2 0x2274 JUMPI PUSH0 DUP1 REVERT JUMPDEST PUSH0 DUP1 PUSH1 0x40 DUP4 DUP6 SUB SLT ISZERO PUSH2 0x2F2F JUMPI PUSH0 DUP1 REVERT JUMPDEST DUP3 CALLDATALOAD PUSH2 0x2F3A DUP2 PUSH2 0x2F0A JUMP JUMPDEST SWAP5 PUSH1 0x20 SWAP4 SWAP1 SWAP4 ADD CALLDATALOAD SWAP4 POP POP POP JUMP JUMPDEST PUSH0 PUSH1 0x20 DUP3 DUP5 SUB SLT ISZERO PUSH2 0x2F58 JUMPI PUSH0 DUP1 REVERT JUMPDEST POP CALLDATALOAD SWAP2 SWAP1 POP JUMP JUMPDEST PUSH0 DUP1 PUSH0 PUSH1 0x60 DUP5 DUP7 SUB SLT ISZERO PUSH2 0x2F71 JUMPI PUSH0 DUP1 REVERT JUMPDEST DUP4 CALLDATALOAD PUSH2 0x2F7C DUP2 PUSH2 0x2F0A JUMP JUMPDEST SWAP3 POP PUSH1 0x20 DUP5 ADD CALLDATALOAD PUSH2 0x2F8C DUP2 PUSH2 0x2F0A JUMP JUMPDEST SWAP3 SWAP6 SWAP3 SWAP5 POP POP POP PUSH1 0x40 SWAP2 SWAP1 SWAP2 ADD CALLDATALOAD SWAP1 JUMP JUMPDEST PUSH0 PUSH1 0x20 DUP3 DUP5 SUB SLT ISZERO PUSH2 0x2FAD JUMPI PUSH0 DUP1 REVERT JUMPDEST DUP2 CALLDATALOAD PUSH2 0xC6B DUP2 PUSH2 0x2F0A JUMP JUMPDEST DUP1 ISZERO ISZERO DUP2 EQ PUSH2 0x2274 JUMPI PUSH0 DUP1 REVERT JUMPDEST PUSH0 DUP1 PUSH1 0x40 DUP4 DUP6 SUB SLT ISZERO PUSH2 0x2FD6 JUMPI PUSH0 DUP1 REVERT JUMPDEST DUP3 CALLDATALOAD SWAP2 POP PUSH1 0x20 DUP4 ADD CALLDATALOAD PUSH2 0x2FE8 DUP2 PUSH2 0x2FB8 JUMP JUMPDEST DUP1 SWAP2 POP POP SWAP3 POP SWAP3 SWAP1 POP JUMP JUMPDEST PUSH4 0x4E487B71 PUSH1 0xE0 SHL PUSH0 MSTORE PUSH1 0x41 PUSH1 0x4 MSTORE PUSH1 0x24 PUSH0 REVERT JUMPDEST PUSH0 DUP3 PUSH1 0x1F DUP4 ADD SLT PUSH2 0x3016 JUMPI PUSH0 DUP1 REVERT JUMPDEST DUP2 CALLDATALOAD PUSH8 0xFFFFFFFFFFFFFFFF DUP1 DUP3 GT ISZERO PUSH2 0x3031 JUMPI PUSH2 0x3031 PUSH2 0x2FF3 JUMP JUMPDEST PUSH1 0x40 MLOAD PUSH1 0x1F DUP4 ADD PUSH1 0x1F NOT SWAP1 DUP2 AND PUSH1 0x3F ADD AND DUP2 ADD SWAP1 DUP3 DUP3 GT DUP2 DUP4 LT OR ISZERO PUSH2 0x3059 JUMPI PUSH2 0x3059 PUSH2 0x2FF3 JUMP JUMPDEST DUP2 PUSH1 0x40 MSTORE DUP4 DUP2 MSTORE DUP7 PUSH1 0x20 DUP6 DUP9 ADD ADD GT ISZERO PUSH2 0x3071 JUMPI PUSH0 DUP1 REVERT JUMPDEST DUP4 PUSH1 0x20 DUP8 ADD PUSH1 0x20 DUP4 ADD CALLDATACOPY PUSH0 PUSH1 0x20 DUP6 DUP4 ADD ADD MSTORE DUP1 SWAP5 POP POP POP POP POP SWAP3 SWAP2 POP POP JUMP JUMPDEST PUSH0 DUP1 PUSH1 0x40 DUP4 DUP6 SUB SLT ISZERO PUSH2 0x30A1 JUMPI PUSH0 DUP1 REVERT JUMPDEST DUP3 CALLDATALOAD PUSH8 0xFFFFFFFFFFFFFFFF DUP1 DUP3 GT ISZERO PUSH2 0x30B8 JUMPI PUSH0 DUP1 REVERT JUMPDEST PUSH2 0x30C4 DUP7 DUP4 DUP8 ADD PUSH2 0x3007 JUMP JUMPDEST SWAP4 POP PUSH1 0x20 DUP6 ADD CALLDATALOAD SWAP2 POP DUP1 DUP3 GT ISZERO PUSH2 0x30D9 JUMPI PUSH0 DUP1 REVERT JUMPDEST POP PUSH2 0x30E6 DUP6 DUP3 DUP7 ADD PUSH2 0x3007 JUMP JUMPDEST SWAP2 POP POP SWAP3 POP SWAP3 SWAP1 POP JUMP JUMPDEST PUSH0 DUP1 PUSH0 PUSH1 0x40 DUP5 DUP7 SUB SLT ISZERO PUSH2 0x3102 JUMPI PUSH0 DUP1 REVERT JUMPDEST DUP4 CALLDATALOAD PUSH8 0xFFFFFFFFFFFFFFFF DUP1 DUP3 GT ISZERO PUSH2 0x3119 JUMPI PUSH0 DUP1 REVERT JUMPDEST DUP2 DUP7 ADD SWAP2 POP DUP7 PUSH1 0x1F DUP4 ADD SLT PUSH2 0x312C JUMPI PUSH0 DUP1 REVERT JUMPDEST DUP2 CALLDATALOAD DUP2 DUP2 GT ISZERO PUSH2 0x313A JUMPI PUSH0 DUP1 REVERT JUMPDEST DUP8 PUSH1 0x20 DUP3 PUSH1 0x5 SHL DUP6 ADD ADD GT ISZERO PUSH2 0x314E JUMPI PUSH0 DUP1 REVERT JUMPDEST PUSH1 0x20 SWAP3 DUP4 ADD SWAP9 SWAP1 SWAP8 POP SWAP6 SWAP1 SWAP2 ADD CALLDATALOAD SWAP5 SWAP4 POP POP POP POP JUMP JUMPDEST PUSH0 PUSH1 0x20 DUP3 DUP5 SUB SLT ISZERO PUSH2 0x3174 JUMPI PUSH0 DUP1 REVERT JUMPDEST DUP2 CALLDATALOAD PUSH2 0xC6B DUP2 PUSH2 0x2FB8 JUMP JUMPDEST PUSH0 DUP1 PUSH1 0x40 DUP4 DUP6 SUB SLT ISZERO PUSH2 0x3190 JUMPI PUSH0 DUP1 REVERT JUMPDEST DUP3 CALLDATALOAD PUSH2 0x319B DUP2 PUSH2 0x2F0A JUMP JUMPDEST SWAP2 POP PUSH1 0x20 DUP4 ADD CALLDATALOAD PUSH2 0x2FE8 DUP2 PUSH2 0x2F0A JUMP JUMPDEST PUSH1 0x1 DUP2 DUP2 SHR SWAP1 DUP3 AND DUP1 PUSH2 0x31BF JUMPI PUSH1 0x7F DUP3 AND SWAP2 POP JUMPDEST PUSH1 0x20 DUP3 LT DUP2 SUB PUSH2 0x31DD JUMPI PUSH4 0x4E487B71 PUSH1 0xE0 SHL PUSH0 MSTORE PUSH1 0x22 PUSH1 0x4 MSTORE PUSH1 0x24 PUSH0 REVERT JUMPDEST POP SWAP2 SWAP1 POP JUMP JUMPDEST PUSH1 0x20 DUP1 DUP3 MSTORE DUP2 DUP2 ADD MSTORE PUSH32 0x4F776E61626C653A2063616C6C6572206973206E6F7420746865206F776E6572 PUSH1 0x40 DUP3 ADD MSTORE PUSH1 0x60 ADD SWAP1 JUMP JUMPDEST PUSH4 0x4E487B71 PUSH1 0xE0 SHL PUSH0 MSTORE PUSH1 0x11 PUSH1 0x4 MSTORE PUSH1 0x24 PUSH0 REVERT JUMPDEST DUP2 DUP2 SUB DUP2 DUP2 GT ISZERO PUSH2 0x89D JUMPI PUSH2 0x89D PUSH2 0x3218 JUMP JUMPDEST PUSH0 PUSH1 0x20 DUP3 DUP5 SUB SLT ISZERO PUSH2 0x324F JUMPI PUSH0 DUP1 REVERT JUMPDEST DUP2 MLOAD PUSH2 0xC6B DUP2 PUSH2 0x2F0A JUMP JUMPDEST DUP1 DUP3 ADD DUP1 DUP3 GT ISZERO PUSH2 0x89D JUMPI PUSH2 0x89D PUSH2 0x3218 JUMP JUMPDEST PUSH1 0x20 DUP1 DUP3 MSTORE PUSH1 0x2E SWAP1 DUP3 ADD MSTORE PUSH32 0x496E697469616C697A61626C653A20636F6E747261637420697320616C726561 PUSH1 0x40 DUP3 ADD MSTORE PUSH14 0x191E481A5B9A5D1A585B1A5E9959 PUSH1 0x92 SHL PUSH1 0x60 DUP3 ADD MSTORE PUSH1 0x80 ADD SWAP1 JUMP JUMPDEST PUSH4 0x4E487B71 PUSH1 0xE0 SHL PUSH0 MSTORE PUSH1 0x12 PUSH1 0x4 MSTORE PUSH1 0x24 PUSH0 REVERT JUMPDEST PUSH0 DUP3 PUSH2 0x32DD JUMPI PUSH2 0x32DD PUSH2 0x32BB JUMP JUMPDEST POP MOD SWAP1 JUMP JUMPDEST PUSH1 0x1F DUP3 GT ISZERO PUSH2 0x1107 JUMPI DUP1 PUSH0 MSTORE PUSH1 0x20 PUSH0 KECCAK256 PUSH1 0x1F DUP5 ADD PUSH1 0x5 SHR DUP2 ADD PUSH1 0x20 DUP6 LT ISZERO PUSH2 0x3307 JUMPI POP DUP1 JUMPDEST PUSH1 0x1F DUP5 ADD PUSH1 0x5 SHR DUP3 ADD SWAP2 POP JUMPDEST DUP2 DUP2 LT ISZERO PUSH2 0x3326 JUMPI PUSH0 DUP2 SSTORE PUSH1 0x1 ADD PUSH2 0x3313 JUMP JUMPDEST POP POP POP POP POP JUMP JUMPDEST DUP2 MLOAD PUSH8 0xFFFFFFFFFFFFFFFF DUP2 GT ISZERO PUSH2 0x3347 JUMPI PUSH2 0x3347 PUSH2 0x2FF3 JUMP JUMPDEST PUSH2 0x335B DUP2 PUSH2 0x3355 DUP5 SLOAD PUSH2 0x31AB JUMP JUMPDEST DUP5 PUSH2 0x32E2 JUMP JUMPDEST PUSH1 0x20 DUP1 PUSH1 0x1F DUP4 GT PUSH1 0x1 DUP2 EQ PUSH2 0x338E JUMPI PUSH0 DUP5 ISZERO PUSH2 0x3377 JUMPI POP DUP6 DUP4 ADD MLOAD JUMPDEST PUSH0 NOT PUSH1 0x3 DUP7 SWAP1 SHL SHR NOT AND PUSH1 0x1 DUP6 SWAP1 SHL OR DUP6 SSTORE PUSH2 0x17F0 JUMP JUMPDEST PUSH0 DUP6 DUP2 MSTORE PUSH1 0x20 DUP2 KECCAK256 PUSH1 0x1F NOT DUP7 AND SWAP2 JUMPDEST DUP3 DUP2 LT ISZERO PUSH2 0x33BC JUMPI DUP9 DUP7 ADD MLOAD DUP3 SSTORE SWAP5 DUP5 ADD SWAP5 PUSH1 0x1 SWAP1 SWAP2 ADD SWAP1 DUP5 ADD PUSH2 0x339D JUMP JUMPDEST POP DUP6 DUP3 LT ISZERO PUSH2 0x33D9 JUMPI DUP8 DUP6 ADD MLOAD PUSH0 NOT PUSH1 0x3 DUP9 SWAP1 SHL PUSH1 0xF8 AND SHR NOT AND DUP2 SSTORE JUMPDEST POP POP POP POP POP PUSH1 0x1 SWAP1 DUP2 SHL ADD SWAP1 SSTORE POP JUMP JUMPDEST PUSH0 PUSH1 0x20 DUP3 DUP5 SUB SLT ISZERO PUSH2 0x33F9 JUMPI PUSH0 DUP1 REVERT JUMPDEST DUP2 MLOAD PUSH2 0xC6B DUP2 PUSH2 0x2FB8 JUMP JUMPDEST PUSH4 0x4E487B71 PUSH1 0xE0 SHL PUSH0 MSTORE PUSH1 0x32 PUSH1 0x4 MSTORE PUSH1 0x24 PUSH0 REVERT JUMPDEST PUSH4 0x4E487B71 PUSH1 0xE0 SHL PUSH0 MSTORE PUSH1 0x31 PUSH1 0x4 MSTORE PUSH1 0x24 PUSH0 REVERT JUMPDEST PUSH0 DUP3 PUSH2 0x343A JUMPI PUSH2 0x343A PUSH2 0x32BB JUMP JUMPDEST POP DIV SWAP1 JUMP JUMPDEST DUP1 DUP3 MUL DUP2 ISZERO DUP3 DUP3 DIV DUP5 EQ OR PUSH2 0x89D JUMPI PUSH2 0x89D PUSH2 0x3218 JUMP JUMPDEST PUSH0 PUSH1 0xA0 DUP3 ADD DUP8 DUP4 MSTORE PUSH1 0x20 DUP8 PUSH1 0x20 DUP6 ADD MSTORE PUSH1 0xA0 PUSH1 0x40 DUP6 ADD MSTORE DUP2 DUP8 MLOAD DUP1 DUP5 MSTORE PUSH1 0xC0 DUP7 ADD SWAP2 POP PUSH1 0x20 DUP10 ADD SWAP4 POP PUSH0 JUMPDEST DUP2 DUP2 LT ISZERO PUSH2 0x34A6 JUMPI DUP5 MLOAD PUSH1 0x1 PUSH1 0x1 PUSH1 0xA0 SHL SUB AND DUP4 MSTORE SWAP4 DUP4 ADD SWAP4 SWAP2 DUP4 ADD SWAP2 PUSH1 0x1 ADD PUSH2 0x3481 JUMP JUMPDEST POP POP PUSH1 0x1 PUSH1 0x1 PUSH1 0xA0 SHL SUB SWAP7 SWAP1 SWAP7 AND PUSH1 0x60 DUP6 ADD MSTORE POP POP POP PUSH1 0x80 ADD MSTORE SWAP4 SWAP3 POP POP POP JUMP JUMPDEST PUSH0 DUP1 PUSH0 PUSH1 0x60 DUP5 DUP7 SUB SLT ISZERO PUSH2 0x34D9 JUMPI PUSH0 DUP1 REVERT JUMPDEST DUP4 MLOAD SWAP3 POP PUSH1 0x20 DUP5 ADD MLOAD SWAP2 POP PUSH1 0x40 DUP5 ADD MLOAD SWAP1 POP SWAP3 POP SWAP3 POP SWAP3 JUMP INVALID LOG2 PUSH5 0x6970667358 0x22 SLT KECCAK256 JUMPDEST CALLVALUE PREVRANDAO OR 0xCC CALLDATALOAD 0x2F PUSH7 0x262D29C9F54342 0x2C CHAINID 0xA8 PUSH20 0x3227B60D01509CCC6B8E9A95D664736F6C634300 ADDMOD OR STOP CALLER "
		},
		"gasEstimates": {
			"creation": {
				"codeDepositCost": "2721600",
				"executionCost": "2959",
				"totalCost": "2724559"
			},
			"external": {
				"_maxTxAmount()": "2406",
				"_setBurnFee(uint256)": "24590",
				"_setLiquidityFee(uint256)": "24589",
				"_setNumTokensSellToAddToLiquidity(uint256)": "24590",
				"_setTaxFee(uint256)": "24568",
				"_setUniSwapRouterAddress(address)": "26837",
				"_setuniswapV2PairAddress(address)": "26792",
				"airdrop(address[],uint256)": "infinite",
				"allowance(address,address)": "infinite",
				"approve(address,uint256)": "24656",
				"balanceOf(address)": "infinite",
				"claim()": "infinite",
				"decimals()": "2444",
				"decreaseAllowance(address,uint256)": "27099",
				"deliver(uint256)": "infinite",
				"excludeAccount(address)": "infinite",
				"excludeFromFee(address)": "26875",
				"getLiquidityFee()": "2336",
				"getNumTokensSellToAddToLiquidity()": "2424",
				"getTaxFee()": "2423",
				"includeAccount(address)": "infinite",
				"includeInFee(address)": "26801",
				"increaseAllowance(address,uint256)": "infinite",
				"initialize(string,string)": "infinite",
				"isExcluded(address)": "2695",
				"isExcludedFromFee(address)": "2695",
				"name()": "infinite",
				"owner()": "2419",
				"recoverERC20(address,uint256)": "infinite",
				"reflectionFromToken(uint256,bool)": "infinite",
				"renounceOwnership()": "30250",
				"setSwapAndLiquifyEnabled(bool)": "27894",
				"startSwapFunctionality()": "infinite",
				"swapAndLiquifyEnabled()": "2415",
				"symbol()": "infinite",
				"tokenFromReflection(uint256)": "infinite",
				"totalBurn()": "2403",
				"totalFees()": "2371",
				"totalLiquidity()": "2404",
				"totalSupply()": "2337",
				"transfer(address,uint256)": "infinite",
				"transferFrom(address,address,uint256)": "infinite",
				"transferOwnership(address)": "30501",
				"uniswapV2Pair()": "2403",
				"uniswapV2Router()": "2471"
			},
			"internal": {
				"_getCurrentSupply()": "infinite",
				"_getMaxTxAmount()": "infinite",
				"_getRValues(uint256,uint256,uint256,uint256,uint256)": "infinite",
				"_getRate()": "infinite",
				"_getTValues(uint256)": "infinite",
				"_getValues(uint256)": "infinite",
				"_reflectBurn(uint256)": "infinite",
				"_reflectFee(uint256,uint256)": "infinite",
				"_takeLiquidity(uint256)": "infinite",
				"_tokenTransfer(address,address,uint256,bool)": "infinite",
				"_transfer(address,address,uint256)": "infinite",
				"_transferBothExcluded(address,address,uint256)": "infinite",
				"_transferFromExcluded(address,address,uint256)": "infinite",
				"_transferStandard(address,address,uint256)": "infinite",
				"_transferToExcluded(address,address,uint256)": "infinite",
				"addLiquidity(uint256,uint256)": "infinite",
				"calculateBurnFee(uint256)": "infinite",
				"calculateLiquidityFee(uint256)": "infinite",
				"calculateTaxFee(uint256)": "infinite",
				"removeAllFee()": "94035",
				"restoreAllFee()": "infinite",
				"swapAndLiquify(uint256)": "infinite",
				"swapTokensForEth(uint256)": "infinite"
			}
		},
		"methodIdentifiers": {
			"_maxTxAmount()": "7d1db4a5",
			"_setBurnFee(uint256)": "3b6b1961",
			"_setLiquidityFee(uint256)": "bcd6d446",
			"_setNumTokensSellToAddToLiquidity(uint256)": "1decaadc",
			"_setTaxFee(uint256)": "5880b873",
			"_setUniSwapRouterAddress(address)": "85227388",
			"_setuniswapV2PairAddress(address)": "c138ff6a",
			"airdrop(address[],uint256)": "c204642c",
			"allowance(address,address)": "dd62ed3e",
			"approve(address,uint256)": "095ea7b3",
			"balanceOf(address)": "70a08231",
			"claim()": "4e71d92d",
			"decimals()": "313ce567",
			"decreaseAllowance(address,uint256)": "a457c2d7",
			"deliver(uint256)": "3bd5d173",
			"excludeAccount(address)": "f2cc0c18",
			"excludeFromFee(address)": "437823ec",
			"getLiquidityFee()": "871363e9",
			"getNumTokensSellToAddToLiquidity()": "9b2f821b",
			"getTaxFee()": "f66608fe",
			"includeAccount(address)": "f84354f1",
			"includeInFee(address)": "ea2f0b37",
			"increaseAllowance(address,uint256)": "39509351",
			"initialize(string,string)": "4cd88b76",
			"isExcluded(address)": "cba0e996",
			"isExcludedFromFee(address)": "5342acb4",
			"name()": "06fdde03",
			"owner()": "8da5cb5b",
			"recoverERC20(address,uint256)": "8980f11f",
			"reflectionFromToken(uint256,bool)": "4549b039",
			"renounceOwnership()": "715018a6",
			"setSwapAndLiquifyEnabled(bool)": "c49b9a80",
			"startSwapFunctionality()": "2c7de63d",
			"swapAndLiquifyEnabled()": "4a74bb02",
			"symbol()": "95d89b41",
			"tokenFromReflection(uint256)": "2d838119",
			"totalBurn()": "3c9f861d",
			"totalFees()": "13114a9d",
			"totalLiquidity()": "15770f92",
			"totalSupply()": "18160ddd",
			"transfer(address,uint256)": "a9059cbb",
			"transferFrom(address,address,uint256)": "23b872dd",
			"transferOwnership(address)": "f2fde38b",
			"uniswapV2Pair()": "49bd5a5e",
			"uniswapV2Router()": "1694505e"
		}
	},
	"abi": [
		{
			"anonymous": false,
			"inputs": [
				{
					"indexed": true,
					"internalType": "address",
					"name": "owner",
					"type": "address"
				},
				{
					"indexed": true,
					"internalType": "address",
					"name": "spender",
					"type": "address"
				},
				{
					"indexed": false,
					"internalType": "uint256",
					"name": "value",
					"type": "uint256"
				}
			],
			"name": "Approval",
			"type": "event"
		},
		{
			"anonymous": false,
			"inputs": [
				{
					"indexed": false,
					"internalType": "uint256",
					"name": "balan",
					"type": "uint256"
				}
			],
			"name": "Claimed",
			"type": "event"
		},
		{
			"anonymous": false,
			"inputs": [
				{
					"indexed": false,
					"internalType": "uint256",
					"name": "minTokensBeforeSwap",
					"type": "uint256"
				}
			],
			"name": "MinTokensBeforeSwapUpdated",
			"type": "event"
		},
		{
			"anonymous": false,
			"inputs": [
				{
					"indexed": true,
					"internalType": "address",
					"name": "previousOwner",
					"type": "address"
				},
				{
					"indexed": true,
					"internalType": "address",
					"name": "newOwner",
					"type": "address"
				}
			],
			"name": "OwnershipTransferred",
			"type": "event"
		},
		{
			"anonymous": false,
			"inputs": [
				{
					"indexed": false,
					"internalType": "uint256",
					"name": "tokensSwapped",
					"type": "uint256"
				},
				{
					"indexed": false,
					"internalType": "uint256",
					"name": "ethReceived",
					"type": "uint256"
				},
				{
					"indexed": false,
					"internalType": "uint256",
					"name": "tokensIntoLiqudity",
					"type": "uint256"
				}
			],
			"name": "SwapAndLiquify",
			"type": "event"
		},
		{
			"anonymous": false,
			"inputs": [
				{
					"indexed": false,
					"internalType": "bool",
					"name": "enabled",
					"type": "bool"
				}
			],
			"name": "SwapAndLiquifyEnabledUpdated",
			"type": "event"
		},
		{
			"anonymous": false,
			"inputs": [
				{
					"indexed": true,
					"internalType": "address",
					"name": "from",
					"type": "address"
				},
				{
					"indexed": true,
					"internalType": "address",
					"name": "to",
					"type": "address"
				},
				{
					"indexed": false,
					"internalType": "uint256",
					"name": "value",
					"type": "uint256"
				}
			],
			"name": "Transfer",
			"type": "event"
		},
		{
			"inputs": [],
			"name": "_maxTxAmount",
			"outputs": [
				{
					"internalType": "uint256",
					"name": "",
					"type": "uint256"
				}
			],
			"stateMutability": "view",
			"type": "function"
		},
		{
			"inputs": [
				{
					"internalType": "uint256",
					"name": "burnFee",
					"type": "uint256"
				}
			],
			"name": "_setBurnFee",
			"outputs": [],
			"stateMutability": "nonpayable",
			"type": "function"
		},
		{
			"inputs": [
				{
					"internalType": "uint256",
					"name": "liquidityFee",
					"type": "uint256"
				}
			],
			"name": "_setLiquidityFee",
			"outputs": [],
			"stateMutability": "nonpayable",
			"type": "function"
		},
		{
			"inputs": [
				{
					"internalType": "uint256",
					"name": "numTokens",
					"type": "uint256"
				}
			],
			"name": "_setNumTokensSellToAddToLiquidity",
			"outputs": [],
			"stateMutability": "nonpayable",
			"type": "function"
		},
		{
			"inputs": [
				{
					"internalType": "uint256",
					"name": "taxFee",
					"type": "uint256"
				}
			],
			"name": "_setTaxFee",
			"outputs": [],
			"stateMutability": "nonpayable",
			"type": "function"
		},
		{
			"inputs": [
				{
					"internalType": "address",
					"name": "routerAddress",
					"type": "address"
				}
			],
			"name": "_setUniSwapRouterAddress",
			"outputs": [],
			"stateMutability": "nonpayable",
			"type": "function"
		},
		{
			"inputs": [
				{
					"internalType": "address",
					"name": "pairAddress",
					"type": "address"
				}
			],
			"name": "_setuniswapV2PairAddress",
			"outputs": [],
			"stateMutability": "nonpayable",
			"type": "function"
		},
		{
			"inputs": [
				{
					"internalType": "address[]",
					"name": "addressLis",
					"type": "address[]"
				},
				{
					"internalType": "uint256",
					"name": "tAmount",
					"type": "uint256"
				}
			],
			"name": "airdrop",
			"outputs": [],
			"stateMutability": "nonpayable",
			"type": "function"
		},
		{
			"inputs": [
				{
					"internalType": "address",
					"name": "owner",
					"type": "address"
				},
				{
					"internalType": "address",
					"name": "spender",
					"type": "address"
				}
			],
			"name": "allowance",
			"outputs": [
				{
					"internalType": "uint256",
					"name": "",
					"type": "uint256"
				}
			],
			"stateMutability": "view",
			"type": "function"
		},
		{
			"inputs": [
				{
					"internalType": "address",
					"name": "spender",
					"type": "address"
				},
				{
					"internalType": "uint256",
					"name": "amount",
					"type": "uint256"
				}
			],
			"name": "approve",
			"outputs": [
				{
					"internalType": "bool",
					"name": "",
					"type": "bool"
				}
			],
			"stateMutability": "nonpayable",
			"type": "function"
		},
		{
			"inputs": [
				{
					"internalType": "address",
					"name": "account",
					"type": "address"
				}
			],
			"name": "balanceOf",
			"outputs": [
				{
					"internalType": "uint256",
					"name": "",
					"type": "uint256"
				}
			],
			"stateMutability": "view",
			"type": "function"
		},
		{
			"inputs": [],
			"name": "claim",
			"outputs": [
				{
					"internalType": "bool",
					"name": "",
					"type": "bool"
				}
			],
			"stateMutability": "nonpayable",
			"type": "function"
		},
		{
			"inputs": [],
			"name": "decimals",
			"outputs": [
				{
					"internalType": "uint8",
					"name": "",
					"type": "uint8"
				}
			],
			"stateMutability": "view",
			"type": "function"
		},
		{
			"inputs": [
				{
					"internalType": "address",
					"name": "spender",
					"type": "address"
				},
				{
					"internalType": "uint256",
					"name": "subtractedValue",
					"type": "uint256"
				}
			],
			"name": "decreaseAllowance",
			"outputs": [
				{
					"internalType": "bool",
					"name": "",
					"type": "bool"
				}
			],
			"stateMutability": "nonpayable",
			"type": "function"
		},
		{
			"inputs": [
				{
					"internalType": "uint256",
					"name": "tAmount",
					"type": "uint256"
				}
			],
			"name": "deliver",
			"outputs": [],
			"stateMutability": "nonpayable",
			"type": "function"
		},
		{
			"inputs": [
				{
					"internalType": "address",
					"name": "account",
					"type": "address"
				}
			],
			"name": "excludeAccount",
			"outputs": [],
			"stateMutability": "nonpayable",
			"type": "function"
		},
		{
			"inputs": [
				{
					"internalType": "address",
					"name": "account",
					"type": "address"
				}
			],
			"name": "excludeFromFee",
			"outputs": [],
			"stateMutability": "nonpayable",
			"type": "function"
		},
		{
			"inputs": [],
			"name": "getLiquidityFee",
			"outputs": [
				{
					"internalType": "uint256",
					"name": "",
					"type": "uint256"
				}
			],
			"stateMutability": "view",
			"type": "function"
		},
		{
			"inputs": [],
			"name": "getNumTokensSellToAddToLiquidity",
			"outputs": [
				{
					"internalType": "uint256",
					"name": "",
					"type": "uint256"
				}
			],
			"stateMutability": "view",
			"type": "function"
		},
		{
			"inputs": [],
			"name": "getTaxFee",
			"outputs": [
				{
					"internalType": "uint256",
					"name": "",
					"type": "uint256"
				}
			],
			"stateMutability": "view",
			"type": "function"
		},
		{
			"inputs": [
				{
					"internalType": "address",
					"name": "account",
					"type": "address"
				}
			],
			"name": "includeAccount",
			"outputs": [],
			"stateMutability": "nonpayable",
			"type": "function"
		},
		{
			"inputs": [
				{
					"internalType": "address",
					"name": "account",
					"type": "address"
				}
			],
			"name": "includeInFee",
			"outputs": [],
			"stateMutability": "nonpayable",
			"type": "function"
		},
		{
			"inputs": [
				{
					"internalType": "address",
					"name": "spender",
					"type": "address"
				},
				{
					"internalType": "uint256",
					"name": "addedValue",
					"type": "uint256"
				}
			],
			"name": "increaseAllowance",
			"outputs": [
				{
					"internalType": "bool",
					"name": "",
					"type": "bool"
				}
			],
			"stateMutability": "nonpayable",
			"type": "function"
		},
		{
			"inputs": [
				{
					"internalType": "string",
					"name": "name",
					"type": "string"
				},
				{
					"internalType": "string",
					"name": "symbol",
					"type": "string"
				}
			],
			"name": "initialize",
			"outputs": [],
			"stateMutability": "nonpayable",
			"type": "function"
		},
		{
			"inputs": [
				{
					"internalType": "address",
					"name": "account",
					"type": "address"
				}
			],
			"name": "isExcluded",
			"outputs": [
				{
					"internalType": "bool",
					"name": "",
					"type": "bool"
				}
			],
			"stateMutability": "view",
			"type": "function"
		},
		{
			"inputs": [
				{
					"internalType": "address",
					"name": "account",
					"type": "address"
				}
			],
			"name": "isExcludedFromFee",
			"outputs": [
				{
					"internalType": "bool",
					"name": "",
					"type": "bool"
				}
			],
			"stateMutability": "view",
			"type": "function"
		},
		{
			"inputs": [],
			"name": "name",
			"outputs": [
				{
					"internalType": "string",
					"name": "",
					"type": "string"
				}
			],
			"stateMutability": "view",
			"type": "function"
		},
		{
			"inputs": [],
			"name": "owner",
			"outputs": [
				{
					"internalType": "address",
					"name": "",
					"type": "address"
				}
			],
			"stateMutability": "view",
			"type": "function"
		},
		{
			"inputs": [
				{
					"internalType": "address",
					"name": "tokenAddress",
					"type": "address"
				},
				{
					"internalType": "uint256",
					"name": "tokenAmount",
					"type": "uint256"
				}
			],
			"name": "recoverERC20",
			"outputs": [],
			"stateMutability": "nonpayable",
			"type": "function"
		},
		{
			"inputs": [
				{
					"internalType": "uint256",
					"name": "tAmount",
					"type": "uint256"
				},
				{
					"internalType": "bool",
					"name": "deductTransferFee",
					"type": "bool"
				}
			],
			"name": "reflectionFromToken",
			"outputs": [
				{
					"internalType": "uint256",
					"name": "",
					"type": "uint256"
				}
			],
			"stateMutability": "view",
			"type": "function"
		},
		{
			"inputs": [],
			"name": "renounceOwnership",
			"outputs": [],
			"stateMutability": "nonpayable",
			"type": "function"
		},
		{
			"inputs": [
				{
					"internalType": "bool",
					"name": "_enabled",
					"type": "bool"
				}
			],
			"name": "setSwapAndLiquifyEnabled",
			"outputs": [],
			"stateMutability": "nonpayable",
			"type": "function"
		},
		{
			"inputs": [],
			"name": "startSwapFunctionality",
			"outputs": [],
			"stateMutability": "nonpayable",
			"type": "function"
		},
		{
			"inputs": [],
			"name": "swapAndLiquifyEnabled",
			"outputs": [
				{
					"internalType": "bool",
					"name": "",
					"type": "bool"
				}
			],
			"stateMutability": "view",
			"type": "function"
		},
		{
			"inputs": [],
			"name": "symbol",
			"outputs": [
				{
					"internalType": "string",
					"name": "",
					"type": "string"
				}
			],
			"stateMutability": "view",
			"type": "function"
		},
		{
			"inputs": [
				{
					"internalType": "uint256",
					"name": "rAmount",
					"type": "uint256"
				}
			],
			"name": "tokenFromReflection",
			"outputs": [
				{
					"internalType": "uint256",
					"name": "",
					"type": "uint256"
				}
			],
			"stateMutability": "view",
			"type": "function"
		},
		{
			"inputs": [],
			"name": "totalBurn",
			"outputs": [
				{
					"internalType": "uint256",
					"name": "",
					"type": "uint256"
				}
			],
			"stateMutability": "view",
			"type": "function"
		},
		{
			"inputs": [],
			"name": "totalFees",
			"outputs": [
				{
					"internalType": "uint256",
					"name": "",
					"type": "uint256"
				}
			],
			"stateMutability": "view",
			"type": "function"
		},
		{
			"inputs": [],
			"name": "totalLiquidity",
			"outputs": [
				{
					"internalType": "uint256",
					"name": "",
					"type": "uint256"
				}
			],
			"stateMutability": "view",
			"type": "function"
		},
		{
			"inputs": [],
			"name": "totalSupply",
			"outputs": [
				{
					"internalType": "uint256",
					"name": "",
					"type": "uint256"
				}
			],
			"stateMutability": "view",
			"type": "function"
		},
		{
			"inputs": [
				{
					"internalType": "address",
					"name": "recipient",
					"type": "address"
				},
				{
					"internalType": "uint256",
					"name": "amount",
					"type": "uint256"
				}
			],
			"name": "transfer",
			"outputs": [
				{
					"internalType": "bool",
					"name": "",
					"type": "bool"
				}
			],
			"stateMutability": "nonpayable",
			"type": "function"
		},
		{
			"inputs": [
				{
					"internalType": "address",
					"name": "sender",
					"type": "address"
				},
				{
					"internalType": "address",
					"name": "recipient",
					"type": "address"
				},
				{
					"internalType": "uint256",
					"name": "amount",
					"type": "uint256"
				}
			],
			"name": "transferFrom",
			"outputs": [
				{
					"internalType": "bool",
					"name": "",
					"type": "bool"
				}
			],
			"stateMutability": "nonpayable",
			"type": "function"
		},
		{
			"inputs": [
				{
					"internalType": "address",
					"name": "newOwner",
					"type": "address"
				}
			],
			"name": "transferOwnership",
			"outputs": [],
			"stateMutability": "nonpayable",
			"type": "function"
		},
		{
			"inputs": [],
			"name": "uniswapV2Pair",
			"outputs": [
				{
					"internalType": "address",
					"name": "",
					"type": "address"
				}
			],
			"stateMutability": "view",
			"type": "function"
		},
		{
			"inputs": [],
			"name": "uniswapV2Router",
			"outputs": [
				{
					"internalType": "contract IUniswapV2Router02",
					"name": "",
					"type": "address"
				}
			],
			"stateMutability": "view",
			"type": "function"
		},
		{
			"stateMutability": "payable",
			"type": "receive"
		}
	]
}